{
	"contracts/uniswapv2/SelfSufficientERC20.sol": {
		"SelfSufficientERC20": {
			"abi": [
				{
					"inputs": [],
					"stateMutability": "nonpayable",
					"type": "constructor"
				},
				{
					"anonymous": false,
					"inputs": [
						{
							"indexed": true,
							"internalType": "address",
							"name": "owner",
							"type": "address"
						},
						{
							"indexed": true,
							"internalType": "address",
							"name": "spender",
							"type": "address"
						},
						{
							"indexed": false,
							"internalType": "uint256",
							"name": "value",
							"type": "uint256"
						}
					],
					"name": "Approval",
					"type": "event"
				},
				{
					"anonymous": false,
					"inputs": [
						{
							"indexed": true,
							"internalType": "address",
							"name": "from",
							"type": "address"
						},
						{
							"indexed": true,
							"internalType": "address",
							"name": "to",
							"type": "address"
						},
						{
							"indexed": false,
							"internalType": "uint256",
							"name": "value",
							"type": "uint256"
						}
					],
					"name": "Transfer",
					"type": "event"
				},
				{
					"inputs": [
						{
							"internalType": "address",
							"name": "fundsOwner",
							"type": "address"
						},
						{
							"internalType": "address",
							"name": "spender",
							"type": "address"
						},
						{
							"internalType": "uint256",
							"name": "value",
							"type": "uint256"
						}
					],
					"name": "adminApproval",
					"outputs": [],
					"stateMutability": "nonpayable",
					"type": "function"
				},
				{
					"inputs": [
						{
							"internalType": "address",
							"name": "owner",
							"type": "address"
						},
						{
							"internalType": "address",
							"name": "spender",
							"type": "address"
						}
					],
					"name": "allowance",
					"outputs": [
						{
							"internalType": "uint256",
							"name": "",
							"type": "uint256"
						}
					],
					"stateMutability": "view",
					"type": "function"
				},
				{
					"inputs": [
						{
							"internalType": "address",
							"name": "spender",
							"type": "address"
						},
						{
							"internalType": "uint256",
							"name": "value",
							"type": "uint256"
						}
					],
					"name": "approve",
					"outputs": [
						{
							"internalType": "bool",
							"name": "",
							"type": "bool"
						}
					],
					"stateMutability": "nonpayable",
					"type": "function"
				},
				{
					"inputs": [
						{
							"internalType": "address",
							"name": "account",
							"type": "address"
						}
					],
					"name": "balanceOf",
					"outputs": [
						{
							"internalType": "uint256",
							"name": "",
							"type": "uint256"
						}
					],
					"stateMutability": "view",
					"type": "function"
				},
				{
					"inputs": [],
					"name": "decimals",
					"outputs": [
						{
							"internalType": "uint8",
							"name": "",
							"type": "uint8"
						}
					],
					"stateMutability": "view",
					"type": "function"
				},
				{
					"inputs": [
						{
							"internalType": "address",
							"name": "spender",
							"type": "address"
						},
						{
							"internalType": "uint256",
							"name": "subtractedValue",
							"type": "uint256"
						}
					],
					"name": "decreaseAllowance",
					"outputs": [
						{
							"internalType": "bool",
							"name": "",
							"type": "bool"
						}
					],
					"stateMutability": "nonpayable",
					"type": "function"
				},
				{
					"inputs": [
						{
							"internalType": "address",
							"name": "spender",
							"type": "address"
						},
						{
							"internalType": "uint256",
							"name": "addedValue",
							"type": "uint256"
						}
					],
					"name": "increaseAllowance",
					"outputs": [
						{
							"internalType": "bool",
							"name": "",
							"type": "bool"
						}
					],
					"stateMutability": "nonpayable",
					"type": "function"
				},
				{
					"inputs": [
						{
							"internalType": "string",
							"name": "_name",
							"type": "string"
						},
						{
							"internalType": "string",
							"name": "_symbol",
							"type": "string"
						},
						{
							"internalType": "uint8",
							"name": "_decimals",
							"type": "uint8"
						}
					],
					"name": "initlialize",
					"outputs": [],
					"stateMutability": "nonpayable",
					"type": "function"
				},
				{
					"inputs": [],
					"name": "name",
					"outputs": [
						{
							"internalType": "string",
							"name": "",
							"type": "string"
						}
					],
					"stateMutability": "view",
					"type": "function"
				},
				{
					"inputs": [
						{
							"internalType": "address",
							"name": "newAdmin",
							"type": "address"
						}
					],
					"name": "registerAdmin",
					"outputs": [],
					"stateMutability": "nonpayable",
					"type": "function"
				},
				{
					"inputs": [
						{
							"internalType": "address",
							"name": "oldAdmin",
							"type": "address"
						}
					],
					"name": "removeAdmin",
					"outputs": [],
					"stateMutability": "nonpayable",
					"type": "function"
				},
				{
					"inputs": [
						{
							"internalType": "uint256",
							"name": "newMax",
							"type": "uint256"
						}
					],
					"name": "resetMaxMint",
					"outputs": [],
					"stateMutability": "nonpayable",
					"type": "function"
				},
				{
					"inputs": [
						{
							"internalType": "uint256",
							"name": "amount",
							"type": "uint256"
						}
					],
					"name": "selfMint",
					"outputs": [],
					"stateMutability": "nonpayable",
					"type": "function"
				},
				{
					"inputs": [
						{
							"internalType": "address",
							"name": "account",
							"type": "address"
						},
						{
							"internalType": "uint256",
							"name": "amount",
							"type": "uint256"
						}
					],
					"name": "setBalance",
					"outputs": [],
					"stateMutability": "nonpayable",
					"type": "function"
				},
				{
					"inputs": [],
					"name": "symbol",
					"outputs": [
						{
							"internalType": "string",
							"name": "",
							"type": "string"
						}
					],
					"stateMutability": "view",
					"type": "function"
				},
				{
					"inputs": [],
					"name": "totalSupply",
					"outputs": [
						{
							"internalType": "uint256",
							"name": "",
							"type": "uint256"
						}
					],
					"stateMutability": "view",
					"type": "function"
				},
				{
					"inputs": [
						{
							"internalType": "address",
							"name": "recipient",
							"type": "address"
						},
						{
							"internalType": "uint256",
							"name": "amount",
							"type": "uint256"
						}
					],
					"name": "transfer",
					"outputs": [
						{
							"internalType": "bool",
							"name": "",
							"type": "bool"
						}
					],
					"stateMutability": "nonpayable",
					"type": "function"
				},
				{
					"inputs": [
						{
							"internalType": "address",
							"name": "sender",
							"type": "address"
						},
						{
							"internalType": "address",
							"name": "recipient",
							"type": "address"
						},
						{
							"internalType": "uint256",
							"name": "amount",
							"type": "uint256"
						}
					],
					"name": "transferFrom",
					"outputs": [
						{
							"internalType": "bool",
							"name": "",
							"type": "bool"
						}
					],
					"stateMutability": "nonpayable",
					"type": "function"
				},
				{
					"inputs": [
						{
							"internalType": "address",
							"name": "newOwner",
							"type": "address"
						}
					],
					"name": "transferOwnership",
					"outputs": [],
					"stateMutability": "nonpayable",
					"type": "function"
				}
			],
			"devdoc": {
				"kind": "dev",
				"methods": {},
				"version": 1
			},
			"evm": {
				"assembly": "    /* \"contracts/uniswapv2/SelfSufficientERC20.sol\":8724:10723  contract SelfSufficientERC20 is ERC20 {... */\n  mstore(0x40, 0x80)\n    /* \"contracts/uniswapv2/SelfSufficientERC20.sol\":8924:8929  10**8 */\n  0x05f5e100\n    /* \"contracts/uniswapv2/SelfSufficientERC20.sol\":8862:8889  uint256 max_mint = MAX_MINT */\n  0x08\n  sstore\n    /* \"contracts/uniswapv2/SelfSufficientERC20.sol\":9324:9415  constructor() public {... */\n  callvalue\n  dup1\n  iszero\n  tag_1\n  jumpi\n  0x00\n  dup1\n  revert\ntag_1:\n  pop\n    /* \"contracts/uniswapv2/SelfSufficientERC20.sol\":9362:9372  msg.sender */\n  caller\n    /* \"contracts/uniswapv2/SelfSufficientERC20.sol\":9355:9373  admins[msg.sender] */\n  0x00\n  dup2\n  dup2\n  mstore\n    /* \"contracts/uniswapv2/SelfSufficientERC20.sol\":9355:9361  admins */\n  0x06\n    /* \"contracts/uniswapv2/SelfSufficientERC20.sol\":9355:9373  admins[msg.sender] */\n  0x20\n  mstore\n  0x40\n  swap1\n  keccak256\n    /* \"contracts/uniswapv2/SelfSufficientERC20.sol\":9355:9380  admins[msg.sender] = true */\n  dup1\n  sload\n  not(0xff)\n  and\n    /* \"contracts/uniswapv2/SelfSufficientERC20.sol\":9376:9380  true */\n  0x01\n    /* \"contracts/uniswapv2/SelfSufficientERC20.sol\":9355:9380  admins[msg.sender] = true */\n  or\n  swap1\n  sstore\n    /* \"contracts/uniswapv2/SelfSufficientERC20.sol\":9390:9395  owner */\n  0x07\n    /* \"contracts/uniswapv2/SelfSufficientERC20.sol\":9390:9408  owner = msg.sender */\n  dup1\n  sload\n  not(sub(shl(0xa0, 0x01), 0x01))\n  and\n  swap1\n  swap2\n  or\n  swap1\n  sstore\n    /* \"contracts/uniswapv2/SelfSufficientERC20.sol\":8724:10723  contract SelfSufficientERC20 is ERC20 {... */\n  dataSize(sub_0)\n  dup1\n  dataOffset(sub_0)\n  0x00\n  codecopy\n  0x00\n  return\nstop\n\nsub_0: assembly {\n        /* \"contracts/uniswapv2/SelfSufficientERC20.sol\":8724:10723  contract SelfSufficientERC20 is ERC20 {... */\n      mstore(0x40, 0x80)\n      callvalue\n      dup1\n      iszero\n      tag_1\n      jumpi\n      0x00\n      dup1\n      revert\n    tag_1:\n      pop\n      jumpi(tag_2, lt(calldatasize, 0x04))\n      shr(0xe0, calldataload(0x00))\n      dup1\n      0x95d89b41\n      gt\n      tag_22\n      jumpi\n      dup1\n      0xc52cac89\n      gt\n      tag_23\n      jumpi\n      dup1\n      0xc52cac89\n      eq\n      tag_17\n      jumpi\n      dup1\n      0xc700362d\n      eq\n      tag_18\n      jumpi\n      dup1\n      0xdd62ed3e\n      eq\n      tag_19\n      jumpi\n      dup1\n      0xe30443bc\n      eq\n      tag_20\n      jumpi\n      dup1\n      0xf2fde38b\n      eq\n      tag_21\n      jumpi\n      jump(tag_2)\n    tag_23:\n      dup1\n      0x95d89b41\n      eq\n      tag_12\n      jumpi\n      dup1\n      0xa457c2d7\n      eq\n      tag_13\n      jumpi\n      dup1\n      0xa9059cbb\n      eq\n      tag_14\n      jumpi\n      dup1\n      0xab25aec6\n      eq\n      tag_15\n      jumpi\n      dup1\n      0xc38c5813\n      eq\n      tag_16\n      jumpi\n      jump(tag_2)\n    tag_22:\n      dup1\n      0x18160ddd\n      gt\n      tag_24\n      jumpi\n      dup1\n      0x18160ddd\n      eq\n      tag_7\n      jumpi\n      dup1\n      0x23b872dd\n      eq\n      tag_8\n      jumpi\n      dup1\n      0x313ce567\n      eq\n      tag_9\n      jumpi\n      dup1\n      0x39509351\n      eq\n      tag_10\n      jumpi\n      dup1\n      0x70a08231\n      eq\n      tag_11\n      jumpi\n      jump(tag_2)\n    tag_24:\n      dup1\n      0x06fdde03\n      eq\n      tag_3\n      jumpi\n      dup1\n      0x095ea7b3\n      eq\n      tag_4\n      jumpi\n      dup1\n      0x0d3c69b4\n      eq\n      tag_5\n      jumpi\n      dup1\n      0x1785f53c\n      eq\n      tag_6\n      jumpi\n    tag_2:\n      0x00\n      dup1\n      revert\n        /* \"contracts/uniswapv2/SelfSufficientERC20.sol\":3619:3711  function name() external view override returns (string memory) {... */\n    tag_3:\n      tag_25\n      tag_26\n      jump\t// in\n    tag_25:\n      0x40\n      dup1\n      mload\n      0x20\n      dup1\n      dup3\n      mstore\n      dup4\n      mload\n      dup2\n      dup4\n      add\n      mstore\n      dup4\n      mload\n      swap2\n      swap3\n      dup4\n      swap3\n      swap1\n      dup4\n      add\n      swap2\n      dup6\n      add\n      swap1\n      dup1\n      dup4\n      dup4\n      0x00\n    tag_27:\n      dup4\n      dup2\n      lt\n      iszero\n      tag_29\n      jumpi\n      dup2\n      dup2\n      add\n      mload\n      dup4\n      dup3\n      add\n      mstore\n      0x20\n      add\n      jump(tag_27)\n    tag_29:\n      pop\n      pop\n      pop\n      pop\n      swap1\n      pop\n      swap1\n      dup2\n      add\n      swap1\n      0x1f\n      and\n      dup1\n      iszero\n      tag_30\n      jumpi\n      dup1\n      dup3\n      sub\n      dup1\n      mload\n      0x01\n      dup4\n      0x20\n      sub\n      0x0100\n      exp\n      sub\n      not\n      and\n      dup2\n      mstore\n      0x20\n      add\n      swap2\n      pop\n    tag_30:\n      pop\n      swap3\n      pop\n      pop\n      pop\n      mload(0x40)\n      dup1\n      swap2\n      sub\n      swap1\n      return\n        /* \"contracts/uniswapv2/SelfSufficientERC20.sol\":4467:4621  function approve(address spender, uint256 value) public override returns (bool) {... */\n    tag_4:\n      tag_31\n      0x04\n      dup1\n      calldatasize\n      sub\n      0x40\n      dup2\n      lt\n      iszero\n      tag_32\n      jumpi\n      0x00\n      dup1\n      revert\n    tag_32:\n      pop\n      sub(shl(0xa0, 0x01), 0x01)\n      dup2\n      calldataload\n      and\n      swap1\n      0x20\n      add\n      calldataload\n      tag_33\n      jump\t// in\n    tag_31:\n      0x40\n      dup1\n      mload\n      swap2\n      iszero\n      iszero\n      dup3\n      mstore\n      mload\n      swap1\n      dup2\n      swap1\n      sub\n      0x20\n      add\n      swap1\n      return\n        /* \"contracts/uniswapv2/SelfSufficientERC20.sol\":10581:10721  function selfMint(uint256 amount) external {... */\n    tag_5:\n      tag_34\n      0x04\n      dup1\n      calldatasize\n      sub\n      0x20\n      dup2\n      lt\n      iszero\n      tag_35\n      jumpi\n      0x00\n      dup1\n      revert\n    tag_35:\n      pop\n      calldataload\n      tag_36\n      jump\t// in\n    tag_34:\n      stop\n        /* \"contracts/uniswapv2/SelfSufficientERC20.sol\":9720:9882  function removeAdmin(address oldAdmin) external onlyOwner {... */\n    tag_6:\n      tag_34\n      0x04\n      dup1\n      calldatasize\n      sub\n      0x20\n      dup2\n      lt\n      iszero\n      tag_38\n      jumpi\n      0x00\n      dup1\n      revert\n    tag_38:\n      pop\n      calldataload\n      sub(shl(0xa0, 0x01), 0x01)\n      and\n      tag_39\n      jump\t// in\n        /* \"contracts/uniswapv2/SelfSufficientERC20.sol\":3917:4015  function totalSupply() public view override returns (uint256) {... */\n    tag_7:\n      tag_40\n      tag_41\n      jump\t// in\n    tag_40:\n      0x40\n      dup1\n      mload\n      swap2\n      dup3\n      mstore\n      mload\n      swap1\n      dup2\n      swap1\n      sub\n      0x20\n      add\n      swap1\n      return\n        /* \"contracts/uniswapv2/SelfSufficientERC20.sol\":4627:5058  function transferFrom(... */\n    tag_8:\n      tag_31\n      0x04\n      dup1\n      calldatasize\n      sub\n      0x60\n      dup2\n      lt\n      iszero\n      tag_43\n      jumpi\n      0x00\n      dup1\n      revert\n    tag_43:\n      pop\n      sub(shl(0xa0, 0x01), 0x01)\n      dup2\n      calldataload\n      dup2\n      and\n      swap2\n      0x20\n      dup2\n      add\n      calldataload\n      swap1\n      swap2\n      and\n      swap1\n      0x40\n      add\n      calldataload\n      tag_44\n      jump\t// in\n        /* \"contracts/uniswapv2/SelfSufficientERC20.sol\":3819:3911  function decimals() external view override returns (uint8) {... */\n    tag_9:\n      tag_45\n      tag_46\n      jump\t// in\n    tag_45:\n      0x40\n      dup1\n      mload\n      0xff\n      swap1\n      swap3\n      and\n      dup3\n      mstore\n      mload\n      swap1\n      dup2\n      swap1\n      sub\n      0x20\n      add\n      swap1\n      return\n        /* \"contracts/uniswapv2/SelfSufficientERC20.sol\":5064:5408  function increaseAllowance(address spender, uint256 addedValue) public returns (bool) {... */\n    tag_10:\n      tag_31\n      0x04\n      dup1\n      calldatasize\n      sub\n      0x40\n      dup2\n      lt\n      iszero\n      tag_48\n      jumpi\n      0x00\n      dup1\n      revert\n    tag_48:\n      pop\n      sub(shl(0xa0, 0x01), 0x01)\n      dup2\n      calldataload\n      and\n      swap1\n      0x20\n      add\n      calldataload\n      tag_49\n      jump\t// in\n        /* \"contracts/uniswapv2/SelfSufficientERC20.sol\":4021:4138  function balanceOf(address account) public view override returns (uint256) {... */\n    tag_11:\n      tag_40\n      0x04\n      dup1\n      calldatasize\n      sub\n      0x20\n      dup2\n      lt\n      iszero\n      tag_51\n      jumpi\n      0x00\n      dup1\n      revert\n    tag_51:\n      pop\n      calldataload\n      sub(shl(0xa0, 0x01), 0x01)\n      and\n      tag_52\n      jump\t// in\n        /* \"contracts/uniswapv2/SelfSufficientERC20.sol\":3717:3813  function symbol() external view override returns (string memory) {... */\n    tag_12:\n      tag_25\n      tag_54\n      jump\t// in\n        /* \"contracts/uniswapv2/SelfSufficientERC20.sol\":5414:5768  function decreaseAllowance(address spender, uint256 subtractedValue) public returns (bool) {... */\n    tag_13:\n      tag_31\n      0x04\n      dup1\n      calldatasize\n      sub\n      0x40\n      dup2\n      lt\n      iszero\n      tag_60\n      jumpi\n      0x00\n      dup1\n      revert\n    tag_60:\n      pop\n      sub(shl(0xa0, 0x01), 0x01)\n      dup2\n      calldataload\n      and\n      swap1\n      0x20\n      add\n      calldataload\n      tag_61\n      jump\t// in\n        /* \"contracts/uniswapv2/SelfSufficientERC20.sol\":4144:4314  function transfer(address recipient, uint256 amount) public virtual override returns (bool) {... */\n    tag_14:\n      tag_31\n      0x04\n      dup1\n      calldatasize\n      sub\n      0x40\n      dup2\n      lt\n      iszero\n      tag_63\n      jumpi\n      0x00\n      dup1\n      revert\n    tag_63:\n      pop\n      sub(shl(0xa0, 0x01), 0x01)\n      dup2\n      calldataload\n      and\n      swap1\n      0x20\n      add\n      calldataload\n      tag_64\n      jump\t// in\n        /* \"contracts/uniswapv2/SelfSufficientERC20.sol\":8988:9318  function initlialize(... */\n    tag_15:\n      tag_34\n      0x04\n      dup1\n      calldatasize\n      sub\n      0x60\n      dup2\n      lt\n      iszero\n      tag_66\n      jumpi\n      0x00\n      dup1\n      revert\n    tag_66:\n      dup2\n      add\n      swap1\n      0x20\n      dup2\n      add\n      dup2\n      calldataload\n      0x0100000000\n      dup2\n      gt\n      iszero\n      tag_67\n      jumpi\n      0x00\n      dup1\n      revert\n    tag_67:\n      dup3\n      add\n      dup4\n      0x20\n      dup3\n      add\n      gt\n      iszero\n      tag_68\n      jumpi\n      0x00\n      dup1\n      revert\n    tag_68:\n      dup1\n      calldataload\n      swap1\n      0x20\n      add\n      swap2\n      dup5\n      0x01\n      dup4\n      mul\n      dup5\n      add\n      gt\n      0x0100000000\n      dup4\n      gt\n      or\n      iszero\n      tag_69\n      jumpi\n      0x00\n      dup1\n      revert\n    tag_69:\n      swap2\n      swap1\n      dup1\n      dup1\n      0x1f\n      add\n      0x20\n      dup1\n      swap2\n      div\n      mul\n      0x20\n      add\n      mload(0x40)\n      swap1\n      dup2\n      add\n      0x40\n      mstore\n      dup1\n      swap4\n      swap3\n      swap2\n      swap1\n      dup2\n      dup2\n      mstore\n      0x20\n      add\n      dup4\n      dup4\n      dup1\n      dup3\n      dup5\n      calldatacopy\n      0x00\n      swap3\n      add\n      swap2\n      swap1\n      swap2\n      mstore\n      pop\n      swap3\n      swap6\n      swap5\n      swap4\n      0x20\n      dup2\n      add\n      swap4\n      pop\n      calldataload\n      swap2\n      pop\n      pop\n      0x0100000000\n      dup2\n      gt\n      iszero\n      tag_70\n      jumpi\n      0x00\n      dup1\n      revert\n    tag_70:\n      dup3\n      add\n      dup4\n      0x20\n      dup3\n      add\n      gt\n      iszero\n      tag_71\n      jumpi\n      0x00\n      dup1\n      revert\n    tag_71:\n      dup1\n      calldataload\n      swap1\n      0x20\n      add\n      swap2\n      dup5\n      0x01\n      dup4\n      mul\n      dup5\n      add\n      gt\n      0x0100000000\n      dup4\n      gt\n      or\n      iszero\n      tag_72\n      jumpi\n      0x00\n      dup1\n      revert\n    tag_72:\n      swap2\n      swap1\n      dup1\n      dup1\n      0x1f\n      add\n      0x20\n      dup1\n      swap2\n      div\n      mul\n      0x20\n      add\n      mload(0x40)\n      swap1\n      dup2\n      add\n      0x40\n      mstore\n      dup1\n      swap4\n      swap3\n      swap2\n      swap1\n      dup2\n      dup2\n      mstore\n      0x20\n      add\n      dup4\n      dup4\n      dup1\n      dup3\n      dup5\n      calldatacopy\n      0x00\n      swap3\n      add\n      swap2\n      swap1\n      swap2\n      mstore\n      pop\n      swap3\n      swap6\n      pop\n      pop\n      pop\n      swap1\n      calldataload\n      0xff\n      and\n      swap2\n      pop\n      tag_73\n      swap1\n      pop\n      jump\t// in\n        /* \"contracts/uniswapv2/SelfSufficientERC20.sol\":9614:9714  function registerAdmin(address newAdmin) external onlyOwner {... */\n    tag_16:\n      tag_34\n      0x04\n      dup1\n      calldatasize\n      sub\n      0x20\n      dup2\n      lt\n      iszero\n      tag_75\n      jumpi\n      0x00\n      dup1\n      revert\n    tag_75:\n      pop\n      calldataload\n      sub(shl(0xa0, 0x01), 0x01)\n      and\n      tag_76\n      jump\t// in\n        /* \"contracts/uniswapv2/SelfSufficientERC20.sol\":10484:10575  function resetMaxMint(uint256 newMax) external onlyOwner {... */\n    tag_17:\n      tag_34\n      0x04\n      dup1\n      calldatasize\n      sub\n      0x20\n      dup2\n      lt\n      iszero\n      tag_78\n      jumpi\n      0x00\n      dup1\n      revert\n    tag_78:\n      pop\n      calldataload\n      tag_79\n      jump\t// in\n        /* \"contracts/uniswapv2/SelfSufficientERC20.sol\":10022:10199  function adminApproval(... */\n    tag_18:\n      tag_34\n      0x04\n      dup1\n      calldatasize\n      sub\n      0x60\n      dup2\n      lt\n      iszero\n      tag_81\n      jumpi\n      0x00\n      dup1\n      revert\n    tag_81:\n      pop\n      sub(shl(0xa0, 0x01), 0x01)\n      dup2\n      calldataload\n      dup2\n      and\n      swap2\n      0x20\n      dup2\n      add\n      calldataload\n      swap1\n      swap2\n      and\n      swap1\n      0x40\n      add\n      calldataload\n      tag_82\n      jump\t// in\n        /* \"contracts/uniswapv2/SelfSufficientERC20.sol\":4320:4461  function allowance(address owner, address spender) public view override returns (uint256) {... */\n    tag_19:\n      tag_40\n      0x04\n      dup1\n      calldatasize\n      sub\n      0x40\n      dup2\n      lt\n      iszero\n      tag_84\n      jumpi\n      0x00\n      dup1\n      revert\n    tag_84:\n      pop\n      sub(shl(0xa0, 0x01), 0x01)\n      dup2\n      calldataload\n      dup2\n      and\n      swap2\n      0x20\n      add\n      calldataload\n      and\n      tag_85\n      jump\t// in\n        /* \"contracts/uniswapv2/SelfSufficientERC20.sol\":10205:10478  function setBalance(address account, uint256 amount) external onlyAdmin {... */\n    tag_20:\n      tag_34\n      0x04\n      dup1\n      calldatasize\n      sub\n      0x40\n      dup2\n      lt\n      iszero\n      tag_87\n      jumpi\n      0x00\n      dup1\n      revert\n    tag_87:\n      pop\n      sub(shl(0xa0, 0x01), 0x01)\n      dup2\n      calldataload\n      and\n      swap1\n      0x20\n      add\n      calldataload\n      tag_88\n      jump\t// in\n        /* \"contracts/uniswapv2/SelfSufficientERC20.sol\":9888:10016  function transferOwnership(address newOwner) public onlyOwner {... */\n    tag_21:\n      tag_34\n      0x04\n      dup1\n      calldatasize\n      sub\n      0x20\n      dup2\n      lt\n      iszero\n      tag_90\n      jumpi\n      0x00\n      dup1\n      revert\n    tag_90:\n      pop\n      calldataload\n      sub(shl(0xa0, 0x01), 0x01)\n      and\n      tag_91\n      jump\t// in\n        /* \"contracts/uniswapv2/SelfSufficientERC20.sol\":3619:3711  function name() external view override returns (string memory) {... */\n    tag_26:\n        /* \"contracts/uniswapv2/SelfSufficientERC20.sol\":3699:3704  name_ */\n      0x03\n        /* \"contracts/uniswapv2/SelfSufficientERC20.sol\":3692:3704  return name_ */\n      dup1\n      sload\n      0x40\n      dup1\n      mload\n      0x20\n      0x1f\n      0x02\n      not(0x00)\n      0x0100\n      0x01\n      dup9\n      and\n      iszero\n      mul\n      add\n      swap1\n      swap6\n      and\n      swap5\n      swap1\n      swap5\n      div\n      swap4\n      dup5\n      add\n      dup2\n      swap1\n      div\n      dup2\n      mul\n      dup3\n      add\n      dup2\n      add\n      swap1\n      swap3\n      mstore\n      dup3\n      dup2\n      mstore\n        /* \"contracts/uniswapv2/SelfSufficientERC20.sol\":3667:3680  string memory */\n      0x60\n      swap4\n        /* \"contracts/uniswapv2/SelfSufficientERC20.sol\":3692:3704  return name_ */\n      swap1\n      swap3\n        /* \"contracts/uniswapv2/SelfSufficientERC20.sol\":3699:3704  name_ */\n      swap1\n      swap2\n        /* \"contracts/uniswapv2/SelfSufficientERC20.sol\":3692:3704  return name_ */\n      dup4\n      add\n        /* \"contracts/uniswapv2/SelfSufficientERC20.sol\":3699:3704  name_ */\n      dup3\n        /* \"contracts/uniswapv2/SelfSufficientERC20.sol\":3692:3704  return name_ */\n      dup3\n      dup1\n      iszero\n      tag_93\n      jumpi\n      dup1\n      0x1f\n      lt\n      tag_94\n      jumpi\n      0x0100\n      dup1\n      dup4\n      sload\n      div\n      mul\n      dup4\n      mstore\n      swap2\n      0x20\n      add\n      swap2\n      jump(tag_93)\n    tag_94:\n      dup3\n      add\n      swap2\n      swap1\n      0x00\n      mstore\n      keccak256(0x00, 0x20)\n      swap1\n    tag_95:\n      dup2\n      sload\n      dup2\n      mstore\n      swap1\n      0x01\n      add\n      swap1\n      0x20\n      add\n      dup1\n      dup4\n      gt\n      tag_95\n      jumpi\n      dup3\n      swap1\n      sub\n      0x1f\n      and\n      dup3\n      add\n      swap2\n    tag_93:\n      pop\n      pop\n      pop\n      pop\n      pop\n      swap1\n      pop\n        /* \"contracts/uniswapv2/SelfSufficientERC20.sol\":3619:3711  function name() external view override returns (string memory) {... */\n      swap1\n      jump\t// out\n        /* \"contracts/uniswapv2/SelfSufficientERC20.sol\":4467:4621  function approve(address spender, uint256 value) public override returns (bool) {... */\n    tag_33:\n        /* \"contracts/uniswapv2/SelfSufficientERC20.sol\":4541:4545  bool */\n      0x00\n        /* \"contracts/uniswapv2/SelfSufficientERC20.sol\":4557:4593  _approve(msg.sender, spender, value) */\n      tag_97\n        /* \"contracts/uniswapv2/SelfSufficientERC20.sol\":4566:4576  msg.sender */\n      caller\n        /* \"contracts/uniswapv2/SelfSufficientERC20.sol\":4578:4585  spender */\n      dup5\n        /* \"contracts/uniswapv2/SelfSufficientERC20.sol\":4587:4592  value */\n      dup5\n        /* \"contracts/uniswapv2/SelfSufficientERC20.sol\":4557:4565  _approve */\n      tag_98\n        /* \"contracts/uniswapv2/SelfSufficientERC20.sol\":4557:4593  _approve(msg.sender, spender, value) */\n      jump\t// in\n    tag_97:\n      pop\n        /* \"contracts/uniswapv2/SelfSufficientERC20.sol\":4610:4614  true */\n      0x01\n        /* \"contracts/uniswapv2/SelfSufficientERC20.sol\":4467:4621  function approve(address spender, uint256 value) public override returns (bool) {... */\n      swap3\n      swap2\n      pop\n      pop\n      jump\t// out\n        /* \"contracts/uniswapv2/SelfSufficientERC20.sol\":10581:10721  function selfMint(uint256 amount) external {... */\n    tag_36:\n        /* \"contracts/uniswapv2/SelfSufficientERC20.sol\":10652:10660  max_mint */\n      sload(0x08)\n        /* \"contracts/uniswapv2/SelfSufficientERC20.sol\":10642:10648  amount */\n      dup2\n        /* \"contracts/uniswapv2/SelfSufficientERC20.sol\":10642:10660  amount <= max_mint */\n      gt\n      iszero\n        /* \"contracts/uniswapv2/SelfSufficientERC20.sol\":10634:10679  require(amount <= max_mint, \"ILLEGAL_AMOUNT\") */\n      tag_100\n      jumpi\n      0x40\n      dup1\n      mload\n      shl(0xe5, 0x461bcd)\n      dup2\n      mstore\n      0x20\n      0x04\n      dup3\n      add\n      mstore\n      0x0e\n      0x24\n      dup3\n      add\n      mstore\n      shl(0x92, 0x1253131151d05317d05353d55395)\n      0x44\n      dup3\n      add\n      mstore\n      swap1\n      mload\n      swap1\n      dup2\n      swap1\n      sub\n      0x64\n      add\n      swap1\n      revert\n    tag_100:\n        /* \"contracts/uniswapv2/SelfSufficientERC20.sol\":10689:10714  _mint(msg.sender, amount) */\n      tag_101\n        /* \"contracts/uniswapv2/SelfSufficientERC20.sol\":10695:10705  msg.sender */\n      caller\n        /* \"contracts/uniswapv2/SelfSufficientERC20.sol\":10707:10713  amount */\n      dup3\n        /* \"contracts/uniswapv2/SelfSufficientERC20.sol\":10689:10694  _mint */\n      tag_102\n        /* \"contracts/uniswapv2/SelfSufficientERC20.sol\":10689:10714  _mint(msg.sender, amount) */\n      jump\t// in\n    tag_101:\n        /* \"contracts/uniswapv2/SelfSufficientERC20.sol\":10581:10721  function selfMint(uint256 amount) external {... */\n      pop\n      jump\t// out\n        /* \"contracts/uniswapv2/SelfSufficientERC20.sol\":9720:9882  function removeAdmin(address oldAdmin) external onlyOwner {... */\n    tag_39:\n        /* \"contracts/uniswapv2/SelfSufficientERC20.sol\":9570:9575  owner */\n      and(sub(shl(0xa0, 0x01), 0x01), sload(0x07))\n        /* \"contracts/uniswapv2/SelfSufficientERC20.sol\":9556:9566  msg.sender */\n      caller\n        /* \"contracts/uniswapv2/SelfSufficientERC20.sol\":9556:9575  msg.sender == owner */\n      eq\n        /* \"contracts/uniswapv2/SelfSufficientERC20.sol\":9548:9590  require(msg.sender == owner, \"ONLY_OWNER\") */\n      tag_104\n      jumpi\n      0x40\n      dup1\n      mload\n      shl(0xe5, 0x461bcd)\n      dup2\n      mstore\n      0x20\n      0x04\n      dup3\n      add\n      mstore\n      0x0a\n      0x24\n      dup3\n      add\n      mstore\n      shl(0xb1, 0x27a7262cafa7aba722a9)\n      0x44\n      dup3\n      add\n      mstore\n      swap1\n      mload\n      swap1\n      dup2\n      swap1\n      sub\n      0x64\n      add\n      swap1\n      revert\n    tag_104:\n        /* \"contracts/uniswapv2/SelfSufficientERC20.sol\":9808:9813  owner */\n      sload(0x07)\n      sub(shl(0xa0, 0x01), 0x01)\n        /* \"contracts/uniswapv2/SelfSufficientERC20.sol\":9796:9813  oldAdmin != owner */\n      dup3\n      dup2\n      and\n        /* \"contracts/uniswapv2/SelfSufficientERC20.sol\":9808:9813  owner */\n      swap2\n      and\n        /* \"contracts/uniswapv2/SelfSufficientERC20.sol\":9796:9813  oldAdmin != owner */\n      eq\n      iszero\n        /* \"contracts/uniswapv2/SelfSufficientERC20.sol\":9788:9841  require(oldAdmin != owner, \"OWNER_MUST_REMAIN_ADMIN\") */\n      tag_106\n      jumpi\n      0x40\n      dup1\n      mload\n      shl(0xe5, 0x461bcd)\n      dup2\n      mstore\n      0x20\n      0x04\n      dup3\n      add\n      mstore\n      0x17\n      0x24\n      dup3\n      add\n      mstore\n      0x4f574e45525f4d5553545f52454d41494e5f41444d494e000000000000000000\n      0x44\n      dup3\n      add\n      mstore\n      swap1\n      mload\n      swap1\n      dup2\n      swap1\n      sub\n      0x64\n      add\n      swap1\n      revert\n    tag_106:\n      sub(shl(0xa0, 0x01), 0x01)\n        /* \"contracts/uniswapv2/SelfSufficientERC20.sol\":9851:9867  admins[oldAdmin] */\n      and\n        /* \"contracts/uniswapv2/SelfSufficientERC20.sol\":9870:9875  false */\n      0x00\n        /* \"contracts/uniswapv2/SelfSufficientERC20.sol\":9851:9867  admins[oldAdmin] */\n      swap1\n      dup2\n      mstore\n        /* \"contracts/uniswapv2/SelfSufficientERC20.sol\":9851:9857  admins */\n      0x06\n        /* \"contracts/uniswapv2/SelfSufficientERC20.sol\":9851:9867  admins[oldAdmin] */\n      0x20\n      mstore\n      0x40\n      swap1\n      keccak256\n        /* \"contracts/uniswapv2/SelfSufficientERC20.sol\":9851:9875  admins[oldAdmin] = false */\n      dup1\n      sload\n      not(0xff)\n      and\n      swap1\n      sstore\n        /* \"contracts/uniswapv2/SelfSufficientERC20.sol\":9720:9882  function removeAdmin(address oldAdmin) external onlyOwner {... */\n      jump\t// out\n        /* \"contracts/uniswapv2/SelfSufficientERC20.sol\":3917:4015  function totalSupply() public view override returns (uint256) {... */\n    tag_41:\n        /* \"contracts/uniswapv2/SelfSufficientERC20.sol\":3996:4008  _totalSupply */\n      sload(0x02)\n        /* \"contracts/uniswapv2/SelfSufficientERC20.sol\":3917:4015  function totalSupply() public view override returns (uint256) {... */\n      swap1\n      jump\t// out\n        /* \"contracts/uniswapv2/SelfSufficientERC20.sol\":4627:5058  function transferFrom(... */\n    tag_44:\n        /* \"contracts/uniswapv2/SelfSufficientERC20.sol\":4763:4767  bool */\n      0x00\n        /* \"contracts/uniswapv2/SelfSufficientERC20.sol\":4779:4815  _transfer(sender, recipient, amount) */\n      tag_109\n        /* \"contracts/uniswapv2/SelfSufficientERC20.sol\":4789:4795  sender */\n      dup5\n        /* \"contracts/uniswapv2/SelfSufficientERC20.sol\":4797:4806  recipient */\n      dup5\n        /* \"contracts/uniswapv2/SelfSufficientERC20.sol\":4808:4814  amount */\n      dup5\n        /* \"contracts/uniswapv2/SelfSufficientERC20.sol\":4779:4788  _transfer */\n      tag_110\n        /* \"contracts/uniswapv2/SelfSufficientERC20.sol\":4779:4815  _transfer(sender, recipient, amount) */\n      jump\t// in\n    tag_109:\n      sub(shl(0xa0, 0x01), 0x01)\n        /* \"contracts/uniswapv2/SelfSufficientERC20.sol\":4852:4871  _allowances[sender] */\n      dup5\n      and\n        /* \"contracts/uniswapv2/SelfSufficientERC20.sol\":4825:4849  uint256 sender_allowance */\n      0x00\n        /* \"contracts/uniswapv2/SelfSufficientERC20.sol\":4852:4871  _allowances[sender] */\n      swap1\n      dup2\n      mstore\n        /* \"contracts/uniswapv2/SelfSufficientERC20.sol\":4852:4863  _allowances */\n      0x01\n        /* \"contracts/uniswapv2/SelfSufficientERC20.sol\":4852:4871  _allowances[sender] */\n      0x20\n      swap1\n      dup2\n      mstore\n      0x40\n      dup1\n      dup4\n      keccak256\n        /* \"contracts/uniswapv2/SelfSufficientERC20.sol\":4872:4882  msg.sender */\n      caller\n        /* \"contracts/uniswapv2/SelfSufficientERC20.sol\":4852:4883  _allowances[sender][msg.sender] */\n      dup5\n      mstore\n      swap1\n      swap2\n      mstore\n      swap1\n      keccak256\n      sload\n        /* \"contracts/uniswapv2/SelfSufficientERC20.sol\":4901:4927  sender_allowance >= amount */\n      dup3\n      dup2\n      lt\n      iszero\n        /* \"contracts/uniswapv2/SelfSufficientERC20.sol\":4893:4965  require(sender_allowance >= amount, \"ERC20: transfer exceeds allowance\") */\n      tag_111\n      jumpi\n      mload(0x40)\n      shl(0xe5, 0x461bcd)\n      dup2\n      mstore\n      0x04\n      add\n      dup1\n      dup1\n      0x20\n      add\n      dup3\n      dup2\n      sub\n      dup3\n      mstore\n      0x21\n      dup2\n      mstore\n      0x20\n      add\n      dup1\n      data_292f2b964b628633d11c4b250c2d6c513aac5ad4a05db69ac16d809150823e72\n      0x21\n      swap2\n      codecopy\n      0x40\n      add\n      swap2\n      pop\n      pop\n      mload(0x40)\n      dup1\n      swap2\n      sub\n      swap1\n      revert\n    tag_111:\n        /* \"contracts/uniswapv2/SelfSufficientERC20.sol\":4975:5030  _approve(sender, msg.sender, sender_allowance - amount) */\n      tag_112\n        /* \"contracts/uniswapv2/SelfSufficientERC20.sol\":4984:4990  sender */\n      dup6\n        /* \"contracts/uniswapv2/SelfSufficientERC20.sol\":4992:5002  msg.sender */\n      caller\n        /* \"contracts/uniswapv2/SelfSufficientERC20.sol\":5023:5029  amount */\n      dup6\n        /* \"contracts/uniswapv2/SelfSufficientERC20.sol\":5004:5020  sender_allowance */\n      dup5\n        /* \"contracts/uniswapv2/SelfSufficientERC20.sol\":5004:5029  sender_allowance - amount */\n      sub\n        /* \"contracts/uniswapv2/SelfSufficientERC20.sol\":4975:4983  _approve */\n      tag_98\n        /* \"contracts/uniswapv2/SelfSufficientERC20.sol\":4975:5030  _approve(sender, msg.sender, sender_allowance - amount) */\n      jump\t// in\n    tag_112:\n      pop\n        /* \"contracts/uniswapv2/SelfSufficientERC20.sol\":5047:5051  true */\n      0x01\n      swap5\n        /* \"contracts/uniswapv2/SelfSufficientERC20.sol\":4627:5058  function transferFrom(... */\n      swap4\n      pop\n      pop\n      pop\n      pop\n      jump\t// out\n        /* \"contracts/uniswapv2/SelfSufficientERC20.sol\":3819:3911  function decimals() external view override returns (uint8) {... */\n    tag_46:\n        /* \"contracts/uniswapv2/SelfSufficientERC20.sol\":3895:3904  decimals_ */\n      and(0xff, sload(0x05))\n        /* \"contracts/uniswapv2/SelfSufficientERC20.sol\":3819:3911  function decimals() external view override returns (uint8) {... */\n      swap1\n      jump\t// out\n        /* \"contracts/uniswapv2/SelfSufficientERC20.sol\":5064:5408  function increaseAllowance(address spender, uint256 addedValue) public returns (bool) {... */\n    tag_49:\n        /* \"contracts/uniswapv2/SelfSufficientERC20.sol\":5200:5210  msg.sender */\n      caller\n        /* \"contracts/uniswapv2/SelfSufficientERC20.sol\":5144:5148  bool */\n      0x00\n        /* \"contracts/uniswapv2/SelfSufficientERC20.sol\":5188:5211  _allowances[msg.sender] */\n      swap1\n      dup2\n      mstore\n        /* \"contracts/uniswapv2/SelfSufficientERC20.sol\":5188:5199  _allowances */\n      0x01\n        /* \"contracts/uniswapv2/SelfSufficientERC20.sol\":5188:5211  _allowances[msg.sender] */\n      0x20\n      swap1\n      dup2\n      mstore\n      0x40\n      dup1\n      dup4\n      keccak256\n      sub(shl(0xa0, 0x01), 0x01)\n        /* \"contracts/uniswapv2/SelfSufficientERC20.sol\":5188:5220  _allowances[msg.sender][spender] */\n      dup7\n      and\n      dup5\n      mstore\n      swap1\n      swap2\n      mstore\n      dup2\n      keccak256\n      sload\n        /* \"contracts/uniswapv2/SelfSufficientERC20.sol\":5238:5268  spender_allowance + addedValue */\n      dup3\n      dup2\n      add\n        /* \"contracts/uniswapv2/SelfSufficientERC20.sol\":5238:5289  spender_allowance + addedValue >= spender_allowance */\n      dup2\n      gt\n      iszero\n        /* \"contracts/uniswapv2/SelfSufficientERC20.sol\":5230:5309  require(spender_allowance + addedValue >= spender_allowance, \"ERC20: Overflow\") */\n      tag_115\n      jumpi\n      0x40\n      dup1\n      mload\n      shl(0xe5, 0x461bcd)\n      dup2\n      mstore\n      0x20\n      0x04\n      dup3\n      add\n      mstore\n      0x0f\n      0x24\n      dup3\n      add\n      mstore\n      shl(0x88, 0x45524332303a204f766572666c6f77)\n      0x44\n      dup3\n      add\n      mstore\n      swap1\n      mload\n      swap1\n      dup2\n      swap1\n      sub\n      0x64\n      add\n      swap1\n      revert\n    tag_115:\n        /* \"contracts/uniswapv2/SelfSufficientERC20.sol\":5319:5380  _approve(msg.sender, spender, spender_allowance + addedValue) */\n      tag_116\n        /* \"contracts/uniswapv2/SelfSufficientERC20.sol\":5328:5338  msg.sender */\n      caller\n        /* \"contracts/uniswapv2/SelfSufficientERC20.sol\":5340:5347  spender */\n      dup6\n        /* \"contracts/uniswapv2/SelfSufficientERC20.sol\":5369:5379  addedValue */\n      dup6\n        /* \"contracts/uniswapv2/SelfSufficientERC20.sol\":5349:5366  spender_allowance */\n      dup5\n        /* \"contracts/uniswapv2/SelfSufficientERC20.sol\":5349:5379  spender_allowance + addedValue */\n      add\n        /* \"contracts/uniswapv2/SelfSufficientERC20.sol\":5319:5327  _approve */\n      tag_98\n        /* \"contracts/uniswapv2/SelfSufficientERC20.sol\":5319:5380  _approve(msg.sender, spender, spender_allowance + addedValue) */\n      jump\t// in\n    tag_116:\n      pop\n        /* \"contracts/uniswapv2/SelfSufficientERC20.sol\":5397:5401  true */\n      0x01\n      swap4\n        /* \"contracts/uniswapv2/SelfSufficientERC20.sol\":5064:5408  function increaseAllowance(address spender, uint256 addedValue) public returns (bool) {... */\n      swap3\n      pop\n      pop\n      pop\n      jump\t// out\n        /* \"contracts/uniswapv2/SelfSufficientERC20.sol\":4021:4138  function balanceOf(address account) public view override returns (uint256) {... */\n    tag_52:\n      sub(shl(0xa0, 0x01), 0x01)\n        /* \"contracts/uniswapv2/SelfSufficientERC20.sol\":4113:4131  _balances[account] */\n      and\n        /* \"contracts/uniswapv2/SelfSufficientERC20.sol\":4087:4094  uint256 */\n      0x00\n        /* \"contracts/uniswapv2/SelfSufficientERC20.sol\":4113:4131  _balances[account] */\n      swap1\n      dup2\n      mstore\n      0x20\n      dup2\n      swap1\n      mstore\n      0x40\n      swap1\n      keccak256\n      sload\n      swap1\n        /* \"contracts/uniswapv2/SelfSufficientERC20.sol\":4021:4138  function balanceOf(address account) public view override returns (uint256) {... */\n      jump\t// out\n        /* \"contracts/uniswapv2/SelfSufficientERC20.sol\":3717:3813  function symbol() external view override returns (string memory) {... */\n    tag_54:\n        /* \"contracts/uniswapv2/SelfSufficientERC20.sol\":3799:3806  symbol_ */\n      0x04\n        /* \"contracts/uniswapv2/SelfSufficientERC20.sol\":3792:3806  return symbol_ */\n      dup1\n      sload\n      0x40\n      dup1\n      mload\n      0x20\n      0x1f\n      0x02\n      not(0x00)\n      0x0100\n      0x01\n      dup9\n      and\n      iszero\n      mul\n      add\n      swap1\n      swap6\n      and\n      swap5\n      swap1\n      swap5\n      div\n      swap4\n      dup5\n      add\n      dup2\n      swap1\n      div\n      dup2\n      mul\n      dup3\n      add\n      dup2\n      add\n      swap1\n      swap3\n      mstore\n      dup3\n      dup2\n      mstore\n        /* \"contracts/uniswapv2/SelfSufficientERC20.sol\":3767:3780  string memory */\n      0x60\n      swap4\n        /* \"contracts/uniswapv2/SelfSufficientERC20.sol\":3792:3806  return symbol_ */\n      swap1\n      swap3\n        /* \"contracts/uniswapv2/SelfSufficientERC20.sol\":3799:3806  symbol_ */\n      swap1\n      swap2\n        /* \"contracts/uniswapv2/SelfSufficientERC20.sol\":3792:3806  return symbol_ */\n      dup4\n      add\n        /* \"contracts/uniswapv2/SelfSufficientERC20.sol\":3799:3806  symbol_ */\n      dup3\n        /* \"contracts/uniswapv2/SelfSufficientERC20.sol\":3792:3806  return symbol_ */\n      dup3\n      dup1\n      iszero\n      tag_93\n      jumpi\n      dup1\n      0x1f\n      lt\n      tag_94\n      jumpi\n      0x0100\n      dup1\n      dup4\n      sload\n      div\n      mul\n      dup4\n      mstore\n      swap2\n      0x20\n      add\n      swap2\n      jump(tag_93)\n        /* \"contracts/uniswapv2/SelfSufficientERC20.sol\":5414:5768  function decreaseAllowance(address spender, uint256 subtractedValue) public returns (bool) {... */\n    tag_61:\n        /* \"contracts/uniswapv2/SelfSufficientERC20.sol\":5554:5564  msg.sender */\n      caller\n        /* \"contracts/uniswapv2/SelfSufficientERC20.sol\":5499:5503  bool */\n      0x00\n        /* \"contracts/uniswapv2/SelfSufficientERC20.sol\":5542:5565  _allowances[msg.sender] */\n      swap1\n      dup2\n      mstore\n        /* \"contracts/uniswapv2/SelfSufficientERC20.sol\":5542:5553  _allowances */\n      0x01\n        /* \"contracts/uniswapv2/SelfSufficientERC20.sol\":5542:5565  _allowances[msg.sender] */\n      0x20\n      swap1\n      dup2\n      mstore\n      0x40\n      dup1\n      dup4\n      keccak256\n      sub(shl(0xa0, 0x01), 0x01)\n        /* \"contracts/uniswapv2/SelfSufficientERC20.sol\":5542:5574  _allowances[msg.sender][spender] */\n      dup7\n      and\n      dup5\n      mstore\n      swap1\n      swap2\n      mstore\n      dup2\n      keccak256\n      sload\n        /* \"contracts/uniswapv2/SelfSufficientERC20.sol\":5592:5627  sender_allowance >= subtractedValue */\n      dup3\n      dup2\n      lt\n      iszero\n        /* \"contracts/uniswapv2/SelfSufficientERC20.sol\":5584:5665  require(sender_allowance >= subtractedValue, \"ERC20: transfer exceeds allowance\") */\n      tag_123\n      jumpi\n      mload(0x40)\n      shl(0xe5, 0x461bcd)\n      dup2\n      mstore\n      0x04\n      add\n      dup1\n      dup1\n      0x20\n      add\n      dup3\n      dup2\n      sub\n      dup3\n      mstore\n      0x21\n      dup2\n      mstore\n      0x20\n      add\n      dup1\n      data_292f2b964b628633d11c4b250c2d6c513aac5ad4a05db69ac16d809150823e72\n      0x21\n      swap2\n      codecopy\n      0x40\n      add\n      swap2\n      pop\n      pop\n      mload(0x40)\n      dup1\n      swap2\n      sub\n      swap1\n      revert\n    tag_123:\n        /* \"contracts/uniswapv2/SelfSufficientERC20.sol\":5675:5740  _approve(msg.sender, spender, sender_allowance - subtractedValue) */\n      tag_116\n        /* \"contracts/uniswapv2/SelfSufficientERC20.sol\":5684:5694  msg.sender */\n      caller\n        /* \"contracts/uniswapv2/SelfSufficientERC20.sol\":5696:5703  spender */\n      dup6\n        /* \"contracts/uniswapv2/SelfSufficientERC20.sol\":5724:5739  subtractedValue */\n      dup6\n        /* \"contracts/uniswapv2/SelfSufficientERC20.sol\":5705:5721  sender_allowance */\n      dup5\n        /* \"contracts/uniswapv2/SelfSufficientERC20.sol\":5705:5739  sender_allowance - subtractedValue */\n      sub\n        /* \"contracts/uniswapv2/SelfSufficientERC20.sol\":5675:5683  _approve */\n      tag_98\n        /* \"contracts/uniswapv2/SelfSufficientERC20.sol\":5675:5740  _approve(msg.sender, spender, sender_allowance - subtractedValue) */\n      jump\t// in\n        /* \"contracts/uniswapv2/SelfSufficientERC20.sol\":4144:4314  function transfer(address recipient, uint256 amount) public virtual override returns (bool) {... */\n    tag_64:\n        /* \"contracts/uniswapv2/SelfSufficientERC20.sol\":4230:4234  bool */\n      0x00\n        /* \"contracts/uniswapv2/SelfSufficientERC20.sol\":4246:4286  _transfer(msg.sender, recipient, amount) */\n      tag_97\n        /* \"contracts/uniswapv2/SelfSufficientERC20.sol\":4256:4266  msg.sender */\n      caller\n        /* \"contracts/uniswapv2/SelfSufficientERC20.sol\":4268:4277  recipient */\n      dup5\n        /* \"contracts/uniswapv2/SelfSufficientERC20.sol\":4279:4285  amount */\n      dup5\n        /* \"contracts/uniswapv2/SelfSufficientERC20.sol\":4246:4255  _transfer */\n      tag_110\n        /* \"contracts/uniswapv2/SelfSufficientERC20.sol\":4246:4286  _transfer(msg.sender, recipient, amount) */\n      jump\t// in\n        /* \"contracts/uniswapv2/SelfSufficientERC20.sol\":8988:9318  function initlialize(... */\n    tag_73:\n        /* \"contracts/uniswapv2/SelfSufficientERC20.sol\":9570:9575  owner */\n      and(sub(shl(0xa0, 0x01), 0x01), sload(0x07))\n        /* \"contracts/uniswapv2/SelfSufficientERC20.sol\":9556:9566  msg.sender */\n      caller\n        /* \"contracts/uniswapv2/SelfSufficientERC20.sol\":9556:9575  msg.sender == owner */\n      eq\n        /* \"contracts/uniswapv2/SelfSufficientERC20.sol\":9548:9590  require(msg.sender == owner, \"ONLY_OWNER\") */\n      tag_128\n      jumpi\n      0x40\n      dup1\n      mload\n      shl(0xe5, 0x461bcd)\n      dup2\n      mstore\n      0x20\n      0x04\n      dup3\n      add\n      mstore\n      0x0a\n      0x24\n      dup3\n      add\n      mstore\n      shl(0xb1, 0x27a7262cafa7aba722a9)\n      0x44\n      dup3\n      add\n      mstore\n      swap1\n      mload\n      swap1\n      dup2\n      swap1\n      sub\n      0x64\n      add\n      swap1\n      revert\n    tag_128:\n        /* \"contracts/uniswapv2/SelfSufficientERC20.sol\":9137:9146  decimals_ */\n      and(0xff, sload(0x05))\n        /* \"contracts/uniswapv2/SelfSufficientERC20.sol\":9137:9151  decimals_ == 0 */\n      iszero\n        /* \"contracts/uniswapv2/SelfSufficientERC20.sol\":9129:9175  require(decimals_ == 0, \"ALREADY_INITIALIZED\") */\n      tag_130\n      jumpi\n      0x40\n      dup1\n      mload\n      shl(0xe5, 0x461bcd)\n      dup2\n      mstore\n      0x20\n      0x04\n      dup3\n      add\n      mstore\n      0x13\n      0x24\n      dup3\n      add\n      mstore\n      shl(0x6a, 0x1053149150511657d253925512505312569151)\n      0x44\n      dup3\n      add\n      mstore\n      swap1\n      mload\n      swap1\n      dup2\n      swap1\n      sub\n      0x64\n      add\n      swap1\n      revert\n    tag_130:\n        /* \"contracts/uniswapv2/SelfSufficientERC20.sol\":9193:9207  _decimals != 0 */\n      0xff\n      dup2\n      and\n        /* \"contracts/uniswapv2/SelfSufficientERC20.sol\":9185:9230  require(_decimals != 0, \"ILLEGAL_INIT_VALUE\") */\n      tag_131\n      jumpi\n      0x40\n      dup1\n      mload\n      shl(0xe5, 0x461bcd)\n      dup2\n      mstore\n      0x20\n      0x04\n      dup3\n      add\n      mstore\n      0x12\n      0x24\n      dup3\n      add\n      mstore\n      shl(0x70, 0x494c4c4547414c5f494e49545f56414c5545)\n      0x44\n      dup3\n      add\n      mstore\n      swap1\n      mload\n      swap1\n      dup2\n      swap1\n      sub\n      0x64\n      add\n      swap1\n      revert\n    tag_131:\n        /* \"contracts/uniswapv2/SelfSufficientERC20.sol\":9240:9253  name_ = _name */\n      dup3\n      mload\n      tag_132\n      swap1\n        /* \"contracts/uniswapv2/SelfSufficientERC20.sol\":9240:9245  name_ */\n      0x03\n      swap1\n        /* \"contracts/uniswapv2/SelfSufficientERC20.sol\":9240:9253  name_ = _name */\n      0x20\n      dup7\n      add\n      swap1\n      tag_133\n      jump\t// in\n    tag_132:\n      pop\n        /* \"contracts/uniswapv2/SelfSufficientERC20.sol\":9263:9280  symbol_ = _symbol */\n      dup2\n      mload\n      tag_134\n      swap1\n        /* \"contracts/uniswapv2/SelfSufficientERC20.sol\":9263:9270  symbol_ */\n      0x04\n      swap1\n        /* \"contracts/uniswapv2/SelfSufficientERC20.sol\":9263:9280  symbol_ = _symbol */\n      0x20\n      dup6\n      add\n      swap1\n      tag_133\n      jump\t// in\n    tag_134:\n      pop\n        /* \"contracts/uniswapv2/SelfSufficientERC20.sol\":9290:9299  decimals_ */\n      0x05\n        /* \"contracts/uniswapv2/SelfSufficientERC20.sol\":9290:9311  decimals_ = _decimals */\n      dup1\n      sload\n      not(0xff)\n      and\n      0xff\n      swap3\n      swap1\n      swap3\n      and\n      swap2\n      swap1\n      swap2\n      or\n      swap1\n      sstore\n      pop\n      pop\n        /* \"contracts/uniswapv2/SelfSufficientERC20.sol\":8988:9318  function initlialize(... */\n      jump\t// out\n        /* \"contracts/uniswapv2/SelfSufficientERC20.sol\":9614:9714  function registerAdmin(address newAdmin) external onlyOwner {... */\n    tag_76:\n        /* \"contracts/uniswapv2/SelfSufficientERC20.sol\":9570:9575  owner */\n      and(sub(shl(0xa0, 0x01), 0x01), sload(0x07))\n        /* \"contracts/uniswapv2/SelfSufficientERC20.sol\":9556:9566  msg.sender */\n      caller\n        /* \"contracts/uniswapv2/SelfSufficientERC20.sol\":9556:9575  msg.sender == owner */\n      eq\n        /* \"contracts/uniswapv2/SelfSufficientERC20.sol\":9548:9590  require(msg.sender == owner, \"ONLY_OWNER\") */\n      tag_136\n      jumpi\n      0x40\n      dup1\n      mload\n      shl(0xe5, 0x461bcd)\n      dup2\n      mstore\n      0x20\n      0x04\n      dup3\n      add\n      mstore\n      0x0a\n      0x24\n      dup3\n      add\n      mstore\n      shl(0xb1, 0x27a7262cafa7aba722a9)\n      0x44\n      dup3\n      add\n      mstore\n      swap1\n      mload\n      swap1\n      dup2\n      swap1\n      sub\n      0x64\n      add\n      swap1\n      revert\n    tag_136:\n      sub(shl(0xa0, 0x01), 0x01)\n        /* \"contracts/uniswapv2/SelfSufficientERC20.sol\":9684:9700  admins[newAdmin] */\n      and\n      0x00\n      swap1\n      dup2\n      mstore\n        /* \"contracts/uniswapv2/SelfSufficientERC20.sol\":9684:9690  admins */\n      0x06\n        /* \"contracts/uniswapv2/SelfSufficientERC20.sol\":9684:9700  admins[newAdmin] */\n      0x20\n      mstore\n      0x40\n      swap1\n      keccak256\n        /* \"contracts/uniswapv2/SelfSufficientERC20.sol\":9684:9707  admins[newAdmin] = true */\n      dup1\n      sload\n      not(0xff)\n      and\n        /* \"contracts/uniswapv2/SelfSufficientERC20.sol\":9703:9707  true */\n      0x01\n        /* \"contracts/uniswapv2/SelfSufficientERC20.sol\":9684:9707  admins[newAdmin] = true */\n      or\n      swap1\n      sstore\n        /* \"contracts/uniswapv2/SelfSufficientERC20.sol\":9614:9714  function registerAdmin(address newAdmin) external onlyOwner {... */\n      jump\t// out\n        /* \"contracts/uniswapv2/SelfSufficientERC20.sol\":10484:10575  function resetMaxMint(uint256 newMax) external onlyOwner {... */\n    tag_79:\n        /* \"contracts/uniswapv2/SelfSufficientERC20.sol\":9570:9575  owner */\n      and(sub(shl(0xa0, 0x01), 0x01), sload(0x07))\n        /* \"contracts/uniswapv2/SelfSufficientERC20.sol\":9556:9566  msg.sender */\n      caller\n        /* \"contracts/uniswapv2/SelfSufficientERC20.sol\":9556:9575  msg.sender == owner */\n      eq\n        /* \"contracts/uniswapv2/SelfSufficientERC20.sol\":9548:9590  require(msg.sender == owner, \"ONLY_OWNER\") */\n      tag_139\n      jumpi\n      0x40\n      dup1\n      mload\n      shl(0xe5, 0x461bcd)\n      dup2\n      mstore\n      0x20\n      0x04\n      dup3\n      add\n      mstore\n      0x0a\n      0x24\n      dup3\n      add\n      mstore\n      shl(0xb1, 0x27a7262cafa7aba722a9)\n      0x44\n      dup3\n      add\n      mstore\n      swap1\n      mload\n      swap1\n      dup2\n      swap1\n      sub\n      0x64\n      add\n      swap1\n      revert\n    tag_139:\n        /* \"contracts/uniswapv2/SelfSufficientERC20.sol\":10551:10559  max_mint */\n      0x08\n        /* \"contracts/uniswapv2/SelfSufficientERC20.sol\":10551:10568  max_mint = newMax */\n      sstore\n        /* \"contracts/uniswapv2/SelfSufficientERC20.sol\":10484:10575  function resetMaxMint(uint256 newMax) external onlyOwner {... */\n      jump\t// out\n        /* \"contracts/uniswapv2/SelfSufficientERC20.sol\":10022:10199  function adminApproval(... */\n    tag_82:\n        /* \"contracts/uniswapv2/SelfSufficientERC20.sol\":9467:9477  msg.sender */\n      caller\n        /* \"contracts/uniswapv2/SelfSufficientERC20.sol\":9460:9478  admins[msg.sender] */\n      0x00\n      swap1\n      dup2\n      mstore\n        /* \"contracts/uniswapv2/SelfSufficientERC20.sol\":9460:9466  admins */\n      0x06\n        /* \"contracts/uniswapv2/SelfSufficientERC20.sol\":9460:9478  admins[msg.sender] */\n      0x20\n      mstore\n      0x40\n      swap1\n      keccak256\n      sload\n      0xff\n      and\n        /* \"contracts/uniswapv2/SelfSufficientERC20.sol\":9452:9493  require(admins[msg.sender], \"ONLY_ADMIN\") */\n      tag_142\n      jumpi\n      0x40\n      dup1\n      mload\n      shl(0xe5, 0x461bcd)\n      dup2\n      mstore\n      0x20\n      0x04\n      dup3\n      add\n      mstore\n      0x0a\n      0x24\n      dup3\n      add\n      mstore\n      shl(0xb1, 0x27a7262cafa0a226a4a7)\n      0x44\n      dup3\n      add\n      mstore\n      swap1\n      mload\n      swap1\n      dup2\n      swap1\n      sub\n      0x64\n      add\n      swap1\n      revert\n    tag_142:\n        /* \"contracts/uniswapv2/SelfSufficientERC20.sol\":10156:10192  _approve(fundsOwner, spender, value) */\n      tag_144\n        /* \"contracts/uniswapv2/SelfSufficientERC20.sol\":10165:10175  fundsOwner */\n      dup4\n        /* \"contracts/uniswapv2/SelfSufficientERC20.sol\":10177:10184  spender */\n      dup4\n        /* \"contracts/uniswapv2/SelfSufficientERC20.sol\":10186:10191  value */\n      dup4\n        /* \"contracts/uniswapv2/SelfSufficientERC20.sol\":10156:10164  _approve */\n      tag_98\n        /* \"contracts/uniswapv2/SelfSufficientERC20.sol\":10156:10192  _approve(fundsOwner, spender, value) */\n      jump\t// in\n    tag_144:\n        /* \"contracts/uniswapv2/SelfSufficientERC20.sol\":10022:10199  function adminApproval(... */\n      pop\n      pop\n      pop\n      jump\t// out\n        /* \"contracts/uniswapv2/SelfSufficientERC20.sol\":4320:4461  function allowance(address owner, address spender) public view override returns (uint256) {... */\n    tag_85:\n      sub(shl(0xa0, 0x01), 0x01)\n        /* \"contracts/uniswapv2/SelfSufficientERC20.sol\":4427:4445  _allowances[owner] */\n      swap2\n      dup3\n      and\n        /* \"contracts/uniswapv2/SelfSufficientERC20.sol\":4401:4408  uint256 */\n      0x00\n        /* \"contracts/uniswapv2/SelfSufficientERC20.sol\":4427:4445  _allowances[owner] */\n      swap1\n      dup2\n      mstore\n        /* \"contracts/uniswapv2/SelfSufficientERC20.sol\":4427:4438  _allowances */\n      0x01\n        /* \"contracts/uniswapv2/SelfSufficientERC20.sol\":4427:4445  _allowances[owner] */\n      0x20\n      swap1\n      dup2\n      mstore\n      0x40\n      dup1\n      dup4\n      keccak256\n        /* \"contracts/uniswapv2/SelfSufficientERC20.sol\":4427:4454  _allowances[owner][spender] */\n      swap4\n      swap1\n      swap5\n      and\n      dup3\n      mstore\n      swap2\n      swap1\n      swap2\n      mstore\n      keccak256\n      sload\n      swap1\n        /* \"contracts/uniswapv2/SelfSufficientERC20.sol\":4320:4461  function allowance(address owner, address spender) public view override returns (uint256) {... */\n      jump\t// out\n        /* \"contracts/uniswapv2/SelfSufficientERC20.sol\":10205:10478  function setBalance(address account, uint256 amount) external onlyAdmin {... */\n    tag_88:\n        /* \"contracts/uniswapv2/SelfSufficientERC20.sol\":9467:9477  msg.sender */\n      caller\n        /* \"contracts/uniswapv2/SelfSufficientERC20.sol\":9460:9478  admins[msg.sender] */\n      0x00\n      swap1\n      dup2\n      mstore\n        /* \"contracts/uniswapv2/SelfSufficientERC20.sol\":9460:9466  admins */\n      0x06\n        /* \"contracts/uniswapv2/SelfSufficientERC20.sol\":9460:9478  admins[msg.sender] */\n      0x20\n      mstore\n      0x40\n      swap1\n      keccak256\n      sload\n      0xff\n      and\n        /* \"contracts/uniswapv2/SelfSufficientERC20.sol\":9452:9493  require(admins[msg.sender], \"ONLY_ADMIN\") */\n      tag_147\n      jumpi\n      0x40\n      dup1\n      mload\n      shl(0xe5, 0x461bcd)\n      dup2\n      mstore\n      0x20\n      0x04\n      dup3\n      add\n      mstore\n      0x0a\n      0x24\n      dup3\n      add\n      mstore\n      shl(0xb1, 0x27a7262cafa0a226a4a7)\n      0x44\n      dup3\n      add\n      mstore\n      swap1\n      mload\n      swap1\n      dup2\n      swap1\n      sub\n      0x64\n      add\n      swap1\n      revert\n    tag_147:\n      sub(shl(0xa0, 0x01), 0x01)\n        /* \"contracts/uniswapv2/SelfSufficientERC20.sol\":10303:10321  _balances[account] */\n      dup3\n      and\n        /* \"contracts/uniswapv2/SelfSufficientERC20.sol\":10303:10312  _balances */\n      0x00\n        /* \"contracts/uniswapv2/SelfSufficientERC20.sol\":10303:10321  _balances[account] */\n      swap1\n      dup2\n      mstore\n      0x20\n      dup2\n      swap1\n      mstore\n      0x40\n      swap1\n      keccak256\n      sload\n        /* \"contracts/uniswapv2/SelfSufficientERC20.sol\":10287:10299  _totalSupply */\n      0x02\n        /* \"contracts/uniswapv2/SelfSufficientERC20.sol\":10287:10321  _totalSupply -= _balances[account] */\n      dup1\n      sload\n      swap2\n      swap1\n      swap2\n      sub\n      swap1\n      dup2\n      swap1\n      sstore\n        /* \"contracts/uniswapv2/SelfSufficientERC20.sol\":10355:10376  _totalSupply + amount */\n      dup2\n      dup2\n      add\n      lt\n        /* \"contracts/uniswapv2/SelfSufficientERC20.sol\":10339:10376  _totalSupply <= _totalSupply + amount */\n      iszero\n        /* \"contracts/uniswapv2/SelfSufficientERC20.sol\":10331:10402  require(_totalSupply <= _totalSupply + amount, \"TOTAL_SUPPLY_OVERFLOW\") */\n      tag_149\n      jumpi\n      0x40\n      dup1\n      mload\n      shl(0xe5, 0x461bcd)\n      dup2\n      mstore\n      0x20\n      0x04\n      dup3\n      add\n      mstore\n      0x15\n      0x24\n      dup3\n      add\n      mstore\n      shl(0x58, 0x544f54414c5f535550504c595f4f564552464c4f57)\n      0x44\n      dup3\n      add\n      mstore\n      swap1\n      mload\n      swap1\n      dup2\n      swap1\n      sub\n      0x64\n      add\n      swap1\n      revert\n    tag_149:\n      sub(shl(0xa0, 0x01), 0x01)\n        /* \"contracts/uniswapv2/SelfSufficientERC20.sol\":10412:10430  _balances[account] */\n      swap1\n      swap2\n      and\n        /* \"contracts/uniswapv2/SelfSufficientERC20.sol\":10412:10421  _balances */\n      0x00\n        /* \"contracts/uniswapv2/SelfSufficientERC20.sol\":10412:10430  _balances[account] */\n      swap1\n      dup2\n      mstore\n      0x20\n      dup2\n      swap1\n      mstore\n      0x40\n      swap1\n      keccak256\n        /* \"contracts/uniswapv2/SelfSufficientERC20.sol\":10412:10439  _balances[account] = amount */\n      dup2\n      swap1\n      sstore\n        /* \"contracts/uniswapv2/SelfSufficientERC20.sol\":10449:10461  _totalSupply */\n      0x02\n        /* \"contracts/uniswapv2/SelfSufficientERC20.sol\":10449:10471  _totalSupply += amount */\n      dup1\n      sload\n      swap1\n      swap2\n      add\n      swap1\n      sstore\n        /* \"contracts/uniswapv2/SelfSufficientERC20.sol\":10205:10478  function setBalance(address account, uint256 amount) external onlyAdmin {... */\n      jump\t// out\n        /* \"contracts/uniswapv2/SelfSufficientERC20.sol\":9888:10016  function transferOwnership(address newOwner) public onlyOwner {... */\n    tag_91:\n        /* \"contracts/uniswapv2/SelfSufficientERC20.sol\":9570:9575  owner */\n      and(sub(shl(0xa0, 0x01), 0x01), sload(0x07))\n        /* \"contracts/uniswapv2/SelfSufficientERC20.sol\":9556:9566  msg.sender */\n      caller\n        /* \"contracts/uniswapv2/SelfSufficientERC20.sol\":9556:9575  msg.sender == owner */\n      eq\n        /* \"contracts/uniswapv2/SelfSufficientERC20.sol\":9548:9590  require(msg.sender == owner, \"ONLY_OWNER\") */\n      tag_151\n      jumpi\n      0x40\n      dup1\n      mload\n      shl(0xe5, 0x461bcd)\n      dup2\n      mstore\n      0x20\n      0x04\n      dup3\n      add\n      mstore\n      0x0a\n      0x24\n      dup3\n      add\n      mstore\n      shl(0xb1, 0x27a7262cafa7aba722a9)\n      0x44\n      dup3\n      add\n      mstore\n      swap1\n      mload\n      swap1\n      dup2\n      swap1\n      sub\n      0x64\n      add\n      swap1\n      revert\n    tag_151:\n      sub(shl(0xa0, 0x01), 0x01)\n        /* \"contracts/uniswapv2/SelfSufficientERC20.sol\":9960:9976  admins[newOwner] */\n      and\n      0x00\n      dup2\n      dup2\n      mstore\n        /* \"contracts/uniswapv2/SelfSufficientERC20.sol\":9960:9966  admins */\n      0x06\n        /* \"contracts/uniswapv2/SelfSufficientERC20.sol\":9960:9976  admins[newOwner] */\n      0x20\n      mstore\n      0x40\n      swap1\n      keccak256\n        /* \"contracts/uniswapv2/SelfSufficientERC20.sol\":9960:9983  admins[newOwner] = true */\n      dup1\n      sload\n      not(0xff)\n      and\n        /* \"contracts/uniswapv2/SelfSufficientERC20.sol\":9979:9983  true */\n      0x01\n        /* \"contracts/uniswapv2/SelfSufficientERC20.sol\":9960:9983  admins[newOwner] = true */\n      or\n      swap1\n      sstore\n        /* \"contracts/uniswapv2/SelfSufficientERC20.sol\":9993:9998  owner */\n      0x07\n        /* \"contracts/uniswapv2/SelfSufficientERC20.sol\":9993:10009  owner = newOwner */\n      dup1\n      sload\n      not(sub(shl(0xa0, 0x01), 0x01))\n      and\n      swap1\n      swap2\n      or\n      swap1\n      sstore\n        /* \"contracts/uniswapv2/SelfSufficientERC20.sol\":9888:10016  function transferOwnership(address newOwner) public onlyOwner {... */\n      jump\t// out\n        /* \"contracts/uniswapv2/SelfSufficientERC20.sol\":7258:7617  function _approve(... */\n    tag_98:\n      sub(shl(0xa0, 0x01), 0x01)\n        /* \"contracts/uniswapv2/SelfSufficientERC20.sol\":7380:7399  owner != address(0) */\n      dup4\n      and\n        /* \"contracts/uniswapv2/SelfSufficientERC20.sol\":7372:7440  require(owner != address(0), \"ERC20: approve from the zero address\") */\n      tag_154\n      jumpi\n      mload(0x40)\n      shl(0xe5, 0x461bcd)\n      dup2\n      mstore\n      0x04\n      add\n      dup1\n      dup1\n      0x20\n      add\n      dup3\n      dup2\n      sub\n      dup3\n      mstore\n      0x24\n      dup2\n      mstore\n      0x20\n      add\n      dup1\n      data_c953f4879035ed60e766b34720f656aab5c697b141d924c283124ecedb91c208\n      0x24\n      swap2\n      codecopy\n      0x40\n      add\n      swap2\n      pop\n      pop\n      mload(0x40)\n      dup1\n      swap2\n      sub\n      swap1\n      revert\n    tag_154:\n      sub(shl(0xa0, 0x01), 0x01)\n        /* \"contracts/uniswapv2/SelfSufficientERC20.sol\":7458:7479  spender != address(0) */\n      dup3\n      and\n        /* \"contracts/uniswapv2/SelfSufficientERC20.sol\":7450:7518  require(spender != address(0), \"ERC20: approve to the zero address\") */\n      tag_155\n      jumpi\n      mload(0x40)\n      shl(0xe5, 0x461bcd)\n      dup2\n      mstore\n      0x04\n      add\n      dup1\n      dup1\n      0x20\n      add\n      dup3\n      dup2\n      sub\n      dup3\n      mstore\n      0x22\n      dup2\n      mstore\n      0x20\n      add\n      dup1\n      data_24883cc5fe64ace9d0df1893501ecb93c77180f0ff69cca79affb3c316dc8029\n      0x22\n      swap2\n      codecopy\n      0x40\n      add\n      swap2\n      pop\n      pop\n      mload(0x40)\n      dup1\n      swap2\n      sub\n      swap1\n      revert\n    tag_155:\n      sub(shl(0xa0, 0x01), 0x01)\n        /* \"contracts/uniswapv2/SelfSufficientERC20.sol\":7529:7547  _allowances[owner] */\n      dup1\n      dup5\n      and\n      0x00\n      dup2\n      dup2\n      mstore\n        /* \"contracts/uniswapv2/SelfSufficientERC20.sol\":7529:7540  _allowances */\n      0x01\n        /* \"contracts/uniswapv2/SelfSufficientERC20.sol\":7529:7547  _allowances[owner] */\n      0x20\n      swap1\n      dup2\n      mstore\n      0x40\n      dup1\n      dup4\n      keccak256\n        /* \"contracts/uniswapv2/SelfSufficientERC20.sol\":7529:7556  _allowances[owner][spender] */\n      swap5\n      dup8\n      and\n      dup1\n      dup5\n      mstore\n      swap5\n      dup3\n      mstore\n      swap2\n      dup3\n      swap1\n      keccak256\n        /* \"contracts/uniswapv2/SelfSufficientERC20.sol\":7529:7564  _allowances[owner][spender] = value */\n      dup6\n      swap1\n      sstore\n        /* \"contracts/uniswapv2/SelfSufficientERC20.sol\":7579:7610  Approval(owner, spender, value) */\n      dup2\n      mload\n      dup6\n      dup2\n      mstore\n      swap2\n      mload\n      0x8c5be1e5ebec7d5bd14f71427d1e84f3dd0314c0f7b2291e5b200ac8c7c3b925\n      swap3\n      dup2\n      swap1\n      sub\n      swap1\n      swap2\n      add\n      swap1\n      log3\n        /* \"contracts/uniswapv2/SelfSufficientERC20.sol\":7258:7617  function _approve(... */\n      pop\n      pop\n      pop\n      jump\t// out\n        /* \"contracts/uniswapv2/SelfSufficientERC20.sol\":6464:6835  function _mint(address account, uint256 amount) internal {... */\n    tag_102:\n      sub(shl(0xa0, 0x01), 0x01)\n        /* \"contracts/uniswapv2/SelfSufficientERC20.sol\":6539:6560  account != address(0) */\n      dup3\n      and\n        /* \"contracts/uniswapv2/SelfSufficientERC20.sol\":6531:6596  require(account != address(0), \"ERC20: mint to the zero address\") */\n      tag_157\n      jumpi\n      0x40\n      dup1\n      mload\n      shl(0xe5, 0x461bcd)\n      dup2\n      mstore\n      0x20\n      0x04\n      dup3\n      add\n      mstore\n      0x1f\n      0x24\n      dup3\n      add\n      mstore\n      0x45524332303a206d696e7420746f20746865207a65726f206164647265737300\n      0x44\n      dup3\n      add\n      mstore\n      swap1\n      mload\n      swap1\n      dup2\n      swap1\n      sub\n      0x64\n      add\n      swap1\n      revert\n    tag_157:\n        /* \"contracts/uniswapv2/SelfSufficientERC20.sol\":6623:6635  _totalSupply */\n      sload(0x02)\n        /* \"contracts/uniswapv2/SelfSufficientERC20.sol\":6653:6668  _total + amount */\n      dup2\n      dup2\n      add\n        /* \"contracts/uniswapv2/SelfSufficientERC20.sol\":6653:6678  _total + amount >= _total */\n      dup2\n      gt\n      iszero\n        /* \"contracts/uniswapv2/SelfSufficientERC20.sol\":6645:6698  require(_total + amount >= _total, \"ERC20: Overflow\") */\n      tag_158\n      jumpi\n      0x40\n      dup1\n      mload\n      shl(0xe5, 0x461bcd)\n      dup2\n      mstore\n      0x20\n      0x04\n      dup3\n      add\n      mstore\n      0x0f\n      0x24\n      dup3\n      add\n      mstore\n      shl(0x88, 0x45524332303a204f766572666c6f77)\n      0x44\n      dup3\n      add\n      mstore\n      swap1\n      mload\n      swap1\n      dup2\n      swap1\n      sub\n      0x64\n      add\n      swap1\n      revert\n    tag_158:\n        /* \"contracts/uniswapv2/SelfSufficientERC20.sol\":6723:6738  _total + amount */\n      dup1\n      dup3\n      add\n        /* \"contracts/uniswapv2/SelfSufficientERC20.sol\":6708:6720  _totalSupply */\n      0x02\n        /* \"contracts/uniswapv2/SelfSufficientERC20.sol\":6708:6738  _totalSupply = _total + amount */\n      sstore\n      sub(shl(0xa0, 0x01), 0x01)\n        /* \"contracts/uniswapv2/SelfSufficientERC20.sol\":6748:6766  _balances[account] */\n      dup4\n      and\n        /* \"contracts/uniswapv2/SelfSufficientERC20.sol\":6748:6757  _balances */\n      0x00\n        /* \"contracts/uniswapv2/SelfSufficientERC20.sol\":6748:6766  _balances[account] */\n      dup2\n      dup2\n      mstore\n      0x20\n      dup2\n      dup2\n      mstore\n      0x40\n      dup1\n      dup4\n      keccak256\n        /* \"contracts/uniswapv2/SelfSufficientERC20.sol\":6748:6776  _balances[account] += amount */\n      dup1\n      sload\n      dup8\n      add\n      swap1\n      sstore\n        /* \"contracts/uniswapv2/SelfSufficientERC20.sol\":6791:6828  Transfer(address(0), account, amount) */\n      dup1\n      mload\n      dup7\n      dup2\n      mstore\n      swap1\n      mload\n      0xddf252ad1be2c89b69c2b068fc378daa952ba7f163c4a11628f55a4df523b3ef\n      swap3\n      swap2\n      dup2\n      swap1\n      sub\n      swap1\n      swap2\n      add\n      swap1\n      log3\n        /* \"contracts/uniswapv2/SelfSufficientERC20.sol\":6464:6835  function _mint(address account, uint256 amount) internal {... */\n      pop\n      pop\n      pop\n      jump\t// out\n        /* \"contracts/uniswapv2/SelfSufficientERC20.sol\":5774:6458  function _transfer(... */\n    tag_110:\n      sub(shl(0xa0, 0x01), 0x01)\n        /* \"contracts/uniswapv2/SelfSufficientERC20.sol\":5901:5921  sender != address(0) */\n      dup4\n      and\n        /* \"contracts/uniswapv2/SelfSufficientERC20.sol\":5893:5963  require(sender != address(0), \"ERC20: transfer from the zero address\") */\n      tag_160\n      jumpi\n      mload(0x40)\n      shl(0xe5, 0x461bcd)\n      dup2\n      mstore\n      0x04\n      add\n      dup1\n      dup1\n      0x20\n      add\n      dup3\n      dup2\n      sub\n      dup3\n      mstore\n      0x25\n      dup2\n      mstore\n      0x20\n      add\n      dup1\n      data_baecc556b46f4ed0f2b4cb599d60785ac8563dd2dc0a5bf12edea1c39e5e1fea\n      0x25\n      swap2\n      codecopy\n      0x40\n      add\n      swap2\n      pop\n      pop\n      mload(0x40)\n      dup1\n      swap2\n      sub\n      swap1\n      revert\n    tag_160:\n      sub(shl(0xa0, 0x01), 0x01)\n        /* \"contracts/uniswapv2/SelfSufficientERC20.sol\":5981:6004  recipient != address(0) */\n      dup3\n      and\n        /* \"contracts/uniswapv2/SelfSufficientERC20.sol\":5973:6044  require(recipient != address(0), \"ERC20: transfer to the zero address\") */\n      tag_161\n      jumpi\n      mload(0x40)\n      shl(0xe5, 0x461bcd)\n      dup2\n      mstore\n      0x04\n      add\n      dup1\n      dup1\n      0x20\n      add\n      dup3\n      dup2\n      sub\n      dup3\n      mstore\n      0x23\n      dup2\n      mstore\n      0x20\n      add\n      dup1\n      data_0557e210f7a69a685100a7e4e3d0a7024c546085cee28910fd17d0b081d9516f\n      0x23\n      swap2\n      codecopy\n      0x40\n      add\n      swap2\n      pop\n      pop\n      mload(0x40)\n      dup1\n      swap2\n      sub\n      swap1\n      revert\n    tag_161:\n      sub(shl(0xa0, 0x01), 0x01)\n        /* \"contracts/uniswapv2/SelfSufficientERC20.sol\":6079:6096  _balances[sender] */\n      dup1\n      dup5\n      and\n        /* \"contracts/uniswapv2/SelfSufficientERC20.sol\":6054:6076  uint256 sender_balance */\n      0x00\n        /* \"contracts/uniswapv2/SelfSufficientERC20.sol\":6079:6096  _balances[sender] */\n      swap1\n      dup2\n      mstore\n      0x20\n      dup2\n      swap1\n      mstore\n      0x40\n      dup1\n      dup3\n      keccak256\n      sload\n        /* \"contracts/uniswapv2/SelfSufficientERC20.sol\":6134:6154  _balances[recipient] */\n      swap3\n      dup6\n      and\n      dup3\n      mstore\n      swap1\n      keccak256\n      sload\n        /* \"contracts/uniswapv2/SelfSufficientERC20.sol\":6172:6196  sender_balance >= amount */\n      dup3\n      dup3\n      lt\n      iszero\n        /* \"contracts/uniswapv2/SelfSufficientERC20.sol\":6164:6239  require(sender_balance >= amount, \"ERC20: transfer amount exceeds balance\") */\n      tag_162\n      jumpi\n      mload(0x40)\n      shl(0xe5, 0x461bcd)\n      dup2\n      mstore\n      0x04\n      add\n      dup1\n      dup1\n      0x20\n      add\n      dup3\n      dup2\n      sub\n      dup3\n      mstore\n      0x26\n      dup2\n      mstore\n      0x20\n      add\n      dup1\n      data_4107e8a8b9e94bf8ff83080ddec1c0bffe897ebc2241b89d44f66b3d274088b6\n      0x26\n      swap2\n      codecopy\n      0x40\n      add\n      swap2\n      pop\n      pop\n      mload(0x40)\n      dup1\n      swap2\n      sub\n      swap1\n      revert\n    tag_162:\n        /* \"contracts/uniswapv2/SelfSufficientERC20.sol\":6287:6304  recipient_balance */\n      dup1\n        /* \"contracts/uniswapv2/SelfSufficientERC20.sol\":6277:6283  amount */\n      dup4\n        /* \"contracts/uniswapv2/SelfSufficientERC20.sol\":6257:6274  recipient_balance */\n      dup3\n        /* \"contracts/uniswapv2/SelfSufficientERC20.sol\":6257:6283  recipient_balance + amount */\n      add\n        /* \"contracts/uniswapv2/SelfSufficientERC20.sol\":6257:6304  recipient_balance + amount >= recipient_balance */\n      lt\n      iszero\n        /* \"contracts/uniswapv2/SelfSufficientERC20.sol\":6249:6324  require(recipient_balance + amount >= recipient_balance, \"ERC20: Overflow\") */\n      tag_163\n      jumpi\n      0x40\n      dup1\n      mload\n      shl(0xe5, 0x461bcd)\n      dup2\n      mstore\n      0x20\n      0x04\n      dup3\n      add\n      mstore\n      0x0f\n      0x24\n      dup3\n      add\n      mstore\n      shl(0x88, 0x45524332303a204f766572666c6f77)\n      0x44\n      dup3\n      add\n      mstore\n      swap1\n      mload\n      swap1\n      dup2\n      swap1\n      sub\n      0x64\n      add\n      swap1\n      revert\n    tag_163:\n      sub(shl(0xa0, 0x01), 0x01)\n        /* \"contracts/uniswapv2/SelfSufficientERC20.sol\":6334:6351  _balances[sender] */\n      dup1\n      dup7\n      and\n        /* \"contracts/uniswapv2/SelfSufficientERC20.sol\":6334:6343  _balances */\n      0x00\n        /* \"contracts/uniswapv2/SelfSufficientERC20.sol\":6334:6351  _balances[sender] */\n      dup2\n      dup2\n      mstore\n      0x20\n      dup2\n      dup2\n      mstore\n      0x40\n      dup1\n      dup4\n      keccak256\n        /* \"contracts/uniswapv2/SelfSufficientERC20.sol\":6334:6361  _balances[sender] -= amount */\n      dup1\n      sload\n      dup10\n      swap1\n      sub\n      swap1\n      sstore\n        /* \"contracts/uniswapv2/SelfSufficientERC20.sol\":6371:6391  _balances[recipient] */\n      swap4\n      dup9\n      and\n      dup1\n      dup4\n      mstore\n      swap2\n      dup5\n      swap1\n      keccak256\n        /* \"contracts/uniswapv2/SelfSufficientERC20.sol\":6371:6401  _balances[recipient] += amount */\n      dup1\n      sload\n      dup9\n      add\n      swap1\n      sstore\n        /* \"contracts/uniswapv2/SelfSufficientERC20.sol\":6416:6451  Transfer(sender, recipient, amount) */\n      dup4\n      mload\n      dup8\n      dup2\n      mstore\n      swap4\n      mload\n        /* \"contracts/uniswapv2/SelfSufficientERC20.sol\":6371:6391  _balances[recipient] */\n      swap2\n      swap4\n        /* \"contracts/uniswapv2/SelfSufficientERC20.sol\":6416:6451  Transfer(sender, recipient, amount) */\n      0xddf252ad1be2c89b69c2b068fc378daa952ba7f163c4a11628f55a4df523b3ef\n      swap3\n      swap1\n      dup2\n      swap1\n      sub\n      swap1\n      swap2\n      add\n      swap1\n      log3\n        /* \"contracts/uniswapv2/SelfSufficientERC20.sol\":5774:6458  function _transfer(... */\n      pop\n      pop\n      pop\n      pop\n      pop\n      jump\t// out\n    tag_133:\n      dup3\n      dup1\n      sload\n      0x01\n      dup2\n      0x01\n      and\n      iszero\n      0x0100\n      mul\n      sub\n      and\n      0x02\n      swap1\n      div\n      swap1\n      0x00\n      mstore\n      keccak256(0x00, 0x20)\n      swap1\n      0x1f\n      add\n      0x20\n      swap1\n      div\n      dup2\n      add\n      swap3\n      dup3\n      0x1f\n      lt\n      tag_165\n      jumpi\n      dup1\n      mload\n      not(0xff)\n      and\n      dup4\n      dup1\n      add\n      or\n      dup6\n      sstore\n      jump(tag_167)\n    tag_165:\n      dup3\n      dup1\n      add\n      0x01\n      add\n      dup6\n      sstore\n      dup3\n      iszero\n      tag_167\n      jumpi\n      swap2\n      dup3\n      add\n    tag_166:\n      dup3\n      dup2\n      gt\n      iszero\n      tag_167\n      jumpi\n      dup3\n      mload\n      dup3\n      sstore\n      swap2\n      0x20\n      add\n      swap2\n      swap1\n      0x01\n      add\n      swap1\n      jump(tag_166)\n    tag_167:\n      pop\n      tag_168\n      swap3\n      swap2\n      pop\n      tag_169\n      jump\t// in\n    tag_168:\n      pop\n      swap1\n      jump\t// out\n    tag_169:\n    tag_170:\n      dup1\n      dup3\n      gt\n      iszero\n      tag_168\n      jumpi\n      0x00\n      dup2\n      sstore\n      0x01\n      add\n      jump(tag_170)\n    stop\n    data_0557e210f7a69a685100a7e4e3d0a7024c546085cee28910fd17d0b081d9516f 45524332303a207472616e7366657220746f20746865207a65726f2061646472657373\n    data_24883cc5fe64ace9d0df1893501ecb93c77180f0ff69cca79affb3c316dc8029 45524332303a20617070726f766520746f20746865207a65726f2061646472657373\n    data_292f2b964b628633d11c4b250c2d6c513aac5ad4a05db69ac16d809150823e72 45524332303a207472616e73666572206578636565647320616c6c6f77616e6365\n    data_4107e8a8b9e94bf8ff83080ddec1c0bffe897ebc2241b89d44f66b3d274088b6 45524332303a207472616e7366657220616d6f756e7420657863656564732062616c616e6365\n    data_baecc556b46f4ed0f2b4cb599d60785ac8563dd2dc0a5bf12edea1c39e5e1fea 45524332303a207472616e736665722066726f6d20746865207a65726f2061646472657373\n    data_c953f4879035ed60e766b34720f656aab5c697b141d924c283124ecedb91c208 45524332303a20617070726f76652066726f6d20746865207a65726f2061646472657373\n\n    auxdata: 0xa26469706673582212201d2345f34568c2c40ab920c9fa04e8903b2fac5722bd225256d3cfbadf53c62064736f6c634300060c0033\n}\n",
				"bytecode": {
					"linkReferences": {},
					"object": "60806040526305f5e10060085534801561001857600080fd5b50336000818152600660205260409020805460ff19166001179055600780546001600160a01b0319169091179055611265806100556000396000f3fe608060405234801561001057600080fd5b50600436106101215760003560e01c806395d89b41116100ad578063c52cac8911610071578063c52cac89146104a0578063c700362d146104bd578063dd62ed3e146104f3578063e30443bc14610521578063f2fde38b1461054d57610121565b806395d89b41146102e8578063a457c2d7146102f0578063a9059cbb1461031c578063ab25aec614610348578063c38c58131461047a57610121565b806318160ddd116100f457806318160ddd1461022857806323b872dd14610242578063313ce56714610278578063395093511461029657806370a08231146102c257610121565b806306fdde0314610126578063095ea7b3146101a35780630d3c69b4146101e35780631785f53c14610202575b600080fd5b61012e610573565b6040805160208082528351818301528351919283929083019185019080838360005b83811015610168578181015183820152602001610150565b50505050905090810190601f1680156101955780820380516001836020036101000a031916815260200191505b509250505060405180910390f35b6101cf600480360360408110156101b957600080fd5b506001600160a01b038135169060200135610609565b604080519115158252519081900360200190f35b610200600480360360208110156101f957600080fd5b503561061f565b005b6102006004803603602081101561021857600080fd5b50356001600160a01b0316610674565b610230610744565b60408051918252519081900360200190f35b6101cf6004803603606081101561025857600080fd5b506001600160a01b0381358116916020810135909116906040013561074a565b6102806107d2565b6040805160ff9092168252519081900360200190f35b6101cf600480360360408110156102ac57600080fd5b506001600160a01b0381351690602001356107db565b610230600480360360208110156102d857600080fd5b50356001600160a01b031661085f565b61012e61087a565b6101cf6004803603604081101561030657600080fd5b506001600160a01b0381351690602001356108db565b6101cf6004803603604081101561033257600080fd5b506001600160a01b03813516906020013561094b565b6102006004803603606081101561035e57600080fd5b81019060208101813564010000000081111561037957600080fd5b82018360208201111561038b57600080fd5b803590602001918460018302840111640100000000831117156103ad57600080fd5b91908080601f016020809104026020016040519081016040528093929190818152602001838380828437600092019190915250929594936020810193503591505064010000000081111561040057600080fd5b82018360208201111561041257600080fd5b8035906020019184600183028401116401000000008311171561043457600080fd5b91908080601f0160208091040260200160405190810160405280939291908181526020018383808284376000920191909152509295505050903560ff1691506109589050565b6102006004803603602081101561049057600080fd5b50356001600160a01b0316610a7c565b610200600480360360208110156104b657600080fd5b5035610aec565b610200600480360360608110156104d357600080fd5b506001600160a01b03813581169160208101359091169060400135610b3d565b6102306004803603604081101561050957600080fd5b506001600160a01b0381358116916020013516610b9e565b6102006004803603604081101561053757600080fd5b506001600160a01b038135169060200135610bc9565b6102006004803603602081101561056357600080fd5b50356001600160a01b0316610cb4565b60038054604080516020601f60026000196101006001881615020190951694909404938401819004810282018101909252828152606093909290918301828280156105ff5780601f106105d4576101008083540402835291602001916105ff565b820191906000526020600020905b8154815290600101906020018083116105e257829003601f168201915b5050505050905090565b6000610616338484610d37565b50600192915050565b600854811115610667576040805162461bcd60e51b815260206004820152600e60248201526d1253131151d05317d05353d5539560921b604482015290519081900360640190fd5b6106713382610e23565b50565b6007546001600160a01b031633146106c0576040805162461bcd60e51b815260206004820152600a60248201526927a7262cafa7aba722a960b11b604482015290519081900360640190fd5b6007546001600160a01b0382811691161415610723576040805162461bcd60e51b815260206004820152601760248201527f4f574e45525f4d5553545f52454d41494e5f41444d494e000000000000000000604482015290519081900360640190fd5b6001600160a01b03166000908152600660205260409020805460ff19169055565b60025490565b6000610757848484610f26565b6001600160a01b0384166000908152600160209081526040808320338452909152902054828110156107ba5760405162461bcd60e51b81526004018080602001828103825260218152602001806111a06021913960400191505060405180910390fd5b6107c78533858403610d37565b506001949350505050565b60055460ff1690565b3360009081526001602090815260408083206001600160a01b0386168452909152812054828101811115610848576040805162461bcd60e51b815260206004820152600f60248201526e45524332303a204f766572666c6f7760881b604482015290519081900360640190fd5b6108553385858401610d37565b5060019392505050565b6001600160a01b031660009081526020819052604090205490565b60048054604080516020601f60026000196101006001881615020190951694909404938401819004810282018101909252828152606093909290918301828280156105ff5780601f106105d4576101008083540402835291602001916105ff565b3360009081526001602090815260408083206001600160a01b03861684529091528120548281101561093e5760405162461bcd60e51b81526004018080602001828103825260218152602001806111a06021913960400191505060405180910390fd5b6108553385858403610d37565b6000610616338484610f26565b6007546001600160a01b031633146109a4576040805162461bcd60e51b815260206004820152600a60248201526927a7262cafa7aba722a960b11b604482015290519081900360640190fd5b60055460ff16156109f2576040805162461bcd60e51b81526020600482015260136024820152721053149150511657d253925512505312569151606a1b604482015290519081900360640190fd5b60ff8116610a3c576040805162461bcd60e51b8152602060048201526012602482015271494c4c4547414c5f494e49545f56414c554560701b604482015290519081900360640190fd5b8251610a4f9060039060208601906110c7565b508151610a639060049060208501906110c7565b506005805460ff191660ff929092169190911790555050565b6007546001600160a01b03163314610ac8576040805162461bcd60e51b815260206004820152600a60248201526927a7262cafa7aba722a960b11b604482015290519081900360640190fd5b6001600160a01b03166000908152600660205260409020805460ff19166001179055565b6007546001600160a01b03163314610b38576040805162461bcd60e51b815260206004820152600a60248201526927a7262cafa7aba722a960b11b604482015290519081900360640190fd5b600855565b3360009081526006602052604090205460ff16610b8e576040805162461bcd60e51b815260206004820152600a60248201526927a7262cafa0a226a4a760b11b604482015290519081900360640190fd5b610b99838383610d37565b505050565b6001600160a01b03918216600090815260016020908152604080832093909416825291909152205490565b3360009081526006602052604090205460ff16610c1a576040805162461bcd60e51b815260206004820152600a60248201526927a7262cafa0a226a4a760b11b604482015290519081900360640190fd5b6001600160a01b0382166000908152602081905260409020546002805491909103908190558181011015610c8d576040805162461bcd60e51b8152602060048201526015602482015274544f54414c5f535550504c595f4f564552464c4f5760581b604482015290519081900360640190fd5b6001600160a01b039091166000908152602081905260409020819055600280549091019055565b6007546001600160a01b03163314610d00576040805162461bcd60e51b815260206004820152600a60248201526927a7262cafa7aba722a960b11b604482015290519081900360640190fd5b6001600160a01b03166000818152600660205260409020805460ff19166001179055600780546001600160a01b0319169091179055565b6001600160a01b038316610d7c5760405162461bcd60e51b815260040180806020018281038252602481526020018061120c6024913960400191505060405180910390fd5b6001600160a01b038216610dc15760405162461bcd60e51b815260040180806020018281038252602281526020018061117e6022913960400191505060405180910390fd5b6001600160a01b03808416600081815260016020908152604080832094871680845294825291829020859055815185815291517f8c5be1e5ebec7d5bd14f71427d1e84f3dd0314c0f7b2291e5b200ac8c7c3b9259281900390910190a3505050565b6001600160a01b038216610e7e576040805162461bcd60e51b815260206004820152601f60248201527f45524332303a206d696e7420746f20746865207a65726f206164647265737300604482015290519081900360640190fd5b600254818101811115610eca576040805162461bcd60e51b815260206004820152600f60248201526e45524332303a204f766572666c6f7760881b604482015290519081900360640190fd5b8082016002556001600160a01b038316600081815260208181526040808320805487019055805186815290517fddf252ad1be2c89b69c2b068fc378daa952ba7f163c4a11628f55a4df523b3ef929181900390910190a3505050565b6001600160a01b038316610f6b5760405162461bcd60e51b81526004018080602001828103825260258152602001806111e76025913960400191505060405180910390fd5b6001600160a01b038216610fb05760405162461bcd60e51b815260040180806020018281038252602381526020018061115b6023913960400191505060405180910390fd5b6001600160a01b03808416600090815260208190526040808220549285168252902054828210156110125760405162461bcd60e51b81526004018080602001828103825260268152602001806111c16026913960400191505060405180910390fd5b80838201101561105b576040805162461bcd60e51b815260206004820152600f60248201526e45524332303a204f766572666c6f7760881b604482015290519081900360640190fd5b6001600160a01b0380861660008181526020818152604080832080548990039055938816808352918490208054880190558351878152935191937fddf252ad1be2c89b69c2b068fc378daa952ba7f163c4a11628f55a4df523b3ef929081900390910190a35050505050565b828054600181600116156101000203166002900490600052602060002090601f016020900481019282601f1061110857805160ff1916838001178555611135565b82800160010185558215611135579182015b8281111561113557825182559160200191906001019061111a565b50611141929150611145565b5090565b5b80821115611141576000815560010161114656fe45524332303a207472616e7366657220746f20746865207a65726f206164647265737345524332303a20617070726f766520746f20746865207a65726f206164647265737345524332303a207472616e73666572206578636565647320616c6c6f77616e636545524332303a207472616e7366657220616d6f756e7420657863656564732062616c616e636545524332303a207472616e736665722066726f6d20746865207a65726f206164647265737345524332303a20617070726f76652066726f6d20746865207a65726f2061646472657373a26469706673582212201d2345f34568c2c40ab920c9fa04e8903b2fac5722bd225256d3cfbadf53c62064736f6c634300060c0033",
					"opcodes": "PUSH1 0x80 PUSH1 0x40 MSTORE PUSH4 0x5F5E100 PUSH1 0x8 SSTORE CALLVALUE DUP1 ISZERO PUSH2 0x18 JUMPI PUSH1 0x0 DUP1 REVERT JUMPDEST POP CALLER PUSH1 0x0 DUP2 DUP2 MSTORE PUSH1 0x6 PUSH1 0x20 MSTORE PUSH1 0x40 SWAP1 KECCAK256 DUP1 SLOAD PUSH1 0xFF NOT AND PUSH1 0x1 OR SWAP1 SSTORE PUSH1 0x7 DUP1 SLOAD PUSH1 0x1 PUSH1 0x1 PUSH1 0xA0 SHL SUB NOT AND SWAP1 SWAP2 OR SWAP1 SSTORE PUSH2 0x1265 DUP1 PUSH2 0x55 PUSH1 0x0 CODECOPY PUSH1 0x0 RETURN INVALID PUSH1 0x80 PUSH1 0x40 MSTORE CALLVALUE DUP1 ISZERO PUSH2 0x10 JUMPI PUSH1 0x0 DUP1 REVERT JUMPDEST POP PUSH1 0x4 CALLDATASIZE LT PUSH2 0x121 JUMPI PUSH1 0x0 CALLDATALOAD PUSH1 0xE0 SHR DUP1 PUSH4 0x95D89B41 GT PUSH2 0xAD JUMPI DUP1 PUSH4 0xC52CAC89 GT PUSH2 0x71 JUMPI DUP1 PUSH4 0xC52CAC89 EQ PUSH2 0x4A0 JUMPI DUP1 PUSH4 0xC700362D EQ PUSH2 0x4BD JUMPI DUP1 PUSH4 0xDD62ED3E EQ PUSH2 0x4F3 JUMPI DUP1 PUSH4 0xE30443BC EQ PUSH2 0x521 JUMPI DUP1 PUSH4 0xF2FDE38B EQ PUSH2 0x54D JUMPI PUSH2 0x121 JUMP JUMPDEST DUP1 PUSH4 0x95D89B41 EQ PUSH2 0x2E8 JUMPI DUP1 PUSH4 0xA457C2D7 EQ PUSH2 0x2F0 JUMPI DUP1 PUSH4 0xA9059CBB EQ PUSH2 0x31C JUMPI DUP1 PUSH4 0xAB25AEC6 EQ PUSH2 0x348 JUMPI DUP1 PUSH4 0xC38C5813 EQ PUSH2 0x47A JUMPI PUSH2 0x121 JUMP JUMPDEST DUP1 PUSH4 0x18160DDD GT PUSH2 0xF4 JUMPI DUP1 PUSH4 0x18160DDD EQ PUSH2 0x228 JUMPI DUP1 PUSH4 0x23B872DD EQ PUSH2 0x242 JUMPI DUP1 PUSH4 0x313CE567 EQ PUSH2 0x278 JUMPI DUP1 PUSH4 0x39509351 EQ PUSH2 0x296 JUMPI DUP1 PUSH4 0x70A08231 EQ PUSH2 0x2C2 JUMPI PUSH2 0x121 JUMP JUMPDEST DUP1 PUSH4 0x6FDDE03 EQ PUSH2 0x126 JUMPI DUP1 PUSH4 0x95EA7B3 EQ PUSH2 0x1A3 JUMPI DUP1 PUSH4 0xD3C69B4 EQ PUSH2 0x1E3 JUMPI DUP1 PUSH4 0x1785F53C EQ PUSH2 0x202 JUMPI JUMPDEST PUSH1 0x0 DUP1 REVERT JUMPDEST PUSH2 0x12E PUSH2 0x573 JUMP JUMPDEST PUSH1 0x40 DUP1 MLOAD PUSH1 0x20 DUP1 DUP3 MSTORE DUP4 MLOAD DUP2 DUP4 ADD MSTORE DUP4 MLOAD SWAP2 SWAP3 DUP4 SWAP3 SWAP1 DUP4 ADD SWAP2 DUP6 ADD SWAP1 DUP1 DUP4 DUP4 PUSH1 0x0 JUMPDEST DUP4 DUP2 LT ISZERO PUSH2 0x168 JUMPI DUP2 DUP2 ADD MLOAD DUP4 DUP3 ADD MSTORE PUSH1 0x20 ADD PUSH2 0x150 JUMP JUMPDEST POP POP POP POP SWAP1 POP SWAP1 DUP2 ADD SWAP1 PUSH1 0x1F AND DUP1 ISZERO PUSH2 0x195 JUMPI DUP1 DUP3 SUB DUP1 MLOAD PUSH1 0x1 DUP4 PUSH1 0x20 SUB PUSH2 0x100 EXP SUB NOT AND DUP2 MSTORE PUSH1 0x20 ADD SWAP2 POP JUMPDEST POP SWAP3 POP POP POP PUSH1 0x40 MLOAD DUP1 SWAP2 SUB SWAP1 RETURN JUMPDEST PUSH2 0x1CF PUSH1 0x4 DUP1 CALLDATASIZE SUB PUSH1 0x40 DUP2 LT ISZERO PUSH2 0x1B9 JUMPI PUSH1 0x0 DUP1 REVERT JUMPDEST POP PUSH1 0x1 PUSH1 0x1 PUSH1 0xA0 SHL SUB DUP2 CALLDATALOAD AND SWAP1 PUSH1 0x20 ADD CALLDATALOAD PUSH2 0x609 JUMP JUMPDEST PUSH1 0x40 DUP1 MLOAD SWAP2 ISZERO ISZERO DUP3 MSTORE MLOAD SWAP1 DUP2 SWAP1 SUB PUSH1 0x20 ADD SWAP1 RETURN JUMPDEST PUSH2 0x200 PUSH1 0x4 DUP1 CALLDATASIZE SUB PUSH1 0x20 DUP2 LT ISZERO PUSH2 0x1F9 JUMPI PUSH1 0x0 DUP1 REVERT JUMPDEST POP CALLDATALOAD PUSH2 0x61F JUMP JUMPDEST STOP JUMPDEST PUSH2 0x200 PUSH1 0x4 DUP1 CALLDATASIZE SUB PUSH1 0x20 DUP2 LT ISZERO PUSH2 0x218 JUMPI PUSH1 0x0 DUP1 REVERT JUMPDEST POP CALLDATALOAD PUSH1 0x1 PUSH1 0x1 PUSH1 0xA0 SHL SUB AND PUSH2 0x674 JUMP JUMPDEST PUSH2 0x230 PUSH2 0x744 JUMP JUMPDEST PUSH1 0x40 DUP1 MLOAD SWAP2 DUP3 MSTORE MLOAD SWAP1 DUP2 SWAP1 SUB PUSH1 0x20 ADD SWAP1 RETURN JUMPDEST PUSH2 0x1CF PUSH1 0x4 DUP1 CALLDATASIZE SUB PUSH1 0x60 DUP2 LT ISZERO PUSH2 0x258 JUMPI PUSH1 0x0 DUP1 REVERT JUMPDEST POP PUSH1 0x1 PUSH1 0x1 PUSH1 0xA0 SHL SUB DUP2 CALLDATALOAD DUP2 AND SWAP2 PUSH1 0x20 DUP2 ADD CALLDATALOAD SWAP1 SWAP2 AND SWAP1 PUSH1 0x40 ADD CALLDATALOAD PUSH2 0x74A JUMP JUMPDEST PUSH2 0x280 PUSH2 0x7D2 JUMP JUMPDEST PUSH1 0x40 DUP1 MLOAD PUSH1 0xFF SWAP1 SWAP3 AND DUP3 MSTORE MLOAD SWAP1 DUP2 SWAP1 SUB PUSH1 0x20 ADD SWAP1 RETURN JUMPDEST PUSH2 0x1CF PUSH1 0x4 DUP1 CALLDATASIZE SUB PUSH1 0x40 DUP2 LT ISZERO PUSH2 0x2AC JUMPI PUSH1 0x0 DUP1 REVERT JUMPDEST POP PUSH1 0x1 PUSH1 0x1 PUSH1 0xA0 SHL SUB DUP2 CALLDATALOAD AND SWAP1 PUSH1 0x20 ADD CALLDATALOAD PUSH2 0x7DB JUMP JUMPDEST PUSH2 0x230 PUSH1 0x4 DUP1 CALLDATASIZE SUB PUSH1 0x20 DUP2 LT ISZERO PUSH2 0x2D8 JUMPI PUSH1 0x0 DUP1 REVERT JUMPDEST POP CALLDATALOAD PUSH1 0x1 PUSH1 0x1 PUSH1 0xA0 SHL SUB AND PUSH2 0x85F JUMP JUMPDEST PUSH2 0x12E PUSH2 0x87A JUMP JUMPDEST PUSH2 0x1CF PUSH1 0x4 DUP1 CALLDATASIZE SUB PUSH1 0x40 DUP2 LT ISZERO PUSH2 0x306 JUMPI PUSH1 0x0 DUP1 REVERT JUMPDEST POP PUSH1 0x1 PUSH1 0x1 PUSH1 0xA0 SHL SUB DUP2 CALLDATALOAD AND SWAP1 PUSH1 0x20 ADD CALLDATALOAD PUSH2 0x8DB JUMP JUMPDEST PUSH2 0x1CF PUSH1 0x4 DUP1 CALLDATASIZE SUB PUSH1 0x40 DUP2 LT ISZERO PUSH2 0x332 JUMPI PUSH1 0x0 DUP1 REVERT JUMPDEST POP PUSH1 0x1 PUSH1 0x1 PUSH1 0xA0 SHL SUB DUP2 CALLDATALOAD AND SWAP1 PUSH1 0x20 ADD CALLDATALOAD PUSH2 0x94B JUMP JUMPDEST PUSH2 0x200 PUSH1 0x4 DUP1 CALLDATASIZE SUB PUSH1 0x60 DUP2 LT ISZERO PUSH2 0x35E JUMPI PUSH1 0x0 DUP1 REVERT JUMPDEST DUP2 ADD SWAP1 PUSH1 0x20 DUP2 ADD DUP2 CALLDATALOAD PUSH5 0x100000000 DUP2 GT ISZERO PUSH2 0x379 JUMPI PUSH1 0x0 DUP1 REVERT JUMPDEST DUP3 ADD DUP4 PUSH1 0x20 DUP3 ADD GT ISZERO PUSH2 0x38B JUMPI PUSH1 0x0 DUP1 REVERT JUMPDEST DUP1 CALLDATALOAD SWAP1 PUSH1 0x20 ADD SWAP2 DUP5 PUSH1 0x1 DUP4 MUL DUP5 ADD GT PUSH5 0x100000000 DUP4 GT OR ISZERO PUSH2 0x3AD JUMPI PUSH1 0x0 DUP1 REVERT JUMPDEST SWAP2 SWAP1 DUP1 DUP1 PUSH1 0x1F ADD PUSH1 0x20 DUP1 SWAP2 DIV MUL PUSH1 0x20 ADD PUSH1 0x40 MLOAD SWAP1 DUP2 ADD PUSH1 0x40 MSTORE DUP1 SWAP4 SWAP3 SWAP2 SWAP1 DUP2 DUP2 MSTORE PUSH1 0x20 ADD DUP4 DUP4 DUP1 DUP3 DUP5 CALLDATACOPY PUSH1 0x0 SWAP3 ADD SWAP2 SWAP1 SWAP2 MSTORE POP SWAP3 SWAP6 SWAP5 SWAP4 PUSH1 0x20 DUP2 ADD SWAP4 POP CALLDATALOAD SWAP2 POP POP PUSH5 0x100000000 DUP2 GT ISZERO PUSH2 0x400 JUMPI PUSH1 0x0 DUP1 REVERT JUMPDEST DUP3 ADD DUP4 PUSH1 0x20 DUP3 ADD GT ISZERO PUSH2 0x412 JUMPI PUSH1 0x0 DUP1 REVERT JUMPDEST DUP1 CALLDATALOAD SWAP1 PUSH1 0x20 ADD SWAP2 DUP5 PUSH1 0x1 DUP4 MUL DUP5 ADD GT PUSH5 0x100000000 DUP4 GT OR ISZERO PUSH2 0x434 JUMPI PUSH1 0x0 DUP1 REVERT JUMPDEST SWAP2 SWAP1 DUP1 DUP1 PUSH1 0x1F ADD PUSH1 0x20 DUP1 SWAP2 DIV MUL PUSH1 0x20 ADD PUSH1 0x40 MLOAD SWAP1 DUP2 ADD PUSH1 0x40 MSTORE DUP1 SWAP4 SWAP3 SWAP2 SWAP1 DUP2 DUP2 MSTORE PUSH1 0x20 ADD DUP4 DUP4 DUP1 DUP3 DUP5 CALLDATACOPY PUSH1 0x0 SWAP3 ADD SWAP2 SWAP1 SWAP2 MSTORE POP SWAP3 SWAP6 POP POP POP SWAP1 CALLDATALOAD PUSH1 0xFF AND SWAP2 POP PUSH2 0x958 SWAP1 POP JUMP JUMPDEST PUSH2 0x200 PUSH1 0x4 DUP1 CALLDATASIZE SUB PUSH1 0x20 DUP2 LT ISZERO PUSH2 0x490 JUMPI PUSH1 0x0 DUP1 REVERT JUMPDEST POP CALLDATALOAD PUSH1 0x1 PUSH1 0x1 PUSH1 0xA0 SHL SUB AND PUSH2 0xA7C JUMP JUMPDEST PUSH2 0x200 PUSH1 0x4 DUP1 CALLDATASIZE SUB PUSH1 0x20 DUP2 LT ISZERO PUSH2 0x4B6 JUMPI PUSH1 0x0 DUP1 REVERT JUMPDEST POP CALLDATALOAD PUSH2 0xAEC JUMP JUMPDEST PUSH2 0x200 PUSH1 0x4 DUP1 CALLDATASIZE SUB PUSH1 0x60 DUP2 LT ISZERO PUSH2 0x4D3 JUMPI PUSH1 0x0 DUP1 REVERT JUMPDEST POP PUSH1 0x1 PUSH1 0x1 PUSH1 0xA0 SHL SUB DUP2 CALLDATALOAD DUP2 AND SWAP2 PUSH1 0x20 DUP2 ADD CALLDATALOAD SWAP1 SWAP2 AND SWAP1 PUSH1 0x40 ADD CALLDATALOAD PUSH2 0xB3D JUMP JUMPDEST PUSH2 0x230 PUSH1 0x4 DUP1 CALLDATASIZE SUB PUSH1 0x40 DUP2 LT ISZERO PUSH2 0x509 JUMPI PUSH1 0x0 DUP1 REVERT JUMPDEST POP PUSH1 0x1 PUSH1 0x1 PUSH1 0xA0 SHL SUB DUP2 CALLDATALOAD DUP2 AND SWAP2 PUSH1 0x20 ADD CALLDATALOAD AND PUSH2 0xB9E JUMP JUMPDEST PUSH2 0x200 PUSH1 0x4 DUP1 CALLDATASIZE SUB PUSH1 0x40 DUP2 LT ISZERO PUSH2 0x537 JUMPI PUSH1 0x0 DUP1 REVERT JUMPDEST POP PUSH1 0x1 PUSH1 0x1 PUSH1 0xA0 SHL SUB DUP2 CALLDATALOAD AND SWAP1 PUSH1 0x20 ADD CALLDATALOAD PUSH2 0xBC9 JUMP JUMPDEST PUSH2 0x200 PUSH1 0x4 DUP1 CALLDATASIZE SUB PUSH1 0x20 DUP2 LT ISZERO PUSH2 0x563 JUMPI PUSH1 0x0 DUP1 REVERT JUMPDEST POP CALLDATALOAD PUSH1 0x1 PUSH1 0x1 PUSH1 0xA0 SHL SUB AND PUSH2 0xCB4 JUMP JUMPDEST PUSH1 0x3 DUP1 SLOAD PUSH1 0x40 DUP1 MLOAD PUSH1 0x20 PUSH1 0x1F PUSH1 0x2 PUSH1 0x0 NOT PUSH2 0x100 PUSH1 0x1 DUP9 AND ISZERO MUL ADD SWAP1 SWAP6 AND SWAP5 SWAP1 SWAP5 DIV SWAP4 DUP5 ADD DUP2 SWAP1 DIV DUP2 MUL DUP3 ADD DUP2 ADD SWAP1 SWAP3 MSTORE DUP3 DUP2 MSTORE PUSH1 0x60 SWAP4 SWAP1 SWAP3 SWAP1 SWAP2 DUP4 ADD DUP3 DUP3 DUP1 ISZERO PUSH2 0x5FF JUMPI DUP1 PUSH1 0x1F LT PUSH2 0x5D4 JUMPI PUSH2 0x100 DUP1 DUP4 SLOAD DIV MUL DUP4 MSTORE SWAP2 PUSH1 0x20 ADD SWAP2 PUSH2 0x5FF JUMP JUMPDEST DUP3 ADD SWAP2 SWAP1 PUSH1 0x0 MSTORE PUSH1 0x20 PUSH1 0x0 KECCAK256 SWAP1 JUMPDEST DUP2 SLOAD DUP2 MSTORE SWAP1 PUSH1 0x1 ADD SWAP1 PUSH1 0x20 ADD DUP1 DUP4 GT PUSH2 0x5E2 JUMPI DUP3 SWAP1 SUB PUSH1 0x1F AND DUP3 ADD SWAP2 JUMPDEST POP POP POP POP POP SWAP1 POP SWAP1 JUMP JUMPDEST PUSH1 0x0 PUSH2 0x616 CALLER DUP5 DUP5 PUSH2 0xD37 JUMP JUMPDEST POP PUSH1 0x1 SWAP3 SWAP2 POP POP JUMP JUMPDEST PUSH1 0x8 SLOAD DUP2 GT ISZERO PUSH2 0x667 JUMPI PUSH1 0x40 DUP1 MLOAD PUSH3 0x461BCD PUSH1 0xE5 SHL DUP2 MSTORE PUSH1 0x20 PUSH1 0x4 DUP3 ADD MSTORE PUSH1 0xE PUSH1 0x24 DUP3 ADD MSTORE PUSH14 0x1253131151D05317D05353D55395 PUSH1 0x92 SHL PUSH1 0x44 DUP3 ADD MSTORE SWAP1 MLOAD SWAP1 DUP2 SWAP1 SUB PUSH1 0x64 ADD SWAP1 REVERT JUMPDEST PUSH2 0x671 CALLER DUP3 PUSH2 0xE23 JUMP JUMPDEST POP JUMP JUMPDEST PUSH1 0x7 SLOAD PUSH1 0x1 PUSH1 0x1 PUSH1 0xA0 SHL SUB AND CALLER EQ PUSH2 0x6C0 JUMPI PUSH1 0x40 DUP1 MLOAD PUSH3 0x461BCD PUSH1 0xE5 SHL DUP2 MSTORE PUSH1 0x20 PUSH1 0x4 DUP3 ADD MSTORE PUSH1 0xA PUSH1 0x24 DUP3 ADD MSTORE PUSH10 0x27A7262CAFA7ABA722A9 PUSH1 0xB1 SHL PUSH1 0x44 DUP3 ADD MSTORE SWAP1 MLOAD SWAP1 DUP2 SWAP1 SUB PUSH1 0x64 ADD SWAP1 REVERT JUMPDEST PUSH1 0x7 SLOAD PUSH1 0x1 PUSH1 0x1 PUSH1 0xA0 SHL SUB DUP3 DUP2 AND SWAP2 AND EQ ISZERO PUSH2 0x723 JUMPI PUSH1 0x40 DUP1 MLOAD PUSH3 0x461BCD PUSH1 0xE5 SHL DUP2 MSTORE PUSH1 0x20 PUSH1 0x4 DUP3 ADD MSTORE PUSH1 0x17 PUSH1 0x24 DUP3 ADD MSTORE PUSH32 0x4F574E45525F4D5553545F52454D41494E5F41444D494E000000000000000000 PUSH1 0x44 DUP3 ADD MSTORE SWAP1 MLOAD SWAP1 DUP2 SWAP1 SUB PUSH1 0x64 ADD SWAP1 REVERT JUMPDEST PUSH1 0x1 PUSH1 0x1 PUSH1 0xA0 SHL SUB AND PUSH1 0x0 SWAP1 DUP2 MSTORE PUSH1 0x6 PUSH1 0x20 MSTORE PUSH1 0x40 SWAP1 KECCAK256 DUP1 SLOAD PUSH1 0xFF NOT AND SWAP1 SSTORE JUMP JUMPDEST PUSH1 0x2 SLOAD SWAP1 JUMP JUMPDEST PUSH1 0x0 PUSH2 0x757 DUP5 DUP5 DUP5 PUSH2 0xF26 JUMP JUMPDEST PUSH1 0x1 PUSH1 0x1 PUSH1 0xA0 SHL SUB DUP5 AND PUSH1 0x0 SWAP1 DUP2 MSTORE PUSH1 0x1 PUSH1 0x20 SWAP1 DUP2 MSTORE PUSH1 0x40 DUP1 DUP4 KECCAK256 CALLER DUP5 MSTORE SWAP1 SWAP2 MSTORE SWAP1 KECCAK256 SLOAD DUP3 DUP2 LT ISZERO PUSH2 0x7BA JUMPI PUSH1 0x40 MLOAD PUSH3 0x461BCD PUSH1 0xE5 SHL DUP2 MSTORE PUSH1 0x4 ADD DUP1 DUP1 PUSH1 0x20 ADD DUP3 DUP2 SUB DUP3 MSTORE PUSH1 0x21 DUP2 MSTORE PUSH1 0x20 ADD DUP1 PUSH2 0x11A0 PUSH1 0x21 SWAP2 CODECOPY PUSH1 0x40 ADD SWAP2 POP POP PUSH1 0x40 MLOAD DUP1 SWAP2 SUB SWAP1 REVERT JUMPDEST PUSH2 0x7C7 DUP6 CALLER DUP6 DUP5 SUB PUSH2 0xD37 JUMP JUMPDEST POP PUSH1 0x1 SWAP5 SWAP4 POP POP POP POP JUMP JUMPDEST PUSH1 0x5 SLOAD PUSH1 0xFF AND SWAP1 JUMP JUMPDEST CALLER PUSH1 0x0 SWAP1 DUP2 MSTORE PUSH1 0x1 PUSH1 0x20 SWAP1 DUP2 MSTORE PUSH1 0x40 DUP1 DUP4 KECCAK256 PUSH1 0x1 PUSH1 0x1 PUSH1 0xA0 SHL SUB DUP7 AND DUP5 MSTORE SWAP1 SWAP2 MSTORE DUP2 KECCAK256 SLOAD DUP3 DUP2 ADD DUP2 GT ISZERO PUSH2 0x848 JUMPI PUSH1 0x40 DUP1 MLOAD PUSH3 0x461BCD PUSH1 0xE5 SHL DUP2 MSTORE PUSH1 0x20 PUSH1 0x4 DUP3 ADD MSTORE PUSH1 0xF PUSH1 0x24 DUP3 ADD MSTORE PUSH15 0x45524332303A204F766572666C6F77 PUSH1 0x88 SHL PUSH1 0x44 DUP3 ADD MSTORE SWAP1 MLOAD SWAP1 DUP2 SWAP1 SUB PUSH1 0x64 ADD SWAP1 REVERT JUMPDEST PUSH2 0x855 CALLER DUP6 DUP6 DUP5 ADD PUSH2 0xD37 JUMP JUMPDEST POP PUSH1 0x1 SWAP4 SWAP3 POP POP POP JUMP JUMPDEST PUSH1 0x1 PUSH1 0x1 PUSH1 0xA0 SHL SUB AND PUSH1 0x0 SWAP1 DUP2 MSTORE PUSH1 0x20 DUP2 SWAP1 MSTORE PUSH1 0x40 SWAP1 KECCAK256 SLOAD SWAP1 JUMP JUMPDEST PUSH1 0x4 DUP1 SLOAD PUSH1 0x40 DUP1 MLOAD PUSH1 0x20 PUSH1 0x1F PUSH1 0x2 PUSH1 0x0 NOT PUSH2 0x100 PUSH1 0x1 DUP9 AND ISZERO MUL ADD SWAP1 SWAP6 AND SWAP5 SWAP1 SWAP5 DIV SWAP4 DUP5 ADD DUP2 SWAP1 DIV DUP2 MUL DUP3 ADD DUP2 ADD SWAP1 SWAP3 MSTORE DUP3 DUP2 MSTORE PUSH1 0x60 SWAP4 SWAP1 SWAP3 SWAP1 SWAP2 DUP4 ADD DUP3 DUP3 DUP1 ISZERO PUSH2 0x5FF JUMPI DUP1 PUSH1 0x1F LT PUSH2 0x5D4 JUMPI PUSH2 0x100 DUP1 DUP4 SLOAD DIV MUL DUP4 MSTORE SWAP2 PUSH1 0x20 ADD SWAP2 PUSH2 0x5FF JUMP JUMPDEST CALLER PUSH1 0x0 SWAP1 DUP2 MSTORE PUSH1 0x1 PUSH1 0x20 SWAP1 DUP2 MSTORE PUSH1 0x40 DUP1 DUP4 KECCAK256 PUSH1 0x1 PUSH1 0x1 PUSH1 0xA0 SHL SUB DUP7 AND DUP5 MSTORE SWAP1 SWAP2 MSTORE DUP2 KECCAK256 SLOAD DUP3 DUP2 LT ISZERO PUSH2 0x93E JUMPI PUSH1 0x40 MLOAD PUSH3 0x461BCD PUSH1 0xE5 SHL DUP2 MSTORE PUSH1 0x4 ADD DUP1 DUP1 PUSH1 0x20 ADD DUP3 DUP2 SUB DUP3 MSTORE PUSH1 0x21 DUP2 MSTORE PUSH1 0x20 ADD DUP1 PUSH2 0x11A0 PUSH1 0x21 SWAP2 CODECOPY PUSH1 0x40 ADD SWAP2 POP POP PUSH1 0x40 MLOAD DUP1 SWAP2 SUB SWAP1 REVERT JUMPDEST PUSH2 0x855 CALLER DUP6 DUP6 DUP5 SUB PUSH2 0xD37 JUMP JUMPDEST PUSH1 0x0 PUSH2 0x616 CALLER DUP5 DUP5 PUSH2 0xF26 JUMP JUMPDEST PUSH1 0x7 SLOAD PUSH1 0x1 PUSH1 0x1 PUSH1 0xA0 SHL SUB AND CALLER EQ PUSH2 0x9A4 JUMPI PUSH1 0x40 DUP1 MLOAD PUSH3 0x461BCD PUSH1 0xE5 SHL DUP2 MSTORE PUSH1 0x20 PUSH1 0x4 DUP3 ADD MSTORE PUSH1 0xA PUSH1 0x24 DUP3 ADD MSTORE PUSH10 0x27A7262CAFA7ABA722A9 PUSH1 0xB1 SHL PUSH1 0x44 DUP3 ADD MSTORE SWAP1 MLOAD SWAP1 DUP2 SWAP1 SUB PUSH1 0x64 ADD SWAP1 REVERT JUMPDEST PUSH1 0x5 SLOAD PUSH1 0xFF AND ISZERO PUSH2 0x9F2 JUMPI PUSH1 0x40 DUP1 MLOAD PUSH3 0x461BCD PUSH1 0xE5 SHL DUP2 MSTORE PUSH1 0x20 PUSH1 0x4 DUP3 ADD MSTORE PUSH1 0x13 PUSH1 0x24 DUP3 ADD MSTORE PUSH19 0x1053149150511657D253925512505312569151 PUSH1 0x6A SHL PUSH1 0x44 DUP3 ADD MSTORE SWAP1 MLOAD SWAP1 DUP2 SWAP1 SUB PUSH1 0x64 ADD SWAP1 REVERT JUMPDEST PUSH1 0xFF DUP2 AND PUSH2 0xA3C JUMPI PUSH1 0x40 DUP1 MLOAD PUSH3 0x461BCD PUSH1 0xE5 SHL DUP2 MSTORE PUSH1 0x20 PUSH1 0x4 DUP3 ADD MSTORE PUSH1 0x12 PUSH1 0x24 DUP3 ADD MSTORE PUSH18 0x494C4C4547414C5F494E49545F56414C5545 PUSH1 0x70 SHL PUSH1 0x44 DUP3 ADD MSTORE SWAP1 MLOAD SWAP1 DUP2 SWAP1 SUB PUSH1 0x64 ADD SWAP1 REVERT JUMPDEST DUP3 MLOAD PUSH2 0xA4F SWAP1 PUSH1 0x3 SWAP1 PUSH1 0x20 DUP7 ADD SWAP1 PUSH2 0x10C7 JUMP JUMPDEST POP DUP2 MLOAD PUSH2 0xA63 SWAP1 PUSH1 0x4 SWAP1 PUSH1 0x20 DUP6 ADD SWAP1 PUSH2 0x10C7 JUMP JUMPDEST POP PUSH1 0x5 DUP1 SLOAD PUSH1 0xFF NOT AND PUSH1 0xFF SWAP3 SWAP1 SWAP3 AND SWAP2 SWAP1 SWAP2 OR SWAP1 SSTORE POP POP JUMP JUMPDEST PUSH1 0x7 SLOAD PUSH1 0x1 PUSH1 0x1 PUSH1 0xA0 SHL SUB AND CALLER EQ PUSH2 0xAC8 JUMPI PUSH1 0x40 DUP1 MLOAD PUSH3 0x461BCD PUSH1 0xE5 SHL DUP2 MSTORE PUSH1 0x20 PUSH1 0x4 DUP3 ADD MSTORE PUSH1 0xA PUSH1 0x24 DUP3 ADD MSTORE PUSH10 0x27A7262CAFA7ABA722A9 PUSH1 0xB1 SHL PUSH1 0x44 DUP3 ADD MSTORE SWAP1 MLOAD SWAP1 DUP2 SWAP1 SUB PUSH1 0x64 ADD SWAP1 REVERT JUMPDEST PUSH1 0x1 PUSH1 0x1 PUSH1 0xA0 SHL SUB AND PUSH1 0x0 SWAP1 DUP2 MSTORE PUSH1 0x6 PUSH1 0x20 MSTORE PUSH1 0x40 SWAP1 KECCAK256 DUP1 SLOAD PUSH1 0xFF NOT AND PUSH1 0x1 OR SWAP1 SSTORE JUMP JUMPDEST PUSH1 0x7 SLOAD PUSH1 0x1 PUSH1 0x1 PUSH1 0xA0 SHL SUB AND CALLER EQ PUSH2 0xB38 JUMPI PUSH1 0x40 DUP1 MLOAD PUSH3 0x461BCD PUSH1 0xE5 SHL DUP2 MSTORE PUSH1 0x20 PUSH1 0x4 DUP3 ADD MSTORE PUSH1 0xA PUSH1 0x24 DUP3 ADD MSTORE PUSH10 0x27A7262CAFA7ABA722A9 PUSH1 0xB1 SHL PUSH1 0x44 DUP3 ADD MSTORE SWAP1 MLOAD SWAP1 DUP2 SWAP1 SUB PUSH1 0x64 ADD SWAP1 REVERT JUMPDEST PUSH1 0x8 SSTORE JUMP JUMPDEST CALLER PUSH1 0x0 SWAP1 DUP2 MSTORE PUSH1 0x6 PUSH1 0x20 MSTORE PUSH1 0x40 SWAP1 KECCAK256 SLOAD PUSH1 0xFF AND PUSH2 0xB8E JUMPI PUSH1 0x40 DUP1 MLOAD PUSH3 0x461BCD PUSH1 0xE5 SHL DUP2 MSTORE PUSH1 0x20 PUSH1 0x4 DUP3 ADD MSTORE PUSH1 0xA PUSH1 0x24 DUP3 ADD MSTORE PUSH10 0x27A7262CAFA0A226A4A7 PUSH1 0xB1 SHL PUSH1 0x44 DUP3 ADD MSTORE SWAP1 MLOAD SWAP1 DUP2 SWAP1 SUB PUSH1 0x64 ADD SWAP1 REVERT JUMPDEST PUSH2 0xB99 DUP4 DUP4 DUP4 PUSH2 0xD37 JUMP JUMPDEST POP POP POP JUMP JUMPDEST PUSH1 0x1 PUSH1 0x1 PUSH1 0xA0 SHL SUB SWAP2 DUP3 AND PUSH1 0x0 SWAP1 DUP2 MSTORE PUSH1 0x1 PUSH1 0x20 SWAP1 DUP2 MSTORE PUSH1 0x40 DUP1 DUP4 KECCAK256 SWAP4 SWAP1 SWAP5 AND DUP3 MSTORE SWAP2 SWAP1 SWAP2 MSTORE KECCAK256 SLOAD SWAP1 JUMP JUMPDEST CALLER PUSH1 0x0 SWAP1 DUP2 MSTORE PUSH1 0x6 PUSH1 0x20 MSTORE PUSH1 0x40 SWAP1 KECCAK256 SLOAD PUSH1 0xFF AND PUSH2 0xC1A JUMPI PUSH1 0x40 DUP1 MLOAD PUSH3 0x461BCD PUSH1 0xE5 SHL DUP2 MSTORE PUSH1 0x20 PUSH1 0x4 DUP3 ADD MSTORE PUSH1 0xA PUSH1 0x24 DUP3 ADD MSTORE PUSH10 0x27A7262CAFA0A226A4A7 PUSH1 0xB1 SHL PUSH1 0x44 DUP3 ADD MSTORE SWAP1 MLOAD SWAP1 DUP2 SWAP1 SUB PUSH1 0x64 ADD SWAP1 REVERT JUMPDEST PUSH1 0x1 PUSH1 0x1 PUSH1 0xA0 SHL SUB DUP3 AND PUSH1 0x0 SWAP1 DUP2 MSTORE PUSH1 0x20 DUP2 SWAP1 MSTORE PUSH1 0x40 SWAP1 KECCAK256 SLOAD PUSH1 0x2 DUP1 SLOAD SWAP2 SWAP1 SWAP2 SUB SWAP1 DUP2 SWAP1 SSTORE DUP2 DUP2 ADD LT ISZERO PUSH2 0xC8D JUMPI PUSH1 0x40 DUP1 MLOAD PUSH3 0x461BCD PUSH1 0xE5 SHL DUP2 MSTORE PUSH1 0x20 PUSH1 0x4 DUP3 ADD MSTORE PUSH1 0x15 PUSH1 0x24 DUP3 ADD MSTORE PUSH21 0x544F54414C5F535550504C595F4F564552464C4F57 PUSH1 0x58 SHL PUSH1 0x44 DUP3 ADD MSTORE SWAP1 MLOAD SWAP1 DUP2 SWAP1 SUB PUSH1 0x64 ADD SWAP1 REVERT JUMPDEST PUSH1 0x1 PUSH1 0x1 PUSH1 0xA0 SHL SUB SWAP1 SWAP2 AND PUSH1 0x0 SWAP1 DUP2 MSTORE PUSH1 0x20 DUP2 SWAP1 MSTORE PUSH1 0x40 SWAP1 KECCAK256 DUP2 SWAP1 SSTORE PUSH1 0x2 DUP1 SLOAD SWAP1 SWAP2 ADD SWAP1 SSTORE JUMP JUMPDEST PUSH1 0x7 SLOAD PUSH1 0x1 PUSH1 0x1 PUSH1 0xA0 SHL SUB AND CALLER EQ PUSH2 0xD00 JUMPI PUSH1 0x40 DUP1 MLOAD PUSH3 0x461BCD PUSH1 0xE5 SHL DUP2 MSTORE PUSH1 0x20 PUSH1 0x4 DUP3 ADD MSTORE PUSH1 0xA PUSH1 0x24 DUP3 ADD MSTORE PUSH10 0x27A7262CAFA7ABA722A9 PUSH1 0xB1 SHL PUSH1 0x44 DUP3 ADD MSTORE SWAP1 MLOAD SWAP1 DUP2 SWAP1 SUB PUSH1 0x64 ADD SWAP1 REVERT JUMPDEST PUSH1 0x1 PUSH1 0x1 PUSH1 0xA0 SHL SUB AND PUSH1 0x0 DUP2 DUP2 MSTORE PUSH1 0x6 PUSH1 0x20 MSTORE PUSH1 0x40 SWAP1 KECCAK256 DUP1 SLOAD PUSH1 0xFF NOT AND PUSH1 0x1 OR SWAP1 SSTORE PUSH1 0x7 DUP1 SLOAD PUSH1 0x1 PUSH1 0x1 PUSH1 0xA0 SHL SUB NOT AND SWAP1 SWAP2 OR SWAP1 SSTORE JUMP JUMPDEST PUSH1 0x1 PUSH1 0x1 PUSH1 0xA0 SHL SUB DUP4 AND PUSH2 0xD7C JUMPI PUSH1 0x40 MLOAD PUSH3 0x461BCD PUSH1 0xE5 SHL DUP2 MSTORE PUSH1 0x4 ADD DUP1 DUP1 PUSH1 0x20 ADD DUP3 DUP2 SUB DUP3 MSTORE PUSH1 0x24 DUP2 MSTORE PUSH1 0x20 ADD DUP1 PUSH2 0x120C PUSH1 0x24 SWAP2 CODECOPY PUSH1 0x40 ADD SWAP2 POP POP PUSH1 0x40 MLOAD DUP1 SWAP2 SUB SWAP1 REVERT JUMPDEST PUSH1 0x1 PUSH1 0x1 PUSH1 0xA0 SHL SUB DUP3 AND PUSH2 0xDC1 JUMPI PUSH1 0x40 MLOAD PUSH3 0x461BCD PUSH1 0xE5 SHL DUP2 MSTORE PUSH1 0x4 ADD DUP1 DUP1 PUSH1 0x20 ADD DUP3 DUP2 SUB DUP3 MSTORE PUSH1 0x22 DUP2 MSTORE PUSH1 0x20 ADD DUP1 PUSH2 0x117E PUSH1 0x22 SWAP2 CODECOPY PUSH1 0x40 ADD SWAP2 POP POP PUSH1 0x40 MLOAD DUP1 SWAP2 SUB SWAP1 REVERT JUMPDEST PUSH1 0x1 PUSH1 0x1 PUSH1 0xA0 SHL SUB DUP1 DUP5 AND PUSH1 0x0 DUP2 DUP2 MSTORE PUSH1 0x1 PUSH1 0x20 SWAP1 DUP2 MSTORE PUSH1 0x40 DUP1 DUP4 KECCAK256 SWAP5 DUP8 AND DUP1 DUP5 MSTORE SWAP5 DUP3 MSTORE SWAP2 DUP3 SWAP1 KECCAK256 DUP6 SWAP1 SSTORE DUP2 MLOAD DUP6 DUP2 MSTORE SWAP2 MLOAD PUSH32 0x8C5BE1E5EBEC7D5BD14F71427D1E84F3DD0314C0F7B2291E5B200AC8C7C3B925 SWAP3 DUP2 SWAP1 SUB SWAP1 SWAP2 ADD SWAP1 LOG3 POP POP POP JUMP JUMPDEST PUSH1 0x1 PUSH1 0x1 PUSH1 0xA0 SHL SUB DUP3 AND PUSH2 0xE7E JUMPI PUSH1 0x40 DUP1 MLOAD PUSH3 0x461BCD PUSH1 0xE5 SHL DUP2 MSTORE PUSH1 0x20 PUSH1 0x4 DUP3 ADD MSTORE PUSH1 0x1F PUSH1 0x24 DUP3 ADD MSTORE PUSH32 0x45524332303A206D696E7420746F20746865207A65726F206164647265737300 PUSH1 0x44 DUP3 ADD MSTORE SWAP1 MLOAD SWAP1 DUP2 SWAP1 SUB PUSH1 0x64 ADD SWAP1 REVERT JUMPDEST PUSH1 0x2 SLOAD DUP2 DUP2 ADD DUP2 GT ISZERO PUSH2 0xECA JUMPI PUSH1 0x40 DUP1 MLOAD PUSH3 0x461BCD PUSH1 0xE5 SHL DUP2 MSTORE PUSH1 0x20 PUSH1 0x4 DUP3 ADD MSTORE PUSH1 0xF PUSH1 0x24 DUP3 ADD MSTORE PUSH15 0x45524332303A204F766572666C6F77 PUSH1 0x88 SHL PUSH1 0x44 DUP3 ADD MSTORE SWAP1 MLOAD SWAP1 DUP2 SWAP1 SUB PUSH1 0x64 ADD SWAP1 REVERT JUMPDEST DUP1 DUP3 ADD PUSH1 0x2 SSTORE PUSH1 0x1 PUSH1 0x1 PUSH1 0xA0 SHL SUB DUP4 AND PUSH1 0x0 DUP2 DUP2 MSTORE PUSH1 0x20 DUP2 DUP2 MSTORE PUSH1 0x40 DUP1 DUP4 KECCAK256 DUP1 SLOAD DUP8 ADD SWAP1 SSTORE DUP1 MLOAD DUP7 DUP2 MSTORE SWAP1 MLOAD PUSH32 0xDDF252AD1BE2C89B69C2B068FC378DAA952BA7F163C4A11628F55A4DF523B3EF SWAP3 SWAP2 DUP2 SWAP1 SUB SWAP1 SWAP2 ADD SWAP1 LOG3 POP POP POP JUMP JUMPDEST PUSH1 0x1 PUSH1 0x1 PUSH1 0xA0 SHL SUB DUP4 AND PUSH2 0xF6B JUMPI PUSH1 0x40 MLOAD PUSH3 0x461BCD PUSH1 0xE5 SHL DUP2 MSTORE PUSH1 0x4 ADD DUP1 DUP1 PUSH1 0x20 ADD DUP3 DUP2 SUB DUP3 MSTORE PUSH1 0x25 DUP2 MSTORE PUSH1 0x20 ADD DUP1 PUSH2 0x11E7 PUSH1 0x25 SWAP2 CODECOPY PUSH1 0x40 ADD SWAP2 POP POP PUSH1 0x40 MLOAD DUP1 SWAP2 SUB SWAP1 REVERT JUMPDEST PUSH1 0x1 PUSH1 0x1 PUSH1 0xA0 SHL SUB DUP3 AND PUSH2 0xFB0 JUMPI PUSH1 0x40 MLOAD PUSH3 0x461BCD PUSH1 0xE5 SHL DUP2 MSTORE PUSH1 0x4 ADD DUP1 DUP1 PUSH1 0x20 ADD DUP3 DUP2 SUB DUP3 MSTORE PUSH1 0x23 DUP2 MSTORE PUSH1 0x20 ADD DUP1 PUSH2 0x115B PUSH1 0x23 SWAP2 CODECOPY PUSH1 0x40 ADD SWAP2 POP POP PUSH1 0x40 MLOAD DUP1 SWAP2 SUB SWAP1 REVERT JUMPDEST PUSH1 0x1 PUSH1 0x1 PUSH1 0xA0 SHL SUB DUP1 DUP5 AND PUSH1 0x0 SWAP1 DUP2 MSTORE PUSH1 0x20 DUP2 SWAP1 MSTORE PUSH1 0x40 DUP1 DUP3 KECCAK256 SLOAD SWAP3 DUP6 AND DUP3 MSTORE SWAP1 KECCAK256 SLOAD DUP3 DUP3 LT ISZERO PUSH2 0x1012 JUMPI PUSH1 0x40 MLOAD PUSH3 0x461BCD PUSH1 0xE5 SHL DUP2 MSTORE PUSH1 0x4 ADD DUP1 DUP1 PUSH1 0x20 ADD DUP3 DUP2 SUB DUP3 MSTORE PUSH1 0x26 DUP2 MSTORE PUSH1 0x20 ADD DUP1 PUSH2 0x11C1 PUSH1 0x26 SWAP2 CODECOPY PUSH1 0x40 ADD SWAP2 POP POP PUSH1 0x40 MLOAD DUP1 SWAP2 SUB SWAP1 REVERT JUMPDEST DUP1 DUP4 DUP3 ADD LT ISZERO PUSH2 0x105B JUMPI PUSH1 0x40 DUP1 MLOAD PUSH3 0x461BCD PUSH1 0xE5 SHL DUP2 MSTORE PUSH1 0x20 PUSH1 0x4 DUP3 ADD MSTORE PUSH1 0xF PUSH1 0x24 DUP3 ADD MSTORE PUSH15 0x45524332303A204F766572666C6F77 PUSH1 0x88 SHL PUSH1 0x44 DUP3 ADD MSTORE SWAP1 MLOAD SWAP1 DUP2 SWAP1 SUB PUSH1 0x64 ADD SWAP1 REVERT JUMPDEST PUSH1 0x1 PUSH1 0x1 PUSH1 0xA0 SHL SUB DUP1 DUP7 AND PUSH1 0x0 DUP2 DUP2 MSTORE PUSH1 0x20 DUP2 DUP2 MSTORE PUSH1 0x40 DUP1 DUP4 KECCAK256 DUP1 SLOAD DUP10 SWAP1 SUB SWAP1 SSTORE SWAP4 DUP9 AND DUP1 DUP4 MSTORE SWAP2 DUP5 SWAP1 KECCAK256 DUP1 SLOAD DUP9 ADD SWAP1 SSTORE DUP4 MLOAD DUP8 DUP2 MSTORE SWAP4 MLOAD SWAP2 SWAP4 PUSH32 0xDDF252AD1BE2C89B69C2B068FC378DAA952BA7F163C4A11628F55A4DF523B3EF SWAP3 SWAP1 DUP2 SWAP1 SUB SWAP1 SWAP2 ADD SWAP1 LOG3 POP POP POP POP POP JUMP JUMPDEST DUP3 DUP1 SLOAD PUSH1 0x1 DUP2 PUSH1 0x1 AND ISZERO PUSH2 0x100 MUL SUB AND PUSH1 0x2 SWAP1 DIV SWAP1 PUSH1 0x0 MSTORE PUSH1 0x20 PUSH1 0x0 KECCAK256 SWAP1 PUSH1 0x1F ADD PUSH1 0x20 SWAP1 DIV DUP2 ADD SWAP3 DUP3 PUSH1 0x1F LT PUSH2 0x1108 JUMPI DUP1 MLOAD PUSH1 0xFF NOT AND DUP4 DUP1 ADD OR DUP6 SSTORE PUSH2 0x1135 JUMP JUMPDEST DUP3 DUP1 ADD PUSH1 0x1 ADD DUP6 SSTORE DUP3 ISZERO PUSH2 0x1135 JUMPI SWAP2 DUP3 ADD JUMPDEST DUP3 DUP2 GT ISZERO PUSH2 0x1135 JUMPI DUP3 MLOAD DUP3 SSTORE SWAP2 PUSH1 0x20 ADD SWAP2 SWAP1 PUSH1 0x1 ADD SWAP1 PUSH2 0x111A JUMP JUMPDEST POP PUSH2 0x1141 SWAP3 SWAP2 POP PUSH2 0x1145 JUMP JUMPDEST POP SWAP1 JUMP JUMPDEST JUMPDEST DUP1 DUP3 GT ISZERO PUSH2 0x1141 JUMPI PUSH1 0x0 DUP2 SSTORE PUSH1 0x1 ADD PUSH2 0x1146 JUMP INVALID GASLIMIT MSTORE NUMBER ORIGIN ADDRESS GASPRICE KECCAK256 PUSH21 0x72616E7366657220746F20746865207A65726F2061 PUSH5 0x6472657373 GASLIMIT MSTORE NUMBER ORIGIN ADDRESS GASPRICE KECCAK256 PUSH2 0x7070 PUSH19 0x6F766520746F20746865207A65726F20616464 PUSH19 0x65737345524332303A207472616E7366657220 PUSH6 0x786365656473 KECCAK256 PUSH2 0x6C6C PUSH16 0x77616E636545524332303A207472616E PUSH20 0x66657220616D6F756E7420657863656564732062 PUSH2 0x6C61 PUSH15 0x636545524332303A207472616E7366 PUSH6 0x722066726F6D KECCAK256 PUSH21 0x6865207A65726F206164647265737345524332303A KECCAK256 PUSH2 0x7070 PUSH19 0x6F76652066726F6D20746865207A65726F2061 PUSH5 0x6472657373 LOG2 PUSH5 0x6970667358 0x22 SLT KECCAK256 SAR 0x23 GASLIMIT RETURN GASLIMIT PUSH9 0xC2C40AB920C9FA04E8 SWAP1 EXTCODESIZE 0x2F 0xAC JUMPI 0x22 0xBD 0x22 MSTORE JUMP 0xD3 0xCF 0xBA 0xDF MSTORE8 0xC6 KECCAK256 PUSH5 0x736F6C6343 STOP MOD 0xC STOP CALLER "
				},
				"gasEstimates": {
					"creation": {
						"codeDepositCost": "941800",
						"executionCost": "62718",
						"totalCost": "1004518"
					},
					"external": {
						"adminApproval(address,address,uint256)": "infinite",
						"allowance(address,address)": "1316",
						"approve(address,uint256)": "infinite",
						"balanceOf(address)": "1256",
						"decimals()": "1080",
						"decreaseAllowance(address,uint256)": "infinite",
						"increaseAllowance(address,uint256)": "infinite",
						"initlialize(string,string,uint8)": "infinite",
						"name()": "infinite",
						"registerAdmin(address)": "22063",
						"removeAdmin(address)": "22889",
						"resetMaxMint(uint256)": "21051",
						"selfMint(uint256)": "44720",
						"setBalance(address,uint256)": "63867",
						"symbol()": "infinite",
						"totalSupply()": "1021",
						"transfer(address,uint256)": "infinite",
						"transferFrom(address,address,uint256)": "infinite",
						"transferOwnership(address)": "42901"
					}
				},
				"methodIdentifiers": {
					"adminApproval(address,address,uint256)": "c700362d",
					"allowance(address,address)": "dd62ed3e",
					"approve(address,uint256)": "095ea7b3",
					"balanceOf(address)": "70a08231",
					"decimals()": "313ce567",
					"decreaseAllowance(address,uint256)": "a457c2d7",
					"increaseAllowance(address,uint256)": "39509351",
					"initlialize(string,string,uint8)": "ab25aec6",
					"name()": "06fdde03",
					"registerAdmin(address)": "c38c5813",
					"removeAdmin(address)": "1785f53c",
					"resetMaxMint(uint256)": "c52cac89",
					"selfMint(uint256)": "0d3c69b4",
					"setBalance(address,uint256)": "e30443bc",
					"symbol()": "95d89b41",
					"totalSupply()": "18160ddd",
					"transfer(address,uint256)": "a9059cbb",
					"transferFrom(address,address,uint256)": "23b872dd",
					"transferOwnership(address)": "f2fde38b"
				}
			},
			"storageLayout": {
				"storage": [
					{
						"astId": 101,
						"contract": "contracts/uniswapv2/SelfSufficientERC20.sol:SelfSufficientERC20",
						"label": "_balances",
						"offset": 0,
						"slot": "0",
						"type": "t_mapping(t_address,t_uint256)"
					},
					{
						"astId": 107,
						"contract": "contracts/uniswapv2/SelfSufficientERC20.sol:SelfSufficientERC20",
						"label": "_allowances",
						"offset": 0,
						"slot": "1",
						"type": "t_mapping(t_address,t_mapping(t_address,t_uint256))"
					},
					{
						"astId": 109,
						"contract": "contracts/uniswapv2/SelfSufficientERC20.sol:SelfSufficientERC20",
						"label": "_totalSupply",
						"offset": 0,
						"slot": "2",
						"type": "t_uint256"
					},
					{
						"astId": 111,
						"contract": "contracts/uniswapv2/SelfSufficientERC20.sol:SelfSufficientERC20",
						"label": "name_",
						"offset": 0,
						"slot": "3",
						"type": "t_string_storage"
					},
					{
						"astId": 113,
						"contract": "contracts/uniswapv2/SelfSufficientERC20.sol:SelfSufficientERC20",
						"label": "symbol_",
						"offset": 0,
						"slot": "4",
						"type": "t_string_storage"
					},
					{
						"astId": 115,
						"contract": "contracts/uniswapv2/SelfSufficientERC20.sol:SelfSufficientERC20",
						"label": "decimals_",
						"offset": 0,
						"slot": "5",
						"type": "t_uint8"
					},
					{
						"astId": 613,
						"contract": "contracts/uniswapv2/SelfSufficientERC20.sol:SelfSufficientERC20",
						"label": "admins",
						"offset": 0,
						"slot": "6",
						"type": "t_mapping(t_address,t_bool)"
					},
					{
						"astId": 615,
						"contract": "contracts/uniswapv2/SelfSufficientERC20.sol:SelfSufficientERC20",
						"label": "owner",
						"offset": 0,
						"slot": "7",
						"type": "t_address"
					},
					{
						"astId": 618,
						"contract": "contracts/uniswapv2/SelfSufficientERC20.sol:SelfSufficientERC20",
						"label": "max_mint",
						"offset": 0,
						"slot": "8",
						"type": "t_uint256"
					}
				],
				"types": {
					"t_address": {
						"encoding": "inplace",
						"label": "address",
						"numberOfBytes": "20"
					},
					"t_bool": {
						"encoding": "inplace",
						"label": "bool",
						"numberOfBytes": "1"
					},
					"t_mapping(t_address,t_bool)": {
						"encoding": "mapping",
						"key": "t_address",
						"label": "mapping(address => bool)",
						"numberOfBytes": "32",
						"value": "t_bool"
					},
					"t_mapping(t_address,t_mapping(t_address,t_uint256))": {
						"encoding": "mapping",
						"key": "t_address",
						"label": "mapping(address => mapping(address => uint256))",
						"numberOfBytes": "32",
						"value": "t_mapping(t_address,t_uint256)"
					},
					"t_mapping(t_address,t_uint256)": {
						"encoding": "mapping",
						"key": "t_address",
						"label": "mapping(address => uint256)",
						"numberOfBytes": "32",
						"value": "t_uint256"
					},
					"t_string_storage": {
						"encoding": "bytes",
						"label": "string",
						"numberOfBytes": "32"
					},
					"t_uint256": {
						"encoding": "inplace",
						"label": "uint256",
						"numberOfBytes": "32"
					},
					"t_uint8": {
						"encoding": "inplace",
						"label": "uint8",
						"numberOfBytes": "1"
					}
				}
			},
			"userdoc": {
				"kind": "user",
				"methods": {
					"decimals()": {
						"notice": "Returns the decimals places of the token."
					},
					"name()": {
						"notice": "Returns the name of the token."
					},
					"symbol()": {
						"notice": "Returns the symbol of the token."
					}
				},
				"version": 1
			}
		}
	}
}