{
	"contracts/uniswapv2/Core.sol": {
		"UniswapV2Pair": {
			"abi": [
				{
					"inputs": [],
					"payable": false,
					"stateMutability": "nonpayable",
					"type": "constructor"
				},
				{
					"anonymous": false,
					"inputs": [
						{
							"indexed": true,
							"internalType": "address",
							"name": "owner",
							"type": "address"
						},
						{
							"indexed": true,
							"internalType": "address",
							"name": "spender",
							"type": "address"
						},
						{
							"indexed": false,
							"internalType": "uint256",
							"name": "value",
							"type": "uint256"
						}
					],
					"name": "Approval",
					"type": "event"
				},
				{
					"anonymous": false,
					"inputs": [
						{
							"indexed": true,
							"internalType": "address",
							"name": "sender",
							"type": "address"
						},
						{
							"indexed": false,
							"internalType": "uint256",
							"name": "amount0",
							"type": "uint256"
						},
						{
							"indexed": false,
							"internalType": "uint256",
							"name": "amount1",
							"type": "uint256"
						},
						{
							"indexed": true,
							"internalType": "address",
							"name": "to",
							"type": "address"
						}
					],
					"name": "Burn",
					"type": "event"
				},
				{
					"anonymous": false,
					"inputs": [
						{
							"indexed": true,
							"internalType": "address",
							"name": "sender",
							"type": "address"
						},
						{
							"indexed": false,
							"internalType": "uint256",
							"name": "amount0",
							"type": "uint256"
						},
						{
							"indexed": false,
							"internalType": "uint256",
							"name": "amount1",
							"type": "uint256"
						}
					],
					"name": "Mint",
					"type": "event"
				},
				{
					"anonymous": false,
					"inputs": [
						{
							"indexed": true,
							"internalType": "address",
							"name": "sender",
							"type": "address"
						},
						{
							"indexed": false,
							"internalType": "uint256",
							"name": "amount0In",
							"type": "uint256"
						},
						{
							"indexed": false,
							"internalType": "uint256",
							"name": "amount1In",
							"type": "uint256"
						},
						{
							"indexed": false,
							"internalType": "uint256",
							"name": "amount0Out",
							"type": "uint256"
						},
						{
							"indexed": false,
							"internalType": "uint256",
							"name": "amount1Out",
							"type": "uint256"
						},
						{
							"indexed": true,
							"internalType": "address",
							"name": "to",
							"type": "address"
						}
					],
					"name": "Swap",
					"type": "event"
				},
				{
					"anonymous": false,
					"inputs": [
						{
							"indexed": false,
							"internalType": "uint112",
							"name": "reserve0",
							"type": "uint112"
						},
						{
							"indexed": false,
							"internalType": "uint112",
							"name": "reserve1",
							"type": "uint112"
						}
					],
					"name": "Sync",
					"type": "event"
				},
				{
					"anonymous": false,
					"inputs": [
						{
							"indexed": true,
							"internalType": "address",
							"name": "from",
							"type": "address"
						},
						{
							"indexed": true,
							"internalType": "address",
							"name": "to",
							"type": "address"
						},
						{
							"indexed": false,
							"internalType": "uint256",
							"name": "value",
							"type": "uint256"
						}
					],
					"name": "Transfer",
					"type": "event"
				},
				{
					"constant": true,
					"inputs": [],
					"name": "DOMAIN_SEPARATOR",
					"outputs": [
						{
							"internalType": "bytes32",
							"name": "",
							"type": "bytes32"
						}
					],
					"payable": false,
					"stateMutability": "view",
					"type": "function"
				},
				{
					"constant": true,
					"inputs": [],
					"name": "MINIMUM_LIQUIDITY",
					"outputs": [
						{
							"internalType": "uint256",
							"name": "",
							"type": "uint256"
						}
					],
					"payable": false,
					"stateMutability": "view",
					"type": "function"
				},
				{
					"constant": true,
					"inputs": [],
					"name": "PERMIT_TYPEHASH",
					"outputs": [
						{
							"internalType": "bytes32",
							"name": "",
							"type": "bytes32"
						}
					],
					"payable": false,
					"stateMutability": "view",
					"type": "function"
				},
				{
					"constant": true,
					"inputs": [
						{
							"internalType": "address",
							"name": "",
							"type": "address"
						},
						{
							"internalType": "address",
							"name": "",
							"type": "address"
						}
					],
					"name": "allowance",
					"outputs": [
						{
							"internalType": "uint256",
							"name": "",
							"type": "uint256"
						}
					],
					"payable": false,
					"stateMutability": "view",
					"type": "function"
				},
				{
					"constant": false,
					"inputs": [
						{
							"internalType": "address",
							"name": "spender",
							"type": "address"
						},
						{
							"internalType": "uint256",
							"name": "value",
							"type": "uint256"
						}
					],
					"name": "approve",
					"outputs": [
						{
							"internalType": "bool",
							"name": "",
							"type": "bool"
						}
					],
					"payable": false,
					"stateMutability": "nonpayable",
					"type": "function"
				},
				{
					"constant": true,
					"inputs": [
						{
							"internalType": "address",
							"name": "",
							"type": "address"
						}
					],
					"name": "balanceOf",
					"outputs": [
						{
							"internalType": "uint256",
							"name": "",
							"type": "uint256"
						}
					],
					"payable": false,
					"stateMutability": "view",
					"type": "function"
				},
				{
					"constant": false,
					"inputs": [
						{
							"internalType": "address",
							"name": "to",
							"type": "address"
						}
					],
					"name": "burn",
					"outputs": [
						{
							"internalType": "uint256",
							"name": "amount0",
							"type": "uint256"
						},
						{
							"internalType": "uint256",
							"name": "amount1",
							"type": "uint256"
						}
					],
					"payable": false,
					"stateMutability": "nonpayable",
					"type": "function"
				},
				{
					"constant": true,
					"inputs": [],
					"name": "decimals",
					"outputs": [
						{
							"internalType": "uint8",
							"name": "",
							"type": "uint8"
						}
					],
					"payable": false,
					"stateMutability": "view",
					"type": "function"
				},
				{
					"constant": true,
					"inputs": [],
					"name": "factory",
					"outputs": [
						{
							"internalType": "address",
							"name": "",
							"type": "address"
						}
					],
					"payable": false,
					"stateMutability": "view",
					"type": "function"
				},
				{
					"constant": true,
					"inputs": [],
					"name": "getReserves",
					"outputs": [
						{
							"internalType": "uint112",
							"name": "_reserve0",
							"type": "uint112"
						},
						{
							"internalType": "uint112",
							"name": "_reserve1",
							"type": "uint112"
						},
						{
							"internalType": "uint32",
							"name": "_blockTimestampLast",
							"type": "uint32"
						}
					],
					"payable": false,
					"stateMutability": "view",
					"type": "function"
				},
				{
					"constant": false,
					"inputs": [
						{
							"internalType": "address",
							"name": "_token0",
							"type": "address"
						},
						{
							"internalType": "address",
							"name": "_token1",
							"type": "address"
						}
					],
					"name": "initialize",
					"outputs": [],
					"payable": false,
					"stateMutability": "nonpayable",
					"type": "function"
				},
				{
					"constant": true,
					"inputs": [],
					"name": "kLast",
					"outputs": [
						{
							"internalType": "uint256",
							"name": "",
							"type": "uint256"
						}
					],
					"payable": false,
					"stateMutability": "view",
					"type": "function"
				},
				{
					"constant": false,
					"inputs": [
						{
							"internalType": "address",
							"name": "to",
							"type": "address"
						}
					],
					"name": "mint",
					"outputs": [
						{
							"internalType": "uint256",
							"name": "liquidity",
							"type": "uint256"
						}
					],
					"payable": false,
					"stateMutability": "nonpayable",
					"type": "function"
				},
				{
					"constant": true,
					"inputs": [],
					"name": "name",
					"outputs": [
						{
							"internalType": "string",
							"name": "",
							"type": "string"
						}
					],
					"payable": false,
					"stateMutability": "view",
					"type": "function"
				},
				{
					"constant": true,
					"inputs": [
						{
							"internalType": "address",
							"name": "",
							"type": "address"
						}
					],
					"name": "nonces",
					"outputs": [
						{
							"internalType": "uint256",
							"name": "",
							"type": "uint256"
						}
					],
					"payable": false,
					"stateMutability": "view",
					"type": "function"
				},
				{
					"constant": false,
					"inputs": [
						{
							"internalType": "address",
							"name": "owner",
							"type": "address"
						},
						{
							"internalType": "address",
							"name": "spender",
							"type": "address"
						},
						{
							"internalType": "uint256",
							"name": "value",
							"type": "uint256"
						},
						{
							"internalType": "uint256",
							"name": "deadline",
							"type": "uint256"
						},
						{
							"internalType": "uint8",
							"name": "v",
							"type": "uint8"
						},
						{
							"internalType": "bytes32",
							"name": "r",
							"type": "bytes32"
						},
						{
							"internalType": "bytes32",
							"name": "s",
							"type": "bytes32"
						}
					],
					"name": "permit",
					"outputs": [],
					"payable": false,
					"stateMutability": "nonpayable",
					"type": "function"
				},
				{
					"constant": true,
					"inputs": [],
					"name": "price0CumulativeLast",
					"outputs": [
						{
							"internalType": "uint256",
							"name": "",
							"type": "uint256"
						}
					],
					"payable": false,
					"stateMutability": "view",
					"type": "function"
				},
				{
					"constant": true,
					"inputs": [],
					"name": "price1CumulativeLast",
					"outputs": [
						{
							"internalType": "uint256",
							"name": "",
							"type": "uint256"
						}
					],
					"payable": false,
					"stateMutability": "view",
					"type": "function"
				},
				{
					"constant": false,
					"inputs": [
						{
							"internalType": "address",
							"name": "to",
							"type": "address"
						}
					],
					"name": "skim",
					"outputs": [],
					"payable": false,
					"stateMutability": "nonpayable",
					"type": "function"
				},
				{
					"constant": false,
					"inputs": [
						{
							"internalType": "uint256",
							"name": "amount0Out",
							"type": "uint256"
						},
						{
							"internalType": "uint256",
							"name": "amount1Out",
							"type": "uint256"
						},
						{
							"internalType": "address",
							"name": "to",
							"type": "address"
						},
						{
							"internalType": "bytes",
							"name": "data",
							"type": "bytes"
						}
					],
					"name": "swap",
					"outputs": [],
					"payable": false,
					"stateMutability": "nonpayable",
					"type": "function"
				},
				{
					"constant": true,
					"inputs": [],
					"name": "symbol",
					"outputs": [
						{
							"internalType": "string",
							"name": "",
							"type": "string"
						}
					],
					"payable": false,
					"stateMutability": "view",
					"type": "function"
				},
				{
					"constant": false,
					"inputs": [],
					"name": "sync",
					"outputs": [],
					"payable": false,
					"stateMutability": "nonpayable",
					"type": "function"
				},
				{
					"constant": true,
					"inputs": [],
					"name": "token0",
					"outputs": [
						{
							"internalType": "address",
							"name": "",
							"type": "address"
						}
					],
					"payable": false,
					"stateMutability": "view",
					"type": "function"
				},
				{
					"constant": true,
					"inputs": [],
					"name": "token1",
					"outputs": [
						{
							"internalType": "address",
							"name": "",
							"type": "address"
						}
					],
					"payable": false,
					"stateMutability": "view",
					"type": "function"
				},
				{
					"constant": true,
					"inputs": [],
					"name": "totalSupply",
					"outputs": [
						{
							"internalType": "uint256",
							"name": "",
							"type": "uint256"
						}
					],
					"payable": false,
					"stateMutability": "view",
					"type": "function"
				},
				{
					"constant": false,
					"inputs": [
						{
							"internalType": "address",
							"name": "to",
							"type": "address"
						},
						{
							"internalType": "uint256",
							"name": "value",
							"type": "uint256"
						}
					],
					"name": "transfer",
					"outputs": [
						{
							"internalType": "bool",
							"name": "",
							"type": "bool"
						}
					],
					"payable": false,
					"stateMutability": "nonpayable",
					"type": "function"
				},
				{
					"constant": false,
					"inputs": [
						{
							"internalType": "address",
							"name": "from",
							"type": "address"
						},
						{
							"internalType": "address",
							"name": "to",
							"type": "address"
						},
						{
							"internalType": "uint256",
							"name": "value",
							"type": "uint256"
						}
					],
					"name": "transferFrom",
					"outputs": [
						{
							"internalType": "bool",
							"name": "",
							"type": "bool"
						}
					],
					"payable": false,
					"stateMutability": "nonpayable",
					"type": "function"
				}
			],
			"devdoc": {
				"methods": {}
			},
			"evm": {
				"assembly": "    /* \"contracts/uniswapv2/Core.sol\":9466:19903  contract UniswapV2Pair is IUniswapV2Pair, UniswapV2ERC20 {... */\n  mstore(0x40, 0x80)\n    /* \"contracts/uniswapv2/Core.sol\":10304:10305  1 */\n  0x01\n    /* \"contracts/uniswapv2/Core.sol\":10280:10305  uint private unlocked = 1 */\n  0x0c\n  sstore\n    /* \"contracts/uniswapv2/Core.sol\":11528:11586  constructor() public {... */\n  callvalue\n    /* \"--CODEGEN--\":8:17   */\n  dup1\n    /* \"--CODEGEN--\":5:7   */\n  iszero\n  tag_1\n  jumpi\n    /* \"--CODEGEN--\":30:31   */\n  0x00\n    /* \"--CODEGEN--\":27:28   */\n  dup1\n    /* \"--CODEGEN--\":20:32   */\n  revert\n    /* \"--CODEGEN--\":5:7   */\ntag_1:\n  pop\n    /* \"contracts/uniswapv2/Core.sol\":6734:6867  keccak256(... */\n  mload(0x40)\n    /* \"contracts/uniswapv2/Core.sol\":6638:6645  chainid */\n  chainid\n  swap1\n    /* \"contracts/uniswapv2/Core.sol\":6734:6867  keccak256(... */\n  dup1\n  0x52\n  data_8b73c3c69bb8fe3d512ecc4cf759cc79239f7b179b0ffacaa9a75d522b39400f\n  dup3\n  codecopy\n  0x40\n  dup1\n  mload\n  swap2\n  dup3\n  swap1\n  sub\n  0x52\n  add\n  dup3\n  keccak256\n    /* \"contracts/uniswapv2/Core.sol\":6901:6905  name */\n  dup3\n  dup3\n  add\n  dup3\n  mstore\n  0x0a\n  dup4\n  mstore\n  shl(0xb1, 0x2ab734b9bbb0b8102b19)\n  0x20\n  swap4\n  dup5\n  add\n  mstore\n    /* \"contracts/uniswapv2/Core.sol\":6935:6945  bytes(\"1\") */\n  dup2\n  mload\n  dup1\n  dup4\n  add\n  dup4\n  mstore\n  0x01\n  dup2\n  mstore\n  shl(0xf8, 0x31)\n  swap1\n  dup5\n  add\n  mstore\n    /* \"contracts/uniswapv2/Core.sol\":6706:7016  abi.encode(... */\n  dup2\n  mload\n  dup1\n  dup5\n  add\n  swap2\n  swap1\n  swap2\n  mstore\n    /* \"contracts/uniswapv2/Core.sol\":6885:6907  keccak256(bytes(name)) */\n  0xbfcc8ef98ffbf7b6c3fec7bf5185b566b9863e35a9d83acd49ad6824b5969738\n    /* \"contracts/uniswapv2/Core.sol\":6706:7016  abi.encode(... */\n  dup2\n  dup4\n  add\n  mstore\n    /* \"contracts/uniswapv2/Core.sol\":6925:6946  keccak256(bytes(\"1\")) */\n  0xc89efdaa54c0f20c7adf612882df0950f5a951637e0307cdcb4c672f298b8bc6\n    /* \"contracts/uniswapv2/Core.sol\":6706:7016  abi.encode(... */\n  0x60\n  dup3\n  add\n  mstore\n  0x80\n  dup2\n  add\n  swap5\n  swap1\n  swap5\n  mstore\n    /* \"contracts/uniswapv2/Core.sol\":6997:7001  this */\n  address\n    /* \"contracts/uniswapv2/Core.sol\":6706:7016  abi.encode(... */\n  0xa0\n  dup1\n  dup7\n  add\n  swap2\n  swap1\n  swap2\n  mstore\n  dup2\n  mload\n    /* \"--CODEGEN--\":26:47   */\n  dup1\n  dup7\n  sub\n    /* \"--CODEGEN--\":22:54   */\n  swap1\n  swap2\n  add\n    /* \"--CODEGEN--\":6:55   */\n  dup2\n  mstore\n    /* \"contracts/uniswapv2/Core.sol\":6706:7016  abi.encode(... */\n  0xc0\n  swap1\n  swap5\n  add\n  swap1\n  mstore\n    /* \"contracts/uniswapv2/Core.sol\":6683:7026  keccak256(... */\n  dup3\n  mload\n  swap3\n  add\n  swap2\n  swap1\n  swap2\n  keccak256\n    /* \"contracts/uniswapv2/Core.sol\":6664:6680  DOMAIN_SEPARATOR */\n  0x03\n    /* \"contracts/uniswapv2/Core.sol\":6664:7026  DOMAIN_SEPARATOR = keccak256(... */\n  sstore\n  pop\n    /* \"contracts/uniswapv2/Core.sol\":11559:11566  factory */\n  0x05\n    /* \"contracts/uniswapv2/Core.sol\":11559:11579  factory = msg.sender */\n  dup1\n  sload\n  not(sub(shl(0xa0, 0x01), 0x01))\n  and\n    /* \"contracts/uniswapv2/Core.sol\":11569:11579  msg.sender */\n  caller\n    /* \"contracts/uniswapv2/Core.sol\":11559:11579  factory = msg.sender */\n  or\n  swap1\n  sstore\n  0x2281\n  dup1\n    /* \"contracts/uniswapv2/Core.sol\":9466:19903  contract UniswapV2Pair is IUniswapV2Pair, UniswapV2ERC20 {... */\n  dataOffset(sub_0)\n  0x00\n  codecopy\n  0x00\n  return\nstop\ndata_8b73c3c69bb8fe3d512ecc4cf759cc79239f7b179b0ffacaa9a75d522b39400f 454950373132446f6d61696e28737472696e67206e616d652c737472696e672076657273696f6e2c75696e7432353620636861696e49642c6164647265737320766572696679696e67436f6e747261637429\n\nsub_0: assembly {\n        /* \"contracts/uniswapv2/Core.sol\":9466:19903  contract UniswapV2Pair is IUniswapV2Pair, UniswapV2ERC20 {... */\n      mstore(0x40, 0x80)\n      callvalue\n        /* \"--CODEGEN--\":8:17   */\n      dup1\n        /* \"--CODEGEN--\":5:7   */\n      iszero\n      tag_1\n      jumpi\n        /* \"--CODEGEN--\":30:31   */\n      0x00\n        /* \"--CODEGEN--\":27:28   */\n      dup1\n        /* \"--CODEGEN--\":20:32   */\n      revert\n        /* \"--CODEGEN--\":5:7   */\n    tag_1:\n        /* \"contracts/uniswapv2/Core.sol\":9466:19903  contract UniswapV2Pair is IUniswapV2Pair, UniswapV2ERC20 {... */\n      pop\n      jumpi(tag_2, lt(calldatasize, 0x04))\n      shr(0xe0, calldataload(0x00))\n      dup1\n      0x6a627842\n      gt\n      tag_30\n      jumpi\n      dup1\n      0xba9a7a56\n      gt\n      tag_31\n      jumpi\n      dup1\n      0xd21220a7\n      gt\n      tag_32\n      jumpi\n      dup1\n      0xd21220a7\n      eq\n      tag_26\n      jumpi\n      dup1\n      0xd505accf\n      eq\n      tag_27\n      jumpi\n      dup1\n      0xdd62ed3e\n      eq\n      tag_28\n      jumpi\n      dup1\n      0xfff6cae9\n      eq\n      tag_29\n      jumpi\n      jump(tag_2)\n    tag_32:\n      dup1\n      0xba9a7a56\n      eq\n      tag_23\n      jumpi\n      dup1\n      0xbc25cf77\n      eq\n      tag_24\n      jumpi\n      dup1\n      0xc45a0155\n      eq\n      tag_25\n      jumpi\n      jump(tag_2)\n    tag_31:\n      dup1\n      0x7ecebe00\n      gt\n      tag_33\n      jumpi\n      dup1\n      0x7ecebe00\n      eq\n      tag_19\n      jumpi\n      dup1\n      0x89afcb44\n      eq\n      tag_20\n      jumpi\n      dup1\n      0x95d89b41\n      eq\n      tag_21\n      jumpi\n      dup1\n      0xa9059cbb\n      eq\n      tag_22\n      jumpi\n      jump(tag_2)\n    tag_33:\n      dup1\n      0x6a627842\n      eq\n      tag_16\n      jumpi\n      dup1\n      0x70a08231\n      eq\n      tag_17\n      jumpi\n      dup1\n      0x7464fc3d\n      eq\n      tag_18\n      jumpi\n      jump(tag_2)\n    tag_30:\n      dup1\n      0x23b872dd\n      gt\n      tag_34\n      jumpi\n      dup1\n      0x3644e515\n      gt\n      tag_35\n      jumpi\n      dup1\n      0x3644e515\n      eq\n      tag_12\n      jumpi\n      dup1\n      0x485cc955\n      eq\n      tag_13\n      jumpi\n      dup1\n      0x5909c0d5\n      eq\n      tag_14\n      jumpi\n      dup1\n      0x5a3d5493\n      eq\n      tag_15\n      jumpi\n      jump(tag_2)\n    tag_35:\n      dup1\n      0x23b872dd\n      eq\n      tag_9\n      jumpi\n      dup1\n      0x30adf81f\n      eq\n      tag_10\n      jumpi\n      dup1\n      0x313ce567\n      eq\n      tag_11\n      jumpi\n      jump(tag_2)\n    tag_34:\n      dup1\n      0x022c0d9f\n      eq\n      tag_3\n      jumpi\n      dup1\n      0x06fdde03\n      eq\n      tag_4\n      jumpi\n      dup1\n      0x0902f1ac\n      eq\n      tag_5\n      jumpi\n      dup1\n      0x095ea7b3\n      eq\n      tag_6\n      jumpi\n      dup1\n      0x0dfe1681\n      eq\n      tag_7\n      jumpi\n      dup1\n      0x18160ddd\n      eq\n      tag_8\n      jumpi\n    tag_2:\n      0x00\n      dup1\n      revert\n        /* \"contracts/uniswapv2/Core.sol\":16874:19174  function swap(... */\n    tag_3:\n      tag_36\n      0x04\n      dup1\n      calldatasize\n      sub\n        /* \"--CODEGEN--\":13:16   */\n      0x80\n        /* \"--CODEGEN--\":8:11   */\n      dup2\n        /* \"--CODEGEN--\":5:17   */\n      lt\n        /* \"--CODEGEN--\":2:4   */\n      iszero\n      tag_37\n      jumpi\n        /* \"--CODEGEN--\":30:31   */\n      0x00\n        /* \"--CODEGEN--\":27:28   */\n      dup1\n        /* \"--CODEGEN--\":20:32   */\n      revert\n        /* \"--CODEGEN--\":2:4   */\n    tag_37:\n        /* \"contracts/uniswapv2/Core.sol\":16874:19174  function swap(... */\n      dup2\n      calldataload\n      swap2\n      0x20\n      dup2\n      add\n      calldataload\n      swap2\n      0x40\n      dup3\n      add\n      calldataload\n      sub(shl(0xa0, 0x01), 0x01)\n      and\n      swap2\n      swap1\n      dup2\n      add\n      swap1\n      0x80\n      dup2\n      add\n      0x60\n      dup3\n      add\n      calldataload\n        /* \"--CODEGEN--\":21:32   */\n      0x0100000000\n        /* \"--CODEGEN--\":5:33   */\n      dup2\n      gt\n        /* \"--CODEGEN--\":2:4   */\n      iszero\n      tag_38\n      jumpi\n        /* \"--CODEGEN--\":46:47   */\n      0x00\n        /* \"--CODEGEN--\":43:44   */\n      dup1\n        /* \"--CODEGEN--\":36:48   */\n      revert\n        /* \"--CODEGEN--\":2:4   */\n    tag_38:\n        /* \"contracts/uniswapv2/Core.sol\":16874:19174  function swap(... */\n      dup3\n      add\n        /* \"--CODEGEN--\":35:44   */\n      dup4\n        /* \"--CODEGEN--\":28:32   */\n      0x20\n        /* \"--CODEGEN--\":12:26   */\n      dup3\n        /* \"--CODEGEN--\":8:33   */\n      add\n        /* \"--CODEGEN--\":5:45   */\n      gt\n        /* \"--CODEGEN--\":2:4   */\n      iszero\n      tag_39\n      jumpi\n        /* \"--CODEGEN--\":58:59   */\n      0x00\n        /* \"--CODEGEN--\":55:56   */\n      dup1\n        /* \"--CODEGEN--\":48:60   */\n      revert\n        /* \"--CODEGEN--\":2:4   */\n    tag_39:\n        /* \"contracts/uniswapv2/Core.sol\":16874:19174  function swap(... */\n      dup1\n      calldataload\n      swap1\n      0x20\n      add\n      swap2\n        /* \"--CODEGEN--\":100:109   */\n      dup5\n        /* \"--CODEGEN--\":95:96   */\n      0x01\n        /* \"--CODEGEN--\":81:93   */\n      dup4\n        /* \"--CODEGEN--\":77:97   */\n      mul\n        /* \"--CODEGEN--\":67:75   */\n      dup5\n        /* \"--CODEGEN--\":63:98   */\n      add\n        /* \"--CODEGEN--\":60:110   */\n      gt\n        /* \"--CODEGEN--\":39:50   */\n      0x0100000000\n        /* \"--CODEGEN--\":25:37   */\n      dup4\n        /* \"--CODEGEN--\":22:51   */\n      gt\n        /* \"--CODEGEN--\":11:118   */\n      or\n        /* \"--CODEGEN--\":8:10   */\n      iszero\n      tag_40\n      jumpi\n        /* \"--CODEGEN--\":131:132   */\n      0x00\n        /* \"--CODEGEN--\":128:129   */\n      dup1\n        /* \"--CODEGEN--\":121:133   */\n      revert\n        /* \"--CODEGEN--\":8:10   */\n    tag_40:\n      pop\n        /* \"contracts/uniswapv2/Core.sol\":16874:19174  function swap(... */\n      swap1\n      swap3\n      pop\n      swap1\n      pop\n      tag_41\n      jump\t// in\n    tag_36:\n      stop\n        /* \"contracts/uniswapv2/Core.sol\":5809:5851  string public constant name = \"Uniswap V2\" */\n    tag_4:\n      tag_42\n      tag_43\n      jump\t// in\n    tag_42:\n      0x40\n      dup1\n      mload\n      0x20\n      dup1\n      dup3\n      mstore\n      dup4\n      mload\n      dup2\n      dup4\n      add\n      mstore\n      dup4\n      mload\n      swap2\n      swap3\n      dup4\n      swap3\n      swap1\n      dup4\n      add\n      swap2\n      dup6\n      add\n      swap1\n      dup1\n      dup4\n      dup4\n      0x00\n        /* \"--CODEGEN--\":8:108   */\n    tag_44:\n        /* \"--CODEGEN--\":33:36   */\n      dup4\n        /* \"--CODEGEN--\":30:31   */\n      dup2\n        /* \"--CODEGEN--\":27:37   */\n      lt\n        /* \"--CODEGEN--\":8:108   */\n      iszero\n      tag_46\n      jumpi\n        /* \"--CODEGEN--\":90:101   */\n      dup2\n      dup2\n      add\n        /* \"--CODEGEN--\":84:102   */\n      mload\n        /* \"--CODEGEN--\":71:82   */\n      dup4\n      dup3\n      add\n        /* \"--CODEGEN--\":64:103   */\n      mstore\n        /* \"--CODEGEN--\":52:54   */\n      0x20\n        /* \"--CODEGEN--\":45:55   */\n      add\n        /* \"--CODEGEN--\":8:108   */\n      jump(tag_44)\n    tag_46:\n        /* \"--CODEGEN--\":12:26   */\n      pop\n        /* \"contracts/uniswapv2/Core.sol\":5809:5851  string public constant name = \"Uniswap V2\" */\n      pop\n      pop\n      pop\n      swap1\n      pop\n      swap1\n      dup2\n      add\n      swap1\n      0x1f\n      and\n      dup1\n      iszero\n      tag_47\n      jumpi\n      dup1\n      dup3\n      sub\n      dup1\n      mload\n      0x01\n      dup4\n      0x20\n      sub\n      0x0100\n      exp\n      sub\n      not\n      and\n      dup2\n      mstore\n      0x20\n      add\n      swap2\n      pop\n    tag_47:\n      pop\n      swap3\n      pop\n      pop\n      pop\n      mload(0x40)\n      dup1\n      swap2\n      sub\n      swap1\n      return\n        /* \"contracts/uniswapv2/Core.sol\":10448:10749  function getReserves()... */\n    tag_5:\n      tag_48\n      tag_49\n      jump\t// in\n    tag_48:\n      0x40\n      dup1\n      mload\n      sub(shl(0x70, 0x01), 0x01)\n      swap5\n      dup6\n      and\n      dup2\n      mstore\n      swap3\n      swap1\n      swap4\n      and\n      0x20\n      dup4\n      add\n      mstore\n      0xffffffff\n      and\n      dup2\n      dup4\n      add\n      mstore\n      swap1\n      mload\n      swap1\n      dup2\n      swap1\n      sub\n      0x60\n      add\n      swap1\n      return\n        /* \"contracts/uniswapv2/Core.sol\":7847:7991  function approve(address spender, uint value) external returns (bool) {... */\n    tag_6:\n      tag_50\n      0x04\n      dup1\n      calldatasize\n      sub\n        /* \"--CODEGEN--\":13:15   */\n      0x40\n        /* \"--CODEGEN--\":8:11   */\n      dup2\n        /* \"--CODEGEN--\":5:16   */\n      lt\n        /* \"--CODEGEN--\":2:4   */\n      iszero\n      tag_51\n      jumpi\n        /* \"--CODEGEN--\":29:30   */\n      0x00\n        /* \"--CODEGEN--\":26:27   */\n      dup1\n        /* \"--CODEGEN--\":19:31   */\n      revert\n        /* \"--CODEGEN--\":2:4   */\n    tag_51:\n      pop\n        /* \"contracts/uniswapv2/Core.sol\":7847:7991  function approve(address spender, uint value) external returns (bool) {... */\n      dup1\n      calldataload\n      sub(shl(0xa0, 0x01), 0x01)\n      and\n      swap1\n      0x20\n      add\n      calldataload\n      tag_52\n      jump\t// in\n    tag_50:\n      0x40\n      dup1\n      mload\n      swap2\n      iszero\n      iszero\n      dup3\n      mstore\n      mload\n      swap1\n      dup2\n      swap1\n      sub\n      0x20\n      add\n      swap1\n      return\n        /* \"contracts/uniswapv2/Core.sol\":9777:9798  address public token0 */\n    tag_7:\n      tag_53\n      tag_54\n      jump\t// in\n    tag_53:\n      0x40\n      dup1\n      mload\n      0x01\n      dup1\n      0xa0\n      shl\n      sub\n      swap1\n      swap3\n      and\n      dup3\n      mstore\n      mload\n      swap1\n      dup2\n      swap1\n      sub\n      0x20\n      add\n      swap1\n      return\n        /* \"contracts/uniswapv2/Core.sol\":5944:5967  uint public totalSupply */\n    tag_8:\n      tag_55\n      tag_56\n      jump\t// in\n    tag_55:\n      0x40\n      dup1\n      mload\n      swap2\n      dup3\n      mstore\n      mload\n      swap1\n      dup2\n      swap1\n      sub\n      0x20\n      add\n      swap1\n      return\n        /* \"contracts/uniswapv2/Core.sol\":8139:8494  function transferFrom(... */\n    tag_9:\n      tag_50\n      0x04\n      dup1\n      calldatasize\n      sub\n        /* \"--CODEGEN--\":13:15   */\n      0x60\n        /* \"--CODEGEN--\":8:11   */\n      dup2\n        /* \"--CODEGEN--\":5:16   */\n      lt\n        /* \"--CODEGEN--\":2:4   */\n      iszero\n      tag_58\n      jumpi\n        /* \"--CODEGEN--\":29:30   */\n      0x00\n        /* \"--CODEGEN--\":26:27   */\n      dup1\n        /* \"--CODEGEN--\":19:31   */\n      revert\n        /* \"--CODEGEN--\":2:4   */\n    tag_58:\n      pop\n      sub(shl(0xa0, 0x01), 0x01)\n        /* \"contracts/uniswapv2/Core.sol\":8139:8494  function transferFrom(... */\n      dup2\n      calldataload\n      dup2\n      and\n      swap2\n      0x20\n      dup2\n      add\n      calldataload\n      swap1\n      swap2\n      and\n      swap1\n      0x40\n      add\n      calldataload\n      tag_59\n      jump\t// in\n        /* \"contracts/uniswapv2/Core.sol\":6229:6345  bytes32 public constant PERMIT_TYPEHASH =... */\n    tag_10:\n      tag_55\n      tag_61\n      jump\t// in\n        /* \"contracts/uniswapv2/Core.sol\":5903:5938  uint8 public constant decimals = 18 */\n    tag_11:\n      tag_62\n      tag_63\n      jump\t// in\n    tag_62:\n      0x40\n      dup1\n      mload\n      0xff\n      swap1\n      swap3\n      and\n      dup3\n      mstore\n      mload\n      swap1\n      dup2\n      swap1\n      sub\n      0x20\n      add\n      swap1\n      return\n        /* \"contracts/uniswapv2/Core.sol\":6088:6119  bytes32 public DOMAIN_SEPARATOR */\n    tag_12:\n      tag_55\n      tag_65\n      jump\t// in\n        /* \"contracts/uniswapv2/Core.sol\":11648:11854  function initialize(address _token0, address _token1) external {... */\n    tag_13:\n      tag_36\n      0x04\n      dup1\n      calldatasize\n      sub\n        /* \"--CODEGEN--\":13:15   */\n      0x40\n        /* \"--CODEGEN--\":8:11   */\n      dup2\n        /* \"--CODEGEN--\":5:16   */\n      lt\n        /* \"--CODEGEN--\":2:4   */\n      iszero\n      tag_67\n      jumpi\n        /* \"--CODEGEN--\":29:30   */\n      0x00\n        /* \"--CODEGEN--\":26:27   */\n      dup1\n        /* \"--CODEGEN--\":19:31   */\n      revert\n        /* \"--CODEGEN--\":2:4   */\n    tag_67:\n      pop\n      sub(shl(0xa0, 0x01), 0x01)\n        /* \"contracts/uniswapv2/Core.sol\":11648:11854  function initialize(address _token0, address _token1) external {... */\n      dup2\n      calldataload\n      dup2\n      and\n      swap2\n      0x20\n      add\n      calldataload\n      and\n      tag_68\n      jump\t// in\n        /* \"contracts/uniswapv2/Core.sol\":10100:10132  uint public price0CumulativeLast */\n    tag_14:\n      tag_55\n      tag_70\n      jump\t// in\n        /* \"contracts/uniswapv2/Core.sol\":10138:10170  uint public price1CumulativeLast */\n    tag_15:\n      tag_55\n      tag_72\n      jump\t// in\n        /* \"contracts/uniswapv2/Core.sol\":13958:15225  function mint(address to) external lock returns (uint liquidity) {... */\n    tag_16:\n      tag_55\n      0x04\n      dup1\n      calldatasize\n      sub\n        /* \"--CODEGEN--\":13:15   */\n      0x20\n        /* \"--CODEGEN--\":8:11   */\n      dup2\n        /* \"--CODEGEN--\":5:16   */\n      lt\n        /* \"--CODEGEN--\":2:4   */\n      iszero\n      tag_74\n      jumpi\n        /* \"--CODEGEN--\":29:30   */\n      0x00\n        /* \"--CODEGEN--\":26:27   */\n      dup1\n        /* \"--CODEGEN--\":19:31   */\n      revert\n        /* \"--CODEGEN--\":2:4   */\n    tag_74:\n      pop\n        /* \"contracts/uniswapv2/Core.sol\":13958:15225  function mint(address to) external lock returns (uint liquidity) {... */\n      calldataload\n      sub(shl(0xa0, 0x01), 0x01)\n      and\n      tag_75\n      jump\t// in\n        /* \"contracts/uniswapv2/Core.sol\":5973:6014  mapping(address => uint) public balanceOf */\n    tag_17:\n      tag_55\n      0x04\n      dup1\n      calldatasize\n      sub\n        /* \"--CODEGEN--\":13:15   */\n      0x20\n        /* \"--CODEGEN--\":8:11   */\n      dup2\n        /* \"--CODEGEN--\":5:16   */\n      lt\n        /* \"--CODEGEN--\":2:4   */\n      iszero\n      tag_77\n      jumpi\n        /* \"--CODEGEN--\":29:30   */\n      0x00\n        /* \"--CODEGEN--\":26:27   */\n      dup1\n        /* \"--CODEGEN--\":19:31   */\n      revert\n        /* \"--CODEGEN--\":2:4   */\n    tag_77:\n      pop\n        /* \"contracts/uniswapv2/Core.sol\":5973:6014  mapping(address => uint) public balanceOf */\n      calldataload\n      sub(shl(0xa0, 0x01), 0x01)\n      and\n      tag_78\n      jump\t// in\n        /* \"contracts/uniswapv2/Core.sol\":10176:10193  uint public kLast */\n    tag_18:\n      tag_55\n      tag_80\n      jump\t// in\n        /* \"contracts/uniswapv2/Core.sol\":6351:6389  mapping(address => uint) public nonces */\n    tag_19:\n      tag_55\n      0x04\n      dup1\n      calldatasize\n      sub\n        /* \"--CODEGEN--\":13:15   */\n      0x20\n        /* \"--CODEGEN--\":8:11   */\n      dup2\n        /* \"--CODEGEN--\":5:16   */\n      lt\n        /* \"--CODEGEN--\":2:4   */\n      iszero\n      tag_82\n      jumpi\n        /* \"--CODEGEN--\":29:30   */\n      0x00\n        /* \"--CODEGEN--\":26:27   */\n      dup1\n        /* \"--CODEGEN--\":19:31   */\n      revert\n        /* \"--CODEGEN--\":2:4   */\n    tag_82:\n      pop\n        /* \"contracts/uniswapv2/Core.sol\":6351:6389  mapping(address => uint) public nonces */\n      calldataload\n      sub(shl(0xa0, 0x01), 0x01)\n      and\n      tag_83\n      jump\t// in\n        /* \"contracts/uniswapv2/Core.sol\":15334:16765  function burn(... */\n    tag_20:\n      tag_84\n      0x04\n      dup1\n      calldatasize\n      sub\n        /* \"--CODEGEN--\":13:15   */\n      0x20\n        /* \"--CODEGEN--\":8:11   */\n      dup2\n        /* \"--CODEGEN--\":5:16   */\n      lt\n        /* \"--CODEGEN--\":2:4   */\n      iszero\n      tag_85\n      jumpi\n        /* \"--CODEGEN--\":29:30   */\n      0x00\n        /* \"--CODEGEN--\":26:27   */\n      dup1\n        /* \"--CODEGEN--\":19:31   */\n      revert\n        /* \"--CODEGEN--\":2:4   */\n    tag_85:\n      pop\n        /* \"contracts/uniswapv2/Core.sol\":15334:16765  function burn(... */\n      calldataload\n      sub(shl(0xa0, 0x01), 0x01)\n      and\n      tag_86\n      jump\t// in\n    tag_84:\n      0x40\n      dup1\n      mload\n      swap3\n      dup4\n      mstore\n      0x20\n      dup4\n      add\n      swap2\n      swap1\n      swap2\n      mstore\n      dup1\n      mload\n      swap2\n      dup3\n      swap1\n      sub\n      add\n      swap1\n      return\n        /* \"contracts/uniswapv2/Core.sol\":5857:5897  string public constant symbol = \"UNI-V2\" */\n    tag_21:\n      tag_42\n      tag_88\n      jump\t// in\n        /* \"contracts/uniswapv2/Core.sol\":7997:8133  function transfer(address to, uint value) external returns (bool) {... */\n    tag_22:\n      tag_50\n      0x04\n      dup1\n      calldatasize\n      sub\n        /* \"--CODEGEN--\":13:15   */\n      0x40\n        /* \"--CODEGEN--\":8:11   */\n      dup2\n        /* \"--CODEGEN--\":5:16   */\n      lt\n        /* \"--CODEGEN--\":2:4   */\n      iszero\n      tag_94\n      jumpi\n        /* \"--CODEGEN--\":29:30   */\n      0x00\n        /* \"--CODEGEN--\":26:27   */\n      dup1\n        /* \"--CODEGEN--\":19:31   */\n      revert\n        /* \"--CODEGEN--\":2:4   */\n    tag_94:\n      pop\n        /* \"contracts/uniswapv2/Core.sol\":7997:8133  function transfer(address to, uint value) external returns (bool) {... */\n      dup1\n      calldataload\n      sub(shl(0xa0, 0x01), 0x01)\n      and\n      swap1\n      0x20\n      add\n      calldataload\n      tag_95\n      jump\t// in\n        /* \"contracts/uniswapv2/Core.sol\":9592:9640  uint public constant MINIMUM_LIQUIDITY = 10 ** 3 */\n    tag_23:\n      tag_55\n      tag_97\n      jump\t// in\n        /* \"contracts/uniswapv2/Core.sol\":19220:19641  function skim(address to) external lock {... */\n    tag_24:\n      tag_36\n      0x04\n      dup1\n      calldatasize\n      sub\n        /* \"--CODEGEN--\":13:15   */\n      0x20\n        /* \"--CODEGEN--\":8:11   */\n      dup2\n        /* \"--CODEGEN--\":5:16   */\n      lt\n        /* \"--CODEGEN--\":2:4   */\n      iszero\n      tag_99\n      jumpi\n        /* \"--CODEGEN--\":29:30   */\n      0x00\n        /* \"--CODEGEN--\":26:27   */\n      dup1\n        /* \"--CODEGEN--\":19:31   */\n      revert\n        /* \"--CODEGEN--\":2:4   */\n    tag_99:\n      pop\n        /* \"contracts/uniswapv2/Core.sol\":19220:19641  function skim(address to) external lock {... */\n      calldataload\n      sub(shl(0xa0, 0x01), 0x01)\n      and\n      tag_100\n      jump\t// in\n        /* \"contracts/uniswapv2/Core.sol\":9749:9771  address public factory */\n    tag_25:\n      tag_53\n      tag_102\n      jump\t// in\n        /* \"contracts/uniswapv2/Core.sol\":9804:9825  address public token1 */\n    tag_26:\n      tag_53\n      tag_104\n      jump\t// in\n        /* \"contracts/uniswapv2/Core.sol\":8500:9462  function permit(... */\n    tag_27:\n      tag_36\n      0x04\n      dup1\n      calldatasize\n      sub\n        /* \"--CODEGEN--\":13:16   */\n      0xe0\n        /* \"--CODEGEN--\":8:11   */\n      dup2\n        /* \"--CODEGEN--\":5:17   */\n      lt\n        /* \"--CODEGEN--\":2:4   */\n      iszero\n      tag_106\n      jumpi\n        /* \"--CODEGEN--\":30:31   */\n      0x00\n        /* \"--CODEGEN--\":27:28   */\n      dup1\n        /* \"--CODEGEN--\":20:32   */\n      revert\n        /* \"--CODEGEN--\":2:4   */\n    tag_106:\n      pop\n      sub(shl(0xa0, 0x01), 0x01)\n        /* \"contracts/uniswapv2/Core.sol\":8500:9462  function permit(... */\n      dup2\n      calldataload\n      dup2\n      and\n      swap2\n      0x20\n      dup2\n      add\n      calldataload\n      swap1\n      swap2\n      and\n      swap1\n      0x40\n      dup2\n      add\n      calldataload\n      swap1\n      0x60\n      dup2\n      add\n      calldataload\n      swap1\n      0xff\n      0x80\n      dup3\n      add\n      calldataload\n      and\n      swap1\n      0xa0\n      dup2\n      add\n      calldataload\n      swap1\n      0xc0\n      add\n      calldataload\n      tag_107\n      jump\t// in\n        /* \"contracts/uniswapv2/Core.sol\":6020:6081  mapping(address => mapping(address => uint)) public allowance */\n    tag_28:\n      tag_55\n      0x04\n      dup1\n      calldatasize\n      sub\n        /* \"--CODEGEN--\":13:15   */\n      0x40\n        /* \"--CODEGEN--\":8:11   */\n      dup2\n        /* \"--CODEGEN--\":5:16   */\n      lt\n        /* \"--CODEGEN--\":2:4   */\n      iszero\n      tag_109\n      jumpi\n        /* \"--CODEGEN--\":29:30   */\n      0x00\n        /* \"--CODEGEN--\":26:27   */\n      dup1\n        /* \"--CODEGEN--\":19:31   */\n      revert\n        /* \"--CODEGEN--\":2:4   */\n    tag_109:\n      pop\n      sub(shl(0xa0, 0x01), 0x01)\n        /* \"contracts/uniswapv2/Core.sol\":6020:6081  mapping(address => mapping(address => uint)) public allowance */\n      dup2\n      calldataload\n      dup2\n      and\n      swap2\n      0x20\n      add\n      calldataload\n      and\n      tag_110\n      jump\t// in\n        /* \"contracts/uniswapv2/Core.sol\":19687:19901  function sync() external lock {... */\n    tag_29:\n      tag_36\n      tag_112\n      jump\t// in\n        /* \"contracts/uniswapv2/Core.sol\":16874:19174  function swap(... */\n    tag_41:\n        /* \"contracts/uniswapv2/Core.sol\":10345:10353  unlocked */\n      sload(0x0c)\n        /* \"contracts/uniswapv2/Core.sol\":10357:10358  1 */\n      0x01\n        /* \"contracts/uniswapv2/Core.sol\":10345:10358  unlocked == 1 */\n      eq\n        /* \"contracts/uniswapv2/Core.sol\":10337:10380  require(unlocked == 1, \"UniswapV2: LOCKED\") */\n      tag_114\n      jumpi\n      0x40\n      dup1\n      mload\n      shl(0xe5, 0x461bcd)\n      dup2\n      mstore\n      0x20\n      0x04\n      dup3\n      add\n      mstore\n      0x11\n      0x24\n      dup3\n      add\n      mstore\n      shl(0x7a, 0x155b9a5cddd85c158c8e881313d0d2d151)\n      0x44\n      dup3\n      add\n      mstore\n      swap1\n      mload\n      swap1\n      dup2\n      swap1\n      sub\n      0x64\n      add\n      swap1\n      revert\n    tag_114:\n        /* \"contracts/uniswapv2/Core.sol\":10401:10402  0 */\n      0x00\n        /* \"contracts/uniswapv2/Core.sol\":10390:10398  unlocked */\n      0x0c\n        /* \"contracts/uniswapv2/Core.sol\":10390:10402  unlocked = 0 */\n      sstore\n        /* \"contracts/uniswapv2/Core.sol\":17038:17052  amount0Out > 0 */\n      dup5\n      iszero\n      iszero\n      dup1\n        /* \"contracts/uniswapv2/Core.sol\":17038:17070  amount0Out > 0 || amount1Out > 0 */\n      tag_116\n      jumpi\n      pop\n        /* \"contracts/uniswapv2/Core.sol\":17069:17070  0 */\n      0x00\n        /* \"contracts/uniswapv2/Core.sol\":17056:17066  amount1Out */\n      dup5\n        /* \"contracts/uniswapv2/Core.sol\":17056:17070  amount1Out > 0 */\n      gt\n        /* \"contracts/uniswapv2/Core.sol\":17038:17070  amount0Out > 0 || amount1Out > 0 */\n    tag_116:\n        /* \"contracts/uniswapv2/Core.sol\":17017:17133  require(... */\n      tag_117\n      jumpi\n      mload(0x40)\n      shl(0xe5, 0x461bcd)\n      dup2\n      mstore\n      0x04\n      add\n      dup1\n      dup1\n      0x20\n      add\n      dup3\n      dup2\n      sub\n      dup3\n      mstore\n      0x25\n      dup2\n      mstore\n      0x20\n      add\n      dup1\n      data_05339493da7e2cbe77e17beadf6b91132eb307939495f5f1797bf88d95539e83\n      0x25\n      swap2\n      codecopy\n      0x40\n      add\n      swap2\n      pop\n      pop\n      mload(0x40)\n      dup1\n      swap2\n      sub\n      swap1\n      revert\n    tag_117:\n        /* \"contracts/uniswapv2/Core.sol\":17144:17161  uint112 _reserve0 */\n      0x00\n        /* \"contracts/uniswapv2/Core.sol\":17163:17180  uint112 _reserve1 */\n      dup1\n        /* \"contracts/uniswapv2/Core.sol\":17186:17199  getReserves() */\n      tag_118\n        /* \"contracts/uniswapv2/Core.sol\":17186:17197  getReserves */\n      tag_49\n        /* \"contracts/uniswapv2/Core.sol\":17186:17199  getReserves() */\n      jump\t// in\n    tag_118:\n      pop\n        /* \"contracts/uniswapv2/Core.sol\":17143:17199  (uint112 _reserve0, uint112 _reserve1, ) = getReserves() */\n      swap1\n      swap3\n      pop\n      swap1\n      pop\n      sub(shl(0x70, 0x01), 0x01)\n        /* \"contracts/uniswapv2/Core.sol\":17245:17267  amount0Out < _reserve0 */\n      dup3\n      and\n      dup8\n      lt\n        /* \"contracts/uniswapv2/Core.sol\":17245:17293  amount0Out < _reserve0 && amount1Out < _reserve1 */\n      dup1\n      iszero\n      tag_119\n      jumpi\n      pop\n      sub(shl(0x70, 0x01), 0x01)\n        /* \"contracts/uniswapv2/Core.sol\":17271:17293  amount1Out < _reserve1 */\n      dup2\n      and\n      dup7\n      lt\n        /* \"contracts/uniswapv2/Core.sol\":17245:17293  amount0Out < _reserve0 && amount1Out < _reserve1 */\n    tag_119:\n        /* \"contracts/uniswapv2/Core.sol\":17224:17352  require(... */\n      tag_120\n      jumpi\n      mload(0x40)\n      shl(0xe5, 0x461bcd)\n      dup2\n      mstore\n      0x04\n      add\n      dup1\n      dup1\n      0x20\n      add\n      dup3\n      dup2\n      sub\n      dup3\n      mstore\n      0x21\n      dup2\n      mstore\n      0x20\n      add\n      dup1\n      data_3f354ef449b2a9b081220ce21f57691008110b653edc191d8288e60cef58bb5f\n      0x21\n      swap2\n      codecopy\n      0x40\n      add\n      swap2\n      pop\n      pop\n      mload(0x40)\n      dup1\n      swap2\n      sub\n      swap1\n      revert\n    tag_120:\n        /* \"contracts/uniswapv2/Core.sol\":17508:17514  token0 */\n      sload(0x06)\n        /* \"contracts/uniswapv2/Core.sol\":17546:17552  token1 */\n      sload(0x07)\n        /* \"contracts/uniswapv2/Core.sol\":17363:17376  uint balance0 */\n      0x00\n      swap2\n      dup3\n      swap2\n      sub(shl(0xa0, 0x01), 0x01)\n        /* \"contracts/uniswapv2/Core.sol\":17508:17514  token0 */\n      swap2\n      dup3\n      and\n      swap2\n        /* \"contracts/uniswapv2/Core.sol\":17546:17552  token1 */\n      swap1\n      dup2\n      and\n      swap1\n        /* \"contracts/uniswapv2/Core.sol\":17574:17587  to != _token0 */\n      dup10\n      and\n      dup3\n      eq\n      dup1\n      iszero\n      swap1\n        /* \"contracts/uniswapv2/Core.sol\":17574:17604  to != _token0 && to != _token1 */\n      tag_121\n      jumpi\n      pop\n      sub(shl(0xa0, 0x01), 0x01)\n        /* \"contracts/uniswapv2/Core.sol\":17591:17604  to != _token1 */\n      dup10\n      dup2\n      and\n      swap1\n      dup3\n      and\n      eq\n      iszero\n        /* \"contracts/uniswapv2/Core.sol\":17574:17604  to != _token0 && to != _token1 */\n    tag_121:\n        /* \"contracts/uniswapv2/Core.sol\":17566:17630  require(to != _token0 && to != _token1, \"UniswapV2: INVALID_TO\") */\n      tag_122\n      jumpi\n      0x40\n      dup1\n      mload\n      shl(0xe5, 0x461bcd)\n      dup2\n      mstore\n      0x20\n      0x04\n      dup3\n      add\n      mstore\n      0x15\n      0x24\n      dup3\n      add\n      mstore\n      shl(0x58, 0x556e697377617056323a20494e56414c49445f544f)\n      0x44\n      dup3\n      add\n      mstore\n      swap1\n      mload\n      swap1\n      dup2\n      swap1\n      sub\n      0x64\n      add\n      swap1\n      revert\n    tag_122:\n        /* \"contracts/uniswapv2/Core.sol\":17648:17662  amount0Out > 0 */\n      dup11\n      iszero\n        /* \"contracts/uniswapv2/Core.sol\":17644:17702  if (amount0Out > 0) _safeTransfer(_token0, to, amount0Out) */\n      tag_124\n      jumpi\n        /* \"contracts/uniswapv2/Core.sol\":17664:17702  _safeTransfer(_token0, to, amount0Out) */\n      tag_124\n        /* \"contracts/uniswapv2/Core.sol\":17678:17685  _token0 */\n      dup3\n        /* \"contracts/uniswapv2/Core.sol\":17687:17689  to */\n      dup11\n        /* \"contracts/uniswapv2/Core.sol\":17691:17701  amount0Out */\n      dup14\n        /* \"contracts/uniswapv2/Core.sol\":17664:17677  _safeTransfer */\n      tag_125\n        /* \"contracts/uniswapv2/Core.sol\":17664:17702  _safeTransfer(_token0, to, amount0Out) */\n      jump\t// in\n    tag_124:\n        /* \"contracts/uniswapv2/Core.sol\":17754:17768  amount1Out > 0 */\n      dup10\n      iszero\n        /* \"contracts/uniswapv2/Core.sol\":17750:17808  if (amount1Out > 0) _safeTransfer(_token1, to, amount1Out) */\n      tag_127\n      jumpi\n        /* \"contracts/uniswapv2/Core.sol\":17770:17808  _safeTransfer(_token1, to, amount1Out) */\n      tag_127\n        /* \"contracts/uniswapv2/Core.sol\":17784:17791  _token1 */\n      dup2\n        /* \"contracts/uniswapv2/Core.sol\":17793:17795  to */\n      dup11\n        /* \"contracts/uniswapv2/Core.sol\":17797:17807  amount1Out */\n      dup13\n        /* \"contracts/uniswapv2/Core.sol\":17770:17783  _safeTransfer */\n      tag_125\n        /* \"contracts/uniswapv2/Core.sol\":17770:17808  _safeTransfer(_token1, to, amount1Out) */\n      jump\t// in\n    tag_127:\n        /* \"contracts/uniswapv2/Core.sol\":17860:17875  data.length > 0 */\n      dup7\n      iszero\n        /* \"contracts/uniswapv2/Core.sol\":17856:18067  if (data.length > 0)... */\n      tag_128\n      jumpi\n        /* \"contracts/uniswapv2/Core.sol\":17910:17912  to */\n      dup9\n      0x01\n      dup1\n      0xa0\n      shl\n      sub\n        /* \"contracts/uniswapv2/Core.sol\":17893:17927  IUniswapV2Callee(to).uniswapV2Call */\n      and\n      0x10d1e85c\n        /* \"contracts/uniswapv2/Core.sol\":17949:17959  msg.sender */\n      caller\n        /* \"contracts/uniswapv2/Core.sol\":17981:17991  amount0Out */\n      dup14\n        /* \"contracts/uniswapv2/Core.sol\":18013:18023  amount1Out */\n      dup14\n        /* \"contracts/uniswapv2/Core.sol\":18045:18049  data */\n      dup13\n      dup13\n        /* \"contracts/uniswapv2/Core.sol\":17893:18067  IUniswapV2Callee(to).uniswapV2Call(... */\n      mload(0x40)\n      dup7\n      0xffffffff\n      and\n      0xe0\n      shl\n      dup2\n      mstore\n      0x04\n      add\n      dup1\n      dup7\n      0x01\n      dup1\n      0xa0\n      shl\n      sub\n      and\n      0x01\n      dup1\n      0xa0\n      shl\n      sub\n      and\n      dup2\n      mstore\n      0x20\n      add\n      dup6\n      dup2\n      mstore\n      0x20\n      add\n      dup5\n      dup2\n      mstore\n      0x20\n      add\n      dup1\n      0x20\n      add\n      dup3\n      dup2\n      sub\n      dup3\n      mstore\n      dup5\n      dup5\n      dup3\n      dup2\n      dup2\n      mstore\n      0x20\n      add\n      swap3\n      pop\n        /* \"--CODEGEN--\":30:33   */\n      dup1\n        /* \"--CODEGEN--\":22:28   */\n      dup3\n        /* \"--CODEGEN--\":14:20   */\n      dup5\n        /* \"--CODEGEN--\":1:34   */\n      calldatacopy\n        /* \"--CODEGEN--\":99:100   */\n      0x00\n        /* \"--CODEGEN--\":93:96   */\n      dup2\n        /* \"--CODEGEN--\":85:91   */\n      dup5\n        /* \"--CODEGEN--\":81:97   */\n      add\n        /* \"--CODEGEN--\":74:101   */\n      mstore\n        /* \"--CODEGEN--\":137:141   */\n      0x1f\n        /* \"--CODEGEN--\":133:142   */\n      not\n        /* \"--CODEGEN--\":126:130   */\n      0x1f\n        /* \"--CODEGEN--\":121:124   */\n      dup3\n        /* \"--CODEGEN--\":117:131   */\n      add\n        /* \"--CODEGEN--\":113:143   */\n      and\n        /* \"--CODEGEN--\":106:143   */\n      swap1\n      pop\n        /* \"--CODEGEN--\":169:172   */\n      dup1\n        /* \"--CODEGEN--\":161:167   */\n      dup4\n        /* \"--CODEGEN--\":157:173   */\n      add\n        /* \"--CODEGEN--\":147:173   */\n      swap3\n      pop\n        /* \"contracts/uniswapv2/Core.sol\":17893:18067  IUniswapV2Callee(to).uniswapV2Call(... */\n      pop\n      pop\n      swap7\n      pop\n      pop\n      pop\n      pop\n      pop\n      pop\n      pop\n      0x00\n      mload(0x40)\n      dup1\n      dup4\n      sub\n      dup2\n      0x00\n      dup8\n      dup1\n      extcodesize\n      iszero\n        /* \"--CODEGEN--\":8:17   */\n      dup1\n        /* \"--CODEGEN--\":5:7   */\n      iszero\n      tag_129\n      jumpi\n        /* \"--CODEGEN--\":30:31   */\n      0x00\n        /* \"--CODEGEN--\":27:28   */\n      dup1\n        /* \"--CODEGEN--\":20:32   */\n      revert\n        /* \"--CODEGEN--\":5:7   */\n    tag_129:\n        /* \"contracts/uniswapv2/Core.sol\":17893:18067  IUniswapV2Callee(to).uniswapV2Call(... */\n      pop\n      gas\n      call\n      iszero\n        /* \"--CODEGEN--\":8:17   */\n      dup1\n        /* \"--CODEGEN--\":5:7   */\n      iszero\n      tag_130\n      jumpi\n        /* \"--CODEGEN--\":45:61   */\n      returndatasize\n        /* \"--CODEGEN--\":42:43   */\n      0x00\n        /* \"--CODEGEN--\":39:40   */\n      dup1\n        /* \"--CODEGEN--\":24:62   */\n      returndatacopy\n        /* \"--CODEGEN--\":77:93   */\n      returndatasize\n        /* \"--CODEGEN--\":74:75   */\n      0x00\n        /* \"--CODEGEN--\":67:94   */\n      revert\n        /* \"--CODEGEN--\":5:7   */\n    tag_130:\n        /* \"contracts/uniswapv2/Core.sol\":17893:18067  IUniswapV2Callee(to).uniswapV2Call(... */\n      pop\n      pop\n      pop\n      pop\n        /* \"contracts/uniswapv2/Core.sol\":17856:18067  if (data.length > 0)... */\n    tag_128:\n        /* \"contracts/uniswapv2/Core.sol\":18092:18132  IERC20(_token0).balanceOf(address(this)) */\n      0x40\n      dup1\n      mload\n      shl(0xe0, 0x70a08231)\n      dup2\n      mstore\n        /* \"contracts/uniswapv2/Core.sol\":18126:18130  this */\n      address\n        /* \"contracts/uniswapv2/Core.sol\":18092:18132  IERC20(_token0).balanceOf(address(this)) */\n      0x04\n      dup3\n      add\n      mstore\n      swap1\n      mload\n      sub(shl(0xa0, 0x01), 0x01)\n        /* \"contracts/uniswapv2/Core.sol\":18092:18117  IERC20(_token0).balanceOf */\n      dup5\n      and\n      swap2\n      0x70a08231\n      swap2\n        /* \"contracts/uniswapv2/Core.sol\":18092:18132  IERC20(_token0).balanceOf(address(this)) */\n      0x24\n      dup1\n      dup4\n      add\n      swap3\n      0x20\n      swap3\n      swap2\n      swap1\n      dup3\n      swap1\n      sub\n      add\n      dup2\n        /* \"contracts/uniswapv2/Core.sol\":18092:18117  IERC20(_token0).balanceOf */\n      dup7\n        /* \"contracts/uniswapv2/Core.sol\":18092:18132  IERC20(_token0).balanceOf(address(this)) */\n      dup1\n      extcodesize\n      iszero\n        /* \"--CODEGEN--\":5:7   */\n      dup1\n      iszero\n      tag_131\n      jumpi\n        /* \"--CODEGEN--\":30:31   */\n      0x00\n        /* \"--CODEGEN--\":27:28   */\n      dup1\n        /* \"--CODEGEN--\":20:32   */\n      revert\n        /* \"--CODEGEN--\":5:7   */\n    tag_131:\n        /* \"contracts/uniswapv2/Core.sol\":18092:18132  IERC20(_token0).balanceOf(address(this)) */\n      pop\n      gas\n      staticcall\n      iszero\n        /* \"--CODEGEN--\":8:17   */\n      dup1\n        /* \"--CODEGEN--\":5:7   */\n      iszero\n      tag_132\n      jumpi\n        /* \"--CODEGEN--\":45:61   */\n      returndatasize\n        /* \"--CODEGEN--\":42:43   */\n      0x00\n        /* \"--CODEGEN--\":39:40   */\n      dup1\n        /* \"--CODEGEN--\":24:62   */\n      returndatacopy\n        /* \"--CODEGEN--\":77:93   */\n      returndatasize\n        /* \"--CODEGEN--\":74:75   */\n      0x00\n        /* \"--CODEGEN--\":67:94   */\n      revert\n        /* \"--CODEGEN--\":5:7   */\n    tag_132:\n        /* \"contracts/uniswapv2/Core.sol\":18092:18132  IERC20(_token0).balanceOf(address(this)) */\n      pop\n      pop\n      pop\n      pop\n      mload(0x40)\n      returndatasize\n        /* \"--CODEGEN--\":13:15   */\n      0x20\n        /* \"--CODEGEN--\":8:11   */\n      dup2\n        /* \"--CODEGEN--\":5:16   */\n      lt\n        /* \"--CODEGEN--\":2:4   */\n      iszero\n      tag_133\n      jumpi\n        /* \"--CODEGEN--\":29:30   */\n      0x00\n        /* \"--CODEGEN--\":26:27   */\n      dup1\n        /* \"--CODEGEN--\":19:31   */\n      revert\n        /* \"--CODEGEN--\":2:4   */\n    tag_133:\n      pop\n        /* \"contracts/uniswapv2/Core.sol\":18092:18132  IERC20(_token0).balanceOf(address(this)) */\n      mload\n        /* \"contracts/uniswapv2/Core.sol\":18157:18197  IERC20(_token1).balanceOf(address(this)) */\n      0x40\n      dup1\n      mload\n      shl(0xe0, 0x70a08231)\n      dup2\n      mstore\n        /* \"contracts/uniswapv2/Core.sol\":18191:18195  this */\n      address\n        /* \"contracts/uniswapv2/Core.sol\":18157:18197  IERC20(_token1).balanceOf(address(this)) */\n      0x04\n      dup3\n      add\n      mstore\n      swap1\n      mload\n        /* \"contracts/uniswapv2/Core.sol\":18092:18132  IERC20(_token0).balanceOf(address(this)) */\n      swap2\n      swap6\n      pop\n      sub(shl(0xa0, 0x01), 0x01)\n        /* \"contracts/uniswapv2/Core.sol\":18157:18182  IERC20(_token1).balanceOf */\n      dup4\n      and\n      swap2\n      0x70a08231\n      swap2\n        /* \"contracts/uniswapv2/Core.sol\":18157:18197  IERC20(_token1).balanceOf(address(this)) */\n      0x24\n      dup1\n      dup3\n      add\n      swap3\n        /* \"contracts/uniswapv2/Core.sol\":18092:18132  IERC20(_token0).balanceOf(address(this)) */\n      0x20\n      swap3\n        /* \"contracts/uniswapv2/Core.sol\":18157:18197  IERC20(_token1).balanceOf(address(this)) */\n      swap1\n      swap2\n      swap1\n      dup3\n      swap1\n      sub\n      add\n      dup2\n        /* \"contracts/uniswapv2/Core.sol\":18157:18182  IERC20(_token1).balanceOf */\n      dup7\n        /* \"contracts/uniswapv2/Core.sol\":18157:18197  IERC20(_token1).balanceOf(address(this)) */\n      dup1\n      extcodesize\n      iszero\n        /* \"--CODEGEN--\":5:7   */\n      dup1\n      iszero\n      tag_134\n      jumpi\n        /* \"--CODEGEN--\":30:31   */\n      0x00\n        /* \"--CODEGEN--\":27:28   */\n      dup1\n        /* \"--CODEGEN--\":20:32   */\n      revert\n        /* \"--CODEGEN--\":5:7   */\n    tag_134:\n        /* \"contracts/uniswapv2/Core.sol\":18157:18197  IERC20(_token1).balanceOf(address(this)) */\n      pop\n      gas\n      staticcall\n      iszero\n        /* \"--CODEGEN--\":8:17   */\n      dup1\n        /* \"--CODEGEN--\":5:7   */\n      iszero\n      tag_135\n      jumpi\n        /* \"--CODEGEN--\":45:61   */\n      returndatasize\n        /* \"--CODEGEN--\":42:43   */\n      0x00\n        /* \"--CODEGEN--\":39:40   */\n      dup1\n        /* \"--CODEGEN--\":24:62   */\n      returndatacopy\n        /* \"--CODEGEN--\":77:93   */\n      returndatasize\n        /* \"--CODEGEN--\":74:75   */\n      0x00\n        /* \"--CODEGEN--\":67:94   */\n      revert\n        /* \"--CODEGEN--\":5:7   */\n    tag_135:\n        /* \"contracts/uniswapv2/Core.sol\":18157:18197  IERC20(_token1).balanceOf(address(this)) */\n      pop\n      pop\n      pop\n      pop\n      mload(0x40)\n      returndatasize\n        /* \"--CODEGEN--\":13:15   */\n      0x20\n        /* \"--CODEGEN--\":8:11   */\n      dup2\n        /* \"--CODEGEN--\":5:16   */\n      lt\n        /* \"--CODEGEN--\":2:4   */\n      iszero\n      tag_136\n      jumpi\n        /* \"--CODEGEN--\":29:30   */\n      0x00\n        /* \"--CODEGEN--\":26:27   */\n      dup1\n        /* \"--CODEGEN--\":19:31   */\n      revert\n        /* \"--CODEGEN--\":2:4   */\n    tag_136:\n      pop\n        /* \"contracts/uniswapv2/Core.sol\":18157:18197  IERC20(_token1).balanceOf(address(this)) */\n      mload\n      swap3\n      pop\n        /* \"contracts/uniswapv2/Core.sol\":18217:18231  uint amount0In */\n      0x00\n      swap2\n      pop\n      pop\n      sub(shl(0x70, 0x01), 0x01)\n        /* \"contracts/uniswapv2/Core.sol\":18245:18267  _reserve0 - amount0Out */\n      dup6\n      and\n      dup11\n      swap1\n      sub\n        /* \"contracts/uniswapv2/Core.sol\":18234:18267  balance0 > _reserve0 - amount0Out */\n      dup4\n      gt\n        /* \"contracts/uniswapv2/Core.sol\":18234:18333  balance0 > _reserve0 - amount0Out... */\n      tag_137\n      jumpi\n        /* \"contracts/uniswapv2/Core.sol\":18332:18333  0 */\n      0x00\n        /* \"contracts/uniswapv2/Core.sol\":18234:18333  balance0 > _reserve0 - amount0Out... */\n      jump(tag_138)\n    tag_137:\n      sub(shl(0x70, 0x01), 0x01)\n        /* \"contracts/uniswapv2/Core.sol\":18294:18316  _reserve0 - amount0Out */\n      dup6\n      and\n      dup11\n      swap1\n      sub\n        /* \"contracts/uniswapv2/Core.sol\":18282:18317  balance0 - (_reserve0 - amount0Out) */\n      dup4\n      sub\n        /* \"contracts/uniswapv2/Core.sol\":18234:18333  balance0 > _reserve0 - amount0Out... */\n    tag_138:\n        /* \"contracts/uniswapv2/Core.sol\":18217:18333  uint amount0In = balance0 > _reserve0 - amount0Out... */\n      swap1\n      pop\n        /* \"contracts/uniswapv2/Core.sol\":18343:18357  uint amount1In */\n      0x00\n      sub(shl(0x70, 0x01), 0x01)\n        /* \"contracts/uniswapv2/Core.sol\":18371:18393  _reserve1 - amount1Out */\n      dup6\n      and\n      dup11\n      swap1\n      sub\n        /* \"contracts/uniswapv2/Core.sol\":18360:18393  balance1 > _reserve1 - amount1Out */\n      dup4\n      gt\n        /* \"contracts/uniswapv2/Core.sol\":18360:18459  balance1 > _reserve1 - amount1Out... */\n      tag_139\n      jumpi\n        /* \"contracts/uniswapv2/Core.sol\":18458:18459  0 */\n      0x00\n        /* \"contracts/uniswapv2/Core.sol\":18360:18459  balance1 > _reserve1 - amount1Out... */\n      jump(tag_140)\n    tag_139:\n      sub(shl(0x70, 0x01), 0x01)\n        /* \"contracts/uniswapv2/Core.sol\":18420:18442  _reserve1 - amount1Out */\n      dup6\n      and\n      dup11\n      swap1\n      sub\n        /* \"contracts/uniswapv2/Core.sol\":18408:18443  balance1 - (_reserve1 - amount1Out) */\n      dup4\n      sub\n        /* \"contracts/uniswapv2/Core.sol\":18360:18459  balance1 > _reserve1 - amount1Out... */\n    tag_140:\n        /* \"contracts/uniswapv2/Core.sol\":18343:18459  uint amount1In = balance1 > _reserve1 - amount1Out... */\n      swap1\n      pop\n        /* \"contracts/uniswapv2/Core.sol\":18502:18503  0 */\n      0x00\n        /* \"contracts/uniswapv2/Core.sol\":18490:18499  amount0In */\n      dup3\n        /* \"contracts/uniswapv2/Core.sol\":18490:18503  amount0In > 0 */\n      gt\n        /* \"contracts/uniswapv2/Core.sol\":18490:18520  amount0In > 0 || amount1In > 0 */\n      dup1\n      tag_141\n      jumpi\n      pop\n        /* \"contracts/uniswapv2/Core.sol\":18519:18520  0 */\n      0x00\n        /* \"contracts/uniswapv2/Core.sol\":18507:18516  amount1In */\n      dup2\n        /* \"contracts/uniswapv2/Core.sol\":18507:18520  amount1In > 0 */\n      gt\n        /* \"contracts/uniswapv2/Core.sol\":18490:18520  amount0In > 0 || amount1In > 0 */\n    tag_141:\n        /* \"contracts/uniswapv2/Core.sol\":18469:18582  require(... */\n      tag_142\n      jumpi\n      mload(0x40)\n      shl(0xe5, 0x461bcd)\n      dup2\n      mstore\n      0x04\n      add\n      dup1\n      dup1\n      0x20\n      add\n      dup3\n      dup2\n      sub\n      dup3\n      mstore\n      0x24\n      dup2\n      mstore\n      0x20\n      add\n      dup1\n      data_10e2efc32d8a31d3b2c11a545b3ed09c2dbabc58ef6de4033929d0002e425b67\n      0x24\n      swap2\n      codecopy\n      0x40\n      add\n      swap2\n      pop\n      pop\n      mload(0x40)\n      dup1\n      swap2\n      sub\n      swap1\n      revert\n    tag_142:\n        /* \"contracts/uniswapv2/Core.sol\":18682:18703  uint balance0Adjusted */\n      0x00\n        /* \"contracts/uniswapv2/Core.sol\":18706:18746  balance0.mul(1000).sub(amount0In.mul(3)) */\n      tag_143\n        /* \"contracts/uniswapv2/Core.sol\":18729:18745  amount0In.mul(3) */\n      tag_144\n        /* \"contracts/uniswapv2/Core.sol\":18729:18738  amount0In */\n      dup5\n        /* \"contracts/uniswapv2/Core.sol\":18743:18744  3 */\n      0x03\n        /* \"contracts/uniswapv2/Core.sol\":18729:18745  amount0In.mul(3) */\n      0xffffffff\n        /* \"contracts/uniswapv2/Core.sol\":18729:18742  amount0In.mul */\n      tag_145\n        /* \"contracts/uniswapv2/Core.sol\":18729:18745  amount0In.mul(3) */\n      and\n      jump\t// in\n    tag_144:\n        /* \"contracts/uniswapv2/Core.sol\":18706:18724  balance0.mul(1000) */\n      tag_146\n        /* \"contracts/uniswapv2/Core.sol\":18706:18714  balance0 */\n      dup8\n        /* \"contracts/uniswapv2/Core.sol\":18719:18723  1000 */\n      0x03e8\n        /* \"contracts/uniswapv2/Core.sol\":18706:18724  balance0.mul(1000) */\n      0xffffffff\n        /* \"contracts/uniswapv2/Core.sol\":18706:18718  balance0.mul */\n      tag_145\n        /* \"contracts/uniswapv2/Core.sol\":18706:18724  balance0.mul(1000) */\n      and\n      jump\t// in\n    tag_146:\n        /* \"contracts/uniswapv2/Core.sol\":18706:18728  balance0.mul(1000).sub */\n      swap1\n        /* \"contracts/uniswapv2/Core.sol\":18706:18746  balance0.mul(1000).sub(amount0In.mul(3)) */\n      0xffffffff\n        /* \"contracts/uniswapv2/Core.sol\":18706:18728  balance0.mul(1000).sub */\n      tag_147\n        /* \"contracts/uniswapv2/Core.sol\":18706:18746  balance0.mul(1000).sub(amount0In.mul(3)) */\n      and\n      jump\t// in\n    tag_143:\n        /* \"contracts/uniswapv2/Core.sol\":18682:18746  uint balance0Adjusted = balance0.mul(1000).sub(amount0In.mul(3)) */\n      swap1\n      pop\n        /* \"contracts/uniswapv2/Core.sol\":18760:18781  uint balance1Adjusted */\n      0x00\n        /* \"contracts/uniswapv2/Core.sol\":18784:18824  balance1.mul(1000).sub(amount1In.mul(3)) */\n      tag_148\n        /* \"contracts/uniswapv2/Core.sol\":18807:18823  amount1In.mul(3) */\n      tag_144\n        /* \"contracts/uniswapv2/Core.sol\":18807:18816  amount1In */\n      dup5\n        /* \"contracts/uniswapv2/Core.sol\":18821:18822  3 */\n      0x03\n        /* \"contracts/uniswapv2/Core.sol\":18807:18823  amount1In.mul(3) */\n      0xffffffff\n        /* \"contracts/uniswapv2/Core.sol\":18807:18820  amount1In.mul */\n      tag_145\n        /* \"contracts/uniswapv2/Core.sol\":18807:18823  amount1In.mul(3) */\n      and\n      jump\t// in\n        /* \"contracts/uniswapv2/Core.sol\":18784:18824  balance1.mul(1000).sub(amount1In.mul(3)) */\n    tag_148:\n        /* \"contracts/uniswapv2/Core.sol\":18760:18824  uint balance1Adjusted = balance1.mul(1000).sub(amount1In.mul(3)) */\n      swap1\n      pop\n        /* \"contracts/uniswapv2/Core.sol\":18925:18970  uint(_reserve0).mul(_reserve1).mul(1000 ** 2) */\n      tag_151\n        /* \"contracts/uniswapv2/Core.sol\":18960:18969  1000 ** 2 */\n      0x0f4240\n        /* \"contracts/uniswapv2/Core.sol\":18925:18955  uint(_reserve0).mul(_reserve1) */\n      tag_152\n      sub(shl(0x70, 0x01), 0x01)\n        /* \"contracts/uniswapv2/Core.sol\":18925:18940  uint(_reserve0) */\n      dup12\n      dup2\n      and\n      swap1\n        /* \"contracts/uniswapv2/Core.sol\":18925:18955  uint(_reserve0).mul(_reserve1) */\n      dup12\n      and\n        /* \"contracts/uniswapv2/Core.sol\":18925:18944  uint(_reserve0).mul */\n      tag_145\n        /* \"contracts/uniswapv2/Core.sol\":18925:18955  uint(_reserve0).mul(_reserve1) */\n      jump\t// in\n    tag_152:\n        /* \"contracts/uniswapv2/Core.sol\":18925:18959  uint(_reserve0).mul(_reserve1).mul */\n      swap1\n        /* \"contracts/uniswapv2/Core.sol\":18925:18970  uint(_reserve0).mul(_reserve1).mul(1000 ** 2) */\n      0xffffffff\n        /* \"contracts/uniswapv2/Core.sol\":18925:18959  uint(_reserve0).mul(_reserve1).mul */\n      tag_145\n        /* \"contracts/uniswapv2/Core.sol\":18925:18970  uint(_reserve0).mul(_reserve1).mul(1000 ** 2) */\n      and\n      jump\t// in\n    tag_151:\n        /* \"contracts/uniswapv2/Core.sol\":18863:18901  balance0Adjusted.mul(balance1Adjusted) */\n      tag_153\n        /* \"contracts/uniswapv2/Core.sol\":18863:18879  balance0Adjusted */\n      dup4\n        /* \"contracts/uniswapv2/Core.sol\":18884:18900  balance1Adjusted */\n      dup4\n        /* \"contracts/uniswapv2/Core.sol\":18863:18901  balance0Adjusted.mul(balance1Adjusted) */\n      0xffffffff\n        /* \"contracts/uniswapv2/Core.sol\":18863:18883  balance0Adjusted.mul */\n      tag_145\n        /* \"contracts/uniswapv2/Core.sol\":18863:18901  balance0Adjusted.mul(balance1Adjusted) */\n      and\n      jump\t// in\n    tag_153:\n        /* \"contracts/uniswapv2/Core.sol\":18863:18970  balance0Adjusted.mul(balance1Adjusted) >=... */\n      lt\n      iszero\n        /* \"contracts/uniswapv2/Core.sol\":18838:19016  require(... */\n      tag_154\n      jumpi\n      0x40\n      dup1\n      mload\n      shl(0xe5, 0x461bcd)\n      dup2\n      mstore\n      0x20\n      0x04\n      dup3\n      add\n      mstore\n      0x0c\n      0x24\n      dup3\n      add\n      mstore\n      shl(0xa0, 0x556e697377617056323a204b)\n      0x44\n      dup3\n      add\n      mstore\n      swap1\n      mload\n      swap1\n      dup2\n      swap1\n      sub\n      0x64\n      add\n      swap1\n      revert\n    tag_154:\n        /* \"contracts/uniswapv2/Core.sol\":10412:10413  _ */\n      pop\n      pop\n        /* \"contracts/uniswapv2/Core.sol\":19037:19086  _update(balance0, balance1, _reserve0, _reserve1) */\n      tag_155\n        /* \"contracts/uniswapv2/Core.sol\":19045:19053  balance0 */\n      dup5\n        /* \"contracts/uniswapv2/Core.sol\":19055:19063  balance1 */\n      dup5\n        /* \"contracts/uniswapv2/Core.sol\":19065:19074  _reserve0 */\n      dup9\n        /* \"contracts/uniswapv2/Core.sol\":19076:19085  _reserve1 */\n      dup9\n        /* \"contracts/uniswapv2/Core.sol\":19037:19044  _update */\n      tag_156\n        /* \"contracts/uniswapv2/Core.sol\":19037:19086  _update(balance0, balance1, _reserve0, _reserve1) */\n      jump\t// in\n    tag_155:\n        /* \"contracts/uniswapv2/Core.sol\":19101:19167  Swap(msg.sender, amount0In, amount1In, amount0Out, amount1Out, to) */\n      0x40\n      dup1\n      mload\n      dup4\n      dup2\n      mstore\n      0x20\n      dup2\n      add\n      dup4\n      swap1\n      mstore\n      dup1\n      dup3\n      add\n      dup14\n      swap1\n      mstore\n      0x60\n      dup2\n      add\n      dup13\n      swap1\n      mstore\n      swap1\n      mload\n      sub(shl(0xa0, 0x01), 0x01)\n      dup12\n      and\n      swap2\n        /* \"contracts/uniswapv2/Core.sol\":19106:19116  msg.sender */\n      caller\n      swap2\n        /* \"contracts/uniswapv2/Core.sol\":19101:19167  Swap(msg.sender, amount0In, amount1In, amount0Out, amount1Out, to) */\n      0xd78ad95fa46c994b6551d0da85fc275fe613ce37657fb8d5e3d130840159d822\n      swap2\n      dup2\n      swap1\n      sub\n      0x80\n      add\n      swap1\n      log3\n      pop\n      pop\n        /* \"contracts/uniswapv2/Core.sol\":10434:10435  1 */\n      0x01\n        /* \"contracts/uniswapv2/Core.sol\":10423:10431  unlocked */\n      0x0c\n        /* \"contracts/uniswapv2/Core.sol\":10423:10435  unlocked = 1 */\n      sstore\n      pop\n      pop\n      pop\n      pop\n      pop\n      pop\n      pop\n      pop\n      pop\n        /* \"contracts/uniswapv2/Core.sol\":16874:19174  function swap(... */\n      jump\t// out\n        /* \"contracts/uniswapv2/Core.sol\":5809:5851  string public constant name = \"Uniswap V2\" */\n    tag_43:\n      0x40\n      dup1\n      mload\n      dup1\n      dup3\n      add\n      swap1\n      swap2\n      mstore\n      0x0a\n      dup2\n      mstore\n      shl(0xb1, 0x2ab734b9bbb0b8102b19)\n      0x20\n      dup3\n      add\n      mstore\n      dup2\n      jump\t// out\n        /* \"contracts/uniswapv2/Core.sol\":10448:10749  function getReserves()... */\n    tag_49:\n        /* \"contracts/uniswapv2/Core.sol\":10654:10662  reserve0 */\n      sload(0x08)\n      sub(shl(0x70, 0x01), 0x01)\n      dup1\n      dup3\n      and\n      swap3\n      shl(0x70, 0x01)\n        /* \"contracts/uniswapv2/Core.sol\":10684:10692  reserve1 */\n      dup4\n      div\n      swap1\n      swap2\n      and\n      swap2\n      shl(0xe0, 0x01)\n        /* \"contracts/uniswapv2/Core.sol\":10724:10742  blockTimestampLast */\n      swap1\n      div\n      0xffffffff\n      and\n      swap1\n        /* \"contracts/uniswapv2/Core.sol\":10448:10749  function getReserves()... */\n      jump\t// out\n        /* \"contracts/uniswapv2/Core.sol\":7847:7991  function approve(address spender, uint value) external returns (bool) {... */\n    tag_52:\n        /* \"contracts/uniswapv2/Core.sol\":7911:7915  bool */\n      0x00\n        /* \"contracts/uniswapv2/Core.sol\":7927:7963  _approve(msg.sender, spender, value) */\n      tag_159\n        /* \"contracts/uniswapv2/Core.sol\":7936:7946  msg.sender */\n      caller\n        /* \"contracts/uniswapv2/Core.sol\":7948:7955  spender */\n      dup5\n        /* \"contracts/uniswapv2/Core.sol\":7957:7962  value */\n      dup5\n        /* \"contracts/uniswapv2/Core.sol\":7927:7935  _approve */\n      tag_160\n        /* \"contracts/uniswapv2/Core.sol\":7927:7963  _approve(msg.sender, spender, value) */\n      jump\t// in\n    tag_159:\n      pop\n        /* \"contracts/uniswapv2/Core.sol\":7980:7984  true */\n      0x01\n        /* \"contracts/uniswapv2/Core.sol\":7847:7991  function approve(address spender, uint value) external returns (bool) {... */\n    tag_158:\n      swap3\n      swap2\n      pop\n      pop\n      jump\t// out\n        /* \"contracts/uniswapv2/Core.sol\":9777:9798  address public token0 */\n    tag_54:\n      and(sub(shl(0xa0, 0x01), 0x01), sload(0x06))\n      dup2\n      jump\t// out\n        /* \"contracts/uniswapv2/Core.sol\":5944:5967  uint public totalSupply */\n    tag_56:\n      sload(0x00)\n      dup2\n      jump\t// out\n        /* \"contracts/uniswapv2/Core.sol\":8139:8494  function transferFrom(... */\n    tag_59:\n      sub(shl(0xa0, 0x01), 0x01)\n        /* \"contracts/uniswapv2/Core.sol\":8267:8282  allowance[from] */\n      dup4\n      and\n        /* \"contracts/uniswapv2/Core.sol\":8247:8251  bool */\n      0x00\n        /* \"contracts/uniswapv2/Core.sol\":8267:8282  allowance[from] */\n      swap1\n      dup2\n      mstore\n        /* \"contracts/uniswapv2/Core.sol\":8267:8276  allowance */\n      0x02\n        /* \"contracts/uniswapv2/Core.sol\":8267:8282  allowance[from] */\n      0x20\n      swap1\n      dup2\n      mstore\n      0x40\n      dup1\n      dup4\n      keccak256\n        /* \"contracts/uniswapv2/Core.sol\":8283:8293  msg.sender */\n      caller\n        /* \"contracts/uniswapv2/Core.sol\":8267:8294  allowance[from][msg.sender] */\n      dup5\n      mstore\n      swap1\n      swap2\n      mstore\n      dup2\n      keccak256\n      sload\n      not(0x00)\n        /* \"contracts/uniswapv2/Core.sol\":8267:8306  allowance[from][msg.sender] != uint(-1) */\n      eq\n        /* \"contracts/uniswapv2/Core.sol\":8263:8431  if (allowance[from][msg.sender] != uint(-1)) {... */\n      tag_162\n      jumpi\n      sub(shl(0xa0, 0x01), 0x01)\n        /* \"contracts/uniswapv2/Core.sol\":8352:8367  allowance[from] */\n      dup5\n      and\n      0x00\n      swap1\n      dup2\n      mstore\n        /* \"contracts/uniswapv2/Core.sol\":8352:8361  allowance */\n      0x02\n        /* \"contracts/uniswapv2/Core.sol\":8352:8367  allowance[from] */\n      0x20\n      swap1\n      dup2\n      mstore\n      0x40\n      dup1\n      dup4\n      keccak256\n        /* \"contracts/uniswapv2/Core.sol\":8368:8378  msg.sender */\n      caller\n        /* \"contracts/uniswapv2/Core.sol\":8352:8379  allowance[from][msg.sender] */\n      dup5\n      mstore\n      swap1\n      swap2\n      mstore\n      swap1\n      keccak256\n      sload\n        /* \"contracts/uniswapv2/Core.sol\":8352:8420  allowance[from][msg.sender].sub(... */\n      tag_163\n      swap1\n        /* \"contracts/uniswapv2/Core.sol\":8401:8406  value */\n      dup4\n        /* \"contracts/uniswapv2/Core.sol\":8352:8383  allowance[from][msg.sender].sub */\n      tag_147\n        /* \"contracts/uniswapv2/Core.sol\":8352:8420  allowance[from][msg.sender].sub(... */\n      jump\t// in\n    tag_163:\n      sub(shl(0xa0, 0x01), 0x01)\n        /* \"contracts/uniswapv2/Core.sol\":8322:8337  allowance[from] */\n      dup6\n      and\n      0x00\n      swap1\n      dup2\n      mstore\n        /* \"contracts/uniswapv2/Core.sol\":8322:8331  allowance */\n      0x02\n        /* \"contracts/uniswapv2/Core.sol\":8322:8337  allowance[from] */\n      0x20\n      swap1\n      dup2\n      mstore\n      0x40\n      dup1\n      dup4\n      keccak256\n        /* \"contracts/uniswapv2/Core.sol\":8338:8348  msg.sender */\n      caller\n        /* \"contracts/uniswapv2/Core.sol\":8322:8349  allowance[from][msg.sender] */\n      dup5\n      mstore\n      swap1\n      swap2\n      mstore\n      swap1\n      keccak256\n        /* \"contracts/uniswapv2/Core.sol\":8322:8420  allowance[from][msg.sender] = allowance[from][msg.sender].sub(... */\n      sstore\n        /* \"contracts/uniswapv2/Core.sol\":8263:8431  if (allowance[from][msg.sender] != uint(-1)) {... */\n    tag_162:\n        /* \"contracts/uniswapv2/Core.sol\":8440:8466  _transfer(from, to, value) */\n      tag_164\n        /* \"contracts/uniswapv2/Core.sol\":8450:8454  from */\n      dup5\n        /* \"contracts/uniswapv2/Core.sol\":8456:8458  to */\n      dup5\n        /* \"contracts/uniswapv2/Core.sol\":8460:8465  value */\n      dup5\n        /* \"contracts/uniswapv2/Core.sol\":8440:8449  _transfer */\n      tag_165\n        /* \"contracts/uniswapv2/Core.sol\":8440:8466  _transfer(from, to, value) */\n      jump\t// in\n    tag_164:\n      pop\n        /* \"contracts/uniswapv2/Core.sol\":8483:8487  true */\n      0x01\n        /* \"contracts/uniswapv2/Core.sol\":8139:8494  function transferFrom(... */\n      swap4\n      swap3\n      pop\n      pop\n      pop\n      jump\t// out\n        /* \"contracts/uniswapv2/Core.sol\":6229:6345  bytes32 public constant PERMIT_TYPEHASH =... */\n    tag_61:\n        /* \"contracts/uniswapv2/Core.sol\":6279:6345  0x6e71edae12b1b97f4d1f60370fef10105fa2faae0126114a169c64845d6126c9 */\n      0x6e71edae12b1b97f4d1f60370fef10105fa2faae0126114a169c64845d6126c9\n        /* \"contracts/uniswapv2/Core.sol\":6229:6345  bytes32 public constant PERMIT_TYPEHASH =... */\n      dup2\n      jump\t// out\n        /* \"contracts/uniswapv2/Core.sol\":5903:5938  uint8 public constant decimals = 18 */\n    tag_63:\n        /* \"contracts/uniswapv2/Core.sol\":5936:5938  18 */\n      0x12\n        /* \"contracts/uniswapv2/Core.sol\":5903:5938  uint8 public constant decimals = 18 */\n      dup2\n      jump\t// out\n        /* \"contracts/uniswapv2/Core.sol\":6088:6119  bytes32 public DOMAIN_SEPARATOR */\n    tag_65:\n      sload(0x03)\n      dup2\n      jump\t// out\n        /* \"contracts/uniswapv2/Core.sol\":11648:11854  function initialize(address _token0, address _token1) external {... */\n    tag_68:\n        /* \"contracts/uniswapv2/Core.sol\":11743:11750  factory */\n      and(sub(shl(0xa0, 0x01), 0x01), sload(0x05))\n        /* \"contracts/uniswapv2/Core.sol\":11729:11739  msg.sender */\n      caller\n        /* \"contracts/uniswapv2/Core.sol\":11729:11750  msg.sender == factory */\n      eq\n        /* \"contracts/uniswapv2/Core.sol\":11721:11775  require(msg.sender == factory, \"UniswapV2: FORBIDDEN\") */\n      tag_167\n      jumpi\n      0x40\n      dup1\n      mload\n      shl(0xe5, 0x461bcd)\n      dup2\n      mstore\n      0x20\n      0x04\n      dup3\n      add\n      mstore\n      0x14\n      0x24\n      dup3\n      add\n      mstore\n      shl(0x61, 0x2ab734b9bbb0b82b191d102327a92124a22222a7)\n      0x44\n      dup3\n      add\n      mstore\n      swap1\n      mload\n      swap1\n      dup2\n      swap1\n      sub\n      0x64\n      add\n      swap1\n      revert\n    tag_167:\n        /* \"contracts/uniswapv2/Core.sol\":11805:11811  token0 */\n      0x06\n        /* \"contracts/uniswapv2/Core.sol\":11805:11821  token0 = _token0 */\n      dup1\n      sload\n      sub(shl(0xa0, 0x01), 0x01)\n      swap4\n      dup5\n      and\n      not(sub(shl(0xa0, 0x01), 0x01))\n      swap2\n      dup3\n      and\n      or\n      swap1\n      swap2\n      sstore\n        /* \"contracts/uniswapv2/Core.sol\":11831:11837  token1 */\n      0x07\n        /* \"contracts/uniswapv2/Core.sol\":11831:11847  token1 = _token1 */\n      dup1\n      sload\n      swap3\n      swap1\n      swap4\n      and\n      swap2\n      and\n      or\n      swap1\n      sstore\n        /* \"contracts/uniswapv2/Core.sol\":11648:11854  function initialize(address _token0, address _token1) external {... */\n      jump\t// out\n        /* \"contracts/uniswapv2/Core.sol\":10100:10132  uint public price0CumulativeLast */\n    tag_70:\n      sload(0x09)\n      dup2\n      jump\t// out\n        /* \"contracts/uniswapv2/Core.sol\":10138:10170  uint public price1CumulativeLast */\n    tag_72:\n      sload(0x0a)\n      dup2\n      jump\t// out\n        /* \"contracts/uniswapv2/Core.sol\":13958:15225  function mint(address to) external lock returns (uint liquidity) {... */\n    tag_75:\n        /* \"contracts/uniswapv2/Core.sol\":14007:14021  uint liquidity */\n      0x00\n        /* \"contracts/uniswapv2/Core.sol\":10345:10353  unlocked */\n      sload(0x0c)\n        /* \"contracts/uniswapv2/Core.sol\":10357:10358  1 */\n      0x01\n        /* \"contracts/uniswapv2/Core.sol\":10345:10358  unlocked == 1 */\n      eq\n        /* \"contracts/uniswapv2/Core.sol\":10337:10380  require(unlocked == 1, \"UniswapV2: LOCKED\") */\n      tag_169\n      jumpi\n      0x40\n      dup1\n      mload\n      shl(0xe5, 0x461bcd)\n      dup2\n      mstore\n      0x20\n      0x04\n      dup3\n      add\n      mstore\n      0x11\n      0x24\n      dup3\n      add\n      mstore\n      shl(0x7a, 0x155b9a5cddd85c158c8e881313d0d2d151)\n      0x44\n      dup3\n      add\n      mstore\n      swap1\n      mload\n      swap1\n      dup2\n      swap1\n      sub\n      0x64\n      add\n      swap1\n      revert\n    tag_169:\n        /* \"contracts/uniswapv2/Core.sol\":10401:10402  0 */\n      0x00\n        /* \"contracts/uniswapv2/Core.sol\":10390:10398  unlocked */\n      0x0c\n        /* \"contracts/uniswapv2/Core.sol\":10390:10402  unlocked = 0 */\n      dup2\n      swap1\n      sstore\n        /* \"contracts/uniswapv2/Core.sol\":10401:10402  0 */\n      dup1\n        /* \"contracts/uniswapv2/Core.sol\":14076:14089  getReserves() */\n      tag_171\n        /* \"contracts/uniswapv2/Core.sol\":14076:14087  getReserves */\n      tag_49\n        /* \"contracts/uniswapv2/Core.sol\":14076:14089  getReserves() */\n      jump\t// in\n    tag_171:\n      pop\n        /* \"contracts/uniswapv2/Core.sol\":14137:14143  token0 */\n      sload(0x06)\n        /* \"contracts/uniswapv2/Core.sol\":14130:14169  IERC20(token0).balanceOf(address(this)) */\n      0x40\n      dup1\n      mload\n      shl(0xe0, 0x70a08231)\n      dup2\n      mstore\n        /* \"contracts/uniswapv2/Core.sol\":14163:14167  this */\n      address\n        /* \"contracts/uniswapv2/Core.sol\":14130:14169  IERC20(token0).balanceOf(address(this)) */\n      0x04\n      dup3\n      add\n      mstore\n      swap1\n      mload\n        /* \"contracts/uniswapv2/Core.sol\":14033:14089  (uint112 _reserve0, uint112 _reserve1, ) = getReserves() */\n      swap4\n      swap6\n      pop\n      swap2\n      swap4\n      pop\n      0x00\n      swap3\n      sub(shl(0xa0, 0x01), 0x01)\n        /* \"contracts/uniswapv2/Core.sol\":14137:14143  token0 */\n      swap1\n      swap2\n      and\n      swap2\n      0x70a08231\n      swap2\n        /* \"contracts/uniswapv2/Core.sol\":14130:14169  IERC20(token0).balanceOf(address(this)) */\n      0x24\n      dup1\n      dup4\n      add\n      swap3\n      0x20\n      swap3\n      swap2\n      swap1\n      dup3\n      swap1\n      sub\n      add\n      dup2\n        /* \"contracts/uniswapv2/Core.sol\":14137:14143  token0 */\n      dup7\n        /* \"contracts/uniswapv2/Core.sol\":14130:14169  IERC20(token0).balanceOf(address(this)) */\n      dup1\n      extcodesize\n      iszero\n        /* \"--CODEGEN--\":5:7   */\n      dup1\n      iszero\n      tag_172\n      jumpi\n        /* \"--CODEGEN--\":30:31   */\n      0x00\n        /* \"--CODEGEN--\":27:28   */\n      dup1\n        /* \"--CODEGEN--\":20:32   */\n      revert\n        /* \"--CODEGEN--\":5:7   */\n    tag_172:\n        /* \"contracts/uniswapv2/Core.sol\":14130:14169  IERC20(token0).balanceOf(address(this)) */\n      pop\n      gas\n      staticcall\n      iszero\n        /* \"--CODEGEN--\":8:17   */\n      dup1\n        /* \"--CODEGEN--\":5:7   */\n      iszero\n      tag_173\n      jumpi\n        /* \"--CODEGEN--\":45:61   */\n      returndatasize\n        /* \"--CODEGEN--\":42:43   */\n      0x00\n        /* \"--CODEGEN--\":39:40   */\n      dup1\n        /* \"--CODEGEN--\":24:62   */\n      returndatacopy\n        /* \"--CODEGEN--\":77:93   */\n      returndatasize\n        /* \"--CODEGEN--\":74:75   */\n      0x00\n        /* \"--CODEGEN--\":67:94   */\n      revert\n        /* \"--CODEGEN--\":5:7   */\n    tag_173:\n        /* \"contracts/uniswapv2/Core.sol\":14130:14169  IERC20(token0).balanceOf(address(this)) */\n      pop\n      pop\n      pop\n      pop\n      mload(0x40)\n      returndatasize\n        /* \"--CODEGEN--\":13:15   */\n      0x20\n        /* \"--CODEGEN--\":8:11   */\n      dup2\n        /* \"--CODEGEN--\":5:16   */\n      lt\n        /* \"--CODEGEN--\":2:4   */\n      iszero\n      tag_174\n      jumpi\n        /* \"--CODEGEN--\":29:30   */\n      0x00\n        /* \"--CODEGEN--\":26:27   */\n      dup1\n        /* \"--CODEGEN--\":19:31   */\n      revert\n        /* \"--CODEGEN--\":2:4   */\n    tag_174:\n      pop\n        /* \"contracts/uniswapv2/Core.sol\":14130:14169  IERC20(token0).balanceOf(address(this)) */\n      mload\n        /* \"contracts/uniswapv2/Core.sol\":14202:14208  token1 */\n      sload(0x07)\n        /* \"contracts/uniswapv2/Core.sol\":14195:14234  IERC20(token1).balanceOf(address(this)) */\n      0x40\n      dup1\n      mload\n      shl(0xe0, 0x70a08231)\n      dup2\n      mstore\n        /* \"contracts/uniswapv2/Core.sol\":14228:14232  this */\n      address\n        /* \"contracts/uniswapv2/Core.sol\":14195:14234  IERC20(token1).balanceOf(address(this)) */\n      0x04\n      dup3\n      add\n      mstore\n      swap1\n      mload\n        /* \"contracts/uniswapv2/Core.sol\":14130:14169  IERC20(token0).balanceOf(address(this)) */\n      swap3\n      swap4\n      pop\n      0x00\n      swap3\n      sub(shl(0xa0, 0x01), 0x01)\n        /* \"contracts/uniswapv2/Core.sol\":14202:14208  token1 */\n      swap1\n      swap3\n      and\n      swap2\n      0x70a08231\n      swap2\n        /* \"contracts/uniswapv2/Core.sol\":14195:14234  IERC20(token1).balanceOf(address(this)) */\n      0x24\n      dup1\n      dup3\n      add\n      swap3\n        /* \"contracts/uniswapv2/Core.sol\":14130:14169  IERC20(token0).balanceOf(address(this)) */\n      0x20\n      swap3\n        /* \"contracts/uniswapv2/Core.sol\":14195:14234  IERC20(token1).balanceOf(address(this)) */\n      swap1\n      swap2\n      swap1\n      dup3\n      swap1\n      sub\n      add\n      dup2\n        /* \"contracts/uniswapv2/Core.sol\":14202:14208  token1 */\n      dup7\n        /* \"contracts/uniswapv2/Core.sol\":14195:14234  IERC20(token1).balanceOf(address(this)) */\n      dup1\n      extcodesize\n      iszero\n        /* \"--CODEGEN--\":5:7   */\n      dup1\n      iszero\n      tag_175\n      jumpi\n        /* \"--CODEGEN--\":30:31   */\n      0x00\n        /* \"--CODEGEN--\":27:28   */\n      dup1\n        /* \"--CODEGEN--\":20:32   */\n      revert\n        /* \"--CODEGEN--\":5:7   */\n    tag_175:\n        /* \"contracts/uniswapv2/Core.sol\":14195:14234  IERC20(token1).balanceOf(address(this)) */\n      pop\n      gas\n      staticcall\n      iszero\n        /* \"--CODEGEN--\":8:17   */\n      dup1\n        /* \"--CODEGEN--\":5:7   */\n      iszero\n      tag_176\n      jumpi\n        /* \"--CODEGEN--\":45:61   */\n      returndatasize\n        /* \"--CODEGEN--\":42:43   */\n      0x00\n        /* \"--CODEGEN--\":39:40   */\n      dup1\n        /* \"--CODEGEN--\":24:62   */\n      returndatacopy\n        /* \"--CODEGEN--\":77:93   */\n      returndatasize\n        /* \"--CODEGEN--\":74:75   */\n      0x00\n        /* \"--CODEGEN--\":67:94   */\n      revert\n        /* \"--CODEGEN--\":5:7   */\n    tag_176:\n        /* \"contracts/uniswapv2/Core.sol\":14195:14234  IERC20(token1).balanceOf(address(this)) */\n      pop\n      pop\n      pop\n      pop\n      mload(0x40)\n      returndatasize\n        /* \"--CODEGEN--\":13:15   */\n      0x20\n        /* \"--CODEGEN--\":8:11   */\n      dup2\n        /* \"--CODEGEN--\":5:16   */\n      lt\n        /* \"--CODEGEN--\":2:4   */\n      iszero\n      tag_177\n      jumpi\n        /* \"--CODEGEN--\":29:30   */\n      0x00\n        /* \"--CODEGEN--\":26:27   */\n      dup1\n        /* \"--CODEGEN--\":19:31   */\n      revert\n        /* \"--CODEGEN--\":2:4   */\n    tag_177:\n      pop\n        /* \"contracts/uniswapv2/Core.sol\":14195:14234  IERC20(token1).balanceOf(address(this)) */\n      mload\n      swap1\n      pop\n        /* \"contracts/uniswapv2/Core.sol\":14244:14256  uint amount0 */\n      0x00\n        /* \"contracts/uniswapv2/Core.sol\":14259:14282  balance0.sub(_reserve0) */\n      tag_178\n        /* \"contracts/uniswapv2/Core.sol\":14259:14267  balance0 */\n      dup4\n      sub(shl(0x70, 0x01), 0x01)\n        /* \"contracts/uniswapv2/Core.sol\":14259:14282  balance0.sub(_reserve0) */\n      dup8\n      and\n        /* \"contracts/uniswapv2/Core.sol\":14259:14271  balance0.sub */\n      tag_147\n        /* \"contracts/uniswapv2/Core.sol\":14259:14282  balance0.sub(_reserve0) */\n      jump\t// in\n    tag_178:\n        /* \"contracts/uniswapv2/Core.sol\":14244:14282  uint amount0 = balance0.sub(_reserve0) */\n      swap1\n      pop\n        /* \"contracts/uniswapv2/Core.sol\":14292:14304  uint amount1 */\n      0x00\n        /* \"contracts/uniswapv2/Core.sol\":14307:14330  balance1.sub(_reserve1) */\n      tag_179\n        /* \"contracts/uniswapv2/Core.sol\":14307:14315  balance1 */\n      dup4\n      sub(shl(0x70, 0x01), 0x01)\n        /* \"contracts/uniswapv2/Core.sol\":14307:14330  balance1.sub(_reserve1) */\n      dup8\n      and\n        /* \"contracts/uniswapv2/Core.sol\":14307:14319  balance1.sub */\n      tag_147\n        /* \"contracts/uniswapv2/Core.sol\":14307:14330  balance1.sub(_reserve1) */\n      jump\t// in\n    tag_179:\n        /* \"contracts/uniswapv2/Core.sol\":14292:14330  uint amount1 = balance1.sub(_reserve1) */\n      swap1\n      pop\n        /* \"contracts/uniswapv2/Core.sol\":14341:14351  bool feeOn */\n      0x00\n        /* \"contracts/uniswapv2/Core.sol\":14354:14384  _mintFee(_reserve0, _reserve1) */\n      tag_180\n        /* \"contracts/uniswapv2/Core.sol\":14363:14372  _reserve0 */\n      dup8\n        /* \"contracts/uniswapv2/Core.sol\":14374:14383  _reserve1 */\n      dup8\n        /* \"contracts/uniswapv2/Core.sol\":14354:14362  _mintFee */\n      tag_181\n        /* \"contracts/uniswapv2/Core.sol\":14354:14384  _mintFee(_reserve0, _reserve1) */\n      jump\t// in\n    tag_180:\n        /* \"contracts/uniswapv2/Core.sol\":14394:14411  uint _totalSupply */\n      0x00\n        /* \"contracts/uniswapv2/Core.sol\":14414:14425  totalSupply */\n      sload\n        /* \"contracts/uniswapv2/Core.sol\":14341:14384  bool feeOn = _mintFee(_reserve0, _reserve1) */\n      swap1\n      swap2\n      pop\n        /* \"contracts/uniswapv2/Core.sol\":14517:14534  _totalSupply == 0 */\n      dup1\n        /* \"contracts/uniswapv2/Core.sol\":14513:14907  if (_totalSupply == 0) {... */\n      tag_182\n      jumpi\n        /* \"contracts/uniswapv2/Core.sol\":14562:14616  Math.sqrt(amount0.mul(amount1)).sub(MINIMUM_LIQUIDITY) */\n      tag_183\n        /* \"contracts/uniswapv2/Core.sol\":9633:9640  10 ** 3 */\n      0x03e8\n        /* \"contracts/uniswapv2/Core.sol\":14562:14593  Math.sqrt(amount0.mul(amount1)) */\n      tag_146\n        /* \"contracts/uniswapv2/Core.sol\":14572:14592  amount0.mul(amount1) */\n      tag_185\n        /* \"contracts/uniswapv2/Core.sol\":14572:14579  amount0 */\n      dup8\n        /* \"contracts/uniswapv2/Core.sol\":14584:14591  amount1 */\n      dup8\n        /* \"contracts/uniswapv2/Core.sol\":14572:14592  amount0.mul(amount1) */\n      0xffffffff\n        /* \"contracts/uniswapv2/Core.sol\":14572:14583  amount0.mul */\n      tag_145\n        /* \"contracts/uniswapv2/Core.sol\":14572:14592  amount0.mul(amount1) */\n      and\n      jump\t// in\n    tag_185:\n        /* \"contracts/uniswapv2/Core.sol\":14562:14571  Math.sqrt */\n      tag_186\n        /* \"contracts/uniswapv2/Core.sol\":14562:14593  Math.sqrt(amount0.mul(amount1)) */\n      jump\t// in\n        /* \"contracts/uniswapv2/Core.sol\":14562:14616  Math.sqrt(amount0.mul(amount1)).sub(MINIMUM_LIQUIDITY) */\n    tag_183:\n        /* \"contracts/uniswapv2/Core.sol\":14550:14616  liquidity = Math.sqrt(amount0.mul(amount1)).sub(MINIMUM_LIQUIDITY) */\n      swap9\n      pop\n        /* \"contracts/uniswapv2/Core.sol\":14630:14666  _mint(address(0), MINIMUM_LIQUIDITY) */\n      tag_187\n        /* \"contracts/uniswapv2/Core.sol\":14644:14645  0 */\n      0x00\n        /* \"contracts/uniswapv2/Core.sol\":9633:9640  10 ** 3 */\n      0x03e8\n        /* \"contracts/uniswapv2/Core.sol\":14630:14635  _mint */\n      tag_188\n        /* \"contracts/uniswapv2/Core.sol\":14630:14666  _mint(address(0), MINIMUM_LIQUIDITY) */\n      jump\t// in\n    tag_187:\n        /* \"contracts/uniswapv2/Core.sol\":14513:14907  if (_totalSupply == 0) {... */\n      jump(tag_189)\n    tag_182:\n        /* \"contracts/uniswapv2/Core.sol\":14764:14896  Math.min(... */\n      tag_190\n      sub(shl(0x70, 0x01), 0x01)\n        /* \"contracts/uniswapv2/Core.sol\":14790:14827  amount0.mul(_totalSupply) / _reserve0 */\n      dup10\n      and\n        /* \"contracts/uniswapv2/Core.sol\":14790:14815  amount0.mul(_totalSupply) */\n      tag_191\n        /* \"contracts/uniswapv2/Core.sol\":14790:14797  amount0 */\n      dup7\n        /* \"contracts/uniswapv2/Core.sol\":14802:14814  _totalSupply */\n      dup5\n        /* \"contracts/uniswapv2/Core.sol\":14790:14801  amount0.mul */\n      tag_145\n        /* \"contracts/uniswapv2/Core.sol\":14790:14815  amount0.mul(_totalSupply) */\n      jump\t// in\n    tag_191:\n        /* \"contracts/uniswapv2/Core.sol\":14790:14827  amount0.mul(_totalSupply) / _reserve0 */\n      dup2\n      tag_192\n      jumpi\n      invalid\n    tag_192:\n      div\n      sub(shl(0x70, 0x01), 0x01)\n        /* \"contracts/uniswapv2/Core.sol\":14845:14882  amount1.mul(_totalSupply) / _reserve1 */\n      dup10\n      and\n        /* \"contracts/uniswapv2/Core.sol\":14845:14870  amount1.mul(_totalSupply) */\n      tag_193\n        /* \"contracts/uniswapv2/Core.sol\":14845:14852  amount1 */\n      dup7\n        /* \"contracts/uniswapv2/Core.sol\":14857:14869  _totalSupply */\n      dup6\n        /* \"contracts/uniswapv2/Core.sol\":14845:14856  amount1.mul */\n      tag_145\n        /* \"contracts/uniswapv2/Core.sol\":14845:14870  amount1.mul(_totalSupply) */\n      jump\t// in\n    tag_193:\n        /* \"contracts/uniswapv2/Core.sol\":14845:14882  amount1.mul(_totalSupply) / _reserve1 */\n      dup2\n      tag_194\n      jumpi\n      invalid\n    tag_194:\n      div\n        /* \"contracts/uniswapv2/Core.sol\":14764:14772  Math.min */\n      tag_195\n        /* \"contracts/uniswapv2/Core.sol\":14764:14896  Math.min(... */\n      jump\t// in\n    tag_190:\n        /* \"contracts/uniswapv2/Core.sol\":14752:14896  liquidity = Math.min(... */\n      swap9\n      pop\n        /* \"contracts/uniswapv2/Core.sol\":14513:14907  if (_totalSupply == 0) {... */\n    tag_189:\n        /* \"contracts/uniswapv2/Core.sol\":14936:14937  0 */\n      0x00\n        /* \"contracts/uniswapv2/Core.sol\":14924:14933  liquidity */\n      dup10\n        /* \"contracts/uniswapv2/Core.sol\":14924:14937  liquidity > 0 */\n      gt\n        /* \"contracts/uniswapv2/Core.sol\":14916:14982  require(liquidity > 0, \"UniswapV2: INSUFFICIENT_LIQUIDITY_MINTED\") */\n      tag_196\n      jumpi\n      mload(0x40)\n      shl(0xe5, 0x461bcd)\n      dup2\n      mstore\n      0x04\n      add\n      dup1\n      dup1\n      0x20\n      add\n      dup3\n      dup2\n      sub\n      dup3\n      mstore\n      0x28\n      dup2\n      mstore\n      0x20\n      add\n      dup1\n      data_6591c9f5bf1fefaad109b76a20e25c857b696080c952191f86220f001a83663e\n      0x28\n      swap2\n      codecopy\n      0x40\n      add\n      swap2\n      pop\n      pop\n      mload(0x40)\n      dup1\n      swap2\n      sub\n      swap1\n      revert\n    tag_196:\n        /* \"contracts/uniswapv2/Core.sol\":14992:15012  _mint(to, liquidity) */\n      tag_197\n        /* \"contracts/uniswapv2/Core.sol\":14998:15000  to */\n      dup11\n        /* \"contracts/uniswapv2/Core.sol\":15002:15011  liquidity */\n      dup11\n        /* \"contracts/uniswapv2/Core.sol\":14992:14997  _mint */\n      tag_188\n        /* \"contracts/uniswapv2/Core.sol\":14992:15012  _mint(to, liquidity) */\n      jump\t// in\n    tag_197:\n        /* \"contracts/uniswapv2/Core.sol\":15023:15072  _update(balance0, balance1, _reserve0, _reserve1) */\n      tag_198\n        /* \"contracts/uniswapv2/Core.sol\":15031:15039  balance0 */\n      dup7\n        /* \"contracts/uniswapv2/Core.sol\":15041:15049  balance1 */\n      dup7\n        /* \"contracts/uniswapv2/Core.sol\":15051:15060  _reserve0 */\n      dup11\n        /* \"contracts/uniswapv2/Core.sol\":15062:15071  _reserve1 */\n      dup11\n        /* \"contracts/uniswapv2/Core.sol\":15023:15030  _update */\n      tag_156\n        /* \"contracts/uniswapv2/Core.sol\":15023:15072  _update(balance0, balance1, _reserve0, _reserve1) */\n      jump\t// in\n    tag_198:\n        /* \"contracts/uniswapv2/Core.sol\":15086:15091  feeOn */\n      dup2\n        /* \"contracts/uniswapv2/Core.sol\":15082:15129  if (feeOn) kLast = uint(reserve0).mul(reserve1) */\n      iszero\n      tag_199\n      jumpi\n        /* \"contracts/uniswapv2/Core.sol\":15120:15128  reserve1 */\n      sload(0x08)\n        /* \"contracts/uniswapv2/Core.sol\":15101:15129  uint(reserve0).mul(reserve1) */\n      tag_200\n      swap1\n      sub(shl(0x70, 0x01), 0x01)\n        /* \"contracts/uniswapv2/Core.sol\":15106:15114  reserve0 */\n      dup1\n      dup3\n      and\n      swap2\n      shl(0x70, 0x01)\n        /* \"contracts/uniswapv2/Core.sol\":15120:15128  reserve1 */\n      swap1\n      div\n      and\n        /* \"contracts/uniswapv2/Core.sol\":15101:15119  uint(reserve0).mul */\n      tag_145\n        /* \"contracts/uniswapv2/Core.sol\":15101:15129  uint(reserve0).mul(reserve1) */\n      jump\t// in\n    tag_200:\n        /* \"contracts/uniswapv2/Core.sol\":15093:15098  kLast */\n      0x0b\n        /* \"contracts/uniswapv2/Core.sol\":15093:15129  kLast = uint(reserve0).mul(reserve1) */\n      sstore\n        /* \"contracts/uniswapv2/Core.sol\":15082:15129  if (feeOn) kLast = uint(reserve0).mul(reserve1) */\n    tag_199:\n        /* \"contracts/uniswapv2/Core.sol\":15184:15218  Mint(msg.sender, amount0, amount1) */\n      0x40\n      dup1\n      mload\n      dup6\n      dup2\n      mstore\n      0x20\n      dup2\n      add\n      dup6\n      swap1\n      mstore\n      dup2\n      mload\n        /* \"contracts/uniswapv2/Core.sol\":15189:15199  msg.sender */\n      caller\n      swap3\n        /* \"contracts/uniswapv2/Core.sol\":15184:15218  Mint(msg.sender, amount0, amount1) */\n      0x4c209b5fc8ad50758f13e2e1088ba56a560dff690a1c6fef26394f4c03821c4f\n      swap3\n      dup3\n      swap1\n      sub\n      add\n      swap1\n      log2\n      pop\n      pop\n        /* \"contracts/uniswapv2/Core.sol\":10434:10435  1 */\n      0x01\n        /* \"contracts/uniswapv2/Core.sol\":10423:10431  unlocked */\n      0x0c\n        /* \"contracts/uniswapv2/Core.sol\":10423:10435  unlocked = 1 */\n      sstore\n      pop\n        /* \"contracts/uniswapv2/Core.sol\":13958:15225  function mint(address to) external lock returns (uint liquidity) {... */\n      swap5\n      swap7\n      swap6\n      pop\n      pop\n      pop\n      pop\n      pop\n      pop\n      jump\t// out\n        /* \"contracts/uniswapv2/Core.sol\":5973:6014  mapping(address => uint) public balanceOf */\n    tag_78:\n      mstore(0x20, 0x01)\n      0x00\n      swap1\n      dup2\n      mstore\n      0x40\n      swap1\n      keccak256\n      sload\n      dup2\n      jump\t// out\n        /* \"contracts/uniswapv2/Core.sol\":10176:10193  uint public kLast */\n    tag_80:\n      sload(0x0b)\n      dup2\n      jump\t// out\n        /* \"contracts/uniswapv2/Core.sol\":6351:6389  mapping(address => uint) public nonces */\n    tag_83:\n      mstore(0x20, 0x04)\n      0x00\n      swap1\n      dup2\n      mstore\n      0x40\n      swap1\n      keccak256\n      sload\n      dup2\n      jump\t// out\n        /* \"contracts/uniswapv2/Core.sol\":15334:16765  function burn(... */\n    tag_86:\n        /* \"contracts/uniswapv2/Core.sol\":15397:15409  uint amount0 */\n      0x00\n        /* \"contracts/uniswapv2/Core.sol\":15411:15423  uint amount1 */\n      dup1\n        /* \"contracts/uniswapv2/Core.sol\":10345:10353  unlocked */\n      sload(0x0c)\n        /* \"contracts/uniswapv2/Core.sol\":10357:10358  1 */\n      0x01\n        /* \"contracts/uniswapv2/Core.sol\":10345:10358  unlocked == 1 */\n      eq\n        /* \"contracts/uniswapv2/Core.sol\":10337:10380  require(unlocked == 1, \"UniswapV2: LOCKED\") */\n      tag_202\n      jumpi\n      0x40\n      dup1\n      mload\n      shl(0xe5, 0x461bcd)\n      dup2\n      mstore\n      0x20\n      0x04\n      dup3\n      add\n      mstore\n      0x11\n      0x24\n      dup3\n      add\n      mstore\n      shl(0x7a, 0x155b9a5cddd85c158c8e881313d0d2d151)\n      0x44\n      dup3\n      add\n      mstore\n      swap1\n      mload\n      swap1\n      dup2\n      swap1\n      sub\n      0x64\n      add\n      swap1\n      revert\n    tag_202:\n        /* \"contracts/uniswapv2/Core.sol\":10401:10402  0 */\n      0x00\n        /* \"contracts/uniswapv2/Core.sol\":10390:10398  unlocked */\n      0x0c\n        /* \"contracts/uniswapv2/Core.sol\":10390:10402  unlocked = 0 */\n      dup2\n      swap1\n      sstore\n        /* \"contracts/uniswapv2/Core.sol\":10401:10402  0 */\n      dup1\n        /* \"contracts/uniswapv2/Core.sol\":15478:15491  getReserves() */\n      tag_204\n        /* \"contracts/uniswapv2/Core.sol\":15478:15489  getReserves */\n      tag_49\n        /* \"contracts/uniswapv2/Core.sol\":15478:15491  getReserves() */\n      jump\t// in\n    tag_204:\n      pop\n        /* \"contracts/uniswapv2/Core.sol\":15534:15540  token0 */\n      sload(0x06)\n        /* \"contracts/uniswapv2/Core.sol\":15583:15589  token1 */\n      sload(0x07)\n        /* \"contracts/uniswapv2/Core.sol\":15630:15670  IERC20(_token0).balanceOf(address(this)) */\n      0x40\n      dup1\n      mload\n      shl(0xe0, 0x70a08231)\n      dup2\n      mstore\n        /* \"contracts/uniswapv2/Core.sol\":15664:15668  this */\n      address\n        /* \"contracts/uniswapv2/Core.sol\":15630:15670  IERC20(_token0).balanceOf(address(this)) */\n      0x04\n      dup3\n      add\n      mstore\n      swap1\n      mload\n        /* \"contracts/uniswapv2/Core.sol\":15435:15491  (uint112 _reserve0, uint112 _reserve1, ) = getReserves() */\n      swap5\n      swap7\n      pop\n      swap3\n      swap5\n      pop\n      sub(shl(0xa0, 0x01), 0x01)\n        /* \"contracts/uniswapv2/Core.sol\":15534:15540  token0 */\n      swap2\n      dup3\n      and\n      swap4\n        /* \"contracts/uniswapv2/Core.sol\":15583:15589  token1 */\n      swap2\n      and\n      swap2\n      0x00\n      swap2\n        /* \"contracts/uniswapv2/Core.sol\":15534:15540  token0 */\n      dup5\n      swap2\n      0x70a08231\n      swap2\n        /* \"contracts/uniswapv2/Core.sol\":15630:15670  IERC20(_token0).balanceOf(address(this)) */\n      0x24\n      dup1\n      dup4\n      add\n      swap3\n      0x20\n      swap3\n      swap2\n      swap1\n      dup3\n      swap1\n      sub\n      add\n      dup2\n        /* \"contracts/uniswapv2/Core.sol\":15534:15540  token0 */\n      dup7\n        /* \"contracts/uniswapv2/Core.sol\":15630:15670  IERC20(_token0).balanceOf(address(this)) */\n      dup1\n      extcodesize\n      iszero\n        /* \"--CODEGEN--\":5:7   */\n      dup1\n      iszero\n      tag_205\n      jumpi\n        /* \"--CODEGEN--\":30:31   */\n      0x00\n        /* \"--CODEGEN--\":27:28   */\n      dup1\n        /* \"--CODEGEN--\":20:32   */\n      revert\n        /* \"--CODEGEN--\":5:7   */\n    tag_205:\n        /* \"contracts/uniswapv2/Core.sol\":15630:15670  IERC20(_token0).balanceOf(address(this)) */\n      pop\n      gas\n      staticcall\n      iszero\n        /* \"--CODEGEN--\":8:17   */\n      dup1\n        /* \"--CODEGEN--\":5:7   */\n      iszero\n      tag_206\n      jumpi\n        /* \"--CODEGEN--\":45:61   */\n      returndatasize\n        /* \"--CODEGEN--\":42:43   */\n      0x00\n        /* \"--CODEGEN--\":39:40   */\n      dup1\n        /* \"--CODEGEN--\":24:62   */\n      returndatacopy\n        /* \"--CODEGEN--\":77:93   */\n      returndatasize\n        /* \"--CODEGEN--\":74:75   */\n      0x00\n        /* \"--CODEGEN--\":67:94   */\n      revert\n        /* \"--CODEGEN--\":5:7   */\n    tag_206:\n        /* \"contracts/uniswapv2/Core.sol\":15630:15670  IERC20(_token0).balanceOf(address(this)) */\n      pop\n      pop\n      pop\n      pop\n      mload(0x40)\n      returndatasize\n        /* \"--CODEGEN--\":13:15   */\n      0x20\n        /* \"--CODEGEN--\":8:11   */\n      dup2\n        /* \"--CODEGEN--\":5:16   */\n      lt\n        /* \"--CODEGEN--\":2:4   */\n      iszero\n      tag_207\n      jumpi\n        /* \"--CODEGEN--\":29:30   */\n      0x00\n        /* \"--CODEGEN--\":26:27   */\n      dup1\n        /* \"--CODEGEN--\":19:31   */\n      revert\n        /* \"--CODEGEN--\":2:4   */\n    tag_207:\n      pop\n        /* \"contracts/uniswapv2/Core.sol\":15630:15670  IERC20(_token0).balanceOf(address(this)) */\n      mload\n        /* \"contracts/uniswapv2/Core.sol\":15696:15736  IERC20(_token1).balanceOf(address(this)) */\n      0x40\n      dup1\n      mload\n      shl(0xe0, 0x70a08231)\n      dup2\n      mstore\n        /* \"contracts/uniswapv2/Core.sol\":15730:15734  this */\n      address\n        /* \"contracts/uniswapv2/Core.sol\":15696:15736  IERC20(_token1).balanceOf(address(this)) */\n      0x04\n      dup3\n      add\n      mstore\n      swap1\n      mload\n        /* \"contracts/uniswapv2/Core.sol\":15630:15670  IERC20(_token0).balanceOf(address(this)) */\n      swap2\n      swap3\n      pop\n      0x00\n      swap2\n      sub(shl(0xa0, 0x01), 0x01)\n        /* \"contracts/uniswapv2/Core.sol\":15696:15721  IERC20(_token1).balanceOf */\n      dup6\n      and\n      swap2\n      0x70a08231\n      swap2\n        /* \"contracts/uniswapv2/Core.sol\":15696:15736  IERC20(_token1).balanceOf(address(this)) */\n      0x24\n      dup1\n      dup4\n      add\n      swap3\n        /* \"contracts/uniswapv2/Core.sol\":15630:15670  IERC20(_token0).balanceOf(address(this)) */\n      0x20\n      swap3\n        /* \"contracts/uniswapv2/Core.sol\":15696:15736  IERC20(_token1).balanceOf(address(this)) */\n      swap2\n      swap1\n      dup3\n      swap1\n      sub\n      add\n      dup2\n        /* \"contracts/uniswapv2/Core.sol\":15696:15721  IERC20(_token1).balanceOf */\n      dup7\n        /* \"contracts/uniswapv2/Core.sol\":15696:15736  IERC20(_token1).balanceOf(address(this)) */\n      dup1\n      extcodesize\n      iszero\n        /* \"--CODEGEN--\":5:7   */\n      dup1\n      iszero\n      tag_208\n      jumpi\n        /* \"--CODEGEN--\":30:31   */\n      0x00\n        /* \"--CODEGEN--\":27:28   */\n      dup1\n        /* \"--CODEGEN--\":20:32   */\n      revert\n        /* \"--CODEGEN--\":5:7   */\n    tag_208:\n        /* \"contracts/uniswapv2/Core.sol\":15696:15736  IERC20(_token1).balanceOf(address(this)) */\n      pop\n      gas\n      staticcall\n      iszero\n        /* \"--CODEGEN--\":8:17   */\n      dup1\n        /* \"--CODEGEN--\":5:7   */\n      iszero\n      tag_209\n      jumpi\n        /* \"--CODEGEN--\":45:61   */\n      returndatasize\n        /* \"--CODEGEN--\":42:43   */\n      0x00\n        /* \"--CODEGEN--\":39:40   */\n      dup1\n        /* \"--CODEGEN--\":24:62   */\n      returndatacopy\n        /* \"--CODEGEN--\":77:93   */\n      returndatasize\n        /* \"--CODEGEN--\":74:75   */\n      0x00\n        /* \"--CODEGEN--\":67:94   */\n      revert\n        /* \"--CODEGEN--\":5:7   */\n    tag_209:\n        /* \"contracts/uniswapv2/Core.sol\":15696:15736  IERC20(_token1).balanceOf(address(this)) */\n      pop\n      pop\n      pop\n      pop\n      mload(0x40)\n      returndatasize\n        /* \"--CODEGEN--\":13:15   */\n      0x20\n        /* \"--CODEGEN--\":8:11   */\n      dup2\n        /* \"--CODEGEN--\":5:16   */\n      lt\n        /* \"--CODEGEN--\":2:4   */\n      iszero\n      tag_210\n      jumpi\n        /* \"--CODEGEN--\":29:30   */\n      0x00\n        /* \"--CODEGEN--\":26:27   */\n      dup1\n        /* \"--CODEGEN--\":19:31   */\n      revert\n        /* \"--CODEGEN--\":2:4   */\n    tag_210:\n      pop\n        /* \"contracts/uniswapv2/Core.sol\":15696:15736  IERC20(_token1).balanceOf(address(this)) */\n      mload\n        /* \"contracts/uniswapv2/Core.sol\":15781:15785  this */\n      address\n        /* \"contracts/uniswapv2/Core.sol\":15746:15760  uint liquidity */\n      0x00\n        /* \"contracts/uniswapv2/Core.sol\":15763:15787  balanceOf[address(this)] */\n      swap1\n      dup2\n      mstore\n        /* \"contracts/uniswapv2/Core.sol\":15763:15772  balanceOf */\n      0x01\n        /* \"contracts/uniswapv2/Core.sol\":15696:15736  IERC20(_token1).balanceOf(address(this)) */\n      0x20\n        /* \"contracts/uniswapv2/Core.sol\":15763:15787  balanceOf[address(this)] */\n      mstore\n      0x40\n      dup2\n      keccak256\n      sload\n        /* \"contracts/uniswapv2/Core.sol\":15696:15736  IERC20(_token1).balanceOf(address(this)) */\n      swap2\n      swap3\n      pop\n        /* \"contracts/uniswapv2/Core.sol\":15811:15841  _mintFee(_reserve0, _reserve1) */\n      tag_211\n        /* \"contracts/uniswapv2/Core.sol\":15820:15829  _reserve0 */\n      dup9\n        /* \"contracts/uniswapv2/Core.sol\":15831:15840  _reserve1 */\n      dup9\n        /* \"contracts/uniswapv2/Core.sol\":15811:15819  _mintFee */\n      tag_181\n        /* \"contracts/uniswapv2/Core.sol\":15811:15841  _mintFee(_reserve0, _reserve1) */\n      jump\t// in\n    tag_211:\n        /* \"contracts/uniswapv2/Core.sol\":15851:15868  uint _totalSupply */\n      0x00\n        /* \"contracts/uniswapv2/Core.sol\":15871:15882  totalSupply */\n      sload\n        /* \"contracts/uniswapv2/Core.sol\":15798:15841  bool feeOn = _mintFee(_reserve0, _reserve1) */\n      swap1\n      swap2\n      pop\n        /* \"contracts/uniswapv2/Core.sol\":15871:15882  totalSupply */\n      dup1\n        /* \"contracts/uniswapv2/Core.sol\":15980:16003  liquidity.mul(balance0) */\n      tag_212\n        /* \"contracts/uniswapv2/Core.sol\":15980:15989  liquidity */\n      dup5\n        /* \"contracts/uniswapv2/Core.sol\":15994:16002  balance0 */\n      dup8\n        /* \"contracts/uniswapv2/Core.sol\":15980:16003  liquidity.mul(balance0) */\n      0xffffffff\n        /* \"contracts/uniswapv2/Core.sol\":15980:15993  liquidity.mul */\n      tag_145\n        /* \"contracts/uniswapv2/Core.sol\":15980:16003  liquidity.mul(balance0) */\n      and\n      jump\t// in\n    tag_212:\n        /* \"contracts/uniswapv2/Core.sol\":15980:16018  liquidity.mul(balance0) / _totalSupply */\n      dup2\n      tag_213\n      jumpi\n      invalid\n    tag_213:\n      div\n      swap11\n      pop\n        /* \"contracts/uniswapv2/Core.sol\":16112:16124  _totalSupply */\n      dup1\n        /* \"contracts/uniswapv2/Core.sol\":16086:16109  liquidity.mul(balance1) */\n      tag_214\n        /* \"contracts/uniswapv2/Core.sol\":16086:16095  liquidity */\n      dup5\n        /* \"contracts/uniswapv2/Core.sol\":16100:16108  balance1 */\n      dup7\n        /* \"contracts/uniswapv2/Core.sol\":16086:16109  liquidity.mul(balance1) */\n      0xffffffff\n        /* \"contracts/uniswapv2/Core.sol\":16086:16099  liquidity.mul */\n      tag_145\n        /* \"contracts/uniswapv2/Core.sol\":16086:16109  liquidity.mul(balance1) */\n      and\n      jump\t// in\n    tag_214:\n        /* \"contracts/uniswapv2/Core.sol\":16086:16124  liquidity.mul(balance1) / _totalSupply */\n      dup2\n      tag_215\n      jumpi\n      invalid\n    tag_215:\n      div\n        /* \"contracts/uniswapv2/Core.sol\":16076:16124  amount1 = liquidity.mul(balance1) / _totalSupply */\n      swap10\n      pop\n        /* \"contracts/uniswapv2/Core.sol\":16213:16214  0 */\n      0x00\n        /* \"contracts/uniswapv2/Core.sol\":16203:16210  amount0 */\n      dup12\n        /* \"contracts/uniswapv2/Core.sol\":16203:16214  amount0 > 0 */\n      gt\n        /* \"contracts/uniswapv2/Core.sol\":16203:16229  amount0 > 0 && amount1 > 0 */\n      dup1\n      iszero\n      tag_216\n      jumpi\n      pop\n        /* \"contracts/uniswapv2/Core.sol\":16228:16229  0 */\n      0x00\n        /* \"contracts/uniswapv2/Core.sol\":16218:16225  amount1 */\n      dup11\n        /* \"contracts/uniswapv2/Core.sol\":16218:16229  amount1 > 0 */\n      gt\n        /* \"contracts/uniswapv2/Core.sol\":16203:16229  amount0 > 0 && amount1 > 0 */\n    tag_216:\n        /* \"contracts/uniswapv2/Core.sol\":16182:16295  require(... */\n      tag_217\n      jumpi\n      mload(0x40)\n      shl(0xe5, 0x461bcd)\n      dup2\n      mstore\n      0x04\n      add\n      dup1\n      dup1\n      0x20\n      add\n      dup3\n      dup2\n      sub\n      dup3\n      mstore\n      0x28\n      dup2\n      mstore\n      0x20\n      add\n      dup1\n      data_57ebfb4dd8b5082cdba0f23c17077e3b0ecb9782a51e0e9a15e9bc8c4b30c562\n      0x28\n      swap2\n      codecopy\n      0x40\n      add\n      swap2\n      pop\n      pop\n      mload(0x40)\n      dup1\n      swap2\n      sub\n      swap1\n      revert\n    tag_217:\n        /* \"contracts/uniswapv2/Core.sol\":16305:16336  _burn(address(this), liquidity) */\n      tag_218\n        /* \"contracts/uniswapv2/Core.sol\":16319:16323  this */\n      address\n        /* \"contracts/uniswapv2/Core.sol\":16326:16335  liquidity */\n      dup5\n        /* \"contracts/uniswapv2/Core.sol\":16305:16310  _burn */\n      tag_219\n        /* \"contracts/uniswapv2/Core.sol\":16305:16336  _burn(address(this), liquidity) */\n      jump\t// in\n    tag_218:\n        /* \"contracts/uniswapv2/Core.sol\":16346:16381  _safeTransfer(_token0, to, amount0) */\n      tag_220\n        /* \"contracts/uniswapv2/Core.sol\":16360:16367  _token0 */\n      dup8\n        /* \"contracts/uniswapv2/Core.sol\":16369:16371  to */\n      dup14\n        /* \"contracts/uniswapv2/Core.sol\":16373:16380  amount0 */\n      dup14\n        /* \"contracts/uniswapv2/Core.sol\":16346:16359  _safeTransfer */\n      tag_125\n        /* \"contracts/uniswapv2/Core.sol\":16346:16381  _safeTransfer(_token0, to, amount0) */\n      jump\t// in\n    tag_220:\n        /* \"contracts/uniswapv2/Core.sol\":16391:16426  _safeTransfer(_token1, to, amount1) */\n      tag_221\n        /* \"contracts/uniswapv2/Core.sol\":16405:16412  _token1 */\n      dup7\n        /* \"contracts/uniswapv2/Core.sol\":16414:16416  to */\n      dup14\n        /* \"contracts/uniswapv2/Core.sol\":16418:16425  amount1 */\n      dup13\n        /* \"contracts/uniswapv2/Core.sol\":16391:16404  _safeTransfer */\n      tag_125\n        /* \"contracts/uniswapv2/Core.sol\":16391:16426  _safeTransfer(_token1, to, amount1) */\n      jump\t// in\n    tag_221:\n        /* \"contracts/uniswapv2/Core.sol\":16447:16487  IERC20(_token0).balanceOf(address(this)) */\n      0x40\n      dup1\n      mload\n      shl(0xe0, 0x70a08231)\n      dup2\n      mstore\n        /* \"contracts/uniswapv2/Core.sol\":16481:16485  this */\n      address\n        /* \"contracts/uniswapv2/Core.sol\":16447:16487  IERC20(_token0).balanceOf(address(this)) */\n      0x04\n      dup3\n      add\n      mstore\n      swap1\n      mload\n      sub(shl(0xa0, 0x01), 0x01)\n        /* \"contracts/uniswapv2/Core.sol\":16447:16472  IERC20(_token0).balanceOf */\n      dup10\n      and\n      swap2\n      0x70a08231\n      swap2\n        /* \"contracts/uniswapv2/Core.sol\":16447:16487  IERC20(_token0).balanceOf(address(this)) */\n      0x24\n      dup1\n      dup4\n      add\n      swap3\n      0x20\n      swap3\n      swap2\n      swap1\n      dup3\n      swap1\n      sub\n      add\n      dup2\n        /* \"contracts/uniswapv2/Core.sol\":16447:16472  IERC20(_token0).balanceOf */\n      dup7\n        /* \"contracts/uniswapv2/Core.sol\":16447:16487  IERC20(_token0).balanceOf(address(this)) */\n      dup1\n      extcodesize\n      iszero\n        /* \"--CODEGEN--\":5:7   */\n      dup1\n      iszero\n      tag_222\n      jumpi\n        /* \"--CODEGEN--\":30:31   */\n      0x00\n        /* \"--CODEGEN--\":27:28   */\n      dup1\n        /* \"--CODEGEN--\":20:32   */\n      revert\n        /* \"--CODEGEN--\":5:7   */\n    tag_222:\n        /* \"contracts/uniswapv2/Core.sol\":16447:16487  IERC20(_token0).balanceOf(address(this)) */\n      pop\n      gas\n      staticcall\n      iszero\n        /* \"--CODEGEN--\":8:17   */\n      dup1\n        /* \"--CODEGEN--\":5:7   */\n      iszero\n      tag_223\n      jumpi\n        /* \"--CODEGEN--\":45:61   */\n      returndatasize\n        /* \"--CODEGEN--\":42:43   */\n      0x00\n        /* \"--CODEGEN--\":39:40   */\n      dup1\n        /* \"--CODEGEN--\":24:62   */\n      returndatacopy\n        /* \"--CODEGEN--\":77:93   */\n      returndatasize\n        /* \"--CODEGEN--\":74:75   */\n      0x00\n        /* \"--CODEGEN--\":67:94   */\n      revert\n        /* \"--CODEGEN--\":5:7   */\n    tag_223:\n        /* \"contracts/uniswapv2/Core.sol\":16447:16487  IERC20(_token0).balanceOf(address(this)) */\n      pop\n      pop\n      pop\n      pop\n      mload(0x40)\n      returndatasize\n        /* \"--CODEGEN--\":13:15   */\n      0x20\n        /* \"--CODEGEN--\":8:11   */\n      dup2\n        /* \"--CODEGEN--\":5:16   */\n      lt\n        /* \"--CODEGEN--\":2:4   */\n      iszero\n      tag_224\n      jumpi\n        /* \"--CODEGEN--\":29:30   */\n      0x00\n        /* \"--CODEGEN--\":26:27   */\n      dup1\n        /* \"--CODEGEN--\":19:31   */\n      revert\n        /* \"--CODEGEN--\":2:4   */\n    tag_224:\n      pop\n        /* \"contracts/uniswapv2/Core.sol\":16447:16487  IERC20(_token0).balanceOf(address(this)) */\n      mload\n        /* \"contracts/uniswapv2/Core.sol\":16508:16548  IERC20(_token1).balanceOf(address(this)) */\n      0x40\n      dup1\n      mload\n      shl(0xe0, 0x70a08231)\n      dup2\n      mstore\n        /* \"contracts/uniswapv2/Core.sol\":16542:16546  this */\n      address\n        /* \"contracts/uniswapv2/Core.sol\":16508:16548  IERC20(_token1).balanceOf(address(this)) */\n      0x04\n      dup3\n      add\n      mstore\n      swap1\n      mload\n        /* \"contracts/uniswapv2/Core.sol\":16447:16487  IERC20(_token0).balanceOf(address(this)) */\n      swap2\n      swap7\n      pop\n      sub(shl(0xa0, 0x01), 0x01)\n        /* \"contracts/uniswapv2/Core.sol\":16508:16533  IERC20(_token1).balanceOf */\n      dup9\n      and\n      swap2\n      0x70a08231\n      swap2\n        /* \"contracts/uniswapv2/Core.sol\":16508:16548  IERC20(_token1).balanceOf(address(this)) */\n      0x24\n      dup1\n      dup3\n      add\n      swap3\n        /* \"contracts/uniswapv2/Core.sol\":16447:16487  IERC20(_token0).balanceOf(address(this)) */\n      0x20\n      swap3\n        /* \"contracts/uniswapv2/Core.sol\":16508:16548  IERC20(_token1).balanceOf(address(this)) */\n      swap1\n      swap2\n      swap1\n      dup3\n      swap1\n      sub\n      add\n      dup2\n        /* \"contracts/uniswapv2/Core.sol\":16508:16533  IERC20(_token1).balanceOf */\n      dup7\n        /* \"contracts/uniswapv2/Core.sol\":16508:16548  IERC20(_token1).balanceOf(address(this)) */\n      dup1\n      extcodesize\n      iszero\n        /* \"--CODEGEN--\":5:7   */\n      dup1\n      iszero\n      tag_225\n      jumpi\n        /* \"--CODEGEN--\":30:31   */\n      0x00\n        /* \"--CODEGEN--\":27:28   */\n      dup1\n        /* \"--CODEGEN--\":20:32   */\n      revert\n        /* \"--CODEGEN--\":5:7   */\n    tag_225:\n        /* \"contracts/uniswapv2/Core.sol\":16508:16548  IERC20(_token1).balanceOf(address(this)) */\n      pop\n      gas\n      staticcall\n      iszero\n        /* \"--CODEGEN--\":8:17   */\n      dup1\n        /* \"--CODEGEN--\":5:7   */\n      iszero\n      tag_226\n      jumpi\n        /* \"--CODEGEN--\":45:61   */\n      returndatasize\n        /* \"--CODEGEN--\":42:43   */\n      0x00\n        /* \"--CODEGEN--\":39:40   */\n      dup1\n        /* \"--CODEGEN--\":24:62   */\n      returndatacopy\n        /* \"--CODEGEN--\":77:93   */\n      returndatasize\n        /* \"--CODEGEN--\":74:75   */\n      0x00\n        /* \"--CODEGEN--\":67:94   */\n      revert\n        /* \"--CODEGEN--\":5:7   */\n    tag_226:\n        /* \"contracts/uniswapv2/Core.sol\":16508:16548  IERC20(_token1).balanceOf(address(this)) */\n      pop\n      pop\n      pop\n      pop\n      mload(0x40)\n      returndatasize\n        /* \"--CODEGEN--\":13:15   */\n      0x20\n        /* \"--CODEGEN--\":8:11   */\n      dup2\n        /* \"--CODEGEN--\":5:16   */\n      lt\n        /* \"--CODEGEN--\":2:4   */\n      iszero\n      tag_227\n      jumpi\n        /* \"--CODEGEN--\":29:30   */\n      0x00\n        /* \"--CODEGEN--\":26:27   */\n      dup1\n        /* \"--CODEGEN--\":19:31   */\n      revert\n        /* \"--CODEGEN--\":2:4   */\n    tag_227:\n      pop\n        /* \"contracts/uniswapv2/Core.sol\":16508:16548  IERC20(_token1).balanceOf(address(this)) */\n      mload\n      swap4\n      pop\n        /* \"contracts/uniswapv2/Core.sol\":16559:16608  _update(balance0, balance1, _reserve0, _reserve1) */\n      tag_228\n        /* \"contracts/uniswapv2/Core.sol\":16567:16575  balance0 */\n      dup6\n        /* \"contracts/uniswapv2/Core.sol\":16508:16548  IERC20(_token1).balanceOf(address(this)) */\n      dup6\n        /* \"contracts/uniswapv2/Core.sol\":16587:16596  _reserve0 */\n      dup12\n        /* \"contracts/uniswapv2/Core.sol\":16598:16607  _reserve1 */\n      dup12\n        /* \"contracts/uniswapv2/Core.sol\":16559:16566  _update */\n      tag_156\n        /* \"contracts/uniswapv2/Core.sol\":16559:16608  _update(balance0, balance1, _reserve0, _reserve1) */\n      jump\t// in\n    tag_228:\n        /* \"contracts/uniswapv2/Core.sol\":16622:16627  feeOn */\n      dup2\n        /* \"contracts/uniswapv2/Core.sol\":16618:16665  if (feeOn) kLast = uint(reserve0).mul(reserve1) */\n      iszero\n      tag_229\n      jumpi\n        /* \"contracts/uniswapv2/Core.sol\":16656:16664  reserve1 */\n      sload(0x08)\n        /* \"contracts/uniswapv2/Core.sol\":16637:16665  uint(reserve0).mul(reserve1) */\n      tag_230\n      swap1\n      sub(shl(0x70, 0x01), 0x01)\n        /* \"contracts/uniswapv2/Core.sol\":16642:16650  reserve0 */\n      dup1\n      dup3\n      and\n      swap2\n      shl(0x70, 0x01)\n        /* \"contracts/uniswapv2/Core.sol\":16656:16664  reserve1 */\n      swap1\n      div\n      and\n        /* \"contracts/uniswapv2/Core.sol\":16637:16655  uint(reserve0).mul */\n      tag_145\n        /* \"contracts/uniswapv2/Core.sol\":16637:16665  uint(reserve0).mul(reserve1) */\n      jump\t// in\n    tag_230:\n        /* \"contracts/uniswapv2/Core.sol\":16629:16634  kLast */\n      0x0b\n        /* \"contracts/uniswapv2/Core.sol\":16629:16665  kLast = uint(reserve0).mul(reserve1) */\n      sstore\n        /* \"contracts/uniswapv2/Core.sol\":16618:16665  if (feeOn) kLast = uint(reserve0).mul(reserve1) */\n    tag_229:\n        /* \"contracts/uniswapv2/Core.sol\":16720:16758  Burn(msg.sender, amount0, amount1, to) */\n      0x40\n      dup1\n      mload\n      dup13\n      dup2\n      mstore\n      0x20\n      dup2\n      add\n      dup13\n      swap1\n      mstore\n      dup2\n      mload\n      sub(shl(0xa0, 0x01), 0x01)\n      dup16\n      and\n      swap3\n        /* \"contracts/uniswapv2/Core.sol\":16725:16735  msg.sender */\n      caller\n      swap3\n        /* \"contracts/uniswapv2/Core.sol\":16720:16758  Burn(msg.sender, amount0, amount1, to) */\n      0xdccd412f0b1252819cb1fd330b93224ca42612892bb3f4f789976e6d81936496\n      swap3\n      swap1\n      dup2\n      swap1\n      sub\n      swap1\n      swap2\n      add\n      swap1\n      log3\n        /* \"contracts/uniswapv2/Core.sol\":10412:10413  _ */\n      pop\n      pop\n      pop\n      pop\n      pop\n      pop\n      pop\n      pop\n      pop\n        /* \"contracts/uniswapv2/Core.sol\":10434:10435  1 */\n      0x01\n        /* \"contracts/uniswapv2/Core.sol\":10423:10431  unlocked */\n      0x0c\n        /* \"contracts/uniswapv2/Core.sol\":10423:10435  unlocked = 1 */\n      dup2\n      swap1\n      sstore\n      pop\n        /* \"contracts/uniswapv2/Core.sol\":15334:16765  function burn(... */\n      swap2\n      pop\n      swap2\n      jump\t// out\n        /* \"contracts/uniswapv2/Core.sol\":5857:5897  string public constant symbol = \"UNI-V2\" */\n    tag_88:\n      0x40\n      dup1\n      mload\n      dup1\n      dup3\n      add\n      swap1\n      swap2\n      mstore\n      0x06\n      dup2\n      mstore\n      shl(0xd1, 0x2aa72496ab19)\n      0x20\n      dup3\n      add\n      mstore\n      dup2\n      jump\t// out\n        /* \"contracts/uniswapv2/Core.sol\":7997:8133  function transfer(address to, uint value) external returns (bool) {... */\n    tag_95:\n        /* \"contracts/uniswapv2/Core.sol\":8057:8061  bool */\n      0x00\n        /* \"contracts/uniswapv2/Core.sol\":8073:8105  _transfer(msg.sender, to, value) */\n      tag_159\n        /* \"contracts/uniswapv2/Core.sol\":8083:8093  msg.sender */\n      caller\n        /* \"contracts/uniswapv2/Core.sol\":8095:8097  to */\n      dup5\n        /* \"contracts/uniswapv2/Core.sol\":8099:8104  value */\n      dup5\n        /* \"contracts/uniswapv2/Core.sol\":8073:8082  _transfer */\n      tag_165\n        /* \"contracts/uniswapv2/Core.sol\":8073:8105  _transfer(msg.sender, to, value) */\n      jump\t// in\n        /* \"contracts/uniswapv2/Core.sol\":9592:9640  uint public constant MINIMUM_LIQUIDITY = 10 ** 3 */\n    tag_97:\n        /* \"contracts/uniswapv2/Core.sol\":9633:9640  10 ** 3 */\n      0x03e8\n        /* \"contracts/uniswapv2/Core.sol\":9592:9640  uint public constant MINIMUM_LIQUIDITY = 10 ** 3 */\n      dup2\n      jump\t// out\n        /* \"contracts/uniswapv2/Core.sol\":19220:19641  function skim(address to) external lock {... */\n    tag_100:\n        /* \"contracts/uniswapv2/Core.sol\":10345:10353  unlocked */\n      sload(0x0c)\n        /* \"contracts/uniswapv2/Core.sol\":10357:10358  1 */\n      0x01\n        /* \"contracts/uniswapv2/Core.sol\":10345:10358  unlocked == 1 */\n      eq\n        /* \"contracts/uniswapv2/Core.sol\":10337:10380  require(unlocked == 1, \"UniswapV2: LOCKED\") */\n      tag_234\n      jumpi\n      0x40\n      dup1\n      mload\n      shl(0xe5, 0x461bcd)\n      dup2\n      mstore\n      0x20\n      0x04\n      dup3\n      add\n      mstore\n      0x11\n      0x24\n      dup3\n      add\n      mstore\n      shl(0x7a, 0x155b9a5cddd85c158c8e881313d0d2d151)\n      0x44\n      dup3\n      add\n      mstore\n      swap1\n      mload\n      swap1\n      dup2\n      swap1\n      sub\n      0x64\n      add\n      swap1\n      revert\n    tag_234:\n        /* \"contracts/uniswapv2/Core.sol\":10401:10402  0 */\n      0x00\n        /* \"contracts/uniswapv2/Core.sol\":10390:10398  unlocked */\n      0x0c\n        /* \"contracts/uniswapv2/Core.sol\":10390:10402  unlocked = 0 */\n      sstore\n        /* \"contracts/uniswapv2/Core.sol\":19288:19294  token0 */\n      sload(0x06)\n        /* \"contracts/uniswapv2/Core.sol\":19337:19343  token1 */\n      sload(0x07)\n        /* \"contracts/uniswapv2/Core.sol\":19477:19485  reserve0 */\n      sload(0x08)\n        /* \"contracts/uniswapv2/Core.sol\":19432:19472  IERC20(_token0).balanceOf(address(this)) */\n      0x40\n      dup1\n      mload\n      shl(0xe0, 0x70a08231)\n      dup2\n      mstore\n        /* \"contracts/uniswapv2/Core.sol\":19466:19470  this */\n      address\n        /* \"contracts/uniswapv2/Core.sol\":19432:19472  IERC20(_token0).balanceOf(address(this)) */\n      0x04\n      dup3\n      add\n      mstore\n      swap1\n      mload\n      sub(shl(0xa0, 0x01), 0x01)\n        /* \"contracts/uniswapv2/Core.sol\":19288:19294  token0 */\n      swap5\n      dup6\n      and\n      swap5\n        /* \"contracts/uniswapv2/Core.sol\":19337:19343  token1 */\n      swap1\n      swap4\n      and\n      swap3\n        /* \"contracts/uniswapv2/Core.sol\":19368:19496  _safeTransfer(... */\n      tag_236\n      swap3\n        /* \"contracts/uniswapv2/Core.sol\":19288:19294  token0 */\n      dup6\n      swap3\n        /* \"contracts/uniswapv2/Core.sol\":19416:19418  to */\n      dup8\n      swap3\n        /* \"contracts/uniswapv2/Core.sol\":19432:19486  IERC20(_token0).balanceOf(address(this)).sub(reserve0) */\n      tag_237\n      swap3\n      sub(shl(0x70, 0x01), 0x01)\n        /* \"contracts/uniswapv2/Core.sol\":19477:19485  reserve0 */\n      and\n      swap2\n        /* \"contracts/uniswapv2/Core.sol\":19288:19294  token0 */\n      dup6\n      swap2\n      0x70a08231\n      swap2\n        /* \"contracts/uniswapv2/Core.sol\":19432:19472  IERC20(_token0).balanceOf(address(this)) */\n      0x24\n      dup1\n      dup3\n      add\n      swap3\n      0x20\n      swap3\n      swap1\n      swap2\n      swap1\n      dup3\n      swap1\n      sub\n      add\n      dup2\n        /* \"contracts/uniswapv2/Core.sol\":19288:19294  token0 */\n      dup7\n        /* \"contracts/uniswapv2/Core.sol\":19432:19472  IERC20(_token0).balanceOf(address(this)) */\n      dup1\n      extcodesize\n      iszero\n        /* \"--CODEGEN--\":5:7   */\n      dup1\n      iszero\n      tag_238\n      jumpi\n        /* \"--CODEGEN--\":30:31   */\n      0x00\n        /* \"--CODEGEN--\":27:28   */\n      dup1\n        /* \"--CODEGEN--\":20:32   */\n      revert\n        /* \"--CODEGEN--\":5:7   */\n    tag_238:\n        /* \"contracts/uniswapv2/Core.sol\":19432:19472  IERC20(_token0).balanceOf(address(this)) */\n      pop\n      gas\n      staticcall\n      iszero\n        /* \"--CODEGEN--\":8:17   */\n      dup1\n        /* \"--CODEGEN--\":5:7   */\n      iszero\n      tag_239\n      jumpi\n        /* \"--CODEGEN--\":45:61   */\n      returndatasize\n        /* \"--CODEGEN--\":42:43   */\n      0x00\n        /* \"--CODEGEN--\":39:40   */\n      dup1\n        /* \"--CODEGEN--\":24:62   */\n      returndatacopy\n        /* \"--CODEGEN--\":77:93   */\n      returndatasize\n        /* \"--CODEGEN--\":74:75   */\n      0x00\n        /* \"--CODEGEN--\":67:94   */\n      revert\n        /* \"--CODEGEN--\":5:7   */\n    tag_239:\n        /* \"contracts/uniswapv2/Core.sol\":19432:19472  IERC20(_token0).balanceOf(address(this)) */\n      pop\n      pop\n      pop\n      pop\n      mload(0x40)\n      returndatasize\n        /* \"--CODEGEN--\":13:15   */\n      0x20\n        /* \"--CODEGEN--\":8:11   */\n      dup2\n        /* \"--CODEGEN--\":5:16   */\n      lt\n        /* \"--CODEGEN--\":2:4   */\n      iszero\n      tag_240\n      jumpi\n        /* \"--CODEGEN--\":29:30   */\n      0x00\n        /* \"--CODEGEN--\":26:27   */\n      dup1\n        /* \"--CODEGEN--\":19:31   */\n      revert\n        /* \"--CODEGEN--\":2:4   */\n    tag_240:\n      pop\n        /* \"contracts/uniswapv2/Core.sol\":19432:19472  IERC20(_token0).balanceOf(address(this)) */\n      mload\n      swap1\n        /* \"contracts/uniswapv2/Core.sol\":19432:19486  IERC20(_token0).balanceOf(address(this)).sub(reserve0) */\n      0xffffffff\n        /* \"contracts/uniswapv2/Core.sol\":19432:19476  IERC20(_token0).balanceOf(address(this)).sub */\n      tag_147\n        /* \"contracts/uniswapv2/Core.sol\":19432:19486  IERC20(_token0).balanceOf(address(this)).sub(reserve0) */\n      and\n      jump\t// in\n    tag_237:\n        /* \"contracts/uniswapv2/Core.sol\":19368:19381  _safeTransfer */\n      tag_125\n        /* \"contracts/uniswapv2/Core.sol\":19368:19496  _safeTransfer(... */\n      jump\t// in\n    tag_236:\n        /* \"contracts/uniswapv2/Core.sol\":19615:19623  reserve1 */\n      sload(0x08)\n        /* \"contracts/uniswapv2/Core.sol\":19570:19610  IERC20(_token1).balanceOf(address(this)) */\n      0x40\n      dup1\n      mload\n      shl(0xe0, 0x70a08231)\n      dup2\n      mstore\n        /* \"contracts/uniswapv2/Core.sol\":19604:19608  this */\n      address\n        /* \"contracts/uniswapv2/Core.sol\":19570:19610  IERC20(_token1).balanceOf(address(this)) */\n      0x04\n      dup3\n      add\n      mstore\n      swap1\n      mload\n        /* \"contracts/uniswapv2/Core.sol\":19506:19634  _safeTransfer(... */\n      tag_241\n      swap3\n        /* \"contracts/uniswapv2/Core.sol\":19533:19540  _token1 */\n      dup5\n      swap3\n        /* \"contracts/uniswapv2/Core.sol\":19554:19556  to */\n      dup8\n      swap3\n        /* \"contracts/uniswapv2/Core.sol\":19570:19624  IERC20(_token1).balanceOf(address(this)).sub(reserve1) */\n      tag_237\n      swap3\n      shl(0x70, 0x01)\n        /* \"contracts/uniswapv2/Core.sol\":19615:19623  reserve1 */\n      swap1\n      div\n      sub(shl(0x70, 0x01), 0x01)\n      and\n      swap2\n      sub(shl(0xa0, 0x01), 0x01)\n        /* \"contracts/uniswapv2/Core.sol\":19570:19595  IERC20(_token1).balanceOf */\n      dup7\n      and\n      swap2\n      0x70a08231\n      swap2\n        /* \"contracts/uniswapv2/Core.sol\":19570:19610  IERC20(_token1).balanceOf(address(this)) */\n      0x24\n      dup1\n      dup3\n      add\n      swap3\n      0x20\n      swap3\n      swap1\n      swap2\n      swap1\n      dup3\n      swap1\n      sub\n      add\n      dup2\n        /* \"contracts/uniswapv2/Core.sol\":19570:19595  IERC20(_token1).balanceOf */\n      dup7\n        /* \"contracts/uniswapv2/Core.sol\":19570:19610  IERC20(_token1).balanceOf(address(this)) */\n      dup1\n      extcodesize\n      iszero\n        /* \"--CODEGEN--\":5:7   */\n      dup1\n      iszero\n      tag_238\n      jumpi\n        /* \"--CODEGEN--\":30:31   */\n      0x00\n        /* \"--CODEGEN--\":27:28   */\n      dup1\n        /* \"--CODEGEN--\":20:32   */\n      revert\n        /* \"contracts/uniswapv2/Core.sol\":19506:19634  _safeTransfer(... */\n    tag_241:\n      pop\n      pop\n        /* \"contracts/uniswapv2/Core.sol\":10434:10435  1 */\n      0x01\n        /* \"contracts/uniswapv2/Core.sol\":10423:10431  unlocked */\n      0x0c\n        /* \"contracts/uniswapv2/Core.sol\":10423:10435  unlocked = 1 */\n      sstore\n      pop\n        /* \"contracts/uniswapv2/Core.sol\":19220:19641  function skim(address to) external lock {... */\n      jump\t// out\n        /* \"contracts/uniswapv2/Core.sol\":9749:9771  address public factory */\n    tag_102:\n      and(sub(shl(0xa0, 0x01), 0x01), sload(0x05))\n      dup2\n      jump\t// out\n        /* \"contracts/uniswapv2/Core.sol\":9804:9825  address public token1 */\n    tag_104:\n      and(sub(shl(0xa0, 0x01), 0x01), sload(0x07))\n      dup2\n      jump\t// out\n        /* \"contracts/uniswapv2/Core.sol\":8500:9462  function permit(... */\n    tag_107:\n        /* \"contracts/uniswapv2/Core.sol\":8707:8722  block.timestamp */\n      timestamp\n        /* \"contracts/uniswapv2/Core.sol\":8695:8703  deadline */\n      dup5\n        /* \"contracts/uniswapv2/Core.sol\":8695:8722  deadline >= block.timestamp */\n      lt\n      iszero\n        /* \"contracts/uniswapv2/Core.sol\":8687:8745  require(deadline >= block.timestamp, \"UniswapV2: EXPIRED\") */\n      tag_247\n      jumpi\n      0x40\n      dup1\n      mload\n      shl(0xe5, 0x461bcd)\n      dup2\n      mstore\n      0x20\n      0x04\n      dup3\n      add\n      mstore\n      0x12\n      0x24\n      dup3\n      add\n      mstore\n      shl(0x72, 0x155b9a5cddd85c158c8e8811561412549151)\n      0x44\n      dup3\n      add\n      mstore\n      swap1\n      mload\n      swap1\n      dup2\n      swap1\n      sub\n      0x64\n      add\n      swap1\n      revert\n    tag_247:\n        /* \"contracts/uniswapv2/Core.sol\":8857:8873  DOMAIN_SEPARATOR */\n      sload(0x03)\n      sub(shl(0xa0, 0x01), 0x01)\n        /* \"contracts/uniswapv2/Core.sol\":9094:9107  nonces[owner] */\n      dup9\n      dup2\n      and\n        /* \"contracts/uniswapv2/Core.sol\":8755:8769  bytes32 digest */\n      0x00\n        /* \"contracts/uniswapv2/Core.sol\":9094:9107  nonces[owner] */\n      dup2\n      dup2\n      mstore\n        /* \"contracts/uniswapv2/Core.sol\":9094:9100  nonces */\n      0x04\n        /* \"contracts/uniswapv2/Core.sol\":9094:9107  nonces[owner] */\n      0x20\n      swap1\n      dup2\n      mstore\n      0x40\n      dup1\n      dup4\n      keccak256\n        /* \"contracts/uniswapv2/Core.sol\":9094:9109  nonces[owner]++ */\n      dup1\n      sload\n      0x01\n      dup2\n      dup2\n      add\n      swap1\n      swap3\n      sstore\n        /* \"contracts/uniswapv2/Core.sol\":8922:9165  abi.encode(... */\n      dup3\n      mload\n        /* \"contracts/uniswapv2/Core.sol\":6279:6345  0x6e71edae12b1b97f4d1f60370fef10105fa2faae0126114a169c64845d6126c9 */\n      0x6e71edae12b1b97f4d1f60370fef10105fa2faae0126114a169c64845d6126c9\n        /* \"contracts/uniswapv2/Core.sol\":8922:9165  abi.encode(... */\n      dup2\n      dup7\n      add\n      mstore\n      dup1\n      dup5\n      add\n      swap7\n      swap1\n      swap7\n      mstore\n      swap6\n      dup14\n      and\n      0x60\n      dup7\n      add\n      mstore\n      0x80\n      dup6\n      add\n      dup13\n      swap1\n      mstore\n      0xa0\n      dup6\n      add\n      swap6\n      swap1\n      swap6\n      mstore\n      0xc0\n      dup1\n      dup6\n      add\n      dup12\n      swap1\n      mstore\n      dup2\n      mload\n        /* \"--CODEGEN--\":26:47   */\n      dup1\n      dup7\n      sub\n        /* \"--CODEGEN--\":22:54   */\n      swap1\n      swap2\n      add\n        /* \"--CODEGEN--\":6:55   */\n      dup2\n      mstore\n        /* \"contracts/uniswapv2/Core.sol\":8922:9165  abi.encode(... */\n      0xe0\n      dup6\n      add\n      dup3\n      mstore\n        /* \"contracts/uniswapv2/Core.sol\":8891:9183  keccak256(... */\n      dup1\n      mload\n      swap1\n      dup4\n      add\n      keccak256\n      shl(0xf0, 0x1901)\n        /* \"contracts/uniswapv2/Core.sol\":8795:9197  abi.encodePacked(... */\n      0x0100\n      dup7\n      add\n      mstore\n      0x0102\n      dup6\n      add\n      swap7\n      swap1\n      swap7\n      mstore\n      0x0122\n      dup1\n      dup6\n      add\n      swap7\n      swap1\n      swap7\n      mstore\n      dup1\n      mload\n        /* \"--CODEGEN--\":26:47   */\n      dup1\n      dup6\n      sub\n        /* \"--CODEGEN--\":22:54   */\n      swap1\n      swap7\n      add\n        /* \"--CODEGEN--\":6:55   */\n      dup7\n      mstore\n        /* \"contracts/uniswapv2/Core.sol\":8795:9197  abi.encodePacked(... */\n      0x0142\n      dup5\n      add\n      dup1\n      dup3\n      mstore\n        /* \"contracts/uniswapv2/Core.sol\":8772:9207  keccak256(... */\n      dup7\n      mload\n      swap7\n      dup4\n      add\n      swap7\n      swap1\n      swap7\n      keccak256\n        /* \"contracts/uniswapv2/Core.sol\":9244:9270  ecrecover(digest, v, r, s) */\n      swap6\n      dup4\n      swap1\n      mstore\n      0x0162\n      dup5\n      add\n      dup1\n      dup3\n      mstore\n      dup7\n      swap1\n      mstore\n      0xff\n      dup10\n      and\n      0x0182\n      dup6\n      add\n      mstore\n      0x01a2\n      dup5\n      add\n      dup9\n      swap1\n      mstore\n      0x01c2\n      dup5\n      add\n      dup8\n      swap1\n      mstore\n      mload\n        /* \"contracts/uniswapv2/Core.sol\":8755:8769  bytes32 digest */\n      swap2\n      swap4\n      swap3\n        /* \"contracts/uniswapv2/Core.sol\":9244:9270  ecrecover(digest, v, r, s) */\n      0x01e2\n      dup1\n      dup3\n      add\n      swap4\n      not(0x1f)\n      dup2\n      add\n      swap3\n      dup2\n      swap1\n      sub\n      swap1\n      swap2\n      add\n      swap1\n      dup6\n      gas\n      staticcall\n      iszero\n        /* \"--CODEGEN--\":8:17   */\n      dup1\n        /* \"--CODEGEN--\":5:7   */\n      iszero\n      tag_248\n      jumpi\n        /* \"--CODEGEN--\":45:61   */\n      returndatasize\n        /* \"--CODEGEN--\":42:43   */\n      0x00\n        /* \"--CODEGEN--\":39:40   */\n      dup1\n        /* \"--CODEGEN--\":24:62   */\n      returndatacopy\n        /* \"--CODEGEN--\":77:93   */\n      returndatasize\n        /* \"--CODEGEN--\":74:75   */\n      0x00\n        /* \"--CODEGEN--\":67:94   */\n      revert\n        /* \"--CODEGEN--\":5:7   */\n    tag_248:\n      pop\n      pop\n        /* \"contracts/uniswapv2/Core.sol\":9244:9270  ecrecover(digest, v, r, s) */\n      mload(add(not(0x1f), mload(0x40)))\n      swap2\n      pop\n      pop\n      sub(shl(0xa0, 0x01), 0x01)\n        /* \"contracts/uniswapv2/Core.sol\":9301:9331  recoveredAddress != address(0) */\n      dup2\n      and\n      iszero\n      dup1\n      iszero\n      swap1\n        /* \"contracts/uniswapv2/Core.sol\":9301:9360  recoveredAddress != address(0) && recoveredAddress == owner */\n      tag_249\n      jumpi\n      pop\n      sub(shl(0xa0, 0x01), 0x01)\n        /* \"contracts/uniswapv2/Core.sol\":9335:9360  recoveredAddress == owner */\n      dup2\n      dup2\n      and\n      swap1\n      dup11\n      and\n      eq\n        /* \"contracts/uniswapv2/Core.sol\":9301:9360  recoveredAddress != address(0) && recoveredAddress == owner */\n    tag_249:\n        /* \"contracts/uniswapv2/Core.sol\":9280:9414  require(... */\n      tag_250\n      jumpi\n      0x40\n      dup1\n      mload\n      shl(0xe5, 0x461bcd)\n      dup2\n      mstore\n      0x20\n      0x04\n      dup3\n      add\n      mstore\n      0x1c\n      0x24\n      dup3\n      add\n      mstore\n      0x556e697377617056323a20494e56414c49445f5349474e415455524500000000\n      0x44\n      dup3\n      add\n      mstore\n      swap1\n      mload\n      swap1\n      dup2\n      swap1\n      sub\n      0x64\n      add\n      swap1\n      revert\n    tag_250:\n        /* \"contracts/uniswapv2/Core.sol\":9424:9455  _approve(owner, spender, value) */\n      tag_251\n        /* \"contracts/uniswapv2/Core.sol\":9433:9438  owner */\n      dup10\n        /* \"contracts/uniswapv2/Core.sol\":9440:9447  spender */\n      dup10\n        /* \"contracts/uniswapv2/Core.sol\":9449:9454  value */\n      dup10\n        /* \"contracts/uniswapv2/Core.sol\":9424:9432  _approve */\n      tag_160\n        /* \"contracts/uniswapv2/Core.sol\":9424:9455  _approve(owner, spender, value) */\n      jump\t// in\n    tag_251:\n        /* \"contracts/uniswapv2/Core.sol\":8500:9462  function permit(... */\n      pop\n      pop\n      pop\n      pop\n      pop\n      pop\n      pop\n      pop\n      pop\n      jump\t// out\n        /* \"contracts/uniswapv2/Core.sol\":6020:6081  mapping(address => mapping(address => uint)) public allowance */\n    tag_110:\n      0x02\n      0x20\n      swap1\n      dup2\n      mstore\n      0x00\n      swap3\n      dup4\n      mstore\n      0x40\n      dup1\n      dup5\n      keccak256\n      swap1\n      swap2\n      mstore\n      swap1\n      dup3\n      mstore\n      swap1\n      keccak256\n      sload\n      dup2\n      jump\t// out\n        /* \"contracts/uniswapv2/Core.sol\":19687:19901  function sync() external lock {... */\n    tag_112:\n        /* \"contracts/uniswapv2/Core.sol\":10345:10353  unlocked */\n      sload(0x0c)\n        /* \"contracts/uniswapv2/Core.sol\":10357:10358  1 */\n      0x01\n        /* \"contracts/uniswapv2/Core.sol\":10345:10358  unlocked == 1 */\n      eq\n        /* \"contracts/uniswapv2/Core.sol\":10337:10380  require(unlocked == 1, \"UniswapV2: LOCKED\") */\n      tag_253\n      jumpi\n      0x40\n      dup1\n      mload\n      shl(0xe5, 0x461bcd)\n      dup2\n      mstore\n      0x20\n      0x04\n      dup3\n      add\n      mstore\n      0x11\n      0x24\n      dup3\n      add\n      mstore\n      shl(0x7a, 0x155b9a5cddd85c158c8e881313d0d2d151)\n      0x44\n      dup3\n      add\n      mstore\n      swap1\n      mload\n      swap1\n      dup2\n      swap1\n      sub\n      0x64\n      add\n      swap1\n      revert\n    tag_253:\n        /* \"contracts/uniswapv2/Core.sol\":10401:10402  0 */\n      0x00\n        /* \"contracts/uniswapv2/Core.sol\":10390:10398  unlocked */\n      0x0c\n        /* \"contracts/uniswapv2/Core.sol\":10390:10402  unlocked = 0 */\n      sstore\n        /* \"contracts/uniswapv2/Core.sol\":19755:19761  token0 */\n      sload(0x06)\n        /* \"contracts/uniswapv2/Core.sol\":19748:19787  IERC20(token0).balanceOf(address(this)) */\n      0x40\n      dup1\n      mload\n      shl(0xe0, 0x70a08231)\n      dup2\n      mstore\n        /* \"contracts/uniswapv2/Core.sol\":19781:19785  this */\n      address\n        /* \"contracts/uniswapv2/Core.sol\":19748:19787  IERC20(token0).balanceOf(address(this)) */\n      0x04\n      dup3\n      add\n      mstore\n      swap1\n      mload\n        /* \"contracts/uniswapv2/Core.sol\":19727:19894  _update(... */\n      tag_255\n      swap3\n      sub(shl(0xa0, 0x01), 0x01)\n        /* \"contracts/uniswapv2/Core.sol\":19755:19761  token0 */\n      and\n      swap2\n      0x70a08231\n      swap2\n        /* \"contracts/uniswapv2/Core.sol\":19748:19787  IERC20(token0).balanceOf(address(this)) */\n      0x24\n      dup1\n      dup4\n      add\n      swap3\n      0x20\n      swap3\n      swap2\n      swap1\n      dup3\n      swap1\n      sub\n      add\n      dup2\n        /* \"contracts/uniswapv2/Core.sol\":19755:19761  token0 */\n      dup7\n        /* \"contracts/uniswapv2/Core.sol\":19748:19787  IERC20(token0).balanceOf(address(this)) */\n      dup1\n      extcodesize\n      iszero\n        /* \"--CODEGEN--\":5:7   */\n      dup1\n      iszero\n      tag_256\n      jumpi\n        /* \"--CODEGEN--\":30:31   */\n      0x00\n        /* \"--CODEGEN--\":27:28   */\n      dup1\n        /* \"--CODEGEN--\":20:32   */\n      revert\n        /* \"--CODEGEN--\":5:7   */\n    tag_256:\n        /* \"contracts/uniswapv2/Core.sol\":19748:19787  IERC20(token0).balanceOf(address(this)) */\n      pop\n      gas\n      staticcall\n      iszero\n        /* \"--CODEGEN--\":8:17   */\n      dup1\n        /* \"--CODEGEN--\":5:7   */\n      iszero\n      tag_257\n      jumpi\n        /* \"--CODEGEN--\":45:61   */\n      returndatasize\n        /* \"--CODEGEN--\":42:43   */\n      0x00\n        /* \"--CODEGEN--\":39:40   */\n      dup1\n        /* \"--CODEGEN--\":24:62   */\n      returndatacopy\n        /* \"--CODEGEN--\":77:93   */\n      returndatasize\n        /* \"--CODEGEN--\":74:75   */\n      0x00\n        /* \"--CODEGEN--\":67:94   */\n      revert\n        /* \"--CODEGEN--\":5:7   */\n    tag_257:\n        /* \"contracts/uniswapv2/Core.sol\":19748:19787  IERC20(token0).balanceOf(address(this)) */\n      pop\n      pop\n      pop\n      pop\n      mload(0x40)\n      returndatasize\n        /* \"--CODEGEN--\":13:15   */\n      0x20\n        /* \"--CODEGEN--\":8:11   */\n      dup2\n        /* \"--CODEGEN--\":5:16   */\n      lt\n        /* \"--CODEGEN--\":2:4   */\n      iszero\n      tag_258\n      jumpi\n        /* \"--CODEGEN--\":29:30   */\n      0x00\n        /* \"--CODEGEN--\":26:27   */\n      dup1\n        /* \"--CODEGEN--\":19:31   */\n      revert\n        /* \"--CODEGEN--\":2:4   */\n    tag_258:\n      pop\n        /* \"contracts/uniswapv2/Core.sol\":19748:19787  IERC20(token0).balanceOf(address(this)) */\n      mload\n        /* \"contracts/uniswapv2/Core.sol\":19808:19814  token1 */\n      sload(0x07)\n        /* \"contracts/uniswapv2/Core.sol\":19801:19840  IERC20(token1).balanceOf(address(this)) */\n      0x40\n      dup1\n      mload\n      shl(0xe0, 0x70a08231)\n      dup2\n      mstore\n        /* \"contracts/uniswapv2/Core.sol\":19834:19838  this */\n      address\n        /* \"contracts/uniswapv2/Core.sol\":19801:19840  IERC20(token1).balanceOf(address(this)) */\n      0x04\n      dup3\n      add\n      mstore\n      swap1\n      mload\n      sub(shl(0xa0, 0x01), 0x01)\n        /* \"contracts/uniswapv2/Core.sol\":19808:19814  token1 */\n      swap1\n      swap3\n      and\n      swap2\n      0x70a08231\n      swap2\n        /* \"contracts/uniswapv2/Core.sol\":19801:19840  IERC20(token1).balanceOf(address(this)) */\n      0x24\n      dup1\n      dup3\n      add\n      swap3\n        /* \"contracts/uniswapv2/Core.sol\":19748:19787  IERC20(token0).balanceOf(address(this)) */\n      0x20\n      swap3\n        /* \"contracts/uniswapv2/Core.sol\":19801:19840  IERC20(token1).balanceOf(address(this)) */\n      swap1\n      swap2\n      swap1\n      dup3\n      swap1\n      sub\n      add\n      dup2\n        /* \"contracts/uniswapv2/Core.sol\":19808:19814  token1 */\n      dup7\n        /* \"contracts/uniswapv2/Core.sol\":19801:19840  IERC20(token1).balanceOf(address(this)) */\n      dup1\n      extcodesize\n      iszero\n        /* \"--CODEGEN--\":5:7   */\n      dup1\n      iszero\n      tag_259\n      jumpi\n        /* \"--CODEGEN--\":30:31   */\n      0x00\n        /* \"--CODEGEN--\":27:28   */\n      dup1\n        /* \"--CODEGEN--\":20:32   */\n      revert\n        /* \"--CODEGEN--\":5:7   */\n    tag_259:\n        /* \"contracts/uniswapv2/Core.sol\":19801:19840  IERC20(token1).balanceOf(address(this)) */\n      pop\n      gas\n      staticcall\n      iszero\n        /* \"--CODEGEN--\":8:17   */\n      dup1\n        /* \"--CODEGEN--\":5:7   */\n      iszero\n      tag_260\n      jumpi\n        /* \"--CODEGEN--\":45:61   */\n      returndatasize\n        /* \"--CODEGEN--\":42:43   */\n      0x00\n        /* \"--CODEGEN--\":39:40   */\n      dup1\n        /* \"--CODEGEN--\":24:62   */\n      returndatacopy\n        /* \"--CODEGEN--\":77:93   */\n      returndatasize\n        /* \"--CODEGEN--\":74:75   */\n      0x00\n        /* \"--CODEGEN--\":67:94   */\n      revert\n        /* \"--CODEGEN--\":5:7   */\n    tag_260:\n        /* \"contracts/uniswapv2/Core.sol\":19801:19840  IERC20(token1).balanceOf(address(this)) */\n      pop\n      pop\n      pop\n      pop\n      mload(0x40)\n      returndatasize\n        /* \"--CODEGEN--\":13:15   */\n      0x20\n        /* \"--CODEGEN--\":8:11   */\n      dup2\n        /* \"--CODEGEN--\":5:16   */\n      lt\n        /* \"--CODEGEN--\":2:4   */\n      iszero\n      tag_261\n      jumpi\n        /* \"--CODEGEN--\":29:30   */\n      0x00\n        /* \"--CODEGEN--\":26:27   */\n      dup1\n        /* \"--CODEGEN--\":19:31   */\n      revert\n        /* \"--CODEGEN--\":2:4   */\n    tag_261:\n      pop\n        /* \"contracts/uniswapv2/Core.sol\":19801:19840  IERC20(token1).balanceOf(address(this)) */\n      mload\n        /* \"contracts/uniswapv2/Core.sol\":19854:19862  reserve0 */\n      sload(0x08)\n      sub(shl(0x70, 0x01), 0x01)\n      dup1\n      dup3\n      and\n      swap2\n      shl(0x70, 0x01)\n        /* \"contracts/uniswapv2/Core.sol\":19876:19884  reserve1 */\n      swap1\n      div\n      and\n        /* \"contracts/uniswapv2/Core.sol\":19727:19734  _update */\n      tag_156\n        /* \"contracts/uniswapv2/Core.sol\":19727:19894  _update(... */\n      jump\t// in\n    tag_255:\n        /* \"contracts/uniswapv2/Core.sol\":10434:10435  1 */\n      0x01\n        /* \"contracts/uniswapv2/Core.sol\":10423:10431  unlocked */\n      0x0c\n        /* \"contracts/uniswapv2/Core.sol\":10423:10435  unlocked = 1 */\n      sstore\n        /* \"contracts/uniswapv2/Core.sol\":19687:19901  function sync() external lock {... */\n      jump\t// out\n        /* \"contracts/uniswapv2/Core.sol\":10755:11095  function _safeTransfer(address token, address to, uint value) private {... */\n    tag_125:\n        /* \"contracts/uniswapv2/Core.sol\":9706:9740  bytes(\"transfer(address,uint256)\") */\n      0x40\n      dup1\n      mload\n      dup1\n      dup3\n      add\n      dup3\n      mstore\n      0x19\n      dup2\n      mstore\n      0x7472616e7366657228616464726573732c75696e743235362900000000000000\n      0x20\n      swap2\n      dup3\n      add\n      mstore\n        /* \"contracts/uniswapv2/Core.sol\":10895:10938  abi.encodeWithSelector(SELECTOR, to, value) */\n      dup2\n      mload\n      sub(shl(0xa0, 0x01), 0x01)\n      dup6\n      dup2\n      and\n      0x24\n      dup4\n      add\n      mstore\n      0x44\n      dup1\n      dup4\n      add\n      dup7\n      swap1\n      mstore\n      dup5\n      mload\n        /* \"--CODEGEN--\":26:47   */\n      dup1\n      dup5\n      sub\n        /* \"--CODEGEN--\":22:54   */\n      swap1\n      swap2\n      add\n        /* \"--CODEGEN--\":6:55   */\n      dup2\n      mstore\n        /* \"contracts/uniswapv2/Core.sol\":10895:10938  abi.encodeWithSelector(SELECTOR, to, value) */\n      0x64\n      swap1\n      swap3\n      add\n      dup5\n      mstore\n        /* \"--CODEGEN--\":25:43   */\n      swap2\n      dup2\n      add\n        /* \"--CODEGEN--\":61:78   */\n      dup1\n      mload\n      sub(shl(0xe0, 0x01), 0x01)\n        /* \"--CODEGEN--\":182:197   */\n      and\n      shl(0xe0, 0xa9059cbb)\n        /* \"--CODEGEN--\":179:208   */\n      or\n        /* \"--CODEGEN--\":160:209   */\n      dup2\n      mstore\n        /* \"contracts/uniswapv2/Core.sol\":10871:10948  token.call(... */\n      swap3\n      mload\n      dup2\n      mload\n      0x00\n      swap5\n        /* \"contracts/uniswapv2/Core.sol\":10850:10867  bytes memory data */\n      0x60\n      swap5\n        /* \"contracts/uniswapv2/Core.sol\":10871:10881  token.call */\n      dup10\n      and\n      swap4\n        /* \"contracts/uniswapv2/Core.sol\":10895:10938  abi.encodeWithSelector(SELECTOR, to, value) */\n      swap3\n        /* \"contracts/uniswapv2/Core.sol\":10871:10948  token.call(... */\n      swap2\n      dup3\n      swap2\n        /* \"--CODEGEN--\":25:43   */\n      swap1\n        /* \"contracts/uniswapv2/Core.sol\":10871:10948  token.call(... */\n      dup1\n      dup4\n        /* \"--CODEGEN--\":25:43   */\n      dup4\n        /* \"--CODEGEN--\":36:189   */\n    tag_263:\n        /* \"--CODEGEN--\":66:68   */\n      0x20\n        /* \"--CODEGEN--\":61:64   */\n      dup4\n        /* \"--CODEGEN--\":58:69   */\n      lt\n        /* \"--CODEGEN--\":36:189   */\n      tag_265\n      jumpi\n        /* \"--CODEGEN--\":176:186   */\n      dup1\n      mload\n        /* \"--CODEGEN--\":164:187   */\n      dup3\n      mstore\n      not(0x1f)\n        /* \"--CODEGEN--\":139:151   */\n      swap1\n      swap3\n      add\n      swap2\n        /* \"--CODEGEN--\":98:100   */\n      0x20\n        /* \"--CODEGEN--\":89:101   */\n      swap2\n      dup3\n      add\n      swap2\n        /* \"--CODEGEN--\":114:126   */\n      add\n        /* \"--CODEGEN--\":36:189   */\n      jump(tag_263)\n    tag_265:\n        /* \"--CODEGEN--\":274:275   */\n      0x01\n        /* \"--CODEGEN--\":267:270   */\n      dup4\n        /* \"--CODEGEN--\":263:265   */\n      0x20\n        /* \"--CODEGEN--\":259:271   */\n      sub\n        /* \"--CODEGEN--\":254:257   */\n      0x0100\n        /* \"--CODEGEN--\":250:272   */\n      exp\n        /* \"--CODEGEN--\":246:276   */\n      sub\n        /* \"--CODEGEN--\":315:319   */\n      dup1\n        /* \"--CODEGEN--\":311:320   */\n      not\n        /* \"--CODEGEN--\":305:308   */\n      dup3\n        /* \"--CODEGEN--\":299:309   */\n      mload\n        /* \"--CODEGEN--\":295:321   */\n      and\n        /* \"--CODEGEN--\":356:360   */\n      dup2\n        /* \"--CODEGEN--\":350:353   */\n      dup5\n        /* \"--CODEGEN--\":344:354   */\n      mload\n        /* \"--CODEGEN--\":340:361   */\n      and\n        /* \"--CODEGEN--\":389:396   */\n      dup1\n        /* \"--CODEGEN--\":380:387   */\n      dup3\n        /* \"--CODEGEN--\":377:397   */\n      or\n        /* \"--CODEGEN--\":372:375   */\n      dup6\n        /* \"--CODEGEN--\":365:398   */\n      mstore\n        /* \"--CODEGEN--\":3:402   */\n      pop\n      pop\n      pop\n        /* \"contracts/uniswapv2/Core.sol\":10871:10948  token.call(... */\n      pop\n      pop\n      pop\n      swap1\n      pop\n      add\n      swap2\n      pop\n      pop\n      0x00\n      mload(0x40)\n      dup1\n      dup4\n      sub\n      dup2\n      0x00\n      dup7\n      gas\n      call\n      swap2\n      pop\n      pop\n      returndatasize\n        /* \"--CODEGEN--\":14:15   */\n      dup1\n        /* \"--CODEGEN--\":21:22   */\n      0x00\n        /* \"--CODEGEN--\":16:47   */\n      dup2\n      eq\n      tag_267\n      jumpi\n        /* \"--CODEGEN--\":75:79   */\n      0x40\n        /* \"--CODEGEN--\":69:80   */\n      mload\n        /* \"--CODEGEN--\":64:80   */\n      swap2\n      pop\n        /* \"--CODEGEN--\":144:148   */\n      0x1f\n        /* \"--CODEGEN--\":140:149   */\n      not\n        /* \"--CODEGEN--\":133:137   */\n      0x3f\n        /* \"--CODEGEN--\":115:131   */\n      returndatasize\n        /* \"--CODEGEN--\":111:138   */\n      add\n        /* \"--CODEGEN--\":107:150   */\n      and\n        /* \"--CODEGEN--\":104:105   */\n      dup3\n        /* \"--CODEGEN--\":100:151   */\n      add\n        /* \"--CODEGEN--\":94:98   */\n      0x40\n        /* \"--CODEGEN--\":87:152   */\n      mstore\n        /* \"--CODEGEN--\":169:185   */\n      returndatasize\n        /* \"--CODEGEN--\":166:167   */\n      dup3\n        /* \"--CODEGEN--\":159:186   */\n      mstore\n        /* \"--CODEGEN--\":225:241   */\n      returndatasize\n        /* \"--CODEGEN--\":222:223   */\n      0x00\n        /* \"--CODEGEN--\":215:219   */\n      0x20\n        /* \"--CODEGEN--\":212:213   */\n      dup5\n        /* \"--CODEGEN--\":208:220   */\n      add\n        /* \"--CODEGEN--\":193:242   */\n      returndatacopy\n        /* \"--CODEGEN--\":7:249   */\n      jump(tag_266)\n        /* \"--CODEGEN--\":16:47   */\n    tag_267:\n        /* \"--CODEGEN--\":36:40   */\n      0x60\n        /* \"--CODEGEN--\":31:40   */\n      swap2\n      pop\n        /* \"--CODEGEN--\":7:249   */\n    tag_266:\n      pop\n        /* \"contracts/uniswapv2/Core.sol\":10835:10948  (bool success, bytes memory data) = token.call(... */\n      swap2\n      pop\n      swap2\n      pop\n        /* \"contracts/uniswapv2/Core.sol\":10979:10986  success */\n      dup2\n        /* \"contracts/uniswapv2/Core.sol\":10979:11036  success && (data.length == 0 || abi.decode(data, (bool))) */\n      dup1\n      iszero\n      tag_269\n      jumpi\n      pop\n        /* \"contracts/uniswapv2/Core.sol\":10991:11002  data.length */\n      dup1\n      mload\n        /* \"contracts/uniswapv2/Core.sol\":10991:11007  data.length == 0 */\n      iszero\n      dup1\n        /* \"contracts/uniswapv2/Core.sol\":10991:11035  data.length == 0 || abi.decode(data, (bool)) */\n      tag_269\n      jumpi\n      pop\n        /* \"contracts/uniswapv2/Core.sol\":11022:11026  data */\n      dup1\n        /* \"contracts/uniswapv2/Core.sol\":11011:11035  abi.decode(data, (bool)) */\n      dup1\n      0x20\n      add\n      swap1\n      mload\n        /* \"--CODEGEN--\":13:15   */\n      0x20\n        /* \"--CODEGEN--\":8:11   */\n      dup2\n        /* \"--CODEGEN--\":5:16   */\n      lt\n        /* \"--CODEGEN--\":2:4   */\n      iszero\n      tag_270\n      jumpi\n        /* \"--CODEGEN--\":29:30   */\n      0x00\n        /* \"--CODEGEN--\":26:27   */\n      dup1\n        /* \"--CODEGEN--\":19:31   */\n      revert\n        /* \"--CODEGEN--\":2:4   */\n    tag_270:\n      pop\n        /* \"contracts/uniswapv2/Core.sol\":11011:11035  abi.decode(data, (bool)) */\n      mload\n        /* \"contracts/uniswapv2/Core.sol\":10991:11035  data.length == 0 || abi.decode(data, (bool)) */\n    tag_269:\n        /* \"contracts/uniswapv2/Core.sol\":10958:11088  require(... */\n      tag_271\n      jumpi\n      0x40\n      dup1\n      mload\n      shl(0xe5, 0x461bcd)\n      dup2\n      mstore\n      0x20\n      0x04\n      dup3\n      add\n      mstore\n      0x1a\n      0x24\n      dup3\n      add\n      mstore\n      0x556e697377617056323a205452414e534645525f4641494c4544000000000000\n      0x44\n      dup3\n      add\n      mstore\n      swap1\n      mload\n      swap1\n      dup2\n      swap1\n      sub\n      0x64\n      add\n      swap1\n      revert\n    tag_271:\n        /* \"contracts/uniswapv2/Core.sol\":10755:11095  function _safeTransfer(address token, address to, uint value) private {... */\n      pop\n      pop\n      pop\n      pop\n      pop\n      jump\t// out\n        /* \"contracts/uniswapv2/Core.sol\":22304:22444  function mul(uint x, uint y) internal pure returns (uint z) {... */\n    tag_145:\n        /* \"contracts/uniswapv2/Core.sol\":22356:22362  uint z */\n      0x00\n        /* \"contracts/uniswapv2/Core.sol\":22382:22388  y == 0 */\n      dup2\n      iszero\n      dup1\n        /* \"contracts/uniswapv2/Core.sol\":22382:22412  y == 0 || (z = x * y) / y == x */\n      tag_273\n      jumpi\n      pop\n      pop\n        /* \"contracts/uniswapv2/Core.sol\":22397:22402  x * y */\n      dup1\n      dup3\n      mul\n        /* \"contracts/uniswapv2/Core.sol\":22411:22412  x */\n      dup3\n        /* \"contracts/uniswapv2/Core.sol\":22406:22407  y */\n      dup3\n        /* \"contracts/uniswapv2/Core.sol\":22397:22402  x * y */\n      dup3\n        /* \"contracts/uniswapv2/Core.sol\":22406:22407  y */\n      dup2\n        /* \"contracts/uniswapv2/Core.sol\":22392:22407  (z = x * y) / y */\n      tag_274\n      jumpi\n      invalid\n    tag_274:\n      div\n        /* \"contracts/uniswapv2/Core.sol\":22392:22412  (z = x * y) / y == x */\n      eq\n        /* \"contracts/uniswapv2/Core.sol\":22382:22412  y == 0 || (z = x * y) / y == x */\n    tag_273:\n        /* \"contracts/uniswapv2/Core.sol\":22374:22437  require(y == 0 || (z = x * y) / y == x, \"ds-math-mul-overflow\") */\n      tag_158\n      jumpi\n      0x40\n      dup1\n      mload\n      shl(0xe5, 0x461bcd)\n      dup2\n      mstore\n      0x20\n      0x04\n      dup3\n      add\n      mstore\n      0x14\n      0x24\n      dup3\n      add\n      mstore\n      shl(0x60, 0x64732d6d6174682d6d756c2d6f766572666c6f77)\n      0x44\n      dup3\n      add\n      mstore\n      swap1\n      mload\n      swap1\n      dup2\n      swap1\n      sub\n      0x64\n      add\n      swap1\n      revert\n        /* \"contracts/uniswapv2/Core.sol\":22171:22298  function sub(uint x, uint y) internal pure returns (uint z) {... */\n    tag_147:\n        /* \"contracts/uniswapv2/Core.sol\":22254:22259  x - y */\n      dup1\n      dup3\n      sub\n        /* \"contracts/uniswapv2/Core.sol\":22249:22265  (z = x - y) <= x */\n      dup3\n      dup2\n      gt\n      iszero\n        /* \"contracts/uniswapv2/Core.sol\":22241:22291  require((z = x - y) <= x, \"ds-math-sub-underflow\") */\n      tag_158\n      jumpi\n      0x40\n      dup1\n      mload\n      shl(0xe5, 0x461bcd)\n      dup2\n      mstore\n      0x20\n      0x04\n      dup3\n      add\n      mstore\n      0x15\n      0x24\n      dup3\n      add\n      mstore\n      shl(0x58, 0x64732d6d6174682d7375622d756e646572666c6f77)\n      0x44\n      dup3\n      add\n      mstore\n      swap1\n      mload\n      swap1\n      dup2\n      swap1\n      sub\n      0x64\n      add\n      swap1\n      revert\n        /* \"contracts/uniswapv2/Core.sol\":11936:12921  function _update(... */\n    tag_156:\n      sub(shl(0x70, 0x01), 0x01)\n        /* \"contracts/uniswapv2/Core.sol\":12098:12121  balance0 <= uint112(-1) */\n      dup5\n      gt\n      dup1\n      iszero\n      swap1\n        /* \"contracts/uniswapv2/Core.sol\":12098:12148  balance0 <= uint112(-1) && balance1 <= uint112(-1) */\n      tag_279\n      jumpi\n      pop\n      sub(shl(0x70, 0x01), 0x01)\n        /* \"contracts/uniswapv2/Core.sol\":12125:12148  balance1 <= uint112(-1) */\n      dup4\n      gt\n      iszero\n        /* \"contracts/uniswapv2/Core.sol\":12098:12148  balance0 <= uint112(-1) && balance1 <= uint112(-1) */\n    tag_279:\n        /* \"contracts/uniswapv2/Core.sol\":12077:12193  require(... */\n      tag_280\n      jumpi\n      0x40\n      dup1\n      mload\n      shl(0xe5, 0x461bcd)\n      dup2\n      mstore\n      0x20\n      0x04\n      dup3\n      add\n      mstore\n      0x13\n      0x24\n      dup3\n      add\n      mstore\n      shl(0x68, 0x556e697377617056323a204f564552464c4f57)\n      0x44\n      dup3\n      add\n      mstore\n      swap1\n      mload\n      swap1\n      dup2\n      swap1\n      sub\n      0x64\n      add\n      swap1\n      revert\n    tag_280:\n        /* \"contracts/uniswapv2/Core.sol\":12308:12326  blockTimestampLast */\n      sload(0x08)\n        /* \"contracts/uniswapv2/Core.sol\":12234:12259  block.timestamp % 2 ** 32 */\n      0xffffffff\n        /* \"contracts/uniswapv2/Core.sol\":12234:12249  block.timestamp */\n      timestamp\n        /* \"contracts/uniswapv2/Core.sol\":12234:12259  block.timestamp % 2 ** 32 */\n      dup2\n      and\n      swap2\n      shl(0xe0, 0x01)\n        /* \"contracts/uniswapv2/Core.sol\":12308:12326  blockTimestampLast */\n      swap1\n      div\n      dup2\n      and\n        /* \"contracts/uniswapv2/Core.sol\":12291:12326  blockTimestamp - blockTimestampLast */\n      dup3\n      sub\n      swap1\n        /* \"contracts/uniswapv2/Core.sol\":12363:12378  timeElapsed > 0 */\n      dup2\n      and\n      iszero\n      dup1\n      iszero\n      swap1\n        /* \"contracts/uniswapv2/Core.sol\":12363:12396  timeElapsed > 0 && _reserve0 != 0 */\n      tag_282\n      jumpi\n      pop\n      sub(shl(0x70, 0x01), 0x01)\n        /* \"contracts/uniswapv2/Core.sol\":12382:12396  _reserve0 != 0 */\n      dup5\n      and\n      iszero\n      iszero\n        /* \"contracts/uniswapv2/Core.sol\":12363:12396  timeElapsed > 0 && _reserve0 != 0 */\n    tag_282:\n        /* \"contracts/uniswapv2/Core.sol\":12363:12414  timeElapsed > 0 && _reserve0 != 0 && _reserve1 != 0 */\n      dup1\n      iszero\n      tag_283\n      jumpi\n      pop\n      sub(shl(0x70, 0x01), 0x01)\n        /* \"contracts/uniswapv2/Core.sol\":12400:12414  _reserve1 != 0 */\n      dup4\n      and\n      iszero\n      iszero\n        /* \"contracts/uniswapv2/Core.sol\":12363:12414  timeElapsed > 0 && _reserve0 != 0 && _reserve1 != 0 */\n    tag_283:\n        /* \"contracts/uniswapv2/Core.sol\":12359:12755  if (timeElapsed > 0 && _reserve0 != 0 && _reserve1 != 0) {... */\n      iszero\n      tag_284\n      jumpi\n        /* \"contracts/uniswapv2/Core.sol\":12599:12610  timeElapsed */\n      dup1\n        /* \"contracts/uniswapv2/Core.sol\":12530:12610  uint(UQ112x112.encode(_reserve1).uqdiv(_reserve0)) *... */\n      0xffffffff\n      and\n        /* \"contracts/uniswapv2/Core.sol\":12535:12579  UQ112x112.encode(_reserve1).uqdiv(_reserve0) */\n      tag_285\n        /* \"contracts/uniswapv2/Core.sol\":12569:12578  _reserve0 */\n      dup6\n        /* \"contracts/uniswapv2/Core.sol\":12535:12562  UQ112x112.encode(_reserve1) */\n      tag_286\n        /* \"contracts/uniswapv2/Core.sol\":12552:12561  _reserve1 */\n      dup7\n        /* \"contracts/uniswapv2/Core.sol\":12535:12551  UQ112x112.encode */\n      tag_287\n        /* \"contracts/uniswapv2/Core.sol\":12535:12562  UQ112x112.encode(_reserve1) */\n      jump\t// in\n    tag_286:\n      sub(shl(0xe0, 0x01), 0x01)\n        /* \"contracts/uniswapv2/Core.sol\":12535:12568  UQ112x112.encode(_reserve1).uqdiv */\n      and\n      swap1\n      tag_288\n        /* \"contracts/uniswapv2/Core.sol\":12535:12579  UQ112x112.encode(_reserve1).uqdiv(_reserve0) */\n      jump\t// in\n    tag_285:\n        /* \"contracts/uniswapv2/Core.sol\":12490:12510  price0CumulativeLast */\n      0x09\n        /* \"contracts/uniswapv2/Core.sol\":12490:12610  price0CumulativeLast +=... */\n      dup1\n      sload\n      sub(shl(0xe0, 0x01), 0x01)\n        /* \"contracts/uniswapv2/Core.sol\":12530:12580  uint(UQ112x112.encode(_reserve1).uqdiv(_reserve0)) */\n      swap3\n      swap1\n      swap3\n      and\n        /* \"contracts/uniswapv2/Core.sol\":12530:12610  uint(UQ112x112.encode(_reserve1).uqdiv(_reserve0)) *... */\n      swap3\n      swap1\n      swap3\n      mul\n        /* \"contracts/uniswapv2/Core.sol\":12490:12610  price0CumulativeLast +=... */\n      add\n      swap1\n      sstore\n        /* \"contracts/uniswapv2/Core.sol\":12664:12744  uint(UQ112x112.encode(_reserve0).uqdiv(_reserve1)) *... */\n      0xffffffff\n      dup2\n      and\n        /* \"contracts/uniswapv2/Core.sol\":12669:12713  UQ112x112.encode(_reserve0).uqdiv(_reserve1) */\n      tag_289\n        /* \"contracts/uniswapv2/Core.sol\":12703:12712  _reserve1 */\n      dup5\n        /* \"contracts/uniswapv2/Core.sol\":12669:12696  UQ112x112.encode(_reserve0) */\n      tag_286\n        /* \"contracts/uniswapv2/Core.sol\":12686:12695  _reserve0 */\n      dup8\n        /* \"contracts/uniswapv2/Core.sol\":12669:12685  UQ112x112.encode */\n      tag_287\n        /* \"contracts/uniswapv2/Core.sol\":12669:12696  UQ112x112.encode(_reserve0) */\n      jump\t// in\n        /* \"contracts/uniswapv2/Core.sol\":12669:12713  UQ112x112.encode(_reserve0).uqdiv(_reserve1) */\n    tag_289:\n        /* \"contracts/uniswapv2/Core.sol\":12624:12644  price1CumulativeLast */\n      0x0a\n        /* \"contracts/uniswapv2/Core.sol\":12624:12744  price1CumulativeLast +=... */\n      dup1\n      sload\n      sub(shl(0xe0, 0x01), 0x01)\n        /* \"contracts/uniswapv2/Core.sol\":12664:12714  uint(UQ112x112.encode(_reserve0).uqdiv(_reserve1)) */\n      swap3\n      swap1\n      swap3\n      and\n        /* \"contracts/uniswapv2/Core.sol\":12664:12744  uint(UQ112x112.encode(_reserve0).uqdiv(_reserve1)) *... */\n      swap3\n      swap1\n      swap3\n      mul\n        /* \"contracts/uniswapv2/Core.sol\":12624:12744  price1CumulativeLast +=... */\n      add\n      swap1\n      sstore\n        /* \"contracts/uniswapv2/Core.sol\":12359:12755  if (timeElapsed > 0 && _reserve0 != 0 && _reserve1 != 0) {... */\n    tag_284:\n        /* \"contracts/uniswapv2/Core.sol\":12764:12772  reserve0 */\n      0x08\n        /* \"contracts/uniswapv2/Core.sol\":12764:12792  reserve0 = uint112(balance0) */\n      dup1\n      sload\n      not(0xffffffffffffffffffffffffffff)\n      and\n      sub(shl(0x70, 0x01), 0x01)\n      dup9\n      dup2\n      and\n      swap2\n      swap1\n      swap2\n      or\n      not(shl(0x70, 0xffffffffffffffffffffffffffff))\n        /* \"contracts/uniswapv2/Core.sol\":12802:12830  reserve1 = uint112(balance1) */\n      and\n      shl(0x70, 0x01)\n      dup9\n      dup4\n      and\n      dup2\n      mul\n      swap2\n      swap1\n      swap2\n      or\n      sub(shl(0xe0, 0x01), 0x01)\n        /* \"contracts/uniswapv2/Core.sol\":12840:12875  blockTimestampLast = blockTimestamp */\n      and\n      shl(0xe0, 0x01)\n      0xffffffff\n      dup8\n      and\n      mul\n      or\n      swap3\n      dup4\n      swap1\n      sstore\n        /* \"contracts/uniswapv2/Core.sol\":12890:12914  Sync(reserve0, reserve1) */\n      0x40\n      dup1\n      mload\n        /* \"contracts/uniswapv2/Core.sol\":12895:12903  reserve0 */\n      dup5\n      dup5\n      and\n        /* \"contracts/uniswapv2/Core.sol\":12890:12914  Sync(reserve0, reserve1) */\n      dup2\n      mstore\n        /* \"contracts/uniswapv2/Core.sol\":12905:12913  reserve1 */\n      swap2\n      swap1\n      swap4\n      div\n      swap1\n      swap2\n      and\n        /* \"contracts/uniswapv2/Core.sol\":12890:12914  Sync(reserve0, reserve1) */\n      0x20\n      dup3\n      add\n      mstore\n      dup2\n      mload\n      0x1c411e9a96e071241c2f21f7726b17ae89e3cab4c78be50e062b03a9fffbbad1\n      swap3\n      swap2\n      dup2\n      swap1\n      sub\n      swap1\n      swap2\n      add\n      swap1\n      log1\n        /* \"contracts/uniswapv2/Core.sol\":11936:12921  function _update(... */\n      pop\n      pop\n      pop\n      pop\n      pop\n      pop\n      jump\t// out\n        /* \"contracts/uniswapv2/Core.sol\":7453:7619  function _approve(address owner, address spender, uint value) private {... */\n    tag_160:\n      sub(shl(0xa0, 0x01), 0x01)\n        /* \"contracts/uniswapv2/Core.sol\":7533:7549  allowance[owner] */\n      dup4\n      dup2\n      and\n      0x00\n      dup2\n      dup2\n      mstore\n        /* \"contracts/uniswapv2/Core.sol\":7533:7542  allowance */\n      0x02\n        /* \"contracts/uniswapv2/Core.sol\":7533:7549  allowance[owner] */\n      0x20\n      swap1\n      dup2\n      mstore\n      0x40\n      dup1\n      dup4\n      keccak256\n        /* \"contracts/uniswapv2/Core.sol\":7533:7558  allowance[owner][spender] */\n      swap5\n      dup8\n      and\n      dup1\n      dup5\n      mstore\n      swap5\n      dup3\n      mstore\n      swap2\n      dup3\n      swap1\n      keccak256\n        /* \"contracts/uniswapv2/Core.sol\":7533:7566  allowance[owner][spender] = value */\n      dup6\n      swap1\n      sstore\n        /* \"contracts/uniswapv2/Core.sol\":7581:7612  Approval(owner, spender, value) */\n      dup2\n      mload\n      dup6\n      dup2\n      mstore\n      swap2\n      mload\n      0x8c5be1e5ebec7d5bd14f71427d1e84f3dd0314c0f7b2291e5b200ac8c7c3b925\n      swap3\n      dup2\n      swap1\n      sub\n      swap1\n      swap2\n      add\n      swap1\n      log3\n        /* \"contracts/uniswapv2/Core.sol\":7453:7619  function _approve(address owner, address spender, uint value) private {... */\n      pop\n      pop\n      pop\n      jump\t// out\n        /* \"contracts/uniswapv2/Core.sol\":7625:7841  function _transfer(address from, address to, uint value) private {... */\n    tag_165:\n      sub(shl(0xa0, 0x01), 0x01)\n        /* \"contracts/uniswapv2/Core.sol\":7718:7733  balanceOf[from] */\n      dup4\n      and\n      0x00\n      swap1\n      dup2\n      mstore\n      mstore(0x20, 0x01)\n      0x40\n      swap1\n      keccak256\n      sload\n        /* \"contracts/uniswapv2/Core.sol\":7718:7744  balanceOf[from].sub(value) */\n      tag_293\n      swap1\n        /* \"contracts/uniswapv2/Core.sol\":7738:7743  value */\n      dup3\n        /* \"contracts/uniswapv2/Core.sol\":7718:7737  balanceOf[from].sub */\n      tag_147\n        /* \"contracts/uniswapv2/Core.sol\":7718:7744  balanceOf[from].sub(value) */\n      jump\t// in\n    tag_293:\n      sub(shl(0xa0, 0x01), 0x01)\n        /* \"contracts/uniswapv2/Core.sol\":7700:7715  balanceOf[from] */\n      dup5\n      dup2\n      and\n      0x00\n      swap1\n      dup2\n      mstore\n      mstore(0x20, 0x01)\n      0x40\n      dup1\n      dup3\n      keccak256\n        /* \"contracts/uniswapv2/Core.sol\":7700:7744  balanceOf[from] = balanceOf[from].sub(value) */\n      swap4\n      swap1\n      swap4\n      sstore\n        /* \"contracts/uniswapv2/Core.sol\":7770:7783  balanceOf[to] */\n      swap1\n      dup5\n      and\n      dup2\n      mstore\n      keccak256\n      sload\n        /* \"contracts/uniswapv2/Core.sol\":7770:7794  balanceOf[to].add(value) */\n      tag_294\n      swap1\n        /* \"contracts/uniswapv2/Core.sol\":7788:7793  value */\n      dup3\n        /* \"contracts/uniswapv2/Core.sol\":7770:7787  balanceOf[to].add */\n      tag_295\n        /* \"contracts/uniswapv2/Core.sol\":7770:7794  balanceOf[to].add(value) */\n      jump\t// in\n    tag_294:\n      sub(shl(0xa0, 0x01), 0x01)\n        /* \"contracts/uniswapv2/Core.sol\":7754:7767  balanceOf[to] */\n      dup4\n      dup2\n      and\n      0x00\n      dup2\n      dup2\n      mstore\n      0x01\n      0x20\n      swap1\n      dup2\n      mstore\n      0x40\n      swap2\n      dup3\n      swap1\n      keccak256\n        /* \"contracts/uniswapv2/Core.sol\":7754:7794  balanceOf[to] = balanceOf[to].add(value) */\n      swap5\n      swap1\n      swap5\n      sstore\n        /* \"contracts/uniswapv2/Core.sol\":7809:7834  Transfer(from, to, value) */\n      dup1\n      mload\n      dup6\n      dup2\n      mstore\n      swap1\n      mload\n        /* \"contracts/uniswapv2/Core.sol\":7754:7767  balanceOf[to] */\n      swap2\n      swap4\n        /* \"contracts/uniswapv2/Core.sol\":7809:7834  Transfer(from, to, value) */\n      swap3\n      dup8\n      and\n      swap3\n      0xddf252ad1be2c89b69c2b068fc378daa952ba7f163c4a11628f55a4df523b3ef\n      swap3\n      swap2\n      dup3\n      swap1\n      sub\n      add\n      swap1\n      log3\n        /* \"contracts/uniswapv2/Core.sol\":7625:7841  function _transfer(address from, address to, uint value) private {... */\n      pop\n      pop\n      pop\n      jump\t// out\n        /* \"contracts/uniswapv2/Core.sol\":13008:13849  function _mintFee(... */\n    tag_181:\n        /* \"contracts/uniswapv2/Core.sol\":13159:13166  factory */\n      sload(0x05)\n        /* \"contracts/uniswapv2/Core.sol\":13141:13175  IUniswapV2Factory(factory).feeTo() */\n      0x40\n      dup1\n      mload\n      shl(0xe3, 0x2fcfcb)\n      dup2\n      mstore\n      swap1\n      mload\n        /* \"contracts/uniswapv2/Core.sol\":13103:13113  bool feeOn */\n      0x00\n      swap3\n      dup4\n      swap3\n      sub(shl(0xa0, 0x01), 0x01)\n        /* \"contracts/uniswapv2/Core.sol\":13159:13166  factory */\n      swap1\n      swap2\n      and\n      swap2\n        /* \"contracts/uniswapv2/Core.sol\":13141:13173  IUniswapV2Factory(factory).feeTo */\n      0x017e7e58\n      swap2\n        /* \"contracts/uniswapv2/Core.sol\":13141:13175  IUniswapV2Factory(factory).feeTo() */\n      0x04\n      dup1\n      dup3\n      add\n      swap3\n      0x20\n      swap3\n      swap1\n      swap2\n      swap1\n      dup3\n      swap1\n      sub\n      add\n      dup2\n        /* \"contracts/uniswapv2/Core.sol\":13159:13166  factory */\n      dup7\n        /* \"contracts/uniswapv2/Core.sol\":13141:13175  IUniswapV2Factory(factory).feeTo() */\n      dup1\n      extcodesize\n      iszero\n        /* \"--CODEGEN--\":5:7   */\n      dup1\n      iszero\n      tag_297\n      jumpi\n        /* \"--CODEGEN--\":30:31   */\n      0x00\n        /* \"--CODEGEN--\":27:28   */\n      dup1\n        /* \"--CODEGEN--\":20:32   */\n      revert\n        /* \"--CODEGEN--\":5:7   */\n    tag_297:\n        /* \"contracts/uniswapv2/Core.sol\":13141:13175  IUniswapV2Factory(factory).feeTo() */\n      pop\n      gas\n      staticcall\n      iszero\n        /* \"--CODEGEN--\":8:17   */\n      dup1\n        /* \"--CODEGEN--\":5:7   */\n      iszero\n      tag_298\n      jumpi\n        /* \"--CODEGEN--\":45:61   */\n      returndatasize\n        /* \"--CODEGEN--\":42:43   */\n      0x00\n        /* \"--CODEGEN--\":39:40   */\n      dup1\n        /* \"--CODEGEN--\":24:62   */\n      returndatacopy\n        /* \"--CODEGEN--\":77:93   */\n      returndatasize\n        /* \"--CODEGEN--\":74:75   */\n      0x00\n        /* \"--CODEGEN--\":67:94   */\n      revert\n        /* \"--CODEGEN--\":5:7   */\n    tag_298:\n        /* \"contracts/uniswapv2/Core.sol\":13141:13175  IUniswapV2Factory(factory).feeTo() */\n      pop\n      pop\n      pop\n      pop\n      mload(0x40)\n      returndatasize\n        /* \"--CODEGEN--\":13:15   */\n      0x20\n        /* \"--CODEGEN--\":8:11   */\n      dup2\n        /* \"--CODEGEN--\":5:16   */\n      lt\n        /* \"--CODEGEN--\":2:4   */\n      iszero\n      tag_299\n      jumpi\n        /* \"--CODEGEN--\":29:30   */\n      0x00\n        /* \"--CODEGEN--\":26:27   */\n      dup1\n        /* \"--CODEGEN--\":19:31   */\n      revert\n        /* \"--CODEGEN--\":2:4   */\n    tag_299:\n      pop\n        /* \"contracts/uniswapv2/Core.sol\":13141:13175  IUniswapV2Factory(factory).feeTo() */\n      mload\n        /* \"contracts/uniswapv2/Core.sol\":13236:13241  kLast */\n      sload(0x0b)\n      sub(shl(0xa0, 0x01), 0x01)\n        /* \"contracts/uniswapv2/Core.sol\":13193:13212  feeTo != address(0) */\n      dup3\n      and\n      iszero\n      dup1\n      iszero\n      swap5\n      pop\n        /* \"contracts/uniswapv2/Core.sol\":13141:13175  IUniswapV2Factory(factory).feeTo() */\n      swap2\n      swap3\n      pop\n        /* \"contracts/uniswapv2/Core.sol\":13236:13241  kLast */\n      swap1\n        /* \"contracts/uniswapv2/Core.sol\":13266:13843  if (feeOn) {... */\n      tag_300\n      jumpi\n        /* \"contracts/uniswapv2/Core.sol\":13295:13306  _kLast != 0 */\n      dup1\n      iszero\n        /* \"contracts/uniswapv2/Core.sol\":13291:13776  if (_kLast != 0) {... */\n      tag_301\n      jumpi\n        /* \"contracts/uniswapv2/Core.sol\":13326:13336  uint rootK */\n      0x00\n        /* \"contracts/uniswapv2/Core.sol\":13339:13380  Math.sqrt(uint(_reserve0).mul(_reserve1)) */\n      tag_302\n        /* \"contracts/uniswapv2/Core.sol\":13349:13379  uint(_reserve0).mul(_reserve1) */\n      tag_185\n      sub(shl(0x70, 0x01), 0x01)\n        /* \"contracts/uniswapv2/Core.sol\":13349:13364  uint(_reserve0) */\n      dup9\n      dup2\n      and\n      swap1\n        /* \"contracts/uniswapv2/Core.sol\":13349:13379  uint(_reserve0).mul(_reserve1) */\n      dup9\n      and\n        /* \"contracts/uniswapv2/Core.sol\":13349:13368  uint(_reserve0).mul */\n      tag_145\n        /* \"contracts/uniswapv2/Core.sol\":13349:13379  uint(_reserve0).mul(_reserve1) */\n      jump\t// in\n        /* \"contracts/uniswapv2/Core.sol\":13339:13380  Math.sqrt(uint(_reserve0).mul(_reserve1)) */\n    tag_302:\n        /* \"contracts/uniswapv2/Core.sol\":13326:13380  uint rootK = Math.sqrt(uint(_reserve0).mul(_reserve1)) */\n      swap1\n      pop\n        /* \"contracts/uniswapv2/Core.sol\":13398:13412  uint rootKLast */\n      0x00\n        /* \"contracts/uniswapv2/Core.sol\":13415:13432  Math.sqrt(_kLast) */\n      tag_304\n        /* \"contracts/uniswapv2/Core.sol\":13425:13431  _kLast */\n      dup4\n        /* \"contracts/uniswapv2/Core.sol\":13415:13424  Math.sqrt */\n      tag_186\n        /* \"contracts/uniswapv2/Core.sol\":13415:13432  Math.sqrt(_kLast) */\n      jump\t// in\n    tag_304:\n        /* \"contracts/uniswapv2/Core.sol\":13398:13432  uint rootKLast = Math.sqrt(_kLast) */\n      swap1\n      pop\n        /* \"contracts/uniswapv2/Core.sol\":13462:13471  rootKLast */\n      dup1\n        /* \"contracts/uniswapv2/Core.sol\":13454:13459  rootK */\n      dup3\n        /* \"contracts/uniswapv2/Core.sol\":13454:13471  rootK > rootKLast */\n      gt\n        /* \"contracts/uniswapv2/Core.sol\":13450:13762  if (rootK > rootKLast) {... */\n      iszero\n      tag_305\n      jumpi\n        /* \"contracts/uniswapv2/Core.sol\":13495:13509  uint numerator */\n      0x00\n        /* \"contracts/uniswapv2/Core.sol\":13512:13549  totalSupply.mul(rootK.sub(rootKLast)) */\n      tag_306\n        /* \"contracts/uniswapv2/Core.sol\":13528:13548  rootK.sub(rootKLast) */\n      tag_307\n        /* \"contracts/uniswapv2/Core.sol\":13528:13533  rootK */\n      dup5\n        /* \"contracts/uniswapv2/Core.sol\":13538:13547  rootKLast */\n      dup5\n        /* \"contracts/uniswapv2/Core.sol\":13528:13548  rootK.sub(rootKLast) */\n      0xffffffff\n        /* \"contracts/uniswapv2/Core.sol\":13528:13537  rootK.sub */\n      tag_147\n        /* \"contracts/uniswapv2/Core.sol\":13528:13548  rootK.sub(rootKLast) */\n      and\n      jump\t// in\n    tag_307:\n        /* \"contracts/uniswapv2/Core.sol\":13512:13523  totalSupply */\n      sload(0x00)\n      swap1\n        /* \"contracts/uniswapv2/Core.sol\":13512:13549  totalSupply.mul(rootK.sub(rootKLast)) */\n      0xffffffff\n        /* \"contracts/uniswapv2/Core.sol\":13512:13527  totalSupply.mul */\n      tag_145\n        /* \"contracts/uniswapv2/Core.sol\":13512:13549  totalSupply.mul(rootK.sub(rootKLast)) */\n      and\n      jump\t// in\n    tag_306:\n        /* \"contracts/uniswapv2/Core.sol\":13495:13549  uint numerator = totalSupply.mul(rootK.sub(rootKLast)) */\n      swap1\n      pop\n        /* \"contracts/uniswapv2/Core.sol\":13571:13587  uint denominator */\n      0x00\n        /* \"contracts/uniswapv2/Core.sol\":13590:13617  rootK.mul(5).add(rootKLast) */\n      tag_308\n        /* \"contracts/uniswapv2/Core.sol\":13607:13616  rootKLast */\n      dup4\n        /* \"contracts/uniswapv2/Core.sol\":13590:13602  rootK.mul(5) */\n      tag_309\n        /* \"contracts/uniswapv2/Core.sol\":13590:13595  rootK */\n      dup7\n        /* \"contracts/uniswapv2/Core.sol\":13600:13601  5 */\n      0x05\n        /* \"contracts/uniswapv2/Core.sol\":13590:13602  rootK.mul(5) */\n      0xffffffff\n        /* \"contracts/uniswapv2/Core.sol\":13590:13599  rootK.mul */\n      tag_145\n        /* \"contracts/uniswapv2/Core.sol\":13590:13602  rootK.mul(5) */\n      and\n      jump\t// in\n    tag_309:\n        /* \"contracts/uniswapv2/Core.sol\":13590:13606  rootK.mul(5).add */\n      swap1\n        /* \"contracts/uniswapv2/Core.sol\":13590:13617  rootK.mul(5).add(rootKLast) */\n      0xffffffff\n        /* \"contracts/uniswapv2/Core.sol\":13590:13606  rootK.mul(5).add */\n      tag_295\n        /* \"contracts/uniswapv2/Core.sol\":13590:13617  rootK.mul(5).add(rootKLast) */\n      and\n      jump\t// in\n    tag_308:\n        /* \"contracts/uniswapv2/Core.sol\":13571:13617  uint denominator = rootK.mul(5).add(rootKLast) */\n      swap1\n      pop\n        /* \"contracts/uniswapv2/Core.sol\":13639:13653  uint liquidity */\n      0x00\n        /* \"contracts/uniswapv2/Core.sol\":13668:13679  denominator */\n      dup2\n        /* \"contracts/uniswapv2/Core.sol\":13656:13665  numerator */\n      dup4\n        /* \"contracts/uniswapv2/Core.sol\":13656:13679  numerator / denominator */\n      dup2\n      tag_310\n      jumpi\n      invalid\n    tag_310:\n      div\n      swap1\n      pop\n        /* \"contracts/uniswapv2/Core.sol\":13705:13718  liquidity > 0 */\n      dup1\n      iszero\n        /* \"contracts/uniswapv2/Core.sol\":13701:13743  if (liquidity > 0) _mint(feeTo, liquidity) */\n      tag_312\n      jumpi\n        /* \"contracts/uniswapv2/Core.sol\":13720:13743  _mint(feeTo, liquidity) */\n      tag_312\n        /* \"contracts/uniswapv2/Core.sol\":13726:13731  feeTo */\n      dup8\n        /* \"contracts/uniswapv2/Core.sol\":13733:13742  liquidity */\n      dup3\n        /* \"contracts/uniswapv2/Core.sol\":13720:13725  _mint */\n      tag_188\n        /* \"contracts/uniswapv2/Core.sol\":13720:13743  _mint(feeTo, liquidity) */\n      jump\t// in\n    tag_312:\n        /* \"contracts/uniswapv2/Core.sol\":13450:13762  if (rootK > rootKLast) {... */\n      pop\n      pop\n      pop\n    tag_305:\n        /* \"contracts/uniswapv2/Core.sol\":13291:13776  if (_kLast != 0) {... */\n      pop\n      pop\n    tag_301:\n        /* \"contracts/uniswapv2/Core.sol\":13266:13843  if (feeOn) {... */\n      jump(tag_314)\n    tag_300:\n        /* \"contracts/uniswapv2/Core.sol\":13796:13807  _kLast != 0 */\n      dup1\n      iszero\n        /* \"contracts/uniswapv2/Core.sol\":13792:13843  if (_kLast != 0) {... */\n      tag_314\n      jumpi\n        /* \"contracts/uniswapv2/Core.sol\":13831:13832  0 */\n      0x00\n        /* \"contracts/uniswapv2/Core.sol\":13823:13828  kLast */\n      0x0b\n        /* \"contracts/uniswapv2/Core.sol\":13823:13832  kLast = 0 */\n      sstore\n        /* \"contracts/uniswapv2/Core.sol\":13792:13843  if (_kLast != 0) {... */\n    tag_314:\n        /* \"contracts/uniswapv2/Core.sol\":13008:13849  function _mintFee(... */\n      pop\n      pop\n      swap3\n      swap2\n      pop\n      pop\n      jump\t// out\n        /* \"contracts/uniswapv2/Core.sol\":22729:23021  function sqrt(uint y) internal pure returns (uint z) {... */\n    tag_186:\n        /* \"contracts/uniswapv2/Core.sol\":22774:22780  uint z */\n      0x00\n        /* \"contracts/uniswapv2/Core.sol\":22800:22801  3 */\n      0x03\n        /* \"contracts/uniswapv2/Core.sol\":22796:22797  y */\n      dup3\n        /* \"contracts/uniswapv2/Core.sol\":22796:22801  y > 3 */\n      gt\n        /* \"contracts/uniswapv2/Core.sol\":22792:23015  if (y > 3) {... */\n      iszero\n      tag_316\n      jumpi\n      pop\n        /* \"contracts/uniswapv2/Core.sol\":22821:22822  y */\n      dup1\n        /* \"contracts/uniswapv2/Core.sol\":22853:22854  1 */\n      0x01\n        /* \"contracts/uniswapv2/Core.sol\":22849:22850  2 */\n      0x02\n        /* \"contracts/uniswapv2/Core.sol\":22845:22850  y / 2 */\n      dup3\n      div\n        /* \"contracts/uniswapv2/Core.sol\":22845:22854  y / 2 + 1 */\n      add\n        /* \"contracts/uniswapv2/Core.sol\":22868:22957  while (x < z) {... */\n    tag_318:\n        /* \"contracts/uniswapv2/Core.sol\":22879:22880  z */\n      dup2\n        /* \"contracts/uniswapv2/Core.sol\":22875:22876  x */\n      dup2\n        /* \"contracts/uniswapv2/Core.sol\":22875:22880  x < z */\n      lt\n        /* \"contracts/uniswapv2/Core.sol\":22868:22957  while (x < z) {... */\n      iszero\n      tag_319\n      jumpi\n        /* \"contracts/uniswapv2/Core.sol\":22904:22905  x */\n      dup1\n        /* \"contracts/uniswapv2/Core.sol\":22900:22905  z = x */\n      swap2\n      pop\n        /* \"contracts/uniswapv2/Core.sol\":22941:22942  2 */\n      0x02\n        /* \"contracts/uniswapv2/Core.sol\":22936:22937  x */\n      dup2\n        /* \"contracts/uniswapv2/Core.sol\":22932:22933  x */\n      dup3\n        /* \"contracts/uniswapv2/Core.sol\":22928:22929  y */\n      dup6\n        /* \"contracts/uniswapv2/Core.sol\":22928:22933  y / x */\n      dup2\n      tag_320\n      jumpi\n      invalid\n    tag_320:\n      div\n        /* \"contracts/uniswapv2/Core.sol\":22928:22937  y / x + x */\n      add\n        /* \"contracts/uniswapv2/Core.sol\":22927:22942  (y / x + x) / 2 */\n      dup2\n      tag_321\n      jumpi\n      invalid\n    tag_321:\n      div\n        /* \"contracts/uniswapv2/Core.sol\":22923:22942  x = (y / x + x) / 2 */\n      swap1\n      pop\n        /* \"contracts/uniswapv2/Core.sol\":22868:22957  while (x < z) {... */\n      jump(tag_318)\n    tag_319:\n        /* \"contracts/uniswapv2/Core.sol\":22792:23015  if (y > 3) {... */\n      pop\n      jump(tag_323)\n    tag_316:\n        /* \"contracts/uniswapv2/Core.sol\":22977:22983  y != 0 */\n      dup2\n      iszero\n        /* \"contracts/uniswapv2/Core.sol\":22973:23015  if (y != 0) {... */\n      tag_323\n      jumpi\n      pop\n        /* \"contracts/uniswapv2/Core.sol\":23003:23004  1 */\n      0x01\n        /* \"contracts/uniswapv2/Core.sol\":22973:23015  if (y != 0) {... */\n    tag_323:\n        /* \"contracts/uniswapv2/Core.sol\":22729:23021  function sqrt(uint y) internal pure returns (uint z) {... */\n      swap2\n      swap1\n      pop\n      jump\t// out\n        /* \"contracts/uniswapv2/Core.sol\":7039:7236  function _mint(address to, uint value) internal {... */\n    tag_188:\n        /* \"contracts/uniswapv2/Core.sol\":7111:7122  totalSupply */\n      sload(0x00)\n        /* \"contracts/uniswapv2/Core.sol\":7111:7133  totalSupply.add(value) */\n      tag_325\n      swap1\n        /* \"contracts/uniswapv2/Core.sol\":7127:7132  value */\n      dup3\n        /* \"contracts/uniswapv2/Core.sol\":7111:7133  totalSupply.add(value) */\n      0xffffffff\n        /* \"contracts/uniswapv2/Core.sol\":7111:7126  totalSupply.add */\n      tag_295\n        /* \"contracts/uniswapv2/Core.sol\":7111:7133  totalSupply.add(value) */\n      and\n      jump\t// in\n    tag_325:\n        /* \"contracts/uniswapv2/Core.sol\":7097:7108  totalSupply */\n      0x00\n        /* \"contracts/uniswapv2/Core.sol\":7097:7133  totalSupply = totalSupply.add(value) */\n      swap1\n      dup2\n      sstore\n      sub(shl(0xa0, 0x01), 0x01)\n        /* \"contracts/uniswapv2/Core.sol\":7159:7172  balanceOf[to] */\n      dup4\n      and\n      dup2\n      mstore\n      mstore(0x20, 0x01)\n      0x40\n      swap1\n      keccak256\n      sload\n        /* \"contracts/uniswapv2/Core.sol\":7159:7183  balanceOf[to].add(value) */\n      tag_326\n      swap1\n        /* \"contracts/uniswapv2/Core.sol\":7177:7182  value */\n      dup3\n        /* \"contracts/uniswapv2/Core.sol\":7159:7176  balanceOf[to].add */\n      tag_295\n        /* \"contracts/uniswapv2/Core.sol\":7159:7183  balanceOf[to].add(value) */\n      jump\t// in\n    tag_326:\n      sub(shl(0xa0, 0x01), 0x01)\n        /* \"contracts/uniswapv2/Core.sol\":7143:7156  balanceOf[to] */\n      dup4\n      and\n      0x00\n      dup2\n      dup2\n      mstore\n      0x01\n      0x20\n      swap1\n      dup2\n      mstore\n      0x40\n      dup1\n      dup4\n      keccak256\n        /* \"contracts/uniswapv2/Core.sol\":7143:7183  balanceOf[to] = balanceOf[to].add(value) */\n      swap5\n      swap1\n      swap5\n      sstore\n        /* \"contracts/uniswapv2/Core.sol\":7198:7229  Transfer(address(0), to, value) */\n      dup4\n      mload\n      dup6\n      dup2\n      mstore\n      swap4\n      mload\n        /* \"contracts/uniswapv2/Core.sol\":7143:7156  balanceOf[to] */\n      swap3\n      swap4\n      swap2\n      swap3\n        /* \"contracts/uniswapv2/Core.sol\":7198:7229  Transfer(address(0), to, value) */\n      0xddf252ad1be2c89b69c2b068fc378daa952ba7f163c4a11628f55a4df523b3ef\n      swap3\n      dup2\n      swap1\n      sub\n      swap1\n      swap2\n      add\n      swap1\n      log3\n        /* \"contracts/uniswapv2/Core.sol\":7039:7236  function _mint(address to, uint value) internal {... */\n      pop\n      pop\n      jump\t// out\n        /* \"contracts/uniswapv2/Core.sol\":22520:22614  function min(uint x, uint y) internal pure returns (uint z) {... */\n    tag_195:\n        /* \"contracts/uniswapv2/Core.sol\":22572:22578  uint z */\n      0x00\n        /* \"contracts/uniswapv2/Core.sol\":22598:22599  y */\n      dup2\n        /* \"contracts/uniswapv2/Core.sol\":22594:22595  x */\n      dup4\n        /* \"contracts/uniswapv2/Core.sol\":22594:22599  x < y */\n      lt\n        /* \"contracts/uniswapv2/Core.sol\":22594:22607  x < y ? x : y */\n      tag_328\n      jumpi\n        /* \"contracts/uniswapv2/Core.sol\":22606:22607  y */\n      dup2\n        /* \"contracts/uniswapv2/Core.sol\":22594:22607  x < y ? x : y */\n      jump(tag_329)\n    tag_328:\n        /* \"contracts/uniswapv2/Core.sol\":22602:22603  x */\n      dup3\n        /* \"contracts/uniswapv2/Core.sol\":22594:22607  x < y ? x : y */\n    tag_329:\n        /* \"contracts/uniswapv2/Core.sol\":22590:22607  z = x < y ? x : y */\n      swap4\n        /* \"contracts/uniswapv2/Core.sol\":22520:22614  function min(uint x, uint y) internal pure returns (uint z) {... */\n      swap3\n      pop\n      pop\n      pop\n      jump\t// out\n        /* \"contracts/uniswapv2/Core.sol\":7242:7447  function _burn(address from, uint value) internal {... */\n    tag_219:\n      sub(shl(0xa0, 0x01), 0x01)\n        /* \"contracts/uniswapv2/Core.sol\":7320:7335  balanceOf[from] */\n      dup3\n      and\n      0x00\n      swap1\n      dup2\n      mstore\n      mstore(0x20, 0x01)\n      0x40\n      swap1\n      keccak256\n      sload\n        /* \"contracts/uniswapv2/Core.sol\":7320:7346  balanceOf[from].sub(value) */\n      tag_331\n      swap1\n        /* \"contracts/uniswapv2/Core.sol\":7340:7345  value */\n      dup3\n        /* \"contracts/uniswapv2/Core.sol\":7320:7339  balanceOf[from].sub */\n      tag_147\n        /* \"contracts/uniswapv2/Core.sol\":7320:7346  balanceOf[from].sub(value) */\n      jump\t// in\n    tag_331:\n      sub(shl(0xa0, 0x01), 0x01)\n        /* \"contracts/uniswapv2/Core.sol\":7302:7317  balanceOf[from] */\n      dup4\n      and\n      0x00\n      swap1\n      dup2\n      mstore\n      mstore(0x20, 0x01)\n      0x40\n      dup2\n      keccak256\n        /* \"contracts/uniswapv2/Core.sol\":7302:7346  balanceOf[from] = balanceOf[from].sub(value) */\n      swap2\n      swap1\n      swap2\n      sstore\n        /* \"contracts/uniswapv2/Core.sol\":7370:7381  totalSupply */\n      sload\n        /* \"contracts/uniswapv2/Core.sol\":7370:7392  totalSupply.sub(value) */\n      tag_332\n      swap1\n        /* \"contracts/uniswapv2/Core.sol\":7386:7391  value */\n      dup3\n        /* \"contracts/uniswapv2/Core.sol\":7370:7385  totalSupply.sub */\n      tag_147\n        /* \"contracts/uniswapv2/Core.sol\":7370:7392  totalSupply.sub(value) */\n      jump\t// in\n    tag_332:\n        /* \"contracts/uniswapv2/Core.sol\":7356:7367  totalSupply */\n      0x00\n        /* \"contracts/uniswapv2/Core.sol\":7356:7392  totalSupply = totalSupply.sub(value) */\n      swap1\n      dup2\n      sstore\n        /* \"contracts/uniswapv2/Core.sol\":7407:7440  Transfer(from, address(0), value) */\n      0x40\n      dup1\n      mload\n      dup4\n      dup2\n      mstore\n      swap1\n      mload\n      sub(shl(0xa0, 0x01), 0x01)\n      dup6\n      and\n      swap2\n      0xddf252ad1be2c89b69c2b068fc378daa952ba7f163c4a11628f55a4df523b3ef\n      swap2\n      swap1\n      dup2\n      swap1\n      sub\n      0x20\n      add\n      swap1\n      log3\n        /* \"contracts/uniswapv2/Core.sol\":7242:7447  function _burn(address from, uint value) internal {... */\n      pop\n      pop\n      jump\t// out\n        /* \"contracts/uniswapv2/Core.sol\":23284:23402  function encode(uint112 y) internal pure returns (uint224 z) {... */\n    tag_287:\n      sub(shl(0x70, 0x01), 0x01)\n        /* \"contracts/uniswapv2/Core.sol\":23359:23369  uint224(y) */\n      and\n      shl(0x70, 0x01)\n        /* \"contracts/uniswapv2/Core.sol\":23359:23376  uint224(y) * Q112 */\n      mul\n      swap1\n        /* \"contracts/uniswapv2/Core.sol\":23284:23402  function encode(uint112 y) internal pure returns (uint224 z) {... */\n      jump\t// out\n        /* \"contracts/uniswapv2/Core.sol\":23470:23576  function uqdiv(uint224 x, uint112 y) internal pure returns (uint224 z) {... */\n    tag_288:\n        /* \"contracts/uniswapv2/Core.sol\":23530:23539  uint224 z */\n      0x00\n      sub(shl(0x70, 0x01), 0x01)\n        /* \"contracts/uniswapv2/Core.sol\":23559:23569  uint224(y) */\n      dup3\n      and\n      sub(shl(0xe0, 0x01), 0x01)\n        /* \"contracts/uniswapv2/Core.sol\":23555:23569  x / uint224(y) */\n      dup5\n      and\n        /* \"contracts/uniswapv2/Core.sol\":23559:23569  uint224(y) */\n      dup2\n        /* \"contracts/uniswapv2/Core.sol\":23555:23569  x / uint224(y) */\n      tag_335\n      jumpi\n      invalid\n    tag_335:\n      div\n      swap4\n        /* \"contracts/uniswapv2/Core.sol\":23470:23576  function uqdiv(uint224 x, uint112 y) internal pure returns (uint224 z) {... */\n      swap3\n      pop\n      pop\n      pop\n      jump\t// out\n        /* \"contracts/uniswapv2/Core.sol\":22039:22165  function add(uint x, uint y) internal pure returns (uint z) {... */\n    tag_295:\n        /* \"contracts/uniswapv2/Core.sol\":22122:22127  x + y */\n      dup1\n      dup3\n      add\n        /* \"contracts/uniswapv2/Core.sol\":22117:22133  (z = x + y) >= x */\n      dup3\n      dup2\n      lt\n      iszero\n        /* \"contracts/uniswapv2/Core.sol\":22109:22158  require((z = x + y) >= x, \"ds-math-add-overflow\") */\n      tag_158\n      jumpi\n      0x40\n      dup1\n      mload\n      shl(0xe5, 0x461bcd)\n      dup2\n      mstore\n      0x20\n      0x04\n      dup3\n      add\n      mstore\n      0x14\n      0x24\n      dup3\n      add\n      mstore\n      shl(0x60, 0x64732d6d6174682d6164642d6f766572666c6f77)\n      0x44\n      dup3\n      add\n      mstore\n      swap1\n      mload\n      swap1\n      dup2\n      swap1\n      sub\n      0x64\n      add\n      swap1\n      revert\n    stop\n    data_05339493da7e2cbe77e17beadf6b91132eb307939495f5f1797bf88d95539e83 556e697377617056323a20494e53554646494349454e545f4f55545055545f414d4f554e54\n    data_10e2efc32d8a31d3b2c11a545b3ed09c2dbabc58ef6de4033929d0002e425b67 556e697377617056323a20494e53554646494349454e545f494e5055545f414d4f554e54\n    data_3f354ef449b2a9b081220ce21f57691008110b653edc191d8288e60cef58bb5f 556e697377617056323a20494e53554646494349454e545f4c4951554944495459\n    data_57ebfb4dd8b5082cdba0f23c17077e3b0ecb9782a51e0e9a15e9bc8c4b30c562 556e697377617056323a20494e53554646494349454e545f4c49515549444954595f4255524e4544\n    data_6591c9f5bf1fefaad109b76a20e25c857b696080c952191f86220f001a83663e 556e697377617056323a20494e53554646494349454e545f4c49515549444954595f4d494e544544\n\n    auxdata: 0xa265627a7a723158201bba1b4ab3064c956056873612c4a46cb7223f50f4da80ebe24571c70c812f2664736f6c63430005100032\n}\n",
				"bytecode": {
					"linkReferences": {},
					"object": "60806040526001600c5534801561001557600080fd5b5060405146908060526123868239604080519182900360520182208282018252600a8352692ab734b9bbb0b8102b1960b11b6020938401528151808301835260018152603160f81b908401528151808401919091527fbfcc8ef98ffbf7b6c3fec7bf5185b566b9863e35a9d83acd49ad6824b5969738818301527fc89efdaa54c0f20c7adf612882df0950f5a951637e0307cdcb4c672f298b8bc6606082015260808101949094523060a0808601919091528151808603909101815260c09094019052825192019190912060035550600580546001600160a01b03191633179055612281806101056000396000f3fe608060405234801561001057600080fd5b50600436106101a95760003560e01c80636a627842116100f9578063ba9a7a5611610097578063d21220a711610071578063d21220a714610534578063d505accf1461053c578063dd62ed3e1461058d578063fff6cae9146105bb576101a9565b8063ba9a7a56146104fe578063bc25cf7714610506578063c45a01551461052c576101a9565b80637ecebe00116100d35780637ecebe001461046557806389afcb441461048b57806395d89b41146104ca578063a9059cbb146104d2576101a9565b80636a6278421461041157806370a08231146104375780637464fc3d1461045d576101a9565b806323b872dd116101665780633644e515116101405780633644e515146103cb578063485cc955146103d35780635909c0d5146104015780635a3d549314610409576101a9565b806323b872dd1461036f57806330adf81f146103a5578063313ce567146103ad576101a9565b8063022c0d9f146101ae57806306fdde031461023c5780630902f1ac146102b9578063095ea7b3146102f15780630dfe16811461033157806318160ddd14610355575b600080fd5b61023a600480360360808110156101c457600080fd5b8135916020810135916001600160a01b0360408301351691908101906080810160608201356401000000008111156101fb57600080fd5b82018360208201111561020d57600080fd5b8035906020019184600183028401116401000000008311171561022f57600080fd5b5090925090506105c3565b005b610244610afe565b6040805160208082528351818301528351919283929083019185019080838360005b8381101561027e578181015183820152602001610266565b50505050905090810190601f1680156102ab5780820380516001836020036101000a031916815260200191505b509250505060405180910390f35b6102c1610b24565b604080516001600160701b03948516815292909316602083015263ffffffff168183015290519081900360600190f35b61031d6004803603604081101561030757600080fd5b506001600160a01b038135169060200135610b4e565b604080519115158252519081900360200190f35b610339610b65565b604080516001600160a01b039092168252519081900360200190f35b61035d610b74565b60408051918252519081900360200190f35b61031d6004803603606081101561038557600080fd5b506001600160a01b03813581169160208101359091169060400135610b7a565b61035d610c14565b6103b5610c38565b6040805160ff9092168252519081900360200190f35b61035d610c3d565b61023a600480360360408110156103e957600080fd5b506001600160a01b0381358116916020013516610c43565b61035d610cc7565b61035d610ccd565b61035d6004803603602081101561042757600080fd5b50356001600160a01b0316610cd3565b61035d6004803603602081101561044d57600080fd5b50356001600160a01b0316610fd3565b61035d610fe5565b61035d6004803603602081101561047b57600080fd5b50356001600160a01b0316610feb565b6104b1600480360360208110156104a157600080fd5b50356001600160a01b0316610ffd565b6040805192835260208301919091528051918290030190f35b6102446113a3565b61031d600480360360408110156104e857600080fd5b506001600160a01b0381351690602001356113c5565b61035d6113d2565b61023a6004803603602081101561051c57600080fd5b50356001600160a01b03166113d8565b610339611543565b610339611552565b61023a600480360360e081101561055257600080fd5b506001600160a01b03813581169160208101359091169060408101359060608101359060ff6080820135169060a08101359060c00135611561565b61035d600480360360408110156105a357600080fd5b506001600160a01b0381358116916020013516611763565b61023a611780565b600c5460011461060e576040805162461bcd60e51b8152602060048201526011602482015270155b9a5cddd85c158c8e881313d0d2d151607a1b604482015290519081900360640190fd5b6000600c55841515806106215750600084115b61065c5760405162461bcd60e51b81526004018080602001828103825260258152602001806121936025913960400191505060405180910390fd5b600080610667610b24565b5091509150816001600160701b03168710801561068c5750806001600160701b031686105b6106c75760405162461bcd60e51b81526004018080602001828103825260218152602001806121dc6021913960400191505060405180910390fd5b60065460075460009182916001600160a01b039182169190811690891682148015906107055750806001600160a01b0316896001600160a01b031614155b61074e576040805162461bcd60e51b8152602060048201526015602482015274556e697377617056323a20494e56414c49445f544f60581b604482015290519081900360640190fd5b8a1561075f5761075f828a8d6118e2565b891561077057610770818a8c6118e2565b861561082b57886001600160a01b03166310d1e85c338d8d8c8c6040518663ffffffff1660e01b815260040180866001600160a01b03166001600160a01b03168152602001858152602001848152602001806020018281038252848482818152602001925080828437600081840152601f19601f8201169050808301925050509650505050505050600060405180830381600087803b15801561081257600080fd5b505af1158015610826573d6000803e3d6000fd5b505050505b604080516370a0823160e01b815230600482015290516001600160a01b038416916370a08231916024808301926020929190829003018186803b15801561087157600080fd5b505afa158015610885573d6000803e3d6000fd5b505050506040513d602081101561089b57600080fd5b5051604080516370a0823160e01b815230600482015290519195506001600160a01b038316916370a0823191602480820192602092909190829003018186803b1580156108e757600080fd5b505afa1580156108fb573d6000803e3d6000fd5b505050506040513d602081101561091157600080fd5b5051925060009150506001600160701b0385168a90038311610934576000610943565b89856001600160701b03160383035b9050600089856001600160701b031603831161096057600061096f565b89856001600160701b03160383035b905060008211806109805750600081115b6109bb5760405162461bcd60e51b81526004018080602001828103825260248152602001806121b86024913960400191505060405180910390fd5b60006109ef6109d184600363ffffffff611a7c16565b6109e3876103e863ffffffff611a7c16565b9063ffffffff611adf16565b90506000610a076109d184600363ffffffff611a7c16565b9050610a38620f4240610a2c6001600160701b038b8116908b1663ffffffff611a7c16565b9063ffffffff611a7c16565b610a48838363ffffffff611a7c16565b1015610a8a576040805162461bcd60e51b815260206004820152600c60248201526b556e697377617056323a204b60a01b604482015290519081900360640190fd5b5050610a9884848888611b2f565b60408051838152602081018390528082018d9052606081018c905290516001600160a01b038b169133917fd78ad95fa46c994b6551d0da85fc275fe613ce37657fb8d5e3d130840159d8229181900360800190a350506001600c55505050505050505050565b6040518060400160405280600a8152602001692ab734b9bbb0b8102b1960b11b81525081565b6008546001600160701b0380821692600160701b830490911691600160e01b900463ffffffff1690565b6000610b5b338484611cf4565b5060015b92915050565b6006546001600160a01b031681565b60005481565b6001600160a01b038316600090815260026020908152604080832033845290915281205460001914610bff576001600160a01b0384166000908152600260209081526040808320338452909152902054610bda908363ffffffff611adf16565b6001600160a01b03851660009081526002602090815260408083203384529091529020555b610c0a848484611d56565b5060019392505050565b7f6e71edae12b1b97f4d1f60370fef10105fa2faae0126114a169c64845d6126c981565b601281565b60035481565b6005546001600160a01b03163314610c99576040805162461bcd60e51b81526020600482015260146024820152732ab734b9bbb0b82b191d102327a92124a22222a760611b604482015290519081900360640190fd5b600680546001600160a01b039384166001600160a01b03199182161790915560078054929093169116179055565b60095481565b600a5481565b6000600c54600114610d20576040805162461bcd60e51b8152602060048201526011602482015270155b9a5cddd85c158c8e881313d0d2d151607a1b604482015290519081900360640190fd5b6000600c81905580610d30610b24565b50600654604080516370a0823160e01b815230600482015290519395509193506000926001600160a01b03909116916370a08231916024808301926020929190829003018186803b158015610d8457600080fd5b505afa158015610d98573d6000803e3d6000fd5b505050506040513d6020811015610dae57600080fd5b5051600754604080516370a0823160e01b815230600482015290519293506000926001600160a01b03909216916370a0823191602480820192602092909190829003018186803b158015610e0157600080fd5b505afa158015610e15573d6000803e3d6000fd5b505050506040513d6020811015610e2b57600080fd5b505190506000610e4a836001600160701b03871663ffffffff611adf16565b90506000610e67836001600160701b03871663ffffffff611adf16565b90506000610e758787611e10565b60005490915080610eb257610e9e6103e86109e3610e99878763ffffffff611a7c16565b611f6e565b9850610ead60006103e8611fc0565b610f01565b610efe6001600160701b038916610ecf868463ffffffff611a7c16565b81610ed657fe5b046001600160701b038916610ef1868563ffffffff611a7c16565b81610ef857fe5b04612056565b98505b60008911610f405760405162461bcd60e51b81526004018080602001828103825260288152602001806122256028913960400191505060405180910390fd5b610f4a8a8a611fc0565b610f5686868a8a611b2f565b8115610f8657600854610f82906001600160701b0380821691600160701b90041663ffffffff611a7c16565b600b555b6040805185815260208101859052815133927f4c209b5fc8ad50758f13e2e1088ba56a560dff690a1c6fef26394f4c03821c4f928290030190a250506001600c5550949695505050505050565b60016020526000908152604090205481565b600b5481565b60046020526000908152604090205481565b600080600c5460011461104b576040805162461bcd60e51b8152602060048201526011602482015270155b9a5cddd85c158c8e881313d0d2d151607a1b604482015290519081900360640190fd5b6000600c8190558061105b610b24565b50600654600754604080516370a0823160e01b815230600482015290519496509294506001600160a01b039182169391169160009184916370a08231916024808301926020929190829003018186803b1580156110b757600080fd5b505afa1580156110cb573d6000803e3d6000fd5b505050506040513d60208110156110e157600080fd5b5051604080516370a0823160e01b815230600482015290519192506000916001600160a01b038516916370a08231916024808301926020929190829003018186803b15801561112f57600080fd5b505afa158015611143573d6000803e3d6000fd5b505050506040513d602081101561115957600080fd5b5051306000908152600160205260408120549192506111788888611e10565b6000549091508061118f848763ffffffff611a7c16565b8161119657fe5b049a50806111aa848663ffffffff611a7c16565b816111b157fe5b04995060008b1180156111c4575060008a115b6111ff5760405162461bcd60e51b81526004018080602001828103825260288152602001806121fd6028913960400191505060405180910390fd5b611209308461206e565b611214878d8d6118e2565b61121f868d8c6118e2565b604080516370a0823160e01b815230600482015290516001600160a01b038916916370a08231916024808301926020929190829003018186803b15801561126557600080fd5b505afa158015611279573d6000803e3d6000fd5b505050506040513d602081101561128f57600080fd5b5051604080516370a0823160e01b815230600482015290519196506001600160a01b038816916370a0823191602480820192602092909190829003018186803b1580156112db57600080fd5b505afa1580156112ef573d6000803e3d6000fd5b505050506040513d602081101561130557600080fd5b5051935061131585858b8b611b2f565b811561134557600854611341906001600160701b0380821691600160701b90041663ffffffff611a7c16565b600b555b604080518c8152602081018c905281516001600160a01b038f169233927fdccd412f0b1252819cb1fd330b93224ca42612892bb3f4f789976e6d81936496929081900390910190a35050505050505050506001600c81905550915091565b604051806040016040528060068152602001652aa72496ab1960d11b81525081565b6000610b5b338484611d56565b6103e881565b600c54600114611423576040805162461bcd60e51b8152602060048201526011602482015270155b9a5cddd85c158c8e881313d0d2d151607a1b604482015290519081900360640190fd5b6000600c55600654600754600854604080516370a0823160e01b815230600482015290516001600160a01b0394851694909316926114d292859287926114cd926001600160701b03169185916370a0823191602480820192602092909190829003018186803b15801561149557600080fd5b505afa1580156114a9573d6000803e3d6000fd5b505050506040513d60208110156114bf57600080fd5b50519063ffffffff611adf16565b6118e2565b600854604080516370a0823160e01b8152306004820152905161153992849287926114cd92600160701b90046001600160701b0316916001600160a01b038616916370a0823191602480820192602092909190829003018186803b15801561149557600080fd5b50506001600c5550565b6005546001600160a01b031681565b6007546001600160a01b031681565b428410156115ab576040805162461bcd60e51b8152602060048201526012602482015271155b9a5cddd85c158c8e881156141254915160721b604482015290519081900360640190fd5b6003546001600160a01b0380891660008181526004602090815260408083208054600180820190925582517f6e71edae12b1b97f4d1f60370fef10105fa2faae0126114a169c64845d6126c98186015280840196909652958d166060860152608085018c905260a085019590955260c08085018b90528151808603909101815260e08501825280519083012061190160f01b6101008601526101028501969096526101228085019690965280518085039096018652610142840180825286519683019690962095839052610162840180825286905260ff89166101828501526101a284018890526101c28401879052519193926101e280820193601f1981019281900390910190855afa1580156116c6573d6000803e3d6000fd5b5050604051601f1901519150506001600160a01b038116158015906116fc5750886001600160a01b0316816001600160a01b0316145b61174d576040805162461bcd60e51b815260206004820152601c60248201527f556e697377617056323a20494e56414c49445f5349474e415455524500000000604482015290519081900360640190fd5b611758898989611cf4565b505050505050505050565b600260209081526000928352604080842090915290825290205481565b600c546001146117cb576040805162461bcd60e51b8152602060048201526011602482015270155b9a5cddd85c158c8e881313d0d2d151607a1b604482015290519081900360640190fd5b6000600c55600654604080516370a0823160e01b815230600482015290516118db926001600160a01b0316916370a08231916024808301926020929190829003018186803b15801561181c57600080fd5b505afa158015611830573d6000803e3d6000fd5b505050506040513d602081101561184657600080fd5b5051600754604080516370a0823160e01b815230600482015290516001600160a01b03909216916370a0823191602480820192602092909190829003018186803b15801561189357600080fd5b505afa1580156118a7573d6000803e3d6000fd5b505050506040513d60208110156118bd57600080fd5b50516008546001600160701b0380821691600160701b900416611b2f565b6001600c55565b604080518082018252601981527f7472616e7366657228616464726573732c75696e74323536290000000000000060209182015281516001600160a01b0385811660248301526044808301869052845180840390910181526064909201845291810180516001600160e01b031663a9059cbb60e01b1781529251815160009460609489169392918291908083835b6020831061198f5780518252601f199092019160209182019101611970565b6001836020036101000a0380198251168184511680821785525050505050509050019150506000604051808303816000865af19150503d80600081146119f1576040519150601f19603f3d011682016040523d82523d6000602084013e6119f6565b606091505b5091509150818015611a24575080511580611a245750808060200190516020811015611a2157600080fd5b50515b611a75576040805162461bcd60e51b815260206004820152601a60248201527f556e697377617056323a205452414e534645525f4641494c4544000000000000604482015290519081900360640190fd5b5050505050565b6000811580611a9757505080820282828281611a9457fe5b04145b610b5f576040805162461bcd60e51b815260206004820152601460248201527364732d6d6174682d6d756c2d6f766572666c6f7760601b604482015290519081900360640190fd5b80820382811115610b5f576040805162461bcd60e51b815260206004820152601560248201527464732d6d6174682d7375622d756e646572666c6f7760581b604482015290519081900360640190fd5b6001600160701b038411801590611b4d57506001600160701b038311155b611b94576040805162461bcd60e51b8152602060048201526013602482015272556e697377617056323a204f564552464c4f5760681b604482015290519081900360640190fd5b60085463ffffffff42811691600160e01b90048116820390811615801590611bc457506001600160701b03841615155b8015611bd857506001600160701b03831615155b15611c49578063ffffffff16611c0685611bf18661210c565b6001600160e01b03169063ffffffff61211e16565b600980546001600160e01b03929092169290920201905563ffffffff8116611c3184611bf18761210c565b600a80546001600160e01b0392909216929092020190555b600880546dffffffffffffffffffffffffffff19166001600160701b03888116919091176dffffffffffffffffffffffffffff60701b1916600160701b8883168102919091176001600160e01b0316600160e01b63ffffffff871602179283905560408051848416815291909304909116602082015281517f1c411e9a96e071241c2f21f7726b17ae89e3cab4c78be50e062b03a9fffbbad1929181900390910190a1505050505050565b6001600160a01b03808416600081815260026020908152604080832094871680845294825291829020859055815185815291517f8c5be1e5ebec7d5bd14f71427d1e84f3dd0314c0f7b2291e5b200ac8c7c3b9259281900390910190a3505050565b6001600160a01b038316600090815260016020526040902054611d7f908263ffffffff611adf16565b6001600160a01b038085166000908152600160205260408082209390935590841681522054611db4908263ffffffff61214316565b6001600160a01b0380841660008181526001602090815260409182902094909455805185815290519193928716927fddf252ad1be2c89b69c2b068fc378daa952ba7f163c4a11628f55a4df523b3ef92918290030190a3505050565b600080600560009054906101000a90046001600160a01b03166001600160a01b031663017e7e586040518163ffffffff1660e01b815260040160206040518083038186803b158015611e6157600080fd5b505afa158015611e75573d6000803e3d6000fd5b505050506040513d6020811015611e8b57600080fd5b5051600b546001600160a01b038216158015945091925090611f5a578015611f55576000611ece610e996001600160701b0388811690881663ffffffff611a7c16565b90506000611edb83611f6e565b905080821115611f52576000611f09611efa848463ffffffff611adf16565b6000549063ffffffff611a7c16565b90506000611f2e83611f2286600563ffffffff611a7c16565b9063ffffffff61214316565b90506000818381611f3b57fe5b0490508015611f4e57611f4e8782611fc0565b5050505b50505b611f66565b8015611f66576000600b555b505092915050565b60006003821115611fb1575080600160028204015b81811015611fab57809150600281828581611f9a57fe5b040181611fa357fe5b049050611f83565b50611fbb565b8115611fbb575060015b919050565b600054611fd3908263ffffffff61214316565b60009081556001600160a01b038316815260016020526040902054611ffe908263ffffffff61214316565b6001600160a01b03831660008181526001602090815260408083209490945583518581529351929391927fddf252ad1be2c89b69c2b068fc378daa952ba7f163c4a11628f55a4df523b3ef9281900390910190a35050565b60008183106120655781612067565b825b9392505050565b6001600160a01b038216600090815260016020526040902054612097908263ffffffff611adf16565b6001600160a01b038316600090815260016020526040812091909155546120c4908263ffffffff611adf16565b60009081556040805183815290516001600160a01b038516917fddf252ad1be2c89b69c2b068fc378daa952ba7f163c4a11628f55a4df523b3ef919081900360200190a35050565b6001600160701b0316600160701b0290565b60006001600160701b0382166001600160e01b0384168161213b57fe5b049392505050565b80820182811015610b5f576040805162461bcd60e51b815260206004820152601460248201527364732d6d6174682d6164642d6f766572666c6f7760601b604482015290519081900360640190fdfe556e697377617056323a20494e53554646494349454e545f4f55545055545f414d4f554e54556e697377617056323a20494e53554646494349454e545f494e5055545f414d4f554e54556e697377617056323a20494e53554646494349454e545f4c4951554944495459556e697377617056323a20494e53554646494349454e545f4c49515549444954595f4255524e4544556e697377617056323a20494e53554646494349454e545f4c49515549444954595f4d494e544544a265627a7a723158201bba1b4ab3064c956056873612c4a46cb7223f50f4da80ebe24571c70c812f2664736f6c63430005100032454950373132446f6d61696e28737472696e67206e616d652c737472696e672076657273696f6e2c75696e7432353620636861696e49642c6164647265737320766572696679696e67436f6e747261637429",
					"opcodes": "PUSH1 0x80 PUSH1 0x40 MSTORE PUSH1 0x1 PUSH1 0xC SSTORE CALLVALUE DUP1 ISZERO PUSH2 0x15 JUMPI PUSH1 0x0 DUP1 REVERT JUMPDEST POP PUSH1 0x40 MLOAD CHAINID SWAP1 DUP1 PUSH1 0x52 PUSH2 0x2386 DUP3 CODECOPY PUSH1 0x40 DUP1 MLOAD SWAP2 DUP3 SWAP1 SUB PUSH1 0x52 ADD DUP3 KECCAK256 DUP3 DUP3 ADD DUP3 MSTORE PUSH1 0xA DUP4 MSTORE PUSH10 0x2AB734B9BBB0B8102B19 PUSH1 0xB1 SHL PUSH1 0x20 SWAP4 DUP5 ADD MSTORE DUP2 MLOAD DUP1 DUP4 ADD DUP4 MSTORE PUSH1 0x1 DUP2 MSTORE PUSH1 0x31 PUSH1 0xF8 SHL SWAP1 DUP5 ADD MSTORE DUP2 MLOAD DUP1 DUP5 ADD SWAP2 SWAP1 SWAP2 MSTORE PUSH32 0xBFCC8EF98FFBF7B6C3FEC7BF5185B566B9863E35A9D83ACD49AD6824B5969738 DUP2 DUP4 ADD MSTORE PUSH32 0xC89EFDAA54C0F20C7ADF612882DF0950F5A951637E0307CDCB4C672F298B8BC6 PUSH1 0x60 DUP3 ADD MSTORE PUSH1 0x80 DUP2 ADD SWAP5 SWAP1 SWAP5 MSTORE ADDRESS PUSH1 0xA0 DUP1 DUP7 ADD SWAP2 SWAP1 SWAP2 MSTORE DUP2 MLOAD DUP1 DUP7 SUB SWAP1 SWAP2 ADD DUP2 MSTORE PUSH1 0xC0 SWAP1 SWAP5 ADD SWAP1 MSTORE DUP3 MLOAD SWAP3 ADD SWAP2 SWAP1 SWAP2 KECCAK256 PUSH1 0x3 SSTORE POP PUSH1 0x5 DUP1 SLOAD PUSH1 0x1 PUSH1 0x1 PUSH1 0xA0 SHL SUB NOT AND CALLER OR SWAP1 SSTORE PUSH2 0x2281 DUP1 PUSH2 0x105 PUSH1 0x0 CODECOPY PUSH1 0x0 RETURN INVALID PUSH1 0x80 PUSH1 0x40 MSTORE CALLVALUE DUP1 ISZERO PUSH2 0x10 JUMPI PUSH1 0x0 DUP1 REVERT JUMPDEST POP PUSH1 0x4 CALLDATASIZE LT PUSH2 0x1A9 JUMPI PUSH1 0x0 CALLDATALOAD PUSH1 0xE0 SHR DUP1 PUSH4 0x6A627842 GT PUSH2 0xF9 JUMPI DUP1 PUSH4 0xBA9A7A56 GT PUSH2 0x97 JUMPI DUP1 PUSH4 0xD21220A7 GT PUSH2 0x71 JUMPI DUP1 PUSH4 0xD21220A7 EQ PUSH2 0x534 JUMPI DUP1 PUSH4 0xD505ACCF EQ PUSH2 0x53C JUMPI DUP1 PUSH4 0xDD62ED3E EQ PUSH2 0x58D JUMPI DUP1 PUSH4 0xFFF6CAE9 EQ PUSH2 0x5BB JUMPI PUSH2 0x1A9 JUMP JUMPDEST DUP1 PUSH4 0xBA9A7A56 EQ PUSH2 0x4FE JUMPI DUP1 PUSH4 0xBC25CF77 EQ PUSH2 0x506 JUMPI DUP1 PUSH4 0xC45A0155 EQ PUSH2 0x52C JUMPI PUSH2 0x1A9 JUMP JUMPDEST DUP1 PUSH4 0x7ECEBE00 GT PUSH2 0xD3 JUMPI DUP1 PUSH4 0x7ECEBE00 EQ PUSH2 0x465 JUMPI DUP1 PUSH4 0x89AFCB44 EQ PUSH2 0x48B JUMPI DUP1 PUSH4 0x95D89B41 EQ PUSH2 0x4CA JUMPI DUP1 PUSH4 0xA9059CBB EQ PUSH2 0x4D2 JUMPI PUSH2 0x1A9 JUMP JUMPDEST DUP1 PUSH4 0x6A627842 EQ PUSH2 0x411 JUMPI DUP1 PUSH4 0x70A08231 EQ PUSH2 0x437 JUMPI DUP1 PUSH4 0x7464FC3D EQ PUSH2 0x45D JUMPI PUSH2 0x1A9 JUMP JUMPDEST DUP1 PUSH4 0x23B872DD GT PUSH2 0x166 JUMPI DUP1 PUSH4 0x3644E515 GT PUSH2 0x140 JUMPI DUP1 PUSH4 0x3644E515 EQ PUSH2 0x3CB JUMPI DUP1 PUSH4 0x485CC955 EQ PUSH2 0x3D3 JUMPI DUP1 PUSH4 0x5909C0D5 EQ PUSH2 0x401 JUMPI DUP1 PUSH4 0x5A3D5493 EQ PUSH2 0x409 JUMPI PUSH2 0x1A9 JUMP JUMPDEST DUP1 PUSH4 0x23B872DD EQ PUSH2 0x36F JUMPI DUP1 PUSH4 0x30ADF81F EQ PUSH2 0x3A5 JUMPI DUP1 PUSH4 0x313CE567 EQ PUSH2 0x3AD JUMPI PUSH2 0x1A9 JUMP JUMPDEST DUP1 PUSH4 0x22C0D9F EQ PUSH2 0x1AE JUMPI DUP1 PUSH4 0x6FDDE03 EQ PUSH2 0x23C JUMPI DUP1 PUSH4 0x902F1AC EQ PUSH2 0x2B9 JUMPI DUP1 PUSH4 0x95EA7B3 EQ PUSH2 0x2F1 JUMPI DUP1 PUSH4 0xDFE1681 EQ PUSH2 0x331 JUMPI DUP1 PUSH4 0x18160DDD EQ PUSH2 0x355 JUMPI JUMPDEST PUSH1 0x0 DUP1 REVERT JUMPDEST PUSH2 0x23A PUSH1 0x4 DUP1 CALLDATASIZE SUB PUSH1 0x80 DUP2 LT ISZERO PUSH2 0x1C4 JUMPI PUSH1 0x0 DUP1 REVERT JUMPDEST DUP2 CALLDATALOAD SWAP2 PUSH1 0x20 DUP2 ADD CALLDATALOAD SWAP2 PUSH1 0x1 PUSH1 0x1 PUSH1 0xA0 SHL SUB PUSH1 0x40 DUP4 ADD CALLDATALOAD AND SWAP2 SWAP1 DUP2 ADD SWAP1 PUSH1 0x80 DUP2 ADD PUSH1 0x60 DUP3 ADD CALLDATALOAD PUSH5 0x100000000 DUP2 GT ISZERO PUSH2 0x1FB JUMPI PUSH1 0x0 DUP1 REVERT JUMPDEST DUP3 ADD DUP4 PUSH1 0x20 DUP3 ADD GT ISZERO PUSH2 0x20D JUMPI PUSH1 0x0 DUP1 REVERT JUMPDEST DUP1 CALLDATALOAD SWAP1 PUSH1 0x20 ADD SWAP2 DUP5 PUSH1 0x1 DUP4 MUL DUP5 ADD GT PUSH5 0x100000000 DUP4 GT OR ISZERO PUSH2 0x22F JUMPI PUSH1 0x0 DUP1 REVERT JUMPDEST POP SWAP1 SWAP3 POP SWAP1 POP PUSH2 0x5C3 JUMP JUMPDEST STOP JUMPDEST PUSH2 0x244 PUSH2 0xAFE JUMP JUMPDEST PUSH1 0x40 DUP1 MLOAD PUSH1 0x20 DUP1 DUP3 MSTORE DUP4 MLOAD DUP2 DUP4 ADD MSTORE DUP4 MLOAD SWAP2 SWAP3 DUP4 SWAP3 SWAP1 DUP4 ADD SWAP2 DUP6 ADD SWAP1 DUP1 DUP4 DUP4 PUSH1 0x0 JUMPDEST DUP4 DUP2 LT ISZERO PUSH2 0x27E JUMPI DUP2 DUP2 ADD MLOAD DUP4 DUP3 ADD MSTORE PUSH1 0x20 ADD PUSH2 0x266 JUMP JUMPDEST POP POP POP POP SWAP1 POP SWAP1 DUP2 ADD SWAP1 PUSH1 0x1F AND DUP1 ISZERO PUSH2 0x2AB JUMPI DUP1 DUP3 SUB DUP1 MLOAD PUSH1 0x1 DUP4 PUSH1 0x20 SUB PUSH2 0x100 EXP SUB NOT AND DUP2 MSTORE PUSH1 0x20 ADD SWAP2 POP JUMPDEST POP SWAP3 POP POP POP PUSH1 0x40 MLOAD DUP1 SWAP2 SUB SWAP1 RETURN JUMPDEST PUSH2 0x2C1 PUSH2 0xB24 JUMP JUMPDEST PUSH1 0x40 DUP1 MLOAD PUSH1 0x1 PUSH1 0x1 PUSH1 0x70 SHL SUB SWAP5 DUP6 AND DUP2 MSTORE SWAP3 SWAP1 SWAP4 AND PUSH1 0x20 DUP4 ADD MSTORE PUSH4 0xFFFFFFFF AND DUP2 DUP4 ADD MSTORE SWAP1 MLOAD SWAP1 DUP2 SWAP1 SUB PUSH1 0x60 ADD SWAP1 RETURN JUMPDEST PUSH2 0x31D PUSH1 0x4 DUP1 CALLDATASIZE SUB PUSH1 0x40 DUP2 LT ISZERO PUSH2 0x307 JUMPI PUSH1 0x0 DUP1 REVERT JUMPDEST POP PUSH1 0x1 PUSH1 0x1 PUSH1 0xA0 SHL SUB DUP2 CALLDATALOAD AND SWAP1 PUSH1 0x20 ADD CALLDATALOAD PUSH2 0xB4E JUMP JUMPDEST PUSH1 0x40 DUP1 MLOAD SWAP2 ISZERO ISZERO DUP3 MSTORE MLOAD SWAP1 DUP2 SWAP1 SUB PUSH1 0x20 ADD SWAP1 RETURN JUMPDEST PUSH2 0x339 PUSH2 0xB65 JUMP JUMPDEST PUSH1 0x40 DUP1 MLOAD PUSH1 0x1 PUSH1 0x1 PUSH1 0xA0 SHL SUB SWAP1 SWAP3 AND DUP3 MSTORE MLOAD SWAP1 DUP2 SWAP1 SUB PUSH1 0x20 ADD SWAP1 RETURN JUMPDEST PUSH2 0x35D PUSH2 0xB74 JUMP JUMPDEST PUSH1 0x40 DUP1 MLOAD SWAP2 DUP3 MSTORE MLOAD SWAP1 DUP2 SWAP1 SUB PUSH1 0x20 ADD SWAP1 RETURN JUMPDEST PUSH2 0x31D PUSH1 0x4 DUP1 CALLDATASIZE SUB PUSH1 0x60 DUP2 LT ISZERO PUSH2 0x385 JUMPI PUSH1 0x0 DUP1 REVERT JUMPDEST POP PUSH1 0x1 PUSH1 0x1 PUSH1 0xA0 SHL SUB DUP2 CALLDATALOAD DUP2 AND SWAP2 PUSH1 0x20 DUP2 ADD CALLDATALOAD SWAP1 SWAP2 AND SWAP1 PUSH1 0x40 ADD CALLDATALOAD PUSH2 0xB7A JUMP JUMPDEST PUSH2 0x35D PUSH2 0xC14 JUMP JUMPDEST PUSH2 0x3B5 PUSH2 0xC38 JUMP JUMPDEST PUSH1 0x40 DUP1 MLOAD PUSH1 0xFF SWAP1 SWAP3 AND DUP3 MSTORE MLOAD SWAP1 DUP2 SWAP1 SUB PUSH1 0x20 ADD SWAP1 RETURN JUMPDEST PUSH2 0x35D PUSH2 0xC3D JUMP JUMPDEST PUSH2 0x23A PUSH1 0x4 DUP1 CALLDATASIZE SUB PUSH1 0x40 DUP2 LT ISZERO PUSH2 0x3E9 JUMPI PUSH1 0x0 DUP1 REVERT JUMPDEST POP PUSH1 0x1 PUSH1 0x1 PUSH1 0xA0 SHL SUB DUP2 CALLDATALOAD DUP2 AND SWAP2 PUSH1 0x20 ADD CALLDATALOAD AND PUSH2 0xC43 JUMP JUMPDEST PUSH2 0x35D PUSH2 0xCC7 JUMP JUMPDEST PUSH2 0x35D PUSH2 0xCCD JUMP JUMPDEST PUSH2 0x35D PUSH1 0x4 DUP1 CALLDATASIZE SUB PUSH1 0x20 DUP2 LT ISZERO PUSH2 0x427 JUMPI PUSH1 0x0 DUP1 REVERT JUMPDEST POP CALLDATALOAD PUSH1 0x1 PUSH1 0x1 PUSH1 0xA0 SHL SUB AND PUSH2 0xCD3 JUMP JUMPDEST PUSH2 0x35D PUSH1 0x4 DUP1 CALLDATASIZE SUB PUSH1 0x20 DUP2 LT ISZERO PUSH2 0x44D JUMPI PUSH1 0x0 DUP1 REVERT JUMPDEST POP CALLDATALOAD PUSH1 0x1 PUSH1 0x1 PUSH1 0xA0 SHL SUB AND PUSH2 0xFD3 JUMP JUMPDEST PUSH2 0x35D PUSH2 0xFE5 JUMP JUMPDEST PUSH2 0x35D PUSH1 0x4 DUP1 CALLDATASIZE SUB PUSH1 0x20 DUP2 LT ISZERO PUSH2 0x47B JUMPI PUSH1 0x0 DUP1 REVERT JUMPDEST POP CALLDATALOAD PUSH1 0x1 PUSH1 0x1 PUSH1 0xA0 SHL SUB AND PUSH2 0xFEB JUMP JUMPDEST PUSH2 0x4B1 PUSH1 0x4 DUP1 CALLDATASIZE SUB PUSH1 0x20 DUP2 LT ISZERO PUSH2 0x4A1 JUMPI PUSH1 0x0 DUP1 REVERT JUMPDEST POP CALLDATALOAD PUSH1 0x1 PUSH1 0x1 PUSH1 0xA0 SHL SUB AND PUSH2 0xFFD JUMP JUMPDEST PUSH1 0x40 DUP1 MLOAD SWAP3 DUP4 MSTORE PUSH1 0x20 DUP4 ADD SWAP2 SWAP1 SWAP2 MSTORE DUP1 MLOAD SWAP2 DUP3 SWAP1 SUB ADD SWAP1 RETURN JUMPDEST PUSH2 0x244 PUSH2 0x13A3 JUMP JUMPDEST PUSH2 0x31D PUSH1 0x4 DUP1 CALLDATASIZE SUB PUSH1 0x40 DUP2 LT ISZERO PUSH2 0x4E8 JUMPI PUSH1 0x0 DUP1 REVERT JUMPDEST POP PUSH1 0x1 PUSH1 0x1 PUSH1 0xA0 SHL SUB DUP2 CALLDATALOAD AND SWAP1 PUSH1 0x20 ADD CALLDATALOAD PUSH2 0x13C5 JUMP JUMPDEST PUSH2 0x35D PUSH2 0x13D2 JUMP JUMPDEST PUSH2 0x23A PUSH1 0x4 DUP1 CALLDATASIZE SUB PUSH1 0x20 DUP2 LT ISZERO PUSH2 0x51C JUMPI PUSH1 0x0 DUP1 REVERT JUMPDEST POP CALLDATALOAD PUSH1 0x1 PUSH1 0x1 PUSH1 0xA0 SHL SUB AND PUSH2 0x13D8 JUMP JUMPDEST PUSH2 0x339 PUSH2 0x1543 JUMP JUMPDEST PUSH2 0x339 PUSH2 0x1552 JUMP JUMPDEST PUSH2 0x23A PUSH1 0x4 DUP1 CALLDATASIZE SUB PUSH1 0xE0 DUP2 LT ISZERO PUSH2 0x552 JUMPI PUSH1 0x0 DUP1 REVERT JUMPDEST POP PUSH1 0x1 PUSH1 0x1 PUSH1 0xA0 SHL SUB DUP2 CALLDATALOAD DUP2 AND SWAP2 PUSH1 0x20 DUP2 ADD CALLDATALOAD SWAP1 SWAP2 AND SWAP1 PUSH1 0x40 DUP2 ADD CALLDATALOAD SWAP1 PUSH1 0x60 DUP2 ADD CALLDATALOAD SWAP1 PUSH1 0xFF PUSH1 0x80 DUP3 ADD CALLDATALOAD AND SWAP1 PUSH1 0xA0 DUP2 ADD CALLDATALOAD SWAP1 PUSH1 0xC0 ADD CALLDATALOAD PUSH2 0x1561 JUMP JUMPDEST PUSH2 0x35D PUSH1 0x4 DUP1 CALLDATASIZE SUB PUSH1 0x40 DUP2 LT ISZERO PUSH2 0x5A3 JUMPI PUSH1 0x0 DUP1 REVERT JUMPDEST POP PUSH1 0x1 PUSH1 0x1 PUSH1 0xA0 SHL SUB DUP2 CALLDATALOAD DUP2 AND SWAP2 PUSH1 0x20 ADD CALLDATALOAD AND PUSH2 0x1763 JUMP JUMPDEST PUSH2 0x23A PUSH2 0x1780 JUMP JUMPDEST PUSH1 0xC SLOAD PUSH1 0x1 EQ PUSH2 0x60E JUMPI PUSH1 0x40 DUP1 MLOAD PUSH3 0x461BCD PUSH1 0xE5 SHL DUP2 MSTORE PUSH1 0x20 PUSH1 0x4 DUP3 ADD MSTORE PUSH1 0x11 PUSH1 0x24 DUP3 ADD MSTORE PUSH17 0x155B9A5CDDD85C158C8E881313D0D2D151 PUSH1 0x7A SHL PUSH1 0x44 DUP3 ADD MSTORE SWAP1 MLOAD SWAP1 DUP2 SWAP1 SUB PUSH1 0x64 ADD SWAP1 REVERT JUMPDEST PUSH1 0x0 PUSH1 0xC SSTORE DUP5 ISZERO ISZERO DUP1 PUSH2 0x621 JUMPI POP PUSH1 0x0 DUP5 GT JUMPDEST PUSH2 0x65C JUMPI PUSH1 0x40 MLOAD PUSH3 0x461BCD PUSH1 0xE5 SHL DUP2 MSTORE PUSH1 0x4 ADD DUP1 DUP1 PUSH1 0x20 ADD DUP3 DUP2 SUB DUP3 MSTORE PUSH1 0x25 DUP2 MSTORE PUSH1 0x20 ADD DUP1 PUSH2 0x2193 PUSH1 0x25 SWAP2 CODECOPY PUSH1 0x40 ADD SWAP2 POP POP PUSH1 0x40 MLOAD DUP1 SWAP2 SUB SWAP1 REVERT JUMPDEST PUSH1 0x0 DUP1 PUSH2 0x667 PUSH2 0xB24 JUMP JUMPDEST POP SWAP2 POP SWAP2 POP DUP2 PUSH1 0x1 PUSH1 0x1 PUSH1 0x70 SHL SUB AND DUP8 LT DUP1 ISZERO PUSH2 0x68C JUMPI POP DUP1 PUSH1 0x1 PUSH1 0x1 PUSH1 0x70 SHL SUB AND DUP7 LT JUMPDEST PUSH2 0x6C7 JUMPI PUSH1 0x40 MLOAD PUSH3 0x461BCD PUSH1 0xE5 SHL DUP2 MSTORE PUSH1 0x4 ADD DUP1 DUP1 PUSH1 0x20 ADD DUP3 DUP2 SUB DUP3 MSTORE PUSH1 0x21 DUP2 MSTORE PUSH1 0x20 ADD DUP1 PUSH2 0x21DC PUSH1 0x21 SWAP2 CODECOPY PUSH1 0x40 ADD SWAP2 POP POP PUSH1 0x40 MLOAD DUP1 SWAP2 SUB SWAP1 REVERT JUMPDEST PUSH1 0x6 SLOAD PUSH1 0x7 SLOAD PUSH1 0x0 SWAP2 DUP3 SWAP2 PUSH1 0x1 PUSH1 0x1 PUSH1 0xA0 SHL SUB SWAP2 DUP3 AND SWAP2 SWAP1 DUP2 AND SWAP1 DUP10 AND DUP3 EQ DUP1 ISZERO SWAP1 PUSH2 0x705 JUMPI POP DUP1 PUSH1 0x1 PUSH1 0x1 PUSH1 0xA0 SHL SUB AND DUP10 PUSH1 0x1 PUSH1 0x1 PUSH1 0xA0 SHL SUB AND EQ ISZERO JUMPDEST PUSH2 0x74E JUMPI PUSH1 0x40 DUP1 MLOAD PUSH3 0x461BCD PUSH1 0xE5 SHL DUP2 MSTORE PUSH1 0x20 PUSH1 0x4 DUP3 ADD MSTORE PUSH1 0x15 PUSH1 0x24 DUP3 ADD MSTORE PUSH21 0x556E697377617056323A20494E56414C49445F544F PUSH1 0x58 SHL PUSH1 0x44 DUP3 ADD MSTORE SWAP1 MLOAD SWAP1 DUP2 SWAP1 SUB PUSH1 0x64 ADD SWAP1 REVERT JUMPDEST DUP11 ISZERO PUSH2 0x75F JUMPI PUSH2 0x75F DUP3 DUP11 DUP14 PUSH2 0x18E2 JUMP JUMPDEST DUP10 ISZERO PUSH2 0x770 JUMPI PUSH2 0x770 DUP2 DUP11 DUP13 PUSH2 0x18E2 JUMP JUMPDEST DUP7 ISZERO PUSH2 0x82B JUMPI DUP9 PUSH1 0x1 PUSH1 0x1 PUSH1 0xA0 SHL SUB AND PUSH4 0x10D1E85C CALLER DUP14 DUP14 DUP13 DUP13 PUSH1 0x40 MLOAD DUP7 PUSH4 0xFFFFFFFF AND PUSH1 0xE0 SHL DUP2 MSTORE PUSH1 0x4 ADD DUP1 DUP7 PUSH1 0x1 PUSH1 0x1 PUSH1 0xA0 SHL SUB AND PUSH1 0x1 PUSH1 0x1 PUSH1 0xA0 SHL SUB AND DUP2 MSTORE PUSH1 0x20 ADD DUP6 DUP2 MSTORE PUSH1 0x20 ADD DUP5 DUP2 MSTORE PUSH1 0x20 ADD DUP1 PUSH1 0x20 ADD DUP3 DUP2 SUB DUP3 MSTORE DUP5 DUP5 DUP3 DUP2 DUP2 MSTORE PUSH1 0x20 ADD SWAP3 POP DUP1 DUP3 DUP5 CALLDATACOPY PUSH1 0x0 DUP2 DUP5 ADD MSTORE PUSH1 0x1F NOT PUSH1 0x1F DUP3 ADD AND SWAP1 POP DUP1 DUP4 ADD SWAP3 POP POP POP SWAP7 POP POP POP POP POP POP POP PUSH1 0x0 PUSH1 0x40 MLOAD DUP1 DUP4 SUB DUP2 PUSH1 0x0 DUP8 DUP1 EXTCODESIZE ISZERO DUP1 ISZERO PUSH2 0x812 JUMPI PUSH1 0x0 DUP1 REVERT JUMPDEST POP GAS CALL ISZERO DUP1 ISZERO PUSH2 0x826 JUMPI RETURNDATASIZE PUSH1 0x0 DUP1 RETURNDATACOPY RETURNDATASIZE PUSH1 0x0 REVERT JUMPDEST POP POP POP POP JUMPDEST PUSH1 0x40 DUP1 MLOAD PUSH4 0x70A08231 PUSH1 0xE0 SHL DUP2 MSTORE ADDRESS PUSH1 0x4 DUP3 ADD MSTORE SWAP1 MLOAD PUSH1 0x1 PUSH1 0x1 PUSH1 0xA0 SHL SUB DUP5 AND SWAP2 PUSH4 0x70A08231 SWAP2 PUSH1 0x24 DUP1 DUP4 ADD SWAP3 PUSH1 0x20 SWAP3 SWAP2 SWAP1 DUP3 SWAP1 SUB ADD DUP2 DUP7 DUP1 EXTCODESIZE ISZERO DUP1 ISZERO PUSH2 0x871 JUMPI PUSH1 0x0 DUP1 REVERT JUMPDEST POP GAS STATICCALL ISZERO DUP1 ISZERO PUSH2 0x885 JUMPI RETURNDATASIZE PUSH1 0x0 DUP1 RETURNDATACOPY RETURNDATASIZE PUSH1 0x0 REVERT JUMPDEST POP POP POP POP PUSH1 0x40 MLOAD RETURNDATASIZE PUSH1 0x20 DUP2 LT ISZERO PUSH2 0x89B JUMPI PUSH1 0x0 DUP1 REVERT JUMPDEST POP MLOAD PUSH1 0x40 DUP1 MLOAD PUSH4 0x70A08231 PUSH1 0xE0 SHL DUP2 MSTORE ADDRESS PUSH1 0x4 DUP3 ADD MSTORE SWAP1 MLOAD SWAP2 SWAP6 POP PUSH1 0x1 PUSH1 0x1 PUSH1 0xA0 SHL SUB DUP4 AND SWAP2 PUSH4 0x70A08231 SWAP2 PUSH1 0x24 DUP1 DUP3 ADD SWAP3 PUSH1 0x20 SWAP3 SWAP1 SWAP2 SWAP1 DUP3 SWAP1 SUB ADD DUP2 DUP7 DUP1 EXTCODESIZE ISZERO DUP1 ISZERO PUSH2 0x8E7 JUMPI PUSH1 0x0 DUP1 REVERT JUMPDEST POP GAS STATICCALL ISZERO DUP1 ISZERO PUSH2 0x8FB JUMPI RETURNDATASIZE PUSH1 0x0 DUP1 RETURNDATACOPY RETURNDATASIZE PUSH1 0x0 REVERT JUMPDEST POP POP POP POP PUSH1 0x40 MLOAD RETURNDATASIZE PUSH1 0x20 DUP2 LT ISZERO PUSH2 0x911 JUMPI PUSH1 0x0 DUP1 REVERT JUMPDEST POP MLOAD SWAP3 POP PUSH1 0x0 SWAP2 POP POP PUSH1 0x1 PUSH1 0x1 PUSH1 0x70 SHL SUB DUP6 AND DUP11 SWAP1 SUB DUP4 GT PUSH2 0x934 JUMPI PUSH1 0x0 PUSH2 0x943 JUMP JUMPDEST DUP10 DUP6 PUSH1 0x1 PUSH1 0x1 PUSH1 0x70 SHL SUB AND SUB DUP4 SUB JUMPDEST SWAP1 POP PUSH1 0x0 DUP10 DUP6 PUSH1 0x1 PUSH1 0x1 PUSH1 0x70 SHL SUB AND SUB DUP4 GT PUSH2 0x960 JUMPI PUSH1 0x0 PUSH2 0x96F JUMP JUMPDEST DUP10 DUP6 PUSH1 0x1 PUSH1 0x1 PUSH1 0x70 SHL SUB AND SUB DUP4 SUB JUMPDEST SWAP1 POP PUSH1 0x0 DUP3 GT DUP1 PUSH2 0x980 JUMPI POP PUSH1 0x0 DUP2 GT JUMPDEST PUSH2 0x9BB JUMPI PUSH1 0x40 MLOAD PUSH3 0x461BCD PUSH1 0xE5 SHL DUP2 MSTORE PUSH1 0x4 ADD DUP1 DUP1 PUSH1 0x20 ADD DUP3 DUP2 SUB DUP3 MSTORE PUSH1 0x24 DUP2 MSTORE PUSH1 0x20 ADD DUP1 PUSH2 0x21B8 PUSH1 0x24 SWAP2 CODECOPY PUSH1 0x40 ADD SWAP2 POP POP PUSH1 0x40 MLOAD DUP1 SWAP2 SUB SWAP1 REVERT JUMPDEST PUSH1 0x0 PUSH2 0x9EF PUSH2 0x9D1 DUP5 PUSH1 0x3 PUSH4 0xFFFFFFFF PUSH2 0x1A7C AND JUMP JUMPDEST PUSH2 0x9E3 DUP8 PUSH2 0x3E8 PUSH4 0xFFFFFFFF PUSH2 0x1A7C AND JUMP JUMPDEST SWAP1 PUSH4 0xFFFFFFFF PUSH2 0x1ADF AND JUMP JUMPDEST SWAP1 POP PUSH1 0x0 PUSH2 0xA07 PUSH2 0x9D1 DUP5 PUSH1 0x3 PUSH4 0xFFFFFFFF PUSH2 0x1A7C AND JUMP JUMPDEST SWAP1 POP PUSH2 0xA38 PUSH3 0xF4240 PUSH2 0xA2C PUSH1 0x1 PUSH1 0x1 PUSH1 0x70 SHL SUB DUP12 DUP2 AND SWAP1 DUP12 AND PUSH4 0xFFFFFFFF PUSH2 0x1A7C AND JUMP JUMPDEST SWAP1 PUSH4 0xFFFFFFFF PUSH2 0x1A7C AND JUMP JUMPDEST PUSH2 0xA48 DUP4 DUP4 PUSH4 0xFFFFFFFF PUSH2 0x1A7C AND JUMP JUMPDEST LT ISZERO PUSH2 0xA8A JUMPI PUSH1 0x40 DUP1 MLOAD PUSH3 0x461BCD PUSH1 0xE5 SHL DUP2 MSTORE PUSH1 0x20 PUSH1 0x4 DUP3 ADD MSTORE PUSH1 0xC PUSH1 0x24 DUP3 ADD MSTORE PUSH12 0x556E697377617056323A204B PUSH1 0xA0 SHL PUSH1 0x44 DUP3 ADD MSTORE SWAP1 MLOAD SWAP1 DUP2 SWAP1 SUB PUSH1 0x64 ADD SWAP1 REVERT JUMPDEST POP POP PUSH2 0xA98 DUP5 DUP5 DUP9 DUP9 PUSH2 0x1B2F JUMP JUMPDEST PUSH1 0x40 DUP1 MLOAD DUP4 DUP2 MSTORE PUSH1 0x20 DUP2 ADD DUP4 SWAP1 MSTORE DUP1 DUP3 ADD DUP14 SWAP1 MSTORE PUSH1 0x60 DUP2 ADD DUP13 SWAP1 MSTORE SWAP1 MLOAD PUSH1 0x1 PUSH1 0x1 PUSH1 0xA0 SHL SUB DUP12 AND SWAP2 CALLER SWAP2 PUSH32 0xD78AD95FA46C994B6551D0DA85FC275FE613CE37657FB8D5E3D130840159D822 SWAP2 DUP2 SWAP1 SUB PUSH1 0x80 ADD SWAP1 LOG3 POP POP PUSH1 0x1 PUSH1 0xC SSTORE POP POP POP POP POP POP POP POP POP JUMP JUMPDEST PUSH1 0x40 MLOAD DUP1 PUSH1 0x40 ADD PUSH1 0x40 MSTORE DUP1 PUSH1 0xA DUP2 MSTORE PUSH1 0x20 ADD PUSH10 0x2AB734B9BBB0B8102B19 PUSH1 0xB1 SHL DUP2 MSTORE POP DUP2 JUMP JUMPDEST PUSH1 0x8 SLOAD PUSH1 0x1 PUSH1 0x1 PUSH1 0x70 SHL SUB DUP1 DUP3 AND SWAP3 PUSH1 0x1 PUSH1 0x70 SHL DUP4 DIV SWAP1 SWAP2 AND SWAP2 PUSH1 0x1 PUSH1 0xE0 SHL SWAP1 DIV PUSH4 0xFFFFFFFF AND SWAP1 JUMP JUMPDEST PUSH1 0x0 PUSH2 0xB5B CALLER DUP5 DUP5 PUSH2 0x1CF4 JUMP JUMPDEST POP PUSH1 0x1 JUMPDEST SWAP3 SWAP2 POP POP JUMP JUMPDEST PUSH1 0x6 SLOAD PUSH1 0x1 PUSH1 0x1 PUSH1 0xA0 SHL SUB AND DUP2 JUMP JUMPDEST PUSH1 0x0 SLOAD DUP2 JUMP JUMPDEST PUSH1 0x1 PUSH1 0x1 PUSH1 0xA0 SHL SUB DUP4 AND PUSH1 0x0 SWAP1 DUP2 MSTORE PUSH1 0x2 PUSH1 0x20 SWAP1 DUP2 MSTORE PUSH1 0x40 DUP1 DUP4 KECCAK256 CALLER DUP5 MSTORE SWAP1 SWAP2 MSTORE DUP2 KECCAK256 SLOAD PUSH1 0x0 NOT EQ PUSH2 0xBFF JUMPI PUSH1 0x1 PUSH1 0x1 PUSH1 0xA0 SHL SUB DUP5 AND PUSH1 0x0 SWAP1 DUP2 MSTORE PUSH1 0x2 PUSH1 0x20 SWAP1 DUP2 MSTORE PUSH1 0x40 DUP1 DUP4 KECCAK256 CALLER DUP5 MSTORE SWAP1 SWAP2 MSTORE SWAP1 KECCAK256 SLOAD PUSH2 0xBDA SWAP1 DUP4 PUSH4 0xFFFFFFFF PUSH2 0x1ADF AND JUMP JUMPDEST PUSH1 0x1 PUSH1 0x1 PUSH1 0xA0 SHL SUB DUP6 AND PUSH1 0x0 SWAP1 DUP2 MSTORE PUSH1 0x2 PUSH1 0x20 SWAP1 DUP2 MSTORE PUSH1 0x40 DUP1 DUP4 KECCAK256 CALLER DUP5 MSTORE SWAP1 SWAP2 MSTORE SWAP1 KECCAK256 SSTORE JUMPDEST PUSH2 0xC0A DUP5 DUP5 DUP5 PUSH2 0x1D56 JUMP JUMPDEST POP PUSH1 0x1 SWAP4 SWAP3 POP POP POP JUMP JUMPDEST PUSH32 0x6E71EDAE12B1B97F4D1F60370FEF10105FA2FAAE0126114A169C64845D6126C9 DUP2 JUMP JUMPDEST PUSH1 0x12 DUP2 JUMP JUMPDEST PUSH1 0x3 SLOAD DUP2 JUMP JUMPDEST PUSH1 0x5 SLOAD PUSH1 0x1 PUSH1 0x1 PUSH1 0xA0 SHL SUB AND CALLER EQ PUSH2 0xC99 JUMPI PUSH1 0x40 DUP1 MLOAD PUSH3 0x461BCD PUSH1 0xE5 SHL DUP2 MSTORE PUSH1 0x20 PUSH1 0x4 DUP3 ADD MSTORE PUSH1 0x14 PUSH1 0x24 DUP3 ADD MSTORE PUSH20 0x2AB734B9BBB0B82B191D102327A92124A22222A7 PUSH1 0x61 SHL PUSH1 0x44 DUP3 ADD MSTORE SWAP1 MLOAD SWAP1 DUP2 SWAP1 SUB PUSH1 0x64 ADD SWAP1 REVERT JUMPDEST PUSH1 0x6 DUP1 SLOAD PUSH1 0x1 PUSH1 0x1 PUSH1 0xA0 SHL SUB SWAP4 DUP5 AND PUSH1 0x1 PUSH1 0x1 PUSH1 0xA0 SHL SUB NOT SWAP2 DUP3 AND OR SWAP1 SWAP2 SSTORE PUSH1 0x7 DUP1 SLOAD SWAP3 SWAP1 SWAP4 AND SWAP2 AND OR SWAP1 SSTORE JUMP JUMPDEST PUSH1 0x9 SLOAD DUP2 JUMP JUMPDEST PUSH1 0xA SLOAD DUP2 JUMP JUMPDEST PUSH1 0x0 PUSH1 0xC SLOAD PUSH1 0x1 EQ PUSH2 0xD20 JUMPI PUSH1 0x40 DUP1 MLOAD PUSH3 0x461BCD PUSH1 0xE5 SHL DUP2 MSTORE PUSH1 0x20 PUSH1 0x4 DUP3 ADD MSTORE PUSH1 0x11 PUSH1 0x24 DUP3 ADD MSTORE PUSH17 0x155B9A5CDDD85C158C8E881313D0D2D151 PUSH1 0x7A SHL PUSH1 0x44 DUP3 ADD MSTORE SWAP1 MLOAD SWAP1 DUP2 SWAP1 SUB PUSH1 0x64 ADD SWAP1 REVERT JUMPDEST PUSH1 0x0 PUSH1 0xC DUP2 SWAP1 SSTORE DUP1 PUSH2 0xD30 PUSH2 0xB24 JUMP JUMPDEST POP PUSH1 0x6 SLOAD PUSH1 0x40 DUP1 MLOAD PUSH4 0x70A08231 PUSH1 0xE0 SHL DUP2 MSTORE ADDRESS PUSH1 0x4 DUP3 ADD MSTORE SWAP1 MLOAD SWAP4 SWAP6 POP SWAP2 SWAP4 POP PUSH1 0x0 SWAP3 PUSH1 0x1 PUSH1 0x1 PUSH1 0xA0 SHL SUB SWAP1 SWAP2 AND SWAP2 PUSH4 0x70A08231 SWAP2 PUSH1 0x24 DUP1 DUP4 ADD SWAP3 PUSH1 0x20 SWAP3 SWAP2 SWAP1 DUP3 SWAP1 SUB ADD DUP2 DUP7 DUP1 EXTCODESIZE ISZERO DUP1 ISZERO PUSH2 0xD84 JUMPI PUSH1 0x0 DUP1 REVERT JUMPDEST POP GAS STATICCALL ISZERO DUP1 ISZERO PUSH2 0xD98 JUMPI RETURNDATASIZE PUSH1 0x0 DUP1 RETURNDATACOPY RETURNDATASIZE PUSH1 0x0 REVERT JUMPDEST POP POP POP POP PUSH1 0x40 MLOAD RETURNDATASIZE PUSH1 0x20 DUP2 LT ISZERO PUSH2 0xDAE JUMPI PUSH1 0x0 DUP1 REVERT JUMPDEST POP MLOAD PUSH1 0x7 SLOAD PUSH1 0x40 DUP1 MLOAD PUSH4 0x70A08231 PUSH1 0xE0 SHL DUP2 MSTORE ADDRESS PUSH1 0x4 DUP3 ADD MSTORE SWAP1 MLOAD SWAP3 SWAP4 POP PUSH1 0x0 SWAP3 PUSH1 0x1 PUSH1 0x1 PUSH1 0xA0 SHL SUB SWAP1 SWAP3 AND SWAP2 PUSH4 0x70A08231 SWAP2 PUSH1 0x24 DUP1 DUP3 ADD SWAP3 PUSH1 0x20 SWAP3 SWAP1 SWAP2 SWAP1 DUP3 SWAP1 SUB ADD DUP2 DUP7 DUP1 EXTCODESIZE ISZERO DUP1 ISZERO PUSH2 0xE01 JUMPI PUSH1 0x0 DUP1 REVERT JUMPDEST POP GAS STATICCALL ISZERO DUP1 ISZERO PUSH2 0xE15 JUMPI RETURNDATASIZE PUSH1 0x0 DUP1 RETURNDATACOPY RETURNDATASIZE PUSH1 0x0 REVERT JUMPDEST POP POP POP POP PUSH1 0x40 MLOAD RETURNDATASIZE PUSH1 0x20 DUP2 LT ISZERO PUSH2 0xE2B JUMPI PUSH1 0x0 DUP1 REVERT JUMPDEST POP MLOAD SWAP1 POP PUSH1 0x0 PUSH2 0xE4A DUP4 PUSH1 0x1 PUSH1 0x1 PUSH1 0x70 SHL SUB DUP8 AND PUSH4 0xFFFFFFFF PUSH2 0x1ADF AND JUMP JUMPDEST SWAP1 POP PUSH1 0x0 PUSH2 0xE67 DUP4 PUSH1 0x1 PUSH1 0x1 PUSH1 0x70 SHL SUB DUP8 AND PUSH4 0xFFFFFFFF PUSH2 0x1ADF AND JUMP JUMPDEST SWAP1 POP PUSH1 0x0 PUSH2 0xE75 DUP8 DUP8 PUSH2 0x1E10 JUMP JUMPDEST PUSH1 0x0 SLOAD SWAP1 SWAP2 POP DUP1 PUSH2 0xEB2 JUMPI PUSH2 0xE9E PUSH2 0x3E8 PUSH2 0x9E3 PUSH2 0xE99 DUP8 DUP8 PUSH4 0xFFFFFFFF PUSH2 0x1A7C AND JUMP JUMPDEST PUSH2 0x1F6E JUMP JUMPDEST SWAP9 POP PUSH2 0xEAD PUSH1 0x0 PUSH2 0x3E8 PUSH2 0x1FC0 JUMP JUMPDEST PUSH2 0xF01 JUMP JUMPDEST PUSH2 0xEFE PUSH1 0x1 PUSH1 0x1 PUSH1 0x70 SHL SUB DUP10 AND PUSH2 0xECF DUP7 DUP5 PUSH4 0xFFFFFFFF PUSH2 0x1A7C AND JUMP JUMPDEST DUP2 PUSH2 0xED6 JUMPI INVALID JUMPDEST DIV PUSH1 0x1 PUSH1 0x1 PUSH1 0x70 SHL SUB DUP10 AND PUSH2 0xEF1 DUP7 DUP6 PUSH4 0xFFFFFFFF PUSH2 0x1A7C AND JUMP JUMPDEST DUP2 PUSH2 0xEF8 JUMPI INVALID JUMPDEST DIV PUSH2 0x2056 JUMP JUMPDEST SWAP9 POP JUMPDEST PUSH1 0x0 DUP10 GT PUSH2 0xF40 JUMPI PUSH1 0x40 MLOAD PUSH3 0x461BCD PUSH1 0xE5 SHL DUP2 MSTORE PUSH1 0x4 ADD DUP1 DUP1 PUSH1 0x20 ADD DUP3 DUP2 SUB DUP3 MSTORE PUSH1 0x28 DUP2 MSTORE PUSH1 0x20 ADD DUP1 PUSH2 0x2225 PUSH1 0x28 SWAP2 CODECOPY PUSH1 0x40 ADD SWAP2 POP POP PUSH1 0x40 MLOAD DUP1 SWAP2 SUB SWAP1 REVERT JUMPDEST PUSH2 0xF4A DUP11 DUP11 PUSH2 0x1FC0 JUMP JUMPDEST PUSH2 0xF56 DUP7 DUP7 DUP11 DUP11 PUSH2 0x1B2F JUMP JUMPDEST DUP2 ISZERO PUSH2 0xF86 JUMPI PUSH1 0x8 SLOAD PUSH2 0xF82 SWAP1 PUSH1 0x1 PUSH1 0x1 PUSH1 0x70 SHL SUB DUP1 DUP3 AND SWAP2 PUSH1 0x1 PUSH1 0x70 SHL SWAP1 DIV AND PUSH4 0xFFFFFFFF PUSH2 0x1A7C AND JUMP JUMPDEST PUSH1 0xB SSTORE JUMPDEST PUSH1 0x40 DUP1 MLOAD DUP6 DUP2 MSTORE PUSH1 0x20 DUP2 ADD DUP6 SWAP1 MSTORE DUP2 MLOAD CALLER SWAP3 PUSH32 0x4C209B5FC8AD50758F13E2E1088BA56A560DFF690A1C6FEF26394F4C03821C4F SWAP3 DUP3 SWAP1 SUB ADD SWAP1 LOG2 POP POP PUSH1 0x1 PUSH1 0xC SSTORE POP SWAP5 SWAP7 SWAP6 POP POP POP POP POP POP JUMP JUMPDEST PUSH1 0x1 PUSH1 0x20 MSTORE PUSH1 0x0 SWAP1 DUP2 MSTORE PUSH1 0x40 SWAP1 KECCAK256 SLOAD DUP2 JUMP JUMPDEST PUSH1 0xB SLOAD DUP2 JUMP JUMPDEST PUSH1 0x4 PUSH1 0x20 MSTORE PUSH1 0x0 SWAP1 DUP2 MSTORE PUSH1 0x40 SWAP1 KECCAK256 SLOAD DUP2 JUMP JUMPDEST PUSH1 0x0 DUP1 PUSH1 0xC SLOAD PUSH1 0x1 EQ PUSH2 0x104B JUMPI PUSH1 0x40 DUP1 MLOAD PUSH3 0x461BCD PUSH1 0xE5 SHL DUP2 MSTORE PUSH1 0x20 PUSH1 0x4 DUP3 ADD MSTORE PUSH1 0x11 PUSH1 0x24 DUP3 ADD MSTORE PUSH17 0x155B9A5CDDD85C158C8E881313D0D2D151 PUSH1 0x7A SHL PUSH1 0x44 DUP3 ADD MSTORE SWAP1 MLOAD SWAP1 DUP2 SWAP1 SUB PUSH1 0x64 ADD SWAP1 REVERT JUMPDEST PUSH1 0x0 PUSH1 0xC DUP2 SWAP1 SSTORE DUP1 PUSH2 0x105B PUSH2 0xB24 JUMP JUMPDEST POP PUSH1 0x6 SLOAD PUSH1 0x7 SLOAD PUSH1 0x40 DUP1 MLOAD PUSH4 0x70A08231 PUSH1 0xE0 SHL DUP2 MSTORE ADDRESS PUSH1 0x4 DUP3 ADD MSTORE SWAP1 MLOAD SWAP5 SWAP7 POP SWAP3 SWAP5 POP PUSH1 0x1 PUSH1 0x1 PUSH1 0xA0 SHL SUB SWAP2 DUP3 AND SWAP4 SWAP2 AND SWAP2 PUSH1 0x0 SWAP2 DUP5 SWAP2 PUSH4 0x70A08231 SWAP2 PUSH1 0x24 DUP1 DUP4 ADD SWAP3 PUSH1 0x20 SWAP3 SWAP2 SWAP1 DUP3 SWAP1 SUB ADD DUP2 DUP7 DUP1 EXTCODESIZE ISZERO DUP1 ISZERO PUSH2 0x10B7 JUMPI PUSH1 0x0 DUP1 REVERT JUMPDEST POP GAS STATICCALL ISZERO DUP1 ISZERO PUSH2 0x10CB JUMPI RETURNDATASIZE PUSH1 0x0 DUP1 RETURNDATACOPY RETURNDATASIZE PUSH1 0x0 REVERT JUMPDEST POP POP POP POP PUSH1 0x40 MLOAD RETURNDATASIZE PUSH1 0x20 DUP2 LT ISZERO PUSH2 0x10E1 JUMPI PUSH1 0x0 DUP1 REVERT JUMPDEST POP MLOAD PUSH1 0x40 DUP1 MLOAD PUSH4 0x70A08231 PUSH1 0xE0 SHL DUP2 MSTORE ADDRESS PUSH1 0x4 DUP3 ADD MSTORE SWAP1 MLOAD SWAP2 SWAP3 POP PUSH1 0x0 SWAP2 PUSH1 0x1 PUSH1 0x1 PUSH1 0xA0 SHL SUB DUP6 AND SWAP2 PUSH4 0x70A08231 SWAP2 PUSH1 0x24 DUP1 DUP4 ADD SWAP3 PUSH1 0x20 SWAP3 SWAP2 SWAP1 DUP3 SWAP1 SUB ADD DUP2 DUP7 DUP1 EXTCODESIZE ISZERO DUP1 ISZERO PUSH2 0x112F JUMPI PUSH1 0x0 DUP1 REVERT JUMPDEST POP GAS STATICCALL ISZERO DUP1 ISZERO PUSH2 0x1143 JUMPI RETURNDATASIZE PUSH1 0x0 DUP1 RETURNDATACOPY RETURNDATASIZE PUSH1 0x0 REVERT JUMPDEST POP POP POP POP PUSH1 0x40 MLOAD RETURNDATASIZE PUSH1 0x20 DUP2 LT ISZERO PUSH2 0x1159 JUMPI PUSH1 0x0 DUP1 REVERT JUMPDEST POP MLOAD ADDRESS PUSH1 0x0 SWAP1 DUP2 MSTORE PUSH1 0x1 PUSH1 0x20 MSTORE PUSH1 0x40 DUP2 KECCAK256 SLOAD SWAP2 SWAP3 POP PUSH2 0x1178 DUP9 DUP9 PUSH2 0x1E10 JUMP JUMPDEST PUSH1 0x0 SLOAD SWAP1 SWAP2 POP DUP1 PUSH2 0x118F DUP5 DUP8 PUSH4 0xFFFFFFFF PUSH2 0x1A7C AND JUMP JUMPDEST DUP2 PUSH2 0x1196 JUMPI INVALID JUMPDEST DIV SWAP11 POP DUP1 PUSH2 0x11AA DUP5 DUP7 PUSH4 0xFFFFFFFF PUSH2 0x1A7C AND JUMP JUMPDEST DUP2 PUSH2 0x11B1 JUMPI INVALID JUMPDEST DIV SWAP10 POP PUSH1 0x0 DUP12 GT DUP1 ISZERO PUSH2 0x11C4 JUMPI POP PUSH1 0x0 DUP11 GT JUMPDEST PUSH2 0x11FF JUMPI PUSH1 0x40 MLOAD PUSH3 0x461BCD PUSH1 0xE5 SHL DUP2 MSTORE PUSH1 0x4 ADD DUP1 DUP1 PUSH1 0x20 ADD DUP3 DUP2 SUB DUP3 MSTORE PUSH1 0x28 DUP2 MSTORE PUSH1 0x20 ADD DUP1 PUSH2 0x21FD PUSH1 0x28 SWAP2 CODECOPY PUSH1 0x40 ADD SWAP2 POP POP PUSH1 0x40 MLOAD DUP1 SWAP2 SUB SWAP1 REVERT JUMPDEST PUSH2 0x1209 ADDRESS DUP5 PUSH2 0x206E JUMP JUMPDEST PUSH2 0x1214 DUP8 DUP14 DUP14 PUSH2 0x18E2 JUMP JUMPDEST PUSH2 0x121F DUP7 DUP14 DUP13 PUSH2 0x18E2 JUMP JUMPDEST PUSH1 0x40 DUP1 MLOAD PUSH4 0x70A08231 PUSH1 0xE0 SHL DUP2 MSTORE ADDRESS PUSH1 0x4 DUP3 ADD MSTORE SWAP1 MLOAD PUSH1 0x1 PUSH1 0x1 PUSH1 0xA0 SHL SUB DUP10 AND SWAP2 PUSH4 0x70A08231 SWAP2 PUSH1 0x24 DUP1 DUP4 ADD SWAP3 PUSH1 0x20 SWAP3 SWAP2 SWAP1 DUP3 SWAP1 SUB ADD DUP2 DUP7 DUP1 EXTCODESIZE ISZERO DUP1 ISZERO PUSH2 0x1265 JUMPI PUSH1 0x0 DUP1 REVERT JUMPDEST POP GAS STATICCALL ISZERO DUP1 ISZERO PUSH2 0x1279 JUMPI RETURNDATASIZE PUSH1 0x0 DUP1 RETURNDATACOPY RETURNDATASIZE PUSH1 0x0 REVERT JUMPDEST POP POP POP POP PUSH1 0x40 MLOAD RETURNDATASIZE PUSH1 0x20 DUP2 LT ISZERO PUSH2 0x128F JUMPI PUSH1 0x0 DUP1 REVERT JUMPDEST POP MLOAD PUSH1 0x40 DUP1 MLOAD PUSH4 0x70A08231 PUSH1 0xE0 SHL DUP2 MSTORE ADDRESS PUSH1 0x4 DUP3 ADD MSTORE SWAP1 MLOAD SWAP2 SWAP7 POP PUSH1 0x1 PUSH1 0x1 PUSH1 0xA0 SHL SUB DUP9 AND SWAP2 PUSH4 0x70A08231 SWAP2 PUSH1 0x24 DUP1 DUP3 ADD SWAP3 PUSH1 0x20 SWAP3 SWAP1 SWAP2 SWAP1 DUP3 SWAP1 SUB ADD DUP2 DUP7 DUP1 EXTCODESIZE ISZERO DUP1 ISZERO PUSH2 0x12DB JUMPI PUSH1 0x0 DUP1 REVERT JUMPDEST POP GAS STATICCALL ISZERO DUP1 ISZERO PUSH2 0x12EF JUMPI RETURNDATASIZE PUSH1 0x0 DUP1 RETURNDATACOPY RETURNDATASIZE PUSH1 0x0 REVERT JUMPDEST POP POP POP POP PUSH1 0x40 MLOAD RETURNDATASIZE PUSH1 0x20 DUP2 LT ISZERO PUSH2 0x1305 JUMPI PUSH1 0x0 DUP1 REVERT JUMPDEST POP MLOAD SWAP4 POP PUSH2 0x1315 DUP6 DUP6 DUP12 DUP12 PUSH2 0x1B2F JUMP JUMPDEST DUP2 ISZERO PUSH2 0x1345 JUMPI PUSH1 0x8 SLOAD PUSH2 0x1341 SWAP1 PUSH1 0x1 PUSH1 0x1 PUSH1 0x70 SHL SUB DUP1 DUP3 AND SWAP2 PUSH1 0x1 PUSH1 0x70 SHL SWAP1 DIV AND PUSH4 0xFFFFFFFF PUSH2 0x1A7C AND JUMP JUMPDEST PUSH1 0xB SSTORE JUMPDEST PUSH1 0x40 DUP1 MLOAD DUP13 DUP2 MSTORE PUSH1 0x20 DUP2 ADD DUP13 SWAP1 MSTORE DUP2 MLOAD PUSH1 0x1 PUSH1 0x1 PUSH1 0xA0 SHL SUB DUP16 AND SWAP3 CALLER SWAP3 PUSH32 0xDCCD412F0B1252819CB1FD330B93224CA42612892BB3F4F789976E6D81936496 SWAP3 SWAP1 DUP2 SWAP1 SUB SWAP1 SWAP2 ADD SWAP1 LOG3 POP POP POP POP POP POP POP POP POP PUSH1 0x1 PUSH1 0xC DUP2 SWAP1 SSTORE POP SWAP2 POP SWAP2 JUMP JUMPDEST PUSH1 0x40 MLOAD DUP1 PUSH1 0x40 ADD PUSH1 0x40 MSTORE DUP1 PUSH1 0x6 DUP2 MSTORE PUSH1 0x20 ADD PUSH6 0x2AA72496AB19 PUSH1 0xD1 SHL DUP2 MSTORE POP DUP2 JUMP JUMPDEST PUSH1 0x0 PUSH2 0xB5B CALLER DUP5 DUP5 PUSH2 0x1D56 JUMP JUMPDEST PUSH2 0x3E8 DUP2 JUMP JUMPDEST PUSH1 0xC SLOAD PUSH1 0x1 EQ PUSH2 0x1423 JUMPI PUSH1 0x40 DUP1 MLOAD PUSH3 0x461BCD PUSH1 0xE5 SHL DUP2 MSTORE PUSH1 0x20 PUSH1 0x4 DUP3 ADD MSTORE PUSH1 0x11 PUSH1 0x24 DUP3 ADD MSTORE PUSH17 0x155B9A5CDDD85C158C8E881313D0D2D151 PUSH1 0x7A SHL PUSH1 0x44 DUP3 ADD MSTORE SWAP1 MLOAD SWAP1 DUP2 SWAP1 SUB PUSH1 0x64 ADD SWAP1 REVERT JUMPDEST PUSH1 0x0 PUSH1 0xC SSTORE PUSH1 0x6 SLOAD PUSH1 0x7 SLOAD PUSH1 0x8 SLOAD PUSH1 0x40 DUP1 MLOAD PUSH4 0x70A08231 PUSH1 0xE0 SHL DUP2 MSTORE ADDRESS PUSH1 0x4 DUP3 ADD MSTORE SWAP1 MLOAD PUSH1 0x1 PUSH1 0x1 PUSH1 0xA0 SHL SUB SWAP5 DUP6 AND SWAP5 SWAP1 SWAP4 AND SWAP3 PUSH2 0x14D2 SWAP3 DUP6 SWAP3 DUP8 SWAP3 PUSH2 0x14CD SWAP3 PUSH1 0x1 PUSH1 0x1 PUSH1 0x70 SHL SUB AND SWAP2 DUP6 SWAP2 PUSH4 0x70A08231 SWAP2 PUSH1 0x24 DUP1 DUP3 ADD SWAP3 PUSH1 0x20 SWAP3 SWAP1 SWAP2 SWAP1 DUP3 SWAP1 SUB ADD DUP2 DUP7 DUP1 EXTCODESIZE ISZERO DUP1 ISZERO PUSH2 0x1495 JUMPI PUSH1 0x0 DUP1 REVERT JUMPDEST POP GAS STATICCALL ISZERO DUP1 ISZERO PUSH2 0x14A9 JUMPI RETURNDATASIZE PUSH1 0x0 DUP1 RETURNDATACOPY RETURNDATASIZE PUSH1 0x0 REVERT JUMPDEST POP POP POP POP PUSH1 0x40 MLOAD RETURNDATASIZE PUSH1 0x20 DUP2 LT ISZERO PUSH2 0x14BF JUMPI PUSH1 0x0 DUP1 REVERT JUMPDEST POP MLOAD SWAP1 PUSH4 0xFFFFFFFF PUSH2 0x1ADF AND JUMP JUMPDEST PUSH2 0x18E2 JUMP JUMPDEST PUSH1 0x8 SLOAD PUSH1 0x40 DUP1 MLOAD PUSH4 0x70A08231 PUSH1 0xE0 SHL DUP2 MSTORE ADDRESS PUSH1 0x4 DUP3 ADD MSTORE SWAP1 MLOAD PUSH2 0x1539 SWAP3 DUP5 SWAP3 DUP8 SWAP3 PUSH2 0x14CD SWAP3 PUSH1 0x1 PUSH1 0x70 SHL SWAP1 DIV PUSH1 0x1 PUSH1 0x1 PUSH1 0x70 SHL SUB AND SWAP2 PUSH1 0x1 PUSH1 0x1 PUSH1 0xA0 SHL SUB DUP7 AND SWAP2 PUSH4 0x70A08231 SWAP2 PUSH1 0x24 DUP1 DUP3 ADD SWAP3 PUSH1 0x20 SWAP3 SWAP1 SWAP2 SWAP1 DUP3 SWAP1 SUB ADD DUP2 DUP7 DUP1 EXTCODESIZE ISZERO DUP1 ISZERO PUSH2 0x1495 JUMPI PUSH1 0x0 DUP1 REVERT JUMPDEST POP POP PUSH1 0x1 PUSH1 0xC SSTORE POP JUMP JUMPDEST PUSH1 0x5 SLOAD PUSH1 0x1 PUSH1 0x1 PUSH1 0xA0 SHL SUB AND DUP2 JUMP JUMPDEST PUSH1 0x7 SLOAD PUSH1 0x1 PUSH1 0x1 PUSH1 0xA0 SHL SUB AND DUP2 JUMP JUMPDEST TIMESTAMP DUP5 LT ISZERO PUSH2 0x15AB JUMPI PUSH1 0x40 DUP1 MLOAD PUSH3 0x461BCD PUSH1 0xE5 SHL DUP2 MSTORE PUSH1 0x20 PUSH1 0x4 DUP3 ADD MSTORE PUSH1 0x12 PUSH1 0x24 DUP3 ADD MSTORE PUSH18 0x155B9A5CDDD85C158C8E8811561412549151 PUSH1 0x72 SHL PUSH1 0x44 DUP3 ADD MSTORE SWAP1 MLOAD SWAP1 DUP2 SWAP1 SUB PUSH1 0x64 ADD SWAP1 REVERT JUMPDEST PUSH1 0x3 SLOAD PUSH1 0x1 PUSH1 0x1 PUSH1 0xA0 SHL SUB DUP1 DUP10 AND PUSH1 0x0 DUP2 DUP2 MSTORE PUSH1 0x4 PUSH1 0x20 SWAP1 DUP2 MSTORE PUSH1 0x40 DUP1 DUP4 KECCAK256 DUP1 SLOAD PUSH1 0x1 DUP1 DUP3 ADD SWAP1 SWAP3 SSTORE DUP3 MLOAD PUSH32 0x6E71EDAE12B1B97F4D1F60370FEF10105FA2FAAE0126114A169C64845D6126C9 DUP2 DUP7 ADD MSTORE DUP1 DUP5 ADD SWAP7 SWAP1 SWAP7 MSTORE SWAP6 DUP14 AND PUSH1 0x60 DUP7 ADD MSTORE PUSH1 0x80 DUP6 ADD DUP13 SWAP1 MSTORE PUSH1 0xA0 DUP6 ADD SWAP6 SWAP1 SWAP6 MSTORE PUSH1 0xC0 DUP1 DUP6 ADD DUP12 SWAP1 MSTORE DUP2 MLOAD DUP1 DUP7 SUB SWAP1 SWAP2 ADD DUP2 MSTORE PUSH1 0xE0 DUP6 ADD DUP3 MSTORE DUP1 MLOAD SWAP1 DUP4 ADD KECCAK256 PUSH2 0x1901 PUSH1 0xF0 SHL PUSH2 0x100 DUP7 ADD MSTORE PUSH2 0x102 DUP6 ADD SWAP7 SWAP1 SWAP7 MSTORE PUSH2 0x122 DUP1 DUP6 ADD SWAP7 SWAP1 SWAP7 MSTORE DUP1 MLOAD DUP1 DUP6 SUB SWAP1 SWAP7 ADD DUP7 MSTORE PUSH2 0x142 DUP5 ADD DUP1 DUP3 MSTORE DUP7 MLOAD SWAP7 DUP4 ADD SWAP7 SWAP1 SWAP7 KECCAK256 SWAP6 DUP4 SWAP1 MSTORE PUSH2 0x162 DUP5 ADD DUP1 DUP3 MSTORE DUP7 SWAP1 MSTORE PUSH1 0xFF DUP10 AND PUSH2 0x182 DUP6 ADD MSTORE PUSH2 0x1A2 DUP5 ADD DUP9 SWAP1 MSTORE PUSH2 0x1C2 DUP5 ADD DUP8 SWAP1 MSTORE MLOAD SWAP2 SWAP4 SWAP3 PUSH2 0x1E2 DUP1 DUP3 ADD SWAP4 PUSH1 0x1F NOT DUP2 ADD SWAP3 DUP2 SWAP1 SUB SWAP1 SWAP2 ADD SWAP1 DUP6 GAS STATICCALL ISZERO DUP1 ISZERO PUSH2 0x16C6 JUMPI RETURNDATASIZE PUSH1 0x0 DUP1 RETURNDATACOPY RETURNDATASIZE PUSH1 0x0 REVERT JUMPDEST POP POP PUSH1 0x40 MLOAD PUSH1 0x1F NOT ADD MLOAD SWAP2 POP POP PUSH1 0x1 PUSH1 0x1 PUSH1 0xA0 SHL SUB DUP2 AND ISZERO DUP1 ISZERO SWAP1 PUSH2 0x16FC JUMPI POP DUP9 PUSH1 0x1 PUSH1 0x1 PUSH1 0xA0 SHL SUB AND DUP2 PUSH1 0x1 PUSH1 0x1 PUSH1 0xA0 SHL SUB AND EQ JUMPDEST PUSH2 0x174D JUMPI PUSH1 0x40 DUP1 MLOAD PUSH3 0x461BCD PUSH1 0xE5 SHL DUP2 MSTORE PUSH1 0x20 PUSH1 0x4 DUP3 ADD MSTORE PUSH1 0x1C PUSH1 0x24 DUP3 ADD MSTORE PUSH32 0x556E697377617056323A20494E56414C49445F5349474E415455524500000000 PUSH1 0x44 DUP3 ADD MSTORE SWAP1 MLOAD SWAP1 DUP2 SWAP1 SUB PUSH1 0x64 ADD SWAP1 REVERT JUMPDEST PUSH2 0x1758 DUP10 DUP10 DUP10 PUSH2 0x1CF4 JUMP JUMPDEST POP POP POP POP POP POP POP POP POP JUMP JUMPDEST PUSH1 0x2 PUSH1 0x20 SWAP1 DUP2 MSTORE PUSH1 0x0 SWAP3 DUP4 MSTORE PUSH1 0x40 DUP1 DUP5 KECCAK256 SWAP1 SWAP2 MSTORE SWAP1 DUP3 MSTORE SWAP1 KECCAK256 SLOAD DUP2 JUMP JUMPDEST PUSH1 0xC SLOAD PUSH1 0x1 EQ PUSH2 0x17CB JUMPI PUSH1 0x40 DUP1 MLOAD PUSH3 0x461BCD PUSH1 0xE5 SHL DUP2 MSTORE PUSH1 0x20 PUSH1 0x4 DUP3 ADD MSTORE PUSH1 0x11 PUSH1 0x24 DUP3 ADD MSTORE PUSH17 0x155B9A5CDDD85C158C8E881313D0D2D151 PUSH1 0x7A SHL PUSH1 0x44 DUP3 ADD MSTORE SWAP1 MLOAD SWAP1 DUP2 SWAP1 SUB PUSH1 0x64 ADD SWAP1 REVERT JUMPDEST PUSH1 0x0 PUSH1 0xC SSTORE PUSH1 0x6 SLOAD PUSH1 0x40 DUP1 MLOAD PUSH4 0x70A08231 PUSH1 0xE0 SHL DUP2 MSTORE ADDRESS PUSH1 0x4 DUP3 ADD MSTORE SWAP1 MLOAD PUSH2 0x18DB SWAP3 PUSH1 0x1 PUSH1 0x1 PUSH1 0xA0 SHL SUB AND SWAP2 PUSH4 0x70A08231 SWAP2 PUSH1 0x24 DUP1 DUP4 ADD SWAP3 PUSH1 0x20 SWAP3 SWAP2 SWAP1 DUP3 SWAP1 SUB ADD DUP2 DUP7 DUP1 EXTCODESIZE ISZERO DUP1 ISZERO PUSH2 0x181C JUMPI PUSH1 0x0 DUP1 REVERT JUMPDEST POP GAS STATICCALL ISZERO DUP1 ISZERO PUSH2 0x1830 JUMPI RETURNDATASIZE PUSH1 0x0 DUP1 RETURNDATACOPY RETURNDATASIZE PUSH1 0x0 REVERT JUMPDEST POP POP POP POP PUSH1 0x40 MLOAD RETURNDATASIZE PUSH1 0x20 DUP2 LT ISZERO PUSH2 0x1846 JUMPI PUSH1 0x0 DUP1 REVERT JUMPDEST POP MLOAD PUSH1 0x7 SLOAD PUSH1 0x40 DUP1 MLOAD PUSH4 0x70A08231 PUSH1 0xE0 SHL DUP2 MSTORE ADDRESS PUSH1 0x4 DUP3 ADD MSTORE SWAP1 MLOAD PUSH1 0x1 PUSH1 0x1 PUSH1 0xA0 SHL SUB SWAP1 SWAP3 AND SWAP2 PUSH4 0x70A08231 SWAP2 PUSH1 0x24 DUP1 DUP3 ADD SWAP3 PUSH1 0x20 SWAP3 SWAP1 SWAP2 SWAP1 DUP3 SWAP1 SUB ADD DUP2 DUP7 DUP1 EXTCODESIZE ISZERO DUP1 ISZERO PUSH2 0x1893 JUMPI PUSH1 0x0 DUP1 REVERT JUMPDEST POP GAS STATICCALL ISZERO DUP1 ISZERO PUSH2 0x18A7 JUMPI RETURNDATASIZE PUSH1 0x0 DUP1 RETURNDATACOPY RETURNDATASIZE PUSH1 0x0 REVERT JUMPDEST POP POP POP POP PUSH1 0x40 MLOAD RETURNDATASIZE PUSH1 0x20 DUP2 LT ISZERO PUSH2 0x18BD JUMPI PUSH1 0x0 DUP1 REVERT JUMPDEST POP MLOAD PUSH1 0x8 SLOAD PUSH1 0x1 PUSH1 0x1 PUSH1 0x70 SHL SUB DUP1 DUP3 AND SWAP2 PUSH1 0x1 PUSH1 0x70 SHL SWAP1 DIV AND PUSH2 0x1B2F JUMP JUMPDEST PUSH1 0x1 PUSH1 0xC SSTORE JUMP JUMPDEST PUSH1 0x40 DUP1 MLOAD DUP1 DUP3 ADD DUP3 MSTORE PUSH1 0x19 DUP2 MSTORE PUSH32 0x7472616E7366657228616464726573732C75696E743235362900000000000000 PUSH1 0x20 SWAP2 DUP3 ADD MSTORE DUP2 MLOAD PUSH1 0x1 PUSH1 0x1 PUSH1 0xA0 SHL SUB DUP6 DUP2 AND PUSH1 0x24 DUP4 ADD MSTORE PUSH1 0x44 DUP1 DUP4 ADD DUP7 SWAP1 MSTORE DUP5 MLOAD DUP1 DUP5 SUB SWAP1 SWAP2 ADD DUP2 MSTORE PUSH1 0x64 SWAP1 SWAP3 ADD DUP5 MSTORE SWAP2 DUP2 ADD DUP1 MLOAD PUSH1 0x1 PUSH1 0x1 PUSH1 0xE0 SHL SUB AND PUSH4 0xA9059CBB PUSH1 0xE0 SHL OR DUP2 MSTORE SWAP3 MLOAD DUP2 MLOAD PUSH1 0x0 SWAP5 PUSH1 0x60 SWAP5 DUP10 AND SWAP4 SWAP3 SWAP2 DUP3 SWAP2 SWAP1 DUP1 DUP4 DUP4 JUMPDEST PUSH1 0x20 DUP4 LT PUSH2 0x198F JUMPI DUP1 MLOAD DUP3 MSTORE PUSH1 0x1F NOT SWAP1 SWAP3 ADD SWAP2 PUSH1 0x20 SWAP2 DUP3 ADD SWAP2 ADD PUSH2 0x1970 JUMP JUMPDEST PUSH1 0x1 DUP4 PUSH1 0x20 SUB PUSH2 0x100 EXP SUB DUP1 NOT DUP3 MLOAD AND DUP2 DUP5 MLOAD AND DUP1 DUP3 OR DUP6 MSTORE POP POP POP POP POP POP SWAP1 POP ADD SWAP2 POP POP PUSH1 0x0 PUSH1 0x40 MLOAD DUP1 DUP4 SUB DUP2 PUSH1 0x0 DUP7 GAS CALL SWAP2 POP POP RETURNDATASIZE DUP1 PUSH1 0x0 DUP2 EQ PUSH2 0x19F1 JUMPI PUSH1 0x40 MLOAD SWAP2 POP PUSH1 0x1F NOT PUSH1 0x3F RETURNDATASIZE ADD AND DUP3 ADD PUSH1 0x40 MSTORE RETURNDATASIZE DUP3 MSTORE RETURNDATASIZE PUSH1 0x0 PUSH1 0x20 DUP5 ADD RETURNDATACOPY PUSH2 0x19F6 JUMP JUMPDEST PUSH1 0x60 SWAP2 POP JUMPDEST POP SWAP2 POP SWAP2 POP DUP2 DUP1 ISZERO PUSH2 0x1A24 JUMPI POP DUP1 MLOAD ISZERO DUP1 PUSH2 0x1A24 JUMPI POP DUP1 DUP1 PUSH1 0x20 ADD SWAP1 MLOAD PUSH1 0x20 DUP2 LT ISZERO PUSH2 0x1A21 JUMPI PUSH1 0x0 DUP1 REVERT JUMPDEST POP MLOAD JUMPDEST PUSH2 0x1A75 JUMPI PUSH1 0x40 DUP1 MLOAD PUSH3 0x461BCD PUSH1 0xE5 SHL DUP2 MSTORE PUSH1 0x20 PUSH1 0x4 DUP3 ADD MSTORE PUSH1 0x1A PUSH1 0x24 DUP3 ADD MSTORE PUSH32 0x556E697377617056323A205452414E534645525F4641494C4544000000000000 PUSH1 0x44 DUP3 ADD MSTORE SWAP1 MLOAD SWAP1 DUP2 SWAP1 SUB PUSH1 0x64 ADD SWAP1 REVERT JUMPDEST POP POP POP POP POP JUMP JUMPDEST PUSH1 0x0 DUP2 ISZERO DUP1 PUSH2 0x1A97 JUMPI POP POP DUP1 DUP3 MUL DUP3 DUP3 DUP3 DUP2 PUSH2 0x1A94 JUMPI INVALID JUMPDEST DIV EQ JUMPDEST PUSH2 0xB5F JUMPI PUSH1 0x40 DUP1 MLOAD PUSH3 0x461BCD PUSH1 0xE5 SHL DUP2 MSTORE PUSH1 0x20 PUSH1 0x4 DUP3 ADD MSTORE PUSH1 0x14 PUSH1 0x24 DUP3 ADD MSTORE PUSH20 0x64732D6D6174682D6D756C2D6F766572666C6F77 PUSH1 0x60 SHL PUSH1 0x44 DUP3 ADD MSTORE SWAP1 MLOAD SWAP1 DUP2 SWAP1 SUB PUSH1 0x64 ADD SWAP1 REVERT JUMPDEST DUP1 DUP3 SUB DUP3 DUP2 GT ISZERO PUSH2 0xB5F JUMPI PUSH1 0x40 DUP1 MLOAD PUSH3 0x461BCD PUSH1 0xE5 SHL DUP2 MSTORE PUSH1 0x20 PUSH1 0x4 DUP3 ADD MSTORE PUSH1 0x15 PUSH1 0x24 DUP3 ADD MSTORE PUSH21 0x64732D6D6174682D7375622D756E646572666C6F77 PUSH1 0x58 SHL PUSH1 0x44 DUP3 ADD MSTORE SWAP1 MLOAD SWAP1 DUP2 SWAP1 SUB PUSH1 0x64 ADD SWAP1 REVERT JUMPDEST PUSH1 0x1 PUSH1 0x1 PUSH1 0x70 SHL SUB DUP5 GT DUP1 ISZERO SWAP1 PUSH2 0x1B4D JUMPI POP PUSH1 0x1 PUSH1 0x1 PUSH1 0x70 SHL SUB DUP4 GT ISZERO JUMPDEST PUSH2 0x1B94 JUMPI PUSH1 0x40 DUP1 MLOAD PUSH3 0x461BCD PUSH1 0xE5 SHL DUP2 MSTORE PUSH1 0x20 PUSH1 0x4 DUP3 ADD MSTORE PUSH1 0x13 PUSH1 0x24 DUP3 ADD MSTORE PUSH19 0x556E697377617056323A204F564552464C4F57 PUSH1 0x68 SHL PUSH1 0x44 DUP3 ADD MSTORE SWAP1 MLOAD SWAP1 DUP2 SWAP1 SUB PUSH1 0x64 ADD SWAP1 REVERT JUMPDEST PUSH1 0x8 SLOAD PUSH4 0xFFFFFFFF TIMESTAMP DUP2 AND SWAP2 PUSH1 0x1 PUSH1 0xE0 SHL SWAP1 DIV DUP2 AND DUP3 SUB SWAP1 DUP2 AND ISZERO DUP1 ISZERO SWAP1 PUSH2 0x1BC4 JUMPI POP PUSH1 0x1 PUSH1 0x1 PUSH1 0x70 SHL SUB DUP5 AND ISZERO ISZERO JUMPDEST DUP1 ISZERO PUSH2 0x1BD8 JUMPI POP PUSH1 0x1 PUSH1 0x1 PUSH1 0x70 SHL SUB DUP4 AND ISZERO ISZERO JUMPDEST ISZERO PUSH2 0x1C49 JUMPI DUP1 PUSH4 0xFFFFFFFF AND PUSH2 0x1C06 DUP6 PUSH2 0x1BF1 DUP7 PUSH2 0x210C JUMP JUMPDEST PUSH1 0x1 PUSH1 0x1 PUSH1 0xE0 SHL SUB AND SWAP1 PUSH4 0xFFFFFFFF PUSH2 0x211E AND JUMP JUMPDEST PUSH1 0x9 DUP1 SLOAD PUSH1 0x1 PUSH1 0x1 PUSH1 0xE0 SHL SUB SWAP3 SWAP1 SWAP3 AND SWAP3 SWAP1 SWAP3 MUL ADD SWAP1 SSTORE PUSH4 0xFFFFFFFF DUP2 AND PUSH2 0x1C31 DUP5 PUSH2 0x1BF1 DUP8 PUSH2 0x210C JUMP JUMPDEST PUSH1 0xA DUP1 SLOAD PUSH1 0x1 PUSH1 0x1 PUSH1 0xE0 SHL SUB SWAP3 SWAP1 SWAP3 AND SWAP3 SWAP1 SWAP3 MUL ADD SWAP1 SSTORE JUMPDEST PUSH1 0x8 DUP1 SLOAD PUSH14 0xFFFFFFFFFFFFFFFFFFFFFFFFFFFF NOT AND PUSH1 0x1 PUSH1 0x1 PUSH1 0x70 SHL SUB DUP9 DUP2 AND SWAP2 SWAP1 SWAP2 OR PUSH14 0xFFFFFFFFFFFFFFFFFFFFFFFFFFFF PUSH1 0x70 SHL NOT AND PUSH1 0x1 PUSH1 0x70 SHL DUP9 DUP4 AND DUP2 MUL SWAP2 SWAP1 SWAP2 OR PUSH1 0x1 PUSH1 0x1 PUSH1 0xE0 SHL SUB AND PUSH1 0x1 PUSH1 0xE0 SHL PUSH4 0xFFFFFFFF DUP8 AND MUL OR SWAP3 DUP4 SWAP1 SSTORE PUSH1 0x40 DUP1 MLOAD DUP5 DUP5 AND DUP2 MSTORE SWAP2 SWAP1 SWAP4 DIV SWAP1 SWAP2 AND PUSH1 0x20 DUP3 ADD MSTORE DUP2 MLOAD PUSH32 0x1C411E9A96E071241C2F21F7726B17AE89E3CAB4C78BE50E062B03A9FFFBBAD1 SWAP3 SWAP2 DUP2 SWAP1 SUB SWAP1 SWAP2 ADD SWAP1 LOG1 POP POP POP POP POP POP JUMP JUMPDEST PUSH1 0x1 PUSH1 0x1 PUSH1 0xA0 SHL SUB DUP1 DUP5 AND PUSH1 0x0 DUP2 DUP2 MSTORE PUSH1 0x2 PUSH1 0x20 SWAP1 DUP2 MSTORE PUSH1 0x40 DUP1 DUP4 KECCAK256 SWAP5 DUP8 AND DUP1 DUP5 MSTORE SWAP5 DUP3 MSTORE SWAP2 DUP3 SWAP1 KECCAK256 DUP6 SWAP1 SSTORE DUP2 MLOAD DUP6 DUP2 MSTORE SWAP2 MLOAD PUSH32 0x8C5BE1E5EBEC7D5BD14F71427D1E84F3DD0314C0F7B2291E5B200AC8C7C3B925 SWAP3 DUP2 SWAP1 SUB SWAP1 SWAP2 ADD SWAP1 LOG3 POP POP POP JUMP JUMPDEST PUSH1 0x1 PUSH1 0x1 PUSH1 0xA0 SHL SUB DUP4 AND PUSH1 0x0 SWAP1 DUP2 MSTORE PUSH1 0x1 PUSH1 0x20 MSTORE PUSH1 0x40 SWAP1 KECCAK256 SLOAD PUSH2 0x1D7F SWAP1 DUP3 PUSH4 0xFFFFFFFF PUSH2 0x1ADF AND JUMP JUMPDEST PUSH1 0x1 PUSH1 0x1 PUSH1 0xA0 SHL SUB DUP1 DUP6 AND PUSH1 0x0 SWAP1 DUP2 MSTORE PUSH1 0x1 PUSH1 0x20 MSTORE PUSH1 0x40 DUP1 DUP3 KECCAK256 SWAP4 SWAP1 SWAP4 SSTORE SWAP1 DUP5 AND DUP2 MSTORE KECCAK256 SLOAD PUSH2 0x1DB4 SWAP1 DUP3 PUSH4 0xFFFFFFFF PUSH2 0x2143 AND JUMP JUMPDEST PUSH1 0x1 PUSH1 0x1 PUSH1 0xA0 SHL SUB DUP1 DUP5 AND PUSH1 0x0 DUP2 DUP2 MSTORE PUSH1 0x1 PUSH1 0x20 SWAP1 DUP2 MSTORE PUSH1 0x40 SWAP2 DUP3 SWAP1 KECCAK256 SWAP5 SWAP1 SWAP5 SSTORE DUP1 MLOAD DUP6 DUP2 MSTORE SWAP1 MLOAD SWAP2 SWAP4 SWAP3 DUP8 AND SWAP3 PUSH32 0xDDF252AD1BE2C89B69C2B068FC378DAA952BA7F163C4A11628F55A4DF523B3EF SWAP3 SWAP2 DUP3 SWAP1 SUB ADD SWAP1 LOG3 POP POP POP JUMP JUMPDEST PUSH1 0x0 DUP1 PUSH1 0x5 PUSH1 0x0 SWAP1 SLOAD SWAP1 PUSH2 0x100 EXP SWAP1 DIV PUSH1 0x1 PUSH1 0x1 PUSH1 0xA0 SHL SUB AND PUSH1 0x1 PUSH1 0x1 PUSH1 0xA0 SHL SUB AND PUSH4 0x17E7E58 PUSH1 0x40 MLOAD DUP2 PUSH4 0xFFFFFFFF AND PUSH1 0xE0 SHL DUP2 MSTORE PUSH1 0x4 ADD PUSH1 0x20 PUSH1 0x40 MLOAD DUP1 DUP4 SUB DUP2 DUP7 DUP1 EXTCODESIZE ISZERO DUP1 ISZERO PUSH2 0x1E61 JUMPI PUSH1 0x0 DUP1 REVERT JUMPDEST POP GAS STATICCALL ISZERO DUP1 ISZERO PUSH2 0x1E75 JUMPI RETURNDATASIZE PUSH1 0x0 DUP1 RETURNDATACOPY RETURNDATASIZE PUSH1 0x0 REVERT JUMPDEST POP POP POP POP PUSH1 0x40 MLOAD RETURNDATASIZE PUSH1 0x20 DUP2 LT ISZERO PUSH2 0x1E8B JUMPI PUSH1 0x0 DUP1 REVERT JUMPDEST POP MLOAD PUSH1 0xB SLOAD PUSH1 0x1 PUSH1 0x1 PUSH1 0xA0 SHL SUB DUP3 AND ISZERO DUP1 ISZERO SWAP5 POP SWAP2 SWAP3 POP SWAP1 PUSH2 0x1F5A JUMPI DUP1 ISZERO PUSH2 0x1F55 JUMPI PUSH1 0x0 PUSH2 0x1ECE PUSH2 0xE99 PUSH1 0x1 PUSH1 0x1 PUSH1 0x70 SHL SUB DUP9 DUP2 AND SWAP1 DUP9 AND PUSH4 0xFFFFFFFF PUSH2 0x1A7C AND JUMP JUMPDEST SWAP1 POP PUSH1 0x0 PUSH2 0x1EDB DUP4 PUSH2 0x1F6E JUMP JUMPDEST SWAP1 POP DUP1 DUP3 GT ISZERO PUSH2 0x1F52 JUMPI PUSH1 0x0 PUSH2 0x1F09 PUSH2 0x1EFA DUP5 DUP5 PUSH4 0xFFFFFFFF PUSH2 0x1ADF AND JUMP JUMPDEST PUSH1 0x0 SLOAD SWAP1 PUSH4 0xFFFFFFFF PUSH2 0x1A7C AND JUMP JUMPDEST SWAP1 POP PUSH1 0x0 PUSH2 0x1F2E DUP4 PUSH2 0x1F22 DUP7 PUSH1 0x5 PUSH4 0xFFFFFFFF PUSH2 0x1A7C AND JUMP JUMPDEST SWAP1 PUSH4 0xFFFFFFFF PUSH2 0x2143 AND JUMP JUMPDEST SWAP1 POP PUSH1 0x0 DUP2 DUP4 DUP2 PUSH2 0x1F3B JUMPI INVALID JUMPDEST DIV SWAP1 POP DUP1 ISZERO PUSH2 0x1F4E JUMPI PUSH2 0x1F4E DUP8 DUP3 PUSH2 0x1FC0 JUMP JUMPDEST POP POP POP JUMPDEST POP POP JUMPDEST PUSH2 0x1F66 JUMP JUMPDEST DUP1 ISZERO PUSH2 0x1F66 JUMPI PUSH1 0x0 PUSH1 0xB SSTORE JUMPDEST POP POP SWAP3 SWAP2 POP POP JUMP JUMPDEST PUSH1 0x0 PUSH1 0x3 DUP3 GT ISZERO PUSH2 0x1FB1 JUMPI POP DUP1 PUSH1 0x1 PUSH1 0x2 DUP3 DIV ADD JUMPDEST DUP2 DUP2 LT ISZERO PUSH2 0x1FAB JUMPI DUP1 SWAP2 POP PUSH1 0x2 DUP2 DUP3 DUP6 DUP2 PUSH2 0x1F9A JUMPI INVALID JUMPDEST DIV ADD DUP2 PUSH2 0x1FA3 JUMPI INVALID JUMPDEST DIV SWAP1 POP PUSH2 0x1F83 JUMP JUMPDEST POP PUSH2 0x1FBB JUMP JUMPDEST DUP2 ISZERO PUSH2 0x1FBB JUMPI POP PUSH1 0x1 JUMPDEST SWAP2 SWAP1 POP JUMP JUMPDEST PUSH1 0x0 SLOAD PUSH2 0x1FD3 SWAP1 DUP3 PUSH4 0xFFFFFFFF PUSH2 0x2143 AND JUMP JUMPDEST PUSH1 0x0 SWAP1 DUP2 SSTORE PUSH1 0x1 PUSH1 0x1 PUSH1 0xA0 SHL SUB DUP4 AND DUP2 MSTORE PUSH1 0x1 PUSH1 0x20 MSTORE PUSH1 0x40 SWAP1 KECCAK256 SLOAD PUSH2 0x1FFE SWAP1 DUP3 PUSH4 0xFFFFFFFF PUSH2 0x2143 AND JUMP JUMPDEST PUSH1 0x1 PUSH1 0x1 PUSH1 0xA0 SHL SUB DUP4 AND PUSH1 0x0 DUP2 DUP2 MSTORE PUSH1 0x1 PUSH1 0x20 SWAP1 DUP2 MSTORE PUSH1 0x40 DUP1 DUP4 KECCAK256 SWAP5 SWAP1 SWAP5 SSTORE DUP4 MLOAD DUP6 DUP2 MSTORE SWAP4 MLOAD SWAP3 SWAP4 SWAP2 SWAP3 PUSH32 0xDDF252AD1BE2C89B69C2B068FC378DAA952BA7F163C4A11628F55A4DF523B3EF SWAP3 DUP2 SWAP1 SUB SWAP1 SWAP2 ADD SWAP1 LOG3 POP POP JUMP JUMPDEST PUSH1 0x0 DUP2 DUP4 LT PUSH2 0x2065 JUMPI DUP2 PUSH2 0x2067 JUMP JUMPDEST DUP3 JUMPDEST SWAP4 SWAP3 POP POP POP JUMP JUMPDEST PUSH1 0x1 PUSH1 0x1 PUSH1 0xA0 SHL SUB DUP3 AND PUSH1 0x0 SWAP1 DUP2 MSTORE PUSH1 0x1 PUSH1 0x20 MSTORE PUSH1 0x40 SWAP1 KECCAK256 SLOAD PUSH2 0x2097 SWAP1 DUP3 PUSH4 0xFFFFFFFF PUSH2 0x1ADF AND JUMP JUMPDEST PUSH1 0x1 PUSH1 0x1 PUSH1 0xA0 SHL SUB DUP4 AND PUSH1 0x0 SWAP1 DUP2 MSTORE PUSH1 0x1 PUSH1 0x20 MSTORE PUSH1 0x40 DUP2 KECCAK256 SWAP2 SWAP1 SWAP2 SSTORE SLOAD PUSH2 0x20C4 SWAP1 DUP3 PUSH4 0xFFFFFFFF PUSH2 0x1ADF AND JUMP JUMPDEST PUSH1 0x0 SWAP1 DUP2 SSTORE PUSH1 0x40 DUP1 MLOAD DUP4 DUP2 MSTORE SWAP1 MLOAD PUSH1 0x1 PUSH1 0x1 PUSH1 0xA0 SHL SUB DUP6 AND SWAP2 PUSH32 0xDDF252AD1BE2C89B69C2B068FC378DAA952BA7F163C4A11628F55A4DF523B3EF SWAP2 SWAP1 DUP2 SWAP1 SUB PUSH1 0x20 ADD SWAP1 LOG3 POP POP JUMP JUMPDEST PUSH1 0x1 PUSH1 0x1 PUSH1 0x70 SHL SUB AND PUSH1 0x1 PUSH1 0x70 SHL MUL SWAP1 JUMP JUMPDEST PUSH1 0x0 PUSH1 0x1 PUSH1 0x1 PUSH1 0x70 SHL SUB DUP3 AND PUSH1 0x1 PUSH1 0x1 PUSH1 0xE0 SHL SUB DUP5 AND DUP2 PUSH2 0x213B JUMPI INVALID JUMPDEST DIV SWAP4 SWAP3 POP POP POP JUMP JUMPDEST DUP1 DUP3 ADD DUP3 DUP2 LT ISZERO PUSH2 0xB5F JUMPI PUSH1 0x40 DUP1 MLOAD PUSH3 0x461BCD PUSH1 0xE5 SHL DUP2 MSTORE PUSH1 0x20 PUSH1 0x4 DUP3 ADD MSTORE PUSH1 0x14 PUSH1 0x24 DUP3 ADD MSTORE PUSH20 0x64732D6D6174682D6164642D6F766572666C6F77 PUSH1 0x60 SHL PUSH1 0x44 DUP3 ADD MSTORE SWAP1 MLOAD SWAP1 DUP2 SWAP1 SUB PUSH1 0x64 ADD SWAP1 REVERT INVALID SSTORE PUSH15 0x697377617056323A20494E53554646 0x49 NUMBER 0x49 GASLIMIT 0x4E SLOAD 0x5F 0x4F SSTORE SLOAD POP SSTORE SLOAD 0x5F COINBASE 0x4D 0x4F SSTORE 0x4E SLOAD SSTORE PUSH15 0x697377617056323A20494E53554646 0x49 NUMBER 0x49 GASLIMIT 0x4E SLOAD 0x5F 0x49 0x4E POP SSTORE SLOAD 0x5F COINBASE 0x4D 0x4F SSTORE 0x4E SLOAD SSTORE PUSH15 0x697377617056323A20494E53554646 0x49 NUMBER 0x49 GASLIMIT 0x4E SLOAD 0x5F 0x4C 0x49 MLOAD SSTORE 0x49 DIFFICULTY 0x49 SLOAD MSIZE SSTORE PUSH15 0x697377617056323A20494E53554646 0x49 NUMBER 0x49 GASLIMIT 0x4E SLOAD 0x5F 0x4C 0x49 MLOAD SSTORE 0x49 DIFFICULTY 0x49 SLOAD MSIZE 0x5F TIMESTAMP SSTORE MSTORE 0x4E GASLIMIT DIFFICULTY SSTORE PUSH15 0x697377617056323A20494E53554646 0x49 NUMBER 0x49 GASLIMIT 0x4E SLOAD 0x5F 0x4C 0x49 MLOAD SSTORE 0x49 DIFFICULTY 0x49 SLOAD MSIZE 0x5F 0x4D 0x49 0x4E SLOAD GASLIMIT DIFFICULTY LOG2 PUSH6 0x627A7A723158 KECCAK256 SHL 0xBA SHL 0x4A 0xB3 MOD 0x4C SWAP6 PUSH1 0x56 DUP8 CALLDATASIZE SLT 0xC4 LOG4 PUSH13 0xB7223F50F4DA80EBE24571C70C DUP2 0x2F 0x26 PUSH5 0x736F6C6343 STOP SDIV LT STOP ORIGIN GASLIMIT 0x49 POP CALLDATACOPY BALANCE ORIGIN DIFFICULTY PUSH16 0x6D61696E28737472696E67206E616D65 0x2C PUSH20 0x7472696E672076657273696F6E2C75696E743235 CALLDATASIZE KECCAK256 PUSH4 0x6861696E 0x49 PUSH5 0x2C61646472 PUSH6 0x737320766572 PUSH10 0x6679696E67436F6E7472 PUSH2 0x6374 0x29 "
				},
				"gasEstimates": {
					"creation": {
						"codeDepositCost": "1766600",
						"executionCost": "infinite",
						"totalCost": "infinite"
					},
					"external": {
						"DOMAIN_SEPARATOR()": "1043",
						"MINIMUM_LIQUIDITY()": "243",
						"PERMIT_TYPEHASH()": "266",
						"allowance(address,address)": "1305",
						"approve(address,uint256)": "22410",
						"balanceOf(address)": "1192",
						"burn(address)": "infinite",
						"decimals()": "297",
						"factory()": "1126",
						"getReserves()": "1217",
						"initialize(address,address)": "42828",
						"kLast()": "1088",
						"mint(address)": "infinite",
						"name()": "infinite",
						"nonces(address)": "1169",
						"permit(address,address,uint256,uint256,uint8,bytes32,bytes32)": "infinite",
						"price0CumulativeLast()": "1087",
						"price1CumulativeLast()": "1109",
						"skim(address)": "infinite",
						"swap(uint256,uint256,address,bytes)": "infinite",
						"symbol()": "infinite",
						"sync()": "infinite",
						"token0()": "1149",
						"token1()": "1081",
						"totalSupply()": "1132",
						"transfer(address,uint256)": "infinite",
						"transferFrom(address,address,uint256)": "infinite"
					},
					"internal": {
						"_mintFee(uint112,uint112)": "infinite",
						"_safeTransfer(address,address,uint256)": "infinite",
						"_update(uint256,uint256,uint112,uint112)": "infinite"
					}
				},
				"methodIdentifiers": {
					"DOMAIN_SEPARATOR()": "3644e515",
					"MINIMUM_LIQUIDITY()": "ba9a7a56",
					"PERMIT_TYPEHASH()": "30adf81f",
					"allowance(address,address)": "dd62ed3e",
					"approve(address,uint256)": "095ea7b3",
					"balanceOf(address)": "70a08231",
					"burn(address)": "89afcb44",
					"decimals()": "313ce567",
					"factory()": "c45a0155",
					"getReserves()": "0902f1ac",
					"initialize(address,address)": "485cc955",
					"kLast()": "7464fc3d",
					"mint(address)": "6a627842",
					"name()": "06fdde03",
					"nonces(address)": "7ecebe00",
					"permit(address,address,uint256,uint256,uint8,bytes32,bytes32)": "d505accf",
					"price0CumulativeLast()": "5909c0d5",
					"price1CumulativeLast()": "5a3d5493",
					"skim(address)": "bc25cf77",
					"swap(uint256,uint256,address,bytes)": "022c0d9f",
					"symbol()": "95d89b41",
					"sync()": "fff6cae9",
					"token0()": "0dfe1681",
					"token1()": "d21220a7",
					"totalSupply()": "18160ddd",
					"transfer(address,uint256)": "a9059cbb",
					"transferFrom(address,address,uint256)": "23b872dd"
				}
			},
			"storageLayout": {
				"storage": [
					{
						"astId": 528,
						"contract": "contracts/uniswapv2/Core.sol:UniswapV2Pair",
						"label": "totalSupply",
						"offset": 0,
						"slot": "0",
						"type": "t_uint256"
					},
					{
						"astId": 532,
						"contract": "contracts/uniswapv2/Core.sol:UniswapV2Pair",
						"label": "balanceOf",
						"offset": 0,
						"slot": "1",
						"type": "t_mapping(t_address,t_uint256)"
					},
					{
						"astId": 538,
						"contract": "contracts/uniswapv2/Core.sol:UniswapV2Pair",
						"label": "allowance",
						"offset": 0,
						"slot": "2",
						"type": "t_mapping(t_address,t_mapping(t_address,t_uint256))"
					},
					{
						"astId": 540,
						"contract": "contracts/uniswapv2/Core.sol:UniswapV2Pair",
						"label": "DOMAIN_SEPARATOR",
						"offset": 0,
						"slot": "3",
						"type": "t_bytes32"
					},
					{
						"astId": 547,
						"contract": "contracts/uniswapv2/Core.sol:UniswapV2Pair",
						"label": "nonces",
						"offset": 0,
						"slot": "4",
						"type": "t_mapping(t_address,t_uint256)"
					},
					{
						"astId": 919,
						"contract": "contracts/uniswapv2/Core.sol:UniswapV2Pair",
						"label": "factory",
						"offset": 0,
						"slot": "5",
						"type": "t_address"
					},
					{
						"astId": 921,
						"contract": "contracts/uniswapv2/Core.sol:UniswapV2Pair",
						"label": "token0",
						"offset": 0,
						"slot": "6",
						"type": "t_address"
					},
					{
						"astId": 923,
						"contract": "contracts/uniswapv2/Core.sol:UniswapV2Pair",
						"label": "token1",
						"offset": 0,
						"slot": "7",
						"type": "t_address"
					},
					{
						"astId": 925,
						"contract": "contracts/uniswapv2/Core.sol:UniswapV2Pair",
						"label": "reserve0",
						"offset": 0,
						"slot": "8",
						"type": "t_uint112"
					},
					{
						"astId": 927,
						"contract": "contracts/uniswapv2/Core.sol:UniswapV2Pair",
						"label": "reserve1",
						"offset": 14,
						"slot": "8",
						"type": "t_uint112"
					},
					{
						"astId": 929,
						"contract": "contracts/uniswapv2/Core.sol:UniswapV2Pair",
						"label": "blockTimestampLast",
						"offset": 28,
						"slot": "8",
						"type": "t_uint32"
					},
					{
						"astId": 931,
						"contract": "contracts/uniswapv2/Core.sol:UniswapV2Pair",
						"label": "price0CumulativeLast",
						"offset": 0,
						"slot": "9",
						"type": "t_uint256"
					},
					{
						"astId": 933,
						"contract": "contracts/uniswapv2/Core.sol:UniswapV2Pair",
						"label": "price1CumulativeLast",
						"offset": 0,
						"slot": "10",
						"type": "t_uint256"
					},
					{
						"astId": 935,
						"contract": "contracts/uniswapv2/Core.sol:UniswapV2Pair",
						"label": "kLast",
						"offset": 0,
						"slot": "11",
						"type": "t_uint256"
					},
					{
						"astId": 938,
						"contract": "contracts/uniswapv2/Core.sol:UniswapV2Pair",
						"label": "unlocked",
						"offset": 0,
						"slot": "12",
						"type": "t_uint256"
					}
				],
				"types": {
					"t_address": {
						"encoding": "inplace",
						"label": "address",
						"numberOfBytes": "20"
					},
					"t_bytes32": {
						"encoding": "inplace",
						"label": "bytes32",
						"numberOfBytes": "32"
					},
					"t_mapping(t_address,t_mapping(t_address,t_uint256))": {
						"encoding": "mapping",
						"key": "t_address",
						"label": "mapping(address => mapping(address => uint256))",
						"numberOfBytes": "32",
						"value": "t_mapping(t_address,t_uint256)"
					},
					"t_mapping(t_address,t_uint256)": {
						"encoding": "mapping",
						"key": "t_address",
						"label": "mapping(address => uint256)",
						"numberOfBytes": "32",
						"value": "t_uint256"
					},
					"t_uint112": {
						"encoding": "inplace",
						"label": "uint112",
						"numberOfBytes": "14"
					},
					"t_uint256": {
						"encoding": "inplace",
						"label": "uint256",
						"numberOfBytes": "32"
					},
					"t_uint32": {
						"encoding": "inplace",
						"label": "uint32",
						"numberOfBytes": "4"
					}
				}
			},
			"userdoc": {
				"methods": {}
			}
		}
	}
}