{
	"data": {
		"bytecode": {
			"linkReferences": {},
			"object": "608060405234801561000f575f80fd5b5060405161141038038061141083398101604081905261002e91610137565b600380546001600160a01b0383166001600160a01b0319918216179091555f8054909116331790558251610069906001906020860190610091565b5050600280546001600160a01b0319166001600160a01b039290921691909117905550610222565b828054828255905f5260205f209081019282156100e4579160200282015b828111156100e457825182546001600160a01b0319166001600160a01b039091161782556020909201916001909101906100af565b506100f09291506100f4565b5090565b5b808211156100f0575f81556001016100f5565b634e487b7160e01b5f52604160045260245ffd5b80516001600160a01b0381168114610132575f80fd5b919050565b5f805f60608486031215610149575f80fd5b83516001600160401b0381111561015e575f80fd5b8401601f8101861361016e575f80fd5b80516001600160401b0381111561018757610187610108565b604051600582901b90603f8201601f191681016001600160401b03811182821017156101b5576101b5610108565b6040529182526020818401810192908101898411156101d2575f80fd5b6020850194505b838510156101f8576101ea8561011c565b8152602094850194016101d9565b50955061020b925050506020850161011c565b91506102196040850161011c565b90509250925092565b6111e18061022f5f395ff3fe6080604052600436106100a8575f3560e01c8063ae169a5011610062578063ae169a501461019b578063c9122dca146101ba578063da866c48146101d9578063f431968a146101f8578063f851a4401461022f578063fc0c546a1461024d575f80fd5b80630b791430146100b35780636b1426a4146100ed57806371be2e4a146101195780638baa563d1461013c5780639a4d43851461015b578063a8bf0ba21461017c575f80fd5b366100af57005b5f80fd5b3480156100be575f80fd5b506100d26100cd366004610d57565b61026c565b6040516100e496959493929190610d6e565b60405180910390f35b3480156100f8575f80fd5b5061010c610107366004610d57565b610330565b6040516100e49190610dc9565b348015610124575f80fd5b5061012e60055481565b6040519081526020016100e4565b348015610147575f80fd5b5061010c610156366004610d57565b61039c565b348015610166575f80fd5b5061017a610175366004610e28565b610406565b005b348015610187575f80fd5b5061017a610196366004610d57565b610484565b3480156101a6575f80fd5b5061017a6101b5366004610d57565b610589565b3480156101c5575f80fd5b5061017a6101d4366004610ef2565b610735565b3480156101e4575f80fd5b5061017a6101f3366004610f1c565b610b59565b348015610203575f80fd5b50610217610212366004610d57565b610cd3565b6040516001600160a01b0390911681526020016100e4565b34801561023a575f80fd5b505f54610217906001600160a01b031681565b348015610258575f80fd5b50600254610217906001600160a01b031681565b60046020525f90815260409020805460018201805491929161028d90610f4f565b80601f01602080910402602001604051908101604052809291908181526020018280546102b990610f4f565b80156103045780601f106102db57610100808354040283529160200191610304565b820191905f5260205f20905b8154815290600101906020018083116102e757829003601f168201915b505050600284015460038501546004909501549394909360ff8083169450610100909204909116915086565b5f8181526004602090815260409182902060080180548351818402810184019094528084526060939283018282801561039057602002820191905f5260205f20905b81546001600160a01b03168152600190910190602001808311610372575b50505050509050919050565b5f8181526004602090815260409182902060090180548351818402810184019094528084526060939283018282801561039057602002820191905f5260205f209081546001600160a01b031681526001909101906020018083116103725750505050509050919050565b5f546001600160a01b031633146104385760405162461bcd60e51b815260040161042f90610f87565b60405180910390fd5b60058054905f61044783610fdc565b90915550506005545f8181526004602052604090209081556001810161046d848261103d565b506002810191909155600301805460ff1916905550565b5f546001600160a01b031633146104ad5760405162461bcd60e51b815260040161042f90610f87565b5f818152600460205260409020600381015460ff1661051f5760405162461bcd60e51b815260206004820152602860248201527f4576656e74206d75737420626520736574746c6564206265666f7265207769746044820152676864726177696e6760c01b606482015260840161042f565b6003810154610100900460ff165f908152600582016020526040812054600483015461054b91906110f8565b5f80546040519293506001600160a01b03169183156108fc0291849190818181858888f19350505050158015610583573d5f803e3d5ffd5b50505050565b5f818152600460205260409020600381015460ff166105ea5760405162461bcd60e51b815260206004820152601e60248201527f4576656e7420686173206e6f74206265656e20736574746c6564207965740000604482015260640161042f565b335f90815260068201602090815260408083206003850154610100900460ff168452909152902054806106565760405162461bcd60e51b81526020600482015260146024820152734e6f2077696e6e696e677320746f20636c61696d60601b604482015260640161042f565b6003820154610100900460ff165f90815260058301602052604081205460048401546106829084611111565b61068c9190611128565b335f81815260068601602090815260408083206003890154610100900460ff16845290915280822091909155600254905163a9059cbb60e01b81526004810192909252602482018390529192506001600160a01b039091169063a9059cbb906044016020604051808303815f875af115801561070a573d5f803e3d5ffd5b505050506040513d601f19601f8201168201806040525081019061072e9190611147565b5050505050565b61073e33610cfb565b6107965760405162461bcd60e51b8152602060048201526024808201527f4f6e6c79206d756c74697369672063616e2063616c6c20746869732066756e636044820152633a34b7b760e11b606482015260840161042f565b5f82815260046020526040902060028101544210156107f75760405162461bcd60e51b815260206004820152601760248201527f4576656e7420686173206e6f7420656e64656420796574000000000000000000604482015260640161042f565b600381015460ff16156108445760405162461bcd60e51b8152602060048201526015602482015274115d995b9d08185b1c9958591e481cd95d1d1b1959605a1b604482015260640161042f565b60038101805460ff84166101000261ffff199091161760011790555f5b6007820154811015610928575f8260070182815481106108835761088361116d565b5f9182526020808320909101546001600160a01b0316808352600686018252604080842060ff89168552909252912054909150156108ef576008830180546001810182555f91825260209091200180546001600160a01b0319166001600160a01b03831617905561091f565b6009830180546001810182555f91825260209091200180546001600160a01b0319166001600160a01b0383161790555b50600101610861565b505f5b6008820154811015610583575f82600801828154811061094d5761094d61116d565b5f9182526020808320909101546001600160a01b0316808352600686018252604080842060ff891685528352808420546005880190935283205460048701549194509192919061099d9084611111565b6109a79190611128565b60025460405163095ea7b360e01b8152306004820152602481018390529192506001600160a01b03169063095ea7b3906044016020604051808303815f875af11580156109f6573d5f803e3d5ffd5b505050506040513d601f19601f82011682018060405250810190610a1a9190611147565b5060025460405163f2fde38b60e01b81523060048201526001600160a01b039091169063f2fde38b906024015f604051808303815f87803b158015610a5d575f80fd5b505af1158015610a6f573d5f803e3d5ffd5b50506002546040516340c10f1960e01b81526001600160a01b0387811660048301526024820186905290911692506340c10f1991506044015f604051808303815f87803b158015610abe575f80fd5b505af1158015610ad0573d5f803e3d5ffd5b5050505060035f9054906101000a90046001600160a01b03166001600160a01b031663627cdcb96040518163ffffffff1660e01b81526004016020604051808303815f875af1158015610b25573d5f803e3d5ffd5b505050506040513d601f19601f82011682018060405250810190610b499190611181565b50506001909201915061092b9050565b5f838152600460205260409020600201544210610bb15760405162461bcd60e51b815260206004820152601660248201527510995d1d1a5b99c81d1a5b59481a185cc8195b99195960521b604482015260640161042f565b5f8111610c0c5760405162461bcd60e51b8152602060048201526024808201527f42657420616d6f756e74206d7573742062652067726561746572207468616e206044820152637a65726f60e01b606482015260840161042f565b5f838152600460209081526040808320338452600601825280832060ff8616845290915281208054839290610c42908490611198565b90915550505f83815260046020908152604080832060ff8616845260050190915281208054839290610c75908490611198565b90915550505f8381526004602081905260408220018054839290610c9a908490611198565b9091555050505f918252506004602090815260408220600701805460018101825590835291200180546001600160a01b03191633179055565b60018181548110610ce2575f80fd5b5f918252602090912001546001600160a01b0316905081565b5f805b600154811015610d4f57826001600160a01b031660018281548110610d2557610d2561116d565b5f918252602090912001546001600160a01b031603610d475750600192915050565b600101610cfe565b505f92915050565b5f60208284031215610d67575f80fd5b5035919050565b86815260c060208201525f86518060c0840152806020890160e085015e5f60e0828501810191909152604084019790975294151560608301525060ff92909216608083015260a0820152601f909101601f1916010192915050565b602080825282518282018190525f918401906040840190835b81811015610e095783516001600160a01b0316835260209384019390920191600101610de2565b509095945050505050565b634e487b7160e01b5f52604160045260245ffd5b5f8060408385031215610e39575f80fd5b823567ffffffffffffffff811115610e4f575f80fd5b8301601f81018513610e5f575f80fd5b803567ffffffffffffffff811115610e7957610e79610e14565b604051601f8201601f19908116603f0116810167ffffffffffffffff81118282101715610ea857610ea8610e14565b604052818152828201602001871015610ebf575f80fd5b816020840160208301375f6020928201830152969401359450505050565b803560ff81168114610eed575f80fd5b919050565b5f8060408385031215610f03575f80fd5b82359150610f1360208401610edd565b90509250929050565b5f805f60608486031215610f2e575f80fd5b83359250610f3e60208501610edd565b929592945050506040919091013590565b600181811c90821680610f6357607f821691505b602082108103610f8157634e487b7160e01b5f52602260045260245ffd5b50919050565b60208082526021908201527f4f6e6c792061646d696e2063616e2063616c6c20746869732066756e6374696f6040820152603760f91b606082015260800190565b634e487b7160e01b5f52601160045260245ffd5b5f60018201610fed57610fed610fc8565b5060010190565b601f82111561103857805f5260205f20601f840160051c810160208510156110195750805b601f840160051c820191505b8181101561072e575f8155600101611025565b505050565b815167ffffffffffffffff81111561105757611057610e14565b61106b816110658454610f4f565b84610ff4565b6020601f82116001811461109d575f83156110865750848201515b5f19600385901b1c1916600184901b17845561072e565b5f84815260208120601f198516915b828110156110cc57878501518255602094850194600190920191016110ac565b50848210156110e957868401515f19600387901b60f8161c191681555b50505050600190811b01905550565b8181038181111561110b5761110b610fc8565b92915050565b808202811582820484141761110b5761110b610fc8565b5f8261114257634e487b7160e01b5f52601260045260245ffd5b500490565b5f60208284031215611157575f80fd5b81518015158114611166575f80fd5b9392505050565b634e487b7160e01b5f52603260045260245ffd5b5f60208284031215611191575f80fd5b5051919050565b8082018082111561110b5761110b610fc856fea2646970667358221220a7f9148ceece683032a56c4f97104f1f409788c45b1aa7ff737d88b6ae0beecc64736f6c634300081a0033",
			"opcodes": "PUSH1 0x80 PUSH1 0x40 MSTORE CALLVALUE DUP1 ISZERO PUSH2 0xF JUMPI PUSH0 DUP1 REVERT JUMPDEST POP PUSH1 0x40 MLOAD PUSH2 0x1410 CODESIZE SUB DUP1 PUSH2 0x1410 DUP4 CODECOPY DUP2 ADD PUSH1 0x40 DUP2 SWAP1 MSTORE PUSH2 0x2E SWAP2 PUSH2 0x137 JUMP JUMPDEST PUSH1 0x3 DUP1 SLOAD PUSH1 0x1 PUSH1 0x1 PUSH1 0xA0 SHL SUB DUP4 AND PUSH1 0x1 PUSH1 0x1 PUSH1 0xA0 SHL SUB NOT SWAP2 DUP3 AND OR SWAP1 SWAP2 SSTORE PUSH0 DUP1 SLOAD SWAP1 SWAP2 AND CALLER OR SWAP1 SSTORE DUP3 MLOAD PUSH2 0x69 SWAP1 PUSH1 0x1 SWAP1 PUSH1 0x20 DUP7 ADD SWAP1 PUSH2 0x91 JUMP JUMPDEST POP POP PUSH1 0x2 DUP1 SLOAD PUSH1 0x1 PUSH1 0x1 PUSH1 0xA0 SHL SUB NOT AND PUSH1 0x1 PUSH1 0x1 PUSH1 0xA0 SHL SUB SWAP3 SWAP1 SWAP3 AND SWAP2 SWAP1 SWAP2 OR SWAP1 SSTORE POP PUSH2 0x222 JUMP JUMPDEST DUP3 DUP1 SLOAD DUP3 DUP3 SSTORE SWAP1 PUSH0 MSTORE PUSH1 0x20 PUSH0 KECCAK256 SWAP1 DUP2 ADD SWAP3 DUP3 ISZERO PUSH2 0xE4 JUMPI SWAP2 PUSH1 0x20 MUL DUP3 ADD JUMPDEST DUP3 DUP2 GT ISZERO PUSH2 0xE4 JUMPI DUP3 MLOAD DUP3 SLOAD PUSH1 0x1 PUSH1 0x1 PUSH1 0xA0 SHL SUB NOT AND PUSH1 0x1 PUSH1 0x1 PUSH1 0xA0 SHL SUB SWAP1 SWAP2 AND OR DUP3 SSTORE PUSH1 0x20 SWAP1 SWAP3 ADD SWAP2 PUSH1 0x1 SWAP1 SWAP2 ADD SWAP1 PUSH2 0xAF JUMP JUMPDEST POP PUSH2 0xF0 SWAP3 SWAP2 POP PUSH2 0xF4 JUMP JUMPDEST POP SWAP1 JUMP JUMPDEST JUMPDEST DUP1 DUP3 GT ISZERO PUSH2 0xF0 JUMPI PUSH0 DUP2 SSTORE PUSH1 0x1 ADD PUSH2 0xF5 JUMP JUMPDEST PUSH4 0x4E487B71 PUSH1 0xE0 SHL PUSH0 MSTORE PUSH1 0x41 PUSH1 0x4 MSTORE PUSH1 0x24 PUSH0 REVERT JUMPDEST DUP1 MLOAD PUSH1 0x1 PUSH1 0x1 PUSH1 0xA0 SHL SUB DUP2 AND DUP2 EQ PUSH2 0x132 JUMPI PUSH0 DUP1 REVERT JUMPDEST SWAP2 SWAP1 POP JUMP JUMPDEST PUSH0 DUP1 PUSH0 PUSH1 0x60 DUP5 DUP7 SUB SLT ISZERO PUSH2 0x149 JUMPI PUSH0 DUP1 REVERT JUMPDEST DUP4 MLOAD PUSH1 0x1 PUSH1 0x1 PUSH1 0x40 SHL SUB DUP2 GT ISZERO PUSH2 0x15E JUMPI PUSH0 DUP1 REVERT JUMPDEST DUP5 ADD PUSH1 0x1F DUP2 ADD DUP7 SGT PUSH2 0x16E JUMPI PUSH0 DUP1 REVERT JUMPDEST DUP1 MLOAD PUSH1 0x1 PUSH1 0x1 PUSH1 0x40 SHL SUB DUP2 GT ISZERO PUSH2 0x187 JUMPI PUSH2 0x187 PUSH2 0x108 JUMP JUMPDEST PUSH1 0x40 MLOAD PUSH1 0x5 DUP3 SWAP1 SHL SWAP1 PUSH1 0x3F DUP3 ADD PUSH1 0x1F NOT AND DUP2 ADD PUSH1 0x1 PUSH1 0x1 PUSH1 0x40 SHL SUB DUP2 GT DUP3 DUP3 LT OR ISZERO PUSH2 0x1B5 JUMPI PUSH2 0x1B5 PUSH2 0x108 JUMP JUMPDEST PUSH1 0x40 MSTORE SWAP2 DUP3 MSTORE PUSH1 0x20 DUP2 DUP5 ADD DUP2 ADD SWAP3 SWAP1 DUP2 ADD DUP10 DUP5 GT ISZERO PUSH2 0x1D2 JUMPI PUSH0 DUP1 REVERT JUMPDEST PUSH1 0x20 DUP6 ADD SWAP5 POP JUMPDEST DUP4 DUP6 LT ISZERO PUSH2 0x1F8 JUMPI PUSH2 0x1EA DUP6 PUSH2 0x11C JUMP JUMPDEST DUP2 MSTORE PUSH1 0x20 SWAP5 DUP6 ADD SWAP5 ADD PUSH2 0x1D9 JUMP JUMPDEST POP SWAP6 POP PUSH2 0x20B SWAP3 POP POP POP PUSH1 0x20 DUP6 ADD PUSH2 0x11C JUMP JUMPDEST SWAP2 POP PUSH2 0x219 PUSH1 0x40 DUP6 ADD PUSH2 0x11C JUMP JUMPDEST SWAP1 POP SWAP3 POP SWAP3 POP SWAP3 JUMP JUMPDEST PUSH2 0x11E1 DUP1 PUSH2 0x22F PUSH0 CODECOPY PUSH0 RETURN INVALID PUSH1 0x80 PUSH1 0x40 MSTORE PUSH1 0x4 CALLDATASIZE LT PUSH2 0xA8 JUMPI PUSH0 CALLDATALOAD PUSH1 0xE0 SHR DUP1 PUSH4 0xAE169A50 GT PUSH2 0x62 JUMPI DUP1 PUSH4 0xAE169A50 EQ PUSH2 0x19B JUMPI DUP1 PUSH4 0xC9122DCA EQ PUSH2 0x1BA JUMPI DUP1 PUSH4 0xDA866C48 EQ PUSH2 0x1D9 JUMPI DUP1 PUSH4 0xF431968A EQ PUSH2 0x1F8 JUMPI DUP1 PUSH4 0xF851A440 EQ PUSH2 0x22F JUMPI DUP1 PUSH4 0xFC0C546A EQ PUSH2 0x24D JUMPI PUSH0 DUP1 REVERT JUMPDEST DUP1 PUSH4 0xB791430 EQ PUSH2 0xB3 JUMPI DUP1 PUSH4 0x6B1426A4 EQ PUSH2 0xED JUMPI DUP1 PUSH4 0x71BE2E4A EQ PUSH2 0x119 JUMPI DUP1 PUSH4 0x8BAA563D EQ PUSH2 0x13C JUMPI DUP1 PUSH4 0x9A4D4385 EQ PUSH2 0x15B JUMPI DUP1 PUSH4 0xA8BF0BA2 EQ PUSH2 0x17C JUMPI PUSH0 DUP1 REVERT JUMPDEST CALLDATASIZE PUSH2 0xAF JUMPI STOP JUMPDEST PUSH0 DUP1 REVERT JUMPDEST CALLVALUE DUP1 ISZERO PUSH2 0xBE JUMPI PUSH0 DUP1 REVERT JUMPDEST POP PUSH2 0xD2 PUSH2 0xCD CALLDATASIZE PUSH1 0x4 PUSH2 0xD57 JUMP JUMPDEST PUSH2 0x26C JUMP JUMPDEST PUSH1 0x40 MLOAD PUSH2 0xE4 SWAP7 SWAP6 SWAP5 SWAP4 SWAP3 SWAP2 SWAP1 PUSH2 0xD6E JUMP JUMPDEST PUSH1 0x40 MLOAD DUP1 SWAP2 SUB SWAP1 RETURN JUMPDEST CALLVALUE DUP1 ISZERO PUSH2 0xF8 JUMPI PUSH0 DUP1 REVERT JUMPDEST POP PUSH2 0x10C PUSH2 0x107 CALLDATASIZE PUSH1 0x4 PUSH2 0xD57 JUMP JUMPDEST PUSH2 0x330 JUMP JUMPDEST PUSH1 0x40 MLOAD PUSH2 0xE4 SWAP2 SWAP1 PUSH2 0xDC9 JUMP JUMPDEST CALLVALUE DUP1 ISZERO PUSH2 0x124 JUMPI PUSH0 DUP1 REVERT JUMPDEST POP PUSH2 0x12E PUSH1 0x5 SLOAD DUP2 JUMP JUMPDEST PUSH1 0x40 MLOAD SWAP1 DUP2 MSTORE PUSH1 0x20 ADD PUSH2 0xE4 JUMP JUMPDEST CALLVALUE DUP1 ISZERO PUSH2 0x147 JUMPI PUSH0 DUP1 REVERT JUMPDEST POP PUSH2 0x10C PUSH2 0x156 CALLDATASIZE PUSH1 0x4 PUSH2 0xD57 JUMP JUMPDEST PUSH2 0x39C JUMP JUMPDEST CALLVALUE DUP1 ISZERO PUSH2 0x166 JUMPI PUSH0 DUP1 REVERT JUMPDEST POP PUSH2 0x17A PUSH2 0x175 CALLDATASIZE PUSH1 0x4 PUSH2 0xE28 JUMP JUMPDEST PUSH2 0x406 JUMP JUMPDEST STOP JUMPDEST CALLVALUE DUP1 ISZERO PUSH2 0x187 JUMPI PUSH0 DUP1 REVERT JUMPDEST POP PUSH2 0x17A PUSH2 0x196 CALLDATASIZE PUSH1 0x4 PUSH2 0xD57 JUMP JUMPDEST PUSH2 0x484 JUMP JUMPDEST CALLVALUE DUP1 ISZERO PUSH2 0x1A6 JUMPI PUSH0 DUP1 REVERT JUMPDEST POP PUSH2 0x17A PUSH2 0x1B5 CALLDATASIZE PUSH1 0x4 PUSH2 0xD57 JUMP JUMPDEST PUSH2 0x589 JUMP JUMPDEST CALLVALUE DUP1 ISZERO PUSH2 0x1C5 JUMPI PUSH0 DUP1 REVERT JUMPDEST POP PUSH2 0x17A PUSH2 0x1D4 CALLDATASIZE PUSH1 0x4 PUSH2 0xEF2 JUMP JUMPDEST PUSH2 0x735 JUMP JUMPDEST CALLVALUE DUP1 ISZERO PUSH2 0x1E4 JUMPI PUSH0 DUP1 REVERT JUMPDEST POP PUSH2 0x17A PUSH2 0x1F3 CALLDATASIZE PUSH1 0x4 PUSH2 0xF1C JUMP JUMPDEST PUSH2 0xB59 JUMP JUMPDEST CALLVALUE DUP1 ISZERO PUSH2 0x203 JUMPI PUSH0 DUP1 REVERT JUMPDEST POP PUSH2 0x217 PUSH2 0x212 CALLDATASIZE PUSH1 0x4 PUSH2 0xD57 JUMP JUMPDEST PUSH2 0xCD3 JUMP JUMPDEST PUSH1 0x40 MLOAD PUSH1 0x1 PUSH1 0x1 PUSH1 0xA0 SHL SUB SWAP1 SWAP2 AND DUP2 MSTORE PUSH1 0x20 ADD PUSH2 0xE4 JUMP JUMPDEST CALLVALUE DUP1 ISZERO PUSH2 0x23A JUMPI PUSH0 DUP1 REVERT JUMPDEST POP PUSH0 SLOAD PUSH2 0x217 SWAP1 PUSH1 0x1 PUSH1 0x1 PUSH1 0xA0 SHL SUB AND DUP2 JUMP JUMPDEST CALLVALUE DUP1 ISZERO PUSH2 0x258 JUMPI PUSH0 DUP1 REVERT JUMPDEST POP PUSH1 0x2 SLOAD PUSH2 0x217 SWAP1 PUSH1 0x1 PUSH1 0x1 PUSH1 0xA0 SHL SUB AND DUP2 JUMP JUMPDEST PUSH1 0x4 PUSH1 0x20 MSTORE PUSH0 SWAP1 DUP2 MSTORE PUSH1 0x40 SWAP1 KECCAK256 DUP1 SLOAD PUSH1 0x1 DUP3 ADD DUP1 SLOAD SWAP2 SWAP3 SWAP2 PUSH2 0x28D SWAP1 PUSH2 0xF4F JUMP JUMPDEST DUP1 PUSH1 0x1F ADD PUSH1 0x20 DUP1 SWAP2 DIV MUL PUSH1 0x20 ADD PUSH1 0x40 MLOAD SWAP1 DUP2 ADD PUSH1 0x40 MSTORE DUP1 SWAP3 SWAP2 SWAP1 DUP2 DUP2 MSTORE PUSH1 0x20 ADD DUP3 DUP1 SLOAD PUSH2 0x2B9 SWAP1 PUSH2 0xF4F JUMP JUMPDEST DUP1 ISZERO PUSH2 0x304 JUMPI DUP1 PUSH1 0x1F LT PUSH2 0x2DB JUMPI PUSH2 0x100 DUP1 DUP4 SLOAD DIV MUL DUP4 MSTORE SWAP2 PUSH1 0x20 ADD SWAP2 PUSH2 0x304 JUMP JUMPDEST DUP3 ADD SWAP2 SWAP1 PUSH0 MSTORE PUSH1 0x20 PUSH0 KECCAK256 SWAP1 JUMPDEST DUP2 SLOAD DUP2 MSTORE SWAP1 PUSH1 0x1 ADD SWAP1 PUSH1 0x20 ADD DUP1 DUP4 GT PUSH2 0x2E7 JUMPI DUP3 SWAP1 SUB PUSH1 0x1F AND DUP3 ADD SWAP2 JUMPDEST POP POP POP PUSH1 0x2 DUP5 ADD SLOAD PUSH1 0x3 DUP6 ADD SLOAD PUSH1 0x4 SWAP1 SWAP6 ADD SLOAD SWAP4 SWAP5 SWAP1 SWAP4 PUSH1 0xFF DUP1 DUP4 AND SWAP5 POP PUSH2 0x100 SWAP1 SWAP3 DIV SWAP1 SWAP2 AND SWAP2 POP DUP7 JUMP JUMPDEST PUSH0 DUP2 DUP2 MSTORE PUSH1 0x4 PUSH1 0x20 SWAP1 DUP2 MSTORE PUSH1 0x40 SWAP2 DUP3 SWAP1 KECCAK256 PUSH1 0x8 ADD DUP1 SLOAD DUP4 MLOAD DUP2 DUP5 MUL DUP2 ADD DUP5 ADD SWAP1 SWAP5 MSTORE DUP1 DUP5 MSTORE PUSH1 0x60 SWAP4 SWAP3 DUP4 ADD DUP3 DUP3 DUP1 ISZERO PUSH2 0x390 JUMPI PUSH1 0x20 MUL DUP3 ADD SWAP2 SWAP1 PUSH0 MSTORE PUSH1 0x20 PUSH0 KECCAK256 SWAP1 JUMPDEST DUP2 SLOAD PUSH1 0x1 PUSH1 0x1 PUSH1 0xA0 SHL SUB AND DUP2 MSTORE PUSH1 0x1 SWAP1 SWAP2 ADD SWAP1 PUSH1 0x20 ADD DUP1 DUP4 GT PUSH2 0x372 JUMPI JUMPDEST POP POP POP POP POP SWAP1 POP SWAP2 SWAP1 POP JUMP JUMPDEST PUSH0 DUP2 DUP2 MSTORE PUSH1 0x4 PUSH1 0x20 SWAP1 DUP2 MSTORE PUSH1 0x40 SWAP2 DUP3 SWAP1 KECCAK256 PUSH1 0x9 ADD DUP1 SLOAD DUP4 MLOAD DUP2 DUP5 MUL DUP2 ADD DUP5 ADD SWAP1 SWAP5 MSTORE DUP1 DUP5 MSTORE PUSH1 0x60 SWAP4 SWAP3 DUP4 ADD DUP3 DUP3 DUP1 ISZERO PUSH2 0x390 JUMPI PUSH1 0x20 MUL DUP3 ADD SWAP2 SWAP1 PUSH0 MSTORE PUSH1 0x20 PUSH0 KECCAK256 SWAP1 DUP2 SLOAD PUSH1 0x1 PUSH1 0x1 PUSH1 0xA0 SHL SUB AND DUP2 MSTORE PUSH1 0x1 SWAP1 SWAP2 ADD SWAP1 PUSH1 0x20 ADD DUP1 DUP4 GT PUSH2 0x372 JUMPI POP POP POP POP POP SWAP1 POP SWAP2 SWAP1 POP JUMP JUMPDEST PUSH0 SLOAD PUSH1 0x1 PUSH1 0x1 PUSH1 0xA0 SHL SUB AND CALLER EQ PUSH2 0x438 JUMPI PUSH1 0x40 MLOAD PUSH3 0x461BCD PUSH1 0xE5 SHL DUP2 MSTORE PUSH1 0x4 ADD PUSH2 0x42F SWAP1 PUSH2 0xF87 JUMP JUMPDEST PUSH1 0x40 MLOAD DUP1 SWAP2 SUB SWAP1 REVERT JUMPDEST PUSH1 0x5 DUP1 SLOAD SWAP1 PUSH0 PUSH2 0x447 DUP4 PUSH2 0xFDC JUMP JUMPDEST SWAP1 SWAP2 SSTORE POP POP PUSH1 0x5 SLOAD PUSH0 DUP2 DUP2 MSTORE PUSH1 0x4 PUSH1 0x20 MSTORE PUSH1 0x40 SWAP1 KECCAK256 SWAP1 DUP2 SSTORE PUSH1 0x1 DUP2 ADD PUSH2 0x46D DUP5 DUP3 PUSH2 0x103D JUMP JUMPDEST POP PUSH1 0x2 DUP2 ADD SWAP2 SWAP1 SWAP2 SSTORE PUSH1 0x3 ADD DUP1 SLOAD PUSH1 0xFF NOT AND SWAP1 SSTORE POP JUMP JUMPDEST PUSH0 SLOAD PUSH1 0x1 PUSH1 0x1 PUSH1 0xA0 SHL SUB AND CALLER EQ PUSH2 0x4AD JUMPI PUSH1 0x40 MLOAD PUSH3 0x461BCD PUSH1 0xE5 SHL DUP2 MSTORE PUSH1 0x4 ADD PUSH2 0x42F SWAP1 PUSH2 0xF87 JUMP JUMPDEST PUSH0 DUP2 DUP2 MSTORE PUSH1 0x4 PUSH1 0x20 MSTORE PUSH1 0x40 SWAP1 KECCAK256 PUSH1 0x3 DUP2 ADD SLOAD PUSH1 0xFF AND PUSH2 0x51F JUMPI PUSH1 0x40 MLOAD PUSH3 0x461BCD PUSH1 0xE5 SHL DUP2 MSTORE PUSH1 0x20 PUSH1 0x4 DUP3 ADD MSTORE PUSH1 0x28 PUSH1 0x24 DUP3 ADD MSTORE PUSH32 0x4576656E74206D75737420626520736574746C6564206265666F726520776974 PUSH1 0x44 DUP3 ADD MSTORE PUSH8 0x6864726177696E67 PUSH1 0xC0 SHL PUSH1 0x64 DUP3 ADD MSTORE PUSH1 0x84 ADD PUSH2 0x42F JUMP JUMPDEST PUSH1 0x3 DUP2 ADD SLOAD PUSH2 0x100 SWAP1 DIV PUSH1 0xFF AND PUSH0 SWAP1 DUP2 MSTORE PUSH1 0x5 DUP3 ADD PUSH1 0x20 MSTORE PUSH1 0x40 DUP2 KECCAK256 SLOAD PUSH1 0x4 DUP4 ADD SLOAD PUSH2 0x54B SWAP2 SWAP1 PUSH2 0x10F8 JUMP JUMPDEST PUSH0 DUP1 SLOAD PUSH1 0x40 MLOAD SWAP3 SWAP4 POP PUSH1 0x1 PUSH1 0x1 PUSH1 0xA0 SHL SUB AND SWAP2 DUP4 ISZERO PUSH2 0x8FC MUL SWAP2 DUP5 SWAP2 SWAP1 DUP2 DUP2 DUP2 DUP6 DUP9 DUP9 CALL SWAP4 POP POP POP POP ISZERO DUP1 ISZERO PUSH2 0x583 JUMPI RETURNDATASIZE PUSH0 DUP1 RETURNDATACOPY RETURNDATASIZE PUSH0 REVERT JUMPDEST POP POP POP POP JUMP JUMPDEST PUSH0 DUP2 DUP2 MSTORE PUSH1 0x4 PUSH1 0x20 MSTORE PUSH1 0x40 SWAP1 KECCAK256 PUSH1 0x3 DUP2 ADD SLOAD PUSH1 0xFF AND PUSH2 0x5EA JUMPI PUSH1 0x40 MLOAD PUSH3 0x461BCD PUSH1 0xE5 SHL DUP2 MSTORE PUSH1 0x20 PUSH1 0x4 DUP3 ADD MSTORE PUSH1 0x1E PUSH1 0x24 DUP3 ADD MSTORE PUSH32 0x4576656E7420686173206E6F74206265656E20736574746C6564207965740000 PUSH1 0x44 DUP3 ADD MSTORE PUSH1 0x64 ADD PUSH2 0x42F JUMP JUMPDEST CALLER PUSH0 SWAP1 DUP2 MSTORE PUSH1 0x6 DUP3 ADD PUSH1 0x20 SWAP1 DUP2 MSTORE PUSH1 0x40 DUP1 DUP4 KECCAK256 PUSH1 0x3 DUP6 ADD SLOAD PUSH2 0x100 SWAP1 DIV PUSH1 0xFF AND DUP5 MSTORE SWAP1 SWAP2 MSTORE SWAP1 KECCAK256 SLOAD DUP1 PUSH2 0x656 JUMPI PUSH1 0x40 MLOAD PUSH3 0x461BCD PUSH1 0xE5 SHL DUP2 MSTORE PUSH1 0x20 PUSH1 0x4 DUP3 ADD MSTORE PUSH1 0x14 PUSH1 0x24 DUP3 ADD MSTORE PUSH20 0x4E6F2077696E6E696E677320746F20636C61696D PUSH1 0x60 SHL PUSH1 0x44 DUP3 ADD MSTORE PUSH1 0x64 ADD PUSH2 0x42F JUMP JUMPDEST PUSH1 0x3 DUP3 ADD SLOAD PUSH2 0x100 SWAP1 DIV PUSH1 0xFF AND PUSH0 SWAP1 DUP2 MSTORE PUSH1 0x5 DUP4 ADD PUSH1 0x20 MSTORE PUSH1 0x40 DUP2 KECCAK256 SLOAD PUSH1 0x4 DUP5 ADD SLOAD PUSH2 0x682 SWAP1 DUP5 PUSH2 0x1111 JUMP JUMPDEST PUSH2 0x68C SWAP2 SWAP1 PUSH2 0x1128 JUMP JUMPDEST CALLER PUSH0 DUP2 DUP2 MSTORE PUSH1 0x6 DUP7 ADD PUSH1 0x20 SWAP1 DUP2 MSTORE PUSH1 0x40 DUP1 DUP4 KECCAK256 PUSH1 0x3 DUP10 ADD SLOAD PUSH2 0x100 SWAP1 DIV PUSH1 0xFF AND DUP5 MSTORE SWAP1 SWAP2 MSTORE DUP1 DUP3 KECCAK256 SWAP2 SWAP1 SWAP2 SSTORE PUSH1 0x2 SLOAD SWAP1 MLOAD PUSH4 0xA9059CBB PUSH1 0xE0 SHL DUP2 MSTORE PUSH1 0x4 DUP2 ADD SWAP3 SWAP1 SWAP3 MSTORE PUSH1 0x24 DUP3 ADD DUP4 SWAP1 MSTORE SWAP2 SWAP3 POP PUSH1 0x1 PUSH1 0x1 PUSH1 0xA0 SHL SUB SWAP1 SWAP2 AND SWAP1 PUSH4 0xA9059CBB SWAP1 PUSH1 0x44 ADD PUSH1 0x20 PUSH1 0x40 MLOAD DUP1 DUP4 SUB DUP2 PUSH0 DUP8 GAS CALL ISZERO DUP1 ISZERO PUSH2 0x70A JUMPI RETURNDATASIZE PUSH0 DUP1 RETURNDATACOPY RETURNDATASIZE PUSH0 REVERT JUMPDEST POP POP POP POP PUSH1 0x40 MLOAD RETURNDATASIZE PUSH1 0x1F NOT PUSH1 0x1F DUP3 ADD AND DUP3 ADD DUP1 PUSH1 0x40 MSTORE POP DUP2 ADD SWAP1 PUSH2 0x72E SWAP2 SWAP1 PUSH2 0x1147 JUMP JUMPDEST POP POP POP POP POP JUMP JUMPDEST PUSH2 0x73E CALLER PUSH2 0xCFB JUMP JUMPDEST PUSH2 0x796 JUMPI PUSH1 0x40 MLOAD PUSH3 0x461BCD PUSH1 0xE5 SHL DUP2 MSTORE PUSH1 0x20 PUSH1 0x4 DUP3 ADD MSTORE PUSH1 0x24 DUP1 DUP3 ADD MSTORE PUSH32 0x4F6E6C79206D756C74697369672063616E2063616C6C20746869732066756E63 PUSH1 0x44 DUP3 ADD MSTORE PUSH4 0x3A34B7B7 PUSH1 0xE1 SHL PUSH1 0x64 DUP3 ADD MSTORE PUSH1 0x84 ADD PUSH2 0x42F JUMP JUMPDEST PUSH0 DUP3 DUP2 MSTORE PUSH1 0x4 PUSH1 0x20 MSTORE PUSH1 0x40 SWAP1 KECCAK256 PUSH1 0x2 DUP2 ADD SLOAD TIMESTAMP LT ISZERO PUSH2 0x7F7 JUMPI PUSH1 0x40 MLOAD PUSH3 0x461BCD PUSH1 0xE5 SHL DUP2 MSTORE PUSH1 0x20 PUSH1 0x4 DUP3 ADD MSTORE PUSH1 0x17 PUSH1 0x24 DUP3 ADD MSTORE PUSH32 0x4576656E7420686173206E6F7420656E64656420796574000000000000000000 PUSH1 0x44 DUP3 ADD MSTORE PUSH1 0x64 ADD PUSH2 0x42F JUMP JUMPDEST PUSH1 0x3 DUP2 ADD SLOAD PUSH1 0xFF AND ISZERO PUSH2 0x844 JUMPI PUSH1 0x40 MLOAD PUSH3 0x461BCD PUSH1 0xE5 SHL DUP2 MSTORE PUSH1 0x20 PUSH1 0x4 DUP3 ADD MSTORE PUSH1 0x15 PUSH1 0x24 DUP3 ADD MSTORE PUSH21 0x115D995B9D08185B1C9958591E481CD95D1D1B1959 PUSH1 0x5A SHL PUSH1 0x44 DUP3 ADD MSTORE PUSH1 0x64 ADD PUSH2 0x42F JUMP JUMPDEST PUSH1 0x3 DUP2 ADD DUP1 SLOAD PUSH1 0xFF DUP5 AND PUSH2 0x100 MUL PUSH2 0xFFFF NOT SWAP1 SWAP2 AND OR PUSH1 0x1 OR SWAP1 SSTORE PUSH0 JUMPDEST PUSH1 0x7 DUP3 ADD SLOAD DUP2 LT ISZERO PUSH2 0x928 JUMPI PUSH0 DUP3 PUSH1 0x7 ADD DUP3 DUP2 SLOAD DUP2 LT PUSH2 0x883 JUMPI PUSH2 0x883 PUSH2 0x116D JUMP JUMPDEST PUSH0 SWAP2 DUP3 MSTORE PUSH1 0x20 DUP1 DUP4 KECCAK256 SWAP1 SWAP2 ADD SLOAD PUSH1 0x1 PUSH1 0x1 PUSH1 0xA0 SHL SUB AND DUP1 DUP4 MSTORE PUSH1 0x6 DUP7 ADD DUP3 MSTORE PUSH1 0x40 DUP1 DUP5 KECCAK256 PUSH1 0xFF DUP10 AND DUP6 MSTORE SWAP1 SWAP3 MSTORE SWAP2 KECCAK256 SLOAD SWAP1 SWAP2 POP ISZERO PUSH2 0x8EF JUMPI PUSH1 0x8 DUP4 ADD DUP1 SLOAD PUSH1 0x1 DUP2 ADD DUP3 SSTORE PUSH0 SWAP2 DUP3 MSTORE PUSH1 0x20 SWAP1 SWAP2 KECCAK256 ADD DUP1 SLOAD PUSH1 0x1 PUSH1 0x1 PUSH1 0xA0 SHL SUB NOT AND PUSH1 0x1 PUSH1 0x1 PUSH1 0xA0 SHL SUB DUP4 AND OR SWAP1 SSTORE PUSH2 0x91F JUMP JUMPDEST PUSH1 0x9 DUP4 ADD DUP1 SLOAD PUSH1 0x1 DUP2 ADD DUP3 SSTORE PUSH0 SWAP2 DUP3 MSTORE PUSH1 0x20 SWAP1 SWAP2 KECCAK256 ADD DUP1 SLOAD PUSH1 0x1 PUSH1 0x1 PUSH1 0xA0 SHL SUB NOT AND PUSH1 0x1 PUSH1 0x1 PUSH1 0xA0 SHL SUB DUP4 AND OR SWAP1 SSTORE JUMPDEST POP PUSH1 0x1 ADD PUSH2 0x861 JUMP JUMPDEST POP PUSH0 JUMPDEST PUSH1 0x8 DUP3 ADD SLOAD DUP2 LT ISZERO PUSH2 0x583 JUMPI PUSH0 DUP3 PUSH1 0x8 ADD DUP3 DUP2 SLOAD DUP2 LT PUSH2 0x94D JUMPI PUSH2 0x94D PUSH2 0x116D JUMP JUMPDEST PUSH0 SWAP2 DUP3 MSTORE PUSH1 0x20 DUP1 DUP4 KECCAK256 SWAP1 SWAP2 ADD SLOAD PUSH1 0x1 PUSH1 0x1 PUSH1 0xA0 SHL SUB AND DUP1 DUP4 MSTORE PUSH1 0x6 DUP7 ADD DUP3 MSTORE PUSH1 0x40 DUP1 DUP5 KECCAK256 PUSH1 0xFF DUP10 AND DUP6 MSTORE DUP4 MSTORE DUP1 DUP5 KECCAK256 SLOAD PUSH1 0x5 DUP9 ADD SWAP1 SWAP4 MSTORE DUP4 KECCAK256 SLOAD PUSH1 0x4 DUP8 ADD SLOAD SWAP2 SWAP5 POP SWAP2 SWAP3 SWAP2 SWAP1 PUSH2 0x99D SWAP1 DUP5 PUSH2 0x1111 JUMP JUMPDEST PUSH2 0x9A7 SWAP2 SWAP1 PUSH2 0x1128 JUMP JUMPDEST PUSH1 0x2 SLOAD PUSH1 0x40 MLOAD PUSH4 0x95EA7B3 PUSH1 0xE0 SHL DUP2 MSTORE ADDRESS PUSH1 0x4 DUP3 ADD MSTORE PUSH1 0x24 DUP2 ADD DUP4 SWAP1 MSTORE SWAP2 SWAP3 POP PUSH1 0x1 PUSH1 0x1 PUSH1 0xA0 SHL SUB AND SWAP1 PUSH4 0x95EA7B3 SWAP1 PUSH1 0x44 ADD PUSH1 0x20 PUSH1 0x40 MLOAD DUP1 DUP4 SUB DUP2 PUSH0 DUP8 GAS CALL ISZERO DUP1 ISZERO PUSH2 0x9F6 JUMPI RETURNDATASIZE PUSH0 DUP1 RETURNDATACOPY RETURNDATASIZE PUSH0 REVERT JUMPDEST POP POP POP POP PUSH1 0x40 MLOAD RETURNDATASIZE PUSH1 0x1F NOT PUSH1 0x1F DUP3 ADD AND DUP3 ADD DUP1 PUSH1 0x40 MSTORE POP DUP2 ADD SWAP1 PUSH2 0xA1A SWAP2 SWAP1 PUSH2 0x1147 JUMP JUMPDEST POP PUSH1 0x2 SLOAD PUSH1 0x40 MLOAD PUSH4 0xF2FDE38B PUSH1 0xE0 SHL DUP2 MSTORE ADDRESS PUSH1 0x4 DUP3 ADD MSTORE PUSH1 0x1 PUSH1 0x1 PUSH1 0xA0 SHL SUB SWAP1 SWAP2 AND SWAP1 PUSH4 0xF2FDE38B SWAP1 PUSH1 0x24 ADD PUSH0 PUSH1 0x40 MLOAD DUP1 DUP4 SUB DUP2 PUSH0 DUP8 DUP1 EXTCODESIZE ISZERO DUP1 ISZERO PUSH2 0xA5D JUMPI PUSH0 DUP1 REVERT JUMPDEST POP GAS CALL ISZERO DUP1 ISZERO PUSH2 0xA6F JUMPI RETURNDATASIZE PUSH0 DUP1 RETURNDATACOPY RETURNDATASIZE PUSH0 REVERT JUMPDEST POP POP PUSH1 0x2 SLOAD PUSH1 0x40 MLOAD PUSH4 0x40C10F19 PUSH1 0xE0 SHL DUP2 MSTORE PUSH1 0x1 PUSH1 0x1 PUSH1 0xA0 SHL SUB DUP8 DUP2 AND PUSH1 0x4 DUP4 ADD MSTORE PUSH1 0x24 DUP3 ADD DUP7 SWAP1 MSTORE SWAP1 SWAP2 AND SWAP3 POP PUSH4 0x40C10F19 SWAP2 POP PUSH1 0x44 ADD PUSH0 PUSH1 0x40 MLOAD DUP1 DUP4 SUB DUP2 PUSH0 DUP8 DUP1 EXTCODESIZE ISZERO DUP1 ISZERO PUSH2 0xABE JUMPI PUSH0 DUP1 REVERT JUMPDEST POP GAS CALL ISZERO DUP1 ISZERO PUSH2 0xAD0 JUMPI RETURNDATASIZE PUSH0 DUP1 RETURNDATACOPY RETURNDATASIZE PUSH0 REVERT JUMPDEST POP POP POP POP PUSH1 0x3 PUSH0 SWAP1 SLOAD SWAP1 PUSH2 0x100 EXP SWAP1 DIV PUSH1 0x1 PUSH1 0x1 PUSH1 0xA0 SHL SUB AND PUSH1 0x1 PUSH1 0x1 PUSH1 0xA0 SHL SUB AND PUSH4 0x627CDCB9 PUSH1 0x40 MLOAD DUP2 PUSH4 0xFFFFFFFF AND PUSH1 0xE0 SHL DUP2 MSTORE PUSH1 0x4 ADD PUSH1 0x20 PUSH1 0x40 MLOAD DUP1 DUP4 SUB DUP2 PUSH0 DUP8 GAS CALL ISZERO DUP1 ISZERO PUSH2 0xB25 JUMPI RETURNDATASIZE PUSH0 DUP1 RETURNDATACOPY RETURNDATASIZE PUSH0 REVERT JUMPDEST POP POP POP POP PUSH1 0x40 MLOAD RETURNDATASIZE PUSH1 0x1F NOT PUSH1 0x1F DUP3 ADD AND DUP3 ADD DUP1 PUSH1 0x40 MSTORE POP DUP2 ADD SWAP1 PUSH2 0xB49 SWAP2 SWAP1 PUSH2 0x1181 JUMP JUMPDEST POP POP PUSH1 0x1 SWAP1 SWAP3 ADD SWAP2 POP PUSH2 0x92B SWAP1 POP JUMP JUMPDEST PUSH0 DUP4 DUP2 MSTORE PUSH1 0x4 PUSH1 0x20 MSTORE PUSH1 0x40 SWAP1 KECCAK256 PUSH1 0x2 ADD SLOAD TIMESTAMP LT PUSH2 0xBB1 JUMPI PUSH1 0x40 MLOAD PUSH3 0x461BCD PUSH1 0xE5 SHL DUP2 MSTORE PUSH1 0x20 PUSH1 0x4 DUP3 ADD MSTORE PUSH1 0x16 PUSH1 0x24 DUP3 ADD MSTORE PUSH22 0x10995D1D1A5B99C81D1A5B59481A185CC8195B991959 PUSH1 0x52 SHL PUSH1 0x44 DUP3 ADD MSTORE PUSH1 0x64 ADD PUSH2 0x42F JUMP JUMPDEST PUSH0 DUP2 GT PUSH2 0xC0C JUMPI PUSH1 0x40 MLOAD PUSH3 0x461BCD PUSH1 0xE5 SHL DUP2 MSTORE PUSH1 0x20 PUSH1 0x4 DUP3 ADD MSTORE PUSH1 0x24 DUP1 DUP3 ADD MSTORE PUSH32 0x42657420616D6F756E74206D7573742062652067726561746572207468616E20 PUSH1 0x44 DUP3 ADD MSTORE PUSH4 0x7A65726F PUSH1 0xE0 SHL PUSH1 0x64 DUP3 ADD MSTORE PUSH1 0x84 ADD PUSH2 0x42F JUMP JUMPDEST PUSH0 DUP4 DUP2 MSTORE PUSH1 0x4 PUSH1 0x20 SWAP1 DUP2 MSTORE PUSH1 0x40 DUP1 DUP4 KECCAK256 CALLER DUP5 MSTORE PUSH1 0x6 ADD DUP3 MSTORE DUP1 DUP4 KECCAK256 PUSH1 0xFF DUP7 AND DUP5 MSTORE SWAP1 SWAP2 MSTORE DUP2 KECCAK256 DUP1 SLOAD DUP4 SWAP3 SWAP1 PUSH2 0xC42 SWAP1 DUP5 SWAP1 PUSH2 0x1198 JUMP JUMPDEST SWAP1 SWAP2 SSTORE POP POP PUSH0 DUP4 DUP2 MSTORE PUSH1 0x4 PUSH1 0x20 SWAP1 DUP2 MSTORE PUSH1 0x40 DUP1 DUP4 KECCAK256 PUSH1 0xFF DUP7 AND DUP5 MSTORE PUSH1 0x5 ADD SWAP1 SWAP2 MSTORE DUP2 KECCAK256 DUP1 SLOAD DUP4 SWAP3 SWAP1 PUSH2 0xC75 SWAP1 DUP5 SWAP1 PUSH2 0x1198 JUMP JUMPDEST SWAP1 SWAP2 SSTORE POP POP PUSH0 DUP4 DUP2 MSTORE PUSH1 0x4 PUSH1 0x20 DUP2 SWAP1 MSTORE PUSH1 0x40 DUP3 KECCAK256 ADD DUP1 SLOAD DUP4 SWAP3 SWAP1 PUSH2 0xC9A SWAP1 DUP5 SWAP1 PUSH2 0x1198 JUMP JUMPDEST SWAP1 SWAP2 SSTORE POP POP POP PUSH0 SWAP2 DUP3 MSTORE POP PUSH1 0x4 PUSH1 0x20 SWAP1 DUP2 MSTORE PUSH1 0x40 DUP3 KECCAK256 PUSH1 0x7 ADD DUP1 SLOAD PUSH1 0x1 DUP2 ADD DUP3 SSTORE SWAP1 DUP4 MSTORE SWAP2 KECCAK256 ADD DUP1 SLOAD PUSH1 0x1 PUSH1 0x1 PUSH1 0xA0 SHL SUB NOT AND CALLER OR SWAP1 SSTORE JUMP JUMPDEST PUSH1 0x1 DUP2 DUP2 SLOAD DUP2 LT PUSH2 0xCE2 JUMPI PUSH0 DUP1 REVERT JUMPDEST PUSH0 SWAP2 DUP3 MSTORE PUSH1 0x20 SWAP1 SWAP2 KECCAK256 ADD SLOAD PUSH1 0x1 PUSH1 0x1 PUSH1 0xA0 SHL SUB AND SWAP1 POP DUP2 JUMP JUMPDEST PUSH0 DUP1 JUMPDEST PUSH1 0x1 SLOAD DUP2 LT ISZERO PUSH2 0xD4F JUMPI DUP3 PUSH1 0x1 PUSH1 0x1 PUSH1 0xA0 SHL SUB AND PUSH1 0x1 DUP3 DUP2 SLOAD DUP2 LT PUSH2 0xD25 JUMPI PUSH2 0xD25 PUSH2 0x116D JUMP JUMPDEST PUSH0 SWAP2 DUP3 MSTORE PUSH1 0x20 SWAP1 SWAP2 KECCAK256 ADD SLOAD PUSH1 0x1 PUSH1 0x1 PUSH1 0xA0 SHL SUB AND SUB PUSH2 0xD47 JUMPI POP PUSH1 0x1 SWAP3 SWAP2 POP POP JUMP JUMPDEST PUSH1 0x1 ADD PUSH2 0xCFE JUMP JUMPDEST POP PUSH0 SWAP3 SWAP2 POP POP JUMP JUMPDEST PUSH0 PUSH1 0x20 DUP3 DUP5 SUB SLT ISZERO PUSH2 0xD67 JUMPI PUSH0 DUP1 REVERT JUMPDEST POP CALLDATALOAD SWAP2 SWAP1 POP JUMP JUMPDEST DUP7 DUP2 MSTORE PUSH1 0xC0 PUSH1 0x20 DUP3 ADD MSTORE PUSH0 DUP7 MLOAD DUP1 PUSH1 0xC0 DUP5 ADD MSTORE DUP1 PUSH1 0x20 DUP10 ADD PUSH1 0xE0 DUP6 ADD MCOPY PUSH0 PUSH1 0xE0 DUP3 DUP6 ADD DUP2 ADD SWAP2 SWAP1 SWAP2 MSTORE PUSH1 0x40 DUP5 ADD SWAP8 SWAP1 SWAP8 MSTORE SWAP5 ISZERO ISZERO PUSH1 0x60 DUP4 ADD MSTORE POP PUSH1 0xFF SWAP3 SWAP1 SWAP3 AND PUSH1 0x80 DUP4 ADD MSTORE PUSH1 0xA0 DUP3 ADD MSTORE PUSH1 0x1F SWAP1 SWAP2 ADD PUSH1 0x1F NOT AND ADD ADD SWAP3 SWAP2 POP POP JUMP JUMPDEST PUSH1 0x20 DUP1 DUP3 MSTORE DUP3 MLOAD DUP3 DUP3 ADD DUP2 SWAP1 MSTORE PUSH0 SWAP2 DUP5 ADD SWAP1 PUSH1 0x40 DUP5 ADD SWAP1 DUP4 JUMPDEST DUP2 DUP2 LT ISZERO PUSH2 0xE09 JUMPI DUP4 MLOAD PUSH1 0x1 PUSH1 0x1 PUSH1 0xA0 SHL SUB AND DUP4 MSTORE PUSH1 0x20 SWAP4 DUP5 ADD SWAP4 SWAP1 SWAP3 ADD SWAP2 PUSH1 0x1 ADD PUSH2 0xDE2 JUMP JUMPDEST POP SWAP1 SWAP6 SWAP5 POP POP POP POP POP JUMP JUMPDEST PUSH4 0x4E487B71 PUSH1 0xE0 SHL PUSH0 MSTORE PUSH1 0x41 PUSH1 0x4 MSTORE PUSH1 0x24 PUSH0 REVERT JUMPDEST PUSH0 DUP1 PUSH1 0x40 DUP4 DUP6 SUB SLT ISZERO PUSH2 0xE39 JUMPI PUSH0 DUP1 REVERT JUMPDEST DUP3 CALLDATALOAD PUSH8 0xFFFFFFFFFFFFFFFF DUP2 GT ISZERO PUSH2 0xE4F JUMPI PUSH0 DUP1 REVERT JUMPDEST DUP4 ADD PUSH1 0x1F DUP2 ADD DUP6 SGT PUSH2 0xE5F JUMPI PUSH0 DUP1 REVERT JUMPDEST DUP1 CALLDATALOAD PUSH8 0xFFFFFFFFFFFFFFFF DUP2 GT ISZERO PUSH2 0xE79 JUMPI PUSH2 0xE79 PUSH2 0xE14 JUMP JUMPDEST PUSH1 0x40 MLOAD PUSH1 0x1F DUP3 ADD PUSH1 0x1F NOT SWAP1 DUP2 AND PUSH1 0x3F ADD AND DUP2 ADD PUSH8 0xFFFFFFFFFFFFFFFF DUP2 GT DUP3 DUP3 LT OR ISZERO PUSH2 0xEA8 JUMPI PUSH2 0xEA8 PUSH2 0xE14 JUMP JUMPDEST PUSH1 0x40 MSTORE DUP2 DUP2 MSTORE DUP3 DUP3 ADD PUSH1 0x20 ADD DUP8 LT ISZERO PUSH2 0xEBF JUMPI PUSH0 DUP1 REVERT JUMPDEST DUP2 PUSH1 0x20 DUP5 ADD PUSH1 0x20 DUP4 ADD CALLDATACOPY PUSH0 PUSH1 0x20 SWAP3 DUP3 ADD DUP4 ADD MSTORE SWAP7 SWAP5 ADD CALLDATALOAD SWAP5 POP POP POP POP JUMP JUMPDEST DUP1 CALLDATALOAD PUSH1 0xFF DUP2 AND DUP2 EQ PUSH2 0xEED JUMPI PUSH0 DUP1 REVERT JUMPDEST SWAP2 SWAP1 POP JUMP JUMPDEST PUSH0 DUP1 PUSH1 0x40 DUP4 DUP6 SUB SLT ISZERO PUSH2 0xF03 JUMPI PUSH0 DUP1 REVERT JUMPDEST DUP3 CALLDATALOAD SWAP2 POP PUSH2 0xF13 PUSH1 0x20 DUP5 ADD PUSH2 0xEDD JUMP JUMPDEST SWAP1 POP SWAP3 POP SWAP3 SWAP1 POP JUMP JUMPDEST PUSH0 DUP1 PUSH0 PUSH1 0x60 DUP5 DUP7 SUB SLT ISZERO PUSH2 0xF2E JUMPI PUSH0 DUP1 REVERT JUMPDEST DUP4 CALLDATALOAD SWAP3 POP PUSH2 0xF3E PUSH1 0x20 DUP6 ADD PUSH2 0xEDD JUMP JUMPDEST SWAP3 SWAP6 SWAP3 SWAP5 POP POP POP PUSH1 0x40 SWAP2 SWAP1 SWAP2 ADD CALLDATALOAD SWAP1 JUMP JUMPDEST PUSH1 0x1 DUP2 DUP2 SHR SWAP1 DUP3 AND DUP1 PUSH2 0xF63 JUMPI PUSH1 0x7F DUP3 AND SWAP2 POP JUMPDEST PUSH1 0x20 DUP3 LT DUP2 SUB PUSH2 0xF81 JUMPI PUSH4 0x4E487B71 PUSH1 0xE0 SHL PUSH0 MSTORE PUSH1 0x22 PUSH1 0x4 MSTORE PUSH1 0x24 PUSH0 REVERT JUMPDEST POP SWAP2 SWAP1 POP JUMP JUMPDEST PUSH1 0x20 DUP1 DUP3 MSTORE PUSH1 0x21 SWAP1 DUP3 ADD MSTORE PUSH32 0x4F6E6C792061646D696E2063616E2063616C6C20746869732066756E6374696F PUSH1 0x40 DUP3 ADD MSTORE PUSH1 0x37 PUSH1 0xF9 SHL PUSH1 0x60 DUP3 ADD MSTORE PUSH1 0x80 ADD SWAP1 JUMP JUMPDEST PUSH4 0x4E487B71 PUSH1 0xE0 SHL PUSH0 MSTORE PUSH1 0x11 PUSH1 0x4 MSTORE PUSH1 0x24 PUSH0 REVERT JUMPDEST PUSH0 PUSH1 0x1 DUP3 ADD PUSH2 0xFED JUMPI PUSH2 0xFED PUSH2 0xFC8 JUMP JUMPDEST POP PUSH1 0x1 ADD SWAP1 JUMP JUMPDEST PUSH1 0x1F DUP3 GT ISZERO PUSH2 0x1038 JUMPI DUP1 PUSH0 MSTORE PUSH1 0x20 PUSH0 KECCAK256 PUSH1 0x1F DUP5 ADD PUSH1 0x5 SHR DUP2 ADD PUSH1 0x20 DUP6 LT ISZERO PUSH2 0x1019 JUMPI POP DUP1 JUMPDEST PUSH1 0x1F DUP5 ADD PUSH1 0x5 SHR DUP3 ADD SWAP2 POP JUMPDEST DUP2 DUP2 LT ISZERO PUSH2 0x72E JUMPI PUSH0 DUP2 SSTORE PUSH1 0x1 ADD PUSH2 0x1025 JUMP JUMPDEST POP POP POP JUMP JUMPDEST DUP2 MLOAD PUSH8 0xFFFFFFFFFFFFFFFF DUP2 GT ISZERO PUSH2 0x1057 JUMPI PUSH2 0x1057 PUSH2 0xE14 JUMP JUMPDEST PUSH2 0x106B DUP2 PUSH2 0x1065 DUP5 SLOAD PUSH2 0xF4F JUMP JUMPDEST DUP5 PUSH2 0xFF4 JUMP JUMPDEST PUSH1 0x20 PUSH1 0x1F DUP3 GT PUSH1 0x1 DUP2 EQ PUSH2 0x109D JUMPI PUSH0 DUP4 ISZERO PUSH2 0x1086 JUMPI POP DUP5 DUP3 ADD MLOAD JUMPDEST PUSH0 NOT PUSH1 0x3 DUP6 SWAP1 SHL SHR NOT AND PUSH1 0x1 DUP5 SWAP1 SHL OR DUP5 SSTORE PUSH2 0x72E JUMP JUMPDEST PUSH0 DUP5 DUP2 MSTORE PUSH1 0x20 DUP2 KECCAK256 PUSH1 0x1F NOT DUP6 AND SWAP2 JUMPDEST DUP3 DUP2 LT ISZERO PUSH2 0x10CC JUMPI DUP8 DUP6 ADD MLOAD DUP3 SSTORE PUSH1 0x20 SWAP5 DUP6 ADD SWAP5 PUSH1 0x1 SWAP1 SWAP3 ADD SWAP2 ADD PUSH2 0x10AC JUMP JUMPDEST POP DUP5 DUP3 LT ISZERO PUSH2 0x10E9 JUMPI DUP7 DUP5 ADD MLOAD PUSH0 NOT PUSH1 0x3 DUP8 SWAP1 SHL PUSH1 0xF8 AND SHR NOT AND DUP2 SSTORE JUMPDEST POP POP POP POP PUSH1 0x1 SWAP1 DUP2 SHL ADD SWAP1 SSTORE POP JUMP JUMPDEST DUP2 DUP2 SUB DUP2 DUP2 GT ISZERO PUSH2 0x110B JUMPI PUSH2 0x110B PUSH2 0xFC8 JUMP JUMPDEST SWAP3 SWAP2 POP POP JUMP JUMPDEST DUP1 DUP3 MUL DUP2 ISZERO DUP3 DUP3 DIV DUP5 EQ OR PUSH2 0x110B JUMPI PUSH2 0x110B PUSH2 0xFC8 JUMP JUMPDEST PUSH0 DUP3 PUSH2 0x1142 JUMPI PUSH4 0x4E487B71 PUSH1 0xE0 SHL PUSH0 MSTORE PUSH1 0x12 PUSH1 0x4 MSTORE PUSH1 0x24 PUSH0 REVERT JUMPDEST POP DIV SWAP1 JUMP JUMPDEST PUSH0 PUSH1 0x20 DUP3 DUP5 SUB SLT ISZERO PUSH2 0x1157 JUMPI PUSH0 DUP1 REVERT JUMPDEST DUP2 MLOAD DUP1 ISZERO ISZERO DUP2 EQ PUSH2 0x1166 JUMPI PUSH0 DUP1 REVERT JUMPDEST SWAP4 SWAP3 POP POP POP JUMP JUMPDEST PUSH4 0x4E487B71 PUSH1 0xE0 SHL PUSH0 MSTORE PUSH1 0x32 PUSH1 0x4 MSTORE PUSH1 0x24 PUSH0 REVERT JUMPDEST PUSH0 PUSH1 0x20 DUP3 DUP5 SUB SLT ISZERO PUSH2 0x1191 JUMPI PUSH0 DUP1 REVERT JUMPDEST POP MLOAD SWAP2 SWAP1 POP JUMP JUMPDEST DUP1 DUP3 ADD DUP1 DUP3 GT ISZERO PUSH2 0x110B JUMPI PUSH2 0x110B PUSH2 0xFC8 JUMP INVALID LOG2 PUSH5 0x6970667358 0x22 SLT KECCAK256 0xA7 0xF9 EQ DUP13 0xEE 0xCE PUSH9 0x3032A56C4F97104F1F BLOCKHASH SWAP8 DUP9 0xC4 JUMPDEST BYTE 0xA7 SELFDESTRUCT PUSH20 0x7D88B6AE0BEECC64736F6C634300081A00330000 "
		},
		"gasEstimates": {
			"creation": {
				"codeDepositCost": "915400",
				"executionCost": "infinite",
				"totalCost": "infinite"
			},
			"external": {
				"admin()": "2423",
				"claimReward(uint256)": "infinite",
				"createEvent(string,uint256)": "infinite",
				"eventCount()": "2339",
				"events(uint256)": "infinite",
				"getLosers(uint256)": "infinite",
				"getWinners(uint256)": "infinite",
				"multisigWallet(uint256)": "4677",
				"placeBet(uint256,uint8,uint256)": "infinite",
				"settleEvent(uint256,uint8)": "infinite",
				"token()": "2446",
				"withdrawUnclaimedFunds(uint256)": "infinite"
			},
			"internal": {
				"isMultisig(address)": "infinite"
			}
		},
		"methodIdentifiers": {
			"admin()": "f851a440",
			"claimReward(uint256)": "ae169a50",
			"createEvent(string,uint256)": "9a4d4385",
			"eventCount()": "71be2e4a",
			"events(uint256)": "0b791430",
			"getLosers(uint256)": "8baa563d",
			"getWinners(uint256)": "6b1426a4",
			"multisigWallet(uint256)": "f431968a",
			"placeBet(uint256,uint8,uint256)": "da866c48",
			"settleEvent(uint256,uint8)": "c9122dca",
			"token()": "fc0c546a",
			"withdrawUnclaimedFunds(uint256)": "a8bf0ba2"
		}
	},
	"abi": [
		{
			"inputs": [
				{
					"internalType": "address[]",
					"name": "_multisigWallet",
					"type": "address[]"
				},
				{
					"internalType": "contract BitzToken",
					"name": "_token",
					"type": "address"
				},
				{
					"internalType": "contract IMultiSigWallet",
					"name": "_iMultiSigWallet",
					"type": "address"
				}
			],
			"stateMutability": "nonpayable",
			"type": "constructor"
		},
		{
			"inputs": [],
			"name": "admin",
			"outputs": [
				{
					"internalType": "address",
					"name": "",
					"type": "address"
				}
			],
			"stateMutability": "view",
			"type": "function"
		},
		{
			"inputs": [
				{
					"internalType": "uint256",
					"name": "_eventId",
					"type": "uint256"
				}
			],
			"name": "claimReward",
			"outputs": [],
			"stateMutability": "nonpayable",
			"type": "function"
		},
		{
			"inputs": [
				{
					"internalType": "string",
					"name": "_name",
					"type": "string"
				},
				{
					"internalType": "uint256",
					"name": "_endTime",
					"type": "uint256"
				}
			],
			"name": "createEvent",
			"outputs": [],
			"stateMutability": "nonpayable",
			"type": "function"
		},
		{
			"inputs": [],
			"name": "eventCount",
			"outputs": [
				{
					"internalType": "uint256",
					"name": "",
					"type": "uint256"
				}
			],
			"stateMutability": "view",
			"type": "function"
		},
		{
			"inputs": [
				{
					"internalType": "uint256",
					"name": "",
					"type": "uint256"
				}
			],
			"name": "events",
			"outputs": [
				{
					"internalType": "uint256",
					"name": "id",
					"type": "uint256"
				},
				{
					"internalType": "string",
					"name": "name",
					"type": "string"
				},
				{
					"internalType": "uint256",
					"name": "endTime",
					"type": "uint256"
				},
				{
					"internalType": "bool",
					"name": "settled",
					"type": "bool"
				},
				{
					"internalType": "uint8",
					"name": "winningRoomba",
					"type": "uint8"
				},
				{
					"internalType": "uint256",
					"name": "totalAmount",
					"type": "uint256"
				}
			],
			"stateMutability": "view",
			"type": "function"
		},
		{
			"inputs": [
				{
					"internalType": "uint256",
					"name": "_eventId",
					"type": "uint256"
				}
			],
			"name": "getLosers",
			"outputs": [
				{
					"internalType": "address[]",
					"name": "",
					"type": "address[]"
				}
			],
			"stateMutability": "view",
			"type": "function"
		},
		{
			"inputs": [
				{
					"internalType": "uint256",
					"name": "_eventId",
					"type": "uint256"
				}
			],
			"name": "getWinners",
			"outputs": [
				{
					"internalType": "address[]",
					"name": "",
					"type": "address[]"
				}
			],
			"stateMutability": "view",
			"type": "function"
		},
		{
			"inputs": [
				{
					"internalType": "uint256",
					"name": "",
					"type": "uint256"
				}
			],
			"name": "multisigWallet",
			"outputs": [
				{
					"internalType": "address",
					"name": "",
					"type": "address"
				}
			],
			"stateMutability": "view",
			"type": "function"
		},
		{
			"inputs": [
				{
					"internalType": "uint256",
					"name": "_eventId",
					"type": "uint256"
				},
				{
					"internalType": "uint8",
					"name": "_roomba",
					"type": "uint8"
				},
				{
					"internalType": "uint256",
					"name": "betAmount",
					"type": "uint256"
				}
			],
			"name": "placeBet",
			"outputs": [],
			"stateMutability": "nonpayable",
			"type": "function"
		},
		{
			"inputs": [
				{
					"internalType": "uint256",
					"name": "_eventId",
					"type": "uint256"
				},
				{
					"internalType": "uint8",
					"name": "_winningRoomba",
					"type": "uint8"
				}
			],
			"name": "settleEvent",
			"outputs": [],
			"stateMutability": "nonpayable",
			"type": "function"
		},
		{
			"inputs": [],
			"name": "token",
			"outputs": [
				{
					"internalType": "contract BitzToken",
					"name": "",
					"type": "address"
				}
			],
			"stateMutability": "view",
			"type": "function"
		},
		{
			"inputs": [
				{
					"internalType": "uint256",
					"name": "_eventId",
					"type": "uint256"
				}
			],
			"name": "withdrawUnclaimedFunds",
			"outputs": [],
			"stateMutability": "nonpayable",
			"type": "function"
		},
		{
			"stateMutability": "payable",
			"type": "receive"
		}
	]
}