{
	"data": {
		"bytecode": {
			"linkReferences": {},
			"object": "6080604052606e805460ff1916905534801561001a57600080fd5b506137a58061002a6000396000f3fe608060405234801561001057600080fd5b506004361061028a5760003560e01c8063715018a61161015c578063a9059cbb116100ce578063dd62ed3e11610087578063dd62ed3e146105af578063e5839836146105e8578063f2fde38b14610614578063f898178914610627578063f91b619c1461063a578063fc7e5fa81461064d57600080fd5b8063a9059cbb1461053a578063aba637051461054d578063b84c824614610563578063c47f002714610576578063c69c09cf14610589578063cbf3f8611461059c57600080fd5b80639285948a116101205780639285948a146104d357806395d89b41146104e657806397a6278e146104ee5780639dc29fac146105015780639fc1d0e714610514578063a457c2d71461052757600080fd5b8063715018a61461048c5780638456cb591461049457806384e798421461049c57806388d695b2146104af5780638da5cb5b146104c257600080fd5b806339509351116102005780634a6cc677116101b95780634a6cc6771461041657806354fd4d50146104295780635c975abb1461044a5780636290865d14610455578063685731071461046657806370a082311461047957600080fd5b806339509351146103af5780633d1ddc5b146103c25780633f4ba83a146103d557806340c10f19146103dd57806342a47abc146103f05780634710362d1461040357600080fd5b806318160ddd1161025257806318160ddd146103465780631a7af3791461034e5780631fe56f7d146103615780631ffbb0641461037457806323b872dd14610387578063313ce5671461039a57600080fd5b806306fdde031461028f578063095ea7b3146102ad578063125c4a33146102d0578063134e18f4146102e5578063158b1a571461030f575b600080fd5b610297610660565b6040516102a49190612e09565b60405180910390f35b6102c06102bb366004612e38565b6106f2565b60405190151581526020016102a4565b6102e36102de366004612e38565b610709565b005b606e5461010090046001600160a01b03165b6040516001600160a01b0390911681526020016102a4565b61033861031d366004612e62565b6001600160a01b03166000908152606d602052604090205490565b6040519081526020016102a4565b606854610338565b6102e361035c366004612ec9565b610838565b6102e361036f366004612e38565b6108ad565b6102c0610382366004612e62565b6109d6565b6102c0610395366004612f35565b6109e3565b606b5460405160ff90911681526020016102a4565b6102c06103bd366004612e38565b610ced565b6102e36103d0366004612e62565b610d24565b6102e3610de2565b6102e36103eb366004612e38565b610e90565b6102e36103fe366004612f71565b6110ab565b6102e3610411366004612ec9565b611141565b6102e3610424366004612ec9565b6111a6565b604080518082019091526005815264342e312e3360d81b6020820152610297565b606e5460ff166102c0565b606f546001600160a01b03166102f7565b6102e3610474366004612ec9565b61120b565b610338610487366004612e62565b611270565b6102e361128b565b6102e361129f565b6102e36104aa366004612e62565b611324565b6102e36104bd366004612ec9565b611394565b6033546001600160a01b03166102f7565b6102c06104e136600461300b565b6113fa565b610297611769565b6102e36104fc366004612e62565b611778565b6102e361050f366004612e38565b6117e8565b6102c0610522366004612f35565b611993565b6102c0610535366004612e38565b611bc1565b6102c0610548366004612e38565b611bf8565b606b5461010090046001600160a01b03166102f7565b6102e361057136600461304e565b611e6f565b6102e361058436600461304e565b611f9b565b6102e36105973660046130ce565b612027565b6102e36105aa366004612e62565b6120a1565b6103386105bd366004613105565b6001600160a01b03918216600090815260676020908152604080832093909416825291909152205490565b6102c06105f6366004612e62565b6001600160a01b03166000908152606c602052604090205460ff1690565b6102e3610622366004612e62565b6120fb565b6102e3610635366004612e62565b612174565b6102e36106483660046131db565b61228e565b6102e361065b366004612ec9565b612666565b60606069805461066f90613288565b80601f016020809104026020016040519081016040528092919081815260200182805461069b90613288565b80156106e85780601f106106bd576101008083540402835291602001916106e8565b820191906000526020600020905b8154815290600101906020018083116106cb57829003601f168201915b5050505050905090565b60006106ff3384846126cb565b5060015b92915050565b610712336109d6565b6107375760405162461bcd60e51b815260040161072e906132c2565b60405180910390fd5b600061074283611270565b6001600160a01b0384166000908152606d6020526040902054909150610769908390613326565b8110156107b85760405162461bcd60e51b815260206004820181905260248201527f416d6f756e74206578636565647320617661696c61626c652062616c616e6365604482015260640161072e565b6001600160a01b0383166000908152606d60205260409020546107dc908390613326565b6001600160a01b0384166000818152606d6020526040908190209290925590517fa065e63c631c86f1b9f66a4a2f63f2093bf1c2168d23290259dbd969e0222a459061082b9085815260200190565b60405180910390a2505050565b60005b838110156108a65761089485858381811061085857610858613339565b905060200201602081019061086d9190612e62565b84848481811061087f5761087f613339565b9050602002016020810190610597919061334f565b8061089e8161336c565b91505061083b565b5050505050565b6108b6336109d6565b6108d25760405162461bcd60e51b815260040161072e906132c2565b6001600160a01b0382166000908152606d60205260409020548111156109575760405162461bcd60e51b815260206004820152603460248201527f416d6f756e742073686f756c64206265206c657373207468616e206f7220657160448201527375616c20746f2066726f7a656e20746f6b656e7360601b606482015260840161072e565b6001600160a01b0382166000908152606d602052604090205461097b908290613385565b6001600160a01b0383166000818152606d6020526040908190209290925590517f9bed35cb62ad0dba04f9d5bfee4b5bc91443e77da8a65c4c84834c51bb08b0d6906109ca9084815260200190565b60405180910390a25050565b60006107036065836127f0565b606e5460009060ff1615610a095760405162461bcd60e51b815260040161072e90613398565b6001600160a01b0383166000908152606c602052604090205460ff16158015610a4b57506001600160a01b0384166000908152606c602052604090205460ff16155b610a8a5760405162461bcd60e51b815260206004820152601060248201526f3bb0b63632ba1034b990333937bd32b760811b604482015260640161072e565b6001600160a01b0384166000908152606d6020526040902054610aac85611270565b610ab69190613385565b821115610afc5760405162461bcd60e51b8152602060048201526014602482015273496e73756666696369656e742042616c616e636560601b604482015260640161072e565b606e5460405163b9209e3360e01b81526001600160a01b0385811660048301526101009092049091169063b9209e3390602401602060405180830381865afa158015610b4c573d6000803e3d6000fd5b505050506040513d601f19601f82011682018060405250810190610b7091906133c2565b8015610bec5750606f546040516372331c7360e11b81526001600160a01b039091169063e46638e690610bab908790879087906004016133df565b602060405180830381865afa158015610bc8573d6000803e3d6000fd5b505050506040513d601f19601f82011682018060405250810190610bec91906133c2565b15610ca6576001600160a01b038416600090815260676020908152604080832033808552925290912054610c2c918691610c27908690613385565b6126cb565b610c37848484612873565b606f546040516322ebca6d60e21b81526001600160a01b0390911690638baf29b490610c6b908790879087906004016133df565b600060405180830381600087803b158015610c8557600080fd5b505af1158015610c99573d6000803e3d6000fd5b5050505060019050610ce6565b60405162461bcd60e51b81526020600482015260156024820152745472616e73666572206e6f7420706f737369626c6560581b604482015260640161072e565b9392505050565b3360008181526067602090815260408083206001600160a01b038716845290915281205490916106ff918590610c27908690613326565b610d2c6129e1565b606b8054610100600160a81b0319166101006001600160a01b038481168202929092179283905560405192041690610d6690606a90613403565b60405180910390206069604051610d7d9190613403565b60408051918290038220606b5483830183526005845264342e312e3360d81b6020850152915190927f6a1105ac8148a3c319adbc369f9072573e8a11d3a3d195e067e7c40767ec54d192610dd79260ff9091169190613479565b60405180910390a450565b610deb336109d6565b610e075760405162461bcd60e51b815260040161072e906132c2565b606e5460ff16610e505760405162461bcd60e51b815260206004820152601460248201527314185d5cd8589b194e881b9bdd081c185d5cd95960621b604482015260640161072e565b606e805460ff191690556040513381527f5db9ee0a495bf2e6ff9c91a7834c1ba4fdd244a5e8aa4e537bd38aeae4b073aa906020015b60405180910390a1565b610e99336109d6565b610eb55760405162461bcd60e51b815260040161072e906132c2565b606e5460405163b9209e3360e01b81526001600160a01b0384811660048301526101009092049091169063b9209e3390602401602060405180830381865afa158015610f05573d6000803e3d6000fd5b505050506040513d601f19601f82011682018060405250810190610f2991906133c2565b610f755760405162461bcd60e51b815260206004820152601960248201527f4964656e74697479206973206e6f742076657269666965642e00000000000000604482015260640161072e565b606f546040516372331c7360e11b81526001600160a01b039091169063e46638e690610faa90600090869086906004016133df565b602060405180830381865afa158015610fc7573d6000803e3d6000fd5b505050506040513d601f19601f82011682018060405250810190610feb91906133c2565b6110375760405162461bcd60e51b815260206004820152601760248201527f436f6d706c69616e6365206e6f7420666f6c6c6f776564000000000000000000604482015260640161072e565b6110418282612a3b565b606f54604051635f8dead360e01b81526001600160a01b0384811660048301526024820184905290911690635f8dead390604401600060405180830381600087803b15801561108f57600080fd5b505af11580156110a3573d6000803e3d6000fd5b505050505050565b60005b85811015611138576111258787838181106110cb576110cb613339565b90506020020160208101906110e09190612e62565b8686848181106110f2576110f2613339565b90506020020160208101906111079190612e62565b85858581811061111957611119613339565b90506020020135611993565b50806111308161336c565b9150506110ae565b50505050505050565b60005b838110156108a65761119485858381811061116157611161613339565b90506020020160208101906111769190612e62565b84848481811061118857611188613339565b905060200201356108ad565b8061119e8161336c565b915050611144565b60005b838110156108a6576111f98585838181106111c6576111c6613339565b90506020020160208101906111db9190612e62565b8484848181106111ed576111ed613339565b905060200201356117e8565b806112038161336c565b9150506111a9565b60005b838110156108a65761125e85858381811061122b5761122b613339565b90506020020160208101906112409190612e62565b84848481811061125257611252613339565b90506020020135610e90565b806112688161336c565b91505061120e565b6001600160a01b031660009081526066602052604090205490565b6112936129e1565b61129d6000612b23565b565b6112a8336109d6565b6112c45760405162461bcd60e51b815260040161072e906132c2565b606e5460ff16156112e75760405162461bcd60e51b815260040161072e90613398565b606e805460ff191660011790556040513381527f62e78cea01bee320cd4e420270b5ea74000d11b0c9f74754ebdbfc544b05a25890602001610e86565b61132c6129e1565b6001600160a01b0381166113525760405162461bcd60e51b815260040161072e9061349d565b61135d606582612b75565b6040516001600160a01b038216907ff68e73cec97f2d70aa641fb26e87a4383686e2efacb648f2165aeb02ac562ec590600090a250565b60005b838110156108a6576113e78585838181106113b4576113b4613339565b90506020020160208101906113c99190612e62565b8484848181106113db576113db613339565b90506020020135611bf8565b50806113f28161336c565b915050611397565b6000611405336109d6565b6114215760405162461bcd60e51b815260040161072e906132c2565b61142a84611270565b6000036114705760405162461bcd60e51b81526020600482015260146024820152733737903a37b5b2b739903a37903932b1b7bb32b960611b604482015260640161072e565b604080516001600160a01b038516602082015283916000910160408051808303601f1901815290829052805160209091012063d202158d60e01b8252600482018190526001602483015291506001600160a01b0383169063d202158d90604401602060405180830381865afa1580156114ed573d6000803e3d6000fd5b505050506040513d601f19601f8201168201806040525081019061151191906133c2565b1561172957600061152187611270565b6001600160a01b038881166000818152606d60205260409081902054606e549151637e42683b60e01b8152600481019390935293945061010090049091169063454a03e090899087908490637e42683b90602401602060405180830381865afa158015611592573d6000803e3d6000fd5b505050506040513d601f19601f820116820180604052508101906115b691906134d4565b6040516001600160e01b031960e086901b1681526001600160a01b03938416600482015292909116602483015261ffff166044820152606401600060405180830381600087803b15801561160957600080fd5b505af115801561161d573d6000803e3d6000fd5b5050505061162c888884611993565b50801561163d5761163d8782610709565b6001600160a01b0388166000908152606c602052604090205460ff16151560010361166d5761166d876001612027565b606e5460405163a8d29d1d60e01b81526001600160a01b038a811660048301526101009092049091169063a8d29d1d90602401600060405180830381600087803b1580156116ba57600080fd5b505af11580156116ce573d6000803e3d6000fd5b50505050856001600160a01b0316876001600160a01b0316896001600160a01b03167ff0c9129a94f30f1caaceb63e44b9811d0a3edf1d6c23757f346093af5553fed060405160405180910390a46001945050505050610ce6565b60405162461bcd60e51b81526020600482015260156024820152745265636f76657279206e6f7420706f737369626c6560581b604482015260640161072e565b6060606a805461066f90613288565b6117806129e1565b6001600160a01b0381166117a65760405162461bcd60e51b815260040161072e9061349d565b6117b1606582612bf1565b6040516001600160a01b038216907fed9c8ad8d5a0a66898ea49d2956929c93ae2e8bd50281b2ed897c5d1a6737e0b90600090a250565b6117f1336109d6565b61180d5760405162461bcd60e51b815260040161072e906132c2565b8061181783611270565b10156118655760405162461bcd60e51b815260206004820152601d60248201527f63616e6e6f74206275726e206d6f7265207468616e2062616c616e6365000000604482015260640161072e565b6001600160a01b0382166000908152606d602052604081205461188784611270565b6118919190613385565b9050808211156119275760006118a78284613385565b6001600160a01b0385166000908152606d60205260409020549091506118ce908290613385565b6001600160a01b0385166000818152606d6020526040908190209290925590517f9bed35cb62ad0dba04f9d5bfee4b5bc91443e77da8a65c4c84834c51bb08b0d69061191d9084815260200190565b60405180910390a2505b6119318383612c73565b606f5460405163469753b960e11b81526001600160a01b0385811660048301526024820185905290911690638d2ea77290604401600060405180830381600087803b15801561197f57600080fd5b505af1158015611138573d6000803e3d6000fd5b600061199e336109d6565b6119ba5760405162461bcd60e51b815260040161072e906132c2565b816119c485611270565b1015611a0b5760405162461bcd60e51b815260206004820152601660248201527573656e6465722062616c616e636520746f6f206c6f7760501b604482015260640161072e565b6001600160a01b0384166000908152606d6020526040812054611a2d86611270565b611a379190613385565b905080831115611acd576000611a4d8285613385565b6001600160a01b0387166000908152606d6020526040902054909150611a74908290613385565b6001600160a01b0387166000818152606d6020526040908190209290925590517f9bed35cb62ad0dba04f9d5bfee4b5bc91443e77da8a65c4c84834c51bb08b0d690611ac39084815260200190565b60405180910390a2505b606e5460405163b9209e3360e01b81526001600160a01b0386811660048301526101009092049091169063b9209e3390602401602060405180830381865afa158015611b1d573d6000803e3d6000fd5b505050506040513d601f19601f82011682018060405250810190611b4191906133c2565b15610ca657611b51858585612873565b606f546040516322ebca6d60e21b81526001600160a01b0390911690638baf29b490611b85908890889088906004016133df565b600060405180830381600087803b158015611b9f57600080fd5b505af1158015611bb3573d6000803e3d6000fd5b505050506001915050610ce6565b3360008181526067602090815260408083206001600160a01b038716845290915281205490916106ff918590610c27908690613385565b606e5460009060ff1615611c1e5760405162461bcd60e51b815260040161072e90613398565b6001600160a01b0383166000908152606c602052604090205460ff16158015611c575750336000908152606c602052604090205460ff16155b611c965760405162461bcd60e51b815260206004820152601060248201526f3bb0b63632ba1034b990333937bd32b760811b604482015260640161072e565b336000818152606d602052604090205490611cb090611270565b611cba9190613385565b821115611d005760405162461bcd60e51b8152602060048201526014602482015273496e73756666696369656e742042616c616e636560601b604482015260640161072e565b606e5460405163b9209e3360e01b81526001600160a01b0385811660048301526101009092049091169063b9209e3390602401602060405180830381865afa158015611d50573d6000803e3d6000fd5b505050506040513d601f19601f82011682018060405250810190611d7491906133c2565b8015611df05750606f546040516372331c7360e11b81526001600160a01b039091169063e46638e690611daf903390879087906004016133df565b602060405180830381865afa158015611dcc573d6000803e3d6000fd5b505050506040513d601f19601f82011682018060405250810190611df091906133c2565b15610ca657611e00338484612873565b606f546040516322ebca6d60e21b81526001600160a01b0390911690638baf29b490611e34903390879087906004016133df565b600060405180830381600087803b158015611e4e57600080fd5b505af1158015611e62573d6000803e3d6000fd5b5050505060019050610703565b611e776129e1565b604051602001611e9290602080825260009082015260400190565b604051602081830303815290604052805190602001208282604051602001611ebb9291906134f8565b6040516020818303038152906040528051906020012003611eee5760405162461bcd60e51b815260040161072e90613527565b606a611efb8284836135a4565b50606b546040516101009091046001600160a01b031690611f1e90606a90613403565b60405180910390206069604051611f359190613403565b60408051918290038220606b5483830183526005845264342e312e3360d81b6020850152915190927f6a1105ac8148a3c319adbc369f9072573e8a11d3a3d195e067e7c40767ec54d192611f8f9260ff9091169190613479565b60405180910390a45050565b611fa36129e1565b604051602001611fbe90602080825260009082015260400190565b604051602081830303815290604052805190602001208282604051602001611fe79291906134f8565b604051602081830303815290604052805190602001200361201a5760405162461bcd60e51b815260040161072e90613527565b6069611efb8284836135a4565b612030336109d6565b61204c5760405162461bcd60e51b815260040161072e906132c2565b6001600160a01b0382166000818152606c6020526040808220805460ff19168515159081179091559051339391927f7fa523c84ab8d7fc5b72f08b9e46dbbf10c39e119a075b3e317002d14bc9f43691a45050565b6120a96129e1565b606e8054610100600160a81b0319166101006001600160a01b038416908102919091179091556040517fd2be862d755bca7e0d39772b2cab3a5578da9c285f69199f4c063c2294a7f36c90600090a250565b6121036129e1565b6001600160a01b0381166121685760405162461bcd60e51b815260206004820152602660248201527f4f776e61626c653a206e6577206f776e657220697320746865207a65726f206160448201526564647265737360d01b606482015260840161072e565b61217181612b23565b50565b61217c6129e1565b606f546001600160a01b0316156121eb57606f5460405163040db3b560e41b81523060048201526001600160a01b03909116906340db3b5090602401600060405180830381600087803b1580156121d257600080fd5b505af11580156121e6573d6000803e3d6000fd5b505050505b606f80546001600160a01b0319166001600160a01b038316908117909155604051631ffad50160e11b8152306004820152633ff5aa0290602401600060405180830381600087803b15801561223f57600080fd5b505af1158015612253573d6000803e3d6000fd5b50506040516001600160a01b03841692507f7f3a888862559648ec01d97deb7b5012bff86dc91e654a1de397170db40e35b69150600090a250565b600054610100900460ff16158080156122ae5750600054600160ff909116105b806122c85750303b1580156122c8575060005460ff166001145b61232b5760405162461bcd60e51b815260206004820152602e60248201527f496e697469616c697a61626c653a20636f6e747261637420697320616c72656160448201526d191e481a5b9a5d1a585b1a5e995960921b606482015260840161072e565b6000805460ff19166001179055801561234e576000805461ff0019166101001790555b60006123626033546001600160a01b031690565b6001600160a01b0316146123ae5760405162461bcd60e51b8152602060048201526013602482015272185b1c9958591e481a5b9a5d1a585b1a5e9959606a1b604482015260640161072e565b6001600160a01b038716158015906123ce57506001600160a01b03861615155b6123ea5760405162461bcd60e51b815260040161072e9061349d565b60405160200161240590602080825260009082015260400190565b604051602081830303815290604052805190602001208560405160200161242c9190612e09565b60405160208183030381529060405280519060200120141580156124a6575060405160200161246690602080825260009082015260400190565b604051602081830303815290604052805190602001208460405160200161248d9190612e09565b6040516020818303038152906040528051906020012014155b6124c25760405162461bcd60e51b815260040161072e90613527565b60128360ff1611156125165760405162461bcd60e51b815260206004820152601960248201527f646563696d616c73206265747765656e203020616e6420313800000000000000604482015260640161072e565b61251e612d5f565b606961252a8682613664565b50606a6125378582613664565b50606b80546001600160a01b038416610100026001600160a81b031990911660ff861617179055606e805460ff19166001179055612574876120a1565b61257d86612174565b606b546040516101009091046001600160a01b03169061259f90606a90613403565b604051809103902060696040516125b69190613403565b60408051918290038220606b5483830183526005845264342e312e3360d81b6020850152915190927f6a1105ac8148a3c319adbc369f9072573e8a11d3a3d195e067e7c40767ec54d1926126109260ff9091169190613479565b60405180910390a48015611138576000805461ff0019169055604051600181527f7f26b83ff96e1f2b6a682f133852f6798a09c465da95921460cefb38474024989060200160405180910390a150505050505050565b60005b838110156108a6576126b985858381811061268657612686613339565b905060200201602081019061269b9190612e62565b8484848181106126ad576126ad613339565b90506020020135610709565b806126c38161336c565b915050612669565b6001600160a01b03831661272d5760405162461bcd60e51b8152602060048201526024808201527f45524332303a20617070726f76652066726f6d20746865207a65726f206164646044820152637265737360e01b606482015260840161072e565b6001600160a01b03821661278e5760405162461bcd60e51b815260206004820152602260248201527f45524332303a20617070726f766520746f20746865207a65726f206164647265604482015261737360f01b606482015260840161072e565b6001600160a01b0383811660008181526067602090815260408083209487168084529482529182902085905590518481527f8c5be1e5ebec7d5bd14f71427d1e84f3dd0314c0f7b2291e5b200ac8c7c3b92591015b60405180910390a3505050565b60006001600160a01b0382166128535760405162461bcd60e51b815260206004820152602260248201527f526f6c65733a206163636f756e7420697320746865207a65726f206164647265604482015261737360f01b606482015260840161072e565b506001600160a01b03166000908152602091909152604090205460ff1690565b6001600160a01b0383166128d75760405162461bcd60e51b815260206004820152602560248201527f45524332303a207472616e736665722066726f6d20746865207a65726f206164604482015264647265737360d81b606482015260840161072e565b6001600160a01b0382166129395760405162461bcd60e51b815260206004820152602360248201527f45524332303a207472616e7366657220746f20746865207a65726f206164647260448201526265737360e81b606482015260840161072e565b6001600160a01b03831660009081526066602052604090205461295d908290613385565b6001600160a01b03808516600090815260666020526040808220939093559084168152205461298d908290613326565b6001600160a01b0380841660008181526066602052604090819020939093559151908516907fddf252ad1be2c89b69c2b068fc378daa952ba7f163c4a11628f55a4df523b3ef906127e39085815260200190565b6033546001600160a01b0316331461129d5760405162461bcd60e51b815260206004820181905260248201527f4f776e61626c653a2063616c6c6572206973206e6f7420746865206f776e6572604482015260640161072e565b6001600160a01b038216612a915760405162461bcd60e51b815260206004820152601f60248201527f45524332303a206d696e7420746f20746865207a65726f206164647265737300604482015260640161072e565b80606854612a9f9190613326565b6068556001600160a01b038216600090815260666020526040902054612ac6908290613326565b6001600160a01b0383166000818152606660205260408082209390935591519091907fddf252ad1be2c89b69c2b068fc378daa952ba7f163c4a11628f55a4df523b3ef90612b179085815260200190565b60405180910390a35050565b603380546001600160a01b038381166001600160a01b0319831681179093556040519116919082907f8be0079c531659141344cd1fd0a4f28419497f9722a3daafe3b4186f6b6457e090600090a35050565b612b7f82826127f0565b15612bcc5760405162461bcd60e51b815260206004820152601f60248201527f526f6c65733a206163636f756e7420616c72656164792068617320726f6c6500604482015260640161072e565b6001600160a01b0316600090815260209190915260409020805460ff19166001179055565b612bfb82826127f0565b612c515760405162461bcd60e51b815260206004820152602160248201527f526f6c65733a206163636f756e7420646f6573206e6f74206861766520726f6c6044820152606560f81b606482015260840161072e565b6001600160a01b0316600090815260209190915260409020805460ff19169055565b6001600160a01b038216612cd35760405162461bcd60e51b815260206004820152602160248201527f45524332303a206275726e2066726f6d20746865207a65726f206164647265736044820152607360f81b606482015260840161072e565b6001600160a01b038216600090815260666020526040902054612cf7908290613385565b6001600160a01b038316600090815260666020526040902055606854612d1e908290613385565b6068556040518181526000906001600160a01b038416907fddf252ad1be2c89b69c2b068fc378daa952ba7f163c4a11628f55a4df523b3ef90602001612b17565b600054610100900460ff16612d865760405162461bcd60e51b815260040161072e90613724565b61129d612d93565b505050565b600054610100900460ff16612dba5760405162461bcd60e51b815260040161072e90613724565b61129d33612b23565b6000815180845260005b81811015612de957602081850181015186830182015201612dcd565b506000602082860101526020601f19601f83011685010191505092915050565b602081526000610ce66020830184612dc3565b80356001600160a01b0381168114612e3357600080fd5b919050565b60008060408385031215612e4b57600080fd5b612e5483612e1c565b946020939093013593505050565b600060208284031215612e7457600080fd5b610ce682612e1c565b60008083601f840112612e8f57600080fd5b50813567ffffffffffffffff811115612ea757600080fd5b6020830191508360208260051b8501011115612ec257600080fd5b9250929050565b60008060008060408587031215612edf57600080fd5b843567ffffffffffffffff80821115612ef757600080fd5b612f0388838901612e7d565b90965094506020870135915080821115612f1c57600080fd5b50612f2987828801612e7d565b95989497509550505050565b600080600060608486031215612f4a57600080fd5b612f5384612e1c565b9250612f6160208501612e1c565b9150604084013590509250925092565b60008060008060008060608789031215612f8a57600080fd5b863567ffffffffffffffff80821115612fa257600080fd5b612fae8a838b01612e7d565b90985096506020890135915080821115612fc757600080fd5b612fd38a838b01612e7d565b90965094506040890135915080821115612fec57600080fd5b50612ff989828a01612e7d565b979a9699509497509295939492505050565b60008060006060848603121561302057600080fd5b61302984612e1c565b925061303760208501612e1c565b915061304560408501612e1c565b90509250925092565b6000806020838503121561306157600080fd5b823567ffffffffffffffff8082111561307957600080fd5b818501915085601f83011261308d57600080fd5b81358181111561309c57600080fd5b8660208285010111156130ae57600080fd5b60209290920196919550909350505050565b801515811461217157600080fd5b600080604083850312156130e157600080fd5b6130ea83612e1c565b915060208301356130fa816130c0565b809150509250929050565b6000806040838503121561311857600080fd5b61312183612e1c565b915061312f60208401612e1c565b90509250929050565b634e487b7160e01b600052604160045260246000fd5b600082601f83011261315f57600080fd5b813567ffffffffffffffff8082111561317a5761317a613138565b604051601f8301601f19908116603f011681019082821181831017156131a2576131a2613138565b816040528381528660208588010111156131bb57600080fd5b836020870160208301376000602085830101528094505050505092915050565b60008060008060008060c087890312156131f457600080fd5b6131fd87612e1c565b955061320b60208801612e1c565b9450604087013567ffffffffffffffff8082111561322857600080fd5b6132348a838b0161314e565b9550606089013591508082111561324a57600080fd5b5061325789828a0161314e565b935050608087013560ff8116811461326e57600080fd5b915061327c60a08801612e1c565b90509295509295509295565b600181811c9082168061329c57607f821691505b6020821081036132bc57634e487b7160e01b600052602260045260246000fd5b50919050565b6020808252602e908201527f4167656e74526f6c653a2063616c6c657220646f6573206e6f7420686176652060408201526d746865204167656e7420726f6c6560901b606082015260800190565b634e487b7160e01b600052601160045260246000fd5b8082018082111561070357610703613310565b634e487b7160e01b600052603260045260246000fd5b60006020828403121561336157600080fd5b8135610ce6816130c0565b60006001820161337e5761337e613310565b5060010190565b8181038181111561070357610703613310565b60208082526010908201526f14185d5cd8589b194e881c185d5cd95960821b604082015260600190565b6000602082840312156133d457600080fd5b8151610ce6816130c0565b6001600160a01b039384168152919092166020820152604081019190915260600190565b600080835461341181613288565b60018281168015613429576001811461343e5761346d565b60ff198416875282151583028701945061346d565b8760005260208060002060005b858110156134645781548a82015290840190820161344b565b50505082870194505b50929695505050505050565b60ff831681526040602082015260006134956040830184612dc3565b949350505050565b6020808252601f908201527f696e76616c696420617267756d656e74202d207a65726f206164647265737300604082015260600190565b6000602082840312156134e657600080fd5b815161ffff81168114610ce657600080fd5b60208152816020820152818360408301376000818301604090810191909152601f909201601f19160101919050565b6020808252601f908201527f696e76616c696420617267756d656e74202d20656d70747920737472696e6700604082015260600190565b601f821115612d8e57600081815260208120601f850160051c810160208610156135855750805b601f850160051c820191505b818110156110a357828155600101613591565b67ffffffffffffffff8311156135bc576135bc613138565b6135d0836135ca8354613288565b8361355e565b6000601f84116001811461360457600085156135ec5750838201355b600019600387901b1c1916600186901b1783556108a6565b600083815260209020601f19861690835b828110156136355786850135825560209485019460019092019101613615565b50868210156136525760001960f88860031b161c19848701351681555b505060018560011b0183555050505050565b815167ffffffffffffffff81111561367e5761367e613138565b6136928161368c8454613288565b8461355e565b602080601f8311600181146136c757600084156136af5750858301515b600019600386901b1c1916600185901b1785556110a3565b600085815260208120601f198616915b828110156136f6578886015182559484019460019091019084016136d7565b50858210156137145787850151600019600388901b60f8161c191681555b5050505050600190811b01905550565b6020808252602b908201527f496e697469616c697a61626c653a20636f6e7472616374206973206e6f74206960408201526a6e697469616c697a696e6760a81b60608201526080019056fea2646970667358221220b9594a88c5d3aaeb7297fcf3491a597de5b1ba46ea2d2f5af980e9db7aa0aa7664736f6c63430008110033",
			"opcodes": "PUSH1 0x80 PUSH1 0x40 MSTORE PUSH1 0x6E DUP1 SLOAD PUSH1 0xFF NOT AND SWAP1 SSTORE CALLVALUE DUP1 ISZERO PUSH2 0x1A JUMPI PUSH1 0x0 DUP1 REVERT JUMPDEST POP PUSH2 0x37A5 DUP1 PUSH2 0x2A PUSH1 0x0 CODECOPY PUSH1 0x0 RETURN INVALID PUSH1 0x80 PUSH1 0x40 MSTORE CALLVALUE DUP1 ISZERO PUSH2 0x10 JUMPI PUSH1 0x0 DUP1 REVERT JUMPDEST POP PUSH1 0x4 CALLDATASIZE LT PUSH2 0x28A JUMPI PUSH1 0x0 CALLDATALOAD PUSH1 0xE0 SHR DUP1 PUSH4 0x715018A6 GT PUSH2 0x15C JUMPI DUP1 PUSH4 0xA9059CBB GT PUSH2 0xCE JUMPI DUP1 PUSH4 0xDD62ED3E GT PUSH2 0x87 JUMPI DUP1 PUSH4 0xDD62ED3E EQ PUSH2 0x5AF JUMPI DUP1 PUSH4 0xE5839836 EQ PUSH2 0x5E8 JUMPI DUP1 PUSH4 0xF2FDE38B EQ PUSH2 0x614 JUMPI DUP1 PUSH4 0xF8981789 EQ PUSH2 0x627 JUMPI DUP1 PUSH4 0xF91B619C EQ PUSH2 0x63A JUMPI DUP1 PUSH4 0xFC7E5FA8 EQ PUSH2 0x64D JUMPI PUSH1 0x0 DUP1 REVERT JUMPDEST DUP1 PUSH4 0xA9059CBB EQ PUSH2 0x53A JUMPI DUP1 PUSH4 0xABA63705 EQ PUSH2 0x54D JUMPI DUP1 PUSH4 0xB84C8246 EQ PUSH2 0x563 JUMPI DUP1 PUSH4 0xC47F0027 EQ PUSH2 0x576 JUMPI DUP1 PUSH4 0xC69C09CF EQ PUSH2 0x589 JUMPI DUP1 PUSH4 0xCBF3F861 EQ PUSH2 0x59C JUMPI PUSH1 0x0 DUP1 REVERT JUMPDEST DUP1 PUSH4 0x9285948A GT PUSH2 0x120 JUMPI DUP1 PUSH4 0x9285948A EQ PUSH2 0x4D3 JUMPI DUP1 PUSH4 0x95D89B41 EQ PUSH2 0x4E6 JUMPI DUP1 PUSH4 0x97A6278E EQ PUSH2 0x4EE JUMPI DUP1 PUSH4 0x9DC29FAC EQ PUSH2 0x501 JUMPI DUP1 PUSH4 0x9FC1D0E7 EQ PUSH2 0x514 JUMPI DUP1 PUSH4 0xA457C2D7 EQ PUSH2 0x527 JUMPI PUSH1 0x0 DUP1 REVERT JUMPDEST DUP1 PUSH4 0x715018A6 EQ PUSH2 0x48C JUMPI DUP1 PUSH4 0x8456CB59 EQ PUSH2 0x494 JUMPI DUP1 PUSH4 0x84E79842 EQ PUSH2 0x49C JUMPI DUP1 PUSH4 0x88D695B2 EQ PUSH2 0x4AF JUMPI DUP1 PUSH4 0x8DA5CB5B EQ PUSH2 0x4C2 JUMPI PUSH1 0x0 DUP1 REVERT JUMPDEST DUP1 PUSH4 0x39509351 GT PUSH2 0x200 JUMPI DUP1 PUSH4 0x4A6CC677 GT PUSH2 0x1B9 JUMPI DUP1 PUSH4 0x4A6CC677 EQ PUSH2 0x416 JUMPI DUP1 PUSH4 0x54FD4D50 EQ PUSH2 0x429 JUMPI DUP1 PUSH4 0x5C975ABB EQ PUSH2 0x44A JUMPI DUP1 PUSH4 0x6290865D EQ PUSH2 0x455 JUMPI DUP1 PUSH4 0x68573107 EQ PUSH2 0x466 JUMPI DUP1 PUSH4 0x70A08231 EQ PUSH2 0x479 JUMPI PUSH1 0x0 DUP1 REVERT JUMPDEST DUP1 PUSH4 0x39509351 EQ PUSH2 0x3AF JUMPI DUP1 PUSH4 0x3D1DDC5B EQ PUSH2 0x3C2 JUMPI DUP1 PUSH4 0x3F4BA83A EQ PUSH2 0x3D5 JUMPI DUP1 PUSH4 0x40C10F19 EQ PUSH2 0x3DD JUMPI DUP1 PUSH4 0x42A47ABC EQ PUSH2 0x3F0 JUMPI DUP1 PUSH4 0x4710362D EQ PUSH2 0x403 JUMPI PUSH1 0x0 DUP1 REVERT JUMPDEST DUP1 PUSH4 0x18160DDD GT PUSH2 0x252 JUMPI DUP1 PUSH4 0x18160DDD EQ PUSH2 0x346 JUMPI DUP1 PUSH4 0x1A7AF379 EQ PUSH2 0x34E JUMPI DUP1 PUSH4 0x1FE56F7D EQ PUSH2 0x361 JUMPI DUP1 PUSH4 0x1FFBB064 EQ PUSH2 0x374 JUMPI DUP1 PUSH4 0x23B872DD EQ PUSH2 0x387 JUMPI DUP1 PUSH4 0x313CE567 EQ PUSH2 0x39A JUMPI PUSH1 0x0 DUP1 REVERT JUMPDEST DUP1 PUSH4 0x6FDDE03 EQ PUSH2 0x28F JUMPI DUP1 PUSH4 0x95EA7B3 EQ PUSH2 0x2AD JUMPI DUP1 PUSH4 0x125C4A33 EQ PUSH2 0x2D0 JUMPI DUP1 PUSH4 0x134E18F4 EQ PUSH2 0x2E5 JUMPI DUP1 PUSH4 0x158B1A57 EQ PUSH2 0x30F JUMPI JUMPDEST PUSH1 0x0 DUP1 REVERT JUMPDEST PUSH2 0x297 PUSH2 0x660 JUMP JUMPDEST PUSH1 0x40 MLOAD PUSH2 0x2A4 SWAP2 SWAP1 PUSH2 0x2E09 JUMP JUMPDEST PUSH1 0x40 MLOAD DUP1 SWAP2 SUB SWAP1 RETURN JUMPDEST PUSH2 0x2C0 PUSH2 0x2BB CALLDATASIZE PUSH1 0x4 PUSH2 0x2E38 JUMP JUMPDEST PUSH2 0x6F2 JUMP JUMPDEST PUSH1 0x40 MLOAD SWAP1 ISZERO ISZERO DUP2 MSTORE PUSH1 0x20 ADD PUSH2 0x2A4 JUMP JUMPDEST PUSH2 0x2E3 PUSH2 0x2DE CALLDATASIZE PUSH1 0x4 PUSH2 0x2E38 JUMP JUMPDEST PUSH2 0x709 JUMP JUMPDEST STOP JUMPDEST PUSH1 0x6E SLOAD PUSH2 0x100 SWAP1 DIV PUSH1 0x1 PUSH1 0x1 PUSH1 0xA0 SHL SUB AND JUMPDEST PUSH1 0x40 MLOAD PUSH1 0x1 PUSH1 0x1 PUSH1 0xA0 SHL SUB SWAP1 SWAP2 AND DUP2 MSTORE PUSH1 0x20 ADD PUSH2 0x2A4 JUMP JUMPDEST PUSH2 0x338 PUSH2 0x31D CALLDATASIZE PUSH1 0x4 PUSH2 0x2E62 JUMP JUMPDEST PUSH1 0x1 PUSH1 0x1 PUSH1 0xA0 SHL SUB AND PUSH1 0x0 SWAP1 DUP2 MSTORE PUSH1 0x6D PUSH1 0x20 MSTORE PUSH1 0x40 SWAP1 KECCAK256 SLOAD SWAP1 JUMP JUMPDEST PUSH1 0x40 MLOAD SWAP1 DUP2 MSTORE PUSH1 0x20 ADD PUSH2 0x2A4 JUMP JUMPDEST PUSH1 0x68 SLOAD PUSH2 0x338 JUMP JUMPDEST PUSH2 0x2E3 PUSH2 0x35C CALLDATASIZE PUSH1 0x4 PUSH2 0x2EC9 JUMP JUMPDEST PUSH2 0x838 JUMP JUMPDEST PUSH2 0x2E3 PUSH2 0x36F CALLDATASIZE PUSH1 0x4 PUSH2 0x2E38 JUMP JUMPDEST PUSH2 0x8AD JUMP JUMPDEST PUSH2 0x2C0 PUSH2 0x382 CALLDATASIZE PUSH1 0x4 PUSH2 0x2E62 JUMP JUMPDEST PUSH2 0x9D6 JUMP JUMPDEST PUSH2 0x2C0 PUSH2 0x395 CALLDATASIZE PUSH1 0x4 PUSH2 0x2F35 JUMP JUMPDEST PUSH2 0x9E3 JUMP JUMPDEST PUSH1 0x6B SLOAD PUSH1 0x40 MLOAD PUSH1 0xFF SWAP1 SWAP2 AND DUP2 MSTORE PUSH1 0x20 ADD PUSH2 0x2A4 JUMP JUMPDEST PUSH2 0x2C0 PUSH2 0x3BD CALLDATASIZE PUSH1 0x4 PUSH2 0x2E38 JUMP JUMPDEST PUSH2 0xCED JUMP JUMPDEST PUSH2 0x2E3 PUSH2 0x3D0 CALLDATASIZE PUSH1 0x4 PUSH2 0x2E62 JUMP JUMPDEST PUSH2 0xD24 JUMP JUMPDEST PUSH2 0x2E3 PUSH2 0xDE2 JUMP JUMPDEST PUSH2 0x2E3 PUSH2 0x3EB CALLDATASIZE PUSH1 0x4 PUSH2 0x2E38 JUMP JUMPDEST PUSH2 0xE90 JUMP JUMPDEST PUSH2 0x2E3 PUSH2 0x3FE CALLDATASIZE PUSH1 0x4 PUSH2 0x2F71 JUMP JUMPDEST PUSH2 0x10AB JUMP JUMPDEST PUSH2 0x2E3 PUSH2 0x411 CALLDATASIZE PUSH1 0x4 PUSH2 0x2EC9 JUMP JUMPDEST PUSH2 0x1141 JUMP JUMPDEST PUSH2 0x2E3 PUSH2 0x424 CALLDATASIZE PUSH1 0x4 PUSH2 0x2EC9 JUMP JUMPDEST PUSH2 0x11A6 JUMP JUMPDEST PUSH1 0x40 DUP1 MLOAD DUP1 DUP3 ADD SWAP1 SWAP2 MSTORE PUSH1 0x5 DUP2 MSTORE PUSH5 0x342E312E33 PUSH1 0xD8 SHL PUSH1 0x20 DUP3 ADD MSTORE PUSH2 0x297 JUMP JUMPDEST PUSH1 0x6E SLOAD PUSH1 0xFF AND PUSH2 0x2C0 JUMP JUMPDEST PUSH1 0x6F SLOAD PUSH1 0x1 PUSH1 0x1 PUSH1 0xA0 SHL SUB AND PUSH2 0x2F7 JUMP JUMPDEST PUSH2 0x2E3 PUSH2 0x474 CALLDATASIZE PUSH1 0x4 PUSH2 0x2EC9 JUMP JUMPDEST PUSH2 0x120B JUMP JUMPDEST PUSH2 0x338 PUSH2 0x487 CALLDATASIZE PUSH1 0x4 PUSH2 0x2E62 JUMP JUMPDEST PUSH2 0x1270 JUMP JUMPDEST PUSH2 0x2E3 PUSH2 0x128B JUMP JUMPDEST PUSH2 0x2E3 PUSH2 0x129F JUMP JUMPDEST PUSH2 0x2E3 PUSH2 0x4AA CALLDATASIZE PUSH1 0x4 PUSH2 0x2E62 JUMP JUMPDEST PUSH2 0x1324 JUMP JUMPDEST PUSH2 0x2E3 PUSH2 0x4BD CALLDATASIZE PUSH1 0x4 PUSH2 0x2EC9 JUMP JUMPDEST PUSH2 0x1394 JUMP JUMPDEST PUSH1 0x33 SLOAD PUSH1 0x1 PUSH1 0x1 PUSH1 0xA0 SHL SUB AND PUSH2 0x2F7 JUMP JUMPDEST PUSH2 0x2C0 PUSH2 0x4E1 CALLDATASIZE PUSH1 0x4 PUSH2 0x300B JUMP JUMPDEST PUSH2 0x13FA JUMP JUMPDEST PUSH2 0x297 PUSH2 0x1769 JUMP JUMPDEST PUSH2 0x2E3 PUSH2 0x4FC CALLDATASIZE PUSH1 0x4 PUSH2 0x2E62 JUMP JUMPDEST PUSH2 0x1778 JUMP JUMPDEST PUSH2 0x2E3 PUSH2 0x50F CALLDATASIZE PUSH1 0x4 PUSH2 0x2E38 JUMP JUMPDEST PUSH2 0x17E8 JUMP JUMPDEST PUSH2 0x2C0 PUSH2 0x522 CALLDATASIZE PUSH1 0x4 PUSH2 0x2F35 JUMP JUMPDEST PUSH2 0x1993 JUMP JUMPDEST PUSH2 0x2C0 PUSH2 0x535 CALLDATASIZE PUSH1 0x4 PUSH2 0x2E38 JUMP JUMPDEST PUSH2 0x1BC1 JUMP JUMPDEST PUSH2 0x2C0 PUSH2 0x548 CALLDATASIZE PUSH1 0x4 PUSH2 0x2E38 JUMP JUMPDEST PUSH2 0x1BF8 JUMP JUMPDEST PUSH1 0x6B SLOAD PUSH2 0x100 SWAP1 DIV PUSH1 0x1 PUSH1 0x1 PUSH1 0xA0 SHL SUB AND PUSH2 0x2F7 JUMP JUMPDEST PUSH2 0x2E3 PUSH2 0x571 CALLDATASIZE PUSH1 0x4 PUSH2 0x304E JUMP JUMPDEST PUSH2 0x1E6F JUMP JUMPDEST PUSH2 0x2E3 PUSH2 0x584 CALLDATASIZE PUSH1 0x4 PUSH2 0x304E JUMP JUMPDEST PUSH2 0x1F9B JUMP JUMPDEST PUSH2 0x2E3 PUSH2 0x597 CALLDATASIZE PUSH1 0x4 PUSH2 0x30CE JUMP JUMPDEST PUSH2 0x2027 JUMP JUMPDEST PUSH2 0x2E3 PUSH2 0x5AA CALLDATASIZE PUSH1 0x4 PUSH2 0x2E62 JUMP JUMPDEST PUSH2 0x20A1 JUMP JUMPDEST PUSH2 0x338 PUSH2 0x5BD CALLDATASIZE PUSH1 0x4 PUSH2 0x3105 JUMP JUMPDEST PUSH1 0x1 PUSH1 0x1 PUSH1 0xA0 SHL SUB SWAP2 DUP3 AND PUSH1 0x0 SWAP1 DUP2 MSTORE PUSH1 0x67 PUSH1 0x20 SWAP1 DUP2 MSTORE PUSH1 0x40 DUP1 DUP4 KECCAK256 SWAP4 SWAP1 SWAP5 AND DUP3 MSTORE SWAP2 SWAP1 SWAP2 MSTORE KECCAK256 SLOAD SWAP1 JUMP JUMPDEST PUSH2 0x2C0 PUSH2 0x5F6 CALLDATASIZE PUSH1 0x4 PUSH2 0x2E62 JUMP JUMPDEST PUSH1 0x1 PUSH1 0x1 PUSH1 0xA0 SHL SUB AND PUSH1 0x0 SWAP1 DUP2 MSTORE PUSH1 0x6C PUSH1 0x20 MSTORE PUSH1 0x40 SWAP1 KECCAK256 SLOAD PUSH1 0xFF AND SWAP1 JUMP JUMPDEST PUSH2 0x2E3 PUSH2 0x622 CALLDATASIZE PUSH1 0x4 PUSH2 0x2E62 JUMP JUMPDEST PUSH2 0x20FB JUMP JUMPDEST PUSH2 0x2E3 PUSH2 0x635 CALLDATASIZE PUSH1 0x4 PUSH2 0x2E62 JUMP JUMPDEST PUSH2 0x2174 JUMP JUMPDEST PUSH2 0x2E3 PUSH2 0x648 CALLDATASIZE PUSH1 0x4 PUSH2 0x31DB JUMP JUMPDEST PUSH2 0x228E JUMP JUMPDEST PUSH2 0x2E3 PUSH2 0x65B CALLDATASIZE PUSH1 0x4 PUSH2 0x2EC9 JUMP JUMPDEST PUSH2 0x2666 JUMP JUMPDEST PUSH1 0x60 PUSH1 0x69 DUP1 SLOAD PUSH2 0x66F SWAP1 PUSH2 0x3288 JUMP JUMPDEST DUP1 PUSH1 0x1F ADD PUSH1 0x20 DUP1 SWAP2 DIV MUL PUSH1 0x20 ADD PUSH1 0x40 MLOAD SWAP1 DUP2 ADD PUSH1 0x40 MSTORE DUP1 SWAP3 SWAP2 SWAP1 DUP2 DUP2 MSTORE PUSH1 0x20 ADD DUP3 DUP1 SLOAD PUSH2 0x69B SWAP1 PUSH2 0x3288 JUMP JUMPDEST DUP1 ISZERO PUSH2 0x6E8 JUMPI DUP1 PUSH1 0x1F LT PUSH2 0x6BD JUMPI PUSH2 0x100 DUP1 DUP4 SLOAD DIV MUL DUP4 MSTORE SWAP2 PUSH1 0x20 ADD SWAP2 PUSH2 0x6E8 JUMP JUMPDEST DUP3 ADD SWAP2 SWAP1 PUSH1 0x0 MSTORE PUSH1 0x20 PUSH1 0x0 KECCAK256 SWAP1 JUMPDEST DUP2 SLOAD DUP2 MSTORE SWAP1 PUSH1 0x1 ADD SWAP1 PUSH1 0x20 ADD DUP1 DUP4 GT PUSH2 0x6CB JUMPI DUP3 SWAP1 SUB PUSH1 0x1F AND DUP3 ADD SWAP2 JUMPDEST POP POP POP POP POP SWAP1 POP SWAP1 JUMP JUMPDEST PUSH1 0x0 PUSH2 0x6FF CALLER DUP5 DUP5 PUSH2 0x26CB JUMP JUMPDEST POP PUSH1 0x1 JUMPDEST SWAP3 SWAP2 POP POP JUMP JUMPDEST PUSH2 0x712 CALLER PUSH2 0x9D6 JUMP JUMPDEST PUSH2 0x737 JUMPI PUSH1 0x40 MLOAD PUSH3 0x461BCD PUSH1 0xE5 SHL DUP2 MSTORE PUSH1 0x4 ADD PUSH2 0x72E SWAP1 PUSH2 0x32C2 JUMP JUMPDEST PUSH1 0x40 MLOAD DUP1 SWAP2 SUB SWAP1 REVERT JUMPDEST PUSH1 0x0 PUSH2 0x742 DUP4 PUSH2 0x1270 JUMP JUMPDEST PUSH1 0x1 PUSH1 0x1 PUSH1 0xA0 SHL SUB DUP5 AND PUSH1 0x0 SWAP1 DUP2 MSTORE PUSH1 0x6D PUSH1 0x20 MSTORE PUSH1 0x40 SWAP1 KECCAK256 SLOAD SWAP1 SWAP2 POP PUSH2 0x769 SWAP1 DUP4 SWAP1 PUSH2 0x3326 JUMP JUMPDEST DUP2 LT ISZERO PUSH2 0x7B8 JUMPI PUSH1 0x40 MLOAD PUSH3 0x461BCD PUSH1 0xE5 SHL DUP2 MSTORE PUSH1 0x20 PUSH1 0x4 DUP3 ADD DUP2 SWAP1 MSTORE PUSH1 0x24 DUP3 ADD MSTORE PUSH32 0x416D6F756E74206578636565647320617661696C61626C652062616C616E6365 PUSH1 0x44 DUP3 ADD MSTORE PUSH1 0x64 ADD PUSH2 0x72E JUMP JUMPDEST PUSH1 0x1 PUSH1 0x1 PUSH1 0xA0 SHL SUB DUP4 AND PUSH1 0x0 SWAP1 DUP2 MSTORE PUSH1 0x6D PUSH1 0x20 MSTORE PUSH1 0x40 SWAP1 KECCAK256 SLOAD PUSH2 0x7DC SWAP1 DUP4 SWAP1 PUSH2 0x3326 JUMP JUMPDEST PUSH1 0x1 PUSH1 0x1 PUSH1 0xA0 SHL SUB DUP5 AND PUSH1 0x0 DUP2 DUP2 MSTORE PUSH1 0x6D PUSH1 0x20 MSTORE PUSH1 0x40 SWAP1 DUP2 SWAP1 KECCAK256 SWAP3 SWAP1 SWAP3 SSTORE SWAP1 MLOAD PUSH32 0xA065E63C631C86F1B9F66A4A2F63F2093BF1C2168D23290259DBD969E0222A45 SWAP1 PUSH2 0x82B SWAP1 DUP6 DUP2 MSTORE PUSH1 0x20 ADD SWAP1 JUMP JUMPDEST PUSH1 0x40 MLOAD DUP1 SWAP2 SUB SWAP1 LOG2 POP POP POP JUMP JUMPDEST PUSH1 0x0 JUMPDEST DUP4 DUP2 LT ISZERO PUSH2 0x8A6 JUMPI PUSH2 0x894 DUP6 DUP6 DUP4 DUP2 DUP2 LT PUSH2 0x858 JUMPI PUSH2 0x858 PUSH2 0x3339 JUMP JUMPDEST SWAP1 POP PUSH1 0x20 MUL ADD PUSH1 0x20 DUP2 ADD SWAP1 PUSH2 0x86D SWAP2 SWAP1 PUSH2 0x2E62 JUMP JUMPDEST DUP5 DUP5 DUP5 DUP2 DUP2 LT PUSH2 0x87F JUMPI PUSH2 0x87F PUSH2 0x3339 JUMP JUMPDEST SWAP1 POP PUSH1 0x20 MUL ADD PUSH1 0x20 DUP2 ADD SWAP1 PUSH2 0x597 SWAP2 SWAP1 PUSH2 0x334F JUMP JUMPDEST DUP1 PUSH2 0x89E DUP2 PUSH2 0x336C JUMP JUMPDEST SWAP2 POP POP PUSH2 0x83B JUMP JUMPDEST POP POP POP POP POP JUMP JUMPDEST PUSH2 0x8B6 CALLER PUSH2 0x9D6 JUMP JUMPDEST PUSH2 0x8D2 JUMPI PUSH1 0x40 MLOAD PUSH3 0x461BCD PUSH1 0xE5 SHL DUP2 MSTORE PUSH1 0x4 ADD PUSH2 0x72E SWAP1 PUSH2 0x32C2 JUMP JUMPDEST PUSH1 0x1 PUSH1 0x1 PUSH1 0xA0 SHL SUB DUP3 AND PUSH1 0x0 SWAP1 DUP2 MSTORE PUSH1 0x6D PUSH1 0x20 MSTORE PUSH1 0x40 SWAP1 KECCAK256 SLOAD DUP2 GT ISZERO PUSH2 0x957 JUMPI PUSH1 0x40 MLOAD PUSH3 0x461BCD PUSH1 0xE5 SHL DUP2 MSTORE PUSH1 0x20 PUSH1 0x4 DUP3 ADD MSTORE PUSH1 0x34 PUSH1 0x24 DUP3 ADD MSTORE PUSH32 0x416D6F756E742073686F756C64206265206C657373207468616E206F72206571 PUSH1 0x44 DUP3 ADD MSTORE PUSH20 0x75616C20746F2066726F7A656E20746F6B656E73 PUSH1 0x60 SHL PUSH1 0x64 DUP3 ADD MSTORE PUSH1 0x84 ADD PUSH2 0x72E JUMP JUMPDEST PUSH1 0x1 PUSH1 0x1 PUSH1 0xA0 SHL SUB DUP3 AND PUSH1 0x0 SWAP1 DUP2 MSTORE PUSH1 0x6D PUSH1 0x20 MSTORE PUSH1 0x40 SWAP1 KECCAK256 SLOAD PUSH2 0x97B SWAP1 DUP3 SWAP1 PUSH2 0x3385 JUMP JUMPDEST PUSH1 0x1 PUSH1 0x1 PUSH1 0xA0 SHL SUB DUP4 AND PUSH1 0x0 DUP2 DUP2 MSTORE PUSH1 0x6D PUSH1 0x20 MSTORE PUSH1 0x40 SWAP1 DUP2 SWAP1 KECCAK256 SWAP3 SWAP1 SWAP3 SSTORE SWAP1 MLOAD PUSH32 0x9BED35CB62AD0DBA04F9D5BFEE4B5BC91443E77DA8A65C4C84834C51BB08B0D6 SWAP1 PUSH2 0x9CA SWAP1 DUP5 DUP2 MSTORE PUSH1 0x20 ADD SWAP1 JUMP JUMPDEST PUSH1 0x40 MLOAD DUP1 SWAP2 SUB SWAP1 LOG2 POP POP JUMP JUMPDEST PUSH1 0x0 PUSH2 0x703 PUSH1 0x65 DUP4 PUSH2 0x27F0 JUMP JUMPDEST PUSH1 0x6E SLOAD PUSH1 0x0 SWAP1 PUSH1 0xFF AND ISZERO PUSH2 0xA09 JUMPI PUSH1 0x40 MLOAD PUSH3 0x461BCD PUSH1 0xE5 SHL DUP2 MSTORE PUSH1 0x4 ADD PUSH2 0x72E SWAP1 PUSH2 0x3398 JUMP JUMPDEST PUSH1 0x1 PUSH1 0x1 PUSH1 0xA0 SHL SUB DUP4 AND PUSH1 0x0 SWAP1 DUP2 MSTORE PUSH1 0x6C PUSH1 0x20 MSTORE PUSH1 0x40 SWAP1 KECCAK256 SLOAD PUSH1 0xFF AND ISZERO DUP1 ISZERO PUSH2 0xA4B JUMPI POP PUSH1 0x1 PUSH1 0x1 PUSH1 0xA0 SHL SUB DUP5 AND PUSH1 0x0 SWAP1 DUP2 MSTORE PUSH1 0x6C PUSH1 0x20 MSTORE PUSH1 0x40 SWAP1 KECCAK256 SLOAD PUSH1 0xFF AND ISZERO JUMPDEST PUSH2 0xA8A JUMPI PUSH1 0x40 MLOAD PUSH3 0x461BCD PUSH1 0xE5 SHL DUP2 MSTORE PUSH1 0x20 PUSH1 0x4 DUP3 ADD MSTORE PUSH1 0x10 PUSH1 0x24 DUP3 ADD MSTORE PUSH16 0x3BB0B63632BA1034B990333937BD32B7 PUSH1 0x81 SHL PUSH1 0x44 DUP3 ADD MSTORE PUSH1 0x64 ADD PUSH2 0x72E JUMP JUMPDEST PUSH1 0x1 PUSH1 0x1 PUSH1 0xA0 SHL SUB DUP5 AND PUSH1 0x0 SWAP1 DUP2 MSTORE PUSH1 0x6D PUSH1 0x20 MSTORE PUSH1 0x40 SWAP1 KECCAK256 SLOAD PUSH2 0xAAC DUP6 PUSH2 0x1270 JUMP JUMPDEST PUSH2 0xAB6 SWAP2 SWAP1 PUSH2 0x3385 JUMP JUMPDEST DUP3 GT ISZERO PUSH2 0xAFC JUMPI PUSH1 0x40 MLOAD PUSH3 0x461BCD PUSH1 0xE5 SHL DUP2 MSTORE PUSH1 0x20 PUSH1 0x4 DUP3 ADD MSTORE PUSH1 0x14 PUSH1 0x24 DUP3 ADD MSTORE PUSH20 0x496E73756666696369656E742042616C616E6365 PUSH1 0x60 SHL PUSH1 0x44 DUP3 ADD MSTORE PUSH1 0x64 ADD PUSH2 0x72E JUMP JUMPDEST PUSH1 0x6E SLOAD PUSH1 0x40 MLOAD PUSH4 0xB9209E33 PUSH1 0xE0 SHL DUP2 MSTORE PUSH1 0x1 PUSH1 0x1 PUSH1 0xA0 SHL SUB DUP6 DUP2 AND PUSH1 0x4 DUP4 ADD MSTORE PUSH2 0x100 SWAP1 SWAP3 DIV SWAP1 SWAP2 AND SWAP1 PUSH4 0xB9209E33 SWAP1 PUSH1 0x24 ADD PUSH1 0x20 PUSH1 0x40 MLOAD DUP1 DUP4 SUB DUP2 DUP7 GAS STATICCALL ISZERO DUP1 ISZERO PUSH2 0xB4C JUMPI RETURNDATASIZE PUSH1 0x0 DUP1 RETURNDATACOPY RETURNDATASIZE PUSH1 0x0 REVERT JUMPDEST POP POP POP POP PUSH1 0x40 MLOAD RETURNDATASIZE PUSH1 0x1F NOT PUSH1 0x1F DUP3 ADD AND DUP3 ADD DUP1 PUSH1 0x40 MSTORE POP DUP2 ADD SWAP1 PUSH2 0xB70 SWAP2 SWAP1 PUSH2 0x33C2 JUMP JUMPDEST DUP1 ISZERO PUSH2 0xBEC JUMPI POP PUSH1 0x6F SLOAD PUSH1 0x40 MLOAD PUSH4 0x72331C73 PUSH1 0xE1 SHL DUP2 MSTORE PUSH1 0x1 PUSH1 0x1 PUSH1 0xA0 SHL SUB SWAP1 SWAP2 AND SWAP1 PUSH4 0xE46638E6 SWAP1 PUSH2 0xBAB SWAP1 DUP8 SWAP1 DUP8 SWAP1 DUP8 SWAP1 PUSH1 0x4 ADD PUSH2 0x33DF JUMP JUMPDEST PUSH1 0x20 PUSH1 0x40 MLOAD DUP1 DUP4 SUB DUP2 DUP7 GAS STATICCALL ISZERO DUP1 ISZERO PUSH2 0xBC8 JUMPI RETURNDATASIZE PUSH1 0x0 DUP1 RETURNDATACOPY RETURNDATASIZE PUSH1 0x0 REVERT JUMPDEST POP POP POP POP PUSH1 0x40 MLOAD RETURNDATASIZE PUSH1 0x1F NOT PUSH1 0x1F DUP3 ADD AND DUP3 ADD DUP1 PUSH1 0x40 MSTORE POP DUP2 ADD SWAP1 PUSH2 0xBEC SWAP2 SWAP1 PUSH2 0x33C2 JUMP JUMPDEST ISZERO PUSH2 0xCA6 JUMPI PUSH1 0x1 PUSH1 0x1 PUSH1 0xA0 SHL SUB DUP5 AND PUSH1 0x0 SWAP1 DUP2 MSTORE PUSH1 0x67 PUSH1 0x20 SWAP1 DUP2 MSTORE PUSH1 0x40 DUP1 DUP4 KECCAK256 CALLER DUP1 DUP6 MSTORE SWAP3 MSTORE SWAP1 SWAP2 KECCAK256 SLOAD PUSH2 0xC2C SWAP2 DUP7 SWAP2 PUSH2 0xC27 SWAP1 DUP7 SWAP1 PUSH2 0x3385 JUMP JUMPDEST PUSH2 0x26CB JUMP JUMPDEST PUSH2 0xC37 DUP5 DUP5 DUP5 PUSH2 0x2873 JUMP JUMPDEST PUSH1 0x6F SLOAD PUSH1 0x40 MLOAD PUSH4 0x22EBCA6D PUSH1 0xE2 SHL DUP2 MSTORE PUSH1 0x1 PUSH1 0x1 PUSH1 0xA0 SHL SUB SWAP1 SWAP2 AND SWAP1 PUSH4 0x8BAF29B4 SWAP1 PUSH2 0xC6B SWAP1 DUP8 SWAP1 DUP8 SWAP1 DUP8 SWAP1 PUSH1 0x4 ADD PUSH2 0x33DF JUMP JUMPDEST PUSH1 0x0 PUSH1 0x40 MLOAD DUP1 DUP4 SUB DUP2 PUSH1 0x0 DUP8 DUP1 EXTCODESIZE ISZERO DUP1 ISZERO PUSH2 0xC85 JUMPI PUSH1 0x0 DUP1 REVERT JUMPDEST POP GAS CALL ISZERO DUP1 ISZERO PUSH2 0xC99 JUMPI RETURNDATASIZE PUSH1 0x0 DUP1 RETURNDATACOPY RETURNDATASIZE PUSH1 0x0 REVERT JUMPDEST POP POP POP POP PUSH1 0x1 SWAP1 POP PUSH2 0xCE6 JUMP JUMPDEST PUSH1 0x40 MLOAD PUSH3 0x461BCD PUSH1 0xE5 SHL DUP2 MSTORE PUSH1 0x20 PUSH1 0x4 DUP3 ADD MSTORE PUSH1 0x15 PUSH1 0x24 DUP3 ADD MSTORE PUSH21 0x5472616E73666572206E6F7420706F737369626C65 PUSH1 0x58 SHL PUSH1 0x44 DUP3 ADD MSTORE PUSH1 0x64 ADD PUSH2 0x72E JUMP JUMPDEST SWAP4 SWAP3 POP POP POP JUMP JUMPDEST CALLER PUSH1 0x0 DUP2 DUP2 MSTORE PUSH1 0x67 PUSH1 0x20 SWAP1 DUP2 MSTORE PUSH1 0x40 DUP1 DUP4 KECCAK256 PUSH1 0x1 PUSH1 0x1 PUSH1 0xA0 SHL SUB DUP8 AND DUP5 MSTORE SWAP1 SWAP2 MSTORE DUP2 KECCAK256 SLOAD SWAP1 SWAP2 PUSH2 0x6FF SWAP2 DUP6 SWAP1 PUSH2 0xC27 SWAP1 DUP7 SWAP1 PUSH2 0x3326 JUMP JUMPDEST PUSH2 0xD2C PUSH2 0x29E1 JUMP JUMPDEST PUSH1 0x6B DUP1 SLOAD PUSH2 0x100 PUSH1 0x1 PUSH1 0xA8 SHL SUB NOT AND PUSH2 0x100 PUSH1 0x1 PUSH1 0x1 PUSH1 0xA0 SHL SUB DUP5 DUP2 AND DUP3 MUL SWAP3 SWAP1 SWAP3 OR SWAP3 DUP4 SWAP1 SSTORE PUSH1 0x40 MLOAD SWAP3 DIV AND SWAP1 PUSH2 0xD66 SWAP1 PUSH1 0x6A SWAP1 PUSH2 0x3403 JUMP JUMPDEST PUSH1 0x40 MLOAD DUP1 SWAP2 SUB SWAP1 KECCAK256 PUSH1 0x69 PUSH1 0x40 MLOAD PUSH2 0xD7D SWAP2 SWAP1 PUSH2 0x3403 JUMP JUMPDEST PUSH1 0x40 DUP1 MLOAD SWAP2 DUP3 SWAP1 SUB DUP3 KECCAK256 PUSH1 0x6B SLOAD DUP4 DUP4 ADD DUP4 MSTORE PUSH1 0x5 DUP5 MSTORE PUSH5 0x342E312E33 PUSH1 0xD8 SHL PUSH1 0x20 DUP6 ADD MSTORE SWAP2 MLOAD SWAP1 SWAP3 PUSH32 0x6A1105AC8148A3C319ADBC369F9072573E8A11D3A3D195E067E7C40767EC54D1 SWAP3 PUSH2 0xDD7 SWAP3 PUSH1 0xFF SWAP1 SWAP2 AND SWAP2 SWAP1 PUSH2 0x3479 JUMP JUMPDEST PUSH1 0x40 MLOAD DUP1 SWAP2 SUB SWAP1 LOG4 POP JUMP JUMPDEST PUSH2 0xDEB CALLER PUSH2 0x9D6 JUMP JUMPDEST PUSH2 0xE07 JUMPI PUSH1 0x40 MLOAD PUSH3 0x461BCD PUSH1 0xE5 SHL DUP2 MSTORE PUSH1 0x4 ADD PUSH2 0x72E SWAP1 PUSH2 0x32C2 JUMP JUMPDEST PUSH1 0x6E SLOAD PUSH1 0xFF AND PUSH2 0xE50 JUMPI PUSH1 0x40 MLOAD PUSH3 0x461BCD PUSH1 0xE5 SHL DUP2 MSTORE PUSH1 0x20 PUSH1 0x4 DUP3 ADD MSTORE PUSH1 0x14 PUSH1 0x24 DUP3 ADD MSTORE PUSH20 0x14185D5CD8589B194E881B9BDD081C185D5CD959 PUSH1 0x62 SHL PUSH1 0x44 DUP3 ADD MSTORE PUSH1 0x64 ADD PUSH2 0x72E JUMP JUMPDEST PUSH1 0x6E DUP1 SLOAD PUSH1 0xFF NOT AND SWAP1 SSTORE PUSH1 0x40 MLOAD CALLER DUP2 MSTORE PUSH32 0x5DB9EE0A495BF2E6FF9C91A7834C1BA4FDD244A5E8AA4E537BD38AEAE4B073AA SWAP1 PUSH1 0x20 ADD JUMPDEST PUSH1 0x40 MLOAD DUP1 SWAP2 SUB SWAP1 LOG1 JUMP JUMPDEST PUSH2 0xE99 CALLER PUSH2 0x9D6 JUMP JUMPDEST PUSH2 0xEB5 JUMPI PUSH1 0x40 MLOAD PUSH3 0x461BCD PUSH1 0xE5 SHL DUP2 MSTORE PUSH1 0x4 ADD PUSH2 0x72E SWAP1 PUSH2 0x32C2 JUMP JUMPDEST PUSH1 0x6E SLOAD PUSH1 0x40 MLOAD PUSH4 0xB9209E33 PUSH1 0xE0 SHL DUP2 MSTORE PUSH1 0x1 PUSH1 0x1 PUSH1 0xA0 SHL SUB DUP5 DUP2 AND PUSH1 0x4 DUP4 ADD MSTORE PUSH2 0x100 SWAP1 SWAP3 DIV SWAP1 SWAP2 AND SWAP1 PUSH4 0xB9209E33 SWAP1 PUSH1 0x24 ADD PUSH1 0x20 PUSH1 0x40 MLOAD DUP1 DUP4 SUB DUP2 DUP7 GAS STATICCALL ISZERO DUP1 ISZERO PUSH2 0xF05 JUMPI RETURNDATASIZE PUSH1 0x0 DUP1 RETURNDATACOPY RETURNDATASIZE PUSH1 0x0 REVERT JUMPDEST POP POP POP POP PUSH1 0x40 MLOAD RETURNDATASIZE PUSH1 0x1F NOT PUSH1 0x1F DUP3 ADD AND DUP3 ADD DUP1 PUSH1 0x40 MSTORE POP DUP2 ADD SWAP1 PUSH2 0xF29 SWAP2 SWAP1 PUSH2 0x33C2 JUMP JUMPDEST PUSH2 0xF75 JUMPI PUSH1 0x40 MLOAD PUSH3 0x461BCD PUSH1 0xE5 SHL DUP2 MSTORE PUSH1 0x20 PUSH1 0x4 DUP3 ADD MSTORE PUSH1 0x19 PUSH1 0x24 DUP3 ADD MSTORE PUSH32 0x4964656E74697479206973206E6F742076657269666965642E00000000000000 PUSH1 0x44 DUP3 ADD MSTORE PUSH1 0x64 ADD PUSH2 0x72E JUMP JUMPDEST PUSH1 0x6F SLOAD PUSH1 0x40 MLOAD PUSH4 0x72331C73 PUSH1 0xE1 SHL DUP2 MSTORE PUSH1 0x1 PUSH1 0x1 PUSH1 0xA0 SHL SUB SWAP1 SWAP2 AND SWAP1 PUSH4 0xE46638E6 SWAP1 PUSH2 0xFAA SWAP1 PUSH1 0x0 SWAP1 DUP7 SWAP1 DUP7 SWAP1 PUSH1 0x4 ADD PUSH2 0x33DF JUMP JUMPDEST PUSH1 0x20 PUSH1 0x40 MLOAD DUP1 DUP4 SUB DUP2 DUP7 GAS STATICCALL ISZERO DUP1 ISZERO PUSH2 0xFC7 JUMPI RETURNDATASIZE PUSH1 0x0 DUP1 RETURNDATACOPY RETURNDATASIZE PUSH1 0x0 REVERT JUMPDEST POP POP POP POP PUSH1 0x40 MLOAD RETURNDATASIZE PUSH1 0x1F NOT PUSH1 0x1F DUP3 ADD AND DUP3 ADD DUP1 PUSH1 0x40 MSTORE POP DUP2 ADD SWAP1 PUSH2 0xFEB SWAP2 SWAP1 PUSH2 0x33C2 JUMP JUMPDEST PUSH2 0x1037 JUMPI PUSH1 0x40 MLOAD PUSH3 0x461BCD PUSH1 0xE5 SHL DUP2 MSTORE PUSH1 0x20 PUSH1 0x4 DUP3 ADD MSTORE PUSH1 0x17 PUSH1 0x24 DUP3 ADD MSTORE PUSH32 0x436F6D706C69616E6365206E6F7420666F6C6C6F776564000000000000000000 PUSH1 0x44 DUP3 ADD MSTORE PUSH1 0x64 ADD PUSH2 0x72E JUMP JUMPDEST PUSH2 0x1041 DUP3 DUP3 PUSH2 0x2A3B JUMP JUMPDEST PUSH1 0x6F SLOAD PUSH1 0x40 MLOAD PUSH4 0x5F8DEAD3 PUSH1 0xE0 SHL DUP2 MSTORE PUSH1 0x1 PUSH1 0x1 PUSH1 0xA0 SHL SUB DUP5 DUP2 AND PUSH1 0x4 DUP4 ADD MSTORE PUSH1 0x24 DUP3 ADD DUP5 SWAP1 MSTORE SWAP1 SWAP2 AND SWAP1 PUSH4 0x5F8DEAD3 SWAP1 PUSH1 0x44 ADD PUSH1 0x0 PUSH1 0x40 MLOAD DUP1 DUP4 SUB DUP2 PUSH1 0x0 DUP8 DUP1 EXTCODESIZE ISZERO DUP1 ISZERO PUSH2 0x108F JUMPI PUSH1 0x0 DUP1 REVERT JUMPDEST POP GAS CALL ISZERO DUP1 ISZERO PUSH2 0x10A3 JUMPI RETURNDATASIZE PUSH1 0x0 DUP1 RETURNDATACOPY RETURNDATASIZE PUSH1 0x0 REVERT JUMPDEST POP POP POP POP POP POP JUMP JUMPDEST PUSH1 0x0 JUMPDEST DUP6 DUP2 LT ISZERO PUSH2 0x1138 JUMPI PUSH2 0x1125 DUP8 DUP8 DUP4 DUP2 DUP2 LT PUSH2 0x10CB JUMPI PUSH2 0x10CB PUSH2 0x3339 JUMP JUMPDEST SWAP1 POP PUSH1 0x20 MUL ADD PUSH1 0x20 DUP2 ADD SWAP1 PUSH2 0x10E0 SWAP2 SWAP1 PUSH2 0x2E62 JUMP JUMPDEST DUP7 DUP7 DUP5 DUP2 DUP2 LT PUSH2 0x10F2 JUMPI PUSH2 0x10F2 PUSH2 0x3339 JUMP JUMPDEST SWAP1 POP PUSH1 0x20 MUL ADD PUSH1 0x20 DUP2 ADD SWAP1 PUSH2 0x1107 SWAP2 SWAP1 PUSH2 0x2E62 JUMP JUMPDEST DUP6 DUP6 DUP6 DUP2 DUP2 LT PUSH2 0x1119 JUMPI PUSH2 0x1119 PUSH2 0x3339 JUMP JUMPDEST SWAP1 POP PUSH1 0x20 MUL ADD CALLDATALOAD PUSH2 0x1993 JUMP JUMPDEST POP DUP1 PUSH2 0x1130 DUP2 PUSH2 0x336C JUMP JUMPDEST SWAP2 POP POP PUSH2 0x10AE JUMP JUMPDEST POP POP POP POP POP POP POP JUMP JUMPDEST PUSH1 0x0 JUMPDEST DUP4 DUP2 LT ISZERO PUSH2 0x8A6 JUMPI PUSH2 0x1194 DUP6 DUP6 DUP4 DUP2 DUP2 LT PUSH2 0x1161 JUMPI PUSH2 0x1161 PUSH2 0x3339 JUMP JUMPDEST SWAP1 POP PUSH1 0x20 MUL ADD PUSH1 0x20 DUP2 ADD SWAP1 PUSH2 0x1176 SWAP2 SWAP1 PUSH2 0x2E62 JUMP JUMPDEST DUP5 DUP5 DUP5 DUP2 DUP2 LT PUSH2 0x1188 JUMPI PUSH2 0x1188 PUSH2 0x3339 JUMP JUMPDEST SWAP1 POP PUSH1 0x20 MUL ADD CALLDATALOAD PUSH2 0x8AD JUMP JUMPDEST DUP1 PUSH2 0x119E DUP2 PUSH2 0x336C JUMP JUMPDEST SWAP2 POP POP PUSH2 0x1144 JUMP JUMPDEST PUSH1 0x0 JUMPDEST DUP4 DUP2 LT ISZERO PUSH2 0x8A6 JUMPI PUSH2 0x11F9 DUP6 DUP6 DUP4 DUP2 DUP2 LT PUSH2 0x11C6 JUMPI PUSH2 0x11C6 PUSH2 0x3339 JUMP JUMPDEST SWAP1 POP PUSH1 0x20 MUL ADD PUSH1 0x20 DUP2 ADD SWAP1 PUSH2 0x11DB SWAP2 SWAP1 PUSH2 0x2E62 JUMP JUMPDEST DUP5 DUP5 DUP5 DUP2 DUP2 LT PUSH2 0x11ED JUMPI PUSH2 0x11ED PUSH2 0x3339 JUMP JUMPDEST SWAP1 POP PUSH1 0x20 MUL ADD CALLDATALOAD PUSH2 0x17E8 JUMP JUMPDEST DUP1 PUSH2 0x1203 DUP2 PUSH2 0x336C JUMP JUMPDEST SWAP2 POP POP PUSH2 0x11A9 JUMP JUMPDEST PUSH1 0x0 JUMPDEST DUP4 DUP2 LT ISZERO PUSH2 0x8A6 JUMPI PUSH2 0x125E DUP6 DUP6 DUP4 DUP2 DUP2 LT PUSH2 0x122B JUMPI PUSH2 0x122B PUSH2 0x3339 JUMP JUMPDEST SWAP1 POP PUSH1 0x20 MUL ADD PUSH1 0x20 DUP2 ADD SWAP1 PUSH2 0x1240 SWAP2 SWAP1 PUSH2 0x2E62 JUMP JUMPDEST DUP5 DUP5 DUP5 DUP2 DUP2 LT PUSH2 0x1252 JUMPI PUSH2 0x1252 PUSH2 0x3339 JUMP JUMPDEST SWAP1 POP PUSH1 0x20 MUL ADD CALLDATALOAD PUSH2 0xE90 JUMP JUMPDEST DUP1 PUSH2 0x1268 DUP2 PUSH2 0x336C JUMP JUMPDEST SWAP2 POP POP PUSH2 0x120E JUMP JUMPDEST PUSH1 0x1 PUSH1 0x1 PUSH1 0xA0 SHL SUB AND PUSH1 0x0 SWAP1 DUP2 MSTORE PUSH1 0x66 PUSH1 0x20 MSTORE PUSH1 0x40 SWAP1 KECCAK256 SLOAD SWAP1 JUMP JUMPDEST PUSH2 0x1293 PUSH2 0x29E1 JUMP JUMPDEST PUSH2 0x129D PUSH1 0x0 PUSH2 0x2B23 JUMP JUMPDEST JUMP JUMPDEST PUSH2 0x12A8 CALLER PUSH2 0x9D6 JUMP JUMPDEST PUSH2 0x12C4 JUMPI PUSH1 0x40 MLOAD PUSH3 0x461BCD PUSH1 0xE5 SHL DUP2 MSTORE PUSH1 0x4 ADD PUSH2 0x72E SWAP1 PUSH2 0x32C2 JUMP JUMPDEST PUSH1 0x6E SLOAD PUSH1 0xFF AND ISZERO PUSH2 0x12E7 JUMPI PUSH1 0x40 MLOAD PUSH3 0x461BCD PUSH1 0xE5 SHL DUP2 MSTORE PUSH1 0x4 ADD PUSH2 0x72E SWAP1 PUSH2 0x3398 JUMP JUMPDEST PUSH1 0x6E DUP1 SLOAD PUSH1 0xFF NOT AND PUSH1 0x1 OR SWAP1 SSTORE PUSH1 0x40 MLOAD CALLER DUP2 MSTORE PUSH32 0x62E78CEA01BEE320CD4E420270B5EA74000D11B0C9F74754EBDBFC544B05A258 SWAP1 PUSH1 0x20 ADD PUSH2 0xE86 JUMP JUMPDEST PUSH2 0x132C PUSH2 0x29E1 JUMP JUMPDEST PUSH1 0x1 PUSH1 0x1 PUSH1 0xA0 SHL SUB DUP2 AND PUSH2 0x1352 JUMPI PUSH1 0x40 MLOAD PUSH3 0x461BCD PUSH1 0xE5 SHL DUP2 MSTORE PUSH1 0x4 ADD PUSH2 0x72E SWAP1 PUSH2 0x349D JUMP JUMPDEST PUSH2 0x135D PUSH1 0x65 DUP3 PUSH2 0x2B75 JUMP JUMPDEST PUSH1 0x40 MLOAD PUSH1 0x1 PUSH1 0x1 PUSH1 0xA0 SHL SUB DUP3 AND SWAP1 PUSH32 0xF68E73CEC97F2D70AA641FB26E87A4383686E2EFACB648F2165AEB02AC562EC5 SWAP1 PUSH1 0x0 SWAP1 LOG2 POP JUMP JUMPDEST PUSH1 0x0 JUMPDEST DUP4 DUP2 LT ISZERO PUSH2 0x8A6 JUMPI PUSH2 0x13E7 DUP6 DUP6 DUP4 DUP2 DUP2 LT PUSH2 0x13B4 JUMPI PUSH2 0x13B4 PUSH2 0x3339 JUMP JUMPDEST SWAP1 POP PUSH1 0x20 MUL ADD PUSH1 0x20 DUP2 ADD SWAP1 PUSH2 0x13C9 SWAP2 SWAP1 PUSH2 0x2E62 JUMP JUMPDEST DUP5 DUP5 DUP5 DUP2 DUP2 LT PUSH2 0x13DB JUMPI PUSH2 0x13DB PUSH2 0x3339 JUMP JUMPDEST SWAP1 POP PUSH1 0x20 MUL ADD CALLDATALOAD PUSH2 0x1BF8 JUMP JUMPDEST POP DUP1 PUSH2 0x13F2 DUP2 PUSH2 0x336C JUMP JUMPDEST SWAP2 POP POP PUSH2 0x1397 JUMP JUMPDEST PUSH1 0x0 PUSH2 0x1405 CALLER PUSH2 0x9D6 JUMP JUMPDEST PUSH2 0x1421 JUMPI PUSH1 0x40 MLOAD PUSH3 0x461BCD PUSH1 0xE5 SHL DUP2 MSTORE PUSH1 0x4 ADD PUSH2 0x72E SWAP1 PUSH2 0x32C2 JUMP JUMPDEST PUSH2 0x142A DUP5 PUSH2 0x1270 JUMP JUMPDEST PUSH1 0x0 SUB PUSH2 0x1470 JUMPI PUSH1 0x40 MLOAD PUSH3 0x461BCD PUSH1 0xE5 SHL DUP2 MSTORE PUSH1 0x20 PUSH1 0x4 DUP3 ADD MSTORE PUSH1 0x14 PUSH1 0x24 DUP3 ADD MSTORE PUSH20 0x3737903A37B5B2B739903A37903932B1B7BB32B9 PUSH1 0x61 SHL PUSH1 0x44 DUP3 ADD MSTORE PUSH1 0x64 ADD PUSH2 0x72E JUMP JUMPDEST PUSH1 0x40 DUP1 MLOAD PUSH1 0x1 PUSH1 0x1 PUSH1 0xA0 SHL SUB DUP6 AND PUSH1 0x20 DUP3 ADD MSTORE DUP4 SWAP2 PUSH1 0x0 SWAP2 ADD PUSH1 0x40 DUP1 MLOAD DUP1 DUP4 SUB PUSH1 0x1F NOT ADD DUP2 MSTORE SWAP1 DUP3 SWAP1 MSTORE DUP1 MLOAD PUSH1 0x20 SWAP1 SWAP2 ADD KECCAK256 PUSH4 0xD202158D PUSH1 0xE0 SHL DUP3 MSTORE PUSH1 0x4 DUP3 ADD DUP2 SWAP1 MSTORE PUSH1 0x1 PUSH1 0x24 DUP4 ADD MSTORE SWAP2 POP PUSH1 0x1 PUSH1 0x1 PUSH1 0xA0 SHL SUB DUP4 AND SWAP1 PUSH4 0xD202158D SWAP1 PUSH1 0x44 ADD PUSH1 0x20 PUSH1 0x40 MLOAD DUP1 DUP4 SUB DUP2 DUP7 GAS STATICCALL ISZERO DUP1 ISZERO PUSH2 0x14ED JUMPI RETURNDATASIZE PUSH1 0x0 DUP1 RETURNDATACOPY RETURNDATASIZE PUSH1 0x0 REVERT JUMPDEST POP POP POP POP PUSH1 0x40 MLOAD RETURNDATASIZE PUSH1 0x1F NOT PUSH1 0x1F DUP3 ADD AND DUP3 ADD DUP1 PUSH1 0x40 MSTORE POP DUP2 ADD SWAP1 PUSH2 0x1511 SWAP2 SWAP1 PUSH2 0x33C2 JUMP JUMPDEST ISZERO PUSH2 0x1729 JUMPI PUSH1 0x0 PUSH2 0x1521 DUP8 PUSH2 0x1270 JUMP JUMPDEST PUSH1 0x1 PUSH1 0x1 PUSH1 0xA0 SHL SUB DUP9 DUP2 AND PUSH1 0x0 DUP2 DUP2 MSTORE PUSH1 0x6D PUSH1 0x20 MSTORE PUSH1 0x40 SWAP1 DUP2 SWAP1 KECCAK256 SLOAD PUSH1 0x6E SLOAD SWAP2 MLOAD PUSH4 0x7E42683B PUSH1 0xE0 SHL DUP2 MSTORE PUSH1 0x4 DUP2 ADD SWAP4 SWAP1 SWAP4 MSTORE SWAP4 SWAP5 POP PUSH2 0x100 SWAP1 DIV SWAP1 SWAP2 AND SWAP1 PUSH4 0x454A03E0 SWAP1 DUP10 SWAP1 DUP8 SWAP1 DUP5 SWAP1 PUSH4 0x7E42683B SWAP1 PUSH1 0x24 ADD PUSH1 0x20 PUSH1 0x40 MLOAD DUP1 DUP4 SUB DUP2 DUP7 GAS STATICCALL ISZERO DUP1 ISZERO PUSH2 0x1592 JUMPI RETURNDATASIZE PUSH1 0x0 DUP1 RETURNDATACOPY RETURNDATASIZE PUSH1 0x0 REVERT JUMPDEST POP POP POP POP PUSH1 0x40 MLOAD RETURNDATASIZE PUSH1 0x1F NOT PUSH1 0x1F DUP3 ADD AND DUP3 ADD DUP1 PUSH1 0x40 MSTORE POP DUP2 ADD SWAP1 PUSH2 0x15B6 SWAP2 SWAP1 PUSH2 0x34D4 JUMP JUMPDEST PUSH1 0x40 MLOAD PUSH1 0x1 PUSH1 0x1 PUSH1 0xE0 SHL SUB NOT PUSH1 0xE0 DUP7 SWAP1 SHL AND DUP2 MSTORE PUSH1 0x1 PUSH1 0x1 PUSH1 0xA0 SHL SUB SWAP4 DUP5 AND PUSH1 0x4 DUP3 ADD MSTORE SWAP3 SWAP1 SWAP2 AND PUSH1 0x24 DUP4 ADD MSTORE PUSH2 0xFFFF AND PUSH1 0x44 DUP3 ADD MSTORE PUSH1 0x64 ADD PUSH1 0x0 PUSH1 0x40 MLOAD DUP1 DUP4 SUB DUP2 PUSH1 0x0 DUP8 DUP1 EXTCODESIZE ISZERO DUP1 ISZERO PUSH2 0x1609 JUMPI PUSH1 0x0 DUP1 REVERT JUMPDEST POP GAS CALL ISZERO DUP1 ISZERO PUSH2 0x161D JUMPI RETURNDATASIZE PUSH1 0x0 DUP1 RETURNDATACOPY RETURNDATASIZE PUSH1 0x0 REVERT JUMPDEST POP POP POP POP PUSH2 0x162C DUP9 DUP9 DUP5 PUSH2 0x1993 JUMP JUMPDEST POP DUP1 ISZERO PUSH2 0x163D JUMPI PUSH2 0x163D DUP8 DUP3 PUSH2 0x709 JUMP JUMPDEST PUSH1 0x1 PUSH1 0x1 PUSH1 0xA0 SHL SUB DUP9 AND PUSH1 0x0 SWAP1 DUP2 MSTORE PUSH1 0x6C PUSH1 0x20 MSTORE PUSH1 0x40 SWAP1 KECCAK256 SLOAD PUSH1 0xFF AND ISZERO ISZERO PUSH1 0x1 SUB PUSH2 0x166D JUMPI PUSH2 0x166D DUP8 PUSH1 0x1 PUSH2 0x2027 JUMP JUMPDEST PUSH1 0x6E SLOAD PUSH1 0x40 MLOAD PUSH4 0xA8D29D1D PUSH1 0xE0 SHL DUP2 MSTORE PUSH1 0x1 PUSH1 0x1 PUSH1 0xA0 SHL SUB DUP11 DUP2 AND PUSH1 0x4 DUP4 ADD MSTORE PUSH2 0x100 SWAP1 SWAP3 DIV SWAP1 SWAP2 AND SWAP1 PUSH4 0xA8D29D1D SWAP1 PUSH1 0x24 ADD PUSH1 0x0 PUSH1 0x40 MLOAD DUP1 DUP4 SUB DUP2 PUSH1 0x0 DUP8 DUP1 EXTCODESIZE ISZERO DUP1 ISZERO PUSH2 0x16BA JUMPI PUSH1 0x0 DUP1 REVERT JUMPDEST POP GAS CALL ISZERO DUP1 ISZERO PUSH2 0x16CE JUMPI RETURNDATASIZE PUSH1 0x0 DUP1 RETURNDATACOPY RETURNDATASIZE PUSH1 0x0 REVERT JUMPDEST POP POP POP POP DUP6 PUSH1 0x1 PUSH1 0x1 PUSH1 0xA0 SHL SUB AND DUP8 PUSH1 0x1 PUSH1 0x1 PUSH1 0xA0 SHL SUB AND DUP10 PUSH1 0x1 PUSH1 0x1 PUSH1 0xA0 SHL SUB AND PUSH32 0xF0C9129A94F30F1CAACEB63E44B9811D0A3EDF1D6C23757F346093AF5553FED0 PUSH1 0x40 MLOAD PUSH1 0x40 MLOAD DUP1 SWAP2 SUB SWAP1 LOG4 PUSH1 0x1 SWAP5 POP POP POP POP POP PUSH2 0xCE6 JUMP JUMPDEST PUSH1 0x40 MLOAD PUSH3 0x461BCD PUSH1 0xE5 SHL DUP2 MSTORE PUSH1 0x20 PUSH1 0x4 DUP3 ADD MSTORE PUSH1 0x15 PUSH1 0x24 DUP3 ADD MSTORE PUSH21 0x5265636F76657279206E6F7420706F737369626C65 PUSH1 0x58 SHL PUSH1 0x44 DUP3 ADD MSTORE PUSH1 0x64 ADD PUSH2 0x72E JUMP JUMPDEST PUSH1 0x60 PUSH1 0x6A DUP1 SLOAD PUSH2 0x66F SWAP1 PUSH2 0x3288 JUMP JUMPDEST PUSH2 0x1780 PUSH2 0x29E1 JUMP JUMPDEST PUSH1 0x1 PUSH1 0x1 PUSH1 0xA0 SHL SUB DUP2 AND PUSH2 0x17A6 JUMPI PUSH1 0x40 MLOAD PUSH3 0x461BCD PUSH1 0xE5 SHL DUP2 MSTORE PUSH1 0x4 ADD PUSH2 0x72E SWAP1 PUSH2 0x349D JUMP JUMPDEST PUSH2 0x17B1 PUSH1 0x65 DUP3 PUSH2 0x2BF1 JUMP JUMPDEST PUSH1 0x40 MLOAD PUSH1 0x1 PUSH1 0x1 PUSH1 0xA0 SHL SUB DUP3 AND SWAP1 PUSH32 0xED9C8AD8D5A0A66898EA49D2956929C93AE2E8BD50281B2ED897C5D1A6737E0B SWAP1 PUSH1 0x0 SWAP1 LOG2 POP JUMP JUMPDEST PUSH2 0x17F1 CALLER PUSH2 0x9D6 JUMP JUMPDEST PUSH2 0x180D JUMPI PUSH1 0x40 MLOAD PUSH3 0x461BCD PUSH1 0xE5 SHL DUP2 MSTORE PUSH1 0x4 ADD PUSH2 0x72E SWAP1 PUSH2 0x32C2 JUMP JUMPDEST DUP1 PUSH2 0x1817 DUP4 PUSH2 0x1270 JUMP JUMPDEST LT ISZERO PUSH2 0x1865 JUMPI PUSH1 0x40 MLOAD PUSH3 0x461BCD PUSH1 0xE5 SHL DUP2 MSTORE PUSH1 0x20 PUSH1 0x4 DUP3 ADD MSTORE PUSH1 0x1D PUSH1 0x24 DUP3 ADD MSTORE PUSH32 0x63616E6E6F74206275726E206D6F7265207468616E2062616C616E6365000000 PUSH1 0x44 DUP3 ADD MSTORE PUSH1 0x64 ADD PUSH2 0x72E JUMP JUMPDEST PUSH1 0x1 PUSH1 0x1 PUSH1 0xA0 SHL SUB DUP3 AND PUSH1 0x0 SWAP1 DUP2 MSTORE PUSH1 0x6D PUSH1 0x20 MSTORE PUSH1 0x40 DUP2 KECCAK256 SLOAD PUSH2 0x1887 DUP5 PUSH2 0x1270 JUMP JUMPDEST PUSH2 0x1891 SWAP2 SWAP1 PUSH2 0x3385 JUMP JUMPDEST SWAP1 POP DUP1 DUP3 GT ISZERO PUSH2 0x1927 JUMPI PUSH1 0x0 PUSH2 0x18A7 DUP3 DUP5 PUSH2 0x3385 JUMP JUMPDEST PUSH1 0x1 PUSH1 0x1 PUSH1 0xA0 SHL SUB DUP6 AND PUSH1 0x0 SWAP1 DUP2 MSTORE PUSH1 0x6D PUSH1 0x20 MSTORE PUSH1 0x40 SWAP1 KECCAK256 SLOAD SWAP1 SWAP2 POP PUSH2 0x18CE SWAP1 DUP3 SWAP1 PUSH2 0x3385 JUMP JUMPDEST PUSH1 0x1 PUSH1 0x1 PUSH1 0xA0 SHL SUB DUP6 AND PUSH1 0x0 DUP2 DUP2 MSTORE PUSH1 0x6D PUSH1 0x20 MSTORE PUSH1 0x40 SWAP1 DUP2 SWAP1 KECCAK256 SWAP3 SWAP1 SWAP3 SSTORE SWAP1 MLOAD PUSH32 0x9BED35CB62AD0DBA04F9D5BFEE4B5BC91443E77DA8A65C4C84834C51BB08B0D6 SWAP1 PUSH2 0x191D SWAP1 DUP5 DUP2 MSTORE PUSH1 0x20 ADD SWAP1 JUMP JUMPDEST PUSH1 0x40 MLOAD DUP1 SWAP2 SUB SWAP1 LOG2 POP JUMPDEST PUSH2 0x1931 DUP4 DUP4 PUSH2 0x2C73 JUMP JUMPDEST PUSH1 0x6F SLOAD PUSH1 0x40 MLOAD PUSH4 0x469753B9 PUSH1 0xE1 SHL DUP2 MSTORE PUSH1 0x1 PUSH1 0x1 PUSH1 0xA0 SHL SUB DUP6 DUP2 AND PUSH1 0x4 DUP4 ADD MSTORE PUSH1 0x24 DUP3 ADD DUP6 SWAP1 MSTORE SWAP1 SWAP2 AND SWAP1 PUSH4 0x8D2EA772 SWAP1 PUSH1 0x44 ADD PUSH1 0x0 PUSH1 0x40 MLOAD DUP1 DUP4 SUB DUP2 PUSH1 0x0 DUP8 DUP1 EXTCODESIZE ISZERO DUP1 ISZERO PUSH2 0x197F JUMPI PUSH1 0x0 DUP1 REVERT JUMPDEST POP GAS CALL ISZERO DUP1 ISZERO PUSH2 0x1138 JUMPI RETURNDATASIZE PUSH1 0x0 DUP1 RETURNDATACOPY RETURNDATASIZE PUSH1 0x0 REVERT JUMPDEST PUSH1 0x0 PUSH2 0x199E CALLER PUSH2 0x9D6 JUMP JUMPDEST PUSH2 0x19BA JUMPI PUSH1 0x40 MLOAD PUSH3 0x461BCD PUSH1 0xE5 SHL DUP2 MSTORE PUSH1 0x4 ADD PUSH2 0x72E SWAP1 PUSH2 0x32C2 JUMP JUMPDEST DUP2 PUSH2 0x19C4 DUP6 PUSH2 0x1270 JUMP JUMPDEST LT ISZERO PUSH2 0x1A0B JUMPI PUSH1 0x40 MLOAD PUSH3 0x461BCD PUSH1 0xE5 SHL DUP2 MSTORE PUSH1 0x20 PUSH1 0x4 DUP3 ADD MSTORE PUSH1 0x16 PUSH1 0x24 DUP3 ADD MSTORE PUSH22 0x73656E6465722062616C616E636520746F6F206C6F77 PUSH1 0x50 SHL PUSH1 0x44 DUP3 ADD MSTORE PUSH1 0x64 ADD PUSH2 0x72E JUMP JUMPDEST PUSH1 0x1 PUSH1 0x1 PUSH1 0xA0 SHL SUB DUP5 AND PUSH1 0x0 SWAP1 DUP2 MSTORE PUSH1 0x6D PUSH1 0x20 MSTORE PUSH1 0x40 DUP2 KECCAK256 SLOAD PUSH2 0x1A2D DUP7 PUSH2 0x1270 JUMP JUMPDEST PUSH2 0x1A37 SWAP2 SWAP1 PUSH2 0x3385 JUMP JUMPDEST SWAP1 POP DUP1 DUP4 GT ISZERO PUSH2 0x1ACD JUMPI PUSH1 0x0 PUSH2 0x1A4D DUP3 DUP6 PUSH2 0x3385 JUMP JUMPDEST PUSH1 0x1 PUSH1 0x1 PUSH1 0xA0 SHL SUB DUP8 AND PUSH1 0x0 SWAP1 DUP2 MSTORE PUSH1 0x6D PUSH1 0x20 MSTORE PUSH1 0x40 SWAP1 KECCAK256 SLOAD SWAP1 SWAP2 POP PUSH2 0x1A74 SWAP1 DUP3 SWAP1 PUSH2 0x3385 JUMP JUMPDEST PUSH1 0x1 PUSH1 0x1 PUSH1 0xA0 SHL SUB DUP8 AND PUSH1 0x0 DUP2 DUP2 MSTORE PUSH1 0x6D PUSH1 0x20 MSTORE PUSH1 0x40 SWAP1 DUP2 SWAP1 KECCAK256 SWAP3 SWAP1 SWAP3 SSTORE SWAP1 MLOAD PUSH32 0x9BED35CB62AD0DBA04F9D5BFEE4B5BC91443E77DA8A65C4C84834C51BB08B0D6 SWAP1 PUSH2 0x1AC3 SWAP1 DUP5 DUP2 MSTORE PUSH1 0x20 ADD SWAP1 JUMP JUMPDEST PUSH1 0x40 MLOAD DUP1 SWAP2 SUB SWAP1 LOG2 POP JUMPDEST PUSH1 0x6E SLOAD PUSH1 0x40 MLOAD PUSH4 0xB9209E33 PUSH1 0xE0 SHL DUP2 MSTORE PUSH1 0x1 PUSH1 0x1 PUSH1 0xA0 SHL SUB DUP7 DUP2 AND PUSH1 0x4 DUP4 ADD MSTORE PUSH2 0x100 SWAP1 SWAP3 DIV SWAP1 SWAP2 AND SWAP1 PUSH4 0xB9209E33 SWAP1 PUSH1 0x24 ADD PUSH1 0x20 PUSH1 0x40 MLOAD DUP1 DUP4 SUB DUP2 DUP7 GAS STATICCALL ISZERO DUP1 ISZERO PUSH2 0x1B1D JUMPI RETURNDATASIZE PUSH1 0x0 DUP1 RETURNDATACOPY RETURNDATASIZE PUSH1 0x0 REVERT JUMPDEST POP POP POP POP PUSH1 0x40 MLOAD RETURNDATASIZE PUSH1 0x1F NOT PUSH1 0x1F DUP3 ADD AND DUP3 ADD DUP1 PUSH1 0x40 MSTORE POP DUP2 ADD SWAP1 PUSH2 0x1B41 SWAP2 SWAP1 PUSH2 0x33C2 JUMP JUMPDEST ISZERO PUSH2 0xCA6 JUMPI PUSH2 0x1B51 DUP6 DUP6 DUP6 PUSH2 0x2873 JUMP JUMPDEST PUSH1 0x6F SLOAD PUSH1 0x40 MLOAD PUSH4 0x22EBCA6D PUSH1 0xE2 SHL DUP2 MSTORE PUSH1 0x1 PUSH1 0x1 PUSH1 0xA0 SHL SUB SWAP1 SWAP2 AND SWAP1 PUSH4 0x8BAF29B4 SWAP1 PUSH2 0x1B85 SWAP1 DUP9 SWAP1 DUP9 SWAP1 DUP9 SWAP1 PUSH1 0x4 ADD PUSH2 0x33DF JUMP JUMPDEST PUSH1 0x0 PUSH1 0x40 MLOAD DUP1 DUP4 SUB DUP2 PUSH1 0x0 DUP8 DUP1 EXTCODESIZE ISZERO DUP1 ISZERO PUSH2 0x1B9F JUMPI PUSH1 0x0 DUP1 REVERT JUMPDEST POP GAS CALL ISZERO DUP1 ISZERO PUSH2 0x1BB3 JUMPI RETURNDATASIZE PUSH1 0x0 DUP1 RETURNDATACOPY RETURNDATASIZE PUSH1 0x0 REVERT JUMPDEST POP POP POP POP PUSH1 0x1 SWAP2 POP POP PUSH2 0xCE6 JUMP JUMPDEST CALLER PUSH1 0x0 DUP2 DUP2 MSTORE PUSH1 0x67 PUSH1 0x20 SWAP1 DUP2 MSTORE PUSH1 0x40 DUP1 DUP4 KECCAK256 PUSH1 0x1 PUSH1 0x1 PUSH1 0xA0 SHL SUB DUP8 AND DUP5 MSTORE SWAP1 SWAP2 MSTORE DUP2 KECCAK256 SLOAD SWAP1 SWAP2 PUSH2 0x6FF SWAP2 DUP6 SWAP1 PUSH2 0xC27 SWAP1 DUP7 SWAP1 PUSH2 0x3385 JUMP JUMPDEST PUSH1 0x6E SLOAD PUSH1 0x0 SWAP1 PUSH1 0xFF AND ISZERO PUSH2 0x1C1E JUMPI PUSH1 0x40 MLOAD PUSH3 0x461BCD PUSH1 0xE5 SHL DUP2 MSTORE PUSH1 0x4 ADD PUSH2 0x72E SWAP1 PUSH2 0x3398 JUMP JUMPDEST PUSH1 0x1 PUSH1 0x1 PUSH1 0xA0 SHL SUB DUP4 AND PUSH1 0x0 SWAP1 DUP2 MSTORE PUSH1 0x6C PUSH1 0x20 MSTORE PUSH1 0x40 SWAP1 KECCAK256 SLOAD PUSH1 0xFF AND ISZERO DUP1 ISZERO PUSH2 0x1C57 JUMPI POP CALLER PUSH1 0x0 SWAP1 DUP2 MSTORE PUSH1 0x6C PUSH1 0x20 MSTORE PUSH1 0x40 SWAP1 KECCAK256 SLOAD PUSH1 0xFF AND ISZERO JUMPDEST PUSH2 0x1C96 JUMPI PUSH1 0x40 MLOAD PUSH3 0x461BCD PUSH1 0xE5 SHL DUP2 MSTORE PUSH1 0x20 PUSH1 0x4 DUP3 ADD MSTORE PUSH1 0x10 PUSH1 0x24 DUP3 ADD MSTORE PUSH16 0x3BB0B63632BA1034B990333937BD32B7 PUSH1 0x81 SHL PUSH1 0x44 DUP3 ADD MSTORE PUSH1 0x64 ADD PUSH2 0x72E JUMP JUMPDEST CALLER PUSH1 0x0 DUP2 DUP2 MSTORE PUSH1 0x6D PUSH1 0x20 MSTORE PUSH1 0x40 SWAP1 KECCAK256 SLOAD SWAP1 PUSH2 0x1CB0 SWAP1 PUSH2 0x1270 JUMP JUMPDEST PUSH2 0x1CBA SWAP2 SWAP1 PUSH2 0x3385 JUMP JUMPDEST DUP3 GT ISZERO PUSH2 0x1D00 JUMPI PUSH1 0x40 MLOAD PUSH3 0x461BCD PUSH1 0xE5 SHL DUP2 MSTORE PUSH1 0x20 PUSH1 0x4 DUP3 ADD MSTORE PUSH1 0x14 PUSH1 0x24 DUP3 ADD MSTORE PUSH20 0x496E73756666696369656E742042616C616E6365 PUSH1 0x60 SHL PUSH1 0x44 DUP3 ADD MSTORE PUSH1 0x64 ADD PUSH2 0x72E JUMP JUMPDEST PUSH1 0x6E SLOAD PUSH1 0x40 MLOAD PUSH4 0xB9209E33 PUSH1 0xE0 SHL DUP2 MSTORE PUSH1 0x1 PUSH1 0x1 PUSH1 0xA0 SHL SUB DUP6 DUP2 AND PUSH1 0x4 DUP4 ADD MSTORE PUSH2 0x100 SWAP1 SWAP3 DIV SWAP1 SWAP2 AND SWAP1 PUSH4 0xB9209E33 SWAP1 PUSH1 0x24 ADD PUSH1 0x20 PUSH1 0x40 MLOAD DUP1 DUP4 SUB DUP2 DUP7 GAS STATICCALL ISZERO DUP1 ISZERO PUSH2 0x1D50 JUMPI RETURNDATASIZE PUSH1 0x0 DUP1 RETURNDATACOPY RETURNDATASIZE PUSH1 0x0 REVERT JUMPDEST POP POP POP POP PUSH1 0x40 MLOAD RETURNDATASIZE PUSH1 0x1F NOT PUSH1 0x1F DUP3 ADD AND DUP3 ADD DUP1 PUSH1 0x40 MSTORE POP DUP2 ADD SWAP1 PUSH2 0x1D74 SWAP2 SWAP1 PUSH2 0x33C2 JUMP JUMPDEST DUP1 ISZERO PUSH2 0x1DF0 JUMPI POP PUSH1 0x6F SLOAD PUSH1 0x40 MLOAD PUSH4 0x72331C73 PUSH1 0xE1 SHL DUP2 MSTORE PUSH1 0x1 PUSH1 0x1 PUSH1 0xA0 SHL SUB SWAP1 SWAP2 AND SWAP1 PUSH4 0xE46638E6 SWAP1 PUSH2 0x1DAF SWAP1 CALLER SWAP1 DUP8 SWAP1 DUP8 SWAP1 PUSH1 0x4 ADD PUSH2 0x33DF JUMP JUMPDEST PUSH1 0x20 PUSH1 0x40 MLOAD DUP1 DUP4 SUB DUP2 DUP7 GAS STATICCALL ISZERO DUP1 ISZERO PUSH2 0x1DCC JUMPI RETURNDATASIZE PUSH1 0x0 DUP1 RETURNDATACOPY RETURNDATASIZE PUSH1 0x0 REVERT JUMPDEST POP POP POP POP PUSH1 0x40 MLOAD RETURNDATASIZE PUSH1 0x1F NOT PUSH1 0x1F DUP3 ADD AND DUP3 ADD DUP1 PUSH1 0x40 MSTORE POP DUP2 ADD SWAP1 PUSH2 0x1DF0 SWAP2 SWAP1 PUSH2 0x33C2 JUMP JUMPDEST ISZERO PUSH2 0xCA6 JUMPI PUSH2 0x1E00 CALLER DUP5 DUP5 PUSH2 0x2873 JUMP JUMPDEST PUSH1 0x6F SLOAD PUSH1 0x40 MLOAD PUSH4 0x22EBCA6D PUSH1 0xE2 SHL DUP2 MSTORE PUSH1 0x1 PUSH1 0x1 PUSH1 0xA0 SHL SUB SWAP1 SWAP2 AND SWAP1 PUSH4 0x8BAF29B4 SWAP1 PUSH2 0x1E34 SWAP1 CALLER SWAP1 DUP8 SWAP1 DUP8 SWAP1 PUSH1 0x4 ADD PUSH2 0x33DF JUMP JUMPDEST PUSH1 0x0 PUSH1 0x40 MLOAD DUP1 DUP4 SUB DUP2 PUSH1 0x0 DUP8 DUP1 EXTCODESIZE ISZERO DUP1 ISZERO PUSH2 0x1E4E JUMPI PUSH1 0x0 DUP1 REVERT JUMPDEST POP GAS CALL ISZERO DUP1 ISZERO PUSH2 0x1E62 JUMPI RETURNDATASIZE PUSH1 0x0 DUP1 RETURNDATACOPY RETURNDATASIZE PUSH1 0x0 REVERT JUMPDEST POP POP POP POP PUSH1 0x1 SWAP1 POP PUSH2 0x703 JUMP JUMPDEST PUSH2 0x1E77 PUSH2 0x29E1 JUMP JUMPDEST PUSH1 0x40 MLOAD PUSH1 0x20 ADD PUSH2 0x1E92 SWAP1 PUSH1 0x20 DUP1 DUP3 MSTORE PUSH1 0x0 SWAP1 DUP3 ADD MSTORE PUSH1 0x40 ADD SWAP1 JUMP JUMPDEST PUSH1 0x40 MLOAD PUSH1 0x20 DUP2 DUP4 SUB SUB DUP2 MSTORE SWAP1 PUSH1 0x40 MSTORE DUP1 MLOAD SWAP1 PUSH1 0x20 ADD KECCAK256 DUP3 DUP3 PUSH1 0x40 MLOAD PUSH1 0x20 ADD PUSH2 0x1EBB SWAP3 SWAP2 SWAP1 PUSH2 0x34F8 JUMP JUMPDEST PUSH1 0x40 MLOAD PUSH1 0x20 DUP2 DUP4 SUB SUB DUP2 MSTORE SWAP1 PUSH1 0x40 MSTORE DUP1 MLOAD SWAP1 PUSH1 0x20 ADD KECCAK256 SUB PUSH2 0x1EEE JUMPI PUSH1 0x40 MLOAD PUSH3 0x461BCD PUSH1 0xE5 SHL DUP2 MSTORE PUSH1 0x4 ADD PUSH2 0x72E SWAP1 PUSH2 0x3527 JUMP JUMPDEST PUSH1 0x6A PUSH2 0x1EFB DUP3 DUP5 DUP4 PUSH2 0x35A4 JUMP JUMPDEST POP PUSH1 0x6B SLOAD PUSH1 0x40 MLOAD PUSH2 0x100 SWAP1 SWAP2 DIV PUSH1 0x1 PUSH1 0x1 PUSH1 0xA0 SHL SUB AND SWAP1 PUSH2 0x1F1E SWAP1 PUSH1 0x6A SWAP1 PUSH2 0x3403 JUMP JUMPDEST PUSH1 0x40 MLOAD DUP1 SWAP2 SUB SWAP1 KECCAK256 PUSH1 0x69 PUSH1 0x40 MLOAD PUSH2 0x1F35 SWAP2 SWAP1 PUSH2 0x3403 JUMP JUMPDEST PUSH1 0x40 DUP1 MLOAD SWAP2 DUP3 SWAP1 SUB DUP3 KECCAK256 PUSH1 0x6B SLOAD DUP4 DUP4 ADD DUP4 MSTORE PUSH1 0x5 DUP5 MSTORE PUSH5 0x342E312E33 PUSH1 0xD8 SHL PUSH1 0x20 DUP6 ADD MSTORE SWAP2 MLOAD SWAP1 SWAP3 PUSH32 0x6A1105AC8148A3C319ADBC369F9072573E8A11D3A3D195E067E7C40767EC54D1 SWAP3 PUSH2 0x1F8F SWAP3 PUSH1 0xFF SWAP1 SWAP2 AND SWAP2 SWAP1 PUSH2 0x3479 JUMP JUMPDEST PUSH1 0x40 MLOAD DUP1 SWAP2 SUB SWAP1 LOG4 POP POP JUMP JUMPDEST PUSH2 0x1FA3 PUSH2 0x29E1 JUMP JUMPDEST PUSH1 0x40 MLOAD PUSH1 0x20 ADD PUSH2 0x1FBE SWAP1 PUSH1 0x20 DUP1 DUP3 MSTORE PUSH1 0x0 SWAP1 DUP3 ADD MSTORE PUSH1 0x40 ADD SWAP1 JUMP JUMPDEST PUSH1 0x40 MLOAD PUSH1 0x20 DUP2 DUP4 SUB SUB DUP2 MSTORE SWAP1 PUSH1 0x40 MSTORE DUP1 MLOAD SWAP1 PUSH1 0x20 ADD KECCAK256 DUP3 DUP3 PUSH1 0x40 MLOAD PUSH1 0x20 ADD PUSH2 0x1FE7 SWAP3 SWAP2 SWAP1 PUSH2 0x34F8 JUMP JUMPDEST PUSH1 0x40 MLOAD PUSH1 0x20 DUP2 DUP4 SUB SUB DUP2 MSTORE SWAP1 PUSH1 0x40 MSTORE DUP1 MLOAD SWAP1 PUSH1 0x20 ADD KECCAK256 SUB PUSH2 0x201A JUMPI PUSH1 0x40 MLOAD PUSH3 0x461BCD PUSH1 0xE5 SHL DUP2 MSTORE PUSH1 0x4 ADD PUSH2 0x72E SWAP1 PUSH2 0x3527 JUMP JUMPDEST PUSH1 0x69 PUSH2 0x1EFB DUP3 DUP5 DUP4 PUSH2 0x35A4 JUMP JUMPDEST PUSH2 0x2030 CALLER PUSH2 0x9D6 JUMP JUMPDEST PUSH2 0x204C JUMPI PUSH1 0x40 MLOAD PUSH3 0x461BCD PUSH1 0xE5 SHL DUP2 MSTORE PUSH1 0x4 ADD PUSH2 0x72E SWAP1 PUSH2 0x32C2 JUMP JUMPDEST PUSH1 0x1 PUSH1 0x1 PUSH1 0xA0 SHL SUB DUP3 AND PUSH1 0x0 DUP2 DUP2 MSTORE PUSH1 0x6C PUSH1 0x20 MSTORE PUSH1 0x40 DUP1 DUP3 KECCAK256 DUP1 SLOAD PUSH1 0xFF NOT AND DUP6 ISZERO ISZERO SWAP1 DUP2 OR SWAP1 SWAP2 SSTORE SWAP1 MLOAD CALLER SWAP4 SWAP2 SWAP3 PUSH32 0x7FA523C84AB8D7FC5B72F08B9E46DBBF10C39E119A075B3E317002D14BC9F436 SWAP2 LOG4 POP POP JUMP JUMPDEST PUSH2 0x20A9 PUSH2 0x29E1 JUMP JUMPDEST PUSH1 0x6E DUP1 SLOAD PUSH2 0x100 PUSH1 0x1 PUSH1 0xA8 SHL SUB NOT AND PUSH2 0x100 PUSH1 0x1 PUSH1 0x1 PUSH1 0xA0 SHL SUB DUP5 AND SWAP1 DUP2 MUL SWAP2 SWAP1 SWAP2 OR SWAP1 SWAP2 SSTORE PUSH1 0x40 MLOAD PUSH32 0xD2BE862D755BCA7E0D39772B2CAB3A5578DA9C285F69199F4C063C2294A7F36C SWAP1 PUSH1 0x0 SWAP1 LOG2 POP JUMP JUMPDEST PUSH2 0x2103 PUSH2 0x29E1 JUMP JUMPDEST PUSH1 0x1 PUSH1 0x1 PUSH1 0xA0 SHL SUB DUP2 AND PUSH2 0x2168 JUMPI PUSH1 0x40 MLOAD PUSH3 0x461BCD PUSH1 0xE5 SHL DUP2 MSTORE PUSH1 0x20 PUSH1 0x4 DUP3 ADD MSTORE PUSH1 0x26 PUSH1 0x24 DUP3 ADD MSTORE PUSH32 0x4F776E61626C653A206E6577206F776E657220697320746865207A65726F2061 PUSH1 0x44 DUP3 ADD MSTORE PUSH6 0x646472657373 PUSH1 0xD0 SHL PUSH1 0x64 DUP3 ADD MSTORE PUSH1 0x84 ADD PUSH2 0x72E JUMP JUMPDEST PUSH2 0x2171 DUP2 PUSH2 0x2B23 JUMP JUMPDEST POP JUMP JUMPDEST PUSH2 0x217C PUSH2 0x29E1 JUMP JUMPDEST PUSH1 0x6F SLOAD PUSH1 0x1 PUSH1 0x1 PUSH1 0xA0 SHL SUB AND ISZERO PUSH2 0x21EB JUMPI PUSH1 0x6F SLOAD PUSH1 0x40 MLOAD PUSH4 0x40DB3B5 PUSH1 0xE4 SHL DUP2 MSTORE ADDRESS PUSH1 0x4 DUP3 ADD MSTORE PUSH1 0x1 PUSH1 0x1 PUSH1 0xA0 SHL SUB SWAP1 SWAP2 AND SWAP1 PUSH4 0x40DB3B50 SWAP1 PUSH1 0x24 ADD PUSH1 0x0 PUSH1 0x40 MLOAD DUP1 DUP4 SUB DUP2 PUSH1 0x0 DUP8 DUP1 EXTCODESIZE ISZERO DUP1 ISZERO PUSH2 0x21D2 JUMPI PUSH1 0x0 DUP1 REVERT JUMPDEST POP GAS CALL ISZERO DUP1 ISZERO PUSH2 0x21E6 JUMPI RETURNDATASIZE PUSH1 0x0 DUP1 RETURNDATACOPY RETURNDATASIZE PUSH1 0x0 REVERT JUMPDEST POP POP POP POP JUMPDEST PUSH1 0x6F DUP1 SLOAD PUSH1 0x1 PUSH1 0x1 PUSH1 0xA0 SHL SUB NOT AND PUSH1 0x1 PUSH1 0x1 PUSH1 0xA0 SHL SUB DUP4 AND SWAP1 DUP2 OR SWAP1 SWAP2 SSTORE PUSH1 0x40 MLOAD PUSH4 0x1FFAD501 PUSH1 0xE1 SHL DUP2 MSTORE ADDRESS PUSH1 0x4 DUP3 ADD MSTORE PUSH4 0x3FF5AA02 SWAP1 PUSH1 0x24 ADD PUSH1 0x0 PUSH1 0x40 MLOAD DUP1 DUP4 SUB DUP2 PUSH1 0x0 DUP8 DUP1 EXTCODESIZE ISZERO DUP1 ISZERO PUSH2 0x223F JUMPI PUSH1 0x0 DUP1 REVERT JUMPDEST POP GAS CALL ISZERO DUP1 ISZERO PUSH2 0x2253 JUMPI RETURNDATASIZE PUSH1 0x0 DUP1 RETURNDATACOPY RETURNDATASIZE PUSH1 0x0 REVERT JUMPDEST POP POP PUSH1 0x40 MLOAD PUSH1 0x1 PUSH1 0x1 PUSH1 0xA0 SHL SUB DUP5 AND SWAP3 POP PUSH32 0x7F3A888862559648EC01D97DEB7B5012BFF86DC91E654A1DE397170DB40E35B6 SWAP2 POP PUSH1 0x0 SWAP1 LOG2 POP JUMP JUMPDEST PUSH1 0x0 SLOAD PUSH2 0x100 SWAP1 DIV PUSH1 0xFF AND ISZERO DUP1 DUP1 ISZERO PUSH2 0x22AE JUMPI POP PUSH1 0x0 SLOAD PUSH1 0x1 PUSH1 0xFF SWAP1 SWAP2 AND LT JUMPDEST DUP1 PUSH2 0x22C8 JUMPI POP ADDRESS EXTCODESIZE ISZERO DUP1 ISZERO PUSH2 0x22C8 JUMPI POP PUSH1 0x0 SLOAD PUSH1 0xFF AND PUSH1 0x1 EQ JUMPDEST PUSH2 0x232B JUMPI PUSH1 0x40 MLOAD PUSH3 0x461BCD PUSH1 0xE5 SHL DUP2 MSTORE PUSH1 0x20 PUSH1 0x4 DUP3 ADD MSTORE PUSH1 0x2E PUSH1 0x24 DUP3 ADD MSTORE PUSH32 0x496E697469616C697A61626C653A20636F6E747261637420697320616C726561 PUSH1 0x44 DUP3 ADD MSTORE PUSH14 0x191E481A5B9A5D1A585B1A5E9959 PUSH1 0x92 SHL PUSH1 0x64 DUP3 ADD MSTORE PUSH1 0x84 ADD PUSH2 0x72E JUMP JUMPDEST PUSH1 0x0 DUP1 SLOAD PUSH1 0xFF NOT AND PUSH1 0x1 OR SWAP1 SSTORE DUP1 ISZERO PUSH2 0x234E JUMPI PUSH1 0x0 DUP1 SLOAD PUSH2 0xFF00 NOT AND PUSH2 0x100 OR SWAP1 SSTORE JUMPDEST PUSH1 0x0 PUSH2 0x2362 PUSH1 0x33 SLOAD PUSH1 0x1 PUSH1 0x1 PUSH1 0xA0 SHL SUB AND SWAP1 JUMP JUMPDEST PUSH1 0x1 PUSH1 0x1 PUSH1 0xA0 SHL SUB AND EQ PUSH2 0x23AE JUMPI PUSH1 0x40 MLOAD PUSH3 0x461BCD PUSH1 0xE5 SHL DUP2 MSTORE PUSH1 0x20 PUSH1 0x4 DUP3 ADD MSTORE PUSH1 0x13 PUSH1 0x24 DUP3 ADD MSTORE PUSH19 0x185B1C9958591E481A5B9A5D1A585B1A5E9959 PUSH1 0x6A SHL PUSH1 0x44 DUP3 ADD MSTORE PUSH1 0x64 ADD PUSH2 0x72E JUMP JUMPDEST PUSH1 0x1 PUSH1 0x1 PUSH1 0xA0 SHL SUB DUP8 AND ISZERO DUP1 ISZERO SWAP1 PUSH2 0x23CE JUMPI POP PUSH1 0x1 PUSH1 0x1 PUSH1 0xA0 SHL SUB DUP7 AND ISZERO ISZERO JUMPDEST PUSH2 0x23EA JUMPI PUSH1 0x40 MLOAD PUSH3 0x461BCD PUSH1 0xE5 SHL DUP2 MSTORE PUSH1 0x4 ADD PUSH2 0x72E SWAP1 PUSH2 0x349D JUMP JUMPDEST PUSH1 0x40 MLOAD PUSH1 0x20 ADD PUSH2 0x2405 SWAP1 PUSH1 0x20 DUP1 DUP3 MSTORE PUSH1 0x0 SWAP1 DUP3 ADD MSTORE PUSH1 0x40 ADD SWAP1 JUMP JUMPDEST PUSH1 0x40 MLOAD PUSH1 0x20 DUP2 DUP4 SUB SUB DUP2 MSTORE SWAP1 PUSH1 0x40 MSTORE DUP1 MLOAD SWAP1 PUSH1 0x20 ADD KECCAK256 DUP6 PUSH1 0x40 MLOAD PUSH1 0x20 ADD PUSH2 0x242C SWAP2 SWAP1 PUSH2 0x2E09 JUMP JUMPDEST PUSH1 0x40 MLOAD PUSH1 0x20 DUP2 DUP4 SUB SUB DUP2 MSTORE SWAP1 PUSH1 0x40 MSTORE DUP1 MLOAD SWAP1 PUSH1 0x20 ADD KECCAK256 EQ ISZERO DUP1 ISZERO PUSH2 0x24A6 JUMPI POP PUSH1 0x40 MLOAD PUSH1 0x20 ADD PUSH2 0x2466 SWAP1 PUSH1 0x20 DUP1 DUP3 MSTORE PUSH1 0x0 SWAP1 DUP3 ADD MSTORE PUSH1 0x40 ADD SWAP1 JUMP JUMPDEST PUSH1 0x40 MLOAD PUSH1 0x20 DUP2 DUP4 SUB SUB DUP2 MSTORE SWAP1 PUSH1 0x40 MSTORE DUP1 MLOAD SWAP1 PUSH1 0x20 ADD KECCAK256 DUP5 PUSH1 0x40 MLOAD PUSH1 0x20 ADD PUSH2 0x248D SWAP2 SWAP1 PUSH2 0x2E09 JUMP JUMPDEST PUSH1 0x40 MLOAD PUSH1 0x20 DUP2 DUP4 SUB SUB DUP2 MSTORE SWAP1 PUSH1 0x40 MSTORE DUP1 MLOAD SWAP1 PUSH1 0x20 ADD KECCAK256 EQ ISZERO JUMPDEST PUSH2 0x24C2 JUMPI PUSH1 0x40 MLOAD PUSH3 0x461BCD PUSH1 0xE5 SHL DUP2 MSTORE PUSH1 0x4 ADD PUSH2 0x72E SWAP1 PUSH2 0x3527 JUMP JUMPDEST PUSH1 0x12 DUP4 PUSH1 0xFF AND GT ISZERO PUSH2 0x2516 JUMPI PUSH1 0x40 MLOAD PUSH3 0x461BCD PUSH1 0xE5 SHL DUP2 MSTORE PUSH1 0x20 PUSH1 0x4 DUP3 ADD MSTORE PUSH1 0x19 PUSH1 0x24 DUP3 ADD MSTORE PUSH32 0x646563696D616C73206265747765656E203020616E6420313800000000000000 PUSH1 0x44 DUP3 ADD MSTORE PUSH1 0x64 ADD PUSH2 0x72E JUMP JUMPDEST PUSH2 0x251E PUSH2 0x2D5F JUMP JUMPDEST PUSH1 0x69 PUSH2 0x252A DUP7 DUP3 PUSH2 0x3664 JUMP JUMPDEST POP PUSH1 0x6A PUSH2 0x2537 DUP6 DUP3 PUSH2 0x3664 JUMP JUMPDEST POP PUSH1 0x6B DUP1 SLOAD PUSH1 0x1 PUSH1 0x1 PUSH1 0xA0 SHL SUB DUP5 AND PUSH2 0x100 MUL PUSH1 0x1 PUSH1 0x1 PUSH1 0xA8 SHL SUB NOT SWAP1 SWAP2 AND PUSH1 0xFF DUP7 AND OR OR SWAP1 SSTORE PUSH1 0x6E DUP1 SLOAD PUSH1 0xFF NOT AND PUSH1 0x1 OR SWAP1 SSTORE PUSH2 0x2574 DUP8 PUSH2 0x20A1 JUMP JUMPDEST PUSH2 0x257D DUP7 PUSH2 0x2174 JUMP JUMPDEST PUSH1 0x6B SLOAD PUSH1 0x40 MLOAD PUSH2 0x100 SWAP1 SWAP2 DIV PUSH1 0x1 PUSH1 0x1 PUSH1 0xA0 SHL SUB AND SWAP1 PUSH2 0x259F SWAP1 PUSH1 0x6A SWAP1 PUSH2 0x3403 JUMP JUMPDEST PUSH1 0x40 MLOAD DUP1 SWAP2 SUB SWAP1 KECCAK256 PUSH1 0x69 PUSH1 0x40 MLOAD PUSH2 0x25B6 SWAP2 SWAP1 PUSH2 0x3403 JUMP JUMPDEST PUSH1 0x40 DUP1 MLOAD SWAP2 DUP3 SWAP1 SUB DUP3 KECCAK256 PUSH1 0x6B SLOAD DUP4 DUP4 ADD DUP4 MSTORE PUSH1 0x5 DUP5 MSTORE PUSH5 0x342E312E33 PUSH1 0xD8 SHL PUSH1 0x20 DUP6 ADD MSTORE SWAP2 MLOAD SWAP1 SWAP3 PUSH32 0x6A1105AC8148A3C319ADBC369F9072573E8A11D3A3D195E067E7C40767EC54D1 SWAP3 PUSH2 0x2610 SWAP3 PUSH1 0xFF SWAP1 SWAP2 AND SWAP2 SWAP1 PUSH2 0x3479 JUMP JUMPDEST PUSH1 0x40 MLOAD DUP1 SWAP2 SUB SWAP1 LOG4 DUP1 ISZERO PUSH2 0x1138 JUMPI PUSH1 0x0 DUP1 SLOAD PUSH2 0xFF00 NOT AND SWAP1 SSTORE PUSH1 0x40 MLOAD PUSH1 0x1 DUP2 MSTORE PUSH32 0x7F26B83FF96E1F2B6A682F133852F6798A09C465DA95921460CEFB3847402498 SWAP1 PUSH1 0x20 ADD PUSH1 0x40 MLOAD DUP1 SWAP2 SUB SWAP1 LOG1 POP POP POP POP POP POP POP JUMP JUMPDEST PUSH1 0x0 JUMPDEST DUP4 DUP2 LT ISZERO PUSH2 0x8A6 JUMPI PUSH2 0x26B9 DUP6 DUP6 DUP4 DUP2 DUP2 LT PUSH2 0x2686 JUMPI PUSH2 0x2686 PUSH2 0x3339 JUMP JUMPDEST SWAP1 POP PUSH1 0x20 MUL ADD PUSH1 0x20 DUP2 ADD SWAP1 PUSH2 0x269B SWAP2 SWAP1 PUSH2 0x2E62 JUMP JUMPDEST DUP5 DUP5 DUP5 DUP2 DUP2 LT PUSH2 0x26AD JUMPI PUSH2 0x26AD PUSH2 0x3339 JUMP JUMPDEST SWAP1 POP PUSH1 0x20 MUL ADD CALLDATALOAD PUSH2 0x709 JUMP JUMPDEST DUP1 PUSH2 0x26C3 DUP2 PUSH2 0x336C JUMP JUMPDEST SWAP2 POP POP PUSH2 0x2669 JUMP JUMPDEST PUSH1 0x1 PUSH1 0x1 PUSH1 0xA0 SHL SUB DUP4 AND PUSH2 0x272D JUMPI PUSH1 0x40 MLOAD PUSH3 0x461BCD PUSH1 0xE5 SHL DUP2 MSTORE PUSH1 0x20 PUSH1 0x4 DUP3 ADD MSTORE PUSH1 0x24 DUP1 DUP3 ADD MSTORE PUSH32 0x45524332303A20617070726F76652066726F6D20746865207A65726F20616464 PUSH1 0x44 DUP3 ADD MSTORE PUSH4 0x72657373 PUSH1 0xE0 SHL PUSH1 0x64 DUP3 ADD MSTORE PUSH1 0x84 ADD PUSH2 0x72E JUMP JUMPDEST PUSH1 0x1 PUSH1 0x1 PUSH1 0xA0 SHL SUB DUP3 AND PUSH2 0x278E JUMPI PUSH1 0x40 MLOAD PUSH3 0x461BCD PUSH1 0xE5 SHL DUP2 MSTORE PUSH1 0x20 PUSH1 0x4 DUP3 ADD MSTORE PUSH1 0x22 PUSH1 0x24 DUP3 ADD MSTORE PUSH32 0x45524332303A20617070726F766520746F20746865207A65726F206164647265 PUSH1 0x44 DUP3 ADD MSTORE PUSH2 0x7373 PUSH1 0xF0 SHL PUSH1 0x64 DUP3 ADD MSTORE PUSH1 0x84 ADD PUSH2 0x72E JUMP JUMPDEST PUSH1 0x1 PUSH1 0x1 PUSH1 0xA0 SHL SUB DUP4 DUP2 AND PUSH1 0x0 DUP2 DUP2 MSTORE PUSH1 0x67 PUSH1 0x20 SWAP1 DUP2 MSTORE PUSH1 0x40 DUP1 DUP4 KECCAK256 SWAP5 DUP8 AND DUP1 DUP5 MSTORE SWAP5 DUP3 MSTORE SWAP2 DUP3 SWAP1 KECCAK256 DUP6 SWAP1 SSTORE SWAP1 MLOAD DUP5 DUP2 MSTORE PUSH32 0x8C5BE1E5EBEC7D5BD14F71427D1E84F3DD0314C0F7B2291E5B200AC8C7C3B925 SWAP2 ADD JUMPDEST PUSH1 0x40 MLOAD DUP1 SWAP2 SUB SWAP1 LOG3 POP POP POP JUMP JUMPDEST PUSH1 0x0 PUSH1 0x1 PUSH1 0x1 PUSH1 0xA0 SHL SUB DUP3 AND PUSH2 0x2853 JUMPI PUSH1 0x40 MLOAD PUSH3 0x461BCD PUSH1 0xE5 SHL DUP2 MSTORE PUSH1 0x20 PUSH1 0x4 DUP3 ADD MSTORE PUSH1 0x22 PUSH1 0x24 DUP3 ADD MSTORE PUSH32 0x526F6C65733A206163636F756E7420697320746865207A65726F206164647265 PUSH1 0x44 DUP3 ADD MSTORE PUSH2 0x7373 PUSH1 0xF0 SHL PUSH1 0x64 DUP3 ADD MSTORE PUSH1 0x84 ADD PUSH2 0x72E JUMP JUMPDEST POP PUSH1 0x1 PUSH1 0x1 PUSH1 0xA0 SHL SUB AND PUSH1 0x0 SWAP1 DUP2 MSTORE PUSH1 0x20 SWAP2 SWAP1 SWAP2 MSTORE PUSH1 0x40 SWAP1 KECCAK256 SLOAD PUSH1 0xFF AND SWAP1 JUMP JUMPDEST PUSH1 0x1 PUSH1 0x1 PUSH1 0xA0 SHL SUB DUP4 AND PUSH2 0x28D7 JUMPI PUSH1 0x40 MLOAD PUSH3 0x461BCD PUSH1 0xE5 SHL DUP2 MSTORE PUSH1 0x20 PUSH1 0x4 DUP3 ADD MSTORE PUSH1 0x25 PUSH1 0x24 DUP3 ADD MSTORE PUSH32 0x45524332303A207472616E736665722066726F6D20746865207A65726F206164 PUSH1 0x44 DUP3 ADD MSTORE PUSH5 0x6472657373 PUSH1 0xD8 SHL PUSH1 0x64 DUP3 ADD MSTORE PUSH1 0x84 ADD PUSH2 0x72E JUMP JUMPDEST PUSH1 0x1 PUSH1 0x1 PUSH1 0xA0 SHL SUB DUP3 AND PUSH2 0x2939 JUMPI PUSH1 0x40 MLOAD PUSH3 0x461BCD PUSH1 0xE5 SHL DUP2 MSTORE PUSH1 0x20 PUSH1 0x4 DUP3 ADD MSTORE PUSH1 0x23 PUSH1 0x24 DUP3 ADD MSTORE PUSH32 0x45524332303A207472616E7366657220746F20746865207A65726F2061646472 PUSH1 0x44 DUP3 ADD MSTORE PUSH3 0x657373 PUSH1 0xE8 SHL PUSH1 0x64 DUP3 ADD MSTORE PUSH1 0x84 ADD PUSH2 0x72E JUMP JUMPDEST PUSH1 0x1 PUSH1 0x1 PUSH1 0xA0 SHL SUB DUP4 AND PUSH1 0x0 SWAP1 DUP2 MSTORE PUSH1 0x66 PUSH1 0x20 MSTORE PUSH1 0x40 SWAP1 KECCAK256 SLOAD PUSH2 0x295D SWAP1 DUP3 SWAP1 PUSH2 0x3385 JUMP JUMPDEST PUSH1 0x1 PUSH1 0x1 PUSH1 0xA0 SHL SUB DUP1 DUP6 AND PUSH1 0x0 SWAP1 DUP2 MSTORE PUSH1 0x66 PUSH1 0x20 MSTORE PUSH1 0x40 DUP1 DUP3 KECCAK256 SWAP4 SWAP1 SWAP4 SSTORE SWAP1 DUP5 AND DUP2 MSTORE KECCAK256 SLOAD PUSH2 0x298D SWAP1 DUP3 SWAP1 PUSH2 0x3326 JUMP JUMPDEST PUSH1 0x1 PUSH1 0x1 PUSH1 0xA0 SHL SUB DUP1 DUP5 AND PUSH1 0x0 DUP2 DUP2 MSTORE PUSH1 0x66 PUSH1 0x20 MSTORE PUSH1 0x40 SWAP1 DUP2 SWAP1 KECCAK256 SWAP4 SWAP1 SWAP4 SSTORE SWAP2 MLOAD SWAP1 DUP6 AND SWAP1 PUSH32 0xDDF252AD1BE2C89B69C2B068FC378DAA952BA7F163C4A11628F55A4DF523B3EF SWAP1 PUSH2 0x27E3 SWAP1 DUP6 DUP2 MSTORE PUSH1 0x20 ADD SWAP1 JUMP JUMPDEST PUSH1 0x33 SLOAD PUSH1 0x1 PUSH1 0x1 PUSH1 0xA0 SHL SUB AND CALLER EQ PUSH2 0x129D JUMPI PUSH1 0x40 MLOAD PUSH3 0x461BCD PUSH1 0xE5 SHL DUP2 MSTORE PUSH1 0x20 PUSH1 0x4 DUP3 ADD DUP2 SWAP1 MSTORE PUSH1 0x24 DUP3 ADD MSTORE PUSH32 0x4F776E61626C653A2063616C6C6572206973206E6F7420746865206F776E6572 PUSH1 0x44 DUP3 ADD MSTORE PUSH1 0x64 ADD PUSH2 0x72E JUMP JUMPDEST PUSH1 0x1 PUSH1 0x1 PUSH1 0xA0 SHL SUB DUP3 AND PUSH2 0x2A91 JUMPI PUSH1 0x40 MLOAD PUSH3 0x461BCD PUSH1 0xE5 SHL DUP2 MSTORE PUSH1 0x20 PUSH1 0x4 DUP3 ADD MSTORE PUSH1 0x1F PUSH1 0x24 DUP3 ADD MSTORE PUSH32 0x45524332303A206D696E7420746F20746865207A65726F206164647265737300 PUSH1 0x44 DUP3 ADD MSTORE PUSH1 0x64 ADD PUSH2 0x72E JUMP JUMPDEST DUP1 PUSH1 0x68 SLOAD PUSH2 0x2A9F SWAP2 SWAP1 PUSH2 0x3326 JUMP JUMPDEST PUSH1 0x68 SSTORE PUSH1 0x1 PUSH1 0x1 PUSH1 0xA0 SHL SUB DUP3 AND PUSH1 0x0 SWAP1 DUP2 MSTORE PUSH1 0x66 PUSH1 0x20 MSTORE PUSH1 0x40 SWAP1 KECCAK256 SLOAD PUSH2 0x2AC6 SWAP1 DUP3 SWAP1 PUSH2 0x3326 JUMP JUMPDEST PUSH1 0x1 PUSH1 0x1 PUSH1 0xA0 SHL SUB DUP4 AND PUSH1 0x0 DUP2 DUP2 MSTORE PUSH1 0x66 PUSH1 0x20 MSTORE PUSH1 0x40 DUP1 DUP3 KECCAK256 SWAP4 SWAP1 SWAP4 SSTORE SWAP2 MLOAD SWAP1 SWAP2 SWAP1 PUSH32 0xDDF252AD1BE2C89B69C2B068FC378DAA952BA7F163C4A11628F55A4DF523B3EF SWAP1 PUSH2 0x2B17 SWAP1 DUP6 DUP2 MSTORE PUSH1 0x20 ADD SWAP1 JUMP JUMPDEST PUSH1 0x40 MLOAD DUP1 SWAP2 SUB SWAP1 LOG3 POP POP JUMP JUMPDEST PUSH1 0x33 DUP1 SLOAD PUSH1 0x1 PUSH1 0x1 PUSH1 0xA0 SHL SUB DUP4 DUP2 AND PUSH1 0x1 PUSH1 0x1 PUSH1 0xA0 SHL SUB NOT DUP4 AND DUP2 OR SWAP1 SWAP4 SSTORE PUSH1 0x40 MLOAD SWAP2 AND SWAP2 SWAP1 DUP3 SWAP1 PUSH32 0x8BE0079C531659141344CD1FD0A4F28419497F9722A3DAAFE3B4186F6B6457E0 SWAP1 PUSH1 0x0 SWAP1 LOG3 POP POP JUMP JUMPDEST PUSH2 0x2B7F DUP3 DUP3 PUSH2 0x27F0 JUMP JUMPDEST ISZERO PUSH2 0x2BCC JUMPI PUSH1 0x40 MLOAD PUSH3 0x461BCD PUSH1 0xE5 SHL DUP2 MSTORE PUSH1 0x20 PUSH1 0x4 DUP3 ADD MSTORE PUSH1 0x1F PUSH1 0x24 DUP3 ADD MSTORE PUSH32 0x526F6C65733A206163636F756E7420616C72656164792068617320726F6C6500 PUSH1 0x44 DUP3 ADD MSTORE PUSH1 0x64 ADD PUSH2 0x72E JUMP JUMPDEST PUSH1 0x1 PUSH1 0x1 PUSH1 0xA0 SHL SUB AND PUSH1 0x0 SWAP1 DUP2 MSTORE PUSH1 0x20 SWAP2 SWAP1 SWAP2 MSTORE PUSH1 0x40 SWAP1 KECCAK256 DUP1 SLOAD PUSH1 0xFF NOT AND PUSH1 0x1 OR SWAP1 SSTORE JUMP JUMPDEST PUSH2 0x2BFB DUP3 DUP3 PUSH2 0x27F0 JUMP JUMPDEST PUSH2 0x2C51 JUMPI PUSH1 0x40 MLOAD PUSH3 0x461BCD PUSH1 0xE5 SHL DUP2 MSTORE PUSH1 0x20 PUSH1 0x4 DUP3 ADD MSTORE PUSH1 0x21 PUSH1 0x24 DUP3 ADD MSTORE PUSH32 0x526F6C65733A206163636F756E7420646F6573206E6F74206861766520726F6C PUSH1 0x44 DUP3 ADD MSTORE PUSH1 0x65 PUSH1 0xF8 SHL PUSH1 0x64 DUP3 ADD MSTORE PUSH1 0x84 ADD PUSH2 0x72E JUMP JUMPDEST PUSH1 0x1 PUSH1 0x1 PUSH1 0xA0 SHL SUB AND PUSH1 0x0 SWAP1 DUP2 MSTORE PUSH1 0x20 SWAP2 SWAP1 SWAP2 MSTORE PUSH1 0x40 SWAP1 KECCAK256 DUP1 SLOAD PUSH1 0xFF NOT AND SWAP1 SSTORE JUMP JUMPDEST PUSH1 0x1 PUSH1 0x1 PUSH1 0xA0 SHL SUB DUP3 AND PUSH2 0x2CD3 JUMPI PUSH1 0x40 MLOAD PUSH3 0x461BCD PUSH1 0xE5 SHL DUP2 MSTORE PUSH1 0x20 PUSH1 0x4 DUP3 ADD MSTORE PUSH1 0x21 PUSH1 0x24 DUP3 ADD MSTORE PUSH32 0x45524332303A206275726E2066726F6D20746865207A65726F20616464726573 PUSH1 0x44 DUP3 ADD MSTORE PUSH1 0x73 PUSH1 0xF8 SHL PUSH1 0x64 DUP3 ADD MSTORE PUSH1 0x84 ADD PUSH2 0x72E JUMP JUMPDEST PUSH1 0x1 PUSH1 0x1 PUSH1 0xA0 SHL SUB DUP3 AND PUSH1 0x0 SWAP1 DUP2 MSTORE PUSH1 0x66 PUSH1 0x20 MSTORE PUSH1 0x40 SWAP1 KECCAK256 SLOAD PUSH2 0x2CF7 SWAP1 DUP3 SWAP1 PUSH2 0x3385 JUMP JUMPDEST PUSH1 0x1 PUSH1 0x1 PUSH1 0xA0 SHL SUB DUP4 AND PUSH1 0x0 SWAP1 DUP2 MSTORE PUSH1 0x66 PUSH1 0x20 MSTORE PUSH1 0x40 SWAP1 KECCAK256 SSTORE PUSH1 0x68 SLOAD PUSH2 0x2D1E SWAP1 DUP3 SWAP1 PUSH2 0x3385 JUMP JUMPDEST PUSH1 0x68 SSTORE PUSH1 0x40 MLOAD DUP2 DUP2 MSTORE PUSH1 0x0 SWAP1 PUSH1 0x1 PUSH1 0x1 PUSH1 0xA0 SHL SUB DUP5 AND SWAP1 PUSH32 0xDDF252AD1BE2C89B69C2B068FC378DAA952BA7F163C4A11628F55A4DF523B3EF SWAP1 PUSH1 0x20 ADD PUSH2 0x2B17 JUMP JUMPDEST PUSH1 0x0 SLOAD PUSH2 0x100 SWAP1 DIV PUSH1 0xFF AND PUSH2 0x2D86 JUMPI PUSH1 0x40 MLOAD PUSH3 0x461BCD PUSH1 0xE5 SHL DUP2 MSTORE PUSH1 0x4 ADD PUSH2 0x72E SWAP1 PUSH2 0x3724 JUMP JUMPDEST PUSH2 0x129D PUSH2 0x2D93 JUMP JUMPDEST POP POP POP JUMP JUMPDEST PUSH1 0x0 SLOAD PUSH2 0x100 SWAP1 DIV PUSH1 0xFF AND PUSH2 0x2DBA JUMPI PUSH1 0x40 MLOAD PUSH3 0x461BCD PUSH1 0xE5 SHL DUP2 MSTORE PUSH1 0x4 ADD PUSH2 0x72E SWAP1 PUSH2 0x3724 JUMP JUMPDEST PUSH2 0x129D CALLER PUSH2 0x2B23 JUMP JUMPDEST PUSH1 0x0 DUP2 MLOAD DUP1 DUP5 MSTORE PUSH1 0x0 JUMPDEST DUP2 DUP2 LT ISZERO PUSH2 0x2DE9 JUMPI PUSH1 0x20 DUP2 DUP6 ADD DUP2 ADD MLOAD DUP7 DUP4 ADD DUP3 ADD MSTORE ADD PUSH2 0x2DCD JUMP JUMPDEST POP PUSH1 0x0 PUSH1 0x20 DUP3 DUP7 ADD ADD MSTORE PUSH1 0x20 PUSH1 0x1F NOT PUSH1 0x1F DUP4 ADD AND DUP6 ADD ADD SWAP2 POP POP SWAP3 SWAP2 POP POP JUMP JUMPDEST PUSH1 0x20 DUP2 MSTORE PUSH1 0x0 PUSH2 0xCE6 PUSH1 0x20 DUP4 ADD DUP5 PUSH2 0x2DC3 JUMP JUMPDEST DUP1 CALLDATALOAD PUSH1 0x1 PUSH1 0x1 PUSH1 0xA0 SHL SUB DUP2 AND DUP2 EQ PUSH2 0x2E33 JUMPI PUSH1 0x0 DUP1 REVERT JUMPDEST SWAP2 SWAP1 POP JUMP JUMPDEST PUSH1 0x0 DUP1 PUSH1 0x40 DUP4 DUP6 SUB SLT ISZERO PUSH2 0x2E4B JUMPI PUSH1 0x0 DUP1 REVERT JUMPDEST PUSH2 0x2E54 DUP4 PUSH2 0x2E1C JUMP JUMPDEST SWAP5 PUSH1 0x20 SWAP4 SWAP1 SWAP4 ADD CALLDATALOAD SWAP4 POP POP POP JUMP JUMPDEST PUSH1 0x0 PUSH1 0x20 DUP3 DUP5 SUB SLT ISZERO PUSH2 0x2E74 JUMPI PUSH1 0x0 DUP1 REVERT JUMPDEST PUSH2 0xCE6 DUP3 PUSH2 0x2E1C JUMP JUMPDEST PUSH1 0x0 DUP1 DUP4 PUSH1 0x1F DUP5 ADD SLT PUSH2 0x2E8F JUMPI PUSH1 0x0 DUP1 REVERT JUMPDEST POP DUP2 CALLDATALOAD PUSH8 0xFFFFFFFFFFFFFFFF DUP2 GT ISZERO PUSH2 0x2EA7 JUMPI PUSH1 0x0 DUP1 REVERT JUMPDEST PUSH1 0x20 DUP4 ADD SWAP2 POP DUP4 PUSH1 0x20 DUP3 PUSH1 0x5 SHL DUP6 ADD ADD GT ISZERO PUSH2 0x2EC2 JUMPI PUSH1 0x0 DUP1 REVERT JUMPDEST SWAP3 POP SWAP3 SWAP1 POP JUMP JUMPDEST PUSH1 0x0 DUP1 PUSH1 0x0 DUP1 PUSH1 0x40 DUP6 DUP8 SUB SLT ISZERO PUSH2 0x2EDF JUMPI PUSH1 0x0 DUP1 REVERT JUMPDEST DUP5 CALLDATALOAD PUSH8 0xFFFFFFFFFFFFFFFF DUP1 DUP3 GT ISZERO PUSH2 0x2EF7 JUMPI PUSH1 0x0 DUP1 REVERT JUMPDEST PUSH2 0x2F03 DUP9 DUP4 DUP10 ADD PUSH2 0x2E7D JUMP JUMPDEST SWAP1 SWAP7 POP SWAP5 POP PUSH1 0x20 DUP8 ADD CALLDATALOAD SWAP2 POP DUP1 DUP3 GT ISZERO PUSH2 0x2F1C JUMPI PUSH1 0x0 DUP1 REVERT JUMPDEST POP PUSH2 0x2F29 DUP8 DUP3 DUP9 ADD PUSH2 0x2E7D JUMP JUMPDEST SWAP6 SWAP9 SWAP5 SWAP8 POP SWAP6 POP POP POP POP JUMP JUMPDEST PUSH1 0x0 DUP1 PUSH1 0x0 PUSH1 0x60 DUP5 DUP7 SUB SLT ISZERO PUSH2 0x2F4A JUMPI PUSH1 0x0 DUP1 REVERT JUMPDEST PUSH2 0x2F53 DUP5 PUSH2 0x2E1C JUMP JUMPDEST SWAP3 POP PUSH2 0x2F61 PUSH1 0x20 DUP6 ADD PUSH2 0x2E1C JUMP JUMPDEST SWAP2 POP PUSH1 0x40 DUP5 ADD CALLDATALOAD SWAP1 POP SWAP3 POP SWAP3 POP SWAP3 JUMP JUMPDEST PUSH1 0x0 DUP1 PUSH1 0x0 DUP1 PUSH1 0x0 DUP1 PUSH1 0x60 DUP8 DUP10 SUB SLT ISZERO PUSH2 0x2F8A JUMPI PUSH1 0x0 DUP1 REVERT JUMPDEST DUP7 CALLDATALOAD PUSH8 0xFFFFFFFFFFFFFFFF DUP1 DUP3 GT ISZERO PUSH2 0x2FA2 JUMPI PUSH1 0x0 DUP1 REVERT JUMPDEST PUSH2 0x2FAE DUP11 DUP4 DUP12 ADD PUSH2 0x2E7D JUMP JUMPDEST SWAP1 SWAP9 POP SWAP7 POP PUSH1 0x20 DUP10 ADD CALLDATALOAD SWAP2 POP DUP1 DUP3 GT ISZERO PUSH2 0x2FC7 JUMPI PUSH1 0x0 DUP1 REVERT JUMPDEST PUSH2 0x2FD3 DUP11 DUP4 DUP12 ADD PUSH2 0x2E7D JUMP JUMPDEST SWAP1 SWAP7 POP SWAP5 POP PUSH1 0x40 DUP10 ADD CALLDATALOAD SWAP2 POP DUP1 DUP3 GT ISZERO PUSH2 0x2FEC JUMPI PUSH1 0x0 DUP1 REVERT JUMPDEST POP PUSH2 0x2FF9 DUP10 DUP3 DUP11 ADD PUSH2 0x2E7D JUMP JUMPDEST SWAP8 SWAP11 SWAP7 SWAP10 POP SWAP5 SWAP8 POP SWAP3 SWAP6 SWAP4 SWAP5 SWAP3 POP POP POP JUMP JUMPDEST PUSH1 0x0 DUP1 PUSH1 0x0 PUSH1 0x60 DUP5 DUP7 SUB SLT ISZERO PUSH2 0x3020 JUMPI PUSH1 0x0 DUP1 REVERT JUMPDEST PUSH2 0x3029 DUP5 PUSH2 0x2E1C JUMP JUMPDEST SWAP3 POP PUSH2 0x3037 PUSH1 0x20 DUP6 ADD PUSH2 0x2E1C JUMP JUMPDEST SWAP2 POP PUSH2 0x3045 PUSH1 0x40 DUP6 ADD PUSH2 0x2E1C JUMP JUMPDEST SWAP1 POP SWAP3 POP SWAP3 POP SWAP3 JUMP JUMPDEST PUSH1 0x0 DUP1 PUSH1 0x20 DUP4 DUP6 SUB SLT ISZERO PUSH2 0x3061 JUMPI PUSH1 0x0 DUP1 REVERT JUMPDEST DUP3 CALLDATALOAD PUSH8 0xFFFFFFFFFFFFFFFF DUP1 DUP3 GT ISZERO PUSH2 0x3079 JUMPI PUSH1 0x0 DUP1 REVERT JUMPDEST DUP2 DUP6 ADD SWAP2 POP DUP6 PUSH1 0x1F DUP4 ADD SLT PUSH2 0x308D JUMPI PUSH1 0x0 DUP1 REVERT JUMPDEST DUP2 CALLDATALOAD DUP2 DUP2 GT ISZERO PUSH2 0x309C JUMPI PUSH1 0x0 DUP1 REVERT JUMPDEST DUP7 PUSH1 0x20 DUP3 DUP6 ADD ADD GT ISZERO PUSH2 0x30AE JUMPI PUSH1 0x0 DUP1 REVERT JUMPDEST PUSH1 0x20 SWAP3 SWAP1 SWAP3 ADD SWAP7 SWAP2 SWAP6 POP SWAP1 SWAP4 POP POP POP POP JUMP JUMPDEST DUP1 ISZERO ISZERO DUP2 EQ PUSH2 0x2171 JUMPI PUSH1 0x0 DUP1 REVERT JUMPDEST PUSH1 0x0 DUP1 PUSH1 0x40 DUP4 DUP6 SUB SLT ISZERO PUSH2 0x30E1 JUMPI PUSH1 0x0 DUP1 REVERT JUMPDEST PUSH2 0x30EA DUP4 PUSH2 0x2E1C JUMP JUMPDEST SWAP2 POP PUSH1 0x20 DUP4 ADD CALLDATALOAD PUSH2 0x30FA DUP2 PUSH2 0x30C0 JUMP JUMPDEST DUP1 SWAP2 POP POP SWAP3 POP SWAP3 SWAP1 POP JUMP JUMPDEST PUSH1 0x0 DUP1 PUSH1 0x40 DUP4 DUP6 SUB SLT ISZERO PUSH2 0x3118 JUMPI PUSH1 0x0 DUP1 REVERT JUMPDEST PUSH2 0x3121 DUP4 PUSH2 0x2E1C JUMP JUMPDEST SWAP2 POP PUSH2 0x312F PUSH1 0x20 DUP5 ADD PUSH2 0x2E1C JUMP JUMPDEST SWAP1 POP SWAP3 POP SWAP3 SWAP1 POP JUMP JUMPDEST PUSH4 0x4E487B71 PUSH1 0xE0 SHL PUSH1 0x0 MSTORE PUSH1 0x41 PUSH1 0x4 MSTORE PUSH1 0x24 PUSH1 0x0 REVERT JUMPDEST PUSH1 0x0 DUP3 PUSH1 0x1F DUP4 ADD SLT PUSH2 0x315F JUMPI PUSH1 0x0 DUP1 REVERT JUMPDEST DUP2 CALLDATALOAD PUSH8 0xFFFFFFFFFFFFFFFF DUP1 DUP3 GT ISZERO PUSH2 0x317A JUMPI PUSH2 0x317A PUSH2 0x3138 JUMP JUMPDEST PUSH1 0x40 MLOAD PUSH1 0x1F DUP4 ADD PUSH1 0x1F NOT SWAP1 DUP2 AND PUSH1 0x3F ADD AND DUP2 ADD SWAP1 DUP3 DUP3 GT DUP2 DUP4 LT OR ISZERO PUSH2 0x31A2 JUMPI PUSH2 0x31A2 PUSH2 0x3138 JUMP JUMPDEST DUP2 PUSH1 0x40 MSTORE DUP4 DUP2 MSTORE DUP7 PUSH1 0x20 DUP6 DUP9 ADD ADD GT ISZERO PUSH2 0x31BB JUMPI PUSH1 0x0 DUP1 REVERT JUMPDEST DUP4 PUSH1 0x20 DUP8 ADD PUSH1 0x20 DUP4 ADD CALLDATACOPY PUSH1 0x0 PUSH1 0x20 DUP6 DUP4 ADD ADD MSTORE DUP1 SWAP5 POP POP POP POP POP SWAP3 SWAP2 POP POP JUMP JUMPDEST PUSH1 0x0 DUP1 PUSH1 0x0 DUP1 PUSH1 0x0 DUP1 PUSH1 0xC0 DUP8 DUP10 SUB SLT ISZERO PUSH2 0x31F4 JUMPI PUSH1 0x0 DUP1 REVERT JUMPDEST PUSH2 0x31FD DUP8 PUSH2 0x2E1C JUMP JUMPDEST SWAP6 POP PUSH2 0x320B PUSH1 0x20 DUP9 ADD PUSH2 0x2E1C JUMP JUMPDEST SWAP5 POP PUSH1 0x40 DUP8 ADD CALLDATALOAD PUSH8 0xFFFFFFFFFFFFFFFF DUP1 DUP3 GT ISZERO PUSH2 0x3228 JUMPI PUSH1 0x0 DUP1 REVERT JUMPDEST PUSH2 0x3234 DUP11 DUP4 DUP12 ADD PUSH2 0x314E JUMP JUMPDEST SWAP6 POP PUSH1 0x60 DUP10 ADD CALLDATALOAD SWAP2 POP DUP1 DUP3 GT ISZERO PUSH2 0x324A JUMPI PUSH1 0x0 DUP1 REVERT JUMPDEST POP PUSH2 0x3257 DUP10 DUP3 DUP11 ADD PUSH2 0x314E JUMP JUMPDEST SWAP4 POP POP PUSH1 0x80 DUP8 ADD CALLDATALOAD PUSH1 0xFF DUP2 AND DUP2 EQ PUSH2 0x326E JUMPI PUSH1 0x0 DUP1 REVERT JUMPDEST SWAP2 POP PUSH2 0x327C PUSH1 0xA0 DUP9 ADD PUSH2 0x2E1C JUMP JUMPDEST SWAP1 POP SWAP3 SWAP6 POP SWAP3 SWAP6 POP SWAP3 SWAP6 JUMP JUMPDEST PUSH1 0x1 DUP2 DUP2 SHR SWAP1 DUP3 AND DUP1 PUSH2 0x329C JUMPI PUSH1 0x7F DUP3 AND SWAP2 POP JUMPDEST PUSH1 0x20 DUP3 LT DUP2 SUB PUSH2 0x32BC JUMPI PUSH4 0x4E487B71 PUSH1 0xE0 SHL PUSH1 0x0 MSTORE PUSH1 0x22 PUSH1 0x4 MSTORE PUSH1 0x24 PUSH1 0x0 REVERT JUMPDEST POP SWAP2 SWAP1 POP JUMP JUMPDEST PUSH1 0x20 DUP1 DUP3 MSTORE PUSH1 0x2E SWAP1 DUP3 ADD MSTORE PUSH32 0x4167656E74526F6C653A2063616C6C657220646F6573206E6F74206861766520 PUSH1 0x40 DUP3 ADD MSTORE PUSH14 0x746865204167656E7420726F6C65 PUSH1 0x90 SHL PUSH1 0x60 DUP3 ADD MSTORE PUSH1 0x80 ADD SWAP1 JUMP JUMPDEST PUSH4 0x4E487B71 PUSH1 0xE0 SHL PUSH1 0x0 MSTORE PUSH1 0x11 PUSH1 0x4 MSTORE PUSH1 0x24 PUSH1 0x0 REVERT JUMPDEST DUP1 DUP3 ADD DUP1 DUP3 GT ISZERO PUSH2 0x703 JUMPI PUSH2 0x703 PUSH2 0x3310 JUMP JUMPDEST PUSH4 0x4E487B71 PUSH1 0xE0 SHL PUSH1 0x0 MSTORE PUSH1 0x32 PUSH1 0x4 MSTORE PUSH1 0x24 PUSH1 0x0 REVERT JUMPDEST PUSH1 0x0 PUSH1 0x20 DUP3 DUP5 SUB SLT ISZERO PUSH2 0x3361 JUMPI PUSH1 0x0 DUP1 REVERT JUMPDEST DUP2 CALLDATALOAD PUSH2 0xCE6 DUP2 PUSH2 0x30C0 JUMP JUMPDEST PUSH1 0x0 PUSH1 0x1 DUP3 ADD PUSH2 0x337E JUMPI PUSH2 0x337E PUSH2 0x3310 JUMP JUMPDEST POP PUSH1 0x1 ADD SWAP1 JUMP JUMPDEST DUP2 DUP2 SUB DUP2 DUP2 GT ISZERO PUSH2 0x703 JUMPI PUSH2 0x703 PUSH2 0x3310 JUMP JUMPDEST PUSH1 0x20 DUP1 DUP3 MSTORE PUSH1 0x10 SWAP1 DUP3 ADD MSTORE PUSH16 0x14185D5CD8589B194E881C185D5CD959 PUSH1 0x82 SHL PUSH1 0x40 DUP3 ADD MSTORE PUSH1 0x60 ADD SWAP1 JUMP JUMPDEST PUSH1 0x0 PUSH1 0x20 DUP3 DUP5 SUB SLT ISZERO PUSH2 0x33D4 JUMPI PUSH1 0x0 DUP1 REVERT JUMPDEST DUP2 MLOAD PUSH2 0xCE6 DUP2 PUSH2 0x30C0 JUMP JUMPDEST PUSH1 0x1 PUSH1 0x1 PUSH1 0xA0 SHL SUB SWAP4 DUP5 AND DUP2 MSTORE SWAP2 SWAP1 SWAP3 AND PUSH1 0x20 DUP3 ADD MSTORE PUSH1 0x40 DUP2 ADD SWAP2 SWAP1 SWAP2 MSTORE PUSH1 0x60 ADD SWAP1 JUMP JUMPDEST PUSH1 0x0 DUP1 DUP4 SLOAD PUSH2 0x3411 DUP2 PUSH2 0x3288 JUMP JUMPDEST PUSH1 0x1 DUP3 DUP2 AND DUP1 ISZERO PUSH2 0x3429 JUMPI PUSH1 0x1 DUP2 EQ PUSH2 0x343E JUMPI PUSH2 0x346D JUMP JUMPDEST PUSH1 0xFF NOT DUP5 AND DUP8 MSTORE DUP3 ISZERO ISZERO DUP4 MUL DUP8 ADD SWAP5 POP PUSH2 0x346D JUMP JUMPDEST DUP8 PUSH1 0x0 MSTORE PUSH1 0x20 DUP1 PUSH1 0x0 KECCAK256 PUSH1 0x0 JUMPDEST DUP6 DUP2 LT ISZERO PUSH2 0x3464 JUMPI DUP2 SLOAD DUP11 DUP3 ADD MSTORE SWAP1 DUP5 ADD SWAP1 DUP3 ADD PUSH2 0x344B JUMP JUMPDEST POP POP POP DUP3 DUP8 ADD SWAP5 POP JUMPDEST POP SWAP3 SWAP7 SWAP6 POP POP POP POP POP POP JUMP JUMPDEST PUSH1 0xFF DUP4 AND DUP2 MSTORE PUSH1 0x40 PUSH1 0x20 DUP3 ADD MSTORE PUSH1 0x0 PUSH2 0x3495 PUSH1 0x40 DUP4 ADD DUP5 PUSH2 0x2DC3 JUMP JUMPDEST SWAP5 SWAP4 POP POP POP POP JUMP JUMPDEST PUSH1 0x20 DUP1 DUP3 MSTORE PUSH1 0x1F SWAP1 DUP3 ADD MSTORE PUSH32 0x696E76616C696420617267756D656E74202D207A65726F206164647265737300 PUSH1 0x40 DUP3 ADD MSTORE PUSH1 0x60 ADD SWAP1 JUMP JUMPDEST PUSH1 0x0 PUSH1 0x20 DUP3 DUP5 SUB SLT ISZERO PUSH2 0x34E6 JUMPI PUSH1 0x0 DUP1 REVERT JUMPDEST DUP2 MLOAD PUSH2 0xFFFF DUP2 AND DUP2 EQ PUSH2 0xCE6 JUMPI PUSH1 0x0 DUP1 REVERT JUMPDEST PUSH1 0x20 DUP2 MSTORE DUP2 PUSH1 0x20 DUP3 ADD MSTORE DUP2 DUP4 PUSH1 0x40 DUP4 ADD CALLDATACOPY PUSH1 0x0 DUP2 DUP4 ADD PUSH1 0x40 SWAP1 DUP2 ADD SWAP2 SWAP1 SWAP2 MSTORE PUSH1 0x1F SWAP1 SWAP3 ADD PUSH1 0x1F NOT AND ADD ADD SWAP2 SWAP1 POP JUMP JUMPDEST PUSH1 0x20 DUP1 DUP3 MSTORE PUSH1 0x1F SWAP1 DUP3 ADD MSTORE PUSH32 0x696E76616C696420617267756D656E74202D20656D70747920737472696E6700 PUSH1 0x40 DUP3 ADD MSTORE PUSH1 0x60 ADD SWAP1 JUMP JUMPDEST PUSH1 0x1F DUP3 GT ISZERO PUSH2 0x2D8E JUMPI PUSH1 0x0 DUP2 DUP2 MSTORE PUSH1 0x20 DUP2 KECCAK256 PUSH1 0x1F DUP6 ADD PUSH1 0x5 SHR DUP2 ADD PUSH1 0x20 DUP7 LT ISZERO PUSH2 0x3585 JUMPI POP DUP1 JUMPDEST PUSH1 0x1F DUP6 ADD PUSH1 0x5 SHR DUP3 ADD SWAP2 POP JUMPDEST DUP2 DUP2 LT ISZERO PUSH2 0x10A3 JUMPI DUP3 DUP2 SSTORE PUSH1 0x1 ADD PUSH2 0x3591 JUMP JUMPDEST PUSH8 0xFFFFFFFFFFFFFFFF DUP4 GT ISZERO PUSH2 0x35BC JUMPI PUSH2 0x35BC PUSH2 0x3138 JUMP JUMPDEST PUSH2 0x35D0 DUP4 PUSH2 0x35CA DUP4 SLOAD PUSH2 0x3288 JUMP JUMPDEST DUP4 PUSH2 0x355E JUMP JUMPDEST PUSH1 0x0 PUSH1 0x1F DUP5 GT PUSH1 0x1 DUP2 EQ PUSH2 0x3604 JUMPI PUSH1 0x0 DUP6 ISZERO PUSH2 0x35EC JUMPI POP DUP4 DUP3 ADD CALLDATALOAD JUMPDEST PUSH1 0x0 NOT PUSH1 0x3 DUP8 SWAP1 SHL SHR NOT AND PUSH1 0x1 DUP7 SWAP1 SHL OR DUP4 SSTORE PUSH2 0x8A6 JUMP JUMPDEST PUSH1 0x0 DUP4 DUP2 MSTORE PUSH1 0x20 SWAP1 KECCAK256 PUSH1 0x1F NOT DUP7 AND SWAP1 DUP4 JUMPDEST DUP3 DUP2 LT ISZERO PUSH2 0x3635 JUMPI DUP7 DUP6 ADD CALLDATALOAD DUP3 SSTORE PUSH1 0x20 SWAP5 DUP6 ADD SWAP5 PUSH1 0x1 SWAP1 SWAP3 ADD SWAP2 ADD PUSH2 0x3615 JUMP JUMPDEST POP DUP7 DUP3 LT ISZERO PUSH2 0x3652 JUMPI PUSH1 0x0 NOT PUSH1 0xF8 DUP9 PUSH1 0x3 SHL AND SHR NOT DUP5 DUP8 ADD CALLDATALOAD AND DUP2 SSTORE JUMPDEST POP POP PUSH1 0x1 DUP6 PUSH1 0x1 SHL ADD DUP4 SSTORE POP POP POP POP POP JUMP JUMPDEST DUP2 MLOAD PUSH8 0xFFFFFFFFFFFFFFFF DUP2 GT ISZERO PUSH2 0x367E JUMPI PUSH2 0x367E PUSH2 0x3138 JUMP JUMPDEST PUSH2 0x3692 DUP2 PUSH2 0x368C DUP5 SLOAD PUSH2 0x3288 JUMP JUMPDEST DUP5 PUSH2 0x355E JUMP JUMPDEST PUSH1 0x20 DUP1 PUSH1 0x1F DUP4 GT PUSH1 0x1 DUP2 EQ PUSH2 0x36C7 JUMPI PUSH1 0x0 DUP5 ISZERO PUSH2 0x36AF JUMPI POP DUP6 DUP4 ADD MLOAD JUMPDEST PUSH1 0x0 NOT PUSH1 0x3 DUP7 SWAP1 SHL SHR NOT AND PUSH1 0x1 DUP6 SWAP1 SHL OR DUP6 SSTORE PUSH2 0x10A3 JUMP JUMPDEST PUSH1 0x0 DUP6 DUP2 MSTORE PUSH1 0x20 DUP2 KECCAK256 PUSH1 0x1F NOT DUP7 AND SWAP2 JUMPDEST DUP3 DUP2 LT ISZERO PUSH2 0x36F6 JUMPI DUP9 DUP7 ADD MLOAD DUP3 SSTORE SWAP5 DUP5 ADD SWAP5 PUSH1 0x1 SWAP1 SWAP2 ADD SWAP1 DUP5 ADD PUSH2 0x36D7 JUMP JUMPDEST POP DUP6 DUP3 LT ISZERO PUSH2 0x3714 JUMPI DUP8 DUP6 ADD MLOAD PUSH1 0x0 NOT PUSH1 0x3 DUP9 SWAP1 SHL PUSH1 0xF8 AND SHR NOT AND DUP2 SSTORE JUMPDEST POP POP POP POP POP PUSH1 0x1 SWAP1 DUP2 SHL ADD SWAP1 SSTORE POP JUMP JUMPDEST PUSH1 0x20 DUP1 DUP3 MSTORE PUSH1 0x2B SWAP1 DUP3 ADD MSTORE PUSH32 0x496E697469616C697A61626C653A20636F6E7472616374206973206E6F742069 PUSH1 0x40 DUP3 ADD MSTORE PUSH11 0x6E697469616C697A696E67 PUSH1 0xA8 SHL PUSH1 0x60 DUP3 ADD MSTORE PUSH1 0x80 ADD SWAP1 JUMP INVALID LOG2 PUSH5 0x6970667358 0x22 SLT KECCAK256 0xB9 MSIZE 0x4A DUP9 0xC5 0xD3 0xAA 0xEB PUSH19 0x97FCF3491A597DE5B1BA46EA2D2F5AF980E9DB PUSH27 0xA0AA7664736F6C6343000811003300000000000000000000000000 "
		},
		"gasEstimates": {
			"creation": {
				"codeDepositCost": "2849000",
				"executionCost": "27333",
				"totalCost": "2876333"
			},
			"external": {
				"addAgent(address)": "30393",
				"allowance(address,address)": "infinite",
				"approve(address,uint256)": "24667",
				"balanceOf(address)": "2704",
				"batchBurn(address[],uint256[])": "infinite",
				"batchForcedTransfer(address[],address[],uint256[])": "infinite",
				"batchFreezePartialTokens(address[],uint256[])": "infinite",
				"batchMint(address[],uint256[])": "infinite",
				"batchSetAddressFrozen(address[],bool[])": "infinite",
				"batchTransfer(address[],uint256[])": "infinite",
				"batchUnfreezePartialTokens(address[],uint256[])": "infinite",
				"burn(address,uint256)": "infinite",
				"compliance()": "2442",
				"decimals()": "2445",
				"decreaseAllowance(address,uint256)": "infinite",
				"forcedTransfer(address,address,uint256)": "infinite",
				"freezePartialTokens(address,uint256)": "infinite",
				"getFrozenTokens(address)": "2672",
				"identityRegistry()": "2444",
				"increaseAllowance(address,uint256)": "infinite",
				"init(address,address,string,string,uint8,address)": "infinite",
				"isAgent(address)": "2762",
				"isFrozen(address)": "2615",
				"mint(address,uint256)": "infinite",
				"name()": "infinite",
				"onchainID()": "2409",
				"owner()": "2465",
				"pause()": "29955",
				"paused()": "2393",
				"recoveryAddress(address,address,address)": "infinite",
				"removeAgent(address)": "30383",
				"renounceOwnership()": "infinite",
				"setAddressFrozen(address,bool)": "29080",
				"setCompliance(address)": "infinite",
				"setIdentityRegistry(address)": "28046",
				"setName(string)": "infinite",
				"setOnchainID(address)": "infinite",
				"setSymbol(string)": "infinite",
				"symbol()": "infinite",
				"totalSupply()": "2338",
				"transfer(address,uint256)": "infinite",
				"transferFrom(address,address,uint256)": "infinite",
				"transferOwnership(address)": "28424",
				"unfreezePartialTokens(address,uint256)": "infinite",
				"unpause()": "29957",
				"version()": "infinite"
			},
			"internal": {
				"_approve(address,address,uint256)": "infinite",
				"_beforeTokenTransfer(address,address,uint256)": "15",
				"_burn(address,uint256)": "infinite",
				"_mint(address,uint256)": "infinite",
				"_transfer(address,address,uint256)": "infinite"
			}
		},
		"methodIdentifiers": {
			"addAgent(address)": "84e79842",
			"allowance(address,address)": "dd62ed3e",
			"approve(address,uint256)": "095ea7b3",
			"balanceOf(address)": "70a08231",
			"batchBurn(address[],uint256[])": "4a6cc677",
			"batchForcedTransfer(address[],address[],uint256[])": "42a47abc",
			"batchFreezePartialTokens(address[],uint256[])": "fc7e5fa8",
			"batchMint(address[],uint256[])": "68573107",
			"batchSetAddressFrozen(address[],bool[])": "1a7af379",
			"batchTransfer(address[],uint256[])": "88d695b2",
			"batchUnfreezePartialTokens(address[],uint256[])": "4710362d",
			"burn(address,uint256)": "9dc29fac",
			"compliance()": "6290865d",
			"decimals()": "313ce567",
			"decreaseAllowance(address,uint256)": "a457c2d7",
			"forcedTransfer(address,address,uint256)": "9fc1d0e7",
			"freezePartialTokens(address,uint256)": "125c4a33",
			"getFrozenTokens(address)": "158b1a57",
			"identityRegistry()": "134e18f4",
			"increaseAllowance(address,uint256)": "39509351",
			"init(address,address,string,string,uint8,address)": "f91b619c",
			"isAgent(address)": "1ffbb064",
			"isFrozen(address)": "e5839836",
			"mint(address,uint256)": "40c10f19",
			"name()": "06fdde03",
			"onchainID()": "aba63705",
			"owner()": "8da5cb5b",
			"pause()": "8456cb59",
			"paused()": "5c975abb",
			"recoveryAddress(address,address,address)": "9285948a",
			"removeAgent(address)": "97a6278e",
			"renounceOwnership()": "715018a6",
			"setAddressFrozen(address,bool)": "c69c09cf",
			"setCompliance(address)": "f8981789",
			"setIdentityRegistry(address)": "cbf3f861",
			"setName(string)": "c47f0027",
			"setOnchainID(address)": "3d1ddc5b",
			"setSymbol(string)": "b84c8246",
			"symbol()": "95d89b41",
			"totalSupply()": "18160ddd",
			"transfer(address,uint256)": "a9059cbb",
			"transferFrom(address,address,uint256)": "23b872dd",
			"transferOwnership(address)": "f2fde38b",
			"unfreezePartialTokens(address,uint256)": "1fe56f7d",
			"unpause()": "3f4ba83a",
			"version()": "54fd4d50"
		}
	},
	"abi": [
		{
			"anonymous": false,
			"inputs": [
				{
					"indexed": true,
					"internalType": "address",
					"name": "_userAddress",
					"type": "address"
				},
				{
					"indexed": true,
					"internalType": "bool",
					"name": "_isFrozen",
					"type": "bool"
				},
				{
					"indexed": true,
					"internalType": "address",
					"name": "_owner",
					"type": "address"
				}
			],
			"name": "AddressFrozen",
			"type": "event"
		},
		{
			"anonymous": false,
			"inputs": [
				{
					"indexed": true,
					"internalType": "address",
					"name": "_agent",
					"type": "address"
				}
			],
			"name": "AgentAdded",
			"type": "event"
		},
		{
			"anonymous": false,
			"inputs": [
				{
					"indexed": true,
					"internalType": "address",
					"name": "_agent",
					"type": "address"
				}
			],
			"name": "AgentRemoved",
			"type": "event"
		},
		{
			"anonymous": false,
			"inputs": [
				{
					"indexed": true,
					"internalType": "address",
					"name": "owner",
					"type": "address"
				},
				{
					"indexed": true,
					"internalType": "address",
					"name": "spender",
					"type": "address"
				},
				{
					"indexed": false,
					"internalType": "uint256",
					"name": "value",
					"type": "uint256"
				}
			],
			"name": "Approval",
			"type": "event"
		},
		{
			"anonymous": false,
			"inputs": [
				{
					"indexed": true,
					"internalType": "address",
					"name": "_compliance",
					"type": "address"
				}
			],
			"name": "ComplianceAdded",
			"type": "event"
		},
		{
			"anonymous": false,
			"inputs": [
				{
					"indexed": true,
					"internalType": "address",
					"name": "_identityRegistry",
					"type": "address"
				}
			],
			"name": "IdentityRegistryAdded",
			"type": "event"
		},
		{
			"anonymous": false,
			"inputs": [
				{
					"indexed": false,
					"internalType": "uint8",
					"name": "version",
					"type": "uint8"
				}
			],
			"name": "Initialized",
			"type": "event"
		},
		{
			"anonymous": false,
			"inputs": [
				{
					"indexed": true,
					"internalType": "address",
					"name": "previousOwner",
					"type": "address"
				},
				{
					"indexed": true,
					"internalType": "address",
					"name": "newOwner",
					"type": "address"
				}
			],
			"name": "OwnershipTransferred",
			"type": "event"
		},
		{
			"anonymous": false,
			"inputs": [
				{
					"indexed": false,
					"internalType": "address",
					"name": "_userAddress",
					"type": "address"
				}
			],
			"name": "Paused",
			"type": "event"
		},
		{
			"anonymous": false,
			"inputs": [
				{
					"indexed": true,
					"internalType": "address",
					"name": "_lostWallet",
					"type": "address"
				},
				{
					"indexed": true,
					"internalType": "address",
					"name": "_newWallet",
					"type": "address"
				},
				{
					"indexed": true,
					"internalType": "address",
					"name": "_investorOnchainID",
					"type": "address"
				}
			],
			"name": "RecoverySuccess",
			"type": "event"
		},
		{
			"anonymous": false,
			"inputs": [
				{
					"indexed": true,
					"internalType": "address",
					"name": "_userAddress",
					"type": "address"
				},
				{
					"indexed": false,
					"internalType": "uint256",
					"name": "_amount",
					"type": "uint256"
				}
			],
			"name": "TokensFrozen",
			"type": "event"
		},
		{
			"anonymous": false,
			"inputs": [
				{
					"indexed": true,
					"internalType": "address",
					"name": "_userAddress",
					"type": "address"
				},
				{
					"indexed": false,
					"internalType": "uint256",
					"name": "_amount",
					"type": "uint256"
				}
			],
			"name": "TokensUnfrozen",
			"type": "event"
		},
		{
			"anonymous": false,
			"inputs": [
				{
					"indexed": true,
					"internalType": "address",
					"name": "from",
					"type": "address"
				},
				{
					"indexed": true,
					"internalType": "address",
					"name": "to",
					"type": "address"
				},
				{
					"indexed": false,
					"internalType": "uint256",
					"name": "value",
					"type": "uint256"
				}
			],
			"name": "Transfer",
			"type": "event"
		},
		{
			"anonymous": false,
			"inputs": [
				{
					"indexed": false,
					"internalType": "address",
					"name": "_userAddress",
					"type": "address"
				}
			],
			"name": "Unpaused",
			"type": "event"
		},
		{
			"anonymous": false,
			"inputs": [
				{
					"indexed": true,
					"internalType": "string",
					"name": "_newName",
					"type": "string"
				},
				{
					"indexed": true,
					"internalType": "string",
					"name": "_newSymbol",
					"type": "string"
				},
				{
					"indexed": false,
					"internalType": "uint8",
					"name": "_newDecimals",
					"type": "uint8"
				},
				{
					"indexed": false,
					"internalType": "string",
					"name": "_newVersion",
					"type": "string"
				},
				{
					"indexed": true,
					"internalType": "address",
					"name": "_newOnchainID",
					"type": "address"
				}
			],
			"name": "UpdatedTokenInformation",
			"type": "event"
		},
		{
			"inputs": [
				{
					"internalType": "address",
					"name": "_agent",
					"type": "address"
				}
			],
			"name": "addAgent",
			"outputs": [],
			"stateMutability": "nonpayable",
			"type": "function"
		},
		{
			"inputs": [
				{
					"internalType": "address",
					"name": "_owner",
					"type": "address"
				},
				{
					"internalType": "address",
					"name": "_spender",
					"type": "address"
				}
			],
			"name": "allowance",
			"outputs": [
				{
					"internalType": "uint256",
					"name": "",
					"type": "uint256"
				}
			],
			"stateMutability": "view",
			"type": "function"
		},
		{
			"inputs": [
				{
					"internalType": "address",
					"name": "_spender",
					"type": "address"
				},
				{
					"internalType": "uint256",
					"name": "_amount",
					"type": "uint256"
				}
			],
			"name": "approve",
			"outputs": [
				{
					"internalType": "bool",
					"name": "",
					"type": "bool"
				}
			],
			"stateMutability": "nonpayable",
			"type": "function"
		},
		{
			"inputs": [
				{
					"internalType": "address",
					"name": "_userAddress",
					"type": "address"
				}
			],
			"name": "balanceOf",
			"outputs": [
				{
					"internalType": "uint256",
					"name": "",
					"type": "uint256"
				}
			],
			"stateMutability": "view",
			"type": "function"
		},
		{
			"inputs": [
				{
					"internalType": "address[]",
					"name": "_userAddresses",
					"type": "address[]"
				},
				{
					"internalType": "uint256[]",
					"name": "_amounts",
					"type": "uint256[]"
				}
			],
			"name": "batchBurn",
			"outputs": [],
			"stateMutability": "nonpayable",
			"type": "function"
		},
		{
			"inputs": [
				{
					"internalType": "address[]",
					"name": "_fromList",
					"type": "address[]"
				},
				{
					"internalType": "address[]",
					"name": "_toList",
					"type": "address[]"
				},
				{
					"internalType": "uint256[]",
					"name": "_amounts",
					"type": "uint256[]"
				}
			],
			"name": "batchForcedTransfer",
			"outputs": [],
			"stateMutability": "nonpayable",
			"type": "function"
		},
		{
			"inputs": [
				{
					"internalType": "address[]",
					"name": "_userAddresses",
					"type": "address[]"
				},
				{
					"internalType": "uint256[]",
					"name": "_amounts",
					"type": "uint256[]"
				}
			],
			"name": "batchFreezePartialTokens",
			"outputs": [],
			"stateMutability": "nonpayable",
			"type": "function"
		},
		{
			"inputs": [
				{
					"internalType": "address[]",
					"name": "_toList",
					"type": "address[]"
				},
				{
					"internalType": "uint256[]",
					"name": "_amounts",
					"type": "uint256[]"
				}
			],
			"name": "batchMint",
			"outputs": [],
			"stateMutability": "nonpayable",
			"type": "function"
		},
		{
			"inputs": [
				{
					"internalType": "address[]",
					"name": "_userAddresses",
					"type": "address[]"
				},
				{
					"internalType": "bool[]",
					"name": "_freeze",
					"type": "bool[]"
				}
			],
			"name": "batchSetAddressFrozen",
			"outputs": [],
			"stateMutability": "nonpayable",
			"type": "function"
		},
		{
			"inputs": [
				{
					"internalType": "address[]",
					"name": "_toList",
					"type": "address[]"
				},
				{
					"internalType": "uint256[]",
					"name": "_amounts",
					"type": "uint256[]"
				}
			],
			"name": "batchTransfer",
			"outputs": [],
			"stateMutability": "nonpayable",
			"type": "function"
		},
		{
			"inputs": [
				{
					"internalType": "address[]",
					"name": "_userAddresses",
					"type": "address[]"
				},
				{
					"internalType": "uint256[]",
					"name": "_amounts",
					"type": "uint256[]"
				}
			],
			"name": "batchUnfreezePartialTokens",
			"outputs": [],
			"stateMutability": "nonpayable",
			"type": "function"
		},
		{
			"inputs": [
				{
					"internalType": "address",
					"name": "_userAddress",
					"type": "address"
				},
				{
					"internalType": "uint256",
					"name": "_amount",
					"type": "uint256"
				}
			],
			"name": "burn",
			"outputs": [],
			"stateMutability": "nonpayable",
			"type": "function"
		},
		{
			"inputs": [],
			"name": "compliance",
			"outputs": [
				{
					"internalType": "contract IModularCompliance",
					"name": "",
					"type": "address"
				}
			],
			"stateMutability": "view",
			"type": "function"
		},
		{
			"inputs": [],
			"name": "decimals",
			"outputs": [
				{
					"internalType": "uint8",
					"name": "",
					"type": "uint8"
				}
			],
			"stateMutability": "view",
			"type": "function"
		},
		{
			"inputs": [
				{
					"internalType": "address",
					"name": "_spender",
					"type": "address"
				},
				{
					"internalType": "uint256",
					"name": "_subtractedValue",
					"type": "uint256"
				}
			],
			"name": "decreaseAllowance",
			"outputs": [
				{
					"internalType": "bool",
					"name": "",
					"type": "bool"
				}
			],
			"stateMutability": "nonpayable",
			"type": "function"
		},
		{
			"inputs": [
				{
					"internalType": "address",
					"name": "_from",
					"type": "address"
				},
				{
					"internalType": "address",
					"name": "_to",
					"type": "address"
				},
				{
					"internalType": "uint256",
					"name": "_amount",
					"type": "uint256"
				}
			],
			"name": "forcedTransfer",
			"outputs": [
				{
					"internalType": "bool",
					"name": "",
					"type": "bool"
				}
			],
			"stateMutability": "nonpayable",
			"type": "function"
		},
		{
			"inputs": [
				{
					"internalType": "address",
					"name": "_userAddress",
					"type": "address"
				},
				{
					"internalType": "uint256",
					"name": "_amount",
					"type": "uint256"
				}
			],
			"name": "freezePartialTokens",
			"outputs": [],
			"stateMutability": "nonpayable",
			"type": "function"
		},
		{
			"inputs": [
				{
					"internalType": "address",
					"name": "_userAddress",
					"type": "address"
				}
			],
			"name": "getFrozenTokens",
			"outputs": [
				{
					"internalType": "uint256",
					"name": "",
					"type": "uint256"
				}
			],
			"stateMutability": "view",
			"type": "function"
		},
		{
			"inputs": [],
			"name": "identityRegistry",
			"outputs": [
				{
					"internalType": "contract IIdentityRegistry",
					"name": "",
					"type": "address"
				}
			],
			"stateMutability": "view",
			"type": "function"
		},
		{
			"inputs": [
				{
					"internalType": "address",
					"name": "_spender",
					"type": "address"
				},
				{
					"internalType": "uint256",
					"name": "_addedValue",
					"type": "uint256"
				}
			],
			"name": "increaseAllowance",
			"outputs": [
				{
					"internalType": "bool",
					"name": "",
					"type": "bool"
				}
			],
			"stateMutability": "nonpayable",
			"type": "function"
		},
		{
			"inputs": [
				{
					"internalType": "address",
					"name": "_identityRegistry",
					"type": "address"
				},
				{
					"internalType": "address",
					"name": "_compliance",
					"type": "address"
				},
				{
					"internalType": "string",
					"name": "_name",
					"type": "string"
				},
				{
					"internalType": "string",
					"name": "_symbol",
					"type": "string"
				},
				{
					"internalType": "uint8",
					"name": "_decimals",
					"type": "uint8"
				},
				{
					"internalType": "address",
					"name": "_onchainID",
					"type": "address"
				}
			],
			"name": "init",
			"outputs": [],
			"stateMutability": "nonpayable",
			"type": "function"
		},
		{
			"inputs": [
				{
					"internalType": "address",
					"name": "_agent",
					"type": "address"
				}
			],
			"name": "isAgent",
			"outputs": [
				{
					"internalType": "bool",
					"name": "",
					"type": "bool"
				}
			],
			"stateMutability": "view",
			"type": "function"
		},
		{
			"inputs": [
				{
					"internalType": "address",
					"name": "_userAddress",
					"type": "address"
				}
			],
			"name": "isFrozen",
			"outputs": [
				{
					"internalType": "bool",
					"name": "",
					"type": "bool"
				}
			],
			"stateMutability": "view",
			"type": "function"
		},
		{
			"inputs": [
				{
					"internalType": "address",
					"name": "_to",
					"type": "address"
				},
				{
					"internalType": "uint256",
					"name": "_amount",
					"type": "uint256"
				}
			],
			"name": "mint",
			"outputs": [],
			"stateMutability": "nonpayable",
			"type": "function"
		},
		{
			"inputs": [],
			"name": "name",
			"outputs": [
				{
					"internalType": "string",
					"name": "",
					"type": "string"
				}
			],
			"stateMutability": "view",
			"type": "function"
		},
		{
			"inputs": [],
			"name": "onchainID",
			"outputs": [
				{
					"internalType": "address",
					"name": "",
					"type": "address"
				}
			],
			"stateMutability": "view",
			"type": "function"
		},
		{
			"inputs": [],
			"name": "owner",
			"outputs": [
				{
					"internalType": "address",
					"name": "",
					"type": "address"
				}
			],
			"stateMutability": "view",
			"type": "function"
		},
		{
			"inputs": [],
			"name": "pause",
			"outputs": [],
			"stateMutability": "nonpayable",
			"type": "function"
		},
		{
			"inputs": [],
			"name": "paused",
			"outputs": [
				{
					"internalType": "bool",
					"name": "",
					"type": "bool"
				}
			],
			"stateMutability": "view",
			"type": "function"
		},
		{
			"inputs": [
				{
					"internalType": "address",
					"name": "_lostWallet",
					"type": "address"
				},
				{
					"internalType": "address",
					"name": "_newWallet",
					"type": "address"
				},
				{
					"internalType": "address",
					"name": "_investorOnchainID",
					"type": "address"
				}
			],
			"name": "recoveryAddress",
			"outputs": [
				{
					"internalType": "bool",
					"name": "",
					"type": "bool"
				}
			],
			"stateMutability": "nonpayable",
			"type": "function"
		},
		{
			"inputs": [
				{
					"internalType": "address",
					"name": "_agent",
					"type": "address"
				}
			],
			"name": "removeAgent",
			"outputs": [],
			"stateMutability": "nonpayable",
			"type": "function"
		},
		{
			"inputs": [],
			"name": "renounceOwnership",
			"outputs": [],
			"stateMutability": "nonpayable",
			"type": "function"
		},
		{
			"inputs": [
				{
					"internalType": "address",
					"name": "_userAddress",
					"type": "address"
				},
				{
					"internalType": "bool",
					"name": "_freeze",
					"type": "bool"
				}
			],
			"name": "setAddressFrozen",
			"outputs": [],
			"stateMutability": "nonpayable",
			"type": "function"
		},
		{
			"inputs": [
				{
					"internalType": "address",
					"name": "_compliance",
					"type": "address"
				}
			],
			"name": "setCompliance",
			"outputs": [],
			"stateMutability": "nonpayable",
			"type": "function"
		},
		{
			"inputs": [
				{
					"internalType": "address",
					"name": "_identityRegistry",
					"type": "address"
				}
			],
			"name": "setIdentityRegistry",
			"outputs": [],
			"stateMutability": "nonpayable",
			"type": "function"
		},
		{
			"inputs": [
				{
					"internalType": "string",
					"name": "_name",
					"type": "string"
				}
			],
			"name": "setName",
			"outputs": [],
			"stateMutability": "nonpayable",
			"type": "function"
		},
		{
			"inputs": [
				{
					"internalType": "address",
					"name": "_onchainID",
					"type": "address"
				}
			],
			"name": "setOnchainID",
			"outputs": [],
			"stateMutability": "nonpayable",
			"type": "function"
		},
		{
			"inputs": [
				{
					"internalType": "string",
					"name": "_symbol",
					"type": "string"
				}
			],
			"name": "setSymbol",
			"outputs": [],
			"stateMutability": "nonpayable",
			"type": "function"
		},
		{
			"inputs": [],
			"name": "symbol",
			"outputs": [
				{
					"internalType": "string",
					"name": "",
					"type": "string"
				}
			],
			"stateMutability": "view",
			"type": "function"
		},
		{
			"inputs": [],
			"name": "totalSupply",
			"outputs": [
				{
					"internalType": "uint256",
					"name": "",
					"type": "uint256"
				}
			],
			"stateMutability": "view",
			"type": "function"
		},
		{
			"inputs": [
				{
					"internalType": "address",
					"name": "_to",
					"type": "address"
				},
				{
					"internalType": "uint256",
					"name": "_amount",
					"type": "uint256"
				}
			],
			"name": "transfer",
			"outputs": [
				{
					"internalType": "bool",
					"name": "",
					"type": "bool"
				}
			],
			"stateMutability": "nonpayable",
			"type": "function"
		},
		{
			"inputs": [
				{
					"internalType": "address",
					"name": "_from",
					"type": "address"
				},
				{
					"internalType": "address",
					"name": "_to",
					"type": "address"
				},
				{
					"internalType": "uint256",
					"name": "_amount",
					"type": "uint256"
				}
			],
			"name": "transferFrom",
			"outputs": [
				{
					"internalType": "bool",
					"name": "",
					"type": "bool"
				}
			],
			"stateMutability": "nonpayable",
			"type": "function"
		},
		{
			"inputs": [
				{
					"internalType": "address",
					"name": "newOwner",
					"type": "address"
				}
			],
			"name": "transferOwnership",
			"outputs": [],
			"stateMutability": "nonpayable",
			"type": "function"
		},
		{
			"inputs": [
				{
					"internalType": "address",
					"name": "_userAddress",
					"type": "address"
				},
				{
					"internalType": "uint256",
					"name": "_amount",
					"type": "uint256"
				}
			],
			"name": "unfreezePartialTokens",
			"outputs": [],
			"stateMutability": "nonpayable",
			"type": "function"
		},
		{
			"inputs": [],
			"name": "unpause",
			"outputs": [],
			"stateMutability": "nonpayable",
			"type": "function"
		},
		{
			"inputs": [],
			"name": "version",
			"outputs": [
				{
					"internalType": "string",
					"name": "",
					"type": "string"
				}
			],
			"stateMutability": "pure",
			"type": "function"
		}
	]
}