{
	"contracts/MultiSigWallet.sol": {
		"MultiSigWallet": {
			"abi": [
				{
					"inputs": [
						{
							"internalType": "uint256",
							"name": "_chainId",
							"type": "uint256"
						},
						{
							"internalType": "address[]",
							"name": "_owners",
							"type": "address[]"
						},
						{
							"internalType": "uint256",
							"name": "_signaturesRequired",
							"type": "uint256"
						},
						{
							"internalType": "address",
							"name": "_factory",
							"type": "address"
						}
					],
					"stateMutability": "payable",
					"type": "constructor"
				},
				{
					"inputs": [],
					"name": "ECDSAInvalidSignature",
					"type": "error"
				},
				{
					"inputs": [
						{
							"internalType": "uint256",
							"name": "length",
							"type": "uint256"
						}
					],
					"name": "ECDSAInvalidSignatureLength",
					"type": "error"
				},
				{
					"inputs": [
						{
							"internalType": "bytes32",
							"name": "s",
							"type": "bytes32"
						}
					],
					"name": "ECDSAInvalidSignatureS",
					"type": "error"
				},
				{
					"anonymous": false,
					"inputs": [
						{
							"indexed": true,
							"internalType": "address",
							"name": "sender",
							"type": "address"
						},
						{
							"indexed": false,
							"internalType": "uint256",
							"name": "amount",
							"type": "uint256"
						},
						{
							"indexed": false,
							"internalType": "uint256",
							"name": "balance",
							"type": "uint256"
						}
					],
					"name": "Deposit",
					"type": "event"
				},
				{
					"anonymous": false,
					"inputs": [
						{
							"indexed": false,
							"internalType": "bool",
							"name": "signed",
							"type": "bool"
						},
						{
							"indexed": false,
							"internalType": "bytes",
							"name": "sign",
							"type": "bytes"
						},
						{
							"indexed": false,
							"internalType": "bytes",
							"name": "signature",
							"type": "bytes"
						}
					],
					"name": "ExecuteApproval",
					"type": "event"
				},
				{
					"anonymous": false,
					"inputs": [
						{
							"indexed": true,
							"internalType": "address",
							"name": "owner",
							"type": "address"
						},
						{
							"indexed": false,
							"internalType": "address payable",
							"name": "to",
							"type": "address"
						},
						{
							"indexed": false,
							"internalType": "uint256",
							"name": "value",
							"type": "uint256"
						},
						{
							"indexed": false,
							"internalType": "uint256",
							"name": "nonce",
							"type": "uint256"
						},
						{
							"indexed": false,
							"internalType": "bytes32",
							"name": "hash",
							"type": "bytes32"
						}
					],
					"name": "ExecuteTransaction",
					"type": "event"
				},
				{
					"anonymous": false,
					"inputs": [
						{
							"indexed": true,
							"internalType": "address",
							"name": "owner",
							"type": "address"
						},
						{
							"indexed": false,
							"internalType": "bool",
							"name": "added",
							"type": "bool"
						}
					],
					"name": "Owner",
					"type": "event"
				},
				{
					"inputs": [
						{
							"internalType": "address",
							"name": "owner",
							"type": "address"
						},
						{
							"internalType": "address",
							"name": "newSigner",
							"type": "address"
						},
						{
							"internalType": "uint256",
							"name": "newSignaturesRequired",
							"type": "uint256"
						}
					],
					"name": "addSigner",
					"outputs": [],
					"stateMutability": "nonpayable",
					"type": "function"
				},
				{
					"inputs": [],
					"name": "chainId",
					"outputs": [
						{
							"internalType": "uint256",
							"name": "",
							"type": "uint256"
						}
					],
					"stateMutability": "view",
					"type": "function"
				},
				{
					"inputs": [
						{
							"internalType": "address payable",
							"name": "to",
							"type": "address"
						},
						{
							"internalType": "uint256",
							"name": "value",
							"type": "uint256"
						},
						{
							"internalType": "bytes",
							"name": "signature",
							"type": "bytes"
						},
						{
							"internalType": "string",
							"name": "passkey",
							"type": "string"
						},
						{
							"internalType": "string",
							"name": "transactionStamp",
							"type": "string"
						},
						{
							"internalType": "uint256",
							"name": "trxNo",
							"type": "uint256"
						}
					],
					"name": "executeApproval",
					"outputs": [
						{
							"internalType": "bool",
							"name": "",
							"type": "bool"
						},
						{
							"internalType": "bytes",
							"name": "",
							"type": "bytes"
						}
					],
					"stateMutability": "nonpayable",
					"type": "function"
				},
				{
					"inputs": [
						{
							"internalType": "string",
							"name": "functionSignature",
							"type": "string"
						},
						{
							"internalType": "address",
							"name": "owner",
							"type": "address"
						},
						{
							"internalType": "address",
							"name": "newSigner",
							"type": "address"
						},
						{
							"internalType": "uint256",
							"name": "newSignaturesRequired",
							"type": "uint256"
						}
					],
					"name": "getFunctionData",
					"outputs": [
						{
							"internalType": "bytes",
							"name": "",
							"type": "bytes"
						}
					],
					"stateMutability": "pure",
					"type": "function"
				},
				{
					"inputs": [
						{
							"internalType": "uint256",
							"name": "_nonce",
							"type": "uint256"
						},
						{
							"internalType": "address",
							"name": "to",
							"type": "address"
						},
						{
							"internalType": "uint256",
							"name": "value",
							"type": "uint256"
						}
					],
					"name": "getTransactionHash",
					"outputs": [
						{
							"internalType": "bytes32",
							"name": "",
							"type": "bytes32"
						}
					],
					"stateMutability": "view",
					"type": "function"
				},
				{
					"inputs": [],
					"name": "incrementNonce",
					"outputs": [
						{
							"internalType": "uint256",
							"name": "",
							"type": "uint256"
						}
					],
					"stateMutability": "nonpayable",
					"type": "function"
				},
				{
					"inputs": [
						{
							"internalType": "address",
							"name": "",
							"type": "address"
						}
					],
					"name": "isOwner",
					"outputs": [
						{
							"internalType": "bool",
							"name": "",
							"type": "bool"
						}
					],
					"stateMutability": "view",
					"type": "function"
				},
				{
					"inputs": [],
					"name": "nonce",
					"outputs": [
						{
							"internalType": "uint256",
							"name": "",
							"type": "uint256"
						}
					],
					"stateMutability": "view",
					"type": "function"
				},
				{
					"inputs": [
						{
							"internalType": "uint256",
							"name": "",
							"type": "uint256"
						}
					],
					"name": "owners",
					"outputs": [
						{
							"internalType": "address",
							"name": "",
							"type": "address"
						}
					],
					"stateMutability": "view",
					"type": "function"
				},
				{
					"inputs": [
						{
							"internalType": "bytes32",
							"name": "_hash",
							"type": "bytes32"
						},
						{
							"internalType": "bytes",
							"name": "_signature",
							"type": "bytes"
						}
					],
					"name": "recover",
					"outputs": [
						{
							"internalType": "address",
							"name": "",
							"type": "address"
						}
					],
					"stateMutability": "pure",
					"type": "function"
				},
				{
					"inputs": [
						{
							"internalType": "address",
							"name": "owner",
							"type": "address"
						},
						{
							"internalType": "address",
							"name": "oldSigner",
							"type": "address"
						},
						{
							"internalType": "uint256",
							"name": "newSignaturesRequired",
							"type": "uint256"
						}
					],
					"name": "removeSigner",
					"outputs": [],
					"stateMutability": "nonpayable",
					"type": "function"
				},
				{
					"inputs": [],
					"name": "signaturesRequired",
					"outputs": [
						{
							"internalType": "uint256",
							"name": "",
							"type": "uint256"
						}
					],
					"stateMutability": "view",
					"type": "function"
				},
				{
					"inputs": [
						{
							"internalType": "uint256",
							"name": "trxNo",
							"type": "uint256"
						}
					],
					"name": "totalTransactionValidations",
					"outputs": [
						{
							"internalType": "uint256",
							"name": "",
							"type": "uint256"
						}
					],
					"stateMutability": "view",
					"type": "function"
				},
				{
					"inputs": [
						{
							"internalType": "uint256",
							"name": "",
							"type": "uint256"
						}
					],
					"name": "transactionNo",
					"outputs": [
						{
							"internalType": "string",
							"name": "",
							"type": "string"
						}
					],
					"stateMutability": "view",
					"type": "function"
				},
				{
					"inputs": [
						{
							"internalType": "string",
							"name": "",
							"type": "string"
						}
					],
					"name": "transactionValidations",
					"outputs": [
						{
							"internalType": "uint256",
							"name": "",
							"type": "uint256"
						}
					],
					"stateMutability": "view",
					"type": "function"
				},
				{
					"inputs": [
						{
							"internalType": "string",
							"name": "",
							"type": "string"
						}
					],
					"name": "validSignatures",
					"outputs": [
						{
							"internalType": "uint256",
							"name": "",
							"type": "uint256"
						}
					],
					"stateMutability": "view",
					"type": "function"
				},
				{
					"stateMutability": "payable",
					"type": "receive"
				}
			],
			"devdoc": {
				"errors": {
					"ECDSAInvalidSignature()": [
						{
							"details": "The signature derives the `address(0)`."
						}
					],
					"ECDSAInvalidSignatureLength(uint256)": [
						{
							"details": "The signature has an invalid length."
						}
					],
					"ECDSAInvalidSignatureS(bytes32)": [
						{
							"details": "The signature has an S value that is in the upper half order."
						}
					]
				},
				"kind": "dev",
				"methods": {},
				"version": 1
			},
			"evm": {
				"assembly": "    /* \"contracts/MultiSigWallet.sol\":356:9490  contract MultiSigWallet is IMultiSigWallet {... */\n  mstore(0x40, 0x80)\n    /* \"contracts/MultiSigWallet.sol\":1590:2285  constructor(... */\n  mload(0x40)\n  sub(codesize, bytecodeSize)\n  dup1\n  bytecodeSize\n  dup4\n  codecopy\n  dup2\n  add\n  0x40\n  dup2\n  swap1\n  mstore\n  tag_1\n  swap2\n  tag_2\n  jump\t// in\ntag_1:\n    /* \"contracts/MultiSigWallet.sol\":1764:1783  _signaturesRequired */\n  dup2\n    /* \"contracts/MultiSigWallet.sol\":1530:1531  0 */\n  0x00\n    /* \"contracts/MultiSigWallet.sol\":1508:1527  _signaturesRequired */\n  dup2\n    /* \"contracts/MultiSigWallet.sol\":1508:1531  _signaturesRequired > 0 */\n  gt\n    /* \"contracts/MultiSigWallet.sol\":1500:1566  require(_signaturesRequired > 0, \"Must be non-zero sigs required\") */\n  tag_5\n  jumpi\n  mload(0x40)\n  shl(0xe5, 0x461bcd)\n  dup2\n  mstore\n    /* \"#utility.yul\":1872:1874   */\n  0x20\n    /* \"contracts/MultiSigWallet.sol\":1500:1566  require(_signaturesRequired > 0, \"Must be non-zero sigs required\") */\n  0x04\n  dup3\n  add\n    /* \"#utility.yul\":1854:1875   */\n  mstore\n    /* \"#utility.yul\":1911:1913   */\n  0x1e\n    /* \"#utility.yul\":1891:1909   */\n  0x24\n  dup3\n  add\n    /* \"#utility.yul\":1884:1914   */\n  mstore\n    /* \"#utility.yul\":1950:1982   */\n  0x4d757374206265206e6f6e2d7a65726f20736967732072657175697265640000\n    /* \"#utility.yul\":1930:1948   */\n  0x44\n  dup3\n  add\n    /* \"#utility.yul\":1923:1983   */\n  mstore\n    /* \"#utility.yul\":2000:2018   */\n  0x64\n  add\n    /* \"contracts/MultiSigWallet.sol\":1500:1566  require(_signaturesRequired > 0, \"Must be non-zero sigs required\") */\ntag_6:\n  mload(0x40)\n  dup1\n  swap2\n  sub\n  swap1\n  revert\ntag_5:\n    /* \"contracts/MultiSigWallet.sol\":1795:1810  multiSigFactory */\n  0x00\n    /* \"contracts/MultiSigWallet.sol\":1795:1838  multiSigFactory = MultiSigFactory(_factory) */\n  dup1\n  sload\n  not(sub(shl(0xa0, 0x01), 0x01))\n  and\n  sub(shl(0xa0, 0x01), 0x01)\n  dup5\n  and\n  or\n  dup2\n  sstore\n    /* \"contracts/MultiSigWallet.sol\":1848:1866  signaturesRequired */\n  0x06\n    /* \"contracts/MultiSigWallet.sol\":1848:1888  signaturesRequired = _signaturesRequired */\n  dup5\n  swap1\n  sstore\n    /* \"contracts/MultiSigWallet.sol\":1898:2250  for (uint256 i = 0; i < _owners.length; i++) {... */\ntag_9:\n    /* \"contracts/MultiSigWallet.sol\":1922:1929  _owners */\n  dup5\n    /* \"contracts/MultiSigWallet.sol\":1922:1936  _owners.length */\n  mload\n    /* \"contracts/MultiSigWallet.sol\":1918:1919  i */\n  dup2\n    /* \"contracts/MultiSigWallet.sol\":1918:1936  i < _owners.length */\n  lt\n    /* \"contracts/MultiSigWallet.sol\":1898:2250  for (uint256 i = 0; i < _owners.length; i++) {... */\n  iszero\n  tag_10\n  jumpi\n    /* \"contracts/MultiSigWallet.sol\":1957:1970  address owner */\n  0x00\n    /* \"contracts/MultiSigWallet.sol\":1973:1980  _owners */\n  dup6\n    /* \"contracts/MultiSigWallet.sol\":1981:1982  i */\n  dup3\n    /* \"contracts/MultiSigWallet.sol\":1973:1983  _owners[i] */\n  dup2\n  mload\n  dup2\n  lt\n  tag_13\n  jumpi\n  tag_13\n  tag_14\n  jump\t// in\ntag_13:\n  0x20\n  mul\n  0x20\n  add\n  add\n  mload\n    /* \"contracts/MultiSigWallet.sol\":1957:1983  address owner = _owners[i] */\n  swap1\n  pop\n    /* \"contracts/MultiSigWallet.sol\":2022:2023  0 */\n  0x00\n  sub(shl(0xa0, 0x01), 0x01)\n    /* \"contracts/MultiSigWallet.sol\":2005:2024  owner != address(0) */\n  and\n    /* \"contracts/MultiSigWallet.sol\":2005:2010  owner */\n  dup2\n  sub(shl(0xa0, 0x01), 0x01)\n    /* \"contracts/MultiSigWallet.sol\":2005:2024  owner != address(0) */\n  and\n  sub\n    /* \"contracts/MultiSigWallet.sol\":1997:2054  require(owner != address(0), \"constructor: zero address\") */\n  tag_15\n  jumpi\n  mload(0x40)\n  shl(0xe5, 0x461bcd)\n  dup2\n  mstore\n    /* \"#utility.yul\":2363:2365   */\n  0x20\n    /* \"contracts/MultiSigWallet.sol\":1997:2054  require(owner != address(0), \"constructor: zero address\") */\n  0x04\n  dup3\n  add\n    /* \"#utility.yul\":2345:2366   */\n  mstore\n    /* \"#utility.yul\":2402:2404   */\n  0x19\n    /* \"#utility.yul\":2382:2400   */\n  0x24\n  dup3\n  add\n    /* \"#utility.yul\":2375:2405   */\n  mstore\n    /* \"#utility.yul\":2441:2468   */\n  0x636f6e7374727563746f723a207a65726f206164647265737300000000000000\n    /* \"#utility.yul\":2421:2439   */\n  0x44\n  dup3\n  add\n    /* \"#utility.yul\":2414:2469   */\n  mstore\n    /* \"#utility.yul\":2486:2504   */\n  0x64\n  add\n    /* \"contracts/MultiSigWallet.sol\":1997:2054  require(owner != address(0), \"constructor: zero address\") */\n  tag_6\n    /* \"#utility.yul\":2161:2510   */\n  jump\n    /* \"contracts/MultiSigWallet.sol\":1997:2054  require(owner != address(0), \"constructor: zero address\") */\ntag_15:\n  sub(shl(0xa0, 0x01), 0x01)\n    /* \"contracts/MultiSigWallet.sol\":2077:2091  isOwner[owner] */\n  dup2\n  and\n  0x00\n  swap1\n  dup2\n  mstore\n    /* \"contracts/MultiSigWallet.sol\":2077:2084  isOwner */\n  0x01\n    /* \"contracts/MultiSigWallet.sol\":2077:2091  isOwner[owner] */\n  0x20\n  mstore\n  0x40\n  swap1\n  keccak256\n  sload\n  0xff\n  and\n    /* \"contracts/MultiSigWallet.sol\":2076:2091  !isOwner[owner] */\n  iszero\n    /* \"contracts/MultiSigWallet.sol\":2068:2125  require(!isOwner[owner], \"constructor: owner not unique\") */\n  tag_18\n  jumpi\n  mload(0x40)\n  shl(0xe5, 0x461bcd)\n  dup2\n  mstore\n    /* \"#utility.yul\":2717:2719   */\n  0x20\n    /* \"contracts/MultiSigWallet.sol\":2068:2125  require(!isOwner[owner], \"constructor: owner not unique\") */\n  0x04\n  dup3\n  add\n    /* \"#utility.yul\":2699:2720   */\n  mstore\n    /* \"#utility.yul\":2756:2758   */\n  0x1d\n    /* \"#utility.yul\":2736:2754   */\n  0x24\n  dup3\n  add\n    /* \"#utility.yul\":2729:2759   */\n  mstore\n    /* \"#utility.yul\":2795:2826   */\n  0x636f6e7374727563746f723a206f776e6572206e6f7420756e69717565000000\n    /* \"#utility.yul\":2775:2793   */\n  0x44\n  dup3\n  add\n    /* \"#utility.yul\":2768:2827   */\n  mstore\n    /* \"#utility.yul\":2844:2862   */\n  0x64\n  add\n    /* \"contracts/MultiSigWallet.sol\":2068:2125  require(!isOwner[owner], \"constructor: owner not unique\") */\n  tag_6\n    /* \"#utility.yul\":2515:2868   */\n  jump\n    /* \"contracts/MultiSigWallet.sol\":2068:2125  require(!isOwner[owner], \"constructor: owner not unique\") */\ntag_18:\n  sub(shl(0xa0, 0x01), 0x01)\n    /* \"contracts/MultiSigWallet.sol\":2139:2153  isOwner[owner] */\n  dup2\n  and\n  0x00\n  dup2\n  dup2\n  mstore\n    /* \"contracts/MultiSigWallet.sol\":2156:2160  true */\n  0x01\n    /* \"contracts/MultiSigWallet.sol\":2139:2153  isOwner[owner] */\n  0x20\n  dup2\n  dup2\n  mstore\n  0x40\n  swap3\n  dup4\n  swap1\n  keccak256\n    /* \"contracts/MultiSigWallet.sol\":2139:2160  isOwner[owner] = true */\n  dup1\n  sload\n  not(0xff)\n  and\n  dup4\n  or\n  dup2\n  sstore\n    /* \"contracts/MultiSigWallet.sol\":2174:2180  owners */\n  0x05\n    /* \"contracts/MultiSigWallet.sol\":2174:2192  owners.push(owner) */\n  dup1\n  sload\n  swap4\n  dup5\n  add\n  swap1\n  sstore\n  0x036b6384b5eca791c62761152d0c79bb0604c104a5fb6f4eb0703f3154bb3db0\n  swap1\n  swap3\n  add\n  dup1\n  sload\n  not(sub(shl(0xa0, 0x01), 0x01))\n  and\n  dup6\n  or\n  swap1\n  sstore\n    /* \"contracts/MultiSigWallet.sol\":2224:2238  isOwner[owner] */\n  swap1\n  sload\n    /* \"contracts/MultiSigWallet.sol\":2211:2239  Owner(owner, isOwner[owner]) */\n  swap2\n  mload\n    /* \"contracts/MultiSigWallet.sol\":2139:2160  isOwner[owner] = true */\n  0xff\n    /* \"contracts/MultiSigWallet.sol\":2224:2238  isOwner[owner] */\n  swap1\n  swap3\n  and\n    /* \"#utility.yul\":3038:3052   */\n  iszero\n    /* \"#utility.yul\":3031:3053   */\n  iszero\n    /* \"#utility.yul\":3013:3054   */\n  dup3\n  mstore\n    /* \"contracts/MultiSigWallet.sol\":2211:2239  Owner(owner, isOwner[owner]) */\n  0xfe545f48304051c4029eb2da9927daa59da0414b4b084fdceaf2955b609b899e\n  swap2\n    /* \"#utility.yul\":2986:3004   */\n  add\n    /* \"contracts/MultiSigWallet.sol\":2211:2239  Owner(owner, isOwner[owner]) */\n  mload(0x40)\n  dup1\n  swap2\n  sub\n  swap1\n  log2\n  pop\n    /* \"contracts/MultiSigWallet.sol\":1938:1941  i++ */\n  0x01\n  add\n    /* \"contracts/MultiSigWallet.sol\":1898:2250  for (uint256 i = 0; i < _owners.length; i++) {... */\n  jump(tag_9)\ntag_10:\n  pop\n  pop\n  pop\n    /* \"contracts/MultiSigWallet.sol\":2260:2267  chainId */\n  0x08\n    /* \"contracts/MultiSigWallet.sol\":2260:2278  chainId = _chainId */\n  swap3\n  swap1\n  swap3\n  sstore\n  pop\n    /* \"contracts/MultiSigWallet.sol\":356:9490  contract MultiSigWallet is IMultiSigWallet {... */\n  tag_27\n  swap1\n  pop\n  jump\n    /* \"#utility.yul\":14:141   */\ntag_25:\n    /* \"#utility.yul\":75:85   */\n  0x4e487b71\n    /* \"#utility.yul\":70:73   */\n  0xe0\n    /* \"#utility.yul\":66:86   */\n  shl\n    /* \"#utility.yul\":63:64   */\n  0x00\n    /* \"#utility.yul\":56:87   */\n  mstore\n    /* \"#utility.yul\":106:110   */\n  0x41\n    /* \"#utility.yul\":103:104   */\n  0x04\n    /* \"#utility.yul\":96:111   */\n  mstore\n    /* \"#utility.yul\":130:134   */\n  0x24\n    /* \"#utility.yul\":127:128   */\n  0x00\n    /* \"#utility.yul\":120:135   */\n  revert\n    /* \"#utility.yul\":146:323   */\ntag_26:\n    /* \"#utility.yul\":225:238   */\n  dup1\n  mload\n  sub(shl(0xa0, 0x01), 0x01)\n    /* \"#utility.yul\":267:298   */\n  dup2\n  and\n    /* \"#utility.yul\":257:299   */\n  dup2\n  eq\n    /* \"#utility.yul\":247:317   */\n  tag_30\n  jumpi\n    /* \"#utility.yul\":313:314   */\n  0x00\n    /* \"#utility.yul\":310:311   */\n  dup1\n    /* \"#utility.yul\":303:315   */\n  revert\n    /* \"#utility.yul\":247:317   */\ntag_30:\n    /* \"#utility.yul\":146:323   */\n  swap2\n  swap1\n  pop\n  jump\t// out\n    /* \"#utility.yul\":328:1665   */\ntag_2:\n    /* \"#utility.yul\":450:456   */\n  0x00\n    /* \"#utility.yul\":458:464   */\n  dup1\n    /* \"#utility.yul\":466:472   */\n  0x00\n    /* \"#utility.yul\":474:480   */\n  dup1\n    /* \"#utility.yul\":527:530   */\n  0x80\n    /* \"#utility.yul\":515:524   */\n  dup6\n    /* \"#utility.yul\":506:513   */\n  dup8\n    /* \"#utility.yul\":502:525   */\n  sub\n    /* \"#utility.yul\":498:531   */\n  slt\n    /* \"#utility.yul\":495:548   */\n  iszero\n  tag_32\n  jumpi\n    /* \"#utility.yul\":544:545   */\n  0x00\n    /* \"#utility.yul\":541:542   */\n  dup1\n    /* \"#utility.yul\":534:546   */\n  revert\n    /* \"#utility.yul\":495:548   */\ntag_32:\n    /* \"#utility.yul\":567:583   */\n  dup5\n  mload\n    /* \"#utility.yul\":602:604   */\n  0x20\n    /* \"#utility.yul\":633:651   */\n  dup1\n  dup8\n  add\n    /* \"#utility.yul\":627:652   */\n  mload\n    /* \"#utility.yul\":567:583   */\n  swap2\n  swap6\n  pop\n    /* \"#utility.yul\":602:604   */\n  swap1\n  sub(shl(0x40, 0x01), 0x01)\n    /* \"#utility.yul\":701:715   */\n  dup1\n  dup3\n  gt\n    /* \"#utility.yul\":698:732   */\n  iszero\n  tag_33\n  jumpi\n    /* \"#utility.yul\":728:729   */\n  0x00\n    /* \"#utility.yul\":725:726   */\n  dup1\n    /* \"#utility.yul\":718:730   */\n  revert\n    /* \"#utility.yul\":698:732   */\ntag_33:\n    /* \"#utility.yul\":766:772   */\n  dup2\n    /* \"#utility.yul\":755:764   */\n  dup9\n    /* \"#utility.yul\":751:773   */\n  add\n    /* \"#utility.yul\":741:773   */\n  swap2\n  pop\n    /* \"#utility.yul\":811:818   */\n  dup9\n    /* \"#utility.yul\":804:808   */\n  0x1f\n    /* \"#utility.yul\":800:802   */\n  dup4\n    /* \"#utility.yul\":796:809   */\n  add\n    /* \"#utility.yul\":792:819   */\n  slt\n    /* \"#utility.yul\":782:837   */\n  tag_34\n  jumpi\n    /* \"#utility.yul\":833:834   */\n  0x00\n    /* \"#utility.yul\":830:831   */\n  dup1\n    /* \"#utility.yul\":823:835   */\n  revert\n    /* \"#utility.yul\":782:837   */\ntag_34:\n    /* \"#utility.yul\":862:864   */\n  dup2\n    /* \"#utility.yul\":856:865   */\n  mload\n    /* \"#utility.yul\":884:886   */\n  dup2\n    /* \"#utility.yul\":880:882   */\n  dup2\n    /* \"#utility.yul\":877:887   */\n  gt\n    /* \"#utility.yul\":874:910   */\n  iszero\n  tag_36\n  jumpi\n    /* \"#utility.yul\":890:908   */\n  tag_36\n  tag_25\n  jump\t// in\ntag_36:\n    /* \"#utility.yul\":936:938   */\n  dup1\n    /* \"#utility.yul\":933:934   */\n  0x05\n    /* \"#utility.yul\":929:939   */\n  shl\n    /* \"#utility.yul\":968:970   */\n  0x40\n    /* \"#utility.yul\":962:971   */\n  mload\n    /* \"#utility.yul\":1031:1033   */\n  0x1f\n    /* \"#utility.yul\":1027:1034   */\n  not\n    /* \"#utility.yul\":1022:1024   */\n  0x3f\n    /* \"#utility.yul\":1018:1020   */\n  dup4\n    /* \"#utility.yul\":1014:1025   */\n  add\n    /* \"#utility.yul\":1010:1035   */\n  and\n    /* \"#utility.yul\":1002:1008   */\n  dup2\n    /* \"#utility.yul\":998:1036   */\n  add\n    /* \"#utility.yul\":1086:1092   */\n  dup2\n    /* \"#utility.yul\":1074:1084   */\n  dup2\n    /* \"#utility.yul\":1071:1093   */\n  lt\n    /* \"#utility.yul\":1066:1068   */\n  dup6\n    /* \"#utility.yul\":1054:1064   */\n  dup3\n    /* \"#utility.yul\":1051:1069   */\n  gt\n    /* \"#utility.yul\":1048:1094   */\n  or\n    /* \"#utility.yul\":1045:1117   */\n  iszero\n  tag_38\n  jumpi\n    /* \"#utility.yul\":1097:1115   */\n  tag_38\n  tag_25\n  jump\t// in\ntag_38:\n    /* \"#utility.yul\":1133:1135   */\n  0x40\n    /* \"#utility.yul\":1126:1148   */\n  mstore\n    /* \"#utility.yul\":1183:1201   */\n  swap2\n  dup3\n  mstore\n    /* \"#utility.yul\":1217:1232   */\n  dup5\n  dup3\n  add\n  swap3\n  pop\n    /* \"#utility.yul\":1259:1270   */\n  dup4\n  dup2\n  add\n    /* \"#utility.yul\":1255:1275   */\n  dup6\n  add\n  swap2\n    /* \"#utility.yul\":1287:1306   */\n  dup12\n  dup4\n  gt\n    /* \"#utility.yul\":1284:1323   */\n  iszero\n  tag_39\n  jumpi\n    /* \"#utility.yul\":1319:1320   */\n  0x00\n    /* \"#utility.yul\":1316:1317   */\n  dup1\n    /* \"#utility.yul\":1309:1321   */\n  revert\n    /* \"#utility.yul\":1284:1323   */\ntag_39:\n    /* \"#utility.yul\":1343:1354   */\n  swap4\n  dup6\n  add\n  swap4\n    /* \"#utility.yul\":1363:1522   */\ntag_40:\n    /* \"#utility.yul\":1379:1385   */\n  dup3\n    /* \"#utility.yul\":1374:1377   */\n  dup6\n    /* \"#utility.yul\":1371:1386   */\n  lt\n    /* \"#utility.yul\":1363:1522   */\n  iszero\n  tag_42\n  jumpi\n    /* \"#utility.yul\":1445:1479   */\n  tag_43\n    /* \"#utility.yul\":1475:1478   */\n  dup6\n    /* \"#utility.yul\":1445:1479   */\n  tag_26\n  jump\t// in\ntag_43:\n    /* \"#utility.yul\":1433:1480   */\n  dup5\n  mstore\n    /* \"#utility.yul\":1396:1408   */\n  swap4\n  dup6\n  add\n  swap4\n    /* \"#utility.yul\":1500:1512   */\n  swap3\n  dup6\n  add\n  swap3\n    /* \"#utility.yul\":1363:1522   */\n  jump(tag_40)\ntag_42:\n    /* \"#utility.yul\":1541:1547   */\n  dup1\n    /* \"#utility.yul\":1531:1547   */\n  swap9\n  pop\n  pop\n  pop\n  pop\n  pop\n  pop\n  pop\n    /* \"#utility.yul\":1587:1589   */\n  0x40\n    /* \"#utility.yul\":1576:1585   */\n  dup6\n    /* \"#utility.yul\":1572:1590   */\n  add\n    /* \"#utility.yul\":1566:1591   */\n  mload\n    /* \"#utility.yul\":1556:1591   */\n  swap2\n  pop\n    /* \"#utility.yul\":1610:1659   */\n  tag_44\n    /* \"#utility.yul\":1655:1657   */\n  0x60\n    /* \"#utility.yul\":1644:1653   */\n  dup7\n    /* \"#utility.yul\":1640:1658   */\n  add\n    /* \"#utility.yul\":1610:1659   */\n  tag_26\n  jump\t// in\ntag_44:\n    /* \"#utility.yul\":1600:1659   */\n  swap1\n  pop\n    /* \"#utility.yul\":328:1665   */\n  swap3\n  swap6\n  swap2\n  swap5\n  pop\n  swap3\n  pop\n  jump\t// out\n    /* \"#utility.yul\":2029:2156   */\ntag_14:\n    /* \"#utility.yul\":2090:2100   */\n  0x4e487b71\n    /* \"#utility.yul\":2085:2088   */\n  0xe0\n    /* \"#utility.yul\":2081:2101   */\n  shl\n    /* \"#utility.yul\":2078:2079   */\n  0x00\n    /* \"#utility.yul\":2071:2102   */\n  mstore\n    /* \"#utility.yul\":2121:2125   */\n  0x32\n    /* \"#utility.yul\":2118:2119   */\n  0x04\n    /* \"#utility.yul\":2111:2126   */\n  mstore\n    /* \"#utility.yul\":2145:2149   */\n  0x24\n    /* \"#utility.yul\":2142:2143   */\n  0x00\n    /* \"#utility.yul\":2135:2150   */\n  revert\n    /* \"#utility.yul\":2873:3060   */\ntag_27:\n    /* \"contracts/MultiSigWallet.sol\":356:9490  contract MultiSigWallet is IMultiSigWallet {... */\n  dataSize(sub_0)\n  dup1\n  dataOffset(sub_0)\n  0x00\n  codecopy\n  0x00\n  return\nstop\n\nsub_0: assembly {\n        /* \"contracts/MultiSigWallet.sol\":356:9490  contract MultiSigWallet is IMultiSigWallet {... */\n      mstore(0x40, 0x80)\n      jumpi(tag_1, lt(calldatasize, 0x04))\n      shr(0xe0, calldataload(0x00))\n      dup1\n      0x7708072c\n      gt\n      tag_19\n      jumpi\n      dup1\n      0xa157b0ae\n      gt\n      tag_20\n      jumpi\n      dup1\n      0xa157b0ae\n      eq\n      tag_15\n      jumpi\n      dup1\n      0xaffed0e0\n      eq\n      tag_16\n      jumpi\n      dup1\n      0xce757d29\n      eq\n      tag_17\n      jumpi\n      dup1\n      0xd17eced3\n      eq\n      tag_18\n      jumpi\n      0x00\n      dup1\n      revert\n    tag_20:\n      dup1\n      0x7708072c\n      eq\n      tag_11\n      jumpi\n      dup1\n      0x7c72596e\n      eq\n      tag_12\n      jumpi\n      dup1\n      0x95a3ac74\n      eq\n      tag_13\n      jumpi\n      dup1\n      0x9a8a0592\n      eq\n      tag_14\n      jumpi\n      0x00\n      dup1\n      revert\n    tag_19:\n      dup1\n      0x1f919f77\n      gt\n      tag_21\n      jumpi\n      dup1\n      0x1f919f77\n      eq\n      tag_7\n      jumpi\n      dup1\n      0x2f54bf6e\n      eq\n      tag_8\n      jumpi\n      dup1\n      0x3aaa4771\n      eq\n      tag_9\n      jumpi\n      dup1\n      0x627cdcb9\n      eq\n      tag_10\n      jumpi\n      0x00\n      dup1\n      revert\n    tag_21:\n      dup1\n      0x019010f6\n      eq\n      tag_3\n      jumpi\n      dup1\n      0x025e7c27\n      eq\n      tag_4\n      jumpi\n      dup1\n      0x06a23e5f\n      eq\n      tag_5\n      jumpi\n      dup1\n      0x19045a25\n      eq\n      tag_6\n      jumpi\n      0x00\n      dup1\n      revert\n    tag_1:\n      jumpi(tag_2, calldatasize)\n        /* \"contracts/MultiSigWallet.sol\":7263:7316  Deposit(msg.sender, msg.value, address(this).balance) */\n      0x40\n      dup1\n      mload\n        /* \"contracts/MultiSigWallet.sol\":7283:7292  msg.value */\n      callvalue\n        /* \"#utility.yul\":188:213   */\n      dup2\n      mstore\n        /* \"contracts/MultiSigWallet.sol\":7294:7315  address(this).balance */\n      selfbalance\n        /* \"#utility.yul\":244:246   */\n      0x20\n        /* \"#utility.yul\":229:247   */\n      dup3\n      add\n        /* \"#utility.yul\":222:256   */\n      mstore\n        /* \"contracts/MultiSigWallet.sol\":7271:7281  msg.sender */\n      caller\n      swap2\n        /* \"contracts/MultiSigWallet.sol\":7263:7316  Deposit(msg.sender, msg.value, address(this).balance) */\n      0x90890809c654f11d6e72a28fa60149770a0d11ec6c92319d6ceb2bb0a4ea1a15\n      swap2\n        /* \"#utility.yul\":161:179   */\n      add\n        /* \"contracts/MultiSigWallet.sol\":7263:7316  Deposit(msg.sender, msg.value, address(this).balance) */\n      mload(0x40)\n      dup1\n      swap2\n      sub\n      swap1\n      log2\n        /* \"contracts/MultiSigWallet.sol\":356:9490  contract MultiSigWallet is IMultiSigWallet {... */\n      stop\n    tag_2:\n      0x00\n      dup1\n      revert\n        /* \"contracts/MultiSigWallet.sol\":6461:6639  function totalTransactionValidations(uint256 trxNo)... */\n    tag_3:\n      callvalue\n      dup1\n      iszero\n      tag_26\n      jumpi\n      0x00\n      dup1\n      revert\n    tag_26:\n      pop\n      tag_27\n      tag_28\n      calldatasize\n      0x04\n      tag_29\n      jump\t// in\n    tag_28:\n      tag_30\n      jump\t// in\n    tag_27:\n      mload(0x40)\n        /* \"#utility.yul\":598:623   */\n      swap1\n      dup2\n      mstore\n        /* \"#utility.yul\":586:588   */\n      0x20\n        /* \"#utility.yul\":571:589   */\n      add\n        /* \"contracts/MultiSigWallet.sol\":6461:6639  function totalTransactionValidations(uint256 trxNo)... */\n    tag_31:\n      mload(0x40)\n      dup1\n      swap2\n      sub\n      swap1\n      return\n        /* \"contracts/MultiSigWallet.sol\":1101:1124  address[] public owners */\n    tag_4:\n      callvalue\n      dup1\n      iszero\n      tag_33\n      jumpi\n      0x00\n      dup1\n      revert\n    tag_33:\n      pop\n      tag_34\n      tag_35\n      calldatasize\n      0x04\n      tag_29\n      jump\t// in\n    tag_35:\n      tag_36\n      jump\t// in\n    tag_34:\n      mload(0x40)\n      sub(shl(0xa0, 0x01), 0x01)\n        /* \"#utility.yul\":798:830   */\n      swap1\n      swap2\n      and\n        /* \"#utility.yul\":780:831   */\n      dup2\n      mstore\n        /* \"#utility.yul\":768:770   */\n      0x20\n        /* \"#utility.yul\":753:771   */\n      add\n        /* \"contracts/MultiSigWallet.sol\":1101:1124  address[] public owners */\n      tag_31\n        /* \"#utility.yul\":634:837   */\n      jump\n        /* \"contracts/MultiSigWallet.sol\":1046:1095  mapping(string => uint256) public validSignatures */\n    tag_5:\n      callvalue\n      dup1\n      iszero\n      tag_39\n      jumpi\n      0x00\n      dup1\n      revert\n    tag_39:\n      pop\n      tag_27\n      tag_41\n      calldatasize\n      0x04\n      tag_42\n      jump\t// in\n    tag_41:\n      dup1\n      mload\n      0x20\n      dup2\n      dup4\n      add\n      dup2\n      add\n      dup1\n      mload\n      0x04\n      dup3\n      mstore\n      swap3\n      dup3\n      add\n      swap2\n      swap1\n      swap4\n      add\n      keccak256\n      swap2\n      mstore\n      sload\n      dup2\n      jump\n        /* \"contracts/MultiSigWallet.sol\":7051:7215  function recover(bytes32 _hash, bytes memory _signature)... */\n    tag_6:\n      callvalue\n      dup1\n      iszero\n      tag_45\n      jumpi\n      0x00\n      dup1\n      revert\n    tag_45:\n      pop\n      tag_34\n      tag_47\n      calldatasize\n      0x04\n      tag_48\n      jump\t// in\n    tag_47:\n      tag_49\n      jump\t// in\n        /* \"contracts/MultiSigWallet.sol\":3035:3622  function removeSigner(... */\n    tag_7:\n      callvalue\n      dup1\n      iszero\n      tag_51\n      jumpi\n      0x00\n      dup1\n      revert\n    tag_51:\n      pop\n      tag_52\n      tag_53\n      calldatasize\n      0x04\n      tag_54\n      jump\t// in\n    tag_53:\n      tag_55\n      jump\t// in\n    tag_52:\n      stop\n        /* \"contracts/MultiSigWallet.sol\":886:925  mapping(address => bool) public isOwner */\n    tag_8:\n      callvalue\n      dup1\n      iszero\n      tag_56\n      jumpi\n      0x00\n      dup1\n      revert\n    tag_56:\n      pop\n      tag_57\n      tag_58\n      calldatasize\n      0x04\n      tag_59\n      jump\t// in\n    tag_58:\n      mstore(0x20, 0x01)\n      0x00\n      swap1\n      dup2\n      mstore\n      0x40\n      swap1\n      keccak256\n      sload\n      0xff\n      and\n      dup2\n      jump\n    tag_57:\n      mload(0x40)\n        /* \"#utility.yul\":3433:3447   */\n      swap1\n      iszero\n        /* \"#utility.yul\":3426:3448   */\n      iszero\n        /* \"#utility.yul\":3408:3449   */\n      dup2\n      mstore\n        /* \"#utility.yul\":3396:3398   */\n      0x20\n        /* \"#utility.yul\":3381:3399   */\n      add\n        /* \"contracts/MultiSigWallet.sol\":886:925  mapping(address => bool) public isOwner */\n      tag_31\n        /* \"#utility.yul\":3268:3455   */\n      jump\n        /* \"contracts/MultiSigWallet.sol\":6748:7015  function getTransactionHash(... */\n    tag_9:\n      callvalue\n      dup1\n      iszero\n      tag_63\n      jumpi\n      0x00\n      dup1\n      revert\n    tag_63:\n      pop\n      tag_27\n      tag_65\n      calldatasize\n      0x04\n      tag_66\n      jump\t// in\n    tag_65:\n        /* \"contracts/MultiSigWallet.sol\":6967:6974  chainId */\n      sload(0x08)\n        /* \"contracts/MultiSigWallet.sol\":6935:6994  abi.encodePacked(address(this), chainId, _nonce, to, value) */\n      mload(0x40)\n      not(0xffffffffffffffffffffffff)\n        /* \"contracts/MultiSigWallet.sol\":6960:6964  this */\n      address\n        /* \"#utility.yul\":10353:10355   */\n      0x60\n        /* \"#utility.yul\":10349:10364   */\n      swap1\n      dup2\n      shl\n        /* \"#utility.yul\":10345:10369   */\n      dup3\n      and\n        /* \"contracts/MultiSigWallet.sol\":6935:6994  abi.encodePacked(address(this), chainId, _nonce, to, value) */\n      0x20\n      dup5\n      add\n        /* \"#utility.yul\":10333:10370   */\n      mstore\n        /* \"#utility.yul\":10386:10398   */\n      0x34\n      dup4\n      add\n        /* \"#utility.yul\":10379:10407   */\n      swap4\n      swap1\n      swap4\n      mstore\n        /* \"#utility.yul\":10423:10435   */\n      0x54\n      dup3\n      add\n        /* \"#utility.yul\":10416:10444   */\n      dup7\n      swap1\n      mstore\n        /* \"#utility.yul\":10478:10493   */\n      swap2\n      dup5\n      swap1\n      shl\n        /* \"#utility.yul\":10474:10498   */\n      swap1\n      swap2\n      and\n        /* \"#utility.yul\":10460:10472   */\n      0x74\n      dup3\n      add\n        /* \"#utility.yul\":10453:10499   */\n      mstore\n        /* \"#utility.yul\":10515:10528   */\n      0x88\n      dup2\n      add\n        /* \"#utility.yul\":10508:10537   */\n      dup3\n      swap1\n      mstore\n        /* \"contracts/MultiSigWallet.sol\":6870:6877  bytes32 */\n      0x00\n      swap1\n        /* \"#utility.yul\":10553:10566   */\n      0xa8\n      add\n        /* \"contracts/MultiSigWallet.sol\":6935:6994  abi.encodePacked(address(this), chainId, _nonce, to, value) */\n      mload(0x40)\n      0x20\n      dup2\n      dup4\n      sub\n      sub\n      dup2\n      mstore\n      swap1\n      0x40\n      mstore\n        /* \"contracts/MultiSigWallet.sol\":6908:7008  keccak256(... */\n      dup1\n      mload\n      swap1\n      0x20\n      add\n      keccak256\n        /* \"contracts/MultiSigWallet.sol\":6889:7008  return... */\n      swap1\n      pop\n        /* \"contracts/MultiSigWallet.sol\":6748:7015  function getTransactionHash(... */\n      swap4\n      swap3\n      pop\n      pop\n      pop\n      jump\n        /* \"contracts/MultiSigWallet.sol\":6645:6742  function incrementNonce() public returns (uint256) {... */\n    tag_10:\n      callvalue\n      dup1\n      iszero\n      tag_70\n      jumpi\n      0x00\n      dup1\n      revert\n    tag_70:\n      pop\n      tag_27\n      tag_72\n      jump\t// in\n        /* \"contracts/MultiSigWallet.sol\":993:1040  mapping(uint256 => string) public transactionNo */\n    tag_11:\n      callvalue\n      dup1\n      iszero\n      tag_74\n      jumpi\n      0x00\n      dup1\n      revert\n    tag_74:\n      pop\n      tag_75\n      tag_76\n      calldatasize\n      0x04\n      tag_29\n      jump\t// in\n    tag_76:\n      tag_77\n      jump\t// in\n    tag_75:\n      mload(0x40)\n      tag_31\n      swap2\n      swap1\n      tag_79\n      jump\t// in\n        /* \"contracts/MultiSigWallet.sol\":931:987  mapping(string => uint256) public transactionValidations */\n    tag_12:\n      callvalue\n      dup1\n      iszero\n      tag_80\n      jumpi\n      0x00\n      dup1\n      revert\n    tag_80:\n      pop\n      tag_27\n      tag_82\n      calldatasize\n      0x04\n      tag_42\n      jump\t// in\n    tag_82:\n      dup1\n      mload\n      0x20\n      dup2\n      dup4\n      add\n      dup2\n      add\n      dup1\n      mload\n      0x02\n      dup3\n      mstore\n      swap3\n      dup3\n      add\n      swap2\n      swap1\n      swap4\n      add\n      keccak256\n      swap2\n      mstore\n      sload\n      dup2\n      jump\n        /* \"contracts/MultiSigWallet.sol\":2291:3029  function addSigner(... */\n    tag_13:\n      callvalue\n      dup1\n      iszero\n      tag_85\n      jumpi\n      0x00\n      dup1\n      revert\n    tag_85:\n      pop\n      tag_52\n      tag_87\n      calldatasize\n      0x04\n      tag_54\n      jump\t// in\n    tag_87:\n      tag_88\n      jump\t// in\n        /* \"contracts/MultiSigWallet.sol\":1195:1217  uint256 public chainId */\n    tag_14:\n      callvalue\n      dup1\n      iszero\n      tag_89\n      jumpi\n      0x00\n      dup1\n      revert\n    tag_89:\n      pop\n      tag_27\n      sload(0x08)\n      dup2\n      jump\n        /* \"contracts/MultiSigWallet.sol\":4492:4885  function getFunctionData(... */\n    tag_15:\n      callvalue\n      dup1\n      iszero\n      tag_93\n      jumpi\n      0x00\n      dup1\n      revert\n    tag_93:\n      pop\n      tag_75\n      tag_95\n      calldatasize\n      0x04\n      tag_96\n      jump\t// in\n    tag_95:\n      tag_97\n      jump\t// in\n        /* \"contracts/MultiSigWallet.sol\":1169:1189  uint256 public nonce */\n    tag_16:\n      callvalue\n      dup1\n      iszero\n      tag_100\n      jumpi\n      0x00\n      dup1\n      revert\n    tag_100:\n      pop\n      tag_27\n      sload(0x07)\n      dup2\n      jump\n        /* \"contracts/MultiSigWallet.sol\":1130:1163  uint256 public signaturesRequired */\n    tag_17:\n      callvalue\n      dup1\n      iszero\n      tag_104\n      jumpi\n      0x00\n      dup1\n      revert\n    tag_104:\n      pop\n      tag_27\n      sload(0x06)\n      dup2\n      jump\n        /* \"contracts/MultiSigWallet.sol\":4891:6455  function executeApproval(... */\n    tag_18:\n      callvalue\n      dup1\n      iszero\n      tag_108\n      jumpi\n      0x00\n      dup1\n      revert\n    tag_108:\n      pop\n      tag_109\n      tag_110\n      calldatasize\n      0x04\n      tag_111\n      jump\t// in\n    tag_110:\n      tag_112\n      jump\t// in\n    tag_109:\n      mload(0x40)\n      tag_31\n      swap3\n      swap2\n      swap1\n      tag_114\n      jump\t// in\n        /* \"contracts/MultiSigWallet.sol\":6461:6639  function totalTransactionValidations(uint256 trxNo)... */\n    tag_30:\n        /* \"contracts/MultiSigWallet.sol\":6625:6630  nonce */\n      sload(0x07)\n        /* \"contracts/MultiSigWallet.sol\":6558:6565  uint256 */\n      0x00\n        /* \"contracts/MultiSigWallet.sol\":6611:6631  transactionNo[nonce] */\n      swap1\n      dup2\n      mstore\n        /* \"contracts/MultiSigWallet.sol\":6611:6624  transactionNo */\n      0x03\n        /* \"contracts/MultiSigWallet.sol\":6611:6631  transactionNo[nonce] */\n      0x20\n      mstore\n      0x40\n      dup1\n      dup3\n      keccak256\n        /* \"contracts/MultiSigWallet.sol\":6588:6632  transactionValidations[transactionNo[nonce]] */\n      swap1\n      mload\n        /* \"contracts/MultiSigWallet.sol\":6588:6610  transactionValidations */\n      0x02\n      swap2\n        /* \"contracts/MultiSigWallet.sol\":6588:6632  transactionValidations[transactionNo[nonce]] */\n      tag_116\n      swap2\n      tag_117\n      jump\t// in\n    tag_116:\n      swap1\n      dup2\n      mstore\n      0x20\n      add\n      mload(0x40)\n      dup1\n      swap2\n      sub\n      swap1\n      keccak256\n      sload\n        /* \"contracts/MultiSigWallet.sol\":6581:6632  return transactionValidations[transactionNo[nonce]] */\n      swap1\n      pop\n        /* \"contracts/MultiSigWallet.sol\":6461:6639  function totalTransactionValidations(uint256 trxNo)... */\n      swap2\n      swap1\n      pop\n      jump\t// out\n        /* \"contracts/MultiSigWallet.sol\":1101:1124  address[] public owners */\n    tag_36:\n      0x05\n      dup2\n      dup2\n      sload\n      dup2\n      lt\n      tag_118\n      jumpi\n      0x00\n      dup1\n      revert\n    tag_118:\n      0x00\n      swap2\n      dup3\n      mstore\n      0x20\n      swap1\n      swap2\n      keccak256\n      add\n      sload\n      sub(shl(0xa0, 0x01), 0x01)\n      and\n      swap1\n      pop\n      dup2\n      jump\t// out\n        /* \"contracts/MultiSigWallet.sol\":7051:7215  function recover(bytes32 _hash, bytes memory _signature)... */\n    tag_49:\n        /* \"contracts/MultiSigWallet.sol\":7153:7160  address */\n      0x00\n        /* \"contracts/MultiSigWallet.sol\":7183:7208  _hash.recover(_signature) */\n      tag_121\n        /* \"contracts/MultiSigWallet.sol\":7183:7188  _hash */\n      dup4\n        /* \"contracts/MultiSigWallet.sol\":7197:7207  _signature */\n      dup4\n        /* \"contracts/MultiSigWallet.sol\":7183:7196  _hash.recover */\n      tag_122\n        /* \"contracts/MultiSigWallet.sol\":7183:7208  _hash.recover(_signature) */\n      jump\t// in\n    tag_121:\n        /* \"contracts/MultiSigWallet.sol\":7176:7208  return _hash.recover(_signature) */\n      swap1\n      pop\n        /* \"contracts/MultiSigWallet.sol\":7051:7215  function recover(bytes32 _hash, bytes memory _signature)... */\n    tag_120:\n      swap3\n      swap2\n      pop\n      pop\n      jump\t// out\n        /* \"contracts/MultiSigWallet.sol\":3035:3622  function removeSigner(... */\n    tag_55:\n        /* \"contracts/MultiSigWallet.sol\":3168:3173  owner */\n      dup3\n        /* \"contracts/MultiSigWallet.sol\":1371:1381  msg.sender */\n      caller\n      sub(shl(0xa0, 0x01), 0x01)\n        /* \"contracts/MultiSigWallet.sol\":1371:1390  msg.sender == owner */\n      dup3\n      and\n      eq\n        /* \"contracts/MultiSigWallet.sol\":1363:1403  require(msg.sender == owner, \"Not Self\") */\n      tag_124\n      jumpi\n      mload(0x40)\n      shl(0xe5, 0x461bcd)\n      dup2\n      mstore\n      0x04\n      add\n      tag_125\n      swap1\n      tag_126\n      jump\t// in\n    tag_125:\n      mload(0x40)\n      dup1\n      swap2\n      sub\n      swap1\n      revert\n    tag_124:\n        /* \"contracts/MultiSigWallet.sol\":3200:3221  newSignaturesRequired */\n      dup2\n        /* \"contracts/MultiSigWallet.sol\":1530:1531  0 */\n      0x00\n        /* \"contracts/MultiSigWallet.sol\":1508:1527  _signaturesRequired */\n      dup2\n        /* \"contracts/MultiSigWallet.sol\":1508:1531  _signaturesRequired > 0 */\n      gt\n        /* \"contracts/MultiSigWallet.sol\":1500:1566  require(_signaturesRequired > 0, \"Must be non-zero sigs required\") */\n      tag_128\n      jumpi\n      mload(0x40)\n      shl(0xe5, 0x461bcd)\n      dup2\n      mstore\n      0x04\n      add\n      tag_125\n      swap1\n      tag_130\n      jump\t// in\n    tag_128:\n      sub(shl(0xa0, 0x01), 0x01)\n        /* \"contracts/MultiSigWallet.sol\":3241:3259  isOwner[oldSigner] */\n      dup5\n      and\n      0x00\n      swap1\n      dup2\n      mstore\n        /* \"contracts/MultiSigWallet.sol\":3241:3248  isOwner */\n      0x01\n        /* \"contracts/MultiSigWallet.sol\":3241:3259  isOwner[oldSigner] */\n      0x20\n      mstore\n      0x40\n      swap1\n      keccak256\n      sload\n      0xff\n      and\n        /* \"contracts/MultiSigWallet.sol\":3233:3287  require(isOwner[oldSigner], \"removeSigner: not owner\") */\n      tag_132\n      jumpi\n      mload(0x40)\n      shl(0xe5, 0x461bcd)\n      dup2\n      mstore\n        /* \"#utility.yul\":9033:9035   */\n      0x20\n        /* \"contracts/MultiSigWallet.sol\":3233:3287  require(isOwner[oldSigner], \"removeSigner: not owner\") */\n      0x04\n      dup3\n      add\n        /* \"#utility.yul\":9015:9036   */\n      mstore\n        /* \"#utility.yul\":9072:9074   */\n      0x17\n        /* \"#utility.yul\":9052:9070   */\n      0x24\n      dup3\n      add\n        /* \"#utility.yul\":9045:9075   */\n      mstore\n        /* \"#utility.yul\":9111:9136   */\n      0x72656d6f76655369676e65723a206e6f74206f776e6572000000000000000000\n        /* \"#utility.yul\":9091:9109   */\n      0x44\n      dup3\n      add\n        /* \"#utility.yul\":9084:9137   */\n      mstore\n        /* \"#utility.yul\":9154:9172   */\n      0x64\n      add\n        /* \"contracts/MultiSigWallet.sol\":3233:3287  require(isOwner[oldSigner], \"removeSigner: not owner\") */\n      tag_125\n        /* \"#utility.yul\":8831:9178   */\n      jump\n        /* \"contracts/MultiSigWallet.sol\":3233:3287  require(isOwner[oldSigner], \"removeSigner: not owner\") */\n    tag_132:\n        /* \"contracts/MultiSigWallet.sol\":3297:3320  _removeOwner(oldSigner) */\n      tag_135\n        /* \"contracts/MultiSigWallet.sol\":3310:3319  oldSigner */\n      dup5\n        /* \"contracts/MultiSigWallet.sol\":3297:3309  _removeOwner */\n      tag_136\n        /* \"contracts/MultiSigWallet.sol\":3297:3320  _removeOwner(oldSigner) */\n      jump\t// in\n    tag_135:\n        /* \"contracts/MultiSigWallet.sol\":3330:3348  signaturesRequired */\n      0x06\n        /* \"contracts/MultiSigWallet.sol\":3330:3372  signaturesRequired = newSignaturesRequired */\n      dup4\n      swap1\n      sstore\n        /* \"contracts/MultiSigWallet.sol\":3382:3436  updateSignaturesRequired(owner, newSignaturesRequired) */\n      tag_137\n        /* \"contracts/MultiSigWallet.sol\":3407:3412  owner */\n      dup6\n        /* \"contracts/MultiSigWallet.sol\":3351:3372  newSignaturesRequired */\n      dup5\n        /* \"contracts/MultiSigWallet.sol\":3382:3406  updateSignaturesRequired */\n      tag_138\n        /* \"contracts/MultiSigWallet.sol\":3382:3436  updateSignaturesRequired(owner, newSignaturesRequired) */\n      jump\t// in\n    tag_137:\n      sub(shl(0xa0, 0x01), 0x01)\n        /* \"contracts/MultiSigWallet.sol\":3451:3487  Owner(oldSigner, isOwner[oldSigner]) */\n      dup5\n      and\n        /* \"contracts/MultiSigWallet.sol\":3468:3486  isOwner[oldSigner] */\n      0x00\n      dup2\n      dup2\n      mstore\n        /* \"contracts/MultiSigWallet.sol\":3468:3475  isOwner */\n      0x01\n        /* \"contracts/MultiSigWallet.sol\":3468:3486  isOwner[oldSigner] */\n      0x20\n      swap1\n      dup2\n      mstore\n      0x40\n      swap2\n      dup3\n      swap1\n      keccak256\n      sload\n        /* \"contracts/MultiSigWallet.sol\":3451:3487  Owner(oldSigner, isOwner[oldSigner]) */\n      swap2\n      mload\n        /* \"contracts/MultiSigWallet.sol\":3468:3486  isOwner[oldSigner] */\n      0xff\n      swap1\n      swap3\n      and\n        /* \"#utility.yul\":3433:3447   */\n      iszero\n        /* \"#utility.yul\":3426:3448   */\n      iszero\n        /* \"#utility.yul\":3408:3449   */\n      dup3\n      mstore\n        /* \"contracts/MultiSigWallet.sol\":3451:3487  Owner(oldSigner, isOwner[oldSigner]) */\n      0xfe545f48304051c4029eb2da9927daa59da0414b4b084fdceaf2955b609b899e\n      swap2\n        /* \"#utility.yul\":3381:3399   */\n      add\n        /* \"contracts/MultiSigWallet.sol\":3451:3487  Owner(oldSigner, isOwner[oldSigner]) */\n      mload(0x40)\n      dup1\n      swap2\n      sub\n      swap1\n      log2\n        /* \"contracts/MultiSigWallet.sol\":3497:3512  multiSigFactory */\n      sload(0x00)\n        /* \"contracts/MultiSigWallet.sol\":3497:3615  multiSigFactory.emitOwners(... */\n      mload(0x40)\n      shl(0xe2, 0x2fb7d0a5)\n      dup2\n      mstore\n      sub(shl(0xa0, 0x01), 0x01)\n        /* \"contracts/MultiSigWallet.sol\":3497:3512  multiSigFactory */\n      swap1\n      swap2\n      and\n      swap1\n        /* \"contracts/MultiSigWallet.sol\":3497:3523  multiSigFactory.emitOwners */\n      0xbedf4294\n      swap1\n        /* \"contracts/MultiSigWallet.sol\":3497:3615  multiSigFactory.emitOwners(... */\n      tag_140\n      swap1\n        /* \"contracts/MultiSigWallet.sol\":3545:3549  this */\n      address\n      swap1\n        /* \"contracts/MultiSigWallet.sol\":3564:3570  owners */\n      0x05\n      swap1\n        /* \"contracts/MultiSigWallet.sol\":3584:3605  newSignaturesRequired */\n      dup9\n      swap1\n        /* \"contracts/MultiSigWallet.sol\":3497:3615  multiSigFactory.emitOwners(... */\n      0x04\n      add\n      tag_141\n      jump\t// in\n    tag_140:\n      0x00\n      mload(0x40)\n      dup1\n      dup4\n      sub\n      dup2\n      0x00\n      dup8\n      dup1\n      extcodesize\n      iszero\n      dup1\n      iszero\n      tag_142\n      jumpi\n      0x00\n      dup1\n      revert\n    tag_142:\n      pop\n      gas\n      call\n      iszero\n      dup1\n      iszero\n      tag_144\n      jumpi\n      returndatasize\n      0x00\n      dup1\n      returndatacopy\n      revert(0x00, returndatasize)\n    tag_144:\n      pop\n      pop\n      pop\n      pop\n        /* \"contracts/MultiSigWallet.sol\":1413:1414  _ */\n      pop\n        /* \"contracts/MultiSigWallet.sol\":3035:3622  function removeSigner(... */\n      pop\n      pop\n      pop\n      pop\n      jump\t// out\n        /* \"contracts/MultiSigWallet.sol\":6645:6742  function incrementNonce() public returns (uint256) {... */\n    tag_72:\n        /* \"contracts/MultiSigWallet.sol\":6706:6711  nonce */\n      0x07\n        /* \"contracts/MultiSigWallet.sol\":6706:6713  nonce++ */\n      dup1\n      sload\n        /* \"contracts/MultiSigWallet.sol\":6687:6694  uint256 */\n      0x00\n      swap2\n      dup3\n        /* \"contracts/MultiSigWallet.sol\":6706:6713  nonce++ */\n      tag_149\n      dup4\n      tag_150\n      jump\t// in\n    tag_149:\n      swap2\n      swap1\n      pop\n      sstore\n      pop\n        /* \"contracts/MultiSigWallet.sol\":6730:6735  nonce */\n      sload(0x07)\n        /* \"contracts/MultiSigWallet.sol\":6723:6735  return nonce */\n      swap1\n      pop\n        /* \"contracts/MultiSigWallet.sol\":6645:6742  function incrementNonce() public returns (uint256) {... */\n      swap1\n      jump\t// out\n        /* \"contracts/MultiSigWallet.sol\":993:1040  mapping(uint256 => string) public transactionNo */\n    tag_77:\n      mstore(0x20, 0x03)\n      0x00\n      swap1\n      dup2\n      mstore\n      0x40\n      swap1\n      keccak256\n      dup1\n      sload\n      tag_151\n      swap1\n      tag_152\n      jump\t// in\n    tag_151:\n      dup1\n      0x1f\n      add\n      0x20\n      dup1\n      swap2\n      div\n      mul\n      0x20\n      add\n      mload(0x40)\n      swap1\n      dup2\n      add\n      0x40\n      mstore\n      dup1\n      swap3\n      swap2\n      swap1\n      dup2\n      dup2\n      mstore\n      0x20\n      add\n      dup3\n      dup1\n      sload\n      tag_153\n      swap1\n      tag_152\n      jump\t// in\n    tag_153:\n      dup1\n      iszero\n      tag_154\n      jumpi\n      dup1\n      0x1f\n      lt\n      tag_155\n      jumpi\n      0x0100\n      dup1\n      dup4\n      sload\n      div\n      mul\n      dup4\n      mstore\n      swap2\n      0x20\n      add\n      swap2\n      jump(tag_154)\n    tag_155:\n      dup3\n      add\n      swap2\n      swap1\n      0x00\n      mstore\n      keccak256(0x00, 0x20)\n      swap1\n    tag_156:\n      dup2\n      sload\n      dup2\n      mstore\n      swap1\n      0x01\n      add\n      swap1\n      0x20\n      add\n      dup1\n      dup4\n      gt\n      tag_156\n      jumpi\n      dup3\n      swap1\n      sub\n      0x1f\n      and\n      dup3\n      add\n      swap2\n    tag_154:\n      pop\n      pop\n      pop\n      pop\n      pop\n      dup2\n      jump\t// out\n        /* \"contracts/MultiSigWallet.sol\":2291:3029  function addSigner(... */\n    tag_88:\n        /* \"contracts/MultiSigWallet.sol\":2437:2442  owner */\n      dup3\n        /* \"contracts/MultiSigWallet.sol\":1371:1381  msg.sender */\n      caller\n      sub(shl(0xa0, 0x01), 0x01)\n        /* \"contracts/MultiSigWallet.sol\":1371:1390  msg.sender == owner */\n      dup3\n      and\n      eq\n        /* \"contracts/MultiSigWallet.sol\":1363:1403  require(msg.sender == owner, \"Not Self\") */\n      tag_158\n      jumpi\n      mload(0x40)\n      shl(0xe5, 0x461bcd)\n      dup2\n      mstore\n      0x04\n      add\n      tag_125\n      swap1\n      tag_126\n      jump\t// in\n    tag_158:\n        /* \"contracts/MultiSigWallet.sol\":1271:1281  msg.sender */\n      caller\n        /* \"contracts/MultiSigWallet.sol\":1263:1282  isOwner[msg.sender] */\n      0x00\n      swap1\n      dup2\n      mstore\n        /* \"contracts/MultiSigWallet.sol\":1263:1270  isOwner */\n      0x01\n        /* \"contracts/MultiSigWallet.sol\":1263:1282  isOwner[msg.sender] */\n      0x20\n      mstore\n      0x40\n      swap1\n      keccak256\n      sload\n      0xff\n      and\n        /* \"contracts/MultiSigWallet.sol\":1255:1296  require(isOwner[msg.sender], \"Not owner\") */\n      tag_161\n      jumpi\n      mload(0x40)\n      shl(0xe5, 0x461bcd)\n      dup2\n      mstore\n        /* \"#utility.yul\":11051:11053   */\n      0x20\n        /* \"contracts/MultiSigWallet.sol\":1255:1296  require(isOwner[msg.sender], \"Not owner\") */\n      0x04\n      dup3\n      add\n        /* \"#utility.yul\":11033:11054   */\n      mstore\n        /* \"#utility.yul\":11090:11091   */\n      0x09\n        /* \"#utility.yul\":11070:11088   */\n      0x24\n      dup3\n      add\n        /* \"#utility.yul\":11063:11092   */\n      mstore\n      shl(0xb9, 0x2737ba1037bbb732b9)\n        /* \"#utility.yul\":11108:11126   */\n      0x44\n      dup3\n      add\n        /* \"#utility.yul\":11101:11140   */\n      mstore\n        /* \"#utility.yul\":11157:11175   */\n      0x64\n      add\n        /* \"contracts/MultiSigWallet.sol\":1255:1296  require(isOwner[msg.sender], \"Not owner\") */\n      tag_125\n        /* \"#utility.yul\":10849:11181   */\n      jump\n        /* \"contracts/MultiSigWallet.sol\":1255:1296  require(isOwner[msg.sender], \"Not owner\") */\n    tag_161:\n        /* \"contracts/MultiSigWallet.sol\":2495:2516  newSignaturesRequired */\n      dup2\n        /* \"contracts/MultiSigWallet.sol\":1530:1531  0 */\n      0x00\n        /* \"contracts/MultiSigWallet.sol\":1508:1527  _signaturesRequired */\n      dup2\n        /* \"contracts/MultiSigWallet.sol\":1508:1531  _signaturesRequired > 0 */\n      gt\n        /* \"contracts/MultiSigWallet.sol\":1500:1566  require(_signaturesRequired > 0, \"Must be non-zero sigs required\") */\n      tag_165\n      jumpi\n      mload(0x40)\n      shl(0xe5, 0x461bcd)\n      dup2\n      mstore\n      0x04\n      add\n      tag_125\n      swap1\n      tag_130\n      jump\t// in\n    tag_165:\n      sub(shl(0xa0, 0x01), 0x01)\n        /* \"contracts/MultiSigWallet.sol\":2540:2563  newSigner != address(0) */\n      dup5\n      and\n        /* \"contracts/MultiSigWallet.sol\":2532:2591  require(newSigner != address(0), \"addSigner: zero address\") */\n      tag_168\n      jumpi\n      mload(0x40)\n      shl(0xe5, 0x461bcd)\n      dup2\n      mstore\n        /* \"#utility.yul\":11388:11390   */\n      0x20\n        /* \"contracts/MultiSigWallet.sol\":2532:2591  require(newSigner != address(0), \"addSigner: zero address\") */\n      0x04\n      dup3\n      add\n        /* \"#utility.yul\":11370:11391   */\n      mstore\n        /* \"#utility.yul\":11427:11429   */\n      0x17\n        /* \"#utility.yul\":11407:11425   */\n      0x24\n      dup3\n      add\n        /* \"#utility.yul\":11400:11430   */\n      mstore\n        /* \"#utility.yul\":11466:11491   */\n      0x6164645369676e65723a207a65726f2061646472657373000000000000000000\n        /* \"#utility.yul\":11446:11464   */\n      0x44\n      dup3\n      add\n        /* \"#utility.yul\":11439:11492   */\n      mstore\n        /* \"#utility.yul\":11509:11527   */\n      0x64\n      add\n        /* \"contracts/MultiSigWallet.sol\":2532:2591  require(newSigner != address(0), \"addSigner: zero address\") */\n      tag_125\n        /* \"#utility.yul\":11186:11533   */\n      jump\n        /* \"contracts/MultiSigWallet.sol\":2532:2591  require(newSigner != address(0), \"addSigner: zero address\") */\n    tag_168:\n      sub(shl(0xa0, 0x01), 0x01)\n        /* \"contracts/MultiSigWallet.sol\":2610:2628  isOwner[newSigner] */\n      dup5\n      and\n      0x00\n      swap1\n      dup2\n      mstore\n        /* \"contracts/MultiSigWallet.sol\":2610:2617  isOwner */\n      0x01\n        /* \"contracts/MultiSigWallet.sol\":2610:2628  isOwner[newSigner] */\n      0x20\n      mstore\n      0x40\n      swap1\n      keccak256\n      sload\n      0xff\n      and\n        /* \"contracts/MultiSigWallet.sol\":2609:2628  !isOwner[newSigner] */\n      iszero\n        /* \"contracts/MultiSigWallet.sol\":2601:2660  require(!isOwner[newSigner], \"addSigner: owner not unique\") */\n      tag_171\n      jumpi\n      mload(0x40)\n      shl(0xe5, 0x461bcd)\n      dup2\n      mstore\n        /* \"#utility.yul\":11740:11742   */\n      0x20\n        /* \"contracts/MultiSigWallet.sol\":2601:2660  require(!isOwner[newSigner], \"addSigner: owner not unique\") */\n      0x04\n      dup3\n      add\n        /* \"#utility.yul\":11722:11743   */\n      mstore\n        /* \"#utility.yul\":11779:11781   */\n      0x1b\n        /* \"#utility.yul\":11759:11777   */\n      0x24\n      dup3\n      add\n        /* \"#utility.yul\":11752:11782   */\n      mstore\n        /* \"#utility.yul\":11818:11847   */\n      0x6164645369676e65723a206f776e6572206e6f7420756e697175650000000000\n        /* \"#utility.yul\":11798:11816   */\n      0x44\n      dup3\n      add\n        /* \"#utility.yul\":11791:11848   */\n      mstore\n        /* \"#utility.yul\":11865:11883   */\n      0x64\n      add\n        /* \"contracts/MultiSigWallet.sol\":2601:2660  require(!isOwner[newSigner], \"addSigner: owner not unique\") */\n      tag_125\n        /* \"#utility.yul\":11538:11889   */\n      jump\n        /* \"contracts/MultiSigWallet.sol\":2601:2660  require(!isOwner[newSigner], \"addSigner: owner not unique\") */\n    tag_171:\n      sub(shl(0xa0, 0x01), 0x01)\n        /* \"contracts/MultiSigWallet.sol\":2670:2688  isOwner[newSigner] */\n      dup5\n      and\n      0x00\n      dup2\n      dup2\n      mstore\n        /* \"contracts/MultiSigWallet.sol\":2691:2695  true */\n      0x01\n        /* \"contracts/MultiSigWallet.sol\":2670:2688  isOwner[newSigner] */\n      0x20\n      dup2\n      swap1\n      mstore\n      0x40\n      dup3\n      keccak256\n        /* \"contracts/MultiSigWallet.sol\":2670:2695  isOwner[newSigner] = true */\n      dup1\n      sload\n      not(0xff)\n      and\n      dup3\n      or\n      swap1\n      sstore\n        /* \"contracts/MultiSigWallet.sol\":2705:2711  owners */\n      0x05\n        /* \"contracts/MultiSigWallet.sol\":2705:2727  owners.push(newSigner) */\n      dup1\n      sload\n      swap2\n      dup3\n      add\n      dup2\n      sstore\n      swap1\n      swap2\n      mstore\n      0x036b6384b5eca791c62761152d0c79bb0604c104a5fb6f4eb0703f3154bb3db0\n      add\n      dup1\n      sload\n      not(sub(shl(0xa0, 0x01), 0x01))\n      and\n      swap1\n      swap2\n      or\n      swap1\n      sstore\n        /* \"contracts/MultiSigWallet.sol\":2737:2755  signaturesRequired */\n      0x06\n        /* \"contracts/MultiSigWallet.sol\":2737:2779  signaturesRequired = newSignaturesRequired */\n      dup4\n      swap1\n      sstore\n        /* \"contracts/MultiSigWallet.sol\":2789:2843  updateSignaturesRequired(owner, newSignaturesRequired) */\n      tag_137\n        /* \"contracts/MultiSigWallet.sol\":2814:2819  owner */\n      dup6\n        /* \"contracts/MultiSigWallet.sol\":2758:2779  newSignaturesRequired */\n      dup5\n        /* \"contracts/MultiSigWallet.sol\":2789:2813  updateSignaturesRequired */\n      tag_138\n        /* \"contracts/MultiSigWallet.sol\":2789:2843  updateSignaturesRequired(owner, newSignaturesRequired) */\n      jump\t// in\n        /* \"contracts/MultiSigWallet.sol\":4492:4885  function getFunctionData(... */\n    tag_97:\n        /* \"contracts/MultiSigWallet.sol\":4717:4878  abi.encodeWithSignature(... */\n      mload(0x40)\n      sub(shl(0xa0, 0x01), 0x01)\n        /* \"#utility.yul\":12152:12167   */\n      dup1\n      dup6\n      and\n        /* \"contracts/MultiSigWallet.sol\":4717:4878  abi.encodeWithSignature(... */\n      0x24\n      dup4\n      add\n        /* \"#utility.yul\":12134:12168   */\n      mstore\n        /* \"#utility.yul\":12204:12219   */\n      dup4\n      and\n        /* \"#utility.yul\":12184:12202   */\n      0x44\n      dup3\n      add\n        /* \"#utility.yul\":12177:12220   */\n      mstore\n        /* \"#utility.yul\":12236:12254   */\n      0x64\n      dup2\n      add\n        /* \"#utility.yul\":12229:12263   */\n      dup3\n      swap1\n      mstore\n        /* \"contracts/MultiSigWallet.sol\":4674:4686  bytes memory */\n      0x60\n      swap1\n        /* \"contracts/MultiSigWallet.sol\":4758:4775  functionSignature */\n      dup6\n      swap1\n        /* \"#utility.yul\":12069:12087   */\n      0x84\n      add\n        /* \"contracts/MultiSigWallet.sol\":4717:4878  abi.encodeWithSignature(... */\n      0x40\n      dup1\n      mload\n      not(0x1f)\n      dup2\n      dup5\n      sub\n      add\n      dup2\n      mstore\n      swap1\n      dup3\n      swap1\n      mstore\n      swap2\n      tag_184\n      swap2\n      tag_185\n      jump\t// in\n    tag_184:\n      mload(0x40)\n      swap1\n      dup2\n      swap1\n      sub\n      swap1\n      keccak256\n      0x20\n      dup3\n      add\n      dup1\n      mload\n      sub(shl(0xe0, 0x01), 0x01)\n      and\n      not(sub(shl(0xe0, 0x01), 0x01))\n      swap1\n      swap3\n      and\n      swap2\n      swap1\n      swap2\n      or\n      swap1\n      mstore\n      swap1\n      pop\n        /* \"contracts/MultiSigWallet.sol\":4492:4885  function getFunctionData(... */\n      swap5\n      swap4\n      pop\n      pop\n      pop\n      pop\n      jump\t// out\n        /* \"contracts/MultiSigWallet.sol\":4891:6455  function executeApproval(... */\n    tag_112:\n        /* \"contracts/MultiSigWallet.sol\":1271:1281  msg.sender */\n      caller\n        /* \"contracts/MultiSigWallet.sol\":5155:5159  bool */\n      0x00\n        /* \"contracts/MultiSigWallet.sol\":1263:1282  isOwner[msg.sender] */\n      swap1\n      dup2\n      mstore\n        /* \"contracts/MultiSigWallet.sol\":1263:1270  isOwner */\n      0x01\n        /* \"contracts/MultiSigWallet.sol\":1263:1282  isOwner[msg.sender] */\n      0x20\n      mstore\n      0x40\n      dup2\n      keccak256\n      sload\n        /* \"contracts/MultiSigWallet.sol\":5161:5173  bytes memory */\n      0x60\n      swap1\n        /* \"contracts/MultiSigWallet.sol\":1263:1282  isOwner[msg.sender] */\n      0xff\n      and\n        /* \"contracts/MultiSigWallet.sol\":1255:1296  require(isOwner[msg.sender], \"Not owner\") */\n      tag_187\n      jumpi\n      mload(0x40)\n      shl(0xe5, 0x461bcd)\n      dup2\n      mstore\n        /* \"#utility.yul\":11051:11053   */\n      0x20\n        /* \"contracts/MultiSigWallet.sol\":1255:1296  require(isOwner[msg.sender], \"Not owner\") */\n      0x04\n      dup3\n      add\n        /* \"#utility.yul\":11033:11054   */\n      mstore\n        /* \"#utility.yul\":11090:11091   */\n      0x09\n        /* \"#utility.yul\":11070:11088   */\n      0x24\n      dup3\n      add\n        /* \"#utility.yul\":11063:11092   */\n      mstore\n      shl(0xb9, 0x2737ba1037bbb732b9)\n        /* \"#utility.yul\":11108:11126   */\n      0x44\n      dup3\n      add\n        /* \"#utility.yul\":11101:11140   */\n      mstore\n        /* \"#utility.yul\":11157:11175   */\n      0x64\n      add\n        /* \"contracts/MultiSigWallet.sol\":1255:1296  require(isOwner[msg.sender], \"Not owner\") */\n      tag_125\n        /* \"#utility.yul\":10849:11181   */\n      jump\n        /* \"contracts/MultiSigWallet.sol\":1255:1296  require(isOwner[msg.sender], \"Not owner\") */\n    tag_187:\n        /* \"contracts/MultiSigWallet.sol\":5185:5198  bytes32 _hash */\n      0x00\n        /* \"contracts/MultiSigWallet.sol\":5201:5224  getMessageHash(passkey) */\n      tag_190\n        /* \"contracts/MultiSigWallet.sol\":5216:5223  passkey */\n      dup7\n        /* \"contracts/MultiSigWallet.sol\":5201:5215  getMessageHash */\n      tag_191\n        /* \"contracts/MultiSigWallet.sol\":5201:5224  getMessageHash(passkey) */\n      jump\t// in\n    tag_190:\n        /* \"contracts/MultiSigWallet.sol\":5185:5224  bytes32 _hash = getMessageHash(passkey) */\n      swap1\n      pop\n        /* \"contracts/MultiSigWallet.sol\":5234:5256  address duplicateGuard */\n      0x00\n        /* \"contracts/MultiSigWallet.sol\":5266:5283  address recovered */\n      dup1\n        /* \"contracts/MultiSigWallet.sol\":5286:5320  verifyUserSign(passkey, signature) */\n      tag_192\n        /* \"contracts/MultiSigWallet.sol\":5301:5308  passkey */\n      dup9\n        /* \"contracts/MultiSigWallet.sol\":5310:5319  signature */\n      dup11\n        /* \"contracts/MultiSigWallet.sol\":5286:5300  verifyUserSign */\n      tag_193\n        /* \"contracts/MultiSigWallet.sol\":5286:5320  verifyUserSign(passkey, signature) */\n      jump\t// in\n    tag_192:\n        /* \"contracts/MultiSigWallet.sol\":5266:5320  address recovered = verifyUserSign(passkey, signature) */\n      swap1\n      pop\n        /* \"contracts/MultiSigWallet.sol\":5363:5377  duplicateGuard */\n      dup2\n      sub(shl(0xa0, 0x01), 0x01)\n        /* \"contracts/MultiSigWallet.sol\":5351:5377  recovered > duplicateGuard */\n      and\n        /* \"contracts/MultiSigWallet.sol\":5351:5360  recovered */\n      dup2\n      sub(shl(0xa0, 0x01), 0x01)\n        /* \"contracts/MultiSigWallet.sol\":5351:5377  recovered > duplicateGuard */\n      and\n      gt\n        /* \"contracts/MultiSigWallet.sol\":5330:5456  require(... */\n      tag_194\n      jumpi\n      mload(0x40)\n      shl(0xe5, 0x461bcd)\n      dup2\n      mstore\n        /* \"#utility.yul\":12784:12786   */\n      0x20\n        /* \"contracts/MultiSigWallet.sol\":5330:5456  require(... */\n      0x04\n      dup3\n      add\n        /* \"#utility.yul\":12766:12787   */\n      mstore\n        /* \"#utility.yul\":12823:12825   */\n      0x35\n        /* \"#utility.yul\":12803:12821   */\n      0x24\n      dup3\n      add\n        /* \"#utility.yul\":12796:12826   */\n      mstore\n        /* \"#utility.yul\":12862:12896   */\n      0x657865637574655472616e73616374696f6e3a206475706c6963617465206f72\n        /* \"#utility.yul\":12842:12860   */\n      0x44\n      dup3\n      add\n        /* \"#utility.yul\":12835:12897   */\n      mstore\n      shl(0x58, 0x20756e6f726465726564207369676e617475726573)\n        /* \"#utility.yul\":12913:12931   */\n      0x64\n      dup3\n      add\n        /* \"#utility.yul\":12906:12957   */\n      mstore\n        /* \"#utility.yul\":12974:12993   */\n      0x84\n      add\n        /* \"contracts/MultiSigWallet.sol\":5330:5456  require(... */\n      tag_125\n        /* \"#utility.yul\":12582:12999   */\n      jump\n        /* \"contracts/MultiSigWallet.sol\":5330:5456  require(... */\n    tag_194:\n      sub(shl(0xa0, 0x01), 0x01)\n        /* \"contracts/MultiSigWallet.sol\":5528:5546  isOwner[recovered] */\n      dup2\n      and\n        /* \"contracts/MultiSigWallet.sol\":5502:5514  bool success */\n      0x00\n        /* \"contracts/MultiSigWallet.sol\":5528:5546  isOwner[recovered] */\n      swap1\n      dup2\n      mstore\n        /* \"contracts/MultiSigWallet.sol\":5528:5535  isOwner */\n      0x01\n        /* \"contracts/MultiSigWallet.sol\":5528:5546  isOwner[recovered] */\n      0x20\n      mstore\n      0x40\n      dup2\n      keccak256\n      sload\n        /* \"contracts/MultiSigWallet.sol\":5483:5492  recovered */\n      swap2\n      swap3\n      pop\n      dup3\n      swap2\n        /* \"contracts/MultiSigWallet.sol\":5528:5546  isOwner[recovered] */\n      0xff\n      and\n        /* \"contracts/MultiSigWallet.sol\":5524:5809  if (isOwner[recovered]) {... */\n      iszero\n      tag_197\n      jumpi\n        /* \"contracts/MultiSigWallet.sol\":5562:5577  validSignatures */\n      0x04\n        /* \"contracts/MultiSigWallet.sol\":5578:5594  transactionStamp */\n      dup9\n        /* \"contracts/MultiSigWallet.sol\":5562:5595  validSignatures[transactionStamp] */\n      mload(0x40)\n      tag_198\n      swap2\n      swap1\n      tag_185\n      jump\t// in\n    tag_198:\n      swap1\n      dup2\n      mstore\n      mload(0x40)\n      swap1\n      dup2\n      swap1\n      sub\n      0x20\n      add\n      swap1\n      keccak256\n        /* \"contracts/MultiSigWallet.sol\":5562:5597  validSignatures[transactionStamp]++ */\n      dup1\n      sload\n      swap1\n        /* \"contracts/MultiSigWallet.sol\":5562:5595  validSignatures[transactionStamp] */\n      0x00\n        /* \"contracts/MultiSigWallet.sol\":5562:5597  validSignatures[transactionStamp]++ */\n      tag_199\n      dup4\n      tag_150\n      jump\t// in\n    tag_199:\n      swap2\n      swap1\n      pop\n      sstore\n      pop\n        /* \"contracts/MultiSigWallet.sol\":5654:5669  validSignatures */\n      0x04\n        /* \"contracts/MultiSigWallet.sol\":5687:5703  transactionStamp */\n      dup9\n        /* \"contracts/MultiSigWallet.sol\":5654:5717  validSignatures[... */\n      mload(0x40)\n      tag_200\n      swap2\n      swap1\n      tag_185\n      jump\t// in\n    tag_200:\n      swap1\n      dup2\n      mstore\n      0x20\n      add\n      mload(0x40)\n      dup1\n      swap2\n      sub\n      swap1\n      keccak256\n      sload\n        /* \"contracts/MultiSigWallet.sol\":5611:5633  transactionValidations */\n      0x02\n        /* \"contracts/MultiSigWallet.sol\":5634:5650  transactionStamp */\n      dup10\n        /* \"contracts/MultiSigWallet.sol\":5611:5651  transactionValidations[transactionStamp] */\n      mload(0x40)\n      tag_201\n      swap2\n      swap1\n      tag_185\n      jump\t// in\n    tag_201:\n      swap1\n      dup2\n      mstore\n      0x40\n      dup1\n      mload\n      0x20\n      swap3\n      dup2\n      swap1\n      sub\n      dup4\n      add\n      swap1\n      keccak256\n        /* \"contracts/MultiSigWallet.sol\":5611:5717  transactionValidations[transactionStamp] = validSignatures[... */\n      swap3\n      swap1\n      swap3\n      sstore\n        /* \"contracts/MultiSigWallet.sol\":5731:5751  transactionNo[trxNo] */\n      0x00\n      dup10\n      dup2\n      mstore\n        /* \"contracts/MultiSigWallet.sol\":5731:5744  transactionNo */\n      0x03\n        /* \"contracts/MultiSigWallet.sol\":5731:5751  transactionNo[trxNo] */\n      swap1\n      swap2\n      mstore\n      keccak256\n        /* \"contracts/MultiSigWallet.sol\":5731:5770  transactionNo[trxNo] = transactionStamp */\n      tag_202\n        /* \"contracts/MultiSigWallet.sol\":5754:5770  transactionStamp */\n      dup10\n        /* \"contracts/MultiSigWallet.sol\":5731:5751  transactionNo[trxNo] */\n      dup3\n        /* \"contracts/MultiSigWallet.sol\":5731:5770  transactionNo[trxNo] = transactionStamp */\n      tag_203\n      jump\t// in\n    tag_202:\n      pop\n        /* \"contracts/MultiSigWallet.sol\":5794:5798  true */\n      0x01\n        /* \"contracts/MultiSigWallet.sol\":5784:5798  success = true */\n      swap1\n      pop\n        /* \"contracts/MultiSigWallet.sol\":5524:5809  if (isOwner[recovered]) {... */\n    tag_197:\n        /* \"contracts/MultiSigWallet.sol\":5876:5894  signaturesRequired */\n      sload(0x06)\n        /* \"contracts/MultiSigWallet.sol\":5839:5854  validSignatures */\n      0x04\n        /* \"contracts/MultiSigWallet.sol\":5855:5871  transactionStamp */\n      dup10\n        /* \"contracts/MultiSigWallet.sol\":5839:5872  validSignatures[transactionStamp] */\n      mload(0x40)\n      tag_204\n      swap2\n      swap1\n      tag_185\n      jump\t// in\n    tag_204:\n      swap1\n      dup2\n      mstore\n      0x20\n      add\n      mload(0x40)\n      dup1\n      swap2\n      sub\n      swap1\n      keccak256\n      sload\n        /* \"contracts/MultiSigWallet.sol\":5839:5894  validSignatures[transactionStamp] >= signaturesRequired */\n      lt\n      iszero\n        /* \"contracts/MultiSigWallet.sol\":5818:5967  require(... */\n      tag_205\n      jumpi\n      mload(0x40)\n      shl(0xe5, 0x461bcd)\n      dup2\n      mstore\n        /* \"#utility.yul\":15250:15252   */\n      0x20\n        /* \"contracts/MultiSigWallet.sol\":5818:5967  require(... */\n      0x04\n      dup3\n      add\n        /* \"#utility.yul\":15232:15253   */\n      mstore\n        /* \"#utility.yul\":15289:15291   */\n      0x2f\n        /* \"#utility.yul\":15269:15287   */\n      0x24\n      dup3\n      add\n        /* \"#utility.yul\":15262:15292   */\n      mstore\n        /* \"#utility.yul\":15328:15362   */\n      0x657865637574655472616e73616374696f6e3a206e6f7420656e6f7567682076\n        /* \"#utility.yul\":15308:15326   */\n      0x44\n      dup3\n      add\n        /* \"#utility.yul\":15301:15363   */\n      mstore\n      shl(0x88, 0x616c6964207369676e617475726573)\n        /* \"#utility.yul\":15379:15397   */\n      0x64\n      dup3\n      add\n        /* \"#utility.yul\":15372:15417   */\n      mstore\n        /* \"#utility.yul\":15434:15453   */\n      0x84\n      add\n        /* \"contracts/MultiSigWallet.sol\":5818:5967  require(... */\n      tag_125\n        /* \"#utility.yul\":15048:15459   */\n      jump\n        /* \"contracts/MultiSigWallet.sol\":5818:5967  require(... */\n    tag_205:\n        /* \"contracts/MultiSigWallet.sol\":6065:6072  success */\n      dup1\n        /* \"contracts/MultiSigWallet.sol\":6057:6106  require(success, \"executeTransaction: tx failed\") */\n      tag_208\n      jumpi\n      mload(0x40)\n      shl(0xe5, 0x461bcd)\n      dup2\n      mstore\n        /* \"#utility.yul\":15666:15668   */\n      0x20\n        /* \"contracts/MultiSigWallet.sol\":6057:6106  require(success, \"executeTransaction: tx failed\") */\n      0x04\n      dup3\n      add\n        /* \"#utility.yul\":15648:15669   */\n      mstore\n        /* \"#utility.yul\":15705:15707   */\n      0x1d\n        /* \"#utility.yul\":15685:15703   */\n      0x24\n      dup3\n      add\n        /* \"#utility.yul\":15678:15708   */\n      mstore\n        /* \"#utility.yul\":15744:15775   */\n      0x657865637574655472616e73616374696f6e3a207478206661696c6564000000\n        /* \"#utility.yul\":15724:15742   */\n      0x44\n      dup3\n      add\n        /* \"#utility.yul\":15717:15776   */\n      mstore\n        /* \"#utility.yul\":15793:15811   */\n      0x64\n      add\n        /* \"contracts/MultiSigWallet.sol\":6057:6106  require(success, \"executeTransaction: tx failed\") */\n      tag_125\n        /* \"#utility.yul\":15464:15817   */\n      jump\n        /* \"contracts/MultiSigWallet.sol\":6057:6106  require(success, \"executeTransaction: tx failed\") */\n    tag_208:\n        /* \"contracts/MultiSigWallet.sol\":6141:6151  msg.sender */\n      caller\n        /* \"contracts/MultiSigWallet.sol\":6122:6181  ExecuteTransaction(msg.sender, to, value, trxNo - 1, _hash) */\n      0x01981a0759c7f7295b44ccbd200535e8a29744b41f8da48b42a35b8b4b8b04b6\n        /* \"contracts/MultiSigWallet.sol\":6153:6155  to */\n      dup14\n        /* \"contracts/MultiSigWallet.sol\":6157:6162  value */\n      dup14\n        /* \"contracts/MultiSigWallet.sol\":6164:6173  trxNo - 1 */\n      tag_211\n        /* \"contracts/MultiSigWallet.sol\":6172:6173  1 */\n      0x01\n        /* \"contracts/MultiSigWallet.sol\":6164:6169  trxNo */\n      dup13\n        /* \"contracts/MultiSigWallet.sol\":6164:6173  trxNo - 1 */\n      tag_212\n      jump\t// in\n    tag_211:\n        /* \"contracts/MultiSigWallet.sol\":6122:6181  ExecuteTransaction(msg.sender, to, value, trxNo - 1, _hash) */\n      0x40\n      dup1\n      mload\n      sub(shl(0xa0, 0x01), 0x01)\n        /* \"#utility.yul\":16220:16252   */\n      swap1\n      swap5\n      and\n        /* \"#utility.yul\":16202:16253   */\n      dup5\n      mstore\n        /* \"#utility.yul\":16284:16286   */\n      0x20\n        /* \"#utility.yul\":16269:16287   */\n      dup5\n      add\n        /* \"#utility.yul\":16262:16296   */\n      swap3\n      swap1\n      swap3\n      mstore\n        /* \"#utility.yul\":16312:16330   */\n      swap1\n      dup3\n      add\n        /* \"#utility.yul\":16305:16339   */\n      mstore\n        /* \"#utility.yul\":16370:16372   */\n      0x60\n        /* \"#utility.yul\":16355:16373   */\n      dup2\n      add\n        /* \"#utility.yul\":16348:16382   */\n      dup8\n      swap1\n      mstore\n        /* \"#utility.yul\":16189:16192   */\n      0x80\n        /* \"#utility.yul\":16174:16193   */\n      add\n        /* \"contracts/MultiSigWallet.sol\":6122:6181  ExecuteTransaction(msg.sender, to, value, trxNo - 1, _hash) */\n      mload(0x40)\n      dup1\n      swap2\n      sub\n      swap1\n      log2\n        /* \"contracts/MultiSigWallet.sol\":6192:6209  bytes memory sign */\n      0x00\n        /* \"contracts/MultiSigWallet.sol\":6301:6303  to */\n      dup13\n        /* \"contracts/MultiSigWallet.sol\":6305:6310  value */\n      dup13\n        /* \"contracts/MultiSigWallet.sol\":6312:6321  signature */\n      dup13\n        /* \"contracts/MultiSigWallet.sol\":6323:6330  passkey */\n      dup13\n        /* \"contracts/MultiSigWallet.sol\":6332:6348  transactionStamp */\n      dup13\n        /* \"contracts/MultiSigWallet.sol\":6350:6355  trxNo */\n      dup13\n        /* \"contracts/MultiSigWallet.sol\":6212:6356  abi.encodeWithSignature(\"executeApproval(address,uint256,bytes,string,string,uint256 )\", to, value, signature, passkey, transactionStamp, trxNo) */\n      add(0x24, mload(0x40))\n      tag_215\n      swap7\n      swap6\n      swap5\n      swap4\n      swap3\n      swap2\n      swap1\n      tag_216\n      jump\t// in\n    tag_215:\n      0x40\n      dup1\n      mload\n      not(0x1f)\n      dup2\n      dup5\n      sub\n      add\n      dup2\n      mstore\n      swap2\n      dup2\n      mstore\n      0x20\n      dup3\n      add\n      dup1\n      mload\n      sub(shl(0xe0, 0x01), 0x01)\n      and\n      shl(0xe5, 0x013ce2e1)\n      or\n      swap1\n      mstore\n        /* \"contracts/MultiSigWallet.sol\":6380:6418  ExecuteApproval(true, sign, signature) */\n      mload\n        /* \"contracts/MultiSigWallet.sol\":6212:6356  abi.encodeWithSignature(\"executeApproval(address,uint256,bytes,string,string,uint256 )\", to, value, signature, passkey, transactionStamp, trxNo) */\n      swap1\n      swap2\n      pop\n        /* \"contracts/MultiSigWallet.sol\":6380:6418  ExecuteApproval(true, sign, signature) */\n      0xe7b1d94480f1359d5cb74f58b9c6ebc4ccca5c469de5135b8047cdc17e00b87d\n      swap1\n      tag_217\n      swap1\n        /* \"contracts/MultiSigWallet.sol\":6396:6400  true */\n      0x01\n      swap1\n        /* \"contracts/MultiSigWallet.sol\":6212:6356  abi.encodeWithSignature(\"executeApproval(address,uint256,bytes,string,string,uint256 )\", to, value, signature, passkey, transactionStamp, trxNo) */\n      dup5\n      swap1\n        /* \"contracts/MultiSigWallet.sol\":6408:6417  signature */\n      dup16\n      swap1\n        /* \"contracts/MultiSigWallet.sol\":6380:6418  ExecuteApproval(true, sign, signature) */\n      tag_218\n      jump\t// in\n    tag_217:\n      mload(0x40)\n      dup1\n      swap2\n      sub\n      swap1\n      log1\n        /* \"contracts/MultiSigWallet.sol\":6437:6441  true */\n      0x01\n      swap14\n        /* \"contracts/MultiSigWallet.sol\":6443:6447  sign */\n      swap1\n      swap13\n      pop\n        /* \"contracts/MultiSigWallet.sol\":4891:6455  function executeApproval(... */\n      swap11\n      pop\n      pop\n      pop\n      pop\n      pop\n      pop\n      pop\n      pop\n      pop\n      pop\n      pop\n      jump\t// out\n        /* \"contracts/ECDSA.sol\":3702:3957  function recover(bytes32 hash, bytes memory signature) internal pure returns (address) {... */\n    tag_122:\n        /* \"contracts/ECDSA.sol\":3780:3787  address */\n      0x00\n        /* \"contracts/ECDSA.sol\":3800:3817  address recovered */\n      dup1\n        /* \"contracts/ECDSA.sol\":3819:3837  RecoverError error */\n      0x00\n        /* \"contracts/ECDSA.sol\":3839:3855  bytes32 errorArg */\n      dup1\n        /* \"contracts/ECDSA.sol\":3859:3886  tryRecover(hash, signature) */\n      tag_220\n        /* \"contracts/ECDSA.sol\":3870:3874  hash */\n      dup7\n        /* \"contracts/ECDSA.sol\":3876:3885  signature */\n      dup7\n        /* \"contracts/ECDSA.sol\":3859:3869  tryRecover */\n      tag_221\n        /* \"contracts/ECDSA.sol\":3859:3886  tryRecover(hash, signature) */\n      jump\t// in\n    tag_220:\n        /* \"contracts/ECDSA.sol\":3799:3886  (address recovered, RecoverError error, bytes32 errorArg) = tryRecover(hash, signature) */\n      swap3\n      pop\n      swap3\n      pop\n      swap3\n      pop\n        /* \"contracts/ECDSA.sol\":3896:3924  _throwError(error, errorArg) */\n      tag_222\n        /* \"contracts/ECDSA.sol\":3908:3913  error */\n      dup3\n        /* \"contracts/ECDSA.sol\":3915:3923  errorArg */\n      dup3\n        /* \"contracts/ECDSA.sol\":3896:3907  _throwError */\n      tag_223\n        /* \"contracts/ECDSA.sol\":3896:3924  _throwError(error, errorArg) */\n      jump\t// in\n    tag_222:\n      pop\n        /* \"contracts/ECDSA.sol\":3941:3950  recovered */\n      swap1\n      swap5\n        /* \"contracts/ECDSA.sol\":3702:3957  function recover(bytes32 hash, bytes memory signature) internal pure returns (address) {... */\n      swap4\n      pop\n      pop\n      pop\n      pop\n      jump\t// out\n        /* \"contracts/MultiSigWallet.sol\":3628:4246  function _removeOwner(address _oldSigner) private {... */\n    tag_136:\n      sub(shl(0xa0, 0x01), 0x01)\n        /* \"contracts/MultiSigWallet.sol\":3688:3707  isOwner[_oldSigner] */\n      dup2\n      and\n        /* \"contracts/MultiSigWallet.sol\":3710:3715  false */\n      0x00\n        /* \"contracts/MultiSigWallet.sol\":3688:3707  isOwner[_oldSigner] */\n      swap1\n      dup2\n      mstore\n        /* \"contracts/MultiSigWallet.sol\":3688:3695  isOwner */\n      0x01\n        /* \"contracts/MultiSigWallet.sol\":3688:3707  isOwner[_oldSigner] */\n      0x20\n      mstore\n      0x40\n      dup2\n      keccak256\n        /* \"contracts/MultiSigWallet.sol\":3688:3715  isOwner[_oldSigner] = false */\n      dup1\n      sload\n      not(0xff)\n      and\n      swap1\n      sstore\n        /* \"contracts/MultiSigWallet.sol\":3748:3754  owners */\n      0x05\n        /* \"contracts/MultiSigWallet.sol\":3748:3761  owners.length */\n      sload\n      swap1\n      dup2\n        /* \"contracts/MultiSigWallet.sol\":3803:3831  new address[](owners.length) */\n      0xffffffffffffffff\n      dup2\n      gt\n      iszero\n      tag_226\n      jumpi\n      tag_226\n      tag_227\n      jump\t// in\n    tag_226:\n      mload(0x40)\n      swap1\n      dup1\n      dup3\n      mstore\n      dup1\n      0x20\n      mul\n      0x20\n      add\n      dup3\n      add\n      0x40\n      mstore\n      dup1\n      iszero\n      tag_228\n      jumpi\n      dup2\n      0x20\n      add\n      0x20\n      dup3\n      mul\n      dup1\n      calldatasize\n      dup4\n      calldatacopy\n      add\n      swap1\n      pop\n    tag_228:\n      pop\n        /* \"contracts/MultiSigWallet.sol\":3771:3831  address[] memory poppedOwners = new address[](owners.length) */\n      swap1\n      pop\n        /* \"contracts/MultiSigWallet.sol\":3846:3855  uint256 i */\n      0x00\n        /* \"contracts/MultiSigWallet.sol\":3858:3874  ownersLength - 1 */\n      tag_232\n        /* \"contracts/MultiSigWallet.sol\":3873:3874  1 */\n      0x01\n        /* \"contracts/MultiSigWallet.sol\":3858:3870  ownersLength */\n      dup5\n        /* \"contracts/MultiSigWallet.sol\":3858:3874  ownersLength - 1 */\n      tag_212\n      jump\t// in\n    tag_232:\n        /* \"contracts/MultiSigWallet.sol\":3846:3874  uint256 i = ownersLength - 1 */\n      swap1\n      pop\n        /* \"contracts/MultiSigWallet.sol\":3841:4240  for (uint256 i = ownersLength - 1; i >= 0; i--) {... */\n    tag_229:\n        /* \"contracts/MultiSigWallet.sol\":3920:3930  _oldSigner */\n      dup4\n      sub(shl(0xa0, 0x01), 0x01)\n        /* \"contracts/MultiSigWallet.sol\":3907:3930  owners[i] != _oldSigner */\n      and\n        /* \"contracts/MultiSigWallet.sol\":3907:3913  owners */\n      0x05\n        /* \"contracts/MultiSigWallet.sol\":3914:3915  i */\n      dup3\n        /* \"contracts/MultiSigWallet.sol\":3907:3916  owners[i] */\n      dup2\n      sload\n      dup2\n      lt\n      tag_234\n      jumpi\n      tag_234\n      tag_235\n      jump\t// in\n    tag_234:\n      0x00\n      swap2\n      dup3\n      mstore\n      0x20\n      swap1\n      swap2\n      keccak256\n      add\n      sload\n      sub(shl(0xa0, 0x01), 0x01)\n      and\n        /* \"contracts/MultiSigWallet.sol\":3907:3930  owners[i] != _oldSigner */\n      eq\n        /* \"contracts/MultiSigWallet.sol\":3903:4230  if (owners[i] != _oldSigner) {... */\n      tag_237\n      jumpi\n        /* \"contracts/MultiSigWallet.sol\":3968:3974  owners */\n      0x05\n        /* \"contracts/MultiSigWallet.sol\":3975:3976  i */\n      dup2\n        /* \"contracts/MultiSigWallet.sol\":3968:3977  owners[i] */\n      dup2\n      sload\n      dup2\n      lt\n      tag_239\n      jumpi\n      tag_239\n      tag_235\n      jump\t// in\n    tag_239:\n      swap1\n      0x00\n      mstore\n      keccak256(0x00, 0x20)\n      add\n      0x00\n      swap1\n      sload\n      swap1\n      0x0100\n      exp\n      swap1\n      div\n      sub(shl(0xa0, 0x01), 0x01)\n      and\n        /* \"contracts/MultiSigWallet.sol\":3950:3962  poppedOwners */\n      dup3\n        /* \"contracts/MultiSigWallet.sol\":3963:3964  i */\n      dup3\n        /* \"contracts/MultiSigWallet.sol\":3950:3965  poppedOwners[i] */\n      dup2\n      mload\n      dup2\n      lt\n      tag_242\n      jumpi\n      tag_242\n      tag_235\n      jump\t// in\n    tag_242:\n      0x20\n      mul\n      0x20\n      add\n      add\n        /* \"contracts/MultiSigWallet.sol\":3950:3977  poppedOwners[i] = owners[i] */\n      swap1\n      sub(shl(0xa0, 0x01), 0x01)\n      and\n      swap1\n      dup2\n      sub(shl(0xa0, 0x01), 0x01)\n      and\n      dup2\n      mstore\n      pop\n      pop\n        /* \"contracts/MultiSigWallet.sol\":3995:4001  owners */\n      0x05\n        /* \"contracts/MultiSigWallet.sol\":3995:4007  owners.pop() */\n      dup1\n      sload\n      dup1\n      tag_244\n      jumpi\n      tag_244\n      tag_245\n      jump\t// in\n    tag_244:\n      0x00\n      dup3\n      dup2\n      mstore\n      0x20\n      swap1\n      keccak256\n      dup2\n      add\n      not(0x00)\n      swap1\n      dup2\n      add\n      dup1\n      sload\n      not(sub(shl(0xa0, 0x01), 0x01))\n      and\n      swap1\n      sstore\n      add\n      swap1\n      sstore\n        /* \"contracts/MultiSigWallet.sol\":3903:4230  if (owners[i] != _oldSigner) {... */\n      jump(tag_247)\n    tag_237:\n        /* \"contracts/MultiSigWallet.sol\":4046:4052  owners */\n      0x05\n        /* \"contracts/MultiSigWallet.sol\":4046:4058  owners.pop() */\n      dup1\n      sload\n      dup1\n      tag_249\n      jumpi\n      tag_249\n      tag_245\n      jump\t// in\n    tag_249:\n      0x00\n      dup3\n      dup2\n      mstore\n      0x20\n      swap1\n      keccak256\n      dup2\n      add\n      not(0x00)\n      swap1\n      dup2\n      add\n      dup1\n      sload\n      not(sub(shl(0xa0, 0x01), 0x01))\n      and\n      swap1\n      sstore\n      add\n      swap1\n      sstore\n        /* \"contracts/MultiSigWallet.sol\":4093:4094  i */\n      dup1\n        /* \"contracts/MultiSigWallet.sol\":4076:4192  for (uint256 j = i; j < ownersLength - 1; j++) {... */\n    tag_251:\n        /* \"contracts/MultiSigWallet.sol\":4100:4116  ownersLength - 1 */\n      tag_254\n        /* \"contracts/MultiSigWallet.sol\":4115:4116  1 */\n      0x01\n        /* \"contracts/MultiSigWallet.sol\":4100:4112  ownersLength */\n      dup6\n        /* \"contracts/MultiSigWallet.sol\":4100:4116  ownersLength - 1 */\n      tag_212\n      jump\t// in\n    tag_254:\n        /* \"contracts/MultiSigWallet.sol\":4096:4097  j */\n      dup2\n        /* \"contracts/MultiSigWallet.sol\":4096:4116  j < ownersLength - 1 */\n      lt\n        /* \"contracts/MultiSigWallet.sol\":4076:4192  for (uint256 j = i; j < ownersLength - 1; j++) {... */\n      iszero\n      tag_252\n      jumpi\n        /* \"contracts/MultiSigWallet.sol\":4145:4151  owners */\n      0x05\n        /* \"contracts/MultiSigWallet.sol\":4157:4169  poppedOwners */\n      dup4\n        /* \"contracts/MultiSigWallet.sol\":4170:4171  j */\n      dup3\n        /* \"contracts/MultiSigWallet.sol\":4157:4172  poppedOwners[j] */\n      dup2\n      mload\n      dup2\n      lt\n      tag_256\n      jumpi\n      tag_256\n      tag_235\n      jump\t// in\n    tag_256:\n      0x20\n      swap1\n      dup2\n      mul\n      swap2\n      swap1\n      swap2\n      add\n      dup2\n      add\n      mload\n        /* \"contracts/MultiSigWallet.sol\":4145:4173  owners.push(poppedOwners[j]) */\n      dup3\n      sload\n      0x01\n      dup1\n      dup3\n      add\n      dup6\n      sstore\n      0x00\n      swap5\n      dup6\n      mstore\n      swap3\n      swap1\n      swap4\n      keccak256\n      swap1\n      swap3\n      add\n      dup1\n      sload\n      not(sub(shl(0xa0, 0x01), 0x01))\n      and\n      sub(shl(0xa0, 0x01), 0x01)\n      swap1\n      swap4\n      and\n      swap3\n      swap1\n      swap3\n      or\n      swap1\n      swap2\n      sstore\n        /* \"contracts/MultiSigWallet.sol\":4118:4121  j++ */\n      add\n        /* \"contracts/MultiSigWallet.sol\":4076:4192  for (uint256 j = i; j < ownersLength - 1; j++) {... */\n      jump(tag_251)\n    tag_252:\n      pop\n        /* \"contracts/MultiSigWallet.sol\":4209:4216  return; */\n      pop\n      pop\n      pop\n        /* \"contracts/MultiSigWallet.sol\":3628:4246  function _removeOwner(address _oldSigner) private {... */\n      pop\n      jump\t// out\n        /* \"contracts/MultiSigWallet.sol\":3903:4230  if (owners[i] != _oldSigner) {... */\n    tag_247:\n        /* \"contracts/MultiSigWallet.sol\":3884:3887  i-- */\n      dup1\n      tag_258\n      dup2\n      tag_259\n      jump\t// in\n    tag_258:\n      swap2\n      pop\n      pop\n        /* \"contracts/MultiSigWallet.sol\":3841:4240  for (uint256 i = ownersLength - 1; i >= 0; i--) {... */\n      jump(tag_229)\n        /* \"contracts/MultiSigWallet.sol\":4252:4486  function updateSignaturesRequired(... */\n    tag_138:\n        /* \"contracts/MultiSigWallet.sol\":4372:4377  owner */\n      dup2\n        /* \"contracts/MultiSigWallet.sol\":1371:1381  msg.sender */\n      caller\n      sub(shl(0xa0, 0x01), 0x01)\n        /* \"contracts/MultiSigWallet.sol\":1371:1390  msg.sender == owner */\n      dup3\n      and\n      eq\n        /* \"contracts/MultiSigWallet.sol\":1363:1403  require(msg.sender == owner, \"Not Self\") */\n      tag_261\n      jumpi\n      mload(0x40)\n      shl(0xe5, 0x461bcd)\n      dup2\n      mstore\n      0x04\n      add\n      tag_125\n      swap1\n      tag_126\n      jump\t// in\n    tag_261:\n        /* \"contracts/MultiSigWallet.sol\":4404:4425  newSignaturesRequired */\n      dup2\n        /* \"contracts/MultiSigWallet.sol\":1530:1531  0 */\n      0x00\n        /* \"contracts/MultiSigWallet.sol\":1508:1527  _signaturesRequired */\n      dup2\n        /* \"contracts/MultiSigWallet.sol\":1508:1531  _signaturesRequired > 0 */\n      gt\n        /* \"contracts/MultiSigWallet.sol\":1500:1566  require(_signaturesRequired > 0, \"Must be non-zero sigs required\") */\n      tag_264\n      jumpi\n      mload(0x40)\n      shl(0xe5, 0x461bcd)\n      dup2\n      mstore\n      0x04\n      add\n      tag_125\n      swap1\n      tag_130\n      jump\t// in\n    tag_264:\n      pop\n      pop\n        /* \"contracts/MultiSigWallet.sol\":4437:4455  signaturesRequired */\n      0x06\n        /* \"contracts/MultiSigWallet.sol\":4437:4479  signaturesRequired = newSignaturesRequired */\n      sstore\n      pop\n        /* \"contracts/MultiSigWallet.sol\":4252:4486  function updateSignaturesRequired(... */\n      jump\t// out\n        /* \"contracts/MultiSigWallet.sol\":7329:7498  function getMessageHash(string memory _passkey)... */\n    tag_191:\n        /* \"contracts/MultiSigWallet.sol\":7424:7431  bytes32 */\n      0x00\n        /* \"contracts/MultiSigWallet.sol\":7481:7489  _passkey */\n      dup2\n        /* \"contracts/MultiSigWallet.sol\":7464:7490  abi.encodePacked(_passkey) */\n      add(0x20, mload(0x40))\n      tag_268\n      swap2\n      swap1\n      tag_185\n      jump\t// in\n    tag_268:\n      mload(0x40)\n      0x20\n      dup2\n      dup4\n      sub\n      sub\n      dup2\n      mstore\n      swap1\n      0x40\n      mstore\n        /* \"contracts/MultiSigWallet.sol\":7454:7491  keccak256(abi.encodePacked(_passkey)) */\n      dup1\n      mload\n      swap1\n      0x20\n      add\n      keccak256\n        /* \"contracts/MultiSigWallet.sol\":7447:7491  return keccak256(abi.encodePacked(_passkey)) */\n      swap1\n      pop\n        /* \"contracts/MultiSigWallet.sol\":7329:7498  function getMessageHash(string memory _passkey)... */\n      swap2\n      swap1\n      pop\n      jump\t// out\n        /* \"contracts/MultiSigWallet.sol\":7990:8345  function verifyUserSign(string memory _passkey, bytes memory signature)... */\n    tag_193:\n        /* \"contracts/MultiSigWallet.sol\":8109:8134  address userWalletAddress */\n      0x00\n        /* \"contracts/MultiSigWallet.sol\":8150:8169  bytes32 messageHash */\n      dup1\n        /* \"contracts/MultiSigWallet.sol\":8172:8196  getMessageHash(_passkey) */\n      tag_270\n        /* \"contracts/MultiSigWallet.sol\":8187:8195  _passkey */\n      dup5\n        /* \"contracts/MultiSigWallet.sol\":8172:8186  getMessageHash */\n      tag_191\n        /* \"contracts/MultiSigWallet.sol\":8172:8196  getMessageHash(_passkey) */\n      jump\t// in\n    tag_270:\n        /* \"contracts/MultiSigWallet.sol\":8150:8196  bytes32 messageHash = getMessageHash(_passkey) */\n      swap1\n      pop\n        /* \"contracts/MultiSigWallet.sol\":8206:8234  bytes32 ethSignedMessageHash */\n      0x00\n        /* \"contracts/MultiSigWallet.sol\":8237:8273  getEthSignedMessageHash(messageHash) */\n      tag_271\n        /* \"contracts/MultiSigWallet.sol\":8261:8272  messageHash */\n      dup3\n        /* \"contracts/MultiSigWallet.sol\":8237:8260  getEthSignedMessageHash */\n      tag_272\n        /* \"contracts/MultiSigWallet.sol\":8237:8273  getEthSignedMessageHash(messageHash) */\n      jump\t// in\n    tag_271:\n        /* \"contracts/MultiSigWallet.sol\":8206:8273  bytes32 ethSignedMessageHash = getEthSignedMessageHash(messageHash) */\n      swap1\n      pop\n        /* \"contracts/MultiSigWallet.sol\":8291:8337  recoverSigner(ethSignedMessageHash, signature) */\n      tag_273\n        /* \"contracts/MultiSigWallet.sol\":8305:8325  ethSignedMessageHash */\n      dup2\n        /* \"contracts/MultiSigWallet.sol\":8327:8336  signature */\n      dup6\n        /* \"contracts/MultiSigWallet.sol\":8291:8304  recoverSigner */\n      tag_274\n        /* \"contracts/MultiSigWallet.sol\":8291:8337  recoverSigner(ethSignedMessageHash, signature) */\n      jump\t// in\n    tag_273:\n        /* \"contracts/MultiSigWallet.sol\":8283:8338  return (recoverSigner(ethSignedMessageHash, signature)) */\n      swap6\n        /* \"contracts/MultiSigWallet.sol\":7990:8345  function verifyUserSign(string memory _passkey, bytes memory signature)... */\n      swap5\n      pop\n      pop\n      pop\n      pop\n      pop\n      jump\t// out\n        /* \"contracts/ECDSA.sol\":2129:2895  function tryRecover(bytes32 hash, bytes memory signature) internal pure returns (address, RecoverError, bytes32) {... */\n    tag_221:\n        /* \"contracts/ECDSA.sol\":2210:2217  address */\n      0x00\n        /* \"contracts/ECDSA.sol\":2219:2231  RecoverError */\n      dup1\n        /* \"contracts/ECDSA.sol\":2233:2240  bytes32 */\n      0x00\n        /* \"contracts/ECDSA.sol\":2256:2265  signature */\n      dup4\n        /* \"contracts/ECDSA.sol\":2256:2272  signature.length */\n      mload\n        /* \"contracts/ECDSA.sol\":2276:2278  65 */\n      0x41\n        /* \"contracts/ECDSA.sol\":2256:2278  signature.length == 65 */\n      sub\n        /* \"contracts/ECDSA.sol\":2252:2889  if (signature.length == 65) {... */\n      tag_276\n      jumpi\n        /* \"contracts/ECDSA.sol\":2592:2596  0x20 */\n      0x20\n        /* \"contracts/ECDSA.sol\":2577:2597  add(signature, 0x20) */\n      dup5\n      add\n        /* \"contracts/ECDSA.sol\":2571:2598  mload(add(signature, 0x20)) */\n      mload\n        /* \"contracts/ECDSA.sol\":2641:2645  0x40 */\n      0x40\n        /* \"contracts/ECDSA.sol\":2626:2646  add(signature, 0x40) */\n      dup6\n      add\n        /* \"contracts/ECDSA.sol\":2620:2647  mload(add(signature, 0x40)) */\n      mload\n        /* \"contracts/ECDSA.sol\":2698:2702  0x60 */\n      0x60\n        /* \"contracts/ECDSA.sol\":2683:2703  add(signature, 0x60) */\n      dup7\n      add\n        /* \"contracts/ECDSA.sol\":2677:2704  mload(add(signature, 0x60)) */\n      mload\n        /* \"contracts/ECDSA.sol\":2294:2303  bytes32 r */\n      0x00\n        /* \"contracts/ECDSA.sol\":2669:2705  byte(0, mload(add(signature, 0x60))) */\n      byte\n        /* \"contracts/ECDSA.sol\":2739:2764  tryRecover(hash, v, r, s) */\n      tag_277\n        /* \"contracts/ECDSA.sol\":2750:2754  hash */\n      dup9\n        /* \"contracts/ECDSA.sol\":2669:2705  byte(0, mload(add(signature, 0x60))) */\n      dup3\n        /* \"contracts/ECDSA.sol\":2571:2598  mload(add(signature, 0x20)) */\n      dup6\n        /* \"contracts/ECDSA.sol\":2620:2647  mload(add(signature, 0x40)) */\n      dup6\n        /* \"contracts/ECDSA.sol\":2739:2749  tryRecover */\n      tag_278\n        /* \"contracts/ECDSA.sol\":2739:2764  tryRecover(hash, v, r, s) */\n      jump\t// in\n    tag_277:\n        /* \"contracts/ECDSA.sol\":2732:2764  return tryRecover(hash, v, r, s) */\n      swap6\n      pop\n      swap6\n      pop\n      swap6\n      pop\n      pop\n      pop\n      pop\n      jump(tag_279)\n        /* \"contracts/ECDSA.sol\":2252:2889  if (signature.length == 65) {... */\n    tag_276:\n      pop\n      pop\n        /* \"contracts/ECDSA.sol\":2860:2876  signature.length */\n      dup2\n      mload\n        /* \"contracts/ECDSA.sol\":2811:2812  0 */\n      0x00\n      swap2\n      pop\n        /* \"contracts/ECDSA.sol\":2815:2850  RecoverError.InvalidSignatureLength */\n      0x02\n      swap1\n        /* \"contracts/ECDSA.sol\":2252:2889  if (signature.length == 65) {... */\n    tag_279:\n        /* \"contracts/ECDSA.sol\":2129:2895  function tryRecover(bytes32 hash, bytes memory signature) internal pure returns (address, RecoverError, bytes32) {... */\n      swap3\n      pop\n      swap3\n      pop\n      swap3\n      jump\t// out\n        /* \"contracts/ECDSA.sol\":7196:7728  function _throwError(RecoverError error, bytes32 errorArg) private pure {... */\n    tag_223:\n        /* \"contracts/ECDSA.sol\":7291:7311  RecoverError.NoError */\n      0x00\n        /* \"contracts/ECDSA.sol\":7282:7287  error */\n      dup3\n        /* \"contracts/ECDSA.sol\":7282:7311  error == RecoverError.NoError */\n      0x03\n      dup2\n      gt\n      iszero\n      tag_285\n      jumpi\n      tag_285\n      tag_283\n      jump\t// in\n    tag_285:\n      sub\n        /* \"contracts/ECDSA.sol\":7278:7722  if (error == RecoverError.NoError) {... */\n      tag_286\n      jumpi\n        /* \"contracts/ECDSA.sol\":7196:7728  function _throwError(RecoverError error, bytes32 errorArg) private pure {... */\n      pop\n      pop\n      jump\t// out\n        /* \"contracts/ECDSA.sol\":7278:7722  if (error == RecoverError.NoError) {... */\n    tag_286:\n        /* \"contracts/ECDSA.sol\":7387:7416  RecoverError.InvalidSignature */\n      0x01\n        /* \"contracts/ECDSA.sol\":7378:7383  error */\n      dup3\n        /* \"contracts/ECDSA.sol\":7378:7416  error == RecoverError.InvalidSignature */\n      0x03\n      dup2\n      gt\n      iszero\n      tag_291\n      jumpi\n      tag_291\n      tag_283\n      jump\t// in\n    tag_291:\n      sub\n        /* \"contracts/ECDSA.sol\":7374:7722  if (error == RecoverError.InvalidSignature) {... */\n      tag_292\n      jumpi\n        /* \"contracts/ECDSA.sol\":7439:7462  ECDSAInvalidSignature() */\n      mload(0x40)\n      shl(0xe0, 0xf645eedf)\n      dup2\n      mstore\n      0x04\n      add\n      mload(0x40)\n      dup1\n      swap2\n      sub\n      swap1\n      revert\n        /* \"contracts/ECDSA.sol\":7374:7722  if (error == RecoverError.InvalidSignature) {... */\n    tag_292:\n        /* \"contracts/ECDSA.sol\":7492:7527  RecoverError.InvalidSignatureLength */\n      0x02\n        /* \"contracts/ECDSA.sol\":7483:7488  error */\n      dup3\n        /* \"contracts/ECDSA.sol\":7483:7527  error == RecoverError.InvalidSignatureLength */\n      0x03\n      dup2\n      gt\n      iszero\n      tag_297\n      jumpi\n      tag_297\n      tag_283\n      jump\t// in\n    tag_297:\n      sub\n        /* \"contracts/ECDSA.sol\":7479:7722  if (error == RecoverError.InvalidSignatureLength) {... */\n      tag_298\n      jumpi\n        /* \"contracts/ECDSA.sol\":7550:7596  ECDSAInvalidSignatureLength(uint256(errorArg)) */\n      mload(0x40)\n      shl(0xe0, 0xfce698f7)\n      dup2\n      mstore\n      0x04\n      dup2\n      add\n        /* \"#utility.yul\":598:623   */\n      dup3\n      swap1\n      mstore\n        /* \"#utility.yul\":571:589   */\n      0x24\n      add\n        /* \"contracts/ECDSA.sol\":7550:7596  ECDSAInvalidSignatureLength(uint256(errorArg)) */\n      tag_125\n        /* \"#utility.yul\":452:629   */\n      jump\n        /* \"contracts/ECDSA.sol\":7479:7722  if (error == RecoverError.InvalidSignatureLength) {... */\n    tag_298:\n        /* \"contracts/ECDSA.sol\":7626:7656  RecoverError.InvalidSignatureS */\n      0x03\n        /* \"contracts/ECDSA.sol\":7617:7622  error */\n      dup3\n        /* \"contracts/ECDSA.sol\":7617:7656  error == RecoverError.InvalidSignatureS */\n      0x03\n      dup2\n      gt\n      iszero\n      tag_304\n      jumpi\n      tag_304\n      tag_283\n      jump\t// in\n    tag_304:\n      sub\n        /* \"contracts/ECDSA.sol\":7613:7722  if (error == RecoverError.InvalidSignatureS) {... */\n      tag_305\n      jumpi\n        /* \"contracts/ECDSA.sol\":7679:7711  ECDSAInvalidSignatureS(errorArg) */\n      mload(0x40)\n      shl(0xe2, 0x35e2f383)\n      dup2\n      mstore\n      0x04\n      dup2\n      add\n        /* \"#utility.yul\":598:623   */\n      dup3\n      swap1\n      mstore\n        /* \"#utility.yul\":571:589   */\n      0x24\n      add\n        /* \"contracts/ECDSA.sol\":7679:7711  ECDSAInvalidSignatureS(errorArg) */\n      tag_125\n        /* \"#utility.yul\":452:629   */\n      jump\n        /* \"contracts/ECDSA.sol\":7613:7722  if (error == RecoverError.InvalidSignatureS) {... */\n    tag_305:\n        /* \"contracts/ECDSA.sol\":7196:7728  function _throwError(RecoverError error, bytes32 errorArg) private pure {... */\n      pop\n      pop\n      jump\t// out\n        /* \"contracts/MultiSigWallet.sol\":7504:7984  function getEthSignedMessageHash(bytes32 _messageHash)... */\n    tag_272:\n        /* \"contracts/MultiSigWallet.sol\":7839:7963  abi.encodePacked(... */\n      mload(0x40)\n        /* \"#utility.yul\":18445:18511   */\n      0x19457468657265756d205369676e6564204d6573736167653a0a333200000000\n        /* \"contracts/MultiSigWallet.sol\":7839:7963  abi.encodePacked(... */\n      0x20\n      dup3\n      add\n        /* \"#utility.yul\":18433:18512   */\n      mstore\n        /* \"#utility.yul\":18528:18540   */\n      0x3c\n      dup2\n      add\n        /* \"#utility.yul\":18521:18549   */\n      dup3\n      swap1\n      mstore\n        /* \"contracts/MultiSigWallet.sol\":7606:7613  bytes32 */\n      0x00\n      swap1\n        /* \"#utility.yul\":18565:18577   */\n      0x5c\n      add\n        /* \"contracts/MultiSigWallet.sol\":7839:7963  abi.encodePacked(... */\n      tag_268\n        /* \"#utility.yul\":18203:18583   */\n      jump\n        /* \"contracts/MultiSigWallet.sol\":8351:8619  function recoverSigner(... */\n    tag_274:\n        /* \"contracts/MultiSigWallet.sol\":8475:8482  address */\n      0x00\n        /* \"contracts/MultiSigWallet.sol\":8495:8504  bytes32 r */\n      dup1\n        /* \"contracts/MultiSigWallet.sol\":8506:8515  bytes32 s */\n      0x00\n        /* \"contracts/MultiSigWallet.sol\":8517:8524  uint8 v */\n      dup1\n        /* \"contracts/MultiSigWallet.sol\":8528:8554  splitSignature(_signature) */\n      tag_311\n        /* \"contracts/MultiSigWallet.sol\":8543:8553  _signature */\n      dup6\n        /* \"contracts/MultiSigWallet.sol\":8528:8542  splitSignature */\n      tag_312\n        /* \"contracts/MultiSigWallet.sol\":8528:8554  splitSignature(_signature) */\n      jump\t// in\n    tag_311:\n        /* \"contracts/MultiSigWallet.sol\":8571:8612  ecrecover(_ethSignedMessageHash, v, r, s) */\n      0x40\n      dup1\n      mload\n      0x00\n      dup2\n      mstore\n      0x20\n      dup2\n      add\n      dup1\n      dup4\n      mstore\n        /* \"#utility.yul\":18815:18840   */\n      dup12\n      swap1\n      mstore\n        /* \"#utility.yul\":18888:18892   */\n      0xff\n        /* \"#utility.yul\":18876:18893   */\n      dup4\n      and\n        /* \"#utility.yul\":18856:18874   */\n      swap2\n      dup2\n      add\n        /* \"#utility.yul\":18849:18894   */\n      swap2\n      swap1\n      swap2\n      mstore\n        /* \"#utility.yul\":18910:18928   */\n      0x60\n      dup2\n      add\n        /* \"#utility.yul\":18903:18937   */\n      dup5\n      swap1\n      mstore\n        /* \"#utility.yul\":18953:18971   */\n      0x80\n      dup2\n      add\n        /* \"#utility.yul\":18946:18980   */\n      dup4\n      swap1\n      mstore\n        /* \"contracts/MultiSigWallet.sol\":8494:8554  (bytes32 r, bytes32 s, uint8 v) = splitSignature(_signature) */\n      swap3\n      swap6\n      pop\n      swap1\n      swap4\n      pop\n      swap2\n      pop\n        /* \"contracts/MultiSigWallet.sol\":8571:8612  ecrecover(_ethSignedMessageHash, v, r, s) */\n      0x01\n      swap1\n        /* \"#utility.yul\":18787:18806   */\n      0xa0\n      add\n        /* \"contracts/MultiSigWallet.sol\":8571:8612  ecrecover(_ethSignedMessageHash, v, r, s) */\n      0x20\n      mload(0x40)\n      0x20\n      dup2\n      sub\n      swap1\n      dup1\n      dup5\n      sub\n      swap1\n      dup6\n      gas\n      staticcall\n      iszero\n      dup1\n      iszero\n      tag_316\n      jumpi\n      returndatasize\n      0x00\n      dup1\n      returndatacopy\n      revert(0x00, returndatasize)\n    tag_316:\n      pop\n      pop\n      mload(add(not(0x1f), mload(0x40)))\n      swap8\n        /* \"contracts/MultiSigWallet.sol\":8351:8619  function recoverSigner(... */\n      swap7\n      pop\n      pop\n      pop\n      pop\n      pop\n      pop\n      pop\n      jump\t// out\n        /* \"contracts/ECDSA.sol\":5140:6670  function tryRecover(... */\n    tag_278:\n        /* \"contracts/ECDSA.sol\":5266:5273  address */\n      0x00\n      dup1\n      dup1\n        /* \"contracts/ECDSA.sol\":6199:6265  0x7FFFFFFFFFFFFFFFFFFFFFFFFFFFFFFF5D576E7357A4501DDFE92F46681B20A0 */\n      0x7fffffffffffffffffffffffffffffff5d576e7357a4501ddfe92f46681b20a0\n        /* \"contracts/ECDSA.sol\":6186:6265  uint256(s) > 0x7FFFFFFFFFFFFFFFFFFFFFFFFFFFFFFF5D576E7357A4501DDFE92F46681B20A0 */\n      dup5\n      gt\n        /* \"contracts/ECDSA.sol\":6182:6346  if (uint256(s) > 0x7FFFFFFFFFFFFFFFFFFFFFFFFFFFFFFF5D576E7357A4501DDFE92F46681B20A0) {... */\n      iszero\n      tag_318\n      jumpi\n      pop\n        /* \"contracts/ECDSA.sol\":6297:6298  0 */\n      0x00\n      swap2\n      pop\n        /* \"contracts/ECDSA.sol\":6301:6331  RecoverError.InvalidSignatureS */\n      0x03\n      swap1\n      pop\n        /* \"contracts/ECDSA.sol\":6333:6334  s */\n      dup3\n        /* \"contracts/ECDSA.sol\":6281:6335  return (address(0), RecoverError.InvalidSignatureS, s) */\n      jump(tag_317)\n        /* \"contracts/ECDSA.sol\":6182:6346  if (uint256(s) > 0x7FFFFFFFFFFFFFFFFFFFFFFFFFFFFFFF5D576E7357A4501DDFE92F46681B20A0) {... */\n    tag_318:\n        /* \"contracts/ECDSA.sol\":6457:6481  ecrecover(hash, v, r, s) */\n      0x40\n      dup1\n      mload\n        /* \"contracts/ECDSA.sol\":6440:6454  address signer */\n      0x00\n        /* \"contracts/ECDSA.sol\":6457:6481  ecrecover(hash, v, r, s) */\n      dup1\n      dup3\n      mstore\n      0x20\n      dup3\n      add\n      dup1\n      dup5\n      mstore\n        /* \"#utility.yul\":18815:18840   */\n      dup11\n      swap1\n      mstore\n        /* \"#utility.yul\":18888:18892   */\n      0xff\n        /* \"#utility.yul\":18876:18893   */\n      dup10\n      and\n        /* \"#utility.yul\":18856:18874   */\n      swap3\n      dup3\n      add\n        /* \"#utility.yul\":18849:18894   */\n      swap3\n      swap1\n      swap3\n      mstore\n        /* \"#utility.yul\":18910:18928   */\n      0x60\n      dup2\n      add\n        /* \"#utility.yul\":18903:18937   */\n      dup8\n      swap1\n      mstore\n        /* \"#utility.yul\":18953:18971   */\n      0x80\n      dup2\n      add\n        /* \"#utility.yul\":18946:18980   */\n      dup7\n      swap1\n      mstore\n        /* \"contracts/ECDSA.sol\":6457:6481  ecrecover(hash, v, r, s) */\n      0x01\n      swap1\n        /* \"#utility.yul\":18787:18806   */\n      0xa0\n      add\n        /* \"contracts/ECDSA.sol\":6457:6481  ecrecover(hash, v, r, s) */\n      0x20\n      mload(0x40)\n      0x20\n      dup2\n      sub\n      swap1\n      dup1\n      dup5\n      sub\n      swap1\n      dup6\n      gas\n      staticcall\n      iszero\n      dup1\n      iszero\n      tag_321\n      jumpi\n      returndatasize\n      0x00\n      dup1\n      returndatacopy\n      revert(0x00, returndatasize)\n    tag_321:\n      pop\n      pop\n      mload(add(not(0x1f), mload(0x40)))\n      swap2\n      pop\n      pop\n      sub(shl(0xa0, 0x01), 0x01)\n        /* \"contracts/ECDSA.sol\":6495:6515  signer == address(0) */\n      dup2\n      and\n        /* \"contracts/ECDSA.sol\":6491:6604  if (signer == address(0)) {... */\n      tag_322\n      jumpi\n      pop\n        /* \"contracts/ECDSA.sol\":6547:6548  0 */\n      0x00\n      swap3\n      pop\n        /* \"contracts/ECDSA.sol\":6551:6580  RecoverError.InvalidSignature */\n      0x01\n      swap2\n      pop\n        /* \"contracts/ECDSA.sol\":6547:6548  0 */\n      dup3\n      swap1\n      pop\n        /* \"contracts/ECDSA.sol\":6531:6593  return (address(0), RecoverError.InvalidSignature, bytes32(0)) */\n      jump(tag_317)\n        /* \"contracts/ECDSA.sol\":6491:6604  if (signer == address(0)) {... */\n    tag_322:\n        /* \"contracts/ECDSA.sol\":6622:6628  signer */\n      swap3\n      pop\n        /* \"contracts/ECDSA.sol\":6630:6650  RecoverError.NoError */\n      0x00\n      swap2\n      pop\n      dup2\n      swap1\n      pop\n        /* \"contracts/ECDSA.sol\":5140:6670  function tryRecover(... */\n    tag_317:\n      swap5\n      pop\n      swap5\n      pop\n      swap5\n      swap2\n      pop\n      pop\n      jump\t// out\n        /* \"contracts/MultiSigWallet.sol\":8625:9488  function splitSignature(bytes memory sig)... */\n    tag_312:\n        /* \"contracts/MultiSigWallet.sol\":8727:8736  bytes32 r */\n      0x00\n        /* \"contracts/MultiSigWallet.sol\":8750:8759  bytes32 s */\n      dup1\n        /* \"contracts/MultiSigWallet.sol\":8773:8780  uint8 v */\n      0x00\n        /* \"contracts/MultiSigWallet.sol\":8813:8816  sig */\n      dup4\n        /* \"contracts/MultiSigWallet.sol\":8813:8823  sig.length */\n      mload\n        /* \"contracts/MultiSigWallet.sol\":8827:8829  65 */\n      0x41\n        /* \"contracts/MultiSigWallet.sol\":8813:8829  sig.length == 65 */\n      eq\n        /* \"contracts/MultiSigWallet.sol\":8805:8858  require(sig.length == 65, \"invalid signature length\") */\n      tag_324\n      jumpi\n      mload(0x40)\n      shl(0xe5, 0x461bcd)\n      dup2\n      mstore\n        /* \"#utility.yul\":19193:19195   */\n      0x20\n        /* \"contracts/MultiSigWallet.sol\":8805:8858  require(sig.length == 65, \"invalid signature length\") */\n      0x04\n      dup3\n      add\n        /* \"#utility.yul\":19175:19196   */\n      mstore\n        /* \"#utility.yul\":19232:19234   */\n      0x18\n        /* \"#utility.yul\":19212:19230   */\n      0x24\n      dup3\n      add\n        /* \"#utility.yul\":19205:19235   */\n      mstore\n        /* \"#utility.yul\":19271:19297   */\n      0x696e76616c6964207369676e6174757265206c656e6774680000000000000000\n        /* \"#utility.yul\":19251:19269   */\n      0x44\n      dup3\n      add\n        /* \"#utility.yul\":19244:19298   */\n      mstore\n        /* \"#utility.yul\":19315:19333   */\n      0x64\n      add\n        /* \"contracts/MultiSigWallet.sol\":8805:8858  require(sig.length == 65, \"invalid signature length\") */\n      tag_125\n        /* \"#utility.yul\":18991:19339   */\n      jump\n        /* \"contracts/MultiSigWallet.sol\":8805:8858  require(sig.length == 65, \"invalid signature length\") */\n    tag_324:\n      pop\n      pop\n      pop\n        /* \"contracts/MultiSigWallet.sol\":9254:9256  32 */\n      0x20\n        /* \"contracts/MultiSigWallet.sol\":9245:9257  add(sig, 32) */\n      dup2\n      add\n        /* \"contracts/MultiSigWallet.sol\":9239:9258  mload(add(sig, 32)) */\n      mload\n        /* \"contracts/MultiSigWallet.sol\":9322:9324  64 */\n      0x40\n        /* \"contracts/MultiSigWallet.sol\":9313:9325  add(sig, 64) */\n      dup3\n      add\n        /* \"contracts/MultiSigWallet.sol\":9307:9326  mload(add(sig, 64)) */\n      mload\n        /* \"contracts/MultiSigWallet.sol\":9427:9429  96 */\n      0x60\n        /* \"contracts/MultiSigWallet.sol\":9418:9430  add(sig, 96) */\n      swap1\n      swap3\n      add\n        /* \"contracts/MultiSigWallet.sol\":9412:9431  mload(add(sig, 96)) */\n      mload\n        /* \"contracts/MultiSigWallet.sol\":9239:9258  mload(add(sig, 32)) */\n      swap1\n      swap3\n        /* \"contracts/MultiSigWallet.sol\":9409:9410  0 */\n      0x00\n        /* \"contracts/MultiSigWallet.sol\":9404:9432  byte(0, mload(add(sig, 96))) */\n      swap2\n      swap1\n      swap2\n      byte\n      swap1\n        /* \"contracts/MultiSigWallet.sol\":8625:9488  function splitSignature(bytes memory sig)... */\n      jump\t// out\n        /* \"#utility.yul\":267:447   */\n    tag_29:\n        /* \"#utility.yul\":326:332   */\n      0x00\n        /* \"#utility.yul\":379:381   */\n      0x20\n        /* \"#utility.yul\":367:376   */\n      dup3\n        /* \"#utility.yul\":358:365   */\n      dup5\n        /* \"#utility.yul\":354:377   */\n      sub\n        /* \"#utility.yul\":350:382   */\n      slt\n        /* \"#utility.yul\":347:399   */\n      iszero\n      tag_337\n      jumpi\n        /* \"#utility.yul\":395:396   */\n      0x00\n        /* \"#utility.yul\":392:393   */\n      dup1\n        /* \"#utility.yul\":385:397   */\n      revert\n        /* \"#utility.yul\":347:399   */\n    tag_337:\n      pop\n        /* \"#utility.yul\":418:441   */\n      calldataload\n      swap2\n        /* \"#utility.yul\":267:447   */\n      swap1\n      pop\n      jump\t// out\n        /* \"#utility.yul\":842:969   */\n    tag_227:\n        /* \"#utility.yul\":903:913   */\n      0x4e487b71\n        /* \"#utility.yul\":898:901   */\n      0xe0\n        /* \"#utility.yul\":894:914   */\n      shl\n        /* \"#utility.yul\":891:892   */\n      0x00\n        /* \"#utility.yul\":884:915   */\n      mstore\n        /* \"#utility.yul\":934:938   */\n      0x41\n        /* \"#utility.yul\":931:932   */\n      0x04\n        /* \"#utility.yul\":924:939   */\n      mstore\n        /* \"#utility.yul\":958:962   */\n      0x24\n        /* \"#utility.yul\":955:956   */\n      0x00\n        /* \"#utility.yul\":948:963   */\n      revert\n        /* \"#utility.yul\":974:1693   */\n    tag_327:\n        /* \"#utility.yul\":1017:1022   */\n      0x00\n        /* \"#utility.yul\":1070:1073   */\n      dup3\n        /* \"#utility.yul\":1063:1067   */\n      0x1f\n        /* \"#utility.yul\":1055:1061   */\n      dup4\n        /* \"#utility.yul\":1051:1068   */\n      add\n        /* \"#utility.yul\":1047:1074   */\n      slt\n        /* \"#utility.yul\":1037:1092   */\n      tag_342\n      jumpi\n        /* \"#utility.yul\":1088:1089   */\n      0x00\n        /* \"#utility.yul\":1085:1086   */\n      dup1\n        /* \"#utility.yul\":1078:1090   */\n      revert\n        /* \"#utility.yul\":1037:1092   */\n    tag_342:\n        /* \"#utility.yul\":1124:1130   */\n      dup2\n        /* \"#utility.yul\":1111:1131   */\n      calldataload\n        /* \"#utility.yul\":1150:1168   */\n      0xffffffffffffffff\n        /* \"#utility.yul\":1187:1189   */\n      dup1\n        /* \"#utility.yul\":1183:1185   */\n      dup3\n        /* \"#utility.yul\":1180:1190   */\n      gt\n        /* \"#utility.yul\":1177:1213   */\n      iszero\n      tag_344\n      jumpi\n        /* \"#utility.yul\":1193:1211   */\n      tag_344\n      tag_227\n      jump\t// in\n    tag_344:\n        /* \"#utility.yul\":1268:1270   */\n      0x40\n        /* \"#utility.yul\":1262:1271   */\n      mload\n        /* \"#utility.yul\":1236:1238   */\n      0x1f\n        /* \"#utility.yul\":1322:1335   */\n      dup4\n      add\n      not(0x1f)\n        /* \"#utility.yul\":1318:1340   */\n      swap1\n      dup2\n      and\n        /* \"#utility.yul\":1342:1344   */\n      0x3f\n        /* \"#utility.yul\":1314:1345   */\n      add\n        /* \"#utility.yul\":1310:1350   */\n      and\n        /* \"#utility.yul\":1298:1351   */\n      dup2\n      add\n      swap1\n        /* \"#utility.yul\":1366:1384   */\n      dup3\n      dup3\n      gt\n        /* \"#utility.yul\":1386:1408   */\n      dup2\n      dup4\n      lt\n        /* \"#utility.yul\":1363:1409   */\n      or\n        /* \"#utility.yul\":1360:1432   */\n      iszero\n      tag_346\n      jumpi\n        /* \"#utility.yul\":1412:1430   */\n      tag_346\n      tag_227\n      jump\t// in\n    tag_346:\n        /* \"#utility.yul\":1452:1462   */\n      dup2\n        /* \"#utility.yul\":1448:1450   */\n      0x40\n        /* \"#utility.yul\":1441:1463   */\n      mstore\n        /* \"#utility.yul\":1487:1489   */\n      dup4\n        /* \"#utility.yul\":1479:1485   */\n      dup2\n        /* \"#utility.yul\":1472:1490   */\n      mstore\n        /* \"#utility.yul\":1533:1536   */\n      dup7\n        /* \"#utility.yul\":1526:1530   */\n      0x20\n        /* \"#utility.yul\":1521:1523   */\n      dup6\n        /* \"#utility.yul\":1513:1519   */\n      dup9\n        /* \"#utility.yul\":1509:1524   */\n      add\n        /* \"#utility.yul\":1505:1531   */\n      add\n        /* \"#utility.yul\":1502:1537   */\n      gt\n        /* \"#utility.yul\":1499:1554   */\n      iszero\n      tag_347\n      jumpi\n        /* \"#utility.yul\":1550:1551   */\n      0x00\n        /* \"#utility.yul\":1547:1548   */\n      dup1\n        /* \"#utility.yul\":1540:1552   */\n      revert\n        /* \"#utility.yul\":1499:1554   */\n    tag_347:\n        /* \"#utility.yul\":1614:1616   */\n      dup4\n        /* \"#utility.yul\":1607:1611   */\n      0x20\n        /* \"#utility.yul\":1599:1605   */\n      dup8\n        /* \"#utility.yul\":1595:1612   */\n      add\n        /* \"#utility.yul\":1588:1592   */\n      0x20\n        /* \"#utility.yul\":1580:1586   */\n      dup4\n        /* \"#utility.yul\":1576:1593   */\n      add\n        /* \"#utility.yul\":1563:1617   */\n      calldatacopy\n        /* \"#utility.yul\":1661:1662   */\n      0x00\n        /* \"#utility.yul\":1654:1658   */\n      0x20\n        /* \"#utility.yul\":1649:1651   */\n      dup6\n        /* \"#utility.yul\":1641:1647   */\n      dup4\n        /* \"#utility.yul\":1637:1652   */\n      add\n        /* \"#utility.yul\":1633:1659   */\n      add\n        /* \"#utility.yul\":1626:1663   */\n      mstore\n        /* \"#utility.yul\":1681:1687   */\n      dup1\n        /* \"#utility.yul\":1672:1687   */\n      swap5\n      pop\n      pop\n      pop\n      pop\n      pop\n        /* \"#utility.yul\":974:1693   */\n      swap3\n      swap2\n      pop\n      pop\n      jump\t// out\n        /* \"#utility.yul\":1698:2020   */\n    tag_42:\n        /* \"#utility.yul\":1767:1773   */\n      0x00\n        /* \"#utility.yul\":1820:1822   */\n      0x20\n        /* \"#utility.yul\":1808:1817   */\n      dup3\n        /* \"#utility.yul\":1799:1806   */\n      dup5\n        /* \"#utility.yul\":1795:1818   */\n      sub\n        /* \"#utility.yul\":1791:1823   */\n      slt\n        /* \"#utility.yul\":1788:1840   */\n      iszero\n      tag_349\n      jumpi\n        /* \"#utility.yul\":1836:1837   */\n      0x00\n        /* \"#utility.yul\":1833:1834   */\n      dup1\n        /* \"#utility.yul\":1826:1838   */\n      revert\n        /* \"#utility.yul\":1788:1840   */\n    tag_349:\n        /* \"#utility.yul\":1876:1885   */\n      dup2\n        /* \"#utility.yul\":1863:1886   */\n      calldataload\n        /* \"#utility.yul\":1909:1927   */\n      0xffffffffffffffff\n        /* \"#utility.yul\":1901:1907   */\n      dup2\n        /* \"#utility.yul\":1898:1928   */\n      gt\n        /* \"#utility.yul\":1895:1945   */\n      iszero\n      tag_350\n      jumpi\n        /* \"#utility.yul\":1941:1942   */\n      0x00\n        /* \"#utility.yul\":1938:1939   */\n      dup1\n        /* \"#utility.yul\":1931:1943   */\n      revert\n        /* \"#utility.yul\":1895:1945   */\n    tag_350:\n        /* \"#utility.yul\":1964:2014   */\n      tag_351\n        /* \"#utility.yul\":2006:2013   */\n      dup5\n        /* \"#utility.yul\":1997:2003   */\n      dup3\n        /* \"#utility.yul\":1986:1995   */\n      dup6\n        /* \"#utility.yul\":1982:2004   */\n      add\n        /* \"#utility.yul\":1964:2014   */\n      tag_327\n      jump\t// in\n    tag_351:\n        /* \"#utility.yul\":1954:2014   */\n      swap5\n        /* \"#utility.yul\":1698:2020   */\n      swap4\n      pop\n      pop\n      pop\n      pop\n      jump\t// out\n        /* \"#utility.yul\":2025:2414   */\n    tag_48:\n        /* \"#utility.yul\":2102:2108   */\n      0x00\n        /* \"#utility.yul\":2110:2116   */\n      dup1\n        /* \"#utility.yul\":2163:2165   */\n      0x40\n        /* \"#utility.yul\":2151:2160   */\n      dup4\n        /* \"#utility.yul\":2142:2149   */\n      dup6\n        /* \"#utility.yul\":2138:2161   */\n      sub\n        /* \"#utility.yul\":2134:2166   */\n      slt\n        /* \"#utility.yul\":2131:2183   */\n      iszero\n      tag_353\n      jumpi\n        /* \"#utility.yul\":2179:2180   */\n      0x00\n        /* \"#utility.yul\":2176:2177   */\n      dup1\n        /* \"#utility.yul\":2169:2181   */\n      revert\n        /* \"#utility.yul\":2131:2183   */\n    tag_353:\n        /* \"#utility.yul\":2215:2224   */\n      dup3\n        /* \"#utility.yul\":2202:2225   */\n      calldataload\n        /* \"#utility.yul\":2192:2225   */\n      swap2\n      pop\n        /* \"#utility.yul\":2276:2278   */\n      0x20\n        /* \"#utility.yul\":2265:2274   */\n      dup4\n        /* \"#utility.yul\":2261:2279   */\n      add\n        /* \"#utility.yul\":2248:2280   */\n      calldataload\n        /* \"#utility.yul\":2303:2321   */\n      0xffffffffffffffff\n        /* \"#utility.yul\":2295:2301   */\n      dup2\n        /* \"#utility.yul\":2292:2322   */\n      gt\n        /* \"#utility.yul\":2289:2339   */\n      iszero\n      tag_354\n      jumpi\n        /* \"#utility.yul\":2335:2336   */\n      0x00\n        /* \"#utility.yul\":2332:2333   */\n      dup1\n        /* \"#utility.yul\":2325:2337   */\n      revert\n        /* \"#utility.yul\":2289:2339   */\n    tag_354:\n        /* \"#utility.yul\":2358:2408   */\n      tag_355\n        /* \"#utility.yul\":2400:2407   */\n      dup6\n        /* \"#utility.yul\":2391:2397   */\n      dup3\n        /* \"#utility.yul\":2380:2389   */\n      dup7\n        /* \"#utility.yul\":2376:2398   */\n      add\n        /* \"#utility.yul\":2358:2408   */\n      tag_327\n      jump\t// in\n    tag_355:\n        /* \"#utility.yul\":2348:2408   */\n      swap2\n      pop\n      pop\n        /* \"#utility.yul\":2025:2414   */\n      swap3\n      pop\n      swap3\n      swap1\n      pop\n      jump\t// out\n        /* \"#utility.yul\":2419:2550   */\n    tag_328:\n      sub(shl(0xa0, 0x01), 0x01)\n        /* \"#utility.yul\":2494:2525   */\n      dup2\n      and\n        /* \"#utility.yul\":2484:2526   */\n      dup2\n      eq\n        /* \"#utility.yul\":2474:2544   */\n      tag_357\n      jumpi\n        /* \"#utility.yul\":2540:2541   */\n      0x00\n        /* \"#utility.yul\":2537:2538   */\n      dup1\n        /* \"#utility.yul\":2530:2542   */\n      revert\n        /* \"#utility.yul\":2474:2544   */\n    tag_357:\n        /* \"#utility.yul\":2419:2550   */\n      pop\n      jump\t// out\n        /* \"#utility.yul\":2555:3011   */\n    tag_54:\n        /* \"#utility.yul\":2632:2638   */\n      0x00\n        /* \"#utility.yul\":2640:2646   */\n      dup1\n        /* \"#utility.yul\":2648:2654   */\n      0x00\n        /* \"#utility.yul\":2701:2703   */\n      0x60\n        /* \"#utility.yul\":2689:2698   */\n      dup5\n        /* \"#utility.yul\":2680:2687   */\n      dup7\n        /* \"#utility.yul\":2676:2699   */\n      sub\n        /* \"#utility.yul\":2672:2704   */\n      slt\n        /* \"#utility.yul\":2669:2721   */\n      iszero\n      tag_359\n      jumpi\n        /* \"#utility.yul\":2717:2718   */\n      0x00\n        /* \"#utility.yul\":2714:2715   */\n      dup1\n        /* \"#utility.yul\":2707:2719   */\n      revert\n        /* \"#utility.yul\":2669:2721   */\n    tag_359:\n        /* \"#utility.yul\":2756:2765   */\n      dup4\n        /* \"#utility.yul\":2743:2766   */\n      calldataload\n        /* \"#utility.yul\":2775:2806   */\n      tag_360\n        /* \"#utility.yul\":2800:2805   */\n      dup2\n        /* \"#utility.yul\":2775:2806   */\n      tag_328\n      jump\t// in\n    tag_360:\n        /* \"#utility.yul\":2825:2830   */\n      swap3\n      pop\n        /* \"#utility.yul\":2882:2884   */\n      0x20\n        /* \"#utility.yul\":2867:2885   */\n      dup5\n      add\n        /* \"#utility.yul\":2854:2886   */\n      calldataload\n        /* \"#utility.yul\":2895:2928   */\n      tag_361\n        /* \"#utility.yul\":2854:2886   */\n      dup2\n        /* \"#utility.yul\":2895:2928   */\n      tag_328\n      jump\t// in\n    tag_361:\n        /* \"#utility.yul\":2555:3011   */\n      swap3\n      swap6\n        /* \"#utility.yul\":2947:2954   */\n      swap3\n      swap5\n      pop\n      pop\n      pop\n        /* \"#utility.yul\":3001:3003   */\n      0x40\n        /* \"#utility.yul\":2986:3004   */\n      swap2\n      swap1\n      swap2\n      add\n        /* \"#utility.yul\":2973:3005   */\n      calldataload\n      swap1\n        /* \"#utility.yul\":2555:3011   */\n      jump\t// out\n        /* \"#utility.yul\":3016:3263   */\n    tag_59:\n        /* \"#utility.yul\":3075:3081   */\n      0x00\n        /* \"#utility.yul\":3128:3130   */\n      0x20\n        /* \"#utility.yul\":3116:3125   */\n      dup3\n        /* \"#utility.yul\":3107:3114   */\n      dup5\n        /* \"#utility.yul\":3103:3126   */\n      sub\n        /* \"#utility.yul\":3099:3131   */\n      slt\n        /* \"#utility.yul\":3096:3148   */\n      iszero\n      tag_363\n      jumpi\n        /* \"#utility.yul\":3144:3145   */\n      0x00\n        /* \"#utility.yul\":3141:3142   */\n      dup1\n        /* \"#utility.yul\":3134:3146   */\n      revert\n        /* \"#utility.yul\":3096:3148   */\n    tag_363:\n        /* \"#utility.yul\":3183:3192   */\n      dup2\n        /* \"#utility.yul\":3170:3193   */\n      calldataload\n        /* \"#utility.yul\":3202:3233   */\n      tag_364\n        /* \"#utility.yul\":3227:3232   */\n      dup2\n        /* \"#utility.yul\":3202:3233   */\n      tag_328\n      jump\t// in\n    tag_364:\n        /* \"#utility.yul\":3252:3257   */\n      swap4\n        /* \"#utility.yul\":3016:3263   */\n      swap3\n      pop\n      pop\n      pop\n      jump\t// out\n        /* \"#utility.yul\":3460:3843   */\n    tag_66:\n        /* \"#utility.yul\":3537:3543   */\n      0x00\n        /* \"#utility.yul\":3545:3551   */\n      dup1\n        /* \"#utility.yul\":3553:3559   */\n      0x00\n        /* \"#utility.yul\":3606:3608   */\n      0x60\n        /* \"#utility.yul\":3594:3603   */\n      dup5\n        /* \"#utility.yul\":3585:3592   */\n      dup7\n        /* \"#utility.yul\":3581:3604   */\n      sub\n        /* \"#utility.yul\":3577:3609   */\n      slt\n        /* \"#utility.yul\":3574:3626   */\n      iszero\n      tag_367\n      jumpi\n        /* \"#utility.yul\":3622:3623   */\n      0x00\n        /* \"#utility.yul\":3619:3620   */\n      dup1\n        /* \"#utility.yul\":3612:3624   */\n      revert\n        /* \"#utility.yul\":3574:3626   */\n    tag_367:\n        /* \"#utility.yul\":3658:3667   */\n      dup4\n        /* \"#utility.yul\":3645:3668   */\n      calldataload\n        /* \"#utility.yul\":3635:3668   */\n      swap3\n      pop\n        /* \"#utility.yul\":3718:3720   */\n      0x20\n        /* \"#utility.yul\":3707:3716   */\n      dup5\n        /* \"#utility.yul\":3703:3721   */\n      add\n        /* \"#utility.yul\":3690:3722   */\n      calldataload\n        /* \"#utility.yul\":3731:3762   */\n      tag_361\n        /* \"#utility.yul\":3756:3761   */\n      dup2\n        /* \"#utility.yul\":3731:3762   */\n      tag_328\n      jump\t// in\n        /* \"#utility.yul\":4030:4319   */\n    tag_329:\n        /* \"#utility.yul\":4072:4075   */\n      0x00\n        /* \"#utility.yul\":4110:4115   */\n      dup2\n        /* \"#utility.yul\":4104:4116   */\n      mload\n        /* \"#utility.yul\":4137:4143   */\n      dup1\n        /* \"#utility.yul\":4132:4135   */\n      dup5\n        /* \"#utility.yul\":4125:4144   */\n      mstore\n        /* \"#utility.yul\":4193:4199   */\n      dup1\n        /* \"#utility.yul\":4186:4190   */\n      0x20\n        /* \"#utility.yul\":4179:4184   */\n      dup5\n        /* \"#utility.yul\":4175:4191   */\n      add\n        /* \"#utility.yul\":4168:4172   */\n      0x20\n        /* \"#utility.yul\":4163:4166   */\n      dup7\n        /* \"#utility.yul\":4159:4173   */\n      add\n        /* \"#utility.yul\":4153:4200   */\n      mcopy\n        /* \"#utility.yul\":4245:4246   */\n      0x00\n        /* \"#utility.yul\":4238:4242   */\n      0x20\n        /* \"#utility.yul\":4229:4235   */\n      dup3\n        /* \"#utility.yul\":4224:4227   */\n      dup7\n        /* \"#utility.yul\":4220:4236   */\n      add\n        /* \"#utility.yul\":4216:4243   */\n      add\n        /* \"#utility.yul\":4209:4247   */\n      mstore\n        /* \"#utility.yul\":4308:4312   */\n      0x20\n        /* \"#utility.yul\":4301:4303   */\n      0x1f\n        /* \"#utility.yul\":4297:4304   */\n      not\n        /* \"#utility.yul\":4292:4294   */\n      0x1f\n        /* \"#utility.yul\":4284:4290   */\n      dup4\n        /* \"#utility.yul\":4280:4295   */\n      add\n        /* \"#utility.yul\":4276:4305   */\n      and\n        /* \"#utility.yul\":4271:4274   */\n      dup6\n        /* \"#utility.yul\":4267:4306   */\n      add\n        /* \"#utility.yul\":4263:4313   */\n      add\n        /* \"#utility.yul\":4256:4313   */\n      swap2\n      pop\n      pop\n        /* \"#utility.yul\":4030:4319   */\n      swap3\n      swap2\n      pop\n      pop\n      jump\t// out\n        /* \"#utility.yul\":4324:4544   */\n    tag_79:\n        /* \"#utility.yul\":4473:4475   */\n      0x20\n        /* \"#utility.yul\":4462:4471   */\n      dup2\n        /* \"#utility.yul\":4455:4476   */\n      mstore\n        /* \"#utility.yul\":4436:4440   */\n      0x00\n        /* \"#utility.yul\":4493:4538   */\n      tag_121\n        /* \"#utility.yul\":4534:4536   */\n      0x20\n        /* \"#utility.yul\":4523:4532   */\n      dup4\n        /* \"#utility.yul\":4519:4537   */\n      add\n        /* \"#utility.yul\":4511:4517   */\n      dup5\n        /* \"#utility.yul\":4493:4538   */\n      tag_329\n      jump\t// in\n        /* \"#utility.yul\":4549:5216   */\n    tag_96:\n        /* \"#utility.yul\":4645:4651   */\n      0x00\n        /* \"#utility.yul\":4653:4659   */\n      dup1\n        /* \"#utility.yul\":4661:4667   */\n      0x00\n        /* \"#utility.yul\":4669:4675   */\n      dup1\n        /* \"#utility.yul\":4722:4725   */\n      0x80\n        /* \"#utility.yul\":4710:4719   */\n      dup6\n        /* \"#utility.yul\":4701:4708   */\n      dup8\n        /* \"#utility.yul\":4697:4720   */\n      sub\n        /* \"#utility.yul\":4693:4726   */\n      slt\n        /* \"#utility.yul\":4690:4743   */\n      iszero\n      tag_374\n      jumpi\n        /* \"#utility.yul\":4739:4740   */\n      0x00\n        /* \"#utility.yul\":4736:4737   */\n      dup1\n        /* \"#utility.yul\":4729:4741   */\n      revert\n        /* \"#utility.yul\":4690:4743   */\n    tag_374:\n        /* \"#utility.yul\":4779:4788   */\n      dup5\n        /* \"#utility.yul\":4766:4789   */\n      calldataload\n        /* \"#utility.yul\":4812:4830   */\n      0xffffffffffffffff\n        /* \"#utility.yul\":4804:4810   */\n      dup2\n        /* \"#utility.yul\":4801:4831   */\n      gt\n        /* \"#utility.yul\":4798:4848   */\n      iszero\n      tag_375\n      jumpi\n        /* \"#utility.yul\":4844:4845   */\n      0x00\n        /* \"#utility.yul\":4841:4842   */\n      dup1\n        /* \"#utility.yul\":4834:4846   */\n      revert\n        /* \"#utility.yul\":4798:4848   */\n    tag_375:\n        /* \"#utility.yul\":4867:4917   */\n      tag_376\n        /* \"#utility.yul\":4909:4916   */\n      dup8\n        /* \"#utility.yul\":4900:4906   */\n      dup3\n        /* \"#utility.yul\":4889:4898   */\n      dup9\n        /* \"#utility.yul\":4885:4907   */\n      add\n        /* \"#utility.yul\":4867:4917   */\n      tag_327\n      jump\t// in\n    tag_376:\n        /* \"#utility.yul\":4857:4917   */\n      swap5\n      pop\n      pop\n        /* \"#utility.yul\":4967:4969   */\n      0x20\n        /* \"#utility.yul\":4956:4965   */\n      dup6\n        /* \"#utility.yul\":4952:4970   */\n      add\n        /* \"#utility.yul\":4939:4971   */\n      calldataload\n        /* \"#utility.yul\":4980:5011   */\n      tag_377\n        /* \"#utility.yul\":5005:5010   */\n      dup2\n        /* \"#utility.yul\":4980:5011   */\n      tag_328\n      jump\t// in\n    tag_377:\n        /* \"#utility.yul\":5030:5035   */\n      swap3\n      pop\n        /* \"#utility.yul\":5087:5089   */\n      0x40\n        /* \"#utility.yul\":5072:5090   */\n      dup6\n      add\n        /* \"#utility.yul\":5059:5091   */\n      calldataload\n        /* \"#utility.yul\":5100:5133   */\n      tag_378\n        /* \"#utility.yul\":5059:5091   */\n      dup2\n        /* \"#utility.yul\":5100:5133   */\n      tag_328\n      jump\t// in\n    tag_378:\n        /* \"#utility.yul\":4549:5216   */\n      swap4\n      swap7\n      swap3\n      swap6\n      pop\n        /* \"#utility.yul\":5152:5159   */\n      swap3\n      swap4\n        /* \"#utility.yul\":5206:5208   */\n      0x60\n        /* \"#utility.yul\":5191:5209   */\n      add\n        /* \"#utility.yul\":5178:5210   */\n      calldataload\n      swap3\n      pop\n      pop\n        /* \"#utility.yul\":4549:5216   */\n      jump\t// out\n        /* \"#utility.yul\":5444:6468   */\n    tag_111:\n        /* \"#utility.yul\":5585:5591   */\n      0x00\n        /* \"#utility.yul\":5593:5599   */\n      dup1\n        /* \"#utility.yul\":5601:5607   */\n      0x00\n        /* \"#utility.yul\":5609:5615   */\n      dup1\n        /* \"#utility.yul\":5617:5623   */\n      0x00\n        /* \"#utility.yul\":5625:5631   */\n      dup1\n        /* \"#utility.yul\":5678:5681   */\n      0xc0\n        /* \"#utility.yul\":5666:5675   */\n      dup8\n        /* \"#utility.yul\":5657:5664   */\n      dup10\n        /* \"#utility.yul\":5653:5676   */\n      sub\n        /* \"#utility.yul\":5649:5682   */\n      slt\n        /* \"#utility.yul\":5646:5699   */\n      iszero\n      tag_382\n      jumpi\n        /* \"#utility.yul\":5695:5696   */\n      0x00\n        /* \"#utility.yul\":5692:5693   */\n      dup1\n        /* \"#utility.yul\":5685:5697   */\n      revert\n        /* \"#utility.yul\":5646:5699   */\n    tag_382:\n        /* \"#utility.yul\":5734:5743   */\n      dup7\n        /* \"#utility.yul\":5721:5744   */\n      calldataload\n        /* \"#utility.yul\":5753:5784   */\n      tag_383\n        /* \"#utility.yul\":5778:5783   */\n      dup2\n        /* \"#utility.yul\":5753:5784   */\n      tag_328\n      jump\t// in\n    tag_383:\n        /* \"#utility.yul\":5803:5808   */\n      swap6\n      pop\n        /* \"#utility.yul\":5855:5857   */\n      0x20\n        /* \"#utility.yul\":5840:5858   */\n      dup8\n      add\n        /* \"#utility.yul\":5827:5859   */\n      calldataload\n      swap5\n      pop\n        /* \"#utility.yul\":5910:5912   */\n      0x40\n        /* \"#utility.yul\":5895:5913   */\n      dup8\n      add\n        /* \"#utility.yul\":5882:5914   */\n      calldataload\n        /* \"#utility.yul\":5933:5951   */\n      0xffffffffffffffff\n        /* \"#utility.yul\":5963:5977   */\n      dup1\n      dup3\n      gt\n        /* \"#utility.yul\":5960:5994   */\n      iszero\n      tag_384\n      jumpi\n        /* \"#utility.yul\":5990:5991   */\n      0x00\n        /* \"#utility.yul\":5987:5988   */\n      dup1\n        /* \"#utility.yul\":5980:5992   */\n      revert\n        /* \"#utility.yul\":5960:5994   */\n    tag_384:\n        /* \"#utility.yul\":6013:6063   */\n      tag_385\n        /* \"#utility.yul\":6055:6062   */\n      dup11\n        /* \"#utility.yul\":6046:6052   */\n      dup4\n        /* \"#utility.yul\":6035:6044   */\n      dup12\n        /* \"#utility.yul\":6031:6053   */\n      add\n        /* \"#utility.yul\":6013:6063   */\n      tag_327\n      jump\t// in\n    tag_385:\n        /* \"#utility.yul\":6003:6063   */\n      swap6\n      pop\n        /* \"#utility.yul\":6116:6118   */\n      0x60\n        /* \"#utility.yul\":6105:6114   */\n      dup10\n        /* \"#utility.yul\":6101:6119   */\n      add\n        /* \"#utility.yul\":6088:6120   */\n      calldataload\n        /* \"#utility.yul\":6072:6120   */\n      swap2\n      pop\n        /* \"#utility.yul\":6145:6147   */\n      dup1\n        /* \"#utility.yul\":6135:6143   */\n      dup3\n        /* \"#utility.yul\":6132:6148   */\n      gt\n        /* \"#utility.yul\":6129:6165   */\n      iszero\n      tag_386\n      jumpi\n        /* \"#utility.yul\":6161:6162   */\n      0x00\n        /* \"#utility.yul\":6158:6159   */\n      dup1\n        /* \"#utility.yul\":6151:6163   */\n      revert\n        /* \"#utility.yul\":6129:6165   */\n    tag_386:\n        /* \"#utility.yul\":6184:6236   */\n      tag_387\n        /* \"#utility.yul\":6228:6235   */\n      dup11\n        /* \"#utility.yul\":6217:6225   */\n      dup4\n        /* \"#utility.yul\":6206:6215   */\n      dup12\n        /* \"#utility.yul\":6202:6226   */\n      add\n        /* \"#utility.yul\":6184:6236   */\n      tag_327\n      jump\t// in\n    tag_387:\n        /* \"#utility.yul\":6174:6236   */\n      swap5\n      pop\n        /* \"#utility.yul\":6289:6292   */\n      0x80\n        /* \"#utility.yul\":6278:6287   */\n      dup10\n        /* \"#utility.yul\":6274:6293   */\n      add\n        /* \"#utility.yul\":6261:6294   */\n      calldataload\n        /* \"#utility.yul\":6245:6294   */\n      swap2\n      pop\n        /* \"#utility.yul\":6319:6321   */\n      dup1\n        /* \"#utility.yul\":6309:6317   */\n      dup3\n        /* \"#utility.yul\":6306:6322   */\n      gt\n        /* \"#utility.yul\":6303:6339   */\n      iszero\n      tag_388\n      jumpi\n        /* \"#utility.yul\":6335:6336   */\n      0x00\n        /* \"#utility.yul\":6332:6333   */\n      dup1\n        /* \"#utility.yul\":6325:6337   */\n      revert\n        /* \"#utility.yul\":6303:6339   */\n    tag_388:\n      pop\n        /* \"#utility.yul\":6358:6410   */\n      tag_389\n        /* \"#utility.yul\":6402:6409   */\n      dup10\n        /* \"#utility.yul\":6391:6399   */\n      dup3\n        /* \"#utility.yul\":6380:6389   */\n      dup11\n        /* \"#utility.yul\":6376:6400   */\n      add\n        /* \"#utility.yul\":6358:6410   */\n      tag_327\n      jump\t// in\n    tag_389:\n        /* \"#utility.yul\":6348:6410   */\n      swap3\n      pop\n      pop\n        /* \"#utility.yul\":6457:6460   */\n      0xa0\n        /* \"#utility.yul\":6446:6455   */\n      dup8\n        /* \"#utility.yul\":6442:6461   */\n      add\n        /* \"#utility.yul\":6429:6462   */\n      calldataload\n        /* \"#utility.yul\":6419:6462   */\n      swap1\n      pop\n        /* \"#utility.yul\":5444:6468   */\n      swap3\n      swap6\n      pop\n      swap3\n      swap6\n      pop\n      swap3\n      swap6\n      jump\t// out\n        /* \"#utility.yul\":6473:6772   */\n    tag_114:\n        /* \"#utility.yul\":6656:6662   */\n      dup3\n        /* \"#utility.yul\":6649:6663   */\n      iszero\n        /* \"#utility.yul\":6642:6664   */\n      iszero\n        /* \"#utility.yul\":6631:6640   */\n      dup2\n        /* \"#utility.yul\":6624:6665   */\n      mstore\n        /* \"#utility.yul\":6701:6703   */\n      0x40\n        /* \"#utility.yul\":6696:6698   */\n      0x20\n        /* \"#utility.yul\":6685:6694   */\n      dup3\n        /* \"#utility.yul\":6681:6699   */\n      add\n        /* \"#utility.yul\":6674:6704   */\n      mstore\n        /* \"#utility.yul\":6605:6609   */\n      0x00\n        /* \"#utility.yul\":6721:6766   */\n      tag_351\n        /* \"#utility.yul\":6762:6764   */\n      0x40\n        /* \"#utility.yul\":6751:6760   */\n      dup4\n        /* \"#utility.yul\":6747:6765   */\n      add\n        /* \"#utility.yul\":6739:6745   */\n      dup5\n        /* \"#utility.yul\":6721:6766   */\n      tag_329\n      jump\t// in\n        /* \"#utility.yul\":6777:7157   */\n    tag_152:\n        /* \"#utility.yul\":6856:6857   */\n      0x01\n        /* \"#utility.yul\":6852:6864   */\n      dup2\n      dup2\n      shr\n      swap1\n        /* \"#utility.yul\":6899:6911   */\n      dup3\n      and\n      dup1\n        /* \"#utility.yul\":6920:6981   */\n      tag_393\n      jumpi\n        /* \"#utility.yul\":6974:6978   */\n      0x7f\n        /* \"#utility.yul\":6966:6972   */\n      dup3\n        /* \"#utility.yul\":6962:6979   */\n      and\n        /* \"#utility.yul\":6952:6979   */\n      swap2\n      pop\n        /* \"#utility.yul\":6920:6981   */\n    tag_393:\n        /* \"#utility.yul\":7027:7029   */\n      0x20\n        /* \"#utility.yul\":7019:7025   */\n      dup3\n        /* \"#utility.yul\":7016:7030   */\n      lt\n        /* \"#utility.yul\":6996:7014   */\n      dup2\n        /* \"#utility.yul\":6993:7031   */\n      sub\n        /* \"#utility.yul\":6990:7151   */\n      tag_394\n      jumpi\n        /* \"#utility.yul\":7073:7083   */\n      0x4e487b71\n        /* \"#utility.yul\":7068:7071   */\n      0xe0\n        /* \"#utility.yul\":7064:7084   */\n      shl\n        /* \"#utility.yul\":7061:7062   */\n      0x00\n        /* \"#utility.yul\":7054:7085   */\n      mstore\n        /* \"#utility.yul\":7108:7112   */\n      0x22\n        /* \"#utility.yul\":7105:7106   */\n      0x04\n        /* \"#utility.yul\":7098:7113   */\n      mstore\n        /* \"#utility.yul\":7136:7140   */\n      0x24\n        /* \"#utility.yul\":7133:7134   */\n      0x00\n        /* \"#utility.yul\":7126:7141   */\n      revert\n        /* \"#utility.yul\":6990:7151   */\n    tag_394:\n      pop\n        /* \"#utility.yul\":6777:7157   */\n      swap2\n      swap1\n      pop\n      jump\t// out\n        /* \"#utility.yul\":7288:8131   */\n    tag_117:\n        /* \"#utility.yul\":7416:7419   */\n      0x00\n        /* \"#utility.yul\":7445:7446   */\n      dup1\n        /* \"#utility.yul\":7478:7484   */\n      dup4\n        /* \"#utility.yul\":7472:7485   */\n      sload\n        /* \"#utility.yul\":7508:7544   */\n      tag_397\n        /* \"#utility.yul\":7534:7543   */\n      dup2\n        /* \"#utility.yul\":7508:7544   */\n      tag_152\n      jump\t// in\n    tag_397:\n        /* \"#utility.yul\":7563:7564   */\n      0x01\n        /* \"#utility.yul\":7580:7597   */\n      dup3\n      dup2\n      and\n        /* \"#utility.yul\":7606:7739   */\n      dup1\n      iszero\n      tag_399\n      jumpi\n        /* \"#utility.yul\":7753:7754   */\n      0x01\n        /* \"#utility.yul\":7748:8106   */\n      dup2\n      eq\n      tag_400\n      jumpi\n        /* \"#utility.yul\":7573:8106   */\n      jump(tag_398)\n        /* \"#utility.yul\":7606:7739   */\n    tag_399:\n      not(0xff)\n        /* \"#utility.yul\":7639:7663   */\n      dup5\n      and\n        /* \"#utility.yul\":7627:7664   */\n      dup8\n      mstore\n        /* \"#utility.yul\":7712:7726   */\n      dup3\n      iszero\n        /* \"#utility.yul\":7705:7727   */\n      iszero\n        /* \"#utility.yul\":7693:7728   */\n      dup4\n      mul\n        /* \"#utility.yul\":7684:7729   */\n      dup8\n      add\n      swap5\n      pop\n        /* \"#utility.yul\":7606:7739   */\n      jump(tag_398)\n        /* \"#utility.yul\":7748:8106   */\n    tag_400:\n        /* \"#utility.yul\":7779:7785   */\n      dup8\n        /* \"#utility.yul\":7776:7777   */\n      0x00\n        /* \"#utility.yul\":7769:7786   */\n      mstore\n        /* \"#utility.yul\":7809:7813   */\n      0x20\n        /* \"#utility.yul\":7854:7858   */\n      dup1\n        /* \"#utility.yul\":7851:7852   */\n      0x00\n        /* \"#utility.yul\":7841:7859   */\n      keccak256\n        /* \"#utility.yul\":7881:7882   */\n      0x00\n        /* \"#utility.yul\":7895:8060   */\n    tag_401:\n        /* \"#utility.yul\":7909:7915   */\n      dup6\n        /* \"#utility.yul\":7906:7907   */\n      dup2\n        /* \"#utility.yul\":7903:7916   */\n      lt\n        /* \"#utility.yul\":7895:8060   */\n      iszero\n      tag_403\n      jumpi\n        /* \"#utility.yul\":7987:8001   */\n      dup2\n      sload\n        /* \"#utility.yul\":7974:7985   */\n      dup11\n      dup3\n      add\n        /* \"#utility.yul\":7967:8002   */\n      mstore\n        /* \"#utility.yul\":8030:8046   */\n      swap1\n      dup5\n      add\n      swap1\n        /* \"#utility.yul\":7924:7934   */\n      dup3\n      add\n        /* \"#utility.yul\":7895:8060   */\n      jump(tag_401)\n    tag_403:\n        /* \"#utility.yul\":7899:7902   */\n      pop\n      pop\n      pop\n        /* \"#utility.yul\":8089:8095   */\n      dup3\n        /* \"#utility.yul\":8084:8087   */\n      dup8\n        /* \"#utility.yul\":8080:8096   */\n      add\n        /* \"#utility.yul\":8073:8096   */\n      swap5\n      pop\n        /* \"#utility.yul\":7573:8106   */\n    tag_398:\n      pop\n        /* \"#utility.yul\":8122:8125   */\n      swap3\n      swap7\n        /* \"#utility.yul\":7288:8131   */\n      swap6\n      pop\n      pop\n      pop\n      pop\n      pop\n      pop\n      jump\t// out\n        /* \"#utility.yul\":8136:8467   */\n    tag_126:\n        /* \"#utility.yul\":8338:8340   */\n      0x20\n        /* \"#utility.yul\":8320:8341   */\n      dup1\n      dup3\n      mstore\n        /* \"#utility.yul\":8377:8378   */\n      0x08\n        /* \"#utility.yul\":8357:8375   */\n      swap1\n      dup3\n      add\n        /* \"#utility.yul\":8350:8379   */\n      mstore\n      shl(0xc1, 0x2737ba1029b2b633)\n        /* \"#utility.yul\":8410:8412   */\n      0x40\n        /* \"#utility.yul\":8395:8413   */\n      dup3\n      add\n        /* \"#utility.yul\":8388:8426   */\n      mstore\n        /* \"#utility.yul\":8458:8460   */\n      0x60\n        /* \"#utility.yul\":8443:8461   */\n      add\n      swap1\n        /* \"#utility.yul\":8136:8467   */\n      jump\t// out\n        /* \"#utility.yul\":8472:8826   */\n    tag_130:\n        /* \"#utility.yul\":8674:8676   */\n      0x20\n        /* \"#utility.yul\":8656:8677   */\n      dup1\n      dup3\n      mstore\n        /* \"#utility.yul\":8713:8715   */\n      0x1e\n        /* \"#utility.yul\":8693:8711   */\n      swap1\n      dup3\n      add\n        /* \"#utility.yul\":8686:8716   */\n      mstore\n        /* \"#utility.yul\":8752:8784   */\n      0x4d757374206265206e6f6e2d7a65726f20736967732072657175697265640000\n        /* \"#utility.yul\":8747:8749   */\n      0x40\n        /* \"#utility.yul\":8732:8750   */\n      dup3\n      add\n        /* \"#utility.yul\":8725:8785   */\n      mstore\n        /* \"#utility.yul\":8817:8819   */\n      0x60\n        /* \"#utility.yul\":8802:8820   */\n      add\n      swap1\n        /* \"#utility.yul\":8472:8826   */\n      jump\t// out\n        /* \"#utility.yul\":9183:10037   */\n    tag_141:\n        /* \"#utility.yul\":9378:9382   */\n      0x00\n        /* \"#utility.yul\":9426:9428   */\n      0x60\n        /* \"#utility.yul\":9415:9424   */\n      dup3\n        /* \"#utility.yul\":9411:9429   */\n      add\n        /* \"#utility.yul\":9465:9466   */\n      0x01\n        /* \"#utility.yul\":9461:9462   */\n      dup1\n        /* \"#utility.yul\":9456:9459   */\n      0xa0\n        /* \"#utility.yul\":9452:9463   */\n      shl\n        /* \"#utility.yul\":9448:9467   */\n      sub\n        /* \"#utility.yul\":9506:9508   */\n      dup1\n        /* \"#utility.yul\":9498:9504   */\n      dup8\n        /* \"#utility.yul\":9494:9509   */\n      and\n        /* \"#utility.yul\":9483:9492   */\n      dup5\n        /* \"#utility.yul\":9476:9510   */\n      mstore\n        /* \"#utility.yul\":9529:9531   */\n      0x20\n        /* \"#utility.yul\":9567:9569   */\n      0x60\n        /* \"#utility.yul\":9562:9564   */\n      0x20\n        /* \"#utility.yul\":9551:9560   */\n      dup7\n        /* \"#utility.yul\":9547:9565   */\n      add\n        /* \"#utility.yul\":9540:9570   */\n      mstore\n        /* \"#utility.yul\":9590:9596   */\n      dup3\n        /* \"#utility.yul\":9625:9631   */\n      dup8\n        /* \"#utility.yul\":9619:9632   */\n      sload\n        /* \"#utility.yul\":9656:9662   */\n      dup1\n        /* \"#utility.yul\":9648:9654   */\n      dup6\n        /* \"#utility.yul\":9641:9663   */\n      mstore\n        /* \"#utility.yul\":9694:9697   */\n      0x80\n        /* \"#utility.yul\":9683:9692   */\n      dup8\n        /* \"#utility.yul\":9679:9698   */\n      add\n        /* \"#utility.yul\":9672:9698   */\n      swap2\n      pop\n        /* \"#utility.yul\":9717:9723   */\n      dup9\n        /* \"#utility.yul\":9714:9715   */\n      0x00\n        /* \"#utility.yul\":9707:9724   */\n      mstore\n        /* \"#utility.yul\":9760:9762   */\n      0x20\n        /* \"#utility.yul\":9757:9758   */\n      0x00\n        /* \"#utility.yul\":9747:9763   */\n      keccak256\n        /* \"#utility.yul\":9733:9763   */\n      swap5\n      pop\n        /* \"#utility.yul\":9781:9782   */\n      0x00\n        /* \"#utility.yul\":9791:9968   */\n    tag_408:\n        /* \"#utility.yul\":9805:9811   */\n      dup2\n        /* \"#utility.yul\":9802:9803   */\n      dup2\n        /* \"#utility.yul\":9799:9812   */\n      lt\n        /* \"#utility.yul\":9791:9968   */\n      iszero\n      tag_410\n      jumpi\n        /* \"#utility.yul\":9870:9883   */\n      dup6\n      sload\n        /* \"#utility.yul\":9866:9888   */\n      dup6\n      and\n        /* \"#utility.yul\":9854:9889   */\n      dup4\n      mstore\n        /* \"#utility.yul\":9956:9957   */\n      0x01\n        /* \"#utility.yul\":9944:9958   */\n      swap6\n      dup7\n      add\n      swap6\n        /* \"#utility.yul\":9909:9921   */\n      swap3\n      dup5\n      add\n      swap3\n        /* \"#utility.yul\":9820:9829   */\n      add\n        /* \"#utility.yul\":9791:9968   */\n      jump(tag_408)\n    tag_410:\n        /* \"#utility.yul\":9795:9798   */\n      pop\n      pop\n        /* \"#utility.yul\":9985:9988   */\n      dup1\n        /* \"#utility.yul\":9977:9988   */\n      swap5\n      pop\n      pop\n      pop\n      pop\n      pop\n        /* \"#utility.yul\":10024:10030   */\n      dup3\n        /* \"#utility.yul\":10019:10021   */\n      0x40\n        /* \"#utility.yul\":10008:10017   */\n      dup4\n        /* \"#utility.yul\":10004:10022   */\n      add\n        /* \"#utility.yul\":9997:10031   */\n      mstore\n        /* \"#utility.yul\":9183:10037   */\n      swap5\n      swap4\n      pop\n      pop\n      pop\n      pop\n      jump\t// out\n        /* \"#utility.yul\":10577:10704   */\n    tag_331:\n        /* \"#utility.yul\":10638:10648   */\n      0x4e487b71\n        /* \"#utility.yul\":10633:10636   */\n      0xe0\n        /* \"#utility.yul\":10629:10649   */\n      shl\n        /* \"#utility.yul\":10626:10627   */\n      0x00\n        /* \"#utility.yul\":10619:10650   */\n      mstore\n        /* \"#utility.yul\":10669:10673   */\n      0x11\n        /* \"#utility.yul\":10666:10667   */\n      0x04\n        /* \"#utility.yul\":10659:10674   */\n      mstore\n        /* \"#utility.yul\":10693:10697   */\n      0x24\n        /* \"#utility.yul\":10690:10691   */\n      0x00\n        /* \"#utility.yul\":10683:10698   */\n      revert\n        /* \"#utility.yul\":10709:10844   */\n    tag_150:\n        /* \"#utility.yul\":10748:10751   */\n      0x00\n        /* \"#utility.yul\":10769:10786   */\n      0x01\n      dup3\n      add\n        /* \"#utility.yul\":10766:10809   */\n      tag_415\n      jumpi\n        /* \"#utility.yul\":10789:10807   */\n      tag_415\n      tag_331\n      jump\t// in\n    tag_415:\n      pop\n        /* \"#utility.yul\":10836:10837   */\n      0x01\n        /* \"#utility.yul\":10825:10838   */\n      add\n      swap1\n        /* \"#utility.yul\":10709:10844   */\n      jump\t// out\n        /* \"#utility.yul\":12274:12577   */\n    tag_185:\n        /* \"#utility.yul\":12405:12408   */\n      0x00\n        /* \"#utility.yul\":12443:12449   */\n      dup3\n        /* \"#utility.yul\":12437:12450   */\n      mload\n        /* \"#utility.yul\":12489:12495   */\n      dup1\n        /* \"#utility.yul\":12482:12486   */\n      0x20\n        /* \"#utility.yul\":12474:12480   */\n      dup6\n        /* \"#utility.yul\":12470:12487   */\n      add\n        /* \"#utility.yul\":12465:12468   */\n      dup5\n        /* \"#utility.yul\":12459:12496   */\n      mcopy\n        /* \"#utility.yul\":12551:12552   */\n      0x00\n        /* \"#utility.yul\":12515:12531   */\n      swap3\n      add\n        /* \"#utility.yul\":12540:12553   */\n      swap2\n      dup3\n      mstore\n      pop\n        /* \"#utility.yul\":12515:12531   */\n      swap2\n        /* \"#utility.yul\":12274:12577   */\n      swap1\n      pop\n      jump\t// out\n        /* \"#utility.yul\":13004:13522   */\n    tag_332:\n        /* \"#utility.yul\":13106:13108   */\n      0x1f\n        /* \"#utility.yul\":13101:13104   */\n      dup3\n        /* \"#utility.yul\":13098:13109   */\n      gt\n        /* \"#utility.yul\":13095:13516   */\n      iszero\n      tag_423\n      jumpi\n        /* \"#utility.yul\":13142:13147   */\n      dup1\n        /* \"#utility.yul\":13139:13140   */\n      0x00\n        /* \"#utility.yul\":13132:13148   */\n      mstore\n        /* \"#utility.yul\":13186:13190   */\n      0x20\n        /* \"#utility.yul\":13183:13184   */\n      0x00\n        /* \"#utility.yul\":13173:13191   */\n      keccak256\n        /* \"#utility.yul\":13256:13258   */\n      0x1f\n        /* \"#utility.yul\":13244:13254   */\n      dup5\n        /* \"#utility.yul\":13240:13259   */\n      add\n        /* \"#utility.yul\":13237:13238   */\n      0x05\n        /* \"#utility.yul\":13233:13260   */\n      shr\n        /* \"#utility.yul\":13227:13231   */\n      dup2\n        /* \"#utility.yul\":13223:13261   */\n      add\n        /* \"#utility.yul\":13292:13296   */\n      0x20\n        /* \"#utility.yul\":13280:13290   */\n      dup6\n        /* \"#utility.yul\":13277:13297   */\n      lt\n        /* \"#utility.yul\":13274:13321   */\n      iszero\n      tag_424\n      jumpi\n      pop\n        /* \"#utility.yul\":13315:13319   */\n      dup1\n        /* \"#utility.yul\":13274:13321   */\n    tag_424:\n        /* \"#utility.yul\":13370:13372   */\n      0x1f\n        /* \"#utility.yul\":13365:13368   */\n      dup5\n        /* \"#utility.yul\":13361:13373   */\n      add\n        /* \"#utility.yul\":13358:13359   */\n      0x05\n        /* \"#utility.yul\":13354:13374   */\n      shr\n        /* \"#utility.yul\":13348:13352   */\n      dup3\n        /* \"#utility.yul\":13344:13375   */\n      add\n        /* \"#utility.yul\":13334:13375   */\n      swap2\n      pop\n        /* \"#utility.yul\":13425:13506   */\n    tag_425:\n        /* \"#utility.yul\":13443:13445   */\n      dup2\n        /* \"#utility.yul\":13436:13441   */\n      dup2\n        /* \"#utility.yul\":13433:13446   */\n      lt\n        /* \"#utility.yul\":13425:13506   */\n      iszero\n      tag_252\n      jumpi\n        /* \"#utility.yul\":13502:13503   */\n      0x00\n        /* \"#utility.yul\":13488:13504   */\n      dup2\n      sstore\n        /* \"#utility.yul\":13469:13470   */\n      0x01\n        /* \"#utility.yul\":13458:13471   */\n      add\n        /* \"#utility.yul\":13425:13506   */\n      jump(tag_425)\n        /* \"#utility.yul\":13095:13516   */\n    tag_423:\n        /* \"#utility.yul\":13004:13522   */\n      pop\n      pop\n      pop\n      jump\t// out\n        /* \"#utility.yul\":13698:15043   */\n    tag_203:\n        /* \"#utility.yul\":13824:13827   */\n      dup2\n        /* \"#utility.yul\":13818:13828   */\n      mload\n        /* \"#utility.yul\":13851:13869   */\n      0xffffffffffffffff\n        /* \"#utility.yul\":13843:13849   */\n      dup2\n        /* \"#utility.yul\":13840:13870   */\n      gt\n        /* \"#utility.yul\":13837:13893   */\n      iszero\n      tag_431\n      jumpi\n        /* \"#utility.yul\":13873:13891   */\n      tag_431\n      tag_227\n      jump\t// in\n    tag_431:\n        /* \"#utility.yul\":13902:13999   */\n      tag_432\n        /* \"#utility.yul\":13992:13998   */\n      dup2\n        /* \"#utility.yul\":13952:13990   */\n      tag_433\n        /* \"#utility.yul\":13984:13988   */\n      dup5\n        /* \"#utility.yul\":13978:13989   */\n      sload\n        /* \"#utility.yul\":13952:13990   */\n      tag_152\n      jump\t// in\n    tag_433:\n        /* \"#utility.yul\":13946:13950   */\n      dup5\n        /* \"#utility.yul\":13902:13999   */\n      tag_332\n      jump\t// in\n    tag_432:\n        /* \"#utility.yul\":14054:14058   */\n      0x20\n      dup1\n        /* \"#utility.yul\":14111:14113   */\n      0x1f\n        /* \"#utility.yul\":14100:14114   */\n      dup4\n      gt\n        /* \"#utility.yul\":14128:14129   */\n      0x01\n        /* \"#utility.yul\":14123:14786   */\n      dup2\n      eq\n      tag_435\n      jumpi\n        /* \"#utility.yul\":14830:14831   */\n      0x00\n        /* \"#utility.yul\":14847:14853   */\n      dup5\n        /* \"#utility.yul\":14844:14933   */\n      iszero\n      tag_436\n      jumpi\n      pop\n        /* \"#utility.yul\":14899:14918   */\n      dup6\n      dup4\n      add\n        /* \"#utility.yul\":14893:14919   */\n      mload\n        /* \"#utility.yul\":14844:14933   */\n    tag_436:\n      not(0x00)\n        /* \"#utility.yul\":13655:13656   */\n      0x03\n        /* \"#utility.yul\":13651:13662   */\n      dup7\n      swap1\n      shl\n        /* \"#utility.yul\":13647:13671   */\n      shr\n        /* \"#utility.yul\":13643:13672   */\n      not\n        /* \"#utility.yul\":13633:13673   */\n      and\n        /* \"#utility.yul\":13679:13680   */\n      0x01\n        /* \"#utility.yul\":13675:13686   */\n      dup6\n      swap1\n      shl\n        /* \"#utility.yul\":13630:13687   */\n      or\n        /* \"#utility.yul\":14946:15027   */\n      dup6\n      sstore\n        /* \"#utility.yul\":14093:15037   */\n      jump(tag_434)\n        /* \"#utility.yul\":14123:14786   */\n    tag_435:\n        /* \"#utility.yul\":7235:7236   */\n      0x00\n        /* \"#utility.yul\":7228:7242   */\n      dup6\n      dup2\n      mstore\n        /* \"#utility.yul\":7272:7276   */\n      0x20\n        /* \"#utility.yul\":7259:7277   */\n      dup2\n      keccak256\n      not(0x1f)\n        /* \"#utility.yul\":14159:14179   */\n      dup7\n      and\n      swap2\n        /* \"#utility.yul\":14277:14513   */\n    tag_439:\n        /* \"#utility.yul\":14291:14298   */\n      dup3\n        /* \"#utility.yul\":14288:14289   */\n      dup2\n        /* \"#utility.yul\":14285:14299   */\n      lt\n        /* \"#utility.yul\":14277:14513   */\n      iszero\n      tag_441\n      jumpi\n        /* \"#utility.yul\":14380:14399   */\n      dup9\n      dup7\n      add\n        /* \"#utility.yul\":14374:14400   */\n      mload\n        /* \"#utility.yul\":14359:14401   */\n      dup3\n      sstore\n        /* \"#utility.yul\":14472:14499   */\n      swap5\n      dup5\n      add\n      swap5\n        /* \"#utility.yul\":14440:14441   */\n      0x01\n        /* \"#utility.yul\":14428:14442   */\n      swap1\n      swap2\n      add\n      swap1\n        /* \"#utility.yul\":14307:14326   */\n      dup5\n      add\n        /* \"#utility.yul\":14277:14513   */\n      jump(tag_439)\n    tag_441:\n        /* \"#utility.yul\":14281:14284   */\n      pop\n        /* \"#utility.yul\":14541:14547   */\n      dup6\n        /* \"#utility.yul\":14532:14539   */\n      dup3\n        /* \"#utility.yul\":14529:14548   */\n      lt\n        /* \"#utility.yul\":14526:14727   */\n      iszero\n      tag_442\n      jumpi\n        /* \"#utility.yul\":14602:14621   */\n      dup8\n      dup6\n      add\n        /* \"#utility.yul\":14596:14622   */\n      mload\n      not(0x00)\n        /* \"#utility.yul\":14685:14686   */\n      0x03\n        /* \"#utility.yul\":14681:14695   */\n      dup9\n      swap1\n      shl\n        /* \"#utility.yul\":14697:14700   */\n      0xf8\n        /* \"#utility.yul\":14677:14701   */\n      and\n        /* \"#utility.yul\":14673:14710   */\n      shr\n        /* \"#utility.yul\":14669:14711   */\n      not\n        /* \"#utility.yul\":14654:14712   */\n      and\n        /* \"#utility.yul\":14639:14713   */\n      dup2\n      sstore\n        /* \"#utility.yul\":14526:14727   */\n    tag_442:\n      pop\n      pop\n        /* \"#utility.yul\":14773:14774   */\n      0x01\n        /* \"#utility.yul\":14764:14770   */\n      dup5\n        /* \"#utility.yul\":14761:14762   */\n      0x01\n        /* \"#utility.yul\":14757:14771   */\n      shl\n        /* \"#utility.yul\":14753:14775   */\n      add\n        /* \"#utility.yul\":14747:14751   */\n      dup6\n        /* \"#utility.yul\":14740:14776   */\n      sstore\n        /* \"#utility.yul\":14093:15037   */\n    tag_434:\n      pop\n      pop\n      pop\n      pop\n        /* \"#utility.yul\":13698:15043   */\n      pop\n      pop\n      jump\t// out\n        /* \"#utility.yul\":15822:15950   */\n    tag_212:\n        /* \"#utility.yul\":15889:15898   */\n      dup2\n      dup2\n      sub\n        /* \"#utility.yul\":15910:15921   */\n      dup2\n      dup2\n      gt\n        /* \"#utility.yul\":15907:15944   */\n      iszero\n      tag_120\n      jumpi\n        /* \"#utility.yul\":15924:15942   */\n      tag_120\n      tag_331\n      jump\t// in\n        /* \"#utility.yul\":16393:17196   */\n    tag_216:\n        /* \"#utility.yul\":16765:16766   */\n      0x01\n        /* \"#utility.yul\":16761:16762   */\n      dup1\n        /* \"#utility.yul\":16756:16759   */\n      0xa0\n        /* \"#utility.yul\":16752:16763   */\n      shl\n        /* \"#utility.yul\":16748:16767   */\n      sub\n        /* \"#utility.yul\":16740:16746   */\n      dup8\n        /* \"#utility.yul\":16736:16768   */\n      and\n        /* \"#utility.yul\":16725:16734   */\n      dup2\n        /* \"#utility.yul\":16718:16769   */\n      mstore\n        /* \"#utility.yul\":16805:16811   */\n      dup6\n        /* \"#utility.yul\":16800:16802   */\n      0x20\n        /* \"#utility.yul\":16789:16798   */\n      dup3\n        /* \"#utility.yul\":16785:16803   */\n      add\n        /* \"#utility.yul\":16778:16812   */\n      mstore\n        /* \"#utility.yul\":16848:16851   */\n      0xc0\n        /* \"#utility.yul\":16843:16845   */\n      0x40\n        /* \"#utility.yul\":16832:16841   */\n      dup3\n        /* \"#utility.yul\":16828:16846   */\n      add\n        /* \"#utility.yul\":16821:16852   */\n      mstore\n        /* \"#utility.yul\":16699:16703   */\n      0x00\n        /* \"#utility.yul\":16875:16921   */\n      tag_450\n        /* \"#utility.yul\":16916:16919   */\n      0xc0\n        /* \"#utility.yul\":16905:16914   */\n      dup4\n        /* \"#utility.yul\":16901:16920   */\n      add\n        /* \"#utility.yul\":16893:16899   */\n      dup8\n        /* \"#utility.yul\":16875:16921   */\n      tag_329\n      jump\t// in\n    tag_450:\n        /* \"#utility.yul\":16969:16978   */\n      dup3\n        /* \"#utility.yul\":16961:16967   */\n      dup2\n        /* \"#utility.yul\":16957:16979   */\n      sub\n        /* \"#utility.yul\":16952:16954   */\n      0x60\n        /* \"#utility.yul\":16941:16950   */\n      dup5\n        /* \"#utility.yul\":16937:16955   */\n      add\n        /* \"#utility.yul\":16930:16980   */\n      mstore\n        /* \"#utility.yul\":17003:17036   */\n      tag_451\n        /* \"#utility.yul\":17029:17035   */\n      dup2\n        /* \"#utility.yul\":17021:17027   */\n      dup8\n        /* \"#utility.yul\":17003:17036   */\n      tag_329\n      jump\t// in\n    tag_451:\n        /* \"#utility.yul\":16989:17036   */\n      swap1\n      pop\n        /* \"#utility.yul\":17085:17094   */\n      dup3\n        /* \"#utility.yul\":17077:17083   */\n      dup2\n        /* \"#utility.yul\":17073:17095   */\n      sub\n        /* \"#utility.yul\":17067:17070   */\n      0x80\n        /* \"#utility.yul\":17056:17065   */\n      dup5\n        /* \"#utility.yul\":17052:17071   */\n      add\n        /* \"#utility.yul\":17045:17096   */\n      mstore\n        /* \"#utility.yul\":17113:17146   */\n      tag_452\n        /* \"#utility.yul\":17139:17145   */\n      dup2\n        /* \"#utility.yul\":17131:17137   */\n      dup7\n        /* \"#utility.yul\":17113:17146   */\n      tag_329\n      jump\t// in\n    tag_452:\n        /* \"#utility.yul\":17105:17146   */\n      swap2\n      pop\n      pop\n        /* \"#utility.yul\":17183:17189   */\n      dup3\n        /* \"#utility.yul\":17177:17180   */\n      0xa0\n        /* \"#utility.yul\":17166:17175   */\n      dup4\n        /* \"#utility.yul\":17162:17181   */\n      add\n        /* \"#utility.yul\":17155:17190   */\n      mstore\n        /* \"#utility.yul\":16393:17196   */\n      swap8\n      swap7\n      pop\n      pop\n      pop\n      pop\n      pop\n      pop\n      pop\n      jump\t// out\n        /* \"#utility.yul\":17201:17661   */\n    tag_218:\n        /* \"#utility.yul\":17430:17436   */\n      dup4\n        /* \"#utility.yul\":17423:17437   */\n      iszero\n        /* \"#utility.yul\":17416:17438   */\n      iszero\n        /* \"#utility.yul\":17405:17414   */\n      dup2\n        /* \"#utility.yul\":17398:17439   */\n      mstore\n        /* \"#utility.yul\":17475:17477   */\n      0x60\n        /* \"#utility.yul\":17470:17472   */\n      0x20\n        /* \"#utility.yul\":17459:17468   */\n      dup3\n        /* \"#utility.yul\":17455:17473   */\n      add\n        /* \"#utility.yul\":17448:17478   */\n      mstore\n        /* \"#utility.yul\":17379:17383   */\n      0x00\n        /* \"#utility.yul\":17501:17546   */\n      tag_454\n        /* \"#utility.yul\":17542:17544   */\n      0x60\n        /* \"#utility.yul\":17531:17540   */\n      dup4\n        /* \"#utility.yul\":17527:17545   */\n      add\n        /* \"#utility.yul\":17519:17525   */\n      dup6\n        /* \"#utility.yul\":17501:17546   */\n      tag_329\n      jump\t// in\n    tag_454:\n        /* \"#utility.yul\":17594:17603   */\n      dup3\n        /* \"#utility.yul\":17586:17592   */\n      dup2\n        /* \"#utility.yul\":17582:17604   */\n      sub\n        /* \"#utility.yul\":17577:17579   */\n      0x40\n        /* \"#utility.yul\":17566:17575   */\n      dup5\n        /* \"#utility.yul\":17562:17580   */\n      add\n        /* \"#utility.yul\":17555:17605   */\n      mstore\n        /* \"#utility.yul\":17622:17655   */\n      tag_455\n        /* \"#utility.yul\":17648:17654   */\n      dup2\n        /* \"#utility.yul\":17640:17646   */\n      dup6\n        /* \"#utility.yul\":17622:17655   */\n      tag_329\n      jump\t// in\n    tag_455:\n        /* \"#utility.yul\":17614:17655   */\n      swap7\n        /* \"#utility.yul\":17201:17661   */\n      swap6\n      pop\n      pop\n      pop\n      pop\n      pop\n      pop\n      jump\t// out\n        /* \"#utility.yul\":17666:17793   */\n    tag_235:\n        /* \"#utility.yul\":17727:17737   */\n      0x4e487b71\n        /* \"#utility.yul\":17722:17725   */\n      0xe0\n        /* \"#utility.yul\":17718:17738   */\n      shl\n        /* \"#utility.yul\":17715:17716   */\n      0x00\n        /* \"#utility.yul\":17708:17739   */\n      mstore\n        /* \"#utility.yul\":17758:17762   */\n      0x32\n        /* \"#utility.yul\":17755:17756   */\n      0x04\n        /* \"#utility.yul\":17748:17763   */\n      mstore\n        /* \"#utility.yul\":17782:17786   */\n      0x24\n        /* \"#utility.yul\":17779:17780   */\n      0x00\n        /* \"#utility.yul\":17772:17787   */\n      revert\n        /* \"#utility.yul\":17798:17925   */\n    tag_245:\n        /* \"#utility.yul\":17859:17869   */\n      0x4e487b71\n        /* \"#utility.yul\":17854:17857   */\n      0xe0\n        /* \"#utility.yul\":17850:17870   */\n      shl\n        /* \"#utility.yul\":17847:17848   */\n      0x00\n        /* \"#utility.yul\":17840:17871   */\n      mstore\n        /* \"#utility.yul\":17890:17894   */\n      0x31\n        /* \"#utility.yul\":17887:17888   */\n      0x04\n        /* \"#utility.yul\":17880:17895   */\n      mstore\n        /* \"#utility.yul\":17914:17918   */\n      0x24\n        /* \"#utility.yul\":17911:17912   */\n      0x00\n        /* \"#utility.yul\":17904:17919   */\n      revert\n        /* \"#utility.yul\":17930:18066   */\n    tag_259:\n        /* \"#utility.yul\":17969:17972   */\n      0x00\n        /* \"#utility.yul\":17997:18002   */\n      dup2\n        /* \"#utility.yul\":17987:18026   */\n      tag_460\n      jumpi\n        /* \"#utility.yul\":18006:18024   */\n      tag_460\n      tag_331\n      jump\t// in\n    tag_460:\n      pop\n      not(0x00)\n        /* \"#utility.yul\":18042:18060   */\n      add\n      swap1\n        /* \"#utility.yul\":17930:18066   */\n      jump\t// out\n        /* \"#utility.yul\":18071:18198   */\n    tag_283:\n        /* \"#utility.yul\":18132:18142   */\n      0x4e487b71\n        /* \"#utility.yul\":18127:18130   */\n      0xe0\n        /* \"#utility.yul\":18123:18143   */\n      shl\n        /* \"#utility.yul\":18120:18121   */\n      0x00\n        /* \"#utility.yul\":18113:18144   */\n      mstore\n        /* \"#utility.yul\":18163:18167   */\n      0x21\n        /* \"#utility.yul\":18160:18161   */\n      0x04\n        /* \"#utility.yul\":18153:18168   */\n      mstore\n        /* \"#utility.yul\":18187:18191   */\n      0x24\n        /* \"#utility.yul\":18184:18185   */\n      0x00\n        /* \"#utility.yul\":18177:18192   */\n      revert\n\n    auxdata: 0xa2646970667358221220b2dd7fd16b06ee84e76166e4a7589ad3bd607aa7bd2e7030b3ea7308e2d263c264736f6c63430008190033\n}\n",
				"bytecode": {
					"linkReferences": {},
					"object": "6080604052604051611c8c380380611c8c83398101604081905261002291610269565b815f81116100775760405162461bcd60e51b815260206004820152601e60248201527f4d757374206265206e6f6e2d7a65726f2073696773207265717569726564000060448201526064015b60405180910390fd5b5f80546001600160a01b0319166001600160a01b03841617815560068490555b8451811015610229575f8582815181106100b3576100b361034f565b602002602001015190505f6001600160a01b0316816001600160a01b03160361011e5760405162461bcd60e51b815260206004820152601960248201527f636f6e7374727563746f723a207a65726f206164647265737300000000000000604482015260640161006e565b6001600160a01b0381165f9081526001602052604090205460ff16156101865760405162461bcd60e51b815260206004820152601d60248201527f636f6e7374727563746f723a206f776e6572206e6f7420756e69717565000000604482015260640161006e565b6001600160a01b0381165f81815260016020818152604092839020805460ff1916831781556005805493840190557f036b6384b5eca791c62761152d0c79bb0604c104a5fb6f4eb0703f3154bb3db090920180546001600160a01b031916851790559054915160ff909216151582527ffe545f48304051c4029eb2da9927daa59da0414b4b084fdceaf2955b609b899e910160405180910390a250600101610097565b505050600892909255506103639050565b634e487b7160e01b5f52604160045260245ffd5b80516001600160a01b0381168114610264575f80fd5b919050565b5f805f806080858703121561027c575f80fd5b8451602080870151919550906001600160401b038082111561029c575f80fd5b818801915088601f8301126102af575f80fd5b8151818111156102c1576102c161023a565b8060051b604051601f19603f830116810181811085821117156102e6576102e661023a565b60405291825284820192508381018501918b831115610303575f80fd5b938501935b82851015610328576103198561024e565b84529385019392850192610308565b809850505050505050604085015191506103446060860161024e565b905092959194509250565b634e487b7160e01b5f52603260045260245ffd5b61191c806103705f395ff3fe6080604052600436106100f2575f3560e01c80637708072c11610087578063a157b0ae11610057578063a157b0ae14610381578063affed0e0146103a0578063ce757d29146103b5578063d17eced3146103ca575f80fd5b80637708072c146102ea5780637c72596e1461031657806395a3ac741461034d5780639a8a05921461036c575f80fd5b80631f919f77116100c25780631f919f77146101f65780632f54bf6e146102175780633aaa477114610255578063627cdcb9146102d6575f80fd5b8063019010f614610137578063025e7c271461016957806306a23e5f146101a057806319045a25146101d7575f80fd5b36610133576040805134815247602082015233917f90890809c654f11d6e72a28fa60149770a0d11ec6c92319d6ceb2bb0a4ea1a15910160405180910390a2005b5f80fd5b348015610142575f80fd5b50610156610151366004611205565b6103f7565b6040519081526020015b60405180910390f35b348015610174575f80fd5b50610188610183366004611205565b61042c565b6040516001600160a01b039091168152602001610160565b3480156101ab575f80fd5b506101566101ba3660046112b9565b805160208183018101805160048252928201919093012091525481565b3480156101e2575f80fd5b506101886101f13660046112f3565b610454565b348015610201575f80fd5b5061021561021036600461134e565b610468565b005b348015610222575f80fd5b5061024561023136600461138c565b60016020525f908152604090205460ff1681565b6040519015158152602001610160565b348015610260575f80fd5b5061015661026f3660046113ae565b6008546040516bffffffffffffffffffffffff1930606090811b821660208401526034830193909352605482018690529184901b9091166074820152608881018290525f9060a8016040516020818303038152906040528051906020012090509392505050565b3480156102e1575f80fd5b506101566105f3565b3480156102f5575f80fd5b50610309610304366004611205565b610610565b6040516101609190611400565b348015610321575f80fd5b506101566103303660046112b9565b805160208183018101805160028252928201919093012091525481565b348015610358575f80fd5b5061021561036736600461134e565b6106a7565b348015610377575f80fd5b5061015660085481565b34801561038c575f80fd5b5061030961039b366004611412565b610869565b3480156103ab575f80fd5b5061015660075481565b3480156103c0575f80fd5b5061015660065481565b3480156103d5575f80fd5b506103e96103e4366004611478565b6108e1565b60405161016092919061151e565b6007545f90815260036020526040808220905160029161041691611570565b9081526020016040518091039020549050919050565b6005818154811061043b575f80fd5b5f918252602090912001546001600160a01b0316905081565b5f61045f8383610c46565b90505b92915050565b82336001600160a01b0382161461049a5760405162461bcd60e51b8152600401610491906115e2565b60405180910390fd5b815f81116104ba5760405162461bcd60e51b815260040161049190611604565b6001600160a01b0384165f9081526001602052604090205460ff166105215760405162461bcd60e51b815260206004820152601760248201527f72656d6f76655369676e65723a206e6f74206f776e65720000000000000000006044820152606401610491565b61052a84610c6e565b60068390556105398584610e67565b6001600160a01b0384165f8181526001602090815260409182902054915160ff909216151582527ffe545f48304051c4029eb2da9927daa59da0414b4b084fdceaf2955b609b899e910160405180910390a25f54604051632fb7d0a560e21b81526001600160a01b039091169063bedf4294906105bf903090600590889060040161163b565b5f604051808303815f87803b1580156105d6575f80fd5b505af11580156105e8573d5f803e3d5ffd5b505050505050505050565b600780545f9182610603836116b5565b9190505550600754905090565b60036020525f90815260409020805461062890611538565b80601f016020809104026020016040519081016040528092919081815260200182805461065490611538565b801561069f5780601f106106765761010080835404028352916020019161069f565b820191905f5260205f20905b81548152906001019060200180831161068257829003601f168201915b505050505081565b82336001600160a01b038216146106d05760405162461bcd60e51b8152600401610491906115e2565b335f9081526001602052604090205460ff1661071a5760405162461bcd60e51b81526020600482015260096024820152682737ba1037bbb732b960b91b6044820152606401610491565b815f811161073a5760405162461bcd60e51b815260040161049190611604565b6001600160a01b0384166107905760405162461bcd60e51b815260206004820152601760248201527f6164645369676e65723a207a65726f20616464726573730000000000000000006044820152606401610491565b6001600160a01b0384165f9081526001602052604090205460ff16156107f85760405162461bcd60e51b815260206004820152601b60248201527f6164645369676e65723a206f776e6572206e6f7420756e6971756500000000006044820152606401610491565b6001600160a01b0384165f8181526001602081905260408220805460ff1916821790556005805491820181559091527f036b6384b5eca791c62761152d0c79bb0604c104a5fb6f4eb0703f3154bb3db00180546001600160a01b031916909117905560068390556105398584610e67565b6040516001600160a01b0380851660248301528316604482015260648101829052606090859060840160408051601f1981840301815290829052916108ad916116cd565b6040519081900390206020820180516001600160e01b03166001600160e01b03199092169190911790529050949350505050565b335f9081526001602052604081205460609060ff1661092e5760405162461bcd60e51b81526020600482015260096024820152682737ba1037bbb732b960b91b6044820152606401610491565b5f61093886610eb8565b90505f80610946888a610ee7565b9050816001600160a01b0316816001600160a01b0316116109c75760405162461bcd60e51b815260206004820152603560248201527f657865637574655472616e73616374696f6e3a206475706c6963617465206f7260448201527420756e6f726465726564207369676e61747572657360581b6064820152608401610491565b6001600160a01b0381165f90815260016020526040812054919250829160ff1615610a7b576004886040516109fc91906116cd565b9081526040519081900360200190208054905f610a18836116b5565b9190505550600488604051610a2d91906116cd565b908152602001604051809103902054600289604051610a4c91906116cd565b9081526040805160209281900383019020929092555f898152600390915220610a75898261172c565b50600190505b600654600489604051610a8e91906116cd565b9081526020016040518091039020541015610b035760405162461bcd60e51b815260206004820152602f60248201527f657865637574655472616e73616374696f6e3a206e6f7420656e6f756768207660448201526e616c6964207369676e61747572657360881b6064820152608401610491565b80610b505760405162461bcd60e51b815260206004820152601d60248201527f657865637574655472616e73616374696f6e3a207478206661696c65640000006044820152606401610491565b337f01981a0759c7f7295b44ccbd200535e8a29744b41f8da48b42a35b8b4b8b04b68d8d610b7f60018c6117ec565b604080516001600160a01b0390941684526020840192909252908201526060810187905260800160405180910390a25f8c8c8c8c8c8c604051602401610bca969594939291906117ff565b60408051601f198184030181529181526020820180516001600160e01b031663013ce2e160e51b179052519091507fe7b1d94480f1359d5cb74f58b9c6ebc4ccca5c469de5135b8047cdc17e00b87d90610c2a9060019084908f9061185f565b60405180910390a160019d909c509a5050505050505050505050565b5f805f80610c548686610f13565b925092509250610c648282610f5c565b5090949350505050565b6001600160a01b0381165f908152600160205260408120805460ff19169055600554908167ffffffffffffffff811115610caa57610caa61121c565b604051908082528060200260200182016040528015610cd3578160200160208202803683370190505b5090505f610ce26001846117ec565b90505b836001600160a01b031660058281548110610d0257610d02611895565b5f918252602090912001546001600160a01b031614610db15760058181548110610d2e57610d2e611895565b905f5260205f20015f9054906101000a90046001600160a01b0316828281518110610d5b57610d5b611895565b60200260200101906001600160a01b031690816001600160a01b0316815250506005805480610d8c57610d8c6118a9565b5f8281526020902081015f1990810180546001600160a01b0319169055019055610e55565b6005805480610dc257610dc26118a9565b5f8281526020902081015f1990810180546001600160a01b0319169055019055805b610def6001856117ec565b811015610e4e576005838281518110610e0a57610e0a611895565b6020908102919091018101518254600180820185555f9485529290932090920180546001600160a01b0319166001600160a01b039093169290921790915501610de4565b5050505050565b80610e5f816118bd565b915050610ce5565b81336001600160a01b03821614610e905760405162461bcd60e51b8152600401610491906115e2565b815f8111610eb05760405162461bcd60e51b815260040161049190611604565b505060065550565b5f81604051602001610eca91906116cd565b604051602081830303815290604052805190602001209050919050565b5f80610ef284610eb8565b90505f610efe82611018565b9050610f0a8185611052565b95945050505050565b5f805f8351604103610f4a576020840151604085015160608601515f1a610f3c888285856110cc565b955095509550505050610f55565b505081515f91506002905b9250925092565b5f826003811115610f6f57610f6f6118d2565b03610f78575050565b6001826003811115610f8c57610f8c6118d2565b03610faa5760405163f645eedf60e01b815260040160405180910390fd5b6002826003811115610fbe57610fbe6118d2565b03610fdf5760405163fce698f760e01b815260048101829052602401610491565b6003826003811115610ff357610ff36118d2565b03611014576040516335e2f38360e21b815260048101829052602401610491565b5050565b6040517f19457468657265756d205369676e6564204d6573736167653a0a3332000000006020820152603c81018290525f90605c01610eca565b5f805f8061105f85611194565b604080515f8152602081018083528b905260ff8316918101919091526060810184905260808101839052929550909350915060019060a0016020604051602081039080840390855afa1580156110b7573d5f803e3d5ffd5b5050604051601f190151979650505050505050565b5f80807f7fffffffffffffffffffffffffffffff5d576e7357a4501ddfe92f46681b20a084111561110557505f9150600390508261118a565b604080515f808252602082018084528a905260ff891692820192909252606081018790526080810186905260019060a0016020604051602081039080840390855afa158015611156573d5f803e3d5ffd5b5050604051601f1901519150506001600160a01b03811661118157505f92506001915082905061118a565b92505f91508190505b9450945094915050565b5f805f83516041146111e85760405162461bcd60e51b815260206004820152601860248201527f696e76616c6964207369676e6174757265206c656e67746800000000000000006044820152606401610491565b5050506020810151604082015160609092015190925f9190911a90565b5f60208284031215611215575f80fd5b5035919050565b634e487b7160e01b5f52604160045260245ffd5b5f82601f83011261123f575f80fd5b813567ffffffffffffffff8082111561125a5761125a61121c565b604051601f8301601f19908116603f011681019082821181831017156112825761128261121c565b8160405283815286602085880101111561129a575f80fd5b836020870160208301375f602085830101528094505050505092915050565b5f602082840312156112c9575f80fd5b813567ffffffffffffffff8111156112df575f80fd5b6112eb84828501611230565b949350505050565b5f8060408385031215611304575f80fd5b82359150602083013567ffffffffffffffff811115611321575f80fd5b61132d85828601611230565b9150509250929050565b6001600160a01b038116811461134b575f80fd5b50565b5f805f60608486031215611360575f80fd5b833561136b81611337565b9250602084013561137b81611337565b929592945050506040919091013590565b5f6020828403121561139c575f80fd5b81356113a781611337565b9392505050565b5f805f606084860312156113c0575f80fd5b83359250602084013561137b81611337565b5f81518084528060208401602086015e5f602082860101526020601f19601f83011685010191505092915050565b602081525f61045f60208301846113d2565b5f805f8060808587031215611425575f80fd5b843567ffffffffffffffff81111561143b575f80fd5b61144787828801611230565b945050602085013561145881611337565b9250604085013561146881611337565b9396929550929360600135925050565b5f805f805f8060c0878903121561148d575f80fd5b863561149881611337565b955060208701359450604087013567ffffffffffffffff808211156114bb575f80fd5b6114c78a838b01611230565b955060608901359150808211156114dc575f80fd5b6114e88a838b01611230565b945060808901359150808211156114fd575f80fd5b5061150a89828a01611230565b92505060a087013590509295509295509295565b8215158152604060208201525f6112eb60408301846113d2565b600181811c9082168061154c57607f821691505b60208210810361156a57634e487b7160e01b5f52602260045260245ffd5b50919050565b5f80835461157d81611538565b6001828116801561159557600181146115aa576115d6565b60ff19841687528215158302870194506115d6565b875f526020805f205f5b858110156115cd5781548a8201529084019082016115b4565b50505082870194505b50929695505050505050565b6020808252600890820152672737ba1029b2b63360c11b604082015260600190565b6020808252601e908201527f4d757374206265206e6f6e2d7a65726f20736967732072657175697265640000604082015260600190565b5f6060820160018060a01b038087168452602060606020860152828754808552608087019150885f5260205f2094505f5b8181101561168a57855485168352600195860195928401920161166c565b505080945050505050826040830152949350505050565b634e487b7160e01b5f52601160045260245ffd5b5f600182016116c6576116c66116a1565b5060010190565b5f82518060208501845e5f920191825250919050565b601f82111561172757805f5260205f20601f840160051c810160208510156117085750805b601f840160051c820191505b81811015610e4e575f8155600101611714565b505050565b815167ffffffffffffffff8111156117465761174661121c565b61175a816117548454611538565b846116e3565b602080601f83116001811461178d575f84156117765750858301515b5f19600386901b1c1916600185901b1785556117e4565b5f85815260208120601f198616915b828110156117bb5788860151825594840194600190910190840161179c565b50858210156117d857878501515f19600388901b60f8161c191681555b505060018460011b0185555b505050505050565b81810381811115610462576104626116a1565b60018060a01b038716815285602082015260c060408201525f61182560c08301876113d2565b828103606084015261183781876113d2565b9050828103608084015261184b81866113d2565b9150508260a0830152979650505050505050565b8315158152606060208201525f61187960608301856113d2565b828103604084015261188b81856113d2565b9695505050505050565b634e487b7160e01b5f52603260045260245ffd5b634e487b7160e01b5f52603160045260245ffd5b5f816118cb576118cb6116a1565b505f190190565b634e487b7160e01b5f52602160045260245ffdfea2646970667358221220b2dd7fd16b06ee84e76166e4a7589ad3bd607aa7bd2e7030b3ea7308e2d263c264736f6c63430008190033",
					"opcodes": "PUSH1 0x80 PUSH1 0x40 MSTORE PUSH1 0x40 MLOAD PUSH2 0x1C8C CODESIZE SUB DUP1 PUSH2 0x1C8C DUP4 CODECOPY DUP2 ADD PUSH1 0x40 DUP2 SWAP1 MSTORE PUSH2 0x22 SWAP2 PUSH2 0x269 JUMP JUMPDEST DUP2 PUSH0 DUP2 GT PUSH2 0x77 JUMPI PUSH1 0x40 MLOAD PUSH3 0x461BCD PUSH1 0xE5 SHL DUP2 MSTORE PUSH1 0x20 PUSH1 0x4 DUP3 ADD MSTORE PUSH1 0x1E PUSH1 0x24 DUP3 ADD MSTORE PUSH32 0x4D757374206265206E6F6E2D7A65726F20736967732072657175697265640000 PUSH1 0x44 DUP3 ADD MSTORE PUSH1 0x64 ADD JUMPDEST PUSH1 0x40 MLOAD DUP1 SWAP2 SUB SWAP1 REVERT JUMPDEST PUSH0 DUP1 SLOAD PUSH1 0x1 PUSH1 0x1 PUSH1 0xA0 SHL SUB NOT AND PUSH1 0x1 PUSH1 0x1 PUSH1 0xA0 SHL SUB DUP5 AND OR DUP2 SSTORE PUSH1 0x6 DUP5 SWAP1 SSTORE JUMPDEST DUP5 MLOAD DUP2 LT ISZERO PUSH2 0x229 JUMPI PUSH0 DUP6 DUP3 DUP2 MLOAD DUP2 LT PUSH2 0xB3 JUMPI PUSH2 0xB3 PUSH2 0x34F JUMP JUMPDEST PUSH1 0x20 MUL PUSH1 0x20 ADD ADD MLOAD SWAP1 POP PUSH0 PUSH1 0x1 PUSH1 0x1 PUSH1 0xA0 SHL SUB AND DUP2 PUSH1 0x1 PUSH1 0x1 PUSH1 0xA0 SHL SUB AND SUB PUSH2 0x11E JUMPI PUSH1 0x40 MLOAD PUSH3 0x461BCD PUSH1 0xE5 SHL DUP2 MSTORE PUSH1 0x20 PUSH1 0x4 DUP3 ADD MSTORE PUSH1 0x19 PUSH1 0x24 DUP3 ADD MSTORE PUSH32 0x636F6E7374727563746F723A207A65726F206164647265737300000000000000 PUSH1 0x44 DUP3 ADD MSTORE PUSH1 0x64 ADD PUSH2 0x6E JUMP JUMPDEST PUSH1 0x1 PUSH1 0x1 PUSH1 0xA0 SHL SUB DUP2 AND PUSH0 SWAP1 DUP2 MSTORE PUSH1 0x1 PUSH1 0x20 MSTORE PUSH1 0x40 SWAP1 KECCAK256 SLOAD PUSH1 0xFF AND ISZERO PUSH2 0x186 JUMPI PUSH1 0x40 MLOAD PUSH3 0x461BCD PUSH1 0xE5 SHL DUP2 MSTORE PUSH1 0x20 PUSH1 0x4 DUP3 ADD MSTORE PUSH1 0x1D PUSH1 0x24 DUP3 ADD MSTORE PUSH32 0x636F6E7374727563746F723A206F776E6572206E6F7420756E69717565000000 PUSH1 0x44 DUP3 ADD MSTORE PUSH1 0x64 ADD PUSH2 0x6E JUMP JUMPDEST PUSH1 0x1 PUSH1 0x1 PUSH1 0xA0 SHL SUB DUP2 AND PUSH0 DUP2 DUP2 MSTORE PUSH1 0x1 PUSH1 0x20 DUP2 DUP2 MSTORE PUSH1 0x40 SWAP3 DUP4 SWAP1 KECCAK256 DUP1 SLOAD PUSH1 0xFF NOT AND DUP4 OR DUP2 SSTORE PUSH1 0x5 DUP1 SLOAD SWAP4 DUP5 ADD SWAP1 SSTORE PUSH32 0x36B6384B5ECA791C62761152D0C79BB0604C104A5FB6F4EB0703F3154BB3DB0 SWAP1 SWAP3 ADD DUP1 SLOAD PUSH1 0x1 PUSH1 0x1 PUSH1 0xA0 SHL SUB NOT AND DUP6 OR SWAP1 SSTORE SWAP1 SLOAD SWAP2 MLOAD PUSH1 0xFF SWAP1 SWAP3 AND ISZERO ISZERO DUP3 MSTORE PUSH32 0xFE545F48304051C4029EB2DA9927DAA59DA0414B4B084FDCEAF2955B609B899E SWAP2 ADD PUSH1 0x40 MLOAD DUP1 SWAP2 SUB SWAP1 LOG2 POP PUSH1 0x1 ADD PUSH2 0x97 JUMP JUMPDEST POP POP POP PUSH1 0x8 SWAP3 SWAP1 SWAP3 SSTORE POP PUSH2 0x363 SWAP1 POP JUMP JUMPDEST PUSH4 0x4E487B71 PUSH1 0xE0 SHL PUSH0 MSTORE PUSH1 0x41 PUSH1 0x4 MSTORE PUSH1 0x24 PUSH0 REVERT JUMPDEST DUP1 MLOAD PUSH1 0x1 PUSH1 0x1 PUSH1 0xA0 SHL SUB DUP2 AND DUP2 EQ PUSH2 0x264 JUMPI PUSH0 DUP1 REVERT JUMPDEST SWAP2 SWAP1 POP JUMP JUMPDEST PUSH0 DUP1 PUSH0 DUP1 PUSH1 0x80 DUP6 DUP8 SUB SLT ISZERO PUSH2 0x27C JUMPI PUSH0 DUP1 REVERT JUMPDEST DUP5 MLOAD PUSH1 0x20 DUP1 DUP8 ADD MLOAD SWAP2 SWAP6 POP SWAP1 PUSH1 0x1 PUSH1 0x1 PUSH1 0x40 SHL SUB DUP1 DUP3 GT ISZERO PUSH2 0x29C JUMPI PUSH0 DUP1 REVERT JUMPDEST DUP2 DUP9 ADD SWAP2 POP DUP9 PUSH1 0x1F DUP4 ADD SLT PUSH2 0x2AF JUMPI PUSH0 DUP1 REVERT JUMPDEST DUP2 MLOAD DUP2 DUP2 GT ISZERO PUSH2 0x2C1 JUMPI PUSH2 0x2C1 PUSH2 0x23A JUMP JUMPDEST DUP1 PUSH1 0x5 SHL PUSH1 0x40 MLOAD PUSH1 0x1F NOT PUSH1 0x3F DUP4 ADD AND DUP2 ADD DUP2 DUP2 LT DUP6 DUP3 GT OR ISZERO PUSH2 0x2E6 JUMPI PUSH2 0x2E6 PUSH2 0x23A JUMP JUMPDEST PUSH1 0x40 MSTORE SWAP2 DUP3 MSTORE DUP5 DUP3 ADD SWAP3 POP DUP4 DUP2 ADD DUP6 ADD SWAP2 DUP12 DUP4 GT ISZERO PUSH2 0x303 JUMPI PUSH0 DUP1 REVERT JUMPDEST SWAP4 DUP6 ADD SWAP4 JUMPDEST DUP3 DUP6 LT ISZERO PUSH2 0x328 JUMPI PUSH2 0x319 DUP6 PUSH2 0x24E JUMP JUMPDEST DUP5 MSTORE SWAP4 DUP6 ADD SWAP4 SWAP3 DUP6 ADD SWAP3 PUSH2 0x308 JUMP JUMPDEST DUP1 SWAP9 POP POP POP POP POP POP POP PUSH1 0x40 DUP6 ADD MLOAD SWAP2 POP PUSH2 0x344 PUSH1 0x60 DUP7 ADD PUSH2 0x24E JUMP JUMPDEST SWAP1 POP SWAP3 SWAP6 SWAP2 SWAP5 POP SWAP3 POP JUMP JUMPDEST PUSH4 0x4E487B71 PUSH1 0xE0 SHL PUSH0 MSTORE PUSH1 0x32 PUSH1 0x4 MSTORE PUSH1 0x24 PUSH0 REVERT JUMPDEST PUSH2 0x191C DUP1 PUSH2 0x370 PUSH0 CODECOPY PUSH0 RETURN INVALID PUSH1 0x80 PUSH1 0x40 MSTORE PUSH1 0x4 CALLDATASIZE LT PUSH2 0xF2 JUMPI PUSH0 CALLDATALOAD PUSH1 0xE0 SHR DUP1 PUSH4 0x7708072C GT PUSH2 0x87 JUMPI DUP1 PUSH4 0xA157B0AE GT PUSH2 0x57 JUMPI DUP1 PUSH4 0xA157B0AE EQ PUSH2 0x381 JUMPI DUP1 PUSH4 0xAFFED0E0 EQ PUSH2 0x3A0 JUMPI DUP1 PUSH4 0xCE757D29 EQ PUSH2 0x3B5 JUMPI DUP1 PUSH4 0xD17ECED3 EQ PUSH2 0x3CA JUMPI PUSH0 DUP1 REVERT JUMPDEST DUP1 PUSH4 0x7708072C EQ PUSH2 0x2EA JUMPI DUP1 PUSH4 0x7C72596E EQ PUSH2 0x316 JUMPI DUP1 PUSH4 0x95A3AC74 EQ PUSH2 0x34D JUMPI DUP1 PUSH4 0x9A8A0592 EQ PUSH2 0x36C JUMPI PUSH0 DUP1 REVERT JUMPDEST DUP1 PUSH4 0x1F919F77 GT PUSH2 0xC2 JUMPI DUP1 PUSH4 0x1F919F77 EQ PUSH2 0x1F6 JUMPI DUP1 PUSH4 0x2F54BF6E EQ PUSH2 0x217 JUMPI DUP1 PUSH4 0x3AAA4771 EQ PUSH2 0x255 JUMPI DUP1 PUSH4 0x627CDCB9 EQ PUSH2 0x2D6 JUMPI PUSH0 DUP1 REVERT JUMPDEST DUP1 PUSH4 0x19010F6 EQ PUSH2 0x137 JUMPI DUP1 PUSH4 0x25E7C27 EQ PUSH2 0x169 JUMPI DUP1 PUSH4 0x6A23E5F EQ PUSH2 0x1A0 JUMPI DUP1 PUSH4 0x19045A25 EQ PUSH2 0x1D7 JUMPI PUSH0 DUP1 REVERT JUMPDEST CALLDATASIZE PUSH2 0x133 JUMPI PUSH1 0x40 DUP1 MLOAD CALLVALUE DUP2 MSTORE SELFBALANCE PUSH1 0x20 DUP3 ADD MSTORE CALLER SWAP2 PUSH32 0x90890809C654F11D6E72A28FA60149770A0D11EC6C92319D6CEB2BB0A4EA1A15 SWAP2 ADD PUSH1 0x40 MLOAD DUP1 SWAP2 SUB SWAP1 LOG2 STOP JUMPDEST PUSH0 DUP1 REVERT JUMPDEST CALLVALUE DUP1 ISZERO PUSH2 0x142 JUMPI PUSH0 DUP1 REVERT JUMPDEST POP PUSH2 0x156 PUSH2 0x151 CALLDATASIZE PUSH1 0x4 PUSH2 0x1205 JUMP JUMPDEST PUSH2 0x3F7 JUMP JUMPDEST PUSH1 0x40 MLOAD SWAP1 DUP2 MSTORE PUSH1 0x20 ADD JUMPDEST PUSH1 0x40 MLOAD DUP1 SWAP2 SUB SWAP1 RETURN JUMPDEST CALLVALUE DUP1 ISZERO PUSH2 0x174 JUMPI PUSH0 DUP1 REVERT JUMPDEST POP PUSH2 0x188 PUSH2 0x183 CALLDATASIZE PUSH1 0x4 PUSH2 0x1205 JUMP JUMPDEST PUSH2 0x42C JUMP JUMPDEST PUSH1 0x40 MLOAD PUSH1 0x1 PUSH1 0x1 PUSH1 0xA0 SHL SUB SWAP1 SWAP2 AND DUP2 MSTORE PUSH1 0x20 ADD PUSH2 0x160 JUMP JUMPDEST CALLVALUE DUP1 ISZERO PUSH2 0x1AB JUMPI PUSH0 DUP1 REVERT JUMPDEST POP PUSH2 0x156 PUSH2 0x1BA CALLDATASIZE PUSH1 0x4 PUSH2 0x12B9 JUMP JUMPDEST DUP1 MLOAD PUSH1 0x20 DUP2 DUP4 ADD DUP2 ADD DUP1 MLOAD PUSH1 0x4 DUP3 MSTORE SWAP3 DUP3 ADD SWAP2 SWAP1 SWAP4 ADD KECCAK256 SWAP2 MSTORE SLOAD DUP2 JUMP JUMPDEST CALLVALUE DUP1 ISZERO PUSH2 0x1E2 JUMPI PUSH0 DUP1 REVERT JUMPDEST POP PUSH2 0x188 PUSH2 0x1F1 CALLDATASIZE PUSH1 0x4 PUSH2 0x12F3 JUMP JUMPDEST PUSH2 0x454 JUMP JUMPDEST CALLVALUE DUP1 ISZERO PUSH2 0x201 JUMPI PUSH0 DUP1 REVERT JUMPDEST POP PUSH2 0x215 PUSH2 0x210 CALLDATASIZE PUSH1 0x4 PUSH2 0x134E JUMP JUMPDEST PUSH2 0x468 JUMP JUMPDEST STOP JUMPDEST CALLVALUE DUP1 ISZERO PUSH2 0x222 JUMPI PUSH0 DUP1 REVERT JUMPDEST POP PUSH2 0x245 PUSH2 0x231 CALLDATASIZE PUSH1 0x4 PUSH2 0x138C JUMP JUMPDEST PUSH1 0x1 PUSH1 0x20 MSTORE PUSH0 SWAP1 DUP2 MSTORE PUSH1 0x40 SWAP1 KECCAK256 SLOAD PUSH1 0xFF AND DUP2 JUMP JUMPDEST PUSH1 0x40 MLOAD SWAP1 ISZERO ISZERO DUP2 MSTORE PUSH1 0x20 ADD PUSH2 0x160 JUMP JUMPDEST CALLVALUE DUP1 ISZERO PUSH2 0x260 JUMPI PUSH0 DUP1 REVERT JUMPDEST POP PUSH2 0x156 PUSH2 0x26F CALLDATASIZE PUSH1 0x4 PUSH2 0x13AE JUMP JUMPDEST PUSH1 0x8 SLOAD PUSH1 0x40 MLOAD PUSH12 0xFFFFFFFFFFFFFFFFFFFFFFFF NOT ADDRESS PUSH1 0x60 SWAP1 DUP2 SHL DUP3 AND PUSH1 0x20 DUP5 ADD MSTORE PUSH1 0x34 DUP4 ADD SWAP4 SWAP1 SWAP4 MSTORE PUSH1 0x54 DUP3 ADD DUP7 SWAP1 MSTORE SWAP2 DUP5 SWAP1 SHL SWAP1 SWAP2 AND PUSH1 0x74 DUP3 ADD MSTORE PUSH1 0x88 DUP2 ADD DUP3 SWAP1 MSTORE PUSH0 SWAP1 PUSH1 0xA8 ADD PUSH1 0x40 MLOAD PUSH1 0x20 DUP2 DUP4 SUB SUB DUP2 MSTORE SWAP1 PUSH1 0x40 MSTORE DUP1 MLOAD SWAP1 PUSH1 0x20 ADD KECCAK256 SWAP1 POP SWAP4 SWAP3 POP POP POP JUMP JUMPDEST CALLVALUE DUP1 ISZERO PUSH2 0x2E1 JUMPI PUSH0 DUP1 REVERT JUMPDEST POP PUSH2 0x156 PUSH2 0x5F3 JUMP JUMPDEST CALLVALUE DUP1 ISZERO PUSH2 0x2F5 JUMPI PUSH0 DUP1 REVERT JUMPDEST POP PUSH2 0x309 PUSH2 0x304 CALLDATASIZE PUSH1 0x4 PUSH2 0x1205 JUMP JUMPDEST PUSH2 0x610 JUMP JUMPDEST PUSH1 0x40 MLOAD PUSH2 0x160 SWAP2 SWAP1 PUSH2 0x1400 JUMP JUMPDEST CALLVALUE DUP1 ISZERO PUSH2 0x321 JUMPI PUSH0 DUP1 REVERT JUMPDEST POP PUSH2 0x156 PUSH2 0x330 CALLDATASIZE PUSH1 0x4 PUSH2 0x12B9 JUMP JUMPDEST DUP1 MLOAD PUSH1 0x20 DUP2 DUP4 ADD DUP2 ADD DUP1 MLOAD PUSH1 0x2 DUP3 MSTORE SWAP3 DUP3 ADD SWAP2 SWAP1 SWAP4 ADD KECCAK256 SWAP2 MSTORE SLOAD DUP2 JUMP JUMPDEST CALLVALUE DUP1 ISZERO PUSH2 0x358 JUMPI PUSH0 DUP1 REVERT JUMPDEST POP PUSH2 0x215 PUSH2 0x367 CALLDATASIZE PUSH1 0x4 PUSH2 0x134E JUMP JUMPDEST PUSH2 0x6A7 JUMP JUMPDEST CALLVALUE DUP1 ISZERO PUSH2 0x377 JUMPI PUSH0 DUP1 REVERT JUMPDEST POP PUSH2 0x156 PUSH1 0x8 SLOAD DUP2 JUMP JUMPDEST CALLVALUE DUP1 ISZERO PUSH2 0x38C JUMPI PUSH0 DUP1 REVERT JUMPDEST POP PUSH2 0x309 PUSH2 0x39B CALLDATASIZE PUSH1 0x4 PUSH2 0x1412 JUMP JUMPDEST PUSH2 0x869 JUMP JUMPDEST CALLVALUE DUP1 ISZERO PUSH2 0x3AB JUMPI PUSH0 DUP1 REVERT JUMPDEST POP PUSH2 0x156 PUSH1 0x7 SLOAD DUP2 JUMP JUMPDEST CALLVALUE DUP1 ISZERO PUSH2 0x3C0 JUMPI PUSH0 DUP1 REVERT JUMPDEST POP PUSH2 0x156 PUSH1 0x6 SLOAD DUP2 JUMP JUMPDEST CALLVALUE DUP1 ISZERO PUSH2 0x3D5 JUMPI PUSH0 DUP1 REVERT JUMPDEST POP PUSH2 0x3E9 PUSH2 0x3E4 CALLDATASIZE PUSH1 0x4 PUSH2 0x1478 JUMP JUMPDEST PUSH2 0x8E1 JUMP JUMPDEST PUSH1 0x40 MLOAD PUSH2 0x160 SWAP3 SWAP2 SWAP1 PUSH2 0x151E JUMP JUMPDEST PUSH1 0x7 SLOAD PUSH0 SWAP1 DUP2 MSTORE PUSH1 0x3 PUSH1 0x20 MSTORE PUSH1 0x40 DUP1 DUP3 KECCAK256 SWAP1 MLOAD PUSH1 0x2 SWAP2 PUSH2 0x416 SWAP2 PUSH2 0x1570 JUMP JUMPDEST SWAP1 DUP2 MSTORE PUSH1 0x20 ADD PUSH1 0x40 MLOAD DUP1 SWAP2 SUB SWAP1 KECCAK256 SLOAD SWAP1 POP SWAP2 SWAP1 POP JUMP JUMPDEST PUSH1 0x5 DUP2 DUP2 SLOAD DUP2 LT PUSH2 0x43B JUMPI PUSH0 DUP1 REVERT JUMPDEST PUSH0 SWAP2 DUP3 MSTORE PUSH1 0x20 SWAP1 SWAP2 KECCAK256 ADD SLOAD PUSH1 0x1 PUSH1 0x1 PUSH1 0xA0 SHL SUB AND SWAP1 POP DUP2 JUMP JUMPDEST PUSH0 PUSH2 0x45F DUP4 DUP4 PUSH2 0xC46 JUMP JUMPDEST SWAP1 POP JUMPDEST SWAP3 SWAP2 POP POP JUMP JUMPDEST DUP3 CALLER PUSH1 0x1 PUSH1 0x1 PUSH1 0xA0 SHL SUB DUP3 AND EQ PUSH2 0x49A JUMPI PUSH1 0x40 MLOAD PUSH3 0x461BCD PUSH1 0xE5 SHL DUP2 MSTORE PUSH1 0x4 ADD PUSH2 0x491 SWAP1 PUSH2 0x15E2 JUMP JUMPDEST PUSH1 0x40 MLOAD DUP1 SWAP2 SUB SWAP1 REVERT JUMPDEST DUP2 PUSH0 DUP2 GT PUSH2 0x4BA JUMPI PUSH1 0x40 MLOAD PUSH3 0x461BCD PUSH1 0xE5 SHL DUP2 MSTORE PUSH1 0x4 ADD PUSH2 0x491 SWAP1 PUSH2 0x1604 JUMP JUMPDEST PUSH1 0x1 PUSH1 0x1 PUSH1 0xA0 SHL SUB DUP5 AND PUSH0 SWAP1 DUP2 MSTORE PUSH1 0x1 PUSH1 0x20 MSTORE PUSH1 0x40 SWAP1 KECCAK256 SLOAD PUSH1 0xFF AND PUSH2 0x521 JUMPI PUSH1 0x40 MLOAD PUSH3 0x461BCD PUSH1 0xE5 SHL DUP2 MSTORE PUSH1 0x20 PUSH1 0x4 DUP3 ADD MSTORE PUSH1 0x17 PUSH1 0x24 DUP3 ADD MSTORE PUSH32 0x72656D6F76655369676E65723A206E6F74206F776E6572000000000000000000 PUSH1 0x44 DUP3 ADD MSTORE PUSH1 0x64 ADD PUSH2 0x491 JUMP JUMPDEST PUSH2 0x52A DUP5 PUSH2 0xC6E JUMP JUMPDEST PUSH1 0x6 DUP4 SWAP1 SSTORE PUSH2 0x539 DUP6 DUP5 PUSH2 0xE67 JUMP JUMPDEST PUSH1 0x1 PUSH1 0x1 PUSH1 0xA0 SHL SUB DUP5 AND PUSH0 DUP2 DUP2 MSTORE PUSH1 0x1 PUSH1 0x20 SWAP1 DUP2 MSTORE PUSH1 0x40 SWAP2 DUP3 SWAP1 KECCAK256 SLOAD SWAP2 MLOAD PUSH1 0xFF SWAP1 SWAP3 AND ISZERO ISZERO DUP3 MSTORE PUSH32 0xFE545F48304051C4029EB2DA9927DAA59DA0414B4B084FDCEAF2955B609B899E SWAP2 ADD PUSH1 0x40 MLOAD DUP1 SWAP2 SUB SWAP1 LOG2 PUSH0 SLOAD PUSH1 0x40 MLOAD PUSH4 0x2FB7D0A5 PUSH1 0xE2 SHL DUP2 MSTORE PUSH1 0x1 PUSH1 0x1 PUSH1 0xA0 SHL SUB SWAP1 SWAP2 AND SWAP1 PUSH4 0xBEDF4294 SWAP1 PUSH2 0x5BF SWAP1 ADDRESS SWAP1 PUSH1 0x5 SWAP1 DUP9 SWAP1 PUSH1 0x4 ADD PUSH2 0x163B JUMP JUMPDEST PUSH0 PUSH1 0x40 MLOAD DUP1 DUP4 SUB DUP2 PUSH0 DUP8 DUP1 EXTCODESIZE ISZERO DUP1 ISZERO PUSH2 0x5D6 JUMPI PUSH0 DUP1 REVERT JUMPDEST POP GAS CALL ISZERO DUP1 ISZERO PUSH2 0x5E8 JUMPI RETURNDATASIZE PUSH0 DUP1 RETURNDATACOPY RETURNDATASIZE PUSH0 REVERT JUMPDEST POP POP POP POP POP POP POP POP POP JUMP JUMPDEST PUSH1 0x7 DUP1 SLOAD PUSH0 SWAP2 DUP3 PUSH2 0x603 DUP4 PUSH2 0x16B5 JUMP JUMPDEST SWAP2 SWAP1 POP SSTORE POP PUSH1 0x7 SLOAD SWAP1 POP SWAP1 JUMP JUMPDEST PUSH1 0x3 PUSH1 0x20 MSTORE PUSH0 SWAP1 DUP2 MSTORE PUSH1 0x40 SWAP1 KECCAK256 DUP1 SLOAD PUSH2 0x628 SWAP1 PUSH2 0x1538 JUMP JUMPDEST DUP1 PUSH1 0x1F ADD PUSH1 0x20 DUP1 SWAP2 DIV MUL PUSH1 0x20 ADD PUSH1 0x40 MLOAD SWAP1 DUP2 ADD PUSH1 0x40 MSTORE DUP1 SWAP3 SWAP2 SWAP1 DUP2 DUP2 MSTORE PUSH1 0x20 ADD DUP3 DUP1 SLOAD PUSH2 0x654 SWAP1 PUSH2 0x1538 JUMP JUMPDEST DUP1 ISZERO PUSH2 0x69F JUMPI DUP1 PUSH1 0x1F LT PUSH2 0x676 JUMPI PUSH2 0x100 DUP1 DUP4 SLOAD DIV MUL DUP4 MSTORE SWAP2 PUSH1 0x20 ADD SWAP2 PUSH2 0x69F JUMP JUMPDEST DUP3 ADD SWAP2 SWAP1 PUSH0 MSTORE PUSH1 0x20 PUSH0 KECCAK256 SWAP1 JUMPDEST DUP2 SLOAD DUP2 MSTORE SWAP1 PUSH1 0x1 ADD SWAP1 PUSH1 0x20 ADD DUP1 DUP4 GT PUSH2 0x682 JUMPI DUP3 SWAP1 SUB PUSH1 0x1F AND DUP3 ADD SWAP2 JUMPDEST POP POP POP POP POP DUP2 JUMP JUMPDEST DUP3 CALLER PUSH1 0x1 PUSH1 0x1 PUSH1 0xA0 SHL SUB DUP3 AND EQ PUSH2 0x6D0 JUMPI PUSH1 0x40 MLOAD PUSH3 0x461BCD PUSH1 0xE5 SHL DUP2 MSTORE PUSH1 0x4 ADD PUSH2 0x491 SWAP1 PUSH2 0x15E2 JUMP JUMPDEST CALLER PUSH0 SWAP1 DUP2 MSTORE PUSH1 0x1 PUSH1 0x20 MSTORE PUSH1 0x40 SWAP1 KECCAK256 SLOAD PUSH1 0xFF AND PUSH2 0x71A JUMPI PUSH1 0x40 MLOAD PUSH3 0x461BCD PUSH1 0xE5 SHL DUP2 MSTORE PUSH1 0x20 PUSH1 0x4 DUP3 ADD MSTORE PUSH1 0x9 PUSH1 0x24 DUP3 ADD MSTORE PUSH9 0x2737BA1037BBB732B9 PUSH1 0xB9 SHL PUSH1 0x44 DUP3 ADD MSTORE PUSH1 0x64 ADD PUSH2 0x491 JUMP JUMPDEST DUP2 PUSH0 DUP2 GT PUSH2 0x73A JUMPI PUSH1 0x40 MLOAD PUSH3 0x461BCD PUSH1 0xE5 SHL DUP2 MSTORE PUSH1 0x4 ADD PUSH2 0x491 SWAP1 PUSH2 0x1604 JUMP JUMPDEST PUSH1 0x1 PUSH1 0x1 PUSH1 0xA0 SHL SUB DUP5 AND PUSH2 0x790 JUMPI PUSH1 0x40 MLOAD PUSH3 0x461BCD PUSH1 0xE5 SHL DUP2 MSTORE PUSH1 0x20 PUSH1 0x4 DUP3 ADD MSTORE PUSH1 0x17 PUSH1 0x24 DUP3 ADD MSTORE PUSH32 0x6164645369676E65723A207A65726F2061646472657373000000000000000000 PUSH1 0x44 DUP3 ADD MSTORE PUSH1 0x64 ADD PUSH2 0x491 JUMP JUMPDEST PUSH1 0x1 PUSH1 0x1 PUSH1 0xA0 SHL SUB DUP5 AND PUSH0 SWAP1 DUP2 MSTORE PUSH1 0x1 PUSH1 0x20 MSTORE PUSH1 0x40 SWAP1 KECCAK256 SLOAD PUSH1 0xFF AND ISZERO PUSH2 0x7F8 JUMPI PUSH1 0x40 MLOAD PUSH3 0x461BCD PUSH1 0xE5 SHL DUP2 MSTORE PUSH1 0x20 PUSH1 0x4 DUP3 ADD MSTORE PUSH1 0x1B PUSH1 0x24 DUP3 ADD MSTORE PUSH32 0x6164645369676E65723A206F776E6572206E6F7420756E697175650000000000 PUSH1 0x44 DUP3 ADD MSTORE PUSH1 0x64 ADD PUSH2 0x491 JUMP JUMPDEST PUSH1 0x1 PUSH1 0x1 PUSH1 0xA0 SHL SUB DUP5 AND PUSH0 DUP2 DUP2 MSTORE PUSH1 0x1 PUSH1 0x20 DUP2 SWAP1 MSTORE PUSH1 0x40 DUP3 KECCAK256 DUP1 SLOAD PUSH1 0xFF NOT AND DUP3 OR SWAP1 SSTORE PUSH1 0x5 DUP1 SLOAD SWAP2 DUP3 ADD DUP2 SSTORE SWAP1 SWAP2 MSTORE PUSH32 0x36B6384B5ECA791C62761152D0C79BB0604C104A5FB6F4EB0703F3154BB3DB0 ADD DUP1 SLOAD PUSH1 0x1 PUSH1 0x1 PUSH1 0xA0 SHL SUB NOT AND SWAP1 SWAP2 OR SWAP1 SSTORE PUSH1 0x6 DUP4 SWAP1 SSTORE PUSH2 0x539 DUP6 DUP5 PUSH2 0xE67 JUMP JUMPDEST PUSH1 0x40 MLOAD PUSH1 0x1 PUSH1 0x1 PUSH1 0xA0 SHL SUB DUP1 DUP6 AND PUSH1 0x24 DUP4 ADD MSTORE DUP4 AND PUSH1 0x44 DUP3 ADD MSTORE PUSH1 0x64 DUP2 ADD DUP3 SWAP1 MSTORE PUSH1 0x60 SWAP1 DUP6 SWAP1 PUSH1 0x84 ADD PUSH1 0x40 DUP1 MLOAD PUSH1 0x1F NOT DUP2 DUP5 SUB ADD DUP2 MSTORE SWAP1 DUP3 SWAP1 MSTORE SWAP2 PUSH2 0x8AD SWAP2 PUSH2 0x16CD JUMP JUMPDEST PUSH1 0x40 MLOAD SWAP1 DUP2 SWAP1 SUB SWAP1 KECCAK256 PUSH1 0x20 DUP3 ADD DUP1 MLOAD PUSH1 0x1 PUSH1 0x1 PUSH1 0xE0 SHL SUB AND PUSH1 0x1 PUSH1 0x1 PUSH1 0xE0 SHL SUB NOT SWAP1 SWAP3 AND SWAP2 SWAP1 SWAP2 OR SWAP1 MSTORE SWAP1 POP SWAP5 SWAP4 POP POP POP POP JUMP JUMPDEST CALLER PUSH0 SWAP1 DUP2 MSTORE PUSH1 0x1 PUSH1 0x20 MSTORE PUSH1 0x40 DUP2 KECCAK256 SLOAD PUSH1 0x60 SWAP1 PUSH1 0xFF AND PUSH2 0x92E JUMPI PUSH1 0x40 MLOAD PUSH3 0x461BCD PUSH1 0xE5 SHL DUP2 MSTORE PUSH1 0x20 PUSH1 0x4 DUP3 ADD MSTORE PUSH1 0x9 PUSH1 0x24 DUP3 ADD MSTORE PUSH9 0x2737BA1037BBB732B9 PUSH1 0xB9 SHL PUSH1 0x44 DUP3 ADD MSTORE PUSH1 0x64 ADD PUSH2 0x491 JUMP JUMPDEST PUSH0 PUSH2 0x938 DUP7 PUSH2 0xEB8 JUMP JUMPDEST SWAP1 POP PUSH0 DUP1 PUSH2 0x946 DUP9 DUP11 PUSH2 0xEE7 JUMP JUMPDEST SWAP1 POP DUP2 PUSH1 0x1 PUSH1 0x1 PUSH1 0xA0 SHL SUB AND DUP2 PUSH1 0x1 PUSH1 0x1 PUSH1 0xA0 SHL SUB AND GT PUSH2 0x9C7 JUMPI PUSH1 0x40 MLOAD PUSH3 0x461BCD PUSH1 0xE5 SHL DUP2 MSTORE PUSH1 0x20 PUSH1 0x4 DUP3 ADD MSTORE PUSH1 0x35 PUSH1 0x24 DUP3 ADD MSTORE PUSH32 0x657865637574655472616E73616374696F6E3A206475706C6963617465206F72 PUSH1 0x44 DUP3 ADD MSTORE PUSH21 0x20756E6F726465726564207369676E617475726573 PUSH1 0x58 SHL PUSH1 0x64 DUP3 ADD MSTORE PUSH1 0x84 ADD PUSH2 0x491 JUMP JUMPDEST PUSH1 0x1 PUSH1 0x1 PUSH1 0xA0 SHL SUB DUP2 AND PUSH0 SWAP1 DUP2 MSTORE PUSH1 0x1 PUSH1 0x20 MSTORE PUSH1 0x40 DUP2 KECCAK256 SLOAD SWAP2 SWAP3 POP DUP3 SWAP2 PUSH1 0xFF AND ISZERO PUSH2 0xA7B JUMPI PUSH1 0x4 DUP9 PUSH1 0x40 MLOAD PUSH2 0x9FC SWAP2 SWAP1 PUSH2 0x16CD JUMP JUMPDEST SWAP1 DUP2 MSTORE PUSH1 0x40 MLOAD SWAP1 DUP2 SWAP1 SUB PUSH1 0x20 ADD SWAP1 KECCAK256 DUP1 SLOAD SWAP1 PUSH0 PUSH2 0xA18 DUP4 PUSH2 0x16B5 JUMP JUMPDEST SWAP2 SWAP1 POP SSTORE POP PUSH1 0x4 DUP9 PUSH1 0x40 MLOAD PUSH2 0xA2D SWAP2 SWAP1 PUSH2 0x16CD JUMP JUMPDEST SWAP1 DUP2 MSTORE PUSH1 0x20 ADD PUSH1 0x40 MLOAD DUP1 SWAP2 SUB SWAP1 KECCAK256 SLOAD PUSH1 0x2 DUP10 PUSH1 0x40 MLOAD PUSH2 0xA4C SWAP2 SWAP1 PUSH2 0x16CD JUMP JUMPDEST SWAP1 DUP2 MSTORE PUSH1 0x40 DUP1 MLOAD PUSH1 0x20 SWAP3 DUP2 SWAP1 SUB DUP4 ADD SWAP1 KECCAK256 SWAP3 SWAP1 SWAP3 SSTORE PUSH0 DUP10 DUP2 MSTORE PUSH1 0x3 SWAP1 SWAP2 MSTORE KECCAK256 PUSH2 0xA75 DUP10 DUP3 PUSH2 0x172C JUMP JUMPDEST POP PUSH1 0x1 SWAP1 POP JUMPDEST PUSH1 0x6 SLOAD PUSH1 0x4 DUP10 PUSH1 0x40 MLOAD PUSH2 0xA8E SWAP2 SWAP1 PUSH2 0x16CD JUMP JUMPDEST SWAP1 DUP2 MSTORE PUSH1 0x20 ADD PUSH1 0x40 MLOAD DUP1 SWAP2 SUB SWAP1 KECCAK256 SLOAD LT ISZERO PUSH2 0xB03 JUMPI PUSH1 0x40 MLOAD PUSH3 0x461BCD PUSH1 0xE5 SHL DUP2 MSTORE PUSH1 0x20 PUSH1 0x4 DUP3 ADD MSTORE PUSH1 0x2F PUSH1 0x24 DUP3 ADD MSTORE PUSH32 0x657865637574655472616E73616374696F6E3A206E6F7420656E6F7567682076 PUSH1 0x44 DUP3 ADD MSTORE PUSH15 0x616C6964207369676E617475726573 PUSH1 0x88 SHL PUSH1 0x64 DUP3 ADD MSTORE PUSH1 0x84 ADD PUSH2 0x491 JUMP JUMPDEST DUP1 PUSH2 0xB50 JUMPI PUSH1 0x40 MLOAD PUSH3 0x461BCD PUSH1 0xE5 SHL DUP2 MSTORE PUSH1 0x20 PUSH1 0x4 DUP3 ADD MSTORE PUSH1 0x1D PUSH1 0x24 DUP3 ADD MSTORE PUSH32 0x657865637574655472616E73616374696F6E3A207478206661696C6564000000 PUSH1 0x44 DUP3 ADD MSTORE PUSH1 0x64 ADD PUSH2 0x491 JUMP JUMPDEST CALLER PUSH32 0x1981A0759C7F7295B44CCBD200535E8A29744B41F8DA48B42A35B8B4B8B04B6 DUP14 DUP14 PUSH2 0xB7F PUSH1 0x1 DUP13 PUSH2 0x17EC JUMP JUMPDEST PUSH1 0x40 DUP1 MLOAD PUSH1 0x1 PUSH1 0x1 PUSH1 0xA0 SHL SUB SWAP1 SWAP5 AND DUP5 MSTORE PUSH1 0x20 DUP5 ADD SWAP3 SWAP1 SWAP3 MSTORE SWAP1 DUP3 ADD MSTORE PUSH1 0x60 DUP2 ADD DUP8 SWAP1 MSTORE PUSH1 0x80 ADD PUSH1 0x40 MLOAD DUP1 SWAP2 SUB SWAP1 LOG2 PUSH0 DUP13 DUP13 DUP13 DUP13 DUP13 DUP13 PUSH1 0x40 MLOAD PUSH1 0x24 ADD PUSH2 0xBCA SWAP7 SWAP6 SWAP5 SWAP4 SWAP3 SWAP2 SWAP1 PUSH2 0x17FF JUMP JUMPDEST PUSH1 0x40 DUP1 MLOAD PUSH1 0x1F NOT DUP2 DUP5 SUB ADD DUP2 MSTORE SWAP2 DUP2 MSTORE PUSH1 0x20 DUP3 ADD DUP1 MLOAD PUSH1 0x1 PUSH1 0x1 PUSH1 0xE0 SHL SUB AND PUSH4 0x13CE2E1 PUSH1 0xE5 SHL OR SWAP1 MSTORE MLOAD SWAP1 SWAP2 POP PUSH32 0xE7B1D94480F1359D5CB74F58B9C6EBC4CCCA5C469DE5135B8047CDC17E00B87D SWAP1 PUSH2 0xC2A SWAP1 PUSH1 0x1 SWAP1 DUP5 SWAP1 DUP16 SWAP1 PUSH2 0x185F JUMP JUMPDEST PUSH1 0x40 MLOAD DUP1 SWAP2 SUB SWAP1 LOG1 PUSH1 0x1 SWAP14 SWAP1 SWAP13 POP SWAP11 POP POP POP POP POP POP POP POP POP POP POP JUMP JUMPDEST PUSH0 DUP1 PUSH0 DUP1 PUSH2 0xC54 DUP7 DUP7 PUSH2 0xF13 JUMP JUMPDEST SWAP3 POP SWAP3 POP SWAP3 POP PUSH2 0xC64 DUP3 DUP3 PUSH2 0xF5C JUMP JUMPDEST POP SWAP1 SWAP5 SWAP4 POP POP POP POP JUMP JUMPDEST PUSH1 0x1 PUSH1 0x1 PUSH1 0xA0 SHL SUB DUP2 AND PUSH0 SWAP1 DUP2 MSTORE PUSH1 0x1 PUSH1 0x20 MSTORE PUSH1 0x40 DUP2 KECCAK256 DUP1 SLOAD PUSH1 0xFF NOT AND SWAP1 SSTORE PUSH1 0x5 SLOAD SWAP1 DUP2 PUSH8 0xFFFFFFFFFFFFFFFF DUP2 GT ISZERO PUSH2 0xCAA JUMPI PUSH2 0xCAA PUSH2 0x121C JUMP JUMPDEST PUSH1 0x40 MLOAD SWAP1 DUP1 DUP3 MSTORE DUP1 PUSH1 0x20 MUL PUSH1 0x20 ADD DUP3 ADD PUSH1 0x40 MSTORE DUP1 ISZERO PUSH2 0xCD3 JUMPI DUP2 PUSH1 0x20 ADD PUSH1 0x20 DUP3 MUL DUP1 CALLDATASIZE DUP4 CALLDATACOPY ADD SWAP1 POP JUMPDEST POP SWAP1 POP PUSH0 PUSH2 0xCE2 PUSH1 0x1 DUP5 PUSH2 0x17EC JUMP JUMPDEST SWAP1 POP JUMPDEST DUP4 PUSH1 0x1 PUSH1 0x1 PUSH1 0xA0 SHL SUB AND PUSH1 0x5 DUP3 DUP2 SLOAD DUP2 LT PUSH2 0xD02 JUMPI PUSH2 0xD02 PUSH2 0x1895 JUMP JUMPDEST PUSH0 SWAP2 DUP3 MSTORE PUSH1 0x20 SWAP1 SWAP2 KECCAK256 ADD SLOAD PUSH1 0x1 PUSH1 0x1 PUSH1 0xA0 SHL SUB AND EQ PUSH2 0xDB1 JUMPI PUSH1 0x5 DUP2 DUP2 SLOAD DUP2 LT PUSH2 0xD2E JUMPI PUSH2 0xD2E PUSH2 0x1895 JUMP JUMPDEST SWAP1 PUSH0 MSTORE PUSH1 0x20 PUSH0 KECCAK256 ADD PUSH0 SWAP1 SLOAD SWAP1 PUSH2 0x100 EXP SWAP1 DIV PUSH1 0x1 PUSH1 0x1 PUSH1 0xA0 SHL SUB AND DUP3 DUP3 DUP2 MLOAD DUP2 LT PUSH2 0xD5B JUMPI PUSH2 0xD5B PUSH2 0x1895 JUMP JUMPDEST PUSH1 0x20 MUL PUSH1 0x20 ADD ADD SWAP1 PUSH1 0x1 PUSH1 0x1 PUSH1 0xA0 SHL SUB AND SWAP1 DUP2 PUSH1 0x1 PUSH1 0x1 PUSH1 0xA0 SHL SUB AND DUP2 MSTORE POP POP PUSH1 0x5 DUP1 SLOAD DUP1 PUSH2 0xD8C JUMPI PUSH2 0xD8C PUSH2 0x18A9 JUMP JUMPDEST PUSH0 DUP3 DUP2 MSTORE PUSH1 0x20 SWAP1 KECCAK256 DUP2 ADD PUSH0 NOT SWAP1 DUP2 ADD DUP1 SLOAD PUSH1 0x1 PUSH1 0x1 PUSH1 0xA0 SHL SUB NOT AND SWAP1 SSTORE ADD SWAP1 SSTORE PUSH2 0xE55 JUMP JUMPDEST PUSH1 0x5 DUP1 SLOAD DUP1 PUSH2 0xDC2 JUMPI PUSH2 0xDC2 PUSH2 0x18A9 JUMP JUMPDEST PUSH0 DUP3 DUP2 MSTORE PUSH1 0x20 SWAP1 KECCAK256 DUP2 ADD PUSH0 NOT SWAP1 DUP2 ADD DUP1 SLOAD PUSH1 0x1 PUSH1 0x1 PUSH1 0xA0 SHL SUB NOT AND SWAP1 SSTORE ADD SWAP1 SSTORE DUP1 JUMPDEST PUSH2 0xDEF PUSH1 0x1 DUP6 PUSH2 0x17EC JUMP JUMPDEST DUP2 LT ISZERO PUSH2 0xE4E JUMPI PUSH1 0x5 DUP4 DUP3 DUP2 MLOAD DUP2 LT PUSH2 0xE0A JUMPI PUSH2 0xE0A PUSH2 0x1895 JUMP JUMPDEST PUSH1 0x20 SWAP1 DUP2 MUL SWAP2 SWAP1 SWAP2 ADD DUP2 ADD MLOAD DUP3 SLOAD PUSH1 0x1 DUP1 DUP3 ADD DUP6 SSTORE PUSH0 SWAP5 DUP6 MSTORE SWAP3 SWAP1 SWAP4 KECCAK256 SWAP1 SWAP3 ADD DUP1 SLOAD PUSH1 0x1 PUSH1 0x1 PUSH1 0xA0 SHL SUB NOT AND PUSH1 0x1 PUSH1 0x1 PUSH1 0xA0 SHL SUB SWAP1 SWAP4 AND SWAP3 SWAP1 SWAP3 OR SWAP1 SWAP2 SSTORE ADD PUSH2 0xDE4 JUMP JUMPDEST POP POP POP POP POP JUMP JUMPDEST DUP1 PUSH2 0xE5F DUP2 PUSH2 0x18BD JUMP JUMPDEST SWAP2 POP POP PUSH2 0xCE5 JUMP JUMPDEST DUP2 CALLER PUSH1 0x1 PUSH1 0x1 PUSH1 0xA0 SHL SUB DUP3 AND EQ PUSH2 0xE90 JUMPI PUSH1 0x40 MLOAD PUSH3 0x461BCD PUSH1 0xE5 SHL DUP2 MSTORE PUSH1 0x4 ADD PUSH2 0x491 SWAP1 PUSH2 0x15E2 JUMP JUMPDEST DUP2 PUSH0 DUP2 GT PUSH2 0xEB0 JUMPI PUSH1 0x40 MLOAD PUSH3 0x461BCD PUSH1 0xE5 SHL DUP2 MSTORE PUSH1 0x4 ADD PUSH2 0x491 SWAP1 PUSH2 0x1604 JUMP JUMPDEST POP POP PUSH1 0x6 SSTORE POP JUMP JUMPDEST PUSH0 DUP2 PUSH1 0x40 MLOAD PUSH1 0x20 ADD PUSH2 0xECA SWAP2 SWAP1 PUSH2 0x16CD JUMP JUMPDEST PUSH1 0x40 MLOAD PUSH1 0x20 DUP2 DUP4 SUB SUB DUP2 MSTORE SWAP1 PUSH1 0x40 MSTORE DUP1 MLOAD SWAP1 PUSH1 0x20 ADD KECCAK256 SWAP1 POP SWAP2 SWAP1 POP JUMP JUMPDEST PUSH0 DUP1 PUSH2 0xEF2 DUP5 PUSH2 0xEB8 JUMP JUMPDEST SWAP1 POP PUSH0 PUSH2 0xEFE DUP3 PUSH2 0x1018 JUMP JUMPDEST SWAP1 POP PUSH2 0xF0A DUP2 DUP6 PUSH2 0x1052 JUMP JUMPDEST SWAP6 SWAP5 POP POP POP POP POP JUMP JUMPDEST PUSH0 DUP1 PUSH0 DUP4 MLOAD PUSH1 0x41 SUB PUSH2 0xF4A JUMPI PUSH1 0x20 DUP5 ADD MLOAD PUSH1 0x40 DUP6 ADD MLOAD PUSH1 0x60 DUP7 ADD MLOAD PUSH0 BYTE PUSH2 0xF3C DUP9 DUP3 DUP6 DUP6 PUSH2 0x10CC JUMP JUMPDEST SWAP6 POP SWAP6 POP SWAP6 POP POP POP POP PUSH2 0xF55 JUMP JUMPDEST POP POP DUP2 MLOAD PUSH0 SWAP2 POP PUSH1 0x2 SWAP1 JUMPDEST SWAP3 POP SWAP3 POP SWAP3 JUMP JUMPDEST PUSH0 DUP3 PUSH1 0x3 DUP2 GT ISZERO PUSH2 0xF6F JUMPI PUSH2 0xF6F PUSH2 0x18D2 JUMP JUMPDEST SUB PUSH2 0xF78 JUMPI POP POP JUMP JUMPDEST PUSH1 0x1 DUP3 PUSH1 0x3 DUP2 GT ISZERO PUSH2 0xF8C JUMPI PUSH2 0xF8C PUSH2 0x18D2 JUMP JUMPDEST SUB PUSH2 0xFAA JUMPI PUSH1 0x40 MLOAD PUSH4 0xF645EEDF PUSH1 0xE0 SHL DUP2 MSTORE PUSH1 0x4 ADD PUSH1 0x40 MLOAD DUP1 SWAP2 SUB SWAP1 REVERT JUMPDEST PUSH1 0x2 DUP3 PUSH1 0x3 DUP2 GT ISZERO PUSH2 0xFBE JUMPI PUSH2 0xFBE PUSH2 0x18D2 JUMP JUMPDEST SUB PUSH2 0xFDF JUMPI PUSH1 0x40 MLOAD PUSH4 0xFCE698F7 PUSH1 0xE0 SHL DUP2 MSTORE PUSH1 0x4 DUP2 ADD DUP3 SWAP1 MSTORE PUSH1 0x24 ADD PUSH2 0x491 JUMP JUMPDEST PUSH1 0x3 DUP3 PUSH1 0x3 DUP2 GT ISZERO PUSH2 0xFF3 JUMPI PUSH2 0xFF3 PUSH2 0x18D2 JUMP JUMPDEST SUB PUSH2 0x1014 JUMPI PUSH1 0x40 MLOAD PUSH4 0x35E2F383 PUSH1 0xE2 SHL DUP2 MSTORE PUSH1 0x4 DUP2 ADD DUP3 SWAP1 MSTORE PUSH1 0x24 ADD PUSH2 0x491 JUMP JUMPDEST POP POP JUMP JUMPDEST PUSH1 0x40 MLOAD PUSH32 0x19457468657265756D205369676E6564204D6573736167653A0A333200000000 PUSH1 0x20 DUP3 ADD MSTORE PUSH1 0x3C DUP2 ADD DUP3 SWAP1 MSTORE PUSH0 SWAP1 PUSH1 0x5C ADD PUSH2 0xECA JUMP JUMPDEST PUSH0 DUP1 PUSH0 DUP1 PUSH2 0x105F DUP6 PUSH2 0x1194 JUMP JUMPDEST PUSH1 0x40 DUP1 MLOAD PUSH0 DUP2 MSTORE PUSH1 0x20 DUP2 ADD DUP1 DUP4 MSTORE DUP12 SWAP1 MSTORE PUSH1 0xFF DUP4 AND SWAP2 DUP2 ADD SWAP2 SWAP1 SWAP2 MSTORE PUSH1 0x60 DUP2 ADD DUP5 SWAP1 MSTORE PUSH1 0x80 DUP2 ADD DUP4 SWAP1 MSTORE SWAP3 SWAP6 POP SWAP1 SWAP4 POP SWAP2 POP PUSH1 0x1 SWAP1 PUSH1 0xA0 ADD PUSH1 0x20 PUSH1 0x40 MLOAD PUSH1 0x20 DUP2 SUB SWAP1 DUP1 DUP5 SUB SWAP1 DUP6 GAS STATICCALL ISZERO DUP1 ISZERO PUSH2 0x10B7 JUMPI RETURNDATASIZE PUSH0 DUP1 RETURNDATACOPY RETURNDATASIZE PUSH0 REVERT JUMPDEST POP POP PUSH1 0x40 MLOAD PUSH1 0x1F NOT ADD MLOAD SWAP8 SWAP7 POP POP POP POP POP POP POP JUMP JUMPDEST PUSH0 DUP1 DUP1 PUSH32 0x7FFFFFFFFFFFFFFFFFFFFFFFFFFFFFFF5D576E7357A4501DDFE92F46681B20A0 DUP5 GT ISZERO PUSH2 0x1105 JUMPI POP PUSH0 SWAP2 POP PUSH1 0x3 SWAP1 POP DUP3 PUSH2 0x118A JUMP JUMPDEST PUSH1 0x40 DUP1 MLOAD PUSH0 DUP1 DUP3 MSTORE PUSH1 0x20 DUP3 ADD DUP1 DUP5 MSTORE DUP11 SWAP1 MSTORE PUSH1 0xFF DUP10 AND SWAP3 DUP3 ADD SWAP3 SWAP1 SWAP3 MSTORE PUSH1 0x60 DUP2 ADD DUP8 SWAP1 MSTORE PUSH1 0x80 DUP2 ADD DUP7 SWAP1 MSTORE PUSH1 0x1 SWAP1 PUSH1 0xA0 ADD PUSH1 0x20 PUSH1 0x40 MLOAD PUSH1 0x20 DUP2 SUB SWAP1 DUP1 DUP5 SUB SWAP1 DUP6 GAS STATICCALL ISZERO DUP1 ISZERO PUSH2 0x1156 JUMPI RETURNDATASIZE PUSH0 DUP1 RETURNDATACOPY RETURNDATASIZE PUSH0 REVERT JUMPDEST POP POP PUSH1 0x40 MLOAD PUSH1 0x1F NOT ADD MLOAD SWAP2 POP POP PUSH1 0x1 PUSH1 0x1 PUSH1 0xA0 SHL SUB DUP2 AND PUSH2 0x1181 JUMPI POP PUSH0 SWAP3 POP PUSH1 0x1 SWAP2 POP DUP3 SWAP1 POP PUSH2 0x118A JUMP JUMPDEST SWAP3 POP PUSH0 SWAP2 POP DUP2 SWAP1 POP JUMPDEST SWAP5 POP SWAP5 POP SWAP5 SWAP2 POP POP JUMP JUMPDEST PUSH0 DUP1 PUSH0 DUP4 MLOAD PUSH1 0x41 EQ PUSH2 0x11E8 JUMPI PUSH1 0x40 MLOAD PUSH3 0x461BCD PUSH1 0xE5 SHL DUP2 MSTORE PUSH1 0x20 PUSH1 0x4 DUP3 ADD MSTORE PUSH1 0x18 PUSH1 0x24 DUP3 ADD MSTORE PUSH32 0x696E76616C6964207369676E6174757265206C656E6774680000000000000000 PUSH1 0x44 DUP3 ADD MSTORE PUSH1 0x64 ADD PUSH2 0x491 JUMP JUMPDEST POP POP POP PUSH1 0x20 DUP2 ADD MLOAD PUSH1 0x40 DUP3 ADD MLOAD PUSH1 0x60 SWAP1 SWAP3 ADD MLOAD SWAP1 SWAP3 PUSH0 SWAP2 SWAP1 SWAP2 BYTE SWAP1 JUMP JUMPDEST PUSH0 PUSH1 0x20 DUP3 DUP5 SUB SLT ISZERO PUSH2 0x1215 JUMPI PUSH0 DUP1 REVERT JUMPDEST POP CALLDATALOAD SWAP2 SWAP1 POP JUMP JUMPDEST PUSH4 0x4E487B71 PUSH1 0xE0 SHL PUSH0 MSTORE PUSH1 0x41 PUSH1 0x4 MSTORE PUSH1 0x24 PUSH0 REVERT JUMPDEST PUSH0 DUP3 PUSH1 0x1F DUP4 ADD SLT PUSH2 0x123F JUMPI PUSH0 DUP1 REVERT JUMPDEST DUP2 CALLDATALOAD PUSH8 0xFFFFFFFFFFFFFFFF DUP1 DUP3 GT ISZERO PUSH2 0x125A JUMPI PUSH2 0x125A PUSH2 0x121C JUMP JUMPDEST PUSH1 0x40 MLOAD PUSH1 0x1F DUP4 ADD PUSH1 0x1F NOT SWAP1 DUP2 AND PUSH1 0x3F ADD AND DUP2 ADD SWAP1 DUP3 DUP3 GT DUP2 DUP4 LT OR ISZERO PUSH2 0x1282 JUMPI PUSH2 0x1282 PUSH2 0x121C JUMP JUMPDEST DUP2 PUSH1 0x40 MSTORE DUP4 DUP2 MSTORE DUP7 PUSH1 0x20 DUP6 DUP9 ADD ADD GT ISZERO PUSH2 0x129A JUMPI PUSH0 DUP1 REVERT JUMPDEST DUP4 PUSH1 0x20 DUP8 ADD PUSH1 0x20 DUP4 ADD CALLDATACOPY PUSH0 PUSH1 0x20 DUP6 DUP4 ADD ADD MSTORE DUP1 SWAP5 POP POP POP POP POP SWAP3 SWAP2 POP POP JUMP JUMPDEST PUSH0 PUSH1 0x20 DUP3 DUP5 SUB SLT ISZERO PUSH2 0x12C9 JUMPI PUSH0 DUP1 REVERT JUMPDEST DUP2 CALLDATALOAD PUSH8 0xFFFFFFFFFFFFFFFF DUP2 GT ISZERO PUSH2 0x12DF JUMPI PUSH0 DUP1 REVERT JUMPDEST PUSH2 0x12EB DUP5 DUP3 DUP6 ADD PUSH2 0x1230 JUMP JUMPDEST SWAP5 SWAP4 POP POP POP POP JUMP JUMPDEST PUSH0 DUP1 PUSH1 0x40 DUP4 DUP6 SUB SLT ISZERO PUSH2 0x1304 JUMPI PUSH0 DUP1 REVERT JUMPDEST DUP3 CALLDATALOAD SWAP2 POP PUSH1 0x20 DUP4 ADD CALLDATALOAD PUSH8 0xFFFFFFFFFFFFFFFF DUP2 GT ISZERO PUSH2 0x1321 JUMPI PUSH0 DUP1 REVERT JUMPDEST PUSH2 0x132D DUP6 DUP3 DUP7 ADD PUSH2 0x1230 JUMP JUMPDEST SWAP2 POP POP SWAP3 POP SWAP3 SWAP1 POP JUMP JUMPDEST PUSH1 0x1 PUSH1 0x1 PUSH1 0xA0 SHL SUB DUP2 AND DUP2 EQ PUSH2 0x134B JUMPI PUSH0 DUP1 REVERT JUMPDEST POP JUMP JUMPDEST PUSH0 DUP1 PUSH0 PUSH1 0x60 DUP5 DUP7 SUB SLT ISZERO PUSH2 0x1360 JUMPI PUSH0 DUP1 REVERT JUMPDEST DUP4 CALLDATALOAD PUSH2 0x136B DUP2 PUSH2 0x1337 JUMP JUMPDEST SWAP3 POP PUSH1 0x20 DUP5 ADD CALLDATALOAD PUSH2 0x137B DUP2 PUSH2 0x1337 JUMP JUMPDEST SWAP3 SWAP6 SWAP3 SWAP5 POP POP POP PUSH1 0x40 SWAP2 SWAP1 SWAP2 ADD CALLDATALOAD SWAP1 JUMP JUMPDEST PUSH0 PUSH1 0x20 DUP3 DUP5 SUB SLT ISZERO PUSH2 0x139C JUMPI PUSH0 DUP1 REVERT JUMPDEST DUP2 CALLDATALOAD PUSH2 0x13A7 DUP2 PUSH2 0x1337 JUMP JUMPDEST SWAP4 SWAP3 POP POP POP JUMP JUMPDEST PUSH0 DUP1 PUSH0 PUSH1 0x60 DUP5 DUP7 SUB SLT ISZERO PUSH2 0x13C0 JUMPI PUSH0 DUP1 REVERT JUMPDEST DUP4 CALLDATALOAD SWAP3 POP PUSH1 0x20 DUP5 ADD CALLDATALOAD PUSH2 0x137B DUP2 PUSH2 0x1337 JUMP JUMPDEST PUSH0 DUP2 MLOAD DUP1 DUP5 MSTORE DUP1 PUSH1 0x20 DUP5 ADD PUSH1 0x20 DUP7 ADD MCOPY PUSH0 PUSH1 0x20 DUP3 DUP7 ADD ADD MSTORE PUSH1 0x20 PUSH1 0x1F NOT PUSH1 0x1F DUP4 ADD AND DUP6 ADD ADD SWAP2 POP POP SWAP3 SWAP2 POP POP JUMP JUMPDEST PUSH1 0x20 DUP2 MSTORE PUSH0 PUSH2 0x45F PUSH1 0x20 DUP4 ADD DUP5 PUSH2 0x13D2 JUMP JUMPDEST PUSH0 DUP1 PUSH0 DUP1 PUSH1 0x80 DUP6 DUP8 SUB SLT ISZERO PUSH2 0x1425 JUMPI PUSH0 DUP1 REVERT JUMPDEST DUP5 CALLDATALOAD PUSH8 0xFFFFFFFFFFFFFFFF DUP2 GT ISZERO PUSH2 0x143B JUMPI PUSH0 DUP1 REVERT JUMPDEST PUSH2 0x1447 DUP8 DUP3 DUP9 ADD PUSH2 0x1230 JUMP JUMPDEST SWAP5 POP POP PUSH1 0x20 DUP6 ADD CALLDATALOAD PUSH2 0x1458 DUP2 PUSH2 0x1337 JUMP JUMPDEST SWAP3 POP PUSH1 0x40 DUP6 ADD CALLDATALOAD PUSH2 0x1468 DUP2 PUSH2 0x1337 JUMP JUMPDEST SWAP4 SWAP7 SWAP3 SWAP6 POP SWAP3 SWAP4 PUSH1 0x60 ADD CALLDATALOAD SWAP3 POP POP JUMP JUMPDEST PUSH0 DUP1 PUSH0 DUP1 PUSH0 DUP1 PUSH1 0xC0 DUP8 DUP10 SUB SLT ISZERO PUSH2 0x148D JUMPI PUSH0 DUP1 REVERT JUMPDEST DUP7 CALLDATALOAD PUSH2 0x1498 DUP2 PUSH2 0x1337 JUMP JUMPDEST SWAP6 POP PUSH1 0x20 DUP8 ADD CALLDATALOAD SWAP5 POP PUSH1 0x40 DUP8 ADD CALLDATALOAD PUSH8 0xFFFFFFFFFFFFFFFF DUP1 DUP3 GT ISZERO PUSH2 0x14BB JUMPI PUSH0 DUP1 REVERT JUMPDEST PUSH2 0x14C7 DUP11 DUP4 DUP12 ADD PUSH2 0x1230 JUMP JUMPDEST SWAP6 POP PUSH1 0x60 DUP10 ADD CALLDATALOAD SWAP2 POP DUP1 DUP3 GT ISZERO PUSH2 0x14DC JUMPI PUSH0 DUP1 REVERT JUMPDEST PUSH2 0x14E8 DUP11 DUP4 DUP12 ADD PUSH2 0x1230 JUMP JUMPDEST SWAP5 POP PUSH1 0x80 DUP10 ADD CALLDATALOAD SWAP2 POP DUP1 DUP3 GT ISZERO PUSH2 0x14FD JUMPI PUSH0 DUP1 REVERT JUMPDEST POP PUSH2 0x150A DUP10 DUP3 DUP11 ADD PUSH2 0x1230 JUMP JUMPDEST SWAP3 POP POP PUSH1 0xA0 DUP8 ADD CALLDATALOAD SWAP1 POP SWAP3 SWAP6 POP SWAP3 SWAP6 POP SWAP3 SWAP6 JUMP JUMPDEST DUP3 ISZERO ISZERO DUP2 MSTORE PUSH1 0x40 PUSH1 0x20 DUP3 ADD MSTORE PUSH0 PUSH2 0x12EB PUSH1 0x40 DUP4 ADD DUP5 PUSH2 0x13D2 JUMP JUMPDEST PUSH1 0x1 DUP2 DUP2 SHR SWAP1 DUP3 AND DUP1 PUSH2 0x154C JUMPI PUSH1 0x7F DUP3 AND SWAP2 POP JUMPDEST PUSH1 0x20 DUP3 LT DUP2 SUB PUSH2 0x156A JUMPI PUSH4 0x4E487B71 PUSH1 0xE0 SHL PUSH0 MSTORE PUSH1 0x22 PUSH1 0x4 MSTORE PUSH1 0x24 PUSH0 REVERT JUMPDEST POP SWAP2 SWAP1 POP JUMP JUMPDEST PUSH0 DUP1 DUP4 SLOAD PUSH2 0x157D DUP2 PUSH2 0x1538 JUMP JUMPDEST PUSH1 0x1 DUP3 DUP2 AND DUP1 ISZERO PUSH2 0x1595 JUMPI PUSH1 0x1 DUP2 EQ PUSH2 0x15AA JUMPI PUSH2 0x15D6 JUMP JUMPDEST PUSH1 0xFF NOT DUP5 AND DUP8 MSTORE DUP3 ISZERO ISZERO DUP4 MUL DUP8 ADD SWAP5 POP PUSH2 0x15D6 JUMP JUMPDEST DUP8 PUSH0 MSTORE PUSH1 0x20 DUP1 PUSH0 KECCAK256 PUSH0 JUMPDEST DUP6 DUP2 LT ISZERO PUSH2 0x15CD JUMPI DUP2 SLOAD DUP11 DUP3 ADD MSTORE SWAP1 DUP5 ADD SWAP1 DUP3 ADD PUSH2 0x15B4 JUMP JUMPDEST POP POP POP DUP3 DUP8 ADD SWAP5 POP JUMPDEST POP SWAP3 SWAP7 SWAP6 POP POP POP POP POP POP JUMP JUMPDEST PUSH1 0x20 DUP1 DUP3 MSTORE PUSH1 0x8 SWAP1 DUP3 ADD MSTORE PUSH8 0x2737BA1029B2B633 PUSH1 0xC1 SHL PUSH1 0x40 DUP3 ADD MSTORE PUSH1 0x60 ADD SWAP1 JUMP JUMPDEST PUSH1 0x20 DUP1 DUP3 MSTORE PUSH1 0x1E SWAP1 DUP3 ADD MSTORE PUSH32 0x4D757374206265206E6F6E2D7A65726F20736967732072657175697265640000 PUSH1 0x40 DUP3 ADD MSTORE PUSH1 0x60 ADD SWAP1 JUMP JUMPDEST PUSH0 PUSH1 0x60 DUP3 ADD PUSH1 0x1 DUP1 PUSH1 0xA0 SHL SUB DUP1 DUP8 AND DUP5 MSTORE PUSH1 0x20 PUSH1 0x60 PUSH1 0x20 DUP7 ADD MSTORE DUP3 DUP8 SLOAD DUP1 DUP6 MSTORE PUSH1 0x80 DUP8 ADD SWAP2 POP DUP9 PUSH0 MSTORE PUSH1 0x20 PUSH0 KECCAK256 SWAP5 POP PUSH0 JUMPDEST DUP2 DUP2 LT ISZERO PUSH2 0x168A JUMPI DUP6 SLOAD DUP6 AND DUP4 MSTORE PUSH1 0x1 SWAP6 DUP7 ADD SWAP6 SWAP3 DUP5 ADD SWAP3 ADD PUSH2 0x166C JUMP JUMPDEST POP POP DUP1 SWAP5 POP POP POP POP POP DUP3 PUSH1 0x40 DUP4 ADD MSTORE SWAP5 SWAP4 POP POP POP POP JUMP JUMPDEST PUSH4 0x4E487B71 PUSH1 0xE0 SHL PUSH0 MSTORE PUSH1 0x11 PUSH1 0x4 MSTORE PUSH1 0x24 PUSH0 REVERT JUMPDEST PUSH0 PUSH1 0x1 DUP3 ADD PUSH2 0x16C6 JUMPI PUSH2 0x16C6 PUSH2 0x16A1 JUMP JUMPDEST POP PUSH1 0x1 ADD SWAP1 JUMP JUMPDEST PUSH0 DUP3 MLOAD DUP1 PUSH1 0x20 DUP6 ADD DUP5 MCOPY PUSH0 SWAP3 ADD SWAP2 DUP3 MSTORE POP SWAP2 SWAP1 POP JUMP JUMPDEST PUSH1 0x1F DUP3 GT ISZERO PUSH2 0x1727 JUMPI DUP1 PUSH0 MSTORE PUSH1 0x20 PUSH0 KECCAK256 PUSH1 0x1F DUP5 ADD PUSH1 0x5 SHR DUP2 ADD PUSH1 0x20 DUP6 LT ISZERO PUSH2 0x1708 JUMPI POP DUP1 JUMPDEST PUSH1 0x1F DUP5 ADD PUSH1 0x5 SHR DUP3 ADD SWAP2 POP JUMPDEST DUP2 DUP2 LT ISZERO PUSH2 0xE4E JUMPI PUSH0 DUP2 SSTORE PUSH1 0x1 ADD PUSH2 0x1714 JUMP JUMPDEST POP POP POP JUMP JUMPDEST DUP2 MLOAD PUSH8 0xFFFFFFFFFFFFFFFF DUP2 GT ISZERO PUSH2 0x1746 JUMPI PUSH2 0x1746 PUSH2 0x121C JUMP JUMPDEST PUSH2 0x175A DUP2 PUSH2 0x1754 DUP5 SLOAD PUSH2 0x1538 JUMP JUMPDEST DUP5 PUSH2 0x16E3 JUMP JUMPDEST PUSH1 0x20 DUP1 PUSH1 0x1F DUP4 GT PUSH1 0x1 DUP2 EQ PUSH2 0x178D JUMPI PUSH0 DUP5 ISZERO PUSH2 0x1776 JUMPI POP DUP6 DUP4 ADD MLOAD JUMPDEST PUSH0 NOT PUSH1 0x3 DUP7 SWAP1 SHL SHR NOT AND PUSH1 0x1 DUP6 SWAP1 SHL OR DUP6 SSTORE PUSH2 0x17E4 JUMP JUMPDEST PUSH0 DUP6 DUP2 MSTORE PUSH1 0x20 DUP2 KECCAK256 PUSH1 0x1F NOT DUP7 AND SWAP2 JUMPDEST DUP3 DUP2 LT ISZERO PUSH2 0x17BB JUMPI DUP9 DUP7 ADD MLOAD DUP3 SSTORE SWAP5 DUP5 ADD SWAP5 PUSH1 0x1 SWAP1 SWAP2 ADD SWAP1 DUP5 ADD PUSH2 0x179C JUMP JUMPDEST POP DUP6 DUP3 LT ISZERO PUSH2 0x17D8 JUMPI DUP8 DUP6 ADD MLOAD PUSH0 NOT PUSH1 0x3 DUP9 SWAP1 SHL PUSH1 0xF8 AND SHR NOT AND DUP2 SSTORE JUMPDEST POP POP PUSH1 0x1 DUP5 PUSH1 0x1 SHL ADD DUP6 SSTORE JUMPDEST POP POP POP POP POP POP JUMP JUMPDEST DUP2 DUP2 SUB DUP2 DUP2 GT ISZERO PUSH2 0x462 JUMPI PUSH2 0x462 PUSH2 0x16A1 JUMP JUMPDEST PUSH1 0x1 DUP1 PUSH1 0xA0 SHL SUB DUP8 AND DUP2 MSTORE DUP6 PUSH1 0x20 DUP3 ADD MSTORE PUSH1 0xC0 PUSH1 0x40 DUP3 ADD MSTORE PUSH0 PUSH2 0x1825 PUSH1 0xC0 DUP4 ADD DUP8 PUSH2 0x13D2 JUMP JUMPDEST DUP3 DUP2 SUB PUSH1 0x60 DUP5 ADD MSTORE PUSH2 0x1837 DUP2 DUP8 PUSH2 0x13D2 JUMP JUMPDEST SWAP1 POP DUP3 DUP2 SUB PUSH1 0x80 DUP5 ADD MSTORE PUSH2 0x184B DUP2 DUP7 PUSH2 0x13D2 JUMP JUMPDEST SWAP2 POP POP DUP3 PUSH1 0xA0 DUP4 ADD MSTORE SWAP8 SWAP7 POP POP POP POP POP POP POP JUMP JUMPDEST DUP4 ISZERO ISZERO DUP2 MSTORE PUSH1 0x60 PUSH1 0x20 DUP3 ADD MSTORE PUSH0 PUSH2 0x1879 PUSH1 0x60 DUP4 ADD DUP6 PUSH2 0x13D2 JUMP JUMPDEST DUP3 DUP2 SUB PUSH1 0x40 DUP5 ADD MSTORE PUSH2 0x188B DUP2 DUP6 PUSH2 0x13D2 JUMP JUMPDEST SWAP7 SWAP6 POP POP POP POP POP POP JUMP JUMPDEST PUSH4 0x4E487B71 PUSH1 0xE0 SHL PUSH0 MSTORE PUSH1 0x32 PUSH1 0x4 MSTORE PUSH1 0x24 PUSH0 REVERT JUMPDEST PUSH4 0x4E487B71 PUSH1 0xE0 SHL PUSH0 MSTORE PUSH1 0x31 PUSH1 0x4 MSTORE PUSH1 0x24 PUSH0 REVERT JUMPDEST PUSH0 DUP2 PUSH2 0x18CB JUMPI PUSH2 0x18CB PUSH2 0x16A1 JUMP JUMPDEST POP PUSH0 NOT ADD SWAP1 JUMP JUMPDEST PUSH4 0x4E487B71 PUSH1 0xE0 SHL PUSH0 MSTORE PUSH1 0x21 PUSH1 0x4 MSTORE PUSH1 0x24 PUSH0 REVERT INVALID LOG2 PUSH5 0x6970667358 0x22 SLT KECCAK256 0xB2 0xDD PUSH32 0xD16B06EE84E76166E4A7589AD3BD607AA7BD2E7030B3EA7308E2D263C264736F PUSH13 0x63430008190033000000000000 "
				},
				"gasEstimates": {
					"creation": {
						"codeDepositCost": "1285600",
						"executionCost": "infinite",
						"totalCost": "infinite"
					},
					"external": {
						"addSigner(address,address,uint256)": "infinite",
						"chainId()": "2372",
						"executeApproval(address,uint256,bytes,string,string,uint256)": "infinite",
						"getFunctionData(string,address,address,uint256)": "infinite",
						"getTransactionHash(uint256,address,uint256)": "2838",
						"incrementNonce()": "26676",
						"isOwner(address)": "2567",
						"nonce()": "2327",
						"owners(uint256)": "4657",
						"recover(bytes32,bytes)": "infinite",
						"removeSigner(address,address,uint256)": "infinite",
						"signaturesRequired()": "2349",
						"totalTransactionValidations(uint256)": "infinite",
						"transactionNo(uint256)": "infinite",
						"transactionValidations(string)": "infinite",
						"validSignatures(string)": "infinite"
					},
					"internal": {
						"_removeOwner(address)": "infinite",
						"getEthSignedMessageHash(bytes32)": "infinite",
						"getMessageHash(string memory)": "infinite",
						"recoverSigner(bytes32,bytes memory)": "infinite",
						"splitSignature(bytes memory)": "infinite",
						"updateSignaturesRequired(address,uint256)": "infinite",
						"verifyUserSign(string memory,bytes memory)": "infinite"
					}
				},
				"methodIdentifiers": {
					"addSigner(address,address,uint256)": "95a3ac74",
					"chainId()": "9a8a0592",
					"executeApproval(address,uint256,bytes,string,string,uint256)": "d17eced3",
					"getFunctionData(string,address,address,uint256)": "a157b0ae",
					"getTransactionHash(uint256,address,uint256)": "3aaa4771",
					"incrementNonce()": "627cdcb9",
					"isOwner(address)": "2f54bf6e",
					"nonce()": "affed0e0",
					"owners(uint256)": "025e7c27",
					"recover(bytes32,bytes)": "19045a25",
					"removeSigner(address,address,uint256)": "1f919f77",
					"signaturesRequired()": "ce757d29",
					"totalTransactionValidations(uint256)": "019010f6",
					"transactionNo(uint256)": "7708072c",
					"transactionValidations(string)": "7c72596e",
					"validSignatures(string)": "06a23e5f"
				}
			},
			"storageLayout": {
				"storage": [
					{
						"astId": 661,
						"contract": "contracts/MultiSigWallet.sol:MultiSigWallet",
						"label": "multiSigFactory",
						"offset": 0,
						"slot": "0",
						"type": "t_contract(MultiSigFactory)647"
					},
					{
						"astId": 699,
						"contract": "contracts/MultiSigWallet.sol:MultiSigWallet",
						"label": "isOwner",
						"offset": 0,
						"slot": "1",
						"type": "t_mapping(t_address,t_bool)"
					},
					{
						"astId": 703,
						"contract": "contracts/MultiSigWallet.sol:MultiSigWallet",
						"label": "transactionValidations",
						"offset": 0,
						"slot": "2",
						"type": "t_mapping(t_string_memory_ptr,t_uint256)"
					},
					{
						"astId": 707,
						"contract": "contracts/MultiSigWallet.sol:MultiSigWallet",
						"label": "transactionNo",
						"offset": 0,
						"slot": "3",
						"type": "t_mapping(t_uint256,t_string_storage)"
					},
					{
						"astId": 711,
						"contract": "contracts/MultiSigWallet.sol:MultiSigWallet",
						"label": "validSignatures",
						"offset": 0,
						"slot": "4",
						"type": "t_mapping(t_string_memory_ptr,t_uint256)"
					},
					{
						"astId": 714,
						"contract": "contracts/MultiSigWallet.sol:MultiSigWallet",
						"label": "owners",
						"offset": 0,
						"slot": "5",
						"type": "t_array(t_address)dyn_storage"
					},
					{
						"astId": 716,
						"contract": "contracts/MultiSigWallet.sol:MultiSigWallet",
						"label": "signaturesRequired",
						"offset": 0,
						"slot": "6",
						"type": "t_uint256"
					},
					{
						"astId": 718,
						"contract": "contracts/MultiSigWallet.sol:MultiSigWallet",
						"label": "nonce",
						"offset": 0,
						"slot": "7",
						"type": "t_uint256"
					},
					{
						"astId": 720,
						"contract": "contracts/MultiSigWallet.sol:MultiSigWallet",
						"label": "chainId",
						"offset": 0,
						"slot": "8",
						"type": "t_uint256"
					}
				],
				"types": {
					"t_address": {
						"encoding": "inplace",
						"label": "address",
						"numberOfBytes": "20"
					},
					"t_array(t_address)dyn_storage": {
						"base": "t_address",
						"encoding": "dynamic_array",
						"label": "address[]",
						"numberOfBytes": "32"
					},
					"t_bool": {
						"encoding": "inplace",
						"label": "bool",
						"numberOfBytes": "1"
					},
					"t_contract(MultiSigFactory)647": {
						"encoding": "inplace",
						"label": "contract MultiSigFactory",
						"numberOfBytes": "20"
					},
					"t_mapping(t_address,t_bool)": {
						"encoding": "mapping",
						"key": "t_address",
						"label": "mapping(address => bool)",
						"numberOfBytes": "32",
						"value": "t_bool"
					},
					"t_mapping(t_string_memory_ptr,t_uint256)": {
						"encoding": "mapping",
						"key": "t_string_memory_ptr",
						"label": "mapping(string => uint256)",
						"numberOfBytes": "32",
						"value": "t_uint256"
					},
					"t_mapping(t_uint256,t_string_storage)": {
						"encoding": "mapping",
						"key": "t_uint256",
						"label": "mapping(uint256 => string)",
						"numberOfBytes": "32",
						"value": "t_string_storage"
					},
					"t_string_memory_ptr": {
						"encoding": "bytes",
						"label": "string",
						"numberOfBytes": "32"
					},
					"t_string_storage": {
						"encoding": "bytes",
						"label": "string",
						"numberOfBytes": "32"
					},
					"t_uint256": {
						"encoding": "inplace",
						"label": "uint256",
						"numberOfBytes": "32"
					}
				}
			},
			"userdoc": {
				"kind": "user",
				"methods": {},
				"version": 1
			}
		}
	}
}