{
	"contracts/MultiSigWallet_flattened.sol": {
		"MultiSigFactory": {
			"abi": [
				{
					"inputs": [],
					"stateMutability": "nonpayable",
					"type": "constructor"
				},
				{
					"anonymous": false,
					"inputs": [
						{
							"indexed": true,
							"internalType": "uint256",
							"name": "contractId",
							"type": "uint256"
						},
						{
							"indexed": true,
							"internalType": "address",
							"name": "contractAddress",
							"type": "address"
						},
						{
							"indexed": false,
							"internalType": "address",
							"name": "creator",
							"type": "address"
						},
						{
							"indexed": false,
							"internalType": "address[]",
							"name": "owners",
							"type": "address[]"
						},
						{
							"indexed": false,
							"internalType": "uint256",
							"name": "signaturesRequired",
							"type": "uint256"
						}
					],
					"name": "Create",
					"type": "event"
				},
				{
					"anonymous": false,
					"inputs": [
						{
							"indexed": true,
							"internalType": "address",
							"name": "contractAddress",
							"type": "address"
						},
						{
							"indexed": false,
							"internalType": "address[]",
							"name": "owners",
							"type": "address[]"
						},
						{
							"indexed": true,
							"internalType": "uint256",
							"name": "signaturesRequired",
							"type": "uint256"
						}
					],
					"name": "Owners",
					"type": "event"
				},
				{
					"inputs": [
						{
							"internalType": "uint256",
							"name": "_chainId",
							"type": "uint256"
						},
						{
							"internalType": "address[]",
							"name": "_owners",
							"type": "address[]"
						},
						{
							"internalType": "uint256",
							"name": "_signaturesRequired",
							"type": "uint256"
						},
						{
							"internalType": "string",
							"name": "orgName",
							"type": "string"
						},
						{
							"internalType": "string",
							"name": "orgEmail",
							"type": "string"
						}
					],
					"name": "create",
					"outputs": [],
					"stateMutability": "payable",
					"type": "function"
				},
				{
					"inputs": [
						{
							"internalType": "address",
							"name": "_contractAddress",
							"type": "address"
						},
						{
							"internalType": "address[]",
							"name": "_owners",
							"type": "address[]"
						},
						{
							"internalType": "uint256",
							"name": "_signaturesRequired",
							"type": "uint256"
						}
					],
					"name": "emitOwners",
					"outputs": [],
					"stateMutability": "nonpayable",
					"type": "function"
				},
				{
					"inputs": [
						{
							"internalType": "uint256",
							"name": "_index",
							"type": "uint256"
						}
					],
					"name": "getMultiSig",
					"outputs": [
						{
							"internalType": "address",
							"name": "multiSigAddress",
							"type": "address"
						},
						{
							"internalType": "uint256",
							"name": "signaturesRequired",
							"type": "uint256"
						},
						{
							"internalType": "uint256",
							"name": "balance",
							"type": "uint256"
						},
						{
							"internalType": "string",
							"name": "organizationName",
							"type": "string"
						},
						{
							"internalType": "string",
							"name": "organizationEmail",
							"type": "string"
						}
					],
					"stateMutability": "view",
					"type": "function"
				},
				{
					"inputs": [
						{
							"internalType": "uint256",
							"name": "",
							"type": "uint256"
						}
					],
					"name": "multiSigs",
					"outputs": [
						{
							"internalType": "contract MultiSigWallet",
							"name": "",
							"type": "address"
						}
					],
					"stateMutability": "view",
					"type": "function"
				},
				{
					"inputs": [],
					"name": "numberOfMultiSigs",
					"outputs": [
						{
							"internalType": "uint256",
							"name": "",
							"type": "uint256"
						}
					],
					"stateMutability": "view",
					"type": "function"
				}
			],
			"devdoc": {
				"kind": "dev",
				"methods": {},
				"version": 1
			},
			"evm": {
				"assembly": "    /* \"contracts/MultiSigWallet_flattened.sol\":7806:10280  contract MultiSigFactory {... */\n  mstore(0x40, 0x80)\n    /* \"contracts/MultiSigWallet_flattened.sol\":8329:8345  constructor() {} */\n  callvalue\n  dup1\n  iszero\n  tag_1\n  jumpi\n  0x00\n  dup1\n  revert\ntag_1:\n  pop\n    /* \"contracts/MultiSigWallet_flattened.sol\":7806:10280  contract MultiSigFactory {... */\n  dataSize(sub_0)\n  dup1\n  dataOffset(sub_0)\n  0x00\n  codecopy\n  0x00\n  return\nstop\n\nsub_0: assembly {\n        /* \"contracts/MultiSigWallet_flattened.sol\":7806:10280  contract MultiSigFactory {... */\n      mstore(0x40, 0x80)\n      jumpi(tag_1, lt(calldatasize, 0x04))\n      shr(0xe0, calldataload(0x00))\n      dup1\n      0x2a876a52\n      eq\n      tag_2\n      jumpi\n      dup1\n      0x2f1d8a23\n      eq\n      tag_3\n      jumpi\n      dup1\n      0x9567e7ed\n      eq\n      tag_4\n      jumpi\n      dup1\n      0xbedf4294\n      eq\n      tag_5\n      jumpi\n      dup1\n      0xc67fdb94\n      eq\n      tag_6\n      jumpi\n    tag_1:\n      0x00\n      dup1\n      revert\n        /* \"contracts/MultiSigWallet_flattened.sol\":8756:9594  function create(... */\n    tag_2:\n      tag_7\n      tag_8\n      calldatasize\n      0x04\n      tag_9\n      jump\t// in\n    tag_8:\n      tag_10\n      jump\t// in\n    tag_7:\n      stop\n        /* \"contracts/MultiSigWallet_flattened.sol\":9600:9699  function numberOfMultiSigs() public view returns (uint256) {... */\n    tag_3:\n      callvalue\n      dup1\n      iszero\n      tag_11\n      jumpi\n      0x00\n      dup1\n      revert\n    tag_11:\n      pop\n        /* \"contracts/MultiSigWallet_flattened.sol\":9650:9657  uint256 */\n      0x00\n        /* \"contracts/MultiSigWallet_flattened.sol\":9676:9692  multiSigs.length */\n      sload\n        /* \"contracts/MultiSigWallet_flattened.sol\":9600:9699  function numberOfMultiSigs() public view returns (uint256) {... */\n      mload(0x40)\n        /* \"#utility.yul\":2921:2946   */\n      swap1\n      dup2\n      mstore\n        /* \"#utility.yul\":2909:2911   */\n      0x20\n        /* \"#utility.yul\":2894:2912   */\n      add\n        /* \"contracts/MultiSigWallet_flattened.sol\":9600:9699  function numberOfMultiSigs() public view returns (uint256) {... */\n    tag_14:\n      mload(0x40)\n      dup1\n      swap2\n      sub\n      swap1\n      return\n        /* \"contracts/MultiSigWallet_flattened.sol\":9705:10278  function getMultiSig(uint256 _index)... */\n    tag_4:\n      callvalue\n      dup1\n      iszero\n      tag_16\n      jumpi\n      0x00\n      dup1\n      revert\n    tag_16:\n      pop\n      tag_17\n      tag_18\n      calldatasize\n      0x04\n      tag_19\n      jump\t// in\n    tag_18:\n      tag_20\n      jump\t// in\n    tag_17:\n      mload(0x40)\n      tag_14\n      swap6\n      swap5\n      swap4\n      swap3\n      swap2\n      swap1\n      tag_22\n      jump\t// in\n        /* \"contracts/MultiSigWallet_flattened.sol\":8519:8750  function emitOwners(... */\n    tag_5:\n      callvalue\n      dup1\n      iszero\n      tag_23\n      jumpi\n      0x00\n      dup1\n      revert\n    tag_23:\n      pop\n      tag_7\n      tag_25\n      calldatasize\n      0x04\n      tag_26\n      jump\t// in\n    tag_25:\n      tag_27\n      jump\t// in\n        /* \"contracts/MultiSigWallet_flattened.sol\":7837:7870  MultiSigWallet[] public multiSigs */\n    tag_6:\n      callvalue\n      dup1\n      iszero\n      tag_28\n      jumpi\n      0x00\n      dup1\n      revert\n    tag_28:\n      pop\n      tag_29\n      tag_30\n      calldatasize\n      0x04\n      tag_19\n      jump\t// in\n    tag_30:\n      tag_31\n      jump\t// in\n    tag_29:\n      mload(0x40)\n      sub(shl(0xa0, 0x01), 0x01)\n        /* \"#utility.yul\":4756:4788   */\n      swap1\n      swap2\n      and\n        /* \"#utility.yul\":4738:4789   */\n      dup2\n      mstore\n        /* \"#utility.yul\":4726:4728   */\n      0x20\n        /* \"#utility.yul\":4711:4729   */\n      add\n        /* \"contracts/MultiSigWallet_flattened.sol\":7837:7870  MultiSigWallet[] public multiSigs */\n      tag_14\n        /* \"#utility.yul\":4561:4795   */\n      jump\n        /* \"contracts/MultiSigWallet_flattened.sol\":8756:9594  function create(... */\n    tag_10:\n        /* \"contracts/MultiSigWallet_flattened.sol\":8963:8973  uint256 id */\n      0x00\n        /* \"contracts/MultiSigWallet_flattened.sol\":9676:9692  multiSigs.length */\n      dup1\n      sload\n        /* \"contracts/MultiSigWallet_flattened.sol\":8963:8995  uint256 id = numberOfMultiSigs() */\n      swap1\n      pop\n        /* \"contracts/MultiSigWallet_flattened.sol\":9005:9028  MultiSigWallet multiSig */\n      0x00\n        /* \"contracts/MultiSigWallet_flattened.sol\":9059:9068  msg.value */\n      callvalue\n        /* \"contracts/MultiSigWallet_flattened.sol\":9083:9091  _chainId */\n      dup8\n        /* \"contracts/MultiSigWallet_flattened.sol\":9105:9112  _owners */\n      dup8\n        /* \"contracts/MultiSigWallet_flattened.sol\":9126:9145  _signaturesRequired */\n      dup8\n        /* \"contracts/MultiSigWallet_flattened.sol\":9167:9171  this */\n      address\n        /* \"contracts/MultiSigWallet_flattened.sol\":9031:9182  (new MultiSigWallet){value: msg.value}(... */\n      mload(0x40)\n      tag_36\n      swap1\n      tag_37\n      jump\t// in\n    tag_36:\n      tag_38\n      swap5\n      swap4\n      swap3\n      swap2\n      swap1\n      tag_39\n      jump\t// in\n    tag_38:\n      mload(0x40)\n      dup1\n      swap2\n      sub\n      swap1\n      dup3\n      create\n      swap1\n      pop\n      dup1\n      iszero\n      dup1\n      iszero\n      tag_40\n      jumpi\n      returndatasize\n      0x00\n      dup1\n      returndatacopy\n      revert(0x00, returndatasize)\n    tag_40:\n      pop\n        /* \"contracts/MultiSigWallet_flattened.sol\":9192:9201  multiSigs */\n      0x00\n        /* \"contracts/MultiSigWallet_flattened.sol\":9192:9216  multiSigs.push(multiSig) */\n      dup1\n      sload\n      0x01\n      dup1\n      dup3\n      add\n      dup4\n      sstore\n      0x290decd9548b62a8d60345a988386fc84ba6bc95484008f6362f93160ef3e563\n      swap1\n      swap2\n      add\n      dup1\n      sload\n      not(sub(shl(0xa0, 0x01), 0x01))\n      and\n      sub(shl(0xa0, 0x01), 0x01)\n      dup6\n      and\n      swap1\n      dup2\n      or\n      swap1\n      swap2\n      sstore\n        /* \"contracts/MultiSigWallet_flattened.sol\":9226:9259  existsMultiSig[address(multiSig)] */\n      dup3\n      mstore\n        /* \"contracts/MultiSigWallet_flattened.sol\":9192:9216  multiSigs.push(multiSig) */\n      0x20\n        /* \"contracts/MultiSigWallet_flattened.sol\":9226:9259  existsMultiSig[address(multiSig)] */\n      dup2\n      dup2\n      mstore\n      0x40\n      dup1\n      dup5\n      keccak256\n        /* \"contracts/MultiSigWallet_flattened.sol\":9226:9266  existsMultiSig[address(multiSig)] = true */\n      dup1\n      sload\n      not(0xff)\n      and\n      swap1\n      swap4\n      or\n      swap1\n      swap3\n      sstore\n        /* \"contracts/MultiSigWallet_flattened.sol\":9276:9279  Org */\n      0x02\n        /* \"contracts/MultiSigWallet_flattened.sol\":9276:9298  Org[address(multiSig)] */\n      swap1\n      mstore\n      swap1\n      keccak256\n        /* \"contracts/MultiSigWallet_flattened.sol\":9192:9216  multiSigs.push(multiSig) */\n      swap1\n      swap2\n      pop\n        /* \"contracts/MultiSigWallet_flattened.sol\":9276:9308  Org[address(multiSig)] = orgName */\n      tag_42\n        /* \"contracts/MultiSigWallet_flattened.sol\":9301:9308  orgName */\n      dup6\n        /* \"contracts/MultiSigWallet_flattened.sol\":9276:9298  Org[address(multiSig)] */\n      dup3\n        /* \"contracts/MultiSigWallet_flattened.sol\":9276:9308  Org[address(multiSig)] = orgName */\n      tag_43\n      jump\t// in\n    tag_42:\n      pop\n      sub(shl(0xa0, 0x01), 0x01)\n        /* \"contracts/MultiSigWallet_flattened.sol\":9318:9350  OrgOwnerEmail[address(multiSig)] */\n      dup2\n      and\n      0x00\n      swap1\n      dup2\n      mstore\n        /* \"contracts/MultiSigWallet_flattened.sol\":9318:9331  OrgOwnerEmail */\n      0x03\n        /* \"contracts/MultiSigWallet_flattened.sol\":9318:9350  OrgOwnerEmail[address(multiSig)] */\n      0x20\n      mstore\n      0x40\n      swap1\n      keccak256\n        /* \"contracts/MultiSigWallet_flattened.sol\":9318:9361  OrgOwnerEmail[address(multiSig)] = orgEmail */\n      tag_44\n        /* \"contracts/MultiSigWallet_flattened.sol\":9353:9361  orgEmail */\n      dup5\n        /* \"contracts/MultiSigWallet_flattened.sol\":9318:9350  OrgOwnerEmail[address(multiSig)] */\n      dup3\n        /* \"contracts/MultiSigWallet_flattened.sol\":9318:9361  OrgOwnerEmail[address(multiSig)] = orgEmail */\n      tag_43\n      jump\t// in\n    tag_44:\n      pop\n        /* \"contracts/MultiSigWallet_flattened.sol\":9420:9428  multiSig */\n      dup1\n      sub(shl(0xa0, 0x01), 0x01)\n        /* \"contracts/MultiSigWallet_flattened.sol\":9376:9517  Create(... */\n      and\n        /* \"contracts/MultiSigWallet_flattened.sol\":9396:9398  id */\n      dup3\n        /* \"contracts/MultiSigWallet_flattened.sol\":9376:9517  Create(... */\n      0x8e7afa2cfd444b14c15f2c5a27041b913dfe206302b391e01c241cb58ade0337\n        /* \"contracts/MultiSigWallet_flattened.sol\":9443:9453  msg.sender */\n      caller\n        /* \"contracts/MultiSigWallet_flattened.sol\":9467:9474  _owners */\n      dup10\n        /* \"contracts/MultiSigWallet_flattened.sol\":9488:9507  _signaturesRequired */\n      dup10\n        /* \"contracts/MultiSigWallet_flattened.sol\":9376:9517  Create(... */\n      mload(0x40)\n      tag_45\n      swap4\n      swap3\n      swap2\n      swap1\n      tag_46\n      jump\t// in\n    tag_45:\n      mload(0x40)\n      dup1\n      swap2\n      sub\n      swap1\n      log3\n        /* \"contracts/MultiSigWallet_flattened.sol\":9567:9586  _signaturesRequired */\n      dup5\n        /* \"contracts/MultiSigWallet_flattened.sol\":9547:9555  multiSig */\n      dup2\n      sub(shl(0xa0, 0x01), 0x01)\n        /* \"contracts/MultiSigWallet_flattened.sol\":9532:9587  Owners(address(multiSig), _owners, _signaturesRequired) */\n      and\n      0x767d0acba39e4cf96349b168ed9d32211fb4940be0f3549d31154941785c9b6a\n        /* \"contracts/MultiSigWallet_flattened.sol\":9558:9565  _owners */\n      dup9\n        /* \"contracts/MultiSigWallet_flattened.sol\":9532:9587  Owners(address(multiSig), _owners, _signaturesRequired) */\n      mload(0x40)\n      tag_47\n      swap2\n      swap1\n      tag_48\n      jump\t// in\n    tag_47:\n      mload(0x40)\n      dup1\n      swap2\n      sub\n      swap1\n      log3\n        /* \"contracts/MultiSigWallet_flattened.sol\":8953:9594  {... */\n      pop\n      pop\n        /* \"contracts/MultiSigWallet_flattened.sol\":8756:9594  function create(... */\n      pop\n      pop\n      pop\n      pop\n      pop\n      jump\t// out\n        /* \"contracts/MultiSigWallet_flattened.sol\":9705:10278  function getMultiSig(uint256 _index)... */\n    tag_20:\n        /* \"contracts/MultiSigWallet_flattened.sol\":9800:9823  address multiSigAddress */\n      0x00\n        /* \"contracts/MultiSigWallet_flattened.sol\":9837:9863  uint256 signaturesRequired */\n      dup1\n        /* \"contracts/MultiSigWallet_flattened.sol\":9877:9892  uint256 balance */\n      0x00\n        /* \"contracts/MultiSigWallet_flattened.sol\":9906:9936  string memory organizationName */\n      0x60\n        /* \"contracts/MultiSigWallet_flattened.sol\":9950:9981  string memory organizationEmail */\n      dup1\n        /* \"contracts/MultiSigWallet_flattened.sol\":10006:10029  MultiSigWallet multiSig */\n      0x00\n        /* \"contracts/MultiSigWallet_flattened.sol\":10032:10041  multiSigs */\n      dup1\n        /* \"contracts/MultiSigWallet_flattened.sol\":10042:10048  _index */\n      dup8\n        /* \"contracts/MultiSigWallet_flattened.sol\":10032:10049  multiSigs[_index] */\n      dup2\n      sload\n      dup2\n      lt\n      tag_52\n      jumpi\n      tag_52\n      tag_53\n      jump\t// in\n    tag_52:\n      swap1\n      0x00\n      mstore\n      keccak256(0x00, 0x20)\n      add\n      0x00\n      swap1\n      sload\n      swap1\n      0x0100\n      exp\n      swap1\n      div\n      sub(shl(0xa0, 0x01), 0x01)\n      and\n        /* \"contracts/MultiSigWallet_flattened.sol\":10006:10049  MultiSigWallet multiSig = multiSigs[_index] */\n      swap1\n      pop\n        /* \"contracts/MultiSigWallet_flattened.sol\":10088:10096  multiSig */\n      dup1\n        /* \"contracts/MultiSigWallet_flattened.sol\":10111:10119  multiSig */\n      dup2\n      sub(shl(0xa0, 0x01), 0x01)\n        /* \"contracts/MultiSigWallet_flattened.sol\":10111:10138  multiSig.signaturesRequired */\n      and\n      0xce757d29\n        /* \"contracts/MultiSigWallet_flattened.sol\":10111:10140  multiSig.signaturesRequired() */\n      mload(0x40)\n      dup2\n      0xffffffff\n      and\n      0xe0\n      shl\n      dup2\n      mstore\n      0x04\n      add\n      0x20\n      mload(0x40)\n      dup1\n      dup4\n      sub\n      dup2\n      dup7\n      gas\n      staticcall\n      iszero\n      dup1\n      iszero\n      tag_56\n      jumpi\n      returndatasize\n      0x00\n      dup1\n      returndatacopy\n      revert(0x00, returndatasize)\n    tag_56:\n      pop\n      pop\n      pop\n      pop\n      mload(0x40)\n      returndatasize\n      not(0x1f)\n      0x1f\n      dup3\n      add\n      and\n      dup3\n      add\n      dup1\n      0x40\n      mstore\n      pop\n      dup2\n      add\n      swap1\n      tag_57\n      swap2\n      swap1\n      tag_58\n      jump\t// in\n    tag_57:\n      sub(shl(0xa0, 0x01), 0x01)\n        /* \"contracts/MultiSigWallet_flattened.sol\":10154:10179  address(multiSig).balance */\n      dup4\n      and\n        /* \"contracts/MultiSigWallet_flattened.sol\":10193:10215  Org[address(multiSig)] */\n      0x00\n      dup2\n      dup2\n      mstore\n        /* \"contracts/MultiSigWallet_flattened.sol\":10193:10196  Org */\n      0x02\n        /* \"contracts/MultiSigWallet_flattened.sol\":10193:10215  Org[address(multiSig)] */\n      0x20\n      swap1\n      dup2\n      mstore\n      0x40\n      dup1\n      dup4\n      keccak256\n        /* \"contracts/MultiSigWallet_flattened.sol\":10229:10242  OrgOwnerEmail */\n      0x03\n        /* \"contracts/MultiSigWallet_flattened.sol\":10229:10261  OrgOwnerEmail[address(multiSig)] */\n      swap1\n      swap3\n      mstore\n      swap1\n      swap2\n      keccak256\n        /* \"contracts/MultiSigWallet_flattened.sol\":10059:10271  return (... */\n      dup2\n      sload\n        /* \"contracts/MultiSigWallet_flattened.sol\":10154:10179  address(multiSig).balance */\n      swap3\n      balance\n      swap3\n        /* \"contracts/MultiSigWallet_flattened.sol\":10193:10215  Org[address(multiSig)] */\n      dup3\n      swap1\n        /* \"contracts/MultiSigWallet_flattened.sol\":10059:10271  return (... */\n      tag_59\n      swap1\n      tag_60\n      jump\t// in\n    tag_59:\n      dup1\n      0x1f\n      add\n      0x20\n      dup1\n      swap2\n      div\n      mul\n      0x20\n      add\n      mload(0x40)\n      swap1\n      dup2\n      add\n      0x40\n      mstore\n      dup1\n      swap3\n      swap2\n      swap1\n      dup2\n      dup2\n      mstore\n      0x20\n      add\n      dup3\n      dup1\n      sload\n      tag_61\n      swap1\n      tag_60\n      jump\t// in\n    tag_61:\n      dup1\n      iszero\n      tag_62\n      jumpi\n      dup1\n      0x1f\n      lt\n      tag_63\n      jumpi\n      0x0100\n      dup1\n      dup4\n      sload\n      div\n      mul\n      dup4\n      mstore\n      swap2\n      0x20\n      add\n      swap2\n      jump(tag_62)\n    tag_63:\n      dup3\n      add\n      swap2\n      swap1\n      0x00\n      mstore\n      keccak256(0x00, 0x20)\n      swap1\n    tag_64:\n      dup2\n      sload\n      dup2\n      mstore\n      swap1\n      0x01\n      add\n      swap1\n      0x20\n      add\n      dup1\n      dup4\n      gt\n      tag_64\n      jumpi\n      dup3\n      swap1\n      sub\n      0x1f\n      and\n      dup3\n      add\n      swap2\n    tag_62:\n      pop\n      pop\n      pop\n      pop\n      pop\n      swap2\n      pop\n      dup1\n      dup1\n      sload\n      tag_65\n      swap1\n      tag_60\n      jump\t// in\n    tag_65:\n      dup1\n      0x1f\n      add\n      0x20\n      dup1\n      swap2\n      div\n      mul\n      0x20\n      add\n      mload(0x40)\n      swap1\n      dup2\n      add\n      0x40\n      mstore\n      dup1\n      swap3\n      swap2\n      swap1\n      dup2\n      dup2\n      mstore\n      0x20\n      add\n      dup3\n      dup1\n      sload\n      tag_66\n      swap1\n      tag_60\n      jump\t// in\n    tag_66:\n      dup1\n      iszero\n      tag_67\n      jumpi\n      dup1\n      0x1f\n      lt\n      tag_68\n      jumpi\n      0x0100\n      dup1\n      dup4\n      sload\n      div\n      mul\n      dup4\n      mstore\n      swap2\n      0x20\n      add\n      swap2\n      jump(tag_67)\n    tag_68:\n      dup3\n      add\n      swap2\n      swap1\n      0x00\n      mstore\n      keccak256(0x00, 0x20)\n      swap1\n    tag_69:\n      dup2\n      sload\n      dup2\n      mstore\n      swap1\n      0x01\n      add\n      swap1\n      0x20\n      add\n      dup1\n      dup4\n      gt\n      tag_69\n      jumpi\n      dup3\n      swap1\n      sub\n      0x1f\n      and\n      dup3\n      add\n      swap2\n    tag_67:\n      pop\n      pop\n      pop\n      pop\n      pop\n      swap1\n      pop\n      swap6\n      pop\n      swap6\n      pop\n      swap6\n      pop\n      swap6\n      pop\n      swap6\n      pop\n      pop\n        /* \"contracts/MultiSigWallet_flattened.sol\":9705:10278  function getMultiSig(uint256 _index)... */\n      swap2\n      swap4\n      swap6\n      swap1\n      swap3\n      swap5\n      pop\n      jump\t// out\n        /* \"contracts/MultiSigWallet_flattened.sol\":8519:8750  function emitOwners(... */\n    tag_27:\n        /* \"contracts/MultiSigWallet_flattened.sol\":8423:8433  msg.sender */\n      caller\n        /* \"contracts/MultiSigWallet_flattened.sol\":8408:8434  existsMultiSig[msg.sender] */\n      0x00\n      swap1\n      dup2\n      mstore\n        /* \"contracts/MultiSigWallet_flattened.sol\":8408:8422  existsMultiSig */\n      0x01\n        /* \"contracts/MultiSigWallet_flattened.sol\":8408:8434  existsMultiSig[msg.sender] */\n      0x20\n      mstore\n      0x40\n      swap1\n      keccak256\n      sload\n      0xff\n      and\n        /* \"contracts/MultiSigWallet_flattened.sol\":8387:8495  require(... */\n      tag_71\n      jumpi\n      mload(0x40)\n      shl(0xe5, 0x461bcd)\n      dup2\n      mstore\n        /* \"#utility.yul\":9555:9557   */\n      0x20\n        /* \"contracts/MultiSigWallet_flattened.sol\":8387:8495  require(... */\n      0x04\n      dup3\n      add\n        /* \"#utility.yul\":9537:9558   */\n      mstore\n        /* \"#utility.yul\":9594:9596   */\n      0x23\n        /* \"#utility.yul\":9574:9592   */\n      0x24\n      dup3\n      add\n        /* \"#utility.yul\":9567:9597   */\n      mstore\n        /* \"#utility.yul\":9633:9667   */\n      0x63616c6c6572206e6f74207265676973746572656420746f20757365206c6f67\n        /* \"#utility.yul\":9613:9631   */\n      0x44\n      dup3\n      add\n        /* \"#utility.yul\":9606:9668   */\n      mstore\n      shl(0xe9, 0x33b2b9)\n        /* \"#utility.yul\":9684:9702   */\n      0x64\n      dup3\n      add\n        /* \"#utility.yul\":9677:9710   */\n      mstore\n        /* \"#utility.yul\":9727:9746   */\n      0x84\n      add\n        /* \"contracts/MultiSigWallet_flattened.sol\":8387:8495  require(... */\n      mload(0x40)\n      dup1\n      swap2\n      sub\n      swap1\n      revert\n    tag_71:\n        /* \"contracts/MultiSigWallet_flattened.sol\":8723:8742  _signaturesRequired */\n      dup1\n        /* \"contracts/MultiSigWallet_flattened.sol\":8696:8712  _contractAddress */\n      dup4\n      sub(shl(0xa0, 0x01), 0x01)\n        /* \"contracts/MultiSigWallet_flattened.sol\":8689:8743  Owners(_contractAddress, _owners, _signaturesRequired) */\n      and\n      0x767d0acba39e4cf96349b168ed9d32211fb4940be0f3549d31154941785c9b6a\n        /* \"contracts/MultiSigWallet_flattened.sol\":8714:8721  _owners */\n      dup5\n        /* \"contracts/MultiSigWallet_flattened.sol\":8689:8743  Owners(_contractAddress, _owners, _signaturesRequired) */\n      mload(0x40)\n      tag_75\n      swap2\n      swap1\n      tag_48\n      jump\t// in\n    tag_75:\n      mload(0x40)\n      dup1\n      swap2\n      sub\n      swap1\n      log3\n        /* \"contracts/MultiSigWallet_flattened.sol\":8519:8750  function emitOwners(... */\n      pop\n      pop\n      pop\n      jump\t// out\n        /* \"contracts/MultiSigWallet_flattened.sol\":7837:7870  MultiSigWallet[] public multiSigs */\n    tag_31:\n      0x00\n      dup2\n      dup2\n      sload\n      dup2\n      lt\n      tag_76\n      jumpi\n      0x00\n      dup1\n      revert\n    tag_76:\n      0x00\n      swap2\n      dup3\n      mstore\n      0x20\n      swap1\n      swap2\n      keccak256\n      add\n      sload\n      sub(shl(0xa0, 0x01), 0x01)\n      and\n      swap1\n      pop\n      dup2\n      jump\t// out\n    tag_37:\n      dataSize(sub_0)\n      dup1\n      dataOffset(sub_0)\n      dup4\n      codecopy\n      add\n      swap1\n      jump\t// out\n        /* \"#utility.yul\":14:141   */\n    tag_78:\n        /* \"#utility.yul\":75:85   */\n      0x4e487b71\n        /* \"#utility.yul\":70:73   */\n      0xe0\n        /* \"#utility.yul\":66:86   */\n      shl\n        /* \"#utility.yul\":63:64   */\n      0x00\n        /* \"#utility.yul\":56:87   */\n      mstore\n        /* \"#utility.yul\":106:110   */\n      0x41\n        /* \"#utility.yul\":103:104   */\n      0x04\n        /* \"#utility.yul\":96:111   */\n      mstore\n        /* \"#utility.yul\":130:134   */\n      0x24\n        /* \"#utility.yul\":127:128   */\n      0x00\n        /* \"#utility.yul\":120:135   */\n      revert\n        /* \"#utility.yul\":146:421   */\n    tag_79:\n        /* \"#utility.yul\":217:219   */\n      0x40\n        /* \"#utility.yul\":211:220   */\n      mload\n        /* \"#utility.yul\":282:284   */\n      0x1f\n        /* \"#utility.yul\":263:276   */\n      dup3\n      add\n      not(0x1f)\n        /* \"#utility.yul\":259:286   */\n      and\n        /* \"#utility.yul\":247:287   */\n      dup2\n      add\n        /* \"#utility.yul\":317:335   */\n      0xffffffffffffffff\n        /* \"#utility.yul\":302:336   */\n      dup2\n      gt\n        /* \"#utility.yul\":338:360   */\n      dup3\n      dup3\n      lt\n        /* \"#utility.yul\":299:361   */\n      or\n        /* \"#utility.yul\":296:384   */\n      iszero\n      tag_92\n      jumpi\n        /* \"#utility.yul\":364:382   */\n      tag_92\n      tag_78\n      jump\t// in\n    tag_92:\n        /* \"#utility.yul\":400:402   */\n      0x40\n        /* \"#utility.yul\":393:415   */\n      mstore\n        /* \"#utility.yul\":146:421   */\n      swap2\n      swap1\n      pop\n      jump\t// out\n        /* \"#utility.yul\":426:599   */\n    tag_80:\n        /* \"#utility.yul\":494:514   */\n      dup1\n      calldataload\n      sub(shl(0xa0, 0x01), 0x01)\n        /* \"#utility.yul\":543:574   */\n      dup2\n      and\n        /* \"#utility.yul\":533:575   */\n      dup2\n      eq\n        /* \"#utility.yul\":523:593   */\n      tag_94\n      jumpi\n        /* \"#utility.yul\":589:590   */\n      0x00\n        /* \"#utility.yul\":586:587   */\n      dup1\n        /* \"#utility.yul\":579:591   */\n      revert\n        /* \"#utility.yul\":523:593   */\n    tag_94:\n        /* \"#utility.yul\":426:599   */\n      swap2\n      swap1\n      pop\n      jump\t// out\n        /* \"#utility.yul\":604:1322   */\n    tag_81:\n        /* \"#utility.yul\":658:663   */\n      0x00\n        /* \"#utility.yul\":711:714   */\n      dup3\n        /* \"#utility.yul\":704:708   */\n      0x1f\n        /* \"#utility.yul\":696:702   */\n      dup4\n        /* \"#utility.yul\":692:709   */\n      add\n        /* \"#utility.yul\":688:715   */\n      slt\n        /* \"#utility.yul\":678:733   */\n      tag_96\n      jumpi\n        /* \"#utility.yul\":729:730   */\n      0x00\n        /* \"#utility.yul\":726:727   */\n      dup1\n        /* \"#utility.yul\":719:731   */\n      revert\n        /* \"#utility.yul\":678:733   */\n    tag_96:\n        /* \"#utility.yul\":765:771   */\n      dup2\n        /* \"#utility.yul\":752:772   */\n      calldataload\n        /* \"#utility.yul\":791:795   */\n      0x20\n        /* \"#utility.yul\":814:832   */\n      0xffffffffffffffff\n        /* \"#utility.yul\":810:812   */\n      dup3\n        /* \"#utility.yul\":807:833   */\n      gt\n        /* \"#utility.yul\":804:856   */\n      iszero\n      tag_98\n      jumpi\n        /* \"#utility.yul\":836:854   */\n      tag_98\n      tag_78\n      jump\t// in\n    tag_98:\n        /* \"#utility.yul\":882:884   */\n      dup2\n        /* \"#utility.yul\":879:880   */\n      0x05\n        /* \"#utility.yul\":875:885   */\n      shl\n        /* \"#utility.yul\":905:933   */\n      tag_99\n        /* \"#utility.yul\":929:931   */\n      dup3\n        /* \"#utility.yul\":925:927   */\n      dup3\n        /* \"#utility.yul\":921:932   */\n      add\n        /* \"#utility.yul\":905:933   */\n      tag_79\n      jump\t// in\n    tag_99:\n        /* \"#utility.yul\":967:982   */\n      swap3\n      dup4\n      mstore\n        /* \"#utility.yul\":1037:1052   */\n      dup5\n      dup2\n      add\n        /* \"#utility.yul\":1033:1057   */\n      dup3\n      add\n      swap3\n        /* \"#utility.yul\":998:1010   */\n      dup3\n      dup2\n      add\n      swap1\n        /* \"#utility.yul\":1069:1084   */\n      dup8\n      dup6\n      gt\n        /* \"#utility.yul\":1066:1101   */\n      iszero\n      tag_100\n      jumpi\n        /* \"#utility.yul\":1097:1098   */\n      0x00\n        /* \"#utility.yul\":1094:1095   */\n      dup1\n        /* \"#utility.yul\":1087:1099   */\n      revert\n        /* \"#utility.yul\":1066:1101   */\n    tag_100:\n        /* \"#utility.yul\":1133:1135   */\n      dup4\n        /* \"#utility.yul\":1125:1131   */\n      dup8\n        /* \"#utility.yul\":1121:1136   */\n      add\n        /* \"#utility.yul\":1110:1136   */\n      swap3\n      pop\n        /* \"#utility.yul\":1145:1293   */\n    tag_101:\n        /* \"#utility.yul\":1161:1167   */\n      dup5\n        /* \"#utility.yul\":1156:1159   */\n      dup4\n        /* \"#utility.yul\":1153:1168   */\n      lt\n        /* \"#utility.yul\":1145:1293   */\n      iszero\n      tag_103\n      jumpi\n        /* \"#utility.yul\":1227:1250   */\n      tag_104\n        /* \"#utility.yul\":1246:1249   */\n      dup4\n        /* \"#utility.yul\":1227:1250   */\n      tag_80\n      jump\t// in\n    tag_104:\n        /* \"#utility.yul\":1215:1251   */\n      dup3\n      mstore\n        /* \"#utility.yul\":1178:1190   */\n      swap2\n      dup4\n      add\n      swap2\n        /* \"#utility.yul\":1271:1283   */\n      swap1\n      dup4\n      add\n      swap1\n        /* \"#utility.yul\":1145:1293   */\n      jump(tag_101)\n    tag_103:\n        /* \"#utility.yul\":1311:1316   */\n      swap8\n        /* \"#utility.yul\":604:1322   */\n      swap7\n      pop\n      pop\n      pop\n      pop\n      pop\n      pop\n      pop\n      jump\t// out\n        /* \"#utility.yul\":1327:1858   */\n    tag_82:\n        /* \"#utility.yul\":1370:1375   */\n      0x00\n        /* \"#utility.yul\":1423:1426   */\n      dup3\n        /* \"#utility.yul\":1416:1420   */\n      0x1f\n        /* \"#utility.yul\":1408:1414   */\n      dup4\n        /* \"#utility.yul\":1404:1421   */\n      add\n        /* \"#utility.yul\":1400:1427   */\n      slt\n        /* \"#utility.yul\":1390:1445   */\n      tag_106\n      jumpi\n        /* \"#utility.yul\":1441:1442   */\n      0x00\n        /* \"#utility.yul\":1438:1439   */\n      dup1\n        /* \"#utility.yul\":1431:1443   */\n      revert\n        /* \"#utility.yul\":1390:1445   */\n    tag_106:\n        /* \"#utility.yul\":1477:1483   */\n      dup2\n        /* \"#utility.yul\":1464:1484   */\n      calldataload\n        /* \"#utility.yul\":1503:1521   */\n      0xffffffffffffffff\n        /* \"#utility.yul\":1499:1501   */\n      dup2\n        /* \"#utility.yul\":1496:1522   */\n      gt\n        /* \"#utility.yul\":1493:1545   */\n      iszero\n      tag_108\n      jumpi\n        /* \"#utility.yul\":1525:1543   */\n      tag_108\n      tag_78\n      jump\t// in\n    tag_108:\n        /* \"#utility.yul\":1569:1624   */\n      tag_109\n        /* \"#utility.yul\":1612:1614   */\n      0x1f\n        /* \"#utility.yul\":1593:1606   */\n      dup3\n      add\n      not(0x1f)\n        /* \"#utility.yul\":1589:1616   */\n      and\n        /* \"#utility.yul\":1618:1622   */\n      0x20\n        /* \"#utility.yul\":1585:1623   */\n      add\n        /* \"#utility.yul\":1569:1624   */\n      tag_79\n      jump\t// in\n    tag_109:\n        /* \"#utility.yul\":1649:1651   */\n      dup2\n        /* \"#utility.yul\":1640:1647   */\n      dup2\n        /* \"#utility.yul\":1633:1652   */\n      mstore\n        /* \"#utility.yul\":1695:1698   */\n      dup5\n        /* \"#utility.yul\":1688:1692   */\n      0x20\n        /* \"#utility.yul\":1683:1685   */\n      dup4\n        /* \"#utility.yul\":1675:1681   */\n      dup7\n        /* \"#utility.yul\":1671:1686   */\n      add\n        /* \"#utility.yul\":1667:1693   */\n      add\n        /* \"#utility.yul\":1664:1699   */\n      gt\n        /* \"#utility.yul\":1661:1716   */\n      iszero\n      tag_110\n      jumpi\n        /* \"#utility.yul\":1712:1713   */\n      0x00\n        /* \"#utility.yul\":1709:1710   */\n      dup1\n        /* \"#utility.yul\":1702:1714   */\n      revert\n        /* \"#utility.yul\":1661:1716   */\n    tag_110:\n        /* \"#utility.yul\":1777:1779   */\n      dup2\n        /* \"#utility.yul\":1770:1774   */\n      0x20\n        /* \"#utility.yul\":1762:1768   */\n      dup6\n        /* \"#utility.yul\":1758:1775   */\n      add\n        /* \"#utility.yul\":1751:1755   */\n      0x20\n        /* \"#utility.yul\":1742:1749   */\n      dup4\n        /* \"#utility.yul\":1738:1756   */\n      add\n        /* \"#utility.yul\":1725:1780   */\n      calldatacopy\n        /* \"#utility.yul\":1825:1826   */\n      0x00\n        /* \"#utility.yul\":1800:1816   */\n      swap2\n      dup2\n      add\n        /* \"#utility.yul\":1818:1822   */\n      0x20\n        /* \"#utility.yul\":1796:1823   */\n      add\n        /* \"#utility.yul\":1789:1827   */\n      swap2\n      swap1\n      swap2\n      mstore\n        /* \"#utility.yul\":1804:1811   */\n      swap4\n        /* \"#utility.yul\":1327:1858   */\n      swap3\n      pop\n      pop\n      pop\n      jump\t// out\n        /* \"#utility.yul\":1863:2770   */\n    tag_9:\n        /* \"#utility.yul\":2003:2009   */\n      0x00\n        /* \"#utility.yul\":2011:2017   */\n      dup1\n        /* \"#utility.yul\":2019:2025   */\n      0x00\n        /* \"#utility.yul\":2027:2033   */\n      dup1\n        /* \"#utility.yul\":2035:2041   */\n      0x00\n        /* \"#utility.yul\":2088:2091   */\n      0xa0\n        /* \"#utility.yul\":2076:2085   */\n      dup7\n        /* \"#utility.yul\":2067:2074   */\n      dup9\n        /* \"#utility.yul\":2063:2086   */\n      sub\n        /* \"#utility.yul\":2059:2092   */\n      slt\n        /* \"#utility.yul\":2056:2109   */\n      iszero\n      tag_112\n      jumpi\n        /* \"#utility.yul\":2105:2106   */\n      0x00\n        /* \"#utility.yul\":2102:2103   */\n      dup1\n        /* \"#utility.yul\":2095:2107   */\n      revert\n        /* \"#utility.yul\":2056:2109   */\n    tag_112:\n        /* \"#utility.yul\":2141:2150   */\n      dup6\n        /* \"#utility.yul\":2128:2151   */\n      calldataload\n        /* \"#utility.yul\":2118:2151   */\n      swap5\n      pop\n        /* \"#utility.yul\":2202:2204   */\n      0x20\n        /* \"#utility.yul\":2191:2200   */\n      dup7\n        /* \"#utility.yul\":2187:2205   */\n      add\n        /* \"#utility.yul\":2174:2206   */\n      calldataload\n        /* \"#utility.yul\":2225:2243   */\n      0xffffffffffffffff\n        /* \"#utility.yul\":2266:2268   */\n      dup1\n        /* \"#utility.yul\":2258:2264   */\n      dup3\n        /* \"#utility.yul\":2255:2269   */\n      gt\n        /* \"#utility.yul\":2252:2286   */\n      iszero\n      tag_113\n      jumpi\n        /* \"#utility.yul\":2282:2283   */\n      0x00\n        /* \"#utility.yul\":2279:2280   */\n      dup1\n        /* \"#utility.yul\":2272:2284   */\n      revert\n        /* \"#utility.yul\":2252:2286   */\n    tag_113:\n        /* \"#utility.yul\":2305:2366   */\n      tag_114\n        /* \"#utility.yul\":2358:2365   */\n      dup10\n        /* \"#utility.yul\":2349:2355   */\n      dup4\n        /* \"#utility.yul\":2338:2347   */\n      dup11\n        /* \"#utility.yul\":2334:2356   */\n      add\n        /* \"#utility.yul\":2305:2366   */\n      tag_81\n      jump\t// in\n    tag_114:\n        /* \"#utility.yul\":2295:2366   */\n      swap6\n      pop\n        /* \"#utility.yul\":2413:2415   */\n      0x40\n        /* \"#utility.yul\":2402:2411   */\n      dup9\n        /* \"#utility.yul\":2398:2416   */\n      add\n        /* \"#utility.yul\":2385:2417   */\n      calldataload\n        /* \"#utility.yul\":2375:2417   */\n      swap5\n      pop\n        /* \"#utility.yul\":2470:2472   */\n      0x60\n        /* \"#utility.yul\":2459:2468   */\n      dup9\n        /* \"#utility.yul\":2455:2473   */\n      add\n        /* \"#utility.yul\":2442:2474   */\n      calldataload\n        /* \"#utility.yul\":2426:2474   */\n      swap2\n      pop\n        /* \"#utility.yul\":2499:2501   */\n      dup1\n        /* \"#utility.yul\":2489:2497   */\n      dup3\n        /* \"#utility.yul\":2486:2502   */\n      gt\n        /* \"#utility.yul\":2483:2519   */\n      iszero\n      tag_115\n      jumpi\n        /* \"#utility.yul\":2515:2516   */\n      0x00\n        /* \"#utility.yul\":2512:2513   */\n      dup1\n        /* \"#utility.yul\":2505:2517   */\n      revert\n        /* \"#utility.yul\":2483:2519   */\n    tag_115:\n        /* \"#utility.yul\":2538:2590   */\n      tag_116\n        /* \"#utility.yul\":2582:2589   */\n      dup10\n        /* \"#utility.yul\":2571:2579   */\n      dup4\n        /* \"#utility.yul\":2560:2569   */\n      dup11\n        /* \"#utility.yul\":2556:2580   */\n      add\n        /* \"#utility.yul\":2538:2590   */\n      tag_82\n      jump\t// in\n    tag_116:\n        /* \"#utility.yul\":2528:2590   */\n      swap4\n      pop\n        /* \"#utility.yul\":2643:2646   */\n      0x80\n        /* \"#utility.yul\":2632:2641   */\n      dup9\n        /* \"#utility.yul\":2628:2647   */\n      add\n        /* \"#utility.yul\":2615:2648   */\n      calldataload\n        /* \"#utility.yul\":2599:2648   */\n      swap2\n      pop\n        /* \"#utility.yul\":2673:2675   */\n      dup1\n        /* \"#utility.yul\":2663:2671   */\n      dup3\n        /* \"#utility.yul\":2660:2676   */\n      gt\n        /* \"#utility.yul\":2657:2693   */\n      iszero\n      tag_117\n      jumpi\n        /* \"#utility.yul\":2689:2690   */\n      0x00\n        /* \"#utility.yul\":2686:2687   */\n      dup1\n        /* \"#utility.yul\":2679:2691   */\n      revert\n        /* \"#utility.yul\":2657:2693   */\n    tag_117:\n      pop\n        /* \"#utility.yul\":2712:2764   */\n      tag_118\n        /* \"#utility.yul\":2756:2763   */\n      dup9\n        /* \"#utility.yul\":2745:2753   */\n      dup3\n        /* \"#utility.yul\":2734:2743   */\n      dup10\n        /* \"#utility.yul\":2730:2754   */\n      add\n        /* \"#utility.yul\":2712:2764   */\n      tag_82\n      jump\t// in\n    tag_118:\n        /* \"#utility.yul\":2702:2764   */\n      swap2\n      pop\n      pop\n        /* \"#utility.yul\":1863:2770   */\n      swap3\n      swap6\n      pop\n      swap3\n      swap6\n      swap1\n      swap4\n      pop\n      jump\t// out\n        /* \"#utility.yul\":2957:3137   */\n    tag_19:\n        /* \"#utility.yul\":3016:3022   */\n      0x00\n        /* \"#utility.yul\":3069:3071   */\n      0x20\n        /* \"#utility.yul\":3057:3066   */\n      dup3\n        /* \"#utility.yul\":3048:3055   */\n      dup5\n        /* \"#utility.yul\":3044:3067   */\n      sub\n        /* \"#utility.yul\":3040:3072   */\n      slt\n        /* \"#utility.yul\":3037:3089   */\n      iszero\n      tag_121\n      jumpi\n        /* \"#utility.yul\":3085:3086   */\n      0x00\n        /* \"#utility.yul\":3082:3083   */\n      dup1\n        /* \"#utility.yul\":3075:3087   */\n      revert\n        /* \"#utility.yul\":3037:3089   */\n    tag_121:\n      pop\n        /* \"#utility.yul\":3108:3131   */\n      calldataload\n      swap2\n        /* \"#utility.yul\":2957:3137   */\n      swap1\n      pop\n      jump\t// out\n        /* \"#utility.yul\":3142:3431   */\n    tag_83:\n        /* \"#utility.yul\":3184:3187   */\n      0x00\n        /* \"#utility.yul\":3222:3227   */\n      dup2\n        /* \"#utility.yul\":3216:3228   */\n      mload\n        /* \"#utility.yul\":3249:3255   */\n      dup1\n        /* \"#utility.yul\":3244:3247   */\n      dup5\n        /* \"#utility.yul\":3237:3256   */\n      mstore\n        /* \"#utility.yul\":3305:3311   */\n      dup1\n        /* \"#utility.yul\":3298:3302   */\n      0x20\n        /* \"#utility.yul\":3291:3296   */\n      dup5\n        /* \"#utility.yul\":3287:3303   */\n      add\n        /* \"#utility.yul\":3280:3284   */\n      0x20\n        /* \"#utility.yul\":3275:3278   */\n      dup7\n        /* \"#utility.yul\":3271:3285   */\n      add\n        /* \"#utility.yul\":3265:3312   */\n      mcopy\n        /* \"#utility.yul\":3357:3358   */\n      0x00\n        /* \"#utility.yul\":3350:3354   */\n      0x20\n        /* \"#utility.yul\":3341:3347   */\n      dup3\n        /* \"#utility.yul\":3336:3339   */\n      dup7\n        /* \"#utility.yul\":3332:3348   */\n      add\n        /* \"#utility.yul\":3328:3355   */\n      add\n        /* \"#utility.yul\":3321:3359   */\n      mstore\n        /* \"#utility.yul\":3420:3424   */\n      0x20\n        /* \"#utility.yul\":3413:3415   */\n      0x1f\n        /* \"#utility.yul\":3409:3416   */\n      not\n        /* \"#utility.yul\":3404:3406   */\n      0x1f\n        /* \"#utility.yul\":3396:3402   */\n      dup4\n        /* \"#utility.yul\":3392:3407   */\n      add\n        /* \"#utility.yul\":3388:3417   */\n      and\n        /* \"#utility.yul\":3383:3386   */\n      dup6\n        /* \"#utility.yul\":3379:3418   */\n      add\n        /* \"#utility.yul\":3375:3425   */\n      add\n        /* \"#utility.yul\":3368:3425   */\n      swap2\n      pop\n      pop\n        /* \"#utility.yul\":3142:3431   */\n      swap3\n      swap2\n      pop\n      pop\n      jump\t// out\n        /* \"#utility.yul\":3436:4061   */\n    tag_22:\n        /* \"#utility.yul\":3746:3747   */\n      0x01\n        /* \"#utility.yul\":3742:3743   */\n      dup1\n        /* \"#utility.yul\":3737:3740   */\n      0xa0\n        /* \"#utility.yul\":3733:3744   */\n      shl\n        /* \"#utility.yul\":3729:3748   */\n      sub\n        /* \"#utility.yul\":3721:3727   */\n      dup7\n        /* \"#utility.yul\":3717:3749   */\n      and\n        /* \"#utility.yul\":3706:3715   */\n      dup2\n        /* \"#utility.yul\":3699:3750   */\n      mstore\n        /* \"#utility.yul\":3786:3792   */\n      dup5\n        /* \"#utility.yul\":3781:3783   */\n      0x20\n        /* \"#utility.yul\":3770:3779   */\n      dup3\n        /* \"#utility.yul\":3766:3784   */\n      add\n        /* \"#utility.yul\":3759:3793   */\n      mstore\n        /* \"#utility.yul\":3829:3835   */\n      dup4\n        /* \"#utility.yul\":3824:3826   */\n      0x40\n        /* \"#utility.yul\":3813:3822   */\n      dup3\n        /* \"#utility.yul\":3809:3827   */\n      add\n        /* \"#utility.yul\":3802:3836   */\n      mstore\n        /* \"#utility.yul\":3872:3875   */\n      0xa0\n        /* \"#utility.yul\":3867:3869   */\n      0x60\n        /* \"#utility.yul\":3856:3865   */\n      dup3\n        /* \"#utility.yul\":3852:3870   */\n      add\n        /* \"#utility.yul\":3845:3876   */\n      mstore\n        /* \"#utility.yul\":3680:3684   */\n      0x00\n        /* \"#utility.yul\":3899:3945   */\n      tag_124\n        /* \"#utility.yul\":3940:3943   */\n      0xa0\n        /* \"#utility.yul\":3929:3938   */\n      dup4\n        /* \"#utility.yul\":3925:3944   */\n      add\n        /* \"#utility.yul\":3917:3923   */\n      dup6\n        /* \"#utility.yul\":3899:3945   */\n      tag_83\n      jump\t// in\n    tag_124:\n        /* \"#utility.yul\":3994:4003   */\n      dup3\n        /* \"#utility.yul\":3986:3992   */\n      dup2\n        /* \"#utility.yul\":3982:4004   */\n      sub\n        /* \"#utility.yul\":3976:3979   */\n      0x80\n        /* \"#utility.yul\":3965:3974   */\n      dup5\n        /* \"#utility.yul\":3961:3980   */\n      add\n        /* \"#utility.yul\":3954:4005   */\n      mstore\n        /* \"#utility.yul\":4022:4055   */\n      tag_125\n        /* \"#utility.yul\":4048:4054   */\n      dup2\n        /* \"#utility.yul\":4040:4046   */\n      dup6\n        /* \"#utility.yul\":4022:4055   */\n      tag_83\n      jump\t// in\n    tag_125:\n        /* \"#utility.yul\":4014:4055   */\n      swap9\n        /* \"#utility.yul\":3436:4061   */\n      swap8\n      pop\n      pop\n      pop\n      pop\n      pop\n      pop\n      pop\n      pop\n      jump\t// out\n        /* \"#utility.yul\":4066:4556   */\n    tag_26:\n        /* \"#utility.yul\":4168:4174   */\n      0x00\n        /* \"#utility.yul\":4176:4182   */\n      dup1\n        /* \"#utility.yul\":4184:4190   */\n      0x00\n        /* \"#utility.yul\":4237:4239   */\n      0x60\n        /* \"#utility.yul\":4225:4234   */\n      dup5\n        /* \"#utility.yul\":4216:4223   */\n      dup7\n        /* \"#utility.yul\":4212:4235   */\n      sub\n        /* \"#utility.yul\":4208:4240   */\n      slt\n        /* \"#utility.yul\":4205:4257   */\n      iszero\n      tag_127\n      jumpi\n        /* \"#utility.yul\":4253:4254   */\n      0x00\n        /* \"#utility.yul\":4250:4251   */\n      dup1\n        /* \"#utility.yul\":4243:4255   */\n      revert\n        /* \"#utility.yul\":4205:4257   */\n    tag_127:\n        /* \"#utility.yul\":4276:4305   */\n      tag_128\n        /* \"#utility.yul\":4295:4304   */\n      dup5\n        /* \"#utility.yul\":4276:4305   */\n      tag_80\n      jump\t// in\n    tag_128:\n        /* \"#utility.yul\":4266:4305   */\n      swap3\n      pop\n        /* \"#utility.yul\":4356:4358   */\n      0x20\n        /* \"#utility.yul\":4345:4354   */\n      dup5\n        /* \"#utility.yul\":4341:4359   */\n      add\n        /* \"#utility.yul\":4328:4360   */\n      calldataload\n        /* \"#utility.yul\":4383:4401   */\n      0xffffffffffffffff\n        /* \"#utility.yul\":4375:4381   */\n      dup2\n        /* \"#utility.yul\":4372:4402   */\n      gt\n        /* \"#utility.yul\":4369:4419   */\n      iszero\n      tag_129\n      jumpi\n        /* \"#utility.yul\":4415:4416   */\n      0x00\n        /* \"#utility.yul\":4412:4413   */\n      dup1\n        /* \"#utility.yul\":4405:4417   */\n      revert\n        /* \"#utility.yul\":4369:4419   */\n    tag_129:\n        /* \"#utility.yul\":4438:4499   */\n      tag_130\n        /* \"#utility.yul\":4491:4498   */\n      dup7\n        /* \"#utility.yul\":4482:4488   */\n      dup3\n        /* \"#utility.yul\":4471:4480   */\n      dup8\n        /* \"#utility.yul\":4467:4489   */\n      add\n        /* \"#utility.yul\":4438:4499   */\n      tag_81\n      jump\t// in\n    tag_130:\n        /* \"#utility.yul\":4428:4499   */\n      swap3\n      pop\n      pop\n        /* \"#utility.yul\":4546:4548   */\n      0x40\n        /* \"#utility.yul\":4535:4544   */\n      dup5\n        /* \"#utility.yul\":4531:4549   */\n      add\n        /* \"#utility.yul\":4518:4550   */\n      calldataload\n        /* \"#utility.yul\":4508:4550   */\n      swap1\n      pop\n        /* \"#utility.yul\":4066:4556   */\n      swap3\n      pop\n      swap3\n      pop\n      swap3\n      jump\t// out\n        /* \"#utility.yul\":4800:5265   */\n    tag_84:\n        /* \"#utility.yul\":4853:4856   */\n      0x00\n        /* \"#utility.yul\":4891:4896   */\n      dup2\n        /* \"#utility.yul\":4885:4897   */\n      mload\n        /* \"#utility.yul\":4918:4924   */\n      dup1\n        /* \"#utility.yul\":4913:4916   */\n      dup5\n        /* \"#utility.yul\":4906:4925   */\n      mstore\n        /* \"#utility.yul\":4944:4948   */\n      0x20\n        /* \"#utility.yul\":4973:4977   */\n      dup1\n        /* \"#utility.yul\":4968:4971   */\n      dup6\n        /* \"#utility.yul\":4964:4978   */\n      add\n        /* \"#utility.yul\":4957:4978   */\n      swap5\n      pop\n        /* \"#utility.yul\":5012:5016   */\n      0x20\n        /* \"#utility.yul\":5005:5010   */\n      dup5\n        /* \"#utility.yul\":5001:5017   */\n      add\n        /* \"#utility.yul\":5035:5036   */\n      0x00\n        /* \"#utility.yul\":5045:5240   */\n    tag_133:\n        /* \"#utility.yul\":5059:5065   */\n      dup4\n        /* \"#utility.yul\":5056:5057   */\n      dup2\n        /* \"#utility.yul\":5053:5066   */\n      lt\n        /* \"#utility.yul\":5045:5240   */\n      iszero\n      tag_135\n      jumpi\n        /* \"#utility.yul\":5124:5137   */\n      dup2\n      mload\n      sub(shl(0xa0, 0x01), 0x01)\n        /* \"#utility.yul\":5120:5159   */\n      and\n        /* \"#utility.yul\":5108:5160   */\n      dup8\n      mstore\n        /* \"#utility.yul\":5180:5192   */\n      swap6\n      dup3\n      add\n      swap6\n        /* \"#utility.yul\":5215:5230   */\n      swap1\n      dup3\n      add\n      swap1\n        /* \"#utility.yul\":5156:5157   */\n      0x01\n        /* \"#utility.yul\":5074:5083   */\n      add\n        /* \"#utility.yul\":5045:5240   */\n      jump(tag_133)\n    tag_135:\n      pop\n        /* \"#utility.yul\":5256:5259   */\n      swap5\n      swap6\n        /* \"#utility.yul\":4800:5265   */\n      swap5\n      pop\n      pop\n      pop\n      pop\n      pop\n      jump\t// out\n        /* \"#utility.yul\":5270:5772   */\n    tag_39:\n        /* \"#utility.yul\":5533:5539   */\n      dup5\n        /* \"#utility.yul\":5522:5531   */\n      dup2\n        /* \"#utility.yul\":5515:5540   */\n      mstore\n        /* \"#utility.yul\":5576:5579   */\n      0x80\n        /* \"#utility.yul\":5571:5573   */\n      0x20\n        /* \"#utility.yul\":5560:5569   */\n      dup3\n        /* \"#utility.yul\":5556:5574   */\n      add\n        /* \"#utility.yul\":5549:5580   */\n      mstore\n        /* \"#utility.yul\":5496:5500   */\n      0x00\n        /* \"#utility.yul\":5597:5654   */\n      tag_137\n        /* \"#utility.yul\":5649:5652   */\n      0x80\n        /* \"#utility.yul\":5638:5647   */\n      dup4\n        /* \"#utility.yul\":5634:5653   */\n      add\n        /* \"#utility.yul\":5626:5632   */\n      dup7\n        /* \"#utility.yul\":5597:5654   */\n      tag_84\n      jump\t// in\n    tag_137:\n        /* \"#utility.yul\":5685:5687   */\n      0x40\n        /* \"#utility.yul\":5670:5688   */\n      dup4\n      add\n        /* \"#utility.yul\":5663:5697   */\n      swap5\n      swap1\n      swap5\n      mstore\n      pop\n      sub(shl(0xa0, 0x01), 0x01)\n        /* \"#utility.yul\":5733:5765   */\n      swap2\n      swap1\n      swap2\n      and\n        /* \"#utility.yul\":5728:5730   */\n      0x60\n        /* \"#utility.yul\":5713:5731   */\n      swap1\n      swap2\n      add\n        /* \"#utility.yul\":5706:5766   */\n      mstore\n        /* \"#utility.yul\":5589:5654   */\n      swap3\n        /* \"#utility.yul\":5270:5772   */\n      swap2\n      pop\n      pop\n      jump\t// out\n        /* \"#utility.yul\":5777:6157   */\n    tag_60:\n        /* \"#utility.yul\":5856:5857   */\n      0x01\n        /* \"#utility.yul\":5852:5864   */\n      dup2\n      dup2\n      shr\n      swap1\n        /* \"#utility.yul\":5899:5911   */\n      dup3\n      and\n      dup1\n        /* \"#utility.yul\":5920:5981   */\n      tag_139\n      jumpi\n        /* \"#utility.yul\":5974:5978   */\n      0x7f\n        /* \"#utility.yul\":5966:5972   */\n      dup3\n        /* \"#utility.yul\":5962:5979   */\n      and\n        /* \"#utility.yul\":5952:5979   */\n      swap2\n      pop\n        /* \"#utility.yul\":5920:5981   */\n    tag_139:\n        /* \"#utility.yul\":6027:6029   */\n      0x20\n        /* \"#utility.yul\":6019:6025   */\n      dup3\n        /* \"#utility.yul\":6016:6030   */\n      lt\n        /* \"#utility.yul\":5996:6014   */\n      dup2\n        /* \"#utility.yul\":5993:6031   */\n      sub\n        /* \"#utility.yul\":5990:6151   */\n      tag_140\n      jumpi\n        /* \"#utility.yul\":6073:6083   */\n      0x4e487b71\n        /* \"#utility.yul\":6068:6071   */\n      0xe0\n        /* \"#utility.yul\":6064:6084   */\n      shl\n        /* \"#utility.yul\":6061:6062   */\n      0x00\n        /* \"#utility.yul\":6054:6085   */\n      mstore\n        /* \"#utility.yul\":6108:6112   */\n      0x22\n        /* \"#utility.yul\":6105:6106   */\n      0x04\n        /* \"#utility.yul\":6098:6113   */\n      mstore\n        /* \"#utility.yul\":6136:6140   */\n      0x24\n        /* \"#utility.yul\":6133:6134   */\n      0x00\n        /* \"#utility.yul\":6126:6141   */\n      revert\n        /* \"#utility.yul\":5990:6151   */\n    tag_140:\n      pop\n        /* \"#utility.yul\":5777:6157   */\n      swap2\n      swap1\n      pop\n      jump\t// out\n        /* \"#utility.yul\":6288:6806   */\n    tag_86:\n        /* \"#utility.yul\":6390:6392   */\n      0x1f\n        /* \"#utility.yul\":6385:6388   */\n      dup3\n        /* \"#utility.yul\":6382:6393   */\n      gt\n        /* \"#utility.yul\":6379:6800   */\n      iszero\n      tag_143\n      jumpi\n        /* \"#utility.yul\":6426:6431   */\n      dup1\n        /* \"#utility.yul\":6423:6424   */\n      0x00\n        /* \"#utility.yul\":6416:6432   */\n      mstore\n        /* \"#utility.yul\":6470:6474   */\n      0x20\n        /* \"#utility.yul\":6467:6468   */\n      0x00\n        /* \"#utility.yul\":6457:6475   */\n      keccak256\n        /* \"#utility.yul\":6540:6542   */\n      0x1f\n        /* \"#utility.yul\":6528:6538   */\n      dup5\n        /* \"#utility.yul\":6524:6543   */\n      add\n        /* \"#utility.yul\":6521:6522   */\n      0x05\n        /* \"#utility.yul\":6517:6544   */\n      shr\n        /* \"#utility.yul\":6511:6515   */\n      dup2\n        /* \"#utility.yul\":6507:6545   */\n      add\n        /* \"#utility.yul\":6576:6580   */\n      0x20\n        /* \"#utility.yul\":6564:6574   */\n      dup6\n        /* \"#utility.yul\":6561:6581   */\n      lt\n        /* \"#utility.yul\":6558:6605   */\n      iszero\n      tag_144\n      jumpi\n      pop\n        /* \"#utility.yul\":6599:6603   */\n      dup1\n        /* \"#utility.yul\":6558:6605   */\n    tag_144:\n        /* \"#utility.yul\":6654:6656   */\n      0x1f\n        /* \"#utility.yul\":6649:6652   */\n      dup5\n        /* \"#utility.yul\":6645:6657   */\n      add\n        /* \"#utility.yul\":6642:6643   */\n      0x05\n        /* \"#utility.yul\":6638:6658   */\n      shr\n        /* \"#utility.yul\":6632:6636   */\n      dup3\n        /* \"#utility.yul\":6628:6659   */\n      add\n        /* \"#utility.yul\":6618:6659   */\n      swap2\n      pop\n        /* \"#utility.yul\":6709:6790   */\n    tag_145:\n        /* \"#utility.yul\":6727:6729   */\n      dup2\n        /* \"#utility.yul\":6720:6725   */\n      dup2\n        /* \"#utility.yul\":6717:6730   */\n      lt\n        /* \"#utility.yul\":6709:6790   */\n      iszero\n      tag_147\n      jumpi\n        /* \"#utility.yul\":6786:6787   */\n      0x00\n        /* \"#utility.yul\":6772:6788   */\n      dup2\n      sstore\n        /* \"#utility.yul\":6753:6754   */\n      0x01\n        /* \"#utility.yul\":6742:6755   */\n      add\n        /* \"#utility.yul\":6709:6790   */\n      jump(tag_145)\n    tag_147:\n        /* \"#utility.yul\":6713:6716   */\n      pop\n      pop\n        /* \"#utility.yul\":6379:6800   */\n    tag_143:\n        /* \"#utility.yul\":6288:6806   */\n      pop\n      pop\n      pop\n      jump\t// out\n        /* \"#utility.yul\":6982:8327   */\n    tag_43:\n        /* \"#utility.yul\":7108:7111   */\n      dup2\n        /* \"#utility.yul\":7102:7112   */\n      mload\n        /* \"#utility.yul\":7135:7153   */\n      0xffffffffffffffff\n        /* \"#utility.yul\":7127:7133   */\n      dup2\n        /* \"#utility.yul\":7124:7154   */\n      gt\n        /* \"#utility.yul\":7121:7177   */\n      iszero\n      tag_151\n      jumpi\n        /* \"#utility.yul\":7157:7175   */\n      tag_151\n      tag_78\n      jump\t// in\n    tag_151:\n        /* \"#utility.yul\":7186:7283   */\n      tag_152\n        /* \"#utility.yul\":7276:7282   */\n      dup2\n        /* \"#utility.yul\":7236:7274   */\n      tag_153\n        /* \"#utility.yul\":7268:7272   */\n      dup5\n        /* \"#utility.yul\":7262:7273   */\n      sload\n        /* \"#utility.yul\":7236:7274   */\n      tag_60\n      jump\t// in\n    tag_153:\n        /* \"#utility.yul\":7230:7234   */\n      dup5\n        /* \"#utility.yul\":7186:7283   */\n      tag_86\n      jump\t// in\n    tag_152:\n        /* \"#utility.yul\":7338:7342   */\n      0x20\n      dup1\n        /* \"#utility.yul\":7395:7397   */\n      0x1f\n        /* \"#utility.yul\":7384:7398   */\n      dup4\n      gt\n        /* \"#utility.yul\":7412:7413   */\n      0x01\n        /* \"#utility.yul\":7407:8070   */\n      dup2\n      eq\n      tag_155\n      jumpi\n        /* \"#utility.yul\":8114:8115   */\n      0x00\n        /* \"#utility.yul\":8131:8137   */\n      dup5\n        /* \"#utility.yul\":8128:8217   */\n      iszero\n      tag_156\n      jumpi\n      pop\n        /* \"#utility.yul\":8183:8202   */\n      dup6\n      dup4\n      add\n        /* \"#utility.yul\":8177:8203   */\n      mload\n        /* \"#utility.yul\":8128:8217   */\n    tag_156:\n      not(0x00)\n        /* \"#utility.yul\":6939:6940   */\n      0x03\n        /* \"#utility.yul\":6935:6946   */\n      dup7\n      swap1\n      shl\n        /* \"#utility.yul\":6931:6955   */\n      shr\n        /* \"#utility.yul\":6927:6956   */\n      not\n        /* \"#utility.yul\":6917:6957   */\n      and\n        /* \"#utility.yul\":6963:6964   */\n      0x01\n        /* \"#utility.yul\":6959:6970   */\n      dup6\n      swap1\n      shl\n        /* \"#utility.yul\":6914:6971   */\n      or\n        /* \"#utility.yul\":8230:8311   */\n      dup6\n      sstore\n        /* \"#utility.yul\":7377:8321   */\n      jump(tag_154)\n        /* \"#utility.yul\":7407:8070   */\n    tag_155:\n        /* \"#utility.yul\":6235:6236   */\n      0x00\n        /* \"#utility.yul\":6228:6242   */\n      dup6\n      dup2\n      mstore\n        /* \"#utility.yul\":6272:6276   */\n      0x20\n        /* \"#utility.yul\":6259:6277   */\n      dup2\n      keccak256\n      not(0x1f)\n        /* \"#utility.yul\":7443:7463   */\n      dup7\n      and\n      swap2\n        /* \"#utility.yul\":7561:7797   */\n    tag_159:\n        /* \"#utility.yul\":7575:7582   */\n      dup3\n        /* \"#utility.yul\":7572:7573   */\n      dup2\n        /* \"#utility.yul\":7569:7583   */\n      lt\n        /* \"#utility.yul\":7561:7797   */\n      iszero\n      tag_161\n      jumpi\n        /* \"#utility.yul\":7664:7683   */\n      dup9\n      dup7\n      add\n        /* \"#utility.yul\":7658:7684   */\n      mload\n        /* \"#utility.yul\":7643:7685   */\n      dup3\n      sstore\n        /* \"#utility.yul\":7756:7783   */\n      swap5\n      dup5\n      add\n      swap5\n        /* \"#utility.yul\":7724:7725   */\n      0x01\n        /* \"#utility.yul\":7712:7726   */\n      swap1\n      swap2\n      add\n      swap1\n        /* \"#utility.yul\":7591:7610   */\n      dup5\n      add\n        /* \"#utility.yul\":7561:7797   */\n      jump(tag_159)\n    tag_161:\n        /* \"#utility.yul\":7565:7568   */\n      pop\n        /* \"#utility.yul\":7825:7831   */\n      dup6\n        /* \"#utility.yul\":7816:7823   */\n      dup3\n        /* \"#utility.yul\":7813:7832   */\n      lt\n        /* \"#utility.yul\":7810:8011   */\n      iszero\n      tag_162\n      jumpi\n        /* \"#utility.yul\":7886:7905   */\n      dup8\n      dup6\n      add\n        /* \"#utility.yul\":7880:7906   */\n      mload\n      not(0x00)\n        /* \"#utility.yul\":7969:7970   */\n      0x03\n        /* \"#utility.yul\":7965:7979   */\n      dup9\n      swap1\n      shl\n        /* \"#utility.yul\":7981:7984   */\n      0xf8\n        /* \"#utility.yul\":7961:7985   */\n      and\n        /* \"#utility.yul\":7957:7994   */\n      shr\n        /* \"#utility.yul\":7953:7995   */\n      not\n        /* \"#utility.yul\":7938:7996   */\n      and\n        /* \"#utility.yul\":7923:7997   */\n      dup2\n      sstore\n        /* \"#utility.yul\":7810:8011   */\n    tag_162:\n      pop\n      pop\n        /* \"#utility.yul\":8057:8058   */\n      0x01\n        /* \"#utility.yul\":8048:8054   */\n      dup5\n        /* \"#utility.yul\":8045:8046   */\n      0x01\n        /* \"#utility.yul\":8041:8055   */\n      shl\n        /* \"#utility.yul\":8037:8059   */\n      add\n        /* \"#utility.yul\":8031:8035   */\n      dup6\n        /* \"#utility.yul\":8024:8060   */\n      sstore\n        /* \"#utility.yul\":7377:8321   */\n    tag_154:\n      pop\n      pop\n      pop\n      pop\n        /* \"#utility.yul\":6982:8327   */\n      pop\n      pop\n      jump\t// out\n        /* \"#utility.yul\":8332:8761   */\n    tag_46:\n      sub(shl(0xa0, 0x01), 0x01)\n        /* \"#utility.yul\":8567:8599   */\n      dup5\n      and\n        /* \"#utility.yul\":8549:8600   */\n      dup2\n      mstore\n        /* \"#utility.yul\":8636:8638   */\n      0x60\n        /* \"#utility.yul\":8631:8633   */\n      0x20\n        /* \"#utility.yul\":8616:8634   */\n      dup3\n      add\n        /* \"#utility.yul\":8609:8639   */\n      dup2\n      swap1\n      mstore\n      0x00\n      swap1\n        /* \"#utility.yul\":8656:8712   */\n      tag_164\n      swap1\n        /* \"#utility.yul\":8693:8711   */\n      dup4\n      add\n        /* \"#utility.yul\":8685:8691   */\n      dup6\n        /* \"#utility.yul\":8656:8712   */\n      tag_84\n      jump\t// in\n    tag_164:\n        /* \"#utility.yul\":8648:8712   */\n      swap1\n      pop\n        /* \"#utility.yul\":8748:8754   */\n      dup3\n        /* \"#utility.yul\":8743:8745   */\n      0x40\n        /* \"#utility.yul\":8732:8741   */\n      dup4\n        /* \"#utility.yul\":8728:8746   */\n      add\n        /* \"#utility.yul\":8721:8755   */\n      mstore\n        /* \"#utility.yul\":8332:8761   */\n      swap5\n      swap4\n      pop\n      pop\n      pop\n      pop\n      jump\t// out\n        /* \"#utility.yul\":8766:9027   */\n    tag_48:\n        /* \"#utility.yul\":8945:8947   */\n      0x20\n        /* \"#utility.yul\":8934:8943   */\n      dup2\n        /* \"#utility.yul\":8927:8948   */\n      mstore\n        /* \"#utility.yul\":8908:8912   */\n      0x00\n        /* \"#utility.yul\":8965:9021   */\n      tag_166\n        /* \"#utility.yul\":9017:9019   */\n      0x20\n        /* \"#utility.yul\":9006:9015   */\n      dup4\n        /* \"#utility.yul\":9002:9020   */\n      add\n        /* \"#utility.yul\":8994:9000   */\n      dup5\n        /* \"#utility.yul\":8965:9021   */\n      tag_84\n      jump\t// in\n    tag_166:\n        /* \"#utility.yul\":8957:9021   */\n      swap4\n        /* \"#utility.yul\":8766:9027   */\n      swap3\n      pop\n      pop\n      pop\n      jump\t// out\n        /* \"#utility.yul\":9032:9159   */\n    tag_53:\n        /* \"#utility.yul\":9093:9103   */\n      0x4e487b71\n        /* \"#utility.yul\":9088:9091   */\n      0xe0\n        /* \"#utility.yul\":9084:9104   */\n      shl\n        /* \"#utility.yul\":9081:9082   */\n      0x00\n        /* \"#utility.yul\":9074:9105   */\n      mstore\n        /* \"#utility.yul\":9124:9128   */\n      0x32\n        /* \"#utility.yul\":9121:9122   */\n      0x04\n        /* \"#utility.yul\":9114:9129   */\n      mstore\n        /* \"#utility.yul\":9148:9152   */\n      0x24\n        /* \"#utility.yul\":9145:9146   */\n      0x00\n        /* \"#utility.yul\":9138:9153   */\n      revert\n        /* \"#utility.yul\":9164:9348   */\n    tag_58:\n        /* \"#utility.yul\":9234:9240   */\n      0x00\n        /* \"#utility.yul\":9287:9289   */\n      0x20\n        /* \"#utility.yul\":9275:9284   */\n      dup3\n        /* \"#utility.yul\":9266:9273   */\n      dup5\n        /* \"#utility.yul\":9262:9285   */\n      sub\n        /* \"#utility.yul\":9258:9290   */\n      slt\n        /* \"#utility.yul\":9255:9307   */\n      iszero\n      tag_169\n      jumpi\n        /* \"#utility.yul\":9303:9304   */\n      0x00\n        /* \"#utility.yul\":9300:9301   */\n      dup1\n        /* \"#utility.yul\":9293:9305   */\n      revert\n        /* \"#utility.yul\":9255:9307   */\n    tag_169:\n      pop\n        /* \"#utility.yul\":9326:9342   */\n      mload\n      swap2\n        /* \"#utility.yul\":9164:9348   */\n      swap1\n      pop\n      jump\t// out\n    stop\n\n    sub_0: assembly {\n            /* \"contracts/MultiSigWallet_flattened.sol\":11507:20210  contract MultiSigWallet is IMultiSigWallet{... */\n          mstore(0x40, 0x80)\n            /* \"contracts/MultiSigWallet_flattened.sol\":12616:13311  constructor(... */\n          mload(0x40)\n          sub(codesize, bytecodeSize)\n          dup1\n          bytecodeSize\n          dup4\n          codecopy\n          dup2\n          add\n          0x40\n          dup2\n          swap1\n          mstore\n          tag_1\n          swap2\n          tag_2\n          jump\t// in\n        tag_1:\n            /* \"contracts/MultiSigWallet_flattened.sol\":12790:12809  _signaturesRequired */\n          dup2\n            /* \"contracts/MultiSigWallet_flattened.sol\":12556:12557  0 */\n          0x00\n            /* \"contracts/MultiSigWallet_flattened.sol\":12534:12553  _signaturesRequired */\n          dup2\n            /* \"contracts/MultiSigWallet_flattened.sol\":12534:12557  _signaturesRequired > 0 */\n          gt\n            /* \"contracts/MultiSigWallet_flattened.sol\":12526:12592  require(_signaturesRequired > 0, \"Must be non-zero sigs required\") */\n          tag_5\n          jumpi\n          mload(0x40)\n          shl(0xe5, 0x461bcd)\n          dup2\n          mstore\n            /* \"#utility.yul\":1872:1874   */\n          0x20\n            /* \"contracts/MultiSigWallet_flattened.sol\":12526:12592  require(_signaturesRequired > 0, \"Must be non-zero sigs required\") */\n          0x04\n          dup3\n          add\n            /* \"#utility.yul\":1854:1875   */\n          mstore\n            /* \"#utility.yul\":1911:1913   */\n          0x1e\n            /* \"#utility.yul\":1891:1909   */\n          0x24\n          dup3\n          add\n            /* \"#utility.yul\":1884:1914   */\n          mstore\n            /* \"#utility.yul\":1950:1982   */\n          0x4d757374206265206e6f6e2d7a65726f20736967732072657175697265640000\n            /* \"#utility.yul\":1930:1948   */\n          0x44\n          dup3\n          add\n            /* \"#utility.yul\":1923:1983   */\n          mstore\n            /* \"#utility.yul\":2000:2018   */\n          0x64\n          add\n            /* \"contracts/MultiSigWallet_flattened.sol\":12526:12592  require(_signaturesRequired > 0, \"Must be non-zero sigs required\") */\n        tag_6:\n          mload(0x40)\n          dup1\n          swap2\n          sub\n          swap1\n          revert\n        tag_5:\n            /* \"contracts/MultiSigWallet_flattened.sol\":12821:12836  multiSigFactory */\n          0x00\n            /* \"contracts/MultiSigWallet_flattened.sol\":12821:12864  multiSigFactory = MultiSigFactory(_factory) */\n          dup1\n          sload\n          not(sub(shl(0xa0, 0x01), 0x01))\n          and\n          sub(shl(0xa0, 0x01), 0x01)\n          dup5\n          and\n          or\n          dup2\n          sstore\n            /* \"contracts/MultiSigWallet_flattened.sol\":12874:12892  signaturesRequired */\n          0x05\n            /* \"contracts/MultiSigWallet_flattened.sol\":12874:12914  signaturesRequired = _signaturesRequired */\n          dup5\n          swap1\n          sstore\n            /* \"contracts/MultiSigWallet_flattened.sol\":12924:13276  for (uint256 i = 0; i < _owners.length; i++) {... */\n        tag_9:\n            /* \"contracts/MultiSigWallet_flattened.sol\":12948:12955  _owners */\n          dup5\n            /* \"contracts/MultiSigWallet_flattened.sol\":12948:12962  _owners.length */\n          mload\n            /* \"contracts/MultiSigWallet_flattened.sol\":12944:12945  i */\n          dup2\n            /* \"contracts/MultiSigWallet_flattened.sol\":12944:12962  i < _owners.length */\n          lt\n            /* \"contracts/MultiSigWallet_flattened.sol\":12924:13276  for (uint256 i = 0; i < _owners.length; i++) {... */\n          iszero\n          tag_10\n          jumpi\n            /* \"contracts/MultiSigWallet_flattened.sol\":12983:12996  address owner */\n          0x00\n            /* \"contracts/MultiSigWallet_flattened.sol\":12999:13006  _owners */\n          dup6\n            /* \"contracts/MultiSigWallet_flattened.sol\":13007:13008  i */\n          dup3\n            /* \"contracts/MultiSigWallet_flattened.sol\":12999:13009  _owners[i] */\n          dup2\n          mload\n          dup2\n          lt\n          tag_13\n          jumpi\n          tag_13\n          tag_14\n          jump\t// in\n        tag_13:\n          0x20\n          mul\n          0x20\n          add\n          add\n          mload\n            /* \"contracts/MultiSigWallet_flattened.sol\":12983:13009  address owner = _owners[i] */\n          swap1\n          pop\n            /* \"contracts/MultiSigWallet_flattened.sol\":13048:13049  0 */\n          0x00\n          sub(shl(0xa0, 0x01), 0x01)\n            /* \"contracts/MultiSigWallet_flattened.sol\":13031:13050  owner != address(0) */\n          and\n            /* \"contracts/MultiSigWallet_flattened.sol\":13031:13036  owner */\n          dup2\n          sub(shl(0xa0, 0x01), 0x01)\n            /* \"contracts/MultiSigWallet_flattened.sol\":13031:13050  owner != address(0) */\n          and\n          sub\n            /* \"contracts/MultiSigWallet_flattened.sol\":13023:13080  require(owner != address(0), \"constructor: zero address\") */\n          tag_15\n          jumpi\n          mload(0x40)\n          shl(0xe5, 0x461bcd)\n          dup2\n          mstore\n            /* \"#utility.yul\":2363:2365   */\n          0x20\n            /* \"contracts/MultiSigWallet_flattened.sol\":13023:13080  require(owner != address(0), \"constructor: zero address\") */\n          0x04\n          dup3\n          add\n            /* \"#utility.yul\":2345:2366   */\n          mstore\n            /* \"#utility.yul\":2402:2404   */\n          0x19\n            /* \"#utility.yul\":2382:2400   */\n          0x24\n          dup3\n          add\n            /* \"#utility.yul\":2375:2405   */\n          mstore\n            /* \"#utility.yul\":2441:2468   */\n          0x636f6e7374727563746f723a207a65726f206164647265737300000000000000\n            /* \"#utility.yul\":2421:2439   */\n          0x44\n          dup3\n          add\n            /* \"#utility.yul\":2414:2469   */\n          mstore\n            /* \"#utility.yul\":2486:2504   */\n          0x64\n          add\n            /* \"contracts/MultiSigWallet_flattened.sol\":13023:13080  require(owner != address(0), \"constructor: zero address\") */\n          tag_6\n            /* \"#utility.yul\":2161:2510   */\n          jump\n            /* \"contracts/MultiSigWallet_flattened.sol\":13023:13080  require(owner != address(0), \"constructor: zero address\") */\n        tag_15:\n          sub(shl(0xa0, 0x01), 0x01)\n            /* \"contracts/MultiSigWallet_flattened.sol\":13103:13117  isOwner[owner] */\n          dup2\n          and\n          0x00\n          swap1\n          dup2\n          mstore\n            /* \"contracts/MultiSigWallet_flattened.sol\":13103:13110  isOwner */\n          0x01\n            /* \"contracts/MultiSigWallet_flattened.sol\":13103:13117  isOwner[owner] */\n          0x20\n          mstore\n          0x40\n          swap1\n          keccak256\n          sload\n          0xff\n          and\n            /* \"contracts/MultiSigWallet_flattened.sol\":13102:13117  !isOwner[owner] */\n          iszero\n            /* \"contracts/MultiSigWallet_flattened.sol\":13094:13151  require(!isOwner[owner], \"constructor: owner not unique\") */\n          tag_18\n          jumpi\n          mload(0x40)\n          shl(0xe5, 0x461bcd)\n          dup2\n          mstore\n            /* \"#utility.yul\":2717:2719   */\n          0x20\n            /* \"contracts/MultiSigWallet_flattened.sol\":13094:13151  require(!isOwner[owner], \"constructor: owner not unique\") */\n          0x04\n          dup3\n          add\n            /* \"#utility.yul\":2699:2720   */\n          mstore\n            /* \"#utility.yul\":2756:2758   */\n          0x1d\n            /* \"#utility.yul\":2736:2754   */\n          0x24\n          dup3\n          add\n            /* \"#utility.yul\":2729:2759   */\n          mstore\n            /* \"#utility.yul\":2795:2826   */\n          0x636f6e7374727563746f723a206f776e6572206e6f7420756e69717565000000\n            /* \"#utility.yul\":2775:2793   */\n          0x44\n          dup3\n          add\n            /* \"#utility.yul\":2768:2827   */\n          mstore\n            /* \"#utility.yul\":2844:2862   */\n          0x64\n          add\n            /* \"contracts/MultiSigWallet_flattened.sol\":13094:13151  require(!isOwner[owner], \"constructor: owner not unique\") */\n          tag_6\n            /* \"#utility.yul\":2515:2868   */\n          jump\n            /* \"contracts/MultiSigWallet_flattened.sol\":13094:13151  require(!isOwner[owner], \"constructor: owner not unique\") */\n        tag_18:\n          sub(shl(0xa0, 0x01), 0x01)\n            /* \"contracts/MultiSigWallet_flattened.sol\":13165:13179  isOwner[owner] */\n          dup2\n          and\n          0x00\n          dup2\n          dup2\n          mstore\n            /* \"contracts/MultiSigWallet_flattened.sol\":13182:13186  true */\n          0x01\n            /* \"contracts/MultiSigWallet_flattened.sol\":13165:13179  isOwner[owner] */\n          0x20\n          dup2\n          dup2\n          mstore\n          0x40\n          swap3\n          dup4\n          swap1\n          keccak256\n            /* \"contracts/MultiSigWallet_flattened.sol\":13165:13186  isOwner[owner] = true */\n          dup1\n          sload\n          not(0xff)\n          and\n          dup4\n          or\n          dup2\n          sstore\n            /* \"contracts/MultiSigWallet_flattened.sol\":13200:13206  owners */\n          0x04\n            /* \"contracts/MultiSigWallet_flattened.sol\":13200:13218  owners.push(owner) */\n          dup1\n          sload\n          swap4\n          dup5\n          add\n          swap1\n          sstore\n          0x8a35acfbc15ff81a39ae7d344fd709f28e8600b4aa8c65c6b64bfe7fe36bd19b\n          swap1\n          swap3\n          add\n          dup1\n          sload\n          not(sub(shl(0xa0, 0x01), 0x01))\n          and\n          dup6\n          or\n          swap1\n          sstore\n            /* \"contracts/MultiSigWallet_flattened.sol\":13250:13264  isOwner[owner] */\n          swap1\n          sload\n            /* \"contracts/MultiSigWallet_flattened.sol\":13237:13265  Owner(owner, isOwner[owner]) */\n          swap2\n          mload\n            /* \"contracts/MultiSigWallet_flattened.sol\":13165:13186  isOwner[owner] = true */\n          0xff\n            /* \"contracts/MultiSigWallet_flattened.sol\":13250:13264  isOwner[owner] */\n          swap1\n          swap3\n          and\n            /* \"#utility.yul\":3038:3052   */\n          iszero\n            /* \"#utility.yul\":3031:3053   */\n          iszero\n            /* \"#utility.yul\":3013:3054   */\n          dup3\n          mstore\n            /* \"contracts/MultiSigWallet_flattened.sol\":13237:13265  Owner(owner, isOwner[owner]) */\n          0xfe545f48304051c4029eb2da9927daa59da0414b4b084fdceaf2955b609b899e\n          swap2\n            /* \"#utility.yul\":2986:3004   */\n          add\n            /* \"contracts/MultiSigWallet_flattened.sol\":13237:13265  Owner(owner, isOwner[owner]) */\n          mload(0x40)\n          dup1\n          swap2\n          sub\n          swap1\n          log2\n          pop\n            /* \"contracts/MultiSigWallet_flattened.sol\":12964:12967  i++ */\n          0x01\n          add\n            /* \"contracts/MultiSigWallet_flattened.sol\":12924:13276  for (uint256 i = 0; i < _owners.length; i++) {... */\n          jump(tag_9)\n        tag_10:\n          pop\n          pop\n          pop\n            /* \"contracts/MultiSigWallet_flattened.sol\":13286:13293  chainId */\n          0x07\n            /* \"contracts/MultiSigWallet_flattened.sol\":13286:13304  chainId = _chainId */\n          swap3\n          swap1\n          swap3\n          sstore\n          pop\n            /* \"contracts/MultiSigWallet_flattened.sol\":11507:20210  contract MultiSigWallet is IMultiSigWallet{... */\n          tag_27\n          swap1\n          pop\n          jump\n            /* \"#utility.yul\":14:141   */\n        tag_25:\n            /* \"#utility.yul\":75:85   */\n          0x4e487b71\n            /* \"#utility.yul\":70:73   */\n          0xe0\n            /* \"#utility.yul\":66:86   */\n          shl\n            /* \"#utility.yul\":63:64   */\n          0x00\n            /* \"#utility.yul\":56:87   */\n          mstore\n            /* \"#utility.yul\":106:110   */\n          0x41\n            /* \"#utility.yul\":103:104   */\n          0x04\n            /* \"#utility.yul\":96:111   */\n          mstore\n            /* \"#utility.yul\":130:134   */\n          0x24\n            /* \"#utility.yul\":127:128   */\n          0x00\n            /* \"#utility.yul\":120:135   */\n          revert\n            /* \"#utility.yul\":146:323   */\n        tag_26:\n            /* \"#utility.yul\":225:238   */\n          dup1\n          mload\n          sub(shl(0xa0, 0x01), 0x01)\n            /* \"#utility.yul\":267:298   */\n          dup2\n          and\n            /* \"#utility.yul\":257:299   */\n          dup2\n          eq\n            /* \"#utility.yul\":247:317   */\n          tag_30\n          jumpi\n            /* \"#utility.yul\":313:314   */\n          0x00\n            /* \"#utility.yul\":310:311   */\n          dup1\n            /* \"#utility.yul\":303:315   */\n          revert\n            /* \"#utility.yul\":247:317   */\n        tag_30:\n            /* \"#utility.yul\":146:323   */\n          swap2\n          swap1\n          pop\n          jump\t// out\n            /* \"#utility.yul\":328:1665   */\n        tag_2:\n            /* \"#utility.yul\":450:456   */\n          0x00\n            /* \"#utility.yul\":458:464   */\n          dup1\n            /* \"#utility.yul\":466:472   */\n          0x00\n            /* \"#utility.yul\":474:480   */\n          dup1\n            /* \"#utility.yul\":527:530   */\n          0x80\n            /* \"#utility.yul\":515:524   */\n          dup6\n            /* \"#utility.yul\":506:513   */\n          dup8\n            /* \"#utility.yul\":502:525   */\n          sub\n            /* \"#utility.yul\":498:531   */\n          slt\n            /* \"#utility.yul\":495:548   */\n          iszero\n          tag_32\n          jumpi\n            /* \"#utility.yul\":544:545   */\n          0x00\n            /* \"#utility.yul\":541:542   */\n          dup1\n            /* \"#utility.yul\":534:546   */\n          revert\n            /* \"#utility.yul\":495:548   */\n        tag_32:\n            /* \"#utility.yul\":567:583   */\n          dup5\n          mload\n            /* \"#utility.yul\":602:604   */\n          0x20\n            /* \"#utility.yul\":633:651   */\n          dup1\n          dup8\n          add\n            /* \"#utility.yul\":627:652   */\n          mload\n            /* \"#utility.yul\":567:583   */\n          swap2\n          swap6\n          pop\n            /* \"#utility.yul\":602:604   */\n          swap1\n          sub(shl(0x40, 0x01), 0x01)\n            /* \"#utility.yul\":701:715   */\n          dup1\n          dup3\n          gt\n            /* \"#utility.yul\":698:732   */\n          iszero\n          tag_33\n          jumpi\n            /* \"#utility.yul\":728:729   */\n          0x00\n            /* \"#utility.yul\":725:726   */\n          dup1\n            /* \"#utility.yul\":718:730   */\n          revert\n            /* \"#utility.yul\":698:732   */\n        tag_33:\n            /* \"#utility.yul\":766:772   */\n          dup2\n            /* \"#utility.yul\":755:764   */\n          dup9\n            /* \"#utility.yul\":751:773   */\n          add\n            /* \"#utility.yul\":741:773   */\n          swap2\n          pop\n            /* \"#utility.yul\":811:818   */\n          dup9\n            /* \"#utility.yul\":804:808   */\n          0x1f\n            /* \"#utility.yul\":800:802   */\n          dup4\n            /* \"#utility.yul\":796:809   */\n          add\n            /* \"#utility.yul\":792:819   */\n          slt\n            /* \"#utility.yul\":782:837   */\n          tag_34\n          jumpi\n            /* \"#utility.yul\":833:834   */\n          0x00\n            /* \"#utility.yul\":830:831   */\n          dup1\n            /* \"#utility.yul\":823:835   */\n          revert\n            /* \"#utility.yul\":782:837   */\n        tag_34:\n            /* \"#utility.yul\":862:864   */\n          dup2\n            /* \"#utility.yul\":856:865   */\n          mload\n            /* \"#utility.yul\":884:886   */\n          dup2\n            /* \"#utility.yul\":880:882   */\n          dup2\n            /* \"#utility.yul\":877:887   */\n          gt\n            /* \"#utility.yul\":874:910   */\n          iszero\n          tag_36\n          jumpi\n            /* \"#utility.yul\":890:908   */\n          tag_36\n          tag_25\n          jump\t// in\n        tag_36:\n            /* \"#utility.yul\":936:938   */\n          dup1\n            /* \"#utility.yul\":933:934   */\n          0x05\n            /* \"#utility.yul\":929:939   */\n          shl\n            /* \"#utility.yul\":968:970   */\n          0x40\n            /* \"#utility.yul\":962:971   */\n          mload\n            /* \"#utility.yul\":1031:1033   */\n          0x1f\n            /* \"#utility.yul\":1027:1034   */\n          not\n            /* \"#utility.yul\":1022:1024   */\n          0x3f\n            /* \"#utility.yul\":1018:1020   */\n          dup4\n            /* \"#utility.yul\":1014:1025   */\n          add\n            /* \"#utility.yul\":1010:1035   */\n          and\n            /* \"#utility.yul\":1002:1008   */\n          dup2\n            /* \"#utility.yul\":998:1036   */\n          add\n            /* \"#utility.yul\":1086:1092   */\n          dup2\n            /* \"#utility.yul\":1074:1084   */\n          dup2\n            /* \"#utility.yul\":1071:1093   */\n          lt\n            /* \"#utility.yul\":1066:1068   */\n          dup6\n            /* \"#utility.yul\":1054:1064   */\n          dup3\n            /* \"#utility.yul\":1051:1069   */\n          gt\n            /* \"#utility.yul\":1048:1094   */\n          or\n            /* \"#utility.yul\":1045:1117   */\n          iszero\n          tag_38\n          jumpi\n            /* \"#utility.yul\":1097:1115   */\n          tag_38\n          tag_25\n          jump\t// in\n        tag_38:\n            /* \"#utility.yul\":1133:1135   */\n          0x40\n            /* \"#utility.yul\":1126:1148   */\n          mstore\n            /* \"#utility.yul\":1183:1201   */\n          swap2\n          dup3\n          mstore\n            /* \"#utility.yul\":1217:1232   */\n          dup5\n          dup3\n          add\n          swap3\n          pop\n            /* \"#utility.yul\":1259:1270   */\n          dup4\n          dup2\n          add\n            /* \"#utility.yul\":1255:1275   */\n          dup6\n          add\n          swap2\n            /* \"#utility.yul\":1287:1306   */\n          dup12\n          dup4\n          gt\n            /* \"#utility.yul\":1284:1323   */\n          iszero\n          tag_39\n          jumpi\n            /* \"#utility.yul\":1319:1320   */\n          0x00\n            /* \"#utility.yul\":1316:1317   */\n          dup1\n            /* \"#utility.yul\":1309:1321   */\n          revert\n            /* \"#utility.yul\":1284:1323   */\n        tag_39:\n            /* \"#utility.yul\":1343:1354   */\n          swap4\n          dup6\n          add\n          swap4\n            /* \"#utility.yul\":1363:1522   */\n        tag_40:\n            /* \"#utility.yul\":1379:1385   */\n          dup3\n            /* \"#utility.yul\":1374:1377   */\n          dup6\n            /* \"#utility.yul\":1371:1386   */\n          lt\n            /* \"#utility.yul\":1363:1522   */\n          iszero\n          tag_42\n          jumpi\n            /* \"#utility.yul\":1445:1479   */\n          tag_43\n            /* \"#utility.yul\":1475:1478   */\n          dup6\n            /* \"#utility.yul\":1445:1479   */\n          tag_26\n          jump\t// in\n        tag_43:\n            /* \"#utility.yul\":1433:1480   */\n          dup5\n          mstore\n            /* \"#utility.yul\":1396:1408   */\n          swap4\n          dup6\n          add\n          swap4\n            /* \"#utility.yul\":1500:1512   */\n          swap3\n          dup6\n          add\n          swap3\n            /* \"#utility.yul\":1363:1522   */\n          jump(tag_40)\n        tag_42:\n            /* \"#utility.yul\":1541:1547   */\n          dup1\n            /* \"#utility.yul\":1531:1547   */\n          swap9\n          pop\n          pop\n          pop\n          pop\n          pop\n          pop\n          pop\n            /* \"#utility.yul\":1587:1589   */\n          0x40\n            /* \"#utility.yul\":1576:1585   */\n          dup6\n            /* \"#utility.yul\":1572:1590   */\n          add\n            /* \"#utility.yul\":1566:1591   */\n          mload\n            /* \"#utility.yul\":1556:1591   */\n          swap2\n          pop\n            /* \"#utility.yul\":1610:1659   */\n          tag_44\n            /* \"#utility.yul\":1655:1657   */\n          0x60\n            /* \"#utility.yul\":1644:1653   */\n          dup7\n            /* \"#utility.yul\":1640:1658   */\n          add\n            /* \"#utility.yul\":1610:1659   */\n          tag_26\n          jump\t// in\n        tag_44:\n            /* \"#utility.yul\":1600:1659   */\n          swap1\n          pop\n            /* \"#utility.yul\":328:1665   */\n          swap3\n          swap6\n          swap2\n          swap5\n          pop\n          swap3\n          pop\n          jump\t// out\n            /* \"#utility.yul\":2029:2156   */\n        tag_14:\n            /* \"#utility.yul\":2090:2100   */\n          0x4e487b71\n            /* \"#utility.yul\":2085:2088   */\n          0xe0\n            /* \"#utility.yul\":2081:2101   */\n          shl\n            /* \"#utility.yul\":2078:2079   */\n          0x00\n            /* \"#utility.yul\":2071:2102   */\n          mstore\n            /* \"#utility.yul\":2121:2125   */\n          0x32\n            /* \"#utility.yul\":2118:2119   */\n          0x04\n            /* \"#utility.yul\":2111:2126   */\n          mstore\n            /* \"#utility.yul\":2145:2149   */\n          0x24\n            /* \"#utility.yul\":2142:2143   */\n          0x00\n            /* \"#utility.yul\":2135:2150   */\n          revert\n            /* \"#utility.yul\":2873:3060   */\n        tag_27:\n            /* \"contracts/MultiSigWallet_flattened.sol\":11507:20210  contract MultiSigWallet is IMultiSigWallet{... */\n          dataSize(sub_0)\n          dup1\n          dataOffset(sub_0)\n          0x00\n          codecopy\n          0x00\n          return\n        stop\n\n        sub_0: assembly {\n                /* \"contracts/MultiSigWallet_flattened.sol\":11507:20210  contract MultiSigWallet is IMultiSigWallet{... */\n              mstore(0x40, 0x80)\n              jumpi(tag_1, lt(calldatasize, 0x04))\n              shr(0xe0, calldataload(0x00))\n              dup1\n              0x7708072c\n              gt\n              tag_19\n              jumpi\n              dup1\n              0xa157b0ae\n              gt\n              tag_20\n              jumpi\n              dup1\n              0xa157b0ae\n              eq\n              tag_15\n              jumpi\n              dup1\n              0xaffed0e0\n              eq\n              tag_16\n              jumpi\n              dup1\n              0xce757d29\n              eq\n              tag_17\n              jumpi\n              dup1\n              0xf2b0bb6b\n              eq\n              tag_18\n              jumpi\n              0x00\n              dup1\n              revert\n            tag_20:\n              dup1\n              0x7708072c\n              eq\n              tag_11\n              jumpi\n              dup1\n              0x7c72596e\n              eq\n              tag_12\n              jumpi\n              dup1\n              0x95a3ac74\n              eq\n              tag_13\n              jumpi\n              dup1\n              0x9a8a0592\n              eq\n              tag_14\n              jumpi\n              0x00\n              dup1\n              revert\n            tag_19:\n              dup1\n              0x1f919f77\n              gt\n              tag_21\n              jumpi\n              dup1\n              0x1f919f77\n              eq\n              tag_7\n              jumpi\n              dup1\n              0x2f54bf6e\n              eq\n              tag_8\n              jumpi\n              dup1\n              0x3aaa4771\n              eq\n              tag_9\n              jumpi\n              dup1\n              0x627cdcb9\n              eq\n              tag_10\n              jumpi\n              0x00\n              dup1\n              revert\n            tag_21:\n              dup1\n              0x019010f6\n              eq\n              tag_3\n              jumpi\n              dup1\n              0x025e7c27\n              eq\n              tag_4\n              jumpi\n              dup1\n              0x14c2fa0d\n              eq\n              tag_5\n              jumpi\n              dup1\n              0x19045a25\n              eq\n              tag_6\n              jumpi\n              0x00\n              dup1\n              revert\n            tag_1:\n              jumpi(tag_2, calldatasize)\n                /* \"contracts/MultiSigWallet_flattened.sol\":17984:18037  Deposit(msg.sender, msg.value, address(this).balance) */\n              0x40\n              dup1\n              mload\n                /* \"contracts/MultiSigWallet_flattened.sol\":18004:18013  msg.value */\n              callvalue\n                /* \"#utility.yul\":188:213   */\n              dup2\n              mstore\n                /* \"contracts/MultiSigWallet_flattened.sol\":18015:18036  address(this).balance */\n              selfbalance\n                /* \"#utility.yul\":244:246   */\n              0x20\n                /* \"#utility.yul\":229:247   */\n              dup3\n              add\n                /* \"#utility.yul\":222:256   */\n              mstore\n                /* \"contracts/MultiSigWallet_flattened.sol\":17992:18002  msg.sender */\n              caller\n              swap2\n                /* \"contracts/MultiSigWallet_flattened.sol\":17984:18037  Deposit(msg.sender, msg.value, address(this).balance) */\n              0x90890809c654f11d6e72a28fa60149770a0d11ec6c92319d6ceb2bb0a4ea1a15\n              swap2\n                /* \"#utility.yul\":161:179   */\n              add\n                /* \"contracts/MultiSigWallet_flattened.sol\":17984:18037  Deposit(msg.sender, msg.value, address(this).balance) */\n              mload(0x40)\n              dup1\n              swap2\n              sub\n              swap1\n              log2\n                /* \"contracts/MultiSigWallet_flattened.sol\":11507:20210  contract MultiSigWallet is IMultiSigWallet{... */\n              stop\n            tag_2:\n              0x00\n              dup1\n              revert\n                /* \"contracts/MultiSigWallet_flattened.sol\":17154:17302  function totalTransactionValidations(uint256 trxNo) public view returns(uint256){... */\n            tag_3:\n              callvalue\n              dup1\n              iszero\n              tag_26\n              jumpi\n              0x00\n              dup1\n              revert\n            tag_26:\n              pop\n              tag_27\n              tag_28\n              calldatasize\n              0x04\n              tag_29\n              jump\t// in\n            tag_28:\n              tag_30\n              jump\t// in\n            tag_27:\n              mload(0x40)\n                /* \"#utility.yul\":598:623   */\n              swap1\n              dup2\n              mstore\n                /* \"#utility.yul\":586:588   */\n              0x20\n                /* \"#utility.yul\":571:589   */\n              add\n                /* \"contracts/MultiSigWallet_flattened.sol\":17154:17302  function totalTransactionValidations(uint256 trxNo) public view returns(uint256){... */\n            tag_31:\n              mload(0x40)\n              dup1\n              swap2\n              sub\n              swap1\n              return\n                /* \"contracts/MultiSigWallet_flattened.sol\":12127:12150  address[] public owners */\n            tag_4:\n              callvalue\n              dup1\n              iszero\n              tag_33\n              jumpi\n              0x00\n              dup1\n              revert\n            tag_33:\n              pop\n              tag_34\n              tag_35\n              calldatasize\n              0x04\n              tag_29\n              jump\t// in\n            tag_35:\n              tag_36\n              jump\t// in\n            tag_34:\n              mload(0x40)\n              sub(shl(0xa0, 0x01), 0x01)\n                /* \"#utility.yul\":798:830   */\n              swap1\n              swap2\n              and\n                /* \"#utility.yul\":780:831   */\n              dup2\n              mstore\n                /* \"#utility.yul\":768:770   */\n              0x20\n                /* \"#utility.yul\":753:771   */\n              add\n                /* \"contracts/MultiSigWallet_flattened.sol\":12127:12150  address[] public owners */\n              tag_31\n                /* \"#utility.yul\":634:837   */\n              jump\n                /* \"contracts/MultiSigWallet_flattened.sol\":15918:17148  function executeApproval(... */\n            tag_5:\n              callvalue\n              dup1\n              iszero\n              tag_39\n              jumpi\n              0x00\n              dup1\n              revert\n            tag_39:\n              pop\n              tag_40\n              tag_41\n              calldatasize\n              0x04\n              tag_42\n              jump\t// in\n            tag_41:\n              tag_43\n              jump\t// in\n            tag_40:\n              mload(0x40)\n                /* \"#utility.yul\":2971:2985   */\n              swap1\n              iszero\n                /* \"#utility.yul\":2964:2986   */\n              iszero\n                /* \"#utility.yul\":2946:2987   */\n              dup2\n              mstore\n                /* \"#utility.yul\":2934:2936   */\n              0x20\n                /* \"#utility.yul\":2919:2937   */\n              add\n                /* \"contracts/MultiSigWallet_flattened.sol\":15918:17148  function executeApproval(... */\n              tag_31\n                /* \"#utility.yul\":2806:2993   */\n              jump\n                /* \"contracts/MultiSigWallet_flattened.sol\":17772:17936  function recover(bytes32 _hash, bytes memory _signature)... */\n            tag_6:\n              callvalue\n              dup1\n              iszero\n              tag_46\n              jumpi\n              0x00\n              dup1\n              revert\n            tag_46:\n              pop\n              tag_34\n              tag_48\n              calldatasize\n              0x04\n              tag_49\n              jump\t// in\n            tag_48:\n              tag_50\n              jump\t// in\n                /* \"contracts/MultiSigWallet_flattened.sol\":14062:14649  function removeSigner(... */\n            tag_7:\n              callvalue\n              dup1\n              iszero\n              tag_52\n              jumpi\n              0x00\n              dup1\n              revert\n            tag_52:\n              pop\n              tag_53\n              tag_54\n              calldatasize\n              0x04\n              tag_55\n              jump\t// in\n            tag_54:\n              tag_56\n              jump\t// in\n            tag_53:\n              stop\n                /* \"contracts/MultiSigWallet_flattened.sol\":11967:12006  mapping(address => bool) public isOwner */\n            tag_8:\n              callvalue\n              dup1\n              iszero\n              tag_57\n              jumpi\n              0x00\n              dup1\n              revert\n            tag_57:\n              pop\n              tag_40\n              tag_59\n              calldatasize\n              0x04\n              tag_60\n              jump\t// in\n            tag_59:\n              mstore(0x20, 0x01)\n              0x00\n              swap1\n              dup2\n              mstore\n              0x40\n              swap1\n              keccak256\n              sload\n              0xff\n              and\n              dup2\n              jump\n                /* \"contracts/MultiSigWallet_flattened.sol\":17419:17736  function getTransactionHash(... */\n            tag_9:\n              callvalue\n              dup1\n              iszero\n              tag_63\n              jumpi\n              0x00\n              dup1\n              revert\n            tag_63:\n              pop\n              tag_27\n              tag_65\n              calldatasize\n              0x04\n              tag_66\n              jump\t// in\n            tag_65:\n                /* \"contracts/MultiSigWallet_flattened.sol\":17688:17695  chainId */\n              sload(0x07)\n                /* \"contracts/MultiSigWallet_flattened.sol\":17656:17715  abi.encodePacked(address(this), chainId, _nonce, to, value) */\n              mload(0x40)\n              not(0xffffffffffffffffffffffff)\n                /* \"contracts/MultiSigWallet_flattened.sol\":17681:17685  this */\n              address\n                /* \"#utility.yul\":15310:15312   */\n              0x60\n                /* \"#utility.yul\":15306:15321   */\n              swap1\n              dup2\n              shl\n                /* \"#utility.yul\":15302:15326   */\n              dup3\n              and\n                /* \"contracts/MultiSigWallet_flattened.sol\":17656:17715  abi.encodePacked(address(this), chainId, _nonce, to, value) */\n              0x20\n              dup5\n              add\n                /* \"#utility.yul\":15290:15327   */\n              mstore\n                /* \"#utility.yul\":15343:15355   */\n              0x34\n              dup4\n              add\n                /* \"#utility.yul\":15336:15364   */\n              swap4\n              swap1\n              swap4\n              mstore\n                /* \"#utility.yul\":15380:15392   */\n              0x54\n              dup3\n              add\n                /* \"#utility.yul\":15373:15401   */\n              dup7\n              swap1\n              mstore\n                /* \"#utility.yul\":15435:15450   */\n              swap2\n              dup5\n              swap1\n              shl\n                /* \"#utility.yul\":15431:15455   */\n              swap1\n              swap2\n              and\n                /* \"#utility.yul\":15417:15429   */\n              0x74\n              dup3\n              add\n                /* \"#utility.yul\":15410:15456   */\n              mstore\n                /* \"#utility.yul\":15472:15485   */\n              0x88\n              dup2\n              add\n                /* \"#utility.yul\":15465:15494   */\n              dup3\n              swap1\n              mstore\n                /* \"contracts/MultiSigWallet_flattened.sol\":17578:17585  bytes32 */\n              0x00\n              swap1\n                /* \"#utility.yul\":15510:15523   */\n              0xa8\n              add\n                /* \"contracts/MultiSigWallet_flattened.sol\":17656:17715  abi.encodePacked(address(this), chainId, _nonce, to, value) */\n              mload(0x40)\n              0x20\n              dup2\n              dup4\n              sub\n              sub\n              dup2\n              mstore\n              swap1\n              0x40\n              mstore\n                /* \"contracts/MultiSigWallet_flattened.sol\":17629:17729  keccak256(... */\n              dup1\n              mload\n              swap1\n              0x20\n              add\n              keccak256\n                /* \"contracts/MultiSigWallet_flattened.sol\":17610:17729  return... */\n              swap1\n              pop\n                /* \"contracts/MultiSigWallet_flattened.sol\":17419:17736  function getTransactionHash(... */\n              swap4\n              swap3\n              pop\n              pop\n              pop\n              jump\n                /* \"contracts/MultiSigWallet_flattened.sol\":17308:17413  function incrementNonce() public onlyOwner returns(uint256){... */\n            tag_10:\n              callvalue\n              dup1\n              iszero\n              tag_70\n              jumpi\n              0x00\n              dup1\n              revert\n            tag_70:\n              pop\n              tag_27\n              tag_72\n              jump\t// in\n                /* \"contracts/MultiSigWallet_flattened.sol\":12074:12121  mapping(uint256 => string) public transactionNo */\n            tag_11:\n              callvalue\n              dup1\n              iszero\n              tag_74\n              jumpi\n              0x00\n              dup1\n              revert\n            tag_74:\n              pop\n              tag_75\n              tag_76\n              calldatasize\n              0x04\n              tag_29\n              jump\t// in\n            tag_76:\n              tag_77\n              jump\t// in\n            tag_75:\n              mload(0x40)\n              tag_31\n              swap2\n              swap1\n              tag_79\n              jump\t// in\n                /* \"contracts/MultiSigWallet_flattened.sol\":12012:12068  mapping(string => uint256) public transactionValidations */\n            tag_12:\n              callvalue\n              dup1\n              iszero\n              tag_80\n              jumpi\n              0x00\n              dup1\n              revert\n            tag_80:\n              pop\n              tag_27\n              tag_82\n              calldatasize\n              0x04\n              tag_83\n              jump\t// in\n            tag_82:\n              dup1\n              mload\n              0x20\n              dup2\n              dup4\n              add\n              dup2\n              add\n              dup1\n              mload\n              0x02\n              dup3\n              mstore\n              swap3\n              dup3\n              add\n              swap2\n              swap1\n              swap4\n              add\n              keccak256\n              swap2\n              mstore\n              sload\n              dup2\n              jump\n                /* \"contracts/MultiSigWallet_flattened.sol\":13317:14056  function addSigner(... */\n            tag_13:\n              callvalue\n              dup1\n              iszero\n              tag_86\n              jumpi\n              0x00\n              dup1\n              revert\n            tag_86:\n              pop\n              tag_53\n              tag_88\n              calldatasize\n              0x04\n              tag_55\n              jump\t// in\n            tag_88:\n              tag_89\n              jump\t// in\n                /* \"contracts/MultiSigWallet_flattened.sol\":12221:12243  uint256 public chainId */\n            tag_14:\n              callvalue\n              dup1\n              iszero\n              tag_90\n              jumpi\n              0x00\n              dup1\n              revert\n            tag_90:\n              pop\n              tag_27\n              sload(0x07)\n              dup2\n              jump\n                /* \"contracts/MultiSigWallet_flattened.sol\":15519:15912  function getFunctionData(... */\n            tag_15:\n              callvalue\n              dup1\n              iszero\n              tag_94\n              jumpi\n              0x00\n              dup1\n              revert\n            tag_94:\n              pop\n              tag_75\n              tag_96\n              calldatasize\n              0x04\n              tag_97\n              jump\t// in\n            tag_96:\n              tag_98\n              jump\t// in\n                /* \"contracts/MultiSigWallet_flattened.sol\":12195:12215  uint256 public nonce */\n            tag_16:\n              callvalue\n              dup1\n              iszero\n              tag_101\n              jumpi\n              0x00\n              dup1\n              revert\n            tag_101:\n              pop\n              tag_27\n              sload(0x06)\n              dup2\n              jump\n                /* \"contracts/MultiSigWallet_flattened.sol\":12156:12189  uint256 public signaturesRequired */\n            tag_17:\n              callvalue\n              dup1\n              iszero\n              tag_105\n              jumpi\n              0x00\n              dup1\n              revert\n            tag_105:\n              pop\n              tag_27\n              sload(0x05)\n              dup2\n              jump\n                /* \"contracts/MultiSigWallet_flattened.sol\":18711:19064  function verifyUserSign(string memory _passkey, bytes memory signature)... */\n            tag_18:\n              callvalue\n              dup1\n              iszero\n              tag_109\n              jumpi\n              0x00\n              dup1\n              revert\n            tag_109:\n              pop\n              tag_34\n              tag_111\n              calldatasize\n              0x04\n              tag_112\n              jump\t// in\n            tag_111:\n              tag_113\n              jump\t// in\n                /* \"contracts/MultiSigWallet_flattened.sol\":17154:17302  function totalTransactionValidations(uint256 trxNo) public view returns(uint256){... */\n            tag_30:\n                /* \"contracts/MultiSigWallet_flattened.sol\":17288:17293  nonce */\n              sload(0x06)\n                /* \"contracts/MultiSigWallet_flattened.sol\":17226:17233  uint256 */\n              0x00\n                /* \"contracts/MultiSigWallet_flattened.sol\":17274:17294  transactionNo[nonce] */\n              swap1\n              dup2\n              mstore\n                /* \"contracts/MultiSigWallet_flattened.sol\":17274:17287  transactionNo */\n              0x03\n                /* \"contracts/MultiSigWallet_flattened.sol\":17274:17294  transactionNo[nonce] */\n              0x20\n              mstore\n              0x40\n              dup1\n              dup3\n              keccak256\n                /* \"contracts/MultiSigWallet_flattened.sol\":17251:17295  transactionValidations[transactionNo[nonce]] */\n              swap1\n              mload\n                /* \"contracts/MultiSigWallet_flattened.sol\":17251:17273  transactionValidations */\n              0x02\n              swap2\n                /* \"contracts/MultiSigWallet_flattened.sol\":17251:17295  transactionValidations[transactionNo[nonce]] */\n              tag_116\n              swap2\n              tag_117\n              jump\t// in\n            tag_116:\n              swap1\n              dup2\n              mstore\n              0x20\n              add\n              mload(0x40)\n              dup1\n              swap2\n              sub\n              swap1\n              keccak256\n              sload\n                /* \"contracts/MultiSigWallet_flattened.sol\":17244:17295  return transactionValidations[transactionNo[nonce]] */\n              swap1\n              pop\n                /* \"contracts/MultiSigWallet_flattened.sol\":17154:17302  function totalTransactionValidations(uint256 trxNo) public view returns(uint256){... */\n              swap2\n              swap1\n              pop\n              jump\t// out\n                /* \"contracts/MultiSigWallet_flattened.sol\":12127:12150  address[] public owners */\n            tag_36:\n              0x04\n              dup2\n              dup2\n              sload\n              dup2\n              lt\n              tag_118\n              jumpi\n              0x00\n              dup1\n              revert\n            tag_118:\n              0x00\n              swap2\n              dup3\n              mstore\n              0x20\n              swap1\n              swap2\n              keccak256\n              add\n              sload\n              sub(shl(0xa0, 0x01), 0x01)\n              and\n              swap1\n              pop\n              dup2\n              jump\t// out\n                /* \"contracts/MultiSigWallet_flattened.sol\":15918:17148  function executeApproval(... */\n            tag_43:\n                /* \"contracts/MultiSigWallet_flattened.sol\":12297:12307  msg.sender */\n              caller\n                /* \"contracts/MultiSigWallet_flattened.sol\":16159:16163  bool */\n              0x00\n                /* \"contracts/MultiSigWallet_flattened.sol\":12289:12308  isOwner[msg.sender] */\n              swap1\n              dup2\n              mstore\n                /* \"contracts/MultiSigWallet_flattened.sol\":12289:12296  isOwner */\n              0x01\n                /* \"contracts/MultiSigWallet_flattened.sol\":12289:12308  isOwner[msg.sender] */\n              0x20\n              mstore\n              0x40\n              dup2\n              keccak256\n              sload\n              0xff\n              and\n                /* \"contracts/MultiSigWallet_flattened.sol\":12281:12322  require(isOwner[msg.sender], \"Not owner\") */\n              tag_121\n              jumpi\n              mload(0x40)\n              shl(0xe5, 0x461bcd)\n              dup2\n              mstore\n              0x04\n              add\n              tag_122\n              swap1\n              tag_123\n              jump\t// in\n            tag_122:\n              mload(0x40)\n              dup1\n              swap2\n              sub\n              swap1\n              revert\n            tag_121:\n                /* \"contracts/MultiSigWallet_flattened.sol\":16175:16188  bytes32 _hash */\n              0x00\n                /* \"contracts/MultiSigWallet_flattened.sol\":16191:16214  getMessageHash(passkey) */\n              tag_125\n                /* \"contracts/MultiSigWallet_flattened.sol\":16206:16213  passkey */\n              dup5\n                /* \"contracts/MultiSigWallet_flattened.sol\":16191:16205  getMessageHash */\n              tag_126\n                /* \"contracts/MultiSigWallet_flattened.sol\":16191:16214  getMessageHash(passkey) */\n              jump\t// in\n            tag_125:\n                /* \"contracts/MultiSigWallet_flattened.sol\":16175:16214  bytes32 _hash = getMessageHash(passkey) */\n              swap1\n              pop\n                /* \"contracts/MultiSigWallet_flattened.sol\":16224:16246  address duplicateGuard */\n              0x00\n                /* \"contracts/MultiSigWallet_flattened.sol\":16256:16279  uint256 validSignatures */\n              dup1\n                /* \"contracts/MultiSigWallet_flattened.sol\":16289:16306  address recovered */\n              0x00\n                /* \"contracts/MultiSigWallet_flattened.sol\":16309:16343  verifyUserSign(passkey, signature) */\n              tag_127\n                /* \"contracts/MultiSigWallet_flattened.sol\":16324:16331  passkey */\n              dup8\n                /* \"contracts/MultiSigWallet_flattened.sol\":16333:16342  signature */\n              dup10\n                /* \"contracts/MultiSigWallet_flattened.sol\":16309:16323  verifyUserSign */\n              tag_113\n                /* \"contracts/MultiSigWallet_flattened.sol\":16309:16343  verifyUserSign(passkey, signature) */\n              jump\t// in\n            tag_127:\n                /* \"contracts/MultiSigWallet_flattened.sol\":16289:16343  address recovered = verifyUserSign(passkey, signature) */\n              swap1\n              pop\n                /* \"contracts/MultiSigWallet_flattened.sol\":16386:16400  duplicateGuard */\n              dup3\n              sub(shl(0xa0, 0x01), 0x01)\n                /* \"contracts/MultiSigWallet_flattened.sol\":16374:16400  recovered > duplicateGuard */\n              and\n                /* \"contracts/MultiSigWallet_flattened.sol\":16374:16383  recovered */\n              dup2\n              sub(shl(0xa0, 0x01), 0x01)\n                /* \"contracts/MultiSigWallet_flattened.sol\":16374:16400  recovered > duplicateGuard */\n              and\n              gt\n                /* \"contracts/MultiSigWallet_flattened.sol\":16353:16479  require(... */\n              tag_128\n              jumpi\n              mload(0x40)\n              shl(0xe5, 0x461bcd)\n              dup2\n              mstore\n                /* \"#utility.yul\":8904:8906   */\n              0x20\n                /* \"contracts/MultiSigWallet_flattened.sol\":16353:16479  require(... */\n              0x04\n              dup3\n              add\n                /* \"#utility.yul\":8886:8907   */\n              mstore\n                /* \"#utility.yul\":8943:8945   */\n              0x35\n                /* \"#utility.yul\":8923:8941   */\n              0x24\n              dup3\n              add\n                /* \"#utility.yul\":8916:8946   */\n              mstore\n                /* \"#utility.yul\":8982:9016   */\n              0x657865637574655472616e73616374696f6e3a206475706c6963617465206f72\n                /* \"#utility.yul\":8962:8980   */\n              0x44\n              dup3\n              add\n                /* \"#utility.yul\":8955:9017   */\n              mstore\n              shl(0x58, 0x20756e6f726465726564207369676e617475726573)\n                /* \"#utility.yul\":9033:9051   */\n              0x64\n              dup3\n              add\n                /* \"#utility.yul\":9026:9077   */\n              mstore\n                /* \"#utility.yul\":9094:9113   */\n              0x84\n              add\n                /* \"contracts/MultiSigWallet_flattened.sol\":16353:16479  require(... */\n              tag_122\n                /* \"#utility.yul\":8702:9119   */\n              jump\n                /* \"contracts/MultiSigWallet_flattened.sol\":16353:16479  require(... */\n            tag_128:\n              sub(shl(0xa0, 0x01), 0x01)\n                /* \"contracts/MultiSigWallet_flattened.sol\":16551:16569  isOwner[recovered] */\n              dup2\n              and\n                /* \"contracts/MultiSigWallet_flattened.sol\":16525:16537  bool success */\n              0x00\n                /* \"contracts/MultiSigWallet_flattened.sol\":16551:16569  isOwner[recovered] */\n              swap1\n              dup2\n              mstore\n                /* \"contracts/MultiSigWallet_flattened.sol\":16551:16558  isOwner */\n              0x01\n                /* \"contracts/MultiSigWallet_flattened.sol\":16551:16569  isOwner[recovered] */\n              0x20\n              mstore\n              0x40\n              dup2\n              keccak256\n              sload\n                /* \"contracts/MultiSigWallet_flattened.sol\":16506:16515  recovered */\n              swap2\n              swap4\n              pop\n              dup4\n              swap2\n                /* \"contracts/MultiSigWallet_flattened.sol\":16551:16569  isOwner[recovered] */\n              0xff\n              and\n                /* \"contracts/MultiSigWallet_flattened.sol\":16547:16766  if (isOwner[recovered]) {... */\n              iszero\n              tag_131\n              jumpi\n                /* \"contracts/MultiSigWallet_flattened.sol\":16585:16602  validSignatures++ */\n              dup3\n              tag_132\n              dup2\n              tag_133\n              jump\t// in\n            tag_132:\n              swap4\n              pop\n              pop\n                /* \"contracts/MultiSigWallet_flattened.sol\":16659:16674  validSignatures */\n              dup3\n                /* \"contracts/MultiSigWallet_flattened.sol\":16616:16638  transactionValidations */\n              0x02\n                /* \"contracts/MultiSigWallet_flattened.sol\":16639:16655  transactionStamp */\n              dup9\n                /* \"contracts/MultiSigWallet_flattened.sol\":16616:16656  transactionValidations[transactionStamp] */\n              mload(0x40)\n              tag_134\n              swap2\n              swap1\n              tag_135\n              jump\t// in\n            tag_134:\n              swap1\n              dup2\n              mstore\n              0x40\n              dup1\n              mload\n              0x20\n              swap3\n              dup2\n              swap1\n              sub\n              dup4\n              add\n              swap1\n              keccak256\n                /* \"contracts/MultiSigWallet_flattened.sol\":16616:16674  transactionValidations[transactionStamp] = validSignatures */\n              swap3\n              swap1\n              swap3\n              sstore\n                /* \"contracts/MultiSigWallet_flattened.sol\":16702:16707  nonce */\n              sload(0x06)\n                /* \"contracts/MultiSigWallet_flattened.sol\":16688:16708  transactionNo[nonce] */\n              0x00\n              swap1\n              dup2\n              mstore\n                /* \"contracts/MultiSigWallet_flattened.sol\":16688:16701  transactionNo */\n              0x03\n                /* \"contracts/MultiSigWallet_flattened.sol\":16688:16708  transactionNo[nonce] */\n              swap1\n              swap2\n              mstore\n              keccak256\n                /* \"contracts/MultiSigWallet_flattened.sol\":16688:16727  transactionNo[nonce] = transactionStamp */\n              tag_136\n                /* \"contracts/MultiSigWallet_flattened.sol\":16711:16727  transactionStamp */\n              dup9\n                /* \"contracts/MultiSigWallet_flattened.sol\":16688:16708  transactionNo[nonce] */\n              dup3\n                /* \"contracts/MultiSigWallet_flattened.sol\":16688:16727  transactionNo[nonce] = transactionStamp */\n              tag_137\n              jump\t// in\n            tag_136:\n              pop\n                /* \"contracts/MultiSigWallet_flattened.sol\":16751:16755  true */\n              0x01\n                /* \"contracts/MultiSigWallet_flattened.sol\":16741:16755  success = true */\n              swap1\n              pop\n                /* \"contracts/MultiSigWallet_flattened.sol\":16547:16766  if (isOwner[recovered]) {... */\n            tag_131:\n                /* \"contracts/MultiSigWallet_flattened.sol\":16815:16833  signaturesRequired */\n              sload(0x05)\n                /* \"contracts/MultiSigWallet_flattened.sol\":16796:16811  validSignatures */\n              dup4\n                /* \"contracts/MultiSigWallet_flattened.sol\":16796:16833  validSignatures >= signaturesRequired */\n              lt\n              iszero\n                /* \"contracts/MultiSigWallet_flattened.sol\":16775:16906  require(... */\n              tag_138\n              jumpi\n              mload(0x40)\n              shl(0xe5, 0x461bcd)\n              dup2\n              mstore\n                /* \"#utility.yul\":11950:11952   */\n              0x20\n                /* \"contracts/MultiSigWallet_flattened.sol\":16775:16906  require(... */\n              0x04\n              dup3\n              add\n                /* \"#utility.yul\":11932:11953   */\n              mstore\n                /* \"#utility.yul\":11989:11991   */\n              0x2f\n                /* \"#utility.yul\":11969:11987   */\n              0x24\n              dup3\n              add\n                /* \"#utility.yul\":11962:11992   */\n              mstore\n                /* \"#utility.yul\":12028:12062   */\n              0x657865637574655472616e73616374696f6e3a206e6f7420656e6f7567682076\n                /* \"#utility.yul\":12008:12026   */\n              0x44\n              dup3\n              add\n                /* \"#utility.yul\":12001:12063   */\n              mstore\n              shl(0x88, 0x616c6964207369676e617475726573)\n                /* \"#utility.yul\":12079:12097   */\n              0x64\n              dup3\n              add\n                /* \"#utility.yul\":12072:12117   */\n              mstore\n                /* \"#utility.yul\":12134:12153   */\n              0x84\n              add\n                /* \"contracts/MultiSigWallet_flattened.sol\":16775:16906  require(... */\n              tag_122\n                /* \"#utility.yul\":11748:12159   */\n              jump\n                /* \"contracts/MultiSigWallet_flattened.sol\":16775:16906  require(... */\n            tag_138:\n                /* \"contracts/MultiSigWallet_flattened.sol\":17004:17011  success */\n              dup1\n                /* \"contracts/MultiSigWallet_flattened.sol\":16996:17045  require(success, \"executeTransaction: tx failed\") */\n              tag_141\n              jumpi\n              mload(0x40)\n              shl(0xe5, 0x461bcd)\n              dup2\n              mstore\n                /* \"#utility.yul\":12366:12368   */\n              0x20\n                /* \"contracts/MultiSigWallet_flattened.sol\":16996:17045  require(success, \"executeTransaction: tx failed\") */\n              0x04\n              dup3\n              add\n                /* \"#utility.yul\":12348:12369   */\n              mstore\n                /* \"#utility.yul\":12405:12407   */\n              0x1d\n                /* \"#utility.yul\":12385:12403   */\n              0x24\n              dup3\n              add\n                /* \"#utility.yul\":12378:12408   */\n              mstore\n                /* \"#utility.yul\":12444:12475   */\n              0x657865637574655472616e73616374696f6e3a207478206661696c6564000000\n                /* \"#utility.yul\":12424:12442   */\n              0x44\n              dup3\n              add\n                /* \"#utility.yul\":12417:12476   */\n              mstore\n                /* \"#utility.yul\":12493:12511   */\n              0x64\n              add\n                /* \"contracts/MultiSigWallet_flattened.sol\":16996:17045  require(success, \"executeTransaction: tx failed\") */\n              tag_122\n                /* \"#utility.yul\":12164:12517   */\n              jump\n                /* \"contracts/MultiSigWallet_flattened.sol\":16996:17045  require(success, \"executeTransaction: tx failed\") */\n            tag_141:\n                /* \"contracts/MultiSigWallet_flattened.sol\":17080:17090  msg.sender */\n              caller\n              sub(shl(0xa0, 0x01), 0x01)\n                /* \"contracts/MultiSigWallet_flattened.sol\":17061:17120  ExecuteTransaction(msg.sender, to, value, nonce - 1, _hash) */\n              and\n              0x01981a0759c7f7295b44ccbd200535e8a29744b41f8da48b42a35b8b4b8b04b6\n                /* \"contracts/MultiSigWallet_flattened.sol\":17092:17094  to */\n              dup13\n                /* \"contracts/MultiSigWallet_flattened.sol\":17096:17101  value */\n              dup13\n                /* \"contracts/MultiSigWallet_flattened.sol\":17111:17112  1 */\n              0x01\n                /* \"contracts/MultiSigWallet_flattened.sol\":17103:17108  nonce */\n              sload(0x06)\n                /* \"contracts/MultiSigWallet_flattened.sol\":17103:17112  nonce - 1 */\n              tag_144\n              swap2\n              swap1\n              tag_145\n              jump\t// in\n            tag_144:\n                /* \"contracts/MultiSigWallet_flattened.sol\":17061:17120  ExecuteTransaction(msg.sender, to, value, nonce - 1, _hash) */\n              0x40\n              dup1\n              mload\n              sub(shl(0xa0, 0x01), 0x01)\n                /* \"#utility.yul\":12920:12952   */\n              swap1\n              swap5\n              and\n                /* \"#utility.yul\":12902:12953   */\n              dup5\n              mstore\n                /* \"#utility.yul\":12984:12986   */\n              0x20\n                /* \"#utility.yul\":12969:12987   */\n              dup5\n              add\n                /* \"#utility.yul\":12962:12996   */\n              swap3\n              swap1\n              swap3\n              mstore\n                /* \"#utility.yul\":13012:13030   */\n              swap1\n              dup3\n              add\n                /* \"#utility.yul\":13005:13039   */\n              mstore\n                /* \"#utility.yul\":13070:13072   */\n              0x60\n                /* \"#utility.yul\":13055:13073   */\n              dup2\n              add\n                /* \"#utility.yul\":13048:13082   */\n              dup9\n              swap1\n              mstore\n                /* \"#utility.yul\":12889:12892   */\n              0x80\n                /* \"#utility.yul\":12874:12893   */\n              add\n                /* \"contracts/MultiSigWallet_flattened.sol\":17061:17120  ExecuteTransaction(msg.sender, to, value, nonce - 1, _hash) */\n              mload(0x40)\n              dup1\n              swap2\n              sub\n              swap1\n              log2\n              pop\n                /* \"contracts/MultiSigWallet_flattened.sol\":17137:17141  true */\n              0x01\n              swap11\n                /* \"contracts/MultiSigWallet_flattened.sol\":15918:17148  function executeApproval(... */\n              swap10\n              pop\n              pop\n              pop\n              pop\n              pop\n              pop\n              pop\n              pop\n              pop\n              pop\n              jump\t// out\n                /* \"contracts/MultiSigWallet_flattened.sol\":17772:17936  function recover(bytes32 _hash, bytes memory _signature)... */\n            tag_50:\n                /* \"contracts/MultiSigWallet_flattened.sol\":17874:17881  address */\n              0x00\n                /* \"contracts/MultiSigWallet_flattened.sol\":17904:17929  _hash.recover(_signature) */\n              tag_149\n                /* \"contracts/MultiSigWallet_flattened.sol\":17904:17909  _hash */\n              dup4\n                /* \"contracts/MultiSigWallet_flattened.sol\":17918:17928  _signature */\n              dup4\n                /* \"contracts/MultiSigWallet_flattened.sol\":17904:17917  _hash.recover */\n              tag_150\n                /* \"contracts/MultiSigWallet_flattened.sol\":17904:17929  _hash.recover(_signature) */\n              jump\t// in\n            tag_149:\n                /* \"contracts/MultiSigWallet_flattened.sol\":17897:17929  return _hash.recover(_signature) */\n              swap1\n              pop\n                /* \"contracts/MultiSigWallet_flattened.sol\":17772:17936  function recover(bytes32 _hash, bytes memory _signature)... */\n            tag_148:\n              swap3\n              swap2\n              pop\n              pop\n              jump\t// out\n                /* \"contracts/MultiSigWallet_flattened.sol\":14062:14649  function removeSigner(... */\n            tag_56:\n                /* \"contracts/MultiSigWallet_flattened.sol\":14195:14200  owner */\n              dup3\n                /* \"contracts/MultiSigWallet_flattened.sol\":12397:12407  msg.sender */\n              caller\n              sub(shl(0xa0, 0x01), 0x01)\n                /* \"contracts/MultiSigWallet_flattened.sol\":12397:12416  msg.sender == owner */\n              dup3\n              and\n              eq\n                /* \"contracts/MultiSigWallet_flattened.sol\":12389:12429  require(msg.sender == owner, \"Not Self\") */\n              tag_152\n              jumpi\n              mload(0x40)\n              shl(0xe5, 0x461bcd)\n              dup2\n              mstore\n              0x04\n              add\n              tag_122\n              swap1\n              tag_154\n              jump\t// in\n            tag_152:\n                /* \"contracts/MultiSigWallet_flattened.sol\":14227:14248  newSignaturesRequired */\n              dup2\n                /* \"contracts/MultiSigWallet_flattened.sol\":12556:12557  0 */\n              0x00\n                /* \"contracts/MultiSigWallet_flattened.sol\":12534:12553  _signaturesRequired */\n              dup2\n                /* \"contracts/MultiSigWallet_flattened.sol\":12534:12557  _signaturesRequired > 0 */\n              gt\n                /* \"contracts/MultiSigWallet_flattened.sol\":12526:12592  require(_signaturesRequired > 0, \"Must be non-zero sigs required\") */\n              tag_156\n              jumpi\n              mload(0x40)\n              shl(0xe5, 0x461bcd)\n              dup2\n              mstore\n              0x04\n              add\n              tag_122\n              swap1\n              tag_158\n              jump\t// in\n            tag_156:\n              sub(shl(0xa0, 0x01), 0x01)\n                /* \"contracts/MultiSigWallet_flattened.sol\":14268:14286  isOwner[oldSigner] */\n              dup5\n              and\n              0x00\n              swap1\n              dup2\n              mstore\n                /* \"contracts/MultiSigWallet_flattened.sol\":14268:14275  isOwner */\n              0x01\n                /* \"contracts/MultiSigWallet_flattened.sol\":14268:14286  isOwner[oldSigner] */\n              0x20\n              mstore\n              0x40\n              swap1\n              keccak256\n              sload\n              0xff\n              and\n                /* \"contracts/MultiSigWallet_flattened.sol\":14260:14314  require(isOwner[oldSigner], \"removeSigner: not owner\") */\n              tag_160\n              jumpi\n              mload(0x40)\n              shl(0xe5, 0x461bcd)\n              dup2\n              mstore\n                /* \"#utility.yul\":13990:13992   */\n              0x20\n                /* \"contracts/MultiSigWallet_flattened.sol\":14260:14314  require(isOwner[oldSigner], \"removeSigner: not owner\") */\n              0x04\n              dup3\n              add\n                /* \"#utility.yul\":13972:13993   */\n              mstore\n                /* \"#utility.yul\":14029:14031   */\n              0x17\n                /* \"#utility.yul\":14009:14027   */\n              0x24\n              dup3\n              add\n                /* \"#utility.yul\":14002:14032   */\n              mstore\n                /* \"#utility.yul\":14068:14093   */\n              0x72656d6f76655369676e65723a206e6f74206f776e6572000000000000000000\n                /* \"#utility.yul\":14048:14066   */\n              0x44\n              dup3\n              add\n                /* \"#utility.yul\":14041:14094   */\n              mstore\n                /* \"#utility.yul\":14111:14129   */\n              0x64\n              add\n                /* \"contracts/MultiSigWallet_flattened.sol\":14260:14314  require(isOwner[oldSigner], \"removeSigner: not owner\") */\n              tag_122\n                /* \"#utility.yul\":13788:14135   */\n              jump\n                /* \"contracts/MultiSigWallet_flattened.sol\":14260:14314  require(isOwner[oldSigner], \"removeSigner: not owner\") */\n            tag_160:\n                /* \"contracts/MultiSigWallet_flattened.sol\":14324:14347  _removeOwner(oldSigner) */\n              tag_163\n                /* \"contracts/MultiSigWallet_flattened.sol\":14337:14346  oldSigner */\n              dup5\n                /* \"contracts/MultiSigWallet_flattened.sol\":14324:14336  _removeOwner */\n              tag_164\n                /* \"contracts/MultiSigWallet_flattened.sol\":14324:14347  _removeOwner(oldSigner) */\n              jump\t// in\n            tag_163:\n                /* \"contracts/MultiSigWallet_flattened.sol\":14357:14375  signaturesRequired */\n              0x05\n                /* \"contracts/MultiSigWallet_flattened.sol\":14357:14399  signaturesRequired = newSignaturesRequired */\n              dup4\n              swap1\n              sstore\n                /* \"contracts/MultiSigWallet_flattened.sol\":14409:14463  updateSignaturesRequired(owner, newSignaturesRequired) */\n              tag_165\n                /* \"contracts/MultiSigWallet_flattened.sol\":14434:14439  owner */\n              dup6\n                /* \"contracts/MultiSigWallet_flattened.sol\":14378:14399  newSignaturesRequired */\n              dup5\n                /* \"contracts/MultiSigWallet_flattened.sol\":14409:14433  updateSignaturesRequired */\n              tag_166\n                /* \"contracts/MultiSigWallet_flattened.sol\":14409:14463  updateSignaturesRequired(owner, newSignaturesRequired) */\n              jump\t// in\n            tag_165:\n              sub(shl(0xa0, 0x01), 0x01)\n                /* \"contracts/MultiSigWallet_flattened.sol\":14478:14514  Owner(oldSigner, isOwner[oldSigner]) */\n              dup5\n              and\n                /* \"contracts/MultiSigWallet_flattened.sol\":14495:14513  isOwner[oldSigner] */\n              0x00\n              dup2\n              dup2\n              mstore\n                /* \"contracts/MultiSigWallet_flattened.sol\":14495:14502  isOwner */\n              0x01\n                /* \"contracts/MultiSigWallet_flattened.sol\":14495:14513  isOwner[oldSigner] */\n              0x20\n              swap1\n              dup2\n              mstore\n              0x40\n              swap2\n              dup3\n              swap1\n              keccak256\n              sload\n                /* \"contracts/MultiSigWallet_flattened.sol\":14478:14514  Owner(oldSigner, isOwner[oldSigner]) */\n              swap2\n              mload\n                /* \"contracts/MultiSigWallet_flattened.sol\":14495:14513  isOwner[oldSigner] */\n              0xff\n              swap1\n              swap3\n              and\n                /* \"#utility.yul\":2971:2985   */\n              iszero\n                /* \"#utility.yul\":2964:2986   */\n              iszero\n                /* \"#utility.yul\":2946:2987   */\n              dup3\n              mstore\n                /* \"contracts/MultiSigWallet_flattened.sol\":14478:14514  Owner(oldSigner, isOwner[oldSigner]) */\n              0xfe545f48304051c4029eb2da9927daa59da0414b4b084fdceaf2955b609b899e\n              swap2\n                /* \"#utility.yul\":2919:2937   */\n              add\n                /* \"contracts/MultiSigWallet_flattened.sol\":14478:14514  Owner(oldSigner, isOwner[oldSigner]) */\n              mload(0x40)\n              dup1\n              swap2\n              sub\n              swap1\n              log2\n                /* \"contracts/MultiSigWallet_flattened.sol\":14524:14539  multiSigFactory */\n              sload(0x00)\n                /* \"contracts/MultiSigWallet_flattened.sol\":14524:14642  multiSigFactory.emitOwners(... */\n              mload(0x40)\n              shl(0xe2, 0x2fb7d0a5)\n              dup2\n              mstore\n              sub(shl(0xa0, 0x01), 0x01)\n                /* \"contracts/MultiSigWallet_flattened.sol\":14524:14539  multiSigFactory */\n              swap1\n              swap2\n              and\n              swap1\n                /* \"contracts/MultiSigWallet_flattened.sol\":14524:14550  multiSigFactory.emitOwners */\n              0xbedf4294\n              swap1\n                /* \"contracts/MultiSigWallet_flattened.sol\":14524:14642  multiSigFactory.emitOwners(... */\n              tag_168\n              swap1\n                /* \"contracts/MultiSigWallet_flattened.sol\":14572:14576  this */\n              address\n              swap1\n                /* \"contracts/MultiSigWallet_flattened.sol\":14591:14597  owners */\n              0x04\n              swap1\n                /* \"contracts/MultiSigWallet_flattened.sol\":14611:14632  newSignaturesRequired */\n              dup9\n              swap1\n                /* \"contracts/MultiSigWallet_flattened.sol\":14524:14642  multiSigFactory.emitOwners(... */\n              dup3\n              add\n              tag_169\n              jump\t// in\n            tag_168:\n              0x00\n              mload(0x40)\n              dup1\n              dup4\n              sub\n              dup2\n              0x00\n              dup8\n              dup1\n              extcodesize\n              iszero\n              dup1\n              iszero\n              tag_170\n              jumpi\n              0x00\n              dup1\n              revert\n            tag_170:\n              pop\n              gas\n              call\n              iszero\n              dup1\n              iszero\n              tag_172\n              jumpi\n              returndatasize\n              0x00\n              dup1\n              returndatacopy\n              revert(0x00, returndatasize)\n            tag_172:\n              pop\n              pop\n              pop\n              pop\n                /* \"contracts/MultiSigWallet_flattened.sol\":12439:12440  _ */\n              pop\n                /* \"contracts/MultiSigWallet_flattened.sol\":14062:14649  function removeSigner(... */\n              pop\n              pop\n              pop\n              pop\n              jump\t// out\n                /* \"contracts/MultiSigWallet_flattened.sol\":17308:17413  function incrementNonce() public onlyOwner returns(uint256){... */\n            tag_72:\n                /* \"contracts/MultiSigWallet_flattened.sol\":12297:12307  msg.sender */\n              caller\n                /* \"contracts/MultiSigWallet_flattened.sol\":17359:17366  uint256 */\n              0x00\n                /* \"contracts/MultiSigWallet_flattened.sol\":12289:12308  isOwner[msg.sender] */\n              swap1\n              dup2\n              mstore\n                /* \"contracts/MultiSigWallet_flattened.sol\":12289:12296  isOwner */\n              0x01\n                /* \"contracts/MultiSigWallet_flattened.sol\":12289:12308  isOwner[msg.sender] */\n              0x20\n              mstore\n              0x40\n              dup2\n              keccak256\n              sload\n              0xff\n              and\n                /* \"contracts/MultiSigWallet_flattened.sol\":12281:12322  require(isOwner[msg.sender], \"Not owner\") */\n              tag_177\n              jumpi\n              mload(0x40)\n              shl(0xe5, 0x461bcd)\n              dup2\n              mstore\n              0x04\n              add\n              tag_122\n              swap1\n              tag_123\n              jump\t// in\n            tag_177:\n                /* \"contracts/MultiSigWallet_flattened.sol\":17377:17382  nonce */\n              0x06\n                /* \"contracts/MultiSigWallet_flattened.sol\":17377:17384  nonce++ */\n              dup1\n              sload\n              swap1\n                /* \"contracts/MultiSigWallet_flattened.sol\":17377:17382  nonce */\n              0x00\n                /* \"contracts/MultiSigWallet_flattened.sol\":17377:17384  nonce++ */\n              tag_180\n              dup4\n              tag_133\n              jump\t// in\n            tag_180:\n              swap2\n              swap1\n              pop\n              sstore\n              pop\n                /* \"contracts/MultiSigWallet_flattened.sol\":17401:17406  nonce */\n              sload(0x06)\n                /* \"contracts/MultiSigWallet_flattened.sol\":17394:17406  return nonce */\n              swap1\n              pop\n                /* \"contracts/MultiSigWallet_flattened.sol\":17308:17413  function incrementNonce() public onlyOwner returns(uint256){... */\n              swap1\n              jump\t// out\n                /* \"contracts/MultiSigWallet_flattened.sol\":12074:12121  mapping(uint256 => string) public transactionNo */\n            tag_77:\n              mstore(0x20, 0x03)\n              0x00\n              swap1\n              dup2\n              mstore\n              0x40\n              swap1\n              keccak256\n              dup1\n              sload\n              tag_181\n              swap1\n              tag_182\n              jump\t// in\n            tag_181:\n              dup1\n              0x1f\n              add\n              0x20\n              dup1\n              swap2\n              div\n              mul\n              0x20\n              add\n              mload(0x40)\n              swap1\n              dup2\n              add\n              0x40\n              mstore\n              dup1\n              swap3\n              swap2\n              swap1\n              dup2\n              dup2\n              mstore\n              0x20\n              add\n              dup3\n              dup1\n              sload\n              tag_183\n              swap1\n              tag_182\n              jump\t// in\n            tag_183:\n              dup1\n              iszero\n              tag_184\n              jumpi\n              dup1\n              0x1f\n              lt\n              tag_185\n              jumpi\n              0x0100\n              dup1\n              dup4\n              sload\n              div\n              mul\n              dup4\n              mstore\n              swap2\n              0x20\n              add\n              swap2\n              jump(tag_184)\n            tag_185:\n              dup3\n              add\n              swap2\n              swap1\n              0x00\n              mstore\n              keccak256(0x00, 0x20)\n              swap1\n            tag_186:\n              dup2\n              sload\n              dup2\n              mstore\n              swap1\n              0x01\n              add\n              swap1\n              0x20\n              add\n              dup1\n              dup4\n              gt\n              tag_186\n              jumpi\n              dup3\n              swap1\n              sub\n              0x1f\n              and\n              dup3\n              add\n              swap2\n            tag_184:\n              pop\n              pop\n              pop\n              pop\n              pop\n              dup2\n              jump\t// out\n                /* \"contracts/MultiSigWallet_flattened.sol\":13317:14056  function addSigner(... */\n            tag_89:\n                /* \"contracts/MultiSigWallet_flattened.sol\":13463:13468  owner */\n              dup3\n                /* \"contracts/MultiSigWallet_flattened.sol\":12397:12407  msg.sender */\n              caller\n              sub(shl(0xa0, 0x01), 0x01)\n                /* \"contracts/MultiSigWallet_flattened.sol\":12397:12416  msg.sender == owner */\n              dup3\n              and\n              eq\n                /* \"contracts/MultiSigWallet_flattened.sol\":12389:12429  require(msg.sender == owner, \"Not Self\") */\n              tag_188\n              jumpi\n              mload(0x40)\n              shl(0xe5, 0x461bcd)\n              dup2\n              mstore\n              0x04\n              add\n              tag_122\n              swap1\n              tag_154\n              jump\t// in\n            tag_188:\n                /* \"contracts/MultiSigWallet_flattened.sol\":12297:12307  msg.sender */\n              caller\n                /* \"contracts/MultiSigWallet_flattened.sol\":12289:12308  isOwner[msg.sender] */\n              0x00\n              swap1\n              dup2\n              mstore\n                /* \"contracts/MultiSigWallet_flattened.sol\":12289:12296  isOwner */\n              0x01\n                /* \"contracts/MultiSigWallet_flattened.sol\":12289:12308  isOwner[msg.sender] */\n              0x20\n              mstore\n              0x40\n              swap1\n              keccak256\n              sload\n              0xff\n              and\n                /* \"contracts/MultiSigWallet_flattened.sol\":12281:12322  require(isOwner[msg.sender], \"Not owner\") */\n              tag_191\n              jumpi\n              mload(0x40)\n              shl(0xe5, 0x461bcd)\n              dup2\n              mstore\n              0x04\n              add\n              tag_122\n              swap1\n              tag_123\n              jump\t// in\n            tag_191:\n                /* \"contracts/MultiSigWallet_flattened.sol\":13521:13542  newSignaturesRequired */\n              dup2\n                /* \"contracts/MultiSigWallet_flattened.sol\":12556:12557  0 */\n              0x00\n                /* \"contracts/MultiSigWallet_flattened.sol\":12534:12553  _signaturesRequired */\n              dup2\n                /* \"contracts/MultiSigWallet_flattened.sol\":12534:12557  _signaturesRequired > 0 */\n              gt\n                /* \"contracts/MultiSigWallet_flattened.sol\":12526:12592  require(_signaturesRequired > 0, \"Must be non-zero sigs required\") */\n              tag_194\n              jumpi\n              mload(0x40)\n              shl(0xe5, 0x461bcd)\n              dup2\n              mstore\n              0x04\n              add\n              tag_122\n              swap1\n              tag_158\n              jump\t// in\n            tag_194:\n              sub(shl(0xa0, 0x01), 0x01)\n                /* \"contracts/MultiSigWallet_flattened.sol\":13566:13589  newSigner != address(0) */\n              dup5\n              and\n                /* \"contracts/MultiSigWallet_flattened.sol\":13558:13617  require(newSigner != address(0), \"addSigner: zero address\") */\n              tag_197\n              jumpi\n              mload(0x40)\n              shl(0xe5, 0x461bcd)\n              dup2\n              mstore\n                /* \"#utility.yul\":15736:15738   */\n              0x20\n                /* \"contracts/MultiSigWallet_flattened.sol\":13558:13617  require(newSigner != address(0), \"addSigner: zero address\") */\n              0x04\n              dup3\n              add\n                /* \"#utility.yul\":15718:15739   */\n              mstore\n                /* \"#utility.yul\":15775:15777   */\n              0x17\n                /* \"#utility.yul\":15755:15773   */\n              0x24\n              dup3\n              add\n                /* \"#utility.yul\":15748:15778   */\n              mstore\n                /* \"#utility.yul\":15814:15839   */\n              0x6164645369676e65723a207a65726f2061646472657373000000000000000000\n                /* \"#utility.yul\":15794:15812   */\n              0x44\n              dup3\n              add\n                /* \"#utility.yul\":15787:15840   */\n              mstore\n                /* \"#utility.yul\":15857:15875   */\n              0x64\n              add\n                /* \"contracts/MultiSigWallet_flattened.sol\":13558:13617  require(newSigner != address(0), \"addSigner: zero address\") */\n              tag_122\n                /* \"#utility.yul\":15534:15881   */\n              jump\n                /* \"contracts/MultiSigWallet_flattened.sol\":13558:13617  require(newSigner != address(0), \"addSigner: zero address\") */\n            tag_197:\n              sub(shl(0xa0, 0x01), 0x01)\n                /* \"contracts/MultiSigWallet_flattened.sol\":13636:13654  isOwner[newSigner] */\n              dup5\n              and\n              0x00\n              swap1\n              dup2\n              mstore\n                /* \"contracts/MultiSigWallet_flattened.sol\":13636:13643  isOwner */\n              0x01\n                /* \"contracts/MultiSigWallet_flattened.sol\":13636:13654  isOwner[newSigner] */\n              0x20\n              mstore\n              0x40\n              swap1\n              keccak256\n              sload\n              0xff\n              and\n                /* \"contracts/MultiSigWallet_flattened.sol\":13635:13654  !isOwner[newSigner] */\n              iszero\n                /* \"contracts/MultiSigWallet_flattened.sol\":13627:13686  require(!isOwner[newSigner], \"addSigner: owner not unique\") */\n              tag_200\n              jumpi\n              mload(0x40)\n              shl(0xe5, 0x461bcd)\n              dup2\n              mstore\n                /* \"#utility.yul\":16088:16090   */\n              0x20\n                /* \"contracts/MultiSigWallet_flattened.sol\":13627:13686  require(!isOwner[newSigner], \"addSigner: owner not unique\") */\n              0x04\n              dup3\n              add\n                /* \"#utility.yul\":16070:16091   */\n              mstore\n                /* \"#utility.yul\":16127:16129   */\n              0x1b\n                /* \"#utility.yul\":16107:16125   */\n              0x24\n              dup3\n              add\n                /* \"#utility.yul\":16100:16130   */\n              mstore\n                /* \"#utility.yul\":16166:16195   */\n              0x6164645369676e65723a206f776e6572206e6f7420756e697175650000000000\n                /* \"#utility.yul\":16146:16164   */\n              0x44\n              dup3\n              add\n                /* \"#utility.yul\":16139:16196   */\n              mstore\n                /* \"#utility.yul\":16213:16231   */\n              0x64\n              add\n                /* \"contracts/MultiSigWallet_flattened.sol\":13627:13686  require(!isOwner[newSigner], \"addSigner: owner not unique\") */\n              tag_122\n                /* \"#utility.yul\":15886:16237   */\n              jump\n                /* \"contracts/MultiSigWallet_flattened.sol\":13627:13686  require(!isOwner[newSigner], \"addSigner: owner not unique\") */\n            tag_200:\n              sub(shl(0xa0, 0x01), 0x01)\n                /* \"contracts/MultiSigWallet_flattened.sol\":13697:13715  isOwner[newSigner] */\n              dup5\n              and\n              0x00\n              dup2\n              dup2\n              mstore\n                /* \"contracts/MultiSigWallet_flattened.sol\":13718:13722  true */\n              0x01\n                /* \"contracts/MultiSigWallet_flattened.sol\":13697:13715  isOwner[newSigner] */\n              0x20\n              dup2\n              swap1\n              mstore\n              0x40\n              dup3\n              keccak256\n                /* \"contracts/MultiSigWallet_flattened.sol\":13697:13722  isOwner[newSigner] = true */\n              dup1\n              sload\n              not(0xff)\n              and\n              dup3\n              or\n              swap1\n              sstore\n                /* \"contracts/MultiSigWallet_flattened.sol\":13732:13738  owners */\n              0x04\n                /* \"contracts/MultiSigWallet_flattened.sol\":13732:13754  owners.push(newSigner) */\n              dup1\n              sload\n              swap2\n              dup3\n              add\n              dup2\n              sstore\n              swap1\n              swap2\n              mstore\n              0x8a35acfbc15ff81a39ae7d344fd709f28e8600b4aa8c65c6b64bfe7fe36bd19b\n              add\n              dup1\n              sload\n              not(sub(shl(0xa0, 0x01), 0x01))\n              and\n              swap1\n              swap2\n              or\n              swap1\n              sstore\n                /* \"contracts/MultiSigWallet_flattened.sol\":13764:13782  signaturesRequired */\n              0x05\n                /* \"contracts/MultiSigWallet_flattened.sol\":13764:13806  signaturesRequired = newSignaturesRequired */\n              dup4\n              swap1\n              sstore\n                /* \"contracts/MultiSigWallet_flattened.sol\":13816:13870  updateSignaturesRequired(owner, newSignaturesRequired) */\n              tag_165\n                /* \"contracts/MultiSigWallet_flattened.sol\":13841:13846  owner */\n              dup6\n                /* \"contracts/MultiSigWallet_flattened.sol\":13785:13806  newSignaturesRequired */\n              dup5\n                /* \"contracts/MultiSigWallet_flattened.sol\":13816:13840  updateSignaturesRequired */\n              tag_166\n                /* \"contracts/MultiSigWallet_flattened.sol\":13816:13870  updateSignaturesRequired(owner, newSignaturesRequired) */\n              jump\t// in\n                /* \"contracts/MultiSigWallet_flattened.sol\":15519:15912  function getFunctionData(... */\n            tag_98:\n                /* \"contracts/MultiSigWallet_flattened.sol\":15744:15905  abi.encodeWithSignature(... */\n              mload(0x40)\n              sub(shl(0xa0, 0x01), 0x01)\n                /* \"#utility.yul\":16500:16515   */\n              dup1\n              dup6\n              and\n                /* \"contracts/MultiSigWallet_flattened.sol\":15744:15905  abi.encodeWithSignature(... */\n              0x24\n              dup4\n              add\n                /* \"#utility.yul\":16482:16516   */\n              mstore\n                /* \"#utility.yul\":16552:16567   */\n              dup4\n              and\n                /* \"#utility.yul\":16532:16550   */\n              0x44\n              dup3\n              add\n                /* \"#utility.yul\":16525:16568   */\n              mstore\n                /* \"#utility.yul\":16584:16602   */\n              0x64\n              dup2\n              add\n                /* \"#utility.yul\":16577:16611   */\n              dup3\n              swap1\n              mstore\n                /* \"contracts/MultiSigWallet_flattened.sol\":15701:15713  bytes memory */\n              0x60\n              swap1\n                /* \"contracts/MultiSigWallet_flattened.sol\":15785:15802  functionSignature */\n              dup6\n              swap1\n                /* \"#utility.yul\":16417:16435   */\n              0x84\n              add\n                /* \"contracts/MultiSigWallet_flattened.sol\":15744:15905  abi.encodeWithSignature(... */\n              0x40\n              dup1\n              mload\n              not(0x1f)\n              dup2\n              dup5\n              sub\n              add\n              dup2\n              mstore\n              swap1\n              dup3\n              swap1\n              mstore\n              swap2\n              tag_213\n              swap2\n              tag_135\n              jump\t// in\n            tag_213:\n              mload(0x40)\n              swap1\n              dup2\n              swap1\n              sub\n              swap1\n              keccak256\n              0x20\n              dup3\n              add\n              dup1\n              mload\n              sub(shl(0xe0, 0x01), 0x01)\n              and\n              not(sub(shl(0xe0, 0x01), 0x01))\n              swap1\n              swap3\n              and\n              swap2\n              swap1\n              swap2\n              or\n              swap1\n              mstore\n              swap1\n              pop\n                /* \"contracts/MultiSigWallet_flattened.sol\":15519:15912  function getFunctionData(... */\n              swap5\n              swap4\n              pop\n              pop\n              pop\n              pop\n              jump\t// out\n                /* \"contracts/MultiSigWallet_flattened.sol\":18711:19064  function verifyUserSign(string memory _passkey, bytes memory signature)... */\n            tag_113:\n                /* \"contracts/MultiSigWallet_flattened.sol\":18828:18853  address userWalletAddress */\n              0x00\n                /* \"contracts/MultiSigWallet_flattened.sol\":18869:18888  bytes32 messageHash */\n              dup1\n                /* \"contracts/MultiSigWallet_flattened.sol\":18891:18915  getMessageHash(_passkey) */\n              tag_215\n                /* \"contracts/MultiSigWallet_flattened.sol\":18906:18914  _passkey */\n              dup5\n                /* \"contracts/MultiSigWallet_flattened.sol\":18891:18905  getMessageHash */\n              tag_126\n                /* \"contracts/MultiSigWallet_flattened.sol\":18891:18915  getMessageHash(_passkey) */\n              jump\t// in\n            tag_215:\n                /* \"contracts/MultiSigWallet_flattened.sol\":18869:18915  bytes32 messageHash = getMessageHash(_passkey) */\n              swap1\n              pop\n                /* \"contracts/MultiSigWallet_flattened.sol\":18925:18953  bytes32 ethSignedMessageHash */\n              0x00\n                /* \"contracts/MultiSigWallet_flattened.sol\":18956:18992  getEthSignedMessageHash(messageHash) */\n              tag_216\n                /* \"contracts/MultiSigWallet_flattened.sol\":18980:18991  messageHash */\n              dup3\n                /* \"contracts/MultiSigWallet_flattened.sol\":18956:18979  getEthSignedMessageHash */\n              tag_217\n                /* \"contracts/MultiSigWallet_flattened.sol\":18956:18992  getEthSignedMessageHash(messageHash) */\n              jump\t// in\n            tag_216:\n                /* \"contracts/MultiSigWallet_flattened.sol\":18925:18992  bytes32 ethSignedMessageHash = getEthSignedMessageHash(messageHash) */\n              swap1\n              pop\n                /* \"contracts/MultiSigWallet_flattened.sol\":19010:19056  recoverSigner(ethSignedMessageHash, signature) */\n              tag_218\n                /* \"contracts/MultiSigWallet_flattened.sol\":19024:19044  ethSignedMessageHash */\n              dup2\n                /* \"contracts/MultiSigWallet_flattened.sol\":19046:19055  signature */\n              dup6\n                /* \"contracts/MultiSigWallet_flattened.sol\":19010:19023  recoverSigner */\n              tag_219\n                /* \"contracts/MultiSigWallet_flattened.sol\":19010:19056  recoverSigner(ethSignedMessageHash, signature) */\n              jump\t// in\n            tag_218:\n                /* \"contracts/MultiSigWallet_flattened.sol\":19002:19057  return (recoverSigner(ethSignedMessageHash, signature)) */\n              swap6\n                /* \"contracts/MultiSigWallet_flattened.sol\":18711:19064  function verifyUserSign(string memory _passkey, bytes memory signature)... */\n              swap5\n              pop\n              pop\n              pop\n              pop\n              pop\n              jump\t// out\n                /* \"contracts/MultiSigWallet_flattened.sol\":18050:18219  function getMessageHash(string memory _passkey)... */\n            tag_126:\n                /* \"contracts/MultiSigWallet_flattened.sol\":18145:18152  bytes32 */\n              0x00\n                /* \"contracts/MultiSigWallet_flattened.sol\":18202:18210  _passkey */\n              dup2\n                /* \"contracts/MultiSigWallet_flattened.sol\":18185:18211  abi.encodePacked(_passkey) */\n              add(0x20, mload(0x40))\n              tag_221\n              swap2\n              swap1\n              tag_135\n              jump\t// in\n            tag_221:\n              mload(0x40)\n              0x20\n              dup2\n              dup4\n              sub\n              sub\n              dup2\n              mstore\n              swap1\n              0x40\n              mstore\n                /* \"contracts/MultiSigWallet_flattened.sol\":18175:18212  keccak256(abi.encodePacked(_passkey)) */\n              dup1\n              mload\n              swap1\n              0x20\n              add\n              keccak256\n                /* \"contracts/MultiSigWallet_flattened.sol\":18168:18212  return keccak256(abi.encodePacked(_passkey)) */\n              swap1\n              pop\n                /* \"contracts/MultiSigWallet_flattened.sol\":18050:18219  function getMessageHash(string memory _passkey)... */\n              swap2\n              swap1\n              pop\n              jump\t// out\n                /* \"contracts/MultiSigWallet_flattened.sol\":3702:3957  function recover(bytes32 hash, bytes memory signature) internal pure returns (address) {... */\n            tag_150:\n                /* \"contracts/MultiSigWallet_flattened.sol\":3780:3787  address */\n              0x00\n                /* \"contracts/MultiSigWallet_flattened.sol\":3800:3817  address recovered */\n              dup1\n                /* \"contracts/MultiSigWallet_flattened.sol\":3819:3837  RecoverError error */\n              0x00\n                /* \"contracts/MultiSigWallet_flattened.sol\":3839:3855  bytes32 errorArg */\n              dup1\n                /* \"contracts/MultiSigWallet_flattened.sol\":3859:3886  tryRecover(hash, signature) */\n              tag_223\n                /* \"contracts/MultiSigWallet_flattened.sol\":3870:3874  hash */\n              dup7\n                /* \"contracts/MultiSigWallet_flattened.sol\":3876:3885  signature */\n              dup7\n                /* \"contracts/MultiSigWallet_flattened.sol\":3859:3869  tryRecover */\n              tag_224\n                /* \"contracts/MultiSigWallet_flattened.sol\":3859:3886  tryRecover(hash, signature) */\n              jump\t// in\n            tag_223:\n                /* \"contracts/MultiSigWallet_flattened.sol\":3799:3886  (address recovered, RecoverError error, bytes32 errorArg) = tryRecover(hash, signature) */\n              swap3\n              pop\n              swap3\n              pop\n              swap3\n              pop\n                /* \"contracts/MultiSigWallet_flattened.sol\":3896:3924  _throwError(error, errorArg) */\n              tag_225\n                /* \"contracts/MultiSigWallet_flattened.sol\":3908:3913  error */\n              dup3\n                /* \"contracts/MultiSigWallet_flattened.sol\":3915:3923  errorArg */\n              dup3\n                /* \"contracts/MultiSigWallet_flattened.sol\":3896:3907  _throwError */\n              tag_226\n                /* \"contracts/MultiSigWallet_flattened.sol\":3896:3924  _throwError(error, errorArg) */\n              jump\t// in\n            tag_225:\n              pop\n                /* \"contracts/MultiSigWallet_flattened.sol\":3941:3950  recovered */\n              swap1\n              swap5\n                /* \"contracts/MultiSigWallet_flattened.sol\":3702:3957  function recover(bytes32 hash, bytes memory signature) internal pure returns (address) {... */\n              swap4\n              pop\n              pop\n              pop\n              pop\n              jump\t// out\n                /* \"contracts/MultiSigWallet_flattened.sol\":14655:15273  function _removeOwner(address _oldSigner) private {... */\n            tag_164:\n              sub(shl(0xa0, 0x01), 0x01)\n                /* \"contracts/MultiSigWallet_flattened.sol\":14715:14734  isOwner[_oldSigner] */\n              dup2\n              and\n                /* \"contracts/MultiSigWallet_flattened.sol\":14737:14742  false */\n              0x00\n                /* \"contracts/MultiSigWallet_flattened.sol\":14715:14734  isOwner[_oldSigner] */\n              swap1\n              dup2\n              mstore\n                /* \"contracts/MultiSigWallet_flattened.sol\":14715:14722  isOwner */\n              0x01\n                /* \"contracts/MultiSigWallet_flattened.sol\":14715:14734  isOwner[_oldSigner] */\n              0x20\n              mstore\n              0x40\n              dup2\n              keccak256\n                /* \"contracts/MultiSigWallet_flattened.sol\":14715:14742  isOwner[_oldSigner] = false */\n              dup1\n              sload\n              not(0xff)\n              and\n              swap1\n              sstore\n                /* \"contracts/MultiSigWallet_flattened.sol\":14775:14781  owners */\n              0x04\n                /* \"contracts/MultiSigWallet_flattened.sol\":14775:14788  owners.length */\n              sload\n              swap1\n              dup2\n                /* \"contracts/MultiSigWallet_flattened.sol\":14830:14858  new address[](owners.length) */\n              0xffffffffffffffff\n              dup2\n              gt\n              iszero\n              tag_229\n              jumpi\n              tag_229\n              tag_230\n              jump\t// in\n            tag_229:\n              mload(0x40)\n              swap1\n              dup1\n              dup3\n              mstore\n              dup1\n              0x20\n              mul\n              0x20\n              add\n              dup3\n              add\n              0x40\n              mstore\n              dup1\n              iszero\n              tag_231\n              jumpi\n              dup2\n              0x20\n              add\n              0x20\n              dup3\n              mul\n              dup1\n              calldatasize\n              dup4\n              calldatacopy\n              add\n              swap1\n              pop\n            tag_231:\n              pop\n                /* \"contracts/MultiSigWallet_flattened.sol\":14798:14858  address[] memory poppedOwners = new address[](owners.length) */\n              swap1\n              pop\n                /* \"contracts/MultiSigWallet_flattened.sol\":14873:14882  uint256 i */\n              0x00\n                /* \"contracts/MultiSigWallet_flattened.sol\":14885:14901  ownersLength - 1 */\n              tag_235\n                /* \"contracts/MultiSigWallet_flattened.sol\":14900:14901  1 */\n              0x01\n                /* \"contracts/MultiSigWallet_flattened.sol\":14885:14897  ownersLength */\n              dup5\n                /* \"contracts/MultiSigWallet_flattened.sol\":14885:14901  ownersLength - 1 */\n              tag_145\n              jump\t// in\n            tag_235:\n                /* \"contracts/MultiSigWallet_flattened.sol\":14873:14901  uint256 i = ownersLength - 1 */\n              swap1\n              pop\n                /* \"contracts/MultiSigWallet_flattened.sol\":14868:15267  for (uint256 i = ownersLength - 1; i >= 0; i--) {... */\n            tag_232:\n                /* \"contracts/MultiSigWallet_flattened.sol\":14947:14957  _oldSigner */\n              dup4\n              sub(shl(0xa0, 0x01), 0x01)\n                /* \"contracts/MultiSigWallet_flattened.sol\":14934:14957  owners[i] != _oldSigner */\n              and\n                /* \"contracts/MultiSigWallet_flattened.sol\":14934:14940  owners */\n              0x04\n                /* \"contracts/MultiSigWallet_flattened.sol\":14941:14942  i */\n              dup3\n                /* \"contracts/MultiSigWallet_flattened.sol\":14934:14943  owners[i] */\n              dup2\n              sload\n              dup2\n              lt\n              tag_237\n              jumpi\n              tag_237\n              tag_238\n              jump\t// in\n            tag_237:\n              0x00\n              swap2\n              dup3\n              mstore\n              0x20\n              swap1\n              swap2\n              keccak256\n              add\n              sload\n              sub(shl(0xa0, 0x01), 0x01)\n              and\n                /* \"contracts/MultiSigWallet_flattened.sol\":14934:14957  owners[i] != _oldSigner */\n              eq\n                /* \"contracts/MultiSigWallet_flattened.sol\":14930:15257  if (owners[i] != _oldSigner) {... */\n              tag_240\n              jumpi\n                /* \"contracts/MultiSigWallet_flattened.sol\":14995:15001  owners */\n              0x04\n                /* \"contracts/MultiSigWallet_flattened.sol\":15002:15003  i */\n              dup2\n                /* \"contracts/MultiSigWallet_flattened.sol\":14995:15004  owners[i] */\n              dup2\n              sload\n              dup2\n              lt\n              tag_242\n              jumpi\n              tag_242\n              tag_238\n              jump\t// in\n            tag_242:\n              swap1\n              0x00\n              mstore\n              keccak256(0x00, 0x20)\n              add\n              0x00\n              swap1\n              sload\n              swap1\n              0x0100\n              exp\n              swap1\n              div\n              sub(shl(0xa0, 0x01), 0x01)\n              and\n                /* \"contracts/MultiSigWallet_flattened.sol\":14977:14989  poppedOwners */\n              dup3\n                /* \"contracts/MultiSigWallet_flattened.sol\":14990:14991  i */\n              dup3\n                /* \"contracts/MultiSigWallet_flattened.sol\":14977:14992  poppedOwners[i] */\n              dup2\n              mload\n              dup2\n              lt\n              tag_245\n              jumpi\n              tag_245\n              tag_238\n              jump\t// in\n            tag_245:\n              0x20\n              mul\n              0x20\n              add\n              add\n                /* \"contracts/MultiSigWallet_flattened.sol\":14977:15004  poppedOwners[i] = owners[i] */\n              swap1\n              sub(shl(0xa0, 0x01), 0x01)\n              and\n              swap1\n              dup2\n              sub(shl(0xa0, 0x01), 0x01)\n              and\n              dup2\n              mstore\n              pop\n              pop\n                /* \"contracts/MultiSigWallet_flattened.sol\":15022:15028  owners */\n              0x04\n                /* \"contracts/MultiSigWallet_flattened.sol\":15022:15034  owners.pop() */\n              dup1\n              sload\n              dup1\n              tag_247\n              jumpi\n              tag_247\n              tag_248\n              jump\t// in\n            tag_247:\n              0x00\n              dup3\n              dup2\n              mstore\n              0x20\n              swap1\n              keccak256\n              dup2\n              add\n              not(0x00)\n              swap1\n              dup2\n              add\n              dup1\n              sload\n              not(sub(shl(0xa0, 0x01), 0x01))\n              and\n              swap1\n              sstore\n              add\n              swap1\n              sstore\n                /* \"contracts/MultiSigWallet_flattened.sol\":14930:15257  if (owners[i] != _oldSigner) {... */\n              jump(tag_250)\n            tag_240:\n                /* \"contracts/MultiSigWallet_flattened.sol\":15073:15079  owners */\n              0x04\n                /* \"contracts/MultiSigWallet_flattened.sol\":15073:15085  owners.pop() */\n              dup1\n              sload\n              dup1\n              tag_252\n              jumpi\n              tag_252\n              tag_248\n              jump\t// in\n            tag_252:\n              0x00\n              dup3\n              dup2\n              mstore\n              0x20\n              swap1\n              keccak256\n              dup2\n              add\n              not(0x00)\n              swap1\n              dup2\n              add\n              dup1\n              sload\n              not(sub(shl(0xa0, 0x01), 0x01))\n              and\n              swap1\n              sstore\n              add\n              swap1\n              sstore\n                /* \"contracts/MultiSigWallet_flattened.sol\":15120:15121  i */\n              dup1\n                /* \"contracts/MultiSigWallet_flattened.sol\":15103:15219  for (uint256 j = i; j < ownersLength - 1; j++) {... */\n            tag_254:\n                /* \"contracts/MultiSigWallet_flattened.sol\":15127:15143  ownersLength - 1 */\n              tag_257\n                /* \"contracts/MultiSigWallet_flattened.sol\":15142:15143  1 */\n              0x01\n                /* \"contracts/MultiSigWallet_flattened.sol\":15127:15139  ownersLength */\n              dup6\n                /* \"contracts/MultiSigWallet_flattened.sol\":15127:15143  ownersLength - 1 */\n              tag_145\n              jump\t// in\n            tag_257:\n                /* \"contracts/MultiSigWallet_flattened.sol\":15123:15124  j */\n              dup2\n                /* \"contracts/MultiSigWallet_flattened.sol\":15123:15143  j < ownersLength - 1 */\n              lt\n                /* \"contracts/MultiSigWallet_flattened.sol\":15103:15219  for (uint256 j = i; j < ownersLength - 1; j++) {... */\n              iszero\n              tag_255\n              jumpi\n                /* \"contracts/MultiSigWallet_flattened.sol\":15172:15178  owners */\n              0x04\n                /* \"contracts/MultiSigWallet_flattened.sol\":15184:15196  poppedOwners */\n              dup4\n                /* \"contracts/MultiSigWallet_flattened.sol\":15197:15198  j */\n              dup3\n                /* \"contracts/MultiSigWallet_flattened.sol\":15184:15199  poppedOwners[j] */\n              dup2\n              mload\n              dup2\n              lt\n              tag_259\n              jumpi\n              tag_259\n              tag_238\n              jump\t// in\n            tag_259:\n              0x20\n              swap1\n              dup2\n              mul\n              swap2\n              swap1\n              swap2\n              add\n              dup2\n              add\n              mload\n                /* \"contracts/MultiSigWallet_flattened.sol\":15172:15200  owners.push(poppedOwners[j]) */\n              dup3\n              sload\n              0x01\n              dup1\n              dup3\n              add\n              dup6\n              sstore\n              0x00\n              swap5\n              dup6\n              mstore\n              swap3\n              swap1\n              swap4\n              keccak256\n              swap1\n              swap3\n              add\n              dup1\n              sload\n              not(sub(shl(0xa0, 0x01), 0x01))\n              and\n              sub(shl(0xa0, 0x01), 0x01)\n              swap1\n              swap4\n              and\n              swap3\n              swap1\n              swap3\n              or\n              swap1\n              swap2\n              sstore\n                /* \"contracts/MultiSigWallet_flattened.sol\":15145:15148  j++ */\n              add\n                /* \"contracts/MultiSigWallet_flattened.sol\":15103:15219  for (uint256 j = i; j < ownersLength - 1; j++) {... */\n              jump(tag_254)\n            tag_255:\n              pop\n                /* \"contracts/MultiSigWallet_flattened.sol\":15236:15243  return; */\n              pop\n              pop\n              pop\n                /* \"contracts/MultiSigWallet_flattened.sol\":14655:15273  function _removeOwner(address _oldSigner) private {... */\n              pop\n              jump\t// out\n                /* \"contracts/MultiSigWallet_flattened.sol\":14930:15257  if (owners[i] != _oldSigner) {... */\n            tag_250:\n                /* \"contracts/MultiSigWallet_flattened.sol\":14911:14914  i-- */\n              dup1\n              tag_261\n              dup2\n              tag_262\n              jump\t// in\n            tag_261:\n              swap2\n              pop\n              pop\n                /* \"contracts/MultiSigWallet_flattened.sol\":14868:15267  for (uint256 i = ownersLength - 1; i >= 0; i--) {... */\n              jump(tag_232)\n                /* \"contracts/MultiSigWallet_flattened.sol\":15279:15513  function updateSignaturesRequired(... */\n            tag_166:\n                /* \"contracts/MultiSigWallet_flattened.sol\":15399:15404  owner */\n              dup2\n                /* \"contracts/MultiSigWallet_flattened.sol\":12397:12407  msg.sender */\n              caller\n              sub(shl(0xa0, 0x01), 0x01)\n                /* \"contracts/MultiSigWallet_flattened.sol\":12397:12416  msg.sender == owner */\n              dup3\n              and\n              eq\n                /* \"contracts/MultiSigWallet_flattened.sol\":12389:12429  require(msg.sender == owner, \"Not Self\") */\n              tag_264\n              jumpi\n              mload(0x40)\n              shl(0xe5, 0x461bcd)\n              dup2\n              mstore\n              0x04\n              add\n              tag_122\n              swap1\n              tag_154\n              jump\t// in\n            tag_264:\n                /* \"contracts/MultiSigWallet_flattened.sol\":15431:15452  newSignaturesRequired */\n              dup2\n                /* \"contracts/MultiSigWallet_flattened.sol\":12556:12557  0 */\n              0x00\n                /* \"contracts/MultiSigWallet_flattened.sol\":12534:12553  _signaturesRequired */\n              dup2\n                /* \"contracts/MultiSigWallet_flattened.sol\":12534:12557  _signaturesRequired > 0 */\n              gt\n                /* \"contracts/MultiSigWallet_flattened.sol\":12526:12592  require(_signaturesRequired > 0, \"Must be non-zero sigs required\") */\n              tag_267\n              jumpi\n              mload(0x40)\n              shl(0xe5, 0x461bcd)\n              dup2\n              mstore\n              0x04\n              add\n              tag_122\n              swap1\n              tag_158\n              jump\t// in\n            tag_267:\n              pop\n              pop\n                /* \"contracts/MultiSigWallet_flattened.sol\":15464:15482  signaturesRequired */\n              0x05\n                /* \"contracts/MultiSigWallet_flattened.sol\":15464:15506  signaturesRequired = newSignaturesRequired */\n              sstore\n              pop\n                /* \"contracts/MultiSigWallet_flattened.sol\":15279:15513  function updateSignaturesRequired(... */\n              jump\t// out\n                /* \"contracts/MultiSigWallet_flattened.sol\":18225:18705  function getEthSignedMessageHash(bytes32 _messageHash)... */\n            tag_217:\n                /* \"contracts/MultiSigWallet_flattened.sol\":18560:18684  abi.encodePacked(... */\n              mload(0x40)\n                /* \"#utility.yul\":17269:17335   */\n              0x19457468657265756d205369676e6564204d6573736167653a0a333200000000\n                /* \"contracts/MultiSigWallet_flattened.sol\":18560:18684  abi.encodePacked(... */\n              0x20\n              dup3\n              add\n                /* \"#utility.yul\":17257:17336   */\n              mstore\n                /* \"#utility.yul\":17352:17364   */\n              0x3c\n              dup2\n              add\n                /* \"#utility.yul\":17345:17373   */\n              dup3\n              swap1\n              mstore\n                /* \"contracts/MultiSigWallet_flattened.sol\":18327:18334  bytes32 */\n              0x00\n              swap1\n                /* \"#utility.yul\":17389:17401   */\n              0x5c\n              add\n                /* \"contracts/MultiSigWallet_flattened.sol\":18560:18684  abi.encodePacked(... */\n              tag_221\n                /* \"#utility.yul\":17027:17407   */\n              jump\n                /* \"contracts/MultiSigWallet_flattened.sol\":19070:19339  function recoverSigner(... */\n            tag_219:\n                /* \"contracts/MultiSigWallet_flattened.sol\":19194:19201  address */\n              0x00\n                /* \"contracts/MultiSigWallet_flattened.sol\":19214:19223  bytes32 r */\n              dup1\n                /* \"contracts/MultiSigWallet_flattened.sol\":19225:19234  bytes32 s */\n              0x00\n                /* \"contracts/MultiSigWallet_flattened.sol\":19236:19243  uint8 v */\n              dup1\n                /* \"contracts/MultiSigWallet_flattened.sol\":19247:19273  splitSignature(_signature) */\n              tag_274\n                /* \"contracts/MultiSigWallet_flattened.sol\":19262:19272  _signature */\n              dup6\n                /* \"contracts/MultiSigWallet_flattened.sol\":19247:19261  splitSignature */\n              tag_275\n                /* \"contracts/MultiSigWallet_flattened.sol\":19247:19273  splitSignature(_signature) */\n              jump\t// in\n            tag_274:\n                /* \"contracts/MultiSigWallet_flattened.sol\":19291:19332  ecrecover(_ethSignedMessageHash, v, r, s) */\n              0x40\n              dup1\n              mload\n              0x00\n              dup2\n              mstore\n              0x20\n              dup2\n              add\n              dup1\n              dup4\n              mstore\n                /* \"#utility.yul\":17639:17664   */\n              dup12\n              swap1\n              mstore\n                /* \"#utility.yul\":17712:17716   */\n              0xff\n                /* \"#utility.yul\":17700:17717   */\n              dup4\n              and\n                /* \"#utility.yul\":17680:17698   */\n              swap2\n              dup2\n              add\n                /* \"#utility.yul\":17673:17718   */\n              swap2\n              swap1\n              swap2\n              mstore\n                /* \"#utility.yul\":17734:17752   */\n              0x60\n              dup2\n              add\n                /* \"#utility.yul\":17727:17761   */\n              dup5\n              swap1\n              mstore\n                /* \"#utility.yul\":17777:17795   */\n              0x80\n              dup2\n              add\n                /* \"#utility.yul\":17770:17804   */\n              dup4\n              swap1\n              mstore\n                /* \"contracts/MultiSigWallet_flattened.sol\":19213:19273  (bytes32 r, bytes32 s, uint8 v) = splitSignature(_signature) */\n              swap3\n              swap6\n              pop\n              swap1\n              swap4\n              pop\n              swap2\n              pop\n                /* \"contracts/MultiSigWallet_flattened.sol\":19291:19332  ecrecover(_ethSignedMessageHash, v, r, s) */\n              0x01\n              swap1\n                /* \"#utility.yul\":17611:17630   */\n              0xa0\n              add\n                /* \"contracts/MultiSigWallet_flattened.sol\":19291:19332  ecrecover(_ethSignedMessageHash, v, r, s) */\n              0x20\n              mload(0x40)\n              0x20\n              dup2\n              sub\n              swap1\n              dup1\n              dup5\n              sub\n              swap1\n              dup6\n              gas\n              staticcall\n              iszero\n              dup1\n              iszero\n              tag_279\n              jumpi\n              returndatasize\n              0x00\n              dup1\n              returndatacopy\n              revert(0x00, returndatasize)\n            tag_279:\n              pop\n              pop\n              mload(add(not(0x1f), mload(0x40)))\n              swap8\n                /* \"contracts/MultiSigWallet_flattened.sol\":19070:19339  function recoverSigner(... */\n              swap7\n              pop\n              pop\n              pop\n              pop\n              pop\n              pop\n              pop\n              jump\t// out\n                /* \"contracts/MultiSigWallet_flattened.sol\":2129:2895  function tryRecover(bytes32 hash, bytes memory signature) internal pure returns (address, RecoverError, bytes32) {... */\n            tag_224:\n                /* \"contracts/MultiSigWallet_flattened.sol\":2210:2217  address */\n              0x00\n                /* \"contracts/MultiSigWallet_flattened.sol\":2219:2231  RecoverError */\n              dup1\n                /* \"contracts/MultiSigWallet_flattened.sol\":2233:2240  bytes32 */\n              0x00\n                /* \"contracts/MultiSigWallet_flattened.sol\":2256:2265  signature */\n              dup4\n                /* \"contracts/MultiSigWallet_flattened.sol\":2256:2272  signature.length */\n              mload\n                /* \"contracts/MultiSigWallet_flattened.sol\":2276:2278  65 */\n              0x41\n                /* \"contracts/MultiSigWallet_flattened.sol\":2256:2278  signature.length == 65 */\n              sub\n                /* \"contracts/MultiSigWallet_flattened.sol\":2252:2889  if (signature.length == 65) {... */\n              tag_281\n              jumpi\n                /* \"contracts/MultiSigWallet_flattened.sol\":2592:2596  0x20 */\n              0x20\n                /* \"contracts/MultiSigWallet_flattened.sol\":2577:2597  add(signature, 0x20) */\n              dup5\n              add\n                /* \"contracts/MultiSigWallet_flattened.sol\":2571:2598  mload(add(signature, 0x20)) */\n              mload\n                /* \"contracts/MultiSigWallet_flattened.sol\":2641:2645  0x40 */\n              0x40\n                /* \"contracts/MultiSigWallet_flattened.sol\":2626:2646  add(signature, 0x40) */\n              dup6\n              add\n                /* \"contracts/MultiSigWallet_flattened.sol\":2620:2647  mload(add(signature, 0x40)) */\n              mload\n                /* \"contracts/MultiSigWallet_flattened.sol\":2698:2702  0x60 */\n              0x60\n                /* \"contracts/MultiSigWallet_flattened.sol\":2683:2703  add(signature, 0x60) */\n              dup7\n              add\n                /* \"contracts/MultiSigWallet_flattened.sol\":2677:2704  mload(add(signature, 0x60)) */\n              mload\n                /* \"contracts/MultiSigWallet_flattened.sol\":2294:2303  bytes32 r */\n              0x00\n                /* \"contracts/MultiSigWallet_flattened.sol\":2669:2705  byte(0, mload(add(signature, 0x60))) */\n              byte\n                /* \"contracts/MultiSigWallet_flattened.sol\":2739:2764  tryRecover(hash, v, r, s) */\n              tag_282\n                /* \"contracts/MultiSigWallet_flattened.sol\":2750:2754  hash */\n              dup9\n                /* \"contracts/MultiSigWallet_flattened.sol\":2669:2705  byte(0, mload(add(signature, 0x60))) */\n              dup3\n                /* \"contracts/MultiSigWallet_flattened.sol\":2571:2598  mload(add(signature, 0x20)) */\n              dup6\n                /* \"contracts/MultiSigWallet_flattened.sol\":2620:2647  mload(add(signature, 0x40)) */\n              dup6\n                /* \"contracts/MultiSigWallet_flattened.sol\":2739:2749  tryRecover */\n              tag_283\n                /* \"contracts/MultiSigWallet_flattened.sol\":2739:2764  tryRecover(hash, v, r, s) */\n              jump\t// in\n            tag_282:\n                /* \"contracts/MultiSigWallet_flattened.sol\":2732:2764  return tryRecover(hash, v, r, s) */\n              swap6\n              pop\n              swap6\n              pop\n              swap6\n              pop\n              pop\n              pop\n              pop\n              jump(tag_284)\n                /* \"contracts/MultiSigWallet_flattened.sol\":2252:2889  if (signature.length == 65) {... */\n            tag_281:\n              pop\n              pop\n                /* \"contracts/MultiSigWallet_flattened.sol\":2860:2876  signature.length */\n              dup2\n              mload\n                /* \"contracts/MultiSigWallet_flattened.sol\":2811:2812  0 */\n              0x00\n              swap2\n              pop\n                /* \"contracts/MultiSigWallet_flattened.sol\":2815:2850  RecoverError.InvalidSignatureLength */\n              0x02\n              swap1\n                /* \"contracts/MultiSigWallet_flattened.sol\":2252:2889  if (signature.length == 65) {... */\n            tag_284:\n                /* \"contracts/MultiSigWallet_flattened.sol\":2129:2895  function tryRecover(bytes32 hash, bytes memory signature) internal pure returns (address, RecoverError, bytes32) {... */\n              swap3\n              pop\n              swap3\n              pop\n              swap3\n              jump\t// out\n                /* \"contracts/MultiSigWallet_flattened.sol\":7196:7728  function _throwError(RecoverError error, bytes32 errorArg) private pure {... */\n            tag_226:\n                /* \"contracts/MultiSigWallet_flattened.sol\":7291:7311  RecoverError.NoError */\n              0x00\n                /* \"contracts/MultiSigWallet_flattened.sol\":7282:7287  error */\n              dup3\n                /* \"contracts/MultiSigWallet_flattened.sol\":7282:7311  error == RecoverError.NoError */\n              0x03\n              dup2\n              gt\n              iszero\n              tag_290\n              jumpi\n              tag_290\n              tag_288\n              jump\t// in\n            tag_290:\n              sub\n                /* \"contracts/MultiSigWallet_flattened.sol\":7278:7722  if (error == RecoverError.NoError) {... */\n              tag_291\n              jumpi\n                /* \"contracts/MultiSigWallet_flattened.sol\":7196:7728  function _throwError(RecoverError error, bytes32 errorArg) private pure {... */\n              pop\n              pop\n              jump\t// out\n                /* \"contracts/MultiSigWallet_flattened.sol\":7278:7722  if (error == RecoverError.NoError) {... */\n            tag_291:\n                /* \"contracts/MultiSigWallet_flattened.sol\":7387:7416  RecoverError.InvalidSignature */\n              0x01\n                /* \"contracts/MultiSigWallet_flattened.sol\":7378:7383  error */\n              dup3\n                /* \"contracts/MultiSigWallet_flattened.sol\":7378:7416  error == RecoverError.InvalidSignature */\n              0x03\n              dup2\n              gt\n              iszero\n              tag_296\n              jumpi\n              tag_296\n              tag_288\n              jump\t// in\n            tag_296:\n              sub\n                /* \"contracts/MultiSigWallet_flattened.sol\":7374:7722  if (error == RecoverError.InvalidSignature) {... */\n              tag_297\n              jumpi\n                /* \"contracts/MultiSigWallet_flattened.sol\":7439:7462  ECDSAInvalidSignature() */\n              mload(0x40)\n              shl(0xe0, 0xf645eedf)\n              dup2\n              mstore\n              0x04\n              add\n              mload(0x40)\n              dup1\n              swap2\n              sub\n              swap1\n              revert\n                /* \"contracts/MultiSigWallet_flattened.sol\":7374:7722  if (error == RecoverError.InvalidSignature) {... */\n            tag_297:\n                /* \"contracts/MultiSigWallet_flattened.sol\":7492:7527  RecoverError.InvalidSignatureLength */\n              0x02\n                /* \"contracts/MultiSigWallet_flattened.sol\":7483:7488  error */\n              dup3\n                /* \"contracts/MultiSigWallet_flattened.sol\":7483:7527  error == RecoverError.InvalidSignatureLength */\n              0x03\n              dup2\n              gt\n              iszero\n              tag_302\n              jumpi\n              tag_302\n              tag_288\n              jump\t// in\n            tag_302:\n              sub\n                /* \"contracts/MultiSigWallet_flattened.sol\":7479:7722  if (error == RecoverError.InvalidSignatureLength) {... */\n              tag_303\n              jumpi\n                /* \"contracts/MultiSigWallet_flattened.sol\":7550:7596  ECDSAInvalidSignatureLength(uint256(errorArg)) */\n              mload(0x40)\n              shl(0xe0, 0xfce698f7)\n              dup2\n              mstore\n              0x04\n              dup2\n              add\n                /* \"#utility.yul\":598:623   */\n              dup3\n              swap1\n              mstore\n                /* \"#utility.yul\":571:589   */\n              0x24\n              add\n                /* \"contracts/MultiSigWallet_flattened.sol\":7550:7596  ECDSAInvalidSignatureLength(uint256(errorArg)) */\n              tag_122\n                /* \"#utility.yul\":452:629   */\n              jump\n                /* \"contracts/MultiSigWallet_flattened.sol\":7479:7722  if (error == RecoverError.InvalidSignatureLength) {... */\n            tag_303:\n                /* \"contracts/MultiSigWallet_flattened.sol\":7626:7656  RecoverError.InvalidSignatureS */\n              0x03\n                /* \"contracts/MultiSigWallet_flattened.sol\":7617:7622  error */\n              dup3\n                /* \"contracts/MultiSigWallet_flattened.sol\":7617:7656  error == RecoverError.InvalidSignatureS */\n              0x03\n              dup2\n              gt\n              iszero\n              tag_309\n              jumpi\n              tag_309\n              tag_288\n              jump\t// in\n            tag_309:\n              sub\n                /* \"contracts/MultiSigWallet_flattened.sol\":7613:7722  if (error == RecoverError.InvalidSignatureS) {... */\n              tag_310\n              jumpi\n                /* \"contracts/MultiSigWallet_flattened.sol\":7679:7711  ECDSAInvalidSignatureS(errorArg) */\n              mload(0x40)\n              shl(0xe2, 0x35e2f383)\n              dup2\n              mstore\n              0x04\n              dup2\n              add\n                /* \"#utility.yul\":598:623   */\n              dup3\n              swap1\n              mstore\n                /* \"#utility.yul\":571:589   */\n              0x24\n              add\n                /* \"contracts/MultiSigWallet_flattened.sol\":7679:7711  ECDSAInvalidSignatureS(errorArg) */\n              tag_122\n                /* \"#utility.yul\":452:629   */\n              jump\n                /* \"contracts/MultiSigWallet_flattened.sol\":7613:7722  if (error == RecoverError.InvalidSignatureS) {... */\n            tag_310:\n                /* \"contracts/MultiSigWallet_flattened.sol\":7196:7728  function _throwError(RecoverError error, bytes32 errorArg) private pure {... */\n              pop\n              pop\n              jump\t// out\n                /* \"contracts/MultiSigWallet_flattened.sol\":19345:20208  function splitSignature(bytes memory sig)... */\n            tag_275:\n                /* \"contracts/MultiSigWallet_flattened.sol\":19447:19456  bytes32 r */\n              0x00\n                /* \"contracts/MultiSigWallet_flattened.sol\":19470:19479  bytes32 s */\n              dup1\n                /* \"contracts/MultiSigWallet_flattened.sol\":19493:19500  uint8 v */\n              0x00\n                /* \"contracts/MultiSigWallet_flattened.sol\":19533:19536  sig */\n              dup4\n                /* \"contracts/MultiSigWallet_flattened.sol\":19533:19543  sig.length */\n              mload\n                /* \"contracts/MultiSigWallet_flattened.sol\":19547:19549  65 */\n              0x41\n                /* \"contracts/MultiSigWallet_flattened.sol\":19533:19549  sig.length == 65 */\n              eq\n                /* \"contracts/MultiSigWallet_flattened.sol\":19525:19578  require(sig.length == 65, \"invalid signature length\") */\n              tag_313\n              jumpi\n              mload(0x40)\n              shl(0xe5, 0x461bcd)\n              dup2\n              mstore\n                /* \"#utility.yul\":18149:18151   */\n              0x20\n                /* \"contracts/MultiSigWallet_flattened.sol\":19525:19578  require(sig.length == 65, \"invalid signature length\") */\n              0x04\n              dup3\n              add\n                /* \"#utility.yul\":18131:18152   */\n              mstore\n                /* \"#utility.yul\":18188:18190   */\n              0x18\n                /* \"#utility.yul\":18168:18186   */\n              0x24\n              dup3\n              add\n                /* \"#utility.yul\":18161:18191   */\n              mstore\n                /* \"#utility.yul\":18227:18253   */\n              0x696e76616c6964207369676e6174757265206c656e6774680000000000000000\n                /* \"#utility.yul\":18207:18225   */\n              0x44\n              dup3\n              add\n                /* \"#utility.yul\":18200:18254   */\n              mstore\n                /* \"#utility.yul\":18271:18289   */\n              0x64\n              add\n                /* \"contracts/MultiSigWallet_flattened.sol\":19525:19578  require(sig.length == 65, \"invalid signature length\") */\n              tag_122\n                /* \"#utility.yul\":17947:18295   */\n              jump\n                /* \"contracts/MultiSigWallet_flattened.sol\":19525:19578  require(sig.length == 65, \"invalid signature length\") */\n            tag_313:\n              pop\n              pop\n              pop\n                /* \"contracts/MultiSigWallet_flattened.sol\":19974:19976  32 */\n              0x20\n                /* \"contracts/MultiSigWallet_flattened.sol\":19965:19977  add(sig, 32) */\n              dup2\n              add\n                /* \"contracts/MultiSigWallet_flattened.sol\":19959:19978  mload(add(sig, 32)) */\n              mload\n                /* \"contracts/MultiSigWallet_flattened.sol\":20042:20044  64 */\n              0x40\n                /* \"contracts/MultiSigWallet_flattened.sol\":20033:20045  add(sig, 64) */\n              dup3\n              add\n                /* \"contracts/MultiSigWallet_flattened.sol\":20027:20046  mload(add(sig, 64)) */\n              mload\n                /* \"contracts/MultiSigWallet_flattened.sol\":20147:20149  96 */\n              0x60\n                /* \"contracts/MultiSigWallet_flattened.sol\":20138:20150  add(sig, 96) */\n              swap1\n              swap3\n              add\n                /* \"contracts/MultiSigWallet_flattened.sol\":20132:20151  mload(add(sig, 96)) */\n              mload\n                /* \"contracts/MultiSigWallet_flattened.sol\":19959:19978  mload(add(sig, 32)) */\n              swap1\n              swap3\n                /* \"contracts/MultiSigWallet_flattened.sol\":20129:20130  0 */\n              0x00\n                /* \"contracts/MultiSigWallet_flattened.sol\":20124:20152  byte(0, mload(add(sig, 96))) */\n              swap2\n              swap1\n              swap2\n              byte\n              swap1\n                /* \"contracts/MultiSigWallet_flattened.sol\":19345:20208  function splitSignature(bytes memory sig)... */\n              jump\t// out\n                /* \"contracts/MultiSigWallet_flattened.sol\":5140:6670  function tryRecover(... */\n            tag_283:\n                /* \"contracts/MultiSigWallet_flattened.sol\":5266:5273  address */\n              0x00\n              dup1\n              dup1\n                /* \"contracts/MultiSigWallet_flattened.sol\":6199:6265  0x7FFFFFFFFFFFFFFFFFFFFFFFFFFFFFFF5D576E7357A4501DDFE92F46681B20A0 */\n              0x7fffffffffffffffffffffffffffffff5d576e7357a4501ddfe92f46681b20a0\n                /* \"contracts/MultiSigWallet_flattened.sol\":6186:6265  uint256(s) > 0x7FFFFFFFFFFFFFFFFFFFFFFFFFFFFFFF5D576E7357A4501DDFE92F46681B20A0 */\n              dup5\n              gt\n                /* \"contracts/MultiSigWallet_flattened.sol\":6182:6346  if (uint256(s) > 0x7FFFFFFFFFFFFFFFFFFFFFFFFFFFFFFF5D576E7357A4501DDFE92F46681B20A0) {... */\n              iszero\n              tag_317\n              jumpi\n              pop\n                /* \"contracts/MultiSigWallet_flattened.sol\":6297:6298  0 */\n              0x00\n              swap2\n              pop\n                /* \"contracts/MultiSigWallet_flattened.sol\":6301:6331  RecoverError.InvalidSignatureS */\n              0x03\n              swap1\n              pop\n                /* \"contracts/MultiSigWallet_flattened.sol\":6333:6334  s */\n              dup3\n                /* \"contracts/MultiSigWallet_flattened.sol\":6281:6335  return (address(0), RecoverError.InvalidSignatureS, s) */\n              jump(tag_316)\n                /* \"contracts/MultiSigWallet_flattened.sol\":6182:6346  if (uint256(s) > 0x7FFFFFFFFFFFFFFFFFFFFFFFFFFFFFFF5D576E7357A4501DDFE92F46681B20A0) {... */\n            tag_317:\n                /* \"contracts/MultiSigWallet_flattened.sol\":6457:6481  ecrecover(hash, v, r, s) */\n              0x40\n              dup1\n              mload\n                /* \"contracts/MultiSigWallet_flattened.sol\":6440:6454  address signer */\n              0x00\n                /* \"contracts/MultiSigWallet_flattened.sol\":6457:6481  ecrecover(hash, v, r, s) */\n              dup1\n              dup3\n              mstore\n              0x20\n              dup3\n              add\n              dup1\n              dup5\n              mstore\n                /* \"#utility.yul\":17639:17664   */\n              dup11\n              swap1\n              mstore\n                /* \"#utility.yul\":17712:17716   */\n              0xff\n                /* \"#utility.yul\":17700:17717   */\n              dup10\n              and\n                /* \"#utility.yul\":17680:17698   */\n              swap3\n              dup3\n              add\n                /* \"#utility.yul\":17673:17718   */\n              swap3\n              swap1\n              swap3\n              mstore\n                /* \"#utility.yul\":17734:17752   */\n              0x60\n              dup2\n              add\n                /* \"#utility.yul\":17727:17761   */\n              dup8\n              swap1\n              mstore\n                /* \"#utility.yul\":17777:17795   */\n              0x80\n              dup2\n              add\n                /* \"#utility.yul\":17770:17804   */\n              dup7\n              swap1\n              mstore\n                /* \"contracts/MultiSigWallet_flattened.sol\":6457:6481  ecrecover(hash, v, r, s) */\n              0x01\n              swap1\n                /* \"#utility.yul\":17611:17630   */\n              0xa0\n              add\n                /* \"contracts/MultiSigWallet_flattened.sol\":6457:6481  ecrecover(hash, v, r, s) */\n              0x20\n              mload(0x40)\n              0x20\n              dup2\n              sub\n              swap1\n              dup1\n              dup5\n              sub\n              swap1\n              dup6\n              gas\n              staticcall\n              iszero\n              dup1\n              iszero\n              tag_320\n              jumpi\n              returndatasize\n              0x00\n              dup1\n              returndatacopy\n              revert(0x00, returndatasize)\n            tag_320:\n              pop\n              pop\n              mload(add(not(0x1f), mload(0x40)))\n              swap2\n              pop\n              pop\n              sub(shl(0xa0, 0x01), 0x01)\n                /* \"contracts/MultiSigWallet_flattened.sol\":6495:6515  signer == address(0) */\n              dup2\n              and\n                /* \"contracts/MultiSigWallet_flattened.sol\":6491:6604  if (signer == address(0)) {... */\n              tag_321\n              jumpi\n              pop\n                /* \"contracts/MultiSigWallet_flattened.sol\":6547:6548  0 */\n              0x00\n              swap3\n              pop\n                /* \"contracts/MultiSigWallet_flattened.sol\":6551:6580  RecoverError.InvalidSignature */\n              0x01\n              swap2\n              pop\n                /* \"contracts/MultiSigWallet_flattened.sol\":6547:6548  0 */\n              dup3\n              swap1\n              pop\n                /* \"contracts/MultiSigWallet_flattened.sol\":6531:6593  return (address(0), RecoverError.InvalidSignature, bytes32(0)) */\n              jump(tag_316)\n                /* \"contracts/MultiSigWallet_flattened.sol\":6491:6604  if (signer == address(0)) {... */\n            tag_321:\n                /* \"contracts/MultiSigWallet_flattened.sol\":6622:6628  signer */\n              swap3\n              pop\n                /* \"contracts/MultiSigWallet_flattened.sol\":6630:6650  RecoverError.NoError */\n              0x00\n              swap2\n              pop\n              dup2\n              swap1\n              pop\n                /* \"contracts/MultiSigWallet_flattened.sol\":5140:6670  function tryRecover(... */\n            tag_316:\n              swap5\n              pop\n              swap5\n              pop\n              swap5\n              swap2\n              pop\n              pop\n              jump\t// out\n                /* \"#utility.yul\":267:447   */\n            tag_29:\n                /* \"#utility.yul\":326:332   */\n              0x00\n                /* \"#utility.yul\":379:381   */\n              0x20\n                /* \"#utility.yul\":367:376   */\n              dup3\n                /* \"#utility.yul\":358:365   */\n              dup5\n                /* \"#utility.yul\":354:377   */\n              sub\n                /* \"#utility.yul\":350:382   */\n              slt\n                /* \"#utility.yul\":347:399   */\n              iszero\n              tag_332\n              jumpi\n                /* \"#utility.yul\":395:396   */\n              0x00\n                /* \"#utility.yul\":392:393   */\n              dup1\n                /* \"#utility.yul\":385:397   */\n              revert\n                /* \"#utility.yul\":347:399   */\n            tag_332:\n              pop\n                /* \"#utility.yul\":418:441   */\n              calldataload\n              swap2\n                /* \"#utility.yul\":267:447   */\n              swap1\n              pop\n              jump\t// out\n                /* \"#utility.yul\":842:981   */\n            tag_322:\n              sub(shl(0xa0, 0x01), 0x01)\n                /* \"#utility.yul\":925:956   */\n              dup2\n              and\n                /* \"#utility.yul\":915:957   */\n              dup2\n              eq\n                /* \"#utility.yul\":905:975   */\n              tag_336\n              jumpi\n                /* \"#utility.yul\":971:972   */\n              0x00\n                /* \"#utility.yul\":968:969   */\n              dup1\n                /* \"#utility.yul\":961:973   */\n              revert\n                /* \"#utility.yul\":905:975   */\n            tag_336:\n                /* \"#utility.yul\":842:981   */\n              pop\n              jump\t// out\n                /* \"#utility.yul\":986:1113   */\n            tag_230:\n                /* \"#utility.yul\":1047:1057   */\n              0x4e487b71\n                /* \"#utility.yul\":1042:1045   */\n              0xe0\n                /* \"#utility.yul\":1038:1058   */\n              shl\n                /* \"#utility.yul\":1035:1036   */\n              0x00\n                /* \"#utility.yul\":1028:1059   */\n              mstore\n                /* \"#utility.yul\":1078:1082   */\n              0x41\n                /* \"#utility.yul\":1075:1076   */\n              0x04\n                /* \"#utility.yul\":1068:1083   */\n              mstore\n                /* \"#utility.yul\":1102:1106   */\n              0x24\n                /* \"#utility.yul\":1099:1100   */\n              0x00\n                /* \"#utility.yul\":1092:1107   */\n              revert\n                /* \"#utility.yul\":1118:1836   */\n            tag_323:\n                /* \"#utility.yul\":1160:1165   */\n              0x00\n                /* \"#utility.yul\":1213:1216   */\n              dup3\n                /* \"#utility.yul\":1206:1210   */\n              0x1f\n                /* \"#utility.yul\":1198:1204   */\n              dup4\n                /* \"#utility.yul\":1194:1211   */\n              add\n                /* \"#utility.yul\":1190:1217   */\n              slt\n                /* \"#utility.yul\":1180:1235   */\n              tag_339\n              jumpi\n                /* \"#utility.yul\":1231:1232   */\n              0x00\n                /* \"#utility.yul\":1228:1229   */\n              dup1\n                /* \"#utility.yul\":1221:1233   */\n              revert\n                /* \"#utility.yul\":1180:1235   */\n            tag_339:\n                /* \"#utility.yul\":1267:1273   */\n              dup2\n                /* \"#utility.yul\":1254:1274   */\n              calldataload\n                /* \"#utility.yul\":1293:1311   */\n              0xffffffffffffffff\n                /* \"#utility.yul\":1330:1332   */\n              dup1\n                /* \"#utility.yul\":1326:1328   */\n              dup3\n                /* \"#utility.yul\":1323:1333   */\n              gt\n                /* \"#utility.yul\":1320:1356   */\n              iszero\n              tag_341\n              jumpi\n                /* \"#utility.yul\":1336:1354   */\n              tag_341\n              tag_230\n              jump\t// in\n            tag_341:\n                /* \"#utility.yul\":1411:1413   */\n              0x40\n                /* \"#utility.yul\":1405:1414   */\n              mload\n                /* \"#utility.yul\":1379:1381   */\n              0x1f\n                /* \"#utility.yul\":1465:1478   */\n              dup4\n              add\n              not(0x1f)\n                /* \"#utility.yul\":1461:1483   */\n              swap1\n              dup2\n              and\n                /* \"#utility.yul\":1485:1487   */\n              0x3f\n                /* \"#utility.yul\":1457:1488   */\n              add\n                /* \"#utility.yul\":1453:1493   */\n              and\n                /* \"#utility.yul\":1441:1494   */\n              dup2\n              add\n              swap1\n                /* \"#utility.yul\":1509:1527   */\n              dup3\n              dup3\n              gt\n                /* \"#utility.yul\":1529:1551   */\n              dup2\n              dup4\n              lt\n                /* \"#utility.yul\":1506:1552   */\n              or\n                /* \"#utility.yul\":1503:1575   */\n              iszero\n              tag_343\n              jumpi\n                /* \"#utility.yul\":1555:1573   */\n              tag_343\n              tag_230\n              jump\t// in\n            tag_343:\n                /* \"#utility.yul\":1595:1605   */\n              dup2\n                /* \"#utility.yul\":1591:1593   */\n              0x40\n                /* \"#utility.yul\":1584:1606   */\n              mstore\n                /* \"#utility.yul\":1630:1632   */\n              dup4\n                /* \"#utility.yul\":1622:1628   */\n              dup2\n                /* \"#utility.yul\":1615:1633   */\n              mstore\n                /* \"#utility.yul\":1676:1679   */\n              dup7\n                /* \"#utility.yul\":1669:1673   */\n              0x20\n                /* \"#utility.yul\":1664:1666   */\n              dup6\n                /* \"#utility.yul\":1656:1662   */\n              dup9\n                /* \"#utility.yul\":1652:1667   */\n              add\n                /* \"#utility.yul\":1648:1674   */\n              add\n                /* \"#utility.yul\":1645:1680   */\n              gt\n                /* \"#utility.yul\":1642:1697   */\n              iszero\n              tag_344\n              jumpi\n                /* \"#utility.yul\":1693:1694   */\n              0x00\n                /* \"#utility.yul\":1690:1691   */\n              dup1\n                /* \"#utility.yul\":1683:1695   */\n              revert\n                /* \"#utility.yul\":1642:1697   */\n            tag_344:\n                /* \"#utility.yul\":1757:1759   */\n              dup4\n                /* \"#utility.yul\":1750:1754   */\n              0x20\n                /* \"#utility.yul\":1742:1748   */\n              dup8\n                /* \"#utility.yul\":1738:1755   */\n              add\n                /* \"#utility.yul\":1731:1735   */\n              0x20\n                /* \"#utility.yul\":1723:1729   */\n              dup4\n                /* \"#utility.yul\":1719:1736   */\n              add\n                /* \"#utility.yul\":1706:1760   */\n              calldatacopy\n                /* \"#utility.yul\":1804:1805   */\n              0x00\n                /* \"#utility.yul\":1797:1801   */\n              0x20\n                /* \"#utility.yul\":1792:1794   */\n              dup6\n                /* \"#utility.yul\":1784:1790   */\n              dup4\n                /* \"#utility.yul\":1780:1795   */\n              add\n                /* \"#utility.yul\":1776:1802   */\n              add\n                /* \"#utility.yul\":1769:1806   */\n              mstore\n                /* \"#utility.yul\":1824:1830   */\n              dup1\n                /* \"#utility.yul\":1815:1830   */\n              swap5\n              pop\n              pop\n              pop\n              pop\n              pop\n                /* \"#utility.yul\":1118:1836   */\n              swap3\n              swap2\n              pop\n              pop\n              jump\t// out\n                /* \"#utility.yul\":1841:2801   */\n            tag_42:\n                /* \"#utility.yul\":1973:1979   */\n              0x00\n                /* \"#utility.yul\":1981:1987   */\n              dup1\n                /* \"#utility.yul\":1989:1995   */\n              0x00\n                /* \"#utility.yul\":1997:2003   */\n              dup1\n                /* \"#utility.yul\":2005:2011   */\n              0x00\n                /* \"#utility.yul\":2058:2061   */\n              0xa0\n                /* \"#utility.yul\":2046:2055   */\n              dup7\n                /* \"#utility.yul\":2037:2044   */\n              dup9\n                /* \"#utility.yul\":2033:2056   */\n              sub\n                /* \"#utility.yul\":2029:2062   */\n              slt\n                /* \"#utility.yul\":2026:2079   */\n              iszero\n              tag_346\n              jumpi\n                /* \"#utility.yul\":2075:2076   */\n              0x00\n                /* \"#utility.yul\":2072:2073   */\n              dup1\n                /* \"#utility.yul\":2065:2077   */\n              revert\n                /* \"#utility.yul\":2026:2079   */\n            tag_346:\n                /* \"#utility.yul\":2114:2123   */\n              dup6\n                /* \"#utility.yul\":2101:2124   */\n              calldataload\n                /* \"#utility.yul\":2133:2172   */\n              tag_347\n                /* \"#utility.yul\":2166:2171   */\n              dup2\n                /* \"#utility.yul\":2133:2172   */\n              tag_322\n              jump\t// in\n            tag_347:\n                /* \"#utility.yul\":2191:2196   */\n              swap5\n              pop\n                /* \"#utility.yul\":2243:2245   */\n              0x20\n                /* \"#utility.yul\":2228:2246   */\n              dup7\n              add\n                /* \"#utility.yul\":2215:2247   */\n              calldataload\n              swap4\n              pop\n                /* \"#utility.yul\":2298:2300   */\n              0x40\n                /* \"#utility.yul\":2283:2301   */\n              dup7\n              add\n                /* \"#utility.yul\":2270:2302   */\n              calldataload\n                /* \"#utility.yul\":2321:2339   */\n              0xffffffffffffffff\n                /* \"#utility.yul\":2351:2365   */\n              dup1\n              dup3\n              gt\n                /* \"#utility.yul\":2348:2382   */\n              iszero\n              tag_348\n              jumpi\n                /* \"#utility.yul\":2378:2379   */\n              0x00\n                /* \"#utility.yul\":2375:2376   */\n              dup1\n                /* \"#utility.yul\":2368:2380   */\n              revert\n                /* \"#utility.yul\":2348:2382   */\n            tag_348:\n                /* \"#utility.yul\":2401:2450   */\n              tag_349\n                /* \"#utility.yul\":2442:2449   */\n              dup10\n                /* \"#utility.yul\":2433:2439   */\n              dup4\n                /* \"#utility.yul\":2422:2431   */\n              dup11\n                /* \"#utility.yul\":2418:2440   */\n              add\n                /* \"#utility.yul\":2401:2450   */\n              tag_323\n              jump\t// in\n            tag_349:\n                /* \"#utility.yul\":2391:2450   */\n              swap5\n              pop\n                /* \"#utility.yul\":2503:2505   */\n              0x60\n                /* \"#utility.yul\":2492:2501   */\n              dup9\n                /* \"#utility.yul\":2488:2506   */\n              add\n                /* \"#utility.yul\":2475:2507   */\n              calldataload\n                /* \"#utility.yul\":2459:2507   */\n              swap2\n              pop\n                /* \"#utility.yul\":2532:2534   */\n              dup1\n                /* \"#utility.yul\":2522:2530   */\n              dup3\n                /* \"#utility.yul\":2519:2535   */\n              gt\n                /* \"#utility.yul\":2516:2552   */\n              iszero\n              tag_350\n              jumpi\n                /* \"#utility.yul\":2548:2549   */\n              0x00\n                /* \"#utility.yul\":2545:2546   */\n              dup1\n                /* \"#utility.yul\":2538:2550   */\n              revert\n                /* \"#utility.yul\":2516:2552   */\n            tag_350:\n                /* \"#utility.yul\":2571:2622   */\n              tag_351\n                /* \"#utility.yul\":2614:2621   */\n              dup10\n                /* \"#utility.yul\":2603:2611   */\n              dup4\n                /* \"#utility.yul\":2592:2601   */\n              dup11\n                /* \"#utility.yul\":2588:2612   */\n              add\n                /* \"#utility.yul\":2571:2622   */\n              tag_323\n              jump\t// in\n            tag_351:\n                /* \"#utility.yul\":2561:2622   */\n              swap4\n              pop\n                /* \"#utility.yul\":2675:2678   */\n              0x80\n                /* \"#utility.yul\":2664:2673   */\n              dup9\n                /* \"#utility.yul\":2660:2679   */\n              add\n                /* \"#utility.yul\":2647:2680   */\n              calldataload\n                /* \"#utility.yul\":2631:2680   */\n              swap2\n              pop\n                /* \"#utility.yul\":2705:2707   */\n              dup1\n                /* \"#utility.yul\":2695:2703   */\n              dup3\n                /* \"#utility.yul\":2692:2708   */\n              gt\n                /* \"#utility.yul\":2689:2725   */\n              iszero\n              tag_352\n              jumpi\n                /* \"#utility.yul\":2721:2722   */\n              0x00\n                /* \"#utility.yul\":2718:2719   */\n              dup1\n                /* \"#utility.yul\":2711:2723   */\n              revert\n                /* \"#utility.yul\":2689:2725   */\n            tag_352:\n              pop\n                /* \"#utility.yul\":2744:2795   */\n              tag_353\n                /* \"#utility.yul\":2787:2794   */\n              dup9\n                /* \"#utility.yul\":2776:2784   */\n              dup3\n                /* \"#utility.yul\":2765:2774   */\n              dup10\n                /* \"#utility.yul\":2761:2785   */\n              add\n                /* \"#utility.yul\":2744:2795   */\n              tag_323\n              jump\t// in\n            tag_353:\n                /* \"#utility.yul\":2734:2795   */\n              swap2\n              pop\n              pop\n                /* \"#utility.yul\":1841:2801   */\n              swap3\n              swap6\n              pop\n              swap3\n              swap6\n              swap1\n              swap4\n              pop\n              jump\t// out\n                /* \"#utility.yul\":2998:3386   */\n            tag_49:\n                /* \"#utility.yul\":3075:3081   */\n              0x00\n                /* \"#utility.yul\":3083:3089   */\n              dup1\n                /* \"#utility.yul\":3136:3138   */\n              0x40\n                /* \"#utility.yul\":3124:3133   */\n              dup4\n                /* \"#utility.yul\":3115:3122   */\n              dup6\n                /* \"#utility.yul\":3111:3134   */\n              sub\n                /* \"#utility.yul\":3107:3139   */\n              slt\n                /* \"#utility.yul\":3104:3156   */\n              iszero\n              tag_356\n              jumpi\n                /* \"#utility.yul\":3152:3153   */\n              0x00\n                /* \"#utility.yul\":3149:3150   */\n              dup1\n                /* \"#utility.yul\":3142:3154   */\n              revert\n                /* \"#utility.yul\":3104:3156   */\n            tag_356:\n                /* \"#utility.yul\":3188:3197   */\n              dup3\n                /* \"#utility.yul\":3175:3198   */\n              calldataload\n                /* \"#utility.yul\":3165:3198   */\n              swap2\n              pop\n                /* \"#utility.yul\":3249:3251   */\n              0x20\n                /* \"#utility.yul\":3238:3247   */\n              dup4\n                /* \"#utility.yul\":3234:3252   */\n              add\n                /* \"#utility.yul\":3221:3253   */\n              calldataload\n                /* \"#utility.yul\":3276:3294   */\n              0xffffffffffffffff\n                /* \"#utility.yul\":3268:3274   */\n              dup2\n                /* \"#utility.yul\":3265:3295   */\n              gt\n                /* \"#utility.yul\":3262:3312   */\n              iszero\n              tag_357\n              jumpi\n                /* \"#utility.yul\":3308:3309   */\n              0x00\n                /* \"#utility.yul\":3305:3306   */\n              dup1\n                /* \"#utility.yul\":3298:3310   */\n              revert\n                /* \"#utility.yul\":3262:3312   */\n            tag_357:\n                /* \"#utility.yul\":3331:3380   */\n              tag_358\n                /* \"#utility.yul\":3372:3379   */\n              dup6\n                /* \"#utility.yul\":3363:3369   */\n              dup3\n                /* \"#utility.yul\":3352:3361   */\n              dup7\n                /* \"#utility.yul\":3348:3370   */\n              add\n                /* \"#utility.yul\":3331:3380   */\n              tag_323\n              jump\t// in\n            tag_358:\n                /* \"#utility.yul\":3321:3380   */\n              swap2\n              pop\n              pop\n                /* \"#utility.yul\":2998:3386   */\n              swap3\n              pop\n              swap3\n              swap1\n              pop\n              jump\t// out\n                /* \"#utility.yul\":3391:3863   */\n            tag_55:\n                /* \"#utility.yul\":3468:3474   */\n              0x00\n                /* \"#utility.yul\":3476:3482   */\n              dup1\n                /* \"#utility.yul\":3484:3490   */\n              0x00\n                /* \"#utility.yul\":3537:3539   */\n              0x60\n                /* \"#utility.yul\":3525:3534   */\n              dup5\n                /* \"#utility.yul\":3516:3523   */\n              dup7\n                /* \"#utility.yul\":3512:3535   */\n              sub\n                /* \"#utility.yul\":3508:3540   */\n              slt\n                /* \"#utility.yul\":3505:3557   */\n              iszero\n              tag_360\n              jumpi\n                /* \"#utility.yul\":3553:3554   */\n              0x00\n                /* \"#utility.yul\":3550:3551   */\n              dup1\n                /* \"#utility.yul\":3543:3555   */\n              revert\n                /* \"#utility.yul\":3505:3557   */\n            tag_360:\n                /* \"#utility.yul\":3592:3601   */\n              dup4\n                /* \"#utility.yul\":3579:3602   */\n              calldataload\n                /* \"#utility.yul\":3611:3650   */\n              tag_361\n                /* \"#utility.yul\":3644:3649   */\n              dup2\n                /* \"#utility.yul\":3611:3650   */\n              tag_322\n              jump\t// in\n            tag_361:\n                /* \"#utility.yul\":3669:3674   */\n              swap3\n              pop\n                /* \"#utility.yul\":3726:3728   */\n              0x20\n                /* \"#utility.yul\":3711:3729   */\n              dup5\n              add\n                /* \"#utility.yul\":3698:3730   */\n              calldataload\n                /* \"#utility.yul\":3739:3780   */\n              tag_362\n                /* \"#utility.yul\":3698:3730   */\n              dup2\n                /* \"#utility.yul\":3739:3780   */\n              tag_322\n              jump\t// in\n            tag_362:\n                /* \"#utility.yul\":3391:3863   */\n              swap3\n              swap6\n                /* \"#utility.yul\":3799:3806   */\n              swap3\n              swap5\n              pop\n              pop\n              pop\n                /* \"#utility.yul\":3853:3855   */\n              0x40\n                /* \"#utility.yul\":3838:3856   */\n              swap2\n              swap1\n              swap2\n              add\n                /* \"#utility.yul\":3825:3857   */\n              calldataload\n              swap1\n                /* \"#utility.yul\":3391:3863   */\n              jump\t// out\n                /* \"#utility.yul\":3868:4123   */\n            tag_60:\n                /* \"#utility.yul\":3927:3933   */\n              0x00\n                /* \"#utility.yul\":3980:3982   */\n              0x20\n                /* \"#utility.yul\":3968:3977   */\n              dup3\n                /* \"#utility.yul\":3959:3966   */\n              dup5\n                /* \"#utility.yul\":3955:3978   */\n              sub\n                /* \"#utility.yul\":3951:3983   */\n              slt\n                /* \"#utility.yul\":3948:4000   */\n              iszero\n              tag_364\n              jumpi\n                /* \"#utility.yul\":3996:3997   */\n              0x00\n                /* \"#utility.yul\":3993:3994   */\n              dup1\n                /* \"#utility.yul\":3986:3998   */\n              revert\n                /* \"#utility.yul\":3948:4000   */\n            tag_364:\n                /* \"#utility.yul\":4035:4044   */\n              dup2\n                /* \"#utility.yul\":4022:4045   */\n              calldataload\n                /* \"#utility.yul\":4054:4093   */\n              tag_365\n                /* \"#utility.yul\":4087:4092   */\n              dup2\n                /* \"#utility.yul\":4054:4093   */\n              tag_322\n              jump\t// in\n            tag_365:\n                /* \"#utility.yul\":4112:4117   */\n              swap4\n                /* \"#utility.yul\":3868:4123   */\n              swap3\n              pop\n              pop\n              pop\n              jump\t// out\n                /* \"#utility.yul\":4128:4519   */\n            tag_66:\n                /* \"#utility.yul\":4205:4211   */\n              0x00\n                /* \"#utility.yul\":4213:4219   */\n              dup1\n                /* \"#utility.yul\":4221:4227   */\n              0x00\n                /* \"#utility.yul\":4274:4276   */\n              0x60\n                /* \"#utility.yul\":4262:4271   */\n              dup5\n                /* \"#utility.yul\":4253:4260   */\n              dup7\n                /* \"#utility.yul\":4249:4272   */\n              sub\n                /* \"#utility.yul\":4245:4277   */\n              slt\n                /* \"#utility.yul\":4242:4294   */\n              iszero\n              tag_367\n              jumpi\n                /* \"#utility.yul\":4290:4291   */\n              0x00\n                /* \"#utility.yul\":4287:4288   */\n              dup1\n                /* \"#utility.yul\":4280:4292   */\n              revert\n                /* \"#utility.yul\":4242:4294   */\n            tag_367:\n                /* \"#utility.yul\":4326:4335   */\n              dup4\n                /* \"#utility.yul\":4313:4336   */\n              calldataload\n                /* \"#utility.yul\":4303:4336   */\n              swap3\n              pop\n                /* \"#utility.yul\":4386:4388   */\n              0x20\n                /* \"#utility.yul\":4375:4384   */\n              dup5\n                /* \"#utility.yul\":4371:4389   */\n              add\n                /* \"#utility.yul\":4358:4390   */\n              calldataload\n                /* \"#utility.yul\":4399:4438   */\n              tag_362\n                /* \"#utility.yul\":4432:4437   */\n              dup2\n                /* \"#utility.yul\":4399:4438   */\n              tag_322\n              jump\t// in\n                /* \"#utility.yul\":4706:4995   */\n            tag_324:\n                /* \"#utility.yul\":4748:4751   */\n              0x00\n                /* \"#utility.yul\":4786:4791   */\n              dup2\n                /* \"#utility.yul\":4780:4792   */\n              mload\n                /* \"#utility.yul\":4813:4819   */\n              dup1\n                /* \"#utility.yul\":4808:4811   */\n              dup5\n                /* \"#utility.yul\":4801:4820   */\n              mstore\n                /* \"#utility.yul\":4869:4875   */\n              dup1\n                /* \"#utility.yul\":4862:4866   */\n              0x20\n                /* \"#utility.yul\":4855:4860   */\n              dup5\n                /* \"#utility.yul\":4851:4867   */\n              add\n                /* \"#utility.yul\":4844:4848   */\n              0x20\n                /* \"#utility.yul\":4839:4842   */\n              dup7\n                /* \"#utility.yul\":4835:4849   */\n              add\n                /* \"#utility.yul\":4829:4876   */\n              mcopy\n                /* \"#utility.yul\":4921:4922   */\n              0x00\n                /* \"#utility.yul\":4914:4918   */\n              0x20\n                /* \"#utility.yul\":4905:4911   */\n              dup3\n                /* \"#utility.yul\":4900:4903   */\n              dup7\n                /* \"#utility.yul\":4896:4912   */\n              add\n                /* \"#utility.yul\":4892:4919   */\n              add\n                /* \"#utility.yul\":4885:4923   */\n              mstore\n                /* \"#utility.yul\":4984:4988   */\n              0x20\n                /* \"#utility.yul\":4977:4979   */\n              0x1f\n                /* \"#utility.yul\":4973:4980   */\n              not\n                /* \"#utility.yul\":4968:4970   */\n              0x1f\n                /* \"#utility.yul\":4960:4966   */\n              dup4\n                /* \"#utility.yul\":4956:4971   */\n              add\n                /* \"#utility.yul\":4952:4981   */\n              and\n                /* \"#utility.yul\":4947:4950   */\n              dup6\n                /* \"#utility.yul\":4943:4982   */\n              add\n                /* \"#utility.yul\":4939:4989   */\n              add\n                /* \"#utility.yul\":4932:4989   */\n              swap2\n              pop\n              pop\n                /* \"#utility.yul\":4706:4995   */\n              swap3\n              swap2\n              pop\n              pop\n              jump\t// out\n                /* \"#utility.yul\":5000:5220   */\n            tag_79:\n                /* \"#utility.yul\":5149:5151   */\n              0x20\n                /* \"#utility.yul\":5138:5147   */\n              dup2\n                /* \"#utility.yul\":5131:5152   */\n              mstore\n                /* \"#utility.yul\":5112:5116   */\n              0x00\n                /* \"#utility.yul\":5169:5214   */\n              tag_149\n                /* \"#utility.yul\":5210:5212   */\n              0x20\n                /* \"#utility.yul\":5199:5208   */\n              dup4\n                /* \"#utility.yul\":5195:5213   */\n              add\n                /* \"#utility.yul\":5187:5193   */\n              dup5\n                /* \"#utility.yul\":5169:5214   */\n              tag_324\n              jump\t// in\n                /* \"#utility.yul\":5225:5546   */\n            tag_83:\n                /* \"#utility.yul\":5294:5300   */\n              0x00\n                /* \"#utility.yul\":5347:5349   */\n              0x20\n                /* \"#utility.yul\":5335:5344   */\n              dup3\n                /* \"#utility.yul\":5326:5333   */\n              dup5\n                /* \"#utility.yul\":5322:5345   */\n              sub\n                /* \"#utility.yul\":5318:5350   */\n              slt\n                /* \"#utility.yul\":5315:5367   */\n              iszero\n              tag_374\n              jumpi\n                /* \"#utility.yul\":5363:5364   */\n              0x00\n                /* \"#utility.yul\":5360:5361   */\n              dup1\n                /* \"#utility.yul\":5353:5365   */\n              revert\n                /* \"#utility.yul\":5315:5367   */\n            tag_374:\n                /* \"#utility.yul\":5403:5412   */\n              dup2\n                /* \"#utility.yul\":5390:5413   */\n              calldataload\n                /* \"#utility.yul\":5436:5454   */\n              0xffffffffffffffff\n                /* \"#utility.yul\":5428:5434   */\n              dup2\n                /* \"#utility.yul\":5425:5455   */\n              gt\n                /* \"#utility.yul\":5422:5472   */\n              iszero\n              tag_375\n              jumpi\n                /* \"#utility.yul\":5468:5469   */\n              0x00\n                /* \"#utility.yul\":5465:5466   */\n              dup1\n                /* \"#utility.yul\":5458:5470   */\n              revert\n                /* \"#utility.yul\":5422:5472   */\n            tag_375:\n                /* \"#utility.yul\":5491:5540   */\n              tag_376\n                /* \"#utility.yul\":5532:5539   */\n              dup5\n                /* \"#utility.yul\":5523:5529   */\n              dup3\n                /* \"#utility.yul\":5512:5521   */\n              dup6\n                /* \"#utility.yul\":5508:5530   */\n              add\n                /* \"#utility.yul\":5491:5540   */\n              tag_323\n              jump\t// in\n            tag_376:\n                /* \"#utility.yul\":5481:5540   */\n              swap5\n                /* \"#utility.yul\":5225:5546   */\n              swap4\n              pop\n              pop\n              pop\n              pop\n              jump\t// out\n                /* \"#utility.yul\":5551:6233   */\n            tag_97:\n                /* \"#utility.yul\":5647:5653   */\n              0x00\n                /* \"#utility.yul\":5655:5661   */\n              dup1\n                /* \"#utility.yul\":5663:5669   */\n              0x00\n                /* \"#utility.yul\":5671:5677   */\n              dup1\n                /* \"#utility.yul\":5724:5727   */\n              0x80\n                /* \"#utility.yul\":5712:5721   */\n              dup6\n                /* \"#utility.yul\":5703:5710   */\n              dup8\n                /* \"#utility.yul\":5699:5722   */\n              sub\n                /* \"#utility.yul\":5695:5728   */\n              slt\n                /* \"#utility.yul\":5692:5745   */\n              iszero\n              tag_378\n              jumpi\n                /* \"#utility.yul\":5741:5742   */\n              0x00\n                /* \"#utility.yul\":5738:5739   */\n              dup1\n                /* \"#utility.yul\":5731:5743   */\n              revert\n                /* \"#utility.yul\":5692:5745   */\n            tag_378:\n                /* \"#utility.yul\":5781:5790   */\n              dup5\n                /* \"#utility.yul\":5768:5791   */\n              calldataload\n                /* \"#utility.yul\":5814:5832   */\n              0xffffffffffffffff\n                /* \"#utility.yul\":5806:5812   */\n              dup2\n                /* \"#utility.yul\":5803:5833   */\n              gt\n                /* \"#utility.yul\":5800:5850   */\n              iszero\n              tag_379\n              jumpi\n                /* \"#utility.yul\":5846:5847   */\n              0x00\n                /* \"#utility.yul\":5843:5844   */\n              dup1\n                /* \"#utility.yul\":5836:5848   */\n              revert\n                /* \"#utility.yul\":5800:5850   */\n            tag_379:\n                /* \"#utility.yul\":5869:5918   */\n              tag_380\n                /* \"#utility.yul\":5910:5917   */\n              dup8\n                /* \"#utility.yul\":5901:5907   */\n              dup3\n                /* \"#utility.yul\":5890:5899   */\n              dup9\n                /* \"#utility.yul\":5886:5908   */\n              add\n                /* \"#utility.yul\":5869:5918   */\n              tag_323\n              jump\t// in\n            tag_380:\n                /* \"#utility.yul\":5859:5918   */\n              swap5\n              pop\n              pop\n                /* \"#utility.yul\":5968:5970   */\n              0x20\n                /* \"#utility.yul\":5957:5966   */\n              dup6\n                /* \"#utility.yul\":5953:5971   */\n              add\n                /* \"#utility.yul\":5940:5972   */\n              calldataload\n                /* \"#utility.yul\":5981:6020   */\n              tag_381\n                /* \"#utility.yul\":6014:6019   */\n              dup2\n                /* \"#utility.yul\":5981:6020   */\n              tag_322\n              jump\t// in\n            tag_381:\n                /* \"#utility.yul\":6039:6044   */\n              swap3\n              pop\n                /* \"#utility.yul\":6096:6098   */\n              0x40\n                /* \"#utility.yul\":6081:6099   */\n              dup6\n              add\n                /* \"#utility.yul\":6068:6100   */\n              calldataload\n                /* \"#utility.yul\":6109:6150   */\n              tag_382\n                /* \"#utility.yul\":6068:6100   */\n              dup2\n                /* \"#utility.yul\":6109:6150   */\n              tag_322\n              jump\t// in\n            tag_382:\n                /* \"#utility.yul\":5551:6233   */\n              swap4\n              swap7\n              swap3\n              swap6\n              pop\n                /* \"#utility.yul\":6169:6176   */\n              swap3\n              swap4\n                /* \"#utility.yul\":6223:6225   */\n              0x60\n                /* \"#utility.yul\":6208:6226   */\n              add\n                /* \"#utility.yul\":6195:6227   */\n              calldataload\n              swap3\n              pop\n              pop\n                /* \"#utility.yul\":5551:6233   */\n              jump\t// out\n                /* \"#utility.yul\":6461:7001   */\n            tag_112:\n                /* \"#utility.yul\":6548:6554   */\n              0x00\n                /* \"#utility.yul\":6556:6562   */\n              dup1\n                /* \"#utility.yul\":6609:6611   */\n              0x40\n                /* \"#utility.yul\":6597:6606   */\n              dup4\n                /* \"#utility.yul\":6588:6595   */\n              dup6\n                /* \"#utility.yul\":6584:6607   */\n              sub\n                /* \"#utility.yul\":6580:6612   */\n              slt\n                /* \"#utility.yul\":6577:6629   */\n              iszero\n              tag_386\n              jumpi\n                /* \"#utility.yul\":6625:6626   */\n              0x00\n                /* \"#utility.yul\":6622:6623   */\n              dup1\n                /* \"#utility.yul\":6615:6627   */\n              revert\n                /* \"#utility.yul\":6577:6629   */\n            tag_386:\n                /* \"#utility.yul\":6665:6674   */\n              dup3\n                /* \"#utility.yul\":6652:6675   */\n              calldataload\n                /* \"#utility.yul\":6694:6712   */\n              0xffffffffffffffff\n                /* \"#utility.yul\":6735:6737   */\n              dup1\n                /* \"#utility.yul\":6727:6733   */\n              dup3\n                /* \"#utility.yul\":6724:6738   */\n              gt\n                /* \"#utility.yul\":6721:6755   */\n              iszero\n              tag_387\n              jumpi\n                /* \"#utility.yul\":6751:6752   */\n              0x00\n                /* \"#utility.yul\":6748:6749   */\n              dup1\n                /* \"#utility.yul\":6741:6753   */\n              revert\n                /* \"#utility.yul\":6721:6755   */\n            tag_387:\n                /* \"#utility.yul\":6774:6823   */\n              tag_388\n                /* \"#utility.yul\":6815:6822   */\n              dup7\n                /* \"#utility.yul\":6806:6812   */\n              dup4\n                /* \"#utility.yul\":6795:6804   */\n              dup8\n                /* \"#utility.yul\":6791:6813   */\n              add\n                /* \"#utility.yul\":6774:6823   */\n              tag_323\n              jump\t// in\n            tag_388:\n                /* \"#utility.yul\":6764:6823   */\n              swap4\n              pop\n                /* \"#utility.yul\":6876:6878   */\n              0x20\n                /* \"#utility.yul\":6865:6874   */\n              dup6\n                /* \"#utility.yul\":6861:6879   */\n              add\n                /* \"#utility.yul\":6848:6880   */\n              calldataload\n                /* \"#utility.yul\":6832:6880   */\n              swap2\n              pop\n                /* \"#utility.yul\":6905:6907   */\n              dup1\n                /* \"#utility.yul\":6895:6903   */\n              dup3\n                /* \"#utility.yul\":6892:6908   */\n              gt\n                /* \"#utility.yul\":6889:6925   */\n              iszero\n              tag_389\n              jumpi\n                /* \"#utility.yul\":6921:6922   */\n              0x00\n                /* \"#utility.yul\":6918:6919   */\n              dup1\n                /* \"#utility.yul\":6911:6923   */\n              revert\n                /* \"#utility.yul\":6889:6925   */\n            tag_389:\n              pop\n                /* \"#utility.yul\":6944:6995   */\n              tag_358\n                /* \"#utility.yul\":6987:6994   */\n              dup6\n                /* \"#utility.yul\":6976:6984   */\n              dup3\n                /* \"#utility.yul\":6965:6974   */\n              dup7\n                /* \"#utility.yul\":6961:6985   */\n              add\n                /* \"#utility.yul\":6944:6995   */\n              tag_323\n              jump\t// in\n                /* \"#utility.yul\":7006:7386   */\n            tag_182:\n                /* \"#utility.yul\":7085:7086   */\n              0x01\n                /* \"#utility.yul\":7081:7093   */\n              dup2\n              dup2\n              shr\n              swap1\n                /* \"#utility.yul\":7128:7140   */\n              dup3\n              and\n              dup1\n                /* \"#utility.yul\":7149:7210   */\n              tag_392\n              jumpi\n                /* \"#utility.yul\":7203:7207   */\n              0x7f\n                /* \"#utility.yul\":7195:7201   */\n              dup3\n                /* \"#utility.yul\":7191:7208   */\n              and\n                /* \"#utility.yul\":7181:7208   */\n              swap2\n              pop\n                /* \"#utility.yul\":7149:7210   */\n            tag_392:\n                /* \"#utility.yul\":7256:7258   */\n              0x20\n                /* \"#utility.yul\":7248:7254   */\n              dup3\n                /* \"#utility.yul\":7245:7259   */\n              lt\n                /* \"#utility.yul\":7225:7243   */\n              dup2\n                /* \"#utility.yul\":7222:7260   */\n              sub\n                /* \"#utility.yul\":7219:7380   */\n              tag_393\n              jumpi\n                /* \"#utility.yul\":7302:7312   */\n              0x4e487b71\n                /* \"#utility.yul\":7297:7300   */\n              0xe0\n                /* \"#utility.yul\":7293:7313   */\n              shl\n                /* \"#utility.yul\":7290:7291   */\n              0x00\n                /* \"#utility.yul\":7283:7314   */\n              mstore\n                /* \"#utility.yul\":7337:7341   */\n              0x22\n                /* \"#utility.yul\":7334:7335   */\n              0x04\n                /* \"#utility.yul\":7327:7342   */\n              mstore\n                /* \"#utility.yul\":7365:7369   */\n              0x24\n                /* \"#utility.yul\":7362:7363   */\n              0x00\n                /* \"#utility.yul\":7355:7370   */\n              revert\n                /* \"#utility.yul\":7219:7380   */\n            tag_393:\n              pop\n                /* \"#utility.yul\":7006:7386   */\n              swap2\n              swap1\n              pop\n              jump\t// out\n                /* \"#utility.yul\":7517:8360   */\n            tag_117:\n                /* \"#utility.yul\":7645:7648   */\n              0x00\n                /* \"#utility.yul\":7674:7675   */\n              dup1\n                /* \"#utility.yul\":7707:7713   */\n              dup4\n                /* \"#utility.yul\":7701:7714   */\n              sload\n                /* \"#utility.yul\":7737:7773   */\n              tag_396\n                /* \"#utility.yul\":7763:7772   */\n              dup2\n                /* \"#utility.yul\":7737:7773   */\n              tag_182\n              jump\t// in\n            tag_396:\n                /* \"#utility.yul\":7792:7793   */\n              0x01\n                /* \"#utility.yul\":7809:7826   */\n              dup3\n              dup2\n              and\n                /* \"#utility.yul\":7835:7968   */\n              dup1\n              iszero\n              tag_398\n              jumpi\n                /* \"#utility.yul\":7982:7983   */\n              0x01\n                /* \"#utility.yul\":7977:8335   */\n              dup2\n              eq\n              tag_399\n              jumpi\n                /* \"#utility.yul\":7802:8335   */\n              jump(tag_397)\n                /* \"#utility.yul\":7835:7968   */\n            tag_398:\n              not(0xff)\n                /* \"#utility.yul\":7868:7892   */\n              dup5\n              and\n                /* \"#utility.yul\":7856:7893   */\n              dup8\n              mstore\n                /* \"#utility.yul\":7941:7955   */\n              dup3\n              iszero\n                /* \"#utility.yul\":7934:7956   */\n              iszero\n                /* \"#utility.yul\":7922:7957   */\n              dup4\n              mul\n                /* \"#utility.yul\":7913:7958   */\n              dup8\n              add\n              swap5\n              pop\n                /* \"#utility.yul\":7835:7968   */\n              jump(tag_397)\n                /* \"#utility.yul\":7977:8335   */\n            tag_399:\n                /* \"#utility.yul\":8008:8014   */\n              dup8\n                /* \"#utility.yul\":8005:8006   */\n              0x00\n                /* \"#utility.yul\":7998:8015   */\n              mstore\n                /* \"#utility.yul\":8038:8042   */\n              0x20\n                /* \"#utility.yul\":8083:8087   */\n              dup1\n                /* \"#utility.yul\":8080:8081   */\n              0x00\n                /* \"#utility.yul\":8070:8088   */\n              keccak256\n                /* \"#utility.yul\":8110:8111   */\n              0x00\n                /* \"#utility.yul\":8124:8289   */\n            tag_400:\n                /* \"#utility.yul\":8138:8144   */\n              dup6\n                /* \"#utility.yul\":8135:8136   */\n              dup2\n                /* \"#utility.yul\":8132:8145   */\n              lt\n                /* \"#utility.yul\":8124:8289   */\n              iszero\n              tag_402\n              jumpi\n                /* \"#utility.yul\":8216:8230   */\n              dup2\n              sload\n                /* \"#utility.yul\":8203:8214   */\n              dup11\n              dup3\n              add\n                /* \"#utility.yul\":8196:8231   */\n              mstore\n                /* \"#utility.yul\":8259:8275   */\n              swap1\n              dup5\n              add\n              swap1\n                /* \"#utility.yul\":8153:8163   */\n              dup3\n              add\n                /* \"#utility.yul\":8124:8289   */\n              jump(tag_400)\n            tag_402:\n                /* \"#utility.yul\":8128:8131   */\n              pop\n              pop\n              pop\n                /* \"#utility.yul\":8318:8324   */\n              dup3\n                /* \"#utility.yul\":8313:8316   */\n              dup8\n                /* \"#utility.yul\":8309:8325   */\n              add\n                /* \"#utility.yul\":8302:8325   */\n              swap5\n              pop\n                /* \"#utility.yul\":7802:8335   */\n            tag_397:\n              pop\n                /* \"#utility.yul\":8351:8354   */\n              swap3\n              swap7\n                /* \"#utility.yul\":7517:8360   */\n              swap6\n              pop\n              pop\n              pop\n              pop\n              pop\n              pop\n              jump\t// out\n                /* \"#utility.yul\":8365:8697   */\n            tag_123:\n                /* \"#utility.yul\":8567:8569   */\n              0x20\n                /* \"#utility.yul\":8549:8570   */\n              dup1\n              dup3\n              mstore\n                /* \"#utility.yul\":8606:8607   */\n              0x09\n                /* \"#utility.yul\":8586:8604   */\n              swap1\n              dup3\n              add\n                /* \"#utility.yul\":8579:8608   */\n              mstore\n              shl(0xb9, 0x2737ba1037bbb732b9)\n                /* \"#utility.yul\":8639:8641   */\n              0x40\n                /* \"#utility.yul\":8624:8642   */\n              dup3\n              add\n                /* \"#utility.yul\":8617:8656   */\n              mstore\n                /* \"#utility.yul\":8688:8690   */\n              0x60\n                /* \"#utility.yul\":8673:8691   */\n              add\n              swap1\n                /* \"#utility.yul\":8365:8697   */\n              jump\t// out\n                /* \"#utility.yul\":9124:9251   */\n            tag_326:\n                /* \"#utility.yul\":9185:9195   */\n              0x4e487b71\n                /* \"#utility.yul\":9180:9183   */\n              0xe0\n                /* \"#utility.yul\":9176:9196   */\n              shl\n                /* \"#utility.yul\":9173:9174   */\n              0x00\n                /* \"#utility.yul\":9166:9197   */\n              mstore\n                /* \"#utility.yul\":9216:9220   */\n              0x11\n                /* \"#utility.yul\":9213:9214   */\n              0x04\n                /* \"#utility.yul\":9206:9221   */\n              mstore\n                /* \"#utility.yul\":9240:9244   */\n              0x24\n                /* \"#utility.yul\":9237:9238   */\n              0x00\n                /* \"#utility.yul\":9230:9245   */\n              revert\n                /* \"#utility.yul\":9256:9391   */\n            tag_133:\n                /* \"#utility.yul\":9295:9298   */\n              0x00\n                /* \"#utility.yul\":9316:9333   */\n              0x01\n              dup3\n              add\n                /* \"#utility.yul\":9313:9356   */\n              tag_408\n              jumpi\n                /* \"#utility.yul\":9336:9354   */\n              tag_408\n              tag_326\n              jump\t// in\n            tag_408:\n              pop\n                /* \"#utility.yul\":9383:9384   */\n              0x01\n                /* \"#utility.yul\":9372:9385   */\n              add\n              swap1\n                /* \"#utility.yul\":9256:9391   */\n              jump\t// out\n                /* \"#utility.yul\":9396:9699   */\n            tag_135:\n                /* \"#utility.yul\":9527:9530   */\n              0x00\n                /* \"#utility.yul\":9565:9571   */\n              dup3\n                /* \"#utility.yul\":9559:9572   */\n              mload\n                /* \"#utility.yul\":9611:9617   */\n              dup1\n                /* \"#utility.yul\":9604:9608   */\n              0x20\n                /* \"#utility.yul\":9596:9602   */\n              dup6\n                /* \"#utility.yul\":9592:9609   */\n              add\n                /* \"#utility.yul\":9587:9590   */\n              dup5\n                /* \"#utility.yul\":9581:9618   */\n              mcopy\n                /* \"#utility.yul\":9673:9674   */\n              0x00\n                /* \"#utility.yul\":9637:9653   */\n              swap3\n              add\n                /* \"#utility.yul\":9662:9675   */\n              swap2\n              dup3\n              mstore\n              pop\n                /* \"#utility.yul\":9637:9653   */\n              swap2\n                /* \"#utility.yul\":9396:9699   */\n              swap1\n              pop\n              jump\t// out\n                /* \"#utility.yul\":9704:10222   */\n            tag_327:\n                /* \"#utility.yul\":9806:9808   */\n              0x1f\n                /* \"#utility.yul\":9801:9804   */\n              dup3\n                /* \"#utility.yul\":9798:9809   */\n              gt\n                /* \"#utility.yul\":9795:10216   */\n              iszero\n              tag_411\n              jumpi\n                /* \"#utility.yul\":9842:9847   */\n              dup1\n                /* \"#utility.yul\":9839:9840   */\n              0x00\n                /* \"#utility.yul\":9832:9848   */\n              mstore\n                /* \"#utility.yul\":9886:9890   */\n              0x20\n                /* \"#utility.yul\":9883:9884   */\n              0x00\n                /* \"#utility.yul\":9873:9891   */\n              keccak256\n                /* \"#utility.yul\":9956:9958   */\n              0x1f\n                /* \"#utility.yul\":9944:9954   */\n              dup5\n                /* \"#utility.yul\":9940:9959   */\n              add\n                /* \"#utility.yul\":9937:9938   */\n              0x05\n                /* \"#utility.yul\":9933:9960   */\n              shr\n                /* \"#utility.yul\":9927:9931   */\n              dup2\n                /* \"#utility.yul\":9923:9961   */\n              add\n                /* \"#utility.yul\":9992:9996   */\n              0x20\n                /* \"#utility.yul\":9980:9990   */\n              dup6\n                /* \"#utility.yul\":9977:9997   */\n              lt\n                /* \"#utility.yul\":9974:10021   */\n              iszero\n              tag_412\n              jumpi\n              pop\n                /* \"#utility.yul\":10015:10019   */\n              dup1\n                /* \"#utility.yul\":9974:10021   */\n            tag_412:\n                /* \"#utility.yul\":10070:10072   */\n              0x1f\n                /* \"#utility.yul\":10065:10068   */\n              dup5\n                /* \"#utility.yul\":10061:10073   */\n              add\n                /* \"#utility.yul\":10058:10059   */\n              0x05\n                /* \"#utility.yul\":10054:10074   */\n              shr\n                /* \"#utility.yul\":10048:10052   */\n              dup3\n                /* \"#utility.yul\":10044:10075   */\n              add\n                /* \"#utility.yul\":10034:10075   */\n              swap2\n              pop\n                /* \"#utility.yul\":10125:10206   */\n            tag_413:\n                /* \"#utility.yul\":10143:10145   */\n              dup2\n                /* \"#utility.yul\":10136:10141   */\n              dup2\n                /* \"#utility.yul\":10133:10146   */\n              lt\n                /* \"#utility.yul\":10125:10206   */\n              iszero\n              tag_255\n              jumpi\n                /* \"#utility.yul\":10202:10203   */\n              0x00\n                /* \"#utility.yul\":10188:10204   */\n              dup2\n              sstore\n                /* \"#utility.yul\":10169:10170   */\n              0x01\n                /* \"#utility.yul\":10158:10171   */\n              add\n                /* \"#utility.yul\":10125:10206   */\n              jump(tag_413)\n                /* \"#utility.yul\":9795:10216   */\n            tag_411:\n                /* \"#utility.yul\":9704:10222   */\n              pop\n              pop\n              pop\n              jump\t// out\n                /* \"#utility.yul\":10398:11743   */\n            tag_137:\n                /* \"#utility.yul\":10524:10527   */\n              dup2\n                /* \"#utility.yul\":10518:10528   */\n              mload\n                /* \"#utility.yul\":10551:10569   */\n              0xffffffffffffffff\n                /* \"#utility.yul\":10543:10549   */\n              dup2\n                /* \"#utility.yul\":10540:10570   */\n              gt\n                /* \"#utility.yul\":10537:10593   */\n              iszero\n              tag_419\n              jumpi\n                /* \"#utility.yul\":10573:10591   */\n              tag_419\n              tag_230\n              jump\t// in\n            tag_419:\n                /* \"#utility.yul\":10602:10699   */\n              tag_420\n                /* \"#utility.yul\":10692:10698   */\n              dup2\n                /* \"#utility.yul\":10652:10690   */\n              tag_421\n                /* \"#utility.yul\":10684:10688   */\n              dup5\n                /* \"#utility.yul\":10678:10689   */\n              sload\n                /* \"#utility.yul\":10652:10690   */\n              tag_182\n              jump\t// in\n            tag_421:\n                /* \"#utility.yul\":10646:10650   */\n              dup5\n                /* \"#utility.yul\":10602:10699   */\n              tag_327\n              jump\t// in\n            tag_420:\n                /* \"#utility.yul\":10754:10758   */\n              0x20\n              dup1\n                /* \"#utility.yul\":10811:10813   */\n              0x1f\n                /* \"#utility.yul\":10800:10814   */\n              dup4\n              gt\n                /* \"#utility.yul\":10828:10829   */\n              0x01\n                /* \"#utility.yul\":10823:11486   */\n              dup2\n              eq\n              tag_423\n              jumpi\n                /* \"#utility.yul\":11530:11531   */\n              0x00\n                /* \"#utility.yul\":11547:11553   */\n              dup5\n                /* \"#utility.yul\":11544:11633   */\n              iszero\n              tag_424\n              jumpi\n              pop\n                /* \"#utility.yul\":11599:11618   */\n              dup6\n              dup4\n              add\n                /* \"#utility.yul\":11593:11619   */\n              mload\n                /* \"#utility.yul\":11544:11633   */\n            tag_424:\n              not(0x00)\n                /* \"#utility.yul\":10355:10356   */\n              0x03\n                /* \"#utility.yul\":10351:10362   */\n              dup7\n              swap1\n              shl\n                /* \"#utility.yul\":10347:10371   */\n              shr\n                /* \"#utility.yul\":10343:10372   */\n              not\n                /* \"#utility.yul\":10333:10373   */\n              and\n                /* \"#utility.yul\":10379:10380   */\n              0x01\n                /* \"#utility.yul\":10375:10386   */\n              dup6\n              swap1\n              shl\n                /* \"#utility.yul\":10330:10387   */\n              or\n                /* \"#utility.yul\":11646:11727   */\n              dup6\n              sstore\n                /* \"#utility.yul\":10793:11737   */\n              jump(tag_422)\n                /* \"#utility.yul\":10823:11486   */\n            tag_423:\n                /* \"#utility.yul\":7464:7465   */\n              0x00\n                /* \"#utility.yul\":7457:7471   */\n              dup6\n              dup2\n              mstore\n                /* \"#utility.yul\":7501:7505   */\n              0x20\n                /* \"#utility.yul\":7488:7506   */\n              dup2\n              keccak256\n              not(0x1f)\n                /* \"#utility.yul\":10859:10879   */\n              dup7\n              and\n              swap2\n                /* \"#utility.yul\":10977:11213   */\n            tag_427:\n                /* \"#utility.yul\":10991:10998   */\n              dup3\n                /* \"#utility.yul\":10988:10989   */\n              dup2\n                /* \"#utility.yul\":10985:10999   */\n              lt\n                /* \"#utility.yul\":10977:11213   */\n              iszero\n              tag_429\n              jumpi\n                /* \"#utility.yul\":11080:11099   */\n              dup9\n              dup7\n              add\n                /* \"#utility.yul\":11074:11100   */\n              mload\n                /* \"#utility.yul\":11059:11101   */\n              dup3\n              sstore\n                /* \"#utility.yul\":11172:11199   */\n              swap5\n              dup5\n              add\n              swap5\n                /* \"#utility.yul\":11140:11141   */\n              0x01\n                /* \"#utility.yul\":11128:11142   */\n              swap1\n              swap2\n              add\n              swap1\n                /* \"#utility.yul\":11007:11026   */\n              dup5\n              add\n                /* \"#utility.yul\":10977:11213   */\n              jump(tag_427)\n            tag_429:\n                /* \"#utility.yul\":10981:10984   */\n              pop\n                /* \"#utility.yul\":11241:11247   */\n              dup6\n                /* \"#utility.yul\":11232:11239   */\n              dup3\n                /* \"#utility.yul\":11229:11248   */\n              lt\n                /* \"#utility.yul\":11226:11427   */\n              iszero\n              tag_430\n              jumpi\n                /* \"#utility.yul\":11302:11321   */\n              dup8\n              dup6\n              add\n                /* \"#utility.yul\":11296:11322   */\n              mload\n              not(0x00)\n                /* \"#utility.yul\":11385:11386   */\n              0x03\n                /* \"#utility.yul\":11381:11395   */\n              dup9\n              swap1\n              shl\n                /* \"#utility.yul\":11397:11400   */\n              0xf8\n                /* \"#utility.yul\":11377:11401   */\n              and\n                /* \"#utility.yul\":11373:11410   */\n              shr\n                /* \"#utility.yul\":11369:11411   */\n              not\n                /* \"#utility.yul\":11354:11412   */\n              and\n                /* \"#utility.yul\":11339:11413   */\n              dup2\n              sstore\n                /* \"#utility.yul\":11226:11427   */\n            tag_430:\n              pop\n              pop\n                /* \"#utility.yul\":11473:11474   */\n              0x01\n                /* \"#utility.yul\":11464:11470   */\n              dup5\n                /* \"#utility.yul\":11461:11462   */\n              0x01\n                /* \"#utility.yul\":11457:11471   */\n              shl\n                /* \"#utility.yul\":11453:11475   */\n              add\n                /* \"#utility.yul\":11447:11451   */\n              dup6\n                /* \"#utility.yul\":11440:11476   */\n              sstore\n                /* \"#utility.yul\":10793:11737   */\n            tag_422:\n              pop\n              pop\n              pop\n              pop\n                /* \"#utility.yul\":10398:11743   */\n              pop\n              pop\n              jump\t// out\n                /* \"#utility.yul\":12522:12650   */\n            tag_145:\n                /* \"#utility.yul\":12589:12598   */\n              dup2\n              dup2\n              sub\n                /* \"#utility.yul\":12610:12621   */\n              dup2\n              dup2\n              gt\n                /* \"#utility.yul\":12607:12644   */\n              iszero\n              tag_148\n              jumpi\n                /* \"#utility.yul\":12624:12642   */\n              tag_148\n              tag_326\n              jump\t// in\n                /* \"#utility.yul\":13093:13424   */\n            tag_154:\n                /* \"#utility.yul\":13295:13297   */\n              0x20\n                /* \"#utility.yul\":13277:13298   */\n              dup1\n              dup3\n              mstore\n                /* \"#utility.yul\":13334:13335   */\n              0x08\n                /* \"#utility.yul\":13314:13332   */\n              swap1\n              dup3\n              add\n                /* \"#utility.yul\":13307:13336   */\n              mstore\n              shl(0xc1, 0x2737ba1029b2b633)\n                /* \"#utility.yul\":13367:13369   */\n              0x40\n                /* \"#utility.yul\":13352:13370   */\n              dup3\n              add\n                /* \"#utility.yul\":13345:13383   */\n              mstore\n                /* \"#utility.yul\":13415:13417   */\n              0x60\n                /* \"#utility.yul\":13400:13418   */\n              add\n              swap1\n                /* \"#utility.yul\":13093:13424   */\n              jump\t// out\n                /* \"#utility.yul\":13429:13783   */\n            tag_158:\n                /* \"#utility.yul\":13631:13633   */\n              0x20\n                /* \"#utility.yul\":13613:13634   */\n              dup1\n              dup3\n              mstore\n                /* \"#utility.yul\":13670:13672   */\n              0x1e\n                /* \"#utility.yul\":13650:13668   */\n              swap1\n              dup3\n              add\n                /* \"#utility.yul\":13643:13673   */\n              mstore\n                /* \"#utility.yul\":13709:13741   */\n              0x4d757374206265206e6f6e2d7a65726f20736967732072657175697265640000\n                /* \"#utility.yul\":13704:13706   */\n              0x40\n                /* \"#utility.yul\":13689:13707   */\n              dup3\n              add\n                /* \"#utility.yul\":13682:13742   */\n              mstore\n                /* \"#utility.yul\":13774:13776   */\n              0x60\n                /* \"#utility.yul\":13759:13777   */\n              add\n              swap1\n                /* \"#utility.yul\":13429:13783   */\n              jump\t// out\n                /* \"#utility.yul\":14140:14994   */\n            tag_169:\n                /* \"#utility.yul\":14335:14339   */\n              0x00\n                /* \"#utility.yul\":14383:14385   */\n              0x60\n                /* \"#utility.yul\":14372:14381   */\n              dup3\n                /* \"#utility.yul\":14368:14386   */\n              add\n                /* \"#utility.yul\":14422:14423   */\n              0x01\n                /* \"#utility.yul\":14418:14419   */\n              dup1\n                /* \"#utility.yul\":14413:14416   */\n              0xa0\n                /* \"#utility.yul\":14409:14420   */\n              shl\n                /* \"#utility.yul\":14405:14424   */\n              sub\n                /* \"#utility.yul\":14463:14465   */\n              dup1\n                /* \"#utility.yul\":14455:14461   */\n              dup8\n                /* \"#utility.yul\":14451:14466   */\n              and\n                /* \"#utility.yul\":14440:14449   */\n              dup5\n                /* \"#utility.yul\":14433:14467   */\n              mstore\n                /* \"#utility.yul\":14486:14488   */\n              0x20\n                /* \"#utility.yul\":14524:14526   */\n              0x60\n                /* \"#utility.yul\":14519:14521   */\n              0x20\n                /* \"#utility.yul\":14508:14517   */\n              dup7\n                /* \"#utility.yul\":14504:14522   */\n              add\n                /* \"#utility.yul\":14497:14527   */\n              mstore\n                /* \"#utility.yul\":14547:14553   */\n              dup3\n                /* \"#utility.yul\":14582:14588   */\n              dup8\n                /* \"#utility.yul\":14576:14589   */\n              sload\n                /* \"#utility.yul\":14613:14619   */\n              dup1\n                /* \"#utility.yul\":14605:14611   */\n              dup6\n                /* \"#utility.yul\":14598:14620   */\n              mstore\n                /* \"#utility.yul\":14651:14654   */\n              0x80\n                /* \"#utility.yul\":14640:14649   */\n              dup8\n                /* \"#utility.yul\":14636:14655   */\n              add\n                /* \"#utility.yul\":14629:14655   */\n              swap2\n              pop\n                /* \"#utility.yul\":14674:14680   */\n              dup9\n                /* \"#utility.yul\":14671:14672   */\n              0x00\n                /* \"#utility.yul\":14664:14681   */\n              mstore\n                /* \"#utility.yul\":14717:14719   */\n              0x20\n                /* \"#utility.yul\":14714:14715   */\n              0x00\n                /* \"#utility.yul\":14704:14720   */\n              keccak256\n                /* \"#utility.yul\":14690:14720   */\n              swap5\n              pop\n                /* \"#utility.yul\":14738:14739   */\n              0x00\n                /* \"#utility.yul\":14748:14925   */\n            tag_441:\n                /* \"#utility.yul\":14762:14768   */\n              dup2\n                /* \"#utility.yul\":14759:14760   */\n              dup2\n                /* \"#utility.yul\":14756:14769   */\n              lt\n                /* \"#utility.yul\":14748:14925   */\n              iszero\n              tag_443\n              jumpi\n                /* \"#utility.yul\":14827:14840   */\n              dup6\n              sload\n                /* \"#utility.yul\":14823:14845   */\n              dup6\n              and\n                /* \"#utility.yul\":14811:14846   */\n              dup4\n              mstore\n                /* \"#utility.yul\":14913:14914   */\n              0x01\n                /* \"#utility.yul\":14901:14915   */\n              swap6\n              dup7\n              add\n              swap6\n                /* \"#utility.yul\":14866:14878   */\n              swap3\n              dup5\n              add\n              swap3\n                /* \"#utility.yul\":14777:14786   */\n              add\n                /* \"#utility.yul\":14748:14925   */\n              jump(tag_441)\n            tag_443:\n                /* \"#utility.yul\":14752:14755   */\n              pop\n              pop\n                /* \"#utility.yul\":14942:14945   */\n              dup1\n                /* \"#utility.yul\":14934:14945   */\n              swap5\n              pop\n              pop\n              pop\n              pop\n              pop\n                /* \"#utility.yul\":14981:14987   */\n              dup3\n                /* \"#utility.yul\":14976:14978   */\n              0x40\n                /* \"#utility.yul\":14965:14974   */\n              dup4\n                /* \"#utility.yul\":14961:14979   */\n              add\n                /* \"#utility.yul\":14954:14988   */\n              mstore\n                /* \"#utility.yul\":14140:14994   */\n              swap5\n              swap4\n              pop\n              pop\n              pop\n              pop\n              jump\t// out\n                /* \"#utility.yul\":16622:16749   */\n            tag_238:\n                /* \"#utility.yul\":16683:16693   */\n              0x4e487b71\n                /* \"#utility.yul\":16678:16681   */\n              0xe0\n                /* \"#utility.yul\":16674:16694   */\n              shl\n                /* \"#utility.yul\":16671:16672   */\n              0x00\n                /* \"#utility.yul\":16664:16695   */\n              mstore\n                /* \"#utility.yul\":16714:16718   */\n              0x32\n                /* \"#utility.yul\":16711:16712   */\n              0x04\n                /* \"#utility.yul\":16704:16719   */\n              mstore\n                /* \"#utility.yul\":16738:16742   */\n              0x24\n                /* \"#utility.yul\":16735:16736   */\n              0x00\n                /* \"#utility.yul\":16728:16743   */\n              revert\n                /* \"#utility.yul\":16754:16881   */\n            tag_248:\n                /* \"#utility.yul\":16815:16825   */\n              0x4e487b71\n                /* \"#utility.yul\":16810:16813   */\n              0xe0\n                /* \"#utility.yul\":16806:16826   */\n              shl\n                /* \"#utility.yul\":16803:16804   */\n              0x00\n                /* \"#utility.yul\":16796:16827   */\n              mstore\n                /* \"#utility.yul\":16846:16850   */\n              0x31\n                /* \"#utility.yul\":16843:16844   */\n              0x04\n                /* \"#utility.yul\":16836:16851   */\n              mstore\n                /* \"#utility.yul\":16870:16874   */\n              0x24\n                /* \"#utility.yul\":16867:16868   */\n              0x00\n                /* \"#utility.yul\":16860:16875   */\n              revert\n                /* \"#utility.yul\":16886:17022   */\n            tag_262:\n                /* \"#utility.yul\":16925:16928   */\n              0x00\n                /* \"#utility.yul\":16953:16958   */\n              dup2\n                /* \"#utility.yul\":16943:16982   */\n              tag_452\n              jumpi\n                /* \"#utility.yul\":16962:16980   */\n              tag_452\n              tag_326\n              jump\t// in\n            tag_452:\n              pop\n              not(0x00)\n                /* \"#utility.yul\":16998:17016   */\n              add\n              swap1\n                /* \"#utility.yul\":16886:17022   */\n              jump\t// out\n                /* \"#utility.yul\":17815:17942   */\n            tag_288:\n                /* \"#utility.yul\":17876:17886   */\n              0x4e487b71\n                /* \"#utility.yul\":17871:17874   */\n              0xe0\n                /* \"#utility.yul\":17867:17887   */\n              shl\n                /* \"#utility.yul\":17864:17865   */\n              0x00\n                /* \"#utility.yul\":17857:17888   */\n              mstore\n                /* \"#utility.yul\":17907:17911   */\n              0x21\n                /* \"#utility.yul\":17904:17905   */\n              0x04\n                /* \"#utility.yul\":17897:17912   */\n              mstore\n                /* \"#utility.yul\":17931:17935   */\n              0x24\n                /* \"#utility.yul\":17928:17929   */\n              0x00\n                /* \"#utility.yul\":17921:17936   */\n              revert\n\n            auxdata: 0xa26469706673582212201183c350ae601ff67cc70e87ebcf608cb2a61adec545c57656733df740f34d2e64736f6c63430008190033\n        }\n    }\n\n    auxdata: 0xa2646970667358221220a5129517ae2b3d7c1d0cfa335005cc509c4e8bd52da198cc8e9d33db74ca178664736f6c63430008190033\n}\n",
				"bytecode": {
					"linkReferences": {},
					"object": "6080604052348015600e575f80fd5b506125b68061001c5f395ff3fe608060405260043610610049575f3560e01c80632a876a521461004d5780632f1d8a23146100625780639567e7ed14610083578063bedf4294146100b3578063c67fdb94146100d2575b5f80fd5b61006061005b366004610690565b610109565b005b34801561006d575f80fd5b505f546040519081526020015b60405180910390f35b34801561008e575f80fd5b506100a261009d366004610725565b610272565b60405161007a95949392919061076a565b3480156100be575f80fd5b506100606100cd3660046107b4565b610457565b3480156100dd575f80fd5b506100f16100ec366004610725565b61050c565b6040516001600160a01b03909116815260200161007a565b5f805490505f348787873060405161012090610533565b61012d949392919061084a565b6040518091039082f0905080158015610148573d5f803e3d5ffd5b505f8054600180820183557f290decd9548b62a8d60345a988386fc84ba6bc95484008f6362f93160ef3e56390910180546001600160a01b0319166001600160a01b038516908117909155825260208181526040808420805460ff19169093179092556002905290209091506101be8582610907565b506001600160a01b0381165f9081526003602052604090206101e08482610907565b50806001600160a01b0316827f8e7afa2cfd444b14c15f2c5a27041b913dfe206302b391e01c241cb58ade033733898960405161021f939291906109c7565b60405180910390a384816001600160a01b03167f767d0acba39e4cf96349b168ed9d32211fb4940be0f3549d31154941785c9b6a8860405161026191906109fa565b60405180910390a350505050505050565b5f805f6060805f80878154811061028b5761028b610a13565b905f5260205f20015f9054906101000a90046001600160a01b0316905080816001600160a01b031663ce757d296040518163ffffffff1660e01b8152600401602060405180830381865afa1580156102e5573d5f803e3d5ffd5b505050506040513d601f19601f820116820180604052508101906103099190610a27565b6001600160a01b0383165f81815260026020908152604080832060039092529091208154923192829061033b90610883565b80601f016020809104026020016040519081016040528092919081815260200182805461036790610883565b80156103b25780601f10610389576101008083540402835291602001916103b2565b820191905f5260205f20905b81548152906001019060200180831161039557829003601f168201915b505050505091508080546103c590610883565b80601f01602080910402602001604051908101604052809291908181526020018280546103f190610883565b801561043c5780601f106104135761010080835404028352916020019161043c565b820191905f5260205f20905b81548152906001019060200180831161041f57829003601f168201915b50505050509050955095509550955095505091939590929450565b335f9081526001602052604090205460ff166104c55760405162461bcd60e51b815260206004820152602360248201527f63616c6c6572206e6f74207265676973746572656420746f20757365206c6f6760448201526233b2b960e91b606482015260840160405180910390fd5b80836001600160a01b03167f767d0acba39e4cf96349b168ed9d32211fb4940be0f3549d31154941785c9b6a846040516104ff91906109fa565b60405180910390a3505050565b5f818154811061051a575f80fd5b5f918252602090912001546001600160a01b0316905081565b611b4280610a3f83390190565b634e487b7160e01b5f52604160045260245ffd5b604051601f8201601f1916810167ffffffffffffffff8111828210171561057d5761057d610540565b604052919050565b80356001600160a01b038116811461059b575f80fd5b919050565b5f82601f8301126105af575f80fd5b8135602067ffffffffffffffff8211156105cb576105cb610540565b8160051b6105da828201610554565b92835284810182019282810190878511156105f3575f80fd5b83870192505b848310156106195761060a83610585565b825291830191908301906105f9565b979650505050505050565b5f82601f830112610633575f80fd5b813567ffffffffffffffff81111561064d5761064d610540565b610660601f8201601f1916602001610554565b818152846020838601011115610674575f80fd5b816020850160208301375f918101602001919091529392505050565b5f805f805f60a086880312156106a4575f80fd5b85359450602086013567ffffffffffffffff808211156106c2575f80fd5b6106ce89838a016105a0565b95506040880135945060608801359150808211156106ea575f80fd5b6106f689838a01610624565b9350608088013591508082111561070b575f80fd5b5061071888828901610624565b9150509295509295909350565b5f60208284031215610735575f80fd5b5035919050565b5f81518084528060208401602086015e5f602082860101526020601f19601f83011685010191505092915050565b60018060a01b038616815284602082015283604082015260a060608201525f61079660a083018561073c565b82810360808401526107a8818561073c565b98975050505050505050565b5f805f606084860312156107c6575f80fd5b6107cf84610585565b9250602084013567ffffffffffffffff8111156107ea575f80fd5b6107f6868287016105a0565b925050604084013590509250925092565b5f815180845260208085019450602084015f5b8381101561083f5781516001600160a01b03168752958201959082019060010161081a565b509495945050505050565b848152608060208201525f6108626080830186610807565b6040830194909452506001600160a01b039190911660609091015292915050565b600181811c9082168061089757607f821691505b6020821081036108b557634e487b7160e01b5f52602260045260245ffd5b50919050565b601f82111561090257805f5260205f20601f840160051c810160208510156108e05750805b601f840160051c820191505b818110156108ff575f81556001016108ec565b50505b505050565b815167ffffffffffffffff81111561092157610921610540565b6109358161092f8454610883565b846108bb565b602080601f831160018114610968575f84156109515750858301515b5f19600386901b1c1916600185901b1785556109bf565b5f85815260208120601f198616915b8281101561099657888601518255948401946001909101908401610977565b50858210156109b357878501515f19600388901b60f8161c191681555b505060018460011b0185555b505050505050565b6001600160a01b03841681526060602082018190525f906109ea90830185610807565b9050826040830152949350505050565b602081525f610a0c6020830184610807565b9392505050565b634e487b7160e01b5f52603260045260245ffd5b5f60208284031215610a37575f80fd5b505191905056fe6080604052604051611b42380380611b4283398101604081905261002291610269565b815f81116100775760405162461bcd60e51b815260206004820152601e60248201527f4d757374206265206e6f6e2d7a65726f2073696773207265717569726564000060448201526064015b60405180910390fd5b5f80546001600160a01b0319166001600160a01b03841617815560058490555b8451811015610229575f8582815181106100b3576100b361034f565b602002602001015190505f6001600160a01b0316816001600160a01b03160361011e5760405162461bcd60e51b815260206004820152601960248201527f636f6e7374727563746f723a207a65726f206164647265737300000000000000604482015260640161006e565b6001600160a01b0381165f9081526001602052604090205460ff16156101865760405162461bcd60e51b815260206004820152601d60248201527f636f6e7374727563746f723a206f776e6572206e6f7420756e69717565000000604482015260640161006e565b6001600160a01b0381165f81815260016020818152604092839020805460ff1916831781556004805493840190557f8a35acfbc15ff81a39ae7d344fd709f28e8600b4aa8c65c6b64bfe7fe36bd19b90920180546001600160a01b031916851790559054915160ff909216151582527ffe545f48304051c4029eb2da9927daa59da0414b4b084fdceaf2955b609b899e910160405180910390a250600101610097565b505050600792909255506103639050565b634e487b7160e01b5f52604160045260245ffd5b80516001600160a01b0381168114610264575f80fd5b919050565b5f805f806080858703121561027c575f80fd5b8451602080870151919550906001600160401b038082111561029c575f80fd5b818801915088601f8301126102af575f80fd5b8151818111156102c1576102c161023a565b8060051b604051601f19603f830116810181811085821117156102e6576102e661023a565b60405291825284820192508381018501918b831115610303575f80fd5b938501935b82851015610328576103198561024e565b84529385019392850192610308565b809850505050505050604085015191506103446060860161024e565b905092959194509250565b634e487b7160e01b5f52603260045260245ffd5b6117d2806103705f395ff3fe6080604052600436106100f2575f3560e01c80637708072c11610087578063a157b0ae11610057578063a157b0ae14610369578063affed0e014610388578063ce757d291461039d578063f2b0bb6b146103b2575f80fd5b80637708072c146102d25780637c72596e146102fe57806395a3ac74146103355780639a8a059214610354575f80fd5b80631f919f77116100c25780631f919f77146101ee5780632f54bf6e1461020f5780633aaa47711461023d578063627cdcb9146102be575f80fd5b8063019010f614610137578063025e7c271461016957806314c2fa0d146101a057806319045a25146101cf575f80fd5b36610133576040805134815247602082015233917f90890809c654f11d6e72a28fa60149770a0d11ec6c92319d6ceb2bb0a4ea1a15910160405180910390a2005b5f80fd5b348015610142575f80fd5b506101566101513660046110fa565b6103d1565b6040519081526020015b60405180910390f35b348015610174575f80fd5b506101886101833660046110fa565b610406565b6040516001600160a01b039091168152602001610160565b3480156101ab575f80fd5b506101bf6101ba3660046111c5565b61042e565b6040519015158152602001610160565b3480156101da575f80fd5b506101886101e9366004611263565b6106a7565b3480156101f9575f80fd5b5061020d6102083660046112a7565b6106bb565b005b34801561021a575f80fd5b506101bf6102293660046112e5565b60016020525f908152604090205460ff1681565b348015610248575f80fd5b50610156610257366004611307565b6007546040516bffffffffffffffffffffffff1930606090811b821660208401526034830193909352605482018690529184901b9091166074820152608881018290525f9060a8016040516020818303038152906040528051906020012090509392505050565b3480156102c9575f80fd5b5061015661083c565b3480156102dd575f80fd5b506102f16102ec3660046110fa565b610886565b6040516101609190611359565b348015610309575f80fd5b5061015661031836600461136b565b805160208183018101805160028252928201919093012091525481565b348015610340575f80fd5b5061020d61034f3660046112a7565b61091d565b34801561035f575f80fd5b5061015660075481565b348015610374575f80fd5b506102f16103833660046113a5565b610ac3565b348015610393575f80fd5b5061015660065481565b3480156103a8575f80fd5b5061015660055481565b3480156103bd575f80fd5b506101886103cc36600461140b565b610b3b565b6006545f9081526003602052604080822090516002916103f091611499565b9081526020016040518091039020549050919050565b60048181548110610415575f80fd5b5f918252602090912001546001600160a01b0316905081565b335f9081526001602052604081205460ff166104655760405162461bcd60e51b815260040161045c9061150b565b60405180910390fd5b5f61046f84610b67565b90505f805f61047e8789610b3b565b9050826001600160a01b0316816001600160a01b0316116104ff5760405162461bcd60e51b815260206004820152603560248201527f657865637574655472616e73616374696f6e3a206475706c6963617465206f7260448201527420756e6f726465726564207369676e61747572657360581b606482015260840161045c565b6001600160a01b0381165f90815260016020526040812054919350839160ff1615610574578261052e81611542565b93505082600288604051610542919061155a565b9081526040805160209281900383019020929092556006545f90815260039091522061056e88826115b9565b50600190505b6005548310156105de5760405162461bcd60e51b815260206004820152602f60248201527f657865637574655472616e73616374696f6e3a206e6f7420656e6f756768207660448201526e616c6964207369676e61747572657360881b606482015260840161045c565b8061062b5760405162461bcd60e51b815260206004820152601d60248201527f657865637574655472616e73616374696f6e3a207478206661696c6564000000604482015260640161045c565b336001600160a01b03167f01981a0759c7f7295b44ccbd200535e8a29744b41f8da48b42a35b8b4b8b04b68c8c60016006546106679190611679565b604080516001600160a01b0390941684526020840192909252908201526060810188905260800160405180910390a25060019a9950505050505050505050565b5f6106b28383610b96565b90505b92915050565b82336001600160a01b038216146106e45760405162461bcd60e51b815260040161045c9061168c565b815f81116107045760405162461bcd60e51b815260040161045c906116ae565b6001600160a01b0384165f9081526001602052604090205460ff1661076b5760405162461bcd60e51b815260206004820152601760248201527f72656d6f76655369676e65723a206e6f74206f776e6572000000000000000000604482015260640161045c565b61077484610bbe565b60058390556107838584610db7565b6001600160a01b0384165f8181526001602090815260409182902054915160ff909216151582527ffe545f48304051c4029eb2da9927daa59da0414b4b084fdceaf2955b609b899e910160405180910390a25f54604051632fb7d0a560e21b81526001600160a01b039091169063bedf429490610808903090600490889082016116e5565b5f604051808303815f87803b15801561081f575f80fd5b505af1158015610831573d5f803e3d5ffd5b505050505050505050565b335f9081526001602052604081205460ff1661086a5760405162461bcd60e51b815260040161045c9061150b565b60068054905f61087983611542565b9190505550600654905090565b60036020525f90815260409020805461089e90611461565b80601f01602080910402602001604051908101604052809291908181526020018280546108ca90611461565b80156109155780601f106108ec57610100808354040283529160200191610915565b820191905f5260205f20905b8154815290600101906020018083116108f857829003601f168201915b505050505081565b82336001600160a01b038216146109465760405162461bcd60e51b815260040161045c9061168c565b335f9081526001602052604090205460ff166109745760405162461bcd60e51b815260040161045c9061150b565b815f81116109945760405162461bcd60e51b815260040161045c906116ae565b6001600160a01b0384166109ea5760405162461bcd60e51b815260206004820152601760248201527f6164645369676e65723a207a65726f2061646472657373000000000000000000604482015260640161045c565b6001600160a01b0384165f9081526001602052604090205460ff1615610a525760405162461bcd60e51b815260206004820152601b60248201527f6164645369676e65723a206f776e6572206e6f7420756e697175650000000000604482015260640161045c565b6001600160a01b0384165f8181526001602081905260408220805460ff1916821790556004805491820181559091527f8a35acfbc15ff81a39ae7d344fd709f28e8600b4aa8c65c6b64bfe7fe36bd19b0180546001600160a01b031916909117905560058390556107838584610db7565b6040516001600160a01b0380851660248301528316604482015260648101829052606090859060840160408051601f198184030181529082905291610b079161155a565b6040519081900390206020820180516001600160e01b03166001600160e01b03199092169190911790529050949350505050565b5f80610b4684610b67565b90505f610b5282610e08565b9050610b5e8185610e42565b95945050505050565b5f81604051602001610b79919061155a565b604051602081830303815290604052805190602001209050919050565b5f805f80610ba48686610ebc565b925092509250610bb48282610f05565b5090949350505050565b6001600160a01b0381165f908152600160205260408120805460ff19169055600454908167ffffffffffffffff811115610bfa57610bfa611128565b604051908082528060200260200182016040528015610c23578160200160208202803683370190505b5090505f610c32600184611679565b90505b836001600160a01b031660048281548110610c5257610c5261174b565b5f918252602090912001546001600160a01b031614610d015760048181548110610c7e57610c7e61174b565b905f5260205f20015f9054906101000a90046001600160a01b0316828281518110610cab57610cab61174b565b60200260200101906001600160a01b031690816001600160a01b0316815250506004805480610cdc57610cdc61175f565b5f8281526020902081015f1990810180546001600160a01b0319169055019055610da5565b6004805480610d1257610d1261175f565b5f8281526020902081015f1990810180546001600160a01b0319169055019055805b610d3f600185611679565b811015610d9e576004838281518110610d5a57610d5a61174b565b6020908102919091018101518254600180820185555f9485529290932090920180546001600160a01b0319166001600160a01b039093169290921790915501610d34565b5050505050565b80610daf81611773565b915050610c35565b81336001600160a01b03821614610de05760405162461bcd60e51b815260040161045c9061168c565b815f8111610e005760405162461bcd60e51b815260040161045c906116ae565b505060055550565b6040517f19457468657265756d205369676e6564204d6573736167653a0a3332000000006020820152603c81018290525f90605c01610b79565b5f805f80610e4f85610fc1565b604080515f8152602081018083528b905260ff8316918101919091526060810184905260808101839052929550909350915060019060a0016020604051602081039080840390855afa158015610ea7573d5f803e3d5ffd5b5050604051601f190151979650505050505050565b5f805f8351604103610ef3576020840151604085015160608601515f1a610ee588828585611032565b955095509550505050610efe565b505081515f91506002905b9250925092565b5f826003811115610f1857610f18611788565b03610f21575050565b6001826003811115610f3557610f35611788565b03610f535760405163f645eedf60e01b815260040160405180910390fd5b6002826003811115610f6757610f67611788565b03610f885760405163fce698f760e01b81526004810182905260240161045c565b6003826003811115610f9c57610f9c611788565b03610fbd576040516335e2f38360e21b81526004810182905260240161045c565b5050565b5f805f83516041146110155760405162461bcd60e51b815260206004820152601860248201527f696e76616c6964207369676e6174757265206c656e6774680000000000000000604482015260640161045c565b5050506020810151604082015160609092015190925f9190911a90565b5f80807f7fffffffffffffffffffffffffffffff5d576e7357a4501ddfe92f46681b20a084111561106b57505f915060039050826110f0565b604080515f808252602082018084528a905260ff891692820192909252606081018790526080810186905260019060a0016020604051602081039080840390855afa1580156110bc573d5f803e3d5ffd5b5050604051601f1901519150506001600160a01b0381166110e757505f9250600191508290506110f0565b92505f91508190505b9450945094915050565b5f6020828403121561110a575f80fd5b5035919050565b6001600160a01b0381168114611125575f80fd5b50565b634e487b7160e01b5f52604160045260245ffd5b5f82601f83011261114b575f80fd5b813567ffffffffffffffff8082111561116657611166611128565b604051601f8301601f19908116603f0116810190828211818310171561118e5761118e611128565b816040528381528660208588010111156111a6575f80fd5b836020870160208301375f602085830101528094505050505092915050565b5f805f805f60a086880312156111d9575f80fd5b85356111e481611111565b945060208601359350604086013567ffffffffffffffff80821115611207575f80fd5b61121389838a0161113c565b94506060880135915080821115611228575f80fd5b61123489838a0161113c565b93506080880135915080821115611249575f80fd5b506112568882890161113c565b9150509295509295909350565b5f8060408385031215611274575f80fd5b82359150602083013567ffffffffffffffff811115611291575f80fd5b61129d8582860161113c565b9150509250929050565b5f805f606084860312156112b9575f80fd5b83356112c481611111565b925060208401356112d481611111565b929592945050506040919091013590565b5f602082840312156112f5575f80fd5b813561130081611111565b9392505050565b5f805f60608486031215611319575f80fd5b8335925060208401356112d481611111565b5f81518084528060208401602086015e5f602082860101526020601f19601f83011685010191505092915050565b602081525f6106b2602083018461132b565b5f6020828403121561137b575f80fd5b813567ffffffffffffffff811115611391575f80fd5b61139d8482850161113c565b949350505050565b5f805f80608085870312156113b8575f80fd5b843567ffffffffffffffff8111156113ce575f80fd5b6113da8782880161113c565b94505060208501356113eb81611111565b925060408501356113fb81611111565b9396929550929360600135925050565b5f806040838503121561141c575f80fd5b823567ffffffffffffffff80821115611433575f80fd5b61143f8683870161113c565b93506020850135915080821115611454575f80fd5b5061129d8582860161113c565b600181811c9082168061147557607f821691505b60208210810361149357634e487b7160e01b5f52602260045260245ffd5b50919050565b5f8083546114a681611461565b600182811680156114be57600181146114d3576114ff565b60ff19841687528215158302870194506114ff565b875f526020805f205f5b858110156114f65781548a8201529084019082016114dd565b50505082870194505b50929695505050505050565b6020808252600990820152682737ba1037bbb732b960b91b604082015260600190565b634e487b7160e01b5f52601160045260245ffd5b5f600182016115535761155361152e565b5060010190565b5f82518060208501845e5f920191825250919050565b601f8211156115b457805f5260205f20601f840160051c810160208510156115955750805b601f840160051c820191505b81811015610d9e575f81556001016115a1565b505050565b815167ffffffffffffffff8111156115d3576115d3611128565b6115e7816115e18454611461565b84611570565b602080601f83116001811461161a575f84156116035750858301515b5f19600386901b1c1916600185901b178555611671565b5f85815260208120601f198616915b8281101561164857888601518255948401946001909101908401611629565b508582101561166557878501515f19600388901b60f8161c191681555b505060018460011b0185555b505050505050565b818103818111156106b5576106b561152e565b6020808252600890820152672737ba1029b2b63360c11b604082015260600190565b6020808252601e908201527f4d757374206265206e6f6e2d7a65726f20736967732072657175697265640000604082015260600190565b5f6060820160018060a01b038087168452602060606020860152828754808552608087019150885f5260205f2094505f5b81811015611734578554851683526001958601959284019201611716565b505080945050505050826040830152949350505050565b634e487b7160e01b5f52603260045260245ffd5b634e487b7160e01b5f52603160045260245ffd5b5f816117815761178161152e565b505f190190565b634e487b7160e01b5f52602160045260245ffdfea26469706673582212201183c350ae601ff67cc70e87ebcf608cb2a61adec545c57656733df740f34d2e64736f6c63430008190033a2646970667358221220a5129517ae2b3d7c1d0cfa335005cc509c4e8bd52da198cc8e9d33db74ca178664736f6c63430008190033",
					"opcodes": "PUSH1 0x80 PUSH1 0x40 MSTORE CALLVALUE DUP1 ISZERO PUSH1 0xE JUMPI PUSH0 DUP1 REVERT JUMPDEST POP PUSH2 0x25B6 DUP1 PUSH2 0x1C PUSH0 CODECOPY PUSH0 RETURN INVALID PUSH1 0x80 PUSH1 0x40 MSTORE PUSH1 0x4 CALLDATASIZE LT PUSH2 0x49 JUMPI PUSH0 CALLDATALOAD PUSH1 0xE0 SHR DUP1 PUSH4 0x2A876A52 EQ PUSH2 0x4D JUMPI DUP1 PUSH4 0x2F1D8A23 EQ PUSH2 0x62 JUMPI DUP1 PUSH4 0x9567E7ED EQ PUSH2 0x83 JUMPI DUP1 PUSH4 0xBEDF4294 EQ PUSH2 0xB3 JUMPI DUP1 PUSH4 0xC67FDB94 EQ PUSH2 0xD2 JUMPI JUMPDEST PUSH0 DUP1 REVERT JUMPDEST PUSH2 0x60 PUSH2 0x5B CALLDATASIZE PUSH1 0x4 PUSH2 0x690 JUMP JUMPDEST PUSH2 0x109 JUMP JUMPDEST STOP JUMPDEST CALLVALUE DUP1 ISZERO PUSH2 0x6D JUMPI PUSH0 DUP1 REVERT JUMPDEST POP PUSH0 SLOAD PUSH1 0x40 MLOAD SWAP1 DUP2 MSTORE PUSH1 0x20 ADD JUMPDEST PUSH1 0x40 MLOAD DUP1 SWAP2 SUB SWAP1 RETURN JUMPDEST CALLVALUE DUP1 ISZERO PUSH2 0x8E JUMPI PUSH0 DUP1 REVERT JUMPDEST POP PUSH2 0xA2 PUSH2 0x9D CALLDATASIZE PUSH1 0x4 PUSH2 0x725 JUMP JUMPDEST PUSH2 0x272 JUMP JUMPDEST PUSH1 0x40 MLOAD PUSH2 0x7A SWAP6 SWAP5 SWAP4 SWAP3 SWAP2 SWAP1 PUSH2 0x76A JUMP JUMPDEST CALLVALUE DUP1 ISZERO PUSH2 0xBE JUMPI PUSH0 DUP1 REVERT JUMPDEST POP PUSH2 0x60 PUSH2 0xCD CALLDATASIZE PUSH1 0x4 PUSH2 0x7B4 JUMP JUMPDEST PUSH2 0x457 JUMP JUMPDEST CALLVALUE DUP1 ISZERO PUSH2 0xDD JUMPI PUSH0 DUP1 REVERT JUMPDEST POP PUSH2 0xF1 PUSH2 0xEC CALLDATASIZE PUSH1 0x4 PUSH2 0x725 JUMP JUMPDEST PUSH2 0x50C JUMP JUMPDEST PUSH1 0x40 MLOAD PUSH1 0x1 PUSH1 0x1 PUSH1 0xA0 SHL SUB SWAP1 SWAP2 AND DUP2 MSTORE PUSH1 0x20 ADD PUSH2 0x7A JUMP JUMPDEST PUSH0 DUP1 SLOAD SWAP1 POP PUSH0 CALLVALUE DUP8 DUP8 DUP8 ADDRESS PUSH1 0x40 MLOAD PUSH2 0x120 SWAP1 PUSH2 0x533 JUMP JUMPDEST PUSH2 0x12D SWAP5 SWAP4 SWAP3 SWAP2 SWAP1 PUSH2 0x84A JUMP JUMPDEST PUSH1 0x40 MLOAD DUP1 SWAP2 SUB SWAP1 DUP3 CREATE SWAP1 POP DUP1 ISZERO DUP1 ISZERO PUSH2 0x148 JUMPI RETURNDATASIZE PUSH0 DUP1 RETURNDATACOPY RETURNDATASIZE PUSH0 REVERT JUMPDEST POP PUSH0 DUP1 SLOAD PUSH1 0x1 DUP1 DUP3 ADD DUP4 SSTORE PUSH32 0x290DECD9548B62A8D60345A988386FC84BA6BC95484008F6362F93160EF3E563 SWAP1 SWAP2 ADD DUP1 SLOAD PUSH1 0x1 PUSH1 0x1 PUSH1 0xA0 SHL SUB NOT AND PUSH1 0x1 PUSH1 0x1 PUSH1 0xA0 SHL SUB DUP6 AND SWAP1 DUP2 OR SWAP1 SWAP2 SSTORE DUP3 MSTORE PUSH1 0x20 DUP2 DUP2 MSTORE PUSH1 0x40 DUP1 DUP5 KECCAK256 DUP1 SLOAD PUSH1 0xFF NOT AND SWAP1 SWAP4 OR SWAP1 SWAP3 SSTORE PUSH1 0x2 SWAP1 MSTORE SWAP1 KECCAK256 SWAP1 SWAP2 POP PUSH2 0x1BE DUP6 DUP3 PUSH2 0x907 JUMP JUMPDEST POP PUSH1 0x1 PUSH1 0x1 PUSH1 0xA0 SHL SUB DUP2 AND PUSH0 SWAP1 DUP2 MSTORE PUSH1 0x3 PUSH1 0x20 MSTORE PUSH1 0x40 SWAP1 KECCAK256 PUSH2 0x1E0 DUP5 DUP3 PUSH2 0x907 JUMP JUMPDEST POP DUP1 PUSH1 0x1 PUSH1 0x1 PUSH1 0xA0 SHL SUB AND DUP3 PUSH32 0x8E7AFA2CFD444B14C15F2C5A27041B913DFE206302B391E01C241CB58ADE0337 CALLER DUP10 DUP10 PUSH1 0x40 MLOAD PUSH2 0x21F SWAP4 SWAP3 SWAP2 SWAP1 PUSH2 0x9C7 JUMP JUMPDEST PUSH1 0x40 MLOAD DUP1 SWAP2 SUB SWAP1 LOG3 DUP5 DUP2 PUSH1 0x1 PUSH1 0x1 PUSH1 0xA0 SHL SUB AND PUSH32 0x767D0ACBA39E4CF96349B168ED9D32211FB4940BE0F3549D31154941785C9B6A DUP9 PUSH1 0x40 MLOAD PUSH2 0x261 SWAP2 SWAP1 PUSH2 0x9FA JUMP JUMPDEST PUSH1 0x40 MLOAD DUP1 SWAP2 SUB SWAP1 LOG3 POP POP POP POP POP POP POP JUMP JUMPDEST PUSH0 DUP1 PUSH0 PUSH1 0x60 DUP1 PUSH0 DUP1 DUP8 DUP2 SLOAD DUP2 LT PUSH2 0x28B JUMPI PUSH2 0x28B PUSH2 0xA13 JUMP JUMPDEST SWAP1 PUSH0 MSTORE PUSH1 0x20 PUSH0 KECCAK256 ADD PUSH0 SWAP1 SLOAD SWAP1 PUSH2 0x100 EXP SWAP1 DIV PUSH1 0x1 PUSH1 0x1 PUSH1 0xA0 SHL SUB AND SWAP1 POP DUP1 DUP2 PUSH1 0x1 PUSH1 0x1 PUSH1 0xA0 SHL SUB AND PUSH4 0xCE757D29 PUSH1 0x40 MLOAD DUP2 PUSH4 0xFFFFFFFF AND PUSH1 0xE0 SHL DUP2 MSTORE PUSH1 0x4 ADD PUSH1 0x20 PUSH1 0x40 MLOAD DUP1 DUP4 SUB DUP2 DUP7 GAS STATICCALL ISZERO DUP1 ISZERO PUSH2 0x2E5 JUMPI RETURNDATASIZE PUSH0 DUP1 RETURNDATACOPY RETURNDATASIZE PUSH0 REVERT JUMPDEST POP POP POP POP PUSH1 0x40 MLOAD RETURNDATASIZE PUSH1 0x1F NOT PUSH1 0x1F DUP3 ADD AND DUP3 ADD DUP1 PUSH1 0x40 MSTORE POP DUP2 ADD SWAP1 PUSH2 0x309 SWAP2 SWAP1 PUSH2 0xA27 JUMP JUMPDEST PUSH1 0x1 PUSH1 0x1 PUSH1 0xA0 SHL SUB DUP4 AND PUSH0 DUP2 DUP2 MSTORE PUSH1 0x2 PUSH1 0x20 SWAP1 DUP2 MSTORE PUSH1 0x40 DUP1 DUP4 KECCAK256 PUSH1 0x3 SWAP1 SWAP3 MSTORE SWAP1 SWAP2 KECCAK256 DUP2 SLOAD SWAP3 BALANCE SWAP3 DUP3 SWAP1 PUSH2 0x33B SWAP1 PUSH2 0x883 JUMP JUMPDEST DUP1 PUSH1 0x1F ADD PUSH1 0x20 DUP1 SWAP2 DIV MUL PUSH1 0x20 ADD PUSH1 0x40 MLOAD SWAP1 DUP2 ADD PUSH1 0x40 MSTORE DUP1 SWAP3 SWAP2 SWAP1 DUP2 DUP2 MSTORE PUSH1 0x20 ADD DUP3 DUP1 SLOAD PUSH2 0x367 SWAP1 PUSH2 0x883 JUMP JUMPDEST DUP1 ISZERO PUSH2 0x3B2 JUMPI DUP1 PUSH1 0x1F LT PUSH2 0x389 JUMPI PUSH2 0x100 DUP1 DUP4 SLOAD DIV MUL DUP4 MSTORE SWAP2 PUSH1 0x20 ADD SWAP2 PUSH2 0x3B2 JUMP JUMPDEST DUP3 ADD SWAP2 SWAP1 PUSH0 MSTORE PUSH1 0x20 PUSH0 KECCAK256 SWAP1 JUMPDEST DUP2 SLOAD DUP2 MSTORE SWAP1 PUSH1 0x1 ADD SWAP1 PUSH1 0x20 ADD DUP1 DUP4 GT PUSH2 0x395 JUMPI DUP3 SWAP1 SUB PUSH1 0x1F AND DUP3 ADD SWAP2 JUMPDEST POP POP POP POP POP SWAP2 POP DUP1 DUP1 SLOAD PUSH2 0x3C5 SWAP1 PUSH2 0x883 JUMP JUMPDEST DUP1 PUSH1 0x1F ADD PUSH1 0x20 DUP1 SWAP2 DIV MUL PUSH1 0x20 ADD PUSH1 0x40 MLOAD SWAP1 DUP2 ADD PUSH1 0x40 MSTORE DUP1 SWAP3 SWAP2 SWAP1 DUP2 DUP2 MSTORE PUSH1 0x20 ADD DUP3 DUP1 SLOAD PUSH2 0x3F1 SWAP1 PUSH2 0x883 JUMP JUMPDEST DUP1 ISZERO PUSH2 0x43C JUMPI DUP1 PUSH1 0x1F LT PUSH2 0x413 JUMPI PUSH2 0x100 DUP1 DUP4 SLOAD DIV MUL DUP4 MSTORE SWAP2 PUSH1 0x20 ADD SWAP2 PUSH2 0x43C JUMP JUMPDEST DUP3 ADD SWAP2 SWAP1 PUSH0 MSTORE PUSH1 0x20 PUSH0 KECCAK256 SWAP1 JUMPDEST DUP2 SLOAD DUP2 MSTORE SWAP1 PUSH1 0x1 ADD SWAP1 PUSH1 0x20 ADD DUP1 DUP4 GT PUSH2 0x41F JUMPI DUP3 SWAP1 SUB PUSH1 0x1F AND DUP3 ADD SWAP2 JUMPDEST POP POP POP POP POP SWAP1 POP SWAP6 POP SWAP6 POP SWAP6 POP SWAP6 POP SWAP6 POP POP SWAP2 SWAP4 SWAP6 SWAP1 SWAP3 SWAP5 POP JUMP JUMPDEST CALLER PUSH0 SWAP1 DUP2 MSTORE PUSH1 0x1 PUSH1 0x20 MSTORE PUSH1 0x40 SWAP1 KECCAK256 SLOAD PUSH1 0xFF AND PUSH2 0x4C5 JUMPI PUSH1 0x40 MLOAD PUSH3 0x461BCD PUSH1 0xE5 SHL DUP2 MSTORE PUSH1 0x20 PUSH1 0x4 DUP3 ADD MSTORE PUSH1 0x23 PUSH1 0x24 DUP3 ADD MSTORE PUSH32 0x63616C6C6572206E6F74207265676973746572656420746F20757365206C6F67 PUSH1 0x44 DUP3 ADD MSTORE PUSH3 0x33B2B9 PUSH1 0xE9 SHL PUSH1 0x64 DUP3 ADD MSTORE PUSH1 0x84 ADD PUSH1 0x40 MLOAD DUP1 SWAP2 SUB SWAP1 REVERT JUMPDEST DUP1 DUP4 PUSH1 0x1 PUSH1 0x1 PUSH1 0xA0 SHL SUB AND PUSH32 0x767D0ACBA39E4CF96349B168ED9D32211FB4940BE0F3549D31154941785C9B6A DUP5 PUSH1 0x40 MLOAD PUSH2 0x4FF SWAP2 SWAP1 PUSH2 0x9FA JUMP JUMPDEST PUSH1 0x40 MLOAD DUP1 SWAP2 SUB SWAP1 LOG3 POP POP POP JUMP JUMPDEST PUSH0 DUP2 DUP2 SLOAD DUP2 LT PUSH2 0x51A JUMPI PUSH0 DUP1 REVERT JUMPDEST PUSH0 SWAP2 DUP3 MSTORE PUSH1 0x20 SWAP1 SWAP2 KECCAK256 ADD SLOAD PUSH1 0x1 PUSH1 0x1 PUSH1 0xA0 SHL SUB AND SWAP1 POP DUP2 JUMP JUMPDEST PUSH2 0x1B42 DUP1 PUSH2 0xA3F DUP4 CODECOPY ADD SWAP1 JUMP JUMPDEST PUSH4 0x4E487B71 PUSH1 0xE0 SHL PUSH0 MSTORE PUSH1 0x41 PUSH1 0x4 MSTORE PUSH1 0x24 PUSH0 REVERT JUMPDEST PUSH1 0x40 MLOAD PUSH1 0x1F DUP3 ADD PUSH1 0x1F NOT AND DUP2 ADD PUSH8 0xFFFFFFFFFFFFFFFF DUP2 GT DUP3 DUP3 LT OR ISZERO PUSH2 0x57D JUMPI PUSH2 0x57D PUSH2 0x540 JUMP JUMPDEST PUSH1 0x40 MSTORE SWAP2 SWAP1 POP JUMP JUMPDEST DUP1 CALLDATALOAD PUSH1 0x1 PUSH1 0x1 PUSH1 0xA0 SHL SUB DUP2 AND DUP2 EQ PUSH2 0x59B JUMPI PUSH0 DUP1 REVERT JUMPDEST SWAP2 SWAP1 POP JUMP JUMPDEST PUSH0 DUP3 PUSH1 0x1F DUP4 ADD SLT PUSH2 0x5AF JUMPI PUSH0 DUP1 REVERT JUMPDEST DUP2 CALLDATALOAD PUSH1 0x20 PUSH8 0xFFFFFFFFFFFFFFFF DUP3 GT ISZERO PUSH2 0x5CB JUMPI PUSH2 0x5CB PUSH2 0x540 JUMP JUMPDEST DUP2 PUSH1 0x5 SHL PUSH2 0x5DA DUP3 DUP3 ADD PUSH2 0x554 JUMP JUMPDEST SWAP3 DUP4 MSTORE DUP5 DUP2 ADD DUP3 ADD SWAP3 DUP3 DUP2 ADD SWAP1 DUP8 DUP6 GT ISZERO PUSH2 0x5F3 JUMPI PUSH0 DUP1 REVERT JUMPDEST DUP4 DUP8 ADD SWAP3 POP JUMPDEST DUP5 DUP4 LT ISZERO PUSH2 0x619 JUMPI PUSH2 0x60A DUP4 PUSH2 0x585 JUMP JUMPDEST DUP3 MSTORE SWAP2 DUP4 ADD SWAP2 SWAP1 DUP4 ADD SWAP1 PUSH2 0x5F9 JUMP JUMPDEST SWAP8 SWAP7 POP POP POP POP POP POP POP JUMP JUMPDEST PUSH0 DUP3 PUSH1 0x1F DUP4 ADD SLT PUSH2 0x633 JUMPI PUSH0 DUP1 REVERT JUMPDEST DUP2 CALLDATALOAD PUSH8 0xFFFFFFFFFFFFFFFF DUP2 GT ISZERO PUSH2 0x64D JUMPI PUSH2 0x64D PUSH2 0x540 JUMP JUMPDEST PUSH2 0x660 PUSH1 0x1F DUP3 ADD PUSH1 0x1F NOT AND PUSH1 0x20 ADD PUSH2 0x554 JUMP JUMPDEST DUP2 DUP2 MSTORE DUP5 PUSH1 0x20 DUP4 DUP7 ADD ADD GT ISZERO PUSH2 0x674 JUMPI PUSH0 DUP1 REVERT JUMPDEST DUP2 PUSH1 0x20 DUP6 ADD PUSH1 0x20 DUP4 ADD CALLDATACOPY PUSH0 SWAP2 DUP2 ADD PUSH1 0x20 ADD SWAP2 SWAP1 SWAP2 MSTORE SWAP4 SWAP3 POP POP POP JUMP JUMPDEST PUSH0 DUP1 PUSH0 DUP1 PUSH0 PUSH1 0xA0 DUP7 DUP9 SUB SLT ISZERO PUSH2 0x6A4 JUMPI PUSH0 DUP1 REVERT JUMPDEST DUP6 CALLDATALOAD SWAP5 POP PUSH1 0x20 DUP7 ADD CALLDATALOAD PUSH8 0xFFFFFFFFFFFFFFFF DUP1 DUP3 GT ISZERO PUSH2 0x6C2 JUMPI PUSH0 DUP1 REVERT JUMPDEST PUSH2 0x6CE DUP10 DUP4 DUP11 ADD PUSH2 0x5A0 JUMP JUMPDEST SWAP6 POP PUSH1 0x40 DUP9 ADD CALLDATALOAD SWAP5 POP PUSH1 0x60 DUP9 ADD CALLDATALOAD SWAP2 POP DUP1 DUP3 GT ISZERO PUSH2 0x6EA JUMPI PUSH0 DUP1 REVERT JUMPDEST PUSH2 0x6F6 DUP10 DUP4 DUP11 ADD PUSH2 0x624 JUMP JUMPDEST SWAP4 POP PUSH1 0x80 DUP9 ADD CALLDATALOAD SWAP2 POP DUP1 DUP3 GT ISZERO PUSH2 0x70B JUMPI PUSH0 DUP1 REVERT JUMPDEST POP PUSH2 0x718 DUP9 DUP3 DUP10 ADD PUSH2 0x624 JUMP JUMPDEST SWAP2 POP POP SWAP3 SWAP6 POP SWAP3 SWAP6 SWAP1 SWAP4 POP JUMP JUMPDEST PUSH0 PUSH1 0x20 DUP3 DUP5 SUB SLT ISZERO PUSH2 0x735 JUMPI PUSH0 DUP1 REVERT JUMPDEST POP CALLDATALOAD SWAP2 SWAP1 POP JUMP JUMPDEST PUSH0 DUP2 MLOAD DUP1 DUP5 MSTORE DUP1 PUSH1 0x20 DUP5 ADD PUSH1 0x20 DUP7 ADD MCOPY PUSH0 PUSH1 0x20 DUP3 DUP7 ADD ADD MSTORE PUSH1 0x20 PUSH1 0x1F NOT PUSH1 0x1F DUP4 ADD AND DUP6 ADD ADD SWAP2 POP POP SWAP3 SWAP2 POP POP JUMP JUMPDEST PUSH1 0x1 DUP1 PUSH1 0xA0 SHL SUB DUP7 AND DUP2 MSTORE DUP5 PUSH1 0x20 DUP3 ADD MSTORE DUP4 PUSH1 0x40 DUP3 ADD MSTORE PUSH1 0xA0 PUSH1 0x60 DUP3 ADD MSTORE PUSH0 PUSH2 0x796 PUSH1 0xA0 DUP4 ADD DUP6 PUSH2 0x73C JUMP JUMPDEST DUP3 DUP2 SUB PUSH1 0x80 DUP5 ADD MSTORE PUSH2 0x7A8 DUP2 DUP6 PUSH2 0x73C JUMP JUMPDEST SWAP9 SWAP8 POP POP POP POP POP POP POP POP JUMP JUMPDEST PUSH0 DUP1 PUSH0 PUSH1 0x60 DUP5 DUP7 SUB SLT ISZERO PUSH2 0x7C6 JUMPI PUSH0 DUP1 REVERT JUMPDEST PUSH2 0x7CF DUP5 PUSH2 0x585 JUMP JUMPDEST SWAP3 POP PUSH1 0x20 DUP5 ADD CALLDATALOAD PUSH8 0xFFFFFFFFFFFFFFFF DUP2 GT ISZERO PUSH2 0x7EA JUMPI PUSH0 DUP1 REVERT JUMPDEST PUSH2 0x7F6 DUP7 DUP3 DUP8 ADD PUSH2 0x5A0 JUMP JUMPDEST SWAP3 POP POP PUSH1 0x40 DUP5 ADD CALLDATALOAD SWAP1 POP SWAP3 POP SWAP3 POP SWAP3 JUMP JUMPDEST PUSH0 DUP2 MLOAD DUP1 DUP5 MSTORE PUSH1 0x20 DUP1 DUP6 ADD SWAP5 POP PUSH1 0x20 DUP5 ADD PUSH0 JUMPDEST DUP4 DUP2 LT ISZERO PUSH2 0x83F JUMPI DUP2 MLOAD PUSH1 0x1 PUSH1 0x1 PUSH1 0xA0 SHL SUB AND DUP8 MSTORE SWAP6 DUP3 ADD SWAP6 SWAP1 DUP3 ADD SWAP1 PUSH1 0x1 ADD PUSH2 0x81A JUMP JUMPDEST POP SWAP5 SWAP6 SWAP5 POP POP POP POP POP JUMP JUMPDEST DUP5 DUP2 MSTORE PUSH1 0x80 PUSH1 0x20 DUP3 ADD MSTORE PUSH0 PUSH2 0x862 PUSH1 0x80 DUP4 ADD DUP7 PUSH2 0x807 JUMP JUMPDEST PUSH1 0x40 DUP4 ADD SWAP5 SWAP1 SWAP5 MSTORE POP PUSH1 0x1 PUSH1 0x1 PUSH1 0xA0 SHL SUB SWAP2 SWAP1 SWAP2 AND PUSH1 0x60 SWAP1 SWAP2 ADD MSTORE SWAP3 SWAP2 POP POP JUMP JUMPDEST PUSH1 0x1 DUP2 DUP2 SHR SWAP1 DUP3 AND DUP1 PUSH2 0x897 JUMPI PUSH1 0x7F DUP3 AND SWAP2 POP JUMPDEST PUSH1 0x20 DUP3 LT DUP2 SUB PUSH2 0x8B5 JUMPI PUSH4 0x4E487B71 PUSH1 0xE0 SHL PUSH0 MSTORE PUSH1 0x22 PUSH1 0x4 MSTORE PUSH1 0x24 PUSH0 REVERT JUMPDEST POP SWAP2 SWAP1 POP JUMP JUMPDEST PUSH1 0x1F DUP3 GT ISZERO PUSH2 0x902 JUMPI DUP1 PUSH0 MSTORE PUSH1 0x20 PUSH0 KECCAK256 PUSH1 0x1F DUP5 ADD PUSH1 0x5 SHR DUP2 ADD PUSH1 0x20 DUP6 LT ISZERO PUSH2 0x8E0 JUMPI POP DUP1 JUMPDEST PUSH1 0x1F DUP5 ADD PUSH1 0x5 SHR DUP3 ADD SWAP2 POP JUMPDEST DUP2 DUP2 LT ISZERO PUSH2 0x8FF JUMPI PUSH0 DUP2 SSTORE PUSH1 0x1 ADD PUSH2 0x8EC JUMP JUMPDEST POP POP JUMPDEST POP POP POP JUMP JUMPDEST DUP2 MLOAD PUSH8 0xFFFFFFFFFFFFFFFF DUP2 GT ISZERO PUSH2 0x921 JUMPI PUSH2 0x921 PUSH2 0x540 JUMP JUMPDEST PUSH2 0x935 DUP2 PUSH2 0x92F DUP5 SLOAD PUSH2 0x883 JUMP JUMPDEST DUP5 PUSH2 0x8BB JUMP JUMPDEST PUSH1 0x20 DUP1 PUSH1 0x1F DUP4 GT PUSH1 0x1 DUP2 EQ PUSH2 0x968 JUMPI PUSH0 DUP5 ISZERO PUSH2 0x951 JUMPI POP DUP6 DUP4 ADD MLOAD JUMPDEST PUSH0 NOT PUSH1 0x3 DUP7 SWAP1 SHL SHR NOT AND PUSH1 0x1 DUP6 SWAP1 SHL OR DUP6 SSTORE PUSH2 0x9BF JUMP JUMPDEST PUSH0 DUP6 DUP2 MSTORE PUSH1 0x20 DUP2 KECCAK256 PUSH1 0x1F NOT DUP7 AND SWAP2 JUMPDEST DUP3 DUP2 LT ISZERO PUSH2 0x996 JUMPI DUP9 DUP7 ADD MLOAD DUP3 SSTORE SWAP5 DUP5 ADD SWAP5 PUSH1 0x1 SWAP1 SWAP2 ADD SWAP1 DUP5 ADD PUSH2 0x977 JUMP JUMPDEST POP DUP6 DUP3 LT ISZERO PUSH2 0x9B3 JUMPI DUP8 DUP6 ADD MLOAD PUSH0 NOT PUSH1 0x3 DUP9 SWAP1 SHL PUSH1 0xF8 AND SHR NOT AND DUP2 SSTORE JUMPDEST POP POP PUSH1 0x1 DUP5 PUSH1 0x1 SHL ADD DUP6 SSTORE JUMPDEST POP POP POP POP POP POP JUMP JUMPDEST PUSH1 0x1 PUSH1 0x1 PUSH1 0xA0 SHL SUB DUP5 AND DUP2 MSTORE PUSH1 0x60 PUSH1 0x20 DUP3 ADD DUP2 SWAP1 MSTORE PUSH0 SWAP1 PUSH2 0x9EA SWAP1 DUP4 ADD DUP6 PUSH2 0x807 JUMP JUMPDEST SWAP1 POP DUP3 PUSH1 0x40 DUP4 ADD MSTORE SWAP5 SWAP4 POP POP POP POP JUMP JUMPDEST PUSH1 0x20 DUP2 MSTORE PUSH0 PUSH2 0xA0C PUSH1 0x20 DUP4 ADD DUP5 PUSH2 0x807 JUMP JUMPDEST SWAP4 SWAP3 POP POP POP JUMP JUMPDEST PUSH4 0x4E487B71 PUSH1 0xE0 SHL PUSH0 MSTORE PUSH1 0x32 PUSH1 0x4 MSTORE PUSH1 0x24 PUSH0 REVERT JUMPDEST PUSH0 PUSH1 0x20 DUP3 DUP5 SUB SLT ISZERO PUSH2 0xA37 JUMPI PUSH0 DUP1 REVERT JUMPDEST POP MLOAD SWAP2 SWAP1 POP JUMP INVALID PUSH1 0x80 PUSH1 0x40 MSTORE PUSH1 0x40 MLOAD PUSH2 0x1B42 CODESIZE SUB DUP1 PUSH2 0x1B42 DUP4 CODECOPY DUP2 ADD PUSH1 0x40 DUP2 SWAP1 MSTORE PUSH2 0x22 SWAP2 PUSH2 0x269 JUMP JUMPDEST DUP2 PUSH0 DUP2 GT PUSH2 0x77 JUMPI PUSH1 0x40 MLOAD PUSH3 0x461BCD PUSH1 0xE5 SHL DUP2 MSTORE PUSH1 0x20 PUSH1 0x4 DUP3 ADD MSTORE PUSH1 0x1E PUSH1 0x24 DUP3 ADD MSTORE PUSH32 0x4D757374206265206E6F6E2D7A65726F20736967732072657175697265640000 PUSH1 0x44 DUP3 ADD MSTORE PUSH1 0x64 ADD JUMPDEST PUSH1 0x40 MLOAD DUP1 SWAP2 SUB SWAP1 REVERT JUMPDEST PUSH0 DUP1 SLOAD PUSH1 0x1 PUSH1 0x1 PUSH1 0xA0 SHL SUB NOT AND PUSH1 0x1 PUSH1 0x1 PUSH1 0xA0 SHL SUB DUP5 AND OR DUP2 SSTORE PUSH1 0x5 DUP5 SWAP1 SSTORE JUMPDEST DUP5 MLOAD DUP2 LT ISZERO PUSH2 0x229 JUMPI PUSH0 DUP6 DUP3 DUP2 MLOAD DUP2 LT PUSH2 0xB3 JUMPI PUSH2 0xB3 PUSH2 0x34F JUMP JUMPDEST PUSH1 0x20 MUL PUSH1 0x20 ADD ADD MLOAD SWAP1 POP PUSH0 PUSH1 0x1 PUSH1 0x1 PUSH1 0xA0 SHL SUB AND DUP2 PUSH1 0x1 PUSH1 0x1 PUSH1 0xA0 SHL SUB AND SUB PUSH2 0x11E JUMPI PUSH1 0x40 MLOAD PUSH3 0x461BCD PUSH1 0xE5 SHL DUP2 MSTORE PUSH1 0x20 PUSH1 0x4 DUP3 ADD MSTORE PUSH1 0x19 PUSH1 0x24 DUP3 ADD MSTORE PUSH32 0x636F6E7374727563746F723A207A65726F206164647265737300000000000000 PUSH1 0x44 DUP3 ADD MSTORE PUSH1 0x64 ADD PUSH2 0x6E JUMP JUMPDEST PUSH1 0x1 PUSH1 0x1 PUSH1 0xA0 SHL SUB DUP2 AND PUSH0 SWAP1 DUP2 MSTORE PUSH1 0x1 PUSH1 0x20 MSTORE PUSH1 0x40 SWAP1 KECCAK256 SLOAD PUSH1 0xFF AND ISZERO PUSH2 0x186 JUMPI PUSH1 0x40 MLOAD PUSH3 0x461BCD PUSH1 0xE5 SHL DUP2 MSTORE PUSH1 0x20 PUSH1 0x4 DUP3 ADD MSTORE PUSH1 0x1D PUSH1 0x24 DUP3 ADD MSTORE PUSH32 0x636F6E7374727563746F723A206F776E6572206E6F7420756E69717565000000 PUSH1 0x44 DUP3 ADD MSTORE PUSH1 0x64 ADD PUSH2 0x6E JUMP JUMPDEST PUSH1 0x1 PUSH1 0x1 PUSH1 0xA0 SHL SUB DUP2 AND PUSH0 DUP2 DUP2 MSTORE PUSH1 0x1 PUSH1 0x20 DUP2 DUP2 MSTORE PUSH1 0x40 SWAP3 DUP4 SWAP1 KECCAK256 DUP1 SLOAD PUSH1 0xFF NOT AND DUP4 OR DUP2 SSTORE PUSH1 0x4 DUP1 SLOAD SWAP4 DUP5 ADD SWAP1 SSTORE PUSH32 0x8A35ACFBC15FF81A39AE7D344FD709F28E8600B4AA8C65C6B64BFE7FE36BD19B SWAP1 SWAP3 ADD DUP1 SLOAD PUSH1 0x1 PUSH1 0x1 PUSH1 0xA0 SHL SUB NOT AND DUP6 OR SWAP1 SSTORE SWAP1 SLOAD SWAP2 MLOAD PUSH1 0xFF SWAP1 SWAP3 AND ISZERO ISZERO DUP3 MSTORE PUSH32 0xFE545F48304051C4029EB2DA9927DAA59DA0414B4B084FDCEAF2955B609B899E SWAP2 ADD PUSH1 0x40 MLOAD DUP1 SWAP2 SUB SWAP1 LOG2 POP PUSH1 0x1 ADD PUSH2 0x97 JUMP JUMPDEST POP POP POP PUSH1 0x7 SWAP3 SWAP1 SWAP3 SSTORE POP PUSH2 0x363 SWAP1 POP JUMP JUMPDEST PUSH4 0x4E487B71 PUSH1 0xE0 SHL PUSH0 MSTORE PUSH1 0x41 PUSH1 0x4 MSTORE PUSH1 0x24 PUSH0 REVERT JUMPDEST DUP1 MLOAD PUSH1 0x1 PUSH1 0x1 PUSH1 0xA0 SHL SUB DUP2 AND DUP2 EQ PUSH2 0x264 JUMPI PUSH0 DUP1 REVERT JUMPDEST SWAP2 SWAP1 POP JUMP JUMPDEST PUSH0 DUP1 PUSH0 DUP1 PUSH1 0x80 DUP6 DUP8 SUB SLT ISZERO PUSH2 0x27C JUMPI PUSH0 DUP1 REVERT JUMPDEST DUP5 MLOAD PUSH1 0x20 DUP1 DUP8 ADD MLOAD SWAP2 SWAP6 POP SWAP1 PUSH1 0x1 PUSH1 0x1 PUSH1 0x40 SHL SUB DUP1 DUP3 GT ISZERO PUSH2 0x29C JUMPI PUSH0 DUP1 REVERT JUMPDEST DUP2 DUP9 ADD SWAP2 POP DUP9 PUSH1 0x1F DUP4 ADD SLT PUSH2 0x2AF JUMPI PUSH0 DUP1 REVERT JUMPDEST DUP2 MLOAD DUP2 DUP2 GT ISZERO PUSH2 0x2C1 JUMPI PUSH2 0x2C1 PUSH2 0x23A JUMP JUMPDEST DUP1 PUSH1 0x5 SHL PUSH1 0x40 MLOAD PUSH1 0x1F NOT PUSH1 0x3F DUP4 ADD AND DUP2 ADD DUP2 DUP2 LT DUP6 DUP3 GT OR ISZERO PUSH2 0x2E6 JUMPI PUSH2 0x2E6 PUSH2 0x23A JUMP JUMPDEST PUSH1 0x40 MSTORE SWAP2 DUP3 MSTORE DUP5 DUP3 ADD SWAP3 POP DUP4 DUP2 ADD DUP6 ADD SWAP2 DUP12 DUP4 GT ISZERO PUSH2 0x303 JUMPI PUSH0 DUP1 REVERT JUMPDEST SWAP4 DUP6 ADD SWAP4 JUMPDEST DUP3 DUP6 LT ISZERO PUSH2 0x328 JUMPI PUSH2 0x319 DUP6 PUSH2 0x24E JUMP JUMPDEST DUP5 MSTORE SWAP4 DUP6 ADD SWAP4 SWAP3 DUP6 ADD SWAP3 PUSH2 0x308 JUMP JUMPDEST DUP1 SWAP9 POP POP POP POP POP POP POP PUSH1 0x40 DUP6 ADD MLOAD SWAP2 POP PUSH2 0x344 PUSH1 0x60 DUP7 ADD PUSH2 0x24E JUMP JUMPDEST SWAP1 POP SWAP3 SWAP6 SWAP2 SWAP5 POP SWAP3 POP JUMP JUMPDEST PUSH4 0x4E487B71 PUSH1 0xE0 SHL PUSH0 MSTORE PUSH1 0x32 PUSH1 0x4 MSTORE PUSH1 0x24 PUSH0 REVERT JUMPDEST PUSH2 0x17D2 DUP1 PUSH2 0x370 PUSH0 CODECOPY PUSH0 RETURN INVALID PUSH1 0x80 PUSH1 0x40 MSTORE PUSH1 0x4 CALLDATASIZE LT PUSH2 0xF2 JUMPI PUSH0 CALLDATALOAD PUSH1 0xE0 SHR DUP1 PUSH4 0x7708072C GT PUSH2 0x87 JUMPI DUP1 PUSH4 0xA157B0AE GT PUSH2 0x57 JUMPI DUP1 PUSH4 0xA157B0AE EQ PUSH2 0x369 JUMPI DUP1 PUSH4 0xAFFED0E0 EQ PUSH2 0x388 JUMPI DUP1 PUSH4 0xCE757D29 EQ PUSH2 0x39D JUMPI DUP1 PUSH4 0xF2B0BB6B EQ PUSH2 0x3B2 JUMPI PUSH0 DUP1 REVERT JUMPDEST DUP1 PUSH4 0x7708072C EQ PUSH2 0x2D2 JUMPI DUP1 PUSH4 0x7C72596E EQ PUSH2 0x2FE JUMPI DUP1 PUSH4 0x95A3AC74 EQ PUSH2 0x335 JUMPI DUP1 PUSH4 0x9A8A0592 EQ PUSH2 0x354 JUMPI PUSH0 DUP1 REVERT JUMPDEST DUP1 PUSH4 0x1F919F77 GT PUSH2 0xC2 JUMPI DUP1 PUSH4 0x1F919F77 EQ PUSH2 0x1EE JUMPI DUP1 PUSH4 0x2F54BF6E EQ PUSH2 0x20F JUMPI DUP1 PUSH4 0x3AAA4771 EQ PUSH2 0x23D JUMPI DUP1 PUSH4 0x627CDCB9 EQ PUSH2 0x2BE JUMPI PUSH0 DUP1 REVERT JUMPDEST DUP1 PUSH4 0x19010F6 EQ PUSH2 0x137 JUMPI DUP1 PUSH4 0x25E7C27 EQ PUSH2 0x169 JUMPI DUP1 PUSH4 0x14C2FA0D EQ PUSH2 0x1A0 JUMPI DUP1 PUSH4 0x19045A25 EQ PUSH2 0x1CF JUMPI PUSH0 DUP1 REVERT JUMPDEST CALLDATASIZE PUSH2 0x133 JUMPI PUSH1 0x40 DUP1 MLOAD CALLVALUE DUP2 MSTORE SELFBALANCE PUSH1 0x20 DUP3 ADD MSTORE CALLER SWAP2 PUSH32 0x90890809C654F11D6E72A28FA60149770A0D11EC6C92319D6CEB2BB0A4EA1A15 SWAP2 ADD PUSH1 0x40 MLOAD DUP1 SWAP2 SUB SWAP1 LOG2 STOP JUMPDEST PUSH0 DUP1 REVERT JUMPDEST CALLVALUE DUP1 ISZERO PUSH2 0x142 JUMPI PUSH0 DUP1 REVERT JUMPDEST POP PUSH2 0x156 PUSH2 0x151 CALLDATASIZE PUSH1 0x4 PUSH2 0x10FA JUMP JUMPDEST PUSH2 0x3D1 JUMP JUMPDEST PUSH1 0x40 MLOAD SWAP1 DUP2 MSTORE PUSH1 0x20 ADD JUMPDEST PUSH1 0x40 MLOAD DUP1 SWAP2 SUB SWAP1 RETURN JUMPDEST CALLVALUE DUP1 ISZERO PUSH2 0x174 JUMPI PUSH0 DUP1 REVERT JUMPDEST POP PUSH2 0x188 PUSH2 0x183 CALLDATASIZE PUSH1 0x4 PUSH2 0x10FA JUMP JUMPDEST PUSH2 0x406 JUMP JUMPDEST PUSH1 0x40 MLOAD PUSH1 0x1 PUSH1 0x1 PUSH1 0xA0 SHL SUB SWAP1 SWAP2 AND DUP2 MSTORE PUSH1 0x20 ADD PUSH2 0x160 JUMP JUMPDEST CALLVALUE DUP1 ISZERO PUSH2 0x1AB JUMPI PUSH0 DUP1 REVERT JUMPDEST POP PUSH2 0x1BF PUSH2 0x1BA CALLDATASIZE PUSH1 0x4 PUSH2 0x11C5 JUMP JUMPDEST PUSH2 0x42E JUMP JUMPDEST PUSH1 0x40 MLOAD SWAP1 ISZERO ISZERO DUP2 MSTORE PUSH1 0x20 ADD PUSH2 0x160 JUMP JUMPDEST CALLVALUE DUP1 ISZERO PUSH2 0x1DA JUMPI PUSH0 DUP1 REVERT JUMPDEST POP PUSH2 0x188 PUSH2 0x1E9 CALLDATASIZE PUSH1 0x4 PUSH2 0x1263 JUMP JUMPDEST PUSH2 0x6A7 JUMP JUMPDEST CALLVALUE DUP1 ISZERO PUSH2 0x1F9 JUMPI PUSH0 DUP1 REVERT JUMPDEST POP PUSH2 0x20D PUSH2 0x208 CALLDATASIZE PUSH1 0x4 PUSH2 0x12A7 JUMP JUMPDEST PUSH2 0x6BB JUMP JUMPDEST STOP JUMPDEST CALLVALUE DUP1 ISZERO PUSH2 0x21A JUMPI PUSH0 DUP1 REVERT JUMPDEST POP PUSH2 0x1BF PUSH2 0x229 CALLDATASIZE PUSH1 0x4 PUSH2 0x12E5 JUMP JUMPDEST PUSH1 0x1 PUSH1 0x20 MSTORE PUSH0 SWAP1 DUP2 MSTORE PUSH1 0x40 SWAP1 KECCAK256 SLOAD PUSH1 0xFF AND DUP2 JUMP JUMPDEST CALLVALUE DUP1 ISZERO PUSH2 0x248 JUMPI PUSH0 DUP1 REVERT JUMPDEST POP PUSH2 0x156 PUSH2 0x257 CALLDATASIZE PUSH1 0x4 PUSH2 0x1307 JUMP JUMPDEST PUSH1 0x7 SLOAD PUSH1 0x40 MLOAD PUSH12 0xFFFFFFFFFFFFFFFFFFFFFFFF NOT ADDRESS PUSH1 0x60 SWAP1 DUP2 SHL DUP3 AND PUSH1 0x20 DUP5 ADD MSTORE PUSH1 0x34 DUP4 ADD SWAP4 SWAP1 SWAP4 MSTORE PUSH1 0x54 DUP3 ADD DUP7 SWAP1 MSTORE SWAP2 DUP5 SWAP1 SHL SWAP1 SWAP2 AND PUSH1 0x74 DUP3 ADD MSTORE PUSH1 0x88 DUP2 ADD DUP3 SWAP1 MSTORE PUSH0 SWAP1 PUSH1 0xA8 ADD PUSH1 0x40 MLOAD PUSH1 0x20 DUP2 DUP4 SUB SUB DUP2 MSTORE SWAP1 PUSH1 0x40 MSTORE DUP1 MLOAD SWAP1 PUSH1 0x20 ADD KECCAK256 SWAP1 POP SWAP4 SWAP3 POP POP POP JUMP JUMPDEST CALLVALUE DUP1 ISZERO PUSH2 0x2C9 JUMPI PUSH0 DUP1 REVERT JUMPDEST POP PUSH2 0x156 PUSH2 0x83C JUMP JUMPDEST CALLVALUE DUP1 ISZERO PUSH2 0x2DD JUMPI PUSH0 DUP1 REVERT JUMPDEST POP PUSH2 0x2F1 PUSH2 0x2EC CALLDATASIZE PUSH1 0x4 PUSH2 0x10FA JUMP JUMPDEST PUSH2 0x886 JUMP JUMPDEST PUSH1 0x40 MLOAD PUSH2 0x160 SWAP2 SWAP1 PUSH2 0x1359 JUMP JUMPDEST CALLVALUE DUP1 ISZERO PUSH2 0x309 JUMPI PUSH0 DUP1 REVERT JUMPDEST POP PUSH2 0x156 PUSH2 0x318 CALLDATASIZE PUSH1 0x4 PUSH2 0x136B JUMP JUMPDEST DUP1 MLOAD PUSH1 0x20 DUP2 DUP4 ADD DUP2 ADD DUP1 MLOAD PUSH1 0x2 DUP3 MSTORE SWAP3 DUP3 ADD SWAP2 SWAP1 SWAP4 ADD KECCAK256 SWAP2 MSTORE SLOAD DUP2 JUMP JUMPDEST CALLVALUE DUP1 ISZERO PUSH2 0x340 JUMPI PUSH0 DUP1 REVERT JUMPDEST POP PUSH2 0x20D PUSH2 0x34F CALLDATASIZE PUSH1 0x4 PUSH2 0x12A7 JUMP JUMPDEST PUSH2 0x91D JUMP JUMPDEST CALLVALUE DUP1 ISZERO PUSH2 0x35F JUMPI PUSH0 DUP1 REVERT JUMPDEST POP PUSH2 0x156 PUSH1 0x7 SLOAD DUP2 JUMP JUMPDEST CALLVALUE DUP1 ISZERO PUSH2 0x374 JUMPI PUSH0 DUP1 REVERT JUMPDEST POP PUSH2 0x2F1 PUSH2 0x383 CALLDATASIZE PUSH1 0x4 PUSH2 0x13A5 JUMP JUMPDEST PUSH2 0xAC3 JUMP JUMPDEST CALLVALUE DUP1 ISZERO PUSH2 0x393 JUMPI PUSH0 DUP1 REVERT JUMPDEST POP PUSH2 0x156 PUSH1 0x6 SLOAD DUP2 JUMP JUMPDEST CALLVALUE DUP1 ISZERO PUSH2 0x3A8 JUMPI PUSH0 DUP1 REVERT JUMPDEST POP PUSH2 0x156 PUSH1 0x5 SLOAD DUP2 JUMP JUMPDEST CALLVALUE DUP1 ISZERO PUSH2 0x3BD JUMPI PUSH0 DUP1 REVERT JUMPDEST POP PUSH2 0x188 PUSH2 0x3CC CALLDATASIZE PUSH1 0x4 PUSH2 0x140B JUMP JUMPDEST PUSH2 0xB3B JUMP JUMPDEST PUSH1 0x6 SLOAD PUSH0 SWAP1 DUP2 MSTORE PUSH1 0x3 PUSH1 0x20 MSTORE PUSH1 0x40 DUP1 DUP3 KECCAK256 SWAP1 MLOAD PUSH1 0x2 SWAP2 PUSH2 0x3F0 SWAP2 PUSH2 0x1499 JUMP JUMPDEST SWAP1 DUP2 MSTORE PUSH1 0x20 ADD PUSH1 0x40 MLOAD DUP1 SWAP2 SUB SWAP1 KECCAK256 SLOAD SWAP1 POP SWAP2 SWAP1 POP JUMP JUMPDEST PUSH1 0x4 DUP2 DUP2 SLOAD DUP2 LT PUSH2 0x415 JUMPI PUSH0 DUP1 REVERT JUMPDEST PUSH0 SWAP2 DUP3 MSTORE PUSH1 0x20 SWAP1 SWAP2 KECCAK256 ADD SLOAD PUSH1 0x1 PUSH1 0x1 PUSH1 0xA0 SHL SUB AND SWAP1 POP DUP2 JUMP JUMPDEST CALLER PUSH0 SWAP1 DUP2 MSTORE PUSH1 0x1 PUSH1 0x20 MSTORE PUSH1 0x40 DUP2 KECCAK256 SLOAD PUSH1 0xFF AND PUSH2 0x465 JUMPI PUSH1 0x40 MLOAD PUSH3 0x461BCD PUSH1 0xE5 SHL DUP2 MSTORE PUSH1 0x4 ADD PUSH2 0x45C SWAP1 PUSH2 0x150B JUMP JUMPDEST PUSH1 0x40 MLOAD DUP1 SWAP2 SUB SWAP1 REVERT JUMPDEST PUSH0 PUSH2 0x46F DUP5 PUSH2 0xB67 JUMP JUMPDEST SWAP1 POP PUSH0 DUP1 PUSH0 PUSH2 0x47E DUP8 DUP10 PUSH2 0xB3B JUMP JUMPDEST SWAP1 POP DUP3 PUSH1 0x1 PUSH1 0x1 PUSH1 0xA0 SHL SUB AND DUP2 PUSH1 0x1 PUSH1 0x1 PUSH1 0xA0 SHL SUB AND GT PUSH2 0x4FF JUMPI PUSH1 0x40 MLOAD PUSH3 0x461BCD PUSH1 0xE5 SHL DUP2 MSTORE PUSH1 0x20 PUSH1 0x4 DUP3 ADD MSTORE PUSH1 0x35 PUSH1 0x24 DUP3 ADD MSTORE PUSH32 0x657865637574655472616E73616374696F6E3A206475706C6963617465206F72 PUSH1 0x44 DUP3 ADD MSTORE PUSH21 0x20756E6F726465726564207369676E617475726573 PUSH1 0x58 SHL PUSH1 0x64 DUP3 ADD MSTORE PUSH1 0x84 ADD PUSH2 0x45C JUMP JUMPDEST PUSH1 0x1 PUSH1 0x1 PUSH1 0xA0 SHL SUB DUP2 AND PUSH0 SWAP1 DUP2 MSTORE PUSH1 0x1 PUSH1 0x20 MSTORE PUSH1 0x40 DUP2 KECCAK256 SLOAD SWAP2 SWAP4 POP DUP4 SWAP2 PUSH1 0xFF AND ISZERO PUSH2 0x574 JUMPI DUP3 PUSH2 0x52E DUP2 PUSH2 0x1542 JUMP JUMPDEST SWAP4 POP POP DUP3 PUSH1 0x2 DUP9 PUSH1 0x40 MLOAD PUSH2 0x542 SWAP2 SWAP1 PUSH2 0x155A JUMP JUMPDEST SWAP1 DUP2 MSTORE PUSH1 0x40 DUP1 MLOAD PUSH1 0x20 SWAP3 DUP2 SWAP1 SUB DUP4 ADD SWAP1 KECCAK256 SWAP3 SWAP1 SWAP3 SSTORE PUSH1 0x6 SLOAD PUSH0 SWAP1 DUP2 MSTORE PUSH1 0x3 SWAP1 SWAP2 MSTORE KECCAK256 PUSH2 0x56E DUP9 DUP3 PUSH2 0x15B9 JUMP JUMPDEST POP PUSH1 0x1 SWAP1 POP JUMPDEST PUSH1 0x5 SLOAD DUP4 LT ISZERO PUSH2 0x5DE JUMPI PUSH1 0x40 MLOAD PUSH3 0x461BCD PUSH1 0xE5 SHL DUP2 MSTORE PUSH1 0x20 PUSH1 0x4 DUP3 ADD MSTORE PUSH1 0x2F PUSH1 0x24 DUP3 ADD MSTORE PUSH32 0x657865637574655472616E73616374696F6E3A206E6F7420656E6F7567682076 PUSH1 0x44 DUP3 ADD MSTORE PUSH15 0x616C6964207369676E617475726573 PUSH1 0x88 SHL PUSH1 0x64 DUP3 ADD MSTORE PUSH1 0x84 ADD PUSH2 0x45C JUMP JUMPDEST DUP1 PUSH2 0x62B JUMPI PUSH1 0x40 MLOAD PUSH3 0x461BCD PUSH1 0xE5 SHL DUP2 MSTORE PUSH1 0x20 PUSH1 0x4 DUP3 ADD MSTORE PUSH1 0x1D PUSH1 0x24 DUP3 ADD MSTORE PUSH32 0x657865637574655472616E73616374696F6E3A207478206661696C6564000000 PUSH1 0x44 DUP3 ADD MSTORE PUSH1 0x64 ADD PUSH2 0x45C JUMP JUMPDEST CALLER PUSH1 0x1 PUSH1 0x1 PUSH1 0xA0 SHL SUB AND PUSH32 0x1981A0759C7F7295B44CCBD200535E8A29744B41F8DA48B42A35B8B4B8B04B6 DUP13 DUP13 PUSH1 0x1 PUSH1 0x6 SLOAD PUSH2 0x667 SWAP2 SWAP1 PUSH2 0x1679 JUMP JUMPDEST PUSH1 0x40 DUP1 MLOAD PUSH1 0x1 PUSH1 0x1 PUSH1 0xA0 SHL SUB SWAP1 SWAP5 AND DUP5 MSTORE PUSH1 0x20 DUP5 ADD SWAP3 SWAP1 SWAP3 MSTORE SWAP1 DUP3 ADD MSTORE PUSH1 0x60 DUP2 ADD DUP9 SWAP1 MSTORE PUSH1 0x80 ADD PUSH1 0x40 MLOAD DUP1 SWAP2 SUB SWAP1 LOG2 POP PUSH1 0x1 SWAP11 SWAP10 POP POP POP POP POP POP POP POP POP POP JUMP JUMPDEST PUSH0 PUSH2 0x6B2 DUP4 DUP4 PUSH2 0xB96 JUMP JUMPDEST SWAP1 POP JUMPDEST SWAP3 SWAP2 POP POP JUMP JUMPDEST DUP3 CALLER PUSH1 0x1 PUSH1 0x1 PUSH1 0xA0 SHL SUB DUP3 AND EQ PUSH2 0x6E4 JUMPI PUSH1 0x40 MLOAD PUSH3 0x461BCD PUSH1 0xE5 SHL DUP2 MSTORE PUSH1 0x4 ADD PUSH2 0x45C SWAP1 PUSH2 0x168C JUMP JUMPDEST DUP2 PUSH0 DUP2 GT PUSH2 0x704 JUMPI PUSH1 0x40 MLOAD PUSH3 0x461BCD PUSH1 0xE5 SHL DUP2 MSTORE PUSH1 0x4 ADD PUSH2 0x45C SWAP1 PUSH2 0x16AE JUMP JUMPDEST PUSH1 0x1 PUSH1 0x1 PUSH1 0xA0 SHL SUB DUP5 AND PUSH0 SWAP1 DUP2 MSTORE PUSH1 0x1 PUSH1 0x20 MSTORE PUSH1 0x40 SWAP1 KECCAK256 SLOAD PUSH1 0xFF AND PUSH2 0x76B JUMPI PUSH1 0x40 MLOAD PUSH3 0x461BCD PUSH1 0xE5 SHL DUP2 MSTORE PUSH1 0x20 PUSH1 0x4 DUP3 ADD MSTORE PUSH1 0x17 PUSH1 0x24 DUP3 ADD MSTORE PUSH32 0x72656D6F76655369676E65723A206E6F74206F776E6572000000000000000000 PUSH1 0x44 DUP3 ADD MSTORE PUSH1 0x64 ADD PUSH2 0x45C JUMP JUMPDEST PUSH2 0x774 DUP5 PUSH2 0xBBE JUMP JUMPDEST PUSH1 0x5 DUP4 SWAP1 SSTORE PUSH2 0x783 DUP6 DUP5 PUSH2 0xDB7 JUMP JUMPDEST PUSH1 0x1 PUSH1 0x1 PUSH1 0xA0 SHL SUB DUP5 AND PUSH0 DUP2 DUP2 MSTORE PUSH1 0x1 PUSH1 0x20 SWAP1 DUP2 MSTORE PUSH1 0x40 SWAP2 DUP3 SWAP1 KECCAK256 SLOAD SWAP2 MLOAD PUSH1 0xFF SWAP1 SWAP3 AND ISZERO ISZERO DUP3 MSTORE PUSH32 0xFE545F48304051C4029EB2DA9927DAA59DA0414B4B084FDCEAF2955B609B899E SWAP2 ADD PUSH1 0x40 MLOAD DUP1 SWAP2 SUB SWAP1 LOG2 PUSH0 SLOAD PUSH1 0x40 MLOAD PUSH4 0x2FB7D0A5 PUSH1 0xE2 SHL DUP2 MSTORE PUSH1 0x1 PUSH1 0x1 PUSH1 0xA0 SHL SUB SWAP1 SWAP2 AND SWAP1 PUSH4 0xBEDF4294 SWAP1 PUSH2 0x808 SWAP1 ADDRESS SWAP1 PUSH1 0x4 SWAP1 DUP9 SWAP1 DUP3 ADD PUSH2 0x16E5 JUMP JUMPDEST PUSH0 PUSH1 0x40 MLOAD DUP1 DUP4 SUB DUP2 PUSH0 DUP8 DUP1 EXTCODESIZE ISZERO DUP1 ISZERO PUSH2 0x81F JUMPI PUSH0 DUP1 REVERT JUMPDEST POP GAS CALL ISZERO DUP1 ISZERO PUSH2 0x831 JUMPI RETURNDATASIZE PUSH0 DUP1 RETURNDATACOPY RETURNDATASIZE PUSH0 REVERT JUMPDEST POP POP POP POP POP POP POP POP POP JUMP JUMPDEST CALLER PUSH0 SWAP1 DUP2 MSTORE PUSH1 0x1 PUSH1 0x20 MSTORE PUSH1 0x40 DUP2 KECCAK256 SLOAD PUSH1 0xFF AND PUSH2 0x86A JUMPI PUSH1 0x40 MLOAD PUSH3 0x461BCD PUSH1 0xE5 SHL DUP2 MSTORE PUSH1 0x4 ADD PUSH2 0x45C SWAP1 PUSH2 0x150B JUMP JUMPDEST PUSH1 0x6 DUP1 SLOAD SWAP1 PUSH0 PUSH2 0x879 DUP4 PUSH2 0x1542 JUMP JUMPDEST SWAP2 SWAP1 POP SSTORE POP PUSH1 0x6 SLOAD SWAP1 POP SWAP1 JUMP JUMPDEST PUSH1 0x3 PUSH1 0x20 MSTORE PUSH0 SWAP1 DUP2 MSTORE PUSH1 0x40 SWAP1 KECCAK256 DUP1 SLOAD PUSH2 0x89E SWAP1 PUSH2 0x1461 JUMP JUMPDEST DUP1 PUSH1 0x1F ADD PUSH1 0x20 DUP1 SWAP2 DIV MUL PUSH1 0x20 ADD PUSH1 0x40 MLOAD SWAP1 DUP2 ADD PUSH1 0x40 MSTORE DUP1 SWAP3 SWAP2 SWAP1 DUP2 DUP2 MSTORE PUSH1 0x20 ADD DUP3 DUP1 SLOAD PUSH2 0x8CA SWAP1 PUSH2 0x1461 JUMP JUMPDEST DUP1 ISZERO PUSH2 0x915 JUMPI DUP1 PUSH1 0x1F LT PUSH2 0x8EC JUMPI PUSH2 0x100 DUP1 DUP4 SLOAD DIV MUL DUP4 MSTORE SWAP2 PUSH1 0x20 ADD SWAP2 PUSH2 0x915 JUMP JUMPDEST DUP3 ADD SWAP2 SWAP1 PUSH0 MSTORE PUSH1 0x20 PUSH0 KECCAK256 SWAP1 JUMPDEST DUP2 SLOAD DUP2 MSTORE SWAP1 PUSH1 0x1 ADD SWAP1 PUSH1 0x20 ADD DUP1 DUP4 GT PUSH2 0x8F8 JUMPI DUP3 SWAP1 SUB PUSH1 0x1F AND DUP3 ADD SWAP2 JUMPDEST POP POP POP POP POP DUP2 JUMP JUMPDEST DUP3 CALLER PUSH1 0x1 PUSH1 0x1 PUSH1 0xA0 SHL SUB DUP3 AND EQ PUSH2 0x946 JUMPI PUSH1 0x40 MLOAD PUSH3 0x461BCD PUSH1 0xE5 SHL DUP2 MSTORE PUSH1 0x4 ADD PUSH2 0x45C SWAP1 PUSH2 0x168C JUMP JUMPDEST CALLER PUSH0 SWAP1 DUP2 MSTORE PUSH1 0x1 PUSH1 0x20 MSTORE PUSH1 0x40 SWAP1 KECCAK256 SLOAD PUSH1 0xFF AND PUSH2 0x974 JUMPI PUSH1 0x40 MLOAD PUSH3 0x461BCD PUSH1 0xE5 SHL DUP2 MSTORE PUSH1 0x4 ADD PUSH2 0x45C SWAP1 PUSH2 0x150B JUMP JUMPDEST DUP2 PUSH0 DUP2 GT PUSH2 0x994 JUMPI PUSH1 0x40 MLOAD PUSH3 0x461BCD PUSH1 0xE5 SHL DUP2 MSTORE PUSH1 0x4 ADD PUSH2 0x45C SWAP1 PUSH2 0x16AE JUMP JUMPDEST PUSH1 0x1 PUSH1 0x1 PUSH1 0xA0 SHL SUB DUP5 AND PUSH2 0x9EA JUMPI PUSH1 0x40 MLOAD PUSH3 0x461BCD PUSH1 0xE5 SHL DUP2 MSTORE PUSH1 0x20 PUSH1 0x4 DUP3 ADD MSTORE PUSH1 0x17 PUSH1 0x24 DUP3 ADD MSTORE PUSH32 0x6164645369676E65723A207A65726F2061646472657373000000000000000000 PUSH1 0x44 DUP3 ADD MSTORE PUSH1 0x64 ADD PUSH2 0x45C JUMP JUMPDEST PUSH1 0x1 PUSH1 0x1 PUSH1 0xA0 SHL SUB DUP5 AND PUSH0 SWAP1 DUP2 MSTORE PUSH1 0x1 PUSH1 0x20 MSTORE PUSH1 0x40 SWAP1 KECCAK256 SLOAD PUSH1 0xFF AND ISZERO PUSH2 0xA52 JUMPI PUSH1 0x40 MLOAD PUSH3 0x461BCD PUSH1 0xE5 SHL DUP2 MSTORE PUSH1 0x20 PUSH1 0x4 DUP3 ADD MSTORE PUSH1 0x1B PUSH1 0x24 DUP3 ADD MSTORE PUSH32 0x6164645369676E65723A206F776E6572206E6F7420756E697175650000000000 PUSH1 0x44 DUP3 ADD MSTORE PUSH1 0x64 ADD PUSH2 0x45C JUMP JUMPDEST PUSH1 0x1 PUSH1 0x1 PUSH1 0xA0 SHL SUB DUP5 AND PUSH0 DUP2 DUP2 MSTORE PUSH1 0x1 PUSH1 0x20 DUP2 SWAP1 MSTORE PUSH1 0x40 DUP3 KECCAK256 DUP1 SLOAD PUSH1 0xFF NOT AND DUP3 OR SWAP1 SSTORE PUSH1 0x4 DUP1 SLOAD SWAP2 DUP3 ADD DUP2 SSTORE SWAP1 SWAP2 MSTORE PUSH32 0x8A35ACFBC15FF81A39AE7D344FD709F28E8600B4AA8C65C6B64BFE7FE36BD19B ADD DUP1 SLOAD PUSH1 0x1 PUSH1 0x1 PUSH1 0xA0 SHL SUB NOT AND SWAP1 SWAP2 OR SWAP1 SSTORE PUSH1 0x5 DUP4 SWAP1 SSTORE PUSH2 0x783 DUP6 DUP5 PUSH2 0xDB7 JUMP JUMPDEST PUSH1 0x40 MLOAD PUSH1 0x1 PUSH1 0x1 PUSH1 0xA0 SHL SUB DUP1 DUP6 AND PUSH1 0x24 DUP4 ADD MSTORE DUP4 AND PUSH1 0x44 DUP3 ADD MSTORE PUSH1 0x64 DUP2 ADD DUP3 SWAP1 MSTORE PUSH1 0x60 SWAP1 DUP6 SWAP1 PUSH1 0x84 ADD PUSH1 0x40 DUP1 MLOAD PUSH1 0x1F NOT DUP2 DUP5 SUB ADD DUP2 MSTORE SWAP1 DUP3 SWAP1 MSTORE SWAP2 PUSH2 0xB07 SWAP2 PUSH2 0x155A JUMP JUMPDEST PUSH1 0x40 MLOAD SWAP1 DUP2 SWAP1 SUB SWAP1 KECCAK256 PUSH1 0x20 DUP3 ADD DUP1 MLOAD PUSH1 0x1 PUSH1 0x1 PUSH1 0xE0 SHL SUB AND PUSH1 0x1 PUSH1 0x1 PUSH1 0xE0 SHL SUB NOT SWAP1 SWAP3 AND SWAP2 SWAP1 SWAP2 OR SWAP1 MSTORE SWAP1 POP SWAP5 SWAP4 POP POP POP POP JUMP JUMPDEST PUSH0 DUP1 PUSH2 0xB46 DUP5 PUSH2 0xB67 JUMP JUMPDEST SWAP1 POP PUSH0 PUSH2 0xB52 DUP3 PUSH2 0xE08 JUMP JUMPDEST SWAP1 POP PUSH2 0xB5E DUP2 DUP6 PUSH2 0xE42 JUMP JUMPDEST SWAP6 SWAP5 POP POP POP POP POP JUMP JUMPDEST PUSH0 DUP2 PUSH1 0x40 MLOAD PUSH1 0x20 ADD PUSH2 0xB79 SWAP2 SWAP1 PUSH2 0x155A JUMP JUMPDEST PUSH1 0x40 MLOAD PUSH1 0x20 DUP2 DUP4 SUB SUB DUP2 MSTORE SWAP1 PUSH1 0x40 MSTORE DUP1 MLOAD SWAP1 PUSH1 0x20 ADD KECCAK256 SWAP1 POP SWAP2 SWAP1 POP JUMP JUMPDEST PUSH0 DUP1 PUSH0 DUP1 PUSH2 0xBA4 DUP7 DUP7 PUSH2 0xEBC JUMP JUMPDEST SWAP3 POP SWAP3 POP SWAP3 POP PUSH2 0xBB4 DUP3 DUP3 PUSH2 0xF05 JUMP JUMPDEST POP SWAP1 SWAP5 SWAP4 POP POP POP POP JUMP JUMPDEST PUSH1 0x1 PUSH1 0x1 PUSH1 0xA0 SHL SUB DUP2 AND PUSH0 SWAP1 DUP2 MSTORE PUSH1 0x1 PUSH1 0x20 MSTORE PUSH1 0x40 DUP2 KECCAK256 DUP1 SLOAD PUSH1 0xFF NOT AND SWAP1 SSTORE PUSH1 0x4 SLOAD SWAP1 DUP2 PUSH8 0xFFFFFFFFFFFFFFFF DUP2 GT ISZERO PUSH2 0xBFA JUMPI PUSH2 0xBFA PUSH2 0x1128 JUMP JUMPDEST PUSH1 0x40 MLOAD SWAP1 DUP1 DUP3 MSTORE DUP1 PUSH1 0x20 MUL PUSH1 0x20 ADD DUP3 ADD PUSH1 0x40 MSTORE DUP1 ISZERO PUSH2 0xC23 JUMPI DUP2 PUSH1 0x20 ADD PUSH1 0x20 DUP3 MUL DUP1 CALLDATASIZE DUP4 CALLDATACOPY ADD SWAP1 POP JUMPDEST POP SWAP1 POP PUSH0 PUSH2 0xC32 PUSH1 0x1 DUP5 PUSH2 0x1679 JUMP JUMPDEST SWAP1 POP JUMPDEST DUP4 PUSH1 0x1 PUSH1 0x1 PUSH1 0xA0 SHL SUB AND PUSH1 0x4 DUP3 DUP2 SLOAD DUP2 LT PUSH2 0xC52 JUMPI PUSH2 0xC52 PUSH2 0x174B JUMP JUMPDEST PUSH0 SWAP2 DUP3 MSTORE PUSH1 0x20 SWAP1 SWAP2 KECCAK256 ADD SLOAD PUSH1 0x1 PUSH1 0x1 PUSH1 0xA0 SHL SUB AND EQ PUSH2 0xD01 JUMPI PUSH1 0x4 DUP2 DUP2 SLOAD DUP2 LT PUSH2 0xC7E JUMPI PUSH2 0xC7E PUSH2 0x174B JUMP JUMPDEST SWAP1 PUSH0 MSTORE PUSH1 0x20 PUSH0 KECCAK256 ADD PUSH0 SWAP1 SLOAD SWAP1 PUSH2 0x100 EXP SWAP1 DIV PUSH1 0x1 PUSH1 0x1 PUSH1 0xA0 SHL SUB AND DUP3 DUP3 DUP2 MLOAD DUP2 LT PUSH2 0xCAB JUMPI PUSH2 0xCAB PUSH2 0x174B JUMP JUMPDEST PUSH1 0x20 MUL PUSH1 0x20 ADD ADD SWAP1 PUSH1 0x1 PUSH1 0x1 PUSH1 0xA0 SHL SUB AND SWAP1 DUP2 PUSH1 0x1 PUSH1 0x1 PUSH1 0xA0 SHL SUB AND DUP2 MSTORE POP POP PUSH1 0x4 DUP1 SLOAD DUP1 PUSH2 0xCDC JUMPI PUSH2 0xCDC PUSH2 0x175F JUMP JUMPDEST PUSH0 DUP3 DUP2 MSTORE PUSH1 0x20 SWAP1 KECCAK256 DUP2 ADD PUSH0 NOT SWAP1 DUP2 ADD DUP1 SLOAD PUSH1 0x1 PUSH1 0x1 PUSH1 0xA0 SHL SUB NOT AND SWAP1 SSTORE ADD SWAP1 SSTORE PUSH2 0xDA5 JUMP JUMPDEST PUSH1 0x4 DUP1 SLOAD DUP1 PUSH2 0xD12 JUMPI PUSH2 0xD12 PUSH2 0x175F JUMP JUMPDEST PUSH0 DUP3 DUP2 MSTORE PUSH1 0x20 SWAP1 KECCAK256 DUP2 ADD PUSH0 NOT SWAP1 DUP2 ADD DUP1 SLOAD PUSH1 0x1 PUSH1 0x1 PUSH1 0xA0 SHL SUB NOT AND SWAP1 SSTORE ADD SWAP1 SSTORE DUP1 JUMPDEST PUSH2 0xD3F PUSH1 0x1 DUP6 PUSH2 0x1679 JUMP JUMPDEST DUP2 LT ISZERO PUSH2 0xD9E JUMPI PUSH1 0x4 DUP4 DUP3 DUP2 MLOAD DUP2 LT PUSH2 0xD5A JUMPI PUSH2 0xD5A PUSH2 0x174B JUMP JUMPDEST PUSH1 0x20 SWAP1 DUP2 MUL SWAP2 SWAP1 SWAP2 ADD DUP2 ADD MLOAD DUP3 SLOAD PUSH1 0x1 DUP1 DUP3 ADD DUP6 SSTORE PUSH0 SWAP5 DUP6 MSTORE SWAP3 SWAP1 SWAP4 KECCAK256 SWAP1 SWAP3 ADD DUP1 SLOAD PUSH1 0x1 PUSH1 0x1 PUSH1 0xA0 SHL SUB NOT AND PUSH1 0x1 PUSH1 0x1 PUSH1 0xA0 SHL SUB SWAP1 SWAP4 AND SWAP3 SWAP1 SWAP3 OR SWAP1 SWAP2 SSTORE ADD PUSH2 0xD34 JUMP JUMPDEST POP POP POP POP POP JUMP JUMPDEST DUP1 PUSH2 0xDAF DUP2 PUSH2 0x1773 JUMP JUMPDEST SWAP2 POP POP PUSH2 0xC35 JUMP JUMPDEST DUP2 CALLER PUSH1 0x1 PUSH1 0x1 PUSH1 0xA0 SHL SUB DUP3 AND EQ PUSH2 0xDE0 JUMPI PUSH1 0x40 MLOAD PUSH3 0x461BCD PUSH1 0xE5 SHL DUP2 MSTORE PUSH1 0x4 ADD PUSH2 0x45C SWAP1 PUSH2 0x168C JUMP JUMPDEST DUP2 PUSH0 DUP2 GT PUSH2 0xE00 JUMPI PUSH1 0x40 MLOAD PUSH3 0x461BCD PUSH1 0xE5 SHL DUP2 MSTORE PUSH1 0x4 ADD PUSH2 0x45C SWAP1 PUSH2 0x16AE JUMP JUMPDEST POP POP PUSH1 0x5 SSTORE POP JUMP JUMPDEST PUSH1 0x40 MLOAD PUSH32 0x19457468657265756D205369676E6564204D6573736167653A0A333200000000 PUSH1 0x20 DUP3 ADD MSTORE PUSH1 0x3C DUP2 ADD DUP3 SWAP1 MSTORE PUSH0 SWAP1 PUSH1 0x5C ADD PUSH2 0xB79 JUMP JUMPDEST PUSH0 DUP1 PUSH0 DUP1 PUSH2 0xE4F DUP6 PUSH2 0xFC1 JUMP JUMPDEST PUSH1 0x40 DUP1 MLOAD PUSH0 DUP2 MSTORE PUSH1 0x20 DUP2 ADD DUP1 DUP4 MSTORE DUP12 SWAP1 MSTORE PUSH1 0xFF DUP4 AND SWAP2 DUP2 ADD SWAP2 SWAP1 SWAP2 MSTORE PUSH1 0x60 DUP2 ADD DUP5 SWAP1 MSTORE PUSH1 0x80 DUP2 ADD DUP4 SWAP1 MSTORE SWAP3 SWAP6 POP SWAP1 SWAP4 POP SWAP2 POP PUSH1 0x1 SWAP1 PUSH1 0xA0 ADD PUSH1 0x20 PUSH1 0x40 MLOAD PUSH1 0x20 DUP2 SUB SWAP1 DUP1 DUP5 SUB SWAP1 DUP6 GAS STATICCALL ISZERO DUP1 ISZERO PUSH2 0xEA7 JUMPI RETURNDATASIZE PUSH0 DUP1 RETURNDATACOPY RETURNDATASIZE PUSH0 REVERT JUMPDEST POP POP PUSH1 0x40 MLOAD PUSH1 0x1F NOT ADD MLOAD SWAP8 SWAP7 POP POP POP POP POP POP POP JUMP JUMPDEST PUSH0 DUP1 PUSH0 DUP4 MLOAD PUSH1 0x41 SUB PUSH2 0xEF3 JUMPI PUSH1 0x20 DUP5 ADD MLOAD PUSH1 0x40 DUP6 ADD MLOAD PUSH1 0x60 DUP7 ADD MLOAD PUSH0 BYTE PUSH2 0xEE5 DUP9 DUP3 DUP6 DUP6 PUSH2 0x1032 JUMP JUMPDEST SWAP6 POP SWAP6 POP SWAP6 POP POP POP POP PUSH2 0xEFE JUMP JUMPDEST POP POP DUP2 MLOAD PUSH0 SWAP2 POP PUSH1 0x2 SWAP1 JUMPDEST SWAP3 POP SWAP3 POP SWAP3 JUMP JUMPDEST PUSH0 DUP3 PUSH1 0x3 DUP2 GT ISZERO PUSH2 0xF18 JUMPI PUSH2 0xF18 PUSH2 0x1788 JUMP JUMPDEST SUB PUSH2 0xF21 JUMPI POP POP JUMP JUMPDEST PUSH1 0x1 DUP3 PUSH1 0x3 DUP2 GT ISZERO PUSH2 0xF35 JUMPI PUSH2 0xF35 PUSH2 0x1788 JUMP JUMPDEST SUB PUSH2 0xF53 JUMPI PUSH1 0x40 MLOAD PUSH4 0xF645EEDF PUSH1 0xE0 SHL DUP2 MSTORE PUSH1 0x4 ADD PUSH1 0x40 MLOAD DUP1 SWAP2 SUB SWAP1 REVERT JUMPDEST PUSH1 0x2 DUP3 PUSH1 0x3 DUP2 GT ISZERO PUSH2 0xF67 JUMPI PUSH2 0xF67 PUSH2 0x1788 JUMP JUMPDEST SUB PUSH2 0xF88 JUMPI PUSH1 0x40 MLOAD PUSH4 0xFCE698F7 PUSH1 0xE0 SHL DUP2 MSTORE PUSH1 0x4 DUP2 ADD DUP3 SWAP1 MSTORE PUSH1 0x24 ADD PUSH2 0x45C JUMP JUMPDEST PUSH1 0x3 DUP3 PUSH1 0x3 DUP2 GT ISZERO PUSH2 0xF9C JUMPI PUSH2 0xF9C PUSH2 0x1788 JUMP JUMPDEST SUB PUSH2 0xFBD JUMPI PUSH1 0x40 MLOAD PUSH4 0x35E2F383 PUSH1 0xE2 SHL DUP2 MSTORE PUSH1 0x4 DUP2 ADD DUP3 SWAP1 MSTORE PUSH1 0x24 ADD PUSH2 0x45C JUMP JUMPDEST POP POP JUMP JUMPDEST PUSH0 DUP1 PUSH0 DUP4 MLOAD PUSH1 0x41 EQ PUSH2 0x1015 JUMPI PUSH1 0x40 MLOAD PUSH3 0x461BCD PUSH1 0xE5 SHL DUP2 MSTORE PUSH1 0x20 PUSH1 0x4 DUP3 ADD MSTORE PUSH1 0x18 PUSH1 0x24 DUP3 ADD MSTORE PUSH32 0x696E76616C6964207369676E6174757265206C656E6774680000000000000000 PUSH1 0x44 DUP3 ADD MSTORE PUSH1 0x64 ADD PUSH2 0x45C JUMP JUMPDEST POP POP POP PUSH1 0x20 DUP2 ADD MLOAD PUSH1 0x40 DUP3 ADD MLOAD PUSH1 0x60 SWAP1 SWAP3 ADD MLOAD SWAP1 SWAP3 PUSH0 SWAP2 SWAP1 SWAP2 BYTE SWAP1 JUMP JUMPDEST PUSH0 DUP1 DUP1 PUSH32 0x7FFFFFFFFFFFFFFFFFFFFFFFFFFFFFFF5D576E7357A4501DDFE92F46681B20A0 DUP5 GT ISZERO PUSH2 0x106B JUMPI POP PUSH0 SWAP2 POP PUSH1 0x3 SWAP1 POP DUP3 PUSH2 0x10F0 JUMP JUMPDEST PUSH1 0x40 DUP1 MLOAD PUSH0 DUP1 DUP3 MSTORE PUSH1 0x20 DUP3 ADD DUP1 DUP5 MSTORE DUP11 SWAP1 MSTORE PUSH1 0xFF DUP10 AND SWAP3 DUP3 ADD SWAP3 SWAP1 SWAP3 MSTORE PUSH1 0x60 DUP2 ADD DUP8 SWAP1 MSTORE PUSH1 0x80 DUP2 ADD DUP7 SWAP1 MSTORE PUSH1 0x1 SWAP1 PUSH1 0xA0 ADD PUSH1 0x20 PUSH1 0x40 MLOAD PUSH1 0x20 DUP2 SUB SWAP1 DUP1 DUP5 SUB SWAP1 DUP6 GAS STATICCALL ISZERO DUP1 ISZERO PUSH2 0x10BC JUMPI RETURNDATASIZE PUSH0 DUP1 RETURNDATACOPY RETURNDATASIZE PUSH0 REVERT JUMPDEST POP POP PUSH1 0x40 MLOAD PUSH1 0x1F NOT ADD MLOAD SWAP2 POP POP PUSH1 0x1 PUSH1 0x1 PUSH1 0xA0 SHL SUB DUP2 AND PUSH2 0x10E7 JUMPI POP PUSH0 SWAP3 POP PUSH1 0x1 SWAP2 POP DUP3 SWAP1 POP PUSH2 0x10F0 JUMP JUMPDEST SWAP3 POP PUSH0 SWAP2 POP DUP2 SWAP1 POP JUMPDEST SWAP5 POP SWAP5 POP SWAP5 SWAP2 POP POP JUMP JUMPDEST PUSH0 PUSH1 0x20 DUP3 DUP5 SUB SLT ISZERO PUSH2 0x110A JUMPI PUSH0 DUP1 REVERT JUMPDEST POP CALLDATALOAD SWAP2 SWAP1 POP JUMP JUMPDEST PUSH1 0x1 PUSH1 0x1 PUSH1 0xA0 SHL SUB DUP2 AND DUP2 EQ PUSH2 0x1125 JUMPI PUSH0 DUP1 REVERT JUMPDEST POP JUMP JUMPDEST PUSH4 0x4E487B71 PUSH1 0xE0 SHL PUSH0 MSTORE PUSH1 0x41 PUSH1 0x4 MSTORE PUSH1 0x24 PUSH0 REVERT JUMPDEST PUSH0 DUP3 PUSH1 0x1F DUP4 ADD SLT PUSH2 0x114B JUMPI PUSH0 DUP1 REVERT JUMPDEST DUP2 CALLDATALOAD PUSH8 0xFFFFFFFFFFFFFFFF DUP1 DUP3 GT ISZERO PUSH2 0x1166 JUMPI PUSH2 0x1166 PUSH2 0x1128 JUMP JUMPDEST PUSH1 0x40 MLOAD PUSH1 0x1F DUP4 ADD PUSH1 0x1F NOT SWAP1 DUP2 AND PUSH1 0x3F ADD AND DUP2 ADD SWAP1 DUP3 DUP3 GT DUP2 DUP4 LT OR ISZERO PUSH2 0x118E JUMPI PUSH2 0x118E PUSH2 0x1128 JUMP JUMPDEST DUP2 PUSH1 0x40 MSTORE DUP4 DUP2 MSTORE DUP7 PUSH1 0x20 DUP6 DUP9 ADD ADD GT ISZERO PUSH2 0x11A6 JUMPI PUSH0 DUP1 REVERT JUMPDEST DUP4 PUSH1 0x20 DUP8 ADD PUSH1 0x20 DUP4 ADD CALLDATACOPY PUSH0 PUSH1 0x20 DUP6 DUP4 ADD ADD MSTORE DUP1 SWAP5 POP POP POP POP POP SWAP3 SWAP2 POP POP JUMP JUMPDEST PUSH0 DUP1 PUSH0 DUP1 PUSH0 PUSH1 0xA0 DUP7 DUP9 SUB SLT ISZERO PUSH2 0x11D9 JUMPI PUSH0 DUP1 REVERT JUMPDEST DUP6 CALLDATALOAD PUSH2 0x11E4 DUP2 PUSH2 0x1111 JUMP JUMPDEST SWAP5 POP PUSH1 0x20 DUP7 ADD CALLDATALOAD SWAP4 POP PUSH1 0x40 DUP7 ADD CALLDATALOAD PUSH8 0xFFFFFFFFFFFFFFFF DUP1 DUP3 GT ISZERO PUSH2 0x1207 JUMPI PUSH0 DUP1 REVERT JUMPDEST PUSH2 0x1213 DUP10 DUP4 DUP11 ADD PUSH2 0x113C JUMP JUMPDEST SWAP5 POP PUSH1 0x60 DUP9 ADD CALLDATALOAD SWAP2 POP DUP1 DUP3 GT ISZERO PUSH2 0x1228 JUMPI PUSH0 DUP1 REVERT JUMPDEST PUSH2 0x1234 DUP10 DUP4 DUP11 ADD PUSH2 0x113C JUMP JUMPDEST SWAP4 POP PUSH1 0x80 DUP9 ADD CALLDATALOAD SWAP2 POP DUP1 DUP3 GT ISZERO PUSH2 0x1249 JUMPI PUSH0 DUP1 REVERT JUMPDEST POP PUSH2 0x1256 DUP9 DUP3 DUP10 ADD PUSH2 0x113C JUMP JUMPDEST SWAP2 POP POP SWAP3 SWAP6 POP SWAP3 SWAP6 SWAP1 SWAP4 POP JUMP JUMPDEST PUSH0 DUP1 PUSH1 0x40 DUP4 DUP6 SUB SLT ISZERO PUSH2 0x1274 JUMPI PUSH0 DUP1 REVERT JUMPDEST DUP3 CALLDATALOAD SWAP2 POP PUSH1 0x20 DUP4 ADD CALLDATALOAD PUSH8 0xFFFFFFFFFFFFFFFF DUP2 GT ISZERO PUSH2 0x1291 JUMPI PUSH0 DUP1 REVERT JUMPDEST PUSH2 0x129D DUP6 DUP3 DUP7 ADD PUSH2 0x113C JUMP JUMPDEST SWAP2 POP POP SWAP3 POP SWAP3 SWAP1 POP JUMP JUMPDEST PUSH0 DUP1 PUSH0 PUSH1 0x60 DUP5 DUP7 SUB SLT ISZERO PUSH2 0x12B9 JUMPI PUSH0 DUP1 REVERT JUMPDEST DUP4 CALLDATALOAD PUSH2 0x12C4 DUP2 PUSH2 0x1111 JUMP JUMPDEST SWAP3 POP PUSH1 0x20 DUP5 ADD CALLDATALOAD PUSH2 0x12D4 DUP2 PUSH2 0x1111 JUMP JUMPDEST SWAP3 SWAP6 SWAP3 SWAP5 POP POP POP PUSH1 0x40 SWAP2 SWAP1 SWAP2 ADD CALLDATALOAD SWAP1 JUMP JUMPDEST PUSH0 PUSH1 0x20 DUP3 DUP5 SUB SLT ISZERO PUSH2 0x12F5 JUMPI PUSH0 DUP1 REVERT JUMPDEST DUP2 CALLDATALOAD PUSH2 0x1300 DUP2 PUSH2 0x1111 JUMP JUMPDEST SWAP4 SWAP3 POP POP POP JUMP JUMPDEST PUSH0 DUP1 PUSH0 PUSH1 0x60 DUP5 DUP7 SUB SLT ISZERO PUSH2 0x1319 JUMPI PUSH0 DUP1 REVERT JUMPDEST DUP4 CALLDATALOAD SWAP3 POP PUSH1 0x20 DUP5 ADD CALLDATALOAD PUSH2 0x12D4 DUP2 PUSH2 0x1111 JUMP JUMPDEST PUSH0 DUP2 MLOAD DUP1 DUP5 MSTORE DUP1 PUSH1 0x20 DUP5 ADD PUSH1 0x20 DUP7 ADD MCOPY PUSH0 PUSH1 0x20 DUP3 DUP7 ADD ADD MSTORE PUSH1 0x20 PUSH1 0x1F NOT PUSH1 0x1F DUP4 ADD AND DUP6 ADD ADD SWAP2 POP POP SWAP3 SWAP2 POP POP JUMP JUMPDEST PUSH1 0x20 DUP2 MSTORE PUSH0 PUSH2 0x6B2 PUSH1 0x20 DUP4 ADD DUP5 PUSH2 0x132B JUMP JUMPDEST PUSH0 PUSH1 0x20 DUP3 DUP5 SUB SLT ISZERO PUSH2 0x137B JUMPI PUSH0 DUP1 REVERT JUMPDEST DUP2 CALLDATALOAD PUSH8 0xFFFFFFFFFFFFFFFF DUP2 GT ISZERO PUSH2 0x1391 JUMPI PUSH0 DUP1 REVERT JUMPDEST PUSH2 0x139D DUP5 DUP3 DUP6 ADD PUSH2 0x113C JUMP JUMPDEST SWAP5 SWAP4 POP POP POP POP JUMP JUMPDEST PUSH0 DUP1 PUSH0 DUP1 PUSH1 0x80 DUP6 DUP8 SUB SLT ISZERO PUSH2 0x13B8 JUMPI PUSH0 DUP1 REVERT JUMPDEST DUP5 CALLDATALOAD PUSH8 0xFFFFFFFFFFFFFFFF DUP2 GT ISZERO PUSH2 0x13CE JUMPI PUSH0 DUP1 REVERT JUMPDEST PUSH2 0x13DA DUP8 DUP3 DUP9 ADD PUSH2 0x113C JUMP JUMPDEST SWAP5 POP POP PUSH1 0x20 DUP6 ADD CALLDATALOAD PUSH2 0x13EB DUP2 PUSH2 0x1111 JUMP JUMPDEST SWAP3 POP PUSH1 0x40 DUP6 ADD CALLDATALOAD PUSH2 0x13FB DUP2 PUSH2 0x1111 JUMP JUMPDEST SWAP4 SWAP7 SWAP3 SWAP6 POP SWAP3 SWAP4 PUSH1 0x60 ADD CALLDATALOAD SWAP3 POP POP JUMP JUMPDEST PUSH0 DUP1 PUSH1 0x40 DUP4 DUP6 SUB SLT ISZERO PUSH2 0x141C JUMPI PUSH0 DUP1 REVERT JUMPDEST DUP3 CALLDATALOAD PUSH8 0xFFFFFFFFFFFFFFFF DUP1 DUP3 GT ISZERO PUSH2 0x1433 JUMPI PUSH0 DUP1 REVERT JUMPDEST PUSH2 0x143F DUP7 DUP4 DUP8 ADD PUSH2 0x113C JUMP JUMPDEST SWAP4 POP PUSH1 0x20 DUP6 ADD CALLDATALOAD SWAP2 POP DUP1 DUP3 GT ISZERO PUSH2 0x1454 JUMPI PUSH0 DUP1 REVERT JUMPDEST POP PUSH2 0x129D DUP6 DUP3 DUP7 ADD PUSH2 0x113C JUMP JUMPDEST PUSH1 0x1 DUP2 DUP2 SHR SWAP1 DUP3 AND DUP1 PUSH2 0x1475 JUMPI PUSH1 0x7F DUP3 AND SWAP2 POP JUMPDEST PUSH1 0x20 DUP3 LT DUP2 SUB PUSH2 0x1493 JUMPI PUSH4 0x4E487B71 PUSH1 0xE0 SHL PUSH0 MSTORE PUSH1 0x22 PUSH1 0x4 MSTORE PUSH1 0x24 PUSH0 REVERT JUMPDEST POP SWAP2 SWAP1 POP JUMP JUMPDEST PUSH0 DUP1 DUP4 SLOAD PUSH2 0x14A6 DUP2 PUSH2 0x1461 JUMP JUMPDEST PUSH1 0x1 DUP3 DUP2 AND DUP1 ISZERO PUSH2 0x14BE JUMPI PUSH1 0x1 DUP2 EQ PUSH2 0x14D3 JUMPI PUSH2 0x14FF JUMP JUMPDEST PUSH1 0xFF NOT DUP5 AND DUP8 MSTORE DUP3 ISZERO ISZERO DUP4 MUL DUP8 ADD SWAP5 POP PUSH2 0x14FF JUMP JUMPDEST DUP8 PUSH0 MSTORE PUSH1 0x20 DUP1 PUSH0 KECCAK256 PUSH0 JUMPDEST DUP6 DUP2 LT ISZERO PUSH2 0x14F6 JUMPI DUP2 SLOAD DUP11 DUP3 ADD MSTORE SWAP1 DUP5 ADD SWAP1 DUP3 ADD PUSH2 0x14DD JUMP JUMPDEST POP POP POP DUP3 DUP8 ADD SWAP5 POP JUMPDEST POP SWAP3 SWAP7 SWAP6 POP POP POP POP POP POP JUMP JUMPDEST PUSH1 0x20 DUP1 DUP3 MSTORE PUSH1 0x9 SWAP1 DUP3 ADD MSTORE PUSH9 0x2737BA1037BBB732B9 PUSH1 0xB9 SHL PUSH1 0x40 DUP3 ADD MSTORE PUSH1 0x60 ADD SWAP1 JUMP JUMPDEST PUSH4 0x4E487B71 PUSH1 0xE0 SHL PUSH0 MSTORE PUSH1 0x11 PUSH1 0x4 MSTORE PUSH1 0x24 PUSH0 REVERT JUMPDEST PUSH0 PUSH1 0x1 DUP3 ADD PUSH2 0x1553 JUMPI PUSH2 0x1553 PUSH2 0x152E JUMP JUMPDEST POP PUSH1 0x1 ADD SWAP1 JUMP JUMPDEST PUSH0 DUP3 MLOAD DUP1 PUSH1 0x20 DUP6 ADD DUP5 MCOPY PUSH0 SWAP3 ADD SWAP2 DUP3 MSTORE POP SWAP2 SWAP1 POP JUMP JUMPDEST PUSH1 0x1F DUP3 GT ISZERO PUSH2 0x15B4 JUMPI DUP1 PUSH0 MSTORE PUSH1 0x20 PUSH0 KECCAK256 PUSH1 0x1F DUP5 ADD PUSH1 0x5 SHR DUP2 ADD PUSH1 0x20 DUP6 LT ISZERO PUSH2 0x1595 JUMPI POP DUP1 JUMPDEST PUSH1 0x1F DUP5 ADD PUSH1 0x5 SHR DUP3 ADD SWAP2 POP JUMPDEST DUP2 DUP2 LT ISZERO PUSH2 0xD9E JUMPI PUSH0 DUP2 SSTORE PUSH1 0x1 ADD PUSH2 0x15A1 JUMP JUMPDEST POP POP POP JUMP JUMPDEST DUP2 MLOAD PUSH8 0xFFFFFFFFFFFFFFFF DUP2 GT ISZERO PUSH2 0x15D3 JUMPI PUSH2 0x15D3 PUSH2 0x1128 JUMP JUMPDEST PUSH2 0x15E7 DUP2 PUSH2 0x15E1 DUP5 SLOAD PUSH2 0x1461 JUMP JUMPDEST DUP5 PUSH2 0x1570 JUMP JUMPDEST PUSH1 0x20 DUP1 PUSH1 0x1F DUP4 GT PUSH1 0x1 DUP2 EQ PUSH2 0x161A JUMPI PUSH0 DUP5 ISZERO PUSH2 0x1603 JUMPI POP DUP6 DUP4 ADD MLOAD JUMPDEST PUSH0 NOT PUSH1 0x3 DUP7 SWAP1 SHL SHR NOT AND PUSH1 0x1 DUP6 SWAP1 SHL OR DUP6 SSTORE PUSH2 0x1671 JUMP JUMPDEST PUSH0 DUP6 DUP2 MSTORE PUSH1 0x20 DUP2 KECCAK256 PUSH1 0x1F NOT DUP7 AND SWAP2 JUMPDEST DUP3 DUP2 LT ISZERO PUSH2 0x1648 JUMPI DUP9 DUP7 ADD MLOAD DUP3 SSTORE SWAP5 DUP5 ADD SWAP5 PUSH1 0x1 SWAP1 SWAP2 ADD SWAP1 DUP5 ADD PUSH2 0x1629 JUMP JUMPDEST POP DUP6 DUP3 LT ISZERO PUSH2 0x1665 JUMPI DUP8 DUP6 ADD MLOAD PUSH0 NOT PUSH1 0x3 DUP9 SWAP1 SHL PUSH1 0xF8 AND SHR NOT AND DUP2 SSTORE JUMPDEST POP POP PUSH1 0x1 DUP5 PUSH1 0x1 SHL ADD DUP6 SSTORE JUMPDEST POP POP POP POP POP POP JUMP JUMPDEST DUP2 DUP2 SUB DUP2 DUP2 GT ISZERO PUSH2 0x6B5 JUMPI PUSH2 0x6B5 PUSH2 0x152E JUMP JUMPDEST PUSH1 0x20 DUP1 DUP3 MSTORE PUSH1 0x8 SWAP1 DUP3 ADD MSTORE PUSH8 0x2737BA1029B2B633 PUSH1 0xC1 SHL PUSH1 0x40 DUP3 ADD MSTORE PUSH1 0x60 ADD SWAP1 JUMP JUMPDEST PUSH1 0x20 DUP1 DUP3 MSTORE PUSH1 0x1E SWAP1 DUP3 ADD MSTORE PUSH32 0x4D757374206265206E6F6E2D7A65726F20736967732072657175697265640000 PUSH1 0x40 DUP3 ADD MSTORE PUSH1 0x60 ADD SWAP1 JUMP JUMPDEST PUSH0 PUSH1 0x60 DUP3 ADD PUSH1 0x1 DUP1 PUSH1 0xA0 SHL SUB DUP1 DUP8 AND DUP5 MSTORE PUSH1 0x20 PUSH1 0x60 PUSH1 0x20 DUP7 ADD MSTORE DUP3 DUP8 SLOAD DUP1 DUP6 MSTORE PUSH1 0x80 DUP8 ADD SWAP2 POP DUP9 PUSH0 MSTORE PUSH1 0x20 PUSH0 KECCAK256 SWAP5 POP PUSH0 JUMPDEST DUP2 DUP2 LT ISZERO PUSH2 0x1734 JUMPI DUP6 SLOAD DUP6 AND DUP4 MSTORE PUSH1 0x1 SWAP6 DUP7 ADD SWAP6 SWAP3 DUP5 ADD SWAP3 ADD PUSH2 0x1716 JUMP JUMPDEST POP POP DUP1 SWAP5 POP POP POP POP POP DUP3 PUSH1 0x40 DUP4 ADD MSTORE SWAP5 SWAP4 POP POP POP POP JUMP JUMPDEST PUSH4 0x4E487B71 PUSH1 0xE0 SHL PUSH0 MSTORE PUSH1 0x32 PUSH1 0x4 MSTORE PUSH1 0x24 PUSH0 REVERT JUMPDEST PUSH4 0x4E487B71 PUSH1 0xE0 SHL PUSH0 MSTORE PUSH1 0x31 PUSH1 0x4 MSTORE PUSH1 0x24 PUSH0 REVERT JUMPDEST PUSH0 DUP2 PUSH2 0x1781 JUMPI PUSH2 0x1781 PUSH2 0x152E JUMP JUMPDEST POP PUSH0 NOT ADD SWAP1 JUMP JUMPDEST PUSH4 0x4E487B71 PUSH1 0xE0 SHL PUSH0 MSTORE PUSH1 0x21 PUSH1 0x4 MSTORE PUSH1 0x24 PUSH0 REVERT INVALID LOG2 PUSH5 0x6970667358 0x22 SLT KECCAK256 GT DUP4 0xC3 POP 0xAE PUSH1 0x1F 0xF6 PUSH29 0xC70E87EBCF608CB2A61ADEC545C57656733DF740F34D2E64736F6C6343 STOP ADDMOD NOT STOP CALLER LOG2 PUSH5 0x6970667358 0x22 SLT KECCAK256 0xA5 SLT SWAP6 OR 0xAE 0x2B RETURNDATASIZE PUSH29 0x1D0CFA335005CC509C4E8BD52DA198CC8E9D33DB74CA178664736F6C63 NUMBER STOP ADDMOD NOT STOP CALLER "
				},
				"gasEstimates": {
					"creation": {
						"codeDepositCost": "1930800",
						"executionCost": "2039",
						"totalCost": "1932839"
					},
					"external": {
						"create(uint256,address[],uint256,string,string)": "infinite",
						"emitOwners(address,address[],uint256)": "infinite",
						"getMultiSig(uint256)": "infinite",
						"multiSigs(uint256)": "4676",
						"numberOfMultiSigs()": "2267"
					}
				},
				"methodIdentifiers": {
					"create(uint256,address[],uint256,string,string)": "2a876a52",
					"emitOwners(address,address[],uint256)": "bedf4294",
					"getMultiSig(uint256)": "9567e7ed",
					"multiSigs(uint256)": "c67fdb94",
					"numberOfMultiSigs()": "2f1d8a23"
				}
			},
			"storageLayout": {
				"storage": [
					{
						"astId": 352,
						"contract": "contracts/MultiSigWallet_flattened.sol:MultiSigFactory",
						"label": "multiSigs",
						"offset": 0,
						"slot": "0",
						"type": "t_array(t_contract(MultiSigWallet)1374)dyn_storage"
					},
					{
						"astId": 356,
						"contract": "contracts/MultiSigWallet_flattened.sol:MultiSigFactory",
						"label": "existsMultiSig",
						"offset": 0,
						"slot": "1",
						"type": "t_mapping(t_address,t_bool)"
					},
					{
						"astId": 360,
						"contract": "contracts/MultiSigWallet_flattened.sol:MultiSigFactory",
						"label": "Org",
						"offset": 0,
						"slot": "2",
						"type": "t_mapping(t_address,t_string_storage)"
					},
					{
						"astId": 364,
						"contract": "contracts/MultiSigWallet_flattened.sol:MultiSigFactory",
						"label": "OrgOwnerEmail",
						"offset": 0,
						"slot": "3",
						"type": "t_mapping(t_address,t_string_storage)"
					}
				],
				"types": {
					"t_address": {
						"encoding": "inplace",
						"label": "address",
						"numberOfBytes": "20"
					},
					"t_array(t_contract(MultiSigWallet)1374)dyn_storage": {
						"base": "t_contract(MultiSigWallet)1374",
						"encoding": "dynamic_array",
						"label": "contract MultiSigWallet[]",
						"numberOfBytes": "32"
					},
					"t_bool": {
						"encoding": "inplace",
						"label": "bool",
						"numberOfBytes": "1"
					},
					"t_contract(MultiSigWallet)1374": {
						"encoding": "inplace",
						"label": "contract MultiSigWallet",
						"numberOfBytes": "20"
					},
					"t_mapping(t_address,t_bool)": {
						"encoding": "mapping",
						"key": "t_address",
						"label": "mapping(address => bool)",
						"numberOfBytes": "32",
						"value": "t_bool"
					},
					"t_mapping(t_address,t_string_storage)": {
						"encoding": "mapping",
						"key": "t_address",
						"label": "mapping(address => string)",
						"numberOfBytes": "32",
						"value": "t_string_storage"
					},
					"t_string_storage": {
						"encoding": "bytes",
						"label": "string",
						"numberOfBytes": "32"
					}
				}
			},
			"userdoc": {
				"kind": "user",
				"methods": {},
				"version": 1
			}
		}
	}
}