{
	"contracts/ERC20_flattened.sol": {
		"MyToken": {
			"abi": [
				{
					"inputs": [
						{
							"internalType": "address",
							"name": "initialOwner",
							"type": "address"
						}
					],
					"stateMutability": "nonpayable",
					"type": "constructor"
				},
				{
					"inputs": [],
					"name": "ECDSAInvalidSignature",
					"type": "error"
				},
				{
					"inputs": [
						{
							"internalType": "uint256",
							"name": "length",
							"type": "uint256"
						}
					],
					"name": "ECDSAInvalidSignatureLength",
					"type": "error"
				},
				{
					"inputs": [
						{
							"internalType": "bytes32",
							"name": "s",
							"type": "bytes32"
						}
					],
					"name": "ECDSAInvalidSignatureS",
					"type": "error"
				},
				{
					"inputs": [
						{
							"internalType": "address",
							"name": "spender",
							"type": "address"
						},
						{
							"internalType": "uint256",
							"name": "allowance",
							"type": "uint256"
						},
						{
							"internalType": "uint256",
							"name": "needed",
							"type": "uint256"
						}
					],
					"name": "ERC20InsufficientAllowance",
					"type": "error"
				},
				{
					"inputs": [
						{
							"internalType": "address",
							"name": "sender",
							"type": "address"
						},
						{
							"internalType": "uint256",
							"name": "balance",
							"type": "uint256"
						},
						{
							"internalType": "uint256",
							"name": "needed",
							"type": "uint256"
						}
					],
					"name": "ERC20InsufficientBalance",
					"type": "error"
				},
				{
					"inputs": [
						{
							"internalType": "address",
							"name": "approver",
							"type": "address"
						}
					],
					"name": "ERC20InvalidApprover",
					"type": "error"
				},
				{
					"inputs": [
						{
							"internalType": "address",
							"name": "receiver",
							"type": "address"
						}
					],
					"name": "ERC20InvalidReceiver",
					"type": "error"
				},
				{
					"inputs": [
						{
							"internalType": "address",
							"name": "sender",
							"type": "address"
						}
					],
					"name": "ERC20InvalidSender",
					"type": "error"
				},
				{
					"inputs": [
						{
							"internalType": "address",
							"name": "spender",
							"type": "address"
						}
					],
					"name": "ERC20InvalidSpender",
					"type": "error"
				},
				{
					"inputs": [
						{
							"internalType": "uint256",
							"name": "deadline",
							"type": "uint256"
						}
					],
					"name": "ERC2612ExpiredSignature",
					"type": "error"
				},
				{
					"inputs": [
						{
							"internalType": "address",
							"name": "signer",
							"type": "address"
						},
						{
							"internalType": "address",
							"name": "owner",
							"type": "address"
						}
					],
					"name": "ERC2612InvalidSigner",
					"type": "error"
				},
				{
					"inputs": [],
					"name": "EnforcedPause",
					"type": "error"
				},
				{
					"inputs": [],
					"name": "ExpectedPause",
					"type": "error"
				},
				{
					"inputs": [
						{
							"internalType": "address",
							"name": "account",
							"type": "address"
						},
						{
							"internalType": "uint256",
							"name": "currentNonce",
							"type": "uint256"
						}
					],
					"name": "InvalidAccountNonce",
					"type": "error"
				},
				{
					"inputs": [],
					"name": "InvalidShortString",
					"type": "error"
				},
				{
					"inputs": [
						{
							"internalType": "address",
							"name": "owner",
							"type": "address"
						}
					],
					"name": "OwnableInvalidOwner",
					"type": "error"
				},
				{
					"inputs": [
						{
							"internalType": "address",
							"name": "account",
							"type": "address"
						}
					],
					"name": "OwnableUnauthorizedAccount",
					"type": "error"
				},
				{
					"inputs": [
						{
							"internalType": "string",
							"name": "str",
							"type": "string"
						}
					],
					"name": "StringTooLong",
					"type": "error"
				},
				{
					"anonymous": false,
					"inputs": [
						{
							"indexed": true,
							"internalType": "address",
							"name": "owner",
							"type": "address"
						},
						{
							"indexed": true,
							"internalType": "address",
							"name": "spender",
							"type": "address"
						},
						{
							"indexed": false,
							"internalType": "uint256",
							"name": "value",
							"type": "uint256"
						}
					],
					"name": "Approval",
					"type": "event"
				},
				{
					"anonymous": false,
					"inputs": [],
					"name": "EIP712DomainChanged",
					"type": "event"
				},
				{
					"anonymous": false,
					"inputs": [
						{
							"indexed": true,
							"internalType": "address",
							"name": "previousOwner",
							"type": "address"
						},
						{
							"indexed": true,
							"internalType": "address",
							"name": "newOwner",
							"type": "address"
						}
					],
					"name": "OwnershipTransferred",
					"type": "event"
				},
				{
					"anonymous": false,
					"inputs": [
						{
							"indexed": false,
							"internalType": "address",
							"name": "account",
							"type": "address"
						}
					],
					"name": "Paused",
					"type": "event"
				},
				{
					"anonymous": false,
					"inputs": [
						{
							"indexed": true,
							"internalType": "address",
							"name": "from",
							"type": "address"
						},
						{
							"indexed": true,
							"internalType": "address",
							"name": "to",
							"type": "address"
						},
						{
							"indexed": false,
							"internalType": "uint256",
							"name": "value",
							"type": "uint256"
						}
					],
					"name": "Transfer",
					"type": "event"
				},
				{
					"anonymous": false,
					"inputs": [
						{
							"indexed": false,
							"internalType": "address",
							"name": "account",
							"type": "address"
						}
					],
					"name": "Unpaused",
					"type": "event"
				},
				{
					"inputs": [],
					"name": "DOMAIN_SEPARATOR",
					"outputs": [
						{
							"internalType": "bytes32",
							"name": "",
							"type": "bytes32"
						}
					],
					"stateMutability": "view",
					"type": "function"
				},
				{
					"inputs": [
						{
							"internalType": "address",
							"name": "owner",
							"type": "address"
						},
						{
							"internalType": "address",
							"name": "spender",
							"type": "address"
						}
					],
					"name": "allowance",
					"outputs": [
						{
							"internalType": "uint256",
							"name": "",
							"type": "uint256"
						}
					],
					"stateMutability": "view",
					"type": "function"
				},
				{
					"inputs": [
						{
							"internalType": "address",
							"name": "spender",
							"type": "address"
						},
						{
							"internalType": "uint256",
							"name": "value",
							"type": "uint256"
						}
					],
					"name": "approve",
					"outputs": [
						{
							"internalType": "bool",
							"name": "",
							"type": "bool"
						}
					],
					"stateMutability": "nonpayable",
					"type": "function"
				},
				{
					"inputs": [
						{
							"internalType": "address",
							"name": "account",
							"type": "address"
						}
					],
					"name": "balanceOf",
					"outputs": [
						{
							"internalType": "uint256",
							"name": "",
							"type": "uint256"
						}
					],
					"stateMutability": "view",
					"type": "function"
				},
				{
					"inputs": [
						{
							"internalType": "uint256",
							"name": "value",
							"type": "uint256"
						}
					],
					"name": "burn",
					"outputs": [],
					"stateMutability": "nonpayable",
					"type": "function"
				},
				{
					"inputs": [
						{
							"internalType": "address",
							"name": "account",
							"type": "address"
						},
						{
							"internalType": "uint256",
							"name": "value",
							"type": "uint256"
						}
					],
					"name": "burnFrom",
					"outputs": [],
					"stateMutability": "nonpayable",
					"type": "function"
				},
				{
					"inputs": [],
					"name": "decimals",
					"outputs": [
						{
							"internalType": "uint8",
							"name": "",
							"type": "uint8"
						}
					],
					"stateMutability": "view",
					"type": "function"
				},
				{
					"inputs": [],
					"name": "eip712Domain",
					"outputs": [
						{
							"internalType": "bytes1",
							"name": "fields",
							"type": "bytes1"
						},
						{
							"internalType": "string",
							"name": "name",
							"type": "string"
						},
						{
							"internalType": "string",
							"name": "version",
							"type": "string"
						},
						{
							"internalType": "uint256",
							"name": "chainId",
							"type": "uint256"
						},
						{
							"internalType": "address",
							"name": "verifyingContract",
							"type": "address"
						},
						{
							"internalType": "bytes32",
							"name": "salt",
							"type": "bytes32"
						},
						{
							"internalType": "uint256[]",
							"name": "extensions",
							"type": "uint256[]"
						}
					],
					"stateMutability": "view",
					"type": "function"
				},
				{
					"inputs": [
						{
							"internalType": "address",
							"name": "to",
							"type": "address"
						},
						{
							"internalType": "uint256",
							"name": "amount",
							"type": "uint256"
						}
					],
					"name": "mint",
					"outputs": [],
					"stateMutability": "nonpayable",
					"type": "function"
				},
				{
					"inputs": [],
					"name": "name",
					"outputs": [
						{
							"internalType": "string",
							"name": "",
							"type": "string"
						}
					],
					"stateMutability": "view",
					"type": "function"
				},
				{
					"inputs": [
						{
							"internalType": "address",
							"name": "owner",
							"type": "address"
						}
					],
					"name": "nonces",
					"outputs": [
						{
							"internalType": "uint256",
							"name": "",
							"type": "uint256"
						}
					],
					"stateMutability": "view",
					"type": "function"
				},
				{
					"inputs": [],
					"name": "owner",
					"outputs": [
						{
							"internalType": "address",
							"name": "",
							"type": "address"
						}
					],
					"stateMutability": "view",
					"type": "function"
				},
				{
					"inputs": [],
					"name": "pause",
					"outputs": [],
					"stateMutability": "nonpayable",
					"type": "function"
				},
				{
					"inputs": [],
					"name": "paused",
					"outputs": [
						{
							"internalType": "bool",
							"name": "",
							"type": "bool"
						}
					],
					"stateMutability": "view",
					"type": "function"
				},
				{
					"inputs": [
						{
							"internalType": "address",
							"name": "owner",
							"type": "address"
						},
						{
							"internalType": "address",
							"name": "spender",
							"type": "address"
						},
						{
							"internalType": "uint256",
							"name": "value",
							"type": "uint256"
						},
						{
							"internalType": "uint256",
							"name": "deadline",
							"type": "uint256"
						},
						{
							"internalType": "uint8",
							"name": "v",
							"type": "uint8"
						},
						{
							"internalType": "bytes32",
							"name": "r",
							"type": "bytes32"
						},
						{
							"internalType": "bytes32",
							"name": "s",
							"type": "bytes32"
						}
					],
					"name": "permit",
					"outputs": [],
					"stateMutability": "nonpayable",
					"type": "function"
				},
				{
					"inputs": [],
					"name": "renounceOwnership",
					"outputs": [],
					"stateMutability": "nonpayable",
					"type": "function"
				},
				{
					"inputs": [],
					"name": "symbol",
					"outputs": [
						{
							"internalType": "string",
							"name": "",
							"type": "string"
						}
					],
					"stateMutability": "view",
					"type": "function"
				},
				{
					"inputs": [],
					"name": "totalSupply",
					"outputs": [
						{
							"internalType": "uint256",
							"name": "",
							"type": "uint256"
						}
					],
					"stateMutability": "view",
					"type": "function"
				},
				{
					"inputs": [
						{
							"internalType": "address",
							"name": "to",
							"type": "address"
						},
						{
							"internalType": "uint256",
							"name": "value",
							"type": "uint256"
						}
					],
					"name": "transfer",
					"outputs": [
						{
							"internalType": "bool",
							"name": "",
							"type": "bool"
						}
					],
					"stateMutability": "nonpayable",
					"type": "function"
				},
				{
					"inputs": [
						{
							"internalType": "address",
							"name": "from",
							"type": "address"
						},
						{
							"internalType": "address",
							"name": "to",
							"type": "address"
						},
						{
							"internalType": "uint256",
							"name": "value",
							"type": "uint256"
						}
					],
					"name": "transferFrom",
					"outputs": [
						{
							"internalType": "bool",
							"name": "",
							"type": "bool"
						}
					],
					"stateMutability": "nonpayable",
					"type": "function"
				},
				{
					"inputs": [
						{
							"internalType": "address",
							"name": "newOwner",
							"type": "address"
						}
					],
					"name": "transferOwnership",
					"outputs": [],
					"stateMutability": "nonpayable",
					"type": "function"
				},
				{
					"inputs": [],
					"name": "unpause",
					"outputs": [],
					"stateMutability": "nonpayable",
					"type": "function"
				}
			],
			"devdoc": {
				"errors": {
					"ECDSAInvalidSignature()": [
						{
							"details": "The signature derives the `address(0)`."
						}
					],
					"ECDSAInvalidSignatureLength(uint256)": [
						{
							"details": "The signature has an invalid length."
						}
					],
					"ECDSAInvalidSignatureS(bytes32)": [
						{
							"details": "The signature has an S value that is in the upper half order."
						}
					],
					"ERC20InsufficientAllowance(address,uint256,uint256)": [
						{
							"details": "Indicates a failure with the `spender`’s `allowance`. Used in transfers.",
							"params": {
								"allowance": "Amount of tokens a `spender` is allowed to operate with.",
								"needed": "Minimum amount required to perform a transfer.",
								"spender": "Address that may be allowed to operate on tokens without being their owner."
							}
						}
					],
					"ERC20InsufficientBalance(address,uint256,uint256)": [
						{
							"details": "Indicates an error related to the current `balance` of a `sender`. Used in transfers.",
							"params": {
								"balance": "Current balance for the interacting account.",
								"needed": "Minimum amount required to perform a transfer.",
								"sender": "Address whose tokens are being transferred."
							}
						}
					],
					"ERC20InvalidApprover(address)": [
						{
							"details": "Indicates a failure with the `approver` of a token to be approved. Used in approvals.",
							"params": {
								"approver": "Address initiating an approval operation."
							}
						}
					],
					"ERC20InvalidReceiver(address)": [
						{
							"details": "Indicates a failure with the token `receiver`. Used in transfers.",
							"params": {
								"receiver": "Address to which tokens are being transferred."
							}
						}
					],
					"ERC20InvalidSender(address)": [
						{
							"details": "Indicates a failure with the token `sender`. Used in transfers.",
							"params": {
								"sender": "Address whose tokens are being transferred."
							}
						}
					],
					"ERC20InvalidSpender(address)": [
						{
							"details": "Indicates a failure with the `spender` to be approved. Used in approvals.",
							"params": {
								"spender": "Address that may be allowed to operate on tokens without being their owner."
							}
						}
					],
					"ERC2612ExpiredSignature(uint256)": [
						{
							"details": "Permit deadline has expired."
						}
					],
					"ERC2612InvalidSigner(address,address)": [
						{
							"details": "Mismatched signature."
						}
					],
					"EnforcedPause()": [
						{
							"details": "The operation failed because the contract is paused."
						}
					],
					"ExpectedPause()": [
						{
							"details": "The operation failed because the contract is not paused."
						}
					],
					"InvalidAccountNonce(address,uint256)": [
						{
							"details": "The nonce used for an `account` is not the expected current nonce."
						}
					],
					"OwnableInvalidOwner(address)": [
						{
							"details": "The owner is not a valid owner account. (eg. `address(0)`)"
						}
					],
					"OwnableUnauthorizedAccount(address)": [
						{
							"details": "The caller account is not authorized to perform an operation."
						}
					]
				},
				"events": {
					"Approval(address,address,uint256)": {
						"details": "Emitted when the allowance of a `spender` for an `owner` is set by a call to {approve}. `value` is the new allowance."
					},
					"EIP712DomainChanged()": {
						"details": "MAY be emitted to signal that the domain could have changed."
					},
					"Paused(address)": {
						"details": "Emitted when the pause is triggered by `account`."
					},
					"Transfer(address,address,uint256)": {
						"details": "Emitted when `value` tokens are moved from one account (`from`) to another (`to`). Note that `value` may be zero."
					},
					"Unpaused(address)": {
						"details": "Emitted when the pause is lifted by `account`."
					}
				},
				"kind": "dev",
				"methods": {
					"DOMAIN_SEPARATOR()": {
						"details": "Returns the domain separator used in the encoding of the signature for {permit}, as defined by {EIP712}."
					},
					"allowance(address,address)": {
						"details": "See {IERC20-allowance}."
					},
					"approve(address,uint256)": {
						"details": "See {IERC20-approve}. NOTE: If `value` is the maximum `uint256`, the allowance is not updated on `transferFrom`. This is semantically equivalent to an infinite approval. Requirements: - `spender` cannot be the zero address."
					},
					"balanceOf(address)": {
						"details": "See {IERC20-balanceOf}."
					},
					"burn(uint256)": {
						"details": "Destroys a `value` amount of tokens from the caller. See {ERC20-_burn}."
					},
					"burnFrom(address,uint256)": {
						"details": "Destroys a `value` amount of tokens from `account`, deducting from the caller's allowance. See {ERC20-_burn} and {ERC20-allowance}. Requirements: - the caller must have allowance for ``accounts``'s tokens of at least `value`."
					},
					"decimals()": {
						"details": "Returns the number of decimals used to get its user representation. For example, if `decimals` equals `2`, a balance of `505` tokens should be displayed to a user as `5.05` (`505 / 10 ** 2`). Tokens usually opt for a value of 18, imitating the relationship between Ether and Wei. This is the default value returned by this function, unless it's overridden. NOTE: This information is only used for _display_ purposes: it in no way affects any of the arithmetic of the contract, including {IERC20-balanceOf} and {IERC20-transfer}."
					},
					"eip712Domain()": {
						"details": "See {IERC-5267}."
					},
					"name()": {
						"details": "Returns the name of the token."
					},
					"nonces(address)": {
						"details": "Returns the current nonce for `owner`. This value must be included whenever a signature is generated for {permit}. Every successful call to {permit} increases ``owner``'s nonce by one. This prevents a signature from being used multiple times."
					},
					"owner()": {
						"details": "Returns the address of the current owner."
					},
					"paused()": {
						"details": "Returns true if the contract is paused, and false otherwise."
					},
					"permit(address,address,uint256,uint256,uint8,bytes32,bytes32)": {
						"details": "Sets `value` as the allowance of `spender` over ``owner``'s tokens, given ``owner``'s signed approval. IMPORTANT: The same issues {IERC20-approve} has related to transaction ordering also apply here. Emits an {Approval} event. Requirements: - `spender` cannot be the zero address. - `deadline` must be a timestamp in the future. - `v`, `r` and `s` must be a valid `secp256k1` signature from `owner` over the EIP712-formatted function arguments. - the signature must use ``owner``'s current nonce (see {nonces}). For more information on the signature format, see the https://eips.ethereum.org/EIPS/eip-2612#specification[relevant EIP section]. CAUTION: See Security Considerations above."
					},
					"renounceOwnership()": {
						"details": "Leaves the contract without owner. It will not be possible to call `onlyOwner` functions. Can only be called by the current owner. NOTE: Renouncing ownership will leave the contract without an owner, thereby disabling any functionality that is only available to the owner."
					},
					"symbol()": {
						"details": "Returns the symbol of the token, usually a shorter version of the name."
					},
					"totalSupply()": {
						"details": "See {IERC20-totalSupply}."
					},
					"transfer(address,uint256)": {
						"details": "See {IERC20-transfer}. Requirements: - `to` cannot be the zero address. - the caller must have a balance of at least `value`."
					},
					"transferFrom(address,address,uint256)": {
						"details": "See {IERC20-transferFrom}. Emits an {Approval} event indicating the updated allowance. This is not required by the EIP. See the note at the beginning of {ERC20}. NOTE: Does not update the allowance if the current allowance is the maximum `uint256`. Requirements: - `from` and `to` cannot be the zero address. - `from` must have a balance of at least `value`. - the caller must have allowance for ``from``'s tokens of at least `value`."
					},
					"transferOwnership(address)": {
						"details": "Transfers ownership of the contract to a new account (`newOwner`). Can only be called by the current owner."
					}
				},
				"version": 1
			},
			"evm": {
				"assembly": "    /* \"contracts/ERC20_flattened.sol\":84754:85445  contract MyToken is ERC20, ERC20Burnable, ERC20Pausable, Ownable, ERC20Permit {... */\n  mstore(0x40, 0x0160)\n    /* \"contracts/ERC20_flattened.sol\":84838:84971  constructor(address initialOwner)... */\n  callvalue\n  dup1\n  iszero\n  tag_1\n  jumpi\n  0x00\n  dup1\n  revert\ntag_1:\n  pop\n  mload(0x40)\n  sub(codesize, bytecodeSize)\n  dup1\n  bytecodeSize\n  dup4\n  codecopy\n  dup2\n  add\n  0x40\n  dup2\n  swap1\n  mstore\n  tag_2\n  swap2\n  tag_3\n  jump\t// in\ntag_2:\n    /* \"contracts/ERC20_flattened.sol\":83445:83497  constructor(string memory name) EIP712(name, \"1\") {} */\n  mload(0x40)\n  dup1\n  0x40\n  add\n  0x40\n  mstore\n  dup1\n  0x07\n  dup2\n  mstore\n  0x20\n  add\n  shl(0xc9, 0x26bcaa37b5b2b7)\n  dup2\n  mstore\n  pop\n    /* \"contracts/ERC20_flattened.sol\":83484:83488  name */\n  dup1\n    /* \"contracts/ERC20_flattened.sol\":77289:77720  constructor(string memory name, string memory version) {... */\n  mload(0x40)\n  dup1\n  0x40\n  add\n  0x40\n  mstore\n  dup1\n  0x01\n  dup2\n  mstore\n  0x20\n  add\n  shl(0xf8, 0x31)\n  dup2\n  mstore\n  pop\n    /* \"contracts/ERC20_flattened.sol\":84920:84932  initialOwner */\n  dup4\n    /* \"contracts/ERC20_flattened.sol\":12757:12870  constructor(string memory name_, string memory symbol_) {... */\n  mload(0x40)\n  dup1\n  0x40\n  add\n  0x40\n  mstore\n  dup1\n  0x07\n  dup2\n  mstore\n  0x20\n  add\n  shl(0xc9, 0x26bcaa37b5b2b7)\n  dup2\n  mstore\n  pop\n  mload(0x40)\n  dup1\n  0x40\n  add\n  0x40\n  mstore\n  dup1\n  0x03\n  dup2\n  mstore\n  0x20\n  add\n  shl(0xe8, 0x4d544b)\n  dup2\n  mstore\n  pop\n    /* \"contracts/ERC20_flattened.sol\":12831:12836  name_ */\n  dup2\n    /* \"contracts/ERC20_flattened.sol\":12823:12828  _name */\n  0x03\n    /* \"contracts/ERC20_flattened.sol\":12823:12836  _name = name_ */\n  swap1\n  dup2\n  tag_11\n  swap2\n  swap1\n  tag_12\n  jump\t// in\ntag_11:\n  pop\n    /* \"contracts/ERC20_flattened.sol\":12846:12853  _symbol */\n  0x04\n    /* \"contracts/ERC20_flattened.sol\":12846:12863  _symbol = symbol_ */\n  tag_13\n    /* \"contracts/ERC20_flattened.sol\":12856:12863  symbol_ */\n  dup3\n    /* \"contracts/ERC20_flattened.sol\":12846:12853  _symbol */\n  dup3\n    /* \"contracts/ERC20_flattened.sol\":12846:12863  _symbol = symbol_ */\n  tag_12\n  jump\t// in\ntag_13:\n  pop\n  pop\n    /* \"contracts/ERC20_flattened.sol\":24352:24359  _paused */\n  0x05\n    /* \"contracts/ERC20_flattened.sol\":24352:24367  _paused = false */\n  dup1\n  sload\n  not(0xff)\n  and\n  swap1\n  sstore\n  pop\n  sub(shl(0xa0, 0x01), 0x01)\n    /* \"contracts/ERC20_flattened.sol\":28417:28443  initialOwner == address(0) */\n  dup2\n  and\n    /* \"contracts/ERC20_flattened.sol\":28413:28508  if (initialOwner == address(0)) {... */\n  tag_16\n  jumpi\n    /* \"contracts/ERC20_flattened.sol\":28466:28497  OwnableInvalidOwner(address(0)) */\n  mload(0x40)\n  shl(0xe0, 0x1e4fbdf7)\n  dup2\n  mstore\n    /* \"contracts/ERC20_flattened.sol\":28494:28495  0 */\n  0x00\n    /* \"contracts/ERC20_flattened.sol\":28466:28497  OwnableInvalidOwner(address(0)) */\n  0x04\n  dup3\n  add\n    /* \"#utility.yul\":3096:3147   */\n  mstore\n    /* \"#utility.yul\":3069:3087   */\n  0x24\n  add\n    /* \"contracts/ERC20_flattened.sol\":28466:28497  OwnableInvalidOwner(address(0)) */\ntag_17:\n  mload(0x40)\n  dup1\n  swap2\n  sub\n  swap1\n  revert\n    /* \"contracts/ERC20_flattened.sol\":28413:28508  if (initialOwner == address(0)) {... */\ntag_16:\n    /* \"contracts/ERC20_flattened.sol\":28517:28549  _transferOwnership(initialOwner) */\n  tag_19\n    /* \"contracts/ERC20_flattened.sol\":28536:28548  initialOwner */\n  dup2\n    /* \"contracts/ERC20_flattened.sol\":28517:28535  _transferOwnership */\n  tag_20\n    /* \"contracts/ERC20_flattened.sol\":28517:28549  _transferOwnership(initialOwner) */\n  jump\t// in\ntag_19:\n  pop\n    /* \"contracts/ERC20_flattened.sol\":77362:77407  name.toShortStringWithFallback(_nameFallback) */\n  tag_22\n    /* \"contracts/ERC20_flattened.sol\":77362:77366  name */\n  dup3\n    /* \"contracts/ERC20_flattened.sol\":77393:77406  _nameFallback */\n  0x06\n    /* \"contracts/ERC20_flattened.sol\":77362:77392  name.toShortStringWithFallback */\n  tag_23\n    /* \"contracts/ERC20_flattened.sol\":77362:77407  name.toShortStringWithFallback(_nameFallback) */\n  jump\t// in\ntag_22:\n    /* \"contracts/ERC20_flattened.sol\":77354:77407  _name = name.toShortStringWithFallback(_nameFallback) */\n  0x0120\n  mstore\n    /* \"contracts/ERC20_flattened.sol\":77428:77479  version.toShortStringWithFallback(_versionFallback) */\n  tag_24\n    /* \"contracts/ERC20_flattened.sol\":77428:77435  version */\n  dup2\n    /* \"contracts/ERC20_flattened.sol\":77462:77478  _versionFallback */\n  0x07\n    /* \"contracts/ERC20_flattened.sol\":77428:77461  version.toShortStringWithFallback */\n  tag_23\n    /* \"contracts/ERC20_flattened.sol\":77428:77479  version.toShortStringWithFallback(_versionFallback) */\n  jump\t// in\ntag_24:\n    /* \"contracts/ERC20_flattened.sol\":77417:77479  _version = version.toShortStringWithFallback(_versionFallback) */\n  0x0140\n  mstore\n    /* \"contracts/ERC20_flattened.sol\":77503:77525  keccak256(bytes(name)) */\n  dup2\n  mload\n  0x20\n  dup1\n  dup5\n  add\n  swap2\n  swap1\n  swap2\n  keccak256\n    /* \"contracts/ERC20_flattened.sol\":77489:77525  _hashedName = keccak256(bytes(name)) */\n  0xe0\n  mstore\n    /* \"contracts/ERC20_flattened.sol\":77552:77577  keccak256(bytes(version)) */\n  dup2\n  mload\n  swap1\n  dup3\n  add\n  keccak256\n    /* \"contracts/ERC20_flattened.sol\":77535:77577  _hashedVersion = keccak256(bytes(version)) */\n  0x0100\n  mstore\n    /* \"contracts/ERC20_flattened.sol\":77605:77618  block.chainid */\n  chainid\n    /* \"contracts/ERC20_flattened.sol\":77588:77618  _cachedChainId = block.chainid */\n  0xa0\n  mstore\n    /* \"contracts/ERC20_flattened.sol\":77653:77676  _buildDomainSeparator() */\n  tag_25\n    /* \"contracts/ERC20_flattened.sol\":78187:78198  _hashedName */\n  mload(0xe0)\n    /* \"contracts/ERC20_flattened.sol\":78200:78214  _hashedVersion */\n  mload(0x0100)\n    /* \"contracts/ERC20_flattened.sol\":78165:78245  abi.encode(TYPE_HASH, _hashedName, _hashedVersion, block.chainid, address(this)) */\n  0x40\n  dup1\n  mload\n    /* \"contracts/ERC20_flattened.sol\":76040:76135  keccak256(\"EIP712Domain(string name,string version,uint256 chainId,address verifyingContract)\") */\n  0x8b73c3c69bb8fe3d512ecc4cf759cc79239f7b179b0ffacaa9a75d522b39400f\n    /* \"contracts/ERC20_flattened.sol\":78165:78245  abi.encode(TYPE_HASH, _hashedName, _hashedVersion, block.chainid, address(this)) */\n  0x20\n  dup3\n  add\n    /* \"#utility.yul\":3417:3442   */\n  mstore\n    /* \"#utility.yul\":3458:3476   */\n  swap1\n  dup2\n  add\n    /* \"#utility.yul\":3451:3485   */\n  swap3\n  swap1\n  swap3\n  mstore\n    /* \"#utility.yul\":3501:3519   */\n  0x60\n  dup3\n  add\n    /* \"#utility.yul\":3494:3528   */\n  mstore\n    /* \"contracts/ERC20_flattened.sol\":78216:78229  block.chainid */\n  chainid\n    /* \"#utility.yul\":3544:3562   */\n  0x80\n  dup3\n  add\n    /* \"#utility.yul\":3537:3571   */\n  mstore\n    /* \"contracts/ERC20_flattened.sol\":78239:78243  this */\n  address\n    /* \"#utility.yul\":3587:3606   */\n  0xa0\n  dup3\n  add\n    /* \"#utility.yul\":3580:3641   */\n  mstore\n    /* \"contracts/ERC20_flattened.sol\":78129:78136  bytes32 */\n  0x00\n  swap1\n    /* \"#utility.yul\":3389:3408   */\n  0xc0\n  add\n    /* \"contracts/ERC20_flattened.sol\":78165:78245  abi.encode(TYPE_HASH, _hashedName, _hashedVersion, block.chainid, address(this)) */\n  mload(0x40)\n  0x20\n  dup2\n  dup4\n  sub\n  sub\n  dup2\n  mstore\n  swap1\n  0x40\n  mstore\n    /* \"contracts/ERC20_flattened.sol\":78155:78246  keccak256(abi.encode(TYPE_HASH, _hashedName, _hashedVersion, block.chainid, address(this))) */\n  dup1\n  mload\n  swap1\n  0x20\n  add\n  keccak256\n    /* \"contracts/ERC20_flattened.sol\":78148:78246  return keccak256(abi.encode(TYPE_HASH, _hashedName, _hashedVersion, block.chainid, address(this))) */\n  swap1\n  pop\n    /* \"contracts/ERC20_flattened.sol\":78074:78253  function _buildDomainSeparator() private view returns (bytes32) {... */\n  swap1\n  jump\n    /* \"contracts/ERC20_flattened.sol\":77653:77676  _buildDomainSeparator() */\ntag_25:\n    /* \"contracts/ERC20_flattened.sol\":77628:77676  _cachedDomainSeparator = _buildDomainSeparator() */\n  0x80\n  mstore\n  pop\n  pop\n    /* \"contracts/ERC20_flattened.sol\":77708:77712  this */\n  address\n    /* \"contracts/ERC20_flattened.sol\":77686:77713  _cachedThis = address(this) */\n  0xc0\n  mstore\n  pop\n    /* \"contracts/ERC20_flattened.sol\":84754:85445  contract MyToken is ERC20, ERC20Burnable, ERC20Pausable, Ownable, ERC20Permit {... */\n  tag_54\n  swap1\n  pop\n  jump\n    /* \"contracts/ERC20_flattened.sol\":30056:30243  function _transferOwnership(address newOwner) internal virtual {... */\ntag_20:\n    /* \"contracts/ERC20_flattened.sol\":30148:30154  _owner */\n  0x05\n  dup1\n  sload\n  sub(shl(0xa0, 0x01), 0x01)\n    /* \"contracts/ERC20_flattened.sol\":30164:30181  _owner = newOwner */\n  dup4\n  dup2\n  and\n    /* \"contracts/ERC20_flattened.sol\":30148:30154  _owner */\n  0x0100\n    /* \"contracts/ERC20_flattened.sol\":30164:30181  _owner = newOwner */\n  dup2\n  dup2\n  mul\n  not(sub(shl(0xa8, 0x01), 0x0100))\n  dup6\n  and\n  or\n  swap1\n  swap5\n  sstore\n    /* \"contracts/ERC20_flattened.sol\":30196:30236  OwnershipTransferred(oldOwner, newOwner) */\n  mload(0x40)\n    /* \"contracts/ERC20_flattened.sol\":30148:30154  _owner */\n  swap4\n  swap1\n  swap3\n  div\n  and\n  swap2\n  dup3\n  swap1\n    /* \"contracts/ERC20_flattened.sol\":30196:30236  OwnershipTransferred(oldOwner, newOwner) */\n  0x8be0079c531659141344cd1fd0a4f28419497f9722a3daafe3b4186f6b6457e0\n  swap1\n    /* \"contracts/ERC20_flattened.sol\":30129:30145  address oldOwner */\n  0x00\n  swap1\n    /* \"contracts/ERC20_flattened.sol\":30196:30236  OwnershipTransferred(oldOwner, newOwner) */\n  log3\n    /* \"contracts/ERC20_flattened.sol\":30119:30243  {... */\n  pop\n    /* \"contracts/ERC20_flattened.sol\":30056:30243  function _transferOwnership(address newOwner) internal virtual {... */\n  pop\n  jump\t// out\n    /* \"contracts/ERC20_flattened.sol\":71939:72279  function toShortStringWithFallback(string memory value, string storage store) internal returns (ShortString) {... */\ntag_23:\n    /* \"contracts/ERC20_flattened.sol\":72035:72046  ShortString */\n  0x00\n    /* \"contracts/ERC20_flattened.sol\":72084:72086  32 */\n  0x20\n    /* \"contracts/ERC20_flattened.sol\":72068:72073  value */\n  dup4\n    /* \"contracts/ERC20_flattened.sol\":72062:72081  bytes(value).length */\n  mload\n    /* \"contracts/ERC20_flattened.sol\":72062:72086  bytes(value).length < 32 */\n  lt\n    /* \"contracts/ERC20_flattened.sol\":72058:72273  if (bytes(value).length < 32) {... */\n  iszero\n  tag_32\n  jumpi\n    /* \"contracts/ERC20_flattened.sol\":72109:72129  toShortString(value) */\n  tag_33\n    /* \"contracts/ERC20_flattened.sol\":72123:72128  value */\n  dup4\n    /* \"contracts/ERC20_flattened.sol\":72109:72122  toShortString */\n  tag_34\n    /* \"contracts/ERC20_flattened.sol\":72109:72129  toShortString(value) */\n  jump\t// in\ntag_33:\n    /* \"contracts/ERC20_flattened.sol\":72102:72129  return toShortString(value) */\n  swap1\n  pop\n  jump(tag_35)\n    /* \"contracts/ERC20_flattened.sol\":72058:72273  if (bytes(value).length < 32) {... */\ntag_32:\n    /* \"contracts/ERC20_flattened.sol\":72186:72191  store */\n  dup2\n    /* \"contracts/ERC20_flattened.sol\":72160:72206  StorageSlot.getStringSlot(store).value = value */\n  tag_38\n    /* \"contracts/ERC20_flattened.sol\":72201:72206  value */\n  dup5\n    /* \"contracts/ERC20_flattened.sol\":72186:72191  store */\n  dup3\n    /* \"contracts/ERC20_flattened.sol\":72160:72206  StorageSlot.getStringSlot(store).value = value */\n  tag_12\n  jump\t// in\ntag_38:\n  pop\n    /* \"contracts/ERC20_flattened.sol\":70415:70481  0x00000000000000000000000000000000000000000000000000000000000000FF */\n  0xff\n  swap1\n  pop\n    /* \"contracts/ERC20_flattened.sol\":72058:72273  if (bytes(value).length < 32) {... */\ntag_35:\n    /* \"contracts/ERC20_flattened.sol\":71939:72279  function toShortStringWithFallback(string memory value, string storage store) internal returns (ShortString) {... */\n  swap3\n  swap2\n  pop\n  pop\n  jump\t// out\n    /* \"contracts/ERC20_flattened.sol\":70733:71019  function toShortString(string memory str) internal pure returns (ShortString) {... */\ntag_34:\n    /* \"contracts/ERC20_flattened.sol\":70798:70809  ShortString */\n  0x00\n    /* \"contracts/ERC20_flattened.sol\":70821:70838  bytes memory bstr */\n  dup1\n    /* \"contracts/ERC20_flattened.sol\":70847:70850  str */\n  dup3\n    /* \"contracts/ERC20_flattened.sol\":70821:70851  bytes memory bstr = bytes(str) */\n  swap1\n  pop\n    /* \"contracts/ERC20_flattened.sol\":70879:70881  31 */\n  0x1f\n    /* \"contracts/ERC20_flattened.sol\":70865:70869  bstr */\n  dup2\n    /* \"contracts/ERC20_flattened.sol\":70865:70876  bstr.length */\n  mload\n    /* \"contracts/ERC20_flattened.sol\":70865:70881  bstr.length > 31 */\n  gt\n    /* \"contracts/ERC20_flattened.sol\":70861:70933  if (bstr.length > 31) {... */\n  iszero\n  tag_43\n  jumpi\n    /* \"contracts/ERC20_flattened.sol\":70918:70921  str */\n  dup3\n    /* \"contracts/ERC20_flattened.sol\":70904:70922  StringTooLong(str) */\n  mload(0x40)\n  shl(0xe0, 0x305a27a9)\n  dup2\n  mstore\n  0x04\n  add\n  tag_17\n  swap2\n  swap1\n  tag_45\n  jump\t// in\n    /* \"contracts/ERC20_flattened.sol\":70861:70933  if (bstr.length > 31) {... */\ntag_43:\n    /* \"contracts/ERC20_flattened.sol\":70999:71010  bstr.length */\n  dup1\n  mload\n    /* \"contracts/ERC20_flattened.sol\":70982:70995  bytes32(bstr) */\n  tag_46\n    /* \"contracts/ERC20_flattened.sol\":70999:71003  bstr */\n  dup3\n    /* \"contracts/ERC20_flattened.sol\":70982:70995  bytes32(bstr) */\n  tag_47\n  jump\t// in\ntag_46:\n    /* \"contracts/ERC20_flattened.sol\":70974:71010  uint256(bytes32(bstr)) | bstr.length */\n  or\n  swap4\n    /* \"contracts/ERC20_flattened.sol\":70733:71019  function toShortString(string memory str) internal pure returns (ShortString) {... */\n  swap3\n  pop\n  pop\n  pop\n  jump\t// out\n    /* \"#utility.yul\":14:304   */\ntag_3:\n    /* \"#utility.yul\":84:90   */\n  0x00\n    /* \"#utility.yul\":137:139   */\n  0x20\n    /* \"#utility.yul\":125:134   */\n  dup3\n    /* \"#utility.yul\":116:123   */\n  dup5\n    /* \"#utility.yul\":112:135   */\n  sub\n    /* \"#utility.yul\":108:140   */\n  slt\n    /* \"#utility.yul\":105:157   */\n  iszero\n  tag_56\n  jumpi\n    /* \"#utility.yul\":153:154   */\n  0x00\n    /* \"#utility.yul\":150:151   */\n  dup1\n    /* \"#utility.yul\":143:155   */\n  revert\n    /* \"#utility.yul\":105:157   */\ntag_56:\n    /* \"#utility.yul\":179:195   */\n  dup2\n  mload\n  sub(shl(0xa0, 0x01), 0x01)\n    /* \"#utility.yul\":224:255   */\n  dup2\n  and\n    /* \"#utility.yul\":214:256   */\n  dup2\n  eq\n    /* \"#utility.yul\":204:274   */\n  tag_57\n  jumpi\n    /* \"#utility.yul\":270:271   */\n  0x00\n    /* \"#utility.yul\":267:268   */\n  dup1\n    /* \"#utility.yul\":260:272   */\n  revert\n    /* \"#utility.yul\":204:274   */\ntag_57:\n    /* \"#utility.yul\":293:298   */\n  swap4\n    /* \"#utility.yul\":14:304   */\n  swap3\n  pop\n  pop\n  pop\n  jump\t// out\n    /* \"#utility.yul\":309:436   */\ntag_49:\n    /* \"#utility.yul\":370:380   */\n  0x4e487b71\n    /* \"#utility.yul\":365:368   */\n  0xe0\n    /* \"#utility.yul\":361:381   */\n  shl\n    /* \"#utility.yul\":358:359   */\n  0x00\n    /* \"#utility.yul\":351:382   */\n  mstore\n    /* \"#utility.yul\":401:405   */\n  0x41\n    /* \"#utility.yul\":398:399   */\n  0x04\n    /* \"#utility.yul\":391:406   */\n  mstore\n    /* \"#utility.yul\":425:429   */\n  0x24\n    /* \"#utility.yul\":422:423   */\n  0x00\n    /* \"#utility.yul\":415:430   */\n  revert\n    /* \"#utility.yul\":441:821   */\ntag_50:\n    /* \"#utility.yul\":520:521   */\n  0x01\n    /* \"#utility.yul\":516:528   */\n  dup2\n  dup2\n  shr\n  swap1\n    /* \"#utility.yul\":563:575   */\n  dup3\n  and\n  dup1\n    /* \"#utility.yul\":584:645   */\n  tag_60\n  jumpi\n    /* \"#utility.yul\":638:642   */\n  0x7f\n    /* \"#utility.yul\":630:636   */\n  dup3\n    /* \"#utility.yul\":626:643   */\n  and\n    /* \"#utility.yul\":616:643   */\n  swap2\n  pop\n    /* \"#utility.yul\":584:645   */\ntag_60:\n    /* \"#utility.yul\":691:693   */\n  0x20\n    /* \"#utility.yul\":683:689   */\n  dup3\n    /* \"#utility.yul\":680:694   */\n  lt\n    /* \"#utility.yul\":660:678   */\n  dup2\n    /* \"#utility.yul\":657:695   */\n  sub\n    /* \"#utility.yul\":654:815   */\n  tag_61\n  jumpi\n    /* \"#utility.yul\":737:747   */\n  0x4e487b71\n    /* \"#utility.yul\":732:735   */\n  0xe0\n    /* \"#utility.yul\":728:748   */\n  shl\n    /* \"#utility.yul\":725:726   */\n  0x00\n    /* \"#utility.yul\":718:749   */\n  mstore\n    /* \"#utility.yul\":772:776   */\n  0x22\n    /* \"#utility.yul\":769:770   */\n  0x04\n    /* \"#utility.yul\":762:777   */\n  mstore\n    /* \"#utility.yul\":800:804   */\n  0x24\n    /* \"#utility.yul\":797:798   */\n  0x00\n    /* \"#utility.yul\":790:805   */\n  revert\n    /* \"#utility.yul\":654:815   */\ntag_61:\n  pop\n    /* \"#utility.yul\":441:821   */\n  swap2\n  swap1\n  pop\n  jump\t// out\n    /* \"#utility.yul\":952:1470   */\ntag_52:\n    /* \"#utility.yul\":1054:1056   */\n  0x1f\n    /* \"#utility.yul\":1049:1052   */\n  dup3\n    /* \"#utility.yul\":1046:1057   */\n  gt\n    /* \"#utility.yul\":1043:1464   */\n  iszero\n  tag_64\n  jumpi\n    /* \"#utility.yul\":1090:1095   */\n  dup1\n    /* \"#utility.yul\":1087:1088   */\n  0x00\n    /* \"#utility.yul\":1080:1096   */\n  mstore\n    /* \"#utility.yul\":1134:1138   */\n  0x20\n    /* \"#utility.yul\":1131:1132   */\n  0x00\n    /* \"#utility.yul\":1121:1139   */\n  keccak256\n    /* \"#utility.yul\":1204:1206   */\n  0x1f\n    /* \"#utility.yul\":1192:1202   */\n  dup5\n    /* \"#utility.yul\":1188:1207   */\n  add\n    /* \"#utility.yul\":1185:1186   */\n  0x05\n    /* \"#utility.yul\":1181:1208   */\n  shr\n    /* \"#utility.yul\":1175:1179   */\n  dup2\n    /* \"#utility.yul\":1171:1209   */\n  add\n    /* \"#utility.yul\":1240:1244   */\n  0x20\n    /* \"#utility.yul\":1228:1238   */\n  dup6\n    /* \"#utility.yul\":1225:1245   */\n  lt\n    /* \"#utility.yul\":1222:1269   */\n  iszero\n  tag_65\n  jumpi\n  pop\n    /* \"#utility.yul\":1263:1267   */\n  dup1\n    /* \"#utility.yul\":1222:1269   */\ntag_65:\n    /* \"#utility.yul\":1318:1320   */\n  0x1f\n    /* \"#utility.yul\":1313:1316   */\n  dup5\n    /* \"#utility.yul\":1309:1321   */\n  add\n    /* \"#utility.yul\":1306:1307   */\n  0x05\n    /* \"#utility.yul\":1302:1322   */\n  shr\n    /* \"#utility.yul\":1296:1300   */\n  dup3\n    /* \"#utility.yul\":1292:1323   */\n  add\n    /* \"#utility.yul\":1282:1323   */\n  swap2\n  pop\n    /* \"#utility.yul\":1373:1454   */\ntag_66:\n    /* \"#utility.yul\":1391:1393   */\n  dup2\n    /* \"#utility.yul\":1384:1389   */\n  dup2\n    /* \"#utility.yul\":1381:1394   */\n  lt\n    /* \"#utility.yul\":1373:1454   */\n  iszero\n  tag_68\n  jumpi\n    /* \"#utility.yul\":1450:1451   */\n  0x00\n    /* \"#utility.yul\":1436:1452   */\n  dup2\n  sstore\n    /* \"#utility.yul\":1417:1418   */\n  0x01\n    /* \"#utility.yul\":1406:1419   */\n  add\n    /* \"#utility.yul\":1373:1454   */\n  jump(tag_66)\ntag_68:\n    /* \"#utility.yul\":1377:1380   */\n  pop\n  pop\n    /* \"#utility.yul\":1043:1464   */\ntag_64:\n    /* \"#utility.yul\":952:1470   */\n  pop\n  pop\n  pop\n  jump\t// out\n    /* \"#utility.yul\":1646:2945   */\ntag_12:\n    /* \"#utility.yul\":1766:1776   */\n  dup2\n  mload\n  sub(shl(0x40, 0x01), 0x01)\n    /* \"#utility.yul\":1788:1818   */\n  dup2\n  gt\n    /* \"#utility.yul\":1785:1841   */\n  iszero\n  tag_72\n  jumpi\n    /* \"#utility.yul\":1821:1839   */\n  tag_72\n  tag_49\n  jump\t// in\ntag_72:\n    /* \"#utility.yul\":1850:1947   */\n  tag_73\n    /* \"#utility.yul\":1940:1946   */\n  dup2\n    /* \"#utility.yul\":1900:1938   */\n  tag_74\n    /* \"#utility.yul\":1932:1936   */\n  dup5\n    /* \"#utility.yul\":1926:1937   */\n  sload\n    /* \"#utility.yul\":1900:1938   */\n  tag_50\n  jump\t// in\ntag_74:\n    /* \"#utility.yul\":1894:1898   */\n  dup5\n    /* \"#utility.yul\":1850:1947   */\n  tag_52\n  jump\t// in\ntag_73:\n    /* \"#utility.yul\":1996:2000   */\n  0x20\n    /* \"#utility.yul\":2027:2029   */\n  0x1f\n    /* \"#utility.yul\":2016:2030   */\n  dup3\n  gt\n    /* \"#utility.yul\":2044:2045   */\n  0x01\n    /* \"#utility.yul\":2039:2688   */\n  dup2\n  eq\n  tag_76\n  jumpi\n    /* \"#utility.yul\":2732:2733   */\n  0x00\n    /* \"#utility.yul\":2749:2755   */\n  dup4\n    /* \"#utility.yul\":2746:2835   */\n  iszero\n  tag_77\n  jumpi\n  pop\n    /* \"#utility.yul\":2801:2820   */\n  dup5\n  dup3\n  add\n    /* \"#utility.yul\":2795:2821   */\n  mload\n    /* \"#utility.yul\":2746:2835   */\ntag_77:\n  not(0x00)\n    /* \"#utility.yul\":1603:1604   */\n  0x03\n    /* \"#utility.yul\":1599:1610   */\n  dup6\n  swap1\n  shl\n    /* \"#utility.yul\":1595:1619   */\n  shr\n    /* \"#utility.yul\":1591:1620   */\n  not\n    /* \"#utility.yul\":1581:1621   */\n  and\n    /* \"#utility.yul\":1627:1628   */\n  0x01\n    /* \"#utility.yul\":1623:1634   */\n  dup5\n  swap1\n  shl\n    /* \"#utility.yul\":1578:1635   */\n  or\n    /* \"#utility.yul\":2848:2929   */\n  dup5\n  sstore\n    /* \"#utility.yul\":2009:2939   */\n  jump(tag_68)\n    /* \"#utility.yul\":2039:2688   */\ntag_76:\n    /* \"#utility.yul\":899:900   */\n  0x00\n    /* \"#utility.yul\":892:906   */\n  dup5\n  dup2\n  mstore\n    /* \"#utility.yul\":936:940   */\n  0x20\n    /* \"#utility.yul\":923:941   */\n  dup2\n  keccak256\n  not(0x1f)\n    /* \"#utility.yul\":2075:2095   */\n  dup6\n  and\n  swap2\n    /* \"#utility.yul\":2193:2415   */\ntag_80:\n    /* \"#utility.yul\":2207:2214   */\n  dup3\n    /* \"#utility.yul\":2204:2205   */\n  dup2\n    /* \"#utility.yul\":2201:2215   */\n  lt\n    /* \"#utility.yul\":2193:2415   */\n  iszero\n  tag_82\n  jumpi\n    /* \"#utility.yul\":2289:2308   */\n  dup8\n  dup6\n  add\n    /* \"#utility.yul\":2283:2309   */\n  mload\n    /* \"#utility.yul\":2268:2310   */\n  dup3\n  sstore\n    /* \"#utility.yul\":2396:2400   */\n  0x20\n    /* \"#utility.yul\":2381:2401   */\n  swap5\n  dup6\n  add\n  swap5\n    /* \"#utility.yul\":2349:2350   */\n  0x01\n    /* \"#utility.yul\":2337:2351   */\n  swap1\n  swap3\n  add\n  swap2\n    /* \"#utility.yul\":2223:2235   */\n  add\n    /* \"#utility.yul\":2193:2415   */\n  jump(tag_80)\ntag_82:\n    /* \"#utility.yul\":2197:2200   */\n  pop\n    /* \"#utility.yul\":2443:2449   */\n  dup5\n    /* \"#utility.yul\":2434:2441   */\n  dup3\n    /* \"#utility.yul\":2431:2450   */\n  lt\n    /* \"#utility.yul\":2428:2629   */\n  iszero\n  tag_83\n  jumpi\n    /* \"#utility.yul\":2504:2523   */\n  dup7\n  dup5\n  add\n    /* \"#utility.yul\":2498:2524   */\n  mload\n  not(0x00)\n    /* \"#utility.yul\":2587:2588   */\n  0x03\n    /* \"#utility.yul\":2583:2597   */\n  dup8\n  swap1\n  shl\n    /* \"#utility.yul\":2599:2602   */\n  0xf8\n    /* \"#utility.yul\":2579:2603   */\n  and\n    /* \"#utility.yul\":2575:2612   */\n  shr\n    /* \"#utility.yul\":2571:2613   */\n  not\n    /* \"#utility.yul\":2556:2614   */\n  and\n    /* \"#utility.yul\":2541:2615   */\n  dup2\n  sstore\n    /* \"#utility.yul\":2428:2629   */\ntag_83:\n  pop\n  pop\n  pop\n  pop\n    /* \"#utility.yul\":2675:2676   */\n  0x01\n    /* \"#utility.yul\":2659:2673   */\n  swap1\n  dup2\n  shl\n    /* \"#utility.yul\":2655:2677   */\n  add\n    /* \"#utility.yul\":2642:2678   */\n  swap1\n  sstore\n  pop\n    /* \"#utility.yul\":1646:2945   */\n  jump\t// out\n    /* \"#utility.yul\":3652:4070   */\ntag_45:\n    /* \"#utility.yul\":3801:3803   */\n  0x20\n    /* \"#utility.yul\":3790:3799   */\n  dup2\n    /* \"#utility.yul\":3783:3804   */\n  mstore\n    /* \"#utility.yul\":3764:3768   */\n  0x00\n    /* \"#utility.yul\":3833:3839   */\n  dup3\n    /* \"#utility.yul\":3827:3840   */\n  mload\n    /* \"#utility.yul\":3876:3882   */\n  dup1\n    /* \"#utility.yul\":3871:3873   */\n  0x20\n    /* \"#utility.yul\":3860:3869   */\n  dup5\n    /* \"#utility.yul\":3856:3874   */\n  add\n    /* \"#utility.yul\":3849:3883   */\n  mstore\n    /* \"#utility.yul\":3935:3941   */\n  dup1\n    /* \"#utility.yul\":3930:3932   */\n  0x20\n    /* \"#utility.yul\":3922:3928   */\n  dup6\n    /* \"#utility.yul\":3918:3933   */\n  add\n    /* \"#utility.yul\":3913:3915   */\n  0x40\n    /* \"#utility.yul\":3902:3911   */\n  dup6\n    /* \"#utility.yul\":3898:3916   */\n  add\n    /* \"#utility.yul\":3892:3942   */\n  mcopy\n    /* \"#utility.yul\":3991:3992   */\n  0x00\n    /* \"#utility.yul\":3986:3988   */\n  0x40\n    /* \"#utility.yul\":3977:3983   */\n  dup3\n    /* \"#utility.yul\":3966:3975   */\n  dup6\n    /* \"#utility.yul\":3962:3984   */\n  add\n    /* \"#utility.yul\":3958:3989   */\n  add\n    /* \"#utility.yul\":3951:3993   */\n  mstore\n    /* \"#utility.yul\":4061:4063   */\n  0x40\n    /* \"#utility.yul\":4054:4056   */\n  0x1f\n    /* \"#utility.yul\":4050:4057   */\n  not\n    /* \"#utility.yul\":4045:4047   */\n  0x1f\n    /* \"#utility.yul\":4037:4043   */\n  dup4\n    /* \"#utility.yul\":4033:4048   */\n  add\n    /* \"#utility.yul\":4029:4058   */\n  and\n    /* \"#utility.yul\":4018:4027   */\n  dup5\n    /* \"#utility.yul\":4014:4059   */\n  add\n    /* \"#utility.yul\":4010:4064   */\n  add\n    /* \"#utility.yul\":4002:4064   */\n  swap2\n  pop\n  pop\n    /* \"#utility.yul\":3652:4070   */\n  swap3\n  swap2\n  pop\n  pop\n  jump\t// out\n    /* \"#utility.yul\":4075:4372   */\ntag_47:\n    /* \"#utility.yul\":4193:4205   */\n  dup1\n  mload\n    /* \"#utility.yul\":4240:4244   */\n  0x20\n    /* \"#utility.yul\":4229:4245   */\n  dup1\n  dup4\n  add\n    /* \"#utility.yul\":4223:4246   */\n  mload\n  swap2\n    /* \"#utility.yul\":4193:4205   */\n  swap1\n    /* \"#utility.yul\":4258:4274   */\n  dup2\n  lt\n    /* \"#utility.yul\":4255:4366   */\n  iszero\n  tag_61\n  jumpi\n  not(0x00)\n    /* \"#utility.yul\":4332:4336   */\n  0x20\n    /* \"#utility.yul\":4328:4345   */\n  swap2\n  swap1\n  swap2\n  sub\n    /* \"#utility.yul\":4325:4326   */\n  0x03\n    /* \"#utility.yul\":4321:4346   */\n  shl\n    /* \"#utility.yul\":4317:4355   */\n  shl\n    /* \"#utility.yul\":4306:4356   */\n  and\n  swap2\n    /* \"#utility.yul\":4075:4372   */\n  swap1\n  pop\n  jump\t// out\ntag_54:\n    /* \"contracts/ERC20_flattened.sol\":84754:85445  contract MyToken is ERC20, ERC20Burnable, ERC20Pausable, Ownable, ERC20Permit {... */\n  mload(0x80)\n  mload(0xa0)\n  mload(0xc0)\n  mload(0xe0)\n  mload(0x0100)\n  mload(0x0120)\n  mload(0x0140)\n  codecopy(0x00, dataOffset(sub_0), dataSize(sub_0))\n  0x00\n  assignImmutable(\"0xef17f12455e22a45134579834cdca993c5eec3070954e76052dcfac9f22697b4\")\n  0x00\n  assignImmutable(\"0xb8163922f365f2d54f6122835c04019c69b181c4b5bf7a62d07ca62e91817bd9\")\n  0x00\n  assignImmutable(\"0xc9c370779fd62a0c7c118a2246ccad4c103473123315c14d4e476e7f4b22843f\")\n  0x00\n  assignImmutable(\"0xf40d89e88f976c0e4eebddab04ab11e8eb9a648fae2f79611f9b9f54d5ffefc8\")\n  0x00\n  assignImmutable(\"0xce191cb8321ca757450c20e87b57fa44746b6a87612dab9cf25801eef5ed67f8\")\n  0x00\n  assignImmutable(\"0x1a100bb1148e9e506f9ba8ec1947d4f84b922b6e9d33f30c8d12f2e351bcf10c\")\n  0x00\n  assignImmutable(\"0x29952515f5d57954abac5ab7b1327bd7bcbb5425c05d93673edc46b02d7cb56d\")\n  return(0x00, dataSize(sub_0))\nstop\n\nsub_0: assembly {\n        /* \"contracts/ERC20_flattened.sol\":84754:85445  contract MyToken is ERC20, ERC20Burnable, ERC20Pausable, Ownable, ERC20Permit {... */\n      mstore(0x40, 0x80)\n      callvalue\n      dup1\n      iszero\n      tag_1\n      jumpi\n      0x00\n      dup1\n      revert\n    tag_1:\n      pop\n      jumpi(tag_2, lt(calldatasize, 0x04))\n      shr(0xe0, calldataload(0x00))\n      dup1\n      0x715018a6\n      gt\n      tag_25\n      jumpi\n      dup1\n      0x8da5cb5b\n      gt\n      tag_26\n      jumpi\n      dup1\n      0x8da5cb5b\n      eq\n      tag_19\n      jumpi\n      dup1\n      0x95d89b41\n      eq\n      tag_20\n      jumpi\n      dup1\n      0xa9059cbb\n      eq\n      tag_21\n      jumpi\n      dup1\n      0xd505accf\n      eq\n      tag_22\n      jumpi\n      dup1\n      0xdd62ed3e\n      eq\n      tag_23\n      jumpi\n      dup1\n      0xf2fde38b\n      eq\n      tag_24\n      jumpi\n      0x00\n      dup1\n      revert\n    tag_26:\n      dup1\n      0x715018a6\n      eq\n      tag_14\n      jumpi\n      dup1\n      0x79cc6790\n      eq\n      tag_15\n      jumpi\n      dup1\n      0x7ecebe00\n      eq\n      tag_16\n      jumpi\n      dup1\n      0x8456cb59\n      eq\n      tag_17\n      jumpi\n      dup1\n      0x84b0196e\n      eq\n      tag_18\n      jumpi\n      0x00\n      dup1\n      revert\n    tag_25:\n      dup1\n      0x3644e515\n      gt\n      tag_27\n      jumpi\n      dup1\n      0x3644e515\n      eq\n      tag_8\n      jumpi\n      dup1\n      0x3f4ba83a\n      eq\n      tag_9\n      jumpi\n      dup1\n      0x40c10f19\n      eq\n      tag_10\n      jumpi\n      dup1\n      0x42966c68\n      eq\n      tag_11\n      jumpi\n      dup1\n      0x5c975abb\n      eq\n      tag_12\n      jumpi\n      dup1\n      0x70a08231\n      eq\n      tag_13\n      jumpi\n      0x00\n      dup1\n      revert\n    tag_27:\n      dup1\n      0x06fdde03\n      eq\n      tag_3\n      jumpi\n      dup1\n      0x095ea7b3\n      eq\n      tag_4\n      jumpi\n      dup1\n      0x18160ddd\n      eq\n      tag_5\n      jumpi\n      dup1\n      0x23b872dd\n      eq\n      tag_6\n      jumpi\n      dup1\n      0x313ce567\n      eq\n      tag_7\n      jumpi\n    tag_2:\n      0x00\n      dup1\n      revert\n        /* \"contracts/ERC20_flattened.sol\":12935:13024  function name() public view virtual returns (string memory) {... */\n    tag_3:\n      tag_28\n      tag_29\n      jump\t// in\n    tag_28:\n      mload(0x40)\n      tag_30\n      swap2\n      swap1\n      tag_31\n      jump\t// in\n    tag_30:\n      mload(0x40)\n      dup1\n      swap2\n      sub\n      swap1\n      return\n        /* \"contracts/ERC20_flattened.sol\":15154:15340  function approve(address spender, uint256 value) public virtual returns (bool) {... */\n    tag_4:\n      tag_32\n      tag_33\n      calldatasize\n      0x04\n      tag_34\n      jump\t// in\n    tag_33:\n      tag_35\n      jump\t// in\n    tag_32:\n      mload(0x40)\n        /* \"#utility.yul\":1181:1195   */\n      swap1\n      iszero\n        /* \"#utility.yul\":1174:1196   */\n      iszero\n        /* \"#utility.yul\":1156:1197   */\n      dup2\n      mstore\n        /* \"#utility.yul\":1144:1146   */\n      0x20\n        /* \"#utility.yul\":1129:1147   */\n      add\n        /* \"contracts/ERC20_flattened.sol\":15154:15340  function approve(address spender, uint256 value) public virtual returns (bool) {... */\n      tag_30\n        /* \"#utility.yul\":1016:1203   */\n      jump\n        /* \"contracts/ERC20_flattened.sol\":14005:14102  function totalSupply() public view virtual returns (uint256) {... */\n    tag_5:\n        /* \"contracts/ERC20_flattened.sol\":14083:14095  _totalSupply */\n      sload(0x02)\n        /* \"contracts/ERC20_flattened.sol\":14005:14102  function totalSupply() public view virtual returns (uint256) {... */\n    tag_38:\n      mload(0x40)\n        /* \"#utility.yul\":1354:1379   */\n      swap1\n      dup2\n      mstore\n        /* \"#utility.yul\":1342:1344   */\n      0x20\n        /* \"#utility.yul\":1327:1345   */\n      add\n        /* \"contracts/ERC20_flattened.sol\":14005:14102  function totalSupply() public view virtual returns (uint256) {... */\n      tag_30\n        /* \"#utility.yul\":1208:1385   */\n      jump\n        /* \"contracts/ERC20_flattened.sol\":15900:16144  function transferFrom(address from, address to, uint256 value) public virtual returns (bool) {... */\n    tag_6:\n      tag_32\n      tag_43\n      calldatasize\n      0x04\n      tag_44\n      jump\t// in\n    tag_43:\n      tag_45\n      jump\t// in\n        /* \"contracts/ERC20_flattened.sol\":13863:13945  function decimals() public view virtual returns (uint8) {... */\n    tag_7:\n      mload(0x40)\n        /* \"contracts/ERC20_flattened.sol\":13936:13938  18 */\n      0x12\n        /* \"#utility.yul\":1911:1947   */\n      dup2\n      mstore\n        /* \"#utility.yul\":1899:1901   */\n      0x20\n        /* \"#utility.yul\":1884:1902   */\n      add\n        /* \"contracts/ERC20_flattened.sol\":13863:13945  function decimals() public view virtual returns (uint8) {... */\n      tag_30\n        /* \"#utility.yul\":1769:1953   */\n      jump\n        /* \"contracts/ERC20_flattened.sol\":84527:84639  function DOMAIN_SEPARATOR() external view virtual returns (bytes32) {... */\n    tag_8:\n      tag_38\n      tag_52\n      jump\t// in\n        /* \"contracts/ERC20_flattened.sol\":85042:85105  function unpause() public onlyOwner {... */\n    tag_9:\n      tag_55\n      tag_56\n      jump\t// in\n    tag_55:\n      stop\n        /* \"contracts/ERC20_flattened.sol\":85111:85204  function mint(address to, uint256 amount) public onlyOwner {... */\n    tag_10:\n      tag_55\n      tag_58\n      calldatasize\n      0x04\n      tag_34\n      jump\t// in\n    tag_58:\n      tag_59\n      jump\t// in\n        /* \"contracts/ERC20_flattened.sol\":22580:22667  function burn(uint256 value) public virtual {... */\n    tag_11:\n      tag_55\n      tag_61\n      calldatasize\n      0x04\n      tag_62\n      jump\t// in\n    tag_61:\n      tag_63\n      jump\t// in\n        /* \"contracts/ERC20_flattened.sol\":24971:25055  function paused() public view virtual returns (bool) {... */\n    tag_12:\n        /* \"contracts/ERC20_flattened.sol\":25041:25048  _paused */\n      and(0xff, sload(0x05))\n        /* \"contracts/ERC20_flattened.sol\":24971:25055  function paused() public view virtual returns (bool) {... */\n      jump(tag_32)\n        /* \"contracts/ERC20_flattened.sol\":14160:14276  function balanceOf(address account) public view virtual returns (uint256) {... */\n    tag_13:\n      tag_38\n      tag_68\n      calldatasize\n      0x04\n      tag_69\n      jump\t// in\n    tag_68:\n      sub(shl(0xa0, 0x01), 0x01)\n        /* \"contracts/ERC20_flattened.sol\":14251:14269  _balances[account] */\n      and\n        /* \"contracts/ERC20_flattened.sol\":14225:14232  uint256 */\n      0x00\n        /* \"contracts/ERC20_flattened.sol\":14251:14269  _balances[account] */\n      swap1\n      dup2\n      mstore\n      0x20\n      dup2\n      swap1\n      mstore\n      0x40\n      swap1\n      keccak256\n      sload\n      swap1\n        /* \"contracts/ERC20_flattened.sol\":14160:14276  function balanceOf(address account) public view virtual returns (uint256) {... */\n      jump\n        /* \"contracts/ERC20_flattened.sol\":29437:29538  function renounceOwnership() public virtual onlyOwner {... */\n    tag_14:\n      tag_55\n      tag_73\n      jump\t// in\n        /* \"contracts/ERC20_flattened.sol\":22983:23141  function burnFrom(address account, uint256 value) public virtual {... */\n    tag_15:\n      tag_55\n      tag_75\n      calldatasize\n      0x04\n      tag_34\n      jump\t// in\n    tag_75:\n      tag_76\n      jump\t// in\n        /* \"contracts/ERC20_flattened.sol\":84277:84420  function nonces(address owner) public view virtual override(IERC20Permit, Nonces) returns (uint256) {... */\n    tag_16:\n      tag_38\n      tag_78\n      calldatasize\n      0x04\n      tag_69\n      jump\t// in\n    tag_78:\n      tag_79\n      jump\t// in\n        /* \"contracts/ERC20_flattened.sol\":84977:85036  function pause() public onlyOwner {... */\n    tag_17:\n      tag_55\n      tag_82\n      jump\t// in\n        /* \"contracts/ERC20_flattened.sol\":79105:79662  function eip712Domain()... */\n    tag_18:\n      tag_83\n      tag_84\n      jump\t// in\n    tag_83:\n      mload(0x40)\n      tag_30\n      swap8\n      swap7\n      swap6\n      swap5\n      swap4\n      swap3\n      swap2\n      swap1\n      tag_86\n      jump\t// in\n        /* \"contracts/ERC20_flattened.sol\":28782:28867  function owner() public view virtual returns (address) {... */\n    tag_19:\n        /* \"contracts/ERC20_flattened.sol\":28854:28860  _owner */\n      sload(0x05)\n      0x0100\n      swap1\n      div\n      sub(shl(0xa0, 0x01), 0x01)\n      and\n        /* \"contracts/ERC20_flattened.sol\":28782:28867  function owner() public view virtual returns (address) {... */\n      mload(0x40)\n      sub(shl(0xa0, 0x01), 0x01)\n        /* \"#utility.yul\":3969:4001   */\n      swap1\n      swap2\n      and\n        /* \"#utility.yul\":3951:4002   */\n      dup2\n      mstore\n        /* \"#utility.yul\":3939:3941   */\n      0x20\n        /* \"#utility.yul\":3924:3942   */\n      add\n        /* \"contracts/ERC20_flattened.sol\":28782:28867  function owner() public view virtual returns (address) {... */\n      tag_30\n        /* \"#utility.yul\":3805:4008   */\n      jump\n        /* \"contracts/ERC20_flattened.sol\":13137:13230  function symbol() public view virtual returns (string memory) {... */\n    tag_20:\n      tag_28\n      tag_92\n      jump\t// in\n        /* \"contracts/ERC20_flattened.sol\":14471:14649  function transfer(address to, uint256 value) public virtual returns (bool) {... */\n    tag_21:\n      tag_32\n      tag_95\n      calldatasize\n      0x04\n      tag_34\n      jump\t// in\n    tag_95:\n      tag_96\n      jump\t// in\n        /* \"contracts/ERC20_flattened.sol\":83551:84223  function permit(... */\n    tag_22:\n      tag_55\n      tag_99\n      calldatasize\n      0x04\n      tag_100\n      jump\t// in\n    tag_99:\n      tag_101\n      jump\t// in\n        /* \"contracts/ERC20_flattened.sol\":14707:14847  function allowance(address owner, address spender) public view virtual returns (uint256) {... */\n    tag_23:\n      tag_38\n      tag_103\n      calldatasize\n      0x04\n      tag_104\n      jump\t// in\n    tag_103:\n      sub(shl(0xa0, 0x01), 0x01)\n        /* \"contracts/ERC20_flattened.sol\":14813:14831  _allowances[owner] */\n      swap2\n      dup3\n      and\n        /* \"contracts/ERC20_flattened.sol\":14787:14794  uint256 */\n      0x00\n        /* \"contracts/ERC20_flattened.sol\":14813:14831  _allowances[owner] */\n      swap1\n      dup2\n      mstore\n        /* \"contracts/ERC20_flattened.sol\":14813:14824  _allowances */\n      0x01\n        /* \"contracts/ERC20_flattened.sol\":14813:14831  _allowances[owner] */\n      0x20\n      swap1\n      dup2\n      mstore\n      0x40\n      dup1\n      dup4\n      keccak256\n        /* \"contracts/ERC20_flattened.sol\":14813:14840  _allowances[owner][spender] */\n      swap4\n      swap1\n      swap5\n      and\n      dup3\n      mstore\n      swap2\n      swap1\n      swap2\n      mstore\n      keccak256\n      sload\n      swap1\n        /* \"contracts/ERC20_flattened.sol\":14707:14847  function allowance(address owner, address spender) public view virtual returns (uint256) {... */\n      jump\n        /* \"contracts/ERC20_flattened.sol\":29687:29902  function transferOwnership(address newOwner) public virtual onlyOwner {... */\n    tag_24:\n      tag_55\n      tag_108\n      calldatasize\n      0x04\n      tag_69\n      jump\t// in\n    tag_108:\n      tag_109\n      jump\t// in\n        /* \"contracts/ERC20_flattened.sol\":12935:13024  function name() public view virtual returns (string memory) {... */\n    tag_29:\n        /* \"contracts/ERC20_flattened.sol\":12980:12993  string memory */\n      0x60\n        /* \"contracts/ERC20_flattened.sol\":13012:13017  _name */\n      0x03\n        /* \"contracts/ERC20_flattened.sol\":13005:13017  return _name */\n      dup1\n      sload\n      tag_111\n      swap1\n      tag_112\n      jump\t// in\n    tag_111:\n      dup1\n      0x1f\n      add\n      0x20\n      dup1\n      swap2\n      div\n      mul\n      0x20\n      add\n      mload(0x40)\n      swap1\n      dup2\n      add\n      0x40\n      mstore\n      dup1\n      swap3\n      swap2\n      swap1\n      dup2\n      dup2\n      mstore\n      0x20\n      add\n      dup3\n      dup1\n      sload\n      tag_113\n      swap1\n      tag_112\n      jump\t// in\n    tag_113:\n      dup1\n      iszero\n      tag_114\n      jumpi\n      dup1\n      0x1f\n      lt\n      tag_115\n      jumpi\n      0x0100\n      dup1\n      dup4\n      sload\n      div\n      mul\n      dup4\n      mstore\n      swap2\n      0x20\n      add\n      swap2\n      jump(tag_114)\n    tag_115:\n      dup3\n      add\n      swap2\n      swap1\n      0x00\n      mstore\n      keccak256(0x00, 0x20)\n      swap1\n    tag_116:\n      dup2\n      sload\n      dup2\n      mstore\n      swap1\n      0x01\n      add\n      swap1\n      0x20\n      add\n      dup1\n      dup4\n      gt\n      tag_116\n      jumpi\n      dup3\n      swap1\n      sub\n      0x1f\n      and\n      dup3\n      add\n      swap2\n    tag_114:\n      pop\n      pop\n      pop\n      pop\n      pop\n      swap1\n      pop\n        /* \"contracts/ERC20_flattened.sol\":12935:13024  function name() public view virtual returns (string memory) {... */\n      swap1\n      jump\t// out\n        /* \"contracts/ERC20_flattened.sol\":15154:15340  function approve(address spender, uint256 value) public virtual returns (bool) {... */\n    tag_35:\n        /* \"contracts/ERC20_flattened.sol\":15227:15231  bool */\n      0x00\n        /* \"contracts/ERC20_flattened.sol\":4254:4264  msg.sender */\n      caller\n        /* \"contracts/ERC20_flattened.sol\":15281:15312  _approve(owner, spender, value) */\n      tag_120\n        /* \"contracts/ERC20_flattened.sol\":4254:4264  msg.sender */\n      dup2\n        /* \"contracts/ERC20_flattened.sol\":15297:15304  spender */\n      dup6\n        /* \"contracts/ERC20_flattened.sol\":15306:15311  value */\n      dup6\n        /* \"contracts/ERC20_flattened.sol\":15281:15289  _approve */\n      tag_121\n        /* \"contracts/ERC20_flattened.sol\":15281:15312  _approve(owner, spender, value) */\n      jump\t// in\n    tag_120:\n        /* \"contracts/ERC20_flattened.sol\":15329:15333  true */\n      0x01\n        /* \"contracts/ERC20_flattened.sol\":15322:15333  return true */\n      swap2\n      pop\n      pop\n        /* \"contracts/ERC20_flattened.sol\":15154:15340  function approve(address spender, uint256 value) public virtual returns (bool) {... */\n    tag_117:\n      swap3\n      swap2\n      pop\n      pop\n      jump\t// out\n        /* \"contracts/ERC20_flattened.sol\":15900:16144  function transferFrom(address from, address to, uint256 value) public virtual returns (bool) {... */\n    tag_45:\n        /* \"contracts/ERC20_flattened.sol\":15987:15991  bool */\n      0x00\n        /* \"contracts/ERC20_flattened.sol\":4254:4264  msg.sender */\n      caller\n        /* \"contracts/ERC20_flattened.sol\":16043:16080  _spendAllowance(from, spender, value) */\n      tag_125\n        /* \"contracts/ERC20_flattened.sol\":16059:16063  from */\n      dup6\n        /* \"contracts/ERC20_flattened.sol\":4254:4264  msg.sender */\n      dup3\n        /* \"contracts/ERC20_flattened.sol\":16074:16079  value */\n      dup6\n        /* \"contracts/ERC20_flattened.sol\":16043:16058  _spendAllowance */\n      tag_126\n        /* \"contracts/ERC20_flattened.sol\":16043:16080  _spendAllowance(from, spender, value) */\n      jump\t// in\n    tag_125:\n        /* \"contracts/ERC20_flattened.sol\":16090:16116  _transfer(from, to, value) */\n      tag_127\n        /* \"contracts/ERC20_flattened.sol\":16100:16104  from */\n      dup6\n        /* \"contracts/ERC20_flattened.sol\":16106:16108  to */\n      dup6\n        /* \"contracts/ERC20_flattened.sol\":16110:16115  value */\n      dup6\n        /* \"contracts/ERC20_flattened.sol\":16090:16099  _transfer */\n      tag_128\n        /* \"contracts/ERC20_flattened.sol\":16090:16116  _transfer(from, to, value) */\n      jump\t// in\n    tag_127:\n      pop\n        /* \"contracts/ERC20_flattened.sol\":16133:16137  true */\n      0x01\n      swap5\n        /* \"contracts/ERC20_flattened.sol\":15900:16144  function transferFrom(address from, address to, uint256 value) public virtual returns (bool) {... */\n      swap4\n      pop\n      pop\n      pop\n      pop\n      jump\t// out\n        /* \"contracts/ERC20_flattened.sol\":84527:84639  function DOMAIN_SEPARATOR() external view virtual returns (bytes32) {... */\n    tag_52:\n        /* \"contracts/ERC20_flattened.sol\":84586:84593  bytes32 */\n      0x00\n        /* \"contracts/ERC20_flattened.sol\":84612:84632  _domainSeparatorV4() */\n      tag_131\n        /* \"contracts/ERC20_flattened.sol\":84612:84630  _domainSeparatorV4 */\n      tag_132\n        /* \"contracts/ERC20_flattened.sol\":84612:84632  _domainSeparatorV4() */\n      jump\t// in\n    tag_131:\n        /* \"contracts/ERC20_flattened.sol\":84605:84632  return _domainSeparatorV4() */\n      swap1\n      pop\n        /* \"contracts/ERC20_flattened.sol\":84527:84639  function DOMAIN_SEPARATOR() external view virtual returns (bytes32) {... */\n      swap1\n      jump\t// out\n        /* \"contracts/ERC20_flattened.sol\":85042:85105  function unpause() public onlyOwner {... */\n    tag_56:\n        /* \"contracts/ERC20_flattened.sol\":28675:28688  _checkOwner() */\n      tag_134\n        /* \"contracts/ERC20_flattened.sol\":28675:28686  _checkOwner */\n      tag_135\n        /* \"contracts/ERC20_flattened.sol\":28675:28688  _checkOwner() */\n      jump\t// in\n    tag_134:\n        /* \"contracts/ERC20_flattened.sol\":85088:85098  _unpause() */\n      tag_137\n        /* \"contracts/ERC20_flattened.sol\":85088:85096  _unpause */\n      tag_138\n        /* \"contracts/ERC20_flattened.sol\":85088:85098  _unpause() */\n      jump\t// in\n    tag_137:\n        /* \"contracts/ERC20_flattened.sol\":85042:85105  function unpause() public onlyOwner {... */\n      jump\t// out\n        /* \"contracts/ERC20_flattened.sol\":85111:85204  function mint(address to, uint256 amount) public onlyOwner {... */\n    tag_59:\n        /* \"contracts/ERC20_flattened.sol\":28675:28688  _checkOwner() */\n      tag_140\n        /* \"contracts/ERC20_flattened.sol\":28675:28686  _checkOwner */\n      tag_135\n        /* \"contracts/ERC20_flattened.sol\":28675:28688  _checkOwner() */\n      jump\t// in\n    tag_140:\n        /* \"contracts/ERC20_flattened.sol\":85180:85197  _mint(to, amount) */\n      tag_142\n        /* \"contracts/ERC20_flattened.sol\":85186:85188  to */\n      dup3\n        /* \"contracts/ERC20_flattened.sol\":85190:85196  amount */\n      dup3\n        /* \"contracts/ERC20_flattened.sol\":85180:85185  _mint */\n      tag_143\n        /* \"contracts/ERC20_flattened.sol\":85180:85197  _mint(to, amount) */\n      jump\t// in\n    tag_142:\n        /* \"contracts/ERC20_flattened.sol\":85111:85204  function mint(address to, uint256 amount) public onlyOwner {... */\n      pop\n      pop\n      jump\t// out\n        /* \"contracts/ERC20_flattened.sol\":22580:22667  function burn(uint256 value) public virtual {... */\n    tag_63:\n        /* \"contracts/ERC20_flattened.sol\":22634:22660  _burn(_msgSender(), value) */\n      tag_145\n        /* \"contracts/ERC20_flattened.sol\":4254:4264  msg.sender */\n      caller\n        /* \"contracts/ERC20_flattened.sol\":22654:22659  value */\n      dup3\n        /* \"contracts/ERC20_flattened.sol\":22634:22639  _burn */\n      tag_147\n        /* \"contracts/ERC20_flattened.sol\":22634:22660  _burn(_msgSender(), value) */\n      jump\t// in\n    tag_145:\n        /* \"contracts/ERC20_flattened.sol\":22580:22667  function burn(uint256 value) public virtual {... */\n      pop\n      jump\t// out\n        /* \"contracts/ERC20_flattened.sol\":29437:29538  function renounceOwnership() public virtual onlyOwner {... */\n    tag_73:\n        /* \"contracts/ERC20_flattened.sol\":28675:28688  _checkOwner() */\n      tag_151\n        /* \"contracts/ERC20_flattened.sol\":28675:28686  _checkOwner */\n      tag_135\n        /* \"contracts/ERC20_flattened.sol\":28675:28688  _checkOwner() */\n      jump\t// in\n    tag_151:\n        /* \"contracts/ERC20_flattened.sol\":29501:29531  _transferOwnership(address(0)) */\n      tag_137\n        /* \"contracts/ERC20_flattened.sol\":29528:29529  0 */\n      0x00\n        /* \"contracts/ERC20_flattened.sol\":29501:29519  _transferOwnership */\n      tag_154\n        /* \"contracts/ERC20_flattened.sol\":29501:29531  _transferOwnership(address(0)) */\n      jump\t// in\n        /* \"contracts/ERC20_flattened.sol\":22983:23141  function burnFrom(address account, uint256 value) public virtual {... */\n    tag_76:\n        /* \"contracts/ERC20_flattened.sol\":23058:23103  _spendAllowance(account, _msgSender(), value) */\n      tag_156\n        /* \"contracts/ERC20_flattened.sol\":23074:23081  account */\n      dup3\n        /* \"contracts/ERC20_flattened.sol\":4254:4264  msg.sender */\n      caller\n        /* \"contracts/ERC20_flattened.sol\":23097:23102  value */\n      dup4\n        /* \"contracts/ERC20_flattened.sol\":23058:23073  _spendAllowance */\n      tag_126\n        /* \"contracts/ERC20_flattened.sol\":23058:23103  _spendAllowance(account, _msgSender(), value) */\n      jump\t// in\n    tag_156:\n        /* \"contracts/ERC20_flattened.sol\":23113:23134  _burn(account, value) */\n      tag_142\n        /* \"contracts/ERC20_flattened.sol\":23119:23126  account */\n      dup3\n        /* \"contracts/ERC20_flattened.sol\":23128:23133  value */\n      dup3\n        /* \"contracts/ERC20_flattened.sol\":23113:23118  _burn */\n      tag_147\n        /* \"contracts/ERC20_flattened.sol\":23113:23134  _burn(account, value) */\n      jump\t// in\n        /* \"contracts/ERC20_flattened.sol\":84277:84420  function nonces(address owner) public view virtual override(IERC20Permit, Nonces) returns (uint256) {... */\n    tag_79:\n      sub(shl(0xa0, 0x01), 0x01)\n        /* \"contracts/ERC20_flattened.sol\":81217:81231  _nonces[owner] */\n      dup2\n      and\n        /* \"contracts/ERC20_flattened.sol\":84368:84375  uint256 */\n      0x00\n        /* \"contracts/ERC20_flattened.sol\":81217:81231  _nonces[owner] */\n      swap1\n      dup2\n      mstore\n        /* \"contracts/ERC20_flattened.sol\":81217:81224  _nonces */\n      0x08\n        /* \"contracts/ERC20_flattened.sol\":81217:81231  _nonces[owner] */\n      0x20\n      mstore\n      0x40\n      dup2\n      keccak256\n      sload\n        /* \"contracts/ERC20_flattened.sol\":84394:84413  super.nonces(owner) */\n      tag_117\n        /* \"contracts/ERC20_flattened.sol\":81131:81238  function nonces(address owner) public view virtual returns (uint256) {... */\n      jump\n        /* \"contracts/ERC20_flattened.sol\":84977:85036  function pause() public onlyOwner {... */\n    tag_82:\n        /* \"contracts/ERC20_flattened.sol\":28675:28688  _checkOwner() */\n      tag_163\n        /* \"contracts/ERC20_flattened.sol\":28675:28686  _checkOwner */\n      tag_135\n        /* \"contracts/ERC20_flattened.sol\":28675:28688  _checkOwner() */\n      jump\t// in\n    tag_163:\n        /* \"contracts/ERC20_flattened.sol\":85021:85029  _pause() */\n      tag_137\n        /* \"contracts/ERC20_flattened.sol\":85021:85027  _pause */\n      tag_166\n        /* \"contracts/ERC20_flattened.sol\":85021:85029  _pause() */\n      jump\t// in\n        /* \"contracts/ERC20_flattened.sol\":79105:79662  function eip712Domain()... */\n    tag_84:\n        /* \"contracts/ERC20_flattened.sol\":79203:79216  bytes1 fields */\n      0x00\n        /* \"contracts/ERC20_flattened.sol\":79230:79248  string memory name */\n      0x60\n        /* \"contracts/ERC20_flattened.sol\":79262:79283  string memory version */\n      dup1\n        /* \"contracts/ERC20_flattened.sol\":79297:79312  uint256 chainId */\n      0x00\n        /* \"contracts/ERC20_flattened.sol\":79326:79351  address verifyingContract */\n      dup1\n        /* \"contracts/ERC20_flattened.sol\":79365:79377  bytes32 salt */\n      0x00\n        /* \"contracts/ERC20_flattened.sol\":79391:79418  uint256[] memory extensions */\n      0x60\n        /* \"contracts/ERC20_flattened.sol\":79494:79507  _EIP712Name() */\n      tag_168\n        /* \"contracts/ERC20_flattened.sol\":79494:79505  _EIP712Name */\n      tag_169\n        /* \"contracts/ERC20_flattened.sol\":79494:79507  _EIP712Name() */\n      jump\t// in\n    tag_168:\n        /* \"contracts/ERC20_flattened.sol\":79521:79537  _EIP712Version() */\n      tag_170\n        /* \"contracts/ERC20_flattened.sol\":79521:79535  _EIP712Version */\n      tag_171\n        /* \"contracts/ERC20_flattened.sol\":79521:79537  _EIP712Version() */\n      jump\t// in\n    tag_170:\n        /* \"contracts/ERC20_flattened.sol\":79629:79645  new uint256[](0) */\n      0x40\n      dup1\n      mload\n        /* \"contracts/ERC20_flattened.sol\":79613:79614  0 */\n      0x00\n        /* \"contracts/ERC20_flattened.sol\":79629:79645  new uint256[](0) */\n      dup1\n      dup3\n      mstore\n      0x20\n      dup3\n      add\n      swap1\n      swap3\n      mstore\n      shl(0xf8, 0x0f)\n        /* \"contracts/ERC20_flattened.sol\":79443:79655  return (... */\n      swap12\n      swap4\n      swap11\n      pop\n      swap2\n      swap9\n      pop\n        /* \"contracts/ERC20_flattened.sol\":79551:79564  block.chainid */\n      chainid\n      swap8\n      pop\n        /* \"contracts/ERC20_flattened.sol\":79586:79590  this */\n      address\n      swap7\n      pop\n        /* \"contracts/ERC20_flattened.sol\":79613:79614  0 */\n      swap5\n      pop\n        /* \"contracts/ERC20_flattened.sol\":79629:79645  new uint256[](0) */\n      swap3\n      pop\n        /* \"contracts/ERC20_flattened.sol\":79443:79655  return (... */\n      swap1\n      pop\n        /* \"contracts/ERC20_flattened.sol\":79105:79662  function eip712Domain()... */\n      jump\t// out\n        /* \"contracts/ERC20_flattened.sol\":13137:13230  function symbol() public view virtual returns (string memory) {... */\n    tag_92:\n        /* \"contracts/ERC20_flattened.sol\":13184:13197  string memory */\n      0x60\n        /* \"contracts/ERC20_flattened.sol\":13216:13223  _symbol */\n      0x04\n        /* \"contracts/ERC20_flattened.sol\":13209:13223  return _symbol */\n      dup1\n      sload\n      tag_111\n      swap1\n      tag_112\n      jump\t// in\n        /* \"contracts/ERC20_flattened.sol\":14471:14649  function transfer(address to, uint256 value) public virtual returns (bool) {... */\n    tag_96:\n        /* \"contracts/ERC20_flattened.sol\":14540:14544  bool */\n      0x00\n        /* \"contracts/ERC20_flattened.sol\":4254:4264  msg.sender */\n      caller\n        /* \"contracts/ERC20_flattened.sol\":14594:14621  _transfer(owner, to, value) */\n      tag_120\n        /* \"contracts/ERC20_flattened.sol\":4254:4264  msg.sender */\n      dup2\n        /* \"contracts/ERC20_flattened.sol\":14611:14613  to */\n      dup6\n        /* \"contracts/ERC20_flattened.sol\":14615:14620  value */\n      dup6\n        /* \"contracts/ERC20_flattened.sol\":14594:14603  _transfer */\n      tag_128\n        /* \"contracts/ERC20_flattened.sol\":14594:14621  _transfer(owner, to, value) */\n      jump\t// in\n        /* \"contracts/ERC20_flattened.sol\":83551:84223  function permit(... */\n    tag_101:\n        /* \"contracts/ERC20_flattened.sol\":83772:83780  deadline */\n      dup4\n        /* \"contracts/ERC20_flattened.sol\":83754:83769  block.timestamp */\n      timestamp\n        /* \"contracts/ERC20_flattened.sol\":83754:83780  block.timestamp > deadline */\n      gt\n        /* \"contracts/ERC20_flattened.sol\":83750:83847  if (block.timestamp > deadline) {... */\n      iszero\n      tag_187\n      jumpi\n        /* \"contracts/ERC20_flattened.sol\":83803:83836  ERC2612ExpiredSignature(deadline) */\n      mload(0x40)\n      shl(0xe1, 0x313c8981)\n      dup2\n      mstore\n      0x04\n      dup2\n      add\n        /* \"#utility.yul\":1354:1379   */\n      dup6\n      swap1\n      mstore\n        /* \"#utility.yul\":1327:1345   */\n      0x24\n      add\n        /* \"contracts/ERC20_flattened.sol\":83803:83836  ERC2612ExpiredSignature(deadline) */\n    tag_188:\n      mload(0x40)\n      dup1\n      swap2\n      sub\n      swap1\n      revert\n        /* \"contracts/ERC20_flattened.sol\":83750:83847  if (block.timestamp > deadline) {... */\n    tag_187:\n        /* \"contracts/ERC20_flattened.sol\":83857:83875  bytes32 structHash */\n      0x00\n        /* \"contracts/ERC20_flattened.sol\":82893:82988  keccak256(\"Permit(address owner,address spender,uint256 value,uint256 nonce,uint256 deadline)\") */\n      0x6e71edae12b1b97f4d1f60370fef10105fa2faae0126114a169c64845d6126c9\n        /* \"contracts/ERC20_flattened.sol\":83916:83921  owner */\n      dup9\n        /* \"contracts/ERC20_flattened.sol\":83923:83930  spender */\n      dup9\n        /* \"contracts/ERC20_flattened.sol\":83932:83937  value */\n      dup9\n        /* \"contracts/ERC20_flattened.sol\":83939:83955  _useNonce(owner) */\n      tag_189\n        /* \"contracts/ERC20_flattened.sol\":83949:83954  owner */\n      dup13\n      sub(shl(0xa0, 0x01), 0x01)\n        /* \"contracts/ERC20_flattened.sol\":81714:81728  _nonces[owner] */\n      and\n        /* \"contracts/ERC20_flattened.sol\":81412:81419  uint256 */\n      0x00\n        /* \"contracts/ERC20_flattened.sol\":81714:81728  _nonces[owner] */\n      swap1\n      dup2\n      mstore\n        /* \"contracts/ERC20_flattened.sol\":81714:81721  _nonces */\n      0x08\n        /* \"contracts/ERC20_flattened.sol\":81714:81728  _nonces[owner] */\n      0x20\n      mstore\n      0x40\n      swap1\n      keccak256\n        /* \"contracts/ERC20_flattened.sol\":81714:81730  _nonces[owner]++ */\n      dup1\n      sload\n      0x01\n      dup2\n      add\n      swap1\n      swap2\n      sstore\n      swap1\n        /* \"contracts/ERC20_flattened.sol\":81352:81747  function _useNonce(address owner) internal virtual returns (uint256) {... */\n      jump\n        /* \"contracts/ERC20_flattened.sol\":83939:83955  _useNonce(owner) */\n    tag_189:\n        /* \"contracts/ERC20_flattened.sol\":83888:83966  abi.encode(PERMIT_TYPEHASH, owner, spender, value, _useNonce(owner), deadline) */\n      0x40\n      dup1\n      mload\n      0x20\n      dup2\n      add\n        /* \"#utility.yul\":5990:6015   */\n      swap7\n      swap1\n      swap7\n      mstore\n      sub(shl(0xa0, 0x01), 0x01)\n        /* \"#utility.yul\":6051:6083   */\n      swap5\n      dup6\n      and\n        /* \"#utility.yul\":6031:6049   */\n      swap1\n      dup7\n      add\n        /* \"#utility.yul\":6024:6084   */\n      mstore\n        /* \"#utility.yul\":6120:6152   */\n      swap3\n      swap1\n      swap2\n      and\n        /* \"#utility.yul\":6100:6118   */\n      0x60\n      dup5\n      add\n        /* \"#utility.yul\":6093:6153   */\n      mstore\n        /* \"#utility.yul\":6169:6187   */\n      0x80\n      dup4\n      add\n        /* \"#utility.yul\":6162:6196   */\n      mstore\n        /* \"#utility.yul\":6212:6231   */\n      0xa0\n      dup3\n      add\n        /* \"#utility.yul\":6205:6240   */\n      mstore\n        /* \"#utility.yul\":6256:6275   */\n      0xc0\n      dup2\n      add\n        /* \"#utility.yul\":6249:6284   */\n      dup7\n      swap1\n      mstore\n        /* \"#utility.yul\":5962:5981   */\n      0xe0\n      add\n        /* \"contracts/ERC20_flattened.sol\":83888:83966  abi.encode(PERMIT_TYPEHASH, owner, spender, value, _useNonce(owner), deadline) */\n      mload(0x40)\n      0x20\n      dup2\n      dup4\n      sub\n      sub\n      dup2\n      mstore\n      swap1\n      0x40\n      mstore\n        /* \"contracts/ERC20_flattened.sol\":83878:83967  keccak256(abi.encode(PERMIT_TYPEHASH, owner, spender, value, _useNonce(owner), deadline)) */\n      dup1\n      mload\n      swap1\n      0x20\n      add\n      keccak256\n        /* \"contracts/ERC20_flattened.sol\":83857:83967  bytes32 structHash = keccak256(abi.encode(PERMIT_TYPEHASH, owner, spender, value, _useNonce(owner), deadline)) */\n      swap1\n      pop\n        /* \"contracts/ERC20_flattened.sol\":83978:83990  bytes32 hash */\n      0x00\n        /* \"contracts/ERC20_flattened.sol\":83993:84021  _hashTypedDataV4(structHash) */\n      tag_193\n        /* \"contracts/ERC20_flattened.sol\":84010:84020  structHash */\n      dup3\n        /* \"contracts/ERC20_flattened.sol\":83993:84009  _hashTypedDataV4 */\n      tag_194\n        /* \"contracts/ERC20_flattened.sol\":83993:84021  _hashTypedDataV4(structHash) */\n      jump\t// in\n    tag_193:\n        /* \"contracts/ERC20_flattened.sol\":83978:84021  bytes32 hash = _hashTypedDataV4(structHash) */\n      swap1\n      pop\n        /* \"contracts/ERC20_flattened.sol\":84032:84046  address signer */\n      0x00\n        /* \"contracts/ERC20_flattened.sol\":84049:84077  ECDSA.recover(hash, v, r, s) */\n      tag_195\n        /* \"contracts/ERC20_flattened.sol\":84063:84067  hash */\n      dup3\n        /* \"contracts/ERC20_flattened.sol\":84069:84070  v */\n      dup8\n        /* \"contracts/ERC20_flattened.sol\":84072:84073  r */\n      dup8\n        /* \"contracts/ERC20_flattened.sol\":84075:84076  s */\n      dup8\n        /* \"contracts/ERC20_flattened.sol\":84049:84062  ECDSA.recover */\n      tag_196\n        /* \"contracts/ERC20_flattened.sol\":84049:84077  ECDSA.recover(hash, v, r, s) */\n      jump\t// in\n    tag_195:\n        /* \"contracts/ERC20_flattened.sol\":84032:84077  address signer = ECDSA.recover(hash, v, r, s) */\n      swap1\n      pop\n        /* \"contracts/ERC20_flattened.sol\":84101:84106  owner */\n      dup10\n      sub(shl(0xa0, 0x01), 0x01)\n        /* \"contracts/ERC20_flattened.sol\":84091:84106  signer != owner */\n      and\n        /* \"contracts/ERC20_flattened.sol\":84091:84097  signer */\n      dup2\n      sub(shl(0xa0, 0x01), 0x01)\n        /* \"contracts/ERC20_flattened.sol\":84091:84106  signer != owner */\n      and\n      eq\n        /* \"contracts/ERC20_flattened.sol\":84087:84175  if (signer != owner) {... */\n      tag_197\n      jumpi\n        /* \"contracts/ERC20_flattened.sol\":84129:84164  ERC2612InvalidSigner(signer, owner) */\n      mload(0x40)\n      shl(0xe1, 0x25c00723)\n      dup2\n      mstore\n      sub(shl(0xa0, 0x01), 0x01)\n        /* \"#utility.yul\":6487:6519   */\n      dup1\n      dup4\n      and\n        /* \"contracts/ERC20_flattened.sol\":84129:84164  ERC2612InvalidSigner(signer, owner) */\n      0x04\n      dup4\n      add\n        /* \"#utility.yul\":6469:6520   */\n      mstore\n        /* \"#utility.yul\":6556:6588   */\n      dup12\n      and\n        /* \"#utility.yul\":6536:6554   */\n      0x24\n      dup3\n      add\n        /* \"#utility.yul\":6529:6589   */\n      mstore\n        /* \"#utility.yul\":6442:6460   */\n      0x44\n      add\n        /* \"contracts/ERC20_flattened.sol\":84129:84164  ERC2612InvalidSigner(signer, owner) */\n      tag_188\n        /* \"#utility.yul\":6295:6595   */\n      jump\n        /* \"contracts/ERC20_flattened.sol\":84087:84175  if (signer != owner) {... */\n    tag_197:\n        /* \"contracts/ERC20_flattened.sol\":84185:84216  _approve(owner, spender, value) */\n      tag_200\n        /* \"contracts/ERC20_flattened.sol\":84194:84199  owner */\n      dup11\n        /* \"contracts/ERC20_flattened.sol\":84201:84208  spender */\n      dup11\n        /* \"contracts/ERC20_flattened.sol\":84210:84215  value */\n      dup11\n        /* \"contracts/ERC20_flattened.sol\":84185:84193  _approve */\n      tag_121\n        /* \"contracts/ERC20_flattened.sol\":84185:84216  _approve(owner, spender, value) */\n      jump\t// in\n    tag_200:\n        /* \"contracts/ERC20_flattened.sol\":83740:84223  {... */\n      pop\n      pop\n      pop\n        /* \"contracts/ERC20_flattened.sol\":83551:84223  function permit(... */\n      pop\n      pop\n      pop\n      pop\n      pop\n      pop\n      pop\n      jump\t// out\n        /* \"contracts/ERC20_flattened.sol\":29687:29902  function transferOwnership(address newOwner) public virtual onlyOwner {... */\n    tag_109:\n        /* \"contracts/ERC20_flattened.sol\":28675:28688  _checkOwner() */\n      tag_203\n        /* \"contracts/ERC20_flattened.sol\":28675:28686  _checkOwner */\n      tag_135\n        /* \"contracts/ERC20_flattened.sol\":28675:28688  _checkOwner() */\n      jump\t// in\n    tag_203:\n      sub(shl(0xa0, 0x01), 0x01)\n        /* \"contracts/ERC20_flattened.sol\":29771:29793  newOwner == address(0) */\n      dup2\n      and\n        /* \"contracts/ERC20_flattened.sol\":29767:29858  if (newOwner == address(0)) {... */\n      tag_205\n      jumpi\n        /* \"contracts/ERC20_flattened.sol\":29816:29847  OwnableInvalidOwner(address(0)) */\n      mload(0x40)\n      shl(0xe0, 0x1e4fbdf7)\n      dup2\n      mstore\n        /* \"contracts/ERC20_flattened.sol\":29844:29845  0 */\n      0x00\n        /* \"contracts/ERC20_flattened.sol\":29816:29847  OwnableInvalidOwner(address(0)) */\n      0x04\n      dup3\n      add\n        /* \"#utility.yul\":3951:4002   */\n      mstore\n        /* \"#utility.yul\":3924:3942   */\n      0x24\n      add\n        /* \"contracts/ERC20_flattened.sol\":29816:29847  OwnableInvalidOwner(address(0)) */\n      tag_188\n        /* \"#utility.yul\":3805:4008   */\n      jump\n        /* \"contracts/ERC20_flattened.sol\":29767:29858  if (newOwner == address(0)) {... */\n    tag_205:\n        /* \"contracts/ERC20_flattened.sol\":29867:29895  _transferOwnership(newOwner) */\n      tag_145\n        /* \"contracts/ERC20_flattened.sol\":29886:29894  newOwner */\n      dup2\n        /* \"contracts/ERC20_flattened.sol\":29867:29885  _transferOwnership */\n      tag_154\n        /* \"contracts/ERC20_flattened.sol\":29867:29895  _transferOwnership(newOwner) */\n      jump\t// in\n        /* \"contracts/ERC20_flattened.sol\":19850:19978  function _approve(address owner, address spender, uint256 value) internal {... */\n    tag_121:\n        /* \"contracts/ERC20_flattened.sol\":19934:19971  _approve(owner, spender, value, true) */\n      tag_210\n        /* \"contracts/ERC20_flattened.sol\":19943:19948  owner */\n      dup4\n        /* \"contracts/ERC20_flattened.sol\":19950:19957  spender */\n      dup4\n        /* \"contracts/ERC20_flattened.sol\":19959:19964  value */\n      dup4\n        /* \"contracts/ERC20_flattened.sol\":19966:19970  true */\n      0x01\n        /* \"contracts/ERC20_flattened.sol\":19934:19942  _approve */\n      tag_211\n        /* \"contracts/ERC20_flattened.sol\":19934:19971  _approve(owner, spender, value, true) */\n      jump\t// in\n    tag_210:\n        /* \"contracts/ERC20_flattened.sol\":19850:19978  function _approve(address owner, address spender, uint256 value) internal {... */\n      pop\n      pop\n      pop\n      jump\t// out\n        /* \"contracts/ERC20_flattened.sol\":21524:22001  function _spendAllowance(address owner, address spender, uint256 value) internal virtual {... */\n    tag_126:\n      sub(shl(0xa0, 0x01), 0x01)\n        /* \"contracts/ERC20_flattened.sol\":14813:14831  _allowances[owner] */\n      dup4\n      dup2\n      and\n        /* \"contracts/ERC20_flattened.sol\":21623:21647  uint256 currentAllowance */\n      0x00\n        /* \"contracts/ERC20_flattened.sol\":14813:14831  _allowances[owner] */\n      swap1\n      dup2\n      mstore\n        /* \"contracts/ERC20_flattened.sol\":14813:14824  _allowances */\n      0x01\n        /* \"contracts/ERC20_flattened.sol\":14813:14831  _allowances[owner] */\n      0x20\n      swap1\n      dup2\n      mstore\n      0x40\n      dup1\n      dup4\n      keccak256\n        /* \"contracts/ERC20_flattened.sol\":14813:14840  _allowances[owner][spender] */\n      swap4\n      dup7\n      and\n      dup4\n      mstore\n      swap3\n      swap1\n      mstore\n      keccak256\n      sload\n      not(0x00)\n        /* \"contracts/ERC20_flattened.sol\":21689:21726  currentAllowance != type(uint256).max */\n      dup2\n      eq\n        /* \"contracts/ERC20_flattened.sol\":21685:21995  if (currentAllowance != type(uint256).max) {... */\n      tag_218\n      jumpi\n        /* \"contracts/ERC20_flattened.sol\":21765:21770  value */\n      dup2\n        /* \"contracts/ERC20_flattened.sol\":21746:21762  currentAllowance */\n      dup2\n        /* \"contracts/ERC20_flattened.sol\":21746:21770  currentAllowance < value */\n      lt\n        /* \"contracts/ERC20_flattened.sol\":21742:21872  if (currentAllowance < value) {... */\n      iszero\n      tag_215\n      jumpi\n        /* \"contracts/ERC20_flattened.sol\":21797:21857  ERC20InsufficientAllowance(spender, currentAllowance, value) */\n      mload(0x40)\n      shl(0xe1, 0x7dc7a0d9)\n      dup2\n      mstore\n      sub(shl(0xa0, 0x01), 0x01)\n        /* \"#utility.yul\":6820:6852   */\n      dup5\n      and\n        /* \"contracts/ERC20_flattened.sol\":21797:21857  ERC20InsufficientAllowance(spender, currentAllowance, value) */\n      0x04\n      dup3\n      add\n        /* \"#utility.yul\":6802:6853   */\n      mstore\n        /* \"#utility.yul\":6869:6887   */\n      0x24\n      dup2\n      add\n        /* \"#utility.yul\":6862:6896   */\n      dup3\n      swap1\n      mstore\n        /* \"#utility.yul\":6912:6930   */\n      0x44\n      dup2\n      add\n        /* \"#utility.yul\":6905:6939   */\n      dup4\n      swap1\n      mstore\n        /* \"#utility.yul\":6775:6793   */\n      0x64\n      add\n        /* \"contracts/ERC20_flattened.sol\":21797:21857  ERC20InsufficientAllowance(spender, currentAllowance, value) */\n      tag_188\n        /* \"#utility.yul\":6600:6945   */\n      jump\n        /* \"contracts/ERC20_flattened.sol\":21742:21872  if (currentAllowance < value) {... */\n    tag_215:\n        /* \"contracts/ERC20_flattened.sol\":21913:21970  _approve(owner, spender, currentAllowance - value, false) */\n      tag_218\n        /* \"contracts/ERC20_flattened.sol\":21922:21927  owner */\n      dup5\n        /* \"contracts/ERC20_flattened.sol\":21929:21936  spender */\n      dup5\n        /* \"contracts/ERC20_flattened.sol\":21957:21962  value */\n      dup5\n        /* \"contracts/ERC20_flattened.sol\":21938:21954  currentAllowance */\n      dup5\n        /* \"contracts/ERC20_flattened.sol\":21938:21962  currentAllowance - value */\n      sub\n        /* \"contracts/ERC20_flattened.sol\":21964:21969  false */\n      0x00\n        /* \"contracts/ERC20_flattened.sol\":21913:21921  _approve */\n      tag_211\n        /* \"contracts/ERC20_flattened.sol\":21913:21970  _approve(owner, spender, currentAllowance - value, false) */\n      jump\t// in\n    tag_218:\n        /* \"contracts/ERC20_flattened.sol\":21613:22001  {... */\n      pop\n        /* \"contracts/ERC20_flattened.sol\":21524:22001  function _spendAllowance(address owner, address spender, uint256 value) internal virtual {... */\n      pop\n      pop\n      pop\n      jump\t// out\n        /* \"contracts/ERC20_flattened.sol\":16517:16817  function _transfer(address from, address to, uint256 value) internal {... */\n    tag_128:\n      sub(shl(0xa0, 0x01), 0x01)\n        /* \"contracts/ERC20_flattened.sol\":16600:16618  from == address(0) */\n      dup4\n      and\n        /* \"contracts/ERC20_flattened.sol\":16596:16682  if (from == address(0)) {... */\n      tag_220\n      jumpi\n        /* \"contracts/ERC20_flattened.sol\":16641:16671  ERC20InvalidSender(address(0)) */\n      mload(0x40)\n      shl(0xe1, 0x4b637e8f)\n      dup2\n      mstore\n        /* \"contracts/ERC20_flattened.sol\":16668:16669  0 */\n      0x00\n        /* \"contracts/ERC20_flattened.sol\":16641:16671  ERC20InvalidSender(address(0)) */\n      0x04\n      dup3\n      add\n        /* \"#utility.yul\":3951:4002   */\n      mstore\n        /* \"#utility.yul\":3924:3942   */\n      0x24\n      add\n        /* \"contracts/ERC20_flattened.sol\":16641:16671  ERC20InvalidSender(address(0)) */\n      tag_188\n        /* \"#utility.yul\":3805:4008   */\n      jump\n        /* \"contracts/ERC20_flattened.sol\":16596:16682  if (from == address(0)) {... */\n    tag_220:\n      sub(shl(0xa0, 0x01), 0x01)\n        /* \"contracts/ERC20_flattened.sol\":16695:16711  to == address(0) */\n      dup3\n      and\n        /* \"contracts/ERC20_flattened.sol\":16691:16777  if (to == address(0)) {... */\n      tag_222\n      jumpi\n        /* \"contracts/ERC20_flattened.sol\":16734:16766  ERC20InvalidReceiver(address(0)) */\n      mload(0x40)\n      shl(0xe0, 0xec442f05)\n      dup2\n      mstore\n        /* \"contracts/ERC20_flattened.sol\":16763:16764  0 */\n      0x00\n        /* \"contracts/ERC20_flattened.sol\":16734:16766  ERC20InvalidReceiver(address(0)) */\n      0x04\n      dup3\n      add\n        /* \"#utility.yul\":3951:4002   */\n      mstore\n        /* \"#utility.yul\":3924:3942   */\n      0x24\n      add\n        /* \"contracts/ERC20_flattened.sol\":16734:16766  ERC20InvalidReceiver(address(0)) */\n      tag_188\n        /* \"#utility.yul\":3805:4008   */\n      jump\n        /* \"contracts/ERC20_flattened.sol\":16691:16777  if (to == address(0)) {... */\n    tag_222:\n        /* \"contracts/ERC20_flattened.sol\":16786:16810  _update(from, to, value) */\n      tag_210\n        /* \"contracts/ERC20_flattened.sol\":16794:16798  from */\n      dup4\n        /* \"contracts/ERC20_flattened.sol\":16800:16802  to */\n      dup4\n        /* \"contracts/ERC20_flattened.sol\":16804:16809  value */\n      dup4\n        /* \"contracts/ERC20_flattened.sol\":16786:16793  _update */\n      tag_225\n        /* \"contracts/ERC20_flattened.sol\":16786:16810  _update(from, to, value) */\n      jump\t// in\n        /* \"contracts/ERC20_flattened.sol\":77806:78068  function _domainSeparatorV4() internal view returns (bytes32) {... */\n    tag_132:\n        /* \"contracts/ERC20_flattened.sol\":77859:77866  bytes32 */\n      0x00\n        /* \"contracts/ERC20_flattened.sol\":77890:77894  this */\n      address\n      sub(shl(0xa0, 0x01), 0x01)\n        /* \"contracts/ERC20_flattened.sol\":77899:77910  _cachedThis */\n      immutable(\"0xce191cb8321ca757450c20e87b57fa44746b6a87612dab9cf25801eef5ed67f8\")\n        /* \"contracts/ERC20_flattened.sol\":77882:77910  address(this) == _cachedThis */\n      and\n      eq\n        /* \"contracts/ERC20_flattened.sol\":77882:77945  address(this) == _cachedThis && block.chainid == _cachedChainId */\n      dup1\n      iszero\n      tag_227\n      jumpi\n      pop\n        /* \"contracts/ERC20_flattened.sol\":77931:77945  _cachedChainId */\n      immutable(\"0x1a100bb1148e9e506f9ba8ec1947d4f84b922b6e9d33f30c8d12f2e351bcf10c\")\n        /* \"contracts/ERC20_flattened.sol\":77914:77927  block.chainid */\n      chainid\n        /* \"contracts/ERC20_flattened.sol\":77914:77945  block.chainid == _cachedChainId */\n      eq\n        /* \"contracts/ERC20_flattened.sol\":77882:77945  address(this) == _cachedThis && block.chainid == _cachedChainId */\n    tag_227:\n        /* \"contracts/ERC20_flattened.sol\":77878:78062  if (address(this) == _cachedThis && block.chainid == _cachedChainId) {... */\n      iszero\n      tag_228\n      jumpi\n      pop\n        /* \"contracts/ERC20_flattened.sol\":77968:77990  _cachedDomainSeparator */\n      immutable(\"0x29952515f5d57954abac5ab7b1327bd7bcbb5425c05d93673edc46b02d7cb56d\")\n      swap1\n        /* \"contracts/ERC20_flattened.sol\":77806:78068  function _domainSeparatorV4() internal view returns (bytes32) {... */\n      jump\t// out\n        /* \"contracts/ERC20_flattened.sol\":77878:78062  if (address(this) == _cachedThis && block.chainid == _cachedChainId) {... */\n    tag_228:\n        /* \"contracts/ERC20_flattened.sol\":78028:78051  _buildDomainSeparator() */\n      tag_131\n        /* \"contracts/ERC20_flattened.sol\":78165:78245  abi.encode(TYPE_HASH, _hashedName, _hashedVersion, block.chainid, address(this)) */\n      0x40\n      dup1\n      mload\n        /* \"contracts/ERC20_flattened.sol\":76040:76135  keccak256(\"EIP712Domain(string name,string version,uint256 chainId,address verifyingContract)\") */\n      0x8b73c3c69bb8fe3d512ecc4cf759cc79239f7b179b0ffacaa9a75d522b39400f\n        /* \"contracts/ERC20_flattened.sol\":78165:78245  abi.encode(TYPE_HASH, _hashedName, _hashedVersion, block.chainid, address(this)) */\n      0x20\n      dup3\n      add\n        /* \"#utility.yul\":7209:7234   */\n      mstore\n        /* \"contracts/ERC20_flattened.sol\":78187:78198  _hashedName */\n      immutable(\"0xf40d89e88f976c0e4eebddab04ab11e8eb9a648fae2f79611f9b9f54d5ffefc8\")\n        /* \"#utility.yul\":7250:7268   */\n      swap2\n      dup2\n      add\n        /* \"#utility.yul\":7243:7277   */\n      swap2\n      swap1\n      swap2\n      mstore\n        /* \"contracts/ERC20_flattened.sol\":78200:78214  _hashedVersion */\n      immutable(\"0xc9c370779fd62a0c7c118a2246ccad4c103473123315c14d4e476e7f4b22843f\")\n        /* \"#utility.yul\":7293:7311   */\n      0x60\n      dup3\n      add\n        /* \"#utility.yul\":7286:7320   */\n      mstore\n        /* \"contracts/ERC20_flattened.sol\":78216:78229  block.chainid */\n      chainid\n        /* \"#utility.yul\":7336:7354   */\n      0x80\n      dup3\n      add\n        /* \"#utility.yul\":7329:7363   */\n      mstore\n        /* \"contracts/ERC20_flattened.sol\":78239:78243  this */\n      address\n        /* \"#utility.yul\":7379:7398   */\n      0xa0\n      dup3\n      add\n        /* \"#utility.yul\":7372:7433   */\n      mstore\n        /* \"contracts/ERC20_flattened.sol\":78129:78136  bytes32 */\n      0x00\n      swap1\n        /* \"#utility.yul\":7181:7200   */\n      0xc0\n      add\n        /* \"contracts/ERC20_flattened.sol\":78165:78245  abi.encode(TYPE_HASH, _hashedName, _hashedVersion, block.chainid, address(this)) */\n      mload(0x40)\n      0x20\n      dup2\n      dup4\n      sub\n      sub\n      dup2\n      mstore\n      swap1\n      0x40\n      mstore\n        /* \"contracts/ERC20_flattened.sol\":78155:78246  keccak256(abi.encode(TYPE_HASH, _hashedName, _hashedVersion, block.chainid, address(this))) */\n      dup1\n      mload\n      swap1\n      0x20\n      add\n      keccak256\n        /* \"contracts/ERC20_flattened.sol\":78148:78246  return keccak256(abi.encode(TYPE_HASH, _hashedName, _hashedVersion, block.chainid, address(this))) */\n      swap1\n      pop\n        /* \"contracts/ERC20_flattened.sol\":78074:78253  function _buildDomainSeparator() private view returns (bytes32) {... */\n      swap1\n      jump\n        /* \"contracts/ERC20_flattened.sol\":28940:29102  function _checkOwner() internal view virtual {... */\n    tag_135:\n        /* \"contracts/ERC20_flattened.sol\":28854:28860  _owner */\n      sload(0x05)\n      sub(shl(0xa0, 0x01), 0x01)\n      0x0100\n      swap1\n      swap2\n      div\n      and\n        /* \"contracts/ERC20_flattened.sol\":4254:4264  msg.sender */\n      caller\n        /* \"contracts/ERC20_flattened.sol\":28999:29022  owner() != _msgSender() */\n      eq\n        /* \"contracts/ERC20_flattened.sol\":28995:29096  if (owner() != _msgSender()) {... */\n      tag_137\n      jumpi\n        /* \"contracts/ERC20_flattened.sol\":29045:29085  OwnableUnauthorizedAccount(_msgSender()) */\n      mload(0x40)\n      shl(0xe0, 0x118cdaa7)\n      dup2\n      mstore\n        /* \"contracts/ERC20_flattened.sol\":4254:4264  msg.sender */\n      caller\n        /* \"contracts/ERC20_flattened.sol\":29045:29085  OwnableUnauthorizedAccount(_msgSender()) */\n      0x04\n      dup3\n      add\n        /* \"#utility.yul\":3951:4002   */\n      mstore\n        /* \"#utility.yul\":3924:3942   */\n      0x24\n      add\n        /* \"contracts/ERC20_flattened.sol\":29045:29085  OwnableUnauthorizedAccount(_msgSender()) */\n      tag_188\n        /* \"#utility.yul\":3805:4008   */\n      jump\n        /* \"contracts/ERC20_flattened.sol\":25831:25948  function _unpause() internal virtual whenPaused {... */\n    tag_138:\n        /* \"contracts/ERC20_flattened.sol\":24842:24858  _requirePaused() */\n      tag_239\n        /* \"contracts/ERC20_flattened.sol\":24842:24856  _requirePaused */\n      tag_240\n        /* \"contracts/ERC20_flattened.sol\":24842:24858  _requirePaused() */\n      jump\t// in\n    tag_239:\n        /* \"contracts/ERC20_flattened.sol\":25889:25896  _paused */\n      0x05\n        /* \"contracts/ERC20_flattened.sol\":25889:25904  _paused = false */\n      dup1\n      sload\n      not(0xff)\n      and\n      swap1\n      sstore\n        /* \"contracts/ERC20_flattened.sol\":25919:25941  Unpaused(_msgSender()) */\n      0x5db9ee0a495bf2e6ff9c91a7834c1ba4fdd244a5e8aa4e537bd38aeae4b073aa\n        /* \"contracts/ERC20_flattened.sol\":4254:4264  msg.sender */\n      caller\n        /* \"contracts/ERC20_flattened.sol\":25928:25940  _msgSender() */\n    tag_242:\n        /* \"contracts/ERC20_flattened.sol\":25919:25941  Unpaused(_msgSender()) */\n      mload(0x40)\n      sub(shl(0xa0, 0x01), 0x01)\n        /* \"#utility.yul\":3969:4001   */\n      swap1\n      swap2\n      and\n        /* \"#utility.yul\":3951:4002   */\n      dup2\n      mstore\n        /* \"#utility.yul\":3939:3941   */\n      0x20\n        /* \"#utility.yul\":3924:3942   */\n      add\n        /* \"contracts/ERC20_flattened.sol\":25919:25941  Unpaused(_msgSender()) */\n      mload(0x40)\n      dup1\n      swap2\n      sub\n      swap1\n      log1\n        /* \"contracts/ERC20_flattened.sol\":25831:25948  function _unpause() internal virtual whenPaused {... */\n      jump\t// out\n        /* \"contracts/ERC20_flattened.sol\":18582:18790  function _mint(address account, uint256 value) internal {... */\n    tag_143:\n      sub(shl(0xa0, 0x01), 0x01)\n        /* \"contracts/ERC20_flattened.sol\":18652:18673  account == address(0) */\n      dup3\n      and\n        /* \"contracts/ERC20_flattened.sol\":18648:18739  if (account == address(0)) {... */\n      tag_245\n      jumpi\n        /* \"contracts/ERC20_flattened.sol\":18696:18728  ERC20InvalidReceiver(address(0)) */\n      mload(0x40)\n      shl(0xe0, 0xec442f05)\n      dup2\n      mstore\n        /* \"contracts/ERC20_flattened.sol\":18725:18726  0 */\n      0x00\n        /* \"contracts/ERC20_flattened.sol\":18696:18728  ERC20InvalidReceiver(address(0)) */\n      0x04\n      dup3\n      add\n        /* \"#utility.yul\":3951:4002   */\n      mstore\n        /* \"#utility.yul\":3924:3942   */\n      0x24\n      add\n        /* \"contracts/ERC20_flattened.sol\":18696:18728  ERC20InvalidReceiver(address(0)) */\n      tag_188\n        /* \"#utility.yul\":3805:4008   */\n      jump\n        /* \"contracts/ERC20_flattened.sol\":18648:18739  if (account == address(0)) {... */\n    tag_245:\n        /* \"contracts/ERC20_flattened.sol\":18748:18783  _update(address(0), account, value) */\n      tag_142\n        /* \"contracts/ERC20_flattened.sol\":18764:18765  0 */\n      0x00\n        /* \"contracts/ERC20_flattened.sol\":18768:18775  account */\n      dup4\n        /* \"contracts/ERC20_flattened.sol\":18777:18782  value */\n      dup4\n        /* \"contracts/ERC20_flattened.sol\":18748:18755  _update */\n      tag_225\n        /* \"contracts/ERC20_flattened.sol\":18748:18783  _update(address(0), account, value) */\n      jump\t// in\n        /* \"contracts/ERC20_flattened.sol\":19108:19314  function _burn(address account, uint256 value) internal {... */\n    tag_147:\n      sub(shl(0xa0, 0x01), 0x01)\n        /* \"contracts/ERC20_flattened.sol\":19178:19199  account == address(0) */\n      dup3\n      and\n        /* \"contracts/ERC20_flattened.sol\":19174:19263  if (account == address(0)) {... */\n      tag_249\n      jumpi\n        /* \"contracts/ERC20_flattened.sol\":19222:19252  ERC20InvalidSender(address(0)) */\n      mload(0x40)\n      shl(0xe1, 0x4b637e8f)\n      dup2\n      mstore\n        /* \"contracts/ERC20_flattened.sol\":19249:19250  0 */\n      0x00\n        /* \"contracts/ERC20_flattened.sol\":19222:19252  ERC20InvalidSender(address(0)) */\n      0x04\n      dup3\n      add\n        /* \"#utility.yul\":3951:4002   */\n      mstore\n        /* \"#utility.yul\":3924:3942   */\n      0x24\n      add\n        /* \"contracts/ERC20_flattened.sol\":19222:19252  ERC20InvalidSender(address(0)) */\n      tag_188\n        /* \"#utility.yul\":3805:4008   */\n      jump\n        /* \"contracts/ERC20_flattened.sol\":19174:19263  if (account == address(0)) {... */\n    tag_249:\n        /* \"contracts/ERC20_flattened.sol\":19272:19307  _update(account, address(0), value) */\n      tag_142\n        /* \"contracts/ERC20_flattened.sol\":19280:19287  account */\n      dup3\n        /* \"contracts/ERC20_flattened.sol\":19297:19298  0 */\n      0x00\n        /* \"contracts/ERC20_flattened.sol\":19301:19306  value */\n      dup4\n        /* \"contracts/ERC20_flattened.sol\":19272:19279  _update */\n      tag_225\n        /* \"contracts/ERC20_flattened.sol\":19272:19307  _update(account, address(0), value) */\n      jump\t// in\n        /* \"contracts/ERC20_flattened.sol\":30056:30243  function _transferOwnership(address newOwner) internal virtual {... */\n    tag_154:\n        /* \"contracts/ERC20_flattened.sol\":30148:30154  _owner */\n      0x05\n      dup1\n      sload\n      sub(shl(0xa0, 0x01), 0x01)\n        /* \"contracts/ERC20_flattened.sol\":30164:30181  _owner = newOwner */\n      dup4\n      dup2\n      and\n        /* \"contracts/ERC20_flattened.sol\":30148:30154  _owner */\n      0x0100\n        /* \"contracts/ERC20_flattened.sol\":30164:30181  _owner = newOwner */\n      dup2\n      dup2\n      mul\n      not(sub(shl(0xa8, 0x01), 0x0100))\n      dup6\n      and\n      or\n      swap1\n      swap5\n      sstore\n        /* \"contracts/ERC20_flattened.sol\":30196:30236  OwnershipTransferred(oldOwner, newOwner) */\n      mload(0x40)\n        /* \"contracts/ERC20_flattened.sol\":30148:30154  _owner */\n      swap4\n      swap1\n      swap3\n      div\n      and\n      swap2\n      dup3\n      swap1\n        /* \"contracts/ERC20_flattened.sol\":30196:30236  OwnershipTransferred(oldOwner, newOwner) */\n      0x8be0079c531659141344cd1fd0a4f28419497f9722a3daafe3b4186f6b6457e0\n      swap1\n        /* \"contracts/ERC20_flattened.sol\":30129:30145  address oldOwner */\n      0x00\n      swap1\n        /* \"contracts/ERC20_flattened.sol\":30196:30236  OwnershipTransferred(oldOwner, newOwner) */\n      log3\n        /* \"contracts/ERC20_flattened.sol\":30119:30243  {... */\n      pop\n        /* \"contracts/ERC20_flattened.sol\":30056:30243  function _transferOwnership(address newOwner) internal virtual {... */\n      pop\n      jump\t// out\n        /* \"contracts/ERC20_flattened.sol\":25584:25699  function _pause() internal virtual whenNotPaused {... */\n    tag_166:\n        /* \"contracts/ERC20_flattened.sol\":24595:24614  _requireNotPaused() */\n      tag_255\n        /* \"contracts/ERC20_flattened.sol\":24595:24612  _requireNotPaused */\n      tag_256\n        /* \"contracts/ERC20_flattened.sol\":24595:24614  _requireNotPaused() */\n      jump\t// in\n    tag_255:\n        /* \"contracts/ERC20_flattened.sol\":25643:25650  _paused */\n      0x05\n        /* \"contracts/ERC20_flattened.sol\":25643:25657  _paused = true */\n      dup1\n      sload\n      not(0xff)\n      and\n        /* \"contracts/ERC20_flattened.sol\":25653:25657  true */\n      0x01\n        /* \"contracts/ERC20_flattened.sol\":25643:25657  _paused = true */\n      or\n      swap1\n      sstore\n        /* \"contracts/ERC20_flattened.sol\":25672:25692  Paused(_msgSender()) */\n      0x62e78cea01bee320cd4e420270b5ea74000d11b0c9f74754ebdbfc544b05a258\n        /* \"contracts/ERC20_flattened.sol\":25679:25691  _msgSender() */\n      tag_242\n        /* \"contracts/ERC20_flattened.sol\":4254:4264  msg.sender */\n      caller\n      swap1\n        /* \"contracts/ERC20_flattened.sol\":4175:4271  function _msgSender() internal view virtual returns (address) {... */\n      jump\n        /* \"contracts/ERC20_flattened.sol\":79982:80108  function _EIP712Name() internal view returns (string memory) {... */\n    tag_169:\n        /* \"contracts/ERC20_flattened.sol\":80028:80041  string memory */\n      0x60\n        /* \"contracts/ERC20_flattened.sol\":80060:80101  _name.toStringWithFallback(_nameFallback) */\n      tag_131\n        /* \"contracts/ERC20_flattened.sol\":80060:80065  _name */\n      immutable(\"0xb8163922f365f2d54f6122835c04019c69b181c4b5bf7a62d07ca62e91817bd9\")\n        /* \"contracts/ERC20_flattened.sol\":80087:80100  _nameFallback */\n      0x06\n        /* \"contracts/ERC20_flattened.sol\":80060:80086  _name.toStringWithFallback */\n      tag_262\n        /* \"contracts/ERC20_flattened.sol\":80060:80101  _name.toStringWithFallback(_nameFallback) */\n      jump\t// in\n        /* \"contracts/ERC20_flattened.sol\":80434:80569  function _EIP712Version() internal view returns (string memory) {... */\n    tag_171:\n        /* \"contracts/ERC20_flattened.sol\":80483:80496  string memory */\n      0x60\n        /* \"contracts/ERC20_flattened.sol\":80515:80562  _version.toStringWithFallback(_versionFallback) */\n      tag_131\n        /* \"contracts/ERC20_flattened.sol\":80515:80523  _version */\n      immutable(\"0xef17f12455e22a45134579834cdca993c5eec3070954e76052dcfac9f22697b4\")\n        /* \"contracts/ERC20_flattened.sol\":80545:80561  _versionFallback */\n      0x07\n        /* \"contracts/ERC20_flattened.sol\":80515:80544  _version.toStringWithFallback */\n      tag_262\n        /* \"contracts/ERC20_flattened.sol\":80515:80562  _version.toStringWithFallback(_versionFallback) */\n      jump\t// in\n        /* \"contracts/ERC20_flattened.sol\":78878:79054  function _hashTypedDataV4(bytes32 structHash) internal view virtual returns (bytes32) {... */\n    tag_194:\n        /* \"contracts/ERC20_flattened.sol\":78955:78962  bytes32 */\n      0x00\n        /* \"contracts/ERC20_flattened.sol\":78981:79047  MessageHashUtils.toTypedDataHash(_domainSeparatorV4(), structHash) */\n      tag_117\n        /* \"contracts/ERC20_flattened.sol\":79014:79034  _domainSeparatorV4() */\n      tag_268\n        /* \"contracts/ERC20_flattened.sol\":79014:79032  _domainSeparatorV4 */\n      tag_132\n        /* \"contracts/ERC20_flattened.sol\":79014:79034  _domainSeparatorV4() */\n      jump\t// in\n    tag_268:\n        /* \"contracts/ERC20_flattened.sol\":79036:79046  structHash */\n      dup4\n        /* \"contracts/ERC20_flattened.sol\":64886:64890  0x40 */\n      0x40\n        /* \"contracts/ERC20_flattened.sol\":64880:64891  mload(0x40) */\n      mload\n      shl(0xf0, 0x1901)\n        /* \"contracts/ERC20_flattened.sol\":64904:64927  mstore(ptr, hex\"19_01\") */\n      dup2\n      mstore\n        /* \"contracts/ERC20_flattened.sol\":64956:64960  0x02 */\n      0x02\n        /* \"contracts/ERC20_flattened.sol\":64947:64961  add(ptr, 0x02) */\n      dup2\n      add\n        /* \"contracts/ERC20_flattened.sol\":64940:64979  mstore(add(ptr, 0x02), domainSeparator) */\n      swap3\n      swap1\n      swap3\n      mstore\n        /* \"contracts/ERC20_flattened.sol\":65008:65012  0x22 */\n      0x22\n        /* \"contracts/ERC20_flattened.sol\":64999:65013  add(ptr, 0x22) */\n      dup3\n      add\n        /* \"contracts/ERC20_flattened.sol\":64992:65026  mstore(add(ptr, 0x22), structHash) */\n      mstore\n        /* \"contracts/ERC20_flattened.sol\":65064:65068  0x42 */\n      0x42\n        /* \"contracts/ERC20_flattened.sol\":65049:65069  keccak256(ptr, 0x42) */\n      swap1\n      keccak256\n      swap1\n        /* \"contracts/ERC20_flattened.sol\":64684:65085  function toTypedDataHash(bytes32 domainSeparator, bytes32 structHash) internal pure returns (bytes32 digest) {... */\n      jump\n        /* \"contracts/ERC20_flattened.sol\":40929:41189  function recover(bytes32 hash, uint8 v, bytes32 r, bytes32 s) internal pure returns (address) {... */\n    tag_196:\n        /* \"contracts/ERC20_flattened.sol\":41014:41021  address */\n      0x00\n        /* \"contracts/ERC20_flattened.sol\":41034:41051  address recovered */\n      dup1\n        /* \"contracts/ERC20_flattened.sol\":41053:41071  RecoverError error */\n      0x00\n        /* \"contracts/ERC20_flattened.sol\":41073:41089  bytes32 errorArg */\n      dup1\n        /* \"contracts/ERC20_flattened.sol\":41093:41118  tryRecover(hash, v, r, s) */\n      tag_271\n        /* \"contracts/ERC20_flattened.sol\":41104:41108  hash */\n      dup9\n        /* \"contracts/ERC20_flattened.sol\":41110:41111  v */\n      dup9\n        /* \"contracts/ERC20_flattened.sol\":41113:41114  r */\n      dup9\n        /* \"contracts/ERC20_flattened.sol\":41116:41117  s */\n      dup9\n        /* \"contracts/ERC20_flattened.sol\":41093:41103  tryRecover */\n      tag_272\n        /* \"contracts/ERC20_flattened.sol\":41093:41118  tryRecover(hash, v, r, s) */\n      jump\t// in\n    tag_271:\n        /* \"contracts/ERC20_flattened.sol\":41033:41118  (address recovered, RecoverError error, bytes32 errorArg) = tryRecover(hash, v, r, s) */\n      swap3\n      pop\n      swap3\n      pop\n      swap3\n      pop\n        /* \"contracts/ERC20_flattened.sol\":41128:41156  _throwError(error, errorArg) */\n      tag_273\n        /* \"contracts/ERC20_flattened.sol\":41140:41145  error */\n      dup3\n        /* \"contracts/ERC20_flattened.sol\":41147:41155  errorArg */\n      dup3\n        /* \"contracts/ERC20_flattened.sol\":41128:41139  _throwError */\n      tag_274\n        /* \"contracts/ERC20_flattened.sol\":41128:41156  _throwError(error, errorArg) */\n      jump\t// in\n    tag_273:\n      pop\n        /* \"contracts/ERC20_flattened.sol\":41173:41182  recovered */\n      swap1\n      swap7\n        /* \"contracts/ERC20_flattened.sol\":40929:41189  function recover(bytes32 hash, uint8 v, bytes32 r, bytes32 s) internal pure returns (address) {... */\n      swap6\n      pop\n      pop\n      pop\n      pop\n      pop\n      pop\n      jump\t// out\n        /* \"contracts/ERC20_flattened.sol\":20810:21242  function _approve(address owner, address spender, uint256 value, bool emitEvent) internal virtual {... */\n    tag_211:\n      sub(shl(0xa0, 0x01), 0x01)\n        /* \"contracts/ERC20_flattened.sol\":20922:20941  owner == address(0) */\n      dup5\n      and\n        /* \"contracts/ERC20_flattened.sol\":20918:21007  if (owner == address(0)) {... */\n      tag_276\n      jumpi\n        /* \"contracts/ERC20_flattened.sol\":20964:20996  ERC20InvalidApprover(address(0)) */\n      mload(0x40)\n      shl(0xe0, 0xe602df05)\n      dup2\n      mstore\n        /* \"contracts/ERC20_flattened.sol\":20993:20994  0 */\n      0x00\n        /* \"contracts/ERC20_flattened.sol\":20964:20996  ERC20InvalidApprover(address(0)) */\n      0x04\n      dup3\n      add\n        /* \"#utility.yul\":3951:4002   */\n      mstore\n        /* \"#utility.yul\":3924:3942   */\n      0x24\n      add\n        /* \"contracts/ERC20_flattened.sol\":20964:20996  ERC20InvalidApprover(address(0)) */\n      tag_188\n        /* \"#utility.yul\":3805:4008   */\n      jump\n        /* \"contracts/ERC20_flattened.sol\":20918:21007  if (owner == address(0)) {... */\n    tag_276:\n      sub(shl(0xa0, 0x01), 0x01)\n        /* \"contracts/ERC20_flattened.sol\":21020:21041  spender == address(0) */\n      dup4\n      and\n        /* \"contracts/ERC20_flattened.sol\":21016:21106  if (spender == address(0)) {... */\n      tag_278\n      jumpi\n        /* \"contracts/ERC20_flattened.sol\":21064:21095  ERC20InvalidSpender(address(0)) */\n      mload(0x40)\n      shl(0xe1, 0x4a1406b1)\n      dup2\n      mstore\n        /* \"contracts/ERC20_flattened.sol\":21092:21093  0 */\n      0x00\n        /* \"contracts/ERC20_flattened.sol\":21064:21095  ERC20InvalidSpender(address(0)) */\n      0x04\n      dup3\n      add\n        /* \"#utility.yul\":3951:4002   */\n      mstore\n        /* \"#utility.yul\":3924:3942   */\n      0x24\n      add\n        /* \"contracts/ERC20_flattened.sol\":21064:21095  ERC20InvalidSpender(address(0)) */\n      tag_188\n        /* \"#utility.yul\":3805:4008   */\n      jump\n        /* \"contracts/ERC20_flattened.sol\":21016:21106  if (spender == address(0)) {... */\n    tag_278:\n      sub(shl(0xa0, 0x01), 0x01)\n        /* \"contracts/ERC20_flattened.sol\":21115:21133  _allowances[owner] */\n      dup1\n      dup6\n      and\n      0x00\n      swap1\n      dup2\n      mstore\n        /* \"contracts/ERC20_flattened.sol\":21115:21126  _allowances */\n      0x01\n        /* \"contracts/ERC20_flattened.sol\":21115:21133  _allowances[owner] */\n      0x20\n      swap1\n      dup2\n      mstore\n      0x40\n      dup1\n      dup4\n      keccak256\n        /* \"contracts/ERC20_flattened.sol\":21115:21142  _allowances[owner][spender] */\n      swap4\n      dup8\n      and\n      dup4\n      mstore\n      swap3\n      swap1\n      mstore\n      keccak256\n        /* \"contracts/ERC20_flattened.sol\":21115:21150  _allowances[owner][spender] = value */\n      dup3\n      swap1\n      sstore\n        /* \"contracts/ERC20_flattened.sol\":21160:21236  if (emitEvent) {... */\n      dup1\n      iszero\n      tag_218\n      jumpi\n        /* \"contracts/ERC20_flattened.sol\":21210:21217  spender */\n      dup3\n      sub(shl(0xa0, 0x01), 0x01)\n        /* \"contracts/ERC20_flattened.sol\":21194:21225  Approval(owner, spender, value) */\n      and\n        /* \"contracts/ERC20_flattened.sol\":21203:21208  owner */\n      dup5\n      sub(shl(0xa0, 0x01), 0x01)\n        /* \"contracts/ERC20_flattened.sol\":21194:21225  Approval(owner, spender, value) */\n      and\n      0x8c5be1e5ebec7d5bd14f71427d1e84f3dd0314c0f7b2291e5b200ac8c7c3b925\n        /* \"contracts/ERC20_flattened.sol\":21219:21224  value */\n      dup5\n        /* \"contracts/ERC20_flattened.sol\":21194:21225  Approval(owner, spender, value) */\n      mload(0x40)\n      tag_281\n      swap2\n        /* \"#utility.yul\":1354:1379   */\n      dup2\n      mstore\n        /* \"#utility.yul\":1342:1344   */\n      0x20\n        /* \"#utility.yul\":1327:1345   */\n      add\n      swap1\n        /* \"#utility.yul\":1208:1385   */\n      jump\n        /* \"contracts/ERC20_flattened.sol\":21194:21225  Approval(owner, spender, value) */\n    tag_281:\n      mload(0x40)\n      dup1\n      swap2\n      sub\n      swap1\n      log3\n        /* \"contracts/ERC20_flattened.sol\":20810:21242  function _approve(address owner, address spender, uint256 value, bool emitEvent) internal virtual {... */\n      pop\n      pop\n      pop\n      pop\n      jump\t// out\n        /* \"contracts/ERC20_flattened.sol\":85278:85443  function _update(address from, address to, uint256 value)... */\n    tag_225:\n        /* \"contracts/ERC20_flattened.sol\":85406:85436  super._update(from, to, value) */\n      tag_210\n        /* \"contracts/ERC20_flattened.sol\":85420:85424  from */\n      dup4\n        /* \"contracts/ERC20_flattened.sol\":85426:85428  to */\n      dup4\n        /* \"contracts/ERC20_flattened.sol\":85430:85435  value */\n      dup4\n        /* \"contracts/ERC20_flattened.sol\":85406:85419  super._update */\n      tag_284\n        /* \"contracts/ERC20_flattened.sol\":85406:85436  super._update(from, to, value) */\n      jump\t// in\n        /* \"contracts/ERC20_flattened.sol\":25323:25449  function _requirePaused() internal view virtual {... */\n    tag_240:\n        /* \"contracts/ERC20_flattened.sol\":25041:25048  _paused */\n      and(0xff, sload(0x05))\n        /* \"contracts/ERC20_flattened.sol\":25381:25443  if (!paused()) {... */\n      tag_137\n      jumpi\n        /* \"contracts/ERC20_flattened.sol\":25417:25432  ExpectedPause() */\n      mload(0x40)\n      shl(0xe0, 0x8dfc202b)\n      dup2\n      mstore\n      0x04\n      add\n      mload(0x40)\n      dup1\n      swap2\n      sub\n      swap1\n      revert\n        /* \"contracts/ERC20_flattened.sol\":25123:25251  function _requireNotPaused() internal view virtual {... */\n    tag_256:\n        /* \"contracts/ERC20_flattened.sol\":25041:25048  _paused */\n      and(0xff, sload(0x05))\n        /* \"contracts/ERC20_flattened.sol\":25184:25245  if (paused()) {... */\n      iszero\n      tag_137\n      jumpi\n        /* \"contracts/ERC20_flattened.sol\":25219:25234  EnforcedPause() */\n      mload(0x40)\n      shl(0xe0, 0xd93c0665)\n      dup2\n      mstore\n      0x04\n      add\n      mload(0x40)\n      dup1\n      swap2\n      sub\n      swap1\n      revert\n        /* \"contracts/ERC20_flattened.sol\":72410:72677  function toStringWithFallback(ShortString value, string storage store) internal pure returns (string memory) {... */\n    tag_262:\n        /* \"contracts/ERC20_flattened.sol\":72504:72517  string memory */\n      0x60\n        /* \"contracts/ERC20_flattened.sol\":70415:70481  0x00000000000000000000000000000000000000000000000000000000000000FF */\n      0xff\n        /* \"contracts/ERC20_flattened.sol\":72533:72579  ShortString.unwrap(value) != FALLBACK_SENTINEL */\n      dup4\n      eq\n        /* \"contracts/ERC20_flattened.sol\":72529:72671  if (ShortString.unwrap(value) != FALLBACK_SENTINEL) {... */\n      tag_295\n      jumpi\n        /* \"contracts/ERC20_flattened.sol\":72602:72617  toString(value) */\n      tag_296\n        /* \"contracts/ERC20_flattened.sol\":72611:72616  value */\n      dup4\n        /* \"contracts/ERC20_flattened.sol\":72602:72610  toString */\n      tag_297\n        /* \"contracts/ERC20_flattened.sol\":72602:72617  toString(value) */\n      jump\t// in\n    tag_296:\n        /* \"contracts/ERC20_flattened.sol\":72595:72617  return toString(value) */\n      swap1\n      pop\n      jump(tag_117)\n        /* \"contracts/ERC20_flattened.sol\":72529:72671  if (ShortString.unwrap(value) != FALLBACK_SENTINEL) {... */\n    tag_295:\n        /* \"contracts/ERC20_flattened.sol\":72655:72660  store */\n      dup2\n        /* \"contracts/ERC20_flattened.sol\":72648:72660  return store */\n      dup1\n      sload\n      tag_299\n      swap1\n      tag_112\n      jump\t// in\n    tag_299:\n      dup1\n      0x1f\n      add\n      0x20\n      dup1\n      swap2\n      div\n      mul\n      0x20\n      add\n      mload(0x40)\n      swap1\n      dup2\n      add\n      0x40\n      mstore\n      dup1\n      swap3\n      swap2\n      swap1\n      dup2\n      dup2\n      mstore\n      0x20\n      add\n      dup3\n      dup1\n      sload\n      tag_300\n      swap1\n      tag_112\n      jump\t// in\n    tag_300:\n      dup1\n      iszero\n      tag_301\n      jumpi\n      dup1\n      0x1f\n      lt\n      tag_302\n      jumpi\n      0x0100\n      dup1\n      dup4\n      sload\n      div\n      mul\n      dup4\n      mstore\n      swap2\n      0x20\n      add\n      swap2\n      jump(tag_301)\n    tag_302:\n      dup3\n      add\n      swap2\n      swap1\n      0x00\n      mstore\n      keccak256(0x00, 0x20)\n      swap1\n    tag_303:\n      dup2\n      sload\n      dup2\n      mstore\n      swap1\n      0x01\n      add\n      swap1\n      0x20\n      add\n      dup1\n      dup4\n      gt\n      tag_303\n      jumpi\n      dup3\n      swap1\n      sub\n      0x1f\n      and\n      dup3\n      add\n      swap2\n    tag_301:\n      pop\n      pop\n      pop\n      pop\n      pop\n      swap1\n      pop\n      jump(tag_117)\n        /* \"contracts/ERC20_flattened.sol\":39266:40796  function tryRecover(... */\n    tag_272:\n        /* \"contracts/ERC20_flattened.sol\":39392:39399  address */\n      0x00\n      dup1\n      dup1\n        /* \"contracts/ERC20_flattened.sol\":40325:40391  0x7FFFFFFFFFFFFFFFFFFFFFFFFFFFFFFF5D576E7357A4501DDFE92F46681B20A0 */\n      0x7fffffffffffffffffffffffffffffff5d576e7357a4501ddfe92f46681b20a0\n        /* \"contracts/ERC20_flattened.sol\":40312:40391  uint256(s) > 0x7FFFFFFFFFFFFFFFFFFFFFFFFFFFFFFF5D576E7357A4501DDFE92F46681B20A0 */\n      dup5\n      gt\n        /* \"contracts/ERC20_flattened.sol\":40308:40472  if (uint256(s) > 0x7FFFFFFFFFFFFFFFFFFFFFFFFFFFFFFF5D576E7357A4501DDFE92F46681B20A0) {... */\n      iszero\n      tag_306\n      jumpi\n      pop\n        /* \"contracts/ERC20_flattened.sol\":40423:40424  0 */\n      0x00\n      swap2\n      pop\n        /* \"contracts/ERC20_flattened.sol\":40427:40457  RecoverError.InvalidSignatureS */\n      0x03\n      swap1\n      pop\n        /* \"contracts/ERC20_flattened.sol\":40459:40460  s */\n      dup3\n        /* \"contracts/ERC20_flattened.sol\":40407:40461  return (address(0), RecoverError.InvalidSignatureS, s) */\n      jump(tag_305)\n        /* \"contracts/ERC20_flattened.sol\":40308:40472  if (uint256(s) > 0x7FFFFFFFFFFFFFFFFFFFFFFFFFFFFFFF5D576E7357A4501DDFE92F46681B20A0) {... */\n    tag_306:\n        /* \"contracts/ERC20_flattened.sol\":40583:40607  ecrecover(hash, v, r, s) */\n      0x40\n      dup1\n      mload\n        /* \"contracts/ERC20_flattened.sol\":40566:40580  address signer */\n      0x00\n        /* \"contracts/ERC20_flattened.sol\":40583:40607  ecrecover(hash, v, r, s) */\n      dup1\n      dup3\n      mstore\n      0x20\n      dup3\n      add\n      dup1\n      dup5\n      mstore\n        /* \"#utility.yul\":7671:7696   */\n      dup11\n      swap1\n      mstore\n        /* \"#utility.yul\":7744:7748   */\n      0xff\n        /* \"#utility.yul\":7732:7749   */\n      dup10\n      and\n        /* \"#utility.yul\":7712:7730   */\n      swap3\n      dup3\n      add\n        /* \"#utility.yul\":7705:7750   */\n      swap3\n      swap1\n      swap3\n      mstore\n        /* \"#utility.yul\":7766:7784   */\n      0x60\n      dup2\n      add\n        /* \"#utility.yul\":7759:7793   */\n      dup8\n      swap1\n      mstore\n        /* \"#utility.yul\":7809:7827   */\n      0x80\n      dup2\n      add\n        /* \"#utility.yul\":7802:7836   */\n      dup7\n      swap1\n      mstore\n        /* \"contracts/ERC20_flattened.sol\":40583:40607  ecrecover(hash, v, r, s) */\n      0x01\n      swap1\n        /* \"#utility.yul\":7643:7662   */\n      0xa0\n      add\n        /* \"contracts/ERC20_flattened.sol\":40583:40607  ecrecover(hash, v, r, s) */\n      0x20\n      mload(0x40)\n      0x20\n      dup2\n      sub\n      swap1\n      dup1\n      dup5\n      sub\n      swap1\n      dup6\n      gas\n      staticcall\n      iszero\n      dup1\n      iszero\n      tag_310\n      jumpi\n      returndatasize\n      0x00\n      dup1\n      returndatacopy\n      revert(0x00, returndatasize)\n    tag_310:\n      pop\n      pop\n      mload(add(not(0x1f), mload(0x40)))\n      swap2\n      pop\n      pop\n      sub(shl(0xa0, 0x01), 0x01)\n        /* \"contracts/ERC20_flattened.sol\":40621:40641  signer == address(0) */\n      dup2\n      and\n        /* \"contracts/ERC20_flattened.sol\":40617:40730  if (signer == address(0)) {... */\n      tag_311\n      jumpi\n      pop\n        /* \"contracts/ERC20_flattened.sol\":40673:40674  0 */\n      0x00\n      swap3\n      pop\n        /* \"contracts/ERC20_flattened.sol\":40677:40706  RecoverError.InvalidSignature */\n      0x01\n      swap2\n      pop\n        /* \"contracts/ERC20_flattened.sol\":40673:40674  0 */\n      dup3\n      swap1\n      pop\n        /* \"contracts/ERC20_flattened.sol\":40657:40719  return (address(0), RecoverError.InvalidSignature, bytes32(0)) */\n      jump(tag_305)\n        /* \"contracts/ERC20_flattened.sol\":40617:40730  if (signer == address(0)) {... */\n    tag_311:\n        /* \"contracts/ERC20_flattened.sol\":40748:40754  signer */\n      swap3\n      pop\n        /* \"contracts/ERC20_flattened.sol\":40756:40776  RecoverError.NoError */\n      0x00\n      swap2\n      pop\n      dup2\n      swap1\n      pop\n        /* \"contracts/ERC20_flattened.sol\":39266:40796  function tryRecover(... */\n    tag_305:\n      swap5\n      pop\n      swap5\n      pop\n      swap5\n      swap2\n      pop\n      pop\n      jump\t// out\n        /* \"contracts/ERC20_flattened.sol\":41322:41854  function _throwError(RecoverError error, bytes32 errorArg) private pure {... */\n    tag_274:\n        /* \"contracts/ERC20_flattened.sol\":41417:41437  RecoverError.NoError */\n      0x00\n        /* \"contracts/ERC20_flattened.sol\":41408:41413  error */\n      dup3\n        /* \"contracts/ERC20_flattened.sol\":41408:41437  error == RecoverError.NoError */\n      0x03\n      dup2\n      gt\n      iszero\n      tag_317\n      jumpi\n      tag_317\n      tag_315\n      jump\t// in\n    tag_317:\n      sub\n        /* \"contracts/ERC20_flattened.sol\":41404:41848  if (error == RecoverError.NoError) {... */\n      tag_318\n      jumpi\n        /* \"contracts/ERC20_flattened.sol\":41322:41854  function _throwError(RecoverError error, bytes32 errorArg) private pure {... */\n      pop\n      pop\n      jump\t// out\n        /* \"contracts/ERC20_flattened.sol\":41404:41848  if (error == RecoverError.NoError) {... */\n    tag_318:\n        /* \"contracts/ERC20_flattened.sol\":41513:41542  RecoverError.InvalidSignature */\n      0x01\n        /* \"contracts/ERC20_flattened.sol\":41504:41509  error */\n      dup3\n        /* \"contracts/ERC20_flattened.sol\":41504:41542  error == RecoverError.InvalidSignature */\n      0x03\n      dup2\n      gt\n      iszero\n      tag_323\n      jumpi\n      tag_323\n      tag_315\n      jump\t// in\n    tag_323:\n      sub\n        /* \"contracts/ERC20_flattened.sol\":41500:41848  if (error == RecoverError.InvalidSignature) {... */\n      tag_324\n      jumpi\n        /* \"contracts/ERC20_flattened.sol\":41565:41588  ECDSAInvalidSignature() */\n      mload(0x40)\n      shl(0xe0, 0xf645eedf)\n      dup2\n      mstore\n      0x04\n      add\n      mload(0x40)\n      dup1\n      swap2\n      sub\n      swap1\n      revert\n        /* \"contracts/ERC20_flattened.sol\":41500:41848  if (error == RecoverError.InvalidSignature) {... */\n    tag_324:\n        /* \"contracts/ERC20_flattened.sol\":41618:41653  RecoverError.InvalidSignatureLength */\n      0x02\n        /* \"contracts/ERC20_flattened.sol\":41609:41614  error */\n      dup3\n        /* \"contracts/ERC20_flattened.sol\":41609:41653  error == RecoverError.InvalidSignatureLength */\n      0x03\n      dup2\n      gt\n      iszero\n      tag_329\n      jumpi\n      tag_329\n      tag_315\n      jump\t// in\n    tag_329:\n      sub\n        /* \"contracts/ERC20_flattened.sol\":41605:41848  if (error == RecoverError.InvalidSignatureLength) {... */\n      tag_330\n      jumpi\n        /* \"contracts/ERC20_flattened.sol\":41676:41722  ECDSAInvalidSignatureLength(uint256(errorArg)) */\n      mload(0x40)\n      shl(0xe0, 0xfce698f7)\n      dup2\n      mstore\n      0x04\n      dup2\n      add\n        /* \"#utility.yul\":1354:1379   */\n      dup3\n      swap1\n      mstore\n        /* \"#utility.yul\":1327:1345   */\n      0x24\n      add\n        /* \"contracts/ERC20_flattened.sol\":41676:41722  ECDSAInvalidSignatureLength(uint256(errorArg)) */\n      tag_188\n        /* \"#utility.yul\":1208:1385   */\n      jump\n        /* \"contracts/ERC20_flattened.sol\":41605:41848  if (error == RecoverError.InvalidSignatureLength) {... */\n    tag_330:\n        /* \"contracts/ERC20_flattened.sol\":41752:41782  RecoverError.InvalidSignatureS */\n      0x03\n        /* \"contracts/ERC20_flattened.sol\":41743:41748  error */\n      dup3\n        /* \"contracts/ERC20_flattened.sol\":41743:41782  error == RecoverError.InvalidSignatureS */\n      0x03\n      dup2\n      gt\n      iszero\n      tag_336\n      jumpi\n      tag_336\n      tag_315\n      jump\t// in\n    tag_336:\n      sub\n        /* \"contracts/ERC20_flattened.sol\":41739:41848  if (error == RecoverError.InvalidSignatureS) {... */\n      tag_142\n      jumpi\n        /* \"contracts/ERC20_flattened.sol\":41805:41837  ECDSAInvalidSignatureS(errorArg) */\n      mload(0x40)\n      shl(0xe2, 0x35e2f383)\n      dup2\n      mstore\n      0x04\n      dup2\n      add\n        /* \"#utility.yul\":1354:1379   */\n      dup3\n      swap1\n      mstore\n        /* \"#utility.yul\":1327:1345   */\n      0x24\n      add\n        /* \"contracts/ERC20_flattened.sol\":41805:41837  ECDSAInvalidSignatureS(errorArg) */\n      tag_188\n        /* \"#utility.yul\":1208:1385   */\n      jump\n        /* \"contracts/ERC20_flattened.sol\":27019:27164  function _update(address from, address to, uint256 value) internal virtual override whenNotPaused {... */\n    tag_284:\n        /* \"contracts/ERC20_flattened.sol\":24595:24614  _requireNotPaused() */\n      tag_340\n        /* \"contracts/ERC20_flattened.sol\":24595:24612  _requireNotPaused */\n      tag_256\n        /* \"contracts/ERC20_flattened.sol\":24595:24614  _requireNotPaused() */\n      jump\t// in\n    tag_340:\n        /* \"contracts/ERC20_flattened.sol\":27127:27157  super._update(from, to, value) */\n      tag_210\n        /* \"contracts/ERC20_flattened.sol\":27141:27145  from */\n      dup4\n        /* \"contracts/ERC20_flattened.sol\":27147:27149  to */\n      dup4\n        /* \"contracts/ERC20_flattened.sol\":27151:27156  value */\n      dup4\n        /* \"contracts/ERC20_flattened.sol\":27127:27140  super._update */\n      tag_343\n        /* \"contracts/ERC20_flattened.sol\":27127:27157  super._update(from, to, value) */\n      jump\t// in\n        /* \"contracts/ERC20_flattened.sol\":71103:71508  function toString(ShortString sstr) internal pure returns (string memory) {... */\n    tag_297:\n        /* \"contracts/ERC20_flattened.sol\":71162:71175  string memory */\n      0x60\n        /* \"contracts/ERC20_flattened.sol\":71187:71198  uint256 len */\n      0x00\n        /* \"contracts/ERC20_flattened.sol\":71201:71217  byteLength(sstr) */\n      tag_345\n        /* \"contracts/ERC20_flattened.sol\":71212:71216  sstr */\n      dup4\n        /* \"contracts/ERC20_flattened.sol\":71201:71211  byteLength */\n      tag_346\n        /* \"contracts/ERC20_flattened.sol\":71201:71217  byteLength(sstr) */\n      jump\t// in\n    tag_345:\n        /* \"contracts/ERC20_flattened.sol\":71325:71339  new string(32) */\n      0x40\n      dup1\n      mload\n        /* \"contracts/ERC20_flattened.sol\":71336:71338  32 */\n      0x20\n        /* \"contracts/ERC20_flattened.sol\":71325:71339  new string(32) */\n      dup1\n      dup3\n      mstore\n      dup2\n      dup4\n      add\n      swap1\n      swap3\n      mstore\n        /* \"contracts/ERC20_flattened.sol\":71187:71217  uint256 len = byteLength(sstr) */\n      swap2\n      swap3\n      pop\n        /* \"contracts/ERC20_flattened.sol\":71305:71322  string memory str */\n      0x00\n      swap2\n        /* \"contracts/ERC20_flattened.sol\":71325:71339  new string(32) */\n      swap1\n      0x20\n      dup3\n      add\n      dup2\n      dup1\n      calldatasize\n      dup4\n      calldatacopy\n      pop\n      pop\n      pop\n        /* \"contracts/ERC20_flattened.sol\":71415:71431  mstore(str, len) */\n      swap2\n      dup3\n      mstore\n      pop\n        /* \"contracts/ERC20_flattened.sol\":71460:71464  0x20 */\n      0x20\n        /* \"contracts/ERC20_flattened.sol\":71451:71465  add(str, 0x20) */\n      dup2\n      add\n        /* \"contracts/ERC20_flattened.sol\":71444:71472  mstore(add(str, 0x20), sstr) */\n      swap3\n      swap1\n      swap3\n      mstore\n      pop\n        /* \"contracts/ERC20_flattened.sol\":71415:71431  mstore(str, len) */\n      swap1\n        /* \"contracts/ERC20_flattened.sol\":71103:71508  function toString(ShortString sstr) internal pure returns (string memory) {... */\n      jump\t// out\n        /* \"contracts/ERC20_flattened.sol\":17132:18239  function _update(address from, address to, uint256 value) internal virtual {... */\n    tag_343:\n      sub(shl(0xa0, 0x01), 0x01)\n        /* \"contracts/ERC20_flattened.sol\":17221:17239  from == address(0) */\n      dup4\n      and\n        /* \"contracts/ERC20_flattened.sol\":17217:17757  if (from == address(0)) {... */\n      tag_351\n      jumpi\n        /* \"contracts/ERC20_flattened.sol\":17373:17378  value */\n      dup1\n        /* \"contracts/ERC20_flattened.sol\":17357:17369  _totalSupply */\n      0x02\n      0x00\n        /* \"contracts/ERC20_flattened.sol\":17357:17378  _totalSupply += value */\n      dup3\n      dup3\n      sload\n      tag_352\n      swap2\n      swap1\n      tag_353\n      jump\t// in\n    tag_352:\n      swap1\n      swap2\n      sstore\n      pop\n        /* \"contracts/ERC20_flattened.sol\":17217:17757  if (from == address(0)) {... */\n      tag_354\n      swap1\n      pop\n      jump\n    tag_351:\n      sub(shl(0xa0, 0x01), 0x01)\n        /* \"contracts/ERC20_flattened.sol\":17431:17446  _balances[from] */\n      dup4\n      and\n        /* \"contracts/ERC20_flattened.sol\":17409:17428  uint256 fromBalance */\n      0x00\n        /* \"contracts/ERC20_flattened.sol\":17431:17446  _balances[from] */\n      swap1\n      dup2\n      mstore\n      0x20\n      dup2\n      swap1\n      mstore\n      0x40\n      swap1\n      keccak256\n      sload\n        /* \"contracts/ERC20_flattened.sol\":17464:17483  fromBalance < value */\n      dup2\n      dup2\n      lt\n        /* \"contracts/ERC20_flattened.sol\":17460:17575  if (fromBalance < value) {... */\n      iszero\n      tag_355\n      jumpi\n        /* \"contracts/ERC20_flattened.sol\":17510:17560  ERC20InsufficientBalance(from, fromBalance, value) */\n      mload(0x40)\n      shl(0xe2, 0x391434e3)\n      dup2\n      mstore\n      sub(shl(0xa0, 0x01), 0x01)\n        /* \"#utility.yul\":6820:6852   */\n      dup6\n      and\n        /* \"contracts/ERC20_flattened.sol\":17510:17560  ERC20InsufficientBalance(from, fromBalance, value) */\n      0x04\n      dup3\n      add\n        /* \"#utility.yul\":6802:6853   */\n      mstore\n        /* \"#utility.yul\":6869:6887   */\n      0x24\n      dup2\n      add\n        /* \"#utility.yul\":6862:6896   */\n      dup3\n      swap1\n      mstore\n        /* \"#utility.yul\":6912:6930   */\n      0x44\n      dup2\n      add\n        /* \"#utility.yul\":6905:6939   */\n      dup4\n      swap1\n      mstore\n        /* \"#utility.yul\":6775:6793   */\n      0x64\n      add\n        /* \"contracts/ERC20_flattened.sol\":17510:17560  ERC20InsufficientBalance(from, fromBalance, value) */\n      tag_188\n        /* \"#utility.yul\":6600:6945   */\n      jump\n        /* \"contracts/ERC20_flattened.sol\":17460:17575  if (fromBalance < value) {... */\n    tag_355:\n      sub(shl(0xa0, 0x01), 0x01)\n        /* \"contracts/ERC20_flattened.sol\":17695:17710  _balances[from] */\n      dup5\n      and\n        /* \"contracts/ERC20_flattened.sol\":17695:17704  _balances */\n      0x00\n        /* \"contracts/ERC20_flattened.sol\":17695:17710  _balances[from] */\n      swap1\n      dup2\n      mstore\n      0x20\n      dup2\n      swap1\n      mstore\n      0x40\n      swap1\n      keccak256\n        /* \"contracts/ERC20_flattened.sol\":17713:17732  fromBalance - value */\n      swap1\n      dup3\n      swap1\n      sub\n        /* \"contracts/ERC20_flattened.sol\":17695:17732  _balances[from] = fromBalance - value */\n      swap1\n      sstore\n        /* \"contracts/ERC20_flattened.sol\":17217:17757  if (from == address(0)) {... */\n    tag_354:\n      sub(shl(0xa0, 0x01), 0x01)\n        /* \"contracts/ERC20_flattened.sol\":17771:17787  to == address(0) */\n      dup3\n      and\n        /* \"contracts/ERC20_flattened.sol\":17767:18192  if (to == address(0)) {... */\n      tag_357\n      jumpi\n        /* \"contracts/ERC20_flattened.sol\":17934:17946  _totalSupply */\n      0x02\n        /* \"contracts/ERC20_flattened.sol\":17934:17955  _totalSupply -= value */\n      dup1\n      sload\n      dup3\n      swap1\n      sub\n      swap1\n      sstore\n        /* \"contracts/ERC20_flattened.sol\":17767:18192  if (to == address(0)) {... */\n      jump(tag_358)\n    tag_357:\n      sub(shl(0xa0, 0x01), 0x01)\n        /* \"contracts/ERC20_flattened.sol\":18145:18158  _balances[to] */\n      dup3\n      and\n        /* \"contracts/ERC20_flattened.sol\":18145:18154  _balances */\n      0x00\n        /* \"contracts/ERC20_flattened.sol\":18145:18158  _balances[to] */\n      swap1\n      dup2\n      mstore\n      0x20\n      dup2\n      swap1\n      mstore\n      0x40\n      swap1\n      keccak256\n        /* \"contracts/ERC20_flattened.sol\":18145:18167  _balances[to] += value */\n      dup1\n      sload\n      dup3\n      add\n      swap1\n      sstore\n        /* \"contracts/ERC20_flattened.sol\":17767:18192  if (to == address(0)) {... */\n    tag_358:\n        /* \"contracts/ERC20_flattened.sol\":18222:18224  to */\n      dup2\n      sub(shl(0xa0, 0x01), 0x01)\n        /* \"contracts/ERC20_flattened.sol\":18207:18232  Transfer(from, to, value) */\n      and\n        /* \"contracts/ERC20_flattened.sol\":18216:18220  from */\n      dup4\n      sub(shl(0xa0, 0x01), 0x01)\n        /* \"contracts/ERC20_flattened.sol\":18207:18232  Transfer(from, to, value) */\n      and\n      0xddf252ad1be2c89b69c2b068fc378daa952ba7f163c4a11628f55a4df523b3ef\n        /* \"contracts/ERC20_flattened.sol\":18226:18231  value */\n      dup4\n        /* \"contracts/ERC20_flattened.sol\":18207:18232  Transfer(from, to, value) */\n      mload(0x40)\n      tag_359\n      swap2\n        /* \"#utility.yul\":1354:1379   */\n      dup2\n      mstore\n        /* \"#utility.yul\":1342:1344   */\n      0x20\n        /* \"#utility.yul\":1327:1345   */\n      add\n      swap1\n        /* \"#utility.yul\":1208:1385   */\n      jump\n        /* \"contracts/ERC20_flattened.sol\":18207:18232  Transfer(from, to, value) */\n    tag_359:\n      mload(0x40)\n      dup1\n      swap2\n      sub\n      swap1\n      log3\n        /* \"contracts/ERC20_flattened.sol\":17132:18239  function _update(address from, address to, uint256 value) internal virtual {... */\n      pop\n      pop\n      pop\n      jump\t// out\n        /* \"contracts/ERC20_flattened.sol\":71580:71825  function byteLength(ShortString sstr) internal pure returns (uint256) {... */\n    tag_346:\n        /* \"contracts/ERC20_flattened.sol\":71641:71648  uint256 */\n      0x00\n        /* \"contracts/ERC20_flattened.sol\":71713:71717  0xFF */\n      0xff\n        /* \"contracts/ERC20_flattened.sol\":71677:71717  uint256(ShortString.unwrap(sstr)) & 0xFF */\n      dup3\n      and\n        /* \"contracts/ERC20_flattened.sol\":71740:71742  31 */\n      0x1f\n        /* \"contracts/ERC20_flattened.sol\":71731:71742  result > 31 */\n      dup2\n      gt\n        /* \"contracts/ERC20_flattened.sol\":71727:71796  if (result > 31) {... */\n      iszero\n      tag_117\n      jumpi\n        /* \"contracts/ERC20_flattened.sol\":71765:71785  InvalidShortString() */\n      mload(0x40)\n      shl(0xe2, 0x2cd44ac3)\n      dup2\n      mstore\n      0x04\n      add\n      mload(0x40)\n      dup1\n      swap2\n      sub\n      swap1\n      revert\n        /* \"#utility.yul\":14:303   */\n    tag_362:\n        /* \"#utility.yul\":56:59   */\n      0x00\n        /* \"#utility.yul\":94:99   */\n      dup2\n        /* \"#utility.yul\":88:100   */\n      mload\n        /* \"#utility.yul\":121:127   */\n      dup1\n        /* \"#utility.yul\":116:119   */\n      dup5\n        /* \"#utility.yul\":109:128   */\n      mstore\n        /* \"#utility.yul\":177:183   */\n      dup1\n        /* \"#utility.yul\":170:174   */\n      0x20\n        /* \"#utility.yul\":163:168   */\n      dup5\n        /* \"#utility.yul\":159:175   */\n      add\n        /* \"#utility.yul\":152:156   */\n      0x20\n        /* \"#utility.yul\":147:150   */\n      dup7\n        /* \"#utility.yul\":143:157   */\n      add\n        /* \"#utility.yul\":137:184   */\n      mcopy\n        /* \"#utility.yul\":229:230   */\n      0x00\n        /* \"#utility.yul\":222:226   */\n      0x20\n        /* \"#utility.yul\":213:219   */\n      dup3\n        /* \"#utility.yul\":208:211   */\n      dup7\n        /* \"#utility.yul\":204:220   */\n      add\n        /* \"#utility.yul\":200:227   */\n      add\n        /* \"#utility.yul\":193:231   */\n      mstore\n        /* \"#utility.yul\":292:296   */\n      0x20\n        /* \"#utility.yul\":285:287   */\n      0x1f\n        /* \"#utility.yul\":281:288   */\n      not\n        /* \"#utility.yul\":276:278   */\n      0x1f\n        /* \"#utility.yul\":268:274   */\n      dup4\n        /* \"#utility.yul\":264:279   */\n      add\n        /* \"#utility.yul\":260:289   */\n      and\n        /* \"#utility.yul\":255:258   */\n      dup6\n        /* \"#utility.yul\":251:290   */\n      add\n        /* \"#utility.yul\":247:297   */\n      add\n        /* \"#utility.yul\":240:297   */\n      swap2\n      pop\n      pop\n        /* \"#utility.yul\":14:303   */\n      swap3\n      swap2\n      pop\n      pop\n      jump\t// out\n        /* \"#utility.yul\":308:528   */\n    tag_31:\n        /* \"#utility.yul\":457:459   */\n      0x20\n        /* \"#utility.yul\":446:455   */\n      dup2\n        /* \"#utility.yul\":439:460   */\n      mstore\n        /* \"#utility.yul\":420:424   */\n      0x00\n        /* \"#utility.yul\":477:522   */\n      tag_367\n        /* \"#utility.yul\":518:520   */\n      0x20\n        /* \"#utility.yul\":507:516   */\n      dup4\n        /* \"#utility.yul\":503:521   */\n      add\n        /* \"#utility.yul\":495:501   */\n      dup5\n        /* \"#utility.yul\":477:522   */\n      tag_362\n      jump\t// in\n    tag_367:\n        /* \"#utility.yul\":469:522   */\n      swap4\n        /* \"#utility.yul\":308:528   */\n      swap3\n      pop\n      pop\n      pop\n      jump\t// out\n        /* \"#utility.yul\":533:706   */\n    tag_363:\n        /* \"#utility.yul\":601:621   */\n      dup1\n      calldataload\n      sub(shl(0xa0, 0x01), 0x01)\n        /* \"#utility.yul\":650:681   */\n      dup2\n      and\n        /* \"#utility.yul\":640:682   */\n      dup2\n      eq\n        /* \"#utility.yul\":630:700   */\n      tag_369\n      jumpi\n        /* \"#utility.yul\":696:697   */\n      0x00\n        /* \"#utility.yul\":693:694   */\n      dup1\n        /* \"#utility.yul\":686:698   */\n      revert\n        /* \"#utility.yul\":630:700   */\n    tag_369:\n        /* \"#utility.yul\":533:706   */\n      swap2\n      swap1\n      pop\n      jump\t// out\n        /* \"#utility.yul\":711:1011   */\n    tag_34:\n        /* \"#utility.yul\":779:785   */\n      0x00\n        /* \"#utility.yul\":787:793   */\n      dup1\n        /* \"#utility.yul\":840:842   */\n      0x40\n        /* \"#utility.yul\":828:837   */\n      dup4\n        /* \"#utility.yul\":819:826   */\n      dup6\n        /* \"#utility.yul\":815:838   */\n      sub\n        /* \"#utility.yul\":811:843   */\n      slt\n        /* \"#utility.yul\":808:860   */\n      iszero\n      tag_371\n      jumpi\n        /* \"#utility.yul\":856:857   */\n      0x00\n        /* \"#utility.yul\":853:854   */\n      dup1\n        /* \"#utility.yul\":846:858   */\n      revert\n        /* \"#utility.yul\":808:860   */\n    tag_371:\n        /* \"#utility.yul\":879:908   */\n      tag_372\n        /* \"#utility.yul\":898:907   */\n      dup4\n        /* \"#utility.yul\":879:908   */\n      tag_363\n      jump\t// in\n    tag_372:\n        /* \"#utility.yul\":869:908   */\n      swap5\n        /* \"#utility.yul\":977:979   */\n      0x20\n        /* \"#utility.yul\":962:980   */\n      swap4\n      swap1\n      swap4\n      add\n        /* \"#utility.yul\":949:981   */\n      calldataload\n      swap4\n      pop\n      pop\n      pop\n        /* \"#utility.yul\":711:1011   */\n      jump\t// out\n        /* \"#utility.yul\":1390:1764   */\n    tag_44:\n        /* \"#utility.yul\":1467:1473   */\n      0x00\n        /* \"#utility.yul\":1475:1481   */\n      dup1\n        /* \"#utility.yul\":1483:1489   */\n      0x00\n        /* \"#utility.yul\":1536:1538   */\n      0x60\n        /* \"#utility.yul\":1524:1533   */\n      dup5\n        /* \"#utility.yul\":1515:1522   */\n      dup7\n        /* \"#utility.yul\":1511:1534   */\n      sub\n        /* \"#utility.yul\":1507:1539   */\n      slt\n        /* \"#utility.yul\":1504:1556   */\n      iszero\n      tag_376\n      jumpi\n        /* \"#utility.yul\":1552:1553   */\n      0x00\n        /* \"#utility.yul\":1549:1550   */\n      dup1\n        /* \"#utility.yul\":1542:1554   */\n      revert\n        /* \"#utility.yul\":1504:1556   */\n    tag_376:\n        /* \"#utility.yul\":1575:1604   */\n      tag_377\n        /* \"#utility.yul\":1594:1603   */\n      dup5\n        /* \"#utility.yul\":1575:1604   */\n      tag_363\n      jump\t// in\n    tag_377:\n        /* \"#utility.yul\":1565:1604   */\n      swap3\n      pop\n        /* \"#utility.yul\":1623:1661   */\n      tag_378\n        /* \"#utility.yul\":1657:1659   */\n      0x20\n        /* \"#utility.yul\":1646:1655   */\n      dup6\n        /* \"#utility.yul\":1642:1660   */\n      add\n        /* \"#utility.yul\":1623:1661   */\n      tag_363\n      jump\t// in\n    tag_378:\n        /* \"#utility.yul\":1390:1764   */\n      swap3\n      swap6\n        /* \"#utility.yul\":1613:1661   */\n      swap3\n      swap5\n      pop\n      pop\n      pop\n        /* \"#utility.yul\":1730:1732   */\n      0x40\n        /* \"#utility.yul\":1715:1733   */\n      swap2\n      swap1\n      swap2\n      add\n        /* \"#utility.yul\":1702:1734   */\n      calldataload\n      swap1\n        /* \"#utility.yul\":1390:1764   */\n      jump\t// out\n        /* \"#utility.yul\":2140:2366   */\n    tag_62:\n        /* \"#utility.yul\":2199:2205   */\n      0x00\n        /* \"#utility.yul\":2252:2254   */\n      0x20\n        /* \"#utility.yul\":2240:2249   */\n      dup3\n        /* \"#utility.yul\":2231:2238   */\n      dup5\n        /* \"#utility.yul\":2227:2250   */\n      sub\n        /* \"#utility.yul\":2223:2255   */\n      slt\n        /* \"#utility.yul\":2220:2272   */\n      iszero\n      tag_382\n      jumpi\n        /* \"#utility.yul\":2268:2269   */\n      0x00\n        /* \"#utility.yul\":2265:2266   */\n      dup1\n        /* \"#utility.yul\":2258:2270   */\n      revert\n        /* \"#utility.yul\":2220:2272   */\n    tag_382:\n      pop\n        /* \"#utility.yul\":2313:2336   */\n      calldataload\n      swap2\n        /* \"#utility.yul\":2140:2366   */\n      swap1\n      pop\n      jump\t// out\n        /* \"#utility.yul\":2371:2557   */\n    tag_69:\n        /* \"#utility.yul\":2430:2436   */\n      0x00\n        /* \"#utility.yul\":2483:2485   */\n      0x20\n        /* \"#utility.yul\":2471:2480   */\n      dup3\n        /* \"#utility.yul\":2462:2469   */\n      dup5\n        /* \"#utility.yul\":2458:2481   */\n      sub\n        /* \"#utility.yul\":2454:2486   */\n      slt\n        /* \"#utility.yul\":2451:2503   */\n      iszero\n      tag_384\n      jumpi\n        /* \"#utility.yul\":2499:2500   */\n      0x00\n        /* \"#utility.yul\":2496:2497   */\n      dup1\n        /* \"#utility.yul\":2489:2501   */\n      revert\n        /* \"#utility.yul\":2451:2503   */\n    tag_384:\n        /* \"#utility.yul\":2522:2551   */\n      tag_367\n        /* \"#utility.yul\":2541:2550   */\n      dup3\n        /* \"#utility.yul\":2522:2551   */\n      tag_363\n      jump\t// in\n        /* \"#utility.yul\":2562:3800   */\n    tag_86:\n        /* \"#utility.yul\":2968:2971   */\n      0xff\n        /* \"#utility.yul\":2963:2966   */\n      0xf8\n        /* \"#utility.yul\":2959:2972   */\n      shl\n        /* \"#utility.yul\":2951:2957   */\n      dup9\n        /* \"#utility.yul\":2947:2973   */\n      and\n        /* \"#utility.yul\":2936:2945   */\n      dup2\n        /* \"#utility.yul\":2929:2974   */\n      mstore\n        /* \"#utility.yul\":3010:3013   */\n      0xe0\n        /* \"#utility.yul\":3005:3007   */\n      0x20\n        /* \"#utility.yul\":2994:3003   */\n      dup3\n        /* \"#utility.yul\":2990:3008   */\n      add\n        /* \"#utility.yul\":2983:3014   */\n      mstore\n        /* \"#utility.yul\":2910:2914   */\n      0x00\n        /* \"#utility.yul\":3037:3083   */\n      tag_387\n        /* \"#utility.yul\":3078:3081   */\n      0xe0\n        /* \"#utility.yul\":3067:3076   */\n      dup4\n        /* \"#utility.yul\":3063:3082   */\n      add\n        /* \"#utility.yul\":3055:3061   */\n      dup10\n        /* \"#utility.yul\":3037:3083   */\n      tag_362\n      jump\t// in\n    tag_387:\n        /* \"#utility.yul\":3131:3140   */\n      dup3\n        /* \"#utility.yul\":3123:3129   */\n      dup2\n        /* \"#utility.yul\":3119:3141   */\n      sub\n        /* \"#utility.yul\":3114:3116   */\n      0x40\n        /* \"#utility.yul\":3103:3112   */\n      dup5\n        /* \"#utility.yul\":3099:3117   */\n      add\n        /* \"#utility.yul\":3092:3142   */\n      mstore\n        /* \"#utility.yul\":3165:3198   */\n      tag_388\n        /* \"#utility.yul\":3191:3197   */\n      dup2\n        /* \"#utility.yul\":3183:3189   */\n      dup10\n        /* \"#utility.yul\":3165:3198   */\n      tag_362\n      jump\t// in\n    tag_388:\n        /* \"#utility.yul\":3229:3231   */\n      0x60\n        /* \"#utility.yul\":3214:3232   */\n      dup5\n      add\n        /* \"#utility.yul\":3207:3241   */\n      dup9\n      swap1\n      mstore\n      sub(shl(0xa0, 0x01), 0x01)\n        /* \"#utility.yul\":3278:3310   */\n      dup8\n      and\n        /* \"#utility.yul\":3272:3275   */\n      0x80\n        /* \"#utility.yul\":3257:3276   */\n      dup6\n      add\n        /* \"#utility.yul\":3250:3311   */\n      mstore\n        /* \"#utility.yul\":3298:3301   */\n      0xa0\n        /* \"#utility.yul\":3327:3346   */\n      dup5\n      add\n        /* \"#utility.yul\":3320:3355   */\n      dup7\n      swap1\n      mstore\n        /* \"#utility.yul\":3392:3414   */\n      dup4\n      dup2\n      sub\n        /* \"#utility.yul\":3386:3389   */\n      0xc0\n        /* \"#utility.yul\":3371:3390   */\n      dup6\n      add\n        /* \"#utility.yul\":3364:3415   */\n      mstore\n        /* \"#utility.yul\":3464:3477   */\n      dup5\n      mload\n        /* \"#utility.yul\":3486:3508   */\n      dup1\n      dup3\n      mstore\n        /* \"#utility.yul\":3536:3538   */\n      0x20\n        /* \"#utility.yul\":3562:3577   */\n      dup1\n      dup8\n      add\n      swap4\n      pop\n        /* \"#utility.yul\":3524:3539   */\n      swap1\n      swap2\n      add\n      swap1\n      0x00\n        /* \"#utility.yul\":3605:3774   */\n    tag_389:\n        /* \"#utility.yul\":3619:3625   */\n      dup2\n        /* \"#utility.yul\":3616:3617   */\n      dup2\n        /* \"#utility.yul\":3613:3626   */\n      lt\n        /* \"#utility.yul\":3605:3774   */\n      iszero\n      tag_391\n      jumpi\n        /* \"#utility.yul\":3680:3693   */\n      dup4\n      mload\n        /* \"#utility.yul\":3668:3694   */\n      dup4\n      mstore\n        /* \"#utility.yul\":3723:3725   */\n      0x20\n        /* \"#utility.yul\":3749:3764   */\n      swap4\n      dup5\n      add\n      swap4\n        /* \"#utility.yul\":3714:3726   */\n      swap1\n      swap3\n      add\n      swap2\n        /* \"#utility.yul\":3641:3642   */\n      0x01\n        /* \"#utility.yul\":3634:3643   */\n      add\n        /* \"#utility.yul\":3605:3774   */\n      jump(tag_389)\n    tag_391:\n      pop\n        /* \"#utility.yul\":3791:3794   */\n      swap1\n      swap12\n        /* \"#utility.yul\":2562:3800   */\n      swap11\n      pop\n      pop\n      pop\n      pop\n      pop\n      pop\n      pop\n      pop\n      pop\n      pop\n      pop\n      jump\t// out\n        /* \"#utility.yul\":4013:4916   */\n    tag_100:\n        /* \"#utility.yul\":4124:4130   */\n      0x00\n        /* \"#utility.yul\":4132:4138   */\n      dup1\n        /* \"#utility.yul\":4140:4146   */\n      0x00\n        /* \"#utility.yul\":4148:4154   */\n      dup1\n        /* \"#utility.yul\":4156:4162   */\n      0x00\n        /* \"#utility.yul\":4164:4170   */\n      dup1\n        /* \"#utility.yul\":4172:4178   */\n      0x00\n        /* \"#utility.yul\":4225:4228   */\n      0xe0\n        /* \"#utility.yul\":4213:4222   */\n      dup9\n        /* \"#utility.yul\":4204:4211   */\n      dup11\n        /* \"#utility.yul\":4200:4223   */\n      sub\n        /* \"#utility.yul\":4196:4229   */\n      slt\n        /* \"#utility.yul\":4193:4246   */\n      iszero\n      tag_394\n      jumpi\n        /* \"#utility.yul\":4242:4243   */\n      0x00\n        /* \"#utility.yul\":4239:4240   */\n      dup1\n        /* \"#utility.yul\":4232:4244   */\n      revert\n        /* \"#utility.yul\":4193:4246   */\n    tag_394:\n        /* \"#utility.yul\":4265:4294   */\n      tag_395\n        /* \"#utility.yul\":4284:4293   */\n      dup9\n        /* \"#utility.yul\":4265:4294   */\n      tag_363\n      jump\t// in\n    tag_395:\n        /* \"#utility.yul\":4255:4294   */\n      swap7\n      pop\n        /* \"#utility.yul\":4313:4351   */\n      tag_396\n        /* \"#utility.yul\":4347:4349   */\n      0x20\n        /* \"#utility.yul\":4336:4345   */\n      dup10\n        /* \"#utility.yul\":4332:4350   */\n      add\n        /* \"#utility.yul\":4313:4351   */\n      tag_363\n      jump\t// in\n    tag_396:\n        /* \"#utility.yul\":4303:4351   */\n      swap6\n      pop\n        /* \"#utility.yul\":4420:4422   */\n      0x40\n        /* \"#utility.yul\":4405:4423   */\n      dup9\n      add\n        /* \"#utility.yul\":4392:4424   */\n      calldataload\n      swap5\n      pop\n        /* \"#utility.yul\":4521:4523   */\n      0x60\n        /* \"#utility.yul\":4506:4524   */\n      dup9\n      add\n        /* \"#utility.yul\":4493:4525   */\n      calldataload\n      swap4\n      pop\n        /* \"#utility.yul\":4603:4606   */\n      0x80\n        /* \"#utility.yul\":4588:4607   */\n      dup9\n      add\n        /* \"#utility.yul\":4575:4608   */\n      calldataload\n        /* \"#utility.yul\":4652:4656   */\n      0xff\n        /* \"#utility.yul\":4639:4657   */\n      dup2\n      and\n        /* \"#utility.yul\":4627:4658   */\n      dup2\n      eq\n        /* \"#utility.yul\":4617:4676   */\n      tag_397\n      jumpi\n        /* \"#utility.yul\":4672:4673   */\n      0x00\n        /* \"#utility.yul\":4669:4670   */\n      dup1\n        /* \"#utility.yul\":4662:4674   */\n      revert\n        /* \"#utility.yul\":4617:4676   */\n    tag_397:\n        /* \"#utility.yul\":4013:4916   */\n      swap7\n      swap10\n      swap6\n      swap9\n      pop\n      swap4\n      swap7\n      swap3\n      swap6\n        /* \"#utility.yul\":4695:4702   */\n      swap5\n        /* \"#utility.yul\":4775:4778   */\n      0xa0\n        /* \"#utility.yul\":4760:4779   */\n      dup5\n      add\n        /* \"#utility.yul\":4747:4780   */\n      calldataload\n      swap5\n      pop\n        /* \"#utility.yul\":4879:4882   */\n      0xc0\n        /* \"#utility.yul\":4864:4883   */\n      swap1\n      swap4\n      add\n        /* \"#utility.yul\":4851:4884   */\n      calldataload\n      swap3\n        /* \"#utility.yul\":4013:4916   */\n      swap2\n      pop\n      pop\n      jump\t// out\n        /* \"#utility.yul\":4921:5181   */\n    tag_104:\n        /* \"#utility.yul\":4989:4995   */\n      0x00\n        /* \"#utility.yul\":4997:5003   */\n      dup1\n        /* \"#utility.yul\":5050:5052   */\n      0x40\n        /* \"#utility.yul\":5038:5047   */\n      dup4\n        /* \"#utility.yul\":5029:5036   */\n      dup6\n        /* \"#utility.yul\":5025:5048   */\n      sub\n        /* \"#utility.yul\":5021:5053   */\n      slt\n        /* \"#utility.yul\":5018:5070   */\n      iszero\n      tag_399\n      jumpi\n        /* \"#utility.yul\":5066:5067   */\n      0x00\n        /* \"#utility.yul\":5063:5064   */\n      dup1\n        /* \"#utility.yul\":5056:5068   */\n      revert\n        /* \"#utility.yul\":5018:5070   */\n    tag_399:\n        /* \"#utility.yul\":5089:5118   */\n      tag_400\n        /* \"#utility.yul\":5108:5117   */\n      dup4\n        /* \"#utility.yul\":5089:5118   */\n      tag_363\n      jump\t// in\n    tag_400:\n        /* \"#utility.yul\":5079:5118   */\n      swap2\n      pop\n        /* \"#utility.yul\":5137:5175   */\n      tag_401\n        /* \"#utility.yul\":5171:5173   */\n      0x20\n        /* \"#utility.yul\":5160:5169   */\n      dup5\n        /* \"#utility.yul\":5156:5174   */\n      add\n        /* \"#utility.yul\":5137:5175   */\n      tag_363\n      jump\t// in\n    tag_401:\n        /* \"#utility.yul\":5127:5175   */\n      swap1\n      pop\n        /* \"#utility.yul\":4921:5181   */\n      swap3\n      pop\n      swap3\n      swap1\n      pop\n      jump\t// out\n        /* \"#utility.yul\":5186:5566   */\n    tag_112:\n        /* \"#utility.yul\":5265:5266   */\n      0x01\n        /* \"#utility.yul\":5261:5273   */\n      dup2\n      dup2\n      shr\n      swap1\n        /* \"#utility.yul\":5308:5320   */\n      dup3\n      and\n      dup1\n        /* \"#utility.yul\":5329:5390   */\n      tag_403\n      jumpi\n        /* \"#utility.yul\":5383:5387   */\n      0x7f\n        /* \"#utility.yul\":5375:5381   */\n      dup3\n        /* \"#utility.yul\":5371:5388   */\n      and\n        /* \"#utility.yul\":5361:5388   */\n      swap2\n      pop\n        /* \"#utility.yul\":5329:5390   */\n    tag_403:\n        /* \"#utility.yul\":5436:5438   */\n      0x20\n        /* \"#utility.yul\":5428:5434   */\n      dup3\n        /* \"#utility.yul\":5425:5439   */\n      lt\n        /* \"#utility.yul\":5405:5423   */\n      dup2\n        /* \"#utility.yul\":5402:5440   */\n      sub\n        /* \"#utility.yul\":5399:5560   */\n      tag_404\n      jumpi\n        /* \"#utility.yul\":5482:5492   */\n      0x4e487b71\n        /* \"#utility.yul\":5477:5480   */\n      0xe0\n        /* \"#utility.yul\":5473:5493   */\n      shl\n        /* \"#utility.yul\":5470:5471   */\n      0x00\n        /* \"#utility.yul\":5463:5494   */\n      mstore\n        /* \"#utility.yul\":5517:5521   */\n      0x22\n        /* \"#utility.yul\":5514:5515   */\n      0x04\n        /* \"#utility.yul\":5507:5522   */\n      mstore\n        /* \"#utility.yul\":5545:5549   */\n      0x24\n        /* \"#utility.yul\":5542:5543   */\n      0x00\n        /* \"#utility.yul\":5535:5550   */\n      revert\n        /* \"#utility.yul\":5399:5560   */\n    tag_404:\n      pop\n        /* \"#utility.yul\":5186:5566   */\n      swap2\n      swap1\n      pop\n      jump\t// out\n        /* \"#utility.yul\":7847:7974   */\n    tag_315:\n        /* \"#utility.yul\":7908:7918   */\n      0x4e487b71\n        /* \"#utility.yul\":7903:7906   */\n      0xe0\n        /* \"#utility.yul\":7899:7919   */\n      shl\n        /* \"#utility.yul\":7896:7897   */\n      0x00\n        /* \"#utility.yul\":7889:7920   */\n      mstore\n        /* \"#utility.yul\":7939:7943   */\n      0x21\n        /* \"#utility.yul\":7936:7937   */\n      0x04\n        /* \"#utility.yul\":7929:7944   */\n      mstore\n        /* \"#utility.yul\":7963:7967   */\n      0x24\n        /* \"#utility.yul\":7960:7961   */\n      0x00\n        /* \"#utility.yul\":7953:7968   */\n      revert\n        /* \"#utility.yul\":7979:8201   */\n    tag_353:\n        /* \"#utility.yul\":8044:8053   */\n      dup1\n      dup3\n      add\n        /* \"#utility.yul\":8065:8075   */\n      dup1\n      dup3\n      gt\n        /* \"#utility.yul\":8062:8195   */\n      iszero\n      tag_117\n      jumpi\n        /* \"#utility.yul\":8117:8127   */\n      0x4e487b71\n        /* \"#utility.yul\":8112:8115   */\n      0xe0\n        /* \"#utility.yul\":8108:8128   */\n      shl\n        /* \"#utility.yul\":8105:8106   */\n      0x00\n        /* \"#utility.yul\":8098:8129   */\n      mstore\n        /* \"#utility.yul\":8152:8156   */\n      0x11\n        /* \"#utility.yul\":8149:8150   */\n      0x04\n        /* \"#utility.yul\":8142:8157   */\n      mstore\n        /* \"#utility.yul\":8180:8184   */\n      0x24\n        /* \"#utility.yul\":8177:8178   */\n      0x00\n        /* \"#utility.yul\":8170:8185   */\n      revert\n\n    auxdata: 0xa26469706673582212205d8c2c08f9bce6ed0f23c57f470ec49abe2d9d9d211ff613d96ac141ed8bd98c64736f6c634300081a0033\n}\n",
				"bytecode": {
					"linkReferences": {},
					"object": "610160604052348015610010575f80fd5b506040516116f33803806116f383398101604081905261002f91610287565b6040518060400160405280600781526020016626bcaa37b5b2b760c91b81525080604051806040016040528060018152602001603160f81b815250836040518060400160405280600781526020016626bcaa37b5b2b760c91b815250604051806040016040528060038152602001624d544b60e81b81525081600390816100b6919061034c565b5060046100c3828261034c565b50506005805460ff19169055506001600160a01b0381166100fe57604051631e4fbdf760e01b81525f60048201526024015b60405180910390fd5b610107816101bf565b50610113826006610218565b61012052610122816007610218565b61014052815160208084019190912060e052815190820120610100524660a0526101ae60e05161010051604080517f8b73c3c69bb8fe3d512ecc4cf759cc79239f7b179b0ffacaa9a75d522b39400f60208201529081019290925260608201524660808201523060a08201525f9060c00160405160208183030381529060405280519060200120905090565b60805250503060c0525061045e9050565b600580546001600160a01b03838116610100818102610100600160a81b031985161790945560405193909204169182907f8be0079c531659141344cd1fd0a4f28419497f9722a3daafe3b4186f6b6457e0905f90a35050565b5f6020835110156102335761022c8361024a565b9050610244565b8161023e848261034c565b5060ff90505b92915050565b5f80829050601f81511115610274578260405163305a27a960e01b81526004016100f59190610406565b805161027f8261043b565b179392505050565b5f60208284031215610297575f80fd5b81516001600160a01b03811681146102ad575f80fd5b9392505050565b634e487b7160e01b5f52604160045260245ffd5b600181811c908216806102dc57607f821691505b6020821081036102fa57634e487b7160e01b5f52602260045260245ffd5b50919050565b601f82111561034757805f5260205f20601f840160051c810160208510156103255750805b601f840160051c820191505b81811015610344575f8155600101610331565b50505b505050565b81516001600160401b03811115610365576103656102b4565b6103798161037384546102c8565b84610300565b6020601f8211600181146103ab575f83156103945750848201515b5f19600385901b1c1916600184901b178455610344565b5f84815260208120601f198516915b828110156103da57878501518255602094850194600190920191016103ba565b50848210156103f757868401515f19600387901b60f8161c191681555b50505050600190811b01905550565b602081525f82518060208401528060208501604085015e5f604082850101526040601f19601f83011684010191505092915050565b805160208083015191908110156102fa575f1960209190910360031b1b16919050565b60805160a05160c05160e0516101005161012051610140516112446104af5f395f610a1301525f6109e601525f61080c01525f6107e401525f61073f01525f61076901525f61079301526112445ff3fe608060405234801561000f575f80fd5b506004361061013d575f3560e01c8063715018a6116100b45780638da5cb5b116100795780638da5cb5b1461027257806395d89b411461029b578063a9059cbb146102a3578063d505accf146102b6578063dd62ed3e146102c9578063f2fde38b14610301575f80fd5b8063715018a61461022157806379cc6790146102295780637ecebe001461023c5780638456cb591461024f57806384b0196e14610257575f80fd5b80633644e515116101055780633644e515146101b65780633f4ba83a146101be57806340c10f19146101c857806342966c68146101db5780635c975abb146101ee57806370a08231146101f9575f80fd5b806306fdde0314610141578063095ea7b31461015f57806318160ddd1461018257806323b872dd14610194578063313ce567146101a7575b5f80fd5b610149610314565b6040516101569190610fa9565b60405180910390f35b61017261016d366004610fdd565b6103a4565b6040519015158152602001610156565b6002545b604051908152602001610156565b6101726101a2366004611005565b6103bd565b60405160128152602001610156565b6101866103e0565b6101c66103ee565b005b6101c66101d6366004610fdd565b610400565b6101c66101e936600461103f565b610416565b60055460ff16610172565b610186610207366004611056565b6001600160a01b03165f9081526020819052604090205490565b6101c6610423565b6101c6610237366004610fdd565b610434565b61018661024a366004611056565b610449565b6101c6610466565b61025f610476565b604051610156979695949392919061106f565b60055461010090046001600160a01b03166040516001600160a01b039091168152602001610156565b6101496104b8565b6101726102b1366004610fdd565b6104c7565b6101c66102c4366004611105565b6104d4565b6101866102d7366004611172565b6001600160a01b039182165f90815260016020908152604080832093909416825291909152205490565b6101c661030f366004611056565b61060f565b606060038054610323906111a3565b80601f016020809104026020016040519081016040528092919081815260200182805461034f906111a3565b801561039a5780601f106103715761010080835404028352916020019161039a565b820191905f5260205f20905b81548152906001019060200180831161037d57829003601f168201915b5050505050905090565b5f336103b1818585610649565b60019150505b92915050565b5f336103ca85828561065b565b6103d58585856106d6565b506001949350505050565b5f6103e9610733565b905090565b6103f661085c565b6103fe61088f565b565b61040861085c565b61041282826108e1565b5050565b6104203382610915565b50565b61042b61085c565b6103fe5f610949565b61043f82338361065b565b6104128282610915565b6001600160a01b0381165f908152600860205260408120546103b7565b61046e61085c565b6103fe6109a2565b5f6060805f805f60606104876109df565b61048f610a0c565b604080515f80825260208201909252600f60f81b9b939a50919850469750309650945092509050565b606060048054610323906111a3565b5f336103b18185856106d6565b834211156104fd5760405163313c898160e11b8152600481018590526024015b60405180910390fd5b5f7f6e71edae12b1b97f4d1f60370fef10105fa2faae0126114a169c64845d6126c98888886105488c6001600160a01b03165f90815260086020526040902080546001810190915590565b6040805160208101969096526001600160a01b0394851690860152929091166060840152608083015260a082015260c0810186905260e0016040516020818303038152906040528051906020012090505f6105a282610a39565b90505f6105b182878787610a65565b9050896001600160a01b0316816001600160a01b0316146105f8576040516325c0072360e11b81526001600160a01b0380831660048301528b1660248201526044016104f4565b6106038a8a8a610649565b50505050505050505050565b61061761085c565b6001600160a01b03811661064057604051631e4fbdf760e01b81525f60048201526024016104f4565b61042081610949565b6106568383836001610a91565b505050565b6001600160a01b038381165f908152600160209081526040808320938616835292905220545f1981146106d057818110156106c257604051637dc7a0d960e11b81526001600160a01b038416600482015260248101829052604481018390526064016104f4565b6106d084848484035f610a91565b50505050565b6001600160a01b0383166106ff57604051634b637e8f60e11b81525f60048201526024016104f4565b6001600160a01b0382166107285760405163ec442f0560e01b81525f60048201526024016104f4565b610656838383610b63565b5f306001600160a01b037f00000000000000000000000000000000000000000000000000000000000000001614801561078b57507f000000000000000000000000000000000000000000000000000000000000000046145b156107b557507f000000000000000000000000000000000000000000000000000000000000000090565b6103e9604080517f8b73c3c69bb8fe3d512ecc4cf759cc79239f7b179b0ffacaa9a75d522b39400f60208201527f0000000000000000000000000000000000000000000000000000000000000000918101919091527f000000000000000000000000000000000000000000000000000000000000000060608201524660808201523060a08201525f9060c00160405160208183030381529060405280519060200120905090565b6005546001600160a01b036101009091041633146103fe5760405163118cdaa760e01b81523360048201526024016104f4565b610897610b6e565b6005805460ff191690557f5db9ee0a495bf2e6ff9c91a7834c1ba4fdd244a5e8aa4e537bd38aeae4b073aa335b6040516001600160a01b03909116815260200160405180910390a1565b6001600160a01b03821661090a5760405163ec442f0560e01b81525f60048201526024016104f4565b6104125f8383610b63565b6001600160a01b03821661093e57604051634b637e8f60e11b81525f60048201526024016104f4565b610412825f83610b63565b600580546001600160a01b03838116610100818102610100600160a81b031985161790945560405193909204169182907f8be0079c531659141344cd1fd0a4f28419497f9722a3daafe3b4186f6b6457e0905f90a35050565b6109aa610b91565b6005805460ff191660011790557f62e78cea01bee320cd4e420270b5ea74000d11b0c9f74754ebdbfc544b05a2586108c43390565b60606103e97f00000000000000000000000000000000000000000000000000000000000000006006610bb5565b60606103e97f00000000000000000000000000000000000000000000000000000000000000006007610bb5565b5f6103b7610a45610733565b8360405161190160f01b8152600281019290925260228201526042902090565b5f805f80610a7588888888610c5e565b925092509250610a858282610d26565b50909695505050505050565b6001600160a01b038416610aba5760405163e602df0560e01b81525f60048201526024016104f4565b6001600160a01b038316610ae357604051634a1406b160e11b81525f60048201526024016104f4565b6001600160a01b038085165f90815260016020908152604080832093871683529290522082905580156106d057826001600160a01b0316846001600160a01b03167f8c5be1e5ebec7d5bd14f71427d1e84f3dd0314c0f7b2291e5b200ac8c7c3b92584604051610b5591815260200190565b60405180910390a350505050565b610656838383610dde565b60055460ff166103fe57604051638dfc202b60e01b815260040160405180910390fd5b60055460ff16156103fe5760405163d93c066560e01b815260040160405180910390fd5b606060ff8314610bcf57610bc883610df1565b90506103b7565b818054610bdb906111a3565b80601f0160208091040260200160405190810160405280929190818152602001828054610c07906111a3565b8015610c525780601f10610c2957610100808354040283529160200191610c52565b820191905f5260205f20905b815481529060010190602001808311610c3557829003601f168201915b505050505090506103b7565b5f80807f7fffffffffffffffffffffffffffffff5d576e7357a4501ddfe92f46681b20a0841115610c9757505f91506003905082610d1c565b604080515f808252602082018084528a905260ff891692820192909252606081018790526080810186905260019060a0016020604051602081039080840390855afa158015610ce8573d5f803e3d5ffd5b5050604051601f1901519150506001600160a01b038116610d1357505f925060019150829050610d1c565b92505f91508190505b9450945094915050565b5f826003811115610d3957610d396111db565b03610d42575050565b6001826003811115610d5657610d566111db565b03610d745760405163f645eedf60e01b815260040160405180910390fd5b6002826003811115610d8857610d886111db565b03610da95760405163fce698f760e01b8152600481018290526024016104f4565b6003826003811115610dbd57610dbd6111db565b03610412576040516335e2f38360e21b8152600481018290526024016104f4565b610de6610b91565b610656838383610e2e565b60605f610dfd83610f54565b6040805160208082528183019092529192505f91906020820181803683375050509182525060208101929092525090565b6001600160a01b038316610e58578060025f828254610e4d91906111ef565b90915550610ec89050565b6001600160a01b0383165f9081526020819052604090205481811015610eaa5760405163391434e360e21b81526001600160a01b038516600482015260248101829052604481018390526064016104f4565b6001600160a01b0384165f9081526020819052604090209082900390555b6001600160a01b038216610ee457600280548290039055610f02565b6001600160a01b0382165f9081526020819052604090208054820190555b816001600160a01b0316836001600160a01b03167fddf252ad1be2c89b69c2b068fc378daa952ba7f163c4a11628f55a4df523b3ef83604051610f4791815260200190565b60405180910390a3505050565b5f60ff8216601f8111156103b757604051632cd44ac360e21b815260040160405180910390fd5b5f81518084528060208401602086015e5f602082860101526020601f19601f83011685010191505092915050565b602081525f610fbb6020830184610f7b565b9392505050565b80356001600160a01b0381168114610fd8575f80fd5b919050565b5f8060408385031215610fee575f80fd5b610ff783610fc2565b946020939093013593505050565b5f805f60608486031215611017575f80fd5b61102084610fc2565b925061102e60208501610fc2565b929592945050506040919091013590565b5f6020828403121561104f575f80fd5b5035919050565b5f60208284031215611066575f80fd5b610fbb82610fc2565b60ff60f81b8816815260e060208201525f61108d60e0830189610f7b565b828103604084015261109f8189610f7b565b606084018890526001600160a01b038716608085015260a0840186905283810360c0850152845180825260208087019350909101905f5b818110156110f45783518352602093840193909201916001016110d6565b50909b9a5050505050505050505050565b5f805f805f805f60e0888a03121561111b575f80fd5b61112488610fc2565b965061113260208901610fc2565b95506040880135945060608801359350608088013560ff81168114611155575f80fd5b9699959850939692959460a0840135945060c09093013592915050565b5f8060408385031215611183575f80fd5b61118c83610fc2565b915061119a60208401610fc2565b90509250929050565b600181811c908216806111b757607f821691505b6020821081036111d557634e487b7160e01b5f52602260045260245ffd5b50919050565b634e487b7160e01b5f52602160045260245ffd5b808201808211156103b757634e487b7160e01b5f52601160045260245ffdfea26469706673582212205d8c2c08f9bce6ed0f23c57f470ec49abe2d9d9d211ff613d96ac141ed8bd98c64736f6c634300081a0033",
					"opcodes": "PUSH2 0x160 PUSH1 0x40 MSTORE CALLVALUE DUP1 ISZERO PUSH2 0x10 JUMPI PUSH0 DUP1 REVERT JUMPDEST POP PUSH1 0x40 MLOAD PUSH2 0x16F3 CODESIZE SUB DUP1 PUSH2 0x16F3 DUP4 CODECOPY DUP2 ADD PUSH1 0x40 DUP2 SWAP1 MSTORE PUSH2 0x2F SWAP2 PUSH2 0x287 JUMP JUMPDEST PUSH1 0x40 MLOAD DUP1 PUSH1 0x40 ADD PUSH1 0x40 MSTORE DUP1 PUSH1 0x7 DUP2 MSTORE PUSH1 0x20 ADD PUSH7 0x26BCAA37B5B2B7 PUSH1 0xC9 SHL DUP2 MSTORE POP DUP1 PUSH1 0x40 MLOAD DUP1 PUSH1 0x40 ADD PUSH1 0x40 MSTORE DUP1 PUSH1 0x1 DUP2 MSTORE PUSH1 0x20 ADD PUSH1 0x31 PUSH1 0xF8 SHL DUP2 MSTORE POP DUP4 PUSH1 0x40 MLOAD DUP1 PUSH1 0x40 ADD PUSH1 0x40 MSTORE DUP1 PUSH1 0x7 DUP2 MSTORE PUSH1 0x20 ADD PUSH7 0x26BCAA37B5B2B7 PUSH1 0xC9 SHL DUP2 MSTORE POP PUSH1 0x40 MLOAD DUP1 PUSH1 0x40 ADD PUSH1 0x40 MSTORE DUP1 PUSH1 0x3 DUP2 MSTORE PUSH1 0x20 ADD PUSH3 0x4D544B PUSH1 0xE8 SHL DUP2 MSTORE POP DUP2 PUSH1 0x3 SWAP1 DUP2 PUSH2 0xB6 SWAP2 SWAP1 PUSH2 0x34C JUMP JUMPDEST POP PUSH1 0x4 PUSH2 0xC3 DUP3 DUP3 PUSH2 0x34C JUMP JUMPDEST POP POP PUSH1 0x5 DUP1 SLOAD PUSH1 0xFF NOT AND SWAP1 SSTORE POP PUSH1 0x1 PUSH1 0x1 PUSH1 0xA0 SHL SUB DUP2 AND PUSH2 0xFE JUMPI PUSH1 0x40 MLOAD PUSH4 0x1E4FBDF7 PUSH1 0xE0 SHL DUP2 MSTORE PUSH0 PUSH1 0x4 DUP3 ADD MSTORE PUSH1 0x24 ADD JUMPDEST PUSH1 0x40 MLOAD DUP1 SWAP2 SUB SWAP1 REVERT JUMPDEST PUSH2 0x107 DUP2 PUSH2 0x1BF JUMP JUMPDEST POP PUSH2 0x113 DUP3 PUSH1 0x6 PUSH2 0x218 JUMP JUMPDEST PUSH2 0x120 MSTORE PUSH2 0x122 DUP2 PUSH1 0x7 PUSH2 0x218 JUMP JUMPDEST PUSH2 0x140 MSTORE DUP2 MLOAD PUSH1 0x20 DUP1 DUP5 ADD SWAP2 SWAP1 SWAP2 KECCAK256 PUSH1 0xE0 MSTORE DUP2 MLOAD SWAP1 DUP3 ADD KECCAK256 PUSH2 0x100 MSTORE CHAINID PUSH1 0xA0 MSTORE PUSH2 0x1AE PUSH1 0xE0 MLOAD PUSH2 0x100 MLOAD PUSH1 0x40 DUP1 MLOAD PUSH32 0x8B73C3C69BB8FE3D512ECC4CF759CC79239F7B179B0FFACAA9A75D522B39400F PUSH1 0x20 DUP3 ADD MSTORE SWAP1 DUP2 ADD SWAP3 SWAP1 SWAP3 MSTORE PUSH1 0x60 DUP3 ADD MSTORE CHAINID PUSH1 0x80 DUP3 ADD MSTORE ADDRESS PUSH1 0xA0 DUP3 ADD MSTORE PUSH0 SWAP1 PUSH1 0xC0 ADD PUSH1 0x40 MLOAD PUSH1 0x20 DUP2 DUP4 SUB SUB DUP2 MSTORE SWAP1 PUSH1 0x40 MSTORE DUP1 MLOAD SWAP1 PUSH1 0x20 ADD KECCAK256 SWAP1 POP SWAP1 JUMP JUMPDEST PUSH1 0x80 MSTORE POP POP ADDRESS PUSH1 0xC0 MSTORE POP PUSH2 0x45E SWAP1 POP JUMP JUMPDEST PUSH1 0x5 DUP1 SLOAD PUSH1 0x1 PUSH1 0x1 PUSH1 0xA0 SHL SUB DUP4 DUP2 AND PUSH2 0x100 DUP2 DUP2 MUL PUSH2 0x100 PUSH1 0x1 PUSH1 0xA8 SHL SUB NOT DUP6 AND OR SWAP1 SWAP5 SSTORE PUSH1 0x40 MLOAD SWAP4 SWAP1 SWAP3 DIV AND SWAP2 DUP3 SWAP1 PUSH32 0x8BE0079C531659141344CD1FD0A4F28419497F9722A3DAAFE3B4186F6B6457E0 SWAP1 PUSH0 SWAP1 LOG3 POP POP JUMP JUMPDEST PUSH0 PUSH1 0x20 DUP4 MLOAD LT ISZERO PUSH2 0x233 JUMPI PUSH2 0x22C DUP4 PUSH2 0x24A JUMP JUMPDEST SWAP1 POP PUSH2 0x244 JUMP JUMPDEST DUP2 PUSH2 0x23E DUP5 DUP3 PUSH2 0x34C JUMP JUMPDEST POP PUSH1 0xFF SWAP1 POP JUMPDEST SWAP3 SWAP2 POP POP JUMP JUMPDEST PUSH0 DUP1 DUP3 SWAP1 POP PUSH1 0x1F DUP2 MLOAD GT ISZERO PUSH2 0x274 JUMPI DUP3 PUSH1 0x40 MLOAD PUSH4 0x305A27A9 PUSH1 0xE0 SHL DUP2 MSTORE PUSH1 0x4 ADD PUSH2 0xF5 SWAP2 SWAP1 PUSH2 0x406 JUMP JUMPDEST DUP1 MLOAD PUSH2 0x27F DUP3 PUSH2 0x43B JUMP JUMPDEST OR SWAP4 SWAP3 POP POP POP JUMP JUMPDEST PUSH0 PUSH1 0x20 DUP3 DUP5 SUB SLT ISZERO PUSH2 0x297 JUMPI PUSH0 DUP1 REVERT JUMPDEST DUP2 MLOAD PUSH1 0x1 PUSH1 0x1 PUSH1 0xA0 SHL SUB DUP2 AND DUP2 EQ PUSH2 0x2AD JUMPI PUSH0 DUP1 REVERT JUMPDEST SWAP4 SWAP3 POP POP POP JUMP JUMPDEST PUSH4 0x4E487B71 PUSH1 0xE0 SHL PUSH0 MSTORE PUSH1 0x41 PUSH1 0x4 MSTORE PUSH1 0x24 PUSH0 REVERT JUMPDEST PUSH1 0x1 DUP2 DUP2 SHR SWAP1 DUP3 AND DUP1 PUSH2 0x2DC JUMPI PUSH1 0x7F DUP3 AND SWAP2 POP JUMPDEST PUSH1 0x20 DUP3 LT DUP2 SUB PUSH2 0x2FA JUMPI PUSH4 0x4E487B71 PUSH1 0xE0 SHL PUSH0 MSTORE PUSH1 0x22 PUSH1 0x4 MSTORE PUSH1 0x24 PUSH0 REVERT JUMPDEST POP SWAP2 SWAP1 POP JUMP JUMPDEST PUSH1 0x1F DUP3 GT ISZERO PUSH2 0x347 JUMPI DUP1 PUSH0 MSTORE PUSH1 0x20 PUSH0 KECCAK256 PUSH1 0x1F DUP5 ADD PUSH1 0x5 SHR DUP2 ADD PUSH1 0x20 DUP6 LT ISZERO PUSH2 0x325 JUMPI POP DUP1 JUMPDEST PUSH1 0x1F DUP5 ADD PUSH1 0x5 SHR DUP3 ADD SWAP2 POP JUMPDEST DUP2 DUP2 LT ISZERO PUSH2 0x344 JUMPI PUSH0 DUP2 SSTORE PUSH1 0x1 ADD PUSH2 0x331 JUMP JUMPDEST POP POP JUMPDEST POP POP POP JUMP JUMPDEST DUP2 MLOAD PUSH1 0x1 PUSH1 0x1 PUSH1 0x40 SHL SUB DUP2 GT ISZERO PUSH2 0x365 JUMPI PUSH2 0x365 PUSH2 0x2B4 JUMP JUMPDEST PUSH2 0x379 DUP2 PUSH2 0x373 DUP5 SLOAD PUSH2 0x2C8 JUMP JUMPDEST DUP5 PUSH2 0x300 JUMP JUMPDEST PUSH1 0x20 PUSH1 0x1F DUP3 GT PUSH1 0x1 DUP2 EQ PUSH2 0x3AB JUMPI PUSH0 DUP4 ISZERO PUSH2 0x394 JUMPI POP DUP5 DUP3 ADD MLOAD JUMPDEST PUSH0 NOT PUSH1 0x3 DUP6 SWAP1 SHL SHR NOT AND PUSH1 0x1 DUP5 SWAP1 SHL OR DUP5 SSTORE PUSH2 0x344 JUMP JUMPDEST PUSH0 DUP5 DUP2 MSTORE PUSH1 0x20 DUP2 KECCAK256 PUSH1 0x1F NOT DUP6 AND SWAP2 JUMPDEST DUP3 DUP2 LT ISZERO PUSH2 0x3DA JUMPI DUP8 DUP6 ADD MLOAD DUP3 SSTORE PUSH1 0x20 SWAP5 DUP6 ADD SWAP5 PUSH1 0x1 SWAP1 SWAP3 ADD SWAP2 ADD PUSH2 0x3BA JUMP JUMPDEST POP DUP5 DUP3 LT ISZERO PUSH2 0x3F7 JUMPI DUP7 DUP5 ADD MLOAD PUSH0 NOT PUSH1 0x3 DUP8 SWAP1 SHL PUSH1 0xF8 AND SHR NOT AND DUP2 SSTORE JUMPDEST POP POP POP POP PUSH1 0x1 SWAP1 DUP2 SHL ADD SWAP1 SSTORE POP JUMP JUMPDEST PUSH1 0x20 DUP2 MSTORE PUSH0 DUP3 MLOAD DUP1 PUSH1 0x20 DUP5 ADD MSTORE DUP1 PUSH1 0x20 DUP6 ADD PUSH1 0x40 DUP6 ADD MCOPY PUSH0 PUSH1 0x40 DUP3 DUP6 ADD ADD MSTORE PUSH1 0x40 PUSH1 0x1F NOT PUSH1 0x1F DUP4 ADD AND DUP5 ADD ADD SWAP2 POP POP SWAP3 SWAP2 POP POP JUMP JUMPDEST DUP1 MLOAD PUSH1 0x20 DUP1 DUP4 ADD MLOAD SWAP2 SWAP1 DUP2 LT ISZERO PUSH2 0x2FA JUMPI PUSH0 NOT PUSH1 0x20 SWAP2 SWAP1 SWAP2 SUB PUSH1 0x3 SHL SHL AND SWAP2 SWAP1 POP JUMP JUMPDEST PUSH1 0x80 MLOAD PUSH1 0xA0 MLOAD PUSH1 0xC0 MLOAD PUSH1 0xE0 MLOAD PUSH2 0x100 MLOAD PUSH2 0x120 MLOAD PUSH2 0x140 MLOAD PUSH2 0x1244 PUSH2 0x4AF PUSH0 CODECOPY PUSH0 PUSH2 0xA13 ADD MSTORE PUSH0 PUSH2 0x9E6 ADD MSTORE PUSH0 PUSH2 0x80C ADD MSTORE PUSH0 PUSH2 0x7E4 ADD MSTORE PUSH0 PUSH2 0x73F ADD MSTORE PUSH0 PUSH2 0x769 ADD MSTORE PUSH0 PUSH2 0x793 ADD MSTORE PUSH2 0x1244 PUSH0 RETURN INVALID PUSH1 0x80 PUSH1 0x40 MSTORE CALLVALUE DUP1 ISZERO PUSH2 0xF JUMPI PUSH0 DUP1 REVERT JUMPDEST POP PUSH1 0x4 CALLDATASIZE LT PUSH2 0x13D JUMPI PUSH0 CALLDATALOAD PUSH1 0xE0 SHR DUP1 PUSH4 0x715018A6 GT PUSH2 0xB4 JUMPI DUP1 PUSH4 0x8DA5CB5B GT PUSH2 0x79 JUMPI DUP1 PUSH4 0x8DA5CB5B EQ PUSH2 0x272 JUMPI DUP1 PUSH4 0x95D89B41 EQ PUSH2 0x29B JUMPI DUP1 PUSH4 0xA9059CBB EQ PUSH2 0x2A3 JUMPI DUP1 PUSH4 0xD505ACCF EQ PUSH2 0x2B6 JUMPI DUP1 PUSH4 0xDD62ED3E EQ PUSH2 0x2C9 JUMPI DUP1 PUSH4 0xF2FDE38B EQ PUSH2 0x301 JUMPI PUSH0 DUP1 REVERT JUMPDEST DUP1 PUSH4 0x715018A6 EQ PUSH2 0x221 JUMPI DUP1 PUSH4 0x79CC6790 EQ PUSH2 0x229 JUMPI DUP1 PUSH4 0x7ECEBE00 EQ PUSH2 0x23C JUMPI DUP1 PUSH4 0x8456CB59 EQ PUSH2 0x24F JUMPI DUP1 PUSH4 0x84B0196E EQ PUSH2 0x257 JUMPI PUSH0 DUP1 REVERT JUMPDEST DUP1 PUSH4 0x3644E515 GT PUSH2 0x105 JUMPI DUP1 PUSH4 0x3644E515 EQ PUSH2 0x1B6 JUMPI DUP1 PUSH4 0x3F4BA83A EQ PUSH2 0x1BE JUMPI DUP1 PUSH4 0x40C10F19 EQ PUSH2 0x1C8 JUMPI DUP1 PUSH4 0x42966C68 EQ PUSH2 0x1DB JUMPI DUP1 PUSH4 0x5C975ABB EQ PUSH2 0x1EE JUMPI DUP1 PUSH4 0x70A08231 EQ PUSH2 0x1F9 JUMPI PUSH0 DUP1 REVERT JUMPDEST DUP1 PUSH4 0x6FDDE03 EQ PUSH2 0x141 JUMPI DUP1 PUSH4 0x95EA7B3 EQ PUSH2 0x15F JUMPI DUP1 PUSH4 0x18160DDD EQ PUSH2 0x182 JUMPI DUP1 PUSH4 0x23B872DD EQ PUSH2 0x194 JUMPI DUP1 PUSH4 0x313CE567 EQ PUSH2 0x1A7 JUMPI JUMPDEST PUSH0 DUP1 REVERT JUMPDEST PUSH2 0x149 PUSH2 0x314 JUMP JUMPDEST PUSH1 0x40 MLOAD PUSH2 0x156 SWAP2 SWAP1 PUSH2 0xFA9 JUMP JUMPDEST PUSH1 0x40 MLOAD DUP1 SWAP2 SUB SWAP1 RETURN JUMPDEST PUSH2 0x172 PUSH2 0x16D CALLDATASIZE PUSH1 0x4 PUSH2 0xFDD JUMP JUMPDEST PUSH2 0x3A4 JUMP JUMPDEST PUSH1 0x40 MLOAD SWAP1 ISZERO ISZERO DUP2 MSTORE PUSH1 0x20 ADD PUSH2 0x156 JUMP JUMPDEST PUSH1 0x2 SLOAD JUMPDEST PUSH1 0x40 MLOAD SWAP1 DUP2 MSTORE PUSH1 0x20 ADD PUSH2 0x156 JUMP JUMPDEST PUSH2 0x172 PUSH2 0x1A2 CALLDATASIZE PUSH1 0x4 PUSH2 0x1005 JUMP JUMPDEST PUSH2 0x3BD JUMP JUMPDEST PUSH1 0x40 MLOAD PUSH1 0x12 DUP2 MSTORE PUSH1 0x20 ADD PUSH2 0x156 JUMP JUMPDEST PUSH2 0x186 PUSH2 0x3E0 JUMP JUMPDEST PUSH2 0x1C6 PUSH2 0x3EE JUMP JUMPDEST STOP JUMPDEST PUSH2 0x1C6 PUSH2 0x1D6 CALLDATASIZE PUSH1 0x4 PUSH2 0xFDD JUMP JUMPDEST PUSH2 0x400 JUMP JUMPDEST PUSH2 0x1C6 PUSH2 0x1E9 CALLDATASIZE PUSH1 0x4 PUSH2 0x103F JUMP JUMPDEST PUSH2 0x416 JUMP JUMPDEST PUSH1 0x5 SLOAD PUSH1 0xFF AND PUSH2 0x172 JUMP JUMPDEST PUSH2 0x186 PUSH2 0x207 CALLDATASIZE PUSH1 0x4 PUSH2 0x1056 JUMP JUMPDEST PUSH1 0x1 PUSH1 0x1 PUSH1 0xA0 SHL SUB AND PUSH0 SWAP1 DUP2 MSTORE PUSH1 0x20 DUP2 SWAP1 MSTORE PUSH1 0x40 SWAP1 KECCAK256 SLOAD SWAP1 JUMP JUMPDEST PUSH2 0x1C6 PUSH2 0x423 JUMP JUMPDEST PUSH2 0x1C6 PUSH2 0x237 CALLDATASIZE PUSH1 0x4 PUSH2 0xFDD JUMP JUMPDEST PUSH2 0x434 JUMP JUMPDEST PUSH2 0x186 PUSH2 0x24A CALLDATASIZE PUSH1 0x4 PUSH2 0x1056 JUMP JUMPDEST PUSH2 0x449 JUMP JUMPDEST PUSH2 0x1C6 PUSH2 0x466 JUMP JUMPDEST PUSH2 0x25F PUSH2 0x476 JUMP JUMPDEST PUSH1 0x40 MLOAD PUSH2 0x156 SWAP8 SWAP7 SWAP6 SWAP5 SWAP4 SWAP3 SWAP2 SWAP1 PUSH2 0x106F JUMP JUMPDEST PUSH1 0x5 SLOAD PUSH2 0x100 SWAP1 DIV PUSH1 0x1 PUSH1 0x1 PUSH1 0xA0 SHL SUB AND PUSH1 0x40 MLOAD PUSH1 0x1 PUSH1 0x1 PUSH1 0xA0 SHL SUB SWAP1 SWAP2 AND DUP2 MSTORE PUSH1 0x20 ADD PUSH2 0x156 JUMP JUMPDEST PUSH2 0x149 PUSH2 0x4B8 JUMP JUMPDEST PUSH2 0x172 PUSH2 0x2B1 CALLDATASIZE PUSH1 0x4 PUSH2 0xFDD JUMP JUMPDEST PUSH2 0x4C7 JUMP JUMPDEST PUSH2 0x1C6 PUSH2 0x2C4 CALLDATASIZE PUSH1 0x4 PUSH2 0x1105 JUMP JUMPDEST PUSH2 0x4D4 JUMP JUMPDEST PUSH2 0x186 PUSH2 0x2D7 CALLDATASIZE PUSH1 0x4 PUSH2 0x1172 JUMP JUMPDEST PUSH1 0x1 PUSH1 0x1 PUSH1 0xA0 SHL SUB SWAP2 DUP3 AND PUSH0 SWAP1 DUP2 MSTORE PUSH1 0x1 PUSH1 0x20 SWAP1 DUP2 MSTORE PUSH1 0x40 DUP1 DUP4 KECCAK256 SWAP4 SWAP1 SWAP5 AND DUP3 MSTORE SWAP2 SWAP1 SWAP2 MSTORE KECCAK256 SLOAD SWAP1 JUMP JUMPDEST PUSH2 0x1C6 PUSH2 0x30F CALLDATASIZE PUSH1 0x4 PUSH2 0x1056 JUMP JUMPDEST PUSH2 0x60F JUMP JUMPDEST PUSH1 0x60 PUSH1 0x3 DUP1 SLOAD PUSH2 0x323 SWAP1 PUSH2 0x11A3 JUMP JUMPDEST DUP1 PUSH1 0x1F ADD PUSH1 0x20 DUP1 SWAP2 DIV MUL PUSH1 0x20 ADD PUSH1 0x40 MLOAD SWAP1 DUP2 ADD PUSH1 0x40 MSTORE DUP1 SWAP3 SWAP2 SWAP1 DUP2 DUP2 MSTORE PUSH1 0x20 ADD DUP3 DUP1 SLOAD PUSH2 0x34F SWAP1 PUSH2 0x11A3 JUMP JUMPDEST DUP1 ISZERO PUSH2 0x39A JUMPI DUP1 PUSH1 0x1F LT PUSH2 0x371 JUMPI PUSH2 0x100 DUP1 DUP4 SLOAD DIV MUL DUP4 MSTORE SWAP2 PUSH1 0x20 ADD SWAP2 PUSH2 0x39A JUMP JUMPDEST DUP3 ADD SWAP2 SWAP1 PUSH0 MSTORE PUSH1 0x20 PUSH0 KECCAK256 SWAP1 JUMPDEST DUP2 SLOAD DUP2 MSTORE SWAP1 PUSH1 0x1 ADD SWAP1 PUSH1 0x20 ADD DUP1 DUP4 GT PUSH2 0x37D JUMPI DUP3 SWAP1 SUB PUSH1 0x1F AND DUP3 ADD SWAP2 JUMPDEST POP POP POP POP POP SWAP1 POP SWAP1 JUMP JUMPDEST PUSH0 CALLER PUSH2 0x3B1 DUP2 DUP6 DUP6 PUSH2 0x649 JUMP JUMPDEST PUSH1 0x1 SWAP2 POP POP JUMPDEST SWAP3 SWAP2 POP POP JUMP JUMPDEST PUSH0 CALLER PUSH2 0x3CA DUP6 DUP3 DUP6 PUSH2 0x65B JUMP JUMPDEST PUSH2 0x3D5 DUP6 DUP6 DUP6 PUSH2 0x6D6 JUMP JUMPDEST POP PUSH1 0x1 SWAP5 SWAP4 POP POP POP POP JUMP JUMPDEST PUSH0 PUSH2 0x3E9 PUSH2 0x733 JUMP JUMPDEST SWAP1 POP SWAP1 JUMP JUMPDEST PUSH2 0x3F6 PUSH2 0x85C JUMP JUMPDEST PUSH2 0x3FE PUSH2 0x88F JUMP JUMPDEST JUMP JUMPDEST PUSH2 0x408 PUSH2 0x85C JUMP JUMPDEST PUSH2 0x412 DUP3 DUP3 PUSH2 0x8E1 JUMP JUMPDEST POP POP JUMP JUMPDEST PUSH2 0x420 CALLER DUP3 PUSH2 0x915 JUMP JUMPDEST POP JUMP JUMPDEST PUSH2 0x42B PUSH2 0x85C JUMP JUMPDEST PUSH2 0x3FE PUSH0 PUSH2 0x949 JUMP JUMPDEST PUSH2 0x43F DUP3 CALLER DUP4 PUSH2 0x65B JUMP JUMPDEST PUSH2 0x412 DUP3 DUP3 PUSH2 0x915 JUMP JUMPDEST PUSH1 0x1 PUSH1 0x1 PUSH1 0xA0 SHL SUB DUP2 AND PUSH0 SWAP1 DUP2 MSTORE PUSH1 0x8 PUSH1 0x20 MSTORE PUSH1 0x40 DUP2 KECCAK256 SLOAD PUSH2 0x3B7 JUMP JUMPDEST PUSH2 0x46E PUSH2 0x85C JUMP JUMPDEST PUSH2 0x3FE PUSH2 0x9A2 JUMP JUMPDEST PUSH0 PUSH1 0x60 DUP1 PUSH0 DUP1 PUSH0 PUSH1 0x60 PUSH2 0x487 PUSH2 0x9DF JUMP JUMPDEST PUSH2 0x48F PUSH2 0xA0C JUMP JUMPDEST PUSH1 0x40 DUP1 MLOAD PUSH0 DUP1 DUP3 MSTORE PUSH1 0x20 DUP3 ADD SWAP1 SWAP3 MSTORE PUSH1 0xF PUSH1 0xF8 SHL SWAP12 SWAP4 SWAP11 POP SWAP2 SWAP9 POP CHAINID SWAP8 POP ADDRESS SWAP7 POP SWAP5 POP SWAP3 POP SWAP1 POP JUMP JUMPDEST PUSH1 0x60 PUSH1 0x4 DUP1 SLOAD PUSH2 0x323 SWAP1 PUSH2 0x11A3 JUMP JUMPDEST PUSH0 CALLER PUSH2 0x3B1 DUP2 DUP6 DUP6 PUSH2 0x6D6 JUMP JUMPDEST DUP4 TIMESTAMP GT ISZERO PUSH2 0x4FD JUMPI PUSH1 0x40 MLOAD PUSH4 0x313C8981 PUSH1 0xE1 SHL DUP2 MSTORE PUSH1 0x4 DUP2 ADD DUP6 SWAP1 MSTORE PUSH1 0x24 ADD JUMPDEST PUSH1 0x40 MLOAD DUP1 SWAP2 SUB SWAP1 REVERT JUMPDEST PUSH0 PUSH32 0x6E71EDAE12B1B97F4D1F60370FEF10105FA2FAAE0126114A169C64845D6126C9 DUP9 DUP9 DUP9 PUSH2 0x548 DUP13 PUSH1 0x1 PUSH1 0x1 PUSH1 0xA0 SHL SUB AND PUSH0 SWAP1 DUP2 MSTORE PUSH1 0x8 PUSH1 0x20 MSTORE PUSH1 0x40 SWAP1 KECCAK256 DUP1 SLOAD PUSH1 0x1 DUP2 ADD SWAP1 SWAP2 SSTORE SWAP1 JUMP JUMPDEST PUSH1 0x40 DUP1 MLOAD PUSH1 0x20 DUP2 ADD SWAP7 SWAP1 SWAP7 MSTORE PUSH1 0x1 PUSH1 0x1 PUSH1 0xA0 SHL SUB SWAP5 DUP6 AND SWAP1 DUP7 ADD MSTORE SWAP3 SWAP1 SWAP2 AND PUSH1 0x60 DUP5 ADD MSTORE PUSH1 0x80 DUP4 ADD MSTORE PUSH1 0xA0 DUP3 ADD MSTORE PUSH1 0xC0 DUP2 ADD DUP7 SWAP1 MSTORE PUSH1 0xE0 ADD PUSH1 0x40 MLOAD PUSH1 0x20 DUP2 DUP4 SUB SUB DUP2 MSTORE SWAP1 PUSH1 0x40 MSTORE DUP1 MLOAD SWAP1 PUSH1 0x20 ADD KECCAK256 SWAP1 POP PUSH0 PUSH2 0x5A2 DUP3 PUSH2 0xA39 JUMP JUMPDEST SWAP1 POP PUSH0 PUSH2 0x5B1 DUP3 DUP8 DUP8 DUP8 PUSH2 0xA65 JUMP JUMPDEST SWAP1 POP DUP10 PUSH1 0x1 PUSH1 0x1 PUSH1 0xA0 SHL SUB AND DUP2 PUSH1 0x1 PUSH1 0x1 PUSH1 0xA0 SHL SUB AND EQ PUSH2 0x5F8 JUMPI PUSH1 0x40 MLOAD PUSH4 0x25C00723 PUSH1 0xE1 SHL DUP2 MSTORE PUSH1 0x1 PUSH1 0x1 PUSH1 0xA0 SHL SUB DUP1 DUP4 AND PUSH1 0x4 DUP4 ADD MSTORE DUP12 AND PUSH1 0x24 DUP3 ADD MSTORE PUSH1 0x44 ADD PUSH2 0x4F4 JUMP JUMPDEST PUSH2 0x603 DUP11 DUP11 DUP11 PUSH2 0x649 JUMP JUMPDEST POP POP POP POP POP POP POP POP POP POP JUMP JUMPDEST PUSH2 0x617 PUSH2 0x85C JUMP JUMPDEST PUSH1 0x1 PUSH1 0x1 PUSH1 0xA0 SHL SUB DUP2 AND PUSH2 0x640 JUMPI PUSH1 0x40 MLOAD PUSH4 0x1E4FBDF7 PUSH1 0xE0 SHL DUP2 MSTORE PUSH0 PUSH1 0x4 DUP3 ADD MSTORE PUSH1 0x24 ADD PUSH2 0x4F4 JUMP JUMPDEST PUSH2 0x420 DUP2 PUSH2 0x949 JUMP JUMPDEST PUSH2 0x656 DUP4 DUP4 DUP4 PUSH1 0x1 PUSH2 0xA91 JUMP JUMPDEST POP POP POP JUMP JUMPDEST PUSH1 0x1 PUSH1 0x1 PUSH1 0xA0 SHL SUB DUP4 DUP2 AND PUSH0 SWAP1 DUP2 MSTORE PUSH1 0x1 PUSH1 0x20 SWAP1 DUP2 MSTORE PUSH1 0x40 DUP1 DUP4 KECCAK256 SWAP4 DUP7 AND DUP4 MSTORE SWAP3 SWAP1 MSTORE KECCAK256 SLOAD PUSH0 NOT DUP2 EQ PUSH2 0x6D0 JUMPI DUP2 DUP2 LT ISZERO PUSH2 0x6C2 JUMPI PUSH1 0x40 MLOAD PUSH4 0x7DC7A0D9 PUSH1 0xE1 SHL DUP2 MSTORE PUSH1 0x1 PUSH1 0x1 PUSH1 0xA0 SHL SUB DUP5 AND PUSH1 0x4 DUP3 ADD MSTORE PUSH1 0x24 DUP2 ADD DUP3 SWAP1 MSTORE PUSH1 0x44 DUP2 ADD DUP4 SWAP1 MSTORE PUSH1 0x64 ADD PUSH2 0x4F4 JUMP JUMPDEST PUSH2 0x6D0 DUP5 DUP5 DUP5 DUP5 SUB PUSH0 PUSH2 0xA91 JUMP JUMPDEST POP POP POP POP JUMP JUMPDEST PUSH1 0x1 PUSH1 0x1 PUSH1 0xA0 SHL SUB DUP4 AND PUSH2 0x6FF JUMPI PUSH1 0x40 MLOAD PUSH4 0x4B637E8F PUSH1 0xE1 SHL DUP2 MSTORE PUSH0 PUSH1 0x4 DUP3 ADD MSTORE PUSH1 0x24 ADD PUSH2 0x4F4 JUMP JUMPDEST PUSH1 0x1 PUSH1 0x1 PUSH1 0xA0 SHL SUB DUP3 AND PUSH2 0x728 JUMPI PUSH1 0x40 MLOAD PUSH4 0xEC442F05 PUSH1 0xE0 SHL DUP2 MSTORE PUSH0 PUSH1 0x4 DUP3 ADD MSTORE PUSH1 0x24 ADD PUSH2 0x4F4 JUMP JUMPDEST PUSH2 0x656 DUP4 DUP4 DUP4 PUSH2 0xB63 JUMP JUMPDEST PUSH0 ADDRESS PUSH1 0x1 PUSH1 0x1 PUSH1 0xA0 SHL SUB PUSH32 0x0 AND EQ DUP1 ISZERO PUSH2 0x78B JUMPI POP PUSH32 0x0 CHAINID EQ JUMPDEST ISZERO PUSH2 0x7B5 JUMPI POP PUSH32 0x0 SWAP1 JUMP JUMPDEST PUSH2 0x3E9 PUSH1 0x40 DUP1 MLOAD PUSH32 0x8B73C3C69BB8FE3D512ECC4CF759CC79239F7B179B0FFACAA9A75D522B39400F PUSH1 0x20 DUP3 ADD MSTORE PUSH32 0x0 SWAP2 DUP2 ADD SWAP2 SWAP1 SWAP2 MSTORE PUSH32 0x0 PUSH1 0x60 DUP3 ADD MSTORE CHAINID PUSH1 0x80 DUP3 ADD MSTORE ADDRESS PUSH1 0xA0 DUP3 ADD MSTORE PUSH0 SWAP1 PUSH1 0xC0 ADD PUSH1 0x40 MLOAD PUSH1 0x20 DUP2 DUP4 SUB SUB DUP2 MSTORE SWAP1 PUSH1 0x40 MSTORE DUP1 MLOAD SWAP1 PUSH1 0x20 ADD KECCAK256 SWAP1 POP SWAP1 JUMP JUMPDEST PUSH1 0x5 SLOAD PUSH1 0x1 PUSH1 0x1 PUSH1 0xA0 SHL SUB PUSH2 0x100 SWAP1 SWAP2 DIV AND CALLER EQ PUSH2 0x3FE JUMPI PUSH1 0x40 MLOAD PUSH4 0x118CDAA7 PUSH1 0xE0 SHL DUP2 MSTORE CALLER PUSH1 0x4 DUP3 ADD MSTORE PUSH1 0x24 ADD PUSH2 0x4F4 JUMP JUMPDEST PUSH2 0x897 PUSH2 0xB6E JUMP JUMPDEST PUSH1 0x5 DUP1 SLOAD PUSH1 0xFF NOT AND SWAP1 SSTORE PUSH32 0x5DB9EE0A495BF2E6FF9C91A7834C1BA4FDD244A5E8AA4E537BD38AEAE4B073AA CALLER JUMPDEST PUSH1 0x40 MLOAD PUSH1 0x1 PUSH1 0x1 PUSH1 0xA0 SHL SUB SWAP1 SWAP2 AND DUP2 MSTORE PUSH1 0x20 ADD PUSH1 0x40 MLOAD DUP1 SWAP2 SUB SWAP1 LOG1 JUMP JUMPDEST PUSH1 0x1 PUSH1 0x1 PUSH1 0xA0 SHL SUB DUP3 AND PUSH2 0x90A JUMPI PUSH1 0x40 MLOAD PUSH4 0xEC442F05 PUSH1 0xE0 SHL DUP2 MSTORE PUSH0 PUSH1 0x4 DUP3 ADD MSTORE PUSH1 0x24 ADD PUSH2 0x4F4 JUMP JUMPDEST PUSH2 0x412 PUSH0 DUP4 DUP4 PUSH2 0xB63 JUMP JUMPDEST PUSH1 0x1 PUSH1 0x1 PUSH1 0xA0 SHL SUB DUP3 AND PUSH2 0x93E JUMPI PUSH1 0x40 MLOAD PUSH4 0x4B637E8F PUSH1 0xE1 SHL DUP2 MSTORE PUSH0 PUSH1 0x4 DUP3 ADD MSTORE PUSH1 0x24 ADD PUSH2 0x4F4 JUMP JUMPDEST PUSH2 0x412 DUP3 PUSH0 DUP4 PUSH2 0xB63 JUMP JUMPDEST PUSH1 0x5 DUP1 SLOAD PUSH1 0x1 PUSH1 0x1 PUSH1 0xA0 SHL SUB DUP4 DUP2 AND PUSH2 0x100 DUP2 DUP2 MUL PUSH2 0x100 PUSH1 0x1 PUSH1 0xA8 SHL SUB NOT DUP6 AND OR SWAP1 SWAP5 SSTORE PUSH1 0x40 MLOAD SWAP4 SWAP1 SWAP3 DIV AND SWAP2 DUP3 SWAP1 PUSH32 0x8BE0079C531659141344CD1FD0A4F28419497F9722A3DAAFE3B4186F6B6457E0 SWAP1 PUSH0 SWAP1 LOG3 POP POP JUMP JUMPDEST PUSH2 0x9AA PUSH2 0xB91 JUMP JUMPDEST PUSH1 0x5 DUP1 SLOAD PUSH1 0xFF NOT AND PUSH1 0x1 OR SWAP1 SSTORE PUSH32 0x62E78CEA01BEE320CD4E420270B5EA74000D11B0C9F74754EBDBFC544B05A258 PUSH2 0x8C4 CALLER SWAP1 JUMP JUMPDEST PUSH1 0x60 PUSH2 0x3E9 PUSH32 0x0 PUSH1 0x6 PUSH2 0xBB5 JUMP JUMPDEST PUSH1 0x60 PUSH2 0x3E9 PUSH32 0x0 PUSH1 0x7 PUSH2 0xBB5 JUMP JUMPDEST PUSH0 PUSH2 0x3B7 PUSH2 0xA45 PUSH2 0x733 JUMP JUMPDEST DUP4 PUSH1 0x40 MLOAD PUSH2 0x1901 PUSH1 0xF0 SHL DUP2 MSTORE PUSH1 0x2 DUP2 ADD SWAP3 SWAP1 SWAP3 MSTORE PUSH1 0x22 DUP3 ADD MSTORE PUSH1 0x42 SWAP1 KECCAK256 SWAP1 JUMP JUMPDEST PUSH0 DUP1 PUSH0 DUP1 PUSH2 0xA75 DUP9 DUP9 DUP9 DUP9 PUSH2 0xC5E JUMP JUMPDEST SWAP3 POP SWAP3 POP SWAP3 POP PUSH2 0xA85 DUP3 DUP3 PUSH2 0xD26 JUMP JUMPDEST POP SWAP1 SWAP7 SWAP6 POP POP POP POP POP POP JUMP JUMPDEST PUSH1 0x1 PUSH1 0x1 PUSH1 0xA0 SHL SUB DUP5 AND PUSH2 0xABA JUMPI PUSH1 0x40 MLOAD PUSH4 0xE602DF05 PUSH1 0xE0 SHL DUP2 MSTORE PUSH0 PUSH1 0x4 DUP3 ADD MSTORE PUSH1 0x24 ADD PUSH2 0x4F4 JUMP JUMPDEST PUSH1 0x1 PUSH1 0x1 PUSH1 0xA0 SHL SUB DUP4 AND PUSH2 0xAE3 JUMPI PUSH1 0x40 MLOAD PUSH4 0x4A1406B1 PUSH1 0xE1 SHL DUP2 MSTORE PUSH0 PUSH1 0x4 DUP3 ADD MSTORE PUSH1 0x24 ADD PUSH2 0x4F4 JUMP JUMPDEST PUSH1 0x1 PUSH1 0x1 PUSH1 0xA0 SHL SUB DUP1 DUP6 AND PUSH0 SWAP1 DUP2 MSTORE PUSH1 0x1 PUSH1 0x20 SWAP1 DUP2 MSTORE PUSH1 0x40 DUP1 DUP4 KECCAK256 SWAP4 DUP8 AND DUP4 MSTORE SWAP3 SWAP1 MSTORE KECCAK256 DUP3 SWAP1 SSTORE DUP1 ISZERO PUSH2 0x6D0 JUMPI DUP3 PUSH1 0x1 PUSH1 0x1 PUSH1 0xA0 SHL SUB AND DUP5 PUSH1 0x1 PUSH1 0x1 PUSH1 0xA0 SHL SUB AND PUSH32 0x8C5BE1E5EBEC7D5BD14F71427D1E84F3DD0314C0F7B2291E5B200AC8C7C3B925 DUP5 PUSH1 0x40 MLOAD PUSH2 0xB55 SWAP2 DUP2 MSTORE PUSH1 0x20 ADD SWAP1 JUMP JUMPDEST PUSH1 0x40 MLOAD DUP1 SWAP2 SUB SWAP1 LOG3 POP POP POP POP JUMP JUMPDEST PUSH2 0x656 DUP4 DUP4 DUP4 PUSH2 0xDDE JUMP JUMPDEST PUSH1 0x5 SLOAD PUSH1 0xFF AND PUSH2 0x3FE JUMPI PUSH1 0x40 MLOAD PUSH4 0x8DFC202B PUSH1 0xE0 SHL DUP2 MSTORE PUSH1 0x4 ADD PUSH1 0x40 MLOAD DUP1 SWAP2 SUB SWAP1 REVERT JUMPDEST PUSH1 0x5 SLOAD PUSH1 0xFF AND ISZERO PUSH2 0x3FE JUMPI PUSH1 0x40 MLOAD PUSH4 0xD93C0665 PUSH1 0xE0 SHL DUP2 MSTORE PUSH1 0x4 ADD PUSH1 0x40 MLOAD DUP1 SWAP2 SUB SWAP1 REVERT JUMPDEST PUSH1 0x60 PUSH1 0xFF DUP4 EQ PUSH2 0xBCF JUMPI PUSH2 0xBC8 DUP4 PUSH2 0xDF1 JUMP JUMPDEST SWAP1 POP PUSH2 0x3B7 JUMP JUMPDEST DUP2 DUP1 SLOAD PUSH2 0xBDB SWAP1 PUSH2 0x11A3 JUMP JUMPDEST DUP1 PUSH1 0x1F ADD PUSH1 0x20 DUP1 SWAP2 DIV MUL PUSH1 0x20 ADD PUSH1 0x40 MLOAD SWAP1 DUP2 ADD PUSH1 0x40 MSTORE DUP1 SWAP3 SWAP2 SWAP1 DUP2 DUP2 MSTORE PUSH1 0x20 ADD DUP3 DUP1 SLOAD PUSH2 0xC07 SWAP1 PUSH2 0x11A3 JUMP JUMPDEST DUP1 ISZERO PUSH2 0xC52 JUMPI DUP1 PUSH1 0x1F LT PUSH2 0xC29 JUMPI PUSH2 0x100 DUP1 DUP4 SLOAD DIV MUL DUP4 MSTORE SWAP2 PUSH1 0x20 ADD SWAP2 PUSH2 0xC52 JUMP JUMPDEST DUP3 ADD SWAP2 SWAP1 PUSH0 MSTORE PUSH1 0x20 PUSH0 KECCAK256 SWAP1 JUMPDEST DUP2 SLOAD DUP2 MSTORE SWAP1 PUSH1 0x1 ADD SWAP1 PUSH1 0x20 ADD DUP1 DUP4 GT PUSH2 0xC35 JUMPI DUP3 SWAP1 SUB PUSH1 0x1F AND DUP3 ADD SWAP2 JUMPDEST POP POP POP POP POP SWAP1 POP PUSH2 0x3B7 JUMP JUMPDEST PUSH0 DUP1 DUP1 PUSH32 0x7FFFFFFFFFFFFFFFFFFFFFFFFFFFFFFF5D576E7357A4501DDFE92F46681B20A0 DUP5 GT ISZERO PUSH2 0xC97 JUMPI POP PUSH0 SWAP2 POP PUSH1 0x3 SWAP1 POP DUP3 PUSH2 0xD1C JUMP JUMPDEST PUSH1 0x40 DUP1 MLOAD PUSH0 DUP1 DUP3 MSTORE PUSH1 0x20 DUP3 ADD DUP1 DUP5 MSTORE DUP11 SWAP1 MSTORE PUSH1 0xFF DUP10 AND SWAP3 DUP3 ADD SWAP3 SWAP1 SWAP3 MSTORE PUSH1 0x60 DUP2 ADD DUP8 SWAP1 MSTORE PUSH1 0x80 DUP2 ADD DUP7 SWAP1 MSTORE PUSH1 0x1 SWAP1 PUSH1 0xA0 ADD PUSH1 0x20 PUSH1 0x40 MLOAD PUSH1 0x20 DUP2 SUB SWAP1 DUP1 DUP5 SUB SWAP1 DUP6 GAS STATICCALL ISZERO DUP1 ISZERO PUSH2 0xCE8 JUMPI RETURNDATASIZE PUSH0 DUP1 RETURNDATACOPY RETURNDATASIZE PUSH0 REVERT JUMPDEST POP POP PUSH1 0x40 MLOAD PUSH1 0x1F NOT ADD MLOAD SWAP2 POP POP PUSH1 0x1 PUSH1 0x1 PUSH1 0xA0 SHL SUB DUP2 AND PUSH2 0xD13 JUMPI POP PUSH0 SWAP3 POP PUSH1 0x1 SWAP2 POP DUP3 SWAP1 POP PUSH2 0xD1C JUMP JUMPDEST SWAP3 POP PUSH0 SWAP2 POP DUP2 SWAP1 POP JUMPDEST SWAP5 POP SWAP5 POP SWAP5 SWAP2 POP POP JUMP JUMPDEST PUSH0 DUP3 PUSH1 0x3 DUP2 GT ISZERO PUSH2 0xD39 JUMPI PUSH2 0xD39 PUSH2 0x11DB JUMP JUMPDEST SUB PUSH2 0xD42 JUMPI POP POP JUMP JUMPDEST PUSH1 0x1 DUP3 PUSH1 0x3 DUP2 GT ISZERO PUSH2 0xD56 JUMPI PUSH2 0xD56 PUSH2 0x11DB JUMP JUMPDEST SUB PUSH2 0xD74 JUMPI PUSH1 0x40 MLOAD PUSH4 0xF645EEDF PUSH1 0xE0 SHL DUP2 MSTORE PUSH1 0x4 ADD PUSH1 0x40 MLOAD DUP1 SWAP2 SUB SWAP1 REVERT JUMPDEST PUSH1 0x2 DUP3 PUSH1 0x3 DUP2 GT ISZERO PUSH2 0xD88 JUMPI PUSH2 0xD88 PUSH2 0x11DB JUMP JUMPDEST SUB PUSH2 0xDA9 JUMPI PUSH1 0x40 MLOAD PUSH4 0xFCE698F7 PUSH1 0xE0 SHL DUP2 MSTORE PUSH1 0x4 DUP2 ADD DUP3 SWAP1 MSTORE PUSH1 0x24 ADD PUSH2 0x4F4 JUMP JUMPDEST PUSH1 0x3 DUP3 PUSH1 0x3 DUP2 GT ISZERO PUSH2 0xDBD JUMPI PUSH2 0xDBD PUSH2 0x11DB JUMP JUMPDEST SUB PUSH2 0x412 JUMPI PUSH1 0x40 MLOAD PUSH4 0x35E2F383 PUSH1 0xE2 SHL DUP2 MSTORE PUSH1 0x4 DUP2 ADD DUP3 SWAP1 MSTORE PUSH1 0x24 ADD PUSH2 0x4F4 JUMP JUMPDEST PUSH2 0xDE6 PUSH2 0xB91 JUMP JUMPDEST PUSH2 0x656 DUP4 DUP4 DUP4 PUSH2 0xE2E JUMP JUMPDEST PUSH1 0x60 PUSH0 PUSH2 0xDFD DUP4 PUSH2 0xF54 JUMP JUMPDEST PUSH1 0x40 DUP1 MLOAD PUSH1 0x20 DUP1 DUP3 MSTORE DUP2 DUP4 ADD SWAP1 SWAP3 MSTORE SWAP2 SWAP3 POP PUSH0 SWAP2 SWAP1 PUSH1 0x20 DUP3 ADD DUP2 DUP1 CALLDATASIZE DUP4 CALLDATACOPY POP POP POP SWAP2 DUP3 MSTORE POP PUSH1 0x20 DUP2 ADD SWAP3 SWAP1 SWAP3 MSTORE POP SWAP1 JUMP JUMPDEST PUSH1 0x1 PUSH1 0x1 PUSH1 0xA0 SHL SUB DUP4 AND PUSH2 0xE58 JUMPI DUP1 PUSH1 0x2 PUSH0 DUP3 DUP3 SLOAD PUSH2 0xE4D SWAP2 SWAP1 PUSH2 0x11EF JUMP JUMPDEST SWAP1 SWAP2 SSTORE POP PUSH2 0xEC8 SWAP1 POP JUMP JUMPDEST PUSH1 0x1 PUSH1 0x1 PUSH1 0xA0 SHL SUB DUP4 AND PUSH0 SWAP1 DUP2 MSTORE PUSH1 0x20 DUP2 SWAP1 MSTORE PUSH1 0x40 SWAP1 KECCAK256 SLOAD DUP2 DUP2 LT ISZERO PUSH2 0xEAA JUMPI PUSH1 0x40 MLOAD PUSH4 0x391434E3 PUSH1 0xE2 SHL DUP2 MSTORE PUSH1 0x1 PUSH1 0x1 PUSH1 0xA0 SHL SUB DUP6 AND PUSH1 0x4 DUP3 ADD MSTORE PUSH1 0x24 DUP2 ADD DUP3 SWAP1 MSTORE PUSH1 0x44 DUP2 ADD DUP4 SWAP1 MSTORE PUSH1 0x64 ADD PUSH2 0x4F4 JUMP JUMPDEST PUSH1 0x1 PUSH1 0x1 PUSH1 0xA0 SHL SUB DUP5 AND PUSH0 SWAP1 DUP2 MSTORE PUSH1 0x20 DUP2 SWAP1 MSTORE PUSH1 0x40 SWAP1 KECCAK256 SWAP1 DUP3 SWAP1 SUB SWAP1 SSTORE JUMPDEST PUSH1 0x1 PUSH1 0x1 PUSH1 0xA0 SHL SUB DUP3 AND PUSH2 0xEE4 JUMPI PUSH1 0x2 DUP1 SLOAD DUP3 SWAP1 SUB SWAP1 SSTORE PUSH2 0xF02 JUMP JUMPDEST PUSH1 0x1 PUSH1 0x1 PUSH1 0xA0 SHL SUB DUP3 AND PUSH0 SWAP1 DUP2 MSTORE PUSH1 0x20 DUP2 SWAP1 MSTORE PUSH1 0x40 SWAP1 KECCAK256 DUP1 SLOAD DUP3 ADD SWAP1 SSTORE JUMPDEST DUP2 PUSH1 0x1 PUSH1 0x1 PUSH1 0xA0 SHL SUB AND DUP4 PUSH1 0x1 PUSH1 0x1 PUSH1 0xA0 SHL SUB AND PUSH32 0xDDF252AD1BE2C89B69C2B068FC378DAA952BA7F163C4A11628F55A4DF523B3EF DUP4 PUSH1 0x40 MLOAD PUSH2 0xF47 SWAP2 DUP2 MSTORE PUSH1 0x20 ADD SWAP1 JUMP JUMPDEST PUSH1 0x40 MLOAD DUP1 SWAP2 SUB SWAP1 LOG3 POP POP POP JUMP JUMPDEST PUSH0 PUSH1 0xFF DUP3 AND PUSH1 0x1F DUP2 GT ISZERO PUSH2 0x3B7 JUMPI PUSH1 0x40 MLOAD PUSH4 0x2CD44AC3 PUSH1 0xE2 SHL DUP2 MSTORE PUSH1 0x4 ADD PUSH1 0x40 MLOAD DUP1 SWAP2 SUB SWAP1 REVERT JUMPDEST PUSH0 DUP2 MLOAD DUP1 DUP5 MSTORE DUP1 PUSH1 0x20 DUP5 ADD PUSH1 0x20 DUP7 ADD MCOPY PUSH0 PUSH1 0x20 DUP3 DUP7 ADD ADD MSTORE PUSH1 0x20 PUSH1 0x1F NOT PUSH1 0x1F DUP4 ADD AND DUP6 ADD ADD SWAP2 POP POP SWAP3 SWAP2 POP POP JUMP JUMPDEST PUSH1 0x20 DUP2 MSTORE PUSH0 PUSH2 0xFBB PUSH1 0x20 DUP4 ADD DUP5 PUSH2 0xF7B JUMP JUMPDEST SWAP4 SWAP3 POP POP POP JUMP JUMPDEST DUP1 CALLDATALOAD PUSH1 0x1 PUSH1 0x1 PUSH1 0xA0 SHL SUB DUP2 AND DUP2 EQ PUSH2 0xFD8 JUMPI PUSH0 DUP1 REVERT JUMPDEST SWAP2 SWAP1 POP JUMP JUMPDEST PUSH0 DUP1 PUSH1 0x40 DUP4 DUP6 SUB SLT ISZERO PUSH2 0xFEE JUMPI PUSH0 DUP1 REVERT JUMPDEST PUSH2 0xFF7 DUP4 PUSH2 0xFC2 JUMP JUMPDEST SWAP5 PUSH1 0x20 SWAP4 SWAP1 SWAP4 ADD CALLDATALOAD SWAP4 POP POP POP JUMP JUMPDEST PUSH0 DUP1 PUSH0 PUSH1 0x60 DUP5 DUP7 SUB SLT ISZERO PUSH2 0x1017 JUMPI PUSH0 DUP1 REVERT JUMPDEST PUSH2 0x1020 DUP5 PUSH2 0xFC2 JUMP JUMPDEST SWAP3 POP PUSH2 0x102E PUSH1 0x20 DUP6 ADD PUSH2 0xFC2 JUMP JUMPDEST SWAP3 SWAP6 SWAP3 SWAP5 POP POP POP PUSH1 0x40 SWAP2 SWAP1 SWAP2 ADD CALLDATALOAD SWAP1 JUMP JUMPDEST PUSH0 PUSH1 0x20 DUP3 DUP5 SUB SLT ISZERO PUSH2 0x104F JUMPI PUSH0 DUP1 REVERT JUMPDEST POP CALLDATALOAD SWAP2 SWAP1 POP JUMP JUMPDEST PUSH0 PUSH1 0x20 DUP3 DUP5 SUB SLT ISZERO PUSH2 0x1066 JUMPI PUSH0 DUP1 REVERT JUMPDEST PUSH2 0xFBB DUP3 PUSH2 0xFC2 JUMP JUMPDEST PUSH1 0xFF PUSH1 0xF8 SHL DUP9 AND DUP2 MSTORE PUSH1 0xE0 PUSH1 0x20 DUP3 ADD MSTORE PUSH0 PUSH2 0x108D PUSH1 0xE0 DUP4 ADD DUP10 PUSH2 0xF7B JUMP JUMPDEST DUP3 DUP2 SUB PUSH1 0x40 DUP5 ADD MSTORE PUSH2 0x109F DUP2 DUP10 PUSH2 0xF7B JUMP JUMPDEST PUSH1 0x60 DUP5 ADD DUP9 SWAP1 MSTORE PUSH1 0x1 PUSH1 0x1 PUSH1 0xA0 SHL SUB DUP8 AND PUSH1 0x80 DUP6 ADD MSTORE PUSH1 0xA0 DUP5 ADD DUP7 SWAP1 MSTORE DUP4 DUP2 SUB PUSH1 0xC0 DUP6 ADD MSTORE DUP5 MLOAD DUP1 DUP3 MSTORE PUSH1 0x20 DUP1 DUP8 ADD SWAP4 POP SWAP1 SWAP2 ADD SWAP1 PUSH0 JUMPDEST DUP2 DUP2 LT ISZERO PUSH2 0x10F4 JUMPI DUP4 MLOAD DUP4 MSTORE PUSH1 0x20 SWAP4 DUP5 ADD SWAP4 SWAP1 SWAP3 ADD SWAP2 PUSH1 0x1 ADD PUSH2 0x10D6 JUMP JUMPDEST POP SWAP1 SWAP12 SWAP11 POP POP POP POP POP POP POP POP POP POP POP JUMP JUMPDEST PUSH0 DUP1 PUSH0 DUP1 PUSH0 DUP1 PUSH0 PUSH1 0xE0 DUP9 DUP11 SUB SLT ISZERO PUSH2 0x111B JUMPI PUSH0 DUP1 REVERT JUMPDEST PUSH2 0x1124 DUP9 PUSH2 0xFC2 JUMP JUMPDEST SWAP7 POP PUSH2 0x1132 PUSH1 0x20 DUP10 ADD PUSH2 0xFC2 JUMP JUMPDEST SWAP6 POP PUSH1 0x40 DUP9 ADD CALLDATALOAD SWAP5 POP PUSH1 0x60 DUP9 ADD CALLDATALOAD SWAP4 POP PUSH1 0x80 DUP9 ADD CALLDATALOAD PUSH1 0xFF DUP2 AND DUP2 EQ PUSH2 0x1155 JUMPI PUSH0 DUP1 REVERT JUMPDEST SWAP7 SWAP10 SWAP6 SWAP9 POP SWAP4 SWAP7 SWAP3 SWAP6 SWAP5 PUSH1 0xA0 DUP5 ADD CALLDATALOAD SWAP5 POP PUSH1 0xC0 SWAP1 SWAP4 ADD CALLDATALOAD SWAP3 SWAP2 POP POP JUMP JUMPDEST PUSH0 DUP1 PUSH1 0x40 DUP4 DUP6 SUB SLT ISZERO PUSH2 0x1183 JUMPI PUSH0 DUP1 REVERT JUMPDEST PUSH2 0x118C DUP4 PUSH2 0xFC2 JUMP JUMPDEST SWAP2 POP PUSH2 0x119A PUSH1 0x20 DUP5 ADD PUSH2 0xFC2 JUMP JUMPDEST SWAP1 POP SWAP3 POP SWAP3 SWAP1 POP JUMP JUMPDEST PUSH1 0x1 DUP2 DUP2 SHR SWAP1 DUP3 AND DUP1 PUSH2 0x11B7 JUMPI PUSH1 0x7F DUP3 AND SWAP2 POP JUMPDEST PUSH1 0x20 DUP3 LT DUP2 SUB PUSH2 0x11D5 JUMPI PUSH4 0x4E487B71 PUSH1 0xE0 SHL PUSH0 MSTORE PUSH1 0x22 PUSH1 0x4 MSTORE PUSH1 0x24 PUSH0 REVERT JUMPDEST POP SWAP2 SWAP1 POP JUMP JUMPDEST PUSH4 0x4E487B71 PUSH1 0xE0 SHL PUSH0 MSTORE PUSH1 0x21 PUSH1 0x4 MSTORE PUSH1 0x24 PUSH0 REVERT JUMPDEST DUP1 DUP3 ADD DUP1 DUP3 GT ISZERO PUSH2 0x3B7 JUMPI PUSH4 0x4E487B71 PUSH1 0xE0 SHL PUSH0 MSTORE PUSH1 0x11 PUSH1 0x4 MSTORE PUSH1 0x24 PUSH0 REVERT INVALID LOG2 PUSH5 0x6970667358 0x22 SLT KECCAK256 TSTORE DUP13 0x2C ADDMOD 0xF9 0xBC 0xE6 0xED 0xF 0x23 0xC5 PUSH32 0x470EC49ABE2D9D9D211FF613D96AC141ED8BD98C64736F6C634300081A003300 "
				},
				"gasEstimates": {
					"creation": {
						"codeDepositCost": "935200",
						"executionCost": "infinite",
						"totalCost": "infinite"
					},
					"external": {
						"DOMAIN_SEPARATOR()": "infinite",
						"allowance(address,address)": "infinite",
						"approve(address,uint256)": "24758",
						"balanceOf(address)": "2670",
						"burn(uint256)": "infinite",
						"burnFrom(address,uint256)": "infinite",
						"decimals()": "288",
						"eip712Domain()": "infinite",
						"mint(address,uint256)": "infinite",
						"name()": "infinite",
						"nonces(address)": "2635",
						"owner()": "2351",
						"pause()": "infinite",
						"paused()": "2414",
						"permit(address,address,uint256,uint256,uint8,bytes32,bytes32)": "infinite",
						"renounceOwnership()": "infinite",
						"symbol()": "infinite",
						"totalSupply()": "2348",
						"transfer(address,uint256)": "infinite",
						"transferFrom(address,address,uint256)": "infinite",
						"transferOwnership(address)": "28498",
						"unpause()": "infinite"
					},
					"internal": {
						"_update(address,address,uint256)": "infinite"
					}
				},
				"methodIdentifiers": {
					"DOMAIN_SEPARATOR()": "3644e515",
					"allowance(address,address)": "dd62ed3e",
					"approve(address,uint256)": "095ea7b3",
					"balanceOf(address)": "70a08231",
					"burn(uint256)": "42966c68",
					"burnFrom(address,uint256)": "79cc6790",
					"decimals()": "313ce567",
					"eip712Domain()": "84b0196e",
					"mint(address,uint256)": "40c10f19",
					"name()": "06fdde03",
					"nonces(address)": "7ecebe00",
					"owner()": "8da5cb5b",
					"pause()": "8456cb59",
					"paused()": "5c975abb",
					"permit(address,address,uint256,uint256,uint8,bytes32,bytes32)": "d505accf",
					"renounceOwnership()": "715018a6",
					"symbol()": "95d89b41",
					"totalSupply()": "18160ddd",
					"transfer(address,uint256)": "a9059cbb",
					"transferFrom(address,address,uint256)": "23b872dd",
					"transferOwnership(address)": "f2fde38b",
					"unpause()": "3f4ba83a"
				}
			},
			"storageLayout": {
				"storage": [
					{
						"astId": 279,
						"contract": "contracts/ERC20_flattened.sol:MyToken",
						"label": "_balances",
						"offset": 0,
						"slot": "0",
						"type": "t_mapping(t_address,t_uint256)"
					},
					{
						"astId": 285,
						"contract": "contracts/ERC20_flattened.sol:MyToken",
						"label": "_allowances",
						"offset": 0,
						"slot": "1",
						"type": "t_mapping(t_address,t_mapping(t_address,t_uint256))"
					},
					{
						"astId": 287,
						"contract": "contracts/ERC20_flattened.sol:MyToken",
						"label": "_totalSupply",
						"offset": 0,
						"slot": "2",
						"type": "t_uint256"
					},
					{
						"astId": 289,
						"contract": "contracts/ERC20_flattened.sol:MyToken",
						"label": "_name",
						"offset": 0,
						"slot": "3",
						"type": "t_string_storage"
					},
					{
						"astId": 291,
						"contract": "contracts/ERC20_flattened.sol:MyToken",
						"label": "_symbol",
						"offset": 0,
						"slot": "4",
						"type": "t_string_storage"
					},
					{
						"astId": 818,
						"contract": "contracts/ERC20_flattened.sol:MyToken",
						"label": "_paused",
						"offset": 0,
						"slot": "5",
						"type": "t_bool"
					},
					{
						"astId": 961,
						"contract": "contracts/ERC20_flattened.sol:MyToken",
						"label": "_owner",
						"offset": 1,
						"slot": "5",
						"type": "t_address"
					},
					{
						"astId": 3336,
						"contract": "contracts/ERC20_flattened.sol:MyToken",
						"label": "_nameFallback",
						"offset": 0,
						"slot": "6",
						"type": "t_string_storage"
					},
					{
						"astId": 3338,
						"contract": "contracts/ERC20_flattened.sol:MyToken",
						"label": "_versionFallback",
						"offset": 0,
						"slot": "7",
						"type": "t_string_storage"
					},
					{
						"astId": 3539,
						"contract": "contracts/ERC20_flattened.sol:MyToken",
						"label": "_nonces",
						"offset": 0,
						"slot": "8",
						"type": "t_mapping(t_address,t_uint256)"
					}
				],
				"types": {
					"t_address": {
						"encoding": "inplace",
						"label": "address",
						"numberOfBytes": "20"
					},
					"t_bool": {
						"encoding": "inplace",
						"label": "bool",
						"numberOfBytes": "1"
					},
					"t_mapping(t_address,t_mapping(t_address,t_uint256))": {
						"encoding": "mapping",
						"key": "t_address",
						"label": "mapping(address => mapping(address => uint256))",
						"numberOfBytes": "32",
						"value": "t_mapping(t_address,t_uint256)"
					},
					"t_mapping(t_address,t_uint256)": {
						"encoding": "mapping",
						"key": "t_address",
						"label": "mapping(address => uint256)",
						"numberOfBytes": "32",
						"value": "t_uint256"
					},
					"t_string_storage": {
						"encoding": "bytes",
						"label": "string",
						"numberOfBytes": "32"
					},
					"t_uint256": {
						"encoding": "inplace",
						"label": "uint256",
						"numberOfBytes": "32"
					}
				}
			},
			"userdoc": {
				"kind": "user",
				"methods": {},
				"version": 1
			}
		}
	}
}