{
	"contracts/ContractData.sol": {
		"DataGenerator": {
			"abi": [
				{
					"inputs": [
						{
							"internalType": "string",
							"name": "functionSignature",
							"type": "string"
						},
						{
							"internalType": "address",
							"name": "_to",
							"type": "address"
						},
						{
							"internalType": "uint256",
							"name": "_value",
							"type": "uint256"
						}
					],
					"name": "getTransferData",
					"outputs": [
						{
							"internalType": "bytes",
							"name": "",
							"type": "bytes"
						}
					],
					"stateMutability": "pure",
					"type": "function"
				}
			],
			"devdoc": {
				"kind": "dev",
				"methods": {},
				"version": 1
			},
			"evm": {
				"assembly": "    /* \"contracts/ContractData.sol\":57:324  contract DataGenerator {... */\n  mstore(0x40, 0x80)\n  callvalue\n  dup1\n  iszero\n  tag_1\n  jumpi\n  0x00\n  dup1\n  revert\ntag_1:\n  pop\n  dataSize(sub_0)\n  dup1\n  dataOffset(sub_0)\n  0x00\n  codecopy\n  0x00\n  return\nstop\n\nsub_0: assembly {\n        /* \"contracts/ContractData.sol\":57:324  contract DataGenerator {... */\n      mstore(0x40, 0x80)\n      callvalue\n      dup1\n      iszero\n      tag_1\n      jumpi\n      0x00\n      dup1\n      revert\n    tag_1:\n      pop\n      jumpi(tag_2, lt(calldatasize, 0x04))\n      shr(0xe0, calldataload(0x00))\n      dup1\n      0xa607854c\n      eq\n      tag_3\n      jumpi\n    tag_2:\n      0x00\n      dup1\n      revert\n        /* \"contracts/ContractData.sol\":120:322  function getTransferData(string memory functionSignature, address _to, uint256 _value) public pure returns (bytes memory) {... */\n    tag_3:\n      tag_4\n      tag_5\n      calldatasize\n      0x04\n      tag_6\n      jump\t// in\n    tag_5:\n      tag_7\n      jump\t// in\n    tag_4:\n      mload(0x40)\n      tag_8\n      swap2\n      swap1\n      tag_9\n      jump\t// in\n    tag_8:\n      mload(0x40)\n      dup1\n      swap2\n      sub\n      swap1\n      return\n    tag_7:\n        /* \"contracts/ContractData.sol\":259:315  abi.encodeWithSignature( functionSignature, _to, _value) */\n      mload(0x40)\n      sub(shl(0xa0, 0x01), 0x01)\n        /* \"#utility.yul\":2085:2117   */\n      dup4\n      and\n        /* \"contracts/ContractData.sol\":259:315  abi.encodeWithSignature( functionSignature, _to, _value) */\n      0x24\n      dup3\n      add\n        /* \"#utility.yul\":2067:2118   */\n      mstore\n        /* \"#utility.yul\":2134:2152   */\n      0x44\n      dup2\n      add\n        /* \"#utility.yul\":2127:2161   */\n      dup3\n      swap1\n      mstore\n        /* \"contracts/ContractData.sol\":228:240  bytes memory */\n      0x60\n      swap1\n        /* \"contracts/ContractData.sol\":284:301  functionSignature */\n      dup5\n      swap1\n        /* \"#utility.yul\":2040:2058   */\n      0x64\n      add\n        /* \"contracts/ContractData.sol\":259:315  abi.encodeWithSignature( functionSignature, _to, _value) */\n      0x40\n      dup1\n      mload\n      not(0x1f)\n      dup2\n      dup5\n      sub\n      add\n      dup2\n      mstore\n      swap1\n      dup3\n      swap1\n      mstore\n      swap2\n      tag_13\n      swap2\n      tag_14\n      jump\t// in\n    tag_13:\n      mload(0x40)\n      swap1\n      dup2\n      swap1\n      sub\n      swap1\n      keccak256\n      0x20\n      dup3\n      add\n      dup1\n      mload\n      sub(shl(0xe0, 0x01), 0x01)\n      and\n      not(sub(shl(0xe0, 0x01), 0x01))\n      swap1\n      swap3\n      and\n      swap2\n      swap1\n      swap2\n      or\n      swap1\n      mstore\n      swap1\n      pop\n        /* \"contracts/ContractData.sol\":120:322  function getTransferData(string memory functionSignature, address _to, uint256 _value) public pure returns (bytes memory) {... */\n      swap4\n      swap3\n      pop\n      pop\n      pop\n      jump\t// out\n        /* \"#utility.yul\":14:141   */\n    tag_15:\n        /* \"#utility.yul\":75:85   */\n      0x4e487b71\n        /* \"#utility.yul\":70:73   */\n      0xe0\n        /* \"#utility.yul\":66:86   */\n      shl\n        /* \"#utility.yul\":63:64   */\n      0x00\n        /* \"#utility.yul\":56:87   */\n      mstore\n        /* \"#utility.yul\":106:110   */\n      0x41\n        /* \"#utility.yul\":103:104   */\n      0x04\n        /* \"#utility.yul\":96:111   */\n      mstore\n        /* \"#utility.yul\":130:134   */\n      0x24\n        /* \"#utility.yul\":127:128   */\n      0x00\n        /* \"#utility.yul\":120:135   */\n      revert\n        /* \"#utility.yul\":146:319   */\n    tag_16:\n        /* \"#utility.yul\":214:234   */\n      dup1\n      calldataload\n      sub(shl(0xa0, 0x01), 0x01)\n        /* \"#utility.yul\":263:294   */\n      dup2\n      and\n        /* \"#utility.yul\":253:295   */\n      dup2\n      eq\n        /* \"#utility.yul\":243:313   */\n      tag_20\n      jumpi\n        /* \"#utility.yul\":309:310   */\n      0x00\n        /* \"#utility.yul\":306:307   */\n      dup1\n        /* \"#utility.yul\":299:311   */\n      revert\n        /* \"#utility.yul\":243:313   */\n    tag_20:\n        /* \"#utility.yul\":146:319   */\n      swap2\n      swap1\n      pop\n      jump\t// out\n        /* \"#utility.yul\":324:1467   */\n    tag_6:\n        /* \"#utility.yul\":411:417   */\n      0x00\n        /* \"#utility.yul\":419:425   */\n      dup1\n        /* \"#utility.yul\":427:433   */\n      0x00\n        /* \"#utility.yul\":480:482   */\n      0x60\n        /* \"#utility.yul\":468:477   */\n      dup5\n        /* \"#utility.yul\":459:466   */\n      dup7\n        /* \"#utility.yul\":455:478   */\n      sub\n        /* \"#utility.yul\":451:483   */\n      slt\n        /* \"#utility.yul\":448:500   */\n      iszero\n      tag_22\n      jumpi\n        /* \"#utility.yul\":496:497   */\n      0x00\n        /* \"#utility.yul\":493:494   */\n      dup1\n        /* \"#utility.yul\":486:498   */\n      revert\n        /* \"#utility.yul\":448:500   */\n    tag_22:\n        /* \"#utility.yul\":536:545   */\n      dup4\n        /* \"#utility.yul\":523:546   */\n      calldataload\n        /* \"#utility.yul\":569:587   */\n      0xffffffffffffffff\n        /* \"#utility.yul\":561:567   */\n      dup2\n        /* \"#utility.yul\":558:588   */\n      gt\n        /* \"#utility.yul\":555:605   */\n      iszero\n      tag_23\n      jumpi\n        /* \"#utility.yul\":601:602   */\n      0x00\n        /* \"#utility.yul\":598:599   */\n      dup1\n        /* \"#utility.yul\":591:603   */\n      revert\n        /* \"#utility.yul\":555:605   */\n    tag_23:\n        /* \"#utility.yul\":624:646   */\n      dup5\n      add\n        /* \"#utility.yul\":677:681   */\n      0x1f\n        /* \"#utility.yul\":669:682   */\n      dup2\n      add\n        /* \"#utility.yul\":665:692   */\n      dup7\n      sgt\n        /* \"#utility.yul\":655:710   */\n      tag_24\n      jumpi\n        /* \"#utility.yul\":706:707   */\n      0x00\n        /* \"#utility.yul\":703:704   */\n      dup1\n        /* \"#utility.yul\":696:708   */\n      revert\n        /* \"#utility.yul\":655:710   */\n    tag_24:\n        /* \"#utility.yul\":746:748   */\n      dup1\n        /* \"#utility.yul\":733:749   */\n      calldataload\n        /* \"#utility.yul\":772:790   */\n      0xffffffffffffffff\n        /* \"#utility.yul\":764:770   */\n      dup2\n        /* \"#utility.yul\":761:791   */\n      gt\n        /* \"#utility.yul\":758:814   */\n      iszero\n      tag_26\n      jumpi\n        /* \"#utility.yul\":794:812   */\n      tag_26\n      tag_15\n      jump\t// in\n    tag_26:\n        /* \"#utility.yul\":843:845   */\n      0x40\n        /* \"#utility.yul\":837:846   */\n      mload\n        /* \"#utility.yul\":935:937   */\n      0x1f\n        /* \"#utility.yul\":897:914   */\n      dup3\n      add\n      not(0x1f)\n        /* \"#utility.yul\":893:924   */\n      swap1\n      dup2\n      and\n        /* \"#utility.yul\":926:928   */\n      0x3f\n        /* \"#utility.yul\":889:929   */\n      add\n        /* \"#utility.yul\":885:939   */\n      and\n        /* \"#utility.yul\":873:940   */\n      dup2\n      add\n        /* \"#utility.yul\":970:988   */\n      0xffffffffffffffff\n        /* \"#utility.yul\":955:989   */\n      dup2\n      gt\n        /* \"#utility.yul\":991:1013   */\n      dup3\n      dup3\n      lt\n        /* \"#utility.yul\":952:1014   */\n      or\n        /* \"#utility.yul\":949:1037   */\n      iszero\n      tag_28\n      jumpi\n        /* \"#utility.yul\":1017:1035   */\n      tag_28\n      tag_15\n      jump\t// in\n    tag_28:\n        /* \"#utility.yul\":1053:1055   */\n      0x40\n        /* \"#utility.yul\":1046:1068   */\n      mstore\n        /* \"#utility.yul\":1077:1099   */\n      dup2\n      dup2\n      mstore\n        /* \"#utility.yul\":1118:1133   */\n      dup3\n      dup3\n      add\n        /* \"#utility.yul\":1135:1139   */\n      0x20\n        /* \"#utility.yul\":1114:1140   */\n      add\n        /* \"#utility.yul\":1111:1150   */\n      dup9\n      lt\n        /* \"#utility.yul\":1108:1167   */\n      iszero\n      tag_29\n      jumpi\n        /* \"#utility.yul\":1163:1164   */\n      0x00\n        /* \"#utility.yul\":1160:1161   */\n      dup1\n        /* \"#utility.yul\":1153:1165   */\n      revert\n        /* \"#utility.yul\":1108:1167   */\n    tag_29:\n        /* \"#utility.yul\":1223:1229   */\n      dup2\n        /* \"#utility.yul\":1216:1220   */\n      0x20\n        /* \"#utility.yul\":1212:1214   */\n      dup5\n        /* \"#utility.yul\":1208:1221   */\n      add\n        /* \"#utility.yul\":1201:1205   */\n      0x20\n        /* \"#utility.yul\":1193:1199   */\n      dup4\n        /* \"#utility.yul\":1189:1206   */\n      add\n        /* \"#utility.yul\":1176:1230   */\n      calldatacopy\n        /* \"#utility.yul\":1278:1279   */\n      0x00\n        /* \"#utility.yul\":1271:1275   */\n      0x20\n        /* \"#utility.yul\":1262:1268   */\n      dup4\n        /* \"#utility.yul\":1254:1260   */\n      dup4\n        /* \"#utility.yul\":1250:1269   */\n      add\n        /* \"#utility.yul\":1246:1276   */\n      add\n        /* \"#utility.yul\":1239:1280   */\n      mstore\n        /* \"#utility.yul\":1299:1305   */\n      dup1\n        /* \"#utility.yul\":1289:1305   */\n      swap6\n      pop\n      pop\n      pop\n      pop\n        /* \"#utility.yul\":1324:1364   */\n      tag_30\n        /* \"#utility.yul\":1358:1362   */\n      0x20\n        /* \"#utility.yul\":1347:1356   */\n      dup6\n        /* \"#utility.yul\":1343:1363   */\n      add\n        /* \"#utility.yul\":1324:1364   */\n      tag_16\n      jump\t// in\n    tag_30:\n        /* \"#utility.yul\":324:1467   */\n      swap3\n      swap6\n        /* \"#utility.yul\":1314:1364   */\n      swap3\n      swap5\n      pop\n      pop\n      pop\n        /* \"#utility.yul\":1433:1435   */\n      0x40\n        /* \"#utility.yul\":1418:1436   */\n      swap2\n      swap1\n      swap2\n      add\n        /* \"#utility.yul\":1405:1437   */\n      calldataload\n      swap1\n        /* \"#utility.yul\":324:1467   */\n      jump\t// out\n        /* \"#utility.yul\":1472:1888   */\n    tag_9:\n        /* \"#utility.yul\":1619:1621   */\n      0x20\n        /* \"#utility.yul\":1608:1617   */\n      dup2\n        /* \"#utility.yul\":1601:1622   */\n      mstore\n        /* \"#utility.yul\":1582:1586   */\n      0x00\n        /* \"#utility.yul\":1651:1657   */\n      dup3\n        /* \"#utility.yul\":1645:1658   */\n      mload\n        /* \"#utility.yul\":1694:1700   */\n      dup1\n        /* \"#utility.yul\":1689:1691   */\n      0x20\n        /* \"#utility.yul\":1678:1687   */\n      dup5\n        /* \"#utility.yul\":1674:1692   */\n      add\n        /* \"#utility.yul\":1667:1701   */\n      mstore\n        /* \"#utility.yul\":1753:1759   */\n      dup1\n        /* \"#utility.yul\":1748:1750   */\n      0x20\n        /* \"#utility.yul\":1740:1746   */\n      dup6\n        /* \"#utility.yul\":1736:1751   */\n      add\n        /* \"#utility.yul\":1731:1733   */\n      0x40\n        /* \"#utility.yul\":1720:1729   */\n      dup6\n        /* \"#utility.yul\":1716:1734   */\n      add\n        /* \"#utility.yul\":1710:1760   */\n      mcopy\n        /* \"#utility.yul\":1809:1810   */\n      0x00\n        /* \"#utility.yul\":1804:1806   */\n      0x40\n        /* \"#utility.yul\":1795:1801   */\n      dup3\n        /* \"#utility.yul\":1784:1793   */\n      dup6\n        /* \"#utility.yul\":1780:1802   */\n      add\n        /* \"#utility.yul\":1776:1807   */\n      add\n        /* \"#utility.yul\":1769:1811   */\n      mstore\n        /* \"#utility.yul\":1879:1881   */\n      0x40\n        /* \"#utility.yul\":1872:1874   */\n      0x1f\n        /* \"#utility.yul\":1868:1875   */\n      not\n        /* \"#utility.yul\":1863:1865   */\n      0x1f\n        /* \"#utility.yul\":1855:1861   */\n      dup4\n        /* \"#utility.yul\":1851:1866   */\n      add\n        /* \"#utility.yul\":1847:1876   */\n      and\n        /* \"#utility.yul\":1836:1845   */\n      dup5\n        /* \"#utility.yul\":1832:1877   */\n      add\n        /* \"#utility.yul\":1828:1882   */\n      add\n        /* \"#utility.yul\":1820:1882   */\n      swap2\n      pop\n      pop\n        /* \"#utility.yul\":1472:1888   */\n      swap3\n      swap2\n      pop\n      pop\n      jump\t// out\n        /* \"#utility.yul\":2172:2475   */\n    tag_14:\n        /* \"#utility.yul\":2303:2306   */\n      0x00\n        /* \"#utility.yul\":2341:2347   */\n      dup3\n        /* \"#utility.yul\":2335:2348   */\n      mload\n        /* \"#utility.yul\":2387:2393   */\n      dup1\n        /* \"#utility.yul\":2380:2384   */\n      0x20\n        /* \"#utility.yul\":2372:2378   */\n      dup6\n        /* \"#utility.yul\":2368:2385   */\n      add\n        /* \"#utility.yul\":2363:2366   */\n      dup5\n        /* \"#utility.yul\":2357:2394   */\n      mcopy\n        /* \"#utility.yul\":2449:2450   */\n      0x00\n        /* \"#utility.yul\":2413:2429   */\n      swap3\n      add\n        /* \"#utility.yul\":2438:2451   */\n      swap2\n      dup3\n      mstore\n      pop\n        /* \"#utility.yul\":2413:2429   */\n      swap2\n        /* \"#utility.yul\":2172:2475   */\n      swap1\n      pop\n      jump\t// out\n\n    auxdata: 0xa26469706673582212208e75988fcf811da242157d08676bbcadc56805a1ada76fb541cfc694fe1eb3c464736f6c634300081a0033\n}\n",
				"bytecode": {
					"linkReferences": {},
					"object": "6080604052348015600e575f80fd5b506102428061001c5f395ff3fe608060405234801561000f575f80fd5b5060043610610029575f3560e01c8063a607854c1461002d575b5f80fd5b61004061003b3660046100f4565b610056565b60405161004d91906101c1565b60405180910390f35b6040516001600160a01b038316602482015260448101829052606090849060640160408051601f198184030181529082905291610092916101f6565b6040519081900390206020820180516001600160e01b03166001600160e01b031990921691909117905290509392505050565b634e487b7160e01b5f52604160045260245ffd5b80356001600160a01b03811681146100ef575f80fd5b919050565b5f805f60608486031215610106575f80fd5b833567ffffffffffffffff81111561011c575f80fd5b8401601f8101861361012c575f80fd5b803567ffffffffffffffff811115610146576101466100c5565b604051601f8201601f19908116603f0116810167ffffffffffffffff81118282101715610175576101756100c5565b60405281815282820160200188101561018c575f80fd5b816020840160208301375f602083830101528095505050506101b0602085016100d9565b929592945050506040919091013590565b602081525f82518060208401528060208501604085015e5f604082850101526040601f19601f83011684010191505092915050565b5f82518060208501845e5f92019182525091905056fea26469706673582212208e75988fcf811da242157d08676bbcadc56805a1ada76fb541cfc694fe1eb3c464736f6c634300081a0033",
					"opcodes": "PUSH1 0x80 PUSH1 0x40 MSTORE CALLVALUE DUP1 ISZERO PUSH1 0xE JUMPI PUSH0 DUP1 REVERT JUMPDEST POP PUSH2 0x242 DUP1 PUSH2 0x1C PUSH0 CODECOPY PUSH0 RETURN INVALID PUSH1 0x80 PUSH1 0x40 MSTORE CALLVALUE DUP1 ISZERO PUSH2 0xF JUMPI PUSH0 DUP1 REVERT JUMPDEST POP PUSH1 0x4 CALLDATASIZE LT PUSH2 0x29 JUMPI PUSH0 CALLDATALOAD PUSH1 0xE0 SHR DUP1 PUSH4 0xA607854C EQ PUSH2 0x2D JUMPI JUMPDEST PUSH0 DUP1 REVERT JUMPDEST PUSH2 0x40 PUSH2 0x3B CALLDATASIZE PUSH1 0x4 PUSH2 0xF4 JUMP JUMPDEST PUSH2 0x56 JUMP JUMPDEST PUSH1 0x40 MLOAD PUSH2 0x4D SWAP2 SWAP1 PUSH2 0x1C1 JUMP JUMPDEST PUSH1 0x40 MLOAD DUP1 SWAP2 SUB SWAP1 RETURN JUMPDEST PUSH1 0x40 MLOAD PUSH1 0x1 PUSH1 0x1 PUSH1 0xA0 SHL SUB DUP4 AND PUSH1 0x24 DUP3 ADD MSTORE PUSH1 0x44 DUP2 ADD DUP3 SWAP1 MSTORE PUSH1 0x60 SWAP1 DUP5 SWAP1 PUSH1 0x64 ADD PUSH1 0x40 DUP1 MLOAD PUSH1 0x1F NOT DUP2 DUP5 SUB ADD DUP2 MSTORE SWAP1 DUP3 SWAP1 MSTORE SWAP2 PUSH2 0x92 SWAP2 PUSH2 0x1F6 JUMP JUMPDEST PUSH1 0x40 MLOAD SWAP1 DUP2 SWAP1 SUB SWAP1 KECCAK256 PUSH1 0x20 DUP3 ADD DUP1 MLOAD PUSH1 0x1 PUSH1 0x1 PUSH1 0xE0 SHL SUB AND PUSH1 0x1 PUSH1 0x1 PUSH1 0xE0 SHL SUB NOT SWAP1 SWAP3 AND SWAP2 SWAP1 SWAP2 OR SWAP1 MSTORE SWAP1 POP SWAP4 SWAP3 POP POP POP JUMP JUMPDEST PUSH4 0x4E487B71 PUSH1 0xE0 SHL PUSH0 MSTORE PUSH1 0x41 PUSH1 0x4 MSTORE PUSH1 0x24 PUSH0 REVERT JUMPDEST DUP1 CALLDATALOAD PUSH1 0x1 PUSH1 0x1 PUSH1 0xA0 SHL SUB DUP2 AND DUP2 EQ PUSH2 0xEF JUMPI PUSH0 DUP1 REVERT JUMPDEST SWAP2 SWAP1 POP JUMP JUMPDEST PUSH0 DUP1 PUSH0 PUSH1 0x60 DUP5 DUP7 SUB SLT ISZERO PUSH2 0x106 JUMPI PUSH0 DUP1 REVERT JUMPDEST DUP4 CALLDATALOAD PUSH8 0xFFFFFFFFFFFFFFFF DUP2 GT ISZERO PUSH2 0x11C JUMPI PUSH0 DUP1 REVERT JUMPDEST DUP5 ADD PUSH1 0x1F DUP2 ADD DUP7 SGT PUSH2 0x12C JUMPI PUSH0 DUP1 REVERT JUMPDEST DUP1 CALLDATALOAD PUSH8 0xFFFFFFFFFFFFFFFF DUP2 GT ISZERO PUSH2 0x146 JUMPI PUSH2 0x146 PUSH2 0xC5 JUMP JUMPDEST PUSH1 0x40 MLOAD PUSH1 0x1F DUP3 ADD PUSH1 0x1F NOT SWAP1 DUP2 AND PUSH1 0x3F ADD AND DUP2 ADD PUSH8 0xFFFFFFFFFFFFFFFF DUP2 GT DUP3 DUP3 LT OR ISZERO PUSH2 0x175 JUMPI PUSH2 0x175 PUSH2 0xC5 JUMP JUMPDEST PUSH1 0x40 MSTORE DUP2 DUP2 MSTORE DUP3 DUP3 ADD PUSH1 0x20 ADD DUP9 LT ISZERO PUSH2 0x18C JUMPI PUSH0 DUP1 REVERT JUMPDEST DUP2 PUSH1 0x20 DUP5 ADD PUSH1 0x20 DUP4 ADD CALLDATACOPY PUSH0 PUSH1 0x20 DUP4 DUP4 ADD ADD MSTORE DUP1 SWAP6 POP POP POP POP PUSH2 0x1B0 PUSH1 0x20 DUP6 ADD PUSH2 0xD9 JUMP JUMPDEST SWAP3 SWAP6 SWAP3 SWAP5 POP POP POP PUSH1 0x40 SWAP2 SWAP1 SWAP2 ADD CALLDATALOAD SWAP1 JUMP JUMPDEST PUSH1 0x20 DUP2 MSTORE PUSH0 DUP3 MLOAD DUP1 PUSH1 0x20 DUP5 ADD MSTORE DUP1 PUSH1 0x20 DUP6 ADD PUSH1 0x40 DUP6 ADD MCOPY PUSH0 PUSH1 0x40 DUP3 DUP6 ADD ADD MSTORE PUSH1 0x40 PUSH1 0x1F NOT PUSH1 0x1F DUP4 ADD AND DUP5 ADD ADD SWAP2 POP POP SWAP3 SWAP2 POP POP JUMP JUMPDEST PUSH0 DUP3 MLOAD DUP1 PUSH1 0x20 DUP6 ADD DUP5 MCOPY PUSH0 SWAP3 ADD SWAP2 DUP3 MSTORE POP SWAP2 SWAP1 POP JUMP INVALID LOG2 PUSH5 0x6970667358 0x22 SLT KECCAK256 DUP15 PUSH22 0x988FCF811DA242157D08676BBCADC56805A1ADA76FB5 COINBASE 0xCF 0xC6 SWAP5 INVALID 0x1E 0xB3 0xC4 PUSH5 0x736F6C6343 STOP ADDMOD BYTE STOP CALLER "
				},
				"gasEstimates": {
					"creation": {
						"codeDepositCost": "115600",
						"executionCost": "163",
						"totalCost": "115763"
					},
					"external": {
						"getTransferData(string,address,uint256)": "infinite"
					}
				},
				"methodIdentifiers": {
					"getTransferData(string,address,uint256)": "a607854c"
				}
			},
			"storageLayout": {
				"storage": [],
				"types": null
			},
			"userdoc": {
				"kind": "user",
				"methods": {},
				"version": 1
			}
		}
	}
}