{
	"contracts/ContractData.sol": {
		"TokenCaller": {
			"abi": [
				{
					"inputs": [
						{
							"internalType": "address",
							"name": "tokenContract",
							"type": "address"
						},
						{
							"internalType": "address",
							"name": "to",
							"type": "address"
						},
						{
							"internalType": "uint256",
							"name": "value",
							"type": "uint256"
						}
					],
					"name": "callTransfer",
					"outputs": [
						{
							"internalType": "bool",
							"name": "",
							"type": "bool"
						}
					],
					"stateMutability": "nonpayable",
					"type": "function"
				}
			],
			"devdoc": {
				"kind": "dev",
				"methods": {},
				"version": 1
			},
			"evm": {
				"assembly": "    /* \"contracts/ContractData.sol\":326:626  contract TokenCaller {... */\n  mstore(0x40, 0x80)\n  callvalue\n  dup1\n  iszero\n  tag_1\n  jumpi\n  0x00\n  dup1\n  revert\ntag_1:\n  pop\n  dataSize(sub_0)\n  dup1\n  dataOffset(sub_0)\n  0x00\n  codecopy\n  0x00\n  return\nstop\n\nsub_0: assembly {\n        /* \"contracts/ContractData.sol\":326:626  contract TokenCaller {... */\n      mstore(0x40, 0x80)\n      callvalue\n      dup1\n      iszero\n      tag_1\n      jumpi\n      0x00\n      dup1\n      revert\n    tag_1:\n      pop\n      jumpi(tag_2, lt(calldatasize, 0x04))\n      shr(0xe0, calldataload(0x00))\n      dup1\n      0x686dc359\n      eq\n      tag_3\n      jumpi\n    tag_2:\n      0x00\n      dup1\n      revert\n        /* \"contracts/ContractData.sol\":353:624  function callTransfer(address tokenContract, address to, uint256 value) public returns (bool) {... */\n    tag_3:\n      tag_4\n      tag_5\n      calldatasize\n      0x04\n      tag_6\n      jump\t// in\n    tag_5:\n      tag_7\n      jump\t// in\n    tag_4:\n      mload(0x40)\n        /* \"#utility.yul\":690:704   */\n      swap1\n      iszero\n        /* \"#utility.yul\":683:705   */\n      iszero\n        /* \"#utility.yul\":665:706   */\n      dup2\n      mstore\n        /* \"#utility.yul\":653:655   */\n      0x20\n        /* \"#utility.yul\":638:656   */\n      add\n        /* \"contracts/ContractData.sol\":353:624  function callTransfer(address tokenContract, address to, uint256 value) public returns (bool) {... */\n      mload(0x40)\n      dup1\n      swap2\n      sub\n      swap1\n      return\n    tag_7:\n        /* \"contracts/ContractData.sol\":477:540  abi.encodeWithSignature(\"transfer(address,uint256)\", to, value) */\n      mload(0x40)\n      sub(shl(0xa0, 0x01), 0x01)\n        /* \"#utility.yul\":909:941   */\n      dup4\n      and\n        /* \"contracts/ContractData.sol\":477:540  abi.encodeWithSignature(\"transfer(address,uint256)\", to, value) */\n      0x24\n      dup3\n      add\n        /* \"#utility.yul\":891:942   */\n      mstore\n        /* \"#utility.yul\":958:976   */\n      0x44\n      dup2\n      add\n        /* \"#utility.yul\":951:985   */\n      dup3\n      swap1\n      mstore\n        /* \"contracts/ContractData.sol\":441:445  bool */\n      0x00\n      swap1\n      dup2\n      swap1\n        /* \"#utility.yul\":864:882   */\n      0x64\n      add\n        /* \"contracts/ContractData.sol\":477:540  abi.encodeWithSignature(\"transfer(address,uint256)\", to, value) */\n      0x40\n      dup1\n      mload\n      not(0x1f)\n      dup2\n      dup5\n      sub\n      add\n      dup2\n      mstore\n      swap2\n      dup2\n      mstore\n      0x20\n      dup3\n      add\n      dup1\n      mload\n      sub(shl(0xe0, 0x01), 0x01)\n      and\n      shl(0xe0, 0xa9059cbb)\n      or\n      swap1\n      mstore\n        /* \"contracts/ContractData.sol\":569:593  tokenContract.call(data) */\n      mload\n        /* \"contracts/ContractData.sol\":477:540  abi.encodeWithSignature(\"transfer(address,uint256)\", to, value) */\n      swap1\n      swap2\n      pop\n      0x00\n      swap1\n      sub(shl(0xa0, 0x01), 0x01)\n        /* \"contracts/ContractData.sol\":569:587  tokenContract.call */\n      dup8\n      and\n      swap1\n        /* \"contracts/ContractData.sol\":569:593  tokenContract.call(data) */\n      tag_13\n      swap1\n        /* \"contracts/ContractData.sol\":477:540  abi.encodeWithSignature(\"transfer(address,uint256)\", to, value) */\n      dup5\n      swap1\n        /* \"contracts/ContractData.sol\":569:593  tokenContract.call(data) */\n      tag_14\n      jump\t// in\n    tag_13:\n      0x00\n      mload(0x40)\n      dup1\n      dup4\n      sub\n      dup2\n      0x00\n      dup7\n      gas\n      call\n      swap2\n      pop\n      pop\n      returndatasize\n      dup1\n      0x00\n      dup2\n      eq\n      tag_17\n      jumpi\n      mload(0x40)\n      swap2\n      pop\n      and(add(returndatasize, 0x3f), not(0x1f))\n      dup3\n      add\n      0x40\n      mstore\n      returndatasize\n      dup3\n      mstore\n      returndatasize\n      0x00\n      0x20\n      dup5\n      add\n      returndatacopy\n      jump(tag_16)\n    tag_17:\n      0x60\n      swap2\n      pop\n    tag_16:\n      pop\n        /* \"contracts/ContractData.sol\":550:593  (bool success, ) = tokenContract.call(data) */\n      swap1\n      swap8\n        /* \"contracts/ContractData.sol\":353:624  function callTransfer(address tokenContract, address to, uint256 value) public returns (bool) {... */\n      swap7\n      pop\n      pop\n      pop\n      pop\n      pop\n      pop\n      pop\n      jump\t// out\n        /* \"#utility.yul\":14:187   */\n    tag_18:\n        /* \"#utility.yul\":82:102   */\n      dup1\n      calldataload\n      sub(shl(0xa0, 0x01), 0x01)\n        /* \"#utility.yul\":131:162   */\n      dup2\n      and\n        /* \"#utility.yul\":121:163   */\n      dup2\n      eq\n        /* \"#utility.yul\":111:181   */\n      tag_21\n      jumpi\n        /* \"#utility.yul\":177:178   */\n      0x00\n        /* \"#utility.yul\":174:175   */\n      dup1\n        /* \"#utility.yul\":167:179   */\n      revert\n        /* \"#utility.yul\":111:181   */\n    tag_21:\n        /* \"#utility.yul\":14:187   */\n      swap2\n      swap1\n      pop\n      jump\t// out\n        /* \"#utility.yul\":192:520   */\n    tag_6:\n        /* \"#utility.yul\":269:275   */\n      0x00\n        /* \"#utility.yul\":277:283   */\n      dup1\n        /* \"#utility.yul\":285:291   */\n      0x00\n        /* \"#utility.yul\":338:340   */\n      0x60\n        /* \"#utility.yul\":326:335   */\n      dup5\n        /* \"#utility.yul\":317:324   */\n      dup7\n        /* \"#utility.yul\":313:336   */\n      sub\n        /* \"#utility.yul\":309:341   */\n      slt\n        /* \"#utility.yul\":306:358   */\n      iszero\n      tag_23\n      jumpi\n        /* \"#utility.yul\":354:355   */\n      0x00\n        /* \"#utility.yul\":351:352   */\n      dup1\n        /* \"#utility.yul\":344:356   */\n      revert\n        /* \"#utility.yul\":306:358   */\n    tag_23:\n        /* \"#utility.yul\":377:406   */\n      tag_24\n        /* \"#utility.yul\":396:405   */\n      dup5\n        /* \"#utility.yul\":377:406   */\n      tag_18\n      jump\t// in\n    tag_24:\n        /* \"#utility.yul\":367:406   */\n      swap3\n      pop\n        /* \"#utility.yul\":425:463   */\n      tag_25\n        /* \"#utility.yul\":459:461   */\n      0x20\n        /* \"#utility.yul\":448:457   */\n      dup6\n        /* \"#utility.yul\":444:462   */\n      add\n        /* \"#utility.yul\":425:463   */\n      tag_18\n      jump\t// in\n    tag_25:\n        /* \"#utility.yul\":415:463   */\n      swap2\n      pop\n        /* \"#utility.yul\":510:512   */\n      0x40\n        /* \"#utility.yul\":499:508   */\n      dup5\n        /* \"#utility.yul\":495:513   */\n      add\n        /* \"#utility.yul\":482:514   */\n      calldataload\n        /* \"#utility.yul\":472:514   */\n      swap1\n      pop\n        /* \"#utility.yul\":192:520   */\n      swap3\n      pop\n      swap3\n      pop\n      swap3\n      jump\t// out\n        /* \"#utility.yul\":996:1297   */\n    tag_14:\n        /* \"#utility.yul\":1125:1128   */\n      0x00\n        /* \"#utility.yul\":1163:1169   */\n      dup3\n        /* \"#utility.yul\":1157:1170   */\n      mload\n        /* \"#utility.yul\":1209:1215   */\n      dup1\n        /* \"#utility.yul\":1202:1206   */\n      0x20\n        /* \"#utility.yul\":1194:1200   */\n      dup6\n        /* \"#utility.yul\":1190:1207   */\n      add\n        /* \"#utility.yul\":1185:1188   */\n      dup5\n        /* \"#utility.yul\":1179:1216   */\n      mcopy\n        /* \"#utility.yul\":1271:1272   */\n      0x00\n        /* \"#utility.yul\":1235:1251   */\n      swap3\n      add\n        /* \"#utility.yul\":1260:1273   */\n      swap2\n      dup3\n      mstore\n      pop\n        /* \"#utility.yul\":1235:1251   */\n      swap2\n        /* \"#utility.yul\":996:1297   */\n      swap1\n      pop\n      jump\t// out\n\n    auxdata: 0xa26469706673582212206a4f7b024b1edd1c4d1475ae84303b9637d4de92969542f35bbfe6f82c5e30da64736f6c634300081a0033\n}\n",
				"bytecode": {
					"linkReferences": {},
					"object": "6080604052348015600e575f80fd5b506101a58061001c5f395ff3fe608060405234801561000f575f80fd5b5060043610610029575f3560e01c8063686dc3591461002d575b5f80fd5b61004061003b366004610120565b610054565b604051901515815260200160405180910390f35b6040516001600160a01b0383166024820152604481018290525f90819060640160408051601f198184030181529181526020820180516001600160e01b031663a9059cbb60e01b179052519091505f906001600160a01b038716906100ba908490610159565b5f604051808303815f865af19150503d805f81146100f3576040519150601f19603f3d011682016040523d82523d5f602084013e6100f8565b606091505b5090979650505050505050565b80356001600160a01b038116811461011b575f80fd5b919050565b5f805f60608486031215610132575f80fd5b61013b84610105565b925061014960208501610105565b9150604084013590509250925092565b5f82518060208501845e5f92019182525091905056fea26469706673582212206a4f7b024b1edd1c4d1475ae84303b9637d4de92969542f35bbfe6f82c5e30da64736f6c634300081a0033",
					"opcodes": "PUSH1 0x80 PUSH1 0x40 MSTORE CALLVALUE DUP1 ISZERO PUSH1 0xE JUMPI PUSH0 DUP1 REVERT JUMPDEST POP PUSH2 0x1A5 DUP1 PUSH2 0x1C PUSH0 CODECOPY PUSH0 RETURN INVALID PUSH1 0x80 PUSH1 0x40 MSTORE CALLVALUE DUP1 ISZERO PUSH2 0xF JUMPI PUSH0 DUP1 REVERT JUMPDEST POP PUSH1 0x4 CALLDATASIZE LT PUSH2 0x29 JUMPI PUSH0 CALLDATALOAD PUSH1 0xE0 SHR DUP1 PUSH4 0x686DC359 EQ PUSH2 0x2D JUMPI JUMPDEST PUSH0 DUP1 REVERT JUMPDEST PUSH2 0x40 PUSH2 0x3B CALLDATASIZE PUSH1 0x4 PUSH2 0x120 JUMP JUMPDEST PUSH2 0x54 JUMP JUMPDEST PUSH1 0x40 MLOAD SWAP1 ISZERO ISZERO DUP2 MSTORE PUSH1 0x20 ADD PUSH1 0x40 MLOAD DUP1 SWAP2 SUB SWAP1 RETURN JUMPDEST PUSH1 0x40 MLOAD PUSH1 0x1 PUSH1 0x1 PUSH1 0xA0 SHL SUB DUP4 AND PUSH1 0x24 DUP3 ADD MSTORE PUSH1 0x44 DUP2 ADD DUP3 SWAP1 MSTORE PUSH0 SWAP1 DUP2 SWAP1 PUSH1 0x64 ADD PUSH1 0x40 DUP1 MLOAD PUSH1 0x1F NOT DUP2 DUP5 SUB ADD DUP2 MSTORE SWAP2 DUP2 MSTORE PUSH1 0x20 DUP3 ADD DUP1 MLOAD PUSH1 0x1 PUSH1 0x1 PUSH1 0xE0 SHL SUB AND PUSH4 0xA9059CBB PUSH1 0xE0 SHL OR SWAP1 MSTORE MLOAD SWAP1 SWAP2 POP PUSH0 SWAP1 PUSH1 0x1 PUSH1 0x1 PUSH1 0xA0 SHL SUB DUP8 AND SWAP1 PUSH2 0xBA SWAP1 DUP5 SWAP1 PUSH2 0x159 JUMP JUMPDEST PUSH0 PUSH1 0x40 MLOAD DUP1 DUP4 SUB DUP2 PUSH0 DUP7 GAS CALL SWAP2 POP POP RETURNDATASIZE DUP1 PUSH0 DUP2 EQ PUSH2 0xF3 JUMPI PUSH1 0x40 MLOAD SWAP2 POP PUSH1 0x1F NOT PUSH1 0x3F RETURNDATASIZE ADD AND DUP3 ADD PUSH1 0x40 MSTORE RETURNDATASIZE DUP3 MSTORE RETURNDATASIZE PUSH0 PUSH1 0x20 DUP5 ADD RETURNDATACOPY PUSH2 0xF8 JUMP JUMPDEST PUSH1 0x60 SWAP2 POP JUMPDEST POP SWAP1 SWAP8 SWAP7 POP POP POP POP POP POP POP JUMP JUMPDEST DUP1 CALLDATALOAD PUSH1 0x1 PUSH1 0x1 PUSH1 0xA0 SHL SUB DUP2 AND DUP2 EQ PUSH2 0x11B JUMPI PUSH0 DUP1 REVERT JUMPDEST SWAP2 SWAP1 POP JUMP JUMPDEST PUSH0 DUP1 PUSH0 PUSH1 0x60 DUP5 DUP7 SUB SLT ISZERO PUSH2 0x132 JUMPI PUSH0 DUP1 REVERT JUMPDEST PUSH2 0x13B DUP5 PUSH2 0x105 JUMP JUMPDEST SWAP3 POP PUSH2 0x149 PUSH1 0x20 DUP6 ADD PUSH2 0x105 JUMP JUMPDEST SWAP2 POP PUSH1 0x40 DUP5 ADD CALLDATALOAD SWAP1 POP SWAP3 POP SWAP3 POP SWAP3 JUMP JUMPDEST PUSH0 DUP3 MLOAD DUP1 PUSH1 0x20 DUP6 ADD DUP5 MCOPY PUSH0 SWAP3 ADD SWAP2 DUP3 MSTORE POP SWAP2 SWAP1 POP JUMP INVALID LOG2 PUSH5 0x6970667358 0x22 SLT KECCAK256 PUSH11 0x4F7B024B1EDD1C4D1475AE DUP5 ADDRESS EXTCODESIZE SWAP7 CALLDATACOPY 0xD4 0xDE SWAP3 SWAP7 SWAP6 TIMESTAMP RETURN JUMPDEST 0xBF 0xE6 0xF8 0x2C MCOPY ADDRESS 0xDA PUSH5 0x736F6C6343 STOP ADDMOD BYTE STOP CALLER "
				},
				"gasEstimates": {
					"creation": {
						"codeDepositCost": "84200",
						"executionCost": "133",
						"totalCost": "84333"
					},
					"external": {
						"callTransfer(address,address,uint256)": "infinite"
					}
				},
				"methodIdentifiers": {
					"callTransfer(address,address,uint256)": "686dc359"
				}
			},
			"storageLayout": {
				"storage": [],
				"types": null
			},
			"userdoc": {
				"kind": "user",
				"methods": {},
				"version": 1
			}
		}
	}
}