{
	"contracts/DepositTokenization_flattened.sol": {
		"DepositTokenization": {
			"abi": [
				{
					"inputs": [
						{
							"internalType": "address",
							"name": "defaultAdmin",
							"type": "address"
						},
						{
							"internalType": "address",
							"name": "pauser",
							"type": "address"
						},
						{
							"internalType": "address",
							"name": "minter",
							"type": "address"
						},
						{
							"internalType": "contract ITokenizationRoleManager",
							"name": "_iTokenizationRoleManager",
							"type": "address"
						},
						{
							"internalType": "contract IMultiSigFactory",
							"name": "_iMultiSigFactory",
							"type": "address"
						}
					],
					"stateMutability": "nonpayable",
					"type": "constructor"
				},
				{
					"inputs": [],
					"name": "AccessControlBadConfirmation",
					"type": "error"
				},
				{
					"inputs": [
						{
							"internalType": "address",
							"name": "account",
							"type": "address"
						},
						{
							"internalType": "bytes32",
							"name": "neededRole",
							"type": "bytes32"
						}
					],
					"name": "AccessControlUnauthorizedAccount",
					"type": "error"
				},
				{
					"inputs": [
						{
							"internalType": "address",
							"name": "sender",
							"type": "address"
						},
						{
							"internalType": "uint256",
							"name": "balance",
							"type": "uint256"
						},
						{
							"internalType": "uint256",
							"name": "needed",
							"type": "uint256"
						},
						{
							"internalType": "uint256",
							"name": "tokenId",
							"type": "uint256"
						}
					],
					"name": "ERC1155InsufficientBalance",
					"type": "error"
				},
				{
					"inputs": [
						{
							"internalType": "address",
							"name": "approver",
							"type": "address"
						}
					],
					"name": "ERC1155InvalidApprover",
					"type": "error"
				},
				{
					"inputs": [
						{
							"internalType": "uint256",
							"name": "idsLength",
							"type": "uint256"
						},
						{
							"internalType": "uint256",
							"name": "valuesLength",
							"type": "uint256"
						}
					],
					"name": "ERC1155InvalidArrayLength",
					"type": "error"
				},
				{
					"inputs": [
						{
							"internalType": "address",
							"name": "operator",
							"type": "address"
						}
					],
					"name": "ERC1155InvalidOperator",
					"type": "error"
				},
				{
					"inputs": [
						{
							"internalType": "address",
							"name": "receiver",
							"type": "address"
						}
					],
					"name": "ERC1155InvalidReceiver",
					"type": "error"
				},
				{
					"inputs": [
						{
							"internalType": "address",
							"name": "sender",
							"type": "address"
						}
					],
					"name": "ERC1155InvalidSender",
					"type": "error"
				},
				{
					"inputs": [
						{
							"internalType": "address",
							"name": "operator",
							"type": "address"
						},
						{
							"internalType": "address",
							"name": "owner",
							"type": "address"
						}
					],
					"name": "ERC1155MissingApprovalForAll",
					"type": "error"
				},
				{
					"inputs": [],
					"name": "EnforcedPause",
					"type": "error"
				},
				{
					"inputs": [],
					"name": "ExpectedPause",
					"type": "error"
				},
				{
					"anonymous": false,
					"inputs": [
						{
							"indexed": true,
							"internalType": "address",
							"name": "account",
							"type": "address"
						},
						{
							"indexed": true,
							"internalType": "address",
							"name": "operator",
							"type": "address"
						},
						{
							"indexed": false,
							"internalType": "bool",
							"name": "approved",
							"type": "bool"
						}
					],
					"name": "ApprovalForAll",
					"type": "event"
				},
				{
					"anonymous": false,
					"inputs": [
						{
							"indexed": false,
							"internalType": "contract ITokenizationRoleManager",
							"name": "",
							"type": "address"
						},
						{
							"indexed": false,
							"internalType": "contract IMultiSigFactory",
							"name": "",
							"type": "address"
						}
					],
					"name": "DepositTokenizationSetUp",
					"type": "event"
				},
				{
					"anonymous": false,
					"inputs": [
						{
							"indexed": false,
							"internalType": "address",
							"name": "account",
							"type": "address"
						}
					],
					"name": "Paused",
					"type": "event"
				},
				{
					"anonymous": false,
					"inputs": [
						{
							"indexed": true,
							"internalType": "bytes32",
							"name": "role",
							"type": "bytes32"
						},
						{
							"indexed": true,
							"internalType": "bytes32",
							"name": "previousAdminRole",
							"type": "bytes32"
						},
						{
							"indexed": true,
							"internalType": "bytes32",
							"name": "newAdminRole",
							"type": "bytes32"
						}
					],
					"name": "RoleAdminChanged",
					"type": "event"
				},
				{
					"anonymous": false,
					"inputs": [
						{
							"indexed": true,
							"internalType": "bytes32",
							"name": "role",
							"type": "bytes32"
						},
						{
							"indexed": true,
							"internalType": "address",
							"name": "account",
							"type": "address"
						},
						{
							"indexed": true,
							"internalType": "address",
							"name": "sender",
							"type": "address"
						}
					],
					"name": "RoleGranted",
					"type": "event"
				},
				{
					"anonymous": false,
					"inputs": [
						{
							"indexed": true,
							"internalType": "bytes32",
							"name": "role",
							"type": "bytes32"
						},
						{
							"indexed": true,
							"internalType": "address",
							"name": "account",
							"type": "address"
						},
						{
							"indexed": true,
							"internalType": "address",
							"name": "sender",
							"type": "address"
						}
					],
					"name": "RoleRevoked",
					"type": "event"
				},
				{
					"anonymous": false,
					"inputs": [
						{
							"indexed": true,
							"internalType": "address",
							"name": "operator",
							"type": "address"
						},
						{
							"indexed": true,
							"internalType": "address",
							"name": "from",
							"type": "address"
						},
						{
							"indexed": true,
							"internalType": "address",
							"name": "to",
							"type": "address"
						},
						{
							"indexed": false,
							"internalType": "uint256[]",
							"name": "ids",
							"type": "uint256[]"
						},
						{
							"indexed": false,
							"internalType": "uint256[]",
							"name": "values",
							"type": "uint256[]"
						}
					],
					"name": "TransferBatch",
					"type": "event"
				},
				{
					"anonymous": false,
					"inputs": [
						{
							"indexed": true,
							"internalType": "address",
							"name": "operator",
							"type": "address"
						},
						{
							"indexed": true,
							"internalType": "address",
							"name": "from",
							"type": "address"
						},
						{
							"indexed": true,
							"internalType": "address",
							"name": "to",
							"type": "address"
						},
						{
							"indexed": false,
							"internalType": "uint256",
							"name": "id",
							"type": "uint256"
						},
						{
							"indexed": false,
							"internalType": "uint256",
							"name": "value",
							"type": "uint256"
						}
					],
					"name": "TransferSingle",
					"type": "event"
				},
				{
					"anonymous": false,
					"inputs": [
						{
							"indexed": false,
							"internalType": "string",
							"name": "value",
							"type": "string"
						},
						{
							"indexed": true,
							"internalType": "uint256",
							"name": "id",
							"type": "uint256"
						}
					],
					"name": "URI",
					"type": "event"
				},
				{
					"anonymous": false,
					"inputs": [
						{
							"indexed": false,
							"internalType": "address",
							"name": "account",
							"type": "address"
						}
					],
					"name": "Unpaused",
					"type": "event"
				},
				{
					"inputs": [],
					"name": "DEFAULT_ADMIN_ROLE",
					"outputs": [
						{
							"internalType": "bytes32",
							"name": "",
							"type": "bytes32"
						}
					],
					"stateMutability": "view",
					"type": "function"
				},
				{
					"inputs": [],
					"name": "MINTER_ROLE",
					"outputs": [
						{
							"internalType": "bytes32",
							"name": "",
							"type": "bytes32"
						}
					],
					"stateMutability": "view",
					"type": "function"
				},
				{
					"inputs": [],
					"name": "PAUSER_ROLE",
					"outputs": [
						{
							"internalType": "bytes32",
							"name": "",
							"type": "bytes32"
						}
					],
					"stateMutability": "view",
					"type": "function"
				},
				{
					"inputs": [],
					"name": "URI_SETTER_ROLE",
					"outputs": [
						{
							"internalType": "bytes32",
							"name": "",
							"type": "bytes32"
						}
					],
					"stateMutability": "view",
					"type": "function"
				},
				{
					"inputs": [
						{
							"internalType": "address",
							"name": "account",
							"type": "address"
						},
						{
							"internalType": "uint256",
							"name": "id",
							"type": "uint256"
						}
					],
					"name": "balanceOf",
					"outputs": [
						{
							"internalType": "uint256",
							"name": "",
							"type": "uint256"
						}
					],
					"stateMutability": "view",
					"type": "function"
				},
				{
					"inputs": [
						{
							"internalType": "address[]",
							"name": "accounts",
							"type": "address[]"
						},
						{
							"internalType": "uint256[]",
							"name": "ids",
							"type": "uint256[]"
						}
					],
					"name": "balanceOfBatch",
					"outputs": [
						{
							"internalType": "uint256[]",
							"name": "",
							"type": "uint256[]"
						}
					],
					"stateMutability": "view",
					"type": "function"
				},
				{
					"inputs": [
						{
							"internalType": "address",
							"name": "account",
							"type": "address"
						},
						{
							"internalType": "uint256",
							"name": "id",
							"type": "uint256"
						},
						{
							"internalType": "uint256",
							"name": "value",
							"type": "uint256"
						}
					],
					"name": "burn",
					"outputs": [],
					"stateMutability": "nonpayable",
					"type": "function"
				},
				{
					"inputs": [
						{
							"internalType": "address",
							"name": "account",
							"type": "address"
						},
						{
							"internalType": "uint256[]",
							"name": "ids",
							"type": "uint256[]"
						},
						{
							"internalType": "uint256[]",
							"name": "values",
							"type": "uint256[]"
						}
					],
					"name": "burnBatch",
					"outputs": [],
					"stateMutability": "nonpayable",
					"type": "function"
				},
				{
					"inputs": [
						{
							"internalType": "uint256",
							"name": "id",
							"type": "uint256"
						}
					],
					"name": "exists",
					"outputs": [
						{
							"internalType": "bool",
							"name": "",
							"type": "bool"
						}
					],
					"stateMutability": "view",
					"type": "function"
				},
				{
					"inputs": [
						{
							"internalType": "bytes32",
							"name": "role",
							"type": "bytes32"
						}
					],
					"name": "getRoleAdmin",
					"outputs": [
						{
							"internalType": "bytes32",
							"name": "",
							"type": "bytes32"
						}
					],
					"stateMutability": "view",
					"type": "function"
				},
				{
					"inputs": [
						{
							"internalType": "bytes32",
							"name": "role",
							"type": "bytes32"
						},
						{
							"internalType": "address",
							"name": "account",
							"type": "address"
						}
					],
					"name": "grantRole",
					"outputs": [],
					"stateMutability": "nonpayable",
					"type": "function"
				},
				{
					"inputs": [
						{
							"internalType": "bytes32",
							"name": "role",
							"type": "bytes32"
						},
						{
							"internalType": "address",
							"name": "account",
							"type": "address"
						}
					],
					"name": "hasRole",
					"outputs": [
						{
							"internalType": "bool",
							"name": "",
							"type": "bool"
						}
					],
					"stateMutability": "view",
					"type": "function"
				},
				{
					"inputs": [],
					"name": "iMultiSigFactory",
					"outputs": [
						{
							"internalType": "contract IMultiSigFactory",
							"name": "",
							"type": "address"
						}
					],
					"stateMutability": "view",
					"type": "function"
				},
				{
					"inputs": [],
					"name": "iMultiSigWallet",
					"outputs": [
						{
							"internalType": "contract IMultiSigWallet",
							"name": "",
							"type": "address"
						}
					],
					"stateMutability": "view",
					"type": "function"
				},
				{
					"inputs": [],
					"name": "iTokenizationRoleManager",
					"outputs": [
						{
							"internalType": "contract ITokenizationRoleManager",
							"name": "",
							"type": "address"
						}
					],
					"stateMutability": "view",
					"type": "function"
				},
				{
					"inputs": [
						{
							"internalType": "address",
							"name": "account",
							"type": "address"
						},
						{
							"internalType": "address",
							"name": "operator",
							"type": "address"
						}
					],
					"name": "isApprovedForAll",
					"outputs": [
						{
							"internalType": "bool",
							"name": "",
							"type": "bool"
						}
					],
					"stateMutability": "view",
					"type": "function"
				},
				{
					"inputs": [
						{
							"internalType": "address",
							"name": "account",
							"type": "address"
						},
						{
							"internalType": "uint256",
							"name": "id",
							"type": "uint256"
						},
						{
							"internalType": "uint256",
							"name": "amount",
							"type": "uint256"
						},
						{
							"internalType": "bytes",
							"name": "data",
							"type": "bytes"
						}
					],
					"name": "mint",
					"outputs": [],
					"stateMutability": "nonpayable",
					"type": "function"
				},
				{
					"inputs": [
						{
							"internalType": "address",
							"name": "to",
							"type": "address"
						},
						{
							"internalType": "uint256[]",
							"name": "ids",
							"type": "uint256[]"
						},
						{
							"internalType": "uint256[]",
							"name": "amounts",
							"type": "uint256[]"
						},
						{
							"internalType": "bytes",
							"name": "data",
							"type": "bytes"
						}
					],
					"name": "mintBatch",
					"outputs": [],
					"stateMutability": "nonpayable",
					"type": "function"
				},
				{
					"inputs": [],
					"name": "pause",
					"outputs": [],
					"stateMutability": "nonpayable",
					"type": "function"
				},
				{
					"inputs": [],
					"name": "paused",
					"outputs": [
						{
							"internalType": "bool",
							"name": "",
							"type": "bool"
						}
					],
					"stateMutability": "view",
					"type": "function"
				},
				{
					"inputs": [
						{
							"internalType": "bytes32",
							"name": "role",
							"type": "bytes32"
						},
						{
							"internalType": "address",
							"name": "callerConfirmation",
							"type": "address"
						}
					],
					"name": "renounceRole",
					"outputs": [],
					"stateMutability": "nonpayable",
					"type": "function"
				},
				{
					"inputs": [
						{
							"internalType": "bytes32",
							"name": "role",
							"type": "bytes32"
						},
						{
							"internalType": "address",
							"name": "account",
							"type": "address"
						}
					],
					"name": "revokeRole",
					"outputs": [],
					"stateMutability": "nonpayable",
					"type": "function"
				},
				{
					"inputs": [
						{
							"internalType": "address",
							"name": "from",
							"type": "address"
						},
						{
							"internalType": "address",
							"name": "to",
							"type": "address"
						},
						{
							"internalType": "uint256[]",
							"name": "ids",
							"type": "uint256[]"
						},
						{
							"internalType": "uint256[]",
							"name": "values",
							"type": "uint256[]"
						},
						{
							"internalType": "bytes",
							"name": "data",
							"type": "bytes"
						}
					],
					"name": "safeBatchTransferFrom",
					"outputs": [],
					"stateMutability": "nonpayable",
					"type": "function"
				},
				{
					"inputs": [
						{
							"internalType": "address",
							"name": "from",
							"type": "address"
						},
						{
							"internalType": "address",
							"name": "to",
							"type": "address"
						},
						{
							"internalType": "uint256",
							"name": "id",
							"type": "uint256"
						},
						{
							"internalType": "uint256",
							"name": "value",
							"type": "uint256"
						},
						{
							"internalType": "bytes",
							"name": "data",
							"type": "bytes"
						}
					],
					"name": "safeTransferFrom",
					"outputs": [],
					"stateMutability": "nonpayable",
					"type": "function"
				},
				{
					"inputs": [
						{
							"internalType": "address",
							"name": "operator",
							"type": "address"
						},
						{
							"internalType": "bool",
							"name": "approved",
							"type": "bool"
						}
					],
					"name": "setApprovalForAll",
					"outputs": [],
					"stateMutability": "nonpayable",
					"type": "function"
				},
				{
					"inputs": [
						{
							"internalType": "string",
							"name": "newuri",
							"type": "string"
						}
					],
					"name": "setURI",
					"outputs": [],
					"stateMutability": "nonpayable",
					"type": "function"
				},
				{
					"inputs": [
						{
							"internalType": "bytes4",
							"name": "interfaceId",
							"type": "bytes4"
						}
					],
					"name": "supportsInterface",
					"outputs": [
						{
							"internalType": "bool",
							"name": "",
							"type": "bool"
						}
					],
					"stateMutability": "view",
					"type": "function"
				},
				{
					"inputs": [],
					"name": "totalSupply",
					"outputs": [
						{
							"internalType": "uint256",
							"name": "",
							"type": "uint256"
						}
					],
					"stateMutability": "view",
					"type": "function"
				},
				{
					"inputs": [
						{
							"internalType": "uint256",
							"name": "id",
							"type": "uint256"
						}
					],
					"name": "totalSupply",
					"outputs": [
						{
							"internalType": "uint256",
							"name": "",
							"type": "uint256"
						}
					],
					"stateMutability": "view",
					"type": "function"
				},
				{
					"inputs": [],
					"name": "unpause",
					"outputs": [],
					"stateMutability": "nonpayable",
					"type": "function"
				},
				{
					"inputs": [
						{
							"internalType": "uint256",
							"name": "",
							"type": "uint256"
						}
					],
					"name": "uri",
					"outputs": [
						{
							"internalType": "string",
							"name": "",
							"type": "string"
						}
					],
					"stateMutability": "view",
					"type": "function"
				}
			],
			"devdoc": {
				"errors": {
					"AccessControlBadConfirmation()": [
						{
							"details": "The caller of a function is not the expected one. NOTE: Don't confuse with {AccessControlUnauthorizedAccount}."
						}
					],
					"AccessControlUnauthorizedAccount(address,bytes32)": [
						{
							"details": "The `account` is missing a role."
						}
					],
					"ERC1155InsufficientBalance(address,uint256,uint256,uint256)": [
						{
							"details": "Indicates an error related to the current `balance` of a `sender`. Used in transfers.",
							"params": {
								"balance": "Current balance for the interacting account.",
								"needed": "Minimum amount required to perform a transfer.",
								"sender": "Address whose tokens are being transferred.",
								"tokenId": "Identifier number of a token."
							}
						}
					],
					"ERC1155InvalidApprover(address)": [
						{
							"details": "Indicates a failure with the `approver` of a token to be approved. Used in approvals.",
							"params": {
								"approver": "Address initiating an approval operation."
							}
						}
					],
					"ERC1155InvalidArrayLength(uint256,uint256)": [
						{
							"details": "Indicates an array length mismatch between ids and values in a safeBatchTransferFrom operation. Used in batch transfers.",
							"params": {
								"idsLength": "Length of the array of token identifiers",
								"valuesLength": "Length of the array of token amounts"
							}
						}
					],
					"ERC1155InvalidOperator(address)": [
						{
							"details": "Indicates a failure with the `operator` to be approved. Used in approvals.",
							"params": {
								"operator": "Address that may be allowed to operate on tokens without being their owner."
							}
						}
					],
					"ERC1155InvalidReceiver(address)": [
						{
							"details": "Indicates a failure with the token `receiver`. Used in transfers.",
							"params": {
								"receiver": "Address to which tokens are being transferred."
							}
						}
					],
					"ERC1155InvalidSender(address)": [
						{
							"details": "Indicates a failure with the token `sender`. Used in transfers.",
							"params": {
								"sender": "Address whose tokens are being transferred."
							}
						}
					],
					"ERC1155MissingApprovalForAll(address,address)": [
						{
							"details": "Indicates a failure with the `operator`’s approval. Used in transfers.",
							"params": {
								"operator": "Address that may be allowed to operate on tokens without being their owner.",
								"owner": "Address of the current owner of a token."
							}
						}
					],
					"EnforcedPause()": [
						{
							"details": "The operation failed because the contract is paused."
						}
					],
					"ExpectedPause()": [
						{
							"details": "The operation failed because the contract is not paused."
						}
					]
				},
				"events": {
					"ApprovalForAll(address,address,bool)": {
						"details": "Emitted when `account` grants or revokes permission to `operator` to transfer their tokens, according to `approved`."
					},
					"Paused(address)": {
						"details": "Emitted when the pause is triggered by `account`."
					},
					"RoleAdminChanged(bytes32,bytes32,bytes32)": {
						"details": "Emitted when `newAdminRole` is set as ``role``'s admin role, replacing `previousAdminRole` `DEFAULT_ADMIN_ROLE` is the starting admin for all roles, despite {RoleAdminChanged} not being emitted signaling this."
					},
					"RoleGranted(bytes32,address,address)": {
						"details": "Emitted when `account` is granted `role`. `sender` is the account that originated the contract call, an admin role bearer except when using {AccessControl-_setupRole}."
					},
					"RoleRevoked(bytes32,address,address)": {
						"details": "Emitted when `account` is revoked `role`. `sender` is the account that originated the contract call:   - if using `revokeRole`, it is the admin role bearer   - if using `renounceRole`, it is the role bearer (i.e. `account`)"
					},
					"TransferBatch(address,address,address,uint256[],uint256[])": {
						"details": "Equivalent to multiple {TransferSingle} events, where `operator`, `from` and `to` are the same for all transfers."
					},
					"TransferSingle(address,address,address,uint256,uint256)": {
						"details": "Emitted when `value` amount of tokens of type `id` are transferred from `from` to `to` by `operator`."
					},
					"URI(string,uint256)": {
						"details": "Emitted when the URI for token type `id` changes to `value`, if it is a non-programmatic URI. If an {URI} event was emitted for `id`, the standard https://eips.ethereum.org/EIPS/eip-1155#metadata-extensions[guarantees] that `value` will equal the value returned by {IERC1155MetadataURI-uri}."
					},
					"Unpaused(address)": {
						"details": "Emitted when the pause is lifted by `account`."
					}
				},
				"kind": "dev",
				"methods": {
					"balanceOf(address,uint256)": {
						"details": "See {IERC1155-balanceOf}."
					},
					"balanceOfBatch(address[],uint256[])": {
						"details": "See {IERC1155-balanceOfBatch}. Requirements: - `accounts` and `ids` must have the same length."
					},
					"exists(uint256)": {
						"details": "Indicates whether any token exist with a given id, or not."
					},
					"getRoleAdmin(bytes32)": {
						"details": "Returns the admin role that controls `role`. See {grantRole} and {revokeRole}. To change a role's admin, use {_setRoleAdmin}."
					},
					"grantRole(bytes32,address)": {
						"details": "Grants `role` to `account`. If `account` had not been already granted `role`, emits a {RoleGranted} event. Requirements: - the caller must have ``role``'s admin role. May emit a {RoleGranted} event."
					},
					"hasRole(bytes32,address)": {
						"details": "Returns `true` if `account` has been granted `role`."
					},
					"isApprovedForAll(address,address)": {
						"details": "See {IERC1155-isApprovedForAll}."
					},
					"paused()": {
						"details": "Returns true if the contract is paused, and false otherwise."
					},
					"renounceRole(bytes32,address)": {
						"details": "Revokes `role` from the calling account. Roles are often managed via {grantRole} and {revokeRole}: this function's purpose is to provide a mechanism for accounts to lose their privileges if they are compromised (such as when a trusted device is misplaced). If the calling account had been revoked `role`, emits a {RoleRevoked} event. Requirements: - the caller must be `callerConfirmation`. May emit a {RoleRevoked} event."
					},
					"revokeRole(bytes32,address)": {
						"details": "Revokes `role` from `account`. If `account` had been granted `role`, emits a {RoleRevoked} event. Requirements: - the caller must have ``role``'s admin role. May emit a {RoleRevoked} event."
					},
					"safeBatchTransferFrom(address,address,uint256[],uint256[],bytes)": {
						"details": "See {IERC1155-safeBatchTransferFrom}."
					},
					"safeTransferFrom(address,address,uint256,uint256,bytes)": {
						"details": "See {IERC1155-safeTransferFrom}."
					},
					"setApprovalForAll(address,bool)": {
						"details": "See {IERC1155-setApprovalForAll}."
					},
					"totalSupply()": {
						"details": "Total value of tokens."
					},
					"totalSupply(uint256)": {
						"details": "Total value of tokens in with a given id."
					},
					"uri(uint256)": {
						"details": "See {IERC1155MetadataURI-uri}. This implementation returns the same URI for *all* token types. It relies on the token type ID substitution mechanism https://eips.ethereum.org/EIPS/eip-1155#metadata[defined in the EIP]. Clients calling this function must replace the `\\{id\\}` substring with the actual token type ID."
					}
				},
				"version": 1
			},
			"evm": {
				"assembly": "    /* \"contracts/DepositTokenization_flattened.sol\":80914:83129  contract DepositTokenization is ERC1155, AccessControl, ERC1155Pausable, ERC1155Burnable, ERC1155Supply {... */\n  mstore(0x40, 0x80)\n    /* \"contracts/DepositTokenization_flattened.sol\":81468:81969  constructor(address defaultAdmin, address pauser, address minter, ITokenizationRoleManager _iTokenizationRoleManager, IMultiSigFactory _iMultiSigFactory) ERC1155(\"\") {... */\n  callvalue\n  dup1\n  iszero\n  tag_1\n  jumpi\n  0x00\n  dup1\n  revert\ntag_1:\n  pop\n  mload(0x40)\n  sub(codesize, bytecodeSize)\n  dup1\n  bytecodeSize\n  dup4\n  codecopy\n  dup2\n  add\n  0x40\n  dup2\n  swap1\n  mstore\n  tag_2\n  swap2\n  tag_3\n  jump\t// in\ntag_2:\n    /* \"contracts/DepositTokenization_flattened.sol\":42103:42165  constructor(string memory uri_) {... */\n  0x40\n  dup1\n  mload\n  0x20\n  dup2\n  add\n  swap1\n  swap2\n  mstore\n  0x00\n  dup2\n  mstore\n    /* \"contracts/DepositTokenization_flattened.sol\":42145:42158  _setURI(uri_) */\n  tag_8\n    /* \"contracts/DepositTokenization_flattened.sol\":42103:42165  constructor(string memory uri_) {... */\n  dup2\n    /* \"contracts/DepositTokenization_flattened.sol\":42145:42152  _setURI */\n  tag_9\n    /* \"contracts/DepositTokenization_flattened.sol\":42145:42158  _setURI(uri_) */\n  jump\t// in\ntag_8:\n  pop\n    /* \"contracts/DepositTokenization_flattened.sol\":69205:69212  _paused */\n  0x04\n    /* \"contracts/DepositTokenization_flattened.sol\":69205:69220  _paused = false */\n  dup1\n  sload\n  not(0xff)\n  and\n  swap1\n  sstore\n    /* \"contracts/DepositTokenization_flattened.sol\":81644:81688  _grantRole(DEFAULT_ADMIN_ROLE, defaultAdmin) */\n  tag_12\n    /* \"contracts/DepositTokenization_flattened.sol\":69215:69220  false */\n  0x00\n    /* \"contracts/DepositTokenization_flattened.sol\":81675:81687  defaultAdmin */\n  dup7\n    /* \"contracts/DepositTokenization_flattened.sol\":81644:81654  _grantRole */\n  tag_13\n    /* \"contracts/DepositTokenization_flattened.sol\":81644:81688  _grantRole(DEFAULT_ADMIN_ROLE, defaultAdmin) */\n  jump\t// in\ntag_12:\n  pop\n    /* \"contracts/DepositTokenization_flattened.sol\":81698:81729  _grantRole(PAUSER_ROLE, pauser) */\n  tag_14\n    /* \"contracts/DepositTokenization_flattened.sol\":81138:81162  keccak256(\"PAUSER_ROLE\") */\n  0x65d7a28e3265b37a6474929f336521b332c1681b933f6cb9f3376673440d862a\n    /* \"contracts/DepositTokenization_flattened.sol\":81722:81728  pauser */\n  dup6\n    /* \"contracts/DepositTokenization_flattened.sol\":81698:81708  _grantRole */\n  tag_13\n    /* \"contracts/DepositTokenization_flattened.sol\":81698:81729  _grantRole(PAUSER_ROLE, pauser) */\n  jump\t// in\ntag_14:\n  pop\n    /* \"contracts/DepositTokenization_flattened.sol\":81739:81770  _grantRole(MINTER_ROLE, minter) */\n  tag_15\n    /* \"contracts/DepositTokenization_flattened.sol\":81206:81230  keccak256(\"MINTER_ROLE\") */\n  0x9f2df0fed2c77648de5860a4cc508cd0818c85b8b8a1ab4ceeef8d981c8956a6\n    /* \"contracts/DepositTokenization_flattened.sol\":81763:81769  minter */\n  dup5\n    /* \"contracts/DepositTokenization_flattened.sol\":81739:81749  _grantRole */\n  tag_13\n    /* \"contracts/DepositTokenization_flattened.sol\":81739:81770  _grantRole(MINTER_ROLE, minter) */\n  jump\t// in\ntag_15:\n  pop\n    /* \"contracts/DepositTokenization_flattened.sol\":81780:81804  iTokenizationRoleManager */\n  0x07\n    /* \"contracts/DepositTokenization_flattened.sol\":81780:81832  iTokenizationRoleManager = _iTokenizationRoleManager */\n  dup1\n  sload\n  sub(shl(0xa0, 0x01), 0x01)\n  dup5\n  dup2\n  and\n  not(sub(shl(0xa0, 0x01), 0x01))\n  swap3\n  dup4\n  and\n  dup2\n  or\n  swap1\n  swap4\n  sstore\n    /* \"contracts/DepositTokenization_flattened.sol\":81842:81858  iMultiSigFactory */\n  0x09\n    /* \"contracts/DepositTokenization_flattened.sol\":81842:81878  iMultiSigFactory = _iMultiSigFactory */\n  dup1\n  sload\n  swap2\n  dup6\n  and\n  swap2\n  swap1\n  swap3\n  and\n  dup2\n  or\n  swap1\n  swap2\n  sstore\n    /* \"contracts/DepositTokenization_flattened.sol\":81893:81962  DepositTokenizationSetUp(iTokenizationRoleManager, _iMultiSigFactory) */\n  0x40\n  dup1\n  mload\n    /* \"#utility.yul\":1234:1285   */\n  swap3\n  dup4\n  mstore\n    /* \"#utility.yul\":1316:1318   */\n  0x20\n    /* \"#utility.yul\":1301:1319   */\n  dup4\n  add\n    /* \"#utility.yul\":1294:1354   */\n  swap2\n  swap1\n  swap2\n  mstore\n    /* \"contracts/DepositTokenization_flattened.sol\":81893:81962  DepositTokenizationSetUp(iTokenizationRoleManager, _iMultiSigFactory) */\n  0xb0cbb6b4a2e03cca1ffb783243c49b48c226651fac7649f1e3f66cc8f0796210\n  swap2\n    /* \"#utility.yul\":1207:1225   */\n  add\n    /* \"contracts/DepositTokenization_flattened.sol\":81893:81962  DepositTokenizationSetUp(iTokenizationRoleManager, _iMultiSigFactory) */\n  mload(0x40)\n  dup1\n  swap2\n  sub\n  swap1\n  log1\n    /* \"contracts/DepositTokenization_flattened.sol\":81468:81969  constructor(address defaultAdmin, address pauser, address minter, ITokenizationRoleManager _iTokenizationRoleManager, IMultiSigFactory _iMultiSigFactory) ERC1155(\"\") {... */\n  pop\n  pop\n  pop\n  pop\n  pop\n    /* \"contracts/DepositTokenization_flattened.sol\":80914:83129  contract DepositTokenization is ERC1155, AccessControl, ERC1155Pausable, ERC1155Burnable, ERC1155Supply {... */\n  jump(tag_37)\n    /* \"contracts/DepositTokenization_flattened.sol\":51134:51220  function _setURI(string memory newuri) internal virtual {... */\ntag_9:\n    /* \"contracts/DepositTokenization_flattened.sol\":51200:51204  _uri */\n  0x02\n    /* \"contracts/DepositTokenization_flattened.sol\":51200:51213  _uri = newuri */\n  tag_20\n    /* \"contracts/DepositTokenization_flattened.sol\":51207:51213  newuri */\n  dup3\n    /* \"contracts/DepositTokenization_flattened.sol\":51200:51204  _uri */\n  dup3\n    /* \"contracts/DepositTokenization_flattened.sol\":51200:51213  _uri = newuri */\n  tag_21\n  jump\t// in\ntag_20:\n  pop\n    /* \"contracts/DepositTokenization_flattened.sol\":51134:51220  function _setURI(string memory newuri) internal virtual {... */\n  pop\n  jump\t// out\n    /* \"contracts/DepositTokenization_flattened.sol\":67126:67442  function _grantRole(bytes32 role, address account) internal virtual returns (bool) {... */\ntag_13:\n    /* \"contracts/DepositTokenization_flattened.sol\":67203:67207  bool */\n  0x00\n    /* \"contracts/DepositTokenization_flattened.sol\":63901:63913  _roles[role] */\n  dup3\n  dup2\n  mstore\n    /* \"contracts/DepositTokenization_flattened.sol\":63901:63907  _roles */\n  0x03\n    /* \"contracts/DepositTokenization_flattened.sol\":63901:63913  _roles[role] */\n  0x20\n  swap1\n  dup2\n  mstore\n  0x40\n  dup1\n  dup4\n  keccak256\n  sub(shl(0xa0, 0x01), 0x01)\n    /* \"contracts/DepositTokenization_flattened.sol\":63901:63930  _roles[role].hasRole[account] */\n  dup6\n  and\n  dup5\n  mstore\n  swap1\n  swap2\n  mstore\n  dup2\n  keccak256\n  sload\n  0xff\n  and\n    /* \"contracts/DepositTokenization_flattened.sol\":67219:67436  if (!hasRole(role, account)) {... */\n  tag_25\n  jumpi\n    /* \"contracts/DepositTokenization_flattened.sol\":67262:67274  _roles[role] */\n  0x00\n  dup4\n  dup2\n  mstore\n    /* \"contracts/DepositTokenization_flattened.sol\":67262:67268  _roles */\n  0x03\n    /* \"contracts/DepositTokenization_flattened.sol\":67262:67274  _roles[role] */\n  0x20\n  swap1\n  dup2\n  mstore\n  0x40\n  dup1\n  dup4\n  keccak256\n  sub(shl(0xa0, 0x01), 0x01)\n    /* \"contracts/DepositTokenization_flattened.sol\":67262:67291  _roles[role].hasRole[account] */\n  dup7\n  and\n  dup5\n  mstore\n  swap1\n  swap2\n  mstore\n  swap1\n  keccak256\n    /* \"contracts/DepositTokenization_flattened.sol\":67262:67298  _roles[role].hasRole[account] = true */\n  dup1\n  sload\n  not(0xff)\n  and\n    /* \"contracts/DepositTokenization_flattened.sol\":67294:67298  true */\n  0x01\n    /* \"contracts/DepositTokenization_flattened.sol\":67262:67298  _roles[role].hasRole[account] = true */\n  or\n  swap1\n  sstore\n    /* \"contracts/DepositTokenization_flattened.sol\":67344:67356  _msgSender() */\n  tag_26\n    /* \"contracts/DepositTokenization_flattened.sol\":9682:9692  msg.sender */\n  caller\n  swap1\n    /* \"contracts/DepositTokenization_flattened.sol\":9603:9699  function _msgSender() internal view virtual returns (address) {... */\n  jump\n    /* \"contracts/DepositTokenization_flattened.sol\":67344:67356  _msgSender() */\ntag_26:\n  sub(shl(0xa0, 0x01), 0x01)\n    /* \"contracts/DepositTokenization_flattened.sol\":67317:67357  RoleGranted(role, account, _msgSender()) */\n  and\n    /* \"contracts/DepositTokenization_flattened.sol\":67335:67342  account */\n  dup3\n  sub(shl(0xa0, 0x01), 0x01)\n    /* \"contracts/DepositTokenization_flattened.sol\":67317:67357  RoleGranted(role, account, _msgSender()) */\n  and\n    /* \"contracts/DepositTokenization_flattened.sol\":67329:67333  role */\n  dup5\n    /* \"contracts/DepositTokenization_flattened.sol\":67317:67357  RoleGranted(role, account, _msgSender()) */\n  0x2f8788117e7eff1d82e926ec794901d17c78024a50270940304540a733656f0d\n  mload(0x40)\n  mload(0x40)\n  dup1\n  swap2\n  sub\n  swap1\n  log4\n  pop\n    /* \"contracts/DepositTokenization_flattened.sol\":67378:67382  true */\n  0x01\n    /* \"contracts/DepositTokenization_flattened.sol\":67371:67382  return true */\n  jump(tag_28)\n    /* \"contracts/DepositTokenization_flattened.sol\":67219:67436  if (!hasRole(role, account)) {... */\ntag_25:\n  pop\n    /* \"contracts/DepositTokenization_flattened.sol\":67420:67425  false */\n  0x00\n    /* \"contracts/DepositTokenization_flattened.sol\":67219:67436  if (!hasRole(role, account)) {... */\ntag_28:\n    /* \"contracts/DepositTokenization_flattened.sol\":67126:67442  function _grantRole(bytes32 role, address account) internal virtual returns (bool) {... */\n  swap3\n  swap2\n  pop\n  pop\n  jump\t// out\n    /* \"#utility.yul\":14:145   */\ntag_31:\n  sub(shl(0xa0, 0x01), 0x01)\n    /* \"#utility.yul\":89:120   */\n  dup2\n  and\n    /* \"#utility.yul\":79:121   */\n  dup2\n  eq\n    /* \"#utility.yul\":69:139   */\n  tag_39\n  jumpi\n    /* \"#utility.yul\":135:136   */\n  0x00\n    /* \"#utility.yul\":132:133   */\n  dup1\n    /* \"#utility.yul\":125:137   */\n  revert\n    /* \"#utility.yul\":69:139   */\ntag_39:\n    /* \"#utility.yul\":14:145   */\n  pop\n  jump\t// out\n    /* \"#utility.yul\":150:997   */\ntag_3:\n    /* \"#utility.yul\":314:320   */\n  0x00\n    /* \"#utility.yul\":322:328   */\n  dup1\n    /* \"#utility.yul\":330:336   */\n  0x00\n    /* \"#utility.yul\":338:344   */\n  dup1\n    /* \"#utility.yul\":346:352   */\n  0x00\n    /* \"#utility.yul\":399:402   */\n  0xa0\n    /* \"#utility.yul\":387:396   */\n  dup7\n    /* \"#utility.yul\":378:385   */\n  dup9\n    /* \"#utility.yul\":374:397   */\n  sub\n    /* \"#utility.yul\":370:403   */\n  slt\n    /* \"#utility.yul\":367:420   */\n  iszero\n  tag_41\n  jumpi\n    /* \"#utility.yul\":416:417   */\n  0x00\n    /* \"#utility.yul\":413:414   */\n  dup1\n    /* \"#utility.yul\":406:418   */\n  revert\n    /* \"#utility.yul\":367:420   */\ntag_41:\n    /* \"#utility.yul\":448:457   */\n  dup6\n    /* \"#utility.yul\":442:458   */\n  mload\n    /* \"#utility.yul\":467:498   */\n  tag_42\n    /* \"#utility.yul\":492:497   */\n  dup2\n    /* \"#utility.yul\":467:498   */\n  tag_31\n  jump\t// in\ntag_42:\n    /* \"#utility.yul\":567:569   */\n  0x20\n    /* \"#utility.yul\":552:570   */\n  dup8\n  add\n    /* \"#utility.yul\":546:571   */\n  mload\n    /* \"#utility.yul\":517:522   */\n  swap1\n  swap6\n  pop\n    /* \"#utility.yul\":580:613   */\n  tag_43\n    /* \"#utility.yul\":546:571   */\n  dup2\n    /* \"#utility.yul\":580:613   */\n  tag_31\n  jump\t// in\ntag_43:\n    /* \"#utility.yul\":684:686   */\n  0x40\n    /* \"#utility.yul\":669:687   */\n  dup8\n  add\n    /* \"#utility.yul\":663:688   */\n  mload\n    /* \"#utility.yul\":632:639   */\n  swap1\n  swap5\n  pop\n    /* \"#utility.yul\":697:730   */\n  tag_44\n    /* \"#utility.yul\":663:688   */\n  dup2\n    /* \"#utility.yul\":697:730   */\n  tag_31\n  jump\t// in\ntag_44:\n    /* \"#utility.yul\":801:803   */\n  0x60\n    /* \"#utility.yul\":786:804   */\n  dup8\n  add\n    /* \"#utility.yul\":780:805   */\n  mload\n    /* \"#utility.yul\":749:756   */\n  swap1\n  swap4\n  pop\n    /* \"#utility.yul\":814:847   */\n  tag_45\n    /* \"#utility.yul\":780:805   */\n  dup2\n    /* \"#utility.yul\":814:847   */\n  tag_31\n  jump\t// in\ntag_45:\n    /* \"#utility.yul\":918:921   */\n  0x80\n    /* \"#utility.yul\":903:922   */\n  dup8\n  add\n    /* \"#utility.yul\":897:923   */\n  mload\n    /* \"#utility.yul\":866:873   */\n  swap1\n  swap3\n  pop\n    /* \"#utility.yul\":932:965   */\n  tag_46\n    /* \"#utility.yul\":897:923   */\n  dup2\n    /* \"#utility.yul\":932:965   */\n  tag_31\n  jump\t// in\ntag_46:\n    /* \"#utility.yul\":984:991   */\n  dup1\n    /* \"#utility.yul\":974:991   */\n  swap2\n  pop\n  pop\n    /* \"#utility.yul\":150:997   */\n  swap3\n  swap6\n  pop\n  swap3\n  swap6\n  swap1\n  swap4\n  pop\n  jump\t// out\n    /* \"#utility.yul\":1365:1492   */\ntag_32:\n    /* \"#utility.yul\":1426:1436   */\n  0x4e487b71\n    /* \"#utility.yul\":1421:1424   */\n  0xe0\n    /* \"#utility.yul\":1417:1437   */\n  shl\n    /* \"#utility.yul\":1414:1415   */\n  0x00\n    /* \"#utility.yul\":1407:1438   */\n  mstore\n    /* \"#utility.yul\":1457:1461   */\n  0x41\n    /* \"#utility.yul\":1454:1455   */\n  0x04\n    /* \"#utility.yul\":1447:1462   */\n  mstore\n    /* \"#utility.yul\":1481:1485   */\n  0x24\n    /* \"#utility.yul\":1478:1479   */\n  0x00\n    /* \"#utility.yul\":1471:1486   */\n  revert\n    /* \"#utility.yul\":1497:1877   */\ntag_33:\n    /* \"#utility.yul\":1576:1577   */\n  0x01\n    /* \"#utility.yul\":1572:1584   */\n  dup2\n  dup2\n  shr\n  swap1\n    /* \"#utility.yul\":1619:1631   */\n  dup3\n  and\n  dup1\n    /* \"#utility.yul\":1640:1701   */\n  tag_50\n  jumpi\n    /* \"#utility.yul\":1694:1698   */\n  0x7f\n    /* \"#utility.yul\":1686:1692   */\n  dup3\n    /* \"#utility.yul\":1682:1699   */\n  and\n    /* \"#utility.yul\":1672:1699   */\n  swap2\n  pop\n    /* \"#utility.yul\":1640:1701   */\ntag_50:\n    /* \"#utility.yul\":1747:1749   */\n  0x20\n    /* \"#utility.yul\":1739:1745   */\n  dup3\n    /* \"#utility.yul\":1736:1750   */\n  lt\n    /* \"#utility.yul\":1716:1734   */\n  dup2\n    /* \"#utility.yul\":1713:1751   */\n  sub\n    /* \"#utility.yul\":1710:1871   */\n  tag_51\n  jumpi\n    /* \"#utility.yul\":1793:1803   */\n  0x4e487b71\n    /* \"#utility.yul\":1788:1791   */\n  0xe0\n    /* \"#utility.yul\":1784:1804   */\n  shl\n    /* \"#utility.yul\":1781:1782   */\n  0x00\n    /* \"#utility.yul\":1774:1805   */\n  mstore\n    /* \"#utility.yul\":1828:1832   */\n  0x22\n    /* \"#utility.yul\":1825:1826   */\n  0x04\n    /* \"#utility.yul\":1818:1833   */\n  mstore\n    /* \"#utility.yul\":1856:1860   */\n  0x24\n    /* \"#utility.yul\":1853:1854   */\n  0x00\n    /* \"#utility.yul\":1846:1861   */\n  revert\n    /* \"#utility.yul\":1710:1871   */\ntag_51:\n  pop\n    /* \"#utility.yul\":1497:1877   */\n  swap2\n  swap1\n  pop\n  jump\t// out\n    /* \"#utility.yul\":2008:2526   */\ntag_35:\n    /* \"#utility.yul\":2110:2112   */\n  0x1f\n    /* \"#utility.yul\":2105:2108   */\n  dup3\n    /* \"#utility.yul\":2102:2113   */\n  gt\n    /* \"#utility.yul\":2099:2520   */\n  iszero\n  tag_54\n  jumpi\n    /* \"#utility.yul\":2146:2151   */\n  dup1\n    /* \"#utility.yul\":2143:2144   */\n  0x00\n    /* \"#utility.yul\":2136:2152   */\n  mstore\n    /* \"#utility.yul\":2190:2194   */\n  0x20\n    /* \"#utility.yul\":2187:2188   */\n  0x00\n    /* \"#utility.yul\":2177:2195   */\n  keccak256\n    /* \"#utility.yul\":2260:2262   */\n  0x1f\n    /* \"#utility.yul\":2248:2258   */\n  dup5\n    /* \"#utility.yul\":2244:2263   */\n  add\n    /* \"#utility.yul\":2241:2242   */\n  0x05\n    /* \"#utility.yul\":2237:2264   */\n  shr\n    /* \"#utility.yul\":2231:2235   */\n  dup2\n    /* \"#utility.yul\":2227:2265   */\n  add\n    /* \"#utility.yul\":2296:2300   */\n  0x20\n    /* \"#utility.yul\":2284:2294   */\n  dup6\n    /* \"#utility.yul\":2281:2301   */\n  lt\n    /* \"#utility.yul\":2278:2325   */\n  iszero\n  tag_55\n  jumpi\n  pop\n    /* \"#utility.yul\":2319:2323   */\n  dup1\n    /* \"#utility.yul\":2278:2325   */\ntag_55:\n    /* \"#utility.yul\":2374:2376   */\n  0x1f\n    /* \"#utility.yul\":2369:2372   */\n  dup5\n    /* \"#utility.yul\":2365:2377   */\n  add\n    /* \"#utility.yul\":2362:2363   */\n  0x05\n    /* \"#utility.yul\":2358:2378   */\n  shr\n    /* \"#utility.yul\":2352:2356   */\n  dup3\n    /* \"#utility.yul\":2348:2379   */\n  add\n    /* \"#utility.yul\":2338:2379   */\n  swap2\n  pop\n    /* \"#utility.yul\":2429:2510   */\ntag_56:\n    /* \"#utility.yul\":2447:2449   */\n  dup2\n    /* \"#utility.yul\":2440:2445   */\n  dup2\n    /* \"#utility.yul\":2437:2450   */\n  lt\n    /* \"#utility.yul\":2429:2510   */\n  iszero\n  tag_58\n  jumpi\n    /* \"#utility.yul\":2506:2507   */\n  0x00\n    /* \"#utility.yul\":2492:2508   */\n  dup2\n  sstore\n    /* \"#utility.yul\":2473:2474   */\n  0x01\n    /* \"#utility.yul\":2462:2475   */\n  add\n    /* \"#utility.yul\":2429:2510   */\n  jump(tag_56)\ntag_58:\n    /* \"#utility.yul\":2433:2436   */\n  pop\n  pop\n    /* \"#utility.yul\":2099:2520   */\ntag_54:\n    /* \"#utility.yul\":2008:2526   */\n  pop\n  pop\n  pop\n  jump\t// out\n    /* \"#utility.yul\":2702:4001   */\ntag_21:\n    /* \"#utility.yul\":2822:2832   */\n  dup2\n  mload\n  sub(shl(0x40, 0x01), 0x01)\n    /* \"#utility.yul\":2844:2874   */\n  dup2\n  gt\n    /* \"#utility.yul\":2841:2897   */\n  iszero\n  tag_62\n  jumpi\n    /* \"#utility.yul\":2877:2895   */\n  tag_62\n  tag_32\n  jump\t// in\ntag_62:\n    /* \"#utility.yul\":2906:3003   */\n  tag_63\n    /* \"#utility.yul\":2996:3002   */\n  dup2\n    /* \"#utility.yul\":2956:2994   */\n  tag_64\n    /* \"#utility.yul\":2988:2992   */\n  dup5\n    /* \"#utility.yul\":2982:2993   */\n  sload\n    /* \"#utility.yul\":2956:2994   */\n  tag_33\n  jump\t// in\ntag_64:\n    /* \"#utility.yul\":2950:2954   */\n  dup5\n    /* \"#utility.yul\":2906:3003   */\n  tag_35\n  jump\t// in\ntag_63:\n    /* \"#utility.yul\":3052:3056   */\n  0x20\n    /* \"#utility.yul\":3083:3085   */\n  0x1f\n    /* \"#utility.yul\":3072:3086   */\n  dup3\n  gt\n    /* \"#utility.yul\":3100:3101   */\n  0x01\n    /* \"#utility.yul\":3095:3744   */\n  dup2\n  eq\n  tag_66\n  jumpi\n    /* \"#utility.yul\":3788:3789   */\n  0x00\n    /* \"#utility.yul\":3805:3811   */\n  dup4\n    /* \"#utility.yul\":3802:3891   */\n  iszero\n  tag_67\n  jumpi\n  pop\n    /* \"#utility.yul\":3857:3876   */\n  dup5\n  dup3\n  add\n    /* \"#utility.yul\":3851:3877   */\n  mload\n    /* \"#utility.yul\":3802:3891   */\ntag_67:\n  not(0x00)\n    /* \"#utility.yul\":2659:2660   */\n  0x03\n    /* \"#utility.yul\":2655:2666   */\n  dup6\n  swap1\n  shl\n    /* \"#utility.yul\":2651:2675   */\n  shr\n    /* \"#utility.yul\":2647:2676   */\n  not\n    /* \"#utility.yul\":2637:2677   */\n  and\n    /* \"#utility.yul\":2683:2684   */\n  0x01\n    /* \"#utility.yul\":2679:2690   */\n  dup5\n  swap1\n  shl\n    /* \"#utility.yul\":2634:2691   */\n  or\n    /* \"#utility.yul\":3904:3985   */\n  dup5\n  sstore\n    /* \"#utility.yul\":3065:3995   */\n  jump(tag_58)\n    /* \"#utility.yul\":3095:3744   */\ntag_66:\n    /* \"#utility.yul\":1955:1956   */\n  0x00\n    /* \"#utility.yul\":1948:1962   */\n  dup5\n  dup2\n  mstore\n    /* \"#utility.yul\":1992:1996   */\n  0x20\n    /* \"#utility.yul\":1979:1997   */\n  dup2\n  keccak256\n  not(0x1f)\n    /* \"#utility.yul\":3131:3151   */\n  dup6\n  and\n  swap2\n    /* \"#utility.yul\":3249:3471   */\ntag_70:\n    /* \"#utility.yul\":3263:3270   */\n  dup3\n    /* \"#utility.yul\":3260:3261   */\n  dup2\n    /* \"#utility.yul\":3257:3271   */\n  lt\n    /* \"#utility.yul\":3249:3471   */\n  iszero\n  tag_72\n  jumpi\n    /* \"#utility.yul\":3345:3364   */\n  dup8\n  dup6\n  add\n    /* \"#utility.yul\":3339:3365   */\n  mload\n    /* \"#utility.yul\":3324:3366   */\n  dup3\n  sstore\n    /* \"#utility.yul\":3452:3456   */\n  0x20\n    /* \"#utility.yul\":3437:3457   */\n  swap5\n  dup6\n  add\n  swap5\n    /* \"#utility.yul\":3405:3406   */\n  0x01\n    /* \"#utility.yul\":3393:3407   */\n  swap1\n  swap3\n  add\n  swap2\n    /* \"#utility.yul\":3279:3291   */\n  add\n    /* \"#utility.yul\":3249:3471   */\n  jump(tag_70)\ntag_72:\n    /* \"#utility.yul\":3253:3256   */\n  pop\n    /* \"#utility.yul\":3499:3505   */\n  dup5\n    /* \"#utility.yul\":3490:3497   */\n  dup3\n    /* \"#utility.yul\":3487:3506   */\n  lt\n    /* \"#utility.yul\":3484:3685   */\n  iszero\n  tag_73\n  jumpi\n    /* \"#utility.yul\":3560:3579   */\n  dup7\n  dup5\n  add\n    /* \"#utility.yul\":3554:3580   */\n  mload\n  not(0x00)\n    /* \"#utility.yul\":3643:3644   */\n  0x03\n    /* \"#utility.yul\":3639:3653   */\n  dup8\n  swap1\n  shl\n    /* \"#utility.yul\":3655:3658   */\n  0xf8\n    /* \"#utility.yul\":3635:3659   */\n  and\n    /* \"#utility.yul\":3631:3668   */\n  shr\n    /* \"#utility.yul\":3627:3669   */\n  not\n    /* \"#utility.yul\":3612:3670   */\n  and\n    /* \"#utility.yul\":3597:3671   */\n  dup2\n  sstore\n    /* \"#utility.yul\":3484:3685   */\ntag_73:\n  pop\n  pop\n  pop\n  pop\n    /* \"#utility.yul\":3731:3732   */\n  0x01\n    /* \"#utility.yul\":3715:3729   */\n  swap1\n  dup2\n  shl\n    /* \"#utility.yul\":3711:3733   */\n  add\n    /* \"#utility.yul\":3698:3734   */\n  swap1\n  sstore\n  pop\n    /* \"#utility.yul\":2702:4001   */\n  jump\t// out\ntag_37:\n    /* \"contracts/DepositTokenization_flattened.sol\":80914:83129  contract DepositTokenization is ERC1155, AccessControl, ERC1155Pausable, ERC1155Burnable, ERC1155Supply {... */\n  dataSize(sub_0)\n  dup1\n  dataOffset(sub_0)\n  0x00\n  codecopy\n  0x00\n  return\nstop\n\nsub_0: assembly {\n        /* \"contracts/DepositTokenization_flattened.sol\":80914:83129  contract DepositTokenization is ERC1155, AccessControl, ERC1155Pausable, ERC1155Burnable, ERC1155Supply {... */\n      mstore(0x40, 0x80)\n      callvalue\n      dup1\n      iszero\n      tag_1\n      jumpi\n      0x00\n      dup1\n      revert\n    tag_1:\n      pop\n      jumpi(tag_2, lt(calldatasize, 0x04))\n      shr(0xe0, calldataload(0x00))\n      dup1\n      0x4f558e79\n      gt\n      tag_34\n      jumpi\n      dup1\n      0xa22cb465\n      gt\n      tag_35\n      jumpi\n      dup1\n      0xe63ab1e9\n      gt\n      tag_36\n      jumpi\n      dup1\n      0xe63ab1e9\n      eq\n      tag_30\n      jumpi\n      dup1\n      0xe985e9c5\n      eq\n      tag_31\n      jumpi\n      dup1\n      0xf242432a\n      eq\n      tag_32\n      jumpi\n      dup1\n      0xf5298aca\n      eq\n      tag_33\n      jumpi\n      0x00\n      dup1\n      revert\n    tag_36:\n      dup1\n      0xa22cb465\n      eq\n      tag_26\n      jumpi\n      dup1\n      0xbd85b039\n      eq\n      tag_27\n      jumpi\n      dup1\n      0xd5391393\n      eq\n      tag_28\n      jumpi\n      dup1\n      0xd547741f\n      eq\n      tag_29\n      jumpi\n      0x00\n      dup1\n      revert\n    tag_35:\n      dup1\n      0x7f345710\n      gt\n      tag_37\n      jumpi\n      dup1\n      0x7f345710\n      eq\n      tag_22\n      jumpi\n      dup1\n      0x8456cb59\n      eq\n      tag_23\n      jumpi\n      dup1\n      0x91d14854\n      eq\n      tag_24\n      jumpi\n      dup1\n      0xa217fddf\n      eq\n      tag_25\n      jumpi\n      0x00\n      dup1\n      revert\n    tag_37:\n      dup1\n      0x4f558e79\n      eq\n      tag_18\n      jumpi\n      dup1\n      0x5c975abb\n      eq\n      tag_19\n      jumpi\n      dup1\n      0x6b20c454\n      eq\n      tag_20\n      jumpi\n      dup1\n      0x731133e9\n      eq\n      tag_21\n      jumpi\n      0x00\n      dup1\n      revert\n    tag_34:\n      dup1\n      0x1f7fdffa\n      gt\n      tag_38\n      jumpi\n      dup1\n      0x2f2ff15d\n      gt\n      tag_39\n      jumpi\n      dup1\n      0x2f2ff15d\n      eq\n      tag_14\n      jumpi\n      dup1\n      0x36568abe\n      eq\n      tag_15\n      jumpi\n      dup1\n      0x3f4ba83a\n      eq\n      tag_16\n      jumpi\n      dup1\n      0x4e1273f4\n      eq\n      tag_17\n      jumpi\n      0x00\n      dup1\n      revert\n    tag_39:\n      dup1\n      0x1f7fdffa\n      eq\n      tag_10\n      jumpi\n      dup1\n      0x248a9ca3\n      eq\n      tag_11\n      jumpi\n      dup1\n      0x28484a31\n      eq\n      tag_12\n      jumpi\n      dup1\n      0x2eb2c2d6\n      eq\n      tag_13\n      jumpi\n      0x00\n      dup1\n      revert\n    tag_38:\n      dup1\n      0x0e89341c\n      gt\n      tag_40\n      jumpi\n      dup1\n      0x0e89341c\n      eq\n      tag_6\n      jumpi\n      dup1\n      0x12da2b73\n      eq\n      tag_7\n      jumpi\n      dup1\n      0x17e0f0a5\n      eq\n      tag_8\n      jumpi\n      dup1\n      0x18160ddd\n      eq\n      tag_9\n      jumpi\n      0x00\n      dup1\n      revert\n    tag_40:\n      dup1\n      0xfdd58e\n      eq\n      tag_3\n      jumpi\n      dup1\n      0x01ffc9a7\n      eq\n      tag_4\n      jumpi\n      dup1\n      0x02fe5305\n      eq\n      tag_5\n      jumpi\n    tag_2:\n      0x00\n      dup1\n      revert\n        /* \"contracts/DepositTokenization_flattened.sol\":43099:43231  function balanceOf(address account, uint256 id) public view virtual returns (uint256) {... */\n    tag_3:\n      tag_41\n      tag_42\n      calldatasize\n      0x04\n      tag_43\n      jump\t// in\n    tag_42:\n      tag_44\n      jump\t// in\n    tag_41:\n      mload(0x40)\n        /* \"#utility.yul\":643:668   */\n      swap1\n      dup2\n      mstore\n        /* \"#utility.yul\":631:633   */\n      0x20\n        /* \"#utility.yul\":616:634   */\n      add\n        /* \"contracts/DepositTokenization_flattened.sol\":43099:43231  function balanceOf(address account, uint256 id) public view virtual returns (uint256) {... */\n    tag_45:\n      mload(0x40)\n      dup1\n      swap2\n      sub\n      swap1\n      return\n        /* \"contracts/DepositTokenization_flattened.sol\":82924:83127  function supportsInterface(bytes4 interfaceId)... */\n    tag_4:\n      tag_47\n      tag_48\n      calldatasize\n      0x04\n      tag_49\n      jump\t// in\n    tag_48:\n      tag_50\n      jump\t// in\n    tag_47:\n      mload(0x40)\n        /* \"#utility.yul\":1230:1244   */\n      swap1\n      iszero\n        /* \"#utility.yul\":1223:1245   */\n      iszero\n        /* \"#utility.yul\":1205:1246   */\n      dup2\n      mstore\n        /* \"#utility.yul\":1193:1195   */\n      0x20\n        /* \"#utility.yul\":1178:1196   */\n      add\n        /* \"contracts/DepositTokenization_flattened.sol\":82924:83127  function supportsInterface(bytes4 interfaceId)... */\n      tag_45\n        /* \"#utility.yul\":1065:1252   */\n      jump\n        /* \"contracts/DepositTokenization_flattened.sol\":81975:82078  function setURI(string memory newuri) public onlyRole(URI_SETTER_ROLE) {... */\n    tag_5:\n      tag_53\n      tag_54\n      calldatasize\n      0x04\n      tag_55\n      jump\t// in\n    tag_54:\n      tag_56\n      jump\t// in\n    tag_53:\n      stop\n        /* \"contracts/DepositTokenization_flattened.sol\":42936:43039  function uri(uint256 /* id */) public view virtual returns (string memory) {... */\n    tag_6:\n      tag_57\n      tag_58\n      calldatasize\n      0x04\n      tag_59\n      jump\t// in\n    tag_58:\n      tag_60\n      jump\t// in\n    tag_57:\n      mload(0x40)\n      tag_45\n      swap2\n      swap1\n      tag_62\n      jump\t// in\n        /* \"contracts/DepositTokenization_flattened.sol\":81342:81382  IMultiSigFactory public iMultiSigFactory */\n    tag_7:\n      sload(0x09)\n      tag_63\n      swap1\n      sub(shl(0xa0, 0x01), 0x01)\n      and\n      dup2\n      jump\n    tag_63:\n      mload(0x40)\n      sub(shl(0xa0, 0x01), 0x01)\n        /* \"#utility.yul\":3519:3551   */\n      swap1\n      swap2\n      and\n        /* \"#utility.yul\":3501:3552   */\n      dup2\n      mstore\n        /* \"#utility.yul\":3489:3491   */\n      0x20\n        /* \"#utility.yul\":3474:3492   */\n      add\n        /* \"contracts/DepositTokenization_flattened.sol\":81342:81382  IMultiSigFactory public iMultiSigFactory */\n      tag_45\n        /* \"#utility.yul\":3330:3558   */\n      jump\n        /* \"contracts/DepositTokenization_flattened.sol\":81236:81292  ITokenizationRoleManager public iTokenizationRoleManager */\n    tag_8:\n      sload(0x07)\n      tag_63\n      swap1\n      sub(shl(0xa0, 0x01), 0x01)\n      and\n      dup2\n      jump\n        /* \"contracts/DepositTokenization_flattened.sol\":74252:74352  function totalSupply() public view virtual returns (uint256) {... */\n    tag_9:\n        /* \"contracts/DepositTokenization_flattened.sol\":74330:74345  _totalSupplyAll */\n      sload(0x06)\n        /* \"contracts/DepositTokenization_flattened.sol\":74252:74352  function totalSupply() public view virtual returns (uint256) {... */\n      jump(tag_41)\n        /* \"contracts/DepositTokenization_flattened.sol\":82424:82622  function mintBatch(address to, uint256[] memory ids, uint256[] memory amounts, bytes memory data)... */\n    tag_10:\n      tag_53\n      tag_75\n      calldatasize\n      0x04\n      tag_76\n      jump\t// in\n    tag_75:\n      tag_77\n      jump\t// in\n        /* \"contracts/DepositTokenization_flattened.sol\":64757:64877  function getRoleAdmin(bytes32 role) public view virtual returns (bytes32) {... */\n    tag_11:\n      tag_41\n      tag_79\n      calldatasize\n      0x04\n      tag_59\n      jump\t// in\n    tag_79:\n        /* \"contracts/DepositTokenization_flattened.sol\":64822:64829  bytes32 */\n      0x00\n        /* \"contracts/DepositTokenization_flattened.sol\":64848:64860  _roles[role] */\n      swap1\n      dup2\n      mstore\n        /* \"contracts/DepositTokenization_flattened.sol\":64848:64854  _roles */\n      0x03\n        /* \"contracts/DepositTokenization_flattened.sol\":64848:64860  _roles[role] */\n      0x20\n      mstore\n      0x40\n      swap1\n      keccak256\n        /* \"contracts/DepositTokenization_flattened.sol\":64848:64870  _roles[role].adminRole */\n      0x01\n      add\n      sload\n      swap1\n        /* \"contracts/DepositTokenization_flattened.sol\":64757:64877  function getRoleAdmin(bytes32 role) public view virtual returns (bytes32) {... */\n      jump\n        /* \"contracts/DepositTokenization_flattened.sol\":81298:81336  IMultiSigWallet public iMultiSigWallet */\n    tag_12:\n      sload(0x08)\n      tag_63\n      swap1\n      sub(shl(0xa0, 0x01), 0x01)\n      and\n      dup2\n      jump\n        /* \"contracts/DepositTokenization_flattened.sol\":44866:45295  function safeBatchTransferFrom(... */\n    tag_13:\n      tag_53\n      tag_89\n      calldatasize\n      0x04\n      tag_90\n      jump\t// in\n    tag_89:\n      tag_91\n      jump\t// in\n        /* \"contracts/DepositTokenization_flattened.sol\":65173:65309  function grantRole(bytes32 role, address account) public virtual onlyRole(getRoleAdmin(role)) {... */\n    tag_14:\n      tag_53\n      tag_93\n      calldatasize\n      0x04\n      tag_94\n      jump\t// in\n    tag_93:\n      tag_95\n      jump\t// in\n        /* \"contracts/DepositTokenization_flattened.sol\":66275:66520  function renounceRole(bytes32 role, address callerConfirmation) public virtual {... */\n    tag_15:\n      tag_53\n      tag_97\n      calldatasize\n      0x04\n      tag_94\n      jump\t// in\n    tag_97:\n      tag_98\n      jump\t// in\n        /* \"contracts/DepositTokenization_flattened.sol\":82161:82236  function unpause() public onlyRole(PAUSER_ROLE) {... */\n    tag_16:\n      tag_53\n      tag_100\n      jump\t// in\n        /* \"contracts/DepositTokenization_flattened.sol\":43388:43940  function balanceOfBatch(... */\n    tag_17:\n      tag_101\n      tag_102\n      calldatasize\n      0x04\n      tag_103\n      jump\t// in\n    tag_102:\n      tag_104\n      jump\t// in\n    tag_101:\n      mload(0x40)\n      tag_45\n      swap2\n      swap1\n      tag_106\n      jump\t// in\n        /* \"contracts/DepositTokenization_flattened.sol\":74445:74551  function exists(uint256 id) public view virtual returns (bool) {... */\n    tag_18:\n      tag_47\n      tag_108\n      calldatasize\n      0x04\n      tag_59\n      jump\t// in\n    tag_108:\n        /* \"contracts/DepositTokenization_flattened.sol\":74502:74506  bool */\n      0x00\n        /* \"contracts/DepositTokenization_flattened.sol\":74172:74188  _totalSupply[id] */\n      swap1\n      dup2\n      mstore\n        /* \"contracts/DepositTokenization_flattened.sol\":74172:74184  _totalSupply */\n      0x05\n        /* \"contracts/DepositTokenization_flattened.sol\":74172:74188  _totalSupply[id] */\n      0x20\n      mstore\n      0x40\n      swap1\n      keccak256\n      sload\n      iszero\n      iszero\n      swap1\n        /* \"contracts/DepositTokenization_flattened.sol\":74445:74551  function exists(uint256 id) public view virtual returns (bool) {... */\n      jump\n        /* \"contracts/DepositTokenization_flattened.sol\":69824:69908  function paused() public view virtual returns (bool) {... */\n    tag_19:\n        /* \"contracts/DepositTokenization_flattened.sol\":69894:69901  _paused */\n      and(0xff, sload(0x04))\n        /* \"contracts/DepositTokenization_flattened.sol\":69824:69908  function paused() public view virtual returns (bool) {... */\n      jump(tag_47)\n        /* \"contracts/DepositTokenization_flattened.sol\":72802:73115  function burnBatch(address account, uint256[] memory ids, uint256[] memory values) public virtual {... */\n    tag_20:\n      tag_53\n      tag_115\n      calldatasize\n      0x04\n      tag_116\n      jump\t// in\n    tag_115:\n      tag_117\n      jump\t// in\n        /* \"contracts/DepositTokenization_flattened.sol\":82242:82418  function mint(address account, uint256 id, uint256 amount, bytes memory data)... */\n    tag_21:\n      tag_53\n      tag_119\n      calldatasize\n      0x04\n      tag_120\n      jump\t// in\n    tag_119:\n      tag_121\n      jump\t// in\n        /* \"contracts/DepositTokenization_flattened.sol\":81024:81094  bytes32 public constant URI_SETTER_ROLE = keccak256(\"URI_SETTER_ROLE\") */\n    tag_22:\n      tag_41\n        /* \"contracts/DepositTokenization_flattened.sol\":81066:81094  keccak256(\"URI_SETTER_ROLE\") */\n      0x7804d923f43a17d325d77e781528e0793b2edd9890ab45fc64efd7b4b427744c\n        /* \"contracts/DepositTokenization_flattened.sol\":81024:81094  bytes32 public constant URI_SETTER_ROLE = keccak256(\"URI_SETTER_ROLE\") */\n      dup2\n      jump\n        /* \"contracts/DepositTokenization_flattened.sol\":82084:82155  function pause() public onlyRole(PAUSER_ROLE) {... */\n    tag_23:\n      tag_53\n      tag_126\n      jump\t// in\n        /* \"contracts/DepositTokenization_flattened.sol\":63801:63937  function hasRole(bytes32 role, address account) public view virtual returns (bool) {... */\n    tag_24:\n      tag_47\n      tag_128\n      calldatasize\n      0x04\n      tag_94\n      jump\t// in\n    tag_128:\n      tag_129\n      jump\t// in\n        /* \"contracts/DepositTokenization_flattened.sol\":63134:63183  bytes32 public constant DEFAULT_ADMIN_ROLE = 0x00 */\n    tag_25:\n      tag_41\n        /* \"contracts/DepositTokenization_flattened.sol\":63179:63183  0x00 */\n      0x00\n        /* \"contracts/DepositTokenization_flattened.sol\":63134:63183  bytes32 public constant DEFAULT_ADMIN_ROLE = 0x00 */\n      dup2\n      jump\n        /* \"contracts/DepositTokenization_flattened.sol\":44008:44152  function setApprovalForAll(address operator, bool approved) public virtual {... */\n    tag_26:\n      tag_53\n      tag_135\n      calldatasize\n      0x04\n      tag_136\n      jump\t// in\n    tag_135:\n      tag_137\n      jump\t// in\n        /* \"contracts/DepositTokenization_flattened.sol\":74084:74195  function totalSupply(uint256 id) public view virtual returns (uint256) {... */\n    tag_27:\n      tag_41\n      tag_139\n      calldatasize\n      0x04\n      tag_59\n      jump\t// in\n    tag_139:\n        /* \"contracts/DepositTokenization_flattened.sol\":74146:74153  uint256 */\n      0x00\n        /* \"contracts/DepositTokenization_flattened.sol\":74172:74188  _totalSupply[id] */\n      swap1\n      dup2\n      mstore\n        /* \"contracts/DepositTokenization_flattened.sol\":74172:74184  _totalSupply */\n      0x05\n        /* \"contracts/DepositTokenization_flattened.sol\":74172:74188  _totalSupply[id] */\n      0x20\n      mstore\n      0x40\n      swap1\n      keccak256\n      sload\n      swap1\n        /* \"contracts/DepositTokenization_flattened.sol\":74084:74195  function totalSupply(uint256 id) public view virtual returns (uint256) {... */\n      jump\n        /* \"contracts/DepositTokenization_flattened.sol\":81168:81230  bytes32 public constant MINTER_ROLE = keccak256(\"MINTER_ROLE\") */\n    tag_28:\n      tag_41\n        /* \"contracts/DepositTokenization_flattened.sol\":81206:81230  keccak256(\"MINTER_ROLE\") */\n      0x9f2df0fed2c77648de5860a4cc508cd0818c85b8b8a1ab4ceeef8d981c8956a6\n        /* \"contracts/DepositTokenization_flattened.sol\":81168:81230  bytes32 public constant MINTER_ROLE = keccak256(\"MINTER_ROLE\") */\n      dup2\n      jump\n        /* \"contracts/DepositTokenization_flattened.sol\":65589:65727  function revokeRole(bytes32 role, address account) public virtual onlyRole(getRoleAdmin(role)) {... */\n    tag_29:\n      tag_53\n      tag_146\n      calldatasize\n      0x04\n      tag_94\n      jump\t// in\n    tag_146:\n      tag_147\n      jump\t// in\n        /* \"contracts/DepositTokenization_flattened.sol\":81100:81162  bytes32 public constant PAUSER_ROLE = keccak256(\"PAUSER_ROLE\") */\n    tag_30:\n      tag_41\n        /* \"contracts/DepositTokenization_flattened.sol\":81138:81162  keccak256(\"PAUSER_ROLE\") */\n      0x65d7a28e3265b37a6474929f336521b332c1681b933f6cb9f3376673440d862a\n        /* \"contracts/DepositTokenization_flattened.sol\":81100:81162  bytes32 public constant PAUSER_ROLE = keccak256(\"PAUSER_ROLE\") */\n      dup2\n      jump\n        /* \"contracts/DepositTokenization_flattened.sol\":44219:44376  function isApprovedForAll(address account, address operator) public view virtual returns (bool) {... */\n    tag_31:\n      tag_47\n      tag_152\n      calldatasize\n      0x04\n      tag_153\n      jump\t// in\n    tag_152:\n      tag_154\n      jump\t// in\n        /* \"contracts/DepositTokenization_flattened.sol\":44443:44794  function safeTransferFrom(address from, address to, uint256 id, uint256 value, bytes memory data) public virtual {... */\n    tag_32:\n      tag_53\n      tag_157\n      calldatasize\n      0x04\n      tag_158\n      jump\t// in\n    tag_157:\n      tag_159\n      jump\t// in\n        /* \"contracts/DepositTokenization_flattened.sol\":72515:72796  function burn(address account, uint256 id, uint256 value) public virtual {... */\n    tag_33:\n      tag_53\n      tag_161\n      calldatasize\n      0x04\n      tag_162\n      jump\t// in\n    tag_161:\n      tag_163\n      jump\t// in\n        /* \"contracts/DepositTokenization_flattened.sol\":43099:43231  function balanceOf(address account, uint256 id) public view virtual returns (uint256) {... */\n    tag_44:\n        /* \"contracts/DepositTokenization_flattened.sol\":43176:43183  uint256 */\n      0x00\n        /* \"contracts/DepositTokenization_flattened.sol\":43202:43215  _balances[id] */\n      dup2\n      dup2\n      mstore\n      0x20\n      dup2\n      dup2\n      mstore\n      0x40\n      dup1\n      dup4\n      keccak256\n      sub(shl(0xa0, 0x01), 0x01)\n        /* \"contracts/DepositTokenization_flattened.sol\":43202:43224  _balances[id][account] */\n      dup7\n      and\n      dup5\n      mstore\n      swap1\n      swap2\n      mstore\n      swap1\n      keccak256\n      sload\n        /* \"contracts/DepositTokenization_flattened.sol\":43099:43231  function balanceOf(address account, uint256 id) public view virtual returns (uint256) {... */\n    tag_164:\n      swap3\n      swap2\n      pop\n      pop\n      jump\t// out\n        /* \"contracts/DepositTokenization_flattened.sol\":82924:83127  function supportsInterface(bytes4 interfaceId)... */\n    tag_50:\n        /* \"contracts/DepositTokenization_flattened.sol\":83057:83061  bool */\n      0x00\n        /* \"contracts/DepositTokenization_flattened.sol\":83084:83120  super.supportsInterface(interfaceId) */\n      tag_164\n        /* \"contracts/DepositTokenization_flattened.sol\":83108:83119  interfaceId */\n      dup3\n        /* \"contracts/DepositTokenization_flattened.sol\":83084:83107  super.supportsInterface */\n      tag_167\n        /* \"contracts/DepositTokenization_flattened.sol\":83084:83120  super.supportsInterface(interfaceId) */\n      jump\t// in\n        /* \"contracts/DepositTokenization_flattened.sol\":81975:82078  function setURI(string memory newuri) public onlyRole(URI_SETTER_ROLE) {... */\n    tag_56:\n        /* \"contracts/DepositTokenization_flattened.sol\":81066:81094  keccak256(\"URI_SETTER_ROLE\") */\n      0x7804d923f43a17d325d77e781528e0793b2edd9890ab45fc64efd7b4b427744c\n        /* \"contracts/DepositTokenization_flattened.sol\":63411:63427  _checkRole(role) */\n      tag_169\n        /* \"contracts/DepositTokenization_flattened.sol\":63422:63426  role */\n      dup2\n        /* \"contracts/DepositTokenization_flattened.sol\":63411:63421  _checkRole */\n      tag_170\n        /* \"contracts/DepositTokenization_flattened.sol\":63411:63427  _checkRole(role) */\n      jump\t// in\n    tag_169:\n        /* \"contracts/DepositTokenization_flattened.sol\":82056:82071  _setURI(newuri) */\n      tag_172\n        /* \"contracts/DepositTokenization_flattened.sol\":82064:82070  newuri */\n      dup3\n        /* \"contracts/DepositTokenization_flattened.sol\":82056:82063  _setURI */\n      tag_173\n        /* \"contracts/DepositTokenization_flattened.sol\":82056:82071  _setURI(newuri) */\n      jump\t// in\n    tag_172:\n        /* \"contracts/DepositTokenization_flattened.sol\":81975:82078  function setURI(string memory newuri) public onlyRole(URI_SETTER_ROLE) {... */\n      pop\n      pop\n      jump\t// out\n        /* \"contracts/DepositTokenization_flattened.sol\":42936:43039  function uri(uint256 /* id */) public view virtual returns (string memory) {... */\n    tag_60:\n        /* \"contracts/DepositTokenization_flattened.sol\":42996:43009  string memory */\n      0x60\n        /* \"contracts/DepositTokenization_flattened.sol\":43028:43032  _uri */\n      0x02\n        /* \"contracts/DepositTokenization_flattened.sol\":43021:43032  return _uri */\n      dup1\n      sload\n      tag_175\n      swap1\n      tag_176\n      jump\t// in\n    tag_175:\n      dup1\n      0x1f\n      add\n      0x20\n      dup1\n      swap2\n      div\n      mul\n      0x20\n      add\n      mload(0x40)\n      swap1\n      dup2\n      add\n      0x40\n      mstore\n      dup1\n      swap3\n      swap2\n      swap1\n      dup2\n      dup2\n      mstore\n      0x20\n      add\n      dup3\n      dup1\n      sload\n      tag_177\n      swap1\n      tag_176\n      jump\t// in\n    tag_177:\n      dup1\n      iszero\n      tag_178\n      jumpi\n      dup1\n      0x1f\n      lt\n      tag_179\n      jumpi\n      0x0100\n      dup1\n      dup4\n      sload\n      div\n      mul\n      dup4\n      mstore\n      swap2\n      0x20\n      add\n      swap2\n      jump(tag_178)\n    tag_179:\n      dup3\n      add\n      swap2\n      swap1\n      0x00\n      mstore\n      keccak256(0x00, 0x20)\n      swap1\n    tag_180:\n      dup2\n      sload\n      dup2\n      mstore\n      swap1\n      0x01\n      add\n      swap1\n      0x20\n      add\n      dup1\n      dup4\n      gt\n      tag_180\n      jumpi\n      dup3\n      swap1\n      sub\n      0x1f\n      and\n      dup3\n      add\n      swap2\n    tag_178:\n      pop\n      pop\n      pop\n      pop\n      pop\n      swap1\n      pop\n        /* \"contracts/DepositTokenization_flattened.sol\":42936:43039  function uri(uint256 /* id */) public view virtual returns (string memory) {... */\n      swap2\n      swap1\n      pop\n      jump\t// out\n        /* \"contracts/DepositTokenization_flattened.sol\":82424:82622  function mintBatch(address to, uint256[] memory ids, uint256[] memory amounts, bytes memory data)... */\n    tag_77:\n        /* \"contracts/DepositTokenization_flattened.sol\":81206:81230  keccak256(\"MINTER_ROLE\") */\n      0x9f2df0fed2c77648de5860a4cc508cd0818c85b8b8a1ab4ceeef8d981c8956a6\n        /* \"contracts/DepositTokenization_flattened.sol\":63411:63427  _checkRole(role) */\n      tag_183\n        /* \"contracts/DepositTokenization_flattened.sol\":63422:63426  role */\n      dup2\n        /* \"contracts/DepositTokenization_flattened.sol\":63411:63421  _checkRole */\n      tag_170\n        /* \"contracts/DepositTokenization_flattened.sol\":63411:63427  _checkRole(role) */\n      jump\t// in\n    tag_183:\n        /* \"contracts/DepositTokenization_flattened.sol\":82581:82615  _mintBatch(to, ids, amounts, data) */\n      tag_185\n        /* \"contracts/DepositTokenization_flattened.sol\":82592:82594  to */\n      dup6\n        /* \"contracts/DepositTokenization_flattened.sol\":82596:82599  ids */\n      dup6\n        /* \"contracts/DepositTokenization_flattened.sol\":82601:82608  amounts */\n      dup6\n        /* \"contracts/DepositTokenization_flattened.sol\":82610:82614  data */\n      dup6\n        /* \"contracts/DepositTokenization_flattened.sol\":82581:82591  _mintBatch */\n      tag_186\n        /* \"contracts/DepositTokenization_flattened.sol\":82581:82615  _mintBatch(to, ids, amounts, data) */\n      jump\t// in\n    tag_185:\n        /* \"contracts/DepositTokenization_flattened.sol\":82424:82622  function mintBatch(address to, uint256[] memory ids, uint256[] memory amounts, bytes memory data)... */\n      pop\n      pop\n      pop\n      pop\n      pop\n      jump\t// out\n        /* \"contracts/DepositTokenization_flattened.sol\":44866:45295  function safeBatchTransferFrom(... */\n    tag_91:\n        /* \"contracts/DepositTokenization_flattened.sol\":9682:9692  msg.sender */\n      caller\n      sub(shl(0xa0, 0x01), 0x01)\n        /* \"contracts/DepositTokenization_flattened.sol\":45103:45117  from != sender */\n      dup7\n      and\n      dup2\n      eq\n      dup1\n      iszero\n      swap1\n        /* \"contracts/DepositTokenization_flattened.sol\":45103:45152  from != sender && !isApprovedForAll(from, sender) */\n      tag_191\n      jumpi\n      pop\n        /* \"contracts/DepositTokenization_flattened.sol\":45122:45152  isApprovedForAll(from, sender) */\n      tag_192\n        /* \"contracts/DepositTokenization_flattened.sol\":45139:45143  from */\n      dup7\n        /* \"contracts/DepositTokenization_flattened.sol\":45145:45151  sender */\n      dup3\n        /* \"contracts/DepositTokenization_flattened.sol\":45122:45138  isApprovedForAll */\n      tag_154\n        /* \"contracts/DepositTokenization_flattened.sol\":45122:45152  isApprovedForAll(from, sender) */\n      jump\t// in\n    tag_192:\n        /* \"contracts/DepositTokenization_flattened.sol\":45121:45152  !isApprovedForAll(from, sender) */\n      iszero\n        /* \"contracts/DepositTokenization_flattened.sol\":45103:45152  from != sender && !isApprovedForAll(from, sender) */\n    tag_191:\n        /* \"contracts/DepositTokenization_flattened.sol\":45099:45228  if (from != sender && !isApprovedForAll(from, sender)) {... */\n      iszero\n      tag_193\n      jumpi\n        /* \"contracts/DepositTokenization_flattened.sol\":45175:45217  ERC1155MissingApprovalForAll(sender, from) */\n      mload(0x40)\n      shl(0xe1, 0x711bec91)\n      dup2\n      mstore\n      sub(shl(0xa0, 0x01), 0x01)\n        /* \"#utility.yul\":13212:13244   */\n      dup1\n      dup4\n      and\n        /* \"contracts/DepositTokenization_flattened.sol\":45175:45217  ERC1155MissingApprovalForAll(sender, from) */\n      0x04\n      dup4\n      add\n        /* \"#utility.yul\":13194:13245   */\n      mstore\n        /* \"#utility.yul\":13281:13313   */\n      dup8\n      and\n        /* \"#utility.yul\":13261:13279   */\n      0x24\n      dup3\n      add\n        /* \"#utility.yul\":13254:13314   */\n      mstore\n        /* \"#utility.yul\":13167:13185   */\n      0x44\n      add\n        /* \"contracts/DepositTokenization_flattened.sol\":45175:45217  ERC1155MissingApprovalForAll(sender, from) */\n    tag_194:\n      mload(0x40)\n      dup1\n      swap2\n      sub\n      swap1\n      revert\n        /* \"contracts/DepositTokenization_flattened.sol\":45099:45228  if (from != sender && !isApprovedForAll(from, sender)) {... */\n    tag_193:\n        /* \"contracts/DepositTokenization_flattened.sol\":45237:45288  _safeBatchTransferFrom(from, to, ids, values, data) */\n      tag_196\n        /* \"contracts/DepositTokenization_flattened.sol\":45260:45264  from */\n      dup7\n        /* \"contracts/DepositTokenization_flattened.sol\":45266:45268  to */\n      dup7\n        /* \"contracts/DepositTokenization_flattened.sol\":45270:45273  ids */\n      dup7\n        /* \"contracts/DepositTokenization_flattened.sol\":45275:45281  values */\n      dup7\n        /* \"contracts/DepositTokenization_flattened.sol\":45283:45287  data */\n      dup7\n        /* \"contracts/DepositTokenization_flattened.sol\":45237:45259  _safeBatchTransferFrom */\n      tag_197\n        /* \"contracts/DepositTokenization_flattened.sol\":45237:45288  _safeBatchTransferFrom(from, to, ids, values, data) */\n      jump\t// in\n    tag_196:\n        /* \"contracts/DepositTokenization_flattened.sol\":45050:45295  {... */\n      pop\n        /* \"contracts/DepositTokenization_flattened.sol\":44866:45295  function safeBatchTransferFrom(... */\n      pop\n      pop\n      pop\n      pop\n      pop\n      jump\t// out\n        /* \"contracts/DepositTokenization_flattened.sol\":65173:65309  function grantRole(bytes32 role, address account) public virtual onlyRole(getRoleAdmin(role)) {... */\n    tag_95:\n        /* \"contracts/DepositTokenization_flattened.sol\":64822:64829  bytes32 */\n      0x00\n        /* \"contracts/DepositTokenization_flattened.sol\":64848:64860  _roles[role] */\n      dup3\n      dup2\n      mstore\n        /* \"contracts/DepositTokenization_flattened.sol\":64848:64854  _roles */\n      0x03\n        /* \"contracts/DepositTokenization_flattened.sol\":64848:64860  _roles[role] */\n      0x20\n      mstore\n      0x40\n      swap1\n      keccak256\n        /* \"contracts/DepositTokenization_flattened.sol\":64848:64870  _roles[role].adminRole */\n      0x01\n      add\n      sload\n        /* \"contracts/DepositTokenization_flattened.sol\":63411:63427  _checkRole(role) */\n      tag_200\n        /* \"contracts/DepositTokenization_flattened.sol\":63422:63426  role */\n      dup2\n        /* \"contracts/DepositTokenization_flattened.sol\":63411:63421  _checkRole */\n      tag_170\n        /* \"contracts/DepositTokenization_flattened.sol\":63411:63427  _checkRole(role) */\n      jump\t// in\n    tag_200:\n        /* \"contracts/DepositTokenization_flattened.sol\":65277:65302  _grantRole(role, account) */\n      tag_202\n        /* \"contracts/DepositTokenization_flattened.sol\":65288:65292  role */\n      dup4\n        /* \"contracts/DepositTokenization_flattened.sol\":65294:65301  account */\n      dup4\n        /* \"contracts/DepositTokenization_flattened.sol\":65277:65287  _grantRole */\n      tag_203\n        /* \"contracts/DepositTokenization_flattened.sol\":65277:65302  _grantRole(role, account) */\n      jump\t// in\n    tag_202:\n      pop\n        /* \"contracts/DepositTokenization_flattened.sol\":65173:65309  function grantRole(bytes32 role, address account) public virtual onlyRole(getRoleAdmin(role)) {... */\n      pop\n      pop\n      pop\n      jump\t// out\n        /* \"contracts/DepositTokenization_flattened.sol\":66275:66520  function renounceRole(bytes32 role, address callerConfirmation) public virtual {... */\n    tag_98:\n      sub(shl(0xa0, 0x01), 0x01)\n        /* \"contracts/DepositTokenization_flattened.sol\":66368:66402  callerConfirmation != _msgSender() */\n      dup2\n      and\n        /* \"contracts/DepositTokenization_flattened.sol\":9682:9692  msg.sender */\n      caller\n        /* \"contracts/DepositTokenization_flattened.sol\":66368:66402  callerConfirmation != _msgSender() */\n      eq\n        /* \"contracts/DepositTokenization_flattened.sol\":66364:66466  if (callerConfirmation != _msgSender()) {... */\n      tag_206\n      jumpi\n        /* \"contracts/DepositTokenization_flattened.sol\":66425:66455  AccessControlBadConfirmation() */\n      mload(0x40)\n      shl(0xe1, 0x334bd919)\n      dup2\n      mstore\n      0x04\n      add\n      mload(0x40)\n      dup1\n      swap2\n      sub\n      swap1\n      revert\n        /* \"contracts/DepositTokenization_flattened.sol\":66364:66466  if (callerConfirmation != _msgSender()) {... */\n    tag_206:\n        /* \"contracts/DepositTokenization_flattened.sol\":66476:66513  _revokeRole(role, callerConfirmation) */\n      tag_207\n        /* \"contracts/DepositTokenization_flattened.sol\":66488:66492  role */\n      dup3\n        /* \"contracts/DepositTokenization_flattened.sol\":66494:66512  callerConfirmation */\n      dup3\n        /* \"contracts/DepositTokenization_flattened.sol\":66476:66487  _revokeRole */\n      tag_208\n        /* \"contracts/DepositTokenization_flattened.sol\":66476:66513  _revokeRole(role, callerConfirmation) */\n      jump\t// in\n    tag_207:\n      pop\n        /* \"contracts/DepositTokenization_flattened.sol\":66275:66520  function renounceRole(bytes32 role, address callerConfirmation) public virtual {... */\n      pop\n      pop\n      jump\t// out\n        /* \"contracts/DepositTokenization_flattened.sol\":82161:82236  function unpause() public onlyRole(PAUSER_ROLE) {... */\n    tag_100:\n        /* \"contracts/DepositTokenization_flattened.sol\":81138:81162  keccak256(\"PAUSER_ROLE\") */\n      0x65d7a28e3265b37a6474929f336521b332c1681b933f6cb9f3376673440d862a\n        /* \"contracts/DepositTokenization_flattened.sol\":63411:63427  _checkRole(role) */\n      tag_210\n        /* \"contracts/DepositTokenization_flattened.sol\":63422:63426  role */\n      dup2\n        /* \"contracts/DepositTokenization_flattened.sol\":63411:63421  _checkRole */\n      tag_170\n        /* \"contracts/DepositTokenization_flattened.sol\":63411:63427  _checkRole(role) */\n      jump\t// in\n    tag_210:\n        /* \"contracts/DepositTokenization_flattened.sol\":82219:82229  _unpause() */\n      tag_212\n        /* \"contracts/DepositTokenization_flattened.sol\":82219:82227  _unpause */\n      tag_213\n        /* \"contracts/DepositTokenization_flattened.sol\":82219:82229  _unpause() */\n      jump\t// in\n    tag_212:\n        /* \"contracts/DepositTokenization_flattened.sol\":82161:82236  function unpause() public onlyRole(PAUSER_ROLE) {... */\n      pop\n      jump\t// out\n        /* \"contracts/DepositTokenization_flattened.sol\":43388:43940  function balanceOfBatch(... */\n    tag_104:\n        /* \"contracts/DepositTokenization_flattened.sol\":43512:43528  uint256[] memory */\n      0x60\n        /* \"contracts/DepositTokenization_flattened.sol\":43563:43566  ids */\n      dup2\n        /* \"contracts/DepositTokenization_flattened.sol\":43563:43573  ids.length */\n      mload\n        /* \"contracts/DepositTokenization_flattened.sol\":43544:43552  accounts */\n      dup4\n        /* \"contracts/DepositTokenization_flattened.sol\":43544:43559  accounts.length */\n      mload\n        /* \"contracts/DepositTokenization_flattened.sol\":43544:43573  accounts.length != ids.length */\n      eq\n        /* \"contracts/DepositTokenization_flattened.sol\":43540:43661  if (accounts.length != ids.length) {... */\n      tag_215\n      jumpi\n        /* \"contracts/DepositTokenization_flattened.sol\":43622:43632  ids.length */\n      dup2\n      mload\n        /* \"contracts/DepositTokenization_flattened.sol\":43634:43649  accounts.length */\n      dup4\n      mload\n        /* \"contracts/DepositTokenization_flattened.sol\":43596:43650  ERC1155InvalidArrayLength(ids.length, accounts.length) */\n      mload(0x40)\n      shl(0xe0, 0x5b059991)\n      dup2\n      mstore\n      0x04\n      dup2\n      add\n        /* \"#utility.yul\":13499:13524   */\n      swap3\n      swap1\n      swap3\n      mstore\n        /* \"#utility.yul\":13540:13558   */\n      0x24\n      dup3\n      add\n        /* \"#utility.yul\":13533:13567   */\n      mstore\n        /* \"#utility.yul\":13472:13490   */\n      0x44\n      add\n        /* \"contracts/DepositTokenization_flattened.sol\":43596:43650  ERC1155InvalidArrayLength(ids.length, accounts.length) */\n      tag_194\n        /* \"#utility.yul\":13325:13573   */\n      jump\n        /* \"contracts/DepositTokenization_flattened.sol\":43540:43661  if (accounts.length != ids.length) {... */\n    tag_215:\n        /* \"contracts/DepositTokenization_flattened.sol\":43671:43701  uint256[] memory batchBalances */\n      0x00\n        /* \"contracts/DepositTokenization_flattened.sol\":43718:43726  accounts */\n      dup4\n        /* \"contracts/DepositTokenization_flattened.sol\":43718:43733  accounts.length */\n      mload\n      sub(shl(0x40, 0x01), 0x01)\n        /* \"contracts/DepositTokenization_flattened.sol\":43704:43734  new uint256[](accounts.length) */\n      dup2\n      gt\n      iszero\n      tag_219\n      jumpi\n      tag_219\n      tag_220\n      jump\t// in\n    tag_219:\n      mload(0x40)\n      swap1\n      dup1\n      dup3\n      mstore\n      dup1\n      0x20\n      mul\n      0x20\n      add\n      dup3\n      add\n      0x40\n      mstore\n      dup1\n      iszero\n      tag_221\n      jumpi\n      dup2\n      0x20\n      add\n      0x20\n      dup3\n      mul\n      dup1\n      calldatasize\n      dup4\n      calldatacopy\n      add\n      swap1\n      pop\n    tag_221:\n      pop\n        /* \"contracts/DepositTokenization_flattened.sol\":43671:43734  uint256[] memory batchBalances = new uint256[](accounts.length) */\n      swap1\n      pop\n        /* \"contracts/DepositTokenization_flattened.sol\":43750:43759  uint256 i */\n      0x00\n        /* \"contracts/DepositTokenization_flattened.sol\":43745:43903  for (uint256 i = 0; i < accounts.length; ++i) {... */\n    tag_222:\n        /* \"contracts/DepositTokenization_flattened.sol\":43769:43777  accounts */\n      dup5\n        /* \"contracts/DepositTokenization_flattened.sol\":43769:43784  accounts.length */\n      mload\n        /* \"contracts/DepositTokenization_flattened.sol\":43765:43766  i */\n      dup2\n        /* \"contracts/DepositTokenization_flattened.sol\":43765:43784  i < accounts.length */\n      lt\n        /* \"contracts/DepositTokenization_flattened.sol\":43745:43903  for (uint256 i = 0; i < accounts.length; ++i) {... */\n      iszero\n      tag_223\n      jumpi\n        /* \"contracts/DepositTokenization_flattened.sol\":34630:34634  0x20 */\n      0x20\n        /* \"contracts/DepositTokenization_flattened.sol\":34621:34635  mul(pos, 0x20) */\n      dup1\n      dup3\n      mul\n        /* \"contracts/DepositTokenization_flattened.sol\":34601:34636  add(add(arr, 0x20), mul(pos, 0x20)) */\n      dup7\n      add\n      add\n        /* \"contracts/DepositTokenization_flattened.sol\":34595:34637  mload(add(add(arr, 0x20), mul(pos, 0x20))) */\n      mload\n        /* \"contracts/DepositTokenization_flattened.sol\":43824:43892  balanceOf(accounts.unsafeMemoryAccess(i), ids.unsafeMemoryAccess(i)) */\n      tag_225\n      swap1\n        /* \"contracts/DepositTokenization_flattened.sol\":34630:34634  0x20 */\n      0x20\n        /* \"contracts/DepositTokenization_flattened.sol\":34621:34635  mul(pos, 0x20) */\n      dup1\n      dup5\n      mul\n        /* \"contracts/DepositTokenization_flattened.sol\":34601:34636  add(add(arr, 0x20), mul(pos, 0x20)) */\n      dup8\n      add\n      add\n        /* \"contracts/DepositTokenization_flattened.sol\":34595:34637  mload(add(add(arr, 0x20), mul(pos, 0x20))) */\n      mload\n        /* \"contracts/DepositTokenization_flattened.sol\":43099:43231  function balanceOf(address account, uint256 id) public view virtual returns (uint256) {... */\n      tag_44\n      jump\t// in\n        /* \"contracts/DepositTokenization_flattened.sol\":43824:43892  balanceOf(accounts.unsafeMemoryAccess(i), ids.unsafeMemoryAccess(i)) */\n    tag_225:\n        /* \"contracts/DepositTokenization_flattened.sol\":43805:43818  batchBalances */\n      dup3\n        /* \"contracts/DepositTokenization_flattened.sol\":43819:43820  i */\n      dup3\n        /* \"contracts/DepositTokenization_flattened.sol\":43805:43821  batchBalances[i] */\n      dup2\n      mload\n      dup2\n      lt\n      tag_231\n      jumpi\n      tag_231\n      tag_232\n      jump\t// in\n    tag_231:\n      0x20\n      swap1\n      dup2\n      mul\n      swap2\n      swap1\n      swap2\n      add\n      add\n        /* \"contracts/DepositTokenization_flattened.sol\":43805:43892  batchBalances[i] = balanceOf(accounts.unsafeMemoryAccess(i), ids.unsafeMemoryAccess(i)) */\n      mstore\n        /* \"contracts/DepositTokenization_flattened.sol\":43786:43789  ++i */\n      0x01\n      add\n        /* \"contracts/DepositTokenization_flattened.sol\":43745:43903  for (uint256 i = 0; i < accounts.length; ++i) {... */\n      jump(tag_222)\n    tag_223:\n      pop\n        /* \"contracts/DepositTokenization_flattened.sol\":43920:43933  batchBalances */\n      swap4\n        /* \"contracts/DepositTokenization_flattened.sol\":43388:43940  function balanceOfBatch(... */\n      swap3\n      pop\n      pop\n      pop\n      jump\t// out\n        /* \"contracts/DepositTokenization_flattened.sol\":72802:73115  function burnBatch(address account, uint256[] memory ids, uint256[] memory values) public virtual {... */\n    tag_117:\n      sub(shl(0xa0, 0x01), 0x01)\n        /* \"contracts/DepositTokenization_flattened.sol\":72914:72937  account != _msgSender() */\n      dup4\n      and\n        /* \"contracts/DepositTokenization_flattened.sol\":9682:9692  msg.sender */\n      caller\n        /* \"contracts/DepositTokenization_flattened.sol\":72914:72937  account != _msgSender() */\n      eq\n      dup1\n      iszero\n      swap1\n        /* \"contracts/DepositTokenization_flattened.sol\":72914:72981  account != _msgSender() && !isApprovedForAll(account, _msgSender()) */\n      tag_238\n      jumpi\n      pop\n        /* \"contracts/DepositTokenization_flattened.sol\":72942:72981  isApprovedForAll(account, _msgSender()) */\n      tag_239\n        /* \"contracts/DepositTokenization_flattened.sol\":72959:72966  account */\n      dup4\n        /* \"contracts/DepositTokenization_flattened.sol\":9682:9692  msg.sender */\n      caller\n        /* \"contracts/DepositTokenization_flattened.sol\":44219:44376  function isApprovedForAll(address account, address operator) public view virtual returns (bool) {... */\n      tag_154\n      jump\t// in\n        /* \"contracts/DepositTokenization_flattened.sol\":72942:72981  isApprovedForAll(account, _msgSender()) */\n    tag_239:\n        /* \"contracts/DepositTokenization_flattened.sol\":72941:72981  !isApprovedForAll(account, _msgSender()) */\n      iszero\n        /* \"contracts/DepositTokenization_flattened.sol\":72914:72981  account != _msgSender() && !isApprovedForAll(account, _msgSender()) */\n    tag_238:\n        /* \"contracts/DepositTokenization_flattened.sol\":72910:73066  if (account != _msgSender() && !isApprovedForAll(account, _msgSender())) {... */\n      iszero\n      tag_241\n      jumpi\n        /* \"contracts/DepositTokenization_flattened.sol\":9682:9692  msg.sender */\n      caller\n        /* \"contracts/DepositTokenization_flattened.sol\":73033:73045  _msgSender() */\n    tag_242:\n        /* \"contracts/DepositTokenization_flattened.sol\":73004:73055  ERC1155MissingApprovalForAll(_msgSender(), account) */\n      mload(0x40)\n      shl(0xe1, 0x711bec91)\n      dup2\n      mstore\n      sub(shl(0xa0, 0x01), 0x01)\n        /* \"#utility.yul\":13212:13244   */\n      swap2\n      dup3\n      and\n        /* \"contracts/DepositTokenization_flattened.sol\":73004:73055  ERC1155MissingApprovalForAll(_msgSender(), account) */\n      0x04\n      dup3\n      add\n        /* \"#utility.yul\":13194:13245   */\n      mstore\n        /* \"#utility.yul\":13281:13313   */\n      swap1\n      dup5\n      and\n        /* \"#utility.yul\":13261:13279   */\n      0x24\n      dup3\n      add\n        /* \"#utility.yul\":13254:13314   */\n      mstore\n        /* \"#utility.yul\":13167:13185   */\n      0x44\n      add\n        /* \"contracts/DepositTokenization_flattened.sol\":73004:73055  ERC1155MissingApprovalForAll(_msgSender(), account) */\n      tag_194\n        /* \"#utility.yul\":13020:13320   */\n      jump\n        /* \"contracts/DepositTokenization_flattened.sol\":72910:73066  if (account != _msgSender() && !isApprovedForAll(account, _msgSender())) {... */\n    tag_241:\n        /* \"contracts/DepositTokenization_flattened.sol\":73076:73108  _burnBatch(account, ids, values) */\n      tag_207\n        /* \"contracts/DepositTokenization_flattened.sol\":73087:73094  account */\n      dup4\n        /* \"contracts/DepositTokenization_flattened.sol\":73096:73099  ids */\n      dup4\n        /* \"contracts/DepositTokenization_flattened.sol\":73101:73107  values */\n      dup4\n        /* \"contracts/DepositTokenization_flattened.sol\":73076:73086  _burnBatch */\n      tag_245\n        /* \"contracts/DepositTokenization_flattened.sol\":73076:73108  _burnBatch(account, ids, values) */\n      jump\t// in\n        /* \"contracts/DepositTokenization_flattened.sol\":82242:82418  function mint(address account, uint256 id, uint256 amount, bytes memory data)... */\n    tag_121:\n        /* \"contracts/DepositTokenization_flattened.sol\":81206:81230  keccak256(\"MINTER_ROLE\") */\n      0x9f2df0fed2c77648de5860a4cc508cd0818c85b8b8a1ab4ceeef8d981c8956a6\n        /* \"contracts/DepositTokenization_flattened.sol\":63411:63427  _checkRole(role) */\n      tag_247\n        /* \"contracts/DepositTokenization_flattened.sol\":63422:63426  role */\n      dup2\n        /* \"contracts/DepositTokenization_flattened.sol\":63411:63421  _checkRole */\n      tag_170\n        /* \"contracts/DepositTokenization_flattened.sol\":63411:63427  _checkRole(role) */\n      jump\t// in\n    tag_247:\n        /* \"contracts/DepositTokenization_flattened.sol\":82379:82411  _mint(account, id, amount, data) */\n      tag_185\n        /* \"contracts/DepositTokenization_flattened.sol\":82385:82392  account */\n      dup6\n        /* \"contracts/DepositTokenization_flattened.sol\":82394:82396  id */\n      dup6\n        /* \"contracts/DepositTokenization_flattened.sol\":82398:82404  amount */\n      dup6\n        /* \"contracts/DepositTokenization_flattened.sol\":82406:82410  data */\n      dup6\n        /* \"contracts/DepositTokenization_flattened.sol\":82379:82384  _mint */\n      tag_250\n        /* \"contracts/DepositTokenization_flattened.sol\":82379:82411  _mint(account, id, amount, data) */\n      jump\t// in\n        /* \"contracts/DepositTokenization_flattened.sol\":82084:82155  function pause() public onlyRole(PAUSER_ROLE) {... */\n    tag_126:\n        /* \"contracts/DepositTokenization_flattened.sol\":81138:81162  keccak256(\"PAUSER_ROLE\") */\n      0x65d7a28e3265b37a6474929f336521b332c1681b933f6cb9f3376673440d862a\n        /* \"contracts/DepositTokenization_flattened.sol\":63411:63427  _checkRole(role) */\n      tag_252\n        /* \"contracts/DepositTokenization_flattened.sol\":63422:63426  role */\n      dup2\n        /* \"contracts/DepositTokenization_flattened.sol\":63411:63421  _checkRole */\n      tag_170\n        /* \"contracts/DepositTokenization_flattened.sol\":63411:63427  _checkRole(role) */\n      jump\t// in\n    tag_252:\n        /* \"contracts/DepositTokenization_flattened.sol\":82140:82148  _pause() */\n      tag_212\n        /* \"contracts/DepositTokenization_flattened.sol\":82140:82146  _pause */\n      tag_255\n        /* \"contracts/DepositTokenization_flattened.sol\":82140:82148  _pause() */\n      jump\t// in\n        /* \"contracts/DepositTokenization_flattened.sol\":63801:63937  function hasRole(bytes32 role, address account) public view virtual returns (bool) {... */\n    tag_129:\n        /* \"contracts/DepositTokenization_flattened.sol\":63878:63882  bool */\n      0x00\n        /* \"contracts/DepositTokenization_flattened.sol\":63901:63913  _roles[role] */\n      swap2\n      dup3\n      mstore\n        /* \"contracts/DepositTokenization_flattened.sol\":63901:63907  _roles */\n      0x03\n        /* \"contracts/DepositTokenization_flattened.sol\":63901:63913  _roles[role] */\n      0x20\n      swap1\n      dup2\n      mstore\n      0x40\n      dup1\n      dup5\n      keccak256\n      sub(shl(0xa0, 0x01), 0x01)\n        /* \"contracts/DepositTokenization_flattened.sol\":63901:63930  _roles[role].hasRole[account] */\n      swap4\n      swap1\n      swap4\n      and\n      dup5\n      mstore\n      swap2\n      swap1\n      mstore\n      swap1\n      keccak256\n      sload\n      0xff\n      and\n      swap1\n        /* \"contracts/DepositTokenization_flattened.sol\":63801:63937  function hasRole(bytes32 role, address account) public view virtual returns (bool) {... */\n      jump\t// out\n        /* \"contracts/DepositTokenization_flattened.sol\":44008:44152  function setApprovalForAll(address operator, bool approved) public virtual {... */\n    tag_137:\n        /* \"contracts/DepositTokenization_flattened.sol\":44093:44145  _setApprovalForAll(_msgSender(), operator, approved) */\n      tag_172\n        /* \"contracts/DepositTokenization_flattened.sol\":9682:9692  msg.sender */\n      caller\n        /* \"contracts/DepositTokenization_flattened.sol\":44126:44134  operator */\n      dup4\n        /* \"contracts/DepositTokenization_flattened.sol\":44136:44144  approved */\n      dup4\n        /* \"contracts/DepositTokenization_flattened.sol\":44093:44111  _setApprovalForAll */\n      tag_260\n        /* \"contracts/DepositTokenization_flattened.sol\":44093:44145  _setApprovalForAll(_msgSender(), operator, approved) */\n      jump\t// in\n        /* \"contracts/DepositTokenization_flattened.sol\":65589:65727  function revokeRole(bytes32 role, address account) public virtual onlyRole(getRoleAdmin(role)) {... */\n    tag_147:\n        /* \"contracts/DepositTokenization_flattened.sol\":64822:64829  bytes32 */\n      0x00\n        /* \"contracts/DepositTokenization_flattened.sol\":64848:64860  _roles[role] */\n      dup3\n      dup2\n      mstore\n        /* \"contracts/DepositTokenization_flattened.sol\":64848:64854  _roles */\n      0x03\n        /* \"contracts/DepositTokenization_flattened.sol\":64848:64860  _roles[role] */\n      0x20\n      mstore\n      0x40\n      swap1\n      keccak256\n        /* \"contracts/DepositTokenization_flattened.sol\":64848:64870  _roles[role].adminRole */\n      0x01\n      add\n      sload\n        /* \"contracts/DepositTokenization_flattened.sol\":63411:63427  _checkRole(role) */\n      tag_264\n        /* \"contracts/DepositTokenization_flattened.sol\":63422:63426  role */\n      dup2\n        /* \"contracts/DepositTokenization_flattened.sol\":63411:63421  _checkRole */\n      tag_170\n        /* \"contracts/DepositTokenization_flattened.sol\":63411:63427  _checkRole(role) */\n      jump\t// in\n    tag_264:\n        /* \"contracts/DepositTokenization_flattened.sol\":65694:65720  _revokeRole(role, account) */\n      tag_202\n        /* \"contracts/DepositTokenization_flattened.sol\":65706:65710  role */\n      dup4\n        /* \"contracts/DepositTokenization_flattened.sol\":65712:65719  account */\n      dup4\n        /* \"contracts/DepositTokenization_flattened.sol\":65694:65705  _revokeRole */\n      tag_208\n        /* \"contracts/DepositTokenization_flattened.sol\":65694:65720  _revokeRole(role, account) */\n      jump\t// in\n        /* \"contracts/DepositTokenization_flattened.sol\":44219:44376  function isApprovedForAll(address account, address operator) public view virtual returns (bool) {... */\n    tag_154:\n      sub(shl(0xa0, 0x01), 0x01)\n        /* \"contracts/DepositTokenization_flattened.sol\":44332:44359  _operatorApprovals[account] */\n      swap2\n      dup3\n      and\n        /* \"contracts/DepositTokenization_flattened.sol\":44309:44313  bool */\n      0x00\n        /* \"contracts/DepositTokenization_flattened.sol\":44332:44359  _operatorApprovals[account] */\n      swap1\n      dup2\n      mstore\n        /* \"contracts/DepositTokenization_flattened.sol\":44332:44350  _operatorApprovals */\n      0x01\n        /* \"contracts/DepositTokenization_flattened.sol\":44332:44359  _operatorApprovals[account] */\n      0x20\n      swap1\n      dup2\n      mstore\n      0x40\n      dup1\n      dup4\n      keccak256\n        /* \"contracts/DepositTokenization_flattened.sol\":44332:44369  _operatorApprovals[account][operator] */\n      swap4\n      swap1\n      swap5\n      and\n      dup3\n      mstore\n      swap2\n      swap1\n      swap2\n      mstore\n      keccak256\n      sload\n      0xff\n      and\n      swap1\n        /* \"contracts/DepositTokenization_flattened.sol\":44219:44376  function isApprovedForAll(address account, address operator) public view virtual returns (bool) {... */\n      jump\t// out\n        /* \"contracts/DepositTokenization_flattened.sol\":44443:44794  function safeTransferFrom(address from, address to, uint256 id, uint256 value, bytes memory data) public virtual {... */\n    tag_159:\n        /* \"contracts/DepositTokenization_flattened.sol\":9682:9692  msg.sender */\n      caller\n      sub(shl(0xa0, 0x01), 0x01)\n        /* \"contracts/DepositTokenization_flattened.sol\":44609:44623  from != sender */\n      dup7\n      and\n      dup2\n      eq\n      dup1\n      iszero\n      swap1\n        /* \"contracts/DepositTokenization_flattened.sol\":44609:44658  from != sender && !isApprovedForAll(from, sender) */\n      tag_270\n      jumpi\n      pop\n        /* \"contracts/DepositTokenization_flattened.sol\":44628:44658  isApprovedForAll(from, sender) */\n      tag_271\n        /* \"contracts/DepositTokenization_flattened.sol\":44645:44649  from */\n      dup7\n        /* \"contracts/DepositTokenization_flattened.sol\":44651:44657  sender */\n      dup3\n        /* \"contracts/DepositTokenization_flattened.sol\":44628:44644  isApprovedForAll */\n      tag_154\n        /* \"contracts/DepositTokenization_flattened.sol\":44628:44658  isApprovedForAll(from, sender) */\n      jump\t// in\n    tag_271:\n        /* \"contracts/DepositTokenization_flattened.sol\":44627:44658  !isApprovedForAll(from, sender) */\n      iszero\n        /* \"contracts/DepositTokenization_flattened.sol\":44609:44658  from != sender && !isApprovedForAll(from, sender) */\n    tag_270:\n        /* \"contracts/DepositTokenization_flattened.sol\":44605:44734  if (from != sender && !isApprovedForAll(from, sender)) {... */\n      iszero\n      tag_272\n      jumpi\n        /* \"contracts/DepositTokenization_flattened.sol\":44681:44723  ERC1155MissingApprovalForAll(sender, from) */\n      mload(0x40)\n      shl(0xe1, 0x711bec91)\n      dup2\n      mstore\n      sub(shl(0xa0, 0x01), 0x01)\n        /* \"#utility.yul\":13212:13244   */\n      dup1\n      dup4\n      and\n        /* \"contracts/DepositTokenization_flattened.sol\":44681:44723  ERC1155MissingApprovalForAll(sender, from) */\n      0x04\n      dup4\n      add\n        /* \"#utility.yul\":13194:13245   */\n      mstore\n        /* \"#utility.yul\":13281:13313   */\n      dup8\n      and\n        /* \"#utility.yul\":13261:13279   */\n      0x24\n      dup3\n      add\n        /* \"#utility.yul\":13254:13314   */\n      mstore\n        /* \"#utility.yul\":13167:13185   */\n      0x44\n      add\n        /* \"contracts/DepositTokenization_flattened.sol\":44681:44723  ERC1155MissingApprovalForAll(sender, from) */\n      tag_194\n        /* \"#utility.yul\":13020:13320   */\n      jump\n        /* \"contracts/DepositTokenization_flattened.sol\":44605:44734  if (from != sender && !isApprovedForAll(from, sender)) {... */\n    tag_272:\n        /* \"contracts/DepositTokenization_flattened.sol\":44743:44787  _safeTransferFrom(from, to, id, value, data) */\n      tag_196\n        /* \"contracts/DepositTokenization_flattened.sol\":44761:44765  from */\n      dup7\n        /* \"contracts/DepositTokenization_flattened.sol\":44767:44769  to */\n      dup7\n        /* \"contracts/DepositTokenization_flattened.sol\":44771:44773  id */\n      dup7\n        /* \"contracts/DepositTokenization_flattened.sol\":44775:44780  value */\n      dup7\n        /* \"contracts/DepositTokenization_flattened.sol\":44782:44786  data */\n      dup7\n        /* \"contracts/DepositTokenization_flattened.sol\":44743:44760  _safeTransferFrom */\n      tag_275\n        /* \"contracts/DepositTokenization_flattened.sol\":44743:44787  _safeTransferFrom(from, to, id, value, data) */\n      jump\t// in\n        /* \"contracts/DepositTokenization_flattened.sol\":72515:72796  function burn(address account, uint256 id, uint256 value) public virtual {... */\n    tag_163:\n      sub(shl(0xa0, 0x01), 0x01)\n        /* \"contracts/DepositTokenization_flattened.sol\":72602:72625  account != _msgSender() */\n      dup4\n      and\n        /* \"contracts/DepositTokenization_flattened.sol\":9682:9692  msg.sender */\n      caller\n        /* \"contracts/DepositTokenization_flattened.sol\":72602:72625  account != _msgSender() */\n      eq\n      dup1\n      iszero\n      swap1\n        /* \"contracts/DepositTokenization_flattened.sol\":72602:72669  account != _msgSender() && !isApprovedForAll(account, _msgSender()) */\n      tag_278\n      jumpi\n      pop\n        /* \"contracts/DepositTokenization_flattened.sol\":72630:72669  isApprovedForAll(account, _msgSender()) */\n      tag_279\n        /* \"contracts/DepositTokenization_flattened.sol\":72647:72654  account */\n      dup4\n        /* \"contracts/DepositTokenization_flattened.sol\":9682:9692  msg.sender */\n      caller\n        /* \"contracts/DepositTokenization_flattened.sol\":44219:44376  function isApprovedForAll(address account, address operator) public view virtual returns (bool) {... */\n      tag_154\n      jump\t// in\n        /* \"contracts/DepositTokenization_flattened.sol\":72630:72669  isApprovedForAll(account, _msgSender()) */\n    tag_279:\n        /* \"contracts/DepositTokenization_flattened.sol\":72629:72669  !isApprovedForAll(account, _msgSender()) */\n      iszero\n        /* \"contracts/DepositTokenization_flattened.sol\":72602:72669  account != _msgSender() && !isApprovedForAll(account, _msgSender()) */\n    tag_278:\n        /* \"contracts/DepositTokenization_flattened.sol\":72598:72754  if (account != _msgSender() && !isApprovedForAll(account, _msgSender())) {... */\n      iszero\n      tag_281\n      jumpi\n        /* \"contracts/DepositTokenization_flattened.sol\":9682:9692  msg.sender */\n      caller\n        /* \"contracts/DepositTokenization_flattened.sol\":72721:72733  _msgSender() */\n      tag_242\n        /* \"contracts/DepositTokenization_flattened.sol\":9603:9699  function _msgSender() internal view virtual returns (address) {... */\n      jump\n        /* \"contracts/DepositTokenization_flattened.sol\":72598:72754  if (account != _msgSender() && !isApprovedForAll(account, _msgSender())) {... */\n    tag_281:\n        /* \"contracts/DepositTokenization_flattened.sol\":72764:72789  _burn(account, id, value) */\n      tag_207\n        /* \"contracts/DepositTokenization_flattened.sol\":72770:72777  account */\n      dup4\n        /* \"contracts/DepositTokenization_flattened.sol\":72779:72781  id */\n      dup4\n        /* \"contracts/DepositTokenization_flattened.sol\":72783:72788  value */\n      dup4\n        /* \"contracts/DepositTokenization_flattened.sol\":72764:72769  _burn */\n      tag_285\n        /* \"contracts/DepositTokenization_flattened.sol\":72764:72789  _burn(account, id, value) */\n      jump\t// in\n        /* \"contracts/DepositTokenization_flattened.sol\":63512:63714  function supportsInterface(bytes4 interfaceId) public view virtual override returns (bool) {... */\n    tag_167:\n        /* \"contracts/DepositTokenization_flattened.sol\":63597:63601  bool */\n      0x00\n      not(sub(shl(0xe0, 0x01), 0x01))\n        /* \"contracts/DepositTokenization_flattened.sol\":63620:63667  interfaceId == type(IAccessControl).interfaceId */\n      dup3\n      and\n      shl(0xe0, 0x7965db0b)\n      eq\n      dup1\n        /* \"contracts/DepositTokenization_flattened.sol\":63620:63707  interfaceId == type(IAccessControl).interfaceId || super.supportsInterface(interfaceId) */\n      tag_164\n      jumpi\n      pop\n        /* \"contracts/DepositTokenization_flattened.sol\":63671:63707  super.supportsInterface(interfaceId) */\n      tag_164\n        /* \"contracts/DepositTokenization_flattened.sol\":63695:63706  interfaceId */\n      dup3\n        /* \"contracts/DepositTokenization_flattened.sol\":63671:63694  super.supportsInterface */\n      tag_289\n        /* \"contracts/DepositTokenization_flattened.sol\":63671:63707  super.supportsInterface(interfaceId) */\n      jump\t// in\n        /* \"contracts/DepositTokenization_flattened.sol\":64146:64249  function _checkRole(bytes32 role) internal view virtual {... */\n    tag_170:\n        /* \"contracts/DepositTokenization_flattened.sol\":64212:64242  _checkRole(role, _msgSender()) */\n      tag_212\n        /* \"contracts/DepositTokenization_flattened.sol\":64223:64227  role */\n      dup2\n        /* \"contracts/DepositTokenization_flattened.sol\":9682:9692  msg.sender */\n      caller\n        /* \"contracts/DepositTokenization_flattened.sol\":64212:64222  _checkRole */\n      tag_293\n        /* \"contracts/DepositTokenization_flattened.sol\":64212:64242  _checkRole(role, _msgSender()) */\n      jump\t// in\n        /* \"contracts/DepositTokenization_flattened.sol\":51134:51220  function _setURI(string memory newuri) internal virtual {... */\n    tag_173:\n        /* \"contracts/DepositTokenization_flattened.sol\":51200:51204  _uri */\n      0x02\n        /* \"contracts/DepositTokenization_flattened.sol\":51200:51213  _uri = newuri */\n      tag_172\n        /* \"contracts/DepositTokenization_flattened.sol\":51207:51213  newuri */\n      dup3\n        /* \"contracts/DepositTokenization_flattened.sol\":51200:51204  _uri */\n      dup3\n        /* \"contracts/DepositTokenization_flattened.sol\":51200:51213  _uri = newuri */\n      tag_296\n      jump\t// in\n        /* \"contracts/DepositTokenization_flattened.sol\":52375:52657  function _mintBatch(address to, uint256[] memory ids, uint256[] memory values, bytes memory data) internal {... */\n    tag_186:\n      sub(shl(0xa0, 0x01), 0x01)\n        /* \"contracts/DepositTokenization_flattened.sol\":52496:52512  to == address(0) */\n      dup5\n      and\n        /* \"contracts/DepositTokenization_flattened.sol\":52492:52580  if (to == address(0)) {... */\n      tag_298\n      jumpi\n        /* \"contracts/DepositTokenization_flattened.sol\":52535:52569  ERC1155InvalidReceiver(address(0)) */\n      mload(0x40)\n      shl(0xe1, 0x2bfa23e7)\n      dup2\n      mstore\n        /* \"contracts/DepositTokenization_flattened.sol\":52566:52567  0 */\n      0x00\n        /* \"contracts/DepositTokenization_flattened.sol\":52535:52569  ERC1155InvalidReceiver(address(0)) */\n      0x04\n      dup3\n      add\n        /* \"#utility.yul\":3501:3552   */\n      mstore\n        /* \"#utility.yul\":3474:3492   */\n      0x24\n      add\n        /* \"contracts/DepositTokenization_flattened.sol\":52535:52569  ERC1155InvalidReceiver(address(0)) */\n      tag_194\n        /* \"#utility.yul\":3330:3558   */\n      jump\n        /* \"contracts/DepositTokenization_flattened.sol\":52492:52580  if (to == address(0)) {... */\n    tag_298:\n        /* \"contracts/DepositTokenization_flattened.sol\":52589:52650  _updateWithAcceptanceCheck(address(0), to, ids, values, data) */\n      tag_202\n        /* \"contracts/DepositTokenization_flattened.sol\":52624:52625  0 */\n      0x00\n        /* \"contracts/DepositTokenization_flattened.sol\":52628:52630  to */\n      dup6\n        /* \"contracts/DepositTokenization_flattened.sol\":52632:52635  ids */\n      dup6\n        /* \"contracts/DepositTokenization_flattened.sol\":52637:52643  values */\n      dup6\n        /* \"contracts/DepositTokenization_flattened.sol\":52645:52649  data */\n      dup6\n        /* \"contracts/DepositTokenization_flattened.sol\":52589:52615  _updateWithAcceptanceCheck */\n      tag_302\n        /* \"contracts/DepositTokenization_flattened.sol\":52589:52650  _updateWithAcceptanceCheck(address(0), to, ids, values, data) */\n      jump\t// in\n        /* \"contracts/DepositTokenization_flattened.sol\":49867:50312  function _safeBatchTransferFrom(... */\n    tag_197:\n      sub(shl(0xa0, 0x01), 0x01)\n        /* \"contracts/DepositTokenization_flattened.sol\":50060:50076  to == address(0) */\n      dup5\n      and\n        /* \"contracts/DepositTokenization_flattened.sol\":50056:50144  if (to == address(0)) {... */\n      tag_305\n      jumpi\n        /* \"contracts/DepositTokenization_flattened.sol\":50099:50133  ERC1155InvalidReceiver(address(0)) */\n      mload(0x40)\n      shl(0xe1, 0x2bfa23e7)\n      dup2\n      mstore\n        /* \"contracts/DepositTokenization_flattened.sol\":50130:50131  0 */\n      0x00\n        /* \"contracts/DepositTokenization_flattened.sol\":50099:50133  ERC1155InvalidReceiver(address(0)) */\n      0x04\n      dup3\n      add\n        /* \"#utility.yul\":3501:3552   */\n      mstore\n        /* \"#utility.yul\":3474:3492   */\n      0x24\n      add\n        /* \"contracts/DepositTokenization_flattened.sol\":50099:50133  ERC1155InvalidReceiver(address(0)) */\n      tag_194\n        /* \"#utility.yul\":3330:3558   */\n      jump\n        /* \"contracts/DepositTokenization_flattened.sol\":50056:50144  if (to == address(0)) {... */\n    tag_305:\n      sub(shl(0xa0, 0x01), 0x01)\n        /* \"contracts/DepositTokenization_flattened.sol\":50157:50175  from == address(0) */\n      dup6\n      and\n        /* \"contracts/DepositTokenization_flattened.sol\":50153:50241  if (from == address(0)) {... */\n      tag_307\n      jumpi\n        /* \"contracts/DepositTokenization_flattened.sol\":50198:50230  ERC1155InvalidSender(address(0)) */\n      mload(0x40)\n      shl(0xe2, 0x6a0d45)\n      dup2\n      mstore\n        /* \"contracts/DepositTokenization_flattened.sol\":50227:50228  0 */\n      0x00\n        /* \"contracts/DepositTokenization_flattened.sol\":50198:50230  ERC1155InvalidSender(address(0)) */\n      0x04\n      dup3\n      add\n        /* \"#utility.yul\":3501:3552   */\n      mstore\n        /* \"#utility.yul\":3474:3492   */\n      0x24\n      add\n        /* \"contracts/DepositTokenization_flattened.sol\":50198:50230  ERC1155InvalidSender(address(0)) */\n      tag_194\n        /* \"#utility.yul\":3330:3558   */\n      jump\n        /* \"contracts/DepositTokenization_flattened.sol\":50153:50241  if (from == address(0)) {... */\n    tag_307:\n        /* \"contracts/DepositTokenization_flattened.sol\":50250:50305  _updateWithAcceptanceCheck(from, to, ids, values, data) */\n      tag_185\n        /* \"contracts/DepositTokenization_flattened.sol\":50277:50281  from */\n      dup6\n        /* \"contracts/DepositTokenization_flattened.sol\":50283:50285  to */\n      dup6\n        /* \"contracts/DepositTokenization_flattened.sol\":50287:50290  ids */\n      dup6\n        /* \"contracts/DepositTokenization_flattened.sol\":50292:50298  values */\n      dup6\n        /* \"contracts/DepositTokenization_flattened.sol\":50300:50304  data */\n      dup6\n        /* \"contracts/DepositTokenization_flattened.sol\":50250:50276  _updateWithAcceptanceCheck */\n      tag_302\n        /* \"contracts/DepositTokenization_flattened.sol\":50250:50305  _updateWithAcceptanceCheck(from, to, ids, values, data) */\n      jump\t// in\n        /* \"contracts/DepositTokenization_flattened.sol\":67126:67442  function _grantRole(bytes32 role, address account) internal virtual returns (bool) {... */\n    tag_203:\n        /* \"contracts/DepositTokenization_flattened.sol\":67203:67207  bool */\n      0x00\n        /* \"contracts/DepositTokenization_flattened.sol\":67224:67246  hasRole(role, account) */\n      tag_311\n        /* \"contracts/DepositTokenization_flattened.sol\":67232:67236  role */\n      dup4\n        /* \"contracts/DepositTokenization_flattened.sol\":67238:67245  account */\n      dup4\n        /* \"contracts/DepositTokenization_flattened.sol\":67224:67231  hasRole */\n      tag_129\n        /* \"contracts/DepositTokenization_flattened.sol\":67224:67246  hasRole(role, account) */\n      jump\t// in\n    tag_311:\n        /* \"contracts/DepositTokenization_flattened.sol\":67219:67436  if (!hasRole(role, account)) {... */\n      tag_312\n      jumpi\n        /* \"contracts/DepositTokenization_flattened.sol\":67262:67274  _roles[role] */\n      0x00\n      dup4\n      dup2\n      mstore\n        /* \"contracts/DepositTokenization_flattened.sol\":67262:67268  _roles */\n      0x03\n        /* \"contracts/DepositTokenization_flattened.sol\":67262:67274  _roles[role] */\n      0x20\n      swap1\n      dup2\n      mstore\n      0x40\n      dup1\n      dup4\n      keccak256\n      sub(shl(0xa0, 0x01), 0x01)\n        /* \"contracts/DepositTokenization_flattened.sol\":67262:67291  _roles[role].hasRole[account] */\n      dup7\n      and\n      dup5\n      mstore\n      swap1\n      swap2\n      mstore\n      swap1\n      keccak256\n        /* \"contracts/DepositTokenization_flattened.sol\":67262:67298  _roles[role].hasRole[account] = true */\n      dup1\n      sload\n      not(0xff)\n      and\n        /* \"contracts/DepositTokenization_flattened.sol\":67294:67298  true */\n      0x01\n        /* \"contracts/DepositTokenization_flattened.sol\":67262:67298  _roles[role].hasRole[account] = true */\n      or\n      swap1\n      sstore\n        /* \"contracts/DepositTokenization_flattened.sol\":67344:67356  _msgSender() */\n      tag_313\n        /* \"contracts/DepositTokenization_flattened.sol\":9682:9692  msg.sender */\n      caller\n      swap1\n        /* \"contracts/DepositTokenization_flattened.sol\":9603:9699  function _msgSender() internal view virtual returns (address) {... */\n      jump\n        /* \"contracts/DepositTokenization_flattened.sol\":67344:67356  _msgSender() */\n    tag_313:\n      sub(shl(0xa0, 0x01), 0x01)\n        /* \"contracts/DepositTokenization_flattened.sol\":67317:67357  RoleGranted(role, account, _msgSender()) */\n      and\n        /* \"contracts/DepositTokenization_flattened.sol\":67335:67342  account */\n      dup3\n      sub(shl(0xa0, 0x01), 0x01)\n        /* \"contracts/DepositTokenization_flattened.sol\":67317:67357  RoleGranted(role, account, _msgSender()) */\n      and\n        /* \"contracts/DepositTokenization_flattened.sol\":67329:67333  role */\n      dup5\n        /* \"contracts/DepositTokenization_flattened.sol\":67317:67357  RoleGranted(role, account, _msgSender()) */\n      0x2f8788117e7eff1d82e926ec794901d17c78024a50270940304540a733656f0d\n      mload(0x40)\n      mload(0x40)\n      dup1\n      swap2\n      sub\n      swap1\n      log4\n      pop\n        /* \"contracts/DepositTokenization_flattened.sol\":67378:67382  true */\n      0x01\n        /* \"contracts/DepositTokenization_flattened.sol\":67371:67382  return true */\n      jump(tag_164)\n        /* \"contracts/DepositTokenization_flattened.sol\":67219:67436  if (!hasRole(role, account)) {... */\n    tag_312:\n      pop\n        /* \"contracts/DepositTokenization_flattened.sol\":67420:67425  false */\n      0x00\n        /* \"contracts/DepositTokenization_flattened.sol\":67413:67425  return false */\n      jump(tag_164)\n        /* \"contracts/DepositTokenization_flattened.sol\":67677:67994  function _revokeRole(bytes32 role, address account) internal virtual returns (bool) {... */\n    tag_208:\n        /* \"contracts/DepositTokenization_flattened.sol\":67755:67759  bool */\n      0x00\n        /* \"contracts/DepositTokenization_flattened.sol\":67775:67797  hasRole(role, account) */\n      tag_316\n        /* \"contracts/DepositTokenization_flattened.sol\":67783:67787  role */\n      dup4\n        /* \"contracts/DepositTokenization_flattened.sol\":67789:67796  account */\n      dup4\n        /* \"contracts/DepositTokenization_flattened.sol\":67775:67782  hasRole */\n      tag_129\n        /* \"contracts/DepositTokenization_flattened.sol\":67775:67797  hasRole(role, account) */\n      jump\t// in\n    tag_316:\n        /* \"contracts/DepositTokenization_flattened.sol\":67771:67988  if (hasRole(role, account)) {... */\n      iszero\n      tag_312\n      jumpi\n        /* \"contracts/DepositTokenization_flattened.sol\":67845:67850  false */\n      0x00\n        /* \"contracts/DepositTokenization_flattened.sol\":67813:67825  _roles[role] */\n      dup4\n      dup2\n      mstore\n        /* \"contracts/DepositTokenization_flattened.sol\":67813:67819  _roles */\n      0x03\n        /* \"contracts/DepositTokenization_flattened.sol\":67813:67825  _roles[role] */\n      0x20\n      swap1\n      dup2\n      mstore\n      0x40\n      dup1\n      dup4\n      keccak256\n      sub(shl(0xa0, 0x01), 0x01)\n        /* \"contracts/DepositTokenization_flattened.sol\":67813:67842  _roles[role].hasRole[account] */\n      dup7\n      and\n      dup1\n      dup6\n      mstore\n      swap3\n      mstore\n      dup1\n      dup4\n      keccak256\n        /* \"contracts/DepositTokenization_flattened.sol\":67813:67850  _roles[role].hasRole[account] = false */\n      dup1\n      sload\n      not(0xff)\n      and\n      swap1\n      sstore\n        /* \"contracts/DepositTokenization_flattened.sol\":67869:67909  RoleRevoked(role, account, _msgSender()) */\n      mload\n        /* \"contracts/DepositTokenization_flattened.sol\":9682:9692  msg.sender */\n      caller\n      swap3\n        /* \"contracts/DepositTokenization_flattened.sol\":67813:67825  _roles[role] */\n      dup7\n      swap2\n        /* \"contracts/DepositTokenization_flattened.sol\":67869:67909  RoleRevoked(role, account, _msgSender()) */\n      0xf6391f5c32d9c69d2a47ea670b442974b53935d1edc7fd64eb21e047a839171b\n      swap2\n        /* \"contracts/DepositTokenization_flattened.sol\":67845:67850  false */\n      swap1\n        /* \"contracts/DepositTokenization_flattened.sol\":67869:67909  RoleRevoked(role, account, _msgSender()) */\n      log4\n      pop\n        /* \"contracts/DepositTokenization_flattened.sol\":67930:67934  true */\n      0x01\n        /* \"contracts/DepositTokenization_flattened.sol\":67923:67934  return true */\n      jump(tag_164)\n        /* \"contracts/DepositTokenization_flattened.sol\":70684:70801  function _unpause() internal virtual whenPaused {... */\n    tag_213:\n        /* \"contracts/DepositTokenization_flattened.sol\":69695:69711  _requirePaused() */\n      tag_321\n        /* \"contracts/DepositTokenization_flattened.sol\":69695:69709  _requirePaused */\n      tag_322\n        /* \"contracts/DepositTokenization_flattened.sol\":69695:69711  _requirePaused() */\n      jump\t// in\n    tag_321:\n        /* \"contracts/DepositTokenization_flattened.sol\":70742:70749  _paused */\n      0x04\n        /* \"contracts/DepositTokenization_flattened.sol\":70742:70757  _paused = false */\n      dup1\n      sload\n      not(0xff)\n      and\n      swap1\n      sstore\n        /* \"contracts/DepositTokenization_flattened.sol\":70772:70794  Unpaused(_msgSender()) */\n      0x5db9ee0a495bf2e6ff9c91a7834c1ba4fdd244a5e8aa4e537bd38aeae4b073aa\n        /* \"contracts/DepositTokenization_flattened.sol\":9682:9692  msg.sender */\n      caller\n        /* \"contracts/DepositTokenization_flattened.sol\":70781:70793  _msgSender() */\n    tag_324:\n        /* \"contracts/DepositTokenization_flattened.sol\":70772:70794  Unpaused(_msgSender()) */\n      mload(0x40)\n      sub(shl(0xa0, 0x01), 0x01)\n        /* \"#utility.yul\":3519:3551   */\n      swap1\n      swap2\n      and\n        /* \"#utility.yul\":3501:3552   */\n      dup2\n      mstore\n        /* \"#utility.yul\":3489:3491   */\n      0x20\n        /* \"#utility.yul\":3474:3492   */\n      add\n        /* \"contracts/DepositTokenization_flattened.sol\":70772:70794  Unpaused(_msgSender()) */\n      mload(0x40)\n      dup1\n      swap2\n      sub\n      swap1\n      log1\n        /* \"contracts/DepositTokenization_flattened.sol\":70684:70801  function _unpause() internal virtual whenPaused {... */\n      jump\t// out\n        /* \"contracts/DepositTokenization_flattened.sol\":53636:53901  function _burnBatch(address from, uint256[] memory ids, uint256[] memory values) internal {... */\n    tag_245:\n      sub(shl(0xa0, 0x01), 0x01)\n        /* \"contracts/DepositTokenization_flattened.sol\":53740:53758  from == address(0) */\n      dup4\n      and\n        /* \"contracts/DepositTokenization_flattened.sol\":53736:53824  if (from == address(0)) {... */\n      tag_329\n      jumpi\n        /* \"contracts/DepositTokenization_flattened.sol\":53781:53813  ERC1155InvalidSender(address(0)) */\n      mload(0x40)\n      shl(0xe2, 0x6a0d45)\n      dup2\n      mstore\n        /* \"contracts/DepositTokenization_flattened.sol\":53810:53811  0 */\n      0x00\n        /* \"contracts/DepositTokenization_flattened.sol\":53781:53813  ERC1155InvalidSender(address(0)) */\n      0x04\n      dup3\n      add\n        /* \"#utility.yul\":3501:3552   */\n      mstore\n        /* \"#utility.yul\":3474:3492   */\n      0x24\n      add\n        /* \"contracts/DepositTokenization_flattened.sol\":53781:53813  ERC1155InvalidSender(address(0)) */\n      tag_194\n        /* \"#utility.yul\":3330:3558   */\n      jump\n        /* \"contracts/DepositTokenization_flattened.sol\":53736:53824  if (from == address(0)) {... */\n    tag_329:\n        /* \"contracts/DepositTokenization_flattened.sol\":53833:53894  _updateWithAcceptanceCheck(from, address(0), ids, values, \"\") */\n      tag_207\n        /* \"contracts/DepositTokenization_flattened.sol\":53860:53864  from */\n      dup4\n        /* \"contracts/DepositTokenization_flattened.sol\":53874:53875  0 */\n      0x00\n        /* \"contracts/DepositTokenization_flattened.sol\":53878:53881  ids */\n      dup5\n        /* \"contracts/DepositTokenization_flattened.sol\":53883:53889  values */\n      dup5\n        /* \"contracts/DepositTokenization_flattened.sol\":53833:53894  _updateWithAcceptanceCheck(from, address(0), ids, values, \"\") */\n      mload(0x40)\n      dup1\n      0x20\n      add\n      0x40\n      mstore\n      dup1\n      0x00\n      dup2\n      mstore\n      pop\n        /* \"contracts/DepositTokenization_flattened.sol\":53833:53859  _updateWithAcceptanceCheck */\n      tag_302\n        /* \"contracts/DepositTokenization_flattened.sol\":53833:53894  _updateWithAcceptanceCheck(from, address(0), ids, values, \"\") */\n      jump\t// in\n        /* \"contracts/DepositTokenization_flattened.sol\":51598:51944  function _mint(address to, uint256 id, uint256 value, bytes memory data) internal {... */\n    tag_250:\n      sub(shl(0xa0, 0x01), 0x01)\n        /* \"contracts/DepositTokenization_flattened.sol\":51694:51710  to == address(0) */\n      dup5\n      and\n        /* \"contracts/DepositTokenization_flattened.sol\":51690:51778  if (to == address(0)) {... */\n      tag_333\n      jumpi\n        /* \"contracts/DepositTokenization_flattened.sol\":51733:51767  ERC1155InvalidReceiver(address(0)) */\n      mload(0x40)\n      shl(0xe1, 0x2bfa23e7)\n      dup2\n      mstore\n        /* \"contracts/DepositTokenization_flattened.sol\":51764:51765  0 */\n      0x00\n        /* \"contracts/DepositTokenization_flattened.sol\":51733:51767  ERC1155InvalidReceiver(address(0)) */\n      0x04\n      dup3\n      add\n        /* \"#utility.yul\":3501:3552   */\n      mstore\n        /* \"#utility.yul\":3474:3492   */\n      0x24\n      add\n        /* \"contracts/DepositTokenization_flattened.sol\":51733:51767  ERC1155InvalidReceiver(address(0)) */\n      tag_194\n        /* \"#utility.yul\":3330:3558   */\n      jump\n        /* \"contracts/DepositTokenization_flattened.sol\":51690:51778  if (to == address(0)) {... */\n    tag_333:\n        /* \"contracts/DepositTokenization_flattened.sol\":57226:57230  0x40 */\n      0x40\n        /* \"contracts/DepositTokenization_flattened.sol\":57220:57231  mload(0x40) */\n      dup1\n      mload\n        /* \"contracts/DepositTokenization_flattened.sol\":57296:57297  1 */\n      0x01\n        /* \"contracts/DepositTokenization_flattened.sol\":57281:57298  mstore(array1, 1) */\n      dup1\n      dup3\n      mstore\n        /* \"contracts/DepositTokenization_flattened.sol\":57427:57431  0x20 */\n      0x20\n        /* \"contracts/DepositTokenization_flattened.sol\":57415:57432  add(array1, 0x20) */\n      dup3\n      add\n        /* \"contracts/DepositTokenization_flattened.sol\":57408:57443  mstore(add(array1, 0x20), element1) */\n      dup7\n      swap1\n      mstore\n        /* \"contracts/DepositTokenization_flattened.sol\":57544:57561  add(array1, 0x40) */\n      dup2\n      dup4\n      add\n        /* \"contracts/DepositTokenization_flattened.sol\":57574:57591  mstore(array2, 1) */\n      swap1\n      dup2\n      mstore\n        /* \"contracts/DepositTokenization_flattened.sol\":57040:57063  uint256[] memory array1 */\n      0x60\n        /* \"contracts/DepositTokenization_flattened.sol\":57611:57628  add(array2, 0x20) */\n      dup3\n      add\n        /* \"contracts/DepositTokenization_flattened.sol\":57604:57639  mstore(add(array2, 0x20), element2) */\n      dup6\n      swap1\n      mstore\n        /* \"contracts/DepositTokenization_flattened.sol\":57747:57764  add(array2, 0x40) */\n      0x80\n      dup3\n      add\n        /* \"contracts/DepositTokenization_flattened.sol\":57734:57765  mstore(0x40, add(array2, 0x40)) */\n      swap1\n      swap3\n      mstore\n        /* \"contracts/DepositTokenization_flattened.sol\":57220:57231  mload(0x40) */\n      swap1\n        /* \"contracts/DepositTokenization_flattened.sol\":51876:51937  _updateWithAcceptanceCheck(address(0), to, ids, values, data) */\n      tag_196\n      0x00\n        /* \"contracts/DepositTokenization_flattened.sol\":51915:51917  to */\n      dup8\n        /* \"contracts/DepositTokenization_flattened.sol\":57220:57231  mload(0x40) */\n      dup5\n        /* \"contracts/DepositTokenization_flattened.sol\":57544:57561  add(array1, 0x40) */\n      dup5\n        /* \"contracts/DepositTokenization_flattened.sol\":51932:51936  data */\n      dup8\n        /* \"contracts/DepositTokenization_flattened.sol\":51876:51902  _updateWithAcceptanceCheck */\n      tag_302\n        /* \"contracts/DepositTokenization_flattened.sol\":51876:51937  _updateWithAcceptanceCheck(address(0), to, ids, values, data) */\n      jump\t// in\n        /* \"contracts/DepositTokenization_flattened.sol\":70437:70552  function _pause() internal virtual whenNotPaused {... */\n    tag_255:\n        /* \"contracts/DepositTokenization_flattened.sol\":69448:69467  _requireNotPaused() */\n      tag_339\n        /* \"contracts/DepositTokenization_flattened.sol\":69448:69465  _requireNotPaused */\n      tag_340\n        /* \"contracts/DepositTokenization_flattened.sol\":69448:69467  _requireNotPaused() */\n      jump\t// in\n    tag_339:\n        /* \"contracts/DepositTokenization_flattened.sol\":70496:70503  _paused */\n      0x04\n        /* \"contracts/DepositTokenization_flattened.sol\":70496:70510  _paused = true */\n      dup1\n      sload\n      not(0xff)\n      and\n        /* \"contracts/DepositTokenization_flattened.sol\":70506:70510  true */\n      0x01\n        /* \"contracts/DepositTokenization_flattened.sol\":70496:70510  _paused = true */\n      or\n      swap1\n      sstore\n        /* \"contracts/DepositTokenization_flattened.sol\":70525:70545  Paused(_msgSender()) */\n      0x62e78cea01bee320cd4e420270b5ea74000d11b0c9f74754ebdbfc544b05a258\n        /* \"contracts/DepositTokenization_flattened.sol\":70532:70544  _msgSender() */\n      tag_324\n        /* \"contracts/DepositTokenization_flattened.sol\":9682:9692  msg.sender */\n      caller\n      swap1\n        /* \"contracts/DepositTokenization_flattened.sol\":9603:9699  function _msgSender() internal view virtual returns (address) {... */\n      jump\n        /* \"contracts/DepositTokenization_flattened.sol\":54120:54435  function _setApprovalForAll(address owner, address operator, bool approved) internal virtual {... */\n    tag_260:\n      sub(shl(0xa0, 0x01), 0x01)\n        /* \"contracts/DepositTokenization_flattened.sol\":54227:54249  operator == address(0) */\n      dup3\n      and\n        /* \"contracts/DepositTokenization_flattened.sol\":54223:54317  if (operator == address(0)) {... */\n      tag_345\n      jumpi\n        /* \"contracts/DepositTokenization_flattened.sol\":54272:54306  ERC1155InvalidOperator(address(0)) */\n      mload(0x40)\n      shl(0xe8, 0xced3e1)\n      dup2\n      mstore\n        /* \"contracts/DepositTokenization_flattened.sol\":54303:54304  0 */\n      0x00\n        /* \"contracts/DepositTokenization_flattened.sol\":54272:54306  ERC1155InvalidOperator(address(0)) */\n      0x04\n      dup3\n      add\n        /* \"#utility.yul\":3501:3552   */\n      mstore\n        /* \"#utility.yul\":3474:3492   */\n      0x24\n      add\n        /* \"contracts/DepositTokenization_flattened.sol\":54272:54306  ERC1155InvalidOperator(address(0)) */\n      tag_194\n        /* \"#utility.yul\":3330:3558   */\n      jump\n        /* \"contracts/DepositTokenization_flattened.sol\":54223:54317  if (operator == address(0)) {... */\n    tag_345:\n      sub(shl(0xa0, 0x01), 0x01)\n        /* \"contracts/DepositTokenization_flattened.sol\":54326:54351  _operatorApprovals[owner] */\n      dup4\n      dup2\n      and\n      0x00\n      dup2\n      dup2\n      mstore\n        /* \"contracts/DepositTokenization_flattened.sol\":54326:54344  _operatorApprovals */\n      0x01\n        /* \"contracts/DepositTokenization_flattened.sol\":54326:54351  _operatorApprovals[owner] */\n      0x20\n      swap1\n      dup2\n      mstore\n      0x40\n      dup1\n      dup4\n      keccak256\n        /* \"contracts/DepositTokenization_flattened.sol\":54326:54361  _operatorApprovals[owner][operator] */\n      swap5\n      dup8\n      and\n      dup1\n      dup5\n      mstore\n      swap5\n      dup3\n      mstore\n      swap2\n      dup3\n      swap1\n      keccak256\n        /* \"contracts/DepositTokenization_flattened.sol\":54326:54372  _operatorApprovals[owner][operator] = approved */\n      dup1\n      sload\n      not(0xff)\n      and\n      dup7\n      iszero\n      iszero\n      swap1\n      dup2\n      or\n      swap1\n      swap2\n      sstore\n        /* \"contracts/DepositTokenization_flattened.sol\":54387:54428  ApprovalForAll(owner, operator, approved) */\n      swap2\n      mload\n        /* \"#utility.yul\":1205:1246   */\n      swap2\n      dup3\n      mstore\n        /* \"contracts/DepositTokenization_flattened.sol\":54387:54428  ApprovalForAll(owner, operator, approved) */\n      0x17307eab39ab6107e8899845ad3d59bd9653f200f220920489ca2b5937696c31\n      swap2\n        /* \"#utility.yul\":1178:1196   */\n      add\n        /* \"contracts/DepositTokenization_flattened.sol\":54387:54428  ApprovalForAll(owner, operator, approved) */\n      mload(0x40)\n      dup1\n      swap2\n      sub\n      swap1\n      log3\n        /* \"contracts/DepositTokenization_flattened.sol\":54120:54435  function _setApprovalForAll(address owner, address operator, bool approved) internal virtual {... */\n      pop\n      pop\n      pop\n      jump\t// out\n        /* \"contracts/DepositTokenization_flattened.sol\":49003:49466  function _safeTransferFrom(address from, address to, uint256 id, uint256 value, bytes memory data) internal {... */\n    tag_275:\n      sub(shl(0xa0, 0x01), 0x01)\n        /* \"contracts/DepositTokenization_flattened.sol\":49125:49141  to == address(0) */\n      dup5\n      and\n        /* \"contracts/DepositTokenization_flattened.sol\":49121:49209  if (to == address(0)) {... */\n      tag_349\n      jumpi\n        /* \"contracts/DepositTokenization_flattened.sol\":49164:49198  ERC1155InvalidReceiver(address(0)) */\n      mload(0x40)\n      shl(0xe1, 0x2bfa23e7)\n      dup2\n      mstore\n        /* \"contracts/DepositTokenization_flattened.sol\":49195:49196  0 */\n      0x00\n        /* \"contracts/DepositTokenization_flattened.sol\":49164:49198  ERC1155InvalidReceiver(address(0)) */\n      0x04\n      dup3\n      add\n        /* \"#utility.yul\":3501:3552   */\n      mstore\n        /* \"#utility.yul\":3474:3492   */\n      0x24\n      add\n        /* \"contracts/DepositTokenization_flattened.sol\":49164:49198  ERC1155InvalidReceiver(address(0)) */\n      tag_194\n        /* \"#utility.yul\":3330:3558   */\n      jump\n        /* \"contracts/DepositTokenization_flattened.sol\":49121:49209  if (to == address(0)) {... */\n    tag_349:\n      sub(shl(0xa0, 0x01), 0x01)\n        /* \"contracts/DepositTokenization_flattened.sol\":49222:49240  from == address(0) */\n      dup6\n      and\n        /* \"contracts/DepositTokenization_flattened.sol\":49218:49306  if (from == address(0)) {... */\n      tag_351\n      jumpi\n        /* \"contracts/DepositTokenization_flattened.sol\":49263:49295  ERC1155InvalidSender(address(0)) */\n      mload(0x40)\n      shl(0xe2, 0x6a0d45)\n      dup2\n      mstore\n        /* \"contracts/DepositTokenization_flattened.sol\":49292:49293  0 */\n      0x00\n        /* \"contracts/DepositTokenization_flattened.sol\":49263:49295  ERC1155InvalidSender(address(0)) */\n      0x04\n      dup3\n      add\n        /* \"#utility.yul\":3501:3552   */\n      mstore\n        /* \"#utility.yul\":3474:3492   */\n      0x24\n      add\n        /* \"contracts/DepositTokenization_flattened.sol\":49263:49295  ERC1155InvalidSender(address(0)) */\n      tag_194\n        /* \"#utility.yul\":3330:3558   */\n      jump\n        /* \"contracts/DepositTokenization_flattened.sol\":49218:49306  if (from == address(0)) {... */\n    tag_351:\n        /* \"contracts/DepositTokenization_flattened.sol\":57226:57230  0x40 */\n      0x40\n        /* \"contracts/DepositTokenization_flattened.sol\":57220:57231  mload(0x40) */\n      dup1\n      mload\n        /* \"contracts/DepositTokenization_flattened.sol\":57296:57297  1 */\n      0x01\n        /* \"contracts/DepositTokenization_flattened.sol\":57281:57298  mstore(array1, 1) */\n      dup1\n      dup3\n      mstore\n        /* \"contracts/DepositTokenization_flattened.sol\":57427:57431  0x20 */\n      0x20\n        /* \"contracts/DepositTokenization_flattened.sol\":57415:57432  add(array1, 0x20) */\n      dup3\n      add\n        /* \"contracts/DepositTokenization_flattened.sol\":57408:57443  mstore(add(array1, 0x20), element1) */\n      dup7\n      swap1\n      mstore\n        /* \"contracts/DepositTokenization_flattened.sol\":57544:57561  add(array1, 0x40) */\n      dup2\n      dup4\n      add\n        /* \"contracts/DepositTokenization_flattened.sol\":57574:57591  mstore(array2, 1) */\n      swap1\n      dup2\n      mstore\n        /* \"contracts/DepositTokenization_flattened.sol\":57040:57063  uint256[] memory array1 */\n      0x60\n        /* \"contracts/DepositTokenization_flattened.sol\":57611:57628  add(array2, 0x20) */\n      dup3\n      add\n        /* \"contracts/DepositTokenization_flattened.sol\":57604:57639  mstore(add(array2, 0x20), element2) */\n      dup6\n      swap1\n      mstore\n        /* \"contracts/DepositTokenization_flattened.sol\":57747:57764  add(array2, 0x40) */\n      0x80\n      dup3\n      add\n        /* \"contracts/DepositTokenization_flattened.sol\":57734:57765  mstore(0x40, add(array2, 0x40)) */\n      swap1\n      swap3\n      mstore\n        /* \"contracts/DepositTokenization_flattened.sol\":57220:57231  mload(0x40) */\n      swap1\n        /* \"contracts/DepositTokenization_flattened.sol\":49404:49459  _updateWithAcceptanceCheck(from, to, ids, values, data) */\n      tag_354\n        /* \"contracts/DepositTokenization_flattened.sol\":49431:49435  from */\n      dup8\n        /* \"contracts/DepositTokenization_flattened.sol\":49437:49439  to */\n      dup8\n        /* \"contracts/DepositTokenization_flattened.sol\":57220:57231  mload(0x40) */\n      dup5\n        /* \"contracts/DepositTokenization_flattened.sol\":57544:57561  add(array1, 0x40) */\n      dup5\n        /* \"contracts/DepositTokenization_flattened.sol\":49454:49458  data */\n      dup8\n        /* \"contracts/DepositTokenization_flattened.sol\":49404:49430  _updateWithAcceptanceCheck */\n      tag_302\n        /* \"contracts/DepositTokenization_flattened.sol\":49404:49459  _updateWithAcceptanceCheck(from, to, ids, values, data) */\n      jump\t// in\n    tag_354:\n        /* \"contracts/DepositTokenization_flattened.sol\":49111:49466  {... */\n      pop\n      pop\n        /* \"contracts/DepositTokenization_flattened.sol\":49003:49466  function _safeTransferFrom(address from, address to, uint256 id, uint256 value, bytes memory data) internal {... */\n      pop\n      pop\n      pop\n      pop\n      pop\n      jump\t// out\n        /* \"contracts/DepositTokenization_flattened.sol\":52951:53280  function _burn(address from, uint256 id, uint256 value) internal {... */\n    tag_285:\n      sub(shl(0xa0, 0x01), 0x01)\n        /* \"contracts/DepositTokenization_flattened.sol\":53030:53048  from == address(0) */\n      dup4\n      and\n        /* \"contracts/DepositTokenization_flattened.sol\":53026:53114  if (from == address(0)) {... */\n      tag_356\n      jumpi\n        /* \"contracts/DepositTokenization_flattened.sol\":53071:53103  ERC1155InvalidSender(address(0)) */\n      mload(0x40)\n      shl(0xe2, 0x6a0d45)\n      dup2\n      mstore\n        /* \"contracts/DepositTokenization_flattened.sol\":53100:53101  0 */\n      0x00\n        /* \"contracts/DepositTokenization_flattened.sol\":53071:53103  ERC1155InvalidSender(address(0)) */\n      0x04\n      dup3\n      add\n        /* \"#utility.yul\":3501:3552   */\n      mstore\n        /* \"#utility.yul\":3474:3492   */\n      0x24\n      add\n        /* \"contracts/DepositTokenization_flattened.sol\":53071:53103  ERC1155InvalidSender(address(0)) */\n      tag_194\n        /* \"#utility.yul\":3330:3558   */\n      jump\n        /* \"contracts/DepositTokenization_flattened.sol\":53026:53114  if (from == address(0)) {... */\n    tag_356:\n        /* \"contracts/DepositTokenization_flattened.sol\":57226:57230  0x40 */\n      0x40\n        /* \"contracts/DepositTokenization_flattened.sol\":57220:57231  mload(0x40) */\n      dup1\n      mload\n        /* \"contracts/DepositTokenization_flattened.sol\":57296:57297  1 */\n      0x01\n        /* \"contracts/DepositTokenization_flattened.sol\":57281:57298  mstore(array1, 1) */\n      dup1\n      dup3\n      mstore\n        /* \"contracts/DepositTokenization_flattened.sol\":57427:57431  0x20 */\n      0x20\n        /* \"contracts/DepositTokenization_flattened.sol\":57415:57432  add(array1, 0x20) */\n      dup3\n      add\n        /* \"contracts/DepositTokenization_flattened.sol\":57408:57443  mstore(add(array1, 0x20), element1) */\n      dup6\n      swap1\n      mstore\n        /* \"contracts/DepositTokenization_flattened.sol\":57544:57561  add(array1, 0x40) */\n      dup2\n      dup4\n      add\n        /* \"contracts/DepositTokenization_flattened.sol\":57574:57591  mstore(array2, 1) */\n      swap1\n      dup2\n      mstore\n        /* \"contracts/DepositTokenization_flattened.sol\":57040:57063  uint256[] memory array1 */\n      0x60\n        /* \"contracts/DepositTokenization_flattened.sol\":57611:57628  add(array2, 0x20) */\n      dup3\n      add\n        /* \"contracts/DepositTokenization_flattened.sol\":57604:57639  mstore(add(array2, 0x20), element2) */\n      dup5\n      swap1\n      mstore\n        /* \"contracts/DepositTokenization_flattened.sol\":53212:53273  _updateWithAcceptanceCheck(from, address(0), ids, values, \"\") */\n      0xa0\n      dup3\n      add\n      swap1\n      swap3\n      mstore\n      0x00\n        /* \"contracts/DepositTokenization_flattened.sol\":57747:57764  add(array2, 0x40) */\n      0x80\n      dup3\n      add\n        /* \"contracts/DepositTokenization_flattened.sol\":53212:53273  _updateWithAcceptanceCheck(from, address(0), ids, values, \"\") */\n      dup2\n      dup2\n      mstore\n        /* \"contracts/DepositTokenization_flattened.sol\":57220:57231  mload(0x40) */\n      swap2\n      swap3\n        /* \"contracts/DepositTokenization_flattened.sol\":57544:57561  add(array1, 0x40) */\n      swap2\n        /* \"contracts/DepositTokenization_flattened.sol\":53212:53273  _updateWithAcceptanceCheck(from, address(0), ids, values, \"\") */\n      tag_185\n      swap2\n        /* \"contracts/DepositTokenization_flattened.sol\":53239:53243  from */\n      dup8\n      swap2\n        /* \"contracts/DepositTokenization_flattened.sol\":57220:57231  mload(0x40) */\n      dup6\n      swap1\n        /* \"contracts/DepositTokenization_flattened.sol\":57544:57561  add(array1, 0x40) */\n      dup6\n      swap1\n        /* \"contracts/DepositTokenization_flattened.sol\":53212:53238  _updateWithAcceptanceCheck */\n      tag_302\n        /* \"contracts/DepositTokenization_flattened.sol\":53212:53273  _updateWithAcceptanceCheck(from, address(0), ids, values, \"\") */\n      jump\t// in\n        /* \"contracts/DepositTokenization_flattened.sol\":42232:42537  function supportsInterface(bytes4 interfaceId) public view virtual override(ERC165, IERC165) returns (bool) {... */\n    tag_289:\n        /* \"contracts/DepositTokenization_flattened.sol\":42334:42338  bool */\n      0x00\n      not(sub(shl(0xe0, 0x01), 0x01))\n        /* \"contracts/DepositTokenization_flattened.sol\":42369:42410  interfaceId == type(IERC1155).interfaceId */\n      dup3\n      and\n      shl(0xe1, 0x6cdb3d13)\n      eq\n      dup1\n        /* \"contracts/DepositTokenization_flattened.sol\":42369:42478  interfaceId == type(IERC1155).interfaceId ||... */\n      tag_361\n      jumpi\n      pop\n      not(sub(shl(0xe0, 0x01), 0x01))\n        /* \"contracts/DepositTokenization_flattened.sol\":42426:42478  interfaceId == type(IERC1155MetadataURI).interfaceId */\n      dup3\n      and\n      shl(0xe2, 0x03a24d07)\n      eq\n        /* \"contracts/DepositTokenization_flattened.sol\":42369:42478  interfaceId == type(IERC1155).interfaceId ||... */\n    tag_361:\n        /* \"contracts/DepositTokenization_flattened.sol\":42369:42530  interfaceId == type(IERC1155).interfaceId ||... */\n      dup1\n      tag_164\n      jumpi\n      pop\n      shl(0xe0, 0x01ffc9a7)\n      not(sub(shl(0xe0, 0x01), 0x01))\n        /* \"contracts/DepositTokenization_flattened.sol\":10767:10807  interfaceId == type(IERC165).interfaceId */\n      dup4\n      and\n      eq\n        /* \"contracts/DepositTokenization_flattened.sol\":42494:42530  super.supportsInterface(interfaceId) */\n      tag_164\n        /* \"contracts/DepositTokenization_flattened.sol\":10668:10814  function supportsInterface(bytes4 interfaceId) public view virtual returns (bool) {... */\n      jump\n        /* \"contracts/DepositTokenization_flattened.sol\":64379:64576  function _checkRole(bytes32 role, address account) internal view virtual {... */\n    tag_293:\n        /* \"contracts/DepositTokenization_flattened.sol\":64467:64489  hasRole(role, account) */\n      tag_366\n        /* \"contracts/DepositTokenization_flattened.sol\":64475:64479  role */\n      dup3\n        /* \"contracts/DepositTokenization_flattened.sol\":64481:64488  account */\n      dup3\n        /* \"contracts/DepositTokenization_flattened.sol\":64467:64474  hasRole */\n      tag_129\n        /* \"contracts/DepositTokenization_flattened.sol\":64467:64489  hasRole(role, account) */\n      jump\t// in\n    tag_366:\n        /* \"contracts/DepositTokenization_flattened.sol\":64462:64570  if (!hasRole(role, account)) {... */\n      tag_172\n      jumpi\n        /* \"contracts/DepositTokenization_flattened.sol\":64512:64559  AccessControlUnauthorizedAccount(account, role) */\n      mload(0x40)\n      shl(0xe0, 0xe2517d3f)\n      dup2\n      mstore\n      sub(shl(0xa0, 0x01), 0x01)\n        /* \"#utility.yul\":16234:16266   */\n      dup3\n      and\n        /* \"contracts/DepositTokenization_flattened.sol\":64512:64559  AccessControlUnauthorizedAccount(account, role) */\n      0x04\n      dup3\n      add\n        /* \"#utility.yul\":16216:16267   */\n      mstore\n        /* \"#utility.yul\":16283:16301   */\n      0x24\n      dup2\n      add\n        /* \"#utility.yul\":16276:16310   */\n      dup4\n      swap1\n      mstore\n        /* \"#utility.yul\":16189:16207   */\n      0x44\n      add\n        /* \"contracts/DepositTokenization_flattened.sol\":64512:64559  AccessControlUnauthorizedAccount(account, role) */\n      tag_194\n        /* \"#utility.yul\":16042:16316   */\n      jump\n        /* \"contracts/DepositTokenization_flattened.sol\":47856:48546  function _updateWithAcceptanceCheck(... */\n    tag_302:\n        /* \"contracts/DepositTokenization_flattened.sol\":48057:48087  _update(from, to, ids, values) */\n      tag_371\n        /* \"contracts/DepositTokenization_flattened.sol\":48065:48069  from */\n      dup6\n        /* \"contracts/DepositTokenization_flattened.sol\":48071:48073  to */\n      dup6\n        /* \"contracts/DepositTokenization_flattened.sol\":48075:48078  ids */\n      dup6\n        /* \"contracts/DepositTokenization_flattened.sol\":48080:48086  values */\n      dup6\n        /* \"contracts/DepositTokenization_flattened.sol\":48057:48064  _update */\n      tag_372\n        /* \"contracts/DepositTokenization_flattened.sol\":48057:48087  _update(from, to, ids, values) */\n      jump\t// in\n    tag_371:\n      sub(shl(0xa0, 0x01), 0x01)\n        /* \"contracts/DepositTokenization_flattened.sol\":48101:48117  to != address(0) */\n      dup5\n      and\n      iszero\n        /* \"contracts/DepositTokenization_flattened.sol\":48097:48540  if (to != address(0)) {... */\n      tag_185\n      jumpi\n        /* \"contracts/DepositTokenization_flattened.sol\":48182:48192  ids.length */\n      dup3\n      mload\n        /* \"contracts/DepositTokenization_flattened.sol\":9682:9692  msg.sender */\n      caller\n      swap1\n        /* \"contracts/DepositTokenization_flattened.sol\":48196:48197  1 */\n      0x01\n        /* \"contracts/DepositTokenization_flattened.sol\":48182:48197  ids.length == 1 */\n      sub\n        /* \"contracts/DepositTokenization_flattened.sol\":48178:48530  if (ids.length == 1) {... */\n      tag_375\n      jumpi\n        /* \"contracts/DepositTokenization_flattened.sol\":34630:34634  0x20 */\n      0x20\n        /* \"contracts/DepositTokenization_flattened.sol\":34601:34636  add(add(arr, 0x20), mul(pos, 0x20)) */\n      dup5\n      dup2\n      add\n        /* \"contracts/DepositTokenization_flattened.sol\":34595:34637  mload(add(add(arr, 0x20), mul(pos, 0x20))) */\n      mload\n        /* \"contracts/DepositTokenization_flattened.sol\":34601:34636  add(add(arr, 0x20), mul(pos, 0x20)) */\n      swap1\n      dup5\n      add\n        /* \"contracts/DepositTokenization_flattened.sol\":34595:34637  mload(add(add(arr, 0x20), mul(pos, 0x20))) */\n      mload\n        /* \"contracts/DepositTokenization_flattened.sol\":48335:48402  _doSafeTransferAcceptanceCheck(operator, from, to, id, value, data) */\n      tag_378\n        /* \"contracts/DepositTokenization_flattened.sol\":48366:48374  operator */\n      dup4\n        /* \"contracts/DepositTokenization_flattened.sol\":48376:48380  from */\n      dup10\n        /* \"contracts/DepositTokenization_flattened.sol\":48382:48384  to */\n      dup10\n        /* \"contracts/DepositTokenization_flattened.sol\":34595:34637  mload(add(add(arr, 0x20), mul(pos, 0x20))) */\n      dup6\n      dup6\n        /* \"contracts/DepositTokenization_flattened.sol\":48397:48401  data */\n      dup10\n        /* \"contracts/DepositTokenization_flattened.sol\":48335:48365  _doSafeTransferAcceptanceCheck */\n      tag_379\n        /* \"contracts/DepositTokenization_flattened.sol\":48335:48402  _doSafeTransferAcceptanceCheck(operator, from, to, id, value, data) */\n      jump\t// in\n    tag_378:\n        /* \"contracts/DepositTokenization_flattened.sol\":48199:48417  {... */\n      pop\n      pop\n        /* \"contracts/DepositTokenization_flattened.sol\":48178:48530  if (ids.length == 1) {... */\n      jump(tag_196)\n    tag_375:\n        /* \"contracts/DepositTokenization_flattened.sol\":48441:48515  _doSafeBatchTransferAcceptanceCheck(operator, from, to, ids, values, data) */\n      tag_196\n        /* \"contracts/DepositTokenization_flattened.sol\":48477:48485  operator */\n      dup2\n        /* \"contracts/DepositTokenization_flattened.sol\":48487:48491  from */\n      dup8\n        /* \"contracts/DepositTokenization_flattened.sol\":48493:48495  to */\n      dup8\n        /* \"contracts/DepositTokenization_flattened.sol\":48497:48500  ids */\n      dup8\n        /* \"contracts/DepositTokenization_flattened.sol\":48502:48508  values */\n      dup8\n        /* \"contracts/DepositTokenization_flattened.sol\":48510:48514  data */\n      dup8\n        /* \"contracts/DepositTokenization_flattened.sol\":48441:48476  _doSafeBatchTransferAcceptanceCheck */\n      tag_382\n        /* \"contracts/DepositTokenization_flattened.sol\":48441:48515  _doSafeBatchTransferAcceptanceCheck(operator, from, to, ids, values, data) */\n      jump\t// in\n        /* \"contracts/DepositTokenization_flattened.sol\":70176:70302  function _requirePaused() internal view virtual {... */\n    tag_322:\n        /* \"contracts/DepositTokenization_flattened.sol\":69894:69901  _paused */\n      and(0xff, sload(0x04))\n        /* \"contracts/DepositTokenization_flattened.sol\":70234:70296  if (!paused()) {... */\n      tag_385\n      jumpi\n        /* \"contracts/DepositTokenization_flattened.sol\":70270:70285  ExpectedPause() */\n      mload(0x40)\n      shl(0xe0, 0x8dfc202b)\n      dup2\n      mstore\n      0x04\n      add\n      mload(0x40)\n      dup1\n      swap2\n      sub\n      swap1\n      revert\n        /* \"contracts/DepositTokenization_flattened.sol\":70234:70296  if (!paused()) {... */\n    tag_385:\n        /* \"contracts/DepositTokenization_flattened.sol\":70176:70302  function _requirePaused() internal view virtual {... */\n      jump\t// out\n        /* \"contracts/DepositTokenization_flattened.sol\":69976:70104  function _requireNotPaused() internal view virtual {... */\n    tag_340:\n        /* \"contracts/DepositTokenization_flattened.sol\":69894:69901  _paused */\n      and(0xff, sload(0x04))\n        /* \"contracts/DepositTokenization_flattened.sol\":70037:70098  if (paused()) {... */\n      iszero\n      tag_385\n      jumpi\n        /* \"contracts/DepositTokenization_flattened.sol\":70072:70087  EnforcedPause() */\n      mload(0x40)\n      shl(0xe0, 0xd93c0665)\n      dup2\n      mstore\n      0x04\n      add\n      mload(0x40)\n      dup1\n      swap2\n      sub\n      swap1\n      revert\n        /* \"contracts/DepositTokenization_flattened.sol\":82696:82918  function _update(address from, address to, uint256[] memory ids, uint256[] memory values)... */\n    tag_372:\n        /* \"contracts/DepositTokenization_flattened.sol\":82875:82911  super._update(from, to, ids, values) */\n      tag_202\n        /* \"contracts/DepositTokenization_flattened.sol\":82889:82893  from */\n      dup5\n        /* \"contracts/DepositTokenization_flattened.sol\":82895:82897  to */\n      dup5\n        /* \"contracts/DepositTokenization_flattened.sol\":82899:82902  ids */\n      dup5\n        /* \"contracts/DepositTokenization_flattened.sol\":82904:82910  values */\n      dup5\n        /* \"contracts/DepositTokenization_flattened.sol\":82875:82888  super._update */\n      tag_393\n        /* \"contracts/DepositTokenization_flattened.sol\":82875:82911  super._update(from, to, ids, values) */\n      jump\t// in\n        /* \"contracts/DepositTokenization_flattened.sol\":54613:55587  function _doSafeTransferAcceptanceCheck(... */\n    tag_379:\n      sub(shl(0xa0, 0x01), 0x01)\n        /* \"contracts/DepositTokenization_flattened.sol\":54819:54833  to.code.length */\n      dup5\n      and\n      extcodesize\n        /* \"contracts/DepositTokenization_flattened.sol\":54819:54837  to.code.length > 0 */\n      iszero\n        /* \"contracts/DepositTokenization_flattened.sol\":54815:55581  if (to.code.length > 0) {... */\n      tag_196\n      jumpi\n        /* \"contracts/DepositTokenization_flattened.sol\":54857:54928  IERC1155Receiver(to).onERC1155Received(operator, from, id, value, data) */\n      mload(0x40)\n      shl(0xe0, 0xf23a6e61)\n      dup2\n      mstore\n      sub(shl(0xa0, 0x01), 0x01)\n        /* \"contracts/DepositTokenization_flattened.sol\":54857:54895  IERC1155Receiver(to).onERC1155Received */\n      dup6\n      and\n      swap1\n      0xf23a6e61\n      swap1\n        /* \"contracts/DepositTokenization_flattened.sol\":54857:54928  IERC1155Receiver(to).onERC1155Received(operator, from, id, value, data) */\n      tag_396\n      swap1\n        /* \"contracts/DepositTokenization_flattened.sol\":54896:54904  operator */\n      dup10\n      swap1\n        /* \"contracts/DepositTokenization_flattened.sol\":54906:54910  from */\n      dup10\n      swap1\n        /* \"contracts/DepositTokenization_flattened.sol\":54912:54914  id */\n      dup9\n      swap1\n        /* \"contracts/DepositTokenization_flattened.sol\":54916:54921  value */\n      dup9\n      swap1\n        /* \"contracts/DepositTokenization_flattened.sol\":54923:54927  data */\n      dup9\n      swap1\n        /* \"contracts/DepositTokenization_flattened.sol\":54857:54928  IERC1155Receiver(to).onERC1155Received(operator, from, id, value, data) */\n      0x04\n      add\n      tag_397\n      jump\t// in\n    tag_396:\n      0x20\n      mload(0x40)\n      dup1\n      dup4\n      sub\n      dup2\n      0x00\n      dup8\n      gas\n      call\n      swap3\n      pop\n      pop\n      pop\n      dup1\n      iszero\n      tag_398\n      jumpi\n      pop\n      0x40\n      dup1\n      mload\n      0x1f\n      returndatasize\n      swap1\n      dup2\n      add\n      not(0x1f)\n      and\n      dup3\n      add\n      swap1\n      swap3\n      mstore\n      tag_399\n      swap2\n      dup2\n      add\n      swap1\n      tag_400\n      jump\t// in\n    tag_399:\n      0x01\n    tag_398:\n        /* \"contracts/DepositTokenization_flattened.sol\":54853:55571  try IERC1155Receiver(to).onERC1155Received(operator, from, id, value, data) returns (bytes4 response) {... */\n      tag_401\n      jumpi\n      returndatasize\n      dup1\n      dup1\n      iszero\n      tag_406\n      jumpi\n      mload(0x40)\n      swap2\n      pop\n      and(add(returndatasize, 0x3f), not(0x1f))\n      dup3\n      add\n      0x40\n      mstore\n      returndatasize\n      dup3\n      mstore\n      returndatasize\n      0x00\n      0x20\n      dup5\n      add\n      returndatacopy\n      jump(tag_405)\n    tag_406:\n      0x60\n      swap2\n      pop\n    tag_405:\n      pop\n        /* \"contracts/DepositTokenization_flattened.sol\":55212:55218  reason */\n      dup1\n        /* \"contracts/DepositTokenization_flattened.sol\":55212:55225  reason.length */\n      mload\n        /* \"contracts/DepositTokenization_flattened.sol\":55229:55230  0 */\n      0x00\n        /* \"contracts/DepositTokenization_flattened.sol\":55212:55230  reason.length == 0 */\n      sub\n        /* \"contracts/DepositTokenization_flattened.sol\":55208:55557  if (reason.length == 0) {... */\n      tag_407\n      jumpi\n        /* \"contracts/DepositTokenization_flattened.sol\":55316:55342  ERC1155InvalidReceiver(to) */\n      mload(0x40)\n      shl(0xe1, 0x2bfa23e7)\n      dup2\n      mstore\n      sub(shl(0xa0, 0x01), 0x01)\n        /* \"#utility.yul\":3519:3551   */\n      dup7\n      and\n        /* \"contracts/DepositTokenization_flattened.sol\":55316:55342  ERC1155InvalidReceiver(to) */\n      0x04\n      dup3\n      add\n        /* \"#utility.yul\":3501:3552   */\n      mstore\n        /* \"#utility.yul\":3474:3492   */\n      0x24\n      add\n        /* \"contracts/DepositTokenization_flattened.sol\":55316:55342  ERC1155InvalidReceiver(to) */\n      tag_194\n        /* \"#utility.yul\":3330:3558   */\n      jump\n        /* \"contracts/DepositTokenization_flattened.sol\":55208:55557  if (reason.length == 0) {... */\n    tag_407:\n        /* \"contracts/DepositTokenization_flattened.sol\":55509:55515  reason */\n      dup1\n        /* \"contracts/DepositTokenization_flattened.sol\":55503:55516  mload(reason) */\n      mload\n        /* \"contracts/DepositTokenization_flattened.sol\":55494:55500  reason */\n      dup2\n        /* \"contracts/DepositTokenization_flattened.sol\":55490:55492  32 */\n      0x20\n        /* \"contracts/DepositTokenization_flattened.sol\":55486:55501  add(32, reason) */\n      add\n        /* \"contracts/DepositTokenization_flattened.sol\":55479:55517  revert(add(32, reason), mload(reason)) */\n      revert\n        /* \"contracts/DepositTokenization_flattened.sol\":54853:55571  try IERC1155Receiver(to).onERC1155Received(operator, from, id, value, data) returns (bytes4 response) {... */\n    tag_401:\n      not(sub(shl(0xe0, 0x01), 0x01))\n        /* \"contracts/DepositTokenization_flattened.sol\":54977:55032  response != IERC1155Receiver.onERC1155Received.selector */\n      dup2\n      and\n      shl(0xe0, 0xf23a6e61)\n      eq\n        /* \"contracts/DepositTokenization_flattened.sol\":54973:55147  if (response != IERC1155Receiver.onERC1155Received.selector) {... */\n      tag_354\n      jumpi\n        /* \"contracts/DepositTokenization_flattened.sol\":55102:55128  ERC1155InvalidReceiver(to) */\n      mload(0x40)\n      shl(0xe1, 0x2bfa23e7)\n      dup2\n      mstore\n      sub(shl(0xa0, 0x01), 0x01)\n        /* \"#utility.yul\":3519:3551   */\n      dup7\n      and\n        /* \"contracts/DepositTokenization_flattened.sol\":55102:55128  ERC1155InvalidReceiver(to) */\n      0x04\n      dup3\n      add\n        /* \"#utility.yul\":3501:3552   */\n      mstore\n        /* \"#utility.yul\":3474:3492   */\n      0x24\n      add\n        /* \"contracts/DepositTokenization_flattened.sol\":55102:55128  ERC1155InvalidReceiver(to) */\n      tag_194\n        /* \"#utility.yul\":3330:3558   */\n      jump\n        /* \"contracts/DepositTokenization_flattened.sol\":55775:56816  function _doSafeBatchTransferAcceptanceCheck(... */\n    tag_382:\n      sub(shl(0xa0, 0x01), 0x01)\n        /* \"contracts/DepositTokenization_flattened.sol\":56006:56020  to.code.length */\n      dup5\n      and\n      extcodesize\n        /* \"contracts/DepositTokenization_flattened.sol\":56006:56024  to.code.length > 0 */\n      iszero\n        /* \"contracts/DepositTokenization_flattened.sol\":56002:56810  if (to.code.length > 0) {... */\n      tag_196\n      jumpi\n        /* \"contracts/DepositTokenization_flattened.sol\":56044:56122  IERC1155Receiver(to).onERC1155BatchReceived(operator, from, ids, values, data) */\n      mload(0x40)\n      shl(0xe0, 0xbc197c81)\n      dup2\n      mstore\n      sub(shl(0xa0, 0x01), 0x01)\n        /* \"contracts/DepositTokenization_flattened.sol\":56044:56087  IERC1155Receiver(to).onERC1155BatchReceived */\n      dup6\n      and\n      swap1\n      0xbc197c81\n      swap1\n        /* \"contracts/DepositTokenization_flattened.sol\":56044:56122  IERC1155Receiver(to).onERC1155BatchReceived(operator, from, ids, values, data) */\n      tag_415\n      swap1\n        /* \"contracts/DepositTokenization_flattened.sol\":56088:56096  operator */\n      dup10\n      swap1\n        /* \"contracts/DepositTokenization_flattened.sol\":56098:56102  from */\n      dup10\n      swap1\n        /* \"contracts/DepositTokenization_flattened.sol\":56104:56107  ids */\n      dup9\n      swap1\n        /* \"contracts/DepositTokenization_flattened.sol\":56109:56115  values */\n      dup9\n      swap1\n        /* \"contracts/DepositTokenization_flattened.sol\":56117:56121  data */\n      dup9\n      swap1\n        /* \"contracts/DepositTokenization_flattened.sol\":56044:56122  IERC1155Receiver(to).onERC1155BatchReceived(operator, from, ids, values, data) */\n      0x04\n      add\n      tag_416\n      jump\t// in\n    tag_415:\n      0x20\n      mload(0x40)\n      dup1\n      dup4\n      sub\n      dup2\n      0x00\n      dup8\n      gas\n      call\n      swap3\n      pop\n      pop\n      pop\n      dup1\n      iszero\n      tag_417\n      jumpi\n      pop\n      0x40\n      dup1\n      mload\n      0x1f\n      returndatasize\n      swap1\n      dup2\n      add\n      not(0x1f)\n      and\n      dup3\n      add\n      swap1\n      swap3\n      mstore\n      tag_418\n      swap2\n      dup2\n      add\n      swap1\n      tag_400\n      jump\t// in\n    tag_418:\n      0x01\n    tag_417:\n        /* \"contracts/DepositTokenization_flattened.sol\":56040:56800  try IERC1155Receiver(to).onERC1155BatchReceived(operator, from, ids, values, data) returns (... */\n      tag_419\n      jumpi\n      returndatasize\n      dup1\n      dup1\n      iszero\n      tag_406\n      jumpi\n      mload(0x40)\n      swap2\n      pop\n      and(add(returndatasize, 0x3f), not(0x1f))\n      dup3\n      add\n      0x40\n      mstore\n      returndatasize\n      dup3\n      mstore\n      returndatasize\n      0x00\n      0x20\n      dup5\n      add\n      returndatacopy\n      jump(tag_405)\n    tag_419:\n      not(sub(shl(0xe0, 0x01), 0x01))\n        /* \"contracts/DepositTokenization_flattened.sol\":56201:56261  response != IERC1155Receiver.onERC1155BatchReceived.selector */\n      dup2\n      and\n      shl(0xe0, 0xbc197c81)\n      eq\n        /* \"contracts/DepositTokenization_flattened.sol\":56197:56376  if (response != IERC1155Receiver.onERC1155BatchReceived.selector) {... */\n      tag_354\n      jumpi\n        /* \"contracts/DepositTokenization_flattened.sol\":56331:56357  ERC1155InvalidReceiver(to) */\n      mload(0x40)\n      shl(0xe1, 0x2bfa23e7)\n      dup2\n      mstore\n      sub(shl(0xa0, 0x01), 0x01)\n        /* \"#utility.yul\":3519:3551   */\n      dup7\n      and\n        /* \"contracts/DepositTokenization_flattened.sol\":56331:56357  ERC1155InvalidReceiver(to) */\n      0x04\n      dup3\n      add\n        /* \"#utility.yul\":3501:3552   */\n      mstore\n        /* \"#utility.yul\":3474:3492   */\n      0x24\n      add\n        /* \"contracts/DepositTokenization_flattened.sol\":56331:56357  ERC1155InvalidReceiver(to) */\n      tag_194\n        /* \"#utility.yul\":3330:3558   */\n      jump\n        /* \"contracts/DepositTokenization_flattened.sol\":74608:76126  function _update(... */\n    tag_393:\n        /* \"contracts/DepositTokenization_flattened.sol\":74772:74808  super._update(from, to, ids, values) */\n      tag_432\n        /* \"contracts/DepositTokenization_flattened.sol\":74786:74790  from */\n      dup5\n        /* \"contracts/DepositTokenization_flattened.sol\":74792:74794  to */\n      dup5\n        /* \"contracts/DepositTokenization_flattened.sol\":74796:74799  ids */\n      dup5\n        /* \"contracts/DepositTokenization_flattened.sol\":74801:74807  values */\n      dup5\n        /* \"contracts/DepositTokenization_flattened.sol\":74772:74785  super._update */\n      tag_433\n        /* \"contracts/DepositTokenization_flattened.sol\":74772:74808  super._update(from, to, ids, values) */\n      jump\t// in\n    tag_432:\n      sub(shl(0xa0, 0x01), 0x01)\n        /* \"contracts/DepositTokenization_flattened.sol\":74823:74841  from == address(0) */\n      dup5\n      and\n        /* \"contracts/DepositTokenization_flattened.sol\":74819:75352  if (from == address(0)) {... */\n      tag_434\n      jumpi\n        /* \"contracts/DepositTokenization_flattened.sol\":74857:74879  uint256 totalMintValue */\n      0x00\n        /* \"contracts/DepositTokenization_flattened.sol\":74902:74911  uint256 i */\n      dup1\n        /* \"contracts/DepositTokenization_flattened.sol\":74897:75190  for (uint256 i = 0; i < ids.length; ++i) {... */\n    tag_435:\n        /* \"contracts/DepositTokenization_flattened.sol\":74921:74924  ids */\n      dup4\n        /* \"contracts/DepositTokenization_flattened.sol\":74921:74931  ids.length */\n      mload\n        /* \"contracts/DepositTokenization_flattened.sol\":74917:74918  i */\n      dup2\n        /* \"contracts/DepositTokenization_flattened.sol\":74917:74931  i < ids.length */\n      lt\n        /* \"contracts/DepositTokenization_flattened.sol\":74897:75190  for (uint256 i = 0; i < ids.length; ++i) {... */\n      iszero\n      tag_436\n      jumpi\n        /* \"contracts/DepositTokenization_flattened.sol\":74956:74969  uint256 value */\n      0x00\n        /* \"contracts/DepositTokenization_flattened.sol\":74972:74978  values */\n      dup4\n        /* \"contracts/DepositTokenization_flattened.sol\":74979:74980  i */\n      dup3\n        /* \"contracts/DepositTokenization_flattened.sol\":74972:74981  values[i] */\n      dup2\n      mload\n      dup2\n      lt\n      tag_439\n      jumpi\n      tag_439\n      tag_232\n      jump\t// in\n    tag_439:\n      0x20\n      mul\n      0x20\n      add\n      add\n      mload\n        /* \"contracts/DepositTokenization_flattened.sol\":74956:74981  uint256 value = values[i] */\n      swap1\n      pop\n        /* \"contracts/DepositTokenization_flattened.sol\":75129:75134  value */\n      dup1\n        /* \"contracts/DepositTokenization_flattened.sol\":75105:75117  _totalSupply */\n      0x05\n        /* \"contracts/DepositTokenization_flattened.sol\":75105:75125  _totalSupply[ids[i]] */\n      0x00\n        /* \"contracts/DepositTokenization_flattened.sol\":75118:75121  ids */\n      dup8\n        /* \"contracts/DepositTokenization_flattened.sol\":75122:75123  i */\n      dup6\n        /* \"contracts/DepositTokenization_flattened.sol\":75118:75124  ids[i] */\n      dup2\n      mload\n      dup2\n      lt\n      tag_441\n      jumpi\n      tag_441\n      tag_232\n      jump\t// in\n    tag_441:\n      0x20\n      mul\n      0x20\n      add\n      add\n      mload\n        /* \"contracts/DepositTokenization_flattened.sol\":75105:75125  _totalSupply[ids[i]] */\n      dup2\n      mstore\n      0x20\n      add\n      swap1\n      dup2\n      mstore\n      0x20\n      add\n      0x00\n      keccak256\n      0x00\n        /* \"contracts/DepositTokenization_flattened.sol\":75105:75134  _totalSupply[ids[i]] += value */\n      dup3\n      dup3\n      sload\n      tag_442\n      swap2\n      swap1\n      tag_443\n      jump\t// in\n    tag_442:\n      swap1\n      swap2\n      sstore\n      pop\n        /* \"contracts/DepositTokenization_flattened.sol\":75152:75175  totalMintValue += value */\n      tag_444\n      swap1\n      pop\n        /* \"contracts/DepositTokenization_flattened.sol\":75170:75175  value */\n      dup2\n        /* \"contracts/DepositTokenization_flattened.sol\":75152:75175  totalMintValue += value */\n      dup5\n      tag_443\n      jump\t// in\n    tag_444:\n      swap3\n      pop\n      pop\n        /* \"contracts/DepositTokenization_flattened.sol\":74933:74936  ++i */\n      0x01\n      add\n        /* \"contracts/DepositTokenization_flattened.sol\":74897:75190  for (uint256 i = 0; i < ids.length; ++i) {... */\n      jump(tag_435)\n    tag_436:\n      pop\n        /* \"contracts/DepositTokenization_flattened.sol\":75327:75341  totalMintValue */\n      dup1\n        /* \"contracts/DepositTokenization_flattened.sol\":75308:75323  _totalSupplyAll */\n      0x06\n      0x00\n        /* \"contracts/DepositTokenization_flattened.sol\":75308:75341  _totalSupplyAll += totalMintValue */\n      dup3\n      dup3\n      sload\n      tag_445\n      swap2\n      swap1\n      tag_443\n      jump\t// in\n    tag_445:\n      swap1\n      swap2\n      sstore\n      pop\n      pop\n      pop\n        /* \"contracts/DepositTokenization_flattened.sol\":74819:75352  if (from == address(0)) {... */\n    tag_434:\n      sub(shl(0xa0, 0x01), 0x01)\n        /* \"contracts/DepositTokenization_flattened.sol\":75366:75382  to == address(0) */\n      dup4\n      and\n        /* \"contracts/DepositTokenization_flattened.sol\":75362:76120  if (to == address(0)) {... */\n      tag_202\n      jumpi\n        /* \"contracts/DepositTokenization_flattened.sol\":75398:75420  uint256 totalBurnValue */\n      0x00\n        /* \"contracts/DepositTokenization_flattened.sol\":75443:75452  uint256 i */\n      dup1\n        /* \"contracts/DepositTokenization_flattened.sol\":75438:75897  for (uint256 i = 0; i < ids.length; ++i) {... */\n    tag_447:\n        /* \"contracts/DepositTokenization_flattened.sol\":75462:75465  ids */\n      dup4\n        /* \"contracts/DepositTokenization_flattened.sol\":75462:75472  ids.length */\n      mload\n        /* \"contracts/DepositTokenization_flattened.sol\":75458:75459  i */\n      dup2\n        /* \"contracts/DepositTokenization_flattened.sol\":75458:75472  i < ids.length */\n      lt\n        /* \"contracts/DepositTokenization_flattened.sol\":75438:75897  for (uint256 i = 0; i < ids.length; ++i) {... */\n      iszero\n      tag_448\n      jumpi\n        /* \"contracts/DepositTokenization_flattened.sol\":75497:75510  uint256 value */\n      0x00\n        /* \"contracts/DepositTokenization_flattened.sol\":75513:75519  values */\n      dup4\n        /* \"contracts/DepositTokenization_flattened.sol\":75520:75521  i */\n      dup3\n        /* \"contracts/DepositTokenization_flattened.sol\":75513:75522  values[i] */\n      dup2\n      mload\n      dup2\n      lt\n      tag_451\n      jumpi\n      tag_451\n      tag_232\n      jump\t// in\n    tag_451:\n      0x20\n      mul\n      0x20\n      add\n      add\n      mload\n        /* \"contracts/DepositTokenization_flattened.sol\":75497:75522  uint256 value = values[i] */\n      swap1\n      pop\n        /* \"contracts/DepositTokenization_flattened.sol\":75703:75708  value */\n      dup1\n        /* \"contracts/DepositTokenization_flattened.sol\":75679:75691  _totalSupply */\n      0x05\n        /* \"contracts/DepositTokenization_flattened.sol\":75679:75699  _totalSupply[ids[i]] */\n      0x00\n        /* \"contracts/DepositTokenization_flattened.sol\":75692:75695  ids */\n      dup8\n        /* \"contracts/DepositTokenization_flattened.sol\":75696:75697  i */\n      dup6\n        /* \"contracts/DepositTokenization_flattened.sol\":75692:75698  ids[i] */\n      dup2\n      mload\n      dup2\n      lt\n      tag_453\n      jumpi\n      tag_453\n      tag_232\n      jump\t// in\n    tag_453:\n      0x20\n      swap1\n      dup2\n      mul\n      swap2\n      swap1\n      swap2\n      add\n      dup2\n      add\n      mload\n        /* \"contracts/DepositTokenization_flattened.sol\":75679:75699  _totalSupply[ids[i]] */\n      dup3\n      mstore\n      dup2\n      add\n      swap2\n      swap1\n      swap2\n      mstore\n      0x40\n      add\n      0x00\n      keccak256\n        /* \"contracts/DepositTokenization_flattened.sol\":75679:75708  _totalSupply[ids[i]] -= value */\n      dup1\n      sload\n      swap2\n      swap1\n      swap2\n      sub\n      swap1\n      sstore\n        /* \"contracts/DepositTokenization_flattened.sol\":75841:75864  totalBurnValue += value */\n      swap2\n      swap1\n      swap2\n      add\n      swap1\n      0x01\n        /* \"contracts/DepositTokenization_flattened.sol\":75474:75477  ++i */\n      add\n        /* \"contracts/DepositTokenization_flattened.sol\":75438:75897  for (uint256 i = 0; i < ids.length; ++i) {... */\n      jump(tag_447)\n    tag_448:\n      pop\n        /* \"contracts/DepositTokenization_flattened.sol\":76062:76077  _totalSupplyAll */\n      0x06\n        /* \"contracts/DepositTokenization_flattened.sol\":76062:76095  _totalSupplyAll -= totalBurnValue */\n      dup1\n      sload\n      swap2\n      swap1\n      swap2\n      sub\n      swap1\n      sstore\n        /* \"contracts/DepositTokenization_flattened.sol\":74608:76126  function _update(... */\n      pop\n      pop\n      pop\n      pop\n      jump\t// out\n        /* \"contracts/DepositTokenization_flattened.sol\":71888:72109  function _update(... */\n    tag_433:\n        /* \"contracts/DepositTokenization_flattened.sol\":69448:69467  _requireNotPaused() */\n      tag_455\n        /* \"contracts/DepositTokenization_flattened.sol\":69448:69465  _requireNotPaused */\n      tag_340\n        /* \"contracts/DepositTokenization_flattened.sol\":69448:69467  _requireNotPaused() */\n      jump\t// in\n    tag_455:\n        /* \"contracts/DepositTokenization_flattened.sol\":72066:72102  super._update(from, to, ids, values) */\n      tag_202\n        /* \"contracts/DepositTokenization_flattened.sol\":72080:72084  from */\n      dup5\n        /* \"contracts/DepositTokenization_flattened.sol\":72086:72088  to */\n      dup5\n        /* \"contracts/DepositTokenization_flattened.sol\":72090:72093  ids */\n      dup5\n        /* \"contracts/DepositTokenization_flattened.sol\":72095:72101  values */\n      dup5\n        /* \"contracts/DepositTokenization_flattened.sol\":46131:46137  values */\n      dup1\n        /* \"contracts/DepositTokenization_flattened.sol\":46131:46144  values.length */\n      mload\n        /* \"contracts/DepositTokenization_flattened.sol\":46117:46120  ids */\n      dup3\n        /* \"contracts/DepositTokenization_flattened.sol\":46117:46127  ids.length */\n      mload\n        /* \"contracts/DepositTokenization_flattened.sol\":46117:46144  ids.length != values.length */\n      eq\n        /* \"contracts/DepositTokenization_flattened.sol\":46113:46230  if (ids.length != values.length) {... */\n      tag_460\n      jumpi\n        /* \"contracts/DepositTokenization_flattened.sol\":46193:46203  ids.length */\n      dup2\n      mload\n        /* \"contracts/DepositTokenization_flattened.sol\":46205:46218  values.length */\n      dup2\n      mload\n        /* \"contracts/DepositTokenization_flattened.sol\":46167:46219  ERC1155InvalidArrayLength(ids.length, values.length) */\n      mload(0x40)\n      shl(0xe0, 0x5b059991)\n      dup2\n      mstore\n      0x04\n      dup2\n      add\n        /* \"#utility.yul\":13499:13524   */\n      swap3\n      swap1\n      swap3\n      mstore\n        /* \"#utility.yul\":13540:13558   */\n      0x24\n      dup3\n      add\n        /* \"#utility.yul\":13533:13567   */\n      mstore\n        /* \"#utility.yul\":13472:13490   */\n      0x44\n      add\n        /* \"contracts/DepositTokenization_flattened.sol\":46167:46219  ERC1155InvalidArrayLength(ids.length, values.length) */\n      tag_194\n        /* \"#utility.yul\":13325:13573   */\n      jump\n        /* \"contracts/DepositTokenization_flattened.sol\":46113:46230  if (ids.length != values.length) {... */\n    tag_460:\n        /* \"contracts/DepositTokenization_flattened.sol\":9682:9692  msg.sender */\n      caller\n        /* \"contracts/DepositTokenization_flattened.sol\":46240:46256  address operator */\n      0x00\n        /* \"contracts/DepositTokenization_flattened.sol\":46282:46973  for (uint256 i = 0; i < ids.length; ++i) {... */\n    tag_463:\n        /* \"contracts/DepositTokenization_flattened.sol\":46306:46309  ids */\n      dup4\n        /* \"contracts/DepositTokenization_flattened.sol\":46306:46316  ids.length */\n      mload\n        /* \"contracts/DepositTokenization_flattened.sol\":46302:46303  i */\n      dup2\n        /* \"contracts/DepositTokenization_flattened.sol\":46302:46316  i < ids.length */\n      lt\n        /* \"contracts/DepositTokenization_flattened.sol\":46282:46973  for (uint256 i = 0; i < ids.length; ++i) {... */\n      iszero\n      tag_464\n      jumpi\n        /* \"contracts/DepositTokenization_flattened.sol\":34630:34634  0x20 */\n      0x20\n        /* \"contracts/DepositTokenization_flattened.sol\":34621:34635  mul(pos, 0x20) */\n      dup2\n      dup2\n      mul\n        /* \"contracts/DepositTokenization_flattened.sol\":34601:34636  add(add(arr, 0x20), mul(pos, 0x20)) */\n      dup6\n      dup2\n      add\n      dup3\n      add\n        /* \"contracts/DepositTokenization_flattened.sol\":34595:34637  mload(add(add(arr, 0x20), mul(pos, 0x20))) */\n      mload\n        /* \"contracts/DepositTokenization_flattened.sol\":34601:34636  add(add(arr, 0x20), mul(pos, 0x20)) */\n      swap1\n      dup6\n      add\n      swap1\n      swap2\n      add\n        /* \"contracts/DepositTokenization_flattened.sol\":34595:34637  mload(add(add(arr, 0x20), mul(pos, 0x20))) */\n      mload\n      sub(shl(0xa0, 0x01), 0x01)\n        /* \"contracts/DepositTokenization_flattened.sol\":46452:46470  from != address(0) */\n      dup9\n      and\n      iszero\n        /* \"contracts/DepositTokenization_flattened.sol\":46448:46868  if (from != address(0)) {... */\n      tag_468\n      jumpi\n        /* \"contracts/DepositTokenization_flattened.sol\":46490:46509  uint256 fromBalance */\n      0x00\n        /* \"contracts/DepositTokenization_flattened.sol\":46512:46525  _balances[id] */\n      dup3\n      dup2\n      mstore\n      0x20\n      dup2\n      dup2\n      mstore\n      0x40\n      dup1\n      dup4\n      keccak256\n      sub(shl(0xa0, 0x01), 0x01)\n        /* \"contracts/DepositTokenization_flattened.sol\":46512:46531  _balances[id][from] */\n      dup13\n      and\n      dup5\n      mstore\n      swap1\n      swap2\n      mstore\n      swap1\n      keccak256\n      sload\n        /* \"contracts/DepositTokenization_flattened.sol\":46553:46572  fromBalance < value */\n      dup2\n      dup2\n      lt\n        /* \"contracts/DepositTokenization_flattened.sol\":46549:46678  if (fromBalance < value) {... */\n      iszero\n      tag_469\n      jumpi\n        /* \"contracts/DepositTokenization_flattened.sol\":46603:46659  ERC1155InsufficientBalance(from, fromBalance, value, id) */\n      mload(0x40)\n      shl(0xe0, 0x03dee4c5)\n      dup2\n      mstore\n      sub(shl(0xa0, 0x01), 0x01)\n        /* \"#utility.yul\":18441:18473   */\n      dup11\n      and\n        /* \"contracts/DepositTokenization_flattened.sol\":46603:46659  ERC1155InsufficientBalance(from, fromBalance, value, id) */\n      0x04\n      dup3\n      add\n        /* \"#utility.yul\":18423:18474   */\n      mstore\n        /* \"#utility.yul\":18490:18508   */\n      0x24\n      dup2\n      add\n        /* \"#utility.yul\":18483:18517   */\n      dup3\n      swap1\n      mstore\n        /* \"#utility.yul\":18533:18551   */\n      0x44\n      dup2\n      add\n        /* \"#utility.yul\":18526:18560   */\n      dup4\n      swap1\n      mstore\n        /* \"#utility.yul\":18576:18594   */\n      0x64\n      dup2\n      add\n        /* \"#utility.yul\":18569:18603   */\n      dup5\n      swap1\n      mstore\n        /* \"#utility.yul\":18395:18414   */\n      0x84\n      add\n        /* \"contracts/DepositTokenization_flattened.sol\":46603:46659  ERC1155InsufficientBalance(from, fromBalance, value, id) */\n      tag_194\n        /* \"#utility.yul\":18192:18609   */\n      jump\n        /* \"contracts/DepositTokenization_flattened.sol\":46549:46678  if (fromBalance < value) {... */\n    tag_469:\n        /* \"contracts/DepositTokenization_flattened.sol\":46794:46803  _balances */\n      0x00\n        /* \"contracts/DepositTokenization_flattened.sol\":46794:46807  _balances[id] */\n      dup4\n      dup2\n      mstore\n      0x20\n      dup2\n      dup2\n      mstore\n      0x40\n      dup1\n      dup4\n      keccak256\n      sub(shl(0xa0, 0x01), 0x01)\n        /* \"contracts/DepositTokenization_flattened.sol\":46794:46813  _balances[id][from] */\n      dup14\n      and\n      dup5\n      mstore\n      swap1\n      swap2\n      mstore\n      swap1\n      keccak256\n        /* \"contracts/DepositTokenization_flattened.sol\":46816:46835  fromBalance - value */\n      swap1\n      dup3\n      swap1\n      sub\n        /* \"contracts/DepositTokenization_flattened.sol\":46794:46835  _balances[id][from] = fromBalance - value */\n      swap1\n      sstore\n        /* \"contracts/DepositTokenization_flattened.sol\":46448:46868  if (from != address(0)) {... */\n    tag_468:\n      sub(shl(0xa0, 0x01), 0x01)\n        /* \"contracts/DepositTokenization_flattened.sol\":46886:46902  to != address(0) */\n      dup8\n      and\n      iszero\n        /* \"contracts/DepositTokenization_flattened.sol\":46882:46963  if (to != address(0)) {... */\n      tag_472\n      jumpi\n        /* \"contracts/DepositTokenization_flattened.sol\":46922:46931  _balances */\n      0x00\n        /* \"contracts/DepositTokenization_flattened.sol\":46922:46935  _balances[id] */\n      dup3\n      dup2\n      mstore\n      0x20\n      dup2\n      dup2\n      mstore\n      0x40\n      dup1\n      dup4\n      keccak256\n      sub(shl(0xa0, 0x01), 0x01)\n        /* \"contracts/DepositTokenization_flattened.sol\":46922:46939  _balances[id][to] */\n      dup12\n      and\n      dup5\n      mstore\n      swap1\n      swap2\n      mstore\n      dup2\n      keccak256\n        /* \"contracts/DepositTokenization_flattened.sol\":46922:46948  _balances[id][to] += value */\n      dup1\n      sload\n        /* \"contracts/DepositTokenization_flattened.sol\":46943:46948  value */\n      dup4\n      swap3\n        /* \"contracts/DepositTokenization_flattened.sol\":46922:46931  _balances */\n      swap1\n        /* \"contracts/DepositTokenization_flattened.sol\":46922:46948  _balances[id][to] += value */\n      tag_473\n      swap1\n        /* \"contracts/DepositTokenization_flattened.sol\":46943:46948  value */\n      dup5\n      swap1\n        /* \"contracts/DepositTokenization_flattened.sol\":46922:46948  _balances[id][to] += value */\n      tag_443\n      jump\t// in\n    tag_473:\n      swap1\n      swap2\n      sstore\n      pop\n      pop\n        /* \"contracts/DepositTokenization_flattened.sol\":46882:46963  if (to != address(0)) {... */\n    tag_472:\n      pop\n      pop\n        /* \"contracts/DepositTokenization_flattened.sol\":46318:46321  ++i */\n      0x01\n      add\n        /* \"contracts/DepositTokenization_flattened.sol\":46282:46973  for (uint256 i = 0; i < ids.length; ++i) {... */\n      jump(tag_463)\n    tag_464:\n      pop\n        /* \"contracts/DepositTokenization_flattened.sol\":46987:46990  ids */\n      dup3\n        /* \"contracts/DepositTokenization_flattened.sol\":46987:46997  ids.length */\n      mload\n        /* \"contracts/DepositTokenization_flattened.sol\":47001:47002  1 */\n      0x01\n        /* \"contracts/DepositTokenization_flattened.sol\":46987:47002  ids.length == 1 */\n      sub\n        /* \"contracts/DepositTokenization_flattened.sol\":46983:47271  if (ids.length == 1) {... */\n      tag_474\n      jumpi\n        /* \"contracts/DepositTokenization_flattened.sol\":34630:34634  0x20 */\n      0x20\n        /* \"contracts/DepositTokenization_flattened.sol\":34601:34636  add(add(arr, 0x20), mul(pos, 0x20)) */\n      dup4\n      add\n        /* \"contracts/DepositTokenization_flattened.sol\":34595:34637  mload(add(add(arr, 0x20), mul(pos, 0x20))) */\n      mload\n        /* \"contracts/DepositTokenization_flattened.sol\":47018:47028  uint256 id */\n      0x00\n      swap1\n        /* \"contracts/DepositTokenization_flattened.sol\":34630:34634  0x20 */\n      0x20\n        /* \"contracts/DepositTokenization_flattened.sol\":34601:34636  add(add(arr, 0x20), mul(pos, 0x20)) */\n      dup5\n      add\n        /* \"contracts/DepositTokenization_flattened.sol\":34595:34637  mload(add(add(arr, 0x20), mul(pos, 0x20))) */\n      mload\n        /* \"contracts/DepositTokenization_flattened.sol\":47018:47056  uint256 id = ids.unsafeMemoryAccess(0) */\n      swap1\n      swap2\n      pop\n        /* \"contracts/DepositTokenization_flattened.sol\":47164:47166  to */\n      dup6\n      sub(shl(0xa0, 0x01), 0x01)\n        /* \"contracts/DepositTokenization_flattened.sol\":47133:47178  TransferSingle(operator, from, to, id, value) */\n      and\n        /* \"contracts/DepositTokenization_flattened.sol\":47158:47162  from */\n      dup8\n      sub(shl(0xa0, 0x01), 0x01)\n        /* \"contracts/DepositTokenization_flattened.sol\":47133:47178  TransferSingle(operator, from, to, id, value) */\n      and\n        /* \"contracts/DepositTokenization_flattened.sol\":47148:47156  operator */\n      dup5\n      sub(shl(0xa0, 0x01), 0x01)\n        /* \"contracts/DepositTokenization_flattened.sol\":47133:47178  TransferSingle(operator, from, to, id, value) */\n      and\n      0xc3d58168c5ae7397731d063d5bbf3d657854427343f4c083240f7aacaa2d0f62\n        /* \"contracts/DepositTokenization_flattened.sol\":47168:47170  id */\n      dup6\n        /* \"contracts/DepositTokenization_flattened.sol\":47172:47177  value */\n      dup6\n        /* \"contracts/DepositTokenization_flattened.sol\":47133:47178  TransferSingle(operator, from, to, id, value) */\n      mload(0x40)\n      tag_477\n      swap3\n      swap2\n      swap1\n        /* \"#utility.yul\":13499:13524   */\n      swap2\n      dup3\n      mstore\n        /* \"#utility.yul\":13555:13557   */\n      0x20\n        /* \"#utility.yul\":13540:13558   */\n      dup3\n      add\n        /* \"#utility.yul\":13533:13567   */\n      mstore\n        /* \"#utility.yul\":13487:13489   */\n      0x40\n        /* \"#utility.yul\":13472:13490   */\n      add\n      swap1\n        /* \"#utility.yul\":13325:13573   */\n      jump\n        /* \"contracts/DepositTokenization_flattened.sol\":47133:47178  TransferSingle(operator, from, to, id, value) */\n    tag_477:\n      mload(0x40)\n      dup1\n      swap2\n      sub\n      swap1\n      log4\n        /* \"contracts/DepositTokenization_flattened.sol\":47004:47189  {... */\n      pop\n      pop\n        /* \"contracts/DepositTokenization_flattened.sol\":46983:47271  if (ids.length == 1) {... */\n      jump(tag_185)\n    tag_474:\n        /* \"contracts/DepositTokenization_flattened.sol\":47244:47246  to */\n      dup4\n      sub(shl(0xa0, 0x01), 0x01)\n        /* \"contracts/DepositTokenization_flattened.sol\":47214:47260  TransferBatch(operator, from, to, ids, values) */\n      and\n        /* \"contracts/DepositTokenization_flattened.sol\":47238:47242  from */\n      dup6\n      sub(shl(0xa0, 0x01), 0x01)\n        /* \"contracts/DepositTokenization_flattened.sol\":47214:47260  TransferBatch(operator, from, to, ids, values) */\n      and\n        /* \"contracts/DepositTokenization_flattened.sol\":47228:47236  operator */\n      dup3\n      sub(shl(0xa0, 0x01), 0x01)\n        /* \"contracts/DepositTokenization_flattened.sol\":47214:47260  TransferBatch(operator, from, to, ids, values) */\n      and\n      0x4a39dc06d4c0dbc64b70af90fd698a233a518aa5d07e595d983b8c0526c8f7fb\n        /* \"contracts/DepositTokenization_flattened.sol\":47248:47251  ids */\n      dup7\n        /* \"contracts/DepositTokenization_flattened.sol\":47253:47259  values */\n      dup7\n        /* \"contracts/DepositTokenization_flattened.sol\":47214:47260  TransferBatch(operator, from, to, ids, values) */\n      mload(0x40)\n      tag_479\n      swap3\n      swap2\n      swap1\n      tag_480\n      jump\t// in\n    tag_479:\n      mload(0x40)\n      dup1\n      swap2\n      sub\n      swap1\n      log4\n        /* \"contracts/DepositTokenization_flattened.sol\":46103:47277  {... */\n      pop\n        /* \"contracts/DepositTokenization_flattened.sol\":45996:47277  function _update(address from, address to, uint256[] memory ids, uint256[] memory values) internal virtual {... */\n      pop\n      pop\n      pop\n      pop\n      jump\t// out\n        /* \"#utility.yul\":14:187   */\n    tag_481:\n        /* \"#utility.yul\":82:102   */\n      dup1\n      calldataload\n      sub(shl(0xa0, 0x01), 0x01)\n        /* \"#utility.yul\":131:162   */\n      dup2\n      and\n        /* \"#utility.yul\":121:163   */\n      dup2\n      eq\n        /* \"#utility.yul\":111:181   */\n      tag_495\n      jumpi\n        /* \"#utility.yul\":177:178   */\n      0x00\n        /* \"#utility.yul\":174:175   */\n      dup1\n        /* \"#utility.yul\":167:179   */\n      revert\n        /* \"#utility.yul\":111:181   */\n    tag_495:\n        /* \"#utility.yul\":14:187   */\n      swap2\n      swap1\n      pop\n      jump\t// out\n        /* \"#utility.yul\":192:492   */\n    tag_43:\n        /* \"#utility.yul\":260:266   */\n      0x00\n        /* \"#utility.yul\":268:274   */\n      dup1\n        /* \"#utility.yul\":321:323   */\n      0x40\n        /* \"#utility.yul\":309:318   */\n      dup4\n        /* \"#utility.yul\":300:307   */\n      dup6\n        /* \"#utility.yul\":296:319   */\n      sub\n        /* \"#utility.yul\":292:324   */\n      slt\n        /* \"#utility.yul\":289:341   */\n      iszero\n      tag_497\n      jumpi\n        /* \"#utility.yul\":337:338   */\n      0x00\n        /* \"#utility.yul\":334:335   */\n      dup1\n        /* \"#utility.yul\":327:339   */\n      revert\n        /* \"#utility.yul\":289:341   */\n    tag_497:\n        /* \"#utility.yul\":360:389   */\n      tag_498\n        /* \"#utility.yul\":379:388   */\n      dup4\n        /* \"#utility.yul\":360:389   */\n      tag_481\n      jump\t// in\n    tag_498:\n        /* \"#utility.yul\":350:389   */\n      swap5\n        /* \"#utility.yul\":458:460   */\n      0x20\n        /* \"#utility.yul\":443:461   */\n      swap4\n      swap1\n      swap4\n      add\n        /* \"#utility.yul\":430:462   */\n      calldataload\n      swap4\n      pop\n      pop\n      pop\n        /* \"#utility.yul\":192:492   */\n      jump\t// out\n        /* \"#utility.yul\":679:810   */\n    tag_482:\n      not(sub(shl(0xe0, 0x01), 0x01))\n        /* \"#utility.yul\":753:785   */\n      dup2\n      and\n        /* \"#utility.yul\":743:786   */\n      dup2\n      eq\n        /* \"#utility.yul\":733:804   */\n      tag_212\n      jumpi\n        /* \"#utility.yul\":800:801   */\n      0x00\n        /* \"#utility.yul\":797:798   */\n      dup1\n        /* \"#utility.yul\":790:802   */\n      revert\n        /* \"#utility.yul\":815:1060   */\n    tag_49:\n        /* \"#utility.yul\":873:879   */\n      0x00\n        /* \"#utility.yul\":926:928   */\n      0x20\n        /* \"#utility.yul\":914:923   */\n      dup3\n        /* \"#utility.yul\":905:912   */\n      dup5\n        /* \"#utility.yul\":901:924   */\n      sub\n        /* \"#utility.yul\":897:929   */\n      slt\n        /* \"#utility.yul\":894:946   */\n      iszero\n      tag_503\n      jumpi\n        /* \"#utility.yul\":942:943   */\n      0x00\n        /* \"#utility.yul\":939:940   */\n      dup1\n        /* \"#utility.yul\":932:944   */\n      revert\n        /* \"#utility.yul\":894:946   */\n    tag_503:\n        /* \"#utility.yul\":981:990   */\n      dup2\n        /* \"#utility.yul\":968:991   */\n      calldataload\n        /* \"#utility.yul\":1000:1030   */\n      tag_504\n        /* \"#utility.yul\":1024:1029   */\n      dup2\n        /* \"#utility.yul\":1000:1030   */\n      tag_482\n      jump\t// in\n    tag_504:\n        /* \"#utility.yul\":1049:1054   */\n      swap4\n        /* \"#utility.yul\":815:1060   */\n      swap3\n      pop\n      pop\n      pop\n      jump\t// out\n        /* \"#utility.yul\":1257:1384   */\n    tag_220:\n        /* \"#utility.yul\":1318:1328   */\n      0x4e487b71\n        /* \"#utility.yul\":1313:1316   */\n      0xe0\n        /* \"#utility.yul\":1309:1329   */\n      shl\n        /* \"#utility.yul\":1306:1307   */\n      0x00\n        /* \"#utility.yul\":1299:1330   */\n      mstore\n        /* \"#utility.yul\":1349:1353   */\n      0x41\n        /* \"#utility.yul\":1346:1347   */\n      0x04\n        /* \"#utility.yul\":1339:1354   */\n      mstore\n        /* \"#utility.yul\":1373:1377   */\n      0x24\n        /* \"#utility.yul\":1370:1371   */\n      0x00\n        /* \"#utility.yul\":1363:1378   */\n      revert\n        /* \"#utility.yul\":1389:1664   */\n    tag_483:\n        /* \"#utility.yul\":1460:1462   */\n      0x40\n        /* \"#utility.yul\":1454:1463   */\n      mload\n        /* \"#utility.yul\":1525:1527   */\n      0x1f\n        /* \"#utility.yul\":1506:1519   */\n      dup3\n      add\n      not(0x1f)\n        /* \"#utility.yul\":1502:1529   */\n      and\n        /* \"#utility.yul\":1490:1530   */\n      dup2\n      add\n      sub(shl(0x40, 0x01), 0x01)\n        /* \"#utility.yul\":1545:1579   */\n      dup2\n      gt\n        /* \"#utility.yul\":1581:1603   */\n      dup3\n      dup3\n      lt\n        /* \"#utility.yul\":1542:1604   */\n      or\n        /* \"#utility.yul\":1539:1627   */\n      iszero\n      tag_509\n      jumpi\n        /* \"#utility.yul\":1607:1625   */\n      tag_509\n      tag_220\n      jump\t// in\n    tag_509:\n        /* \"#utility.yul\":1643:1645   */\n      0x40\n        /* \"#utility.yul\":1636:1658   */\n      mstore\n        /* \"#utility.yul\":1389:1664   */\n      swap2\n      swap1\n      pop\n      jump\t// out\n        /* \"#utility.yul\":1669:2119   */\n    tag_484:\n        /* \"#utility.yul\":1734:1739   */\n      0x00\n        /* \"#utility.yul\":1766:1767   */\n      dup1\n      sub(shl(0x40, 0x01), 0x01)\n        /* \"#utility.yul\":1782:1788   */\n      dup5\n        /* \"#utility.yul\":1779:1809   */\n      gt\n        /* \"#utility.yul\":1776:1832   */\n      iszero\n      tag_512\n      jumpi\n        /* \"#utility.yul\":1812:1830   */\n      tag_512\n      tag_220\n      jump\t// in\n    tag_512:\n      pop\n        /* \"#utility.yul\":1878:1880   */\n      0x1f\n        /* \"#utility.yul\":1857:1872   */\n      dup4\n      add\n      not(0x1f)\n        /* \"#utility.yul\":1853:1882   */\n      and\n        /* \"#utility.yul\":1884:1888   */\n      0x20\n        /* \"#utility.yul\":1849:1889   */\n      add\n        /* \"#utility.yul\":1907:1928   */\n      tag_513\n        /* \"#utility.yul\":1849:1889   */\n      dup2\n        /* \"#utility.yul\":1907:1928   */\n      tag_483\n      jump\t// in\n    tag_513:\n        /* \"#utility.yul\":1898:1928   */\n      swap2\n      pop\n      pop\n        /* \"#utility.yul\":1951:1957   */\n      dup3\n        /* \"#utility.yul\":1944:1949   */\n      dup2\n        /* \"#utility.yul\":1937:1958   */\n      mstore\n        /* \"#utility.yul\":1991:1994   */\n      dup4\n        /* \"#utility.yul\":1982:1988   */\n      dup4\n        /* \"#utility.yul\":1977:1980   */\n      dup4\n        /* \"#utility.yul\":1973:1989   */\n      add\n        /* \"#utility.yul\":1970:1995   */\n      gt\n        /* \"#utility.yul\":1967:2012   */\n      iszero\n      tag_514\n      jumpi\n        /* \"#utility.yul\":2008:2009   */\n      0x00\n        /* \"#utility.yul\":2005:2006   */\n      dup1\n        /* \"#utility.yul\":1998:2010   */\n      revert\n        /* \"#utility.yul\":1967:2012   */\n    tag_514:\n        /* \"#utility.yul\":2057:2063   */\n      dup3\n        /* \"#utility.yul\":2052:2055   */\n      dup3\n        /* \"#utility.yul\":2045:2049   */\n      0x20\n        /* \"#utility.yul\":2038:2043   */\n      dup4\n        /* \"#utility.yul\":2034:2050   */\n      add\n        /* \"#utility.yul\":2021:2064   */\n      calldatacopy\n        /* \"#utility.yul\":2111:2112   */\n      0x00\n        /* \"#utility.yul\":2104:2108   */\n      0x20\n        /* \"#utility.yul\":2095:2101   */\n      dup5\n        /* \"#utility.yul\":2088:2093   */\n      dup4\n        /* \"#utility.yul\":2084:2102   */\n      add\n        /* \"#utility.yul\":2080:2109   */\n      add\n        /* \"#utility.yul\":2073:2113   */\n      mstore\n        /* \"#utility.yul\":1669:2119   */\n      swap4\n      swap3\n      pop\n      pop\n      pop\n      jump\t// out\n        /* \"#utility.yul\":2124:2575   */\n    tag_55:\n        /* \"#utility.yul\":2193:2199   */\n      0x00\n        /* \"#utility.yul\":2246:2248   */\n      0x20\n        /* \"#utility.yul\":2234:2243   */\n      dup3\n        /* \"#utility.yul\":2225:2232   */\n      dup5\n        /* \"#utility.yul\":2221:2244   */\n      sub\n        /* \"#utility.yul\":2217:2249   */\n      slt\n        /* \"#utility.yul\":2214:2266   */\n      iszero\n      tag_516\n      jumpi\n        /* \"#utility.yul\":2262:2263   */\n      0x00\n        /* \"#utility.yul\":2259:2260   */\n      dup1\n        /* \"#utility.yul\":2252:2264   */\n      revert\n        /* \"#utility.yul\":2214:2266   */\n    tag_516:\n        /* \"#utility.yul\":2302:2311   */\n      dup2\n        /* \"#utility.yul\":2289:2312   */\n      calldataload\n      sub(shl(0x40, 0x01), 0x01)\n        /* \"#utility.yul\":2327:2333   */\n      dup2\n        /* \"#utility.yul\":2324:2354   */\n      gt\n        /* \"#utility.yul\":2321:2371   */\n      iszero\n      tag_517\n      jumpi\n        /* \"#utility.yul\":2367:2368   */\n      0x00\n        /* \"#utility.yul\":2364:2365   */\n      dup1\n        /* \"#utility.yul\":2357:2369   */\n      revert\n        /* \"#utility.yul\":2321:2371   */\n    tag_517:\n        /* \"#utility.yul\":2390:2412   */\n      dup3\n      add\n        /* \"#utility.yul\":2443:2447   */\n      0x1f\n        /* \"#utility.yul\":2435:2448   */\n      dup2\n      add\n        /* \"#utility.yul\":2431:2458   */\n      dup5\n      sgt\n        /* \"#utility.yul\":2421:2476   */\n      tag_518\n      jumpi\n        /* \"#utility.yul\":2472:2473   */\n      0x00\n        /* \"#utility.yul\":2469:2470   */\n      dup1\n        /* \"#utility.yul\":2462:2474   */\n      revert\n        /* \"#utility.yul\":2421:2476   */\n    tag_518:\n        /* \"#utility.yul\":2495:2569   */\n      tag_519\n        /* \"#utility.yul\":2561:2568   */\n      dup5\n        /* \"#utility.yul\":2556:2558   */\n      dup3\n        /* \"#utility.yul\":2543:2559   */\n      calldataload\n        /* \"#utility.yul\":2538:2540   */\n      0x20\n        /* \"#utility.yul\":2534:2536   */\n      dup5\n        /* \"#utility.yul\":2530:2541   */\n      add\n        /* \"#utility.yul\":2495:2569   */\n      tag_484\n      jump\t// in\n    tag_519:\n        /* \"#utility.yul\":2485:2569   */\n      swap5\n        /* \"#utility.yul\":2124:2575   */\n      swap4\n      pop\n      pop\n      pop\n      pop\n      jump\t// out\n        /* \"#utility.yul\":2580:2806   */\n    tag_59:\n        /* \"#utility.yul\":2639:2645   */\n      0x00\n        /* \"#utility.yul\":2692:2694   */\n      0x20\n        /* \"#utility.yul\":2680:2689   */\n      dup3\n        /* \"#utility.yul\":2671:2678   */\n      dup5\n        /* \"#utility.yul\":2667:2690   */\n      sub\n        /* \"#utility.yul\":2663:2695   */\n      slt\n        /* \"#utility.yul\":2660:2712   */\n      iszero\n      tag_521\n      jumpi\n        /* \"#utility.yul\":2708:2709   */\n      0x00\n        /* \"#utility.yul\":2705:2706   */\n      dup1\n        /* \"#utility.yul\":2698:2710   */\n      revert\n        /* \"#utility.yul\":2660:2712   */\n    tag_521:\n      pop\n        /* \"#utility.yul\":2753:2776   */\n      calldataload\n      swap2\n        /* \"#utility.yul\":2580:2806   */\n      swap1\n      pop\n      jump\t// out\n        /* \"#utility.yul\":2811:3100   */\n    tag_485:\n        /* \"#utility.yul\":2853:2856   */\n      0x00\n        /* \"#utility.yul\":2891:2896   */\n      dup2\n        /* \"#utility.yul\":2885:2897   */\n      mload\n        /* \"#utility.yul\":2918:2924   */\n      dup1\n        /* \"#utility.yul\":2913:2916   */\n      dup5\n        /* \"#utility.yul\":2906:2925   */\n      mstore\n        /* \"#utility.yul\":2974:2980   */\n      dup1\n        /* \"#utility.yul\":2967:2971   */\n      0x20\n        /* \"#utility.yul\":2960:2965   */\n      dup5\n        /* \"#utility.yul\":2956:2972   */\n      add\n        /* \"#utility.yul\":2949:2953   */\n      0x20\n        /* \"#utility.yul\":2944:2947   */\n      dup7\n        /* \"#utility.yul\":2940:2954   */\n      add\n        /* \"#utility.yul\":2934:2981   */\n      mcopy\n        /* \"#utility.yul\":3026:3027   */\n      0x00\n        /* \"#utility.yul\":3019:3023   */\n      0x20\n        /* \"#utility.yul\":3010:3016   */\n      dup3\n        /* \"#utility.yul\":3005:3008   */\n      dup7\n        /* \"#utility.yul\":3001:3017   */\n      add\n        /* \"#utility.yul\":2997:3024   */\n      add\n        /* \"#utility.yul\":2990:3028   */\n      mstore\n        /* \"#utility.yul\":3089:3093   */\n      0x20\n        /* \"#utility.yul\":3082:3084   */\n      0x1f\n        /* \"#utility.yul\":3078:3085   */\n      not\n        /* \"#utility.yul\":3073:3075   */\n      0x1f\n        /* \"#utility.yul\":3065:3071   */\n      dup4\n        /* \"#utility.yul\":3061:3076   */\n      add\n        /* \"#utility.yul\":3057:3086   */\n      and\n        /* \"#utility.yul\":3052:3055   */\n      dup6\n        /* \"#utility.yul\":3048:3087   */\n      add\n        /* \"#utility.yul\":3044:3094   */\n      add\n        /* \"#utility.yul\":3037:3094   */\n      swap2\n      pop\n      pop\n        /* \"#utility.yul\":2811:3100   */\n      swap3\n      swap2\n      pop\n      pop\n      jump\t// out\n        /* \"#utility.yul\":3105:3325   */\n    tag_62:\n        /* \"#utility.yul\":3254:3256   */\n      0x20\n        /* \"#utility.yul\":3243:3252   */\n      dup2\n        /* \"#utility.yul\":3236:3257   */\n      mstore\n        /* \"#utility.yul\":3217:3221   */\n      0x00\n        /* \"#utility.yul\":3274:3319   */\n      tag_504\n        /* \"#utility.yul\":3315:3317   */\n      0x20\n        /* \"#utility.yul\":3304:3313   */\n      dup4\n        /* \"#utility.yul\":3300:3318   */\n      add\n        /* \"#utility.yul\":3292:3298   */\n      dup5\n        /* \"#utility.yul\":3274:3319   */\n      tag_485\n      jump\t// in\n        /* \"#utility.yul\":3804:3987   */\n    tag_486:\n        /* \"#utility.yul\":3864:3868   */\n      0x00\n      sub(shl(0x40, 0x01), 0x01)\n        /* \"#utility.yul\":3889:3895   */\n      dup3\n        /* \"#utility.yul\":3886:3916   */\n      gt\n        /* \"#utility.yul\":3883:3939   */\n      iszero\n      tag_529\n      jumpi\n        /* \"#utility.yul\":3919:3937   */\n      tag_529\n      tag_220\n      jump\t// in\n    tag_529:\n      pop\n        /* \"#utility.yul\":3964:3965   */\n      0x05\n        /* \"#utility.yul\":3960:3974   */\n      shl\n        /* \"#utility.yul\":3976:3980   */\n      0x20\n        /* \"#utility.yul\":3956:3981   */\n      add\n      swap1\n        /* \"#utility.yul\":3804:3987   */\n      jump\t// out\n        /* \"#utility.yul\":3992:4715   */\n    tag_487:\n        /* \"#utility.yul\":4046:4051   */\n      0x00\n        /* \"#utility.yul\":4099:4102   */\n      dup3\n        /* \"#utility.yul\":4092:4096   */\n      0x1f\n        /* \"#utility.yul\":4084:4090   */\n      dup4\n        /* \"#utility.yul\":4080:4097   */\n      add\n        /* \"#utility.yul\":4076:4103   */\n      slt\n        /* \"#utility.yul\":4066:4121   */\n      tag_531\n      jumpi\n        /* \"#utility.yul\":4117:4118   */\n      0x00\n        /* \"#utility.yul\":4114:4115   */\n      dup1\n        /* \"#utility.yul\":4107:4119   */\n      revert\n        /* \"#utility.yul\":4066:4121   */\n    tag_531:\n        /* \"#utility.yul\":4157:4163   */\n      dup2\n        /* \"#utility.yul\":4144:4164   */\n      calldataload\n        /* \"#utility.yul\":4184:4248   */\n      tag_532\n        /* \"#utility.yul\":4200:4247   */\n      tag_533\n        /* \"#utility.yul\":4240:4246   */\n      dup3\n        /* \"#utility.yul\":4200:4247   */\n      tag_486\n      jump\t// in\n    tag_533:\n        /* \"#utility.yul\":4184:4248   */\n      tag_483\n      jump\t// in\n    tag_532:\n        /* \"#utility.yul\":4272:4275   */\n      dup1\n        /* \"#utility.yul\":4296:4302   */\n      dup3\n        /* \"#utility.yul\":4291:4294   */\n      dup3\n        /* \"#utility.yul\":4284:4303   */\n      mstore\n        /* \"#utility.yul\":4328:4332   */\n      0x20\n        /* \"#utility.yul\":4323:4326   */\n      dup3\n        /* \"#utility.yul\":4319:4333   */\n      add\n        /* \"#utility.yul\":4312:4333   */\n      swap2\n      pop\n        /* \"#utility.yul\":4389:4393   */\n      0x20\n        /* \"#utility.yul\":4379:4385   */\n      dup4\n        /* \"#utility.yul\":4376:4377   */\n      0x05\n        /* \"#utility.yul\":4372:4386   */\n      shl\n        /* \"#utility.yul\":4364:4370   */\n      dup7\n        /* \"#utility.yul\":4360:4387   */\n      add\n        /* \"#utility.yul\":4356:4394   */\n      add\n        /* \"#utility.yul\":4342:4394   */\n      swap3\n      pop\n        /* \"#utility.yul\":4417:4420   */\n      dup6\n        /* \"#utility.yul\":4409:4415   */\n      dup4\n        /* \"#utility.yul\":4406:4421   */\n      gt\n        /* \"#utility.yul\":4403:4438   */\n      iszero\n      tag_534\n      jumpi\n        /* \"#utility.yul\":4434:4435   */\n      0x00\n        /* \"#utility.yul\":4431:4432   */\n      dup1\n        /* \"#utility.yul\":4424:4436   */\n      revert\n        /* \"#utility.yul\":4403:4438   */\n    tag_534:\n        /* \"#utility.yul\":4470:4474   */\n      0x20\n        /* \"#utility.yul\":4462:4468   */\n      dup6\n        /* \"#utility.yul\":4458:4475   */\n      add\n        /* \"#utility.yul\":4484:4684   */\n    tag_535:\n        /* \"#utility.yul\":4500:4506   */\n      dup4\n        /* \"#utility.yul\":4495:4498   */\n      dup2\n        /* \"#utility.yul\":4492:4507   */\n      lt\n        /* \"#utility.yul\":4484:4684   */\n      iszero\n      tag_537\n      jumpi\n        /* \"#utility.yul\":4592:4609   */\n      dup1\n      calldataload\n        /* \"#utility.yul\":4622:4640   */\n      dup4\n      mstore\n        /* \"#utility.yul\":4669:4673   */\n      0x20\n        /* \"#utility.yul\":4660:4674   */\n      swap3\n      dup4\n      add\n      swap3\n        /* \"#utility.yul\":4517:4531   */\n      add\n        /* \"#utility.yul\":4484:4684   */\n      jump(tag_535)\n    tag_537:\n      pop\n        /* \"#utility.yul\":4702:4709   */\n      swap6\n        /* \"#utility.yul\":3992:4715   */\n      swap5\n      pop\n      pop\n      pop\n      pop\n      pop\n      jump\t// out\n        /* \"#utility.yul\":4720:4941   */\n    tag_488:\n        /* \"#utility.yul\":4762:4767   */\n      0x00\n        /* \"#utility.yul\":4815:4818   */\n      dup3\n        /* \"#utility.yul\":4808:4812   */\n      0x1f\n        /* \"#utility.yul\":4800:4806   */\n      dup4\n        /* \"#utility.yul\":4796:4813   */\n      add\n        /* \"#utility.yul\":4792:4819   */\n      slt\n        /* \"#utility.yul\":4782:4837   */\n      tag_539\n      jumpi\n        /* \"#utility.yul\":4833:4834   */\n      0x00\n        /* \"#utility.yul\":4830:4831   */\n      dup1\n        /* \"#utility.yul\":4823:4835   */\n      revert\n        /* \"#utility.yul\":4782:4837   */\n    tag_539:\n        /* \"#utility.yul\":4855:4935   */\n      tag_504\n        /* \"#utility.yul\":4931:4934   */\n      dup4\n        /* \"#utility.yul\":4922:4928   */\n      dup4\n        /* \"#utility.yul\":4909:4929   */\n      calldataload\n        /* \"#utility.yul\":4902:4906   */\n      0x20\n        /* \"#utility.yul\":4894:4900   */\n      dup6\n        /* \"#utility.yul\":4890:4907   */\n      add\n        /* \"#utility.yul\":4855:4935   */\n      tag_484\n      jump\t// in\n        /* \"#utility.yul\":4946:5825   */\n    tag_76:\n        /* \"#utility.yul\":5091:5097   */\n      0x00\n        /* \"#utility.yul\":5099:5105   */\n      dup1\n        /* \"#utility.yul\":5107:5113   */\n      0x00\n        /* \"#utility.yul\":5115:5121   */\n      dup1\n        /* \"#utility.yul\":5168:5171   */\n      0x80\n        /* \"#utility.yul\":5156:5165   */\n      dup6\n        /* \"#utility.yul\":5147:5154   */\n      dup8\n        /* \"#utility.yul\":5143:5166   */\n      sub\n        /* \"#utility.yul\":5139:5172   */\n      slt\n        /* \"#utility.yul\":5136:5189   */\n      iszero\n      tag_542\n      jumpi\n        /* \"#utility.yul\":5185:5186   */\n      0x00\n        /* \"#utility.yul\":5182:5183   */\n      dup1\n        /* \"#utility.yul\":5175:5187   */\n      revert\n        /* \"#utility.yul\":5136:5189   */\n    tag_542:\n        /* \"#utility.yul\":5208:5237   */\n      tag_543\n        /* \"#utility.yul\":5227:5236   */\n      dup6\n        /* \"#utility.yul\":5208:5237   */\n      tag_481\n      jump\t// in\n    tag_543:\n        /* \"#utility.yul\":5198:5237   */\n      swap4\n      pop\n        /* \"#utility.yul\":5288:5290   */\n      0x20\n        /* \"#utility.yul\":5277:5286   */\n      dup6\n        /* \"#utility.yul\":5273:5291   */\n      add\n        /* \"#utility.yul\":5260:5292   */\n      calldataload\n      sub(shl(0x40, 0x01), 0x01)\n        /* \"#utility.yul\":5307:5313   */\n      dup2\n        /* \"#utility.yul\":5304:5334   */\n      gt\n        /* \"#utility.yul\":5301:5351   */\n      iszero\n      tag_544\n      jumpi\n        /* \"#utility.yul\":5347:5348   */\n      0x00\n        /* \"#utility.yul\":5344:5345   */\n      dup1\n        /* \"#utility.yul\":5337:5349   */\n      revert\n        /* \"#utility.yul\":5301:5351   */\n    tag_544:\n        /* \"#utility.yul\":5370:5431   */\n      tag_545\n        /* \"#utility.yul\":5423:5430   */\n      dup8\n        /* \"#utility.yul\":5414:5420   */\n      dup3\n        /* \"#utility.yul\":5403:5412   */\n      dup9\n        /* \"#utility.yul\":5399:5421   */\n      add\n        /* \"#utility.yul\":5370:5431   */\n      tag_487\n      jump\t// in\n    tag_545:\n        /* \"#utility.yul\":5360:5431   */\n      swap4\n      pop\n      pop\n        /* \"#utility.yul\":5484:5486   */\n      0x40\n        /* \"#utility.yul\":5473:5482   */\n      dup6\n        /* \"#utility.yul\":5469:5487   */\n      add\n        /* \"#utility.yul\":5456:5488   */\n      calldataload\n      sub(shl(0x40, 0x01), 0x01)\n        /* \"#utility.yul\":5503:5511   */\n      dup2\n        /* \"#utility.yul\":5500:5532   */\n      gt\n        /* \"#utility.yul\":5497:5549   */\n      iszero\n      tag_546\n      jumpi\n        /* \"#utility.yul\":5545:5546   */\n      0x00\n        /* \"#utility.yul\":5542:5543   */\n      dup1\n        /* \"#utility.yul\":5535:5547   */\n      revert\n        /* \"#utility.yul\":5497:5549   */\n    tag_546:\n        /* \"#utility.yul\":5568:5631   */\n      tag_547\n        /* \"#utility.yul\":5623:5630   */\n      dup8\n        /* \"#utility.yul\":5612:5620   */\n      dup3\n        /* \"#utility.yul\":5601:5610   */\n      dup9\n        /* \"#utility.yul\":5597:5621   */\n      add\n        /* \"#utility.yul\":5568:5631   */\n      tag_487\n      jump\t// in\n    tag_547:\n        /* \"#utility.yul\":5558:5631   */\n      swap3\n      pop\n      pop\n        /* \"#utility.yul\":5684:5686   */\n      0x60\n        /* \"#utility.yul\":5673:5682   */\n      dup6\n        /* \"#utility.yul\":5669:5687   */\n      add\n        /* \"#utility.yul\":5656:5688   */\n      calldataload\n      sub(shl(0x40, 0x01), 0x01)\n        /* \"#utility.yul\":5703:5711   */\n      dup2\n        /* \"#utility.yul\":5700:5732   */\n      gt\n        /* \"#utility.yul\":5697:5749   */\n      iszero\n      tag_548\n      jumpi\n        /* \"#utility.yul\":5745:5746   */\n      0x00\n        /* \"#utility.yul\":5742:5743   */\n      dup1\n        /* \"#utility.yul\":5735:5747   */\n      revert\n        /* \"#utility.yul\":5697:5749   */\n    tag_548:\n        /* \"#utility.yul\":5768:5819   */\n      tag_549\n        /* \"#utility.yul\":5811:5818   */\n      dup8\n        /* \"#utility.yul\":5800:5808   */\n      dup3\n        /* \"#utility.yul\":5789:5798   */\n      dup9\n        /* \"#utility.yul\":5785:5809   */\n      add\n        /* \"#utility.yul\":5768:5819   */\n      tag_488\n      jump\t// in\n    tag_549:\n        /* \"#utility.yul\":5758:5819   */\n      swap2\n      pop\n      pop\n        /* \"#utility.yul\":4946:5825   */\n      swap3\n      swap6\n      swap2\n      swap5\n      pop\n      swap3\n      pop\n      jump\t// out\n        /* \"#utility.yul\":6475:7429   */\n    tag_90:\n        /* \"#utility.yul\":6629:6635   */\n      0x00\n        /* \"#utility.yul\":6637:6643   */\n      dup1\n        /* \"#utility.yul\":6645:6651   */\n      0x00\n        /* \"#utility.yul\":6653:6659   */\n      dup1\n        /* \"#utility.yul\":6661:6667   */\n      0x00\n        /* \"#utility.yul\":6714:6717   */\n      0xa0\n        /* \"#utility.yul\":6702:6711   */\n      dup7\n        /* \"#utility.yul\":6693:6700   */\n      dup9\n        /* \"#utility.yul\":6689:6712   */\n      sub\n        /* \"#utility.yul\":6685:6718   */\n      slt\n        /* \"#utility.yul\":6682:6735   */\n      iszero\n      tag_555\n      jumpi\n        /* \"#utility.yul\":6731:6732   */\n      0x00\n        /* \"#utility.yul\":6728:6729   */\n      dup1\n        /* \"#utility.yul\":6721:6733   */\n      revert\n        /* \"#utility.yul\":6682:6735   */\n    tag_555:\n        /* \"#utility.yul\":6754:6783   */\n      tag_556\n        /* \"#utility.yul\":6773:6782   */\n      dup7\n        /* \"#utility.yul\":6754:6783   */\n      tag_481\n      jump\t// in\n    tag_556:\n        /* \"#utility.yul\":6744:6783   */\n      swap5\n      pop\n        /* \"#utility.yul\":6802:6840   */\n      tag_557\n        /* \"#utility.yul\":6836:6838   */\n      0x20\n        /* \"#utility.yul\":6825:6834   */\n      dup8\n        /* \"#utility.yul\":6821:6839   */\n      add\n        /* \"#utility.yul\":6802:6840   */\n      tag_481\n      jump\t// in\n    tag_557:\n        /* \"#utility.yul\":6792:6840   */\n      swap4\n      pop\n        /* \"#utility.yul\":6891:6893   */\n      0x40\n        /* \"#utility.yul\":6880:6889   */\n      dup7\n        /* \"#utility.yul\":6876:6894   */\n      add\n        /* \"#utility.yul\":6863:6895   */\n      calldataload\n      sub(shl(0x40, 0x01), 0x01)\n        /* \"#utility.yul\":6910:6916   */\n      dup2\n        /* \"#utility.yul\":6907:6937   */\n      gt\n        /* \"#utility.yul\":6904:6954   */\n      iszero\n      tag_558\n      jumpi\n        /* \"#utility.yul\":6950:6951   */\n      0x00\n        /* \"#utility.yul\":6947:6948   */\n      dup1\n        /* \"#utility.yul\":6940:6952   */\n      revert\n        /* \"#utility.yul\":6904:6954   */\n    tag_558:\n        /* \"#utility.yul\":6973:7034   */\n      tag_559\n        /* \"#utility.yul\":7026:7033   */\n      dup9\n        /* \"#utility.yul\":7017:7023   */\n      dup3\n        /* \"#utility.yul\":7006:7015   */\n      dup10\n        /* \"#utility.yul\":7002:7024   */\n      add\n        /* \"#utility.yul\":6973:7034   */\n      tag_487\n      jump\t// in\n    tag_559:\n        /* \"#utility.yul\":6963:7034   */\n      swap4\n      pop\n      pop\n        /* \"#utility.yul\":7087:7089   */\n      0x60\n        /* \"#utility.yul\":7076:7085   */\n      dup7\n        /* \"#utility.yul\":7072:7090   */\n      add\n        /* \"#utility.yul\":7059:7091   */\n      calldataload\n      sub(shl(0x40, 0x01), 0x01)\n        /* \"#utility.yul\":7106:7114   */\n      dup2\n        /* \"#utility.yul\":7103:7135   */\n      gt\n        /* \"#utility.yul\":7100:7152   */\n      iszero\n      tag_560\n      jumpi\n        /* \"#utility.yul\":7148:7149   */\n      0x00\n        /* \"#utility.yul\":7145:7146   */\n      dup1\n        /* \"#utility.yul\":7138:7150   */\n      revert\n        /* \"#utility.yul\":7100:7152   */\n    tag_560:\n        /* \"#utility.yul\":7171:7234   */\n      tag_561\n        /* \"#utility.yul\":7226:7233   */\n      dup9\n        /* \"#utility.yul\":7215:7223   */\n      dup3\n        /* \"#utility.yul\":7204:7213   */\n      dup10\n        /* \"#utility.yul\":7200:7224   */\n      add\n        /* \"#utility.yul\":7171:7234   */\n      tag_487\n      jump\t// in\n    tag_561:\n        /* \"#utility.yul\":7161:7234   */\n      swap3\n      pop\n      pop\n        /* \"#utility.yul\":7287:7290   */\n      0x80\n        /* \"#utility.yul\":7276:7285   */\n      dup7\n        /* \"#utility.yul\":7272:7291   */\n      add\n        /* \"#utility.yul\":7259:7292   */\n      calldataload\n      sub(shl(0x40, 0x01), 0x01)\n        /* \"#utility.yul\":7307:7315   */\n      dup2\n        /* \"#utility.yul\":7304:7336   */\n      gt\n        /* \"#utility.yul\":7301:7353   */\n      iszero\n      tag_562\n      jumpi\n        /* \"#utility.yul\":7349:7350   */\n      0x00\n        /* \"#utility.yul\":7346:7347   */\n      dup1\n        /* \"#utility.yul\":7339:7351   */\n      revert\n        /* \"#utility.yul\":7301:7353   */\n    tag_562:\n        /* \"#utility.yul\":7372:7423   */\n      tag_563\n        /* \"#utility.yul\":7415:7422   */\n      dup9\n        /* \"#utility.yul\":7404:7412   */\n      dup3\n        /* \"#utility.yul\":7393:7402   */\n      dup10\n        /* \"#utility.yul\":7389:7413   */\n      add\n        /* \"#utility.yul\":7372:7423   */\n      tag_488\n      jump\t// in\n    tag_563:\n        /* \"#utility.yul\":7362:7423   */\n      swap2\n      pop\n      pop\n        /* \"#utility.yul\":6475:7429   */\n      swap3\n      swap6\n      pop\n      swap3\n      swap6\n      swap1\n      swap4\n      pop\n      jump\t// out\n        /* \"#utility.yul\":7434:7734   */\n    tag_94:\n        /* \"#utility.yul\":7502:7508   */\n      0x00\n        /* \"#utility.yul\":7510:7516   */\n      dup1\n        /* \"#utility.yul\":7563:7565   */\n      0x40\n        /* \"#utility.yul\":7551:7560   */\n      dup4\n        /* \"#utility.yul\":7542:7549   */\n      dup6\n        /* \"#utility.yul\":7538:7561   */\n      sub\n        /* \"#utility.yul\":7534:7566   */\n      slt\n        /* \"#utility.yul\":7531:7583   */\n      iszero\n      tag_565\n      jumpi\n        /* \"#utility.yul\":7579:7580   */\n      0x00\n        /* \"#utility.yul\":7576:7577   */\n      dup1\n        /* \"#utility.yul\":7569:7581   */\n      revert\n        /* \"#utility.yul\":7531:7583   */\n    tag_565:\n        /* \"#utility.yul\":7624:7647   */\n      dup3\n      calldataload\n      swap2\n      pop\n        /* \"#utility.yul\":7690:7728   */\n      tag_566\n        /* \"#utility.yul\":7724:7726   */\n      0x20\n        /* \"#utility.yul\":7709:7727   */\n      dup5\n      add\n        /* \"#utility.yul\":7690:7728   */\n      tag_481\n      jump\t// in\n    tag_566:\n        /* \"#utility.yul\":7680:7728   */\n      swap1\n      pop\n        /* \"#utility.yul\":7434:7734   */\n      swap3\n      pop\n      swap3\n      swap1\n      pop\n      jump\t// out\n        /* \"#utility.yul\":7739:8885   */\n    tag_103:\n        /* \"#utility.yul\":7857:7863   */\n      0x00\n        /* \"#utility.yul\":7865:7871   */\n      dup1\n        /* \"#utility.yul\":7918:7920   */\n      0x40\n        /* \"#utility.yul\":7906:7915   */\n      dup4\n        /* \"#utility.yul\":7897:7904   */\n      dup6\n        /* \"#utility.yul\":7893:7916   */\n      sub\n        /* \"#utility.yul\":7889:7921   */\n      slt\n        /* \"#utility.yul\":7886:7938   */\n      iszero\n      tag_568\n      jumpi\n        /* \"#utility.yul\":7934:7935   */\n      0x00\n        /* \"#utility.yul\":7931:7932   */\n      dup1\n        /* \"#utility.yul\":7924:7936   */\n      revert\n        /* \"#utility.yul\":7886:7938   */\n    tag_568:\n        /* \"#utility.yul\":7974:7983   */\n      dup3\n        /* \"#utility.yul\":7961:7984   */\n      calldataload\n      sub(shl(0x40, 0x01), 0x01)\n        /* \"#utility.yul\":7999:8005   */\n      dup2\n        /* \"#utility.yul\":7996:8026   */\n      gt\n        /* \"#utility.yul\":7993:8043   */\n      iszero\n      tag_569\n      jumpi\n        /* \"#utility.yul\":8039:8040   */\n      0x00\n        /* \"#utility.yul\":8036:8037   */\n      dup1\n        /* \"#utility.yul\":8029:8041   */\n      revert\n        /* \"#utility.yul\":7993:8043   */\n    tag_569:\n        /* \"#utility.yul\":8062:8084   */\n      dup4\n      add\n        /* \"#utility.yul\":8115:8119   */\n      0x1f\n        /* \"#utility.yul\":8107:8120   */\n      dup2\n      add\n        /* \"#utility.yul\":8103:8130   */\n      dup6\n      sgt\n        /* \"#utility.yul\":8093:8148   */\n      tag_570\n      jumpi\n        /* \"#utility.yul\":8144:8145   */\n      0x00\n        /* \"#utility.yul\":8141:8142   */\n      dup1\n        /* \"#utility.yul\":8134:8146   */\n      revert\n        /* \"#utility.yul\":8093:8148   */\n    tag_570:\n        /* \"#utility.yul\":8184:8186   */\n      dup1\n        /* \"#utility.yul\":8171:8187   */\n      calldataload\n        /* \"#utility.yul\":8207:8271   */\n      tag_571\n        /* \"#utility.yul\":8223:8270   */\n      tag_533\n        /* \"#utility.yul\":8263:8269   */\n      dup3\n        /* \"#utility.yul\":8223:8270   */\n      tag_486\n      jump\t// in\n        /* \"#utility.yul\":8207:8271   */\n    tag_571:\n        /* \"#utility.yul\":8293:8296   */\n      dup1\n        /* \"#utility.yul\":8317:8323   */\n      dup3\n        /* \"#utility.yul\":8312:8315   */\n      dup3\n        /* \"#utility.yul\":8305:8324   */\n      mstore\n        /* \"#utility.yul\":8349:8353   */\n      0x20\n        /* \"#utility.yul\":8344:8347   */\n      dup3\n        /* \"#utility.yul\":8340:8354   */\n      add\n        /* \"#utility.yul\":8333:8354   */\n      swap2\n      pop\n        /* \"#utility.yul\":8406:8410   */\n      0x20\n        /* \"#utility.yul\":8396:8402   */\n      dup4\n        /* \"#utility.yul\":8393:8394   */\n      0x05\n        /* \"#utility.yul\":8389:8403   */\n      shl\n        /* \"#utility.yul\":8385:8387   */\n      dup6\n        /* \"#utility.yul\":8381:8404   */\n      add\n        /* \"#utility.yul\":8377:8411   */\n      add\n        /* \"#utility.yul\":8363:8411   */\n      swap3\n      pop\n        /* \"#utility.yul\":8434:8441   */\n      dup8\n        /* \"#utility.yul\":8426:8432   */\n      dup4\n        /* \"#utility.yul\":8423:8442   */\n      gt\n        /* \"#utility.yul\":8420:8459   */\n      iszero\n      tag_573\n      jumpi\n        /* \"#utility.yul\":8455:8456   */\n      0x00\n        /* \"#utility.yul\":8452:8453   */\n      dup1\n        /* \"#utility.yul\":8445:8457   */\n      revert\n        /* \"#utility.yul\":8420:8459   */\n    tag_573:\n        /* \"#utility.yul\":8487:8491   */\n      0x20\n        /* \"#utility.yul\":8483:8485   */\n      dup5\n        /* \"#utility.yul\":8479:8492   */\n      add\n        /* \"#utility.yul\":8468:8492   */\n      swap4\n      pop\n        /* \"#utility.yul\":8501:8653   */\n    tag_574:\n        /* \"#utility.yul\":8517:8523   */\n      dup3\n        /* \"#utility.yul\":8512:8515   */\n      dup5\n        /* \"#utility.yul\":8509:8524   */\n      lt\n        /* \"#utility.yul\":8501:8653   */\n      iszero\n      tag_576\n      jumpi\n        /* \"#utility.yul\":8585:8608   */\n      tag_577\n        /* \"#utility.yul\":8604:8607   */\n      dup5\n        /* \"#utility.yul\":8585:8608   */\n      tag_481\n      jump\t// in\n    tag_577:\n        /* \"#utility.yul\":8573:8609   */\n      dup3\n      mstore\n        /* \"#utility.yul\":8638:8642   */\n      0x20\n        /* \"#utility.yul\":8534:8548   */\n      swap4\n      dup5\n      add\n      swap4\n        /* \"#utility.yul\":8629:8643   */\n      swap1\n      swap2\n      add\n      swap1\n        /* \"#utility.yul\":8501:8653   */\n      jump(tag_574)\n    tag_576:\n        /* \"#utility.yul\":8672:8677   */\n      swap5\n      pop\n      pop\n      pop\n      pop\n        /* \"#utility.yul\":8730:8734   */\n      0x20\n        /* \"#utility.yul\":8715:8735   */\n      dup4\n      add\n        /* \"#utility.yul\":8702:8736   */\n      calldataload\n      sub(shl(0x40, 0x01), 0x01)\n        /* \"#utility.yul\":8748:8780   */\n      dup2\n      gt\n        /* \"#utility.yul\":8745:8797   */\n      iszero\n      tag_578\n      jumpi\n        /* \"#utility.yul\":8793:8794   */\n      0x00\n        /* \"#utility.yul\":8790:8791   */\n      dup1\n        /* \"#utility.yul\":8783:8795   */\n      revert\n        /* \"#utility.yul\":8745:8797   */\n    tag_578:\n        /* \"#utility.yul\":8816:8879   */\n      tag_579\n        /* \"#utility.yul\":8871:8878   */\n      dup6\n        /* \"#utility.yul\":8860:8868   */\n      dup3\n        /* \"#utility.yul\":8849:8858   */\n      dup7\n        /* \"#utility.yul\":8845:8869   */\n      add\n        /* \"#utility.yul\":8816:8879   */\n      tag_487\n      jump\t// in\n    tag_579:\n        /* \"#utility.yul\":8806:8879   */\n      swap2\n      pop\n      pop\n        /* \"#utility.yul\":7739:8885   */\n      swap3\n      pop\n      swap3\n      swap1\n      pop\n      jump\t// out\n        /* \"#utility.yul\":8890:9310   */\n    tag_489:\n        /* \"#utility.yul\":8943:8946   */\n      0x00\n        /* \"#utility.yul\":8981:8986   */\n      dup2\n        /* \"#utility.yul\":8975:8987   */\n      mload\n        /* \"#utility.yul\":9008:9014   */\n      dup1\n        /* \"#utility.yul\":9003:9006   */\n      dup5\n        /* \"#utility.yul\":8996:9015   */\n      mstore\n        /* \"#utility.yul\":9040:9044   */\n      0x20\n        /* \"#utility.yul\":9035:9038   */\n      dup5\n        /* \"#utility.yul\":9031:9045   */\n      add\n        /* \"#utility.yul\":9024:9045   */\n      swap4\n      pop\n        /* \"#utility.yul\":9079:9083   */\n      0x20\n        /* \"#utility.yul\":9072:9077   */\n      dup4\n        /* \"#utility.yul\":9068:9084   */\n      add\n        /* \"#utility.yul\":9102:9103   */\n      0x00\n        /* \"#utility.yul\":9112:9285   */\n    tag_581:\n        /* \"#utility.yul\":9126:9132   */\n      dup3\n        /* \"#utility.yul\":9123:9124   */\n      dup2\n        /* \"#utility.yul\":9120:9133   */\n      lt\n        /* \"#utility.yul\":9112:9285   */\n      iszero\n      tag_583\n      jumpi\n        /* \"#utility.yul\":9187:9200   */\n      dup2\n      mload\n        /* \"#utility.yul\":9175:9201   */\n      dup7\n      mstore\n        /* \"#utility.yul\":9230:9234   */\n      0x20\n        /* \"#utility.yul\":9221:9235   */\n      swap6\n      dup7\n      add\n      swap6\n        /* \"#utility.yul\":9258:9275   */\n      swap1\n      swap2\n      add\n      swap1\n        /* \"#utility.yul\":9148:9149   */\n      0x01\n        /* \"#utility.yul\":9141:9150   */\n      add\n        /* \"#utility.yul\":9112:9285   */\n      jump(tag_581)\n    tag_583:\n      pop\n        /* \"#utility.yul\":9301:9304   */\n      swap4\n      swap5\n        /* \"#utility.yul\":8890:9310   */\n      swap4\n      pop\n      pop\n      pop\n      pop\n      jump\t// out\n        /* \"#utility.yul\":9315:9576   */\n    tag_106:\n        /* \"#utility.yul\":9494:9496   */\n      0x20\n        /* \"#utility.yul\":9483:9492   */\n      dup2\n        /* \"#utility.yul\":9476:9497   */\n      mstore\n        /* \"#utility.yul\":9457:9461   */\n      0x00\n        /* \"#utility.yul\":9514:9570   */\n      tag_504\n        /* \"#utility.yul\":9566:9568   */\n      0x20\n        /* \"#utility.yul\":9555:9564   */\n      dup4\n        /* \"#utility.yul\":9551:9569   */\n      add\n        /* \"#utility.yul\":9543:9549   */\n      dup5\n        /* \"#utility.yul\":9514:9570   */\n      tag_489\n      jump\t// in\n        /* \"#utility.yul\":9581:10245   */\n    tag_116:\n        /* \"#utility.yul\":9708:9714   */\n      0x00\n        /* \"#utility.yul\":9716:9722   */\n      dup1\n        /* \"#utility.yul\":9724:9730   */\n      0x00\n        /* \"#utility.yul\":9777:9779   */\n      0x60\n        /* \"#utility.yul\":9765:9774   */\n      dup5\n        /* \"#utility.yul\":9756:9763   */\n      dup7\n        /* \"#utility.yul\":9752:9775   */\n      sub\n        /* \"#utility.yul\":9748:9780   */\n      slt\n        /* \"#utility.yul\":9745:9797   */\n      iszero\n      tag_587\n      jumpi\n        /* \"#utility.yul\":9793:9794   */\n      0x00\n        /* \"#utility.yul\":9790:9791   */\n      dup1\n        /* \"#utility.yul\":9783:9795   */\n      revert\n        /* \"#utility.yul\":9745:9797   */\n    tag_587:\n        /* \"#utility.yul\":9816:9845   */\n      tag_588\n        /* \"#utility.yul\":9835:9844   */\n      dup5\n        /* \"#utility.yul\":9816:9845   */\n      tag_481\n      jump\t// in\n    tag_588:\n        /* \"#utility.yul\":9806:9845   */\n      swap3\n      pop\n        /* \"#utility.yul\":9896:9898   */\n      0x20\n        /* \"#utility.yul\":9885:9894   */\n      dup5\n        /* \"#utility.yul\":9881:9899   */\n      add\n        /* \"#utility.yul\":9868:9900   */\n      calldataload\n      sub(shl(0x40, 0x01), 0x01)\n        /* \"#utility.yul\":9915:9921   */\n      dup2\n        /* \"#utility.yul\":9912:9942   */\n      gt\n        /* \"#utility.yul\":9909:9959   */\n      iszero\n      tag_589\n      jumpi\n        /* \"#utility.yul\":9955:9956   */\n      0x00\n        /* \"#utility.yul\":9952:9953   */\n      dup1\n        /* \"#utility.yul\":9945:9957   */\n      revert\n        /* \"#utility.yul\":9909:9959   */\n    tag_589:\n        /* \"#utility.yul\":9978:10039   */\n      tag_590\n        /* \"#utility.yul\":10031:10038   */\n      dup7\n        /* \"#utility.yul\":10022:10028   */\n      dup3\n        /* \"#utility.yul\":10011:10020   */\n      dup8\n        /* \"#utility.yul\":10007:10029   */\n      add\n        /* \"#utility.yul\":9978:10039   */\n      tag_487\n      jump\t// in\n    tag_590:\n        /* \"#utility.yul\":9968:10039   */\n      swap3\n      pop\n      pop\n        /* \"#utility.yul\":10092:10094   */\n      0x40\n        /* \"#utility.yul\":10081:10090   */\n      dup5\n        /* \"#utility.yul\":10077:10095   */\n      add\n        /* \"#utility.yul\":10064:10096   */\n      calldataload\n      sub(shl(0x40, 0x01), 0x01)\n        /* \"#utility.yul\":10111:10119   */\n      dup2\n        /* \"#utility.yul\":10108:10140   */\n      gt\n        /* \"#utility.yul\":10105:10157   */\n      iszero\n      tag_591\n      jumpi\n        /* \"#utility.yul\":10153:10154   */\n      0x00\n        /* \"#utility.yul\":10150:10151   */\n      dup1\n        /* \"#utility.yul\":10143:10155   */\n      revert\n        /* \"#utility.yul\":10105:10157   */\n    tag_591:\n        /* \"#utility.yul\":10176:10239   */\n      tag_592\n        /* \"#utility.yul\":10231:10238   */\n      dup7\n        /* \"#utility.yul\":10220:10228   */\n      dup3\n        /* \"#utility.yul\":10209:10218   */\n      dup8\n        /* \"#utility.yul\":10205:10229   */\n      add\n        /* \"#utility.yul\":10176:10239   */\n      tag_487\n      jump\t// in\n    tag_592:\n        /* \"#utility.yul\":10166:10239   */\n      swap2\n      pop\n      pop\n        /* \"#utility.yul\":9581:10245   */\n      swap3\n      pop\n      swap3\n      pop\n      swap3\n      jump\t// out\n        /* \"#utility.yul\":10250:10879   */\n    tag_120:\n        /* \"#utility.yul\":10345:10351   */\n      0x00\n        /* \"#utility.yul\":10353:10359   */\n      dup1\n        /* \"#utility.yul\":10361:10367   */\n      0x00\n        /* \"#utility.yul\":10369:10375   */\n      dup1\n        /* \"#utility.yul\":10422:10425   */\n      0x80\n        /* \"#utility.yul\":10410:10419   */\n      dup6\n        /* \"#utility.yul\":10401:10408   */\n      dup8\n        /* \"#utility.yul\":10397:10420   */\n      sub\n        /* \"#utility.yul\":10393:10426   */\n      slt\n        /* \"#utility.yul\":10390:10443   */\n      iszero\n      tag_594\n      jumpi\n        /* \"#utility.yul\":10439:10440   */\n      0x00\n        /* \"#utility.yul\":10436:10437   */\n      dup1\n        /* \"#utility.yul\":10429:10441   */\n      revert\n        /* \"#utility.yul\":10390:10443   */\n    tag_594:\n        /* \"#utility.yul\":10462:10491   */\n      tag_595\n        /* \"#utility.yul\":10481:10490   */\n      dup6\n        /* \"#utility.yul\":10462:10491   */\n      tag_481\n      jump\t// in\n    tag_595:\n        /* \"#utility.yul\":10452:10491   */\n      swap4\n      pop\n        /* \"#utility.yul\":10560:10562   */\n      0x20\n        /* \"#utility.yul\":10545:10563   */\n      dup6\n      add\n        /* \"#utility.yul\":10532:10564   */\n      calldataload\n      swap3\n      pop\n        /* \"#utility.yul\":10661:10663   */\n      0x40\n        /* \"#utility.yul\":10646:10664   */\n      dup6\n      add\n        /* \"#utility.yul\":10633:10665   */\n      calldataload\n      swap2\n      pop\n        /* \"#utility.yul\":10742:10744   */\n      0x60\n        /* \"#utility.yul\":10727:10745   */\n      dup6\n      add\n        /* \"#utility.yul\":10714:10746   */\n      calldataload\n      sub(shl(0x40, 0x01), 0x01)\n        /* \"#utility.yul\":10758:10788   */\n      dup2\n      gt\n        /* \"#utility.yul\":10755:10805   */\n      iszero\n      tag_548\n      jumpi\n        /* \"#utility.yul\":10801:10802   */\n      0x00\n        /* \"#utility.yul\":10798:10799   */\n      dup1\n        /* \"#utility.yul\":10791:10803   */\n      revert\n        /* \"#utility.yul\":10884:11231   */\n    tag_136:\n        /* \"#utility.yul\":10949:10955   */\n      0x00\n        /* \"#utility.yul\":10957:10963   */\n      dup1\n        /* \"#utility.yul\":11010:11012   */\n      0x40\n        /* \"#utility.yul\":10998:11007   */\n      dup4\n        /* \"#utility.yul\":10989:10996   */\n      dup6\n        /* \"#utility.yul\":10985:11008   */\n      sub\n        /* \"#utility.yul\":10981:11013   */\n      slt\n        /* \"#utility.yul\":10978:11030   */\n      iszero\n      tag_599\n      jumpi\n        /* \"#utility.yul\":11026:11027   */\n      0x00\n        /* \"#utility.yul\":11023:11024   */\n      dup1\n        /* \"#utility.yul\":11016:11028   */\n      revert\n        /* \"#utility.yul\":10978:11030   */\n    tag_599:\n        /* \"#utility.yul\":11049:11078   */\n      tag_600\n        /* \"#utility.yul\":11068:11077   */\n      dup4\n        /* \"#utility.yul\":11049:11078   */\n      tag_481\n      jump\t// in\n    tag_600:\n        /* \"#utility.yul\":11039:11078   */\n      swap2\n      pop\n        /* \"#utility.yul\":11128:11130   */\n      0x20\n        /* \"#utility.yul\":11117:11126   */\n      dup4\n        /* \"#utility.yul\":11113:11131   */\n      add\n        /* \"#utility.yul\":11100:11132   */\n      calldataload\n        /* \"#utility.yul\":11175:11180   */\n      dup1\n        /* \"#utility.yul\":11168:11181   */\n      iszero\n        /* \"#utility.yul\":11161:11182   */\n      iszero\n        /* \"#utility.yul\":11154:11159   */\n      dup2\n        /* \"#utility.yul\":11151:11183   */\n      eq\n        /* \"#utility.yul\":11141:11201   */\n      tag_601\n      jumpi\n        /* \"#utility.yul\":11197:11198   */\n      0x00\n        /* \"#utility.yul\":11194:11195   */\n      dup1\n        /* \"#utility.yul\":11187:11199   */\n      revert\n        /* \"#utility.yul\":11141:11201   */\n    tag_601:\n        /* \"#utility.yul\":11220:11225   */\n      dup1\n        /* \"#utility.yul\":11210:11225   */\n      swap2\n      pop\n      pop\n        /* \"#utility.yul\":10884:11231   */\n      swap3\n      pop\n      swap3\n      swap1\n      pop\n      jump\t// out\n        /* \"#utility.yul\":11236:11496   */\n    tag_153:\n        /* \"#utility.yul\":11304:11310   */\n      0x00\n        /* \"#utility.yul\":11312:11318   */\n      dup1\n        /* \"#utility.yul\":11365:11367   */\n      0x40\n        /* \"#utility.yul\":11353:11362   */\n      dup4\n        /* \"#utility.yul\":11344:11351   */\n      dup6\n        /* \"#utility.yul\":11340:11363   */\n      sub\n        /* \"#utility.yul\":11336:11368   */\n      slt\n        /* \"#utility.yul\":11333:11385   */\n      iszero\n      tag_603\n      jumpi\n        /* \"#utility.yul\":11381:11382   */\n      0x00\n        /* \"#utility.yul\":11378:11379   */\n      dup1\n        /* \"#utility.yul\":11371:11383   */\n      revert\n        /* \"#utility.yul\":11333:11385   */\n    tag_603:\n        /* \"#utility.yul\":11404:11433   */\n      tag_604\n        /* \"#utility.yul\":11423:11432   */\n      dup4\n        /* \"#utility.yul\":11404:11433   */\n      tag_481\n      jump\t// in\n    tag_604:\n        /* \"#utility.yul\":11394:11433   */\n      swap2\n      pop\n        /* \"#utility.yul\":11452:11490   */\n      tag_566\n        /* \"#utility.yul\":11486:11488   */\n      0x20\n        /* \"#utility.yul\":11475:11484   */\n      dup5\n        /* \"#utility.yul\":11471:11489   */\n      add\n        /* \"#utility.yul\":11452:11490   */\n      tag_481\n      jump\t// in\n        /* \"#utility.yul\":11501:12205   */\n    tag_158:\n        /* \"#utility.yul\":11605:11611   */\n      0x00\n        /* \"#utility.yul\":11613:11619   */\n      dup1\n        /* \"#utility.yul\":11621:11627   */\n      0x00\n        /* \"#utility.yul\":11629:11635   */\n      dup1\n        /* \"#utility.yul\":11637:11643   */\n      0x00\n        /* \"#utility.yul\":11690:11693   */\n      0xa0\n        /* \"#utility.yul\":11678:11687   */\n      dup7\n        /* \"#utility.yul\":11669:11676   */\n      dup9\n        /* \"#utility.yul\":11665:11688   */\n      sub\n        /* \"#utility.yul\":11661:11694   */\n      slt\n        /* \"#utility.yul\":11658:11711   */\n      iszero\n      tag_607\n      jumpi\n        /* \"#utility.yul\":11707:11708   */\n      0x00\n        /* \"#utility.yul\":11704:11705   */\n      dup1\n        /* \"#utility.yul\":11697:11709   */\n      revert\n        /* \"#utility.yul\":11658:11711   */\n    tag_607:\n        /* \"#utility.yul\":11730:11759   */\n      tag_608\n        /* \"#utility.yul\":11749:11758   */\n      dup7\n        /* \"#utility.yul\":11730:11759   */\n      tag_481\n      jump\t// in\n    tag_608:\n        /* \"#utility.yul\":11720:11759   */\n      swap5\n      pop\n        /* \"#utility.yul\":11778:11816   */\n      tag_609\n        /* \"#utility.yul\":11812:11814   */\n      0x20\n        /* \"#utility.yul\":11801:11810   */\n      dup8\n        /* \"#utility.yul\":11797:11815   */\n      add\n        /* \"#utility.yul\":11778:11816   */\n      tag_481\n      jump\t// in\n    tag_609:\n        /* \"#utility.yul\":11768:11816   */\n      swap4\n      pop\n        /* \"#utility.yul\":11885:11887   */\n      0x40\n        /* \"#utility.yul\":11870:11888   */\n      dup7\n      add\n        /* \"#utility.yul\":11857:11889   */\n      calldataload\n      swap3\n      pop\n        /* \"#utility.yul\":11986:11988   */\n      0x60\n        /* \"#utility.yul\":11971:11989   */\n      dup7\n      add\n        /* \"#utility.yul\":11958:11990   */\n      calldataload\n      swap2\n      pop\n        /* \"#utility.yul\":12067:12070   */\n      0x80\n        /* \"#utility.yul\":12052:12071   */\n      dup7\n      add\n        /* \"#utility.yul\":12039:12072   */\n      calldataload\n      sub(shl(0x40, 0x01), 0x01)\n        /* \"#utility.yul\":12084:12114   */\n      dup2\n      gt\n        /* \"#utility.yul\":12081:12131   */\n      iszero\n      tag_562\n      jumpi\n        /* \"#utility.yul\":12127:12128   */\n      0x00\n        /* \"#utility.yul\":12124:12125   */\n      dup1\n        /* \"#utility.yul\":12117:12129   */\n      revert\n        /* \"#utility.yul\":12210:12630   */\n    tag_162:\n        /* \"#utility.yul\":12287:12293   */\n      0x00\n        /* \"#utility.yul\":12295:12301   */\n      dup1\n        /* \"#utility.yul\":12303:12309   */\n      0x00\n        /* \"#utility.yul\":12356:12358   */\n      0x60\n        /* \"#utility.yul\":12344:12353   */\n      dup5\n        /* \"#utility.yul\":12335:12342   */\n      dup7\n        /* \"#utility.yul\":12331:12354   */\n      sub\n        /* \"#utility.yul\":12327:12359   */\n      slt\n        /* \"#utility.yul\":12324:12376   */\n      iszero\n      tag_613\n      jumpi\n        /* \"#utility.yul\":12372:12373   */\n      0x00\n        /* \"#utility.yul\":12369:12370   */\n      dup1\n        /* \"#utility.yul\":12362:12374   */\n      revert\n        /* \"#utility.yul\":12324:12376   */\n    tag_613:\n        /* \"#utility.yul\":12395:12424   */\n      tag_614\n        /* \"#utility.yul\":12414:12423   */\n      dup5\n        /* \"#utility.yul\":12395:12424   */\n      tag_481\n      jump\t// in\n    tag_614:\n        /* \"#utility.yul\":12385:12424   */\n      swap6\n        /* \"#utility.yul\":12493:12495   */\n      0x20\n        /* \"#utility.yul\":12478:12496   */\n      dup6\n      add\n        /* \"#utility.yul\":12465:12497   */\n      calldataload\n      swap6\n      pop\n        /* \"#utility.yul\":12594:12596   */\n      0x40\n        /* \"#utility.yul\":12579:12597   */\n      swap1\n      swap5\n      add\n        /* \"#utility.yul\":12566:12598   */\n      calldataload\n      swap4\n        /* \"#utility.yul\":12210:12630   */\n      swap3\n      pop\n      pop\n      pop\n      jump\t// out\n        /* \"#utility.yul\":12635:13015   */\n    tag_176:\n        /* \"#utility.yul\":12714:12715   */\n      0x01\n        /* \"#utility.yul\":12710:12722   */\n      dup2\n      dup2\n      shr\n      swap1\n        /* \"#utility.yul\":12757:12769   */\n      dup3\n      and\n      dup1\n        /* \"#utility.yul\":12778:12839   */\n      tag_616\n      jumpi\n        /* \"#utility.yul\":12832:12836   */\n      0x7f\n        /* \"#utility.yul\":12824:12830   */\n      dup3\n        /* \"#utility.yul\":12820:12837   */\n      and\n        /* \"#utility.yul\":12810:12837   */\n      swap2\n      pop\n        /* \"#utility.yul\":12778:12839   */\n    tag_616:\n        /* \"#utility.yul\":12885:12887   */\n      0x20\n        /* \"#utility.yul\":12877:12883   */\n      dup3\n        /* \"#utility.yul\":12874:12888   */\n      lt\n        /* \"#utility.yul\":12854:12872   */\n      dup2\n        /* \"#utility.yul\":12851:12889   */\n      sub\n        /* \"#utility.yul\":12848:13009   */\n      tag_617\n      jumpi\n        /* \"#utility.yul\":12931:12941   */\n      0x4e487b71\n        /* \"#utility.yul\":12926:12929   */\n      0xe0\n        /* \"#utility.yul\":12922:12942   */\n      shl\n        /* \"#utility.yul\":12919:12920   */\n      0x00\n        /* \"#utility.yul\":12912:12943   */\n      mstore\n        /* \"#utility.yul\":12966:12970   */\n      0x22\n        /* \"#utility.yul\":12963:12964   */\n      0x04\n        /* \"#utility.yul\":12956:12971   */\n      mstore\n        /* \"#utility.yul\":12994:12998   */\n      0x24\n        /* \"#utility.yul\":12991:12992   */\n      0x00\n        /* \"#utility.yul\":12984:12999   */\n      revert\n        /* \"#utility.yul\":12848:13009   */\n    tag_617:\n      pop\n        /* \"#utility.yul\":12635:13015   */\n      swap2\n      swap1\n      pop\n      jump\t// out\n        /* \"#utility.yul\":13578:13705   */\n    tag_232:\n        /* \"#utility.yul\":13639:13649   */\n      0x4e487b71\n        /* \"#utility.yul\":13634:13637   */\n      0xe0\n        /* \"#utility.yul\":13630:13650   */\n      shl\n        /* \"#utility.yul\":13627:13628   */\n      0x00\n        /* \"#utility.yul\":13620:13651   */\n      mstore\n        /* \"#utility.yul\":13670:13674   */\n      0x32\n        /* \"#utility.yul\":13667:13668   */\n      0x04\n        /* \"#utility.yul\":13660:13675   */\n      mstore\n        /* \"#utility.yul\":13694:13698   */\n      0x24\n        /* \"#utility.yul\":13691:13692   */\n      0x00\n        /* \"#utility.yul\":13684:13699   */\n      revert\n        /* \"#utility.yul\":13836:14354   */\n    tag_491:\n        /* \"#utility.yul\":13938:13940   */\n      0x1f\n        /* \"#utility.yul\":13933:13936   */\n      dup3\n        /* \"#utility.yul\":13930:13941   */\n      gt\n        /* \"#utility.yul\":13927:14348   */\n      iszero\n      tag_207\n      jumpi\n        /* \"#utility.yul\":13974:13979   */\n      dup1\n        /* \"#utility.yul\":13971:13972   */\n      0x00\n        /* \"#utility.yul\":13964:13980   */\n      mstore\n        /* \"#utility.yul\":14018:14022   */\n      0x20\n        /* \"#utility.yul\":14015:14016   */\n      0x00\n        /* \"#utility.yul\":14005:14023   */\n      keccak256\n        /* \"#utility.yul\":14088:14090   */\n      0x1f\n        /* \"#utility.yul\":14076:14086   */\n      dup5\n        /* \"#utility.yul\":14072:14091   */\n      add\n        /* \"#utility.yul\":14069:14070   */\n      0x05\n        /* \"#utility.yul\":14065:14092   */\n      shr\n        /* \"#utility.yul\":14059:14063   */\n      dup2\n        /* \"#utility.yul\":14055:14093   */\n      add\n        /* \"#utility.yul\":14124:14128   */\n      0x20\n        /* \"#utility.yul\":14112:14122   */\n      dup6\n        /* \"#utility.yul\":14109:14129   */\n      lt\n        /* \"#utility.yul\":14106:14153   */\n      iszero\n      tag_624\n      jumpi\n      pop\n        /* \"#utility.yul\":14147:14151   */\n      dup1\n        /* \"#utility.yul\":14106:14153   */\n    tag_624:\n        /* \"#utility.yul\":14202:14204   */\n      0x1f\n        /* \"#utility.yul\":14197:14200   */\n      dup5\n        /* \"#utility.yul\":14193:14205   */\n      add\n        /* \"#utility.yul\":14190:14191   */\n      0x05\n        /* \"#utility.yul\":14186:14206   */\n      shr\n        /* \"#utility.yul\":14180:14184   */\n      dup3\n        /* \"#utility.yul\":14176:14207   */\n      add\n        /* \"#utility.yul\":14166:14207   */\n      swap2\n      pop\n        /* \"#utility.yul\":14257:14338   */\n    tag_625:\n        /* \"#utility.yul\":14275:14277   */\n      dup2\n        /* \"#utility.yul\":14268:14273   */\n      dup2\n        /* \"#utility.yul\":14265:14278   */\n      lt\n        /* \"#utility.yul\":14257:14338   */\n      iszero\n      tag_185\n      jumpi\n        /* \"#utility.yul\":14334:14335   */\n      0x00\n        /* \"#utility.yul\":14320:14336   */\n      dup2\n      sstore\n        /* \"#utility.yul\":14301:14302   */\n      0x01\n        /* \"#utility.yul\":14290:14303   */\n      add\n        /* \"#utility.yul\":14257:14338   */\n      jump(tag_625)\n        /* \"#utility.yul\":14530:15829   */\n    tag_296:\n        /* \"#utility.yul\":14656:14659   */\n      dup2\n        /* \"#utility.yul\":14650:14660   */\n      mload\n      sub(shl(0x40, 0x01), 0x01)\n        /* \"#utility.yul\":14675:14681   */\n      dup2\n        /* \"#utility.yul\":14672:14702   */\n      gt\n        /* \"#utility.yul\":14669:14725   */\n      iszero\n      tag_631\n      jumpi\n        /* \"#utility.yul\":14705:14723   */\n      tag_631\n      tag_220\n      jump\t// in\n    tag_631:\n        /* \"#utility.yul\":14734:14831   */\n      tag_632\n        /* \"#utility.yul\":14824:14830   */\n      dup2\n        /* \"#utility.yul\":14784:14822   */\n      tag_633\n        /* \"#utility.yul\":14816:14820   */\n      dup5\n        /* \"#utility.yul\":14810:14821   */\n      sload\n        /* \"#utility.yul\":14784:14822   */\n      tag_176\n      jump\t// in\n    tag_633:\n        /* \"#utility.yul\":14778:14782   */\n      dup5\n        /* \"#utility.yul\":14734:14831   */\n      tag_491\n      jump\t// in\n    tag_632:\n        /* \"#utility.yul\":14880:14884   */\n      0x20\n        /* \"#utility.yul\":14911:14913   */\n      0x1f\n        /* \"#utility.yul\":14900:14914   */\n      dup3\n      gt\n        /* \"#utility.yul\":14928:14929   */\n      0x01\n        /* \"#utility.yul\":14923:15572   */\n      dup2\n      eq\n      tag_635\n      jumpi\n        /* \"#utility.yul\":15616:15617   */\n      0x00\n        /* \"#utility.yul\":15633:15639   */\n      dup4\n        /* \"#utility.yul\":15630:15719   */\n      iszero\n      tag_636\n      jumpi\n      pop\n        /* \"#utility.yul\":15685:15704   */\n      dup5\n      dup3\n      add\n        /* \"#utility.yul\":15679:15705   */\n      mload\n        /* \"#utility.yul\":15630:15719   */\n    tag_636:\n      not(0x00)\n        /* \"#utility.yul\":14487:14488   */\n      0x03\n        /* \"#utility.yul\":14483:14494   */\n      dup6\n      swap1\n      shl\n        /* \"#utility.yul\":14479:14503   */\n      shr\n        /* \"#utility.yul\":14475:14504   */\n      not\n        /* \"#utility.yul\":14465:14505   */\n      and\n        /* \"#utility.yul\":14511:14512   */\n      0x01\n        /* \"#utility.yul\":14507:14518   */\n      dup5\n      swap1\n      shl\n        /* \"#utility.yul\":14462:14519   */\n      or\n        /* \"#utility.yul\":15732:15813   */\n      dup5\n      sstore\n        /* \"#utility.yul\":14893:15823   */\n      jump(tag_185)\n        /* \"#utility.yul\":14923:15572   */\n    tag_635:\n        /* \"#utility.yul\":13783:13784   */\n      0x00\n        /* \"#utility.yul\":13776:13790   */\n      dup5\n      dup2\n      mstore\n        /* \"#utility.yul\":13820:13824   */\n      0x20\n        /* \"#utility.yul\":13807:13825   */\n      dup2\n      keccak256\n      not(0x1f)\n        /* \"#utility.yul\":14959:14979   */\n      dup6\n      and\n      swap2\n        /* \"#utility.yul\":15077:15299   */\n    tag_639:\n        /* \"#utility.yul\":15091:15098   */\n      dup3\n        /* \"#utility.yul\":15088:15089   */\n      dup2\n        /* \"#utility.yul\":15085:15099   */\n      lt\n        /* \"#utility.yul\":15077:15299   */\n      iszero\n      tag_641\n      jumpi\n        /* \"#utility.yul\":15173:15192   */\n      dup8\n      dup6\n      add\n        /* \"#utility.yul\":15167:15193   */\n      mload\n        /* \"#utility.yul\":15152:15194   */\n      dup3\n      sstore\n        /* \"#utility.yul\":15280:15284   */\n      0x20\n        /* \"#utility.yul\":15265:15285   */\n      swap5\n      dup6\n      add\n      swap5\n        /* \"#utility.yul\":15233:15234   */\n      0x01\n        /* \"#utility.yul\":15221:15235   */\n      swap1\n      swap3\n      add\n      swap2\n        /* \"#utility.yul\":15107:15119   */\n      add\n        /* \"#utility.yul\":15077:15299   */\n      jump(tag_639)\n    tag_641:\n        /* \"#utility.yul\":15081:15084   */\n      pop\n        /* \"#utility.yul\":15327:15333   */\n      dup5\n        /* \"#utility.yul\":15318:15325   */\n      dup3\n        /* \"#utility.yul\":15315:15334   */\n      lt\n        /* \"#utility.yul\":15312:15513   */\n      iszero\n      tag_642\n      jumpi\n        /* \"#utility.yul\":15388:15407   */\n      dup7\n      dup5\n      add\n        /* \"#utility.yul\":15382:15408   */\n      mload\n      not(0x00)\n        /* \"#utility.yul\":15471:15472   */\n      0x03\n        /* \"#utility.yul\":15467:15481   */\n      dup8\n      swap1\n      shl\n        /* \"#utility.yul\":15483:15486   */\n      0xf8\n        /* \"#utility.yul\":15463:15487   */\n      and\n        /* \"#utility.yul\":15459:15496   */\n      shr\n        /* \"#utility.yul\":15455:15497   */\n      not\n        /* \"#utility.yul\":15440:15498   */\n      and\n        /* \"#utility.yul\":15425:15499   */\n      dup2\n      sstore\n        /* \"#utility.yul\":15312:15513   */\n    tag_642:\n      pop\n      pop\n      pop\n      pop\n        /* \"#utility.yul\":15559:15560   */\n      0x01\n        /* \"#utility.yul\":15543:15557   */\n      swap1\n      dup2\n      shl\n        /* \"#utility.yul\":15539:15561   */\n      add\n        /* \"#utility.yul\":15526:15562   */\n      swap1\n      sstore\n      pop\n        /* \"#utility.yul\":14530:15829   */\n      jump\t// out\n        /* \"#utility.yul\":16321:16878   */\n    tag_397:\n      sub(shl(0xa0, 0x01), 0x01)\n        /* \"#utility.yul\":16580:16612   */\n      dup7\n      dup2\n      and\n        /* \"#utility.yul\":16562:16613   */\n      dup3\n      mstore\n        /* \"#utility.yul\":16649:16681   */\n      dup6\n      and\n        /* \"#utility.yul\":16644:16646   */\n      0x20\n        /* \"#utility.yul\":16629:16647   */\n      dup3\n      add\n        /* \"#utility.yul\":16622:16682   */\n      mstore\n        /* \"#utility.yul\":16713:16715   */\n      0x40\n        /* \"#utility.yul\":16698:16716   */\n      dup2\n      add\n        /* \"#utility.yul\":16691:16725   */\n      dup5\n      swap1\n      mstore\n        /* \"#utility.yul\":16756:16758   */\n      0x60\n        /* \"#utility.yul\":16741:16759   */\n      dup2\n      add\n        /* \"#utility.yul\":16734:16768   */\n      dup4\n      swap1\n      mstore\n        /* \"#utility.yul\":16600:16603   */\n      0xa0\n        /* \"#utility.yul\":16799:16802   */\n      0x80\n        /* \"#utility.yul\":16784:16803   */\n      dup3\n      add\n        /* \"#utility.yul\":16777:16809   */\n      dup2\n      swap1\n      mstore\n      0x00\n      swap1\n        /* \"#utility.yul\":16826:16872   */\n      tag_646\n      swap1\n        /* \"#utility.yul\":16852:16871   */\n      dup4\n      add\n        /* \"#utility.yul\":16844:16850   */\n      dup5\n        /* \"#utility.yul\":16826:16872   */\n      tag_485\n      jump\t// in\n    tag_646:\n        /* \"#utility.yul\":16818:16872   */\n      swap8\n        /* \"#utility.yul\":16321:16878   */\n      swap7\n      pop\n      pop\n      pop\n      pop\n      pop\n      pop\n      pop\n      jump\t// out\n        /* \"#utility.yul\":16883:17132   */\n    tag_400:\n        /* \"#utility.yul\":16952:16958   */\n      0x00\n        /* \"#utility.yul\":17005:17007   */\n      0x20\n        /* \"#utility.yul\":16993:17002   */\n      dup3\n        /* \"#utility.yul\":16984:16991   */\n      dup5\n        /* \"#utility.yul\":16980:17003   */\n      sub\n        /* \"#utility.yul\":16976:17008   */\n      slt\n        /* \"#utility.yul\":16973:17025   */\n      iszero\n      tag_648\n      jumpi\n        /* \"#utility.yul\":17021:17022   */\n      0x00\n        /* \"#utility.yul\":17018:17019   */\n      dup1\n        /* \"#utility.yul\":17011:17023   */\n      revert\n        /* \"#utility.yul\":16973:17025   */\n    tag_648:\n        /* \"#utility.yul\":17053:17062   */\n      dup2\n        /* \"#utility.yul\":17047:17063   */\n      mload\n        /* \"#utility.yul\":17072:17102   */\n      tag_504\n        /* \"#utility.yul\":17096:17101   */\n      dup2\n        /* \"#utility.yul\":17072:17102   */\n      tag_482\n      jump\t// in\n        /* \"#utility.yul\":17137:17960   */\n    tag_416:\n      sub(shl(0xa0, 0x01), 0x01)\n        /* \"#utility.yul\":17496:17528   */\n      dup7\n      dup2\n      and\n        /* \"#utility.yul\":17478:17529   */\n      dup3\n      mstore\n        /* \"#utility.yul\":17565:17597   */\n      dup6\n      and\n        /* \"#utility.yul\":17560:17562   */\n      0x20\n        /* \"#utility.yul\":17545:17563   */\n      dup3\n      add\n        /* \"#utility.yul\":17538:17598   */\n      mstore\n        /* \"#utility.yul\":17516:17519   */\n      0xa0\n        /* \"#utility.yul\":17629:17631   */\n      0x40\n        /* \"#utility.yul\":17614:17632   */\n      dup3\n      add\n        /* \"#utility.yul\":17607:17638   */\n      dup2\n      swap1\n      mstore\n      0x00\n      swap1\n        /* \"#utility.yul\":17661:17718   */\n      tag_651\n      swap1\n        /* \"#utility.yul\":17698:17717   */\n      dup4\n      add\n        /* \"#utility.yul\":17690:17696   */\n      dup7\n        /* \"#utility.yul\":17661:17718   */\n      tag_489\n      jump\t// in\n    tag_651:\n        /* \"#utility.yul\":17766:17775   */\n      dup3\n        /* \"#utility.yul\":17758:17764   */\n      dup2\n        /* \"#utility.yul\":17754:17776   */\n      sub\n        /* \"#utility.yul\":17749:17751   */\n      0x60\n        /* \"#utility.yul\":17738:17747   */\n      dup5\n        /* \"#utility.yul\":17734:17752   */\n      add\n        /* \"#utility.yul\":17727:17777   */\n      mstore\n        /* \"#utility.yul\":17800:17844   */\n      tag_652\n        /* \"#utility.yul\":17837:17843   */\n      dup2\n        /* \"#utility.yul\":17829:17835   */\n      dup7\n        /* \"#utility.yul\":17800:17844   */\n      tag_489\n      jump\t// in\n    tag_652:\n        /* \"#utility.yul\":17786:17844   */\n      swap1\n      pop\n        /* \"#utility.yul\":17893:17902   */\n      dup3\n        /* \"#utility.yul\":17885:17891   */\n      dup2\n        /* \"#utility.yul\":17881:17903   */\n      sub\n        /* \"#utility.yul\":17875:17878   */\n      0x80\n        /* \"#utility.yul\":17864:17873   */\n      dup5\n        /* \"#utility.yul\":17860:17879   */\n      add\n        /* \"#utility.yul\":17853:17904   */\n      mstore\n        /* \"#utility.yul\":17921:17954   */\n      tag_653\n        /* \"#utility.yul\":17947:17953   */\n      dup2\n        /* \"#utility.yul\":17939:17945   */\n      dup6\n        /* \"#utility.yul\":17921:17954   */\n      tag_485\n      jump\t// in\n    tag_653:\n        /* \"#utility.yul\":17913:17954   */\n      swap9\n        /* \"#utility.yul\":17137:17960   */\n      swap8\n      pop\n      pop\n      pop\n      pop\n      pop\n      pop\n      pop\n      pop\n      jump\t// out\n        /* \"#utility.yul\":17965:18187   */\n    tag_443:\n        /* \"#utility.yul\":18030:18039   */\n      dup1\n      dup3\n      add\n        /* \"#utility.yul\":18051:18061   */\n      dup1\n      dup3\n      gt\n        /* \"#utility.yul\":18048:18181   */\n      iszero\n      tag_164\n      jumpi\n        /* \"#utility.yul\":18103:18113   */\n      0x4e487b71\n        /* \"#utility.yul\":18098:18101   */\n      0xe0\n        /* \"#utility.yul\":18094:18114   */\n      shl\n        /* \"#utility.yul\":18091:18092   */\n      0x00\n        /* \"#utility.yul\":18084:18115   */\n      mstore\n        /* \"#utility.yul\":18138:18142   */\n      0x11\n        /* \"#utility.yul\":18135:18136   */\n      0x04\n        /* \"#utility.yul\":18128:18143   */\n      mstore\n        /* \"#utility.yul\":18166:18170   */\n      0x24\n        /* \"#utility.yul\":18163:18164   */\n      0x00\n        /* \"#utility.yul\":18156:18171   */\n      revert\n        /* \"#utility.yul\":18614:19079   */\n    tag_480:\n        /* \"#utility.yul\":18871:18873   */\n      0x40\n        /* \"#utility.yul\":18860:18869   */\n      dup2\n        /* \"#utility.yul\":18853:18874   */\n      mstore\n        /* \"#utility.yul\":18834:18838   */\n      0x00\n        /* \"#utility.yul\":18897:18953   */\n      tag_658\n        /* \"#utility.yul\":18949:18951   */\n      0x40\n        /* \"#utility.yul\":18938:18947   */\n      dup4\n        /* \"#utility.yul\":18934:18952   */\n      add\n        /* \"#utility.yul\":18926:18932   */\n      dup6\n        /* \"#utility.yul\":18897:18953   */\n      tag_489\n      jump\t// in\n    tag_658:\n        /* \"#utility.yul\":19001:19010   */\n      dup3\n        /* \"#utility.yul\":18993:18999   */\n      dup2\n        /* \"#utility.yul\":18989:19011   */\n      sub\n        /* \"#utility.yul\":18984:18986   */\n      0x20\n        /* \"#utility.yul\":18973:18982   */\n      dup5\n        /* \"#utility.yul\":18969:18987   */\n      add\n        /* \"#utility.yul\":18962:19012   */\n      mstore\n        /* \"#utility.yul\":19029:19073   */\n      tag_659\n        /* \"#utility.yul\":19066:19072   */\n      dup2\n        /* \"#utility.yul\":19058:19064   */\n      dup6\n        /* \"#utility.yul\":19029:19073   */\n      tag_489\n      jump\t// in\n    tag_659:\n        /* \"#utility.yul\":19021:19073   */\n      swap6\n        /* \"#utility.yul\":18614:19079   */\n      swap5\n      pop\n      pop\n      pop\n      pop\n      pop\n      jump\t// out\n\n    auxdata: 0xa264697066735822122086132e0a73bee7e1a544d565862ef58e4f7266364bb4b9befcb4f7e86ee7988a64736f6c634300081a0033\n}\n",
				"bytecode": {
					"linkReferences": {},
					"object": "608060405234801561000f575f80fd5b5060405161217538038061217583398101604081905261002e916101f9565b60408051602081019091525f815261004581610125565b506004805460ff1916905561005a5f86610135565b506100857f65d7a28e3265b37a6474929f336521b332c1681b933f6cb9f3376673440d862a85610135565b506100b07f9f2df0fed2c77648de5860a4cc508cd0818c85b8b8a1ab4ceeef8d981c8956a684610135565b50600780546001600160a01b038481166001600160a01b03199283168117909355600980549185169190921681179091556040805192835260208301919091527fb0cbb6b4a2e03cca1ffb783243c49b48c226651fac7649f1e3f66cc8f0796210910160405180910390a150505050506103bc565b60026101318282610302565b5050565b5f8281526003602090815260408083206001600160a01b038516845290915281205460ff166101d9575f8381526003602090815260408083206001600160a01b03861684529091529020805460ff191660011790556101913390565b6001600160a01b0316826001600160a01b0316847f2f8788117e7eff1d82e926ec794901d17c78024a50270940304540a733656f0d60405160405180910390a45060016101dc565b505f5b92915050565b6001600160a01b03811681146101f6575f80fd5b50565b5f805f805f60a0868803121561020d575f80fd5b8551610218816101e2565b6020870151909550610229816101e2565b604087015190945061023a816101e2565b606087015190935061024b816101e2565b608087015190925061025c816101e2565b809150509295509295909350565b634e487b7160e01b5f52604160045260245ffd5b600181811c9082168061029257607f821691505b6020821081036102b057634e487b7160e01b5f52602260045260245ffd5b50919050565b601f8211156102fd57805f5260205f20601f840160051c810160208510156102db5750805b601f840160051c820191505b818110156102fa575f81556001016102e7565b50505b505050565b81516001600160401b0381111561031b5761031b61026a565b61032f81610329845461027e565b846102b6565b6020601f821160018114610361575f831561034a5750848201515b5f19600385901b1c1916600184901b1784556102fa565b5f84815260208120601f198516915b828110156103905787850151825560209485019460019092019101610370565b50848210156103ad57868401515f19600387901b60f8161c191681555b50505050600190811b01905550565b611dac806103c95f395ff3fe608060405234801561000f575f80fd5b50600436106101db575f3560e01c80634f558e7911610109578063a22cb4651161009e578063e63ab1e91161006e578063e63ab1e914610453578063e985e9c51461047a578063f242432a1461048d578063f5298aca146104a0575f80fd5b8063a22cb465146103e7578063bd85b039146103fa578063d539139314610419578063d547741f14610440575f80fd5b80637f345710116100d95780637f3457101461039e5780638456cb59146103c557806391d14854146103cd578063a217fddf146103e0575f80fd5b80634f558e791461034c5780635c975abb1461036d5780636b20c45414610378578063731133e91461038b575f80fd5b80631f7fdffa1161017f5780632f2ff15d1161014f5780632f2ff15d146102fe57806336568abe146103115780633f4ba83a146103245780634e1273f41461032c575f80fd5b80631f7fdffa146102a3578063248a9ca3146102b657806328484a31146102d85780632eb2c2d6146102eb575f80fd5b80630e89341c116101ba5780630e89341c1461023d57806312da2b731461025d57806317e0f0a51461028857806318160ddd1461029b575f80fd5b8062fdd58e146101df57806301ffc9a71461020557806302fe530514610228575b5f80fd5b6101f26101ed3660046114c3565b6104b3565b6040519081526020015b60405180910390f35b610218610213366004611500565b6104da565b60405190151581526020016101fc565b61023b6102363660046115be565b6104e4565b005b61025061024b36600461160a565b61051b565b6040516101fc919061164f565b600954610270906001600160a01b031681565b6040516001600160a01b0390911681526020016101fc565b600754610270906001600160a01b031681565b6006546101f2565b61023b6102b136600461170b565b6105ad565b6101f26102c436600461160a565b5f9081526003602052604090206001015490565b600854610270906001600160a01b031681565b61023b6102f93660046117a7565b6105ea565b61023b61030c366004611853565b610656565b61023b61031f366004611853565b610680565b61023b6106b8565b61033f61033a36600461187d565b6106ed565b6040516101fc9190611978565b61021861035a36600461160a565b5f90815260056020526040902054151590565b60045460ff16610218565b61023b61038636600461198a565b6107b7565b61023b6103993660046119fc565b610816565b6101f27f7804d923f43a17d325d77e781528e0793b2edd9890ab45fc64efd7b4b427744c81565b61023b61084c565b6102186103db366004611853565b61087e565b6101f25f81565b61023b6103f5366004611a40565b6108a8565b6101f261040836600461160a565b5f9081526005602052604090205490565b6101f27f9f2df0fed2c77648de5860a4cc508cd0818c85b8b8a1ab4ceeef8d981c8956a681565b61023b61044e366004611853565b6108b3565b6101f27f65d7a28e3265b37a6474929f336521b332c1681b933f6cb9f3376673440d862a81565b610218610488366004611a79565b6108d7565b61023b61049b366004611aa1565b610904565b61023b6104ae366004611af4565b610963565b5f818152602081815260408083206001600160a01b03861684529091529020545b92915050565b5f6104d482610999565b7f7804d923f43a17d325d77e781528e0793b2edd9890ab45fc64efd7b4b427744c61050e816109bd565b610517826109c7565b5050565b60606002805461052a90611b24565b80601f016020809104026020016040519081016040528092919081815260200182805461055690611b24565b80156105a15780601f10610578576101008083540402835291602001916105a1565b820191905f5260205f20905b81548152906001019060200180831161058457829003601f168201915b50505050509050919050565b7f9f2df0fed2c77648de5860a4cc508cd0818c85b8b8a1ab4ceeef8d981c8956a66105d7816109bd565b6105e3858585856109d3565b5050505050565b336001600160a01b038616811480159061060b575061060986826108d7565b155b156106415760405163711bec9160e11b81526001600160a01b038083166004830152871660248201526044015b60405180910390fd5b61064e8686868686610a09565b505050505050565b5f82815260036020526040902060010154610670816109bd565b61067a8383610a67565b50505050565b6001600160a01b03811633146106a95760405163334bd91960e11b815260040160405180910390fd5b6106b38282610af8565b505050565b7f65d7a28e3265b37a6474929f336521b332c1681b933f6cb9f3376673440d862a6106e2816109bd565b6106ea610b63565b50565b6060815183511461071e5781518351604051635b05999160e01b815260048101929092526024820152604401610638565b5f83516001600160401b0381111561073857610738611522565b604051908082528060200260200182016040528015610761578160200160208202803683370190505b5090505f5b84518110156107af5760208082028601015161078a906020808402870101516104b3565b82828151811061079c5761079c611b5c565b6020908102919091010152600101610766565b509392505050565b6001600160a01b03831633148015906107d757506107d583336108d7565b155b1561080b57335b60405163711bec9160e11b81526001600160a01b0391821660048201529084166024820152604401610638565b6106b3838383610bb5565b7f9f2df0fed2c77648de5860a4cc508cd0818c85b8b8a1ab4ceeef8d981c8956a6610840816109bd565b6105e385858585610bf8565b7f65d7a28e3265b37a6474929f336521b332c1681b933f6cb9f3376673440d862a610876816109bd565b6106ea610c53565b5f9182526003602090815260408084206001600160a01b0393909316845291905290205460ff1690565b610517338383610c90565b5f828152600360205260409020600101546108cd816109bd565b61067a8383610af8565b6001600160a01b039182165f90815260016020908152604080832093909416825291909152205460ff1690565b336001600160a01b0386168114801590610925575061092386826108d7565b155b156109565760405163711bec9160e11b81526001600160a01b03808316600483015287166024820152604401610638565b61064e8686868686610d24565b6001600160a01b0383163314801590610983575061098183336108d7565b155b1561098e57336107de565b6106b3838383610db0565b5f6001600160e01b03198216637965db0b60e01b14806104d457506104d482610e16565b6106ea8133610e65565b60026105178282611bb4565b6001600160a01b0384166109fc57604051632bfa23e760e11b81525f6004820152602401610638565b61067a5f85858585610e9e565b6001600160a01b038416610a3257604051632bfa23e760e11b81525f6004820152602401610638565b6001600160a01b038516610a5a57604051626a0d4560e21b81525f6004820152602401610638565b6105e38585858585610e9e565b5f610a72838361087e565b610af1575f8381526003602090815260408083206001600160a01b03861684529091529020805460ff19166001179055610aa93390565b6001600160a01b0316826001600160a01b0316847f2f8788117e7eff1d82e926ec794901d17c78024a50270940304540a733656f0d60405160405180910390a45060016104d4565b505f6104d4565b5f610b03838361087e565b15610af1575f8381526003602090815260408083206001600160a01b0386168085529252808320805460ff1916905551339286917ff6391f5c32d9c69d2a47ea670b442974b53935d1edc7fd64eb21e047a839171b9190a45060016104d4565b610b6b610ef1565b6004805460ff191690557f5db9ee0a495bf2e6ff9c91a7834c1ba4fdd244a5e8aa4e537bd38aeae4b073aa335b6040516001600160a01b03909116815260200160405180910390a1565b6001600160a01b038316610bdd57604051626a0d4560e21b81525f6004820152602401610638565b6106b3835f848460405180602001604052805f815250610e9e565b6001600160a01b038416610c2157604051632bfa23e760e11b81525f6004820152602401610638565b6040805160018082526020820186905281830190815260608201859052608082019092529061064e5f87848487610e9e565b610c5b610f16565b6004805460ff191660011790557f62e78cea01bee320cd4e420270b5ea74000d11b0c9f74754ebdbfc544b05a258610b983390565b6001600160a01b038216610cb85760405162ced3e160e81b81525f6004820152602401610638565b6001600160a01b038381165f81815260016020908152604080832094871680845294825291829020805460ff191686151590811790915591519182527f17307eab39ab6107e8899845ad3d59bd9653f200f220920489ca2b5937696c31910160405180910390a3505050565b6001600160a01b038416610d4d57604051632bfa23e760e11b81525f6004820152602401610638565b6001600160a01b038516610d7557604051626a0d4560e21b81525f6004820152602401610638565b60408051600180825260208201869052818301908152606082018590526080820190925290610da78787848487610e9e565b50505050505050565b6001600160a01b038316610dd857604051626a0d4560e21b81525f6004820152602401610638565b604080516001808252602082018590528183019081526060820184905260a082019092525f608082018181529192916105e391879185908590610e9e565b5f6001600160e01b03198216636cdb3d1360e11b1480610e4657506001600160e01b031982166303a24d0760e21b145b806104d457506301ffc9a760e01b6001600160e01b03198316146104d4565b610e6f828261087e565b6105175760405163e2517d3f60e01b81526001600160a01b038216600482015260248101839052604401610638565b610eaa85858585610f3a565b6001600160a01b038416156105e35782513390600103610ee35760208481015190840151610edc838989858589610f46565b505061064e565b61064e818787878787611067565b60045460ff16610f1457604051638dfc202b60e01b815260040160405180910390fd5b565b60045460ff1615610f145760405163d93c066560e01b815260040160405180910390fd5b61067a8484848461114e565b6001600160a01b0384163b1561064e5760405163f23a6e6160e01b81526001600160a01b0385169063f23a6e6190610f8a9089908990889088908890600401611c6e565b6020604051808303815f875af1925050508015610fc4575060408051601f3d908101601f19168201909252610fc191810190611cb2565b60015b61102b573d808015610ff1576040519150601f19603f3d011682016040523d82523d5f602084013e610ff6565b606091505b5080515f0361102357604051632bfa23e760e11b81526001600160a01b0386166004820152602401610638565b805181602001fd5b6001600160e01b0319811663f23a6e6160e01b14610da757604051632bfa23e760e11b81526001600160a01b0386166004820152602401610638565b6001600160a01b0384163b1561064e5760405163bc197c8160e01b81526001600160a01b0385169063bc197c81906110ab9089908990889088908890600401611ccd565b6020604051808303815f875af19250505080156110e5575060408051601f3d908101601f191682019092526110e291810190611cb2565b60015b611112573d808015610ff1576040519150601f19603f3d011682016040523d82523d5f602084013e610ff6565b6001600160e01b0319811663bc197c8160e01b14610da757604051632bfa23e760e11b81526001600160a01b0386166004820152602401610638565b61115a8484848461128a565b6001600160a01b0384166111fe575f805b83518110156111e5575f83828151811061118757611187611b5c565b602002602001015190508060055f8785815181106111a7576111a7611b5c565b602002602001015181526020019081526020015f205f8282546111ca9190611d2a565b909155506111da90508184611d2a565b92505060010161116b565b508060065f8282546111f79190611d2a565b9091555050505b6001600160a01b03831661067a575f805b8351811015611279575f83828151811061122b5761122b611b5c565b602002602001015190508060055f87858151811061124b5761124b611b5c565b60209081029190910181015182528101919091526040015f208054919091039055919091019060010161120f565b506006805491909103905550505050565b611292610f16565b61067a8484848480518251146112c85781518151604051635b05999160e01b815260048101929092526024820152604401610638565b335f5b83518110156113ca576020818102858101820151908501909101516001600160a01b0388161561137c575f828152602081815260408083206001600160a01b038c16845290915290205481811015611356576040516303dee4c560e01b81526001600160a01b038a166004820152602481018290526044810183905260648101849052608401610638565b5f838152602081815260408083206001600160a01b038d16845290915290209082900390555b6001600160a01b038716156113c0575f828152602081815260408083206001600160a01b038b168452909152812080548392906113ba908490611d2a565b90915550505b50506001016112cb565b50825160010361144a5760208301515f906020840151909150856001600160a01b0316876001600160a01b0316846001600160a01b03167fc3d58168c5ae7397731d063d5bbf3d657854427343f4c083240f7aacaa2d0f62858560405161143b929190918252602082015260400190565b60405180910390a450506105e3565b836001600160a01b0316856001600160a01b0316826001600160a01b03167f4a39dc06d4c0dbc64b70af90fd698a233a518aa5d07e595d983b8c0526c8f7fb8686604051611499929190611d49565b60405180910390a45050505050565b80356001600160a01b03811681146114be575f80fd5b919050565b5f80604083850312156114d4575f80fd5b6114dd836114a8565b946020939093013593505050565b6001600160e01b0319811681146106ea575f80fd5b5f60208284031215611510575f80fd5b813561151b816114eb565b9392505050565b634e487b7160e01b5f52604160045260245ffd5b604051601f8201601f191681016001600160401b038111828210171561155e5761155e611522565b604052919050565b5f806001600160401b0384111561157f5761157f611522565b50601f8301601f191660200161159481611536565b9150508281528383830111156115a8575f80fd5b828260208301375f602084830101529392505050565b5f602082840312156115ce575f80fd5b81356001600160401b038111156115e3575f80fd5b8201601f810184136115f3575f80fd5b61160284823560208401611566565b949350505050565b5f6020828403121561161a575f80fd5b5035919050565b5f81518084528060208401602086015e5f602082860101526020601f19601f83011685010191505092915050565b602081525f61151b6020830184611621565b5f6001600160401b0382111561167957611679611522565b5060051b60200190565b5f82601f830112611692575f80fd5b81356116a56116a082611661565b611536565b8082825260208201915060208360051b8601019250858311156116c6575f80fd5b602085015b838110156116e35780358352602092830192016116cb565b5095945050505050565b5f82601f8301126116fc575f80fd5b61151b83833560208501611566565b5f805f806080858703121561171e575f80fd5b611727856114a8565b935060208501356001600160401b03811115611741575f80fd5b61174d87828801611683565b93505060408501356001600160401b03811115611768575f80fd5b61177487828801611683565b92505060608501356001600160401b0381111561178f575f80fd5b61179b878288016116ed565b91505092959194509250565b5f805f805f60a086880312156117bb575f80fd5b6117c4866114a8565b94506117d2602087016114a8565b935060408601356001600160401b038111156117ec575f80fd5b6117f888828901611683565b93505060608601356001600160401b03811115611813575f80fd5b61181f88828901611683565b92505060808601356001600160401b0381111561183a575f80fd5b611846888289016116ed565b9150509295509295909350565b5f8060408385031215611864575f80fd5b82359150611874602084016114a8565b90509250929050565b5f806040838503121561188e575f80fd5b82356001600160401b038111156118a3575f80fd5b8301601f810185136118b3575f80fd5b80356118c16116a082611661565b8082825260208201915060208360051b8501019250878311156118e2575f80fd5b6020840193505b8284101561190b576118fa846114a8565b8252602093840193909101906118e9565b945050505060208301356001600160401b03811115611928575f80fd5b61193485828601611683565b9150509250929050565b5f8151808452602084019350602083015f5b8281101561196e578151865260209586019590910190600101611950565b5093949350505050565b602081525f61151b602083018461193e565b5f805f6060848603121561199c575f80fd5b6119a5846114a8565b925060208401356001600160401b038111156119bf575f80fd5b6119cb86828701611683565b92505060408401356001600160401b038111156119e6575f80fd5b6119f286828701611683565b9150509250925092565b5f805f8060808587031215611a0f575f80fd5b611a18856114a8565b9350602085013592506040850135915060608501356001600160401b0381111561178f575f80fd5b5f8060408385031215611a51575f80fd5b611a5a836114a8565b915060208301358015158114611a6e575f80fd5b809150509250929050565b5f8060408385031215611a8a575f80fd5b611a93836114a8565b9150611874602084016114a8565b5f805f805f60a08688031215611ab5575f80fd5b611abe866114a8565b9450611acc602087016114a8565b9350604086013592506060860135915060808601356001600160401b0381111561183a575f80fd5b5f805f60608486031215611b06575f80fd5b611b0f846114a8565b95602085013595506040909401359392505050565b600181811c90821680611b3857607f821691505b602082108103611b5657634e487b7160e01b5f52602260045260245ffd5b50919050565b634e487b7160e01b5f52603260045260245ffd5b601f8211156106b357805f5260205f20601f840160051c81016020851015611b955750805b601f840160051c820191505b818110156105e3575f8155600101611ba1565b81516001600160401b03811115611bcd57611bcd611522565b611be181611bdb8454611b24565b84611b70565b6020601f821160018114611c13575f8315611bfc5750848201515b5f19600385901b1c1916600184901b1784556105e3565b5f84815260208120601f198516915b82811015611c425787850151825560209485019460019092019101611c22565b5084821015611c5f57868401515f19600387901b60f8161c191681555b50505050600190811b01905550565b6001600160a01b03868116825285166020820152604081018490526060810183905260a0608082018190525f90611ca790830184611621565b979650505050505050565b5f60208284031215611cc2575f80fd5b815161151b816114eb565b6001600160a01b0386811682528516602082015260a0604082018190525f90611cf89083018661193e565b8281036060840152611d0a818661193e565b90508281036080840152611d1e8185611621565b98975050505050505050565b808201808211156104d457634e487b7160e01b5f52601160045260245ffd5b604081525f611d5b604083018561193e565b8281036020840152611d6d818561193e565b9594505050505056fea264697066735822122086132e0a73bee7e1a544d565862ef58e4f7266364bb4b9befcb4f7e86ee7988a64736f6c634300081a0033",
					"opcodes": "PUSH1 0x80 PUSH1 0x40 MSTORE CALLVALUE DUP1 ISZERO PUSH2 0xF JUMPI PUSH0 DUP1 REVERT JUMPDEST POP PUSH1 0x40 MLOAD PUSH2 0x2175 CODESIZE SUB DUP1 PUSH2 0x2175 DUP4 CODECOPY DUP2 ADD PUSH1 0x40 DUP2 SWAP1 MSTORE PUSH2 0x2E SWAP2 PUSH2 0x1F9 JUMP JUMPDEST PUSH1 0x40 DUP1 MLOAD PUSH1 0x20 DUP2 ADD SWAP1 SWAP2 MSTORE PUSH0 DUP2 MSTORE PUSH2 0x45 DUP2 PUSH2 0x125 JUMP JUMPDEST POP PUSH1 0x4 DUP1 SLOAD PUSH1 0xFF NOT AND SWAP1 SSTORE PUSH2 0x5A PUSH0 DUP7 PUSH2 0x135 JUMP JUMPDEST POP PUSH2 0x85 PUSH32 0x65D7A28E3265B37A6474929F336521B332C1681B933F6CB9F3376673440D862A DUP6 PUSH2 0x135 JUMP JUMPDEST POP PUSH2 0xB0 PUSH32 0x9F2DF0FED2C77648DE5860A4CC508CD0818C85B8B8A1AB4CEEEF8D981C8956A6 DUP5 PUSH2 0x135 JUMP JUMPDEST POP PUSH1 0x7 DUP1 SLOAD PUSH1 0x1 PUSH1 0x1 PUSH1 0xA0 SHL SUB DUP5 DUP2 AND PUSH1 0x1 PUSH1 0x1 PUSH1 0xA0 SHL SUB NOT SWAP3 DUP4 AND DUP2 OR SWAP1 SWAP4 SSTORE PUSH1 0x9 DUP1 SLOAD SWAP2 DUP6 AND SWAP2 SWAP1 SWAP3 AND DUP2 OR SWAP1 SWAP2 SSTORE PUSH1 0x40 DUP1 MLOAD SWAP3 DUP4 MSTORE PUSH1 0x20 DUP4 ADD SWAP2 SWAP1 SWAP2 MSTORE PUSH32 0xB0CBB6B4A2E03CCA1FFB783243C49B48C226651FAC7649F1E3F66CC8F0796210 SWAP2 ADD PUSH1 0x40 MLOAD DUP1 SWAP2 SUB SWAP1 LOG1 POP POP POP POP POP PUSH2 0x3BC JUMP JUMPDEST PUSH1 0x2 PUSH2 0x131 DUP3 DUP3 PUSH2 0x302 JUMP JUMPDEST POP POP JUMP JUMPDEST PUSH0 DUP3 DUP2 MSTORE PUSH1 0x3 PUSH1 0x20 SWAP1 DUP2 MSTORE PUSH1 0x40 DUP1 DUP4 KECCAK256 PUSH1 0x1 PUSH1 0x1 PUSH1 0xA0 SHL SUB DUP6 AND DUP5 MSTORE SWAP1 SWAP2 MSTORE DUP2 KECCAK256 SLOAD PUSH1 0xFF AND PUSH2 0x1D9 JUMPI PUSH0 DUP4 DUP2 MSTORE PUSH1 0x3 PUSH1 0x20 SWAP1 DUP2 MSTORE PUSH1 0x40 DUP1 DUP4 KECCAK256 PUSH1 0x1 PUSH1 0x1 PUSH1 0xA0 SHL SUB DUP7 AND DUP5 MSTORE SWAP1 SWAP2 MSTORE SWAP1 KECCAK256 DUP1 SLOAD PUSH1 0xFF NOT AND PUSH1 0x1 OR SWAP1 SSTORE PUSH2 0x191 CALLER SWAP1 JUMP JUMPDEST PUSH1 0x1 PUSH1 0x1 PUSH1 0xA0 SHL SUB AND DUP3 PUSH1 0x1 PUSH1 0x1 PUSH1 0xA0 SHL SUB AND DUP5 PUSH32 0x2F8788117E7EFF1D82E926EC794901D17C78024A50270940304540A733656F0D PUSH1 0x40 MLOAD PUSH1 0x40 MLOAD DUP1 SWAP2 SUB SWAP1 LOG4 POP PUSH1 0x1 PUSH2 0x1DC JUMP JUMPDEST POP PUSH0 JUMPDEST SWAP3 SWAP2 POP POP JUMP JUMPDEST PUSH1 0x1 PUSH1 0x1 PUSH1 0xA0 SHL SUB DUP2 AND DUP2 EQ PUSH2 0x1F6 JUMPI PUSH0 DUP1 REVERT JUMPDEST POP JUMP JUMPDEST PUSH0 DUP1 PUSH0 DUP1 PUSH0 PUSH1 0xA0 DUP7 DUP9 SUB SLT ISZERO PUSH2 0x20D JUMPI PUSH0 DUP1 REVERT JUMPDEST DUP6 MLOAD PUSH2 0x218 DUP2 PUSH2 0x1E2 JUMP JUMPDEST PUSH1 0x20 DUP8 ADD MLOAD SWAP1 SWAP6 POP PUSH2 0x229 DUP2 PUSH2 0x1E2 JUMP JUMPDEST PUSH1 0x40 DUP8 ADD MLOAD SWAP1 SWAP5 POP PUSH2 0x23A DUP2 PUSH2 0x1E2 JUMP JUMPDEST PUSH1 0x60 DUP8 ADD MLOAD SWAP1 SWAP4 POP PUSH2 0x24B DUP2 PUSH2 0x1E2 JUMP JUMPDEST PUSH1 0x80 DUP8 ADD MLOAD SWAP1 SWAP3 POP PUSH2 0x25C DUP2 PUSH2 0x1E2 JUMP JUMPDEST DUP1 SWAP2 POP POP SWAP3 SWAP6 POP SWAP3 SWAP6 SWAP1 SWAP4 POP JUMP JUMPDEST PUSH4 0x4E487B71 PUSH1 0xE0 SHL PUSH0 MSTORE PUSH1 0x41 PUSH1 0x4 MSTORE PUSH1 0x24 PUSH0 REVERT JUMPDEST PUSH1 0x1 DUP2 DUP2 SHR SWAP1 DUP3 AND DUP1 PUSH2 0x292 JUMPI PUSH1 0x7F DUP3 AND SWAP2 POP JUMPDEST PUSH1 0x20 DUP3 LT DUP2 SUB PUSH2 0x2B0 JUMPI PUSH4 0x4E487B71 PUSH1 0xE0 SHL PUSH0 MSTORE PUSH1 0x22 PUSH1 0x4 MSTORE PUSH1 0x24 PUSH0 REVERT JUMPDEST POP SWAP2 SWAP1 POP JUMP JUMPDEST PUSH1 0x1F DUP3 GT ISZERO PUSH2 0x2FD JUMPI DUP1 PUSH0 MSTORE PUSH1 0x20 PUSH0 KECCAK256 PUSH1 0x1F DUP5 ADD PUSH1 0x5 SHR DUP2 ADD PUSH1 0x20 DUP6 LT ISZERO PUSH2 0x2DB JUMPI POP DUP1 JUMPDEST PUSH1 0x1F DUP5 ADD PUSH1 0x5 SHR DUP3 ADD SWAP2 POP JUMPDEST DUP2 DUP2 LT ISZERO PUSH2 0x2FA JUMPI PUSH0 DUP2 SSTORE PUSH1 0x1 ADD PUSH2 0x2E7 JUMP JUMPDEST POP POP JUMPDEST POP POP POP JUMP JUMPDEST DUP2 MLOAD PUSH1 0x1 PUSH1 0x1 PUSH1 0x40 SHL SUB DUP2 GT ISZERO PUSH2 0x31B JUMPI PUSH2 0x31B PUSH2 0x26A JUMP JUMPDEST PUSH2 0x32F DUP2 PUSH2 0x329 DUP5 SLOAD PUSH2 0x27E JUMP JUMPDEST DUP5 PUSH2 0x2B6 JUMP JUMPDEST PUSH1 0x20 PUSH1 0x1F DUP3 GT PUSH1 0x1 DUP2 EQ PUSH2 0x361 JUMPI PUSH0 DUP4 ISZERO PUSH2 0x34A JUMPI POP DUP5 DUP3 ADD MLOAD JUMPDEST PUSH0 NOT PUSH1 0x3 DUP6 SWAP1 SHL SHR NOT AND PUSH1 0x1 DUP5 SWAP1 SHL OR DUP5 SSTORE PUSH2 0x2FA JUMP JUMPDEST PUSH0 DUP5 DUP2 MSTORE PUSH1 0x20 DUP2 KECCAK256 PUSH1 0x1F NOT DUP6 AND SWAP2 JUMPDEST DUP3 DUP2 LT ISZERO PUSH2 0x390 JUMPI DUP8 DUP6 ADD MLOAD DUP3 SSTORE PUSH1 0x20 SWAP5 DUP6 ADD SWAP5 PUSH1 0x1 SWAP1 SWAP3 ADD SWAP2 ADD PUSH2 0x370 JUMP JUMPDEST POP DUP5 DUP3 LT ISZERO PUSH2 0x3AD JUMPI DUP7 DUP5 ADD MLOAD PUSH0 NOT PUSH1 0x3 DUP8 SWAP1 SHL PUSH1 0xF8 AND SHR NOT AND DUP2 SSTORE JUMPDEST POP POP POP POP PUSH1 0x1 SWAP1 DUP2 SHL ADD SWAP1 SSTORE POP JUMP JUMPDEST PUSH2 0x1DAC DUP1 PUSH2 0x3C9 PUSH0 CODECOPY PUSH0 RETURN INVALID PUSH1 0x80 PUSH1 0x40 MSTORE CALLVALUE DUP1 ISZERO PUSH2 0xF JUMPI PUSH0 DUP1 REVERT JUMPDEST POP PUSH1 0x4 CALLDATASIZE LT PUSH2 0x1DB JUMPI PUSH0 CALLDATALOAD PUSH1 0xE0 SHR DUP1 PUSH4 0x4F558E79 GT PUSH2 0x109 JUMPI DUP1 PUSH4 0xA22CB465 GT PUSH2 0x9E JUMPI DUP1 PUSH4 0xE63AB1E9 GT PUSH2 0x6E JUMPI DUP1 PUSH4 0xE63AB1E9 EQ PUSH2 0x453 JUMPI DUP1 PUSH4 0xE985E9C5 EQ PUSH2 0x47A JUMPI DUP1 PUSH4 0xF242432A EQ PUSH2 0x48D JUMPI DUP1 PUSH4 0xF5298ACA EQ PUSH2 0x4A0 JUMPI PUSH0 DUP1 REVERT JUMPDEST DUP1 PUSH4 0xA22CB465 EQ PUSH2 0x3E7 JUMPI DUP1 PUSH4 0xBD85B039 EQ PUSH2 0x3FA JUMPI DUP1 PUSH4 0xD5391393 EQ PUSH2 0x419 JUMPI DUP1 PUSH4 0xD547741F EQ PUSH2 0x440 JUMPI PUSH0 DUP1 REVERT JUMPDEST DUP1 PUSH4 0x7F345710 GT PUSH2 0xD9 JUMPI DUP1 PUSH4 0x7F345710 EQ PUSH2 0x39E JUMPI DUP1 PUSH4 0x8456CB59 EQ PUSH2 0x3C5 JUMPI DUP1 PUSH4 0x91D14854 EQ PUSH2 0x3CD JUMPI DUP1 PUSH4 0xA217FDDF EQ PUSH2 0x3E0 JUMPI PUSH0 DUP1 REVERT JUMPDEST DUP1 PUSH4 0x4F558E79 EQ PUSH2 0x34C JUMPI DUP1 PUSH4 0x5C975ABB EQ PUSH2 0x36D JUMPI DUP1 PUSH4 0x6B20C454 EQ PUSH2 0x378 JUMPI DUP1 PUSH4 0x731133E9 EQ PUSH2 0x38B JUMPI PUSH0 DUP1 REVERT JUMPDEST DUP1 PUSH4 0x1F7FDFFA GT PUSH2 0x17F JUMPI DUP1 PUSH4 0x2F2FF15D GT PUSH2 0x14F JUMPI DUP1 PUSH4 0x2F2FF15D EQ PUSH2 0x2FE JUMPI DUP1 PUSH4 0x36568ABE EQ PUSH2 0x311 JUMPI DUP1 PUSH4 0x3F4BA83A EQ PUSH2 0x324 JUMPI DUP1 PUSH4 0x4E1273F4 EQ PUSH2 0x32C JUMPI PUSH0 DUP1 REVERT JUMPDEST DUP1 PUSH4 0x1F7FDFFA EQ PUSH2 0x2A3 JUMPI DUP1 PUSH4 0x248A9CA3 EQ PUSH2 0x2B6 JUMPI DUP1 PUSH4 0x28484A31 EQ PUSH2 0x2D8 JUMPI DUP1 PUSH4 0x2EB2C2D6 EQ PUSH2 0x2EB JUMPI PUSH0 DUP1 REVERT JUMPDEST DUP1 PUSH4 0xE89341C GT PUSH2 0x1BA JUMPI DUP1 PUSH4 0xE89341C EQ PUSH2 0x23D JUMPI DUP1 PUSH4 0x12DA2B73 EQ PUSH2 0x25D JUMPI DUP1 PUSH4 0x17E0F0A5 EQ PUSH2 0x288 JUMPI DUP1 PUSH4 0x18160DDD EQ PUSH2 0x29B JUMPI PUSH0 DUP1 REVERT JUMPDEST DUP1 PUSH3 0xFDD58E EQ PUSH2 0x1DF JUMPI DUP1 PUSH4 0x1FFC9A7 EQ PUSH2 0x205 JUMPI DUP1 PUSH4 0x2FE5305 EQ PUSH2 0x228 JUMPI JUMPDEST PUSH0 DUP1 REVERT JUMPDEST PUSH2 0x1F2 PUSH2 0x1ED CALLDATASIZE PUSH1 0x4 PUSH2 0x14C3 JUMP JUMPDEST PUSH2 0x4B3 JUMP JUMPDEST PUSH1 0x40 MLOAD SWAP1 DUP2 MSTORE PUSH1 0x20 ADD JUMPDEST PUSH1 0x40 MLOAD DUP1 SWAP2 SUB SWAP1 RETURN JUMPDEST PUSH2 0x218 PUSH2 0x213 CALLDATASIZE PUSH1 0x4 PUSH2 0x1500 JUMP JUMPDEST PUSH2 0x4DA JUMP JUMPDEST PUSH1 0x40 MLOAD SWAP1 ISZERO ISZERO DUP2 MSTORE PUSH1 0x20 ADD PUSH2 0x1FC JUMP JUMPDEST PUSH2 0x23B PUSH2 0x236 CALLDATASIZE PUSH1 0x4 PUSH2 0x15BE JUMP JUMPDEST PUSH2 0x4E4 JUMP JUMPDEST STOP JUMPDEST PUSH2 0x250 PUSH2 0x24B CALLDATASIZE PUSH1 0x4 PUSH2 0x160A JUMP JUMPDEST PUSH2 0x51B JUMP JUMPDEST PUSH1 0x40 MLOAD PUSH2 0x1FC SWAP2 SWAP1 PUSH2 0x164F JUMP JUMPDEST PUSH1 0x9 SLOAD PUSH2 0x270 SWAP1 PUSH1 0x1 PUSH1 0x1 PUSH1 0xA0 SHL SUB AND DUP2 JUMP JUMPDEST PUSH1 0x40 MLOAD PUSH1 0x1 PUSH1 0x1 PUSH1 0xA0 SHL SUB SWAP1 SWAP2 AND DUP2 MSTORE PUSH1 0x20 ADD PUSH2 0x1FC JUMP JUMPDEST PUSH1 0x7 SLOAD PUSH2 0x270 SWAP1 PUSH1 0x1 PUSH1 0x1 PUSH1 0xA0 SHL SUB AND DUP2 JUMP JUMPDEST PUSH1 0x6 SLOAD PUSH2 0x1F2 JUMP JUMPDEST PUSH2 0x23B PUSH2 0x2B1 CALLDATASIZE PUSH1 0x4 PUSH2 0x170B JUMP JUMPDEST PUSH2 0x5AD JUMP JUMPDEST PUSH2 0x1F2 PUSH2 0x2C4 CALLDATASIZE PUSH1 0x4 PUSH2 0x160A JUMP JUMPDEST PUSH0 SWAP1 DUP2 MSTORE PUSH1 0x3 PUSH1 0x20 MSTORE PUSH1 0x40 SWAP1 KECCAK256 PUSH1 0x1 ADD SLOAD SWAP1 JUMP JUMPDEST PUSH1 0x8 SLOAD PUSH2 0x270 SWAP1 PUSH1 0x1 PUSH1 0x1 PUSH1 0xA0 SHL SUB AND DUP2 JUMP JUMPDEST PUSH2 0x23B PUSH2 0x2F9 CALLDATASIZE PUSH1 0x4 PUSH2 0x17A7 JUMP JUMPDEST PUSH2 0x5EA JUMP JUMPDEST PUSH2 0x23B PUSH2 0x30C CALLDATASIZE PUSH1 0x4 PUSH2 0x1853 JUMP JUMPDEST PUSH2 0x656 JUMP JUMPDEST PUSH2 0x23B PUSH2 0x31F CALLDATASIZE PUSH1 0x4 PUSH2 0x1853 JUMP JUMPDEST PUSH2 0x680 JUMP JUMPDEST PUSH2 0x23B PUSH2 0x6B8 JUMP JUMPDEST PUSH2 0x33F PUSH2 0x33A CALLDATASIZE PUSH1 0x4 PUSH2 0x187D JUMP JUMPDEST PUSH2 0x6ED JUMP JUMPDEST PUSH1 0x40 MLOAD PUSH2 0x1FC SWAP2 SWAP1 PUSH2 0x1978 JUMP JUMPDEST PUSH2 0x218 PUSH2 0x35A CALLDATASIZE PUSH1 0x4 PUSH2 0x160A JUMP JUMPDEST PUSH0 SWAP1 DUP2 MSTORE PUSH1 0x5 PUSH1 0x20 MSTORE PUSH1 0x40 SWAP1 KECCAK256 SLOAD ISZERO ISZERO SWAP1 JUMP JUMPDEST PUSH1 0x4 SLOAD PUSH1 0xFF AND PUSH2 0x218 JUMP JUMPDEST PUSH2 0x23B PUSH2 0x386 CALLDATASIZE PUSH1 0x4 PUSH2 0x198A JUMP JUMPDEST PUSH2 0x7B7 JUMP JUMPDEST PUSH2 0x23B PUSH2 0x399 CALLDATASIZE PUSH1 0x4 PUSH2 0x19FC JUMP JUMPDEST PUSH2 0x816 JUMP JUMPDEST PUSH2 0x1F2 PUSH32 0x7804D923F43A17D325D77E781528E0793B2EDD9890AB45FC64EFD7B4B427744C DUP2 JUMP JUMPDEST PUSH2 0x23B PUSH2 0x84C JUMP JUMPDEST PUSH2 0x218 PUSH2 0x3DB CALLDATASIZE PUSH1 0x4 PUSH2 0x1853 JUMP JUMPDEST PUSH2 0x87E JUMP JUMPDEST PUSH2 0x1F2 PUSH0 DUP2 JUMP JUMPDEST PUSH2 0x23B PUSH2 0x3F5 CALLDATASIZE PUSH1 0x4 PUSH2 0x1A40 JUMP JUMPDEST PUSH2 0x8A8 JUMP JUMPDEST PUSH2 0x1F2 PUSH2 0x408 CALLDATASIZE PUSH1 0x4 PUSH2 0x160A JUMP JUMPDEST PUSH0 SWAP1 DUP2 MSTORE PUSH1 0x5 PUSH1 0x20 MSTORE PUSH1 0x40 SWAP1 KECCAK256 SLOAD SWAP1 JUMP JUMPDEST PUSH2 0x1F2 PUSH32 0x9F2DF0FED2C77648DE5860A4CC508CD0818C85B8B8A1AB4CEEEF8D981C8956A6 DUP2 JUMP JUMPDEST PUSH2 0x23B PUSH2 0x44E CALLDATASIZE PUSH1 0x4 PUSH2 0x1853 JUMP JUMPDEST PUSH2 0x8B3 JUMP JUMPDEST PUSH2 0x1F2 PUSH32 0x65D7A28E3265B37A6474929F336521B332C1681B933F6CB9F3376673440D862A DUP2 JUMP JUMPDEST PUSH2 0x218 PUSH2 0x488 CALLDATASIZE PUSH1 0x4 PUSH2 0x1A79 JUMP JUMPDEST PUSH2 0x8D7 JUMP JUMPDEST PUSH2 0x23B PUSH2 0x49B CALLDATASIZE PUSH1 0x4 PUSH2 0x1AA1 JUMP JUMPDEST PUSH2 0x904 JUMP JUMPDEST PUSH2 0x23B PUSH2 0x4AE CALLDATASIZE PUSH1 0x4 PUSH2 0x1AF4 JUMP JUMPDEST PUSH2 0x963 JUMP JUMPDEST PUSH0 DUP2 DUP2 MSTORE PUSH1 0x20 DUP2 DUP2 MSTORE PUSH1 0x40 DUP1 DUP4 KECCAK256 PUSH1 0x1 PUSH1 0x1 PUSH1 0xA0 SHL SUB DUP7 AND DUP5 MSTORE SWAP1 SWAP2 MSTORE SWAP1 KECCAK256 SLOAD JUMPDEST SWAP3 SWAP2 POP POP JUMP JUMPDEST PUSH0 PUSH2 0x4D4 DUP3 PUSH2 0x999 JUMP JUMPDEST PUSH32 0x7804D923F43A17D325D77E781528E0793B2EDD9890AB45FC64EFD7B4B427744C PUSH2 0x50E DUP2 PUSH2 0x9BD JUMP JUMPDEST PUSH2 0x517 DUP3 PUSH2 0x9C7 JUMP JUMPDEST POP POP JUMP JUMPDEST PUSH1 0x60 PUSH1 0x2 DUP1 SLOAD PUSH2 0x52A SWAP1 PUSH2 0x1B24 JUMP JUMPDEST DUP1 PUSH1 0x1F ADD PUSH1 0x20 DUP1 SWAP2 DIV MUL PUSH1 0x20 ADD PUSH1 0x40 MLOAD SWAP1 DUP2 ADD PUSH1 0x40 MSTORE DUP1 SWAP3 SWAP2 SWAP1 DUP2 DUP2 MSTORE PUSH1 0x20 ADD DUP3 DUP1 SLOAD PUSH2 0x556 SWAP1 PUSH2 0x1B24 JUMP JUMPDEST DUP1 ISZERO PUSH2 0x5A1 JUMPI DUP1 PUSH1 0x1F LT PUSH2 0x578 JUMPI PUSH2 0x100 DUP1 DUP4 SLOAD DIV MUL DUP4 MSTORE SWAP2 PUSH1 0x20 ADD SWAP2 PUSH2 0x5A1 JUMP JUMPDEST DUP3 ADD SWAP2 SWAP1 PUSH0 MSTORE PUSH1 0x20 PUSH0 KECCAK256 SWAP1 JUMPDEST DUP2 SLOAD DUP2 MSTORE SWAP1 PUSH1 0x1 ADD SWAP1 PUSH1 0x20 ADD DUP1 DUP4 GT PUSH2 0x584 JUMPI DUP3 SWAP1 SUB PUSH1 0x1F AND DUP3 ADD SWAP2 JUMPDEST POP POP POP POP POP SWAP1 POP SWAP2 SWAP1 POP JUMP JUMPDEST PUSH32 0x9F2DF0FED2C77648DE5860A4CC508CD0818C85B8B8A1AB4CEEEF8D981C8956A6 PUSH2 0x5D7 DUP2 PUSH2 0x9BD JUMP JUMPDEST PUSH2 0x5E3 DUP6 DUP6 DUP6 DUP6 PUSH2 0x9D3 JUMP JUMPDEST POP POP POP POP POP JUMP JUMPDEST CALLER PUSH1 0x1 PUSH1 0x1 PUSH1 0xA0 SHL SUB DUP7 AND DUP2 EQ DUP1 ISZERO SWAP1 PUSH2 0x60B JUMPI POP PUSH2 0x609 DUP7 DUP3 PUSH2 0x8D7 JUMP JUMPDEST ISZERO JUMPDEST ISZERO PUSH2 0x641 JUMPI PUSH1 0x40 MLOAD PUSH4 0x711BEC91 PUSH1 0xE1 SHL DUP2 MSTORE PUSH1 0x1 PUSH1 0x1 PUSH1 0xA0 SHL SUB DUP1 DUP4 AND PUSH1 0x4 DUP4 ADD MSTORE DUP8 AND PUSH1 0x24 DUP3 ADD MSTORE PUSH1 0x44 ADD JUMPDEST PUSH1 0x40 MLOAD DUP1 SWAP2 SUB SWAP1 REVERT JUMPDEST PUSH2 0x64E DUP7 DUP7 DUP7 DUP7 DUP7 PUSH2 0xA09 JUMP JUMPDEST POP POP POP POP POP POP JUMP JUMPDEST PUSH0 DUP3 DUP2 MSTORE PUSH1 0x3 PUSH1 0x20 MSTORE PUSH1 0x40 SWAP1 KECCAK256 PUSH1 0x1 ADD SLOAD PUSH2 0x670 DUP2 PUSH2 0x9BD JUMP JUMPDEST PUSH2 0x67A DUP4 DUP4 PUSH2 0xA67 JUMP JUMPDEST POP POP POP POP JUMP JUMPDEST PUSH1 0x1 PUSH1 0x1 PUSH1 0xA0 SHL SUB DUP2 AND CALLER EQ PUSH2 0x6A9 JUMPI PUSH1 0x40 MLOAD PUSH4 0x334BD919 PUSH1 0xE1 SHL DUP2 MSTORE PUSH1 0x4 ADD PUSH1 0x40 MLOAD DUP1 SWAP2 SUB SWAP1 REVERT JUMPDEST PUSH2 0x6B3 DUP3 DUP3 PUSH2 0xAF8 JUMP JUMPDEST POP POP POP JUMP JUMPDEST PUSH32 0x65D7A28E3265B37A6474929F336521B332C1681B933F6CB9F3376673440D862A PUSH2 0x6E2 DUP2 PUSH2 0x9BD JUMP JUMPDEST PUSH2 0x6EA PUSH2 0xB63 JUMP JUMPDEST POP JUMP JUMPDEST PUSH1 0x60 DUP2 MLOAD DUP4 MLOAD EQ PUSH2 0x71E JUMPI DUP2 MLOAD DUP4 MLOAD PUSH1 0x40 MLOAD PUSH4 0x5B059991 PUSH1 0xE0 SHL DUP2 MSTORE PUSH1 0x4 DUP2 ADD SWAP3 SWAP1 SWAP3 MSTORE PUSH1 0x24 DUP3 ADD MSTORE PUSH1 0x44 ADD PUSH2 0x638 JUMP JUMPDEST PUSH0 DUP4 MLOAD PUSH1 0x1 PUSH1 0x1 PUSH1 0x40 SHL SUB DUP2 GT ISZERO PUSH2 0x738 JUMPI PUSH2 0x738 PUSH2 0x1522 JUMP JUMPDEST PUSH1 0x40 MLOAD SWAP1 DUP1 DUP3 MSTORE DUP1 PUSH1 0x20 MUL PUSH1 0x20 ADD DUP3 ADD PUSH1 0x40 MSTORE DUP1 ISZERO PUSH2 0x761 JUMPI DUP2 PUSH1 0x20 ADD PUSH1 0x20 DUP3 MUL DUP1 CALLDATASIZE DUP4 CALLDATACOPY ADD SWAP1 POP JUMPDEST POP SWAP1 POP PUSH0 JUMPDEST DUP5 MLOAD DUP2 LT ISZERO PUSH2 0x7AF JUMPI PUSH1 0x20 DUP1 DUP3 MUL DUP7 ADD ADD MLOAD PUSH2 0x78A SWAP1 PUSH1 0x20 DUP1 DUP5 MUL DUP8 ADD ADD MLOAD PUSH2 0x4B3 JUMP JUMPDEST DUP3 DUP3 DUP2 MLOAD DUP2 LT PUSH2 0x79C JUMPI PUSH2 0x79C PUSH2 0x1B5C JUMP JUMPDEST PUSH1 0x20 SWAP1 DUP2 MUL SWAP2 SWAP1 SWAP2 ADD ADD MSTORE PUSH1 0x1 ADD PUSH2 0x766 JUMP JUMPDEST POP SWAP4 SWAP3 POP POP POP JUMP JUMPDEST PUSH1 0x1 PUSH1 0x1 PUSH1 0xA0 SHL SUB DUP4 AND CALLER EQ DUP1 ISZERO SWAP1 PUSH2 0x7D7 JUMPI POP PUSH2 0x7D5 DUP4 CALLER PUSH2 0x8D7 JUMP JUMPDEST ISZERO JUMPDEST ISZERO PUSH2 0x80B JUMPI CALLER JUMPDEST PUSH1 0x40 MLOAD PUSH4 0x711BEC91 PUSH1 0xE1 SHL DUP2 MSTORE PUSH1 0x1 PUSH1 0x1 PUSH1 0xA0 SHL SUB SWAP2 DUP3 AND PUSH1 0x4 DUP3 ADD MSTORE SWAP1 DUP5 AND PUSH1 0x24 DUP3 ADD MSTORE PUSH1 0x44 ADD PUSH2 0x638 JUMP JUMPDEST PUSH2 0x6B3 DUP4 DUP4 DUP4 PUSH2 0xBB5 JUMP JUMPDEST PUSH32 0x9F2DF0FED2C77648DE5860A4CC508CD0818C85B8B8A1AB4CEEEF8D981C8956A6 PUSH2 0x840 DUP2 PUSH2 0x9BD JUMP JUMPDEST PUSH2 0x5E3 DUP6 DUP6 DUP6 DUP6 PUSH2 0xBF8 JUMP JUMPDEST PUSH32 0x65D7A28E3265B37A6474929F336521B332C1681B933F6CB9F3376673440D862A PUSH2 0x876 DUP2 PUSH2 0x9BD JUMP JUMPDEST PUSH2 0x6EA PUSH2 0xC53 JUMP JUMPDEST PUSH0 SWAP2 DUP3 MSTORE PUSH1 0x3 PUSH1 0x20 SWAP1 DUP2 MSTORE PUSH1 0x40 DUP1 DUP5 KECCAK256 PUSH1 0x1 PUSH1 0x1 PUSH1 0xA0 SHL SUB SWAP4 SWAP1 SWAP4 AND DUP5 MSTORE SWAP2 SWAP1 MSTORE SWAP1 KECCAK256 SLOAD PUSH1 0xFF AND SWAP1 JUMP JUMPDEST PUSH2 0x517 CALLER DUP4 DUP4 PUSH2 0xC90 JUMP JUMPDEST PUSH0 DUP3 DUP2 MSTORE PUSH1 0x3 PUSH1 0x20 MSTORE PUSH1 0x40 SWAP1 KECCAK256 PUSH1 0x1 ADD SLOAD PUSH2 0x8CD DUP2 PUSH2 0x9BD JUMP JUMPDEST PUSH2 0x67A DUP4 DUP4 PUSH2 0xAF8 JUMP JUMPDEST PUSH1 0x1 PUSH1 0x1 PUSH1 0xA0 SHL SUB SWAP2 DUP3 AND PUSH0 SWAP1 DUP2 MSTORE PUSH1 0x1 PUSH1 0x20 SWAP1 DUP2 MSTORE PUSH1 0x40 DUP1 DUP4 KECCAK256 SWAP4 SWAP1 SWAP5 AND DUP3 MSTORE SWAP2 SWAP1 SWAP2 MSTORE KECCAK256 SLOAD PUSH1 0xFF AND SWAP1 JUMP JUMPDEST CALLER PUSH1 0x1 PUSH1 0x1 PUSH1 0xA0 SHL SUB DUP7 AND DUP2 EQ DUP1 ISZERO SWAP1 PUSH2 0x925 JUMPI POP PUSH2 0x923 DUP7 DUP3 PUSH2 0x8D7 JUMP JUMPDEST ISZERO JUMPDEST ISZERO PUSH2 0x956 JUMPI PUSH1 0x40 MLOAD PUSH4 0x711BEC91 PUSH1 0xE1 SHL DUP2 MSTORE PUSH1 0x1 PUSH1 0x1 PUSH1 0xA0 SHL SUB DUP1 DUP4 AND PUSH1 0x4 DUP4 ADD MSTORE DUP8 AND PUSH1 0x24 DUP3 ADD MSTORE PUSH1 0x44 ADD PUSH2 0x638 JUMP JUMPDEST PUSH2 0x64E DUP7 DUP7 DUP7 DUP7 DUP7 PUSH2 0xD24 JUMP JUMPDEST PUSH1 0x1 PUSH1 0x1 PUSH1 0xA0 SHL SUB DUP4 AND CALLER EQ DUP1 ISZERO SWAP1 PUSH2 0x983 JUMPI POP PUSH2 0x981 DUP4 CALLER PUSH2 0x8D7 JUMP JUMPDEST ISZERO JUMPDEST ISZERO PUSH2 0x98E JUMPI CALLER PUSH2 0x7DE JUMP JUMPDEST PUSH2 0x6B3 DUP4 DUP4 DUP4 PUSH2 0xDB0 JUMP JUMPDEST PUSH0 PUSH1 0x1 PUSH1 0x1 PUSH1 0xE0 SHL SUB NOT DUP3 AND PUSH4 0x7965DB0B PUSH1 0xE0 SHL EQ DUP1 PUSH2 0x4D4 JUMPI POP PUSH2 0x4D4 DUP3 PUSH2 0xE16 JUMP JUMPDEST PUSH2 0x6EA DUP2 CALLER PUSH2 0xE65 JUMP JUMPDEST PUSH1 0x2 PUSH2 0x517 DUP3 DUP3 PUSH2 0x1BB4 JUMP JUMPDEST PUSH1 0x1 PUSH1 0x1 PUSH1 0xA0 SHL SUB DUP5 AND PUSH2 0x9FC JUMPI PUSH1 0x40 MLOAD PUSH4 0x2BFA23E7 PUSH1 0xE1 SHL DUP2 MSTORE PUSH0 PUSH1 0x4 DUP3 ADD MSTORE PUSH1 0x24 ADD PUSH2 0x638 JUMP JUMPDEST PUSH2 0x67A PUSH0 DUP6 DUP6 DUP6 DUP6 PUSH2 0xE9E JUMP JUMPDEST PUSH1 0x1 PUSH1 0x1 PUSH1 0xA0 SHL SUB DUP5 AND PUSH2 0xA32 JUMPI PUSH1 0x40 MLOAD PUSH4 0x2BFA23E7 PUSH1 0xE1 SHL DUP2 MSTORE PUSH0 PUSH1 0x4 DUP3 ADD MSTORE PUSH1 0x24 ADD PUSH2 0x638 JUMP JUMPDEST PUSH1 0x1 PUSH1 0x1 PUSH1 0xA0 SHL SUB DUP6 AND PUSH2 0xA5A JUMPI PUSH1 0x40 MLOAD PUSH3 0x6A0D45 PUSH1 0xE2 SHL DUP2 MSTORE PUSH0 PUSH1 0x4 DUP3 ADD MSTORE PUSH1 0x24 ADD PUSH2 0x638 JUMP JUMPDEST PUSH2 0x5E3 DUP6 DUP6 DUP6 DUP6 DUP6 PUSH2 0xE9E JUMP JUMPDEST PUSH0 PUSH2 0xA72 DUP4 DUP4 PUSH2 0x87E JUMP JUMPDEST PUSH2 0xAF1 JUMPI PUSH0 DUP4 DUP2 MSTORE PUSH1 0x3 PUSH1 0x20 SWAP1 DUP2 MSTORE PUSH1 0x40 DUP1 DUP4 KECCAK256 PUSH1 0x1 PUSH1 0x1 PUSH1 0xA0 SHL SUB DUP7 AND DUP5 MSTORE SWAP1 SWAP2 MSTORE SWAP1 KECCAK256 DUP1 SLOAD PUSH1 0xFF NOT AND PUSH1 0x1 OR SWAP1 SSTORE PUSH2 0xAA9 CALLER SWAP1 JUMP JUMPDEST PUSH1 0x1 PUSH1 0x1 PUSH1 0xA0 SHL SUB AND DUP3 PUSH1 0x1 PUSH1 0x1 PUSH1 0xA0 SHL SUB AND DUP5 PUSH32 0x2F8788117E7EFF1D82E926EC794901D17C78024A50270940304540A733656F0D PUSH1 0x40 MLOAD PUSH1 0x40 MLOAD DUP1 SWAP2 SUB SWAP1 LOG4 POP PUSH1 0x1 PUSH2 0x4D4 JUMP JUMPDEST POP PUSH0 PUSH2 0x4D4 JUMP JUMPDEST PUSH0 PUSH2 0xB03 DUP4 DUP4 PUSH2 0x87E JUMP JUMPDEST ISZERO PUSH2 0xAF1 JUMPI PUSH0 DUP4 DUP2 MSTORE PUSH1 0x3 PUSH1 0x20 SWAP1 DUP2 MSTORE PUSH1 0x40 DUP1 DUP4 KECCAK256 PUSH1 0x1 PUSH1 0x1 PUSH1 0xA0 SHL SUB DUP7 AND DUP1 DUP6 MSTORE SWAP3 MSTORE DUP1 DUP4 KECCAK256 DUP1 SLOAD PUSH1 0xFF NOT AND SWAP1 SSTORE MLOAD CALLER SWAP3 DUP7 SWAP2 PUSH32 0xF6391F5C32D9C69D2A47EA670B442974B53935D1EDC7FD64EB21E047A839171B SWAP2 SWAP1 LOG4 POP PUSH1 0x1 PUSH2 0x4D4 JUMP JUMPDEST PUSH2 0xB6B PUSH2 0xEF1 JUMP JUMPDEST PUSH1 0x4 DUP1 SLOAD PUSH1 0xFF NOT AND SWAP1 SSTORE PUSH32 0x5DB9EE0A495BF2E6FF9C91A7834C1BA4FDD244A5E8AA4E537BD38AEAE4B073AA CALLER JUMPDEST PUSH1 0x40 MLOAD PUSH1 0x1 PUSH1 0x1 PUSH1 0xA0 SHL SUB SWAP1 SWAP2 AND DUP2 MSTORE PUSH1 0x20 ADD PUSH1 0x40 MLOAD DUP1 SWAP2 SUB SWAP1 LOG1 JUMP JUMPDEST PUSH1 0x1 PUSH1 0x1 PUSH1 0xA0 SHL SUB DUP4 AND PUSH2 0xBDD JUMPI PUSH1 0x40 MLOAD PUSH3 0x6A0D45 PUSH1 0xE2 SHL DUP2 MSTORE PUSH0 PUSH1 0x4 DUP3 ADD MSTORE PUSH1 0x24 ADD PUSH2 0x638 JUMP JUMPDEST PUSH2 0x6B3 DUP4 PUSH0 DUP5 DUP5 PUSH1 0x40 MLOAD DUP1 PUSH1 0x20 ADD PUSH1 0x40 MSTORE DUP1 PUSH0 DUP2 MSTORE POP PUSH2 0xE9E JUMP JUMPDEST PUSH1 0x1 PUSH1 0x1 PUSH1 0xA0 SHL SUB DUP5 AND PUSH2 0xC21 JUMPI PUSH1 0x40 MLOAD PUSH4 0x2BFA23E7 PUSH1 0xE1 SHL DUP2 MSTORE PUSH0 PUSH1 0x4 DUP3 ADD MSTORE PUSH1 0x24 ADD PUSH2 0x638 JUMP JUMPDEST PUSH1 0x40 DUP1 MLOAD PUSH1 0x1 DUP1 DUP3 MSTORE PUSH1 0x20 DUP3 ADD DUP7 SWAP1 MSTORE DUP2 DUP4 ADD SWAP1 DUP2 MSTORE PUSH1 0x60 DUP3 ADD DUP6 SWAP1 MSTORE PUSH1 0x80 DUP3 ADD SWAP1 SWAP3 MSTORE SWAP1 PUSH2 0x64E PUSH0 DUP8 DUP5 DUP5 DUP8 PUSH2 0xE9E JUMP JUMPDEST PUSH2 0xC5B PUSH2 0xF16 JUMP JUMPDEST PUSH1 0x4 DUP1 SLOAD PUSH1 0xFF NOT AND PUSH1 0x1 OR SWAP1 SSTORE PUSH32 0x62E78CEA01BEE320CD4E420270B5EA74000D11B0C9F74754EBDBFC544B05A258 PUSH2 0xB98 CALLER SWAP1 JUMP JUMPDEST PUSH1 0x1 PUSH1 0x1 PUSH1 0xA0 SHL SUB DUP3 AND PUSH2 0xCB8 JUMPI PUSH1 0x40 MLOAD PUSH3 0xCED3E1 PUSH1 0xE8 SHL DUP2 MSTORE PUSH0 PUSH1 0x4 DUP3 ADD MSTORE PUSH1 0x24 ADD PUSH2 0x638 JUMP JUMPDEST PUSH1 0x1 PUSH1 0x1 PUSH1 0xA0 SHL SUB DUP4 DUP2 AND PUSH0 DUP2 DUP2 MSTORE PUSH1 0x1 PUSH1 0x20 SWAP1 DUP2 MSTORE PUSH1 0x40 DUP1 DUP4 KECCAK256 SWAP5 DUP8 AND DUP1 DUP5 MSTORE SWAP5 DUP3 MSTORE SWAP2 DUP3 SWAP1 KECCAK256 DUP1 SLOAD PUSH1 0xFF NOT AND DUP7 ISZERO ISZERO SWAP1 DUP2 OR SWAP1 SWAP2 SSTORE SWAP2 MLOAD SWAP2 DUP3 MSTORE PUSH32 0x17307EAB39AB6107E8899845AD3D59BD9653F200F220920489CA2B5937696C31 SWAP2 ADD PUSH1 0x40 MLOAD DUP1 SWAP2 SUB SWAP1 LOG3 POP POP POP JUMP JUMPDEST PUSH1 0x1 PUSH1 0x1 PUSH1 0xA0 SHL SUB DUP5 AND PUSH2 0xD4D JUMPI PUSH1 0x40 MLOAD PUSH4 0x2BFA23E7 PUSH1 0xE1 SHL DUP2 MSTORE PUSH0 PUSH1 0x4 DUP3 ADD MSTORE PUSH1 0x24 ADD PUSH2 0x638 JUMP JUMPDEST PUSH1 0x1 PUSH1 0x1 PUSH1 0xA0 SHL SUB DUP6 AND PUSH2 0xD75 JUMPI PUSH1 0x40 MLOAD PUSH3 0x6A0D45 PUSH1 0xE2 SHL DUP2 MSTORE PUSH0 PUSH1 0x4 DUP3 ADD MSTORE PUSH1 0x24 ADD PUSH2 0x638 JUMP JUMPDEST PUSH1 0x40 DUP1 MLOAD PUSH1 0x1 DUP1 DUP3 MSTORE PUSH1 0x20 DUP3 ADD DUP7 SWAP1 MSTORE DUP2 DUP4 ADD SWAP1 DUP2 MSTORE PUSH1 0x60 DUP3 ADD DUP6 SWAP1 MSTORE PUSH1 0x80 DUP3 ADD SWAP1 SWAP3 MSTORE SWAP1 PUSH2 0xDA7 DUP8 DUP8 DUP5 DUP5 DUP8 PUSH2 0xE9E JUMP JUMPDEST POP POP POP POP POP POP POP JUMP JUMPDEST PUSH1 0x1 PUSH1 0x1 PUSH1 0xA0 SHL SUB DUP4 AND PUSH2 0xDD8 JUMPI PUSH1 0x40 MLOAD PUSH3 0x6A0D45 PUSH1 0xE2 SHL DUP2 MSTORE PUSH0 PUSH1 0x4 DUP3 ADD MSTORE PUSH1 0x24 ADD PUSH2 0x638 JUMP JUMPDEST PUSH1 0x40 DUP1 MLOAD PUSH1 0x1 DUP1 DUP3 MSTORE PUSH1 0x20 DUP3 ADD DUP6 SWAP1 MSTORE DUP2 DUP4 ADD SWAP1 DUP2 MSTORE PUSH1 0x60 DUP3 ADD DUP5 SWAP1 MSTORE PUSH1 0xA0 DUP3 ADD SWAP1 SWAP3 MSTORE PUSH0 PUSH1 0x80 DUP3 ADD DUP2 DUP2 MSTORE SWAP2 SWAP3 SWAP2 PUSH2 0x5E3 SWAP2 DUP8 SWAP2 DUP6 SWAP1 DUP6 SWAP1 PUSH2 0xE9E JUMP JUMPDEST PUSH0 PUSH1 0x1 PUSH1 0x1 PUSH1 0xE0 SHL SUB NOT DUP3 AND PUSH4 0x6CDB3D13 PUSH1 0xE1 SHL EQ DUP1 PUSH2 0xE46 JUMPI POP PUSH1 0x1 PUSH1 0x1 PUSH1 0xE0 SHL SUB NOT DUP3 AND PUSH4 0x3A24D07 PUSH1 0xE2 SHL EQ JUMPDEST DUP1 PUSH2 0x4D4 JUMPI POP PUSH4 0x1FFC9A7 PUSH1 0xE0 SHL PUSH1 0x1 PUSH1 0x1 PUSH1 0xE0 SHL SUB NOT DUP4 AND EQ PUSH2 0x4D4 JUMP JUMPDEST PUSH2 0xE6F DUP3 DUP3 PUSH2 0x87E JUMP JUMPDEST PUSH2 0x517 JUMPI PUSH1 0x40 MLOAD PUSH4 0xE2517D3F PUSH1 0xE0 SHL DUP2 MSTORE PUSH1 0x1 PUSH1 0x1 PUSH1 0xA0 SHL SUB DUP3 AND PUSH1 0x4 DUP3 ADD MSTORE PUSH1 0x24 DUP2 ADD DUP4 SWAP1 MSTORE PUSH1 0x44 ADD PUSH2 0x638 JUMP JUMPDEST PUSH2 0xEAA DUP6 DUP6 DUP6 DUP6 PUSH2 0xF3A JUMP JUMPDEST PUSH1 0x1 PUSH1 0x1 PUSH1 0xA0 SHL SUB DUP5 AND ISZERO PUSH2 0x5E3 JUMPI DUP3 MLOAD CALLER SWAP1 PUSH1 0x1 SUB PUSH2 0xEE3 JUMPI PUSH1 0x20 DUP5 DUP2 ADD MLOAD SWAP1 DUP5 ADD MLOAD PUSH2 0xEDC DUP4 DUP10 DUP10 DUP6 DUP6 DUP10 PUSH2 0xF46 JUMP JUMPDEST POP POP PUSH2 0x64E JUMP JUMPDEST PUSH2 0x64E DUP2 DUP8 DUP8 DUP8 DUP8 DUP8 PUSH2 0x1067 JUMP JUMPDEST PUSH1 0x4 SLOAD PUSH1 0xFF AND PUSH2 0xF14 JUMPI PUSH1 0x40 MLOAD PUSH4 0x8DFC202B PUSH1 0xE0 SHL DUP2 MSTORE PUSH1 0x4 ADD PUSH1 0x40 MLOAD DUP1 SWAP2 SUB SWAP1 REVERT JUMPDEST JUMP JUMPDEST PUSH1 0x4 SLOAD PUSH1 0xFF AND ISZERO PUSH2 0xF14 JUMPI PUSH1 0x40 MLOAD PUSH4 0xD93C0665 PUSH1 0xE0 SHL DUP2 MSTORE PUSH1 0x4 ADD PUSH1 0x40 MLOAD DUP1 SWAP2 SUB SWAP1 REVERT JUMPDEST PUSH2 0x67A DUP5 DUP5 DUP5 DUP5 PUSH2 0x114E JUMP JUMPDEST PUSH1 0x1 PUSH1 0x1 PUSH1 0xA0 SHL SUB DUP5 AND EXTCODESIZE ISZERO PUSH2 0x64E JUMPI PUSH1 0x40 MLOAD PUSH4 0xF23A6E61 PUSH1 0xE0 SHL DUP2 MSTORE PUSH1 0x1 PUSH1 0x1 PUSH1 0xA0 SHL SUB DUP6 AND SWAP1 PUSH4 0xF23A6E61 SWAP1 PUSH2 0xF8A SWAP1 DUP10 SWAP1 DUP10 SWAP1 DUP9 SWAP1 DUP9 SWAP1 DUP9 SWAP1 PUSH1 0x4 ADD PUSH2 0x1C6E JUMP JUMPDEST PUSH1 0x20 PUSH1 0x40 MLOAD DUP1 DUP4 SUB DUP2 PUSH0 DUP8 GAS CALL SWAP3 POP POP POP DUP1 ISZERO PUSH2 0xFC4 JUMPI POP PUSH1 0x40 DUP1 MLOAD PUSH1 0x1F RETURNDATASIZE SWAP1 DUP2 ADD PUSH1 0x1F NOT AND DUP3 ADD SWAP1 SWAP3 MSTORE PUSH2 0xFC1 SWAP2 DUP2 ADD SWAP1 PUSH2 0x1CB2 JUMP JUMPDEST PUSH1 0x1 JUMPDEST PUSH2 0x102B JUMPI RETURNDATASIZE DUP1 DUP1 ISZERO PUSH2 0xFF1 JUMPI PUSH1 0x40 MLOAD SWAP2 POP PUSH1 0x1F NOT PUSH1 0x3F RETURNDATASIZE ADD AND DUP3 ADD PUSH1 0x40 MSTORE RETURNDATASIZE DUP3 MSTORE RETURNDATASIZE PUSH0 PUSH1 0x20 DUP5 ADD RETURNDATACOPY PUSH2 0xFF6 JUMP JUMPDEST PUSH1 0x60 SWAP2 POP JUMPDEST POP DUP1 MLOAD PUSH0 SUB PUSH2 0x1023 JUMPI PUSH1 0x40 MLOAD PUSH4 0x2BFA23E7 PUSH1 0xE1 SHL DUP2 MSTORE PUSH1 0x1 PUSH1 0x1 PUSH1 0xA0 SHL SUB DUP7 AND PUSH1 0x4 DUP3 ADD MSTORE PUSH1 0x24 ADD PUSH2 0x638 JUMP JUMPDEST DUP1 MLOAD DUP2 PUSH1 0x20 ADD REVERT JUMPDEST PUSH1 0x1 PUSH1 0x1 PUSH1 0xE0 SHL SUB NOT DUP2 AND PUSH4 0xF23A6E61 PUSH1 0xE0 SHL EQ PUSH2 0xDA7 JUMPI PUSH1 0x40 MLOAD PUSH4 0x2BFA23E7 PUSH1 0xE1 SHL DUP2 MSTORE PUSH1 0x1 PUSH1 0x1 PUSH1 0xA0 SHL SUB DUP7 AND PUSH1 0x4 DUP3 ADD MSTORE PUSH1 0x24 ADD PUSH2 0x638 JUMP JUMPDEST PUSH1 0x1 PUSH1 0x1 PUSH1 0xA0 SHL SUB DUP5 AND EXTCODESIZE ISZERO PUSH2 0x64E JUMPI PUSH1 0x40 MLOAD PUSH4 0xBC197C81 PUSH1 0xE0 SHL DUP2 MSTORE PUSH1 0x1 PUSH1 0x1 PUSH1 0xA0 SHL SUB DUP6 AND SWAP1 PUSH4 0xBC197C81 SWAP1 PUSH2 0x10AB SWAP1 DUP10 SWAP1 DUP10 SWAP1 DUP9 SWAP1 DUP9 SWAP1 DUP9 SWAP1 PUSH1 0x4 ADD PUSH2 0x1CCD JUMP JUMPDEST PUSH1 0x20 PUSH1 0x40 MLOAD DUP1 DUP4 SUB DUP2 PUSH0 DUP8 GAS CALL SWAP3 POP POP POP DUP1 ISZERO PUSH2 0x10E5 JUMPI POP PUSH1 0x40 DUP1 MLOAD PUSH1 0x1F RETURNDATASIZE SWAP1 DUP2 ADD PUSH1 0x1F NOT AND DUP3 ADD SWAP1 SWAP3 MSTORE PUSH2 0x10E2 SWAP2 DUP2 ADD SWAP1 PUSH2 0x1CB2 JUMP JUMPDEST PUSH1 0x1 JUMPDEST PUSH2 0x1112 JUMPI RETURNDATASIZE DUP1 DUP1 ISZERO PUSH2 0xFF1 JUMPI PUSH1 0x40 MLOAD SWAP2 POP PUSH1 0x1F NOT PUSH1 0x3F RETURNDATASIZE ADD AND DUP3 ADD PUSH1 0x40 MSTORE RETURNDATASIZE DUP3 MSTORE RETURNDATASIZE PUSH0 PUSH1 0x20 DUP5 ADD RETURNDATACOPY PUSH2 0xFF6 JUMP JUMPDEST PUSH1 0x1 PUSH1 0x1 PUSH1 0xE0 SHL SUB NOT DUP2 AND PUSH4 0xBC197C81 PUSH1 0xE0 SHL EQ PUSH2 0xDA7 JUMPI PUSH1 0x40 MLOAD PUSH4 0x2BFA23E7 PUSH1 0xE1 SHL DUP2 MSTORE PUSH1 0x1 PUSH1 0x1 PUSH1 0xA0 SHL SUB DUP7 AND PUSH1 0x4 DUP3 ADD MSTORE PUSH1 0x24 ADD PUSH2 0x638 JUMP JUMPDEST PUSH2 0x115A DUP5 DUP5 DUP5 DUP5 PUSH2 0x128A JUMP JUMPDEST PUSH1 0x1 PUSH1 0x1 PUSH1 0xA0 SHL SUB DUP5 AND PUSH2 0x11FE JUMPI PUSH0 DUP1 JUMPDEST DUP4 MLOAD DUP2 LT ISZERO PUSH2 0x11E5 JUMPI PUSH0 DUP4 DUP3 DUP2 MLOAD DUP2 LT PUSH2 0x1187 JUMPI PUSH2 0x1187 PUSH2 0x1B5C JUMP JUMPDEST PUSH1 0x20 MUL PUSH1 0x20 ADD ADD MLOAD SWAP1 POP DUP1 PUSH1 0x5 PUSH0 DUP8 DUP6 DUP2 MLOAD DUP2 LT PUSH2 0x11A7 JUMPI PUSH2 0x11A7 PUSH2 0x1B5C JUMP JUMPDEST PUSH1 0x20 MUL PUSH1 0x20 ADD ADD MLOAD DUP2 MSTORE PUSH1 0x20 ADD SWAP1 DUP2 MSTORE PUSH1 0x20 ADD PUSH0 KECCAK256 PUSH0 DUP3 DUP3 SLOAD PUSH2 0x11CA SWAP2 SWAP1 PUSH2 0x1D2A JUMP JUMPDEST SWAP1 SWAP2 SSTORE POP PUSH2 0x11DA SWAP1 POP DUP2 DUP5 PUSH2 0x1D2A JUMP JUMPDEST SWAP3 POP POP PUSH1 0x1 ADD PUSH2 0x116B JUMP JUMPDEST POP DUP1 PUSH1 0x6 PUSH0 DUP3 DUP3 SLOAD PUSH2 0x11F7 SWAP2 SWAP1 PUSH2 0x1D2A JUMP JUMPDEST SWAP1 SWAP2 SSTORE POP POP POP JUMPDEST PUSH1 0x1 PUSH1 0x1 PUSH1 0xA0 SHL SUB DUP4 AND PUSH2 0x67A JUMPI PUSH0 DUP1 JUMPDEST DUP4 MLOAD DUP2 LT ISZERO PUSH2 0x1279 JUMPI PUSH0 DUP4 DUP3 DUP2 MLOAD DUP2 LT PUSH2 0x122B JUMPI PUSH2 0x122B PUSH2 0x1B5C JUMP JUMPDEST PUSH1 0x20 MUL PUSH1 0x20 ADD ADD MLOAD SWAP1 POP DUP1 PUSH1 0x5 PUSH0 DUP8 DUP6 DUP2 MLOAD DUP2 LT PUSH2 0x124B JUMPI PUSH2 0x124B PUSH2 0x1B5C JUMP JUMPDEST PUSH1 0x20 SWAP1 DUP2 MUL SWAP2 SWAP1 SWAP2 ADD DUP2 ADD MLOAD DUP3 MSTORE DUP2 ADD SWAP2 SWAP1 SWAP2 MSTORE PUSH1 0x40 ADD PUSH0 KECCAK256 DUP1 SLOAD SWAP2 SWAP1 SWAP2 SUB SWAP1 SSTORE SWAP2 SWAP1 SWAP2 ADD SWAP1 PUSH1 0x1 ADD PUSH2 0x120F JUMP JUMPDEST POP PUSH1 0x6 DUP1 SLOAD SWAP2 SWAP1 SWAP2 SUB SWAP1 SSTORE POP POP POP POP JUMP JUMPDEST PUSH2 0x1292 PUSH2 0xF16 JUMP JUMPDEST PUSH2 0x67A DUP5 DUP5 DUP5 DUP5 DUP1 MLOAD DUP3 MLOAD EQ PUSH2 0x12C8 JUMPI DUP2 MLOAD DUP2 MLOAD PUSH1 0x40 MLOAD PUSH4 0x5B059991 PUSH1 0xE0 SHL DUP2 MSTORE PUSH1 0x4 DUP2 ADD SWAP3 SWAP1 SWAP3 MSTORE PUSH1 0x24 DUP3 ADD MSTORE PUSH1 0x44 ADD PUSH2 0x638 JUMP JUMPDEST CALLER PUSH0 JUMPDEST DUP4 MLOAD DUP2 LT ISZERO PUSH2 0x13CA JUMPI PUSH1 0x20 DUP2 DUP2 MUL DUP6 DUP2 ADD DUP3 ADD MLOAD SWAP1 DUP6 ADD SWAP1 SWAP2 ADD MLOAD PUSH1 0x1 PUSH1 0x1 PUSH1 0xA0 SHL SUB DUP9 AND ISZERO PUSH2 0x137C JUMPI PUSH0 DUP3 DUP2 MSTORE PUSH1 0x20 DUP2 DUP2 MSTORE PUSH1 0x40 DUP1 DUP4 KECCAK256 PUSH1 0x1 PUSH1 0x1 PUSH1 0xA0 SHL SUB DUP13 AND DUP5 MSTORE SWAP1 SWAP2 MSTORE SWAP1 KECCAK256 SLOAD DUP2 DUP2 LT ISZERO PUSH2 0x1356 JUMPI PUSH1 0x40 MLOAD PUSH4 0x3DEE4C5 PUSH1 0xE0 SHL DUP2 MSTORE PUSH1 0x1 PUSH1 0x1 PUSH1 0xA0 SHL SUB DUP11 AND PUSH1 0x4 DUP3 ADD MSTORE PUSH1 0x24 DUP2 ADD DUP3 SWAP1 MSTORE PUSH1 0x44 DUP2 ADD DUP4 SWAP1 MSTORE PUSH1 0x64 DUP2 ADD DUP5 SWAP1 MSTORE PUSH1 0x84 ADD PUSH2 0x638 JUMP JUMPDEST PUSH0 DUP4 DUP2 MSTORE PUSH1 0x20 DUP2 DUP2 MSTORE PUSH1 0x40 DUP1 DUP4 KECCAK256 PUSH1 0x1 PUSH1 0x1 PUSH1 0xA0 SHL SUB DUP14 AND DUP5 MSTORE SWAP1 SWAP2 MSTORE SWAP1 KECCAK256 SWAP1 DUP3 SWAP1 SUB SWAP1 SSTORE JUMPDEST PUSH1 0x1 PUSH1 0x1 PUSH1 0xA0 SHL SUB DUP8 AND ISZERO PUSH2 0x13C0 JUMPI PUSH0 DUP3 DUP2 MSTORE PUSH1 0x20 DUP2 DUP2 MSTORE PUSH1 0x40 DUP1 DUP4 KECCAK256 PUSH1 0x1 PUSH1 0x1 PUSH1 0xA0 SHL SUB DUP12 AND DUP5 MSTORE SWAP1 SWAP2 MSTORE DUP2 KECCAK256 DUP1 SLOAD DUP4 SWAP3 SWAP1 PUSH2 0x13BA SWAP1 DUP5 SWAP1 PUSH2 0x1D2A JUMP JUMPDEST SWAP1 SWAP2 SSTORE POP POP JUMPDEST POP POP PUSH1 0x1 ADD PUSH2 0x12CB JUMP JUMPDEST POP DUP3 MLOAD PUSH1 0x1 SUB PUSH2 0x144A JUMPI PUSH1 0x20 DUP4 ADD MLOAD PUSH0 SWAP1 PUSH1 0x20 DUP5 ADD MLOAD SWAP1 SWAP2 POP DUP6 PUSH1 0x1 PUSH1 0x1 PUSH1 0xA0 SHL SUB AND DUP8 PUSH1 0x1 PUSH1 0x1 PUSH1 0xA0 SHL SUB AND DUP5 PUSH1 0x1 PUSH1 0x1 PUSH1 0xA0 SHL SUB AND PUSH32 0xC3D58168C5AE7397731D063D5BBF3D657854427343F4C083240F7AACAA2D0F62 DUP6 DUP6 PUSH1 0x40 MLOAD PUSH2 0x143B SWAP3 SWAP2 SWAP1 SWAP2 DUP3 MSTORE PUSH1 0x20 DUP3 ADD MSTORE PUSH1 0x40 ADD SWAP1 JUMP JUMPDEST PUSH1 0x40 MLOAD DUP1 SWAP2 SUB SWAP1 LOG4 POP POP PUSH2 0x5E3 JUMP JUMPDEST DUP4 PUSH1 0x1 PUSH1 0x1 PUSH1 0xA0 SHL SUB AND DUP6 PUSH1 0x1 PUSH1 0x1 PUSH1 0xA0 SHL SUB AND DUP3 PUSH1 0x1 PUSH1 0x1 PUSH1 0xA0 SHL SUB AND PUSH32 0x4A39DC06D4C0DBC64B70AF90FD698A233A518AA5D07E595D983B8C0526C8F7FB DUP7 DUP7 PUSH1 0x40 MLOAD PUSH2 0x1499 SWAP3 SWAP2 SWAP1 PUSH2 0x1D49 JUMP JUMPDEST PUSH1 0x40 MLOAD DUP1 SWAP2 SUB SWAP1 LOG4 POP POP POP POP POP JUMP JUMPDEST DUP1 CALLDATALOAD PUSH1 0x1 PUSH1 0x1 PUSH1 0xA0 SHL SUB DUP2 AND DUP2 EQ PUSH2 0x14BE JUMPI PUSH0 DUP1 REVERT JUMPDEST SWAP2 SWAP1 POP JUMP JUMPDEST PUSH0 DUP1 PUSH1 0x40 DUP4 DUP6 SUB SLT ISZERO PUSH2 0x14D4 JUMPI PUSH0 DUP1 REVERT JUMPDEST PUSH2 0x14DD DUP4 PUSH2 0x14A8 JUMP JUMPDEST SWAP5 PUSH1 0x20 SWAP4 SWAP1 SWAP4 ADD CALLDATALOAD SWAP4 POP POP POP JUMP JUMPDEST PUSH1 0x1 PUSH1 0x1 PUSH1 0xE0 SHL SUB NOT DUP2 AND DUP2 EQ PUSH2 0x6EA JUMPI PUSH0 DUP1 REVERT JUMPDEST PUSH0 PUSH1 0x20 DUP3 DUP5 SUB SLT ISZERO PUSH2 0x1510 JUMPI PUSH0 DUP1 REVERT JUMPDEST DUP2 CALLDATALOAD PUSH2 0x151B DUP2 PUSH2 0x14EB JUMP JUMPDEST SWAP4 SWAP3 POP POP POP JUMP JUMPDEST PUSH4 0x4E487B71 PUSH1 0xE0 SHL PUSH0 MSTORE PUSH1 0x41 PUSH1 0x4 MSTORE PUSH1 0x24 PUSH0 REVERT JUMPDEST PUSH1 0x40 MLOAD PUSH1 0x1F DUP3 ADD PUSH1 0x1F NOT AND DUP2 ADD PUSH1 0x1 PUSH1 0x1 PUSH1 0x40 SHL SUB DUP2 GT DUP3 DUP3 LT OR ISZERO PUSH2 0x155E JUMPI PUSH2 0x155E PUSH2 0x1522 JUMP JUMPDEST PUSH1 0x40 MSTORE SWAP2 SWAP1 POP JUMP JUMPDEST PUSH0 DUP1 PUSH1 0x1 PUSH1 0x1 PUSH1 0x40 SHL SUB DUP5 GT ISZERO PUSH2 0x157F JUMPI PUSH2 0x157F PUSH2 0x1522 JUMP JUMPDEST POP PUSH1 0x1F DUP4 ADD PUSH1 0x1F NOT AND PUSH1 0x20 ADD PUSH2 0x1594 DUP2 PUSH2 0x1536 JUMP JUMPDEST SWAP2 POP POP DUP3 DUP2 MSTORE DUP4 DUP4 DUP4 ADD GT ISZERO PUSH2 0x15A8 JUMPI PUSH0 DUP1 REVERT JUMPDEST DUP3 DUP3 PUSH1 0x20 DUP4 ADD CALLDATACOPY PUSH0 PUSH1 0x20 DUP5 DUP4 ADD ADD MSTORE SWAP4 SWAP3 POP POP POP JUMP JUMPDEST PUSH0 PUSH1 0x20 DUP3 DUP5 SUB SLT ISZERO PUSH2 0x15CE JUMPI PUSH0 DUP1 REVERT JUMPDEST DUP2 CALLDATALOAD PUSH1 0x1 PUSH1 0x1 PUSH1 0x40 SHL SUB DUP2 GT ISZERO PUSH2 0x15E3 JUMPI PUSH0 DUP1 REVERT JUMPDEST DUP3 ADD PUSH1 0x1F DUP2 ADD DUP5 SGT PUSH2 0x15F3 JUMPI PUSH0 DUP1 REVERT JUMPDEST PUSH2 0x1602 DUP5 DUP3 CALLDATALOAD PUSH1 0x20 DUP5 ADD PUSH2 0x1566 JUMP JUMPDEST SWAP5 SWAP4 POP POP POP POP JUMP JUMPDEST PUSH0 PUSH1 0x20 DUP3 DUP5 SUB SLT ISZERO PUSH2 0x161A JUMPI PUSH0 DUP1 REVERT JUMPDEST POP CALLDATALOAD SWAP2 SWAP1 POP JUMP JUMPDEST PUSH0 DUP2 MLOAD DUP1 DUP5 MSTORE DUP1 PUSH1 0x20 DUP5 ADD PUSH1 0x20 DUP7 ADD MCOPY PUSH0 PUSH1 0x20 DUP3 DUP7 ADD ADD MSTORE PUSH1 0x20 PUSH1 0x1F NOT PUSH1 0x1F DUP4 ADD AND DUP6 ADD ADD SWAP2 POP POP SWAP3 SWAP2 POP POP JUMP JUMPDEST PUSH1 0x20 DUP2 MSTORE PUSH0 PUSH2 0x151B PUSH1 0x20 DUP4 ADD DUP5 PUSH2 0x1621 JUMP JUMPDEST PUSH0 PUSH1 0x1 PUSH1 0x1 PUSH1 0x40 SHL SUB DUP3 GT ISZERO PUSH2 0x1679 JUMPI PUSH2 0x1679 PUSH2 0x1522 JUMP JUMPDEST POP PUSH1 0x5 SHL PUSH1 0x20 ADD SWAP1 JUMP JUMPDEST PUSH0 DUP3 PUSH1 0x1F DUP4 ADD SLT PUSH2 0x1692 JUMPI PUSH0 DUP1 REVERT JUMPDEST DUP2 CALLDATALOAD PUSH2 0x16A5 PUSH2 0x16A0 DUP3 PUSH2 0x1661 JUMP JUMPDEST PUSH2 0x1536 JUMP JUMPDEST DUP1 DUP3 DUP3 MSTORE PUSH1 0x20 DUP3 ADD SWAP2 POP PUSH1 0x20 DUP4 PUSH1 0x5 SHL DUP7 ADD ADD SWAP3 POP DUP6 DUP4 GT ISZERO PUSH2 0x16C6 JUMPI PUSH0 DUP1 REVERT JUMPDEST PUSH1 0x20 DUP6 ADD JUMPDEST DUP4 DUP2 LT ISZERO PUSH2 0x16E3 JUMPI DUP1 CALLDATALOAD DUP4 MSTORE PUSH1 0x20 SWAP3 DUP4 ADD SWAP3 ADD PUSH2 0x16CB JUMP JUMPDEST POP SWAP6 SWAP5 POP POP POP POP POP JUMP JUMPDEST PUSH0 DUP3 PUSH1 0x1F DUP4 ADD SLT PUSH2 0x16FC JUMPI PUSH0 DUP1 REVERT JUMPDEST PUSH2 0x151B DUP4 DUP4 CALLDATALOAD PUSH1 0x20 DUP6 ADD PUSH2 0x1566 JUMP JUMPDEST PUSH0 DUP1 PUSH0 DUP1 PUSH1 0x80 DUP6 DUP8 SUB SLT ISZERO PUSH2 0x171E JUMPI PUSH0 DUP1 REVERT JUMPDEST PUSH2 0x1727 DUP6 PUSH2 0x14A8 JUMP JUMPDEST SWAP4 POP PUSH1 0x20 DUP6 ADD CALLDATALOAD PUSH1 0x1 PUSH1 0x1 PUSH1 0x40 SHL SUB DUP2 GT ISZERO PUSH2 0x1741 JUMPI PUSH0 DUP1 REVERT JUMPDEST PUSH2 0x174D DUP8 DUP3 DUP9 ADD PUSH2 0x1683 JUMP JUMPDEST SWAP4 POP POP PUSH1 0x40 DUP6 ADD CALLDATALOAD PUSH1 0x1 PUSH1 0x1 PUSH1 0x40 SHL SUB DUP2 GT ISZERO PUSH2 0x1768 JUMPI PUSH0 DUP1 REVERT JUMPDEST PUSH2 0x1774 DUP8 DUP3 DUP9 ADD PUSH2 0x1683 JUMP JUMPDEST SWAP3 POP POP PUSH1 0x60 DUP6 ADD CALLDATALOAD PUSH1 0x1 PUSH1 0x1 PUSH1 0x40 SHL SUB DUP2 GT ISZERO PUSH2 0x178F JUMPI PUSH0 DUP1 REVERT JUMPDEST PUSH2 0x179B DUP8 DUP3 DUP9 ADD PUSH2 0x16ED JUMP JUMPDEST SWAP2 POP POP SWAP3 SWAP6 SWAP2 SWAP5 POP SWAP3 POP JUMP JUMPDEST PUSH0 DUP1 PUSH0 DUP1 PUSH0 PUSH1 0xA0 DUP7 DUP9 SUB SLT ISZERO PUSH2 0x17BB JUMPI PUSH0 DUP1 REVERT JUMPDEST PUSH2 0x17C4 DUP7 PUSH2 0x14A8 JUMP JUMPDEST SWAP5 POP PUSH2 0x17D2 PUSH1 0x20 DUP8 ADD PUSH2 0x14A8 JUMP JUMPDEST SWAP4 POP PUSH1 0x40 DUP7 ADD CALLDATALOAD PUSH1 0x1 PUSH1 0x1 PUSH1 0x40 SHL SUB DUP2 GT ISZERO PUSH2 0x17EC JUMPI PUSH0 DUP1 REVERT JUMPDEST PUSH2 0x17F8 DUP9 DUP3 DUP10 ADD PUSH2 0x1683 JUMP JUMPDEST SWAP4 POP POP PUSH1 0x60 DUP7 ADD CALLDATALOAD PUSH1 0x1 PUSH1 0x1 PUSH1 0x40 SHL SUB DUP2 GT ISZERO PUSH2 0x1813 JUMPI PUSH0 DUP1 REVERT JUMPDEST PUSH2 0x181F DUP9 DUP3 DUP10 ADD PUSH2 0x1683 JUMP JUMPDEST SWAP3 POP POP PUSH1 0x80 DUP7 ADD CALLDATALOAD PUSH1 0x1 PUSH1 0x1 PUSH1 0x40 SHL SUB DUP2 GT ISZERO PUSH2 0x183A JUMPI PUSH0 DUP1 REVERT JUMPDEST PUSH2 0x1846 DUP9 DUP3 DUP10 ADD PUSH2 0x16ED JUMP JUMPDEST SWAP2 POP POP SWAP3 SWAP6 POP SWAP3 SWAP6 SWAP1 SWAP4 POP JUMP JUMPDEST PUSH0 DUP1 PUSH1 0x40 DUP4 DUP6 SUB SLT ISZERO PUSH2 0x1864 JUMPI PUSH0 DUP1 REVERT JUMPDEST DUP3 CALLDATALOAD SWAP2 POP PUSH2 0x1874 PUSH1 0x20 DUP5 ADD PUSH2 0x14A8 JUMP JUMPDEST SWAP1 POP SWAP3 POP SWAP3 SWAP1 POP JUMP JUMPDEST PUSH0 DUP1 PUSH1 0x40 DUP4 DUP6 SUB SLT ISZERO PUSH2 0x188E JUMPI PUSH0 DUP1 REVERT JUMPDEST DUP3 CALLDATALOAD PUSH1 0x1 PUSH1 0x1 PUSH1 0x40 SHL SUB DUP2 GT ISZERO PUSH2 0x18A3 JUMPI PUSH0 DUP1 REVERT JUMPDEST DUP4 ADD PUSH1 0x1F DUP2 ADD DUP6 SGT PUSH2 0x18B3 JUMPI PUSH0 DUP1 REVERT JUMPDEST DUP1 CALLDATALOAD PUSH2 0x18C1 PUSH2 0x16A0 DUP3 PUSH2 0x1661 JUMP JUMPDEST DUP1 DUP3 DUP3 MSTORE PUSH1 0x20 DUP3 ADD SWAP2 POP PUSH1 0x20 DUP4 PUSH1 0x5 SHL DUP6 ADD ADD SWAP3 POP DUP8 DUP4 GT ISZERO PUSH2 0x18E2 JUMPI PUSH0 DUP1 REVERT JUMPDEST PUSH1 0x20 DUP5 ADD SWAP4 POP JUMPDEST DUP3 DUP5 LT ISZERO PUSH2 0x190B JUMPI PUSH2 0x18FA DUP5 PUSH2 0x14A8 JUMP JUMPDEST DUP3 MSTORE PUSH1 0x20 SWAP4 DUP5 ADD SWAP4 SWAP1 SWAP2 ADD SWAP1 PUSH2 0x18E9 JUMP JUMPDEST SWAP5 POP POP POP POP PUSH1 0x20 DUP4 ADD CALLDATALOAD PUSH1 0x1 PUSH1 0x1 PUSH1 0x40 SHL SUB DUP2 GT ISZERO PUSH2 0x1928 JUMPI PUSH0 DUP1 REVERT JUMPDEST PUSH2 0x1934 DUP6 DUP3 DUP7 ADD PUSH2 0x1683 JUMP JUMPDEST SWAP2 POP POP SWAP3 POP SWAP3 SWAP1 POP JUMP JUMPDEST PUSH0 DUP2 MLOAD DUP1 DUP5 MSTORE PUSH1 0x20 DUP5 ADD SWAP4 POP PUSH1 0x20 DUP4 ADD PUSH0 JUMPDEST DUP3 DUP2 LT ISZERO PUSH2 0x196E JUMPI DUP2 MLOAD DUP7 MSTORE PUSH1 0x20 SWAP6 DUP7 ADD SWAP6 SWAP1 SWAP2 ADD SWAP1 PUSH1 0x1 ADD PUSH2 0x1950 JUMP JUMPDEST POP SWAP4 SWAP5 SWAP4 POP POP POP POP JUMP JUMPDEST PUSH1 0x20 DUP2 MSTORE PUSH0 PUSH2 0x151B PUSH1 0x20 DUP4 ADD DUP5 PUSH2 0x193E JUMP JUMPDEST PUSH0 DUP1 PUSH0 PUSH1 0x60 DUP5 DUP7 SUB SLT ISZERO PUSH2 0x199C JUMPI PUSH0 DUP1 REVERT JUMPDEST PUSH2 0x19A5 DUP5 PUSH2 0x14A8 JUMP JUMPDEST SWAP3 POP PUSH1 0x20 DUP5 ADD CALLDATALOAD PUSH1 0x1 PUSH1 0x1 PUSH1 0x40 SHL SUB DUP2 GT ISZERO PUSH2 0x19BF JUMPI PUSH0 DUP1 REVERT JUMPDEST PUSH2 0x19CB DUP7 DUP3 DUP8 ADD PUSH2 0x1683 JUMP JUMPDEST SWAP3 POP POP PUSH1 0x40 DUP5 ADD CALLDATALOAD PUSH1 0x1 PUSH1 0x1 PUSH1 0x40 SHL SUB DUP2 GT ISZERO PUSH2 0x19E6 JUMPI PUSH0 DUP1 REVERT JUMPDEST PUSH2 0x19F2 DUP7 DUP3 DUP8 ADD PUSH2 0x1683 JUMP JUMPDEST SWAP2 POP POP SWAP3 POP SWAP3 POP SWAP3 JUMP JUMPDEST PUSH0 DUP1 PUSH0 DUP1 PUSH1 0x80 DUP6 DUP8 SUB SLT ISZERO PUSH2 0x1A0F JUMPI PUSH0 DUP1 REVERT JUMPDEST PUSH2 0x1A18 DUP6 PUSH2 0x14A8 JUMP JUMPDEST SWAP4 POP PUSH1 0x20 DUP6 ADD CALLDATALOAD SWAP3 POP PUSH1 0x40 DUP6 ADD CALLDATALOAD SWAP2 POP PUSH1 0x60 DUP6 ADD CALLDATALOAD PUSH1 0x1 PUSH1 0x1 PUSH1 0x40 SHL SUB DUP2 GT ISZERO PUSH2 0x178F JUMPI PUSH0 DUP1 REVERT JUMPDEST PUSH0 DUP1 PUSH1 0x40 DUP4 DUP6 SUB SLT ISZERO PUSH2 0x1A51 JUMPI PUSH0 DUP1 REVERT JUMPDEST PUSH2 0x1A5A DUP4 PUSH2 0x14A8 JUMP JUMPDEST SWAP2 POP PUSH1 0x20 DUP4 ADD CALLDATALOAD DUP1 ISZERO ISZERO DUP2 EQ PUSH2 0x1A6E JUMPI PUSH0 DUP1 REVERT JUMPDEST DUP1 SWAP2 POP POP SWAP3 POP SWAP3 SWAP1 POP JUMP JUMPDEST PUSH0 DUP1 PUSH1 0x40 DUP4 DUP6 SUB SLT ISZERO PUSH2 0x1A8A JUMPI PUSH0 DUP1 REVERT JUMPDEST PUSH2 0x1A93 DUP4 PUSH2 0x14A8 JUMP JUMPDEST SWAP2 POP PUSH2 0x1874 PUSH1 0x20 DUP5 ADD PUSH2 0x14A8 JUMP JUMPDEST PUSH0 DUP1 PUSH0 DUP1 PUSH0 PUSH1 0xA0 DUP7 DUP9 SUB SLT ISZERO PUSH2 0x1AB5 JUMPI PUSH0 DUP1 REVERT JUMPDEST PUSH2 0x1ABE DUP7 PUSH2 0x14A8 JUMP JUMPDEST SWAP5 POP PUSH2 0x1ACC PUSH1 0x20 DUP8 ADD PUSH2 0x14A8 JUMP JUMPDEST SWAP4 POP PUSH1 0x40 DUP7 ADD CALLDATALOAD SWAP3 POP PUSH1 0x60 DUP7 ADD CALLDATALOAD SWAP2 POP PUSH1 0x80 DUP7 ADD CALLDATALOAD PUSH1 0x1 PUSH1 0x1 PUSH1 0x40 SHL SUB DUP2 GT ISZERO PUSH2 0x183A JUMPI PUSH0 DUP1 REVERT JUMPDEST PUSH0 DUP1 PUSH0 PUSH1 0x60 DUP5 DUP7 SUB SLT ISZERO PUSH2 0x1B06 JUMPI PUSH0 DUP1 REVERT JUMPDEST PUSH2 0x1B0F DUP5 PUSH2 0x14A8 JUMP JUMPDEST SWAP6 PUSH1 0x20 DUP6 ADD CALLDATALOAD SWAP6 POP PUSH1 0x40 SWAP1 SWAP5 ADD CALLDATALOAD SWAP4 SWAP3 POP POP POP JUMP JUMPDEST PUSH1 0x1 DUP2 DUP2 SHR SWAP1 DUP3 AND DUP1 PUSH2 0x1B38 JUMPI PUSH1 0x7F DUP3 AND SWAP2 POP JUMPDEST PUSH1 0x20 DUP3 LT DUP2 SUB PUSH2 0x1B56 JUMPI PUSH4 0x4E487B71 PUSH1 0xE0 SHL PUSH0 MSTORE PUSH1 0x22 PUSH1 0x4 MSTORE PUSH1 0x24 PUSH0 REVERT JUMPDEST POP SWAP2 SWAP1 POP JUMP JUMPDEST PUSH4 0x4E487B71 PUSH1 0xE0 SHL PUSH0 MSTORE PUSH1 0x32 PUSH1 0x4 MSTORE PUSH1 0x24 PUSH0 REVERT JUMPDEST PUSH1 0x1F DUP3 GT ISZERO PUSH2 0x6B3 JUMPI DUP1 PUSH0 MSTORE PUSH1 0x20 PUSH0 KECCAK256 PUSH1 0x1F DUP5 ADD PUSH1 0x5 SHR DUP2 ADD PUSH1 0x20 DUP6 LT ISZERO PUSH2 0x1B95 JUMPI POP DUP1 JUMPDEST PUSH1 0x1F DUP5 ADD PUSH1 0x5 SHR DUP3 ADD SWAP2 POP JUMPDEST DUP2 DUP2 LT ISZERO PUSH2 0x5E3 JUMPI PUSH0 DUP2 SSTORE PUSH1 0x1 ADD PUSH2 0x1BA1 JUMP JUMPDEST DUP2 MLOAD PUSH1 0x1 PUSH1 0x1 PUSH1 0x40 SHL SUB DUP2 GT ISZERO PUSH2 0x1BCD JUMPI PUSH2 0x1BCD PUSH2 0x1522 JUMP JUMPDEST PUSH2 0x1BE1 DUP2 PUSH2 0x1BDB DUP5 SLOAD PUSH2 0x1B24 JUMP JUMPDEST DUP5 PUSH2 0x1B70 JUMP JUMPDEST PUSH1 0x20 PUSH1 0x1F DUP3 GT PUSH1 0x1 DUP2 EQ PUSH2 0x1C13 JUMPI PUSH0 DUP4 ISZERO PUSH2 0x1BFC JUMPI POP DUP5 DUP3 ADD MLOAD JUMPDEST PUSH0 NOT PUSH1 0x3 DUP6 SWAP1 SHL SHR NOT AND PUSH1 0x1 DUP5 SWAP1 SHL OR DUP5 SSTORE PUSH2 0x5E3 JUMP JUMPDEST PUSH0 DUP5 DUP2 MSTORE PUSH1 0x20 DUP2 KECCAK256 PUSH1 0x1F NOT DUP6 AND SWAP2 JUMPDEST DUP3 DUP2 LT ISZERO PUSH2 0x1C42 JUMPI DUP8 DUP6 ADD MLOAD DUP3 SSTORE PUSH1 0x20 SWAP5 DUP6 ADD SWAP5 PUSH1 0x1 SWAP1 SWAP3 ADD SWAP2 ADD PUSH2 0x1C22 JUMP JUMPDEST POP DUP5 DUP3 LT ISZERO PUSH2 0x1C5F JUMPI DUP7 DUP5 ADD MLOAD PUSH0 NOT PUSH1 0x3 DUP8 SWAP1 SHL PUSH1 0xF8 AND SHR NOT AND DUP2 SSTORE JUMPDEST POP POP POP POP PUSH1 0x1 SWAP1 DUP2 SHL ADD SWAP1 SSTORE POP JUMP JUMPDEST PUSH1 0x1 PUSH1 0x1 PUSH1 0xA0 SHL SUB DUP7 DUP2 AND DUP3 MSTORE DUP6 AND PUSH1 0x20 DUP3 ADD MSTORE PUSH1 0x40 DUP2 ADD DUP5 SWAP1 MSTORE PUSH1 0x60 DUP2 ADD DUP4 SWAP1 MSTORE PUSH1 0xA0 PUSH1 0x80 DUP3 ADD DUP2 SWAP1 MSTORE PUSH0 SWAP1 PUSH2 0x1CA7 SWAP1 DUP4 ADD DUP5 PUSH2 0x1621 JUMP JUMPDEST SWAP8 SWAP7 POP POP POP POP POP POP POP JUMP JUMPDEST PUSH0 PUSH1 0x20 DUP3 DUP5 SUB SLT ISZERO PUSH2 0x1CC2 JUMPI PUSH0 DUP1 REVERT JUMPDEST DUP2 MLOAD PUSH2 0x151B DUP2 PUSH2 0x14EB JUMP JUMPDEST PUSH1 0x1 PUSH1 0x1 PUSH1 0xA0 SHL SUB DUP7 DUP2 AND DUP3 MSTORE DUP6 AND PUSH1 0x20 DUP3 ADD MSTORE PUSH1 0xA0 PUSH1 0x40 DUP3 ADD DUP2 SWAP1 MSTORE PUSH0 SWAP1 PUSH2 0x1CF8 SWAP1 DUP4 ADD DUP7 PUSH2 0x193E JUMP JUMPDEST DUP3 DUP2 SUB PUSH1 0x60 DUP5 ADD MSTORE PUSH2 0x1D0A DUP2 DUP7 PUSH2 0x193E JUMP JUMPDEST SWAP1 POP DUP3 DUP2 SUB PUSH1 0x80 DUP5 ADD MSTORE PUSH2 0x1D1E DUP2 DUP6 PUSH2 0x1621 JUMP JUMPDEST SWAP9 SWAP8 POP POP POP POP POP POP POP POP JUMP JUMPDEST DUP1 DUP3 ADD DUP1 DUP3 GT ISZERO PUSH2 0x4D4 JUMPI PUSH4 0x4E487B71 PUSH1 0xE0 SHL PUSH0 MSTORE PUSH1 0x11 PUSH1 0x4 MSTORE PUSH1 0x24 PUSH0 REVERT JUMPDEST PUSH1 0x40 DUP2 MSTORE PUSH0 PUSH2 0x1D5B PUSH1 0x40 DUP4 ADD DUP6 PUSH2 0x193E JUMP JUMPDEST DUP3 DUP2 SUB PUSH1 0x20 DUP5 ADD MSTORE PUSH2 0x1D6D DUP2 DUP6 PUSH2 0x193E JUMP JUMPDEST SWAP6 SWAP5 POP POP POP POP POP JUMP INVALID LOG2 PUSH5 0x6970667358 0x22 SLT KECCAK256 DUP7 SGT 0x2E EXP PUSH20 0xBEE7E1A544D565862EF58E4F7266364BB4B9BEFC 0xB4 0xF7 0xE8 PUSH15 0xE7988A64736F6C634300081A003300 "
				},
				"gasEstimates": {
					"creation": {
						"codeDepositCost": "1519200",
						"executionCost": "infinite",
						"totalCost": "infinite"
					},
					"external": {
						"DEFAULT_ADMIN_ROLE()": "293",
						"MINTER_ROLE()": "272",
						"PAUSER_ROLE()": "227",
						"URI_SETTER_ROLE()": "228",
						"balanceOf(address,uint256)": "2680",
						"balanceOfBatch(address[],uint256[])": "infinite",
						"burn(address,uint256,uint256)": "infinite",
						"burnBatch(address,uint256[],uint256[])": "infinite",
						"exists(uint256)": "2493",
						"getRoleAdmin(bytes32)": "2498",
						"grantRole(bytes32,address)": "infinite",
						"hasRole(bytes32,address)": "2751",
						"iMultiSigFactory()": "2404",
						"iMultiSigWallet()": "2426",
						"iTokenizationRoleManager()": "2426",
						"isApprovedForAll(address,address)": "infinite",
						"mint(address,uint256,uint256,bytes)": "infinite",
						"mintBatch(address,uint256[],uint256[],bytes)": "infinite",
						"pause()": "infinite",
						"paused()": "2371",
						"renounceRole(bytes32,address)": "29091",
						"revokeRole(bytes32,address)": "infinite",
						"safeBatchTransferFrom(address,address,uint256[],uint256[],bytes)": "infinite",
						"safeTransferFrom(address,address,uint256,uint256,bytes)": "infinite",
						"setApprovalForAll(address,bool)": "26701",
						"setURI(string)": "infinite",
						"supportsInterface(bytes4)": "infinite",
						"totalSupply()": "2392",
						"totalSupply(uint256)": "2491",
						"unpause()": "infinite",
						"uri(uint256)": "infinite"
					},
					"internal": {
						"_update(address,address,uint256[] memory,uint256[] memory)": "infinite"
					}
				},
				"methodIdentifiers": {
					"DEFAULT_ADMIN_ROLE()": "a217fddf",
					"MINTER_ROLE()": "d5391393",
					"PAUSER_ROLE()": "e63ab1e9",
					"URI_SETTER_ROLE()": "7f345710",
					"balanceOf(address,uint256)": "00fdd58e",
					"balanceOfBatch(address[],uint256[])": "4e1273f4",
					"burn(address,uint256,uint256)": "f5298aca",
					"burnBatch(address,uint256[],uint256[])": "6b20c454",
					"exists(uint256)": "4f558e79",
					"getRoleAdmin(bytes32)": "248a9ca3",
					"grantRole(bytes32,address)": "2f2ff15d",
					"hasRole(bytes32,address)": "91d14854",
					"iMultiSigFactory()": "12da2b73",
					"iMultiSigWallet()": "28484a31",
					"iTokenizationRoleManager()": "17e0f0a5",
					"isApprovedForAll(address,address)": "e985e9c5",
					"mint(address,uint256,uint256,bytes)": "731133e9",
					"mintBatch(address,uint256[],uint256[],bytes)": "1f7fdffa",
					"pause()": "8456cb59",
					"paused()": "5c975abb",
					"renounceRole(bytes32,address)": "36568abe",
					"revokeRole(bytes32,address)": "d547741f",
					"safeBatchTransferFrom(address,address,uint256[],uint256[],bytes)": "2eb2c2d6",
					"safeTransferFrom(address,address,uint256,uint256,bytes)": "f242432a",
					"setApprovalForAll(address,bool)": "a22cb465",
					"setURI(string)": "02fe5305",
					"supportsInterface(bytes4)": "01ffc9a7",
					"totalSupply()": "18160ddd",
					"totalSupply(uint256)": "bd85b039",
					"unpause()": "3f4ba83a",
					"uri(uint256)": "0e89341c"
				}
			},
			"storageLayout": {
				"storage": [
					{
						"astId": 1735,
						"contract": "contracts/DepositTokenization_flattened.sol:DepositTokenization",
						"label": "_balances",
						"offset": 0,
						"slot": "0",
						"type": "t_mapping(t_uint256,t_mapping(t_address,t_uint256))"
					},
					{
						"astId": 1741,
						"contract": "contracts/DepositTokenization_flattened.sol:DepositTokenization",
						"label": "_operatorApprovals",
						"offset": 0,
						"slot": "1",
						"type": "t_mapping(t_address,t_mapping(t_address,t_bool))"
					},
					{
						"astId": 1743,
						"contract": "contracts/DepositTokenization_flattened.sol:DepositTokenization",
						"label": "_uri",
						"offset": 0,
						"slot": "2",
						"type": "t_string_storage"
					},
					{
						"astId": 2846,
						"contract": "contracts/DepositTokenization_flattened.sol:DepositTokenization",
						"label": "_roles",
						"offset": 0,
						"slot": "3",
						"type": "t_mapping(t_bytes32,t_struct(RoleData)2841_storage)"
					},
					{
						"astId": 3121,
						"contract": "contracts/DepositTokenization_flattened.sol:DepositTokenization",
						"label": "_paused",
						"offset": 0,
						"slot": "4",
						"type": "t_bool"
					},
					{
						"astId": 3348,
						"contract": "contracts/DepositTokenization_flattened.sol:DepositTokenization",
						"label": "_totalSupply",
						"offset": 0,
						"slot": "5",
						"type": "t_mapping(t_uint256,t_uint256)"
					},
					{
						"astId": 3350,
						"contract": "contracts/DepositTokenization_flattened.sol:DepositTokenization",
						"label": "_totalSupplyAll",
						"offset": 0,
						"slot": "6",
						"type": "t_uint256"
					},
					{
						"astId": 3870,
						"contract": "contracts/DepositTokenization_flattened.sol:DepositTokenization",
						"label": "iTokenizationRoleManager",
						"offset": 0,
						"slot": "7",
						"type": "t_contract(ITokenizationRoleManager)3731"
					},
					{
						"astId": 3873,
						"contract": "contracts/DepositTokenization_flattened.sol:DepositTokenization",
						"label": "iMultiSigWallet",
						"offset": 0,
						"slot": "8",
						"type": "t_contract(IMultiSigWallet)3795"
					},
					{
						"astId": 3876,
						"contract": "contracts/DepositTokenization_flattened.sol:DepositTokenization",
						"label": "iMultiSigFactory",
						"offset": 0,
						"slot": "9",
						"type": "t_contract(IMultiSigFactory)3841"
					}
				],
				"types": {
					"t_address": {
						"encoding": "inplace",
						"label": "address",
						"numberOfBytes": "20"
					},
					"t_bool": {
						"encoding": "inplace",
						"label": "bool",
						"numberOfBytes": "1"
					},
					"t_bytes32": {
						"encoding": "inplace",
						"label": "bytes32",
						"numberOfBytes": "32"
					},
					"t_contract(IMultiSigFactory)3841": {
						"encoding": "inplace",
						"label": "contract IMultiSigFactory",
						"numberOfBytes": "20"
					},
					"t_contract(IMultiSigWallet)3795": {
						"encoding": "inplace",
						"label": "contract IMultiSigWallet",
						"numberOfBytes": "20"
					},
					"t_contract(ITokenizationRoleManager)3731": {
						"encoding": "inplace",
						"label": "contract ITokenizationRoleManager",
						"numberOfBytes": "20"
					},
					"t_mapping(t_address,t_bool)": {
						"encoding": "mapping",
						"key": "t_address",
						"label": "mapping(address => bool)",
						"numberOfBytes": "32",
						"value": "t_bool"
					},
					"t_mapping(t_address,t_mapping(t_address,t_bool))": {
						"encoding": "mapping",
						"key": "t_address",
						"label": "mapping(address => mapping(address => bool))",
						"numberOfBytes": "32",
						"value": "t_mapping(t_address,t_bool)"
					},
					"t_mapping(t_address,t_uint256)": {
						"encoding": "mapping",
						"key": "t_address",
						"label": "mapping(address => uint256)",
						"numberOfBytes": "32",
						"value": "t_uint256"
					},
					"t_mapping(t_bytes32,t_struct(RoleData)2841_storage)": {
						"encoding": "mapping",
						"key": "t_bytes32",
						"label": "mapping(bytes32 => struct AccessControl.RoleData)",
						"numberOfBytes": "32",
						"value": "t_struct(RoleData)2841_storage"
					},
					"t_mapping(t_uint256,t_mapping(t_address,t_uint256))": {
						"encoding": "mapping",
						"key": "t_uint256",
						"label": "mapping(uint256 => mapping(address => uint256))",
						"numberOfBytes": "32",
						"value": "t_mapping(t_address,t_uint256)"
					},
					"t_mapping(t_uint256,t_uint256)": {
						"encoding": "mapping",
						"key": "t_uint256",
						"label": "mapping(uint256 => uint256)",
						"numberOfBytes": "32",
						"value": "t_uint256"
					},
					"t_string_storage": {
						"encoding": "bytes",
						"label": "string",
						"numberOfBytes": "32"
					},
					"t_struct(RoleData)2841_storage": {
						"encoding": "inplace",
						"label": "struct AccessControl.RoleData",
						"members": [
							{
								"astId": 2838,
								"contract": "contracts/DepositTokenization_flattened.sol:DepositTokenization",
								"label": "hasRole",
								"offset": 0,
								"slot": "0",
								"type": "t_mapping(t_address,t_bool)"
							},
							{
								"astId": 2840,
								"contract": "contracts/DepositTokenization_flattened.sol:DepositTokenization",
								"label": "adminRole",
								"offset": 0,
								"slot": "1",
								"type": "t_bytes32"
							}
						],
						"numberOfBytes": "64"
					},
					"t_uint256": {
						"encoding": "inplace",
						"label": "uint256",
						"numberOfBytes": "32"
					}
				}
			},
			"userdoc": {
				"kind": "user",
				"methods": {},
				"version": 1
			}
		}
	}
}