{
	"contracts/SignVerify.sol": {
		"Verse": {
			"abi": [
				{
					"inputs": [
						{
							"internalType": "address",
							"name": "user",
							"type": "address"
						},
						{
							"internalType": "string",
							"name": "_passkey",
							"type": "string"
						},
						{
							"internalType": "bytes",
							"name": "signature",
							"type": "bytes"
						}
					],
					"name": "verifyUserSign",
					"outputs": [
						{
							"internalType": "bool",
							"name": "isUserVerified",
							"type": "bool"
						},
						{
							"internalType": "address",
							"name": "userWalletAddress",
							"type": "address"
						}
					],
					"stateMutability": "pure",
					"type": "function"
				}
			],
			"devdoc": {
				"kind": "dev",
				"methods": {},
				"version": 1
			},
			"evm": {
				"assembly": "    /* \"contracts/SignVerify.sol\":128:2404  contract Verse {... */\n  mstore(0x40, 0x80)\n  callvalue\n  dup1\n  iszero\n  tag_1\n  jumpi\n  0x00\n  dup1\n  revert\ntag_1:\n  pop\n  dataSize(sub_0)\n  dup1\n  dataOffset(sub_0)\n  0x00\n  codecopy\n  0x00\n  return\nstop\n\nsub_0: assembly {\n        /* \"contracts/SignVerify.sol\":128:2404  contract Verse {... */\n      mstore(0x40, 0x80)\n      callvalue\n      dup1\n      iszero\n      tag_1\n      jumpi\n      0x00\n      dup1\n      revert\n    tag_1:\n      pop\n      jumpi(tag_2, lt(calldatasize, 0x04))\n      shr(0xe0, calldataload(0x00))\n      dup1\n      0x041e8f8c\n      eq\n      tag_3\n      jumpi\n    tag_2:\n      0x00\n      dup1\n      revert\n        /* \"contracts/SignVerify.sol\":810:1258  function verifyUserSign(... */\n    tag_3:\n      tag_4\n      tag_5\n      calldatasize\n      0x04\n      tag_6\n      jump\t// in\n    tag_5:\n      tag_7\n      jump\t// in\n    tag_4:\n      0x40\n      dup1\n      mload\n        /* \"#utility.yul\":1955:1969   */\n      swap3\n      iszero\n        /* \"#utility.yul\":1948:1970   */\n      iszero\n        /* \"#utility.yul\":1930:1971   */\n      dup4\n      mstore\n      sub(shl(0xa0, 0x01), 0x01)\n        /* \"#utility.yul\":2007:2039   */\n      swap1\n      swap2\n      and\n        /* \"#utility.yul\":2002:2004   */\n      0x20\n        /* \"#utility.yul\":1987:2005   */\n      dup4\n      add\n        /* \"#utility.yul\":1980:2040   */\n      mstore\n        /* \"#utility.yul\":1903:1921   */\n      add\n        /* \"contracts/SignVerify.sol\":810:1258  function verifyUserSign(... */\n      mload(0x40)\n      dup1\n      swap2\n      sub\n      swap1\n      return\n    tag_7:\n        /* \"contracts/SignVerify.sol\":949:968  bool isUserVerified */\n      0x00\n        /* \"contracts/SignVerify.sol\":970:995  address userWalletAddress */\n      dup1\n        /* \"contracts/SignVerify.sol\":1007:1026  bytes32 messageHash */\n      0x00\n        /* \"contracts/SignVerify.sol\":1029:1053  getMessageHash(_passkey) */\n      tag_11\n        /* \"contracts/SignVerify.sol\":1044:1052  _passkey */\n      dup6\n        /* \"contracts/SignVerify.sol\":1029:1043  getMessageHash */\n      tag_12\n        /* \"contracts/SignVerify.sol\":1029:1053  getMessageHash(_passkey) */\n      jump\t// in\n    tag_11:\n        /* \"contracts/SignVerify.sol\":1007:1053  bytes32 messageHash = getMessageHash(_passkey) */\n      swap1\n      pop\n        /* \"contracts/SignVerify.sol\":1063:1091  bytes32 ethSignedMessageHash */\n      0x00\n        /* \"contracts/SignVerify.sol\":1094:1130  getEthSignedMessageHash(messageHash) */\n      tag_13\n        /* \"contracts/SignVerify.sol\":1118:1129  messageHash */\n      dup3\n        /* \"contracts/SignVerify.sol\":1094:1117  getEthSignedMessageHash */\n      tag_14\n        /* \"contracts/SignVerify.sol\":1094:1130  getEthSignedMessageHash(messageHash) */\n      jump\t// in\n    tag_13:\n        /* \"contracts/SignVerify.sol\":1063:1130  bytes32 ethSignedMessageHash = getEthSignedMessageHash(messageHash) */\n      swap1\n      pop\n        /* \"contracts/SignVerify.sol\":1198:1202  user */\n      dup7\n      sub(shl(0xa0, 0x01), 0x01)\n        /* \"contracts/SignVerify.sol\":1148:1202  recoverSigner(ethSignedMessageHash, signature) == user */\n      and\n        /* \"contracts/SignVerify.sol\":1148:1194  recoverSigner(ethSignedMessageHash, signature) */\n      tag_15\n        /* \"contracts/SignVerify.sol\":1162:1182  ethSignedMessageHash */\n      dup3\n        /* \"contracts/SignVerify.sol\":1184:1193  signature */\n      dup8\n        /* \"contracts/SignVerify.sol\":1148:1161  recoverSigner */\n      tag_16\n        /* \"contracts/SignVerify.sol\":1148:1194  recoverSigner(ethSignedMessageHash, signature) */\n      jump\t// in\n    tag_15:\n      sub(shl(0xa0, 0x01), 0x01)\n        /* \"contracts/SignVerify.sol\":1148:1202  recoverSigner(ethSignedMessageHash, signature) == user */\n      and\n      eq\n        /* \"contracts/SignVerify.sol\":1204:1250  recoverSigner(ethSignedMessageHash, signature) */\n      tag_17\n        /* \"contracts/SignVerify.sol\":1218:1238  ethSignedMessageHash */\n      dup3\n        /* \"contracts/SignVerify.sol\":1240:1249  signature */\n      dup8\n        /* \"contracts/SignVerify.sol\":1204:1217  recoverSigner */\n      tag_16\n        /* \"contracts/SignVerify.sol\":1204:1250  recoverSigner(ethSignedMessageHash, signature) */\n      jump\t// in\n    tag_17:\n        /* \"contracts/SignVerify.sol\":1140:1251  return (recoverSigner(ethSignedMessageHash, signature) == user, recoverSigner(ethSignedMessageHash, signature)) */\n      swap4\n      pop\n      swap4\n      pop\n      pop\n      pop\n        /* \"contracts/SignVerify.sol\":810:1258  function verifyUserSign(... */\n      swap4\n      pop\n      swap4\n      swap2\n      pop\n      pop\n      jump\t// out\n        /* \"contracts/SignVerify.sol\":149:318  function getMessageHash(string memory _passkey)... */\n    tag_12:\n        /* \"contracts/SignVerify.sol\":244:251  bytes32 */\n      0x00\n        /* \"contracts/SignVerify.sol\":301:309  _passkey */\n      dup2\n        /* \"contracts/SignVerify.sol\":284:310  abi.encodePacked(_passkey) */\n      add(0x20, mload(0x40))\n      tag_19\n      swap2\n      swap1\n      tag_20\n      jump\t// in\n    tag_19:\n      mload(0x40)\n      0x20\n      dup2\n      dup4\n      sub\n      sub\n      dup2\n      mstore\n      swap1\n      0x40\n      mstore\n        /* \"contracts/SignVerify.sol\":274:311  keccak256(abi.encodePacked(_passkey)) */\n      dup1\n      mload\n      swap1\n      0x20\n      add\n      keccak256\n        /* \"contracts/SignVerify.sol\":267:311  return keccak256(abi.encodePacked(_passkey)) */\n      swap1\n      pop\n        /* \"contracts/SignVerify.sol\":149:318  function getMessageHash(string memory _passkey)... */\n      swap2\n      swap1\n      pop\n      jump\t// out\n        /* \"contracts/SignVerify.sol\":324:804  function getEthSignedMessageHash(bytes32 _messageHash)... */\n    tag_14:\n        /* \"contracts/SignVerify.sol\":659:783  abi.encodePacked(... */\n      mload(0x40)\n        /* \"#utility.yul\":2601:2667   */\n      0x19457468657265756d205369676e6564204d6573736167653a0a333200000000\n        /* \"contracts/SignVerify.sol\":659:783  abi.encodePacked(... */\n      0x20\n      dup3\n      add\n        /* \"#utility.yul\":2589:2668   */\n      mstore\n        /* \"#utility.yul\":2684:2696   */\n      0x3c\n      dup2\n      add\n        /* \"#utility.yul\":2677:2705   */\n      dup3\n      swap1\n      mstore\n        /* \"contracts/SignVerify.sol\":426:433  bytes32 */\n      0x00\n      swap1\n        /* \"#utility.yul\":2721:2733   */\n      0x5c\n      add\n        /* \"contracts/SignVerify.sol\":659:783  abi.encodePacked(... */\n      tag_19\n        /* \"#utility.yul\":2359:2739   */\n      jump\n        /* \"contracts/SignVerify.sol\":1264:1533  function recoverSigner(... */\n    tag_16:\n        /* \"contracts/SignVerify.sol\":1388:1395  address */\n      0x00\n        /* \"contracts/SignVerify.sol\":1408:1417  bytes32 r */\n      dup1\n        /* \"contracts/SignVerify.sol\":1419:1428  bytes32 s */\n      0x00\n        /* \"contracts/SignVerify.sol\":1430:1437  uint8 v */\n      dup1\n        /* \"contracts/SignVerify.sol\":1441:1467  splitSignature(_signature) */\n      tag_25\n        /* \"contracts/SignVerify.sol\":1456:1466  _signature */\n      dup6\n        /* \"contracts/SignVerify.sol\":1441:1455  splitSignature */\n      tag_26\n        /* \"contracts/SignVerify.sol\":1441:1467  splitSignature(_signature) */\n      jump\t// in\n    tag_25:\n        /* \"contracts/SignVerify.sol\":1485:1526  ecrecover(_ethSignedMessageHash, v, r, s) */\n      0x40\n      dup1\n      mload\n      0x00\n      dup2\n      mstore\n      0x20\n      dup2\n      add\n      dup1\n      dup4\n      mstore\n        /* \"#utility.yul\":2971:2996   */\n      dup12\n      swap1\n      mstore\n        /* \"#utility.yul\":3044:3048   */\n      0xff\n        /* \"#utility.yul\":3032:3049   */\n      dup4\n      and\n        /* \"#utility.yul\":3012:3030   */\n      swap2\n      dup2\n      add\n        /* \"#utility.yul\":3005:3050   */\n      swap2\n      swap1\n      swap2\n      mstore\n        /* \"#utility.yul\":3066:3084   */\n      0x60\n      dup2\n      add\n        /* \"#utility.yul\":3059:3093   */\n      dup5\n      swap1\n      mstore\n        /* \"#utility.yul\":3109:3127   */\n      0x80\n      dup2\n      add\n        /* \"#utility.yul\":3102:3136   */\n      dup4\n      swap1\n      mstore\n        /* \"contracts/SignVerify.sol\":1407:1467  (bytes32 r, bytes32 s, uint8 v) = splitSignature(_signature) */\n      swap3\n      swap6\n      pop\n      swap1\n      swap4\n      pop\n      swap2\n      pop\n        /* \"contracts/SignVerify.sol\":1485:1526  ecrecover(_ethSignedMessageHash, v, r, s) */\n      0x01\n      swap1\n        /* \"#utility.yul\":2943:2962   */\n      0xa0\n      add\n        /* \"contracts/SignVerify.sol\":1485:1526  ecrecover(_ethSignedMessageHash, v, r, s) */\n      0x20\n      mload(0x40)\n      0x20\n      dup2\n      sub\n      swap1\n      dup1\n      dup5\n      sub\n      swap1\n      dup6\n      gas\n      staticcall\n      iszero\n      dup1\n      iszero\n      tag_30\n      jumpi\n      returndatasize\n      0x00\n      dup1\n      returndatacopy\n      revert(0x00, returndatasize)\n    tag_30:\n      pop\n      pop\n      mload(add(not(0x1f), mload(0x40)))\n      swap8\n        /* \"contracts/SignVerify.sol\":1264:1533  function recoverSigner(... */\n      swap7\n      pop\n      pop\n      pop\n      pop\n      pop\n      pop\n      pop\n      jump\t// out\n        /* \"contracts/SignVerify.sol\":1539:2402  function splitSignature(bytes memory sig)... */\n    tag_26:\n        /* \"contracts/SignVerify.sol\":1641:1650  bytes32 r */\n      0x00\n        /* \"contracts/SignVerify.sol\":1664:1673  bytes32 s */\n      dup1\n        /* \"contracts/SignVerify.sol\":1687:1694  uint8 v */\n      0x00\n        /* \"contracts/SignVerify.sol\":1727:1730  sig */\n      dup4\n        /* \"contracts/SignVerify.sol\":1727:1737  sig.length */\n      mload\n        /* \"contracts/SignVerify.sol\":1741:1743  65 */\n      0x41\n        /* \"contracts/SignVerify.sol\":1727:1743  sig.length == 65 */\n      eq\n        /* \"contracts/SignVerify.sol\":1719:1772  require(sig.length == 65, \"invalid signature length\") */\n      tag_32\n      jumpi\n      mload(0x40)\n      shl(0xe5, 0x461bcd)\n      dup2\n      mstore\n        /* \"#utility.yul\":3349:3351   */\n      0x20\n        /* \"contracts/SignVerify.sol\":1719:1772  require(sig.length == 65, \"invalid signature length\") */\n      0x04\n      dup3\n      add\n        /* \"#utility.yul\":3331:3352   */\n      mstore\n        /* \"#utility.yul\":3388:3390   */\n      0x18\n        /* \"#utility.yul\":3368:3386   */\n      0x24\n      dup3\n      add\n        /* \"#utility.yul\":3361:3391   */\n      mstore\n        /* \"#utility.yul\":3427:3453   */\n      0x696e76616c6964207369676e6174757265206c656e6774680000000000000000\n        /* \"#utility.yul\":3407:3425   */\n      0x44\n      dup3\n      add\n        /* \"#utility.yul\":3400:3454   */\n      mstore\n        /* \"#utility.yul\":3471:3489   */\n      0x64\n      add\n        /* \"contracts/SignVerify.sol\":1719:1772  require(sig.length == 65, \"invalid signature length\") */\n      mload(0x40)\n      dup1\n      swap2\n      sub\n      swap1\n      revert\n    tag_32:\n      pop\n      pop\n      pop\n        /* \"contracts/SignVerify.sol\":2168:2170  32 */\n      0x20\n        /* \"contracts/SignVerify.sol\":2159:2171  add(sig, 32) */\n      dup2\n      add\n        /* \"contracts/SignVerify.sol\":2153:2172  mload(add(sig, 32)) */\n      mload\n        /* \"contracts/SignVerify.sol\":2236:2238  64 */\n      0x40\n        /* \"contracts/SignVerify.sol\":2227:2239  add(sig, 64) */\n      dup3\n      add\n        /* \"contracts/SignVerify.sol\":2221:2240  mload(add(sig, 64)) */\n      mload\n        /* \"contracts/SignVerify.sol\":2341:2343  96 */\n      0x60\n        /* \"contracts/SignVerify.sol\":2332:2344  add(sig, 96) */\n      swap1\n      swap3\n      add\n        /* \"contracts/SignVerify.sol\":2326:2345  mload(add(sig, 96)) */\n      mload\n        /* \"contracts/SignVerify.sol\":2153:2172  mload(add(sig, 32)) */\n      swap1\n      swap3\n        /* \"contracts/SignVerify.sol\":2323:2324  0 */\n      0x00\n        /* \"contracts/SignVerify.sol\":2318:2346  byte(0, mload(add(sig, 96))) */\n      swap2\n      swap1\n      swap2\n      byte\n      swap1\n        /* \"contracts/SignVerify.sol\":1539:2402  function splitSignature(bytes memory sig)... */\n      jump\t// out\n        /* \"#utility.yul\":14:141   */\n    tag_35:\n        /* \"#utility.yul\":75:85   */\n      0x4e487b71\n        /* \"#utility.yul\":70:73   */\n      0xe0\n        /* \"#utility.yul\":66:86   */\n      shl\n        /* \"#utility.yul\":63:64   */\n      0x00\n        /* \"#utility.yul\":56:87   */\n      mstore\n        /* \"#utility.yul\":106:110   */\n      0x41\n        /* \"#utility.yul\":103:104   */\n      0x04\n        /* \"#utility.yul\":96:111   */\n      mstore\n        /* \"#utility.yul\":130:134   */\n      0x24\n        /* \"#utility.yul\":127:128   */\n      0x00\n        /* \"#utility.yul\":120:135   */\n      revert\n        /* \"#utility.yul\":146:778   */\n    tag_36:\n        /* \"#utility.yul\":211:216   */\n      0x00\n        /* \"#utility.yul\":241:259   */\n      0xffffffffffffffff\n        /* \"#utility.yul\":282:284   */\n      dup1\n        /* \"#utility.yul\":274:280   */\n      dup5\n        /* \"#utility.yul\":271:285   */\n      gt\n        /* \"#utility.yul\":268:308   */\n      iszero\n      tag_41\n      jumpi\n        /* \"#utility.yul\":288:306   */\n      tag_41\n      tag_35\n      jump\t// in\n    tag_41:\n        /* \"#utility.yul\":363:365   */\n      0x40\n        /* \"#utility.yul\":357:366   */\n      mload\n        /* \"#utility.yul\":331:333   */\n      0x1f\n        /* \"#utility.yul\":417:432   */\n      dup6\n      add\n      not(0x1f)\n        /* \"#utility.yul\":413:437   */\n      swap1\n      dup2\n      and\n        /* \"#utility.yul\":439:441   */\n      0x3f\n        /* \"#utility.yul\":409:442   */\n      add\n        /* \"#utility.yul\":405:447   */\n      and\n        /* \"#utility.yul\":393:448   */\n      dup2\n      add\n      swap1\n        /* \"#utility.yul\":463:481   */\n      dup3\n      dup3\n      gt\n        /* \"#utility.yul\":483:505   */\n      dup2\n      dup4\n      lt\n        /* \"#utility.yul\":460:506   */\n      or\n        /* \"#utility.yul\":457:529   */\n      iszero\n      tag_43\n      jumpi\n        /* \"#utility.yul\":509:527   */\n      tag_43\n      tag_35\n      jump\t// in\n    tag_43:\n        /* \"#utility.yul\":549:559   */\n      dup2\n        /* \"#utility.yul\":545:547   */\n      0x40\n        /* \"#utility.yul\":538:560   */\n      mstore\n        /* \"#utility.yul\":578:584   */\n      dup1\n        /* \"#utility.yul\":569:584   */\n      swap4\n      pop\n        /* \"#utility.yul\":608:614   */\n      dup6\n        /* \"#utility.yul\":600:606   */\n      dup2\n        /* \"#utility.yul\":593:615   */\n      mstore\n        /* \"#utility.yul\":648:651   */\n      dup7\n        /* \"#utility.yul\":639:645   */\n      dup7\n        /* \"#utility.yul\":634:637   */\n      dup7\n        /* \"#utility.yul\":630:646   */\n      add\n        /* \"#utility.yul\":627:652   */\n      gt\n        /* \"#utility.yul\":624:669   */\n      iszero\n      tag_44\n      jumpi\n        /* \"#utility.yul\":665:666   */\n      0x00\n        /* \"#utility.yul\":662:663   */\n      dup1\n        /* \"#utility.yul\":655:667   */\n      revert\n        /* \"#utility.yul\":624:669   */\n    tag_44:\n        /* \"#utility.yul\":715:721   */\n      dup6\n        /* \"#utility.yul\":710:713   */\n      dup6\n        /* \"#utility.yul\":703:707   */\n      0x20\n        /* \"#utility.yul\":695:701   */\n      dup4\n        /* \"#utility.yul\":691:708   */\n      add\n        /* \"#utility.yul\":678:722   */\n      calldatacopy\n        /* \"#utility.yul\":770:771   */\n      0x00\n        /* \"#utility.yul\":763:767   */\n      0x20\n        /* \"#utility.yul\":754:760   */\n      dup8\n        /* \"#utility.yul\":746:752   */\n      dup4\n        /* \"#utility.yul\":742:761   */\n      add\n        /* \"#utility.yul\":738:768   */\n      add\n        /* \"#utility.yul\":731:772   */\n      mstore\n      pop\n      pop\n      pop\n        /* \"#utility.yul\":146:778   */\n      swap4\n      swap3\n      pop\n      pop\n      pop\n      jump\t// out\n        /* \"#utility.yul\":783:1757   */\n    tag_6:\n        /* \"#utility.yul\":879:885   */\n      0x00\n        /* \"#utility.yul\":887:893   */\n      dup1\n        /* \"#utility.yul\":895:901   */\n      0x00\n        /* \"#utility.yul\":948:950   */\n      0x60\n        /* \"#utility.yul\":936:945   */\n      dup5\n        /* \"#utility.yul\":927:934   */\n      dup7\n        /* \"#utility.yul\":923:946   */\n      sub\n        /* \"#utility.yul\":919:951   */\n      slt\n        /* \"#utility.yul\":916:968   */\n      iszero\n      tag_46\n      jumpi\n        /* \"#utility.yul\":964:965   */\n      0x00\n        /* \"#utility.yul\":961:962   */\n      dup1\n        /* \"#utility.yul\":954:966   */\n      revert\n        /* \"#utility.yul\":916:968   */\n    tag_46:\n        /* \"#utility.yul\":990:1013   */\n      dup4\n      calldataload\n      sub(shl(0xa0, 0x01), 0x01)\n        /* \"#utility.yul\":1042:1073   */\n      dup2\n      and\n        /* \"#utility.yul\":1032:1074   */\n      dup2\n      eq\n        /* \"#utility.yul\":1022:1092   */\n      tag_47\n      jumpi\n        /* \"#utility.yul\":1088:1089   */\n      0x00\n        /* \"#utility.yul\":1085:1086   */\n      dup1\n        /* \"#utility.yul\":1078:1090   */\n      revert\n        /* \"#utility.yul\":1022:1092   */\n    tag_47:\n        /* \"#utility.yul\":1111:1116   */\n      swap3\n      pop\n        /* \"#utility.yul\":1167:1169   */\n      0x20\n        /* \"#utility.yul\":1152:1170   */\n      dup5\n      add\n        /* \"#utility.yul\":1139:1171   */\n      calldataload\n        /* \"#utility.yul\":1190:1208   */\n      0xffffffffffffffff\n        /* \"#utility.yul\":1220:1234   */\n      dup1\n      dup3\n      gt\n        /* \"#utility.yul\":1217:1251   */\n      iszero\n      tag_48\n      jumpi\n        /* \"#utility.yul\":1247:1248   */\n      0x00\n        /* \"#utility.yul\":1244:1245   */\n      dup1\n        /* \"#utility.yul\":1237:1249   */\n      revert\n        /* \"#utility.yul\":1217:1251   */\n    tag_48:\n        /* \"#utility.yul\":1285:1291   */\n      dup2\n        /* \"#utility.yul\":1274:1283   */\n      dup7\n        /* \"#utility.yul\":1270:1292   */\n      add\n        /* \"#utility.yul\":1260:1292   */\n      swap2\n      pop\n        /* \"#utility.yul\":1330:1337   */\n      dup7\n        /* \"#utility.yul\":1323:1327   */\n      0x1f\n        /* \"#utility.yul\":1319:1321   */\n      dup4\n        /* \"#utility.yul\":1315:1328   */\n      add\n        /* \"#utility.yul\":1311:1338   */\n      slt\n        /* \"#utility.yul\":1301:1356   */\n      tag_49\n      jumpi\n        /* \"#utility.yul\":1352:1353   */\n      0x00\n        /* \"#utility.yul\":1349:1350   */\n      dup1\n        /* \"#utility.yul\":1342:1354   */\n      revert\n        /* \"#utility.yul\":1301:1356   */\n    tag_49:\n        /* \"#utility.yul\":1375:1449   */\n      tag_50\n        /* \"#utility.yul\":1441:1448   */\n      dup8\n        /* \"#utility.yul\":1436:1438   */\n      dup4\n        /* \"#utility.yul\":1423:1439   */\n      calldataload\n        /* \"#utility.yul\":1418:1420   */\n      0x20\n        /* \"#utility.yul\":1414:1416   */\n      dup6\n        /* \"#utility.yul\":1410:1421   */\n      add\n        /* \"#utility.yul\":1375:1449   */\n      tag_36\n      jump\t// in\n    tag_50:\n        /* \"#utility.yul\":1365:1449   */\n      swap4\n      pop\n        /* \"#utility.yul\":1502:1504   */\n      0x40\n        /* \"#utility.yul\":1491:1500   */\n      dup7\n        /* \"#utility.yul\":1487:1505   */\n      add\n        /* \"#utility.yul\":1474:1506   */\n      calldataload\n        /* \"#utility.yul\":1458:1506   */\n      swap2\n      pop\n        /* \"#utility.yul\":1531:1533   */\n      dup1\n        /* \"#utility.yul\":1521:1529   */\n      dup3\n        /* \"#utility.yul\":1518:1534   */\n      gt\n        /* \"#utility.yul\":1515:1551   */\n      iszero\n      tag_51\n      jumpi\n        /* \"#utility.yul\":1547:1548   */\n      0x00\n        /* \"#utility.yul\":1544:1545   */\n      dup1\n        /* \"#utility.yul\":1537:1549   */\n      revert\n        /* \"#utility.yul\":1515:1551   */\n    tag_51:\n      pop\n        /* \"#utility.yul\":1570:1594   */\n      dup5\n      add\n        /* \"#utility.yul\":1625:1629   */\n      0x1f\n        /* \"#utility.yul\":1617:1630   */\n      dup2\n      add\n        /* \"#utility.yul\":1613:1640   */\n      dup7\n      sgt\n        /* \"#utility.yul\":1603:1658   */\n      tag_52\n      jumpi\n        /* \"#utility.yul\":1654:1655   */\n      0x00\n        /* \"#utility.yul\":1651:1652   */\n      dup1\n        /* \"#utility.yul\":1644:1656   */\n      revert\n        /* \"#utility.yul\":1603:1658   */\n    tag_52:\n        /* \"#utility.yul\":1677:1751   */\n      tag_53\n        /* \"#utility.yul\":1743:1750   */\n      dup7\n        /* \"#utility.yul\":1738:1740   */\n      dup3\n        /* \"#utility.yul\":1725:1741   */\n      calldataload\n        /* \"#utility.yul\":1720:1722   */\n      0x20\n        /* \"#utility.yul\":1716:1718   */\n      dup5\n        /* \"#utility.yul\":1712:1723   */\n      add\n        /* \"#utility.yul\":1677:1751   */\n      tag_36\n      jump\t// in\n    tag_53:\n        /* \"#utility.yul\":1667:1751   */\n      swap2\n      pop\n      pop\n        /* \"#utility.yul\":783:1757   */\n      swap3\n      pop\n      swap3\n      pop\n      swap3\n      jump\t// out\n        /* \"#utility.yul\":2051:2354   */\n    tag_20:\n        /* \"#utility.yul\":2182:2185   */\n      0x00\n        /* \"#utility.yul\":2220:2226   */\n      dup3\n        /* \"#utility.yul\":2214:2227   */\n      mload\n        /* \"#utility.yul\":2266:2272   */\n      dup1\n        /* \"#utility.yul\":2259:2263   */\n      0x20\n        /* \"#utility.yul\":2251:2257   */\n      dup6\n        /* \"#utility.yul\":2247:2264   */\n      add\n        /* \"#utility.yul\":2242:2245   */\n      dup5\n        /* \"#utility.yul\":2236:2273   */\n      mcopy\n        /* \"#utility.yul\":2328:2329   */\n      0x00\n        /* \"#utility.yul\":2292:2308   */\n      swap3\n      add\n        /* \"#utility.yul\":2317:2330   */\n      swap2\n      dup3\n      mstore\n      pop\n        /* \"#utility.yul\":2292:2308   */\n      swap2\n        /* \"#utility.yul\":2051:2354   */\n      swap1\n      pop\n      jump\t// out\n\n    auxdata: 0xa264697066735822122018f1cf31d7662f18aeb481fb4f486224b32b36674889398d379ef658f5ec395564736f6c63430008190033\n}\n",
				"bytecode": {
					"linkReferences": {},
					"object": "6080604052348015600e575f80fd5b506103838061001c5f395ff3fe608060405234801561000f575f80fd5b5060043610610029575f3560e01c8063041e8f8c1461002d575b5f80fd5b61004061003b366004610292565b610063565b6040805192151583526001600160a01b0390911660208301520160405180910390f35b5f805f61006f856100b3565b90505f61007b826100e2565b9050866001600160a01b0316610091828761011c565b6001600160a01b0316146100a5828761011c565b935093505050935093915050565b5f816040516020016100c59190610337565b604051602081830303815290604052805190602001209050919050565b6040517f19457468657265756d205369676e6564204d6573736167653a0a3332000000006020820152603c81018290525f90605c016100c5565b5f805f8061012985610196565b604080515f8152602081018083528b905260ff8316918101919091526060810184905260808101839052929550909350915060019060a0016020604051602081039080840390855afa158015610181573d5f803e3d5ffd5b5050604051601f190151979650505050505050565b5f805f83516041146101ee5760405162461bcd60e51b815260206004820152601860248201527f696e76616c6964207369676e6174757265206c656e6774680000000000000000604482015260640160405180910390fd5b5050506020810151604082015160609092015190925f9190911a90565b634e487b7160e01b5f52604160045260245ffd5b5f67ffffffffffffffff808411156102395761023961020b565b604051601f8501601f19908116603f011681019082821181831017156102615761026161020b565b81604052809350858152868686011115610279575f80fd5b858560208301375f602087830101525050509392505050565b5f805f606084860312156102a4575f80fd5b83356001600160a01b03811681146102ba575f80fd5b9250602084013567ffffffffffffffff808211156102d6575f80fd5b818601915086601f8301126102e9575f80fd5b6102f88783356020850161021f565b9350604086013591508082111561030d575f80fd5b508401601f8101861361031e575f80fd5b61032d8682356020840161021f565b9150509250925092565b5f82518060208501845e5f92019182525091905056fea264697066735822122018f1cf31d7662f18aeb481fb4f486224b32b36674889398d379ef658f5ec395564736f6c63430008190033",
					"opcodes": "PUSH1 0x80 PUSH1 0x40 MSTORE CALLVALUE DUP1 ISZERO PUSH1 0xE JUMPI PUSH0 DUP1 REVERT JUMPDEST POP PUSH2 0x383 DUP1 PUSH2 0x1C PUSH0 CODECOPY PUSH0 RETURN INVALID PUSH1 0x80 PUSH1 0x40 MSTORE CALLVALUE DUP1 ISZERO PUSH2 0xF JUMPI PUSH0 DUP1 REVERT JUMPDEST POP PUSH1 0x4 CALLDATASIZE LT PUSH2 0x29 JUMPI PUSH0 CALLDATALOAD PUSH1 0xE0 SHR DUP1 PUSH4 0x41E8F8C EQ PUSH2 0x2D JUMPI JUMPDEST PUSH0 DUP1 REVERT JUMPDEST PUSH2 0x40 PUSH2 0x3B CALLDATASIZE PUSH1 0x4 PUSH2 0x292 JUMP JUMPDEST PUSH2 0x63 JUMP JUMPDEST PUSH1 0x40 DUP1 MLOAD SWAP3 ISZERO ISZERO DUP4 MSTORE PUSH1 0x1 PUSH1 0x1 PUSH1 0xA0 SHL SUB SWAP1 SWAP2 AND PUSH1 0x20 DUP4 ADD MSTORE ADD PUSH1 0x40 MLOAD DUP1 SWAP2 SUB SWAP1 RETURN JUMPDEST PUSH0 DUP1 PUSH0 PUSH2 0x6F DUP6 PUSH2 0xB3 JUMP JUMPDEST SWAP1 POP PUSH0 PUSH2 0x7B DUP3 PUSH2 0xE2 JUMP JUMPDEST SWAP1 POP DUP7 PUSH1 0x1 PUSH1 0x1 PUSH1 0xA0 SHL SUB AND PUSH2 0x91 DUP3 DUP8 PUSH2 0x11C JUMP JUMPDEST PUSH1 0x1 PUSH1 0x1 PUSH1 0xA0 SHL SUB AND EQ PUSH2 0xA5 DUP3 DUP8 PUSH2 0x11C JUMP JUMPDEST SWAP4 POP SWAP4 POP POP POP SWAP4 POP SWAP4 SWAP2 POP POP JUMP JUMPDEST PUSH0 DUP2 PUSH1 0x40 MLOAD PUSH1 0x20 ADD PUSH2 0xC5 SWAP2 SWAP1 PUSH2 0x337 JUMP JUMPDEST PUSH1 0x40 MLOAD PUSH1 0x20 DUP2 DUP4 SUB SUB DUP2 MSTORE SWAP1 PUSH1 0x40 MSTORE DUP1 MLOAD SWAP1 PUSH1 0x20 ADD KECCAK256 SWAP1 POP SWAP2 SWAP1 POP JUMP JUMPDEST PUSH1 0x40 MLOAD PUSH32 0x19457468657265756D205369676E6564204D6573736167653A0A333200000000 PUSH1 0x20 DUP3 ADD MSTORE PUSH1 0x3C DUP2 ADD DUP3 SWAP1 MSTORE PUSH0 SWAP1 PUSH1 0x5C ADD PUSH2 0xC5 JUMP JUMPDEST PUSH0 DUP1 PUSH0 DUP1 PUSH2 0x129 DUP6 PUSH2 0x196 JUMP JUMPDEST PUSH1 0x40 DUP1 MLOAD PUSH0 DUP2 MSTORE PUSH1 0x20 DUP2 ADD DUP1 DUP4 MSTORE DUP12 SWAP1 MSTORE PUSH1 0xFF DUP4 AND SWAP2 DUP2 ADD SWAP2 SWAP1 SWAP2 MSTORE PUSH1 0x60 DUP2 ADD DUP5 SWAP1 MSTORE PUSH1 0x80 DUP2 ADD DUP4 SWAP1 MSTORE SWAP3 SWAP6 POP SWAP1 SWAP4 POP SWAP2 POP PUSH1 0x1 SWAP1 PUSH1 0xA0 ADD PUSH1 0x20 PUSH1 0x40 MLOAD PUSH1 0x20 DUP2 SUB SWAP1 DUP1 DUP5 SUB SWAP1 DUP6 GAS STATICCALL ISZERO DUP1 ISZERO PUSH2 0x181 JUMPI RETURNDATASIZE PUSH0 DUP1 RETURNDATACOPY RETURNDATASIZE PUSH0 REVERT JUMPDEST POP POP PUSH1 0x40 MLOAD PUSH1 0x1F NOT ADD MLOAD SWAP8 SWAP7 POP POP POP POP POP POP POP JUMP JUMPDEST PUSH0 DUP1 PUSH0 DUP4 MLOAD PUSH1 0x41 EQ PUSH2 0x1EE JUMPI PUSH1 0x40 MLOAD PUSH3 0x461BCD PUSH1 0xE5 SHL DUP2 MSTORE PUSH1 0x20 PUSH1 0x4 DUP3 ADD MSTORE PUSH1 0x18 PUSH1 0x24 DUP3 ADD MSTORE PUSH32 0x696E76616C6964207369676E6174757265206C656E6774680000000000000000 PUSH1 0x44 DUP3 ADD MSTORE PUSH1 0x64 ADD PUSH1 0x40 MLOAD DUP1 SWAP2 SUB SWAP1 REVERT JUMPDEST POP POP POP PUSH1 0x20 DUP2 ADD MLOAD PUSH1 0x40 DUP3 ADD MLOAD PUSH1 0x60 SWAP1 SWAP3 ADD MLOAD SWAP1 SWAP3 PUSH0 SWAP2 SWAP1 SWAP2 BYTE SWAP1 JUMP JUMPDEST PUSH4 0x4E487B71 PUSH1 0xE0 SHL PUSH0 MSTORE PUSH1 0x41 PUSH1 0x4 MSTORE PUSH1 0x24 PUSH0 REVERT JUMPDEST PUSH0 PUSH8 0xFFFFFFFFFFFFFFFF DUP1 DUP5 GT ISZERO PUSH2 0x239 JUMPI PUSH2 0x239 PUSH2 0x20B JUMP JUMPDEST PUSH1 0x40 MLOAD PUSH1 0x1F DUP6 ADD PUSH1 0x1F NOT SWAP1 DUP2 AND PUSH1 0x3F ADD AND DUP2 ADD SWAP1 DUP3 DUP3 GT DUP2 DUP4 LT OR ISZERO PUSH2 0x261 JUMPI PUSH2 0x261 PUSH2 0x20B JUMP JUMPDEST DUP2 PUSH1 0x40 MSTORE DUP1 SWAP4 POP DUP6 DUP2 MSTORE DUP7 DUP7 DUP7 ADD GT ISZERO PUSH2 0x279 JUMPI PUSH0 DUP1 REVERT JUMPDEST DUP6 DUP6 PUSH1 0x20 DUP4 ADD CALLDATACOPY PUSH0 PUSH1 0x20 DUP8 DUP4 ADD ADD MSTORE POP POP POP SWAP4 SWAP3 POP POP POP JUMP JUMPDEST PUSH0 DUP1 PUSH0 PUSH1 0x60 DUP5 DUP7 SUB SLT ISZERO PUSH2 0x2A4 JUMPI PUSH0 DUP1 REVERT JUMPDEST DUP4 CALLDATALOAD PUSH1 0x1 PUSH1 0x1 PUSH1 0xA0 SHL SUB DUP2 AND DUP2 EQ PUSH2 0x2BA JUMPI PUSH0 DUP1 REVERT JUMPDEST SWAP3 POP PUSH1 0x20 DUP5 ADD CALLDATALOAD PUSH8 0xFFFFFFFFFFFFFFFF DUP1 DUP3 GT ISZERO PUSH2 0x2D6 JUMPI PUSH0 DUP1 REVERT JUMPDEST DUP2 DUP7 ADD SWAP2 POP DUP7 PUSH1 0x1F DUP4 ADD SLT PUSH2 0x2E9 JUMPI PUSH0 DUP1 REVERT JUMPDEST PUSH2 0x2F8 DUP8 DUP4 CALLDATALOAD PUSH1 0x20 DUP6 ADD PUSH2 0x21F JUMP JUMPDEST SWAP4 POP PUSH1 0x40 DUP7 ADD CALLDATALOAD SWAP2 POP DUP1 DUP3 GT ISZERO PUSH2 0x30D JUMPI PUSH0 DUP1 REVERT JUMPDEST POP DUP5 ADD PUSH1 0x1F DUP2 ADD DUP7 SGT PUSH2 0x31E JUMPI PUSH0 DUP1 REVERT JUMPDEST PUSH2 0x32D DUP7 DUP3 CALLDATALOAD PUSH1 0x20 DUP5 ADD PUSH2 0x21F JUMP JUMPDEST SWAP2 POP POP SWAP3 POP SWAP3 POP SWAP3 JUMP JUMPDEST PUSH0 DUP3 MLOAD DUP1 PUSH1 0x20 DUP6 ADD DUP5 MCOPY PUSH0 SWAP3 ADD SWAP2 DUP3 MSTORE POP SWAP2 SWAP1 POP JUMP INVALID LOG2 PUSH5 0x6970667358 0x22 SLT KECCAK256 XOR CALL 0xCF BALANCE 0xD7 PUSH7 0x2F18AEB481FB4F BASEFEE PUSH3 0x24B32B CALLDATASIZE PUSH8 0x4889398D379EF658 CREATE2 0xEC CODECOPY SSTORE PUSH5 0x736F6C6343 STOP ADDMOD NOT STOP CALLER "
				},
				"gasEstimates": {
					"creation": {
						"codeDepositCost": "179800",
						"executionCost": "224",
						"totalCost": "180024"
					},
					"external": {
						"verifyUserSign(address,string,bytes)": "infinite"
					},
					"internal": {
						"getEthSignedMessageHash(bytes32)": "infinite",
						"getMessageHash(string memory)": "infinite",
						"recoverSigner(bytes32,bytes memory)": "infinite",
						"splitSignature(bytes memory)": "infinite"
					}
				},
				"methodIdentifiers": {
					"verifyUserSign(address,string,bytes)": "041e8f8c"
				}
			},
			"storageLayout": {
				"storage": [],
				"types": null
			},
			"userdoc": {
				"kind": "user",
				"methods": {},
				"version": 1
			}
		}
	}
}