{
	"contracts/Prop.sol": {
		"CrowdBank": {
			"abi": [
				{
					"inputs": [],
					"payable": false,
					"stateMutability": "nonpayable",
					"type": "constructor"
				},
				{
					"constant": false,
					"inputs": [
						{
							"internalType": "uint256",
							"name": "proposeId",
							"type": "uint256"
						}
					],
					"name": "acceptProposal",
					"outputs": [],
					"payable": false,
					"stateMutability": "nonpayable",
					"type": "function"
				},
				{
					"constant": true,
					"inputs": [
						{
							"internalType": "address",
							"name": "borrower",
							"type": "address"
						}
					],
					"name": "getActiveLoanId",
					"outputs": [
						{
							"internalType": "uint256",
							"name": "",
							"type": "uint256"
						}
					],
					"payable": false,
					"stateMutability": "view",
					"type": "function"
				},
				{
					"constant": true,
					"inputs": [
						{
							"internalType": "address",
							"name": "borrower",
							"type": "address"
						}
					],
					"name": "getLastLoanDetails",
					"outputs": [
						{
							"internalType": "enum CrowdBank.LoanState",
							"name": "",
							"type": "uint8"
						},
						{
							"internalType": "uint256",
							"name": "",
							"type": "uint256"
						},
						{
							"internalType": "uint256",
							"name": "",
							"type": "uint256"
						},
						{
							"internalType": "uint256",
							"name": "",
							"type": "uint256"
						},
						{
							"internalType": "uint256",
							"name": "",
							"type": "uint256"
						}
					],
					"payable": false,
					"stateMutability": "view",
					"type": "function"
				},
				{
					"constant": true,
					"inputs": [
						{
							"internalType": "address",
							"name": "borrower",
							"type": "address"
						}
					],
					"name": "getLastLoanState",
					"outputs": [
						{
							"internalType": "enum CrowdBank.LoanState",
							"name": "",
							"type": "uint8"
						}
					],
					"payable": false,
					"stateMutability": "view",
					"type": "function"
				},
				{
					"constant": true,
					"inputs": [
						{
							"internalType": "address",
							"name": "borrower",
							"type": "address"
						},
						{
							"internalType": "uint256",
							"name": "pos",
							"type": "uint256"
						}
					],
					"name": "getLoanDetailsByAddressPosition",
					"outputs": [
						{
							"internalType": "enum CrowdBank.LoanState",
							"name": "",
							"type": "uint8"
						},
						{
							"internalType": "uint256",
							"name": "",
							"type": "uint256"
						},
						{
							"internalType": "uint256",
							"name": "",
							"type": "uint256"
						},
						{
							"internalType": "uint256",
							"name": "",
							"type": "uint256"
						},
						{
							"internalType": "uint256",
							"name": "",
							"type": "uint256"
						},
						{
							"internalType": "bytes32",
							"name": "",
							"type": "bytes32"
						}
					],
					"payable": false,
					"stateMutability": "view",
					"type": "function"
				},
				{
					"constant": true,
					"inputs": [
						{
							"internalType": "address",
							"name": "lender",
							"type": "address"
						},
						{
							"internalType": "uint256",
							"name": "pos",
							"type": "uint256"
						}
					],
					"name": "getProposalAtPosFor",
					"outputs": [
						{
							"internalType": "address",
							"name": "",
							"type": "address"
						},
						{
							"internalType": "uint256",
							"name": "",
							"type": "uint256"
						},
						{
							"internalType": "enum CrowdBank.ProposalState",
							"name": "",
							"type": "uint8"
						},
						{
							"internalType": "uint256",
							"name": "",
							"type": "uint256"
						},
						{
							"internalType": "uint256",
							"name": "",
							"type": "uint256"
						},
						{
							"internalType": "uint256",
							"name": "",
							"type": "uint256"
						},
						{
							"internalType": "uint256",
							"name": "",
							"type": "uint256"
						},
						{
							"internalType": "bytes32",
							"name": "",
							"type": "bytes32"
						}
					],
					"payable": false,
					"stateMutability": "view",
					"type": "function"
				},
				{
					"constant": true,
					"inputs": [
						{
							"internalType": "uint256",
							"name": "loanId",
							"type": "uint256"
						},
						{
							"internalType": "uint256",
							"name": "numI",
							"type": "uint256"
						}
					],
					"name": "getProposalDetailsByLoanIdPosition",
					"outputs": [
						{
							"internalType": "enum CrowdBank.ProposalState",
							"name": "",
							"type": "uint8"
						},
						{
							"internalType": "uint256",
							"name": "",
							"type": "uint256"
						},
						{
							"internalType": "uint256",
							"name": "",
							"type": "uint256"
						},
						{
							"internalType": "uint256",
							"name": "",
							"type": "uint256"
						},
						{
							"internalType": "address",
							"name": "",
							"type": "address"
						}
					],
					"payable": false,
					"stateMutability": "view",
					"type": "function"
				},
				{
					"constant": true,
					"inputs": [
						{
							"internalType": "uint256",
							"name": "loanId",
							"type": "uint256"
						}
					],
					"name": "getRepayValue",
					"outputs": [
						{
							"internalType": "uint256",
							"name": "",
							"type": "uint256"
						}
					],
					"payable": false,
					"stateMutability": "view",
					"type": "function"
				},
				{
					"constant": true,
					"inputs": [
						{
							"internalType": "address",
							"name": "borrower",
							"type": "address"
						}
					],
					"name": "hasActiveLoan",
					"outputs": [
						{
							"internalType": "bool",
							"name": "",
							"type": "bool"
						}
					],
					"payable": false,
					"stateMutability": "view",
					"type": "function"
				},
				{
					"constant": true,
					"inputs": [
						{
							"internalType": "address",
							"name": "",
							"type": "address"
						},
						{
							"internalType": "uint256",
							"name": "",
							"type": "uint256"
						}
					],
					"name": "lendMap",
					"outputs": [
						{
							"internalType": "uint256",
							"name": "",
							"type": "uint256"
						}
					],
					"payable": false,
					"stateMutability": "view",
					"type": "function"
				},
				{
					"constant": true,
					"inputs": [
						{
							"internalType": "uint256",
							"name": "",
							"type": "uint256"
						}
					],
					"name": "loanList",
					"outputs": [
						{
							"internalType": "address",
							"name": "borrower",
							"type": "address"
						},
						{
							"internalType": "enum CrowdBank.LoanState",
							"name": "state",
							"type": "uint8"
						},
						{
							"internalType": "uint256",
							"name": "dueDate",
							"type": "uint256"
						},
						{
							"internalType": "uint256",
							"name": "amount",
							"type": "uint256"
						},
						{
							"internalType": "uint256",
							"name": "proposalCount",
							"type": "uint256"
						},
						{
							"internalType": "uint256",
							"name": "collected",
							"type": "uint256"
						},
						{
							"internalType": "uint256",
							"name": "startDate",
							"type": "uint256"
						},
						{
							"internalType": "bytes32",
							"name": "mortgage",
							"type": "bytes32"
						}
					],
					"payable": false,
					"stateMutability": "view",
					"type": "function"
				},
				{
					"constant": true,
					"inputs": [
						{
							"internalType": "address",
							"name": "",
							"type": "address"
						},
						{
							"internalType": "uint256",
							"name": "",
							"type": "uint256"
						}
					],
					"name": "loanMap",
					"outputs": [
						{
							"internalType": "uint256",
							"name": "",
							"type": "uint256"
						}
					],
					"payable": false,
					"stateMutability": "view",
					"type": "function"
				},
				{
					"constant": false,
					"inputs": [
						{
							"internalType": "uint256",
							"name": "loanId",
							"type": "uint256"
						}
					],
					"name": "lockLoan",
					"outputs": [],
					"payable": false,
					"stateMutability": "nonpayable",
					"type": "function"
				},
				{
					"constant": false,
					"inputs": [
						{
							"internalType": "uint256",
							"name": "amount",
							"type": "uint256"
						},
						{
							"internalType": "uint256",
							"name": "dueDate",
							"type": "uint256"
						},
						{
							"internalType": "bytes32",
							"name": "mortgage",
							"type": "bytes32"
						}
					],
					"name": "newLoan",
					"outputs": [],
					"payable": false,
					"stateMutability": "nonpayable",
					"type": "function"
				},
				{
					"constant": false,
					"inputs": [
						{
							"internalType": "uint256",
							"name": "loanId",
							"type": "uint256"
						},
						{
							"internalType": "uint256",
							"name": "rate",
							"type": "uint256"
						}
					],
					"name": "newProposal",
					"outputs": [],
					"payable": true,
					"stateMutability": "payable",
					"type": "function"
				},
				{
					"constant": true,
					"inputs": [],
					"name": "numTotalLoans",
					"outputs": [
						{
							"internalType": "uint256",
							"name": "",
							"type": "uint256"
						}
					],
					"payable": false,
					"stateMutability": "view",
					"type": "function"
				},
				{
					"constant": true,
					"inputs": [],
					"name": "owner",
					"outputs": [
						{
							"internalType": "address",
							"name": "",
							"type": "address"
						}
					],
					"payable": false,
					"stateMutability": "view",
					"type": "function"
				},
				{
					"constant": true,
					"inputs": [
						{
							"internalType": "uint256",
							"name": "",
							"type": "uint256"
						}
					],
					"name": "proposalList",
					"outputs": [
						{
							"internalType": "address payable",
							"name": "lender",
							"type": "address"
						},
						{
							"internalType": "uint256",
							"name": "loanId",
							"type": "uint256"
						},
						{
							"internalType": "enum CrowdBank.ProposalState",
							"name": "state",
							"type": "uint8"
						},
						{
							"internalType": "uint256",
							"name": "rate",
							"type": "uint256"
						},
						{
							"internalType": "uint256",
							"name": "amount",
							"type": "uint256"
						}
					],
					"payable": false,
					"stateMutability": "view",
					"type": "function"
				},
				{
					"constant": false,
					"inputs": [
						{
							"internalType": "uint256",
							"name": "loanId",
							"type": "uint256"
						}
					],
					"name": "repayLoan",
					"outputs": [],
					"payable": true,
					"stateMutability": "payable",
					"type": "function"
				},
				{
					"constant": false,
					"inputs": [
						{
							"internalType": "uint256",
							"name": "id",
							"type": "uint256"
						}
					],
					"name": "revokeMyProposal",
					"outputs": [],
					"payable": false,
					"stateMutability": "nonpayable",
					"type": "function"
				},
				{
					"constant": true,
					"inputs": [
						{
							"internalType": "address",
							"name": "borrower",
							"type": "address"
						}
					],
					"name": "totalLoansBy",
					"outputs": [
						{
							"internalType": "uint256",
							"name": "",
							"type": "uint256"
						}
					],
					"payable": false,
					"stateMutability": "view",
					"type": "function"
				},
				{
					"constant": true,
					"inputs": [
						{
							"internalType": "address",
							"name": "lender",
							"type": "address"
						}
					],
					"name": "totalProposalsBy",
					"outputs": [
						{
							"internalType": "uint256",
							"name": "",
							"type": "uint256"
						}
					],
					"payable": false,
					"stateMutability": "view",
					"type": "function"
				}
			],
			"devdoc": {
				"methods": {}
			},
			"evm": {
				"assembly": "    /* \"contracts/Prop.sol\":24:8912  contract CrowdBank {... */\n  mstore(0x40, 0x80)\n    /* \"contracts/Prop.sol\":842:897  constructor() public{... */\n  callvalue\n    /* \"--CODEGEN--\":8:17   */\n  dup1\n    /* \"--CODEGEN--\":5:7   */\n  iszero\n  tag_1\n  jumpi\n    /* \"--CODEGEN--\":30:31   */\n  0x00\n    /* \"--CODEGEN--\":27:28   */\n  dup1\n    /* \"--CODEGEN--\":20:32   */\n  revert\n    /* \"--CODEGEN--\":5:7   */\ntag_1:\n  pop\n    /* \"contracts/Prop.sol\":872:877  owner */\n  0x00\n    /* \"contracts/Prop.sol\":872:890  owner = msg.sender */\n  dup1\n  sload\n  not(sub(shl(0xa0, 0x01), 0x01))\n  and\n    /* \"contracts/Prop.sol\":880:890  msg.sender */\n  caller\n    /* \"contracts/Prop.sol\":872:890  owner = msg.sender */\n  or\n  swap1\n  sstore\n    /* \"contracts/Prop.sol\":24:8912  contract CrowdBank {... */\n  dataSize(sub_0)\n  dup1\n  dataOffset(sub_0)\n  0x00\n  codecopy\n  0x00\n  return\nstop\n\nsub_0: assembly {\n        /* \"contracts/Prop.sol\":24:8912  contract CrowdBank {... */\n      mstore(0x40, 0x80)\n      jumpi(tag_1, lt(calldatasize, 0x04))\n      shr(0xe0, calldataload(0x00))\n      dup1\n      0x8da5cb5b\n      gt\n      tag_24\n      jumpi\n      dup1\n      0xac51ba96\n      gt\n      tag_25\n      jumpi\n      dup1\n      0xac51ba96\n      eq\n      tag_18\n      jumpi\n      dup1\n      0xbad9e65a\n      eq\n      tag_19\n      jumpi\n      dup1\n      0xc6311e3f\n      eq\n      tag_20\n      jumpi\n      dup1\n      0xe24afbb6\n      eq\n      tag_21\n      jumpi\n      dup1\n      0xfaa72d63\n      eq\n      tag_22\n      jumpi\n      dup1\n      0xfccd238c\n      eq\n      tag_23\n      jumpi\n      jump(tag_1)\n    tag_25:\n      dup1\n      0x8da5cb5b\n      eq\n      tag_13\n      jumpi\n      dup1\n      0x98325656\n      eq\n      tag_14\n      jumpi\n      dup1\n      0x9ce9cc56\n      eq\n      tag_15\n      jumpi\n      dup1\n      0xa180f61b\n      eq\n      tag_16\n      jumpi\n      dup1\n      0xab7b1c89\n      eq\n      tag_17\n      jumpi\n      jump(tag_1)\n    tag_24:\n      dup1\n      0x277411d2\n      gt\n      tag_26\n      jumpi\n      dup1\n      0x277411d2\n      eq\n      tag_7\n      jumpi\n      dup1\n      0x60c5cc3a\n      eq\n      tag_8\n      jumpi\n      dup1\n      0x63e84648\n      eq\n      tag_9\n      jumpi\n      dup1\n      0x7621710c\n      eq\n      tag_10\n      jumpi\n      dup1\n      0x8a190636\n      eq\n      tag_11\n      jumpi\n      dup1\n      0x8cad507d\n      eq\n      tag_12\n      jumpi\n      jump(tag_1)\n    tag_26:\n      dup1\n      0x052065df\n      eq\n      tag_2\n      jumpi\n      dup1\n      0x0b278f72\n      eq\n      tag_3\n      jumpi\n      dup1\n      0x1594a313\n      eq\n      tag_4\n      jumpi\n      dup1\n      0x1801f00f\n      eq\n      tag_5\n      jumpi\n      dup1\n      0x21d4f8db\n      eq\n      tag_6\n      jumpi\n    tag_1:\n      0x00\n      dup1\n      revert\n        /* \"contracts/Prop.sol\":7586:7892  function getLoanDetailsByAddressPosition(address borrower, uint pos) public view returns(LoanState, uint, uint, uint, uint,bytes32) {... */\n    tag_2:\n      callvalue\n        /* \"--CODEGEN--\":8:17   */\n      dup1\n        /* \"--CODEGEN--\":5:7   */\n      iszero\n      tag_27\n      jumpi\n        /* \"--CODEGEN--\":30:31   */\n      0x00\n        /* \"--CODEGEN--\":27:28   */\n      dup1\n        /* \"--CODEGEN--\":20:32   */\n      revert\n        /* \"--CODEGEN--\":5:7   */\n    tag_27:\n        /* \"contracts/Prop.sol\":7586:7892  function getLoanDetailsByAddressPosition(address borrower, uint pos) public view returns(LoanState, uint, uint, uint, uint,bytes32) {... */\n      pop\n      tag_28\n      0x04\n      dup1\n      calldatasize\n      sub\n        /* \"--CODEGEN--\":13:15   */\n      0x40\n        /* \"--CODEGEN--\":8:11   */\n      dup2\n        /* \"--CODEGEN--\":5:16   */\n      lt\n        /* \"--CODEGEN--\":2:4   */\n      iszero\n      tag_29\n      jumpi\n        /* \"--CODEGEN--\":29:30   */\n      0x00\n        /* \"--CODEGEN--\":26:27   */\n      dup1\n        /* \"--CODEGEN--\":19:31   */\n      revert\n        /* \"--CODEGEN--\":2:4   */\n    tag_29:\n      pop\n      sub(shl(0xa0, 0x01), 0x01)\n        /* \"contracts/Prop.sol\":7586:7892  function getLoanDetailsByAddressPosition(address borrower, uint pos) public view returns(LoanState, uint, uint, uint, uint,bytes32) {... */\n      dup2\n      calldataload\n      and\n      swap1\n      0x20\n      add\n      calldataload\n      tag_30\n      jump\t// in\n    tag_28:\n      mload(0x40)\n      dup1\n      dup8\n      0x03\n      dup2\n      gt\n      iszero\n      tag_31\n      jumpi\n      invalid\n    tag_31:\n      0xff\n      and\n      dup2\n      mstore\n      0x20\n      dup2\n      add\n      swap7\n      swap1\n      swap7\n      mstore\n      pop\n      0x40\n      dup1\n      dup7\n      add\n      swap5\n      swap1\n      swap5\n      mstore\n      0x60\n      dup6\n      add\n      swap3\n      swap1\n      swap3\n      mstore\n      0x80\n      dup5\n      add\n      mstore\n      0xa0\n      dup4\n      add\n      mstore\n      mload\n      swap1\n      dup2\n      swap1\n      sub\n      0xc0\n      add\n      swap2\n      pop\n      return\n        /* \"contracts/Prop.sol\":4464:5309  function getRepayValue(uint loanId) public view returns(uint) {... */\n    tag_3:\n      callvalue\n        /* \"--CODEGEN--\":8:17   */\n      dup1\n        /* \"--CODEGEN--\":5:7   */\n      iszero\n      tag_32\n      jumpi\n        /* \"--CODEGEN--\":30:31   */\n      0x00\n        /* \"--CODEGEN--\":27:28   */\n      dup1\n        /* \"--CODEGEN--\":20:32   */\n      revert\n        /* \"--CODEGEN--\":5:7   */\n    tag_32:\n        /* \"contracts/Prop.sol\":4464:5309  function getRepayValue(uint loanId) public view returns(uint) {... */\n      pop\n      tag_33\n      0x04\n      dup1\n      calldatasize\n      sub\n        /* \"--CODEGEN--\":13:15   */\n      0x20\n        /* \"--CODEGEN--\":8:11   */\n      dup2\n        /* \"--CODEGEN--\":5:16   */\n      lt\n        /* \"--CODEGEN--\":2:4   */\n      iszero\n      tag_34\n      jumpi\n        /* \"--CODEGEN--\":29:30   */\n      0x00\n        /* \"--CODEGEN--\":26:27   */\n      dup1\n        /* \"--CODEGEN--\":19:31   */\n      revert\n        /* \"--CODEGEN--\":2:4   */\n    tag_34:\n      pop\n        /* \"contracts/Prop.sol\":4464:5309  function getRepayValue(uint loanId) public view returns(uint) {... */\n      calldataload\n      tag_35\n      jump\t// in\n    tag_33:\n      0x40\n      dup1\n      mload\n      swap2\n      dup3\n      mstore\n      mload\n      swap1\n      dup2\n      swap1\n      sub\n      0x20\n      add\n      swap1\n      return\n        /* \"contracts/Prop.sol\":749:789  mapping (address=>uint[]) public loanMap */\n    tag_4:\n      callvalue\n        /* \"--CODEGEN--\":8:17   */\n      dup1\n        /* \"--CODEGEN--\":5:7   */\n      iszero\n      tag_36\n      jumpi\n        /* \"--CODEGEN--\":30:31   */\n      0x00\n        /* \"--CODEGEN--\":27:28   */\n      dup1\n        /* \"--CODEGEN--\":20:32   */\n      revert\n        /* \"--CODEGEN--\":5:7   */\n    tag_36:\n        /* \"contracts/Prop.sol\":749:789  mapping (address=>uint[]) public loanMap */\n      pop\n      tag_33\n      0x04\n      dup1\n      calldatasize\n      sub\n        /* \"--CODEGEN--\":13:15   */\n      0x40\n        /* \"--CODEGEN--\":8:11   */\n      dup2\n        /* \"--CODEGEN--\":5:16   */\n      lt\n        /* \"--CODEGEN--\":2:4   */\n      iszero\n      tag_38\n      jumpi\n        /* \"--CODEGEN--\":29:30   */\n      0x00\n        /* \"--CODEGEN--\":26:27   */\n      dup1\n        /* \"--CODEGEN--\":19:31   */\n      revert\n        /* \"--CODEGEN--\":2:4   */\n    tag_38:\n      pop\n      sub(shl(0xa0, 0x01), 0x01)\n        /* \"contracts/Prop.sol\":749:789  mapping (address=>uint[]) public loanMap */\n      dup2\n      calldataload\n      and\n      swap1\n      0x20\n      add\n      calldataload\n      tag_39\n      jump\t// in\n        /* \"contracts/Prop.sol\":1656:2133  function newProposal(uint loanId, uint rate) public payable {... */\n    tag_5:\n      tag_40\n      0x04\n      dup1\n      calldatasize\n      sub\n        /* \"--CODEGEN--\":13:15   */\n      0x40\n        /* \"--CODEGEN--\":8:11   */\n      dup2\n        /* \"--CODEGEN--\":5:16   */\n      lt\n        /* \"--CODEGEN--\":2:4   */\n      iszero\n      tag_41\n      jumpi\n        /* \"--CODEGEN--\":29:30   */\n      0x00\n        /* \"--CODEGEN--\":26:27   */\n      dup1\n        /* \"--CODEGEN--\":19:31   */\n      revert\n        /* \"--CODEGEN--\":2:4   */\n    tag_41:\n      pop\n        /* \"contracts/Prop.sol\":1656:2133  function newProposal(uint loanId, uint rate) public payable {... */\n      dup1\n      calldataload\n      swap1\n      0x20\n      add\n      calldataload\n      tag_42\n      jump\t// in\n    tag_40:\n      stop\n        /* \"contracts/Prop.sol\":904:1315  function hasActiveLoan(address borrower) public view returns(bool) {... */\n    tag_6:\n      callvalue\n        /* \"--CODEGEN--\":8:17   */\n      dup1\n        /* \"--CODEGEN--\":5:7   */\n      iszero\n      tag_43\n      jumpi\n        /* \"--CODEGEN--\":30:31   */\n      0x00\n        /* \"--CODEGEN--\":27:28   */\n      dup1\n        /* \"--CODEGEN--\":20:32   */\n      revert\n        /* \"--CODEGEN--\":5:7   */\n    tag_43:\n        /* \"contracts/Prop.sol\":904:1315  function hasActiveLoan(address borrower) public view returns(bool) {... */\n      pop\n      tag_44\n      0x04\n      dup1\n      calldatasize\n      sub\n        /* \"--CODEGEN--\":13:15   */\n      0x20\n        /* \"--CODEGEN--\":8:11   */\n      dup2\n        /* \"--CODEGEN--\":5:16   */\n      lt\n        /* \"--CODEGEN--\":2:4   */\n      iszero\n      tag_45\n      jumpi\n        /* \"--CODEGEN--\":29:30   */\n      0x00\n        /* \"--CODEGEN--\":26:27   */\n      dup1\n        /* \"--CODEGEN--\":19:31   */\n      revert\n        /* \"--CODEGEN--\":2:4   */\n    tag_45:\n      pop\n        /* \"contracts/Prop.sol\":904:1315  function hasActiveLoan(address borrower) public view returns(bool) {... */\n      calldataload\n      sub(shl(0xa0, 0x01), 0x01)\n      and\n      tag_46\n      jump\t// in\n    tag_44:\n      0x40\n      dup1\n      mload\n      swap2\n      iszero\n      iszero\n      dup3\n      mstore\n      mload\n      swap1\n      dup2\n      swap1\n      sub\n      0x20\n      add\n      swap1\n      return\n        /* \"contracts/Prop.sol\":7038:7423  function getProposalAtPosFor(address lender, uint pos) public view returns(address, uint, ProposalState, uint, uint, uint, uint, bytes32) {... */\n    tag_7:\n      callvalue\n        /* \"--CODEGEN--\":8:17   */\n      dup1\n        /* \"--CODEGEN--\":5:7   */\n      iszero\n      tag_47\n      jumpi\n        /* \"--CODEGEN--\":30:31   */\n      0x00\n        /* \"--CODEGEN--\":27:28   */\n      dup1\n        /* \"--CODEGEN--\":20:32   */\n      revert\n        /* \"--CODEGEN--\":5:7   */\n    tag_47:\n        /* \"contracts/Prop.sol\":7038:7423  function getProposalAtPosFor(address lender, uint pos) public view returns(address, uint, ProposalState, uint, uint, uint, uint, bytes32) {... */\n      pop\n      tag_48\n      0x04\n      dup1\n      calldatasize\n      sub\n        /* \"--CODEGEN--\":13:15   */\n      0x40\n        /* \"--CODEGEN--\":8:11   */\n      dup2\n        /* \"--CODEGEN--\":5:16   */\n      lt\n        /* \"--CODEGEN--\":2:4   */\n      iszero\n      tag_49\n      jumpi\n        /* \"--CODEGEN--\":29:30   */\n      0x00\n        /* \"--CODEGEN--\":26:27   */\n      dup1\n        /* \"--CODEGEN--\":19:31   */\n      revert\n        /* \"--CODEGEN--\":2:4   */\n    tag_49:\n      pop\n      sub(shl(0xa0, 0x01), 0x01)\n        /* \"contracts/Prop.sol\":7038:7423  function getProposalAtPosFor(address lender, uint pos) public view returns(address, uint, ProposalState, uint, uint, uint, uint, bytes32) {... */\n      dup2\n      calldataload\n      and\n      swap1\n      0x20\n      add\n      calldataload\n      tag_50\n      jump\t// in\n    tag_48:\n      mload(0x40)\n      dup1\n      dup10\n      sub(shl(0xa0, 0x01), 0x01)\n      and\n      sub(shl(0xa0, 0x01), 0x01)\n      and\n      dup2\n      mstore\n      0x20\n      add\n      dup9\n      dup2\n      mstore\n      0x20\n      add\n      dup8\n      0x02\n      dup2\n      gt\n      iszero\n      tag_51\n      jumpi\n      invalid\n    tag_51:\n      0xff\n      and\n      dup2\n      mstore\n      0x20\n      add\n      dup7\n      dup2\n      mstore\n      0x20\n      add\n      dup6\n      dup2\n      mstore\n      0x20\n      add\n      dup5\n      dup2\n      mstore\n      0x20\n      add\n      dup4\n      dup2\n      mstore\n      0x20\n      add\n      dup3\n      dup2\n      mstore\n      0x20\n      add\n      swap9\n      pop\n      pop\n      pop\n      pop\n      pop\n      pop\n      pop\n      pop\n      pop\n      mload(0x40)\n      dup1\n      swap2\n      sub\n      swap1\n      return\n        /* \"contracts/Prop.sol\":6348:6910  function acceptProposal(uint proposeId) public... */\n    tag_8:\n      callvalue\n        /* \"--CODEGEN--\":8:17   */\n      dup1\n        /* \"--CODEGEN--\":5:7   */\n      iszero\n      tag_52\n      jumpi\n        /* \"--CODEGEN--\":30:31   */\n      0x00\n        /* \"--CODEGEN--\":27:28   */\n      dup1\n        /* \"--CODEGEN--\":20:32   */\n      revert\n        /* \"--CODEGEN--\":5:7   */\n    tag_52:\n        /* \"contracts/Prop.sol\":6348:6910  function acceptProposal(uint proposeId) public... */\n      pop\n      tag_40\n      0x04\n      dup1\n      calldatasize\n      sub\n        /* \"--CODEGEN--\":13:15   */\n      0x20\n        /* \"--CODEGEN--\":8:11   */\n      dup2\n        /* \"--CODEGEN--\":5:16   */\n      lt\n        /* \"--CODEGEN--\":2:4   */\n      iszero\n      tag_54\n      jumpi\n        /* \"--CODEGEN--\":29:30   */\n      0x00\n        /* \"--CODEGEN--\":26:27   */\n      dup1\n        /* \"--CODEGEN--\":19:31   */\n      revert\n        /* \"--CODEGEN--\":2:4   */\n    tag_54:\n      pop\n        /* \"contracts/Prop.sol\":6348:6910  function acceptProposal(uint proposeId) public... */\n      calldataload\n      tag_55\n      jump\t// in\n        /* \"contracts/Prop.sol\":8499:8808  function getProposalDetailsByLoanIdPosition(uint loanId, uint numI) public view returns(ProposalState, uint, uint, uint, address) {... */\n    tag_9:\n      callvalue\n        /* \"--CODEGEN--\":8:17   */\n      dup1\n        /* \"--CODEGEN--\":5:7   */\n      iszero\n      tag_56\n      jumpi\n        /* \"--CODEGEN--\":30:31   */\n      0x00\n        /* \"--CODEGEN--\":27:28   */\n      dup1\n        /* \"--CODEGEN--\":20:32   */\n      revert\n        /* \"--CODEGEN--\":5:7   */\n    tag_56:\n        /* \"contracts/Prop.sol\":8499:8808  function getProposalDetailsByLoanIdPosition(uint loanId, uint numI) public view returns(ProposalState, uint, uint, uint, address) {... */\n      pop\n      tag_57\n      0x04\n      dup1\n      calldatasize\n      sub\n        /* \"--CODEGEN--\":13:15   */\n      0x40\n        /* \"--CODEGEN--\":8:11   */\n      dup2\n        /* \"--CODEGEN--\":5:16   */\n      lt\n        /* \"--CODEGEN--\":2:4   */\n      iszero\n      tag_58\n      jumpi\n        /* \"--CODEGEN--\":29:30   */\n      0x00\n        /* \"--CODEGEN--\":26:27   */\n      dup1\n        /* \"--CODEGEN--\":19:31   */\n      revert\n        /* \"--CODEGEN--\":2:4   */\n    tag_58:\n      pop\n        /* \"contracts/Prop.sol\":8499:8808  function getProposalDetailsByLoanIdPosition(uint loanId, uint numI) public view returns(ProposalState, uint, uint, uint, address) {... */\n      dup1\n      calldataload\n      swap1\n      0x20\n      add\n      calldataload\n      tag_59\n      jump\t// in\n    tag_57:\n      mload(0x40)\n      dup1\n      dup7\n      0x02\n      dup2\n      gt\n      iszero\n      tag_60\n      jumpi\n      invalid\n    tag_60:\n      0xff\n      and\n      dup2\n      mstore\n      0x20\n      dup2\n      add\n      swap6\n      swap1\n      swap6\n      mstore\n      pop\n      0x40\n      dup1\n      dup6\n      add\n      swap4\n      swap1\n      swap4\n      mstore\n      0x60\n      dup5\n      add\n      swap2\n      swap1\n      swap2\n      mstore\n      sub(shl(0xa0, 0x01), 0x01)\n      and\n      0x80\n      dup4\n      add\n      mstore\n      mload\n      swap1\n      dup2\n      swap1\n      sub\n      0xa0\n      add\n      swap2\n      pop\n      return\n        /* \"contracts/Prop.sol\":684:706  Loan[] public loanList */\n    tag_10:\n      callvalue\n        /* \"--CODEGEN--\":8:17   */\n      dup1\n        /* \"--CODEGEN--\":5:7   */\n      iszero\n      tag_61\n      jumpi\n        /* \"--CODEGEN--\":30:31   */\n      0x00\n        /* \"--CODEGEN--\":27:28   */\n      dup1\n        /* \"--CODEGEN--\":20:32   */\n      revert\n        /* \"--CODEGEN--\":5:7   */\n    tag_61:\n        /* \"contracts/Prop.sol\":684:706  Loan[] public loanList */\n      pop\n      tag_62\n      0x04\n      dup1\n      calldatasize\n      sub\n        /* \"--CODEGEN--\":13:15   */\n      0x20\n        /* \"--CODEGEN--\":8:11   */\n      dup2\n        /* \"--CODEGEN--\":5:16   */\n      lt\n        /* \"--CODEGEN--\":2:4   */\n      iszero\n      tag_63\n      jumpi\n        /* \"--CODEGEN--\":29:30   */\n      0x00\n        /* \"--CODEGEN--\":26:27   */\n      dup1\n        /* \"--CODEGEN--\":19:31   */\n      revert\n        /* \"--CODEGEN--\":2:4   */\n    tag_63:\n      pop\n        /* \"contracts/Prop.sol\":684:706  Loan[] public loanList */\n      calldataload\n      tag_64\n      jump\t// in\n    tag_62:\n      mload(0x40)\n      sub(shl(0xa0, 0x01), 0x01)\n      dup10\n      and\n      dup2\n      mstore\n      0x20\n      dup2\n      add\n      dup9\n      0x03\n      dup2\n      gt\n      iszero\n      tag_65\n      jumpi\n      invalid\n    tag_65:\n      0xff\n      and\n      dup2\n      mstore\n      0x20\n      add\n      dup8\n      dup2\n      mstore\n      0x20\n      add\n      dup7\n      dup2\n      mstore\n      0x20\n      add\n      dup6\n      dup2\n      mstore\n      0x20\n      add\n      dup5\n      dup2\n      mstore\n      0x20\n      add\n      dup4\n      dup2\n      mstore\n      0x20\n      add\n      dup3\n      dup2\n      mstore\n      0x20\n      add\n      swap9\n      pop\n      pop\n      pop\n      pop\n      pop\n      pop\n      pop\n      pop\n      pop\n      mload(0x40)\n      dup1\n      swap2\n      sub\n      swap1\n      return\n        /* \"contracts/Prop.sol\":8174:8492  function getLastLoanDetails(address borrower) public view returns(LoanState, uint, uint, uint, uint) {... */\n    tag_11:\n      callvalue\n        /* \"--CODEGEN--\":8:17   */\n      dup1\n        /* \"--CODEGEN--\":5:7   */\n      iszero\n      tag_66\n      jumpi\n        /* \"--CODEGEN--\":30:31   */\n      0x00\n        /* \"--CODEGEN--\":27:28   */\n      dup1\n        /* \"--CODEGEN--\":20:32   */\n      revert\n        /* \"--CODEGEN--\":5:7   */\n    tag_66:\n        /* \"contracts/Prop.sol\":8174:8492  function getLastLoanDetails(address borrower) public view returns(LoanState, uint, uint, uint, uint) {... */\n      pop\n      tag_67\n      0x04\n      dup1\n      calldatasize\n      sub\n        /* \"--CODEGEN--\":13:15   */\n      0x20\n        /* \"--CODEGEN--\":8:11   */\n      dup2\n        /* \"--CODEGEN--\":5:16   */\n      lt\n        /* \"--CODEGEN--\":2:4   */\n      iszero\n      tag_68\n      jumpi\n        /* \"--CODEGEN--\":29:30   */\n      0x00\n        /* \"--CODEGEN--\":26:27   */\n      dup1\n        /* \"--CODEGEN--\":19:31   */\n      revert\n        /* \"--CODEGEN--\":2:4   */\n    tag_68:\n      pop\n        /* \"contracts/Prop.sol\":8174:8492  function getLastLoanDetails(address borrower) public view returns(LoanState, uint, uint, uint, uint) {... */\n      calldataload\n      sub(shl(0xa0, 0x01), 0x01)\n      and\n      tag_69\n      jump\t// in\n    tag_67:\n      mload(0x40)\n      dup1\n      dup7\n      0x03\n      dup2\n      gt\n      iszero\n      tag_70\n      jumpi\n      invalid\n    tag_70:\n      0xff\n      and\n      dup2\n      mstore\n      0x20\n      add\n      dup6\n      dup2\n      mstore\n      0x20\n      add\n      dup5\n      dup2\n      mstore\n      0x20\n      add\n      dup4\n      dup2\n      mstore\n      0x20\n      add\n      dup3\n      dup2\n      mstore\n      0x20\n      add\n      swap6\n      pop\n      pop\n      pop\n      pop\n      pop\n      pop\n      mload(0x40)\n      dup1\n      swap2\n      sub\n      swap1\n      return\n        /* \"contracts/Prop.sol\":8815:8905  function numTotalLoans() public view returns(uint) {... */\n    tag_12:\n      callvalue\n        /* \"--CODEGEN--\":8:17   */\n      dup1\n        /* \"--CODEGEN--\":5:7   */\n      iszero\n      tag_71\n      jumpi\n        /* \"--CODEGEN--\":30:31   */\n      0x00\n        /* \"--CODEGEN--\":27:28   */\n      dup1\n        /* \"--CODEGEN--\":20:32   */\n      revert\n        /* \"--CODEGEN--\":5:7   */\n    tag_71:\n        /* \"contracts/Prop.sol\":8815:8905  function numTotalLoans() public view returns(uint) {... */\n      pop\n      tag_33\n      tag_73\n      jump\t// in\n        /* \"contracts/Prop.sol\":54:74  address public owner */\n    tag_13:\n      callvalue\n        /* \"--CODEGEN--\":8:17   */\n      dup1\n        /* \"--CODEGEN--\":5:7   */\n      iszero\n      tag_74\n      jumpi\n        /* \"--CODEGEN--\":30:31   */\n      0x00\n        /* \"--CODEGEN--\":27:28   */\n      dup1\n        /* \"--CODEGEN--\":20:32   */\n      revert\n        /* \"--CODEGEN--\":5:7   */\n    tag_74:\n        /* \"contracts/Prop.sol\":54:74  address public owner */\n      pop\n      tag_75\n      tag_76\n      jump\t// in\n    tag_75:\n      0x40\n      dup1\n      mload\n      sub(shl(0xa0, 0x01), 0x01)\n      swap1\n      swap3\n      and\n      dup3\n      mstore\n      mload\n      swap1\n      dup2\n      swap1\n      sub\n      0x20\n      add\n      swap1\n      return\n        /* \"contracts/Prop.sol\":2140:2478  function getActiveLoanId(address borrower) public view returns(uint) {... */\n    tag_14:\n      callvalue\n        /* \"--CODEGEN--\":8:17   */\n      dup1\n        /* \"--CODEGEN--\":5:7   */\n      iszero\n      tag_77\n      jumpi\n        /* \"--CODEGEN--\":30:31   */\n      0x00\n        /* \"--CODEGEN--\":27:28   */\n      dup1\n        /* \"--CODEGEN--\":20:32   */\n      revert\n        /* \"--CODEGEN--\":5:7   */\n    tag_77:\n        /* \"contracts/Prop.sol\":2140:2478  function getActiveLoanId(address borrower) public view returns(uint) {... */\n      pop\n      tag_33\n      0x04\n      dup1\n      calldatasize\n      sub\n        /* \"--CODEGEN--\":13:15   */\n      0x20\n        /* \"--CODEGEN--\":8:11   */\n      dup2\n        /* \"--CODEGEN--\":5:16   */\n      lt\n        /* \"--CODEGEN--\":2:4   */\n      iszero\n      tag_79\n      jumpi\n        /* \"--CODEGEN--\":29:30   */\n      0x00\n        /* \"--CODEGEN--\":26:27   */\n      dup1\n        /* \"--CODEGEN--\":19:31   */\n      revert\n        /* \"--CODEGEN--\":2:4   */\n    tag_79:\n      pop\n        /* \"contracts/Prop.sol\":2140:2478  function getActiveLoanId(address borrower) public view returns(uint) {... */\n      calldataload\n      sub(shl(0xa0, 0x01), 0x01)\n      and\n      tag_80\n      jump\t// in\n        /* \"contracts/Prop.sol\":2485:3543  function revokeMyProposal(uint id) public {... */\n    tag_15:\n      callvalue\n        /* \"--CODEGEN--\":8:17   */\n      dup1\n        /* \"--CODEGEN--\":5:7   */\n      iszero\n      tag_81\n      jumpi\n        /* \"--CODEGEN--\":30:31   */\n      0x00\n        /* \"--CODEGEN--\":27:28   */\n      dup1\n        /* \"--CODEGEN--\":20:32   */\n      revert\n        /* \"--CODEGEN--\":5:7   */\n    tag_81:\n        /* \"contracts/Prop.sol\":2485:3543  function revokeMyProposal(uint id) public {... */\n      pop\n      tag_40\n      0x04\n      dup1\n      calldatasize\n      sub\n        /* \"--CODEGEN--\":13:15   */\n      0x20\n        /* \"--CODEGEN--\":8:11   */\n      dup2\n        /* \"--CODEGEN--\":5:16   */\n      lt\n        /* \"--CODEGEN--\":2:4   */\n      iszero\n      tag_83\n      jumpi\n        /* \"--CODEGEN--\":29:30   */\n      0x00\n        /* \"--CODEGEN--\":26:27   */\n      dup1\n        /* \"--CODEGEN--\":19:31   */\n      revert\n        /* \"--CODEGEN--\":2:4   */\n    tag_83:\n      pop\n        /* \"contracts/Prop.sol\":2485:3543  function revokeMyProposal(uint id) public {... */\n      calldataload\n      tag_84\n      jump\t// in\n        /* \"contracts/Prop.sol\":3550:4427  function lockLoan(uint loanId) public {... */\n    tag_16:\n      callvalue\n        /* \"--CODEGEN--\":8:17   */\n      dup1\n        /* \"--CODEGEN--\":5:7   */\n      iszero\n      tag_85\n      jumpi\n        /* \"--CODEGEN--\":30:31   */\n      0x00\n        /* \"--CODEGEN--\":27:28   */\n      dup1\n        /* \"--CODEGEN--\":20:32   */\n      revert\n        /* \"--CODEGEN--\":5:7   */\n    tag_85:\n        /* \"contracts/Prop.sol\":3550:4427  function lockLoan(uint loanId) public {... */\n      pop\n      tag_40\n      0x04\n      dup1\n      calldatasize\n      sub\n        /* \"--CODEGEN--\":13:15   */\n      0x20\n        /* \"--CODEGEN--\":8:11   */\n      dup2\n        /* \"--CODEGEN--\":5:16   */\n      lt\n        /* \"--CODEGEN--\":2:4   */\n      iszero\n      tag_87\n      jumpi\n        /* \"--CODEGEN--\":29:30   */\n      0x00\n        /* \"--CODEGEN--\":26:27   */\n      dup1\n        /* \"--CODEGEN--\":19:31   */\n      revert\n        /* \"--CODEGEN--\":2:4   */\n    tag_87:\n      pop\n        /* \"contracts/Prop.sol\":3550:4427  function lockLoan(uint loanId) public {... */\n      calldataload\n      tag_88\n      jump\t// in\n        /* \"contracts/Prop.sol\":5316:6341  function repayLoan(uint loanId) public payable {... */\n    tag_17:\n      tag_40\n      0x04\n      dup1\n      calldatasize\n      sub\n        /* \"--CODEGEN--\":13:15   */\n      0x20\n        /* \"--CODEGEN--\":8:11   */\n      dup2\n        /* \"--CODEGEN--\":5:16   */\n      lt\n        /* \"--CODEGEN--\":2:4   */\n      iszero\n      tag_90\n      jumpi\n        /* \"--CODEGEN--\":29:30   */\n      0x00\n        /* \"--CODEGEN--\":26:27   */\n      dup1\n        /* \"--CODEGEN--\":19:31   */\n      revert\n        /* \"--CODEGEN--\":2:4   */\n    tag_90:\n      pop\n        /* \"contracts/Prop.sol\":5316:6341  function repayLoan(uint loanId) public payable {... */\n      calldataload\n      tag_91\n      jump\t// in\n        /* \"contracts/Prop.sol\":6917:7031  function totalProposalsBy(address lender) public view returns(uint) {... */\n    tag_18:\n      callvalue\n        /* \"--CODEGEN--\":8:17   */\n      dup1\n        /* \"--CODEGEN--\":5:7   */\n      iszero\n      tag_92\n      jumpi\n        /* \"--CODEGEN--\":30:31   */\n      0x00\n        /* \"--CODEGEN--\":27:28   */\n      dup1\n        /* \"--CODEGEN--\":20:32   */\n      revert\n        /* \"--CODEGEN--\":5:7   */\n    tag_92:\n        /* \"contracts/Prop.sol\":6917:7031  function totalProposalsBy(address lender) public view returns(uint) {... */\n      pop\n      tag_33\n      0x04\n      dup1\n      calldatasize\n      sub\n        /* \"--CODEGEN--\":13:15   */\n      0x20\n        /* \"--CODEGEN--\":8:11   */\n      dup2\n        /* \"--CODEGEN--\":5:16   */\n      lt\n        /* \"--CODEGEN--\":2:4   */\n      iszero\n      tag_94\n      jumpi\n        /* \"--CODEGEN--\":29:30   */\n      0x00\n        /* \"--CODEGEN--\":26:27   */\n      dup1\n        /* \"--CODEGEN--\":19:31   */\n      revert\n        /* \"--CODEGEN--\":2:4   */\n    tag_94:\n      pop\n        /* \"contracts/Prop.sol\":6917:7031  function totalProposalsBy(address lender) public view returns(uint) {... */\n      calldataload\n      sub(shl(0xa0, 0x01), 0x01)\n      and\n      tag_95\n      jump\t// in\n        /* \"contracts/Prop.sol\":7899:8167  function getLastLoanState(address borrower) public view returns(LoanState) {... */\n    tag_19:\n      callvalue\n        /* \"--CODEGEN--\":8:17   */\n      dup1\n        /* \"--CODEGEN--\":5:7   */\n      iszero\n      tag_96\n      jumpi\n        /* \"--CODEGEN--\":30:31   */\n      0x00\n        /* \"--CODEGEN--\":27:28   */\n      dup1\n        /* \"--CODEGEN--\":20:32   */\n      revert\n        /* \"--CODEGEN--\":5:7   */\n    tag_96:\n        /* \"contracts/Prop.sol\":7899:8167  function getLastLoanState(address borrower) public view returns(LoanState) {... */\n      pop\n      tag_97\n      0x04\n      dup1\n      calldatasize\n      sub\n        /* \"--CODEGEN--\":13:15   */\n      0x20\n        /* \"--CODEGEN--\":8:11   */\n      dup2\n        /* \"--CODEGEN--\":5:16   */\n      lt\n        /* \"--CODEGEN--\":2:4   */\n      iszero\n      tag_98\n      jumpi\n        /* \"--CODEGEN--\":29:30   */\n      0x00\n        /* \"--CODEGEN--\":26:27   */\n      dup1\n        /* \"--CODEGEN--\":19:31   */\n      revert\n        /* \"--CODEGEN--\":2:4   */\n    tag_98:\n      pop\n        /* \"contracts/Prop.sol\":7899:8167  function getLastLoanState(address borrower) public view returns(LoanState) {... */\n      calldataload\n      sub(shl(0xa0, 0x01), 0x01)\n      and\n      tag_99\n      jump\t// in\n    tag_97:\n      mload(0x40)\n      dup1\n      dup3\n      0x03\n      dup2\n      gt\n      iszero\n      tag_100\n      jumpi\n      invalid\n    tag_100:\n      0xff\n      and\n      dup2\n      mstore\n      0x20\n      add\n      swap2\n      pop\n      pop\n      mload(0x40)\n      dup1\n      swap2\n      sub\n      swap1\n      return\n        /* \"contracts/Prop.sol\":712:742  Proposal[] public proposalList */\n    tag_20:\n      callvalue\n        /* \"--CODEGEN--\":8:17   */\n      dup1\n        /* \"--CODEGEN--\":5:7   */\n      iszero\n      tag_101\n      jumpi\n        /* \"--CODEGEN--\":30:31   */\n      0x00\n        /* \"--CODEGEN--\":27:28   */\n      dup1\n        /* \"--CODEGEN--\":20:32   */\n      revert\n        /* \"--CODEGEN--\":5:7   */\n    tag_101:\n        /* \"contracts/Prop.sol\":712:742  Proposal[] public proposalList */\n      pop\n      tag_102\n      0x04\n      dup1\n      calldatasize\n      sub\n        /* \"--CODEGEN--\":13:15   */\n      0x20\n        /* \"--CODEGEN--\":8:11   */\n      dup2\n        /* \"--CODEGEN--\":5:16   */\n      lt\n        /* \"--CODEGEN--\":2:4   */\n      iszero\n      tag_103\n      jumpi\n        /* \"--CODEGEN--\":29:30   */\n      0x00\n        /* \"--CODEGEN--\":26:27   */\n      dup1\n        /* \"--CODEGEN--\":19:31   */\n      revert\n        /* \"--CODEGEN--\":2:4   */\n    tag_103:\n      pop\n        /* \"contracts/Prop.sol\":712:742  Proposal[] public proposalList */\n      calldataload\n      tag_104\n      jump\t// in\n    tag_102:\n      mload(0x40)\n      dup1\n      dup7\n      sub(shl(0xa0, 0x01), 0x01)\n      and\n      sub(shl(0xa0, 0x01), 0x01)\n      and\n      dup2\n      mstore\n      0x20\n      add\n      dup6\n      dup2\n      mstore\n      0x20\n      add\n      dup5\n      0x02\n      dup2\n      gt\n      iszero\n      tag_105\n      jumpi\n      invalid\n    tag_105:\n      0xff\n      and\n      dup2\n      mstore\n      0x20\n      add\n      dup4\n      dup2\n      mstore\n      0x20\n      add\n      dup3\n      dup2\n      mstore\n      0x20\n      add\n      swap6\n      pop\n      pop\n      pop\n      pop\n      pop\n      pop\n      mload(0x40)\n      dup1\n      swap2\n      sub\n      swap1\n      return\n        /* \"contracts/Prop.sol\":7465:7579  function totalLoansBy(address borrower) public view returns(uint) {... */\n    tag_21:\n      callvalue\n        /* \"--CODEGEN--\":8:17   */\n      dup1\n        /* \"--CODEGEN--\":5:7   */\n      iszero\n      tag_106\n      jumpi\n        /* \"--CODEGEN--\":30:31   */\n      0x00\n        /* \"--CODEGEN--\":27:28   */\n      dup1\n        /* \"--CODEGEN--\":20:32   */\n      revert\n        /* \"--CODEGEN--\":5:7   */\n    tag_106:\n        /* \"contracts/Prop.sol\":7465:7579  function totalLoansBy(address borrower) public view returns(uint) {... */\n      pop\n      tag_33\n      0x04\n      dup1\n      calldatasize\n      sub\n        /* \"--CODEGEN--\":13:15   */\n      0x20\n        /* \"--CODEGEN--\":8:11   */\n      dup2\n        /* \"--CODEGEN--\":5:16   */\n      lt\n        /* \"--CODEGEN--\":2:4   */\n      iszero\n      tag_108\n      jumpi\n        /* \"--CODEGEN--\":29:30   */\n      0x00\n        /* \"--CODEGEN--\":26:27   */\n      dup1\n        /* \"--CODEGEN--\":19:31   */\n      revert\n        /* \"--CODEGEN--\":2:4   */\n    tag_108:\n      pop\n        /* \"contracts/Prop.sol\":7465:7579  function totalLoansBy(address borrower) public view returns(uint) {... */\n      calldataload\n      sub(shl(0xa0, 0x01), 0x01)\n      and\n      tag_109\n      jump\t// in\n        /* \"contracts/Prop.sol\":795:835  mapping (address=>uint[]) public lendMap */\n    tag_22:\n      callvalue\n        /* \"--CODEGEN--\":8:17   */\n      dup1\n        /* \"--CODEGEN--\":5:7   */\n      iszero\n      tag_110\n      jumpi\n        /* \"--CODEGEN--\":30:31   */\n      0x00\n        /* \"--CODEGEN--\":27:28   */\n      dup1\n        /* \"--CODEGEN--\":20:32   */\n      revert\n        /* \"--CODEGEN--\":5:7   */\n    tag_110:\n        /* \"contracts/Prop.sol\":795:835  mapping (address=>uint[]) public lendMap */\n      pop\n      tag_33\n      0x04\n      dup1\n      calldatasize\n      sub\n        /* \"--CODEGEN--\":13:15   */\n      0x40\n        /* \"--CODEGEN--\":8:11   */\n      dup2\n        /* \"--CODEGEN--\":5:16   */\n      lt\n        /* \"--CODEGEN--\":2:4   */\n      iszero\n      tag_112\n      jumpi\n        /* \"--CODEGEN--\":29:30   */\n      0x00\n        /* \"--CODEGEN--\":26:27   */\n      dup1\n        /* \"--CODEGEN--\":19:31   */\n      revert\n        /* \"--CODEGEN--\":2:4   */\n    tag_112:\n      pop\n      sub(shl(0xa0, 0x01), 0x01)\n        /* \"contracts/Prop.sol\":795:835  mapping (address=>uint[]) public lendMap */\n      dup2\n      calldataload\n      and\n      swap1\n      0x20\n      add\n      calldataload\n      tag_113\n      jump\t// in\n        /* \"contracts/Prop.sol\":1322:1649  function newLoan(uint amount, uint dueDate, bytes32 mortgage) public {... */\n    tag_23:\n      callvalue\n        /* \"--CODEGEN--\":8:17   */\n      dup1\n        /* \"--CODEGEN--\":5:7   */\n      iszero\n      tag_114\n      jumpi\n        /* \"--CODEGEN--\":30:31   */\n      0x00\n        /* \"--CODEGEN--\":27:28   */\n      dup1\n        /* \"--CODEGEN--\":20:32   */\n      revert\n        /* \"--CODEGEN--\":5:7   */\n    tag_114:\n        /* \"contracts/Prop.sol\":1322:1649  function newLoan(uint amount, uint dueDate, bytes32 mortgage) public {... */\n      pop\n      tag_40\n      0x04\n      dup1\n      calldatasize\n      sub\n        /* \"--CODEGEN--\":13:15   */\n      0x60\n        /* \"--CODEGEN--\":8:11   */\n      dup2\n        /* \"--CODEGEN--\":5:16   */\n      lt\n        /* \"--CODEGEN--\":2:4   */\n      iszero\n      tag_116\n      jumpi\n        /* \"--CODEGEN--\":29:30   */\n      0x00\n        /* \"--CODEGEN--\":26:27   */\n      dup1\n        /* \"--CODEGEN--\":19:31   */\n      revert\n        /* \"--CODEGEN--\":2:4   */\n    tag_116:\n      pop\n        /* \"contracts/Prop.sol\":1322:1649  function newLoan(uint amount, uint dueDate, bytes32 mortgage) public {... */\n      dup1\n      calldataload\n      swap1\n      0x20\n      dup2\n      add\n      calldataload\n      swap1\n      0x40\n      add\n      calldataload\n      tag_117\n      jump\t// in\n        /* \"contracts/Prop.sol\":7586:7892  function getLoanDetailsByAddressPosition(address borrower, uint pos) public view returns(LoanState, uint, uint, uint, uint,bytes32) {... */\n    tag_30:\n        /* \"contracts/Prop.sol\":7675:7684  LoanState */\n      0x00\n        /* \"contracts/Prop.sol\":7686:7690  uint */\n      dup1\n        /* \"contracts/Prop.sol\":7692:7696  uint */\n      0x00\n        /* \"contracts/Prop.sol\":7698:7702  uint */\n      dup1\n        /* \"contracts/Prop.sol\":7704:7708  uint */\n      0x00\n        /* \"contracts/Prop.sol\":7709:7716  bytes32 */\n      dup1\n        /* \"contracts/Prop.sol\":7728:7744  Loan storage obj */\n      0x00\n        /* \"contracts/Prop.sol\":7747:7755  loanList */\n      0x01\n        /* \"contracts/Prop.sol\":7756:7763  loanMap */\n      0x03\n        /* \"contracts/Prop.sol\":7756:7773  loanMap[borrower] */\n      0x00\n        /* \"contracts/Prop.sol\":7764:7772  borrower */\n      dup12\n      sub(shl(0xa0, 0x01), 0x01)\n        /* \"contracts/Prop.sol\":7756:7773  loanMap[borrower] */\n      and\n      sub(shl(0xa0, 0x01), 0x01)\n      and\n      dup2\n      mstore\n      0x20\n      add\n      swap1\n      dup2\n      mstore\n      0x20\n      add\n      0x00\n      keccak256\n        /* \"contracts/Prop.sol\":7774:7777  pos */\n      dup10\n        /* \"contracts/Prop.sol\":7756:7778  loanMap[borrower][pos] */\n      dup2\n      sload\n      dup2\n      lt\n      tag_119\n      jumpi\n      invalid\n    tag_119:\n      swap1\n      0x00\n      mstore\n      keccak256(0x00, 0x20)\n      add\n      sload\n        /* \"contracts/Prop.sol\":7747:7779  loanList[loanMap[borrower][pos]] */\n      dup2\n      sload\n      dup2\n      lt\n      tag_121\n      jumpi\n      invalid\n    tag_121:\n      swap1\n      0x00\n      mstore\n      keccak256(0x00, 0x20)\n      swap1\n      0x08\n      mul\n      add\n        /* \"contracts/Prop.sol\":7728:7779  Loan storage obj = loanList[loanMap[borrower][pos]] */\n      swap1\n      pop\n        /* \"contracts/Prop.sol\":7797:7800  obj */\n      dup1\n        /* \"contracts/Prop.sol\":7797:7806  obj.state */\n      0x00\n      add\n      0x14\n      swap1\n      sload\n      swap1\n      0x0100\n      exp\n      swap1\n      div\n      0xff\n      and\n        /* \"contracts/Prop.sol\":7808:7811  obj */\n      dup2\n        /* \"contracts/Prop.sol\":7808:7819  obj.dueDate */\n      0x01\n      add\n      sload\n        /* \"contracts/Prop.sol\":7821:7824  obj */\n      dup3\n        /* \"contracts/Prop.sol\":7821:7831  obj.amount */\n      0x02\n      add\n      sload\n        /* \"contracts/Prop.sol\":7833:7836  obj */\n      dup4\n        /* \"contracts/Prop.sol\":7833:7846  obj.collected */\n      0x04\n      add\n      sload\n        /* \"contracts/Prop.sol\":7848:7855  loanMap */\n      0x03\n        /* \"contracts/Prop.sol\":7848:7865  loanMap[borrower] */\n      0x00\n        /* \"contracts/Prop.sol\":7856:7864  borrower */\n      dup15\n      sub(shl(0xa0, 0x01), 0x01)\n        /* \"contracts/Prop.sol\":7848:7865  loanMap[borrower] */\n      and\n      sub(shl(0xa0, 0x01), 0x01)\n      and\n      dup2\n      mstore\n      0x20\n      add\n      swap1\n      dup2\n      mstore\n      0x20\n      add\n      0x00\n      keccak256\n        /* \"contracts/Prop.sol\":7866:7869  pos */\n      dup13\n        /* \"contracts/Prop.sol\":7848:7870  loanMap[borrower][pos] */\n      dup2\n      sload\n      dup2\n      lt\n      tag_123\n      jumpi\n      invalid\n    tag_123:\n      swap1\n      0x00\n      mstore\n      keccak256(0x00, 0x20)\n      add\n      sload\n        /* \"contracts/Prop.sol\":7872:7875  obj */\n      dup6\n        /* \"contracts/Prop.sol\":7872:7884  obj.mortgage */\n      0x06\n      add\n      sload\n        /* \"contracts/Prop.sol\":7789:7885  return (obj.state, obj.dueDate, obj.amount, obj.collected, loanMap[borrower][pos], obj.mortgage) */\n      swap7\n      pop\n      swap7\n      pop\n      swap7\n      pop\n      swap7\n      pop\n      swap7\n      pop\n      swap7\n      pop\n      pop\n        /* \"contracts/Prop.sol\":7586:7892  function getLoanDetailsByAddressPosition(address borrower, uint pos) public view returns(LoanState, uint, uint, uint, uint,bytes32) {... */\n      swap3\n      swap6\n      pop\n      swap3\n      swap6\n      pop\n      swap3\n      swap6\n      jump\t// out\n        /* \"contracts/Prop.sol\":4464:5309  function getRepayValue(uint loanId) public view returns(uint) {... */\n    tag_35:\n        /* \"contracts/Prop.sol\":4520:4524  uint */\n      0x00\n        /* \"contracts/Prop.sol\":4565:4581  LoanState.LOCKED */\n      0x01\n        /* \"contracts/Prop.sol\":4539:4547  loanList */\n      dup1\n        /* \"contracts/Prop.sol\":4548:4554  loanId */\n      dup4\n        /* \"contracts/Prop.sol\":4539:4555  loanList[loanId] */\n      dup2\n      sload\n      dup2\n      lt\n      tag_127\n      jumpi\n      invalid\n    tag_127:\n      0x00\n      swap2\n      dup3\n      mstore\n      0x20\n      swap1\n      swap2\n      keccak256\n      0x08\n      swap1\n      swap2\n      mul\n      add\n        /* \"contracts/Prop.sol\":4539:4561  loanList[loanId].state */\n      sload\n      shl(0xa0, 0x01)\n      swap1\n      div\n      0xff\n      and\n        /* \"contracts/Prop.sol\":4539:4581  loanList[loanId].state == LoanState.LOCKED */\n      0x03\n      dup2\n      gt\n      iszero\n      tag_129\n      jumpi\n      invalid\n    tag_129:\n      eq\n        /* \"contracts/Prop.sol\":4536:5302  if(loanList[loanId].state == LoanState.LOCKED)... */\n      iszero\n      tag_130\n      jumpi\n        /* \"contracts/Prop.sol\":4603:4612  uint time */\n      0x00\n        /* \"contracts/Prop.sol\":4615:4623  loanList */\n      0x01\n        /* \"contracts/Prop.sol\":4624:4630  loanId */\n      dup4\n        /* \"contracts/Prop.sol\":4615:4631  loanList[loanId] */\n      dup2\n      sload\n      dup2\n      lt\n      tag_131\n      jumpi\n      invalid\n    tag_131:\n      0x00\n      swap2\n      dup3\n      mstore\n      0x20\n      dup3\n      keccak256\n        /* \"contracts/Prop.sol\":4615:4641  loanList[loanId].startDate */\n      0x05\n        /* \"contracts/Prop.sol\":4615:4631  loanList[loanId] */\n      0x08\n      swap1\n      swap3\n      mul\n      add\n        /* \"contracts/Prop.sol\":4615:4641  loanList[loanId].startDate */\n      add\n      sload\n      swap2\n      pop\n        /* \"contracts/Prop.sol\":4615:4631  loanList[loanId] */\n      dup1\n        /* \"contracts/Prop.sol\":4685:5221  for(uint i = 0; i < loanList[loanId].proposalCount; i++)... */\n    tag_133:\n        /* \"contracts/Prop.sol\":4705:4713  loanList */\n      0x01\n        /* \"contracts/Prop.sol\":4714:4720  loanId */\n      dup6\n        /* \"contracts/Prop.sol\":4705:4721  loanList[loanId] */\n      dup2\n      sload\n      dup2\n      lt\n      tag_136\n      jumpi\n      invalid\n    tag_136:\n      swap1\n      0x00\n      mstore\n      keccak256(0x00, 0x20)\n      swap1\n      0x08\n      mul\n      add\n        /* \"contracts/Prop.sol\":4705:4735  loanList[loanId].proposalCount */\n      0x03\n      add\n      sload\n        /* \"contracts/Prop.sol\":4701:4702  i */\n      dup2\n        /* \"contracts/Prop.sol\":4701:4735  i < loanList[loanId].proposalCount */\n      lt\n        /* \"contracts/Prop.sol\":4685:5221  for(uint i = 0; i < loanList[loanId].proposalCount; i++)... */\n      iszero\n      tag_134\n      jumpi\n        /* \"contracts/Prop.sol\":4766:4775  uint numI */\n      0x00\n        /* \"contracts/Prop.sol\":4778:4786  loanList */\n      0x01\n        /* \"contracts/Prop.sol\":4787:4793  loanId */\n      dup7\n        /* \"contracts/Prop.sol\":4778:4794  loanList[loanId] */\n      dup2\n      sload\n      dup2\n      lt\n      tag_138\n      jumpi\n      invalid\n    tag_138:\n      0x00\n      swap2\n      dup3\n      mstore\n      0x20\n      dup1\n      dup4\n      keccak256\n        /* \"contracts/Prop.sol\":4778:4806  loanList[loanId].proposal[i] */\n      dup6\n      dup5\n      mstore\n        /* \"contracts/Prop.sol\":4778:4803  loanList[loanId].proposal */\n      0x07\n        /* \"contracts/Prop.sol\":4778:4794  loanList[loanId] */\n      0x08\n      swap1\n      swap4\n      mul\n      add\n        /* \"contracts/Prop.sol\":4778:4803  loanList[loanId].proposal */\n      swap2\n      swap1\n      swap2\n      add\n        /* \"contracts/Prop.sol\":4778:4806  loanList[loanId].proposal[i] */\n      swap1\n      mstore\n      0x40\n      swap1\n      keccak256\n      sload\n      swap1\n      pop\n        /* \"contracts/Prop.sol\":4851:4873  ProposalState.ACCEPTED */\n      0x01\n        /* \"contracts/Prop.sol\":4823:4835  proposalList */\n      0x02\n        /* \"contracts/Prop.sol\":4836:4840  numI */\n      dup3\n        /* \"contracts/Prop.sol\":4823:4841  proposalList[numI] */\n      dup2\n      sload\n      dup2\n      lt\n      tag_141\n      jumpi\n      invalid\n    tag_141:\n      0x00\n      swap2\n      dup3\n      mstore\n      0x20\n      swap1\n      swap2\n      keccak256\n        /* \"contracts/Prop.sol\":4823:4847  proposalList[numI].state */\n      0x02\n        /* \"contracts/Prop.sol\":4823:4841  proposalList[numI] */\n      0x05\n      swap1\n      swap3\n      mul\n      add\n        /* \"contracts/Prop.sol\":4823:4847  proposalList[numI].state */\n      dup2\n      add\n      sload\n      0xff\n      and\n      swap1\n        /* \"contracts/Prop.sol\":4823:4873  proposalList[numI].state == ProposalState.ACCEPTED */\n      dup2\n      gt\n      iszero\n      tag_143\n      jumpi\n      invalid\n    tag_143:\n      eq\n        /* \"contracts/Prop.sol\":4820:5209  if(proposalList[numI].state == ProposalState.ACCEPTED)... */\n      iszero\n      tag_144\n      jumpi\n        /* \"contracts/Prop.sol\":4903:4916  uint original */\n      0x00\n        /* \"contracts/Prop.sol\":4919:4931  proposalList */\n      0x02\n        /* \"contracts/Prop.sol\":4932:4936  numI */\n      dup3\n        /* \"contracts/Prop.sol\":4919:4937  proposalList[numI] */\n      dup2\n      sload\n      dup2\n      lt\n      tag_145\n      jumpi\n      invalid\n    tag_145:\n      swap1\n      0x00\n      mstore\n      keccak256(0x00, 0x20)\n      swap1\n      0x05\n      mul\n      add\n        /* \"contracts/Prop.sol\":4919:4944  proposalList[numI].amount */\n      0x04\n      add\n      sload\n        /* \"contracts/Prop.sol\":4903:4944  uint original = proposalList[numI].amount */\n      swap1\n      pop\n        /* \"contracts/Prop.sol\":4960:4969  uint rate */\n      0x00\n        /* \"contracts/Prop.sol\":4972:4984  proposalList */\n      0x02\n        /* \"contracts/Prop.sol\":4985:4989  numI */\n      dup4\n        /* \"contracts/Prop.sol\":4972:4990  proposalList[numI] */\n      dup2\n      sload\n      dup2\n      lt\n      tag_147\n      jumpi\n      invalid\n    tag_147:\n      0x00\n      swap2\n      dup3\n      mstore\n      0x20\n      swap1\n      swap2\n      keccak256\n        /* \"contracts/Prop.sol\":4972:4995  proposalList[numI].rate */\n      0x03\n        /* \"contracts/Prop.sol\":4972:4990  proposalList[numI] */\n      0x05\n      swap1\n      swap3\n      mul\n      add\n        /* \"contracts/Prop.sol\":4972:4995  proposalList[numI].rate */\n      add\n      sload\n        /* \"contracts/Prop.sol\":5099:5115  365*24*60*60*100 */\n      0xbbf81e00\n        /* \"contracts/Prop.sol\":5070:5083  original*rate */\n      swap1\n      dup4\n      mul\n        /* \"contracts/Prop.sol\":5022:5037  block.timestamp */\n      timestamp\n        /* \"contracts/Prop.sol\":5085:5095  now - time */\n      dup9\n      swap1\n      sub\n        /* \"contracts/Prop.sol\":5070:5096  original*rate*(now - time) */\n      mul\n        /* \"contracts/Prop.sol\":5069:5116  (original*rate*(now - time))/(365*24*60*60*100) */\n      div\n        /* \"contracts/Prop.sol\":5132:5155  finalamount += interest */\n      swap5\n      swap1\n      swap5\n      add\n        /* \"contracts/Prop.sol\":5171:5194  finalamount += original */\n      add\n      swap3\n      pop\n        /* \"contracts/Prop.sol\":4820:5209  if(proposalList[numI].state == ProposalState.ACCEPTED)... */\n    tag_144:\n      pop\n        /* \"contracts/Prop.sol\":4737:4740  i++ */\n      0x01\n      add\n        /* \"contracts/Prop.sol\":4685:5221  for(uint i = 0; i < loanList[loanId].proposalCount; i++)... */\n      jump(tag_133)\n    tag_134:\n      pop\n        /* \"contracts/Prop.sol\":5239:5250  finalamount */\n      swap2\n      pop\n        /* \"contracts/Prop.sol\":5232:5250  return finalamount */\n      tag_150\n      swap1\n      pop\n      jump\n        /* \"contracts/Prop.sol\":4536:5302  if(loanList[loanId].state == LoanState.LOCKED)... */\n    tag_130:\n      pop\n        /* \"contracts/Prop.sol\":5293:5301  2**64 -1 */\n      0xffffffffffffffff\n        /* \"contracts/Prop.sol\":4536:5302  if(loanList[loanId].state == LoanState.LOCKED)... */\n    tag_150:\n        /* \"contracts/Prop.sol\":4464:5309  function getRepayValue(uint loanId) public view returns(uint) {... */\n      swap2\n      swap1\n      pop\n      jump\t// out\n        /* \"contracts/Prop.sol\":749:789  mapping (address=>uint[]) public loanMap */\n    tag_39:\n      mstore(0x20, 0x03)\n      dup2\n      0x00\n      mstore\n      keccak256(0x00, 0x40)\n      dup2\n      dup2\n      sload\n      dup2\n      lt\n      tag_151\n      jumpi\n      invalid\n    tag_151:\n      swap1\n      0x00\n      mstore\n      keccak256(0x00, 0x20)\n      add\n      0x00\n      swap2\n      pop\n      swap2\n      pop\n      pop\n      sload\n      dup2\n      jump\t// out\n        /* \"contracts/Prop.sol\":1656:2133  function newProposal(uint loanId, uint rate) public payable {... */\n    tag_42:\n        /* \"contracts/Prop.sol\":1766:1767  0 */\n      0x00\n      sub(shl(0xa0, 0x01), 0x01)\n        /* \"contracts/Prop.sol\":1729:1768  loanList[loanId].borrower == address(0) */\n      and\n        /* \"contracts/Prop.sol\":1729:1737  loanList */\n      0x01\n        /* \"contracts/Prop.sol\":1738:1744  loanId */\n      dup4\n        /* \"contracts/Prop.sol\":1729:1745  loanList[loanId] */\n      dup2\n      sload\n      dup2\n      lt\n      tag_154\n      jumpi\n      invalid\n    tag_154:\n      0x00\n      swap2\n      dup3\n      mstore\n      0x20\n      swap1\n      swap2\n      keccak256\n      0x08\n      swap1\n      swap2\n      mul\n      add\n        /* \"contracts/Prop.sol\":1729:1754  loanList[loanId].borrower */\n      sload\n      sub(shl(0xa0, 0x01), 0x01)\n      and\n        /* \"contracts/Prop.sol\":1729:1768  loanList[loanId].borrower == address(0) */\n      eq\n      dup1\n        /* \"contracts/Prop.sol\":1729:1817  loanList[loanId].borrower == address(0) || loanList[loanId].state != LoanState.ACCEPTING */\n      tag_156\n      jumpi\n      pop\n        /* \"contracts/Prop.sol\":1798:1817  LoanState.ACCEPTING */\n      0x00\n        /* \"contracts/Prop.sol\":1772:1780  loanList */\n      0x01\n        /* \"contracts/Prop.sol\":1781:1787  loanId */\n      dup4\n        /* \"contracts/Prop.sol\":1772:1788  loanList[loanId] */\n      dup2\n      sload\n      dup2\n      lt\n      tag_158\n      jumpi\n      invalid\n    tag_158:\n      0x00\n      swap2\n      dup3\n      mstore\n      0x20\n      swap1\n      swap2\n      keccak256\n      0x08\n      swap1\n      swap2\n      mul\n      add\n        /* \"contracts/Prop.sol\":1772:1794  loanList[loanId].state */\n      sload\n      shl(0xa0, 0x01)\n      swap1\n      div\n      0xff\n      and\n        /* \"contracts/Prop.sol\":1772:1817  loanList[loanId].state != LoanState.ACCEPTING */\n      0x03\n      dup2\n      gt\n      iszero\n      tag_160\n      jumpi\n      invalid\n    tag_160:\n      eq\n      iszero\n        /* \"contracts/Prop.sol\":1729:1817  loanList[loanId].borrower == address(0) || loanList[loanId].state != LoanState.ACCEPTING */\n    tag_156:\n        /* \"contracts/Prop.sol\":1726:1838  if(loanList[loanId].borrower == address(0) || loanList[loanId].state != LoanState.ACCEPTING)... */\n      iszero\n      tag_161\n      jumpi\n        /* \"contracts/Prop.sol\":1831:1838  return; */\n      jump(tag_153)\n        /* \"contracts/Prop.sol\":1726:1838  if(loanList[loanId].borrower == address(0) || loanList[loanId].state != LoanState.ACCEPTING)... */\n    tag_161:\n        /* \"contracts/Prop.sol\":1865:1933  Proposal(msg.sender, loanId, ProposalState.WAITING, rate, msg.value) */\n      0x40\n      dup1\n      mload\n      0xa0\n      dup2\n      add\n      dup3\n      mstore\n        /* \"contracts/Prop.sol\":1874:1884  msg.sender */\n      caller\n        /* \"contracts/Prop.sol\":1865:1933  Proposal(msg.sender, loanId, ProposalState.WAITING, rate, msg.value) */\n      dup2\n      mstore\n      0x20\n      dup2\n      add\n      dup5\n      dup2\n      mstore\n      0x00\n      swap3\n      dup3\n      add\n      dup4\n      dup2\n      mstore\n      0x60\n      dup4\n      add\n      dup6\n      swap1\n      mstore\n        /* \"contracts/Prop.sol\":1923:1932  msg.value */\n      callvalue\n        /* \"contracts/Prop.sol\":1865:1933  Proposal(msg.sender, loanId, ProposalState.WAITING, rate, msg.value) */\n      0x80\n      dup5\n      add\n      mstore\n        /* \"contracts/Prop.sol\":1847:1859  proposalList */\n      0x02\n        /* \"--CODEGEN--\":27:37   */\n      dup1\n      sload\n        /* \"--CODEGEN--\":39:40   */\n      0x01\n        /* \"--CODEGEN--\":23:41   */\n      dup1\n      dup3\n      add\n        /* \"--CODEGEN--\":45:68   */\n      dup1\n      dup5\n      sstore\n        /* \"contracts/Prop.sol\":1847:1934  proposalList.push(Proposal(msg.sender, loanId, ProposalState.WAITING, rate, msg.value)) */\n      swap7\n      dup4\n      swap1\n      mstore\n      dup6\n      mload\n      0x405787fa12a823e0f2b7631cc41b3ba8828b3321ca811111fa75cd3aa3bb5ace\n      0x05\n      swap1\n      swap4\n      mul\n      swap3\n      dup4\n      add\n      dup1\n      sload\n      not(sub(shl(0xa0, 0x01), 0x01))\n      and\n      sub(shl(0xa0, 0x01), 0x01)\n      swap1\n      swap3\n      and\n      swap2\n      swap1\n      swap2\n      or\n      dup2\n      sstore\n      swap5\n      mload\n      0x405787fa12a823e0f2b7631cc41b3ba8828b3321ca811111fa75cd3aa3bb5acf\n      dup4\n      add\n      sstore\n      swap3\n      mload\n      0x405787fa12a823e0f2b7631cc41b3ba8828b3321ca811111fa75cd3aa3bb5ad0\n      swap1\n      swap2\n      add\n      dup1\n      sload\n      swap2\n      swap4\n      swap1\n      swap3\n      not(0xff)\n      swap1\n      swap3\n      and\n      swap2\n      dup5\n      swap1\n      dup2\n      gt\n      iszero\n      tag_164\n      jumpi\n      invalid\n    tag_164:\n      mul\n      or\n      swap1\n      sstore\n      pop\n      0x60\n      dup3\n      add\n      mload\n      0x03\n      dup3\n      add\n      sstore\n      0x80\n      swap1\n      swap2\n      add\n      mload\n      0x04\n      swap2\n      dup3\n      add\n      sstore\n        /* \"contracts/Prop.sol\":1952:1962  msg.sender */\n      caller\n      0x00\n        /* \"contracts/Prop.sol\":1944:1963  lendMap[msg.sender] */\n      swap1\n      dup2\n      mstore\n      0x20\n      swap2\n      dup3\n      mstore\n      0x40\n      dup2\n      keccak256\n        /* \"contracts/Prop.sol\":1969:1981  proposalList */\n      0x02\n        /* \"contracts/Prop.sol\":1969:1988  proposalList.length */\n      sload\n        /* \"--CODEGEN--\":27:37   */\n      dup2\n      sload\n        /* \"contracts/Prop.sol\":1989:1990  1 */\n      0x01\n        /* \"--CODEGEN--\":23:41   */\n      dup2\n      dup2\n      add\n        /* \"--CODEGEN--\":45:68   */\n      dup5\n      sstore\n        /* \"contracts/Prop.sol\":1944:1991  lendMap[msg.sender].push(proposalList.length-1) */\n      swap3\n      dup5\n      mstore\n      swap4\n      swap1\n      swap3\n      keccak256\n      not(0x00)\n        /* \"contracts/Prop.sol\":1969:1990  proposalList.length-1 */\n      swap3\n      swap1\n      swap3\n      add\n        /* \"contracts/Prop.sol\":1944:1991  lendMap[msg.sender].push(proposalList.length-1) */\n      swap2\n      swap1\n      swap3\n      add\n      sstore\n        /* \"contracts/Prop.sol\":2001:2017  loanList[loanId] */\n      dup1\n      sload\n        /* \"contracts/Prop.sol\":1989:1990  1 */\n      swap1\n      swap2\n      pop\n        /* \"contracts/Prop.sol\":2010:2016  loanId */\n      dup4\n      swap1\n        /* \"contracts/Prop.sol\":2001:2017  loanList[loanId] */\n      dup2\n      lt\n      tag_166\n      jumpi\n      invalid\n    tag_166:\n      0x00\n      swap2\n      dup3\n      mstore\n      0x20\n      swap1\n      swap2\n      keccak256\n        /* \"contracts/Prop.sol\":2001:2031  loanList[loanId].proposalCount */\n      0x03\n        /* \"contracts/Prop.sol\":2001:2017  loanList[loanId] */\n      0x08\n      swap1\n      swap3\n      mul\n      add\n        /* \"contracts/Prop.sol\":2001:2031  loanList[loanId].proposalCount */\n      add\n        /* \"contracts/Prop.sol\":2001:2033  loanList[loanId].proposalCount++ */\n      dup1\n      sload\n      0x01\n      swap1\n      dup2\n      add\n      swap1\n      swap2\n      sstore\n        /* \"contracts/Prop.sol\":2105:2117  proposalList */\n      0x02\n        /* \"contracts/Prop.sol\":2105:2124  proposalList.length */\n      sload\n        /* \"contracts/Prop.sol\":2043:2059  loanList[loanId] */\n      dup2\n      sload\n      not(0x00)\n        /* \"contracts/Prop.sol\":2105:2126  proposalList.length-1 */\n      swap1\n      swap2\n      add\n      swap2\n        /* \"contracts/Prop.sol\":2001:2033  loanList[loanId].proposalCount++ */\n      swap1\n        /* \"contracts/Prop.sol\":2052:2058  loanId */\n      dup5\n      swap1\n        /* \"contracts/Prop.sol\":2043:2059  loanList[loanId] */\n      dup2\n      lt\n      tag_168\n      jumpi\n      invalid\n    tag_168:\n      swap1\n      0x00\n      mstore\n      keccak256(0x00, 0x20)\n      swap1\n      0x08\n      mul\n      add\n        /* \"contracts/Prop.sol\":2043:2068  loanList[loanId].proposal */\n      0x07\n      add\n        /* \"contracts/Prop.sol\":2043:2102  loanList[loanId].proposal[loanList[loanId].proposalCount-1] */\n      0x00\n        /* \"contracts/Prop.sol\":2100:2101  1 */\n      0x01\n        /* \"contracts/Prop.sol\":2069:2077  loanList */\n      dup1\n        /* \"contracts/Prop.sol\":2078:2084  loanId */\n      dup7\n        /* \"contracts/Prop.sol\":2069:2085  loanList[loanId] */\n      dup2\n      sload\n      dup2\n      lt\n      tag_170\n      jumpi\n      invalid\n    tag_170:\n      swap1\n      0x00\n      mstore\n      keccak256(0x00, 0x20)\n      swap1\n      0x08\n      mul\n      add\n        /* \"contracts/Prop.sol\":2069:2099  loanList[loanId].proposalCount */\n      0x03\n      add\n      sload\n        /* \"contracts/Prop.sol\":2069:2101  loanList[loanId].proposalCount-1 */\n      sub\n        /* \"contracts/Prop.sol\":2043:2102  loanList[loanId].proposal[loanList[loanId].proposalCount-1] */\n      dup2\n      mstore\n      0x20\n      add\n      swap1\n      dup2\n      mstore\n      0x20\n      add\n      0x00\n      keccak256\n        /* \"contracts/Prop.sol\":2043:2126  loanList[loanId].proposal[loanList[loanId].proposalCount-1] = proposalList.length-1 */\n      dup2\n      swap1\n      sstore\n      pop\n        /* \"contracts/Prop.sol\":1656:2133  function newProposal(uint loanId, uint rate) public payable {... */\n    tag_153:\n      pop\n      pop\n      jump\t// out\n        /* \"contracts/Prop.sol\":904:1315  function hasActiveLoan(address borrower) public view returns(bool) {... */\n    tag_46:\n      sub(shl(0xa0, 0x01), 0x01)\n        /* \"contracts/Prop.sol\":999:1016  loanMap[borrower] */\n      dup2\n      and\n        /* \"contracts/Prop.sol\":965:969  bool */\n      0x00\n        /* \"contracts/Prop.sol\":999:1016  loanMap[borrower] */\n      swap1\n      dup2\n      mstore\n        /* \"contracts/Prop.sol\":999:1006  loanMap */\n      0x03\n        /* \"contracts/Prop.sol\":999:1016  loanMap[borrower] */\n      0x20\n      mstore\n      0x40\n      dup2\n      keccak256\n        /* \"contracts/Prop.sol\":999:1023  loanMap[borrower].length */\n      sload\n        /* \"contracts/Prop.sol\":1036:1051  validLoans == 0 */\n      dup1\n        /* \"contracts/Prop.sol\":1033:1065  if(validLoans == 0) return false */\n      tag_173\n      jumpi\n        /* \"contracts/Prop.sol\":1060:1065  false */\n      0x00\n        /* \"contracts/Prop.sol\":1053:1065  return false */\n      swap2\n      pop\n      pop\n      jump(tag_150)\n        /* \"contracts/Prop.sol\":1033:1065  if(validLoans == 0) return false */\n    tag_173:\n      sub(shl(0xa0, 0x01), 0x01)\n        /* \"contracts/Prop.sol\":1103:1120  loanMap[borrower] */\n      dup4\n      and\n        /* \"contracts/Prop.sol\":1075:1091  Loan storage obj */\n      0x00\n        /* \"contracts/Prop.sol\":1103:1120  loanMap[borrower] */\n      swap1\n      dup2\n      mstore\n        /* \"contracts/Prop.sol\":1103:1110  loanMap */\n      0x03\n        /* \"contracts/Prop.sol\":1103:1120  loanMap[borrower] */\n      0x20\n      mstore\n      0x40\n      dup2\n      keccak256\n        /* \"contracts/Prop.sol\":1103:1134  loanMap[borrower][validLoans-1] */\n      dup1\n      sload\n        /* \"contracts/Prop.sol\":1094:1102  loanList */\n      0x01\n      swap2\n        /* \"contracts/Prop.sol\":1103:1120  loanMap[borrower] */\n      swap1\n      not(0x00)\n        /* \"contracts/Prop.sol\":1121:1133  validLoans-1 */\n      dup6\n      add\n      swap1\n        /* \"contracts/Prop.sol\":1103:1134  loanMap[borrower][validLoans-1] */\n      dup2\n      lt\n      tag_174\n      jumpi\n      invalid\n    tag_174:\n      swap1\n      0x00\n      mstore\n      keccak256(0x00, 0x20)\n      add\n      sload\n        /* \"contracts/Prop.sol\":1094:1135  loanList[loanMap[borrower][validLoans-1]] */\n      dup2\n      sload\n      dup2\n      lt\n      tag_176\n      jumpi\n      invalid\n    tag_176:\n      0x00\n      swap2\n      dup3\n      mstore\n      0x20\n      dup3\n      keccak256\n      0x08\n      swap1\n      swap2\n      mul\n      add\n      swap2\n      pop\n        /* \"contracts/Prop.sol\":1148:1156  loanList */\n      0x01\n        /* \"contracts/Prop.sol\":1168:1169  1 */\n      dup1\n        /* \"contracts/Prop.sol\":1157:1167  validLoans */\n      dup5\n        /* \"contracts/Prop.sol\":1157:1169  validLoans-1 */\n      sub\n        /* \"contracts/Prop.sol\":1148:1170  loanList[validLoans-1] */\n      dup2\n      sload\n      dup2\n      lt\n      tag_179\n      jumpi\n      invalid\n    tag_179:\n      0x00\n      swap2\n      dup3\n      mstore\n      0x20\n      swap1\n      swap2\n      keccak256\n      0x08\n      swap1\n      swap2\n      mul\n      add\n        /* \"contracts/Prop.sol\":1148:1176  loanList[validLoans-1].state */\n      sload\n      shl(0xa0, 0x01)\n      swap1\n      div\n      0xff\n      and\n        /* \"contracts/Prop.sol\":1148:1199  loanList[validLoans-1].state == LoanState.ACCEPTING */\n      0x03\n      dup2\n      gt\n      iszero\n      tag_181\n      jumpi\n      invalid\n    tag_181:\n      eq\n        /* \"contracts/Prop.sol\":1145:1212  if(loanList[validLoans-1].state == LoanState.ACCEPTING) return true */\n      iszero\n      tag_182\n      jumpi\n        /* \"contracts/Prop.sol\":1208:1212  true */\n      0x01\n        /* \"contracts/Prop.sol\":1201:1212  return true */\n      swap3\n      pop\n      pop\n      pop\n      jump(tag_150)\n        /* \"contracts/Prop.sol\":1145:1212  if(loanList[validLoans-1].state == LoanState.ACCEPTING) return true */\n    tag_182:\n        /* \"contracts/Prop.sol\":1257:1273  LoanState.LOCKED */\n      0x01\n        /* \"contracts/Prop.sol\":1225:1233  loanList */\n      dup1\n        /* \"contracts/Prop.sol\":1245:1246  1 */\n      dup1\n        /* \"contracts/Prop.sol\":1234:1244  validLoans */\n      dup5\n        /* \"contracts/Prop.sol\":1234:1246  validLoans-1 */\n      sub\n        /* \"contracts/Prop.sol\":1225:1247  loanList[validLoans-1] */\n      dup2\n      sload\n      dup2\n      lt\n      tag_184\n      jumpi\n      invalid\n    tag_184:\n      0x00\n      swap2\n      dup3\n      mstore\n      0x20\n      swap1\n      swap2\n      keccak256\n      0x08\n      swap1\n      swap2\n      mul\n      add\n        /* \"contracts/Prop.sol\":1225:1253  loanList[validLoans-1].state */\n      sload\n      shl(0xa0, 0x01)\n      swap1\n      div\n      0xff\n      and\n        /* \"contracts/Prop.sol\":1225:1273  loanList[validLoans-1].state == LoanState.LOCKED */\n      0x03\n      dup2\n      gt\n      iszero\n      tag_186\n      jumpi\n      invalid\n    tag_186:\n      eq\n        /* \"contracts/Prop.sol\":1222:1286  if(loanList[validLoans-1].state == LoanState.LOCKED) return true */\n      iszero\n      tag_187\n      jumpi\n        /* \"contracts/Prop.sol\":1282:1286  true */\n      0x01\n        /* \"contracts/Prop.sol\":1275:1286  return true */\n      swap3\n      pop\n      pop\n      pop\n      jump(tag_150)\n        /* \"contracts/Prop.sol\":1222:1286  if(loanList[validLoans-1].state == LoanState.LOCKED) return true */\n    tag_187:\n      pop\n        /* \"contracts/Prop.sol\":1303:1308  false */\n      0x00\n      swap4\n        /* \"contracts/Prop.sol\":904:1315  function hasActiveLoan(address borrower) public view returns(bool) {... */\n      swap3\n      pop\n      pop\n      pop\n      jump\t// out\n        /* \"contracts/Prop.sol\":7038:7423  function getProposalAtPosFor(address lender, uint pos) public view returns(address, uint, ProposalState, uint, uint, uint, uint, bytes32) {... */\n    tag_50:\n        /* \"contracts/Prop.sol\":7113:7120  address */\n      0x00\n        /* \"contracts/Prop.sol\":7122:7126  uint */\n      dup1\n        /* \"contracts/Prop.sol\":7128:7141  ProposalState */\n      0x00\n        /* \"contracts/Prop.sol\":7143:7147  uint */\n      dup1\n        /* \"contracts/Prop.sol\":7149:7153  uint */\n      0x00\n        /* \"contracts/Prop.sol\":7155:7159  uint */\n      dup1\n        /* \"contracts/Prop.sol\":7161:7165  uint */\n      0x00\n        /* \"contracts/Prop.sol\":7167:7174  bytes32 */\n      dup1\n        /* \"contracts/Prop.sol\":7186:7207  Proposal storage prop */\n      0x00\n        /* \"contracts/Prop.sol\":7210:7222  proposalList */\n      0x02\n        /* \"contracts/Prop.sol\":7223:7230  lendMap */\n      0x04\n        /* \"contracts/Prop.sol\":7223:7238  lendMap[lender] */\n      0x00\n        /* \"contracts/Prop.sol\":7231:7237  lender */\n      dup14\n      sub(shl(0xa0, 0x01), 0x01)\n        /* \"contracts/Prop.sol\":7223:7238  lendMap[lender] */\n      and\n      sub(shl(0xa0, 0x01), 0x01)\n      and\n      dup2\n      mstore\n      0x20\n      add\n      swap1\n      dup2\n      mstore\n      0x20\n      add\n      0x00\n      keccak256\n        /* \"contracts/Prop.sol\":7239:7242  pos */\n      dup12\n        /* \"contracts/Prop.sol\":7223:7243  lendMap[lender][pos] */\n      dup2\n      sload\n      dup2\n      lt\n      tag_189\n      jumpi\n      invalid\n    tag_189:\n      swap1\n      0x00\n      mstore\n      keccak256(0x00, 0x20)\n      add\n      sload\n        /* \"contracts/Prop.sol\":7210:7244  proposalList[lendMap[lender][pos]] */\n      dup2\n      sload\n      dup2\n      lt\n      tag_191\n      jumpi\n      invalid\n    tag_191:\n      0x00\n      swap2\n      dup3\n      mstore\n      0x20\n      swap1\n      swap2\n      keccak256\n      0x05\n      swap1\n      swap2\n      mul\n      add\n        /* \"contracts/Prop.sol\":7262:7273  prop.lender */\n      dup1\n      sload\n      0x01\n        /* \"contracts/Prop.sol\":7275:7286  prop.loanId */\n      dup1\n      dup4\n      add\n      sload\n        /* \"contracts/Prop.sol\":7288:7298  prop.state */\n      0x02\n      dup5\n      add\n      sload\n        /* \"contracts/Prop.sol\":7300:7309  prop.rate */\n      0x03\n      dup6\n      add\n      sload\n        /* \"contracts/Prop.sol\":7311:7322  prop.amount */\n      0x04\n      dup7\n      add\n      sload\n        /* \"contracts/Prop.sol\":7324:7345  loanList[prop.loanId] */\n      dup5\n      sload\n        /* \"contracts/Prop.sol\":7210:7244  proposalList[lendMap[lender][pos]] */\n      swap7\n      swap8\n      pop\n      sub(shl(0xa0, 0x01), 0x01)\n        /* \"contracts/Prop.sol\":7262:7273  prop.lender */\n      swap1\n      swap6\n      and\n      swap6\n        /* \"contracts/Prop.sol\":7275:7286  prop.loanId */\n      swap3\n      swap5\n        /* \"contracts/Prop.sol\":7288:7298  prop.state */\n      0xff\n      swap1\n      swap3\n      and\n      swap4\n        /* \"contracts/Prop.sol\":7300:7309  prop.rate */\n      swap1\n      swap3\n        /* \"contracts/Prop.sol\":7275:7286  prop.loanId */\n      dup6\n      swap1\n        /* \"contracts/Prop.sol\":7324:7345  loanList[prop.loanId] */\n      dup2\n      lt\n      tag_193\n      jumpi\n      invalid\n    tag_193:\n      swap1\n      0x00\n      mstore\n      keccak256(0x00, 0x20)\n      swap1\n      0x08\n      mul\n      add\n        /* \"contracts/Prop.sol\":7324:7352  loanList[prop.loanId].amount */\n      0x02\n      add\n      sload\n        /* \"contracts/Prop.sol\":7354:7362  loanList */\n      0x01\n        /* \"contracts/Prop.sol\":7363:7367  prop */\n      dup8\n        /* \"contracts/Prop.sol\":7363:7374  prop.loanId */\n      0x01\n      add\n      sload\n        /* \"contracts/Prop.sol\":7354:7375  loanList[prop.loanId] */\n      dup2\n      sload\n      dup2\n      lt\n      tag_195\n      jumpi\n      invalid\n    tag_195:\n      swap1\n      0x00\n      mstore\n      keccak256(0x00, 0x20)\n      swap1\n      0x08\n      mul\n      add\n        /* \"contracts/Prop.sol\":7354:7383  loanList[prop.loanId].dueDate */\n      0x01\n      add\n      sload\n        /* \"contracts/Prop.sol\":7385:7393  loanList */\n      0x01\n        /* \"contracts/Prop.sol\":7394:7398  prop */\n      dup9\n        /* \"contracts/Prop.sol\":7394:7405  prop.loanId */\n      0x01\n      add\n      sload\n        /* \"contracts/Prop.sol\":7385:7406  loanList[prop.loanId] */\n      dup2\n      sload\n      dup2\n      lt\n      tag_197\n      jumpi\n      invalid\n    tag_197:\n      swap1\n      0x00\n      mstore\n      keccak256(0x00, 0x20)\n      swap1\n      0x08\n      mul\n      add\n        /* \"contracts/Prop.sol\":7385:7415  loanList[prop.loanId].mortgage */\n      0x06\n      add\n      sload\n        /* \"contracts/Prop.sol\":7254:7416  return (prop.lender, prop.loanId, prop.state, prop.rate, prop.amount, loanList[prop.loanId].amount, loanList[prop.loanId].dueDate, loanList[prop.loanId].mortgage) */\n      dup8\n      swap8\n      pop\n      swap9\n      pop\n      swap9\n      pop\n      swap9\n      pop\n      swap9\n      pop\n      swap9\n      pop\n      swap9\n      pop\n      swap9\n      pop\n      swap9\n      pop\n      pop\n        /* \"contracts/Prop.sol\":7038:7423  function getProposalAtPosFor(address lender, uint pos) public view returns(address, uint, ProposalState, uint, uint, uint, uint, bytes32) {... */\n      swap3\n      swap6\n      swap9\n      pop\n      swap3\n      swap6\n      swap9\n      swap1\n      swap4\n      swap7\n      pop\n      jump\t// out\n        /* \"contracts/Prop.sol\":6348:6910  function acceptProposal(uint proposeId) public... */\n    tag_55:\n        /* \"contracts/Prop.sol\":6409:6420  uint loanId */\n      0x00\n        /* \"contracts/Prop.sol\":6423:6450  getActiveLoanId(msg.sender) */\n      tag_200\n        /* \"contracts/Prop.sol\":6439:6449  msg.sender */\n      caller\n        /* \"contracts/Prop.sol\":6423:6438  getActiveLoanId */\n      tag_80\n        /* \"contracts/Prop.sol\":6423:6450  getActiveLoanId(msg.sender) */\n      jump\t// in\n    tag_200:\n        /* \"contracts/Prop.sol\":6409:6450  uint loanId = getActiveLoanId(msg.sender) */\n      swap1\n      pop\n        /* \"contracts/Prop.sol\":6464:6470  loanId */\n      dup1\n        /* \"contracts/Prop.sol\":6475:6484  2**64 - 1 */\n      0xffffffffffffffff\n        /* \"contracts/Prop.sol\":6464:6485  loanId == (2**64 - 1) */\n      eq\n        /* \"contracts/Prop.sol\":6461:6494  if(loanId == (2**64 - 1)) return; */\n      iszero\n      tag_201\n      jumpi\n        /* \"contracts/Prop.sol\":6487:6494  return; */\n      pop\n      jump(tag_199)\n        /* \"contracts/Prop.sol\":6461:6494  if(loanId == (2**64 - 1)) return; */\n    tag_201:\n        /* \"contracts/Prop.sol\":6503:6524  Proposal storage pObj */\n      0x00\n        /* \"contracts/Prop.sol\":6527:6539  proposalList */\n      0x02\n        /* \"contracts/Prop.sol\":6540:6549  proposeId */\n      dup4\n        /* \"contracts/Prop.sol\":6527:6550  proposalList[proposeId] */\n      dup2\n      sload\n      dup2\n      lt\n      tag_202\n      jumpi\n      invalid\n    tag_202:\n      0x00\n      swap2\n      dup3\n      mstore\n      0x20\n      dup3\n      keccak256\n      0x05\n      swap1\n      swap2\n      mul\n      add\n      swap2\n      pop\n        /* \"contracts/Prop.sol\":6563:6573  pObj.state */\n      0x02\n      dup1\n      dup4\n      add\n      sload\n      0xff\n      and\n      swap1\n        /* \"contracts/Prop.sol\":6563:6598  pObj.state != ProposalState.WAITING */\n      dup2\n      gt\n      iszero\n      tag_205\n      jumpi\n      invalid\n    tag_205:\n      eq\n        /* \"contracts/Prop.sol\":6560:6607  if(pObj.state != ProposalState.WAITING) return; */\n      tag_206\n      jumpi\n        /* \"contracts/Prop.sol\":6600:6607  return; */\n      pop\n      pop\n      jump(tag_199)\n        /* \"contracts/Prop.sol\":6560:6607  if(pObj.state != ProposalState.WAITING) return; */\n    tag_206:\n        /* \"contracts/Prop.sol\":6617:6634  Loan storage lObj */\n      0x00\n        /* \"contracts/Prop.sol\":6637:6645  loanList */\n      0x01\n        /* \"contracts/Prop.sol\":6646:6652  loanId */\n      dup4\n        /* \"contracts/Prop.sol\":6637:6653  loanList[loanId] */\n      dup2\n      sload\n      dup2\n      lt\n      tag_207\n      jumpi\n      invalid\n    tag_207:\n      0x00\n      swap2\n      dup3\n      mstore\n      0x20\n      dup3\n      keccak256\n      0x08\n      swap1\n      swap2\n      mul\n      add\n      swap2\n      pop\n        /* \"contracts/Prop.sol\":6666:6676  lObj.state */\n      dup2\n      sload\n      shl(0xa0, 0x01)\n      swap1\n      div\n      0xff\n      and\n        /* \"contracts/Prop.sol\":6666:6699  lObj.state != LoanState.ACCEPTING */\n      0x03\n      dup2\n      gt\n      iszero\n      tag_210\n      jumpi\n      invalid\n    tag_210:\n      eq\n        /* \"contracts/Prop.sol\":6663:6708  if(lObj.state != LoanState.ACCEPTING) return; */\n      tag_211\n      jumpi\n        /* \"contracts/Prop.sol\":6701:6708  return; */\n      pop\n      pop\n      pop\n      jump(tag_199)\n        /* \"contracts/Prop.sol\":6663:6708  if(lObj.state != LoanState.ACCEPTING) return; */\n    tag_211:\n        /* \"contracts/Prop.sol\":6753:6757  lObj */\n      dup1\n        /* \"contracts/Prop.sol\":6753:6764  lObj.amount */\n      0x02\n      add\n      sload\n        /* \"contracts/Prop.sol\":6738:6742  pObj */\n      dup3\n        /* \"contracts/Prop.sol\":6738:6749  pObj.amount */\n      0x04\n      add\n      sload\n        /* \"contracts/Prop.sol\":6721:6725  lObj */\n      dup3\n        /* \"contracts/Prop.sol\":6721:6735  lObj.collected */\n      0x04\n      add\n      sload\n        /* \"contracts/Prop.sol\":6721:6749  lObj.collected + pObj.amount */\n      add\n        /* \"contracts/Prop.sol\":6721:6764  lObj.collected + pObj.amount <= lObj.amount */\n      gt\n        /* \"contracts/Prop.sol\":6718:6904  if(lObj.collected + pObj.amount <= lObj.amount)... */\n      tag_212\n      jumpi\n        /* \"contracts/Prop.sol\":6816:6820  pObj */\n      dup2\n        /* \"contracts/Prop.sol\":6816:6827  pObj.amount */\n      0x04\n      add\n      sload\n        /* \"contracts/Prop.sol\":6786:6794  loanList */\n      0x01\n        /* \"contracts/Prop.sol\":6795:6801  loanId */\n      dup5\n        /* \"contracts/Prop.sol\":6786:6802  loanList[loanId] */\n      dup2\n      sload\n      dup2\n      lt\n      tag_213\n      jumpi\n      invalid\n    tag_213:\n      swap1\n      0x00\n      mstore\n      keccak256(0x00, 0x20)\n      swap1\n      0x08\n      mul\n      add\n        /* \"contracts/Prop.sol\":6786:6812  loanList[loanId].collected */\n      0x04\n      add\n      0x00\n        /* \"contracts/Prop.sol\":6786:6827  loanList[loanId].collected += pObj.amount */\n      dup3\n      dup3\n      sload\n      add\n      swap3\n      pop\n      pop\n      dup2\n      swap1\n      sstore\n      pop\n        /* \"contracts/Prop.sol\":6871:6893  ProposalState.ACCEPTED */\n      0x01\n        /* \"contracts/Prop.sol\":6839:6851  proposalList */\n      0x02\n        /* \"contracts/Prop.sol\":6852:6861  proposeId */\n      dup6\n        /* \"contracts/Prop.sol\":6839:6862  proposalList[proposeId] */\n      dup2\n      sload\n      dup2\n      lt\n      tag_215\n      jumpi\n      invalid\n    tag_215:\n      swap1\n      0x00\n      mstore\n      keccak256(0x00, 0x20)\n      swap1\n      0x05\n      mul\n      add\n        /* \"contracts/Prop.sol\":6839:6868  proposalList[proposeId].state */\n      0x02\n      add\n      0x00\n        /* \"contracts/Prop.sol\":6839:6893  proposalList[proposeId].state = ProposalState.ACCEPTED */\n      0x0100\n      exp\n      dup2\n      sload\n      dup2\n      0xff\n      mul\n      not\n      and\n      swap1\n      dup4\n      0x02\n      dup2\n      gt\n      iszero\n      tag_217\n      jumpi\n      invalid\n    tag_217:\n      mul\n      or\n      swap1\n      sstore\n      pop\n        /* \"contracts/Prop.sol\":6718:6904  if(lObj.collected + pObj.amount <= lObj.amount)... */\n    tag_212:\n        /* \"contracts/Prop.sol\":6348:6910  function acceptProposal(uint proposeId) public... */\n      pop\n      pop\n      pop\n    tag_199:\n      pop\n      jump\t// out\n        /* \"contracts/Prop.sol\":8499:8808  function getProposalDetailsByLoanIdPosition(uint loanId, uint numI) public view returns(ProposalState, uint, uint, uint, address) {... */\n    tag_59:\n        /* \"contracts/Prop.sol\":8587:8600  ProposalState */\n      0x00\n        /* \"contracts/Prop.sol\":8602:8606  uint */\n      dup1\n        /* \"contracts/Prop.sol\":8608:8612  uint */\n      0x00\n        /* \"contracts/Prop.sol\":8614:8618  uint */\n      dup1\n        /* \"contracts/Prop.sol\":8620:8627  address */\n      0x00\n        /* \"contracts/Prop.sol\":8639:8659  Proposal storage obj */\n      dup1\n        /* \"contracts/Prop.sol\":8662:8674  proposalList */\n      0x02\n        /* \"contracts/Prop.sol\":8675:8683  loanList */\n      0x01\n        /* \"contracts/Prop.sol\":8684:8690  loanId */\n      dup10\n        /* \"contracts/Prop.sol\":8675:8691  loanList[loanId] */\n      dup2\n      sload\n      dup2\n      lt\n      tag_219\n      jumpi\n      invalid\n    tag_219:\n      swap1\n      0x00\n      mstore\n      keccak256(0x00, 0x20)\n      swap1\n      0x08\n      mul\n      add\n        /* \"contracts/Prop.sol\":8675:8700  loanList[loanId].proposal */\n      0x07\n      add\n        /* \"contracts/Prop.sol\":8675:8706  loanList[loanId].proposal[numI] */\n      0x00\n        /* \"contracts/Prop.sol\":8701:8705  numI */\n      dup10\n        /* \"contracts/Prop.sol\":8675:8706  loanList[loanId].proposal[numI] */\n      dup2\n      mstore\n      0x20\n      add\n      swap1\n      dup2\n      mstore\n      0x20\n      add\n      0x00\n      keccak256\n      sload\n        /* \"contracts/Prop.sol\":8662:8707  proposalList[loanList[loanId].proposal[numI]] */\n      dup2\n      sload\n      dup2\n      lt\n      tag_221\n      jumpi\n      invalid\n    tag_221:\n      swap1\n      0x00\n      mstore\n      keccak256(0x00, 0x20)\n      swap1\n      0x05\n      mul\n      add\n        /* \"contracts/Prop.sol\":8639:8707  Proposal storage obj = proposalList[loanList[loanId].proposal[numI]] */\n      swap1\n      pop\n        /* \"contracts/Prop.sol\":8725:8728  obj */\n      dup1\n        /* \"contracts/Prop.sol\":8725:8734  obj.state */\n      0x02\n      add\n      0x00\n      swap1\n      sload\n      swap1\n      0x0100\n      exp\n      swap1\n      div\n      0xff\n      and\n        /* \"contracts/Prop.sol\":8736:8739  obj */\n      dup2\n        /* \"contracts/Prop.sol\":8736:8744  obj.rate */\n      0x03\n      add\n      sload\n        /* \"contracts/Prop.sol\":8746:8749  obj */\n      dup3\n        /* \"contracts/Prop.sol\":8746:8756  obj.amount */\n      0x04\n      add\n      sload\n        /* \"contracts/Prop.sol\":8758:8766  loanList */\n      0x01\n        /* \"contracts/Prop.sol\":8767:8773  loanId */\n      dup12\n        /* \"contracts/Prop.sol\":8758:8774  loanList[loanId] */\n      dup2\n      sload\n      dup2\n      lt\n      tag_223\n      jumpi\n      invalid\n    tag_223:\n      0x00\n      swap2\n      dup3\n      mstore\n      0x20\n      dup1\n      dup4\n      keccak256\n        /* \"contracts/Prop.sol\":8758:8789  loanList[loanId].proposal[numI] */\n      swap13\n      dup4\n      mstore\n        /* \"contracts/Prop.sol\":8758:8774  loanList[loanId] */\n      0x08\n      swap2\n      swap1\n      swap2\n      mul\n      swap1\n      swap12\n      add\n        /* \"contracts/Prop.sol\":8758:8783  loanList[loanId].proposal */\n      0x07\n      add\n        /* \"contracts/Prop.sol\":8758:8789  loanList[loanId].proposal[numI] */\n      swap1\n      swap11\n      mstore\n      0x40\n      swap1\n      swap10\n      keccak256\n      sload\n        /* \"contracts/Prop.sol\":8790:8800  obj.lender */\n      swap3\n      sload\n        /* \"contracts/Prop.sol\":8717:8801  return (obj.state, obj.rate, obj.amount, loanList[loanId].proposal[numI],obj.lender) */\n      swap2\n      swap11\n      swap1\n      swap10\n      pop\n        /* \"contracts/Prop.sol\":8758:8789  loanList[loanId].proposal[numI] */\n      swap2\n      swap7\n      pop\n      sub(shl(0xa0, 0x01), 0x01)\n        /* \"contracts/Prop.sol\":8790:8800  obj.lender */\n      and\n      swap5\n      pop\n        /* \"contracts/Prop.sol\":8499:8808  function getProposalDetailsByLoanIdPosition(uint loanId, uint numI) public view returns(ProposalState, uint, uint, uint, address) {... */\n      swap3\n      pop\n      pop\n      pop\n      jump\t// out\n        /* \"contracts/Prop.sol\":684:706  Loan[] public loanList */\n    tag_64:\n      0x01\n      dup2\n      dup2\n      sload\n      dup2\n      lt\n      tag_225\n      jumpi\n      invalid\n    tag_225:\n      0x00\n      swap2\n      dup3\n      mstore\n      0x20\n      swap1\n      swap2\n      keccak256\n      0x08\n      swap1\n      swap2\n      mul\n      add\n      dup1\n      sload\n      0x01\n      dup3\n      add\n      sload\n      0x02\n      dup4\n      add\n      sload\n      0x03\n      dup5\n      add\n      sload\n      0x04\n      dup6\n      add\n      sload\n      0x05\n      dup7\n      add\n      sload\n      0x06\n      swap1\n      swap7\n      add\n      sload\n      sub(shl(0xa0, 0x01), 0x01)\n      dup7\n      and\n      swap8\n      pop\n      shl(0xa0, 0x01)\n      swap1\n      swap6\n      div\n      0xff\n      and\n      swap6\n      swap4\n      swap5\n      swap3\n      swap4\n      swap2\n      swap3\n      swap1\n      swap2\n      swap1\n      dup9\n      jump\t// out\n        /* \"contracts/Prop.sol\":8174:8492  function getLastLoanDetails(address borrower) public view returns(LoanState, uint, uint, uint, uint) {... */\n    tag_69:\n      sub(shl(0xa0, 0x01), 0x01)\n        /* \"contracts/Prop.sol\":8303:8320  loanMap[borrower] */\n      dup2\n      and\n        /* \"contracts/Prop.sol\":8240:8249  LoanState */\n      0x00\n        /* \"contracts/Prop.sol\":8303:8320  loanMap[borrower] */\n      swap1\n      dup2\n      mstore\n        /* \"contracts/Prop.sol\":8303:8310  loanMap */\n      0x03\n        /* \"contracts/Prop.sol\":8303:8320  loanMap[borrower] */\n      0x20\n      mstore\n      0x40\n      dup2\n      keccak256\n        /* \"contracts/Prop.sol\":8303:8327  loanMap[borrower].length */\n      dup1\n      sload\n        /* \"contracts/Prop.sol\":8240:8249  LoanState */\n      dup3\n      swap2\n      dup3\n      swap2\n      dup3\n      swap2\n      dup3\n      swap2\n        /* \"contracts/Prop.sol\":8303:8327  loanMap[borrower].length */\n      swap1\n        /* \"contracts/Prop.sol\":8240:8249  LoanState */\n      dup3\n      swap1\n        /* \"contracts/Prop.sol\":8356:8364  loanList */\n      0x01\n      swap1\n      not(0x00)\n        /* \"contracts/Prop.sol\":8383:8396  loanLength -1 */\n      dup5\n      add\n        /* \"contracts/Prop.sol\":8365:8397  loanMap[borrower][loanLength -1] */\n      dup5\n      dup2\n      lt\n      tag_228\n      jumpi\n      invalid\n    tag_228:\n      swap1\n      0x00\n      mstore\n      keccak256(0x00, 0x20)\n      add\n      sload\n        /* \"contracts/Prop.sol\":8356:8398  loanList[loanMap[borrower][loanLength -1]] */\n      dup2\n      sload\n      dup2\n      lt\n      tag_230\n      jumpi\n      invalid\n    tag_230:\n      0x00\n      swap2\n      dup3\n      mstore\n      0x20\n      swap1\n      swap2\n      keccak256\n      0x08\n      swap1\n      swap2\n      mul\n      add\n        /* \"contracts/Prop.sol\":8416:8425  obj.state */\n      dup1\n      sload\n        /* \"contracts/Prop.sol\":8427:8438  obj.dueDate */\n      0x01\n      dup3\n      add\n      sload\n        /* \"contracts/Prop.sol\":8440:8450  obj.amount */\n      0x02\n      dup4\n      add\n      sload\n        /* \"contracts/Prop.sol\":8452:8469  obj.proposalCount */\n      0x03\n      dup5\n      add\n      sload\n        /* \"contracts/Prop.sol\":8471:8484  obj.collected */\n      0x04\n      swap1\n      swap5\n      add\n      sload\n      shl(0xa0, 0x01)\n        /* \"contracts/Prop.sol\":8416:8425  obj.state */\n      swap1\n      swap4\n      div\n      0xff\n      and\n      swap13\n        /* \"contracts/Prop.sol\":8427:8438  obj.dueDate */\n      swap2\n      swap12\n      pop\n        /* \"contracts/Prop.sol\":8440:8450  obj.amount */\n      swap10\n      pop\n        /* \"contracts/Prop.sol\":8452:8469  obj.proposalCount */\n      swap2\n      swap8\n      pop\n        /* \"contracts/Prop.sol\":8471:8484  obj.collected */\n      swap6\n      pop\n        /* \"contracts/Prop.sol\":8416:8425  obj.state */\n      swap4\n      pop\n      pop\n      pop\n      pop\n        /* \"contracts/Prop.sol\":8174:8492  function getLastLoanDetails(address borrower) public view returns(LoanState, uint, uint, uint, uint) {... */\n      jump\t// out\n        /* \"contracts/Prop.sol\":8815:8905  function numTotalLoans() public view returns(uint) {... */\n    tag_73:\n        /* \"contracts/Prop.sol\":8883:8891  loanList */\n      0x01\n        /* \"contracts/Prop.sol\":8883:8898  loanList.length */\n      sload\n        /* \"contracts/Prop.sol\":8815:8905  function numTotalLoans() public view returns(uint) {... */\n      swap1\n      jump\t// out\n        /* \"contracts/Prop.sol\":54:74  address public owner */\n    tag_76:\n      and(sub(shl(0xa0, 0x01), 0x01), sload(0x00))\n      dup2\n      jump\t// out\n        /* \"contracts/Prop.sol\":2140:2478  function getActiveLoanId(address borrower) public view returns(uint) {... */\n    tag_80:\n      sub(shl(0xa0, 0x01), 0x01)\n        /* \"contracts/Prop.sol\":2235:2252  loanMap[borrower] */\n      dup2\n      and\n        /* \"contracts/Prop.sol\":2203:2207  uint */\n      0x00\n        /* \"contracts/Prop.sol\":2235:2252  loanMap[borrower] */\n      swap1\n      dup2\n      mstore\n        /* \"contracts/Prop.sol\":2235:2242  loanMap */\n      0x03\n        /* \"contracts/Prop.sol\":2235:2252  loanMap[borrower] */\n      0x20\n      mstore\n      0x40\n      dup2\n      keccak256\n        /* \"contracts/Prop.sol\":2235:2259  loanMap[borrower].length */\n      sload\n        /* \"contracts/Prop.sol\":2272:2285  numLoans == 0 */\n      dup1\n        /* \"contracts/Prop.sol\":2269:2305  if(numLoans == 0) return (2**64 - 1) */\n      tag_234\n      jumpi\n        /* \"contracts/Prop.sol\":2295:2304  2**64 - 1 */\n      0xffffffffffffffff\n        /* \"contracts/Prop.sol\":2287:2305  return (2**64 - 1) */\n      swap2\n      pop\n      pop\n      jump(tag_150)\n        /* \"contracts/Prop.sol\":2269:2305  if(numLoans == 0) return (2**64 - 1) */\n    tag_234:\n      sub(shl(0xa0, 0x01), 0x01)\n        /* \"contracts/Prop.sol\":2333:2350  loanMap[borrower] */\n      dup4\n      and\n        /* \"contracts/Prop.sol\":2315:2330  uint lastLoanId */\n      0x00\n        /* \"contracts/Prop.sol\":2333:2350  loanMap[borrower] */\n      swap1\n      dup2\n      mstore\n        /* \"contracts/Prop.sol\":2333:2340  loanMap */\n      0x03\n        /* \"contracts/Prop.sol\":2333:2350  loanMap[borrower] */\n      0x20\n      mstore\n      0x40\n      dup2\n      keccak256\n        /* \"contracts/Prop.sol\":2333:2362  loanMap[borrower][numLoans-1] */\n      dup1\n      sload\n      not(0x00)\n        /* \"contracts/Prop.sol\":2351:2361  numLoans-1 */\n      dup5\n      add\n      swap1\n        /* \"contracts/Prop.sol\":2333:2362  loanMap[borrower][numLoans-1] */\n      dup2\n      lt\n      tag_235\n      jumpi\n      invalid\n    tag_235:\n      0x00\n      swap2\n      dup3\n      mstore\n      0x20\n      dup3\n      keccak256\n      add\n      sload\n      swap2\n      pop\n        /* \"contracts/Prop.sol\":2375:2383  loanList */\n      0x01\n        /* \"contracts/Prop.sol\":2384:2394  lastLoanId */\n      dup3\n        /* \"contracts/Prop.sol\":2375:2395  loanList[lastLoanId] */\n      dup2\n      sload\n      dup2\n      lt\n      tag_238\n      jumpi\n      invalid\n    tag_238:\n      0x00\n      swap2\n      dup3\n      mstore\n      0x20\n      swap1\n      swap2\n      keccak256\n      0x08\n      swap1\n      swap2\n      mul\n      add\n        /* \"contracts/Prop.sol\":2375:2401  loanList[lastLoanId].state */\n      sload\n      shl(0xa0, 0x01)\n      swap1\n      div\n      0xff\n      and\n        /* \"contracts/Prop.sol\":2375:2424  loanList[lastLoanId].state != LoanState.ACCEPTING */\n      0x03\n      dup2\n      gt\n      iszero\n      tag_240\n      jumpi\n      invalid\n    tag_240:\n      eq\n        /* \"contracts/Prop.sol\":2372:2444  if(loanList[lastLoanId].state != LoanState.ACCEPTING) return (2**64 - 1) */\n      tag_241\n      jumpi\n        /* \"contracts/Prop.sol\":2434:2443  2**64 - 1 */\n      0xffffffffffffffff\n        /* \"contracts/Prop.sol\":2426:2444  return (2**64 - 1) */\n      swap3\n      pop\n      pop\n      pop\n      jump(tag_150)\n        /* \"contracts/Prop.sol\":2372:2444  if(loanList[lastLoanId].state != LoanState.ACCEPTING) return (2**64 - 1) */\n    tag_241:\n        /* \"contracts/Prop.sol\":2461:2471  lastLoanId */\n      swap4\n        /* \"contracts/Prop.sol\":2140:2478  function getActiveLoanId(address borrower) public view returns(uint) {... */\n      swap3\n      pop\n      pop\n      pop\n      jump\t// out\n        /* \"contracts/Prop.sol\":2485:3543  function revokeMyProposal(uint id) public {... */\n    tag_84:\n        /* \"contracts/Prop.sol\":2562:2572  msg.sender */\n      caller\n        /* \"contracts/Prop.sol\":2537:2551  uint proposeId */\n      0x00\n        /* \"contracts/Prop.sol\":2554:2573  lendMap[msg.sender] */\n      swap1\n      dup2\n      mstore\n        /* \"contracts/Prop.sol\":2554:2561  lendMap */\n      0x04\n        /* \"contracts/Prop.sol\":2554:2573  lendMap[msg.sender] */\n      0x20\n      mstore\n      0x40\n      dup2\n      keccak256\n        /* \"contracts/Prop.sol\":2554:2577  lendMap[msg.sender][id] */\n      dup1\n      sload\n        /* \"contracts/Prop.sol\":2574:2576  id */\n      dup4\n      swap1\n        /* \"contracts/Prop.sol\":2554:2577  lendMap[msg.sender][id] */\n      dup2\n      lt\n      tag_243\n      jumpi\n      invalid\n    tag_243:\n      0x00\n      swap2\n      dup3\n      mstore\n      0x20\n      dup3\n      keccak256\n      add\n      sload\n      swap2\n      pop\n        /* \"contracts/Prop.sol\":2590:2602  proposalList */\n      0x02\n        /* \"contracts/Prop.sol\":2603:2612  proposeId */\n      dup3\n        /* \"contracts/Prop.sol\":2590:2613  proposalList[proposeId] */\n      dup2\n      sload\n      dup2\n      lt\n      tag_246\n      jumpi\n      invalid\n    tag_246:\n      0x00\n      swap2\n      dup3\n      mstore\n      0x20\n      swap1\n      swap2\n      keccak256\n        /* \"contracts/Prop.sol\":2590:2619  proposalList[proposeId].state */\n      0x02\n        /* \"contracts/Prop.sol\":2590:2613  proposalList[proposeId] */\n      0x05\n      swap1\n      swap3\n      mul\n      add\n        /* \"contracts/Prop.sol\":2590:2619  proposalList[proposeId].state */\n      dup2\n      add\n      sload\n      0xff\n      and\n      swap1\n        /* \"contracts/Prop.sol\":2590:2644  proposalList[proposeId].state != ProposalState.WAITING */\n      dup2\n      gt\n      iszero\n      tag_248\n      jumpi\n      invalid\n    tag_248:\n      eq\n        /* \"contracts/Prop.sol\":2587:2653  if(proposalList[proposeId].state != ProposalState.WAITING) return; */\n      tag_249\n      jumpi\n        /* \"contracts/Prop.sol\":2646:2653  return; */\n      pop\n      jump(tag_199)\n        /* \"contracts/Prop.sol\":2587:2653  if(proposalList[proposeId].state != ProposalState.WAITING) return; */\n    tag_249:\n        /* \"contracts/Prop.sol\":2662:2673  uint loanId */\n      0x00\n        /* \"contracts/Prop.sol\":2676:2688  proposalList */\n      0x02\n        /* \"contracts/Prop.sol\":2689:2698  proposeId */\n      dup3\n        /* \"contracts/Prop.sol\":2676:2699  proposalList[proposeId] */\n      dup2\n      sload\n      dup2\n      lt\n      tag_250\n      jumpi\n      invalid\n    tag_250:\n      0x00\n      swap2\n      dup3\n      mstore\n      0x20\n      dup3\n      keccak256\n        /* \"contracts/Prop.sol\":2676:2706  proposalList[proposeId].loanId */\n      0x01\n        /* \"contracts/Prop.sol\":2676:2699  proposalList[proposeId] */\n      0x05\n      swap1\n      swap3\n      mul\n      add\n        /* \"contracts/Prop.sol\":2676:2706  proposalList[proposeId].loanId */\n      add\n      sload\n      swap2\n      pop\n        /* \"contracts/Prop.sol\":2719:2727  loanList */\n      0x01\n        /* \"contracts/Prop.sol\":2728:2734  loanId */\n      dup3\n        /* \"contracts/Prop.sol\":2719:2735  loanList[loanId] */\n      dup2\n      sload\n      dup2\n      lt\n      tag_253\n      jumpi\n      invalid\n    tag_253:\n      0x00\n      swap2\n      dup3\n      mstore\n      0x20\n      swap1\n      swap2\n      keccak256\n      0x08\n      swap1\n      swap2\n      mul\n      add\n        /* \"contracts/Prop.sol\":2719:2741  loanList[loanId].state */\n      sload\n      shl(0xa0, 0x01)\n      swap1\n      div\n      0xff\n      and\n        /* \"contracts/Prop.sol\":2719:2764  loanList[loanId].state == LoanState.ACCEPTING */\n      0x03\n      dup2\n      gt\n      iszero\n      tag_255\n      jumpi\n      invalid\n    tag_255:\n      eq\n        /* \"contracts/Prop.sol\":2716:3537  if(loanList[loanId].state == LoanState.ACCEPTING) {... */\n      iszero\n      tag_256\n      jumpi\n        /* \"contracts/Prop.sol\":2890:2910  ProposalState.REPAID */\n      0x02\n        /* \"contracts/Prop.sol\":2858:2870  proposalList */\n      dup1\n        /* \"contracts/Prop.sol\":2871:2880  proposeId */\n      dup4\n        /* \"contracts/Prop.sol\":2858:2881  proposalList[proposeId] */\n      dup2\n      sload\n      dup2\n      lt\n      tag_257\n      jumpi\n      invalid\n    tag_257:\n      swap1\n      0x00\n      mstore\n      keccak256(0x00, 0x20)\n      swap1\n      0x05\n      mul\n      add\n        /* \"contracts/Prop.sol\":2858:2887  proposalList[proposeId].state */\n      0x02\n      add\n      0x00\n        /* \"contracts/Prop.sol\":2858:2910  proposalList[proposeId].state = ProposalState.REPAID */\n      0x0100\n      exp\n      dup2\n      sload\n      dup2\n      0xff\n      mul\n      not\n      and\n      swap1\n      dup4\n      0x02\n      dup2\n      gt\n      iszero\n      tag_259\n      jumpi\n      invalid\n    tag_259:\n      mul\n      or\n      swap1\n      sstore\n      pop\n        /* \"contracts/Prop.sol\":2924:2934  msg.sender */\n      caller\n      sub(shl(0xa0, 0x01), 0x01)\n        /* \"contracts/Prop.sol\":2924:2943  msg.sender.transfer */\n      and\n        /* \"contracts/Prop.sol\":2924:2975  msg.sender.transfer(proposalList[proposeId].amount) */\n      0x08fc\n        /* \"contracts/Prop.sol\":2944:2956  proposalList */\n      0x02\n        /* \"contracts/Prop.sol\":2957:2966  proposeId */\n      dup5\n        /* \"contracts/Prop.sol\":2944:2967  proposalList[proposeId] */\n      dup2\n      sload\n      dup2\n      lt\n      tag_260\n      jumpi\n      invalid\n    tag_260:\n      swap1\n      0x00\n      mstore\n      keccak256(0x00, 0x20)\n      swap1\n      0x05\n      mul\n      add\n        /* \"contracts/Prop.sol\":2944:2974  proposalList[proposeId].amount */\n      0x04\n      add\n      sload\n        /* \"contracts/Prop.sol\":2924:2975  msg.sender.transfer(proposalList[proposeId].amount) */\n      swap1\n      dup2\n      iszero\n      mul\n      swap1\n      mload(0x40)\n      0x00\n      mload(0x40)\n      dup1\n      dup4\n      sub\n      dup2\n      dup6\n      dup9\n      dup9\n      call\n      swap4\n      pop\n      pop\n      pop\n      pop\n      iszero\n        /* \"--CODEGEN--\":8:17   */\n      dup1\n        /* \"--CODEGEN--\":5:7   */\n      iszero\n      tag_262\n      jumpi\n        /* \"--CODEGEN--\":45:61   */\n      returndatasize\n        /* \"--CODEGEN--\":42:43   */\n      0x00\n        /* \"--CODEGEN--\":39:40   */\n      dup1\n        /* \"--CODEGEN--\":24:62   */\n      returndatacopy\n        /* \"--CODEGEN--\":77:93   */\n      returndatasize\n        /* \"--CODEGEN--\":74:75   */\n      0x00\n        /* \"--CODEGEN--\":67:94   */\n      revert\n        /* \"--CODEGEN--\":5:7   */\n    tag_262:\n        /* \"contracts/Prop.sol\":2924:2975  msg.sender.transfer(proposalList[proposeId].amount) */\n      pop\n        /* \"contracts/Prop.sol\":2716:3537  if(loanList[loanId].state == LoanState.ACCEPTING) {... */\n      jump(tag_268)\n    tag_256:\n        /* \"contracts/Prop.sol\":3029:3045  LoanState.LOCKED */\n      0x01\n        /* \"contracts/Prop.sol\":3003:3011  loanList */\n      dup1\n        /* \"contracts/Prop.sol\":3012:3018  loanId */\n      dup3\n        /* \"contracts/Prop.sol\":3003:3019  loanList[loanId] */\n      dup2\n      sload\n      dup2\n      lt\n      tag_265\n      jumpi\n      invalid\n    tag_265:\n      0x00\n      swap2\n      dup3\n      mstore\n      0x20\n      swap1\n      swap2\n      keccak256\n      0x08\n      swap1\n      swap2\n      mul\n      add\n        /* \"contracts/Prop.sol\":3003:3025  loanList[loanId].state */\n      sload\n      shl(0xa0, 0x01)\n      swap1\n      div\n      0xff\n      and\n        /* \"contracts/Prop.sol\":3003:3045  loanList[loanId].state == LoanState.LOCKED */\n      0x03\n      dup2\n      gt\n      iszero\n      tag_267\n      jumpi\n      invalid\n    tag_267:\n      eq\n        /* \"contracts/Prop.sol\":3000:3537  if(loanList[loanId].state == LoanState.LOCKED) {... */\n      iszero\n      tag_268\n      jumpi\n        /* \"contracts/Prop.sol\":3183:3186  now */\n      timestamp\n        /* \"contracts/Prop.sol\":3156:3164  loanList */\n      0x01\n        /* \"contracts/Prop.sol\":3165:3171  loanId */\n      dup3\n        /* \"contracts/Prop.sol\":3156:3172  loanList[loanId] */\n      dup2\n      sload\n      dup2\n      lt\n      tag_269\n      jumpi\n      invalid\n    tag_269:\n      swap1\n      0x00\n      mstore\n      keccak256(0x00, 0x20)\n      swap1\n      0x08\n      mul\n      add\n        /* \"contracts/Prop.sol\":3156:3180  loanList[loanId].dueDate */\n      0x01\n      add\n      sload\n        /* \"contracts/Prop.sol\":3156:3186  loanList[loanId].dueDate < now */\n      lt\n        /* \"contracts/Prop.sol\":3153:3195  if(loanList[loanId].dueDate < now) return; */\n      iszero\n      tag_271\n      jumpi\n        /* \"contracts/Prop.sol\":3188:3195  return; */\n      pop\n      pop\n      jump(tag_199)\n        /* \"contracts/Prop.sol\":3153:3195  if(loanList[loanId].dueDate < now) return; */\n    tag_271:\n        /* \"contracts/Prop.sol\":3233:3249  LoanState.FAILED */\n      0x03\n        /* \"contracts/Prop.sol\":3208:3216  loanList */\n      0x01\n        /* \"contracts/Prop.sol\":3217:3223  loanId */\n      dup3\n        /* \"contracts/Prop.sol\":3208:3224  loanList[loanId] */\n      dup2\n      sload\n      dup2\n      lt\n      tag_272\n      jumpi\n      invalid\n    tag_272:\n      0x00\n      swap2\n      dup3\n      mstore\n      0x20\n      swap1\n      swap2\n      keccak256\n      0x08\n      swap1\n      swap2\n      mul\n      add\n        /* \"contracts/Prop.sol\":3208:3249  loanList[loanId].state = LoanState.FAILED */\n      dup1\n      sload\n      not(shl(0xa0, 0xff))\n      and\n      shl(0xa0, 0x01)\n      dup4\n      0x03\n      dup2\n      gt\n      iszero\n      tag_274\n      jumpi\n      invalid\n    tag_274:\n      mul\n      or\n      swap1\n      sstore\n      pop\n        /* \"contracts/Prop.sol\":3267:3273  uint i */\n      0x00\n        /* \"contracts/Prop.sol\":3263:3526  for(uint i = 0; i < loanList[loanId].proposalCount; i++) {... */\n    tag_275:\n        /* \"contracts/Prop.sol\":3283:3291  loanList */\n      0x01\n        /* \"contracts/Prop.sol\":3292:3298  loanId */\n      dup3\n        /* \"contracts/Prop.sol\":3283:3299  loanList[loanId] */\n      dup2\n      sload\n      dup2\n      lt\n      tag_278\n      jumpi\n      invalid\n    tag_278:\n      swap1\n      0x00\n      mstore\n      keccak256(0x00, 0x20)\n      swap1\n      0x08\n      mul\n      add\n        /* \"contracts/Prop.sol\":3283:3313  loanList[loanId].proposalCount */\n      0x03\n      add\n      sload\n        /* \"contracts/Prop.sol\":3279:3280  i */\n      dup2\n        /* \"contracts/Prop.sol\":3279:3313  i < loanList[loanId].proposalCount */\n      lt\n        /* \"contracts/Prop.sol\":3263:3526  for(uint i = 0; i < loanList[loanId].proposalCount; i++) {... */\n      iszero\n      tag_212\n      jumpi\n        /* \"contracts/Prop.sol\":3338:3347  uint numI */\n      0x00\n        /* \"contracts/Prop.sol\":3350:3358  loanList */\n      0x01\n        /* \"contracts/Prop.sol\":3359:3365  loanId */\n      dup4\n        /* \"contracts/Prop.sol\":3350:3366  loanList[loanId] */\n      dup2\n      sload\n      dup2\n      lt\n      tag_280\n      jumpi\n      invalid\n    tag_280:\n      0x00\n      swap2\n      dup3\n      mstore\n      0x20\n      dup1\n      dup4\n      keccak256\n        /* \"contracts/Prop.sol\":3350:3378  loanList[loanId].proposal[i] */\n      dup6\n      dup5\n      mstore\n        /* \"contracts/Prop.sol\":3350:3375  loanList[loanId].proposal */\n      0x07\n        /* \"contracts/Prop.sol\":3350:3366  loanList[loanId] */\n      0x08\n      swap1\n      swap4\n      mul\n      add\n        /* \"contracts/Prop.sol\":3350:3375  loanList[loanId].proposal */\n      swap2\n      swap1\n      swap2\n      add\n        /* \"contracts/Prop.sol\":3350:3378  loanList[loanId].proposal[i] */\n      swap1\n      mstore\n      0x40\n      swap1\n      keccak256\n      sload\n      swap1\n      pop\n        /* \"contracts/Prop.sol\":3427:3449  ProposalState.ACCEPTED */\n      0x01\n        /* \"contracts/Prop.sol\":3399:3411  proposalList */\n      0x02\n        /* \"contracts/Prop.sol\":3412:3416  numI */\n      dup3\n        /* \"contracts/Prop.sol\":3399:3417  proposalList[numI] */\n      dup2\n      sload\n      dup2\n      lt\n      tag_283\n      jumpi\n      invalid\n    tag_283:\n      0x00\n      swap2\n      dup3\n      mstore\n      0x20\n      swap1\n      swap2\n      keccak256\n        /* \"contracts/Prop.sol\":3399:3423  proposalList[numI].state */\n      0x02\n        /* \"contracts/Prop.sol\":3399:3417  proposalList[numI] */\n      0x05\n      swap1\n      swap3\n      mul\n      add\n        /* \"contracts/Prop.sol\":3399:3423  proposalList[numI].state */\n      dup2\n      add\n      sload\n      0xff\n      and\n      swap1\n        /* \"contracts/Prop.sol\":3399:3449  proposalList[numI].state == ProposalState.ACCEPTED */\n      dup2\n      gt\n      iszero\n      tag_285\n      jumpi\n      invalid\n    tag_285:\n      pop\n      pop\n      pop\n        /* \"contracts/Prop.sol\":3315:3318  i++ */\n      0x01\n      add\n        /* \"contracts/Prop.sol\":3263:3526  for(uint i = 0; i < loanList[loanId].proposalCount; i++) {... */\n      jump(tag_275)\n        /* \"contracts/Prop.sol\":3000:3537  if(loanList[loanId].state == LoanState.LOCKED) {... */\n    tag_268:\n        /* \"contracts/Prop.sol\":2485:3543  function revokeMyProposal(uint id) public {... */\n      pop\n      pop\n      pop\n      jump\t// out\n        /* \"contracts/Prop.sol\":3550:4427  function lockLoan(uint loanId) public {... */\n    tag_88:\n        /* \"contracts/Prop.sol\":3769:3788  LoanState.ACCEPTING */\n      0x00\n        /* \"contracts/Prop.sol\":3743:3751  loanList */\n      0x01\n        /* \"contracts/Prop.sol\":3752:3758  loanId */\n      dup3\n        /* \"contracts/Prop.sol\":3743:3759  loanList[loanId] */\n      dup2\n      sload\n      dup2\n      lt\n      tag_289\n      jumpi\n      invalid\n    tag_289:\n      0x00\n      swap2\n      dup3\n      mstore\n      0x20\n      swap1\n      swap2\n      keccak256\n      0x08\n      swap1\n      swap2\n      mul\n      add\n        /* \"contracts/Prop.sol\":3743:3765  loanList[loanId].state */\n      sload\n      shl(0xa0, 0x01)\n      swap1\n      div\n      0xff\n      and\n        /* \"contracts/Prop.sol\":3743:3788  loanList[loanId].state == LoanState.ACCEPTING */\n      0x03\n      dup2\n      gt\n      iszero\n      tag_291\n      jumpi\n      invalid\n    tag_291:\n      eq\n        /* \"contracts/Prop.sol\":3740:4421  if(loanList[loanId].state == LoanState.ACCEPTING)... */\n      iszero\n      tag_292\n      jumpi\n        /* \"contracts/Prop.sol\":3835:3851  LoanState.LOCKED */\n      0x01\n        /* \"contracts/Prop.sol\":3810:3818  loanList */\n      dup1\n        /* \"contracts/Prop.sol\":3819:3825  loanId */\n      dup3\n        /* \"contracts/Prop.sol\":3810:3826  loanList[loanId] */\n      dup2\n      sload\n      dup2\n      lt\n      tag_293\n      jumpi\n      invalid\n    tag_293:\n      0x00\n      swap2\n      dup3\n      mstore\n      0x20\n      swap1\n      swap2\n      keccak256\n      0x08\n      swap1\n      swap2\n      mul\n      add\n        /* \"contracts/Prop.sol\":3810:3851  loanList[loanId].state = LoanState.LOCKED */\n      dup1\n      sload\n      not(shl(0xa0, 0xff))\n      and\n      shl(0xa0, 0x01)\n      dup4\n      0x03\n      dup2\n      gt\n      iszero\n      tag_295\n      jumpi\n      invalid\n    tag_295:\n      mul\n      or\n      swap1\n      sstore\n      pop\n        /* \"contracts/Prop.sol\":3867:3873  uint i */\n      0x00\n        /* \"contracts/Prop.sol\":3863:4380  for(uint i = 0; i < loanList[loanId].proposalCount; i++)... */\n    tag_296:\n        /* \"contracts/Prop.sol\":3883:3891  loanList */\n      0x01\n        /* \"contracts/Prop.sol\":3892:3898  loanId */\n      dup3\n        /* \"contracts/Prop.sol\":3883:3899  loanList[loanId] */\n      dup2\n      sload\n      dup2\n      lt\n      tag_299\n      jumpi\n      invalid\n    tag_299:\n      swap1\n      0x00\n      mstore\n      keccak256(0x00, 0x20)\n      swap1\n      0x08\n      mul\n      add\n        /* \"contracts/Prop.sol\":3883:3913  loanList[loanId].proposalCount */\n      0x03\n      add\n      sload\n        /* \"contracts/Prop.sol\":3879:3880  i */\n      dup2\n        /* \"contracts/Prop.sol\":3879:3913  i < loanList[loanId].proposalCount */\n      lt\n        /* \"contracts/Prop.sol\":3863:4380  for(uint i = 0; i < loanList[loanId].proposalCount; i++)... */\n      iszero\n      tag_297\n      jumpi\n        /* \"contracts/Prop.sol\":3944:3953  uint numI */\n      0x00\n        /* \"contracts/Prop.sol\":3956:3964  loanList */\n      0x01\n        /* \"contracts/Prop.sol\":3965:3971  loanId */\n      dup4\n        /* \"contracts/Prop.sol\":3956:3972  loanList[loanId] */\n      dup2\n      sload\n      dup2\n      lt\n      tag_301\n      jumpi\n      invalid\n    tag_301:\n      0x00\n      swap2\n      dup3\n      mstore\n      0x20\n      dup1\n      dup4\n      keccak256\n        /* \"contracts/Prop.sol\":3956:3984  loanList[loanId].proposal[i] */\n      dup6\n      dup5\n      mstore\n        /* \"contracts/Prop.sol\":3956:3981  loanList[loanId].proposal */\n      0x07\n        /* \"contracts/Prop.sol\":3956:3972  loanList[loanId] */\n      0x08\n      swap1\n      swap4\n      mul\n      add\n        /* \"contracts/Prop.sol\":3956:3981  loanList[loanId].proposal */\n      swap2\n      swap1\n      swap2\n      add\n        /* \"contracts/Prop.sol\":3956:3984  loanList[loanId].proposal[i] */\n      swap1\n      mstore\n      0x40\n      swap1\n      keccak256\n      sload\n      swap1\n      pop\n        /* \"contracts/Prop.sol\":4029:4051  ProposalState.ACCEPTED */\n      0x01\n        /* \"contracts/Prop.sol\":4001:4013  proposalList */\n      0x02\n        /* \"contracts/Prop.sol\":4014:4018  numI */\n      dup3\n        /* \"contracts/Prop.sol\":4001:4019  proposalList[numI] */\n      dup2\n      sload\n      dup2\n      lt\n      tag_304\n      jumpi\n      invalid\n    tag_304:\n      0x00\n      swap2\n      dup3\n      mstore\n      0x20\n      swap1\n      swap2\n      keccak256\n        /* \"contracts/Prop.sol\":4001:4025  proposalList[numI].state */\n      0x02\n        /* \"contracts/Prop.sol\":4001:4019  proposalList[numI] */\n      0x05\n      swap1\n      swap3\n      mul\n      add\n        /* \"contracts/Prop.sol\":4001:4025  proposalList[numI].state */\n      dup2\n      add\n      sload\n      0xff\n      and\n      swap1\n        /* \"contracts/Prop.sol\":4001:4051  proposalList[numI].state == ProposalState.ACCEPTED */\n      dup2\n      gt\n      iszero\n      tag_306\n      jumpi\n      invalid\n    tag_306:\n      eq\n        /* \"contracts/Prop.sol\":3998:4368  if(proposalList[numI].state == ProposalState.ACCEPTED)... */\n      iszero\n      tag_307\n      jumpi\n        /* \"contracts/Prop.sol\":4081:4091  msg.sender */\n      caller\n      sub(shl(0xa0, 0x01), 0x01)\n        /* \"contracts/Prop.sol\":4081:4100  msg.sender.transfer */\n      and\n        /* \"contracts/Prop.sol\":4081:4127  msg.sender.transfer(proposalList[numI].amount) */\n      0x08fc\n        /* \"contracts/Prop.sol\":4101:4113  proposalList */\n      0x02\n        /* \"contracts/Prop.sol\":4114:4118  numI */\n      dup4\n        /* \"contracts/Prop.sol\":4101:4119  proposalList[numI] */\n      dup2\n      sload\n      dup2\n      lt\n      tag_308\n      jumpi\n      invalid\n    tag_308:\n      swap1\n      0x00\n      mstore\n      keccak256(0x00, 0x20)\n      swap1\n      0x05\n      mul\n      add\n        /* \"contracts/Prop.sol\":4101:4126  proposalList[numI].amount */\n      0x04\n      add\n      sload\n        /* \"contracts/Prop.sol\":4081:4127  msg.sender.transfer(proposalList[numI].amount) */\n      swap1\n      dup2\n      iszero\n      mul\n      swap1\n      mload(0x40)\n      0x00\n      mload(0x40)\n      dup1\n      dup4\n      sub\n      dup2\n      dup6\n      dup9\n      dup9\n      call\n      swap4\n      pop\n      pop\n      pop\n      pop\n      iszero\n        /* \"--CODEGEN--\":8:17   */\n      dup1\n        /* \"--CODEGEN--\":5:7   */\n      iszero\n      tag_310\n      jumpi\n        /* \"--CODEGEN--\":45:61   */\n      returndatasize\n        /* \"--CODEGEN--\":42:43   */\n      0x00\n        /* \"--CODEGEN--\":39:40   */\n      dup1\n        /* \"--CODEGEN--\":24:62   */\n      returndatacopy\n        /* \"--CODEGEN--\":77:93   */\n      returndatasize\n        /* \"--CODEGEN--\":74:75   */\n      0x00\n        /* \"--CODEGEN--\":67:94   */\n      revert\n        /* \"--CODEGEN--\":5:7   */\n    tag_310:\n        /* \"contracts/Prop.sol\":4081:4127  msg.sender.transfer(proposalList[numI].amount) */\n      pop\n        /* \"contracts/Prop.sol\":3998:4368  if(proposalList[numI].state == ProposalState.ACCEPTED)... */\n      jump(tag_311)\n    tag_307:\n        /* \"contracts/Prop.sol\":4234:4254  ProposalState.REPAID */\n      0x02\n        /* \"contracts/Prop.sol\":4207:4219  proposalList */\n      dup1\n        /* \"contracts/Prop.sol\":4220:4224  numI */\n      dup3\n        /* \"contracts/Prop.sol\":4207:4225  proposalList[numI] */\n      dup2\n      sload\n      dup2\n      lt\n      tag_312\n      jumpi\n      invalid\n    tag_312:\n      swap1\n      0x00\n      mstore\n      keccak256(0x00, 0x20)\n      swap1\n      0x05\n      mul\n      add\n        /* \"contracts/Prop.sol\":4207:4231  proposalList[numI].state */\n      0x02\n      add\n      0x00\n        /* \"contracts/Prop.sol\":4207:4254  proposalList[numI].state = ProposalState.REPAID */\n      0x0100\n      exp\n      dup2\n      sload\n      dup2\n      0xff\n      mul\n      not\n      and\n      swap1\n      dup4\n      0x02\n      dup2\n      gt\n      iszero\n      tag_314\n      jumpi\n      invalid\n    tag_314:\n      mul\n      or\n      swap1\n      sstore\n      pop\n        /* \"contracts/Prop.sol\":4270:4282  proposalList */\n      0x02\n        /* \"contracts/Prop.sol\":4283:4287  numI */\n      dup2\n        /* \"contracts/Prop.sol\":4270:4288  proposalList[numI] */\n      dup2\n      sload\n      dup2\n      lt\n      tag_315\n      jumpi\n      invalid\n    tag_315:\n      0x00\n      swap2\n      dup3\n      mstore\n      0x20\n      swap1\n      swap2\n      keccak256\n      0x05\n      swap1\n      swap2\n      mul\n      add\n        /* \"contracts/Prop.sol\":4270:4295  proposalList[numI].lender */\n      sload\n        /* \"contracts/Prop.sol\":4305:4317  proposalList */\n      0x02\n        /* \"contracts/Prop.sol\":4305:4323  proposalList[numI] */\n      dup1\n      sload\n      sub(shl(0xa0, 0x01), 0x01)\n        /* \"contracts/Prop.sol\":4270:4295  proposalList[numI].lender */\n      swap1\n      swap3\n      and\n      swap2\n        /* \"contracts/Prop.sol\":4270:4331  proposalList[numI].lender.transfer(proposalList[numI].amount) */\n      0x08fc\n      swap2\n        /* \"contracts/Prop.sol\":4305:4317  proposalList */\n      swap1\n        /* \"contracts/Prop.sol\":4318:4322  numI */\n      dup5\n      swap1\n        /* \"contracts/Prop.sol\":4305:4323  proposalList[numI] */\n      dup2\n      lt\n      tag_317\n      jumpi\n      invalid\n    tag_317:\n      swap1\n      0x00\n      mstore\n      keccak256(0x00, 0x20)\n      swap1\n      0x05\n      mul\n      add\n        /* \"contracts/Prop.sol\":4305:4330  proposalList[numI].amount */\n      0x04\n      add\n      sload\n        /* \"contracts/Prop.sol\":4270:4331  proposalList[numI].lender.transfer(proposalList[numI].amount) */\n      swap1\n      dup2\n      iszero\n      mul\n      swap1\n      mload(0x40)\n      0x00\n      mload(0x40)\n      dup1\n      dup4\n      sub\n      dup2\n      dup6\n      dup9\n      dup9\n      call\n      swap4\n      pop\n      pop\n      pop\n      pop\n      iszero\n        /* \"--CODEGEN--\":8:17   */\n      dup1\n        /* \"--CODEGEN--\":5:7   */\n      iszero\n      tag_319\n      jumpi\n        /* \"--CODEGEN--\":45:61   */\n      returndatasize\n        /* \"--CODEGEN--\":42:43   */\n      0x00\n        /* \"--CODEGEN--\":39:40   */\n      dup1\n        /* \"--CODEGEN--\":24:62   */\n      returndatacopy\n        /* \"--CODEGEN--\":77:93   */\n      returndatasize\n        /* \"--CODEGEN--\":74:75   */\n      0x00\n        /* \"--CODEGEN--\":67:94   */\n      revert\n        /* \"--CODEGEN--\":5:7   */\n    tag_319:\n        /* \"contracts/Prop.sol\":4270:4331  proposalList[numI].lender.transfer(proposalList[numI].amount) */\n      pop\n        /* \"contracts/Prop.sol\":3998:4368  if(proposalList[numI].state == ProposalState.ACCEPTED)... */\n    tag_311:\n      pop\n        /* \"contracts/Prop.sol\":3915:3918  i++ */\n      0x01\n      add\n        /* \"contracts/Prop.sol\":3863:4380  for(uint i = 0; i < loanList[loanId].proposalCount; i++)... */\n      jump(tag_296)\n    tag_297:\n      pop\n        /* \"contracts/Prop.sol\":3740:4421  if(loanList[loanId].state == LoanState.ACCEPTING)... */\n      jump(tag_199)\n    tag_292:\n        /* \"contracts/Prop.sol\":4414:4421  return; */\n      jump(tag_199)\n        /* \"contracts/Prop.sol\":5316:6341  function repayLoan(uint loanId) public payable {... */\n    tag_91:\n        /* \"contracts/Prop.sol\":5382:5397  block.timestamp */\n      timestamp\n        /* \"contracts/Prop.sol\":5371:5379  uint now */\n      0x00\n        /* \"contracts/Prop.sol\":5421:5442  getRepayValue(loanId) */\n      tag_322\n        /* \"contracts/Prop.sol\":5435:5441  loanId */\n      dup4\n        /* \"contracts/Prop.sol\":5421:5434  getRepayValue */\n      tag_35\n        /* \"contracts/Prop.sol\":5421:5442  getRepayValue(loanId) */\n      jump\t// in\n    tag_322:\n        /* \"contracts/Prop.sol\":5405:5442  uint toBePaid = getRepayValue(loanId) */\n      swap1\n      pop\n        /* \"contracts/Prop.sol\":5450:5459  uint time */\n      0x00\n        /* \"contracts/Prop.sol\":5462:5470  loanList */\n      0x01\n        /* \"contracts/Prop.sol\":5471:5477  loanId */\n      dup5\n        /* \"contracts/Prop.sol\":5462:5478  loanList[loanId] */\n      dup2\n      sload\n      dup2\n      lt\n      tag_323\n      jumpi\n      invalid\n    tag_323:\n      swap1\n      0x00\n      mstore\n      keccak256(0x00, 0x20)\n      swap1\n      0x08\n      mul\n      add\n        /* \"contracts/Prop.sol\":5462:5488  loanList[loanId].startDate */\n      0x05\n      add\n      sload\n        /* \"contracts/Prop.sol\":5450:5488  uint time = loanList[loanId].startDate */\n      swap1\n      pop\n        /* \"contracts/Prop.sol\":5496:5505  uint paid */\n      0x00\n        /* \"contracts/Prop.sol\":5508:5517  msg.value */\n      callvalue\n        /* \"contracts/Prop.sol\":5496:5517  uint paid = msg.value */\n      swap1\n      pop\n        /* \"contracts/Prop.sol\":5536:5544  toBePaid */\n      dup3\n        /* \"contracts/Prop.sol\":5528:5532  paid */\n      dup2\n        /* \"contracts/Prop.sol\":5528:5544  paid >= toBePaid */\n      lt\n        /* \"contracts/Prop.sol\":5525:6335  if(paid >= toBePaid)... */\n      tag_325\n      jumpi\n        /* \"contracts/Prop.sol\":5562:5573  uint remain */\n      0x00\n        /* \"contracts/Prop.sol\":5583:5591  toBePaid */\n      dup4\n        /* \"contracts/Prop.sol\":5576:5580  paid */\n      dup3\n        /* \"contracts/Prop.sol\":5576:5591  paid - toBePaid */\n      sub\n        /* \"contracts/Prop.sol\":5562:5591  uint remain = paid - toBePaid */\n      swap1\n      pop\n        /* \"contracts/Prop.sol\":5626:5646  LoanState.SUCCESSFUL */\n      0x02\n        /* \"contracts/Prop.sol\":5601:5609  loanList */\n      0x01\n        /* \"contracts/Prop.sol\":5610:5616  loanId */\n      dup8\n        /* \"contracts/Prop.sol\":5601:5617  loanList[loanId] */\n      dup2\n      sload\n      dup2\n      lt\n      tag_326\n      jumpi\n      invalid\n    tag_326:\n      0x00\n      swap2\n      dup3\n      mstore\n      0x20\n      swap1\n      swap2\n      keccak256\n      0x08\n      swap1\n      swap2\n      mul\n      add\n        /* \"contracts/Prop.sol\":5601:5646  loanList[loanId].state = LoanState.SUCCESSFUL */\n      dup1\n      sload\n      not(shl(0xa0, 0xff))\n      and\n      shl(0xa0, 0x01)\n      dup4\n      0x03\n      dup2\n      gt\n      iszero\n      tag_328\n      jumpi\n      invalid\n    tag_328:\n      mul\n      or\n      swap1\n      sstore\n      pop\n        /* \"contracts/Prop.sol\":5660:5666  uint i */\n      0x00\n        /* \"contracts/Prop.sol\":5656:6228  for(uint i = 0; i < loanList[loanId].proposalCount; i++)... */\n    tag_329:\n        /* \"contracts/Prop.sol\":5676:5684  loanList */\n      0x01\n        /* \"contracts/Prop.sol\":5685:5691  loanId */\n      dup8\n        /* \"contracts/Prop.sol\":5676:5692  loanList[loanId] */\n      dup2\n      sload\n      dup2\n      lt\n      tag_332\n      jumpi\n      invalid\n    tag_332:\n      swap1\n      0x00\n      mstore\n      keccak256(0x00, 0x20)\n      swap1\n      0x08\n      mul\n      add\n        /* \"contracts/Prop.sol\":5676:5706  loanList[loanId].proposalCount */\n      0x03\n      add\n      sload\n        /* \"contracts/Prop.sol\":5672:5673  i */\n      dup2\n        /* \"contracts/Prop.sol\":5672:5706  i < loanList[loanId].proposalCount */\n      lt\n        /* \"contracts/Prop.sol\":5656:6228  for(uint i = 0; i < loanList[loanId].proposalCount; i++)... */\n      iszero\n      tag_330\n      jumpi\n        /* \"contracts/Prop.sol\":5733:5742  uint numI */\n      0x00\n        /* \"contracts/Prop.sol\":5745:5753  loanList */\n      0x01\n        /* \"contracts/Prop.sol\":5754:5760  loanId */\n      dup9\n        /* \"contracts/Prop.sol\":5745:5761  loanList[loanId] */\n      dup2\n      sload\n      dup2\n      lt\n      tag_334\n      jumpi\n      invalid\n    tag_334:\n      0x00\n      swap2\n      dup3\n      mstore\n      0x20\n      dup1\n      dup4\n      keccak256\n        /* \"contracts/Prop.sol\":5745:5773  loanList[loanId].proposal[i] */\n      dup6\n      dup5\n      mstore\n        /* \"contracts/Prop.sol\":5745:5770  loanList[loanId].proposal */\n      0x07\n        /* \"contracts/Prop.sol\":5745:5761  loanList[loanId] */\n      0x08\n      swap1\n      swap4\n      mul\n      add\n        /* \"contracts/Prop.sol\":5745:5770  loanList[loanId].proposal */\n      swap2\n      swap1\n      swap2\n      add\n        /* \"contracts/Prop.sol\":5745:5773  loanList[loanId].proposal[i] */\n      swap1\n      mstore\n      0x40\n      swap1\n      keccak256\n      sload\n      swap1\n      pop\n        /* \"contracts/Prop.sol\":5816:5838  ProposalState.ACCEPTED */\n      0x01\n        /* \"contracts/Prop.sol\":5788:5800  proposalList */\n      0x02\n        /* \"contracts/Prop.sol\":5801:5805  numI */\n      dup3\n        /* \"contracts/Prop.sol\":5788:5806  proposalList[numI] */\n      dup2\n      sload\n      dup2\n      lt\n      tag_337\n      jumpi\n      invalid\n    tag_337:\n      0x00\n      swap2\n      dup3\n      mstore\n      0x20\n      swap1\n      swap2\n      keccak256\n        /* \"contracts/Prop.sol\":5788:5812  proposalList[numI].state */\n      0x02\n        /* \"contracts/Prop.sol\":5788:5806  proposalList[numI] */\n      0x05\n      swap1\n      swap3\n      mul\n      add\n        /* \"contracts/Prop.sol\":5788:5812  proposalList[numI].state */\n      dup2\n      add\n      sload\n      0xff\n      and\n      swap1\n        /* \"contracts/Prop.sol\":5788:5838  proposalList[numI].state == ProposalState.ACCEPTED */\n      dup2\n      gt\n      iszero\n      tag_339\n      jumpi\n      invalid\n    tag_339:\n      eq\n        /* \"contracts/Prop.sol\":5785:6218  if(proposalList[numI].state == ProposalState.ACCEPTED)... */\n      iszero\n      tag_340\n      jumpi\n        /* \"contracts/Prop.sol\":5864:5877  uint original */\n      0x00\n        /* \"contracts/Prop.sol\":5880:5892  proposalList */\n      0x02\n        /* \"contracts/Prop.sol\":5893:5897  numI */\n      dup3\n        /* \"contracts/Prop.sol\":5880:5898  proposalList[numI] */\n      dup2\n      sload\n      dup2\n      lt\n      tag_341\n      jumpi\n      invalid\n    tag_341:\n      swap1\n      0x00\n      mstore\n      keccak256(0x00, 0x20)\n      swap1\n      0x05\n      mul\n      add\n        /* \"contracts/Prop.sol\":5880:5905  proposalList[numI].amount */\n      0x04\n      add\n      sload\n        /* \"contracts/Prop.sol\":5864:5905  uint original = proposalList[numI].amount */\n      swap1\n      pop\n        /* \"contracts/Prop.sol\":5919:5928  uint rate */\n      0x00\n        /* \"contracts/Prop.sol\":5931:5943  proposalList */\n      0x02\n        /* \"contracts/Prop.sol\":5944:5948  numI */\n      dup4\n        /* \"contracts/Prop.sol\":5931:5949  proposalList[numI] */\n      dup2\n      sload\n      dup2\n      lt\n      tag_343\n      jumpi\n      invalid\n    tag_343:\n      swap1\n      0x00\n      mstore\n      keccak256(0x00, 0x20)\n      swap1\n      0x05\n      mul\n      add\n        /* \"contracts/Prop.sol\":5931:5954  proposalList[numI].rate */\n      0x03\n      add\n      sload\n        /* \"contracts/Prop.sol\":5919:5954  uint rate = proposalList[numI].rate */\n      swap1\n      pop\n        /* \"contracts/Prop.sol\":5968:5981  uint interest */\n      0x00\n        /* \"contracts/Prop.sol\":6014:6030  365*24*60*60*100 */\n      0xbbf81e00\n        /* \"contracts/Prop.sol\":6006:6010  time */\n      dup9\n        /* \"contracts/Prop.sol\":6000:6003  now */\n      dup12\n        /* \"contracts/Prop.sol\":6000:6010  now - time */\n      sub\n        /* \"contracts/Prop.sol\":5994:5998  rate */\n      dup4\n        /* \"contracts/Prop.sol\":5985:5993  original */\n      dup6\n        /* \"contracts/Prop.sol\":5985:5998  original*rate */\n      mul\n        /* \"contracts/Prop.sol\":5985:6011  original*rate*(now - time) */\n      mul\n        /* \"contracts/Prop.sol\":5984:6031  (original*rate*(now - time))/(365*24*60*60*100) */\n      dup2\n      tag_345\n      jumpi\n      invalid\n    tag_345:\n      div\n        /* \"contracts/Prop.sol\":5968:6031  uint interest = (original*rate*(now - time))/(365*24*60*60*100) */\n      swap1\n      pop\n        /* \"contracts/Prop.sol\":6045:6061  uint finalamount */\n      0x00\n        /* \"contracts/Prop.sol\":6075:6083  original */\n      dup4\n        /* \"contracts/Prop.sol\":6064:6072  interest */\n      dup3\n        /* \"contracts/Prop.sol\":6064:6083  interest + original */\n      add\n        /* \"contracts/Prop.sol\":6045:6083  uint finalamount = interest + original */\n      swap1\n      pop\n        /* \"contracts/Prop.sol\":6097:6109  proposalList */\n      0x02\n        /* \"contracts/Prop.sol\":6110:6114  numI */\n      dup6\n        /* \"contracts/Prop.sol\":6097:6115  proposalList[numI] */\n      dup2\n      sload\n      dup2\n      lt\n      tag_346\n      jumpi\n      invalid\n    tag_346:\n      0x00\n      swap2\n      dup3\n      mstore\n      0x20\n      dup3\n      keccak256\n      0x05\n      swap1\n      swap2\n      mul\n      add\n        /* \"contracts/Prop.sol\":6097:6122  proposalList[numI].lender */\n      sload\n        /* \"contracts/Prop.sol\":6097:6144  proposalList[numI].lender.transfer(finalamount) */\n      mload(0x40)\n      sub(shl(0xa0, 0x01), 0x01)\n        /* \"contracts/Prop.sol\":6097:6122  proposalList[numI].lender */\n      swap1\n      swap2\n      and\n      swap2\n        /* \"contracts/Prop.sol\":6097:6144  proposalList[numI].lender.transfer(finalamount) */\n      dup4\n      iszero\n      0x08fc\n      mul\n      swap2\n        /* \"contracts/Prop.sol\":6132:6143  finalamount */\n      dup5\n      swap2\n        /* \"contracts/Prop.sol\":6097:6144  proposalList[numI].lender.transfer(finalamount) */\n      dup2\n        /* \"contracts/Prop.sol\":6097:6115  proposalList[numI] */\n      dup2\n        /* \"contracts/Prop.sol\":6097:6144  proposalList[numI].lender.transfer(finalamount) */\n      dup2\n        /* \"contracts/Prop.sol\":6132:6143  finalamount */\n      dup6\n        /* \"contracts/Prop.sol\":6097:6122  proposalList[numI].lender */\n      dup9\n        /* \"contracts/Prop.sol\":6097:6144  proposalList[numI].lender.transfer(finalamount) */\n      dup9\n      call\n      swap4\n      pop\n      pop\n      pop\n      pop\n      iszero\n        /* \"--CODEGEN--\":8:17   */\n      dup1\n        /* \"--CODEGEN--\":5:7   */\n      iszero\n      tag_348\n      jumpi\n        /* \"--CODEGEN--\":45:61   */\n      returndatasize\n        /* \"--CODEGEN--\":42:43   */\n      0x00\n        /* \"--CODEGEN--\":39:40   */\n      dup1\n        /* \"--CODEGEN--\":24:62   */\n      returndatacopy\n        /* \"--CODEGEN--\":77:93   */\n      returndatasize\n        /* \"--CODEGEN--\":74:75   */\n      0x00\n        /* \"--CODEGEN--\":67:94   */\n      revert\n        /* \"--CODEGEN--\":5:7   */\n    tag_348:\n        /* \"contracts/Prop.sol\":6097:6144  proposalList[numI].lender.transfer(finalamount) */\n      pop\n        /* \"contracts/Prop.sol\":6185:6205  ProposalState.REPAID */\n      0x02\n        /* \"contracts/Prop.sol\":6158:6170  proposalList */\n      dup1\n        /* \"contracts/Prop.sol\":6171:6175  numI */\n      dup7\n        /* \"contracts/Prop.sol\":6158:6176  proposalList[numI] */\n      dup2\n      sload\n      dup2\n      lt\n      tag_349\n      jumpi\n      invalid\n    tag_349:\n      swap1\n      0x00\n      mstore\n      keccak256(0x00, 0x20)\n      swap1\n      0x05\n      mul\n      add\n        /* \"contracts/Prop.sol\":6158:6182  proposalList[numI].state */\n      0x02\n      add\n      0x00\n        /* \"contracts/Prop.sol\":6158:6205  proposalList[numI].state = ProposalState.REPAID */\n      0x0100\n      exp\n      dup2\n      sload\n      dup2\n      0xff\n      mul\n      not\n      and\n      swap1\n      dup4\n      0x02\n      dup2\n      gt\n      iszero\n      tag_351\n      jumpi\n      invalid\n    tag_351:\n      mul\n      or\n      swap1\n      sstore\n      pop\n        /* \"contracts/Prop.sol\":5785:6218  if(proposalList[numI].state == ProposalState.ACCEPTED)... */\n      pop\n      pop\n      pop\n      pop\n    tag_340:\n      pop\n        /* \"contracts/Prop.sol\":5708:5711  i++ */\n      0x01\n      add\n        /* \"contracts/Prop.sol\":5656:6228  for(uint i = 0; i < loanList[loanId].proposalCount; i++)... */\n      jump(tag_329)\n    tag_330:\n      pop\n        /* \"contracts/Prop.sol\":6237:6264  msg.sender.transfer(remain) */\n      mload(0x40)\n        /* \"contracts/Prop.sol\":6237:6247  msg.sender */\n      caller\n      swap1\n        /* \"contracts/Prop.sol\":6237:6264  msg.sender.transfer(remain) */\n      dup3\n      iszero\n      0x08fc\n      mul\n      swap1\n        /* \"contracts/Prop.sol\":6257:6263  remain */\n      dup4\n      swap1\n        /* \"contracts/Prop.sol\":6237:6264  msg.sender.transfer(remain) */\n      0x00\n      dup2\n      dup2\n      dup2\n        /* \"contracts/Prop.sol\":6257:6263  remain */\n      dup6\n        /* \"contracts/Prop.sol\":6237:6247  msg.sender */\n      dup9\n        /* \"contracts/Prop.sol\":6237:6264  msg.sender.transfer(remain) */\n      dup9\n      call\n      swap4\n      pop\n      pop\n      pop\n      pop\n      iszero\n        /* \"--CODEGEN--\":8:17   */\n      dup1\n        /* \"--CODEGEN--\":5:7   */\n      iszero\n      tag_352\n      jumpi\n        /* \"--CODEGEN--\":45:61   */\n      returndatasize\n        /* \"--CODEGEN--\":42:43   */\n      0x00\n        /* \"--CODEGEN--\":39:40   */\n      dup1\n        /* \"--CODEGEN--\":24:62   */\n      returndatacopy\n        /* \"--CODEGEN--\":77:93   */\n      returndatasize\n        /* \"--CODEGEN--\":74:75   */\n      0x00\n        /* \"--CODEGEN--\":67:94   */\n      revert\n        /* \"--CODEGEN--\":5:7   */\n    tag_352:\n        /* \"contracts/Prop.sol\":6237:6264  msg.sender.transfer(remain) */\n      pop\n        /* \"contracts/Prop.sol\":5525:6335  if(paid >= toBePaid)... */\n      pop\n      jump(tag_353)\n    tag_325:\n        /* \"contracts/Prop.sol\":6301:6326  msg.sender.transfer(paid) */\n      mload(0x40)\n        /* \"contracts/Prop.sol\":6301:6311  msg.sender */\n      caller\n      swap1\n        /* \"contracts/Prop.sol\":6301:6326  msg.sender.transfer(paid) */\n      dup3\n      iszero\n      0x08fc\n      mul\n      swap1\n        /* \"contracts/Prop.sol\":6321:6325  paid */\n      dup4\n      swap1\n        /* \"contracts/Prop.sol\":6301:6326  msg.sender.transfer(paid) */\n      0x00\n      dup2\n      dup2\n      dup2\n        /* \"contracts/Prop.sol\":6321:6325  paid */\n      dup6\n        /* \"contracts/Prop.sol\":6301:6311  msg.sender */\n      dup9\n        /* \"contracts/Prop.sol\":6301:6326  msg.sender.transfer(paid) */\n      dup9\n      call\n      swap4\n      pop\n      pop\n      pop\n      pop\n      iszero\n        /* \"--CODEGEN--\":8:17   */\n      dup1\n        /* \"--CODEGEN--\":5:7   */\n      iszero\n      tag_354\n      jumpi\n        /* \"--CODEGEN--\":45:61   */\n      returndatasize\n        /* \"--CODEGEN--\":42:43   */\n      0x00\n        /* \"--CODEGEN--\":39:40   */\n      dup1\n        /* \"--CODEGEN--\":24:62   */\n      returndatacopy\n        /* \"--CODEGEN--\":77:93   */\n      returndatasize\n        /* \"--CODEGEN--\":74:75   */\n      0x00\n        /* \"--CODEGEN--\":67:94   */\n      revert\n        /* \"--CODEGEN--\":5:7   */\n    tag_354:\n        /* \"contracts/Prop.sol\":6301:6326  msg.sender.transfer(paid) */\n      pop\n        /* \"contracts/Prop.sol\":5525:6335  if(paid >= toBePaid)... */\n    tag_353:\n        /* \"contracts/Prop.sol\":5316:6341  function repayLoan(uint loanId) public payable {... */\n      pop\n      pop\n      pop\n      pop\n      pop\n      jump\t// out\n        /* \"contracts/Prop.sol\":6917:7031  function totalProposalsBy(address lender) public view returns(uint) {... */\n    tag_95:\n      sub(shl(0xa0, 0x01), 0x01)\n        /* \"contracts/Prop.sol\":7002:7017  lendMap[lender] */\n      and\n        /* \"contracts/Prop.sol\":6979:6983  uint */\n      0x00\n        /* \"contracts/Prop.sol\":7002:7017  lendMap[lender] */\n      swap1\n      dup2\n      mstore\n        /* \"contracts/Prop.sol\":7002:7009  lendMap */\n      0x04\n        /* \"contracts/Prop.sol\":7002:7017  lendMap[lender] */\n      0x20\n      mstore\n      0x40\n      swap1\n      keccak256\n        /* \"contracts/Prop.sol\":7002:7024  lendMap[lender].length */\n      sload\n      swap1\n        /* \"contracts/Prop.sol\":6917:7031  function totalProposalsBy(address lender) public view returns(uint) {... */\n      jump\t// out\n        /* \"contracts/Prop.sol\":7899:8167  function getLastLoanState(address borrower) public view returns(LoanState) {... */\n    tag_99:\n      sub(shl(0xa0, 0x01), 0x01)\n        /* \"contracts/Prop.sol\":8002:8019  loanMap[borrower] */\n      dup2\n      and\n        /* \"contracts/Prop.sol\":7963:7972  LoanState */\n      0x00\n        /* \"contracts/Prop.sol\":8002:8019  loanMap[borrower] */\n      swap1\n      dup2\n      mstore\n        /* \"contracts/Prop.sol\":8002:8009  loanMap */\n      0x03\n        /* \"contracts/Prop.sol\":8002:8019  loanMap[borrower] */\n      0x20\n      mstore\n      0x40\n      dup2\n      keccak256\n        /* \"contracts/Prop.sol\":8002:8026  loanMap[borrower].length */\n      sload\n        /* \"contracts/Prop.sol\":8039:8054  loanLength == 0 */\n      dup1\n        /* \"contracts/Prop.sol\":8036:8095  if(loanLength == 0)... */\n      tag_357\n      jumpi\n        /* \"contracts/Prop.sol\":8075:8095  LoanState.SUCCESSFUL */\n      0x02\n        /* \"contracts/Prop.sol\":8068:8095  return LoanState.SUCCESSFUL */\n      swap2\n      pop\n      pop\n      jump(tag_150)\n        /* \"contracts/Prop.sol\":8036:8095  if(loanLength == 0)... */\n    tag_357:\n      sub(shl(0xa0, 0x01), 0x01)\n        /* \"contracts/Prop.sol\":8121:8138  loanMap[borrower] */\n      dup4\n      and\n      0x00\n      swap1\n      dup2\n      mstore\n        /* \"contracts/Prop.sol\":8121:8128  loanMap */\n      0x03\n        /* \"contracts/Prop.sol\":8121:8138  loanMap[borrower] */\n      0x20\n      mstore\n      0x40\n      swap1\n      keccak256\n        /* \"contracts/Prop.sol\":8121:8153  loanMap[borrower][loanLength -1] */\n      dup1\n      sload\n        /* \"contracts/Prop.sol\":8112:8120  loanList */\n      0x01\n      swap2\n        /* \"contracts/Prop.sol\":8121:8138  loanMap[borrower] */\n      swap1\n      not(0x00)\n        /* \"contracts/Prop.sol\":8139:8152  loanLength -1 */\n      dup5\n      add\n      swap1\n        /* \"contracts/Prop.sol\":8121:8153  loanMap[borrower][loanLength -1] */\n      dup2\n      lt\n      tag_358\n      jumpi\n      invalid\n    tag_358:\n      swap1\n      0x00\n      mstore\n      keccak256(0x00, 0x20)\n      add\n      sload\n        /* \"contracts/Prop.sol\":8112:8154  loanList[loanMap[borrower][loanLength -1]] */\n      dup2\n      sload\n      dup2\n      lt\n      tag_360\n      jumpi\n      invalid\n    tag_360:\n      0x00\n      swap2\n      dup3\n      mstore\n      0x20\n      swap1\n      swap2\n      keccak256\n      0x08\n      swap1\n      swap2\n      mul\n      add\n        /* \"contracts/Prop.sol\":8112:8160  loanList[loanMap[borrower][loanLength -1]].state */\n      sload\n      shl(0xa0, 0x01)\n      swap1\n      div\n      0xff\n      and\n      swap4\n        /* \"contracts/Prop.sol\":7899:8167  function getLastLoanState(address borrower) public view returns(LoanState) {... */\n      swap3\n      pop\n      pop\n      pop\n      jump\t// out\n        /* \"contracts/Prop.sol\":712:742  Proposal[] public proposalList */\n    tag_104:\n      0x02\n      dup2\n      dup2\n      sload\n      dup2\n      lt\n      tag_362\n      jumpi\n      invalid\n    tag_362:\n      0x00\n      swap2\n      dup3\n      mstore\n      0x20\n      swap1\n      swap2\n      keccak256\n      0x05\n      swap1\n      swap2\n      mul\n      add\n      dup1\n      sload\n      0x01\n      dup3\n      add\n      sload\n      0x02\n      dup4\n      add\n      sload\n      0x03\n      dup5\n      add\n      sload\n      0x04\n      swap1\n      swap5\n      add\n      sload\n      sub(shl(0xa0, 0x01), 0x01)\n      swap1\n      swap4\n      and\n      swap5\n      pop\n      swap1\n      swap3\n      0xff\n      swap1\n      swap2\n      and\n      swap2\n      dup6\n      jump\t// out\n        /* \"contracts/Prop.sol\":7465:7579  function totalLoansBy(address borrower) public view returns(uint) {... */\n    tag_109:\n      sub(shl(0xa0, 0x01), 0x01)\n        /* \"contracts/Prop.sol\":7548:7565  loanMap[borrower] */\n      and\n        /* \"contracts/Prop.sol\":7525:7529  uint */\n      0x00\n        /* \"contracts/Prop.sol\":7548:7565  loanMap[borrower] */\n      swap1\n      dup2\n      mstore\n        /* \"contracts/Prop.sol\":7548:7555  loanMap */\n      0x03\n        /* \"contracts/Prop.sol\":7548:7565  loanMap[borrower] */\n      0x20\n      mstore\n      0x40\n      swap1\n      keccak256\n        /* \"contracts/Prop.sol\":7548:7572  loanMap[borrower].length */\n      sload\n      swap1\n        /* \"contracts/Prop.sol\":7465:7579  function totalLoansBy(address borrower) public view returns(uint) {... */\n      jump\t// out\n        /* \"contracts/Prop.sol\":795:835  mapping (address=>uint[]) public lendMap */\n    tag_113:\n      mstore(0x20, 0x04)\n      dup2\n      0x00\n      mstore\n      keccak256(0x00, 0x40)\n      dup2\n      dup2\n      sload\n      dup2\n      lt\n      tag_151\n      jumpi\n      invalid\n        /* \"contracts/Prop.sol\":1322:1649  function newLoan(uint amount, uint dueDate, bytes32 mortgage) public {... */\n    tag_117:\n        /* \"contracts/Prop.sol\":1404:1429  hasActiveLoan(msg.sender) */\n      tag_368\n        /* \"contracts/Prop.sol\":1418:1428  msg.sender */\n      caller\n        /* \"contracts/Prop.sol\":1404:1417  hasActiveLoan */\n      tag_46\n        /* \"contracts/Prop.sol\":1404:1429  hasActiveLoan(msg.sender) */\n      jump\t// in\n    tag_368:\n        /* \"contracts/Prop.sol\":1401:1438  if(hasActiveLoan(msg.sender)) return; */\n      iszero\n      tag_369\n      jumpi\n        /* \"contracts/Prop.sol\":1431:1438  return; */\n      jump(tag_268)\n        /* \"contracts/Prop.sol\":1401:1438  if(hasActiveLoan(msg.sender)) return; */\n    tag_369:\n        /* \"contracts/Prop.sol\":1505:1588  Loan(msg.sender, LoanState.ACCEPTING, dueDate, amount, 0, 0, currentDate, mortgage) */\n      0x40\n      dup1\n      mload\n      0x0100\n      dup2\n      add\n      dup3\n      mstore\n        /* \"contracts/Prop.sol\":1510:1520  msg.sender */\n      caller\n        /* \"contracts/Prop.sol\":1505:1588  Loan(msg.sender, LoanState.ACCEPTING, dueDate, amount, 0, 0, currentDate, mortgage) */\n      dup2\n      mstore\n      0x00\n      0x20\n      dup3\n      add\n      dup2\n      dup2\n      mstore\n      swap3\n      dup3\n      add\n      dup6\n      swap1\n      mstore\n      0x60\n      dup3\n      add\n      dup7\n      swap1\n      mstore\n      0x80\n      dup3\n      add\n      dup2\n      swap1\n      mstore\n      0xa0\n      dup3\n      add\n      dup2\n      swap1\n      mstore\n        /* \"contracts/Prop.sol\":1466:1481  block.timestamp */\n      timestamp\n        /* \"contracts/Prop.sol\":1505:1588  Loan(msg.sender, LoanState.ACCEPTING, dueDate, amount, 0, 0, currentDate, mortgage) */\n      0xc0\n      dup4\n      add\n      dup2\n      swap1\n      mstore\n      0xe0\n      dup4\n      add\n      dup6\n      swap1\n      mstore\n        /* \"contracts/Prop.sol\":1491:1499  loanList */\n      0x01\n        /* \"--CODEGEN--\":27:37   */\n      dup1\n      sload\n        /* \"--CODEGEN--\":23:41   */\n      dup1\n      dup3\n      add\n        /* \"--CODEGEN--\":45:68   */\n      dup1\n      dup4\n      sstore\n        /* \"contracts/Prop.sol\":1491:1589  loanList.push(Loan(msg.sender, LoanState.ACCEPTING, dueDate, amount, 0, 0, currentDate, mortgage)) */\n      swap2\n      swap1\n      swap4\n      mstore\n      dup4\n      mload\n      0x08\n      swap1\n      swap4\n      mul\n      0xb10e2d527612073b26eecdfd717e6a320cf44b4afac2b0732d9fcbe2b7fa0cf6\n      add\n      dup1\n      sload\n      sub(shl(0xa0, 0x01), 0x01)\n      swap1\n      swap5\n      and\n      not(sub(shl(0xa0, 0x01), 0x01))\n      swap1\n      swap5\n      and\n      swap4\n      swap1\n      swap4\n      or\n      dup1\n      dup5\n      sstore\n      swap5\n      mload\n        /* \"contracts/Prop.sol\":1466:1481  block.timestamp */\n      swap2\n      swap5\n        /* \"--CODEGEN--\":23:41   */\n      swap1\n      swap4\n        /* \"contracts/Prop.sol\":1505:1588  Loan(msg.sender, LoanState.ACCEPTING, dueDate, amount, 0, 0, currentDate, mortgage) */\n      swap3\n        /* \"contracts/Prop.sol\":1491:1589  loanList.push(Loan(msg.sender, LoanState.ACCEPTING, dueDate, amount, 0, 0, currentDate, mortgage)) */\n      swap2\n      swap1\n      dup3\n      swap1\n      not(shl(0xa0, 0xff))\n      and\n      shl(0xa0, 0x01)\n      dup4\n      0x03\n      dup2\n      gt\n      iszero\n      tag_372\n      jumpi\n      invalid\n    tag_372:\n      mul\n      or\n      swap1\n      sstore\n      pop\n      0x40\n      dup3\n      dup2\n      add\n      mload\n      0x01\n      dup1\n      dup5\n      add\n      swap2\n      swap1\n      swap2\n      sstore\n      0x60\n      dup5\n      add\n      mload\n      0x02\n      dup5\n      add\n      sstore\n      0x80\n      dup5\n      add\n      mload\n      0x03\n      dup1\n      dup6\n      add\n      swap2\n      swap1\n      swap2\n      sstore\n      0xa0\n      dup6\n      add\n      mload\n      0x04\n      dup6\n      add\n      sstore\n      0xc0\n      dup6\n      add\n      mload\n      0x05\n      dup6\n      add\n      sstore\n      0xe0\n      swap1\n      swap5\n      add\n      mload\n      0x06\n      swap1\n      swap4\n      add\n      swap3\n      swap1\n      swap3\n      sstore\n        /* \"contracts/Prop.sol\":1607:1617  msg.sender */\n      caller\n      0x00\n        /* \"contracts/Prop.sol\":1599:1618  loanMap[msg.sender] */\n      swap1\n      dup2\n      mstore\n      0x20\n      swap4\n      dup5\n      mstore\n      swap1\n      dup2\n      keccak256\n        /* \"contracts/Prop.sol\":1624:1639  loanList.length */\n      dup3\n      sload\n        /* \"--CODEGEN--\":27:37   */\n      dup2\n      sload\n        /* \"--CODEGEN--\":23:41   */\n      swap4\n      dup5\n      add\n        /* \"--CODEGEN--\":45:68   */\n      dup3\n      sstore\n        /* \"contracts/Prop.sol\":1599:1642  loanMap[msg.sender].push(loanList.length-1) */\n      swap1\n      dup3\n      mstore\n      swap3\n      swap1\n      keccak256\n      not(0x00)\n        /* \"contracts/Prop.sol\":1624:1641  loanList.length-1 */\n      swap3\n      swap1\n      swap3\n      add\n        /* \"contracts/Prop.sol\":1599:1642  loanMap[msg.sender].push(loanList.length-1) */\n      swap2\n      add\n      sstore\n      pop\n      pop\n        /* \"contracts/Prop.sol\":1322:1649  function newLoan(uint amount, uint dueDate, bytes32 mortgage) public {... */\n      pop\n      pop\n      pop\n      jump\t// out\n\n    auxdata: 0xa265627a7a7231582066feb74321b64ce80f640743d3bad9d1e3438ea6a0c73233b8c990756e673f6064736f6c63430005110032\n}\n",
				"bytecode": {
					"linkReferences": {},
					"object": "608060405234801561001057600080fd5b50600080546001600160a01b03191633179055611be4806100326000396000f3fe6080604052600436106101355760003560e01c80638da5cb5b116100ab578063ac51ba961161006f578063ac51ba96146105c1578063bad9e65a146105f4578063c6311e3f1461064b578063e24afbb6146106c7578063faa72d63146106fa578063fccd238c1461073357610135565b80638da5cb5b146104ec578063983256561461051d5780639ce9cc5614610550578063a180f61b1461057a578063ab7b1c89146105a457610135565b8063277411d2116100fd578063277411d21461029957806360c5cc3a1461033957806363e84648146103635780637621710c146103dc5780638a190636146104645780638cad507d146104d757610135565b8063052065df1461013a5780630b278f72146101b85780631594a313146101f45780631801f00f1461022d57806321d4f8db14610252575b600080fd5b34801561014657600080fd5b506101736004803603604081101561015d57600080fd5b506001600160a01b038135169060200135610769565b6040518087600381111561018357fe5b60ff1681526020810196909652506040808601949094526060850192909252608084015260a0830152519081900360c0019150f35b3480156101c457600080fd5b506101e2600480360360208110156101db57600080fd5b5035610843565b60408051918252519081900360200190f35b34801561020057600080fd5b506101e26004803603604081101561021757600080fd5b506001600160a01b0381351690602001356109b2565b6102506004803603604081101561024357600080fd5b50803590602001356109e0565b005b34801561025e57600080fd5b506102856004803603602081101561027557600080fd5b50356001600160a01b0316610c17565b604080519115158252519081900360200190f35b3480156102a557600080fd5b506102d2600480360360408110156102bc57600080fd5b506001600160a01b038135169060200135610d28565b60405180896001600160a01b03166001600160a01b0316815260200188815260200187600281111561030057fe5b60ff1681526020018681526020018581526020018481526020018381526020018281526020019850505050505050505060405180910390f35b34801561034557600080fd5b506102506004803603602081101561035c57600080fd5b5035610e42565b34801561036f57600080fd5b506103936004803603604081101561038657600080fd5b5080359060200135610f75565b604051808660028111156103a357fe5b60ff16815260208101959095525060408085019390935260608401919091526001600160a01b03166080830152519081900360a0019150f35b3480156103e857600080fd5b50610406600480360360208110156103ff57600080fd5b5035611030565b6040516001600160a01b03891681526020810188600381111561042557fe5b60ff1681526020018781526020018681526020018581526020018481526020018381526020018281526020019850505050505050505060405180910390f35b34801561047057600080fd5b506104976004803603602081101561048757600080fd5b50356001600160a01b0316611092565b604051808660038111156104a757fe5b60ff1681526020018581526020018481526020018381526020018281526020019550505050505060405180910390f35b3480156104e357600080fd5b506101e2611121565b3480156104f857600080fd5b50610501611127565b604080516001600160a01b039092168252519081900360200190f35b34801561052957600080fd5b506101e26004803603602081101561054057600080fd5b50356001600160a01b0316611136565b34801561055c57600080fd5b506102506004803603602081101561057357600080fd5b50356111eb565b34801561058657600080fd5b506102506004803603602081101561059d57600080fd5b5035611486565b610250600480360360208110156105ba57600080fd5b50356116bb565b3480156105cd57600080fd5b506101e2600480360360208110156105e457600080fd5b50356001600160a01b031661193e565b34801561060057600080fd5b506106276004803603602081101561061757600080fd5b50356001600160a01b0316611959565b6040518082600381111561063757fe5b60ff16815260200191505060405180910390f35b34801561065757600080fd5b506106756004803603602081101561066e57600080fd5b50356119e4565b60405180866001600160a01b03166001600160a01b031681526020018581526020018460028111156106a357fe5b60ff1681526020018381526020018281526020019550505050505060405180910390f35b3480156106d357600080fd5b506101e2600480360360208110156106ea57600080fd5b50356001600160a01b0316611a30565b34801561070657600080fd5b506101e26004803603604081101561071d57600080fd5b506001600160a01b038135169060200135611a4b565b34801561073f57600080fd5b506102506004803603606081101561075657600080fd5b5080359060208101359060400135611a64565b60008060008060008060006001600360008b6001600160a01b03166001600160a01b0316815260200190815260200160002089815481106107a657fe5b9060005260206000200154815481106107bb57fe5b906000526020600020906008020190508060000160149054906101000a900460ff16816001015482600201548360040154600360008e6001600160a01b03166001600160a01b031681526020019081526020016000208c8154811061081c57fe5b90600052602060002001548560060154965096509650965096509650509295509295509295565b6000600180838154811061085357fe5b6000918252602090912060089091020154600160a01b900460ff16600381111561087957fe5b14156109a25760006001838154811061088e57fe5b600091825260208220600560089092020101549150805b600185815481106108b257fe5b906000526020600020906008020160030154811015610998576000600186815481106108da57fe5b6000918252602080832085845260076008909302019190910190526040902054905060016002828154811061090b57fe5b60009182526020909120600260059092020181015460ff169081111561092d57fe5b141561098f5760006002828154811061094257fe5b906000526020600020906005020160040154905060006002838154811061096557fe5b600091825260209091206003600590920201015463bbf81e00908302428890030204949094010192505b506001016108a5565b5091506109ad9050565b5067ffffffffffffffff5b919050565b600360205281600052604060002081815481106109cb57fe5b90600052602060002001600091509150505481565b60006001600160a01b0316600183815481106109f857fe5b60009182526020909120600890910201546001600160a01b03161480610a515750600060018381548110610a2857fe5b6000918252602090912060089091020154600160a01b900460ff166003811115610a4e57fe5b14155b15610a5b57610c13565b6040805160a081018252338152602081018481526000928201838152606083018590523460808401526002805460018082018084559683905285517f405787fa12a823e0f2b7631cc41b3ba8828b3321ca811111fa75cd3aa3bb5ace600590930292830180546001600160a01b0319166001600160a01b0390921691909117815594517f405787fa12a823e0f2b7631cc41b3ba8828b3321ca811111fa75cd3aa3bb5acf83015592517f405787fa12a823e0f2b7631cc41b3ba8828b3321ca811111fa75cd3aa3bb5ad090910180549193909260ff19909216918490811115610b4057fe5b02179055506060820151600382015560809091015160049182015533600090815260209182526040812060025481546001818101845592845293909220600019929092019190920155805490915083908110610b9857fe5b60009182526020909120600360089092020101805460019081019091556002548154600019909101919084908110610bcc57fe5b906000526020600020906008020160070160006001808681548110610bed57fe5b906000526020600020906008020160030154038152602001908152602001600020819055505b5050565b6001600160a01b03811660009081526003602052604081205480610c3f5760009150506109ad565b6001600160a01b03831660009081526003602052604081208054600191906000198501908110610c6b57fe5b906000526020600020015481548110610c8057fe5b6000918252602082206008909102019150600180840381548110610ca057fe5b6000918252602090912060089091020154600160a01b900460ff166003811115610cc657fe5b1415610cd7576001925050506109ad565b60018080840381548110610ce757fe5b6000918252602090912060089091020154600160a01b900460ff166003811115610d0d57fe5b1415610d1e576001925050506109ad565b5060009392505050565b60008060008060008060008060006002600460008d6001600160a01b03166001600160a01b031681526020019081526020016000208b81548110610d6857fe5b906000526020600020015481548110610d7d57fe5b60009182526020909120600590910201805460018083015460028401546003850154600486015484549697506001600160a01b0390951695929460ff90921693909285908110610dc957fe5b9060005260206000209060080201600201546001876001015481548110610dec57fe5b9060005260206000209060080201600101546001886001015481548110610e0f57fe5b90600052602060002090600802016006015487975098509850985098509850985098509850509295985092959890939650565b6000610e4d33611136565b90508067ffffffffffffffff1415610e655750610f72565b600060028381548110610e7457fe5b600091825260208220600590910201915060028083015460ff1690811115610e9857fe5b14610ea4575050610f72565b600060018381548110610eb357fe5b60009182526020822060089091020191508154600160a01b900460ff166003811115610edb57fe5b14610ee857505050610f72565b8060020154826004015482600401540111610f6e57816004015460018481548110610f0f57fe5b906000526020600020906008020160040160008282540192505081905550600160028581548110610f3c57fe5b906000526020600020906005020160020160006101000a81548160ff02191690836002811115610f6857fe5b02179055505b5050505b50565b600080600080600080600260018981548110610f8d57fe5b906000526020600020906008020160070160008981526020019081526020016000205481548110610fba57fe5b906000526020600020906005020190508060020160009054906101000a900460ff168160030154826004015460018b81548110610ff357fe5b600091825260208083209c8352600891909102909b01600701909a526040909920549254919a9099509196506001600160a01b0316945092505050565b6001818154811061103d57fe5b600091825260209091206008909102018054600182015460028301546003840154600485015460058601546006909601546001600160a01b0386169750600160a01b90950460ff169593949293919290919088565b6001600160a01b03811660009081526003602052604081208054829182918291829190829060019060001984018481106110c857fe5b9060005260206000200154815481106110dd57fe5b600091825260209091206008909102018054600182015460028301546003840154600490940154600160a01b90930460ff169c919b50995091975095509350505050565b60015490565b6000546001600160a01b031681565b6001600160a01b038116600090815260036020526040812054806111655767ffffffffffffffff9150506109ad565b6001600160a01b03831660009081526003602052604081208054600019840190811061118d57fe5b60009182526020822001549150600182815481106111a757fe5b6000918252602090912060089091020154600160a01b900460ff1660038111156111cd57fe5b146111e45767ffffffffffffffff925050506109ad565b9392505050565b33600090815260046020526040812080548390811061120657fe5b600091825260208220015491506002828154811061122057fe5b60009182526020909120600260059092020181015460ff169081111561124257fe5b1461124d5750610f72565b60006002828154811061125c57fe5b6000918252602082206001600590920201015491506001828154811061127e57fe5b6000918252602090912060089091020154600160a01b900460ff1660038111156112a457fe5b14156113465760028083815481106112b857fe5b906000526020600020906005020160020160006101000a81548160ff021916908360028111156112e457fe5b0217905550336001600160a01b03166108fc6002848154811061130357fe5b9060005260206000209060050201600401549081150290604051600060405180830381858888f19350505050158015611340573d6000803e3d6000fd5b50611481565b600180828154811061135457fe5b6000918252602090912060089091020154600160a01b900460ff16600381111561137a57fe5b141561148157426001828154811061138e57fe5b90600052602060002090600802016001015410156113ad575050610f72565b6003600182815481106113bc57fe5b60009182526020909120600890910201805460ff60a01b1916600160a01b8360038111156113e657fe5b021790555060005b600182815481106113fb57fe5b906000526020600020906008020160030154811015610f6e5760006001838154811061142357fe5b6000918252602080832085845260076008909302019190910190526040902054905060016002828154811061145457fe5b60009182526020909120600260059092020181015460ff169081111561147657fe5b5050506001016113ee565b505050565b60006001828154811061149557fe5b6000918252602090912060089091020154600160a01b900460ff1660038111156114bb57fe5b14156116b65760018082815481106114cf57fe5b60009182526020909120600890910201805460ff60a01b1916600160a01b8360038111156114f957fe5b021790555060005b6001828154811061150e57fe5b9060005260206000209060080201600301548110156116b05760006001838154811061153657fe5b6000918252602080832085845260076008909302019190910190526040902054905060016002828154811061156757fe5b60009182526020909120600260059092020181015460ff169081111561158957fe5b14156115ec57336001600160a01b03166108fc600283815481106115a957fe5b9060005260206000209060050201600401549081150290604051600060405180830381858888f193505050501580156115e6573d6000803e3d6000fd5b506116a7565b60028082815481106115fa57fe5b906000526020600020906005020160020160006101000a81548160ff0219169083600281111561162657fe5b02179055506002818154811061163857fe5b6000918252602090912060059091020154600280546001600160a01b03909216916108fc91908490811061166857fe5b9060005260206000209060050201600401549081150290604051600060405180830381858888f193505050501580156116a5573d6000803e3d6000fd5b505b50600101611501565b50610f72565b610f72565b4260006116c783610843565b90506000600184815481106116d857fe5b90600052602060002090600802016005015490506000349050828110611908576000838203905060026001878154811061170e57fe5b60009182526020909120600890910201805460ff60a01b1916600160a01b83600381111561173857fe5b021790555060005b6001878154811061174d57fe5b9060005260206000209060080201600301548110156118d35760006001888154811061177557fe5b600091825260208083208584526007600890930201919091019052604090205490506001600282815481106117a657fe5b60009182526020909120600260059092020181015460ff16908111156117c857fe5b14156118ca576000600282815481106117dd57fe5b906000526020600020906005020160040154905060006002838154811061180057fe5b9060005260206000209060050201600301549050600063bbf81e00888b03838502028161182957fe5b049050600083820190506002858154811061184057fe5b600091825260208220600590910201546040516001600160a01b039091169183156108fc02918491818181858888f19350505050158015611885573d6000803e3d6000fd5b50600280868154811061189457fe5b906000526020600020906005020160020160006101000a81548160ff021916908360028111156118c057fe5b0217905550505050505b50600101611740565b50604051339082156108fc029083906000818181858888f19350505050158015611901573d6000803e3d6000fd5b5050611937565b604051339082156108fc029083906000818181858888f19350505050158015611935573d6000803e3d6000fd5b505b5050505050565b6001600160a01b031660009081526004602052604090205490565b6001600160a01b038116600090815260036020526040812054806119815760029150506109ad565b6001600160a01b038316600090815260036020526040902080546001919060001984019081106119ad57fe5b9060005260206000200154815481106119c257fe5b6000918252602090912060089091020154600160a01b900460ff169392505050565b600281815481106119f157fe5b6000918252602090912060059091020180546001820154600283015460038401546004909401546001600160a01b039093169450909260ff9091169185565b6001600160a01b031660009081526003602052604090205490565b600460205281600052604060002081815481106109cb57fe5b611a6d33610c17565b15611a7757611481565b6040805161010081018252338152600060208201818152928201859052606082018690526080820181905260a082018190524260c0830181905260e083018590526001805480820180835591909352835160089093027fb10e2d527612073b26eecdfd717e6a320cf44b4afac2b0732d9fcbe2b7fa0cf60180546001600160a01b039094166001600160a01b031990941693909317808455945191949093929190829060ff60a01b1916600160a01b836003811115611b3257fe5b021790555060408281015160018084019190915560608401516002840155608084015160038085019190915560a0850151600485015560c0850151600585015560e090940151600690930192909255336000908152602093845290812082548154938401825590825292902060001992909201910155505050505056fea265627a7a7231582066feb74321b64ce80f640743d3bad9d1e3438ea6a0c73233b8c990756e673f6064736f6c63430005110032",
					"opcodes": "PUSH1 0x80 PUSH1 0x40 MSTORE CALLVALUE DUP1 ISZERO PUSH2 0x10 JUMPI PUSH1 0x0 DUP1 REVERT JUMPDEST POP PUSH1 0x0 DUP1 SLOAD PUSH1 0x1 PUSH1 0x1 PUSH1 0xA0 SHL SUB NOT AND CALLER OR SWAP1 SSTORE PUSH2 0x1BE4 DUP1 PUSH2 0x32 PUSH1 0x0 CODECOPY PUSH1 0x0 RETURN INVALID PUSH1 0x80 PUSH1 0x40 MSTORE PUSH1 0x4 CALLDATASIZE LT PUSH2 0x135 JUMPI PUSH1 0x0 CALLDATALOAD PUSH1 0xE0 SHR DUP1 PUSH4 0x8DA5CB5B GT PUSH2 0xAB JUMPI DUP1 PUSH4 0xAC51BA96 GT PUSH2 0x6F JUMPI DUP1 PUSH4 0xAC51BA96 EQ PUSH2 0x5C1 JUMPI DUP1 PUSH4 0xBAD9E65A EQ PUSH2 0x5F4 JUMPI DUP1 PUSH4 0xC6311E3F EQ PUSH2 0x64B JUMPI DUP1 PUSH4 0xE24AFBB6 EQ PUSH2 0x6C7 JUMPI DUP1 PUSH4 0xFAA72D63 EQ PUSH2 0x6FA JUMPI DUP1 PUSH4 0xFCCD238C EQ PUSH2 0x733 JUMPI PUSH2 0x135 JUMP JUMPDEST DUP1 PUSH4 0x8DA5CB5B EQ PUSH2 0x4EC JUMPI DUP1 PUSH4 0x98325656 EQ PUSH2 0x51D JUMPI DUP1 PUSH4 0x9CE9CC56 EQ PUSH2 0x550 JUMPI DUP1 PUSH4 0xA180F61B EQ PUSH2 0x57A JUMPI DUP1 PUSH4 0xAB7B1C89 EQ PUSH2 0x5A4 JUMPI PUSH2 0x135 JUMP JUMPDEST DUP1 PUSH4 0x277411D2 GT PUSH2 0xFD JUMPI DUP1 PUSH4 0x277411D2 EQ PUSH2 0x299 JUMPI DUP1 PUSH4 0x60C5CC3A EQ PUSH2 0x339 JUMPI DUP1 PUSH4 0x63E84648 EQ PUSH2 0x363 JUMPI DUP1 PUSH4 0x7621710C EQ PUSH2 0x3DC JUMPI DUP1 PUSH4 0x8A190636 EQ PUSH2 0x464 JUMPI DUP1 PUSH4 0x8CAD507D EQ PUSH2 0x4D7 JUMPI PUSH2 0x135 JUMP JUMPDEST DUP1 PUSH4 0x52065DF EQ PUSH2 0x13A JUMPI DUP1 PUSH4 0xB278F72 EQ PUSH2 0x1B8 JUMPI DUP1 PUSH4 0x1594A313 EQ PUSH2 0x1F4 JUMPI DUP1 PUSH4 0x1801F00F EQ PUSH2 0x22D JUMPI DUP1 PUSH4 0x21D4F8DB EQ PUSH2 0x252 JUMPI JUMPDEST PUSH1 0x0 DUP1 REVERT JUMPDEST CALLVALUE DUP1 ISZERO PUSH2 0x146 JUMPI PUSH1 0x0 DUP1 REVERT JUMPDEST POP PUSH2 0x173 PUSH1 0x4 DUP1 CALLDATASIZE SUB PUSH1 0x40 DUP2 LT ISZERO PUSH2 0x15D JUMPI PUSH1 0x0 DUP1 REVERT JUMPDEST POP PUSH1 0x1 PUSH1 0x1 PUSH1 0xA0 SHL SUB DUP2 CALLDATALOAD AND SWAP1 PUSH1 0x20 ADD CALLDATALOAD PUSH2 0x769 JUMP JUMPDEST PUSH1 0x40 MLOAD DUP1 DUP8 PUSH1 0x3 DUP2 GT ISZERO PUSH2 0x183 JUMPI INVALID JUMPDEST PUSH1 0xFF AND DUP2 MSTORE PUSH1 0x20 DUP2 ADD SWAP7 SWAP1 SWAP7 MSTORE POP PUSH1 0x40 DUP1 DUP7 ADD SWAP5 SWAP1 SWAP5 MSTORE PUSH1 0x60 DUP6 ADD SWAP3 SWAP1 SWAP3 MSTORE PUSH1 0x80 DUP5 ADD MSTORE PUSH1 0xA0 DUP4 ADD MSTORE MLOAD SWAP1 DUP2 SWAP1 SUB PUSH1 0xC0 ADD SWAP2 POP RETURN JUMPDEST CALLVALUE DUP1 ISZERO PUSH2 0x1C4 JUMPI PUSH1 0x0 DUP1 REVERT JUMPDEST POP PUSH2 0x1E2 PUSH1 0x4 DUP1 CALLDATASIZE SUB PUSH1 0x20 DUP2 LT ISZERO PUSH2 0x1DB JUMPI PUSH1 0x0 DUP1 REVERT JUMPDEST POP CALLDATALOAD PUSH2 0x843 JUMP JUMPDEST PUSH1 0x40 DUP1 MLOAD SWAP2 DUP3 MSTORE MLOAD SWAP1 DUP2 SWAP1 SUB PUSH1 0x20 ADD SWAP1 RETURN JUMPDEST CALLVALUE DUP1 ISZERO PUSH2 0x200 JUMPI PUSH1 0x0 DUP1 REVERT JUMPDEST POP PUSH2 0x1E2 PUSH1 0x4 DUP1 CALLDATASIZE SUB PUSH1 0x40 DUP2 LT ISZERO PUSH2 0x217 JUMPI PUSH1 0x0 DUP1 REVERT JUMPDEST POP PUSH1 0x1 PUSH1 0x1 PUSH1 0xA0 SHL SUB DUP2 CALLDATALOAD AND SWAP1 PUSH1 0x20 ADD CALLDATALOAD PUSH2 0x9B2 JUMP JUMPDEST PUSH2 0x250 PUSH1 0x4 DUP1 CALLDATASIZE SUB PUSH1 0x40 DUP2 LT ISZERO PUSH2 0x243 JUMPI PUSH1 0x0 DUP1 REVERT JUMPDEST POP DUP1 CALLDATALOAD SWAP1 PUSH1 0x20 ADD CALLDATALOAD PUSH2 0x9E0 JUMP JUMPDEST STOP JUMPDEST CALLVALUE DUP1 ISZERO PUSH2 0x25E JUMPI PUSH1 0x0 DUP1 REVERT JUMPDEST POP PUSH2 0x285 PUSH1 0x4 DUP1 CALLDATASIZE SUB PUSH1 0x20 DUP2 LT ISZERO PUSH2 0x275 JUMPI PUSH1 0x0 DUP1 REVERT JUMPDEST POP CALLDATALOAD PUSH1 0x1 PUSH1 0x1 PUSH1 0xA0 SHL SUB AND PUSH2 0xC17 JUMP JUMPDEST PUSH1 0x40 DUP1 MLOAD SWAP2 ISZERO ISZERO DUP3 MSTORE MLOAD SWAP1 DUP2 SWAP1 SUB PUSH1 0x20 ADD SWAP1 RETURN JUMPDEST CALLVALUE DUP1 ISZERO PUSH2 0x2A5 JUMPI PUSH1 0x0 DUP1 REVERT JUMPDEST POP PUSH2 0x2D2 PUSH1 0x4 DUP1 CALLDATASIZE SUB PUSH1 0x40 DUP2 LT ISZERO PUSH2 0x2BC JUMPI PUSH1 0x0 DUP1 REVERT JUMPDEST POP PUSH1 0x1 PUSH1 0x1 PUSH1 0xA0 SHL SUB DUP2 CALLDATALOAD AND SWAP1 PUSH1 0x20 ADD CALLDATALOAD PUSH2 0xD28 JUMP JUMPDEST PUSH1 0x40 MLOAD DUP1 DUP10 PUSH1 0x1 PUSH1 0x1 PUSH1 0xA0 SHL SUB AND PUSH1 0x1 PUSH1 0x1 PUSH1 0xA0 SHL SUB AND DUP2 MSTORE PUSH1 0x20 ADD DUP9 DUP2 MSTORE PUSH1 0x20 ADD DUP8 PUSH1 0x2 DUP2 GT ISZERO PUSH2 0x300 JUMPI INVALID JUMPDEST PUSH1 0xFF AND DUP2 MSTORE PUSH1 0x20 ADD DUP7 DUP2 MSTORE PUSH1 0x20 ADD DUP6 DUP2 MSTORE PUSH1 0x20 ADD DUP5 DUP2 MSTORE PUSH1 0x20 ADD DUP4 DUP2 MSTORE PUSH1 0x20 ADD DUP3 DUP2 MSTORE PUSH1 0x20 ADD SWAP9 POP POP POP POP POP POP POP POP POP PUSH1 0x40 MLOAD DUP1 SWAP2 SUB SWAP1 RETURN JUMPDEST CALLVALUE DUP1 ISZERO PUSH2 0x345 JUMPI PUSH1 0x0 DUP1 REVERT JUMPDEST POP PUSH2 0x250 PUSH1 0x4 DUP1 CALLDATASIZE SUB PUSH1 0x20 DUP2 LT ISZERO PUSH2 0x35C JUMPI PUSH1 0x0 DUP1 REVERT JUMPDEST POP CALLDATALOAD PUSH2 0xE42 JUMP JUMPDEST CALLVALUE DUP1 ISZERO PUSH2 0x36F JUMPI PUSH1 0x0 DUP1 REVERT JUMPDEST POP PUSH2 0x393 PUSH1 0x4 DUP1 CALLDATASIZE SUB PUSH1 0x40 DUP2 LT ISZERO PUSH2 0x386 JUMPI PUSH1 0x0 DUP1 REVERT JUMPDEST POP DUP1 CALLDATALOAD SWAP1 PUSH1 0x20 ADD CALLDATALOAD PUSH2 0xF75 JUMP JUMPDEST PUSH1 0x40 MLOAD DUP1 DUP7 PUSH1 0x2 DUP2 GT ISZERO PUSH2 0x3A3 JUMPI INVALID JUMPDEST PUSH1 0xFF AND DUP2 MSTORE PUSH1 0x20 DUP2 ADD SWAP6 SWAP1 SWAP6 MSTORE POP PUSH1 0x40 DUP1 DUP6 ADD SWAP4 SWAP1 SWAP4 MSTORE PUSH1 0x60 DUP5 ADD SWAP2 SWAP1 SWAP2 MSTORE PUSH1 0x1 PUSH1 0x1 PUSH1 0xA0 SHL SUB AND PUSH1 0x80 DUP4 ADD MSTORE MLOAD SWAP1 DUP2 SWAP1 SUB PUSH1 0xA0 ADD SWAP2 POP RETURN JUMPDEST CALLVALUE DUP1 ISZERO PUSH2 0x3E8 JUMPI PUSH1 0x0 DUP1 REVERT JUMPDEST POP PUSH2 0x406 PUSH1 0x4 DUP1 CALLDATASIZE SUB PUSH1 0x20 DUP2 LT ISZERO PUSH2 0x3FF JUMPI PUSH1 0x0 DUP1 REVERT JUMPDEST POP CALLDATALOAD PUSH2 0x1030 JUMP JUMPDEST PUSH1 0x40 MLOAD PUSH1 0x1 PUSH1 0x1 PUSH1 0xA0 SHL SUB DUP10 AND DUP2 MSTORE PUSH1 0x20 DUP2 ADD DUP9 PUSH1 0x3 DUP2 GT ISZERO PUSH2 0x425 JUMPI INVALID JUMPDEST PUSH1 0xFF AND DUP2 MSTORE PUSH1 0x20 ADD DUP8 DUP2 MSTORE PUSH1 0x20 ADD DUP7 DUP2 MSTORE PUSH1 0x20 ADD DUP6 DUP2 MSTORE PUSH1 0x20 ADD DUP5 DUP2 MSTORE PUSH1 0x20 ADD DUP4 DUP2 MSTORE PUSH1 0x20 ADD DUP3 DUP2 MSTORE PUSH1 0x20 ADD SWAP9 POP POP POP POP POP POP POP POP POP PUSH1 0x40 MLOAD DUP1 SWAP2 SUB SWAP1 RETURN JUMPDEST CALLVALUE DUP1 ISZERO PUSH2 0x470 JUMPI PUSH1 0x0 DUP1 REVERT JUMPDEST POP PUSH2 0x497 PUSH1 0x4 DUP1 CALLDATASIZE SUB PUSH1 0x20 DUP2 LT ISZERO PUSH2 0x487 JUMPI PUSH1 0x0 DUP1 REVERT JUMPDEST POP CALLDATALOAD PUSH1 0x1 PUSH1 0x1 PUSH1 0xA0 SHL SUB AND PUSH2 0x1092 JUMP JUMPDEST PUSH1 0x40 MLOAD DUP1 DUP7 PUSH1 0x3 DUP2 GT ISZERO PUSH2 0x4A7 JUMPI INVALID JUMPDEST PUSH1 0xFF AND DUP2 MSTORE PUSH1 0x20 ADD DUP6 DUP2 MSTORE PUSH1 0x20 ADD DUP5 DUP2 MSTORE PUSH1 0x20 ADD DUP4 DUP2 MSTORE PUSH1 0x20 ADD DUP3 DUP2 MSTORE PUSH1 0x20 ADD SWAP6 POP POP POP POP POP POP PUSH1 0x40 MLOAD DUP1 SWAP2 SUB SWAP1 RETURN JUMPDEST CALLVALUE DUP1 ISZERO PUSH2 0x4E3 JUMPI PUSH1 0x0 DUP1 REVERT JUMPDEST POP PUSH2 0x1E2 PUSH2 0x1121 JUMP JUMPDEST CALLVALUE DUP1 ISZERO PUSH2 0x4F8 JUMPI PUSH1 0x0 DUP1 REVERT JUMPDEST POP PUSH2 0x501 PUSH2 0x1127 JUMP JUMPDEST PUSH1 0x40 DUP1 MLOAD PUSH1 0x1 PUSH1 0x1 PUSH1 0xA0 SHL SUB SWAP1 SWAP3 AND DUP3 MSTORE MLOAD SWAP1 DUP2 SWAP1 SUB PUSH1 0x20 ADD SWAP1 RETURN JUMPDEST CALLVALUE DUP1 ISZERO PUSH2 0x529 JUMPI PUSH1 0x0 DUP1 REVERT JUMPDEST POP PUSH2 0x1E2 PUSH1 0x4 DUP1 CALLDATASIZE SUB PUSH1 0x20 DUP2 LT ISZERO PUSH2 0x540 JUMPI PUSH1 0x0 DUP1 REVERT JUMPDEST POP CALLDATALOAD PUSH1 0x1 PUSH1 0x1 PUSH1 0xA0 SHL SUB AND PUSH2 0x1136 JUMP JUMPDEST CALLVALUE DUP1 ISZERO PUSH2 0x55C JUMPI PUSH1 0x0 DUP1 REVERT JUMPDEST POP PUSH2 0x250 PUSH1 0x4 DUP1 CALLDATASIZE SUB PUSH1 0x20 DUP2 LT ISZERO PUSH2 0x573 JUMPI PUSH1 0x0 DUP1 REVERT JUMPDEST POP CALLDATALOAD PUSH2 0x11EB JUMP JUMPDEST CALLVALUE DUP1 ISZERO PUSH2 0x586 JUMPI PUSH1 0x0 DUP1 REVERT JUMPDEST POP PUSH2 0x250 PUSH1 0x4 DUP1 CALLDATASIZE SUB PUSH1 0x20 DUP2 LT ISZERO PUSH2 0x59D JUMPI PUSH1 0x0 DUP1 REVERT JUMPDEST POP CALLDATALOAD PUSH2 0x1486 JUMP JUMPDEST PUSH2 0x250 PUSH1 0x4 DUP1 CALLDATASIZE SUB PUSH1 0x20 DUP2 LT ISZERO PUSH2 0x5BA JUMPI PUSH1 0x0 DUP1 REVERT JUMPDEST POP CALLDATALOAD PUSH2 0x16BB JUMP JUMPDEST CALLVALUE DUP1 ISZERO PUSH2 0x5CD JUMPI PUSH1 0x0 DUP1 REVERT JUMPDEST POP PUSH2 0x1E2 PUSH1 0x4 DUP1 CALLDATASIZE SUB PUSH1 0x20 DUP2 LT ISZERO PUSH2 0x5E4 JUMPI PUSH1 0x0 DUP1 REVERT JUMPDEST POP CALLDATALOAD PUSH1 0x1 PUSH1 0x1 PUSH1 0xA0 SHL SUB AND PUSH2 0x193E JUMP JUMPDEST CALLVALUE DUP1 ISZERO PUSH2 0x600 JUMPI PUSH1 0x0 DUP1 REVERT JUMPDEST POP PUSH2 0x627 PUSH1 0x4 DUP1 CALLDATASIZE SUB PUSH1 0x20 DUP2 LT ISZERO PUSH2 0x617 JUMPI PUSH1 0x0 DUP1 REVERT JUMPDEST POP CALLDATALOAD PUSH1 0x1 PUSH1 0x1 PUSH1 0xA0 SHL SUB AND PUSH2 0x1959 JUMP JUMPDEST PUSH1 0x40 MLOAD DUP1 DUP3 PUSH1 0x3 DUP2 GT ISZERO PUSH2 0x637 JUMPI INVALID JUMPDEST PUSH1 0xFF AND DUP2 MSTORE PUSH1 0x20 ADD SWAP2 POP POP PUSH1 0x40 MLOAD DUP1 SWAP2 SUB SWAP1 RETURN JUMPDEST CALLVALUE DUP1 ISZERO PUSH2 0x657 JUMPI PUSH1 0x0 DUP1 REVERT JUMPDEST POP PUSH2 0x675 PUSH1 0x4 DUP1 CALLDATASIZE SUB PUSH1 0x20 DUP2 LT ISZERO PUSH2 0x66E JUMPI PUSH1 0x0 DUP1 REVERT JUMPDEST POP CALLDATALOAD PUSH2 0x19E4 JUMP JUMPDEST PUSH1 0x40 MLOAD DUP1 DUP7 PUSH1 0x1 PUSH1 0x1 PUSH1 0xA0 SHL SUB AND PUSH1 0x1 PUSH1 0x1 PUSH1 0xA0 SHL SUB AND DUP2 MSTORE PUSH1 0x20 ADD DUP6 DUP2 MSTORE PUSH1 0x20 ADD DUP5 PUSH1 0x2 DUP2 GT ISZERO PUSH2 0x6A3 JUMPI INVALID JUMPDEST PUSH1 0xFF AND DUP2 MSTORE PUSH1 0x20 ADD DUP4 DUP2 MSTORE PUSH1 0x20 ADD DUP3 DUP2 MSTORE PUSH1 0x20 ADD SWAP6 POP POP POP POP POP POP PUSH1 0x40 MLOAD DUP1 SWAP2 SUB SWAP1 RETURN JUMPDEST CALLVALUE DUP1 ISZERO PUSH2 0x6D3 JUMPI PUSH1 0x0 DUP1 REVERT JUMPDEST POP PUSH2 0x1E2 PUSH1 0x4 DUP1 CALLDATASIZE SUB PUSH1 0x20 DUP2 LT ISZERO PUSH2 0x6EA JUMPI PUSH1 0x0 DUP1 REVERT JUMPDEST POP CALLDATALOAD PUSH1 0x1 PUSH1 0x1 PUSH1 0xA0 SHL SUB AND PUSH2 0x1A30 JUMP JUMPDEST CALLVALUE DUP1 ISZERO PUSH2 0x706 JUMPI PUSH1 0x0 DUP1 REVERT JUMPDEST POP PUSH2 0x1E2 PUSH1 0x4 DUP1 CALLDATASIZE SUB PUSH1 0x40 DUP2 LT ISZERO PUSH2 0x71D JUMPI PUSH1 0x0 DUP1 REVERT JUMPDEST POP PUSH1 0x1 PUSH1 0x1 PUSH1 0xA0 SHL SUB DUP2 CALLDATALOAD AND SWAP1 PUSH1 0x20 ADD CALLDATALOAD PUSH2 0x1A4B JUMP JUMPDEST CALLVALUE DUP1 ISZERO PUSH2 0x73F JUMPI PUSH1 0x0 DUP1 REVERT JUMPDEST POP PUSH2 0x250 PUSH1 0x4 DUP1 CALLDATASIZE SUB PUSH1 0x60 DUP2 LT ISZERO PUSH2 0x756 JUMPI PUSH1 0x0 DUP1 REVERT JUMPDEST POP DUP1 CALLDATALOAD SWAP1 PUSH1 0x20 DUP2 ADD CALLDATALOAD SWAP1 PUSH1 0x40 ADD CALLDATALOAD PUSH2 0x1A64 JUMP JUMPDEST PUSH1 0x0 DUP1 PUSH1 0x0 DUP1 PUSH1 0x0 DUP1 PUSH1 0x0 PUSH1 0x1 PUSH1 0x3 PUSH1 0x0 DUP12 PUSH1 0x1 PUSH1 0x1 PUSH1 0xA0 SHL SUB AND PUSH1 0x1 PUSH1 0x1 PUSH1 0xA0 SHL SUB AND DUP2 MSTORE PUSH1 0x20 ADD SWAP1 DUP2 MSTORE PUSH1 0x20 ADD PUSH1 0x0 KECCAK256 DUP10 DUP2 SLOAD DUP2 LT PUSH2 0x7A6 JUMPI INVALID JUMPDEST SWAP1 PUSH1 0x0 MSTORE PUSH1 0x20 PUSH1 0x0 KECCAK256 ADD SLOAD DUP2 SLOAD DUP2 LT PUSH2 0x7BB JUMPI INVALID JUMPDEST SWAP1 PUSH1 0x0 MSTORE PUSH1 0x20 PUSH1 0x0 KECCAK256 SWAP1 PUSH1 0x8 MUL ADD SWAP1 POP DUP1 PUSH1 0x0 ADD PUSH1 0x14 SWAP1 SLOAD SWAP1 PUSH2 0x100 EXP SWAP1 DIV PUSH1 0xFF AND DUP2 PUSH1 0x1 ADD SLOAD DUP3 PUSH1 0x2 ADD SLOAD DUP4 PUSH1 0x4 ADD SLOAD PUSH1 0x3 PUSH1 0x0 DUP15 PUSH1 0x1 PUSH1 0x1 PUSH1 0xA0 SHL SUB AND PUSH1 0x1 PUSH1 0x1 PUSH1 0xA0 SHL SUB AND DUP2 MSTORE PUSH1 0x20 ADD SWAP1 DUP2 MSTORE PUSH1 0x20 ADD PUSH1 0x0 KECCAK256 DUP13 DUP2 SLOAD DUP2 LT PUSH2 0x81C JUMPI INVALID JUMPDEST SWAP1 PUSH1 0x0 MSTORE PUSH1 0x20 PUSH1 0x0 KECCAK256 ADD SLOAD DUP6 PUSH1 0x6 ADD SLOAD SWAP7 POP SWAP7 POP SWAP7 POP SWAP7 POP SWAP7 POP SWAP7 POP POP SWAP3 SWAP6 POP SWAP3 SWAP6 POP SWAP3 SWAP6 JUMP JUMPDEST PUSH1 0x0 PUSH1 0x1 DUP1 DUP4 DUP2 SLOAD DUP2 LT PUSH2 0x853 JUMPI INVALID JUMPDEST PUSH1 0x0 SWAP2 DUP3 MSTORE PUSH1 0x20 SWAP1 SWAP2 KECCAK256 PUSH1 0x8 SWAP1 SWAP2 MUL ADD SLOAD PUSH1 0x1 PUSH1 0xA0 SHL SWAP1 DIV PUSH1 0xFF AND PUSH1 0x3 DUP2 GT ISZERO PUSH2 0x879 JUMPI INVALID JUMPDEST EQ ISZERO PUSH2 0x9A2 JUMPI PUSH1 0x0 PUSH1 0x1 DUP4 DUP2 SLOAD DUP2 LT PUSH2 0x88E JUMPI INVALID JUMPDEST PUSH1 0x0 SWAP2 DUP3 MSTORE PUSH1 0x20 DUP3 KECCAK256 PUSH1 0x5 PUSH1 0x8 SWAP1 SWAP3 MUL ADD ADD SLOAD SWAP2 POP DUP1 JUMPDEST PUSH1 0x1 DUP6 DUP2 SLOAD DUP2 LT PUSH2 0x8B2 JUMPI INVALID JUMPDEST SWAP1 PUSH1 0x0 MSTORE PUSH1 0x20 PUSH1 0x0 KECCAK256 SWAP1 PUSH1 0x8 MUL ADD PUSH1 0x3 ADD SLOAD DUP2 LT ISZERO PUSH2 0x998 JUMPI PUSH1 0x0 PUSH1 0x1 DUP7 DUP2 SLOAD DUP2 LT PUSH2 0x8DA JUMPI INVALID JUMPDEST PUSH1 0x0 SWAP2 DUP3 MSTORE PUSH1 0x20 DUP1 DUP4 KECCAK256 DUP6 DUP5 MSTORE PUSH1 0x7 PUSH1 0x8 SWAP1 SWAP4 MUL ADD SWAP2 SWAP1 SWAP2 ADD SWAP1 MSTORE PUSH1 0x40 SWAP1 KECCAK256 SLOAD SWAP1 POP PUSH1 0x1 PUSH1 0x2 DUP3 DUP2 SLOAD DUP2 LT PUSH2 0x90B JUMPI INVALID JUMPDEST PUSH1 0x0 SWAP2 DUP3 MSTORE PUSH1 0x20 SWAP1 SWAP2 KECCAK256 PUSH1 0x2 PUSH1 0x5 SWAP1 SWAP3 MUL ADD DUP2 ADD SLOAD PUSH1 0xFF AND SWAP1 DUP2 GT ISZERO PUSH2 0x92D JUMPI INVALID JUMPDEST EQ ISZERO PUSH2 0x98F JUMPI PUSH1 0x0 PUSH1 0x2 DUP3 DUP2 SLOAD DUP2 LT PUSH2 0x942 JUMPI INVALID JUMPDEST SWAP1 PUSH1 0x0 MSTORE PUSH1 0x20 PUSH1 0x0 KECCAK256 SWAP1 PUSH1 0x5 MUL ADD PUSH1 0x4 ADD SLOAD SWAP1 POP PUSH1 0x0 PUSH1 0x2 DUP4 DUP2 SLOAD DUP2 LT PUSH2 0x965 JUMPI INVALID JUMPDEST PUSH1 0x0 SWAP2 DUP3 MSTORE PUSH1 0x20 SWAP1 SWAP2 KECCAK256 PUSH1 0x3 PUSH1 0x5 SWAP1 SWAP3 MUL ADD ADD SLOAD PUSH4 0xBBF81E00 SWAP1 DUP4 MUL TIMESTAMP DUP9 SWAP1 SUB MUL DIV SWAP5 SWAP1 SWAP5 ADD ADD SWAP3 POP JUMPDEST POP PUSH1 0x1 ADD PUSH2 0x8A5 JUMP JUMPDEST POP SWAP2 POP PUSH2 0x9AD SWAP1 POP JUMP JUMPDEST POP PUSH8 0xFFFFFFFFFFFFFFFF JUMPDEST SWAP2 SWAP1 POP JUMP JUMPDEST PUSH1 0x3 PUSH1 0x20 MSTORE DUP2 PUSH1 0x0 MSTORE PUSH1 0x40 PUSH1 0x0 KECCAK256 DUP2 DUP2 SLOAD DUP2 LT PUSH2 0x9CB JUMPI INVALID JUMPDEST SWAP1 PUSH1 0x0 MSTORE PUSH1 0x20 PUSH1 0x0 KECCAK256 ADD PUSH1 0x0 SWAP2 POP SWAP2 POP POP SLOAD DUP2 JUMP JUMPDEST PUSH1 0x0 PUSH1 0x1 PUSH1 0x1 PUSH1 0xA0 SHL SUB AND PUSH1 0x1 DUP4 DUP2 SLOAD DUP2 LT PUSH2 0x9F8 JUMPI INVALID JUMPDEST PUSH1 0x0 SWAP2 DUP3 MSTORE PUSH1 0x20 SWAP1 SWAP2 KECCAK256 PUSH1 0x8 SWAP1 SWAP2 MUL ADD SLOAD PUSH1 0x1 PUSH1 0x1 PUSH1 0xA0 SHL SUB AND EQ DUP1 PUSH2 0xA51 JUMPI POP PUSH1 0x0 PUSH1 0x1 DUP4 DUP2 SLOAD DUP2 LT PUSH2 0xA28 JUMPI INVALID JUMPDEST PUSH1 0x0 SWAP2 DUP3 MSTORE PUSH1 0x20 SWAP1 SWAP2 KECCAK256 PUSH1 0x8 SWAP1 SWAP2 MUL ADD SLOAD PUSH1 0x1 PUSH1 0xA0 SHL SWAP1 DIV PUSH1 0xFF AND PUSH1 0x3 DUP2 GT ISZERO PUSH2 0xA4E JUMPI INVALID JUMPDEST EQ ISZERO JUMPDEST ISZERO PUSH2 0xA5B JUMPI PUSH2 0xC13 JUMP JUMPDEST PUSH1 0x40 DUP1 MLOAD PUSH1 0xA0 DUP2 ADD DUP3 MSTORE CALLER DUP2 MSTORE PUSH1 0x20 DUP2 ADD DUP5 DUP2 MSTORE PUSH1 0x0 SWAP3 DUP3 ADD DUP4 DUP2 MSTORE PUSH1 0x60 DUP4 ADD DUP6 SWAP1 MSTORE CALLVALUE PUSH1 0x80 DUP5 ADD MSTORE PUSH1 0x2 DUP1 SLOAD PUSH1 0x1 DUP1 DUP3 ADD DUP1 DUP5 SSTORE SWAP7 DUP4 SWAP1 MSTORE DUP6 MLOAD PUSH32 0x405787FA12A823E0F2B7631CC41B3BA8828B3321CA811111FA75CD3AA3BB5ACE PUSH1 0x5 SWAP1 SWAP4 MUL SWAP3 DUP4 ADD DUP1 SLOAD PUSH1 0x1 PUSH1 0x1 PUSH1 0xA0 SHL SUB NOT AND PUSH1 0x1 PUSH1 0x1 PUSH1 0xA0 SHL SUB SWAP1 SWAP3 AND SWAP2 SWAP1 SWAP2 OR DUP2 SSTORE SWAP5 MLOAD PUSH32 0x405787FA12A823E0F2B7631CC41B3BA8828B3321CA811111FA75CD3AA3BB5ACF DUP4 ADD SSTORE SWAP3 MLOAD PUSH32 0x405787FA12A823E0F2B7631CC41B3BA8828B3321CA811111FA75CD3AA3BB5AD0 SWAP1 SWAP2 ADD DUP1 SLOAD SWAP2 SWAP4 SWAP1 SWAP3 PUSH1 0xFF NOT SWAP1 SWAP3 AND SWAP2 DUP5 SWAP1 DUP2 GT ISZERO PUSH2 0xB40 JUMPI INVALID JUMPDEST MUL OR SWAP1 SSTORE POP PUSH1 0x60 DUP3 ADD MLOAD PUSH1 0x3 DUP3 ADD SSTORE PUSH1 0x80 SWAP1 SWAP2 ADD MLOAD PUSH1 0x4 SWAP2 DUP3 ADD SSTORE CALLER PUSH1 0x0 SWAP1 DUP2 MSTORE PUSH1 0x20 SWAP2 DUP3 MSTORE PUSH1 0x40 DUP2 KECCAK256 PUSH1 0x2 SLOAD DUP2 SLOAD PUSH1 0x1 DUP2 DUP2 ADD DUP5 SSTORE SWAP3 DUP5 MSTORE SWAP4 SWAP1 SWAP3 KECCAK256 PUSH1 0x0 NOT SWAP3 SWAP1 SWAP3 ADD SWAP2 SWAP1 SWAP3 ADD SSTORE DUP1 SLOAD SWAP1 SWAP2 POP DUP4 SWAP1 DUP2 LT PUSH2 0xB98 JUMPI INVALID JUMPDEST PUSH1 0x0 SWAP2 DUP3 MSTORE PUSH1 0x20 SWAP1 SWAP2 KECCAK256 PUSH1 0x3 PUSH1 0x8 SWAP1 SWAP3 MUL ADD ADD DUP1 SLOAD PUSH1 0x1 SWAP1 DUP2 ADD SWAP1 SWAP2 SSTORE PUSH1 0x2 SLOAD DUP2 SLOAD PUSH1 0x0 NOT SWAP1 SWAP2 ADD SWAP2 SWAP1 DUP5 SWAP1 DUP2 LT PUSH2 0xBCC JUMPI INVALID JUMPDEST SWAP1 PUSH1 0x0 MSTORE PUSH1 0x20 PUSH1 0x0 KECCAK256 SWAP1 PUSH1 0x8 MUL ADD PUSH1 0x7 ADD PUSH1 0x0 PUSH1 0x1 DUP1 DUP7 DUP2 SLOAD DUP2 LT PUSH2 0xBED JUMPI INVALID JUMPDEST SWAP1 PUSH1 0x0 MSTORE PUSH1 0x20 PUSH1 0x0 KECCAK256 SWAP1 PUSH1 0x8 MUL ADD PUSH1 0x3 ADD SLOAD SUB DUP2 MSTORE PUSH1 0x20 ADD SWAP1 DUP2 MSTORE PUSH1 0x20 ADD PUSH1 0x0 KECCAK256 DUP2 SWAP1 SSTORE POP JUMPDEST POP POP JUMP JUMPDEST PUSH1 0x1 PUSH1 0x1 PUSH1 0xA0 SHL SUB DUP2 AND PUSH1 0x0 SWAP1 DUP2 MSTORE PUSH1 0x3 PUSH1 0x20 MSTORE PUSH1 0x40 DUP2 KECCAK256 SLOAD DUP1 PUSH2 0xC3F JUMPI PUSH1 0x0 SWAP2 POP POP PUSH2 0x9AD JUMP JUMPDEST PUSH1 0x1 PUSH1 0x1 PUSH1 0xA0 SHL SUB DUP4 AND PUSH1 0x0 SWAP1 DUP2 MSTORE PUSH1 0x3 PUSH1 0x20 MSTORE PUSH1 0x40 DUP2 KECCAK256 DUP1 SLOAD PUSH1 0x1 SWAP2 SWAP1 PUSH1 0x0 NOT DUP6 ADD SWAP1 DUP2 LT PUSH2 0xC6B JUMPI INVALID JUMPDEST SWAP1 PUSH1 0x0 MSTORE PUSH1 0x20 PUSH1 0x0 KECCAK256 ADD SLOAD DUP2 SLOAD DUP2 LT PUSH2 0xC80 JUMPI INVALID JUMPDEST PUSH1 0x0 SWAP2 DUP3 MSTORE PUSH1 0x20 DUP3 KECCAK256 PUSH1 0x8 SWAP1 SWAP2 MUL ADD SWAP2 POP PUSH1 0x1 DUP1 DUP5 SUB DUP2 SLOAD DUP2 LT PUSH2 0xCA0 JUMPI INVALID JUMPDEST PUSH1 0x0 SWAP2 DUP3 MSTORE PUSH1 0x20 SWAP1 SWAP2 KECCAK256 PUSH1 0x8 SWAP1 SWAP2 MUL ADD SLOAD PUSH1 0x1 PUSH1 0xA0 SHL SWAP1 DIV PUSH1 0xFF AND PUSH1 0x3 DUP2 GT ISZERO PUSH2 0xCC6 JUMPI INVALID JUMPDEST EQ ISZERO PUSH2 0xCD7 JUMPI PUSH1 0x1 SWAP3 POP POP POP PUSH2 0x9AD JUMP JUMPDEST PUSH1 0x1 DUP1 DUP1 DUP5 SUB DUP2 SLOAD DUP2 LT PUSH2 0xCE7 JUMPI INVALID JUMPDEST PUSH1 0x0 SWAP2 DUP3 MSTORE PUSH1 0x20 SWAP1 SWAP2 KECCAK256 PUSH1 0x8 SWAP1 SWAP2 MUL ADD SLOAD PUSH1 0x1 PUSH1 0xA0 SHL SWAP1 DIV PUSH1 0xFF AND PUSH1 0x3 DUP2 GT ISZERO PUSH2 0xD0D JUMPI INVALID JUMPDEST EQ ISZERO PUSH2 0xD1E JUMPI PUSH1 0x1 SWAP3 POP POP POP PUSH2 0x9AD JUMP JUMPDEST POP PUSH1 0x0 SWAP4 SWAP3 POP POP POP JUMP JUMPDEST PUSH1 0x0 DUP1 PUSH1 0x0 DUP1 PUSH1 0x0 DUP1 PUSH1 0x0 DUP1 PUSH1 0x0 PUSH1 0x2 PUSH1 0x4 PUSH1 0x0 DUP14 PUSH1 0x1 PUSH1 0x1 PUSH1 0xA0 SHL SUB AND PUSH1 0x1 PUSH1 0x1 PUSH1 0xA0 SHL SUB AND DUP2 MSTORE PUSH1 0x20 ADD SWAP1 DUP2 MSTORE PUSH1 0x20 ADD PUSH1 0x0 KECCAK256 DUP12 DUP2 SLOAD DUP2 LT PUSH2 0xD68 JUMPI INVALID JUMPDEST SWAP1 PUSH1 0x0 MSTORE PUSH1 0x20 PUSH1 0x0 KECCAK256 ADD SLOAD DUP2 SLOAD DUP2 LT PUSH2 0xD7D JUMPI INVALID JUMPDEST PUSH1 0x0 SWAP2 DUP3 MSTORE PUSH1 0x20 SWAP1 SWAP2 KECCAK256 PUSH1 0x5 SWAP1 SWAP2 MUL ADD DUP1 SLOAD PUSH1 0x1 DUP1 DUP4 ADD SLOAD PUSH1 0x2 DUP5 ADD SLOAD PUSH1 0x3 DUP6 ADD SLOAD PUSH1 0x4 DUP7 ADD SLOAD DUP5 SLOAD SWAP7 SWAP8 POP PUSH1 0x1 PUSH1 0x1 PUSH1 0xA0 SHL SUB SWAP1 SWAP6 AND SWAP6 SWAP3 SWAP5 PUSH1 0xFF SWAP1 SWAP3 AND SWAP4 SWAP1 SWAP3 DUP6 SWAP1 DUP2 LT PUSH2 0xDC9 JUMPI INVALID JUMPDEST SWAP1 PUSH1 0x0 MSTORE PUSH1 0x20 PUSH1 0x0 KECCAK256 SWAP1 PUSH1 0x8 MUL ADD PUSH1 0x2 ADD SLOAD PUSH1 0x1 DUP8 PUSH1 0x1 ADD SLOAD DUP2 SLOAD DUP2 LT PUSH2 0xDEC JUMPI INVALID JUMPDEST SWAP1 PUSH1 0x0 MSTORE PUSH1 0x20 PUSH1 0x0 KECCAK256 SWAP1 PUSH1 0x8 MUL ADD PUSH1 0x1 ADD SLOAD PUSH1 0x1 DUP9 PUSH1 0x1 ADD SLOAD DUP2 SLOAD DUP2 LT PUSH2 0xE0F JUMPI INVALID JUMPDEST SWAP1 PUSH1 0x0 MSTORE PUSH1 0x20 PUSH1 0x0 KECCAK256 SWAP1 PUSH1 0x8 MUL ADD PUSH1 0x6 ADD SLOAD DUP8 SWAP8 POP SWAP9 POP SWAP9 POP SWAP9 POP SWAP9 POP SWAP9 POP SWAP9 POP SWAP9 POP SWAP9 POP POP SWAP3 SWAP6 SWAP9 POP SWAP3 SWAP6 SWAP9 SWAP1 SWAP4 SWAP7 POP JUMP JUMPDEST PUSH1 0x0 PUSH2 0xE4D CALLER PUSH2 0x1136 JUMP JUMPDEST SWAP1 POP DUP1 PUSH8 0xFFFFFFFFFFFFFFFF EQ ISZERO PUSH2 0xE65 JUMPI POP PUSH2 0xF72 JUMP JUMPDEST PUSH1 0x0 PUSH1 0x2 DUP4 DUP2 SLOAD DUP2 LT PUSH2 0xE74 JUMPI INVALID JUMPDEST PUSH1 0x0 SWAP2 DUP3 MSTORE PUSH1 0x20 DUP3 KECCAK256 PUSH1 0x5 SWAP1 SWAP2 MUL ADD SWAP2 POP PUSH1 0x2 DUP1 DUP4 ADD SLOAD PUSH1 0xFF AND SWAP1 DUP2 GT ISZERO PUSH2 0xE98 JUMPI INVALID JUMPDEST EQ PUSH2 0xEA4 JUMPI POP POP PUSH2 0xF72 JUMP JUMPDEST PUSH1 0x0 PUSH1 0x1 DUP4 DUP2 SLOAD DUP2 LT PUSH2 0xEB3 JUMPI INVALID JUMPDEST PUSH1 0x0 SWAP2 DUP3 MSTORE PUSH1 0x20 DUP3 KECCAK256 PUSH1 0x8 SWAP1 SWAP2 MUL ADD SWAP2 POP DUP2 SLOAD PUSH1 0x1 PUSH1 0xA0 SHL SWAP1 DIV PUSH1 0xFF AND PUSH1 0x3 DUP2 GT ISZERO PUSH2 0xEDB JUMPI INVALID JUMPDEST EQ PUSH2 0xEE8 JUMPI POP POP POP PUSH2 0xF72 JUMP JUMPDEST DUP1 PUSH1 0x2 ADD SLOAD DUP3 PUSH1 0x4 ADD SLOAD DUP3 PUSH1 0x4 ADD SLOAD ADD GT PUSH2 0xF6E JUMPI DUP2 PUSH1 0x4 ADD SLOAD PUSH1 0x1 DUP5 DUP2 SLOAD DUP2 LT PUSH2 0xF0F JUMPI INVALID JUMPDEST SWAP1 PUSH1 0x0 MSTORE PUSH1 0x20 PUSH1 0x0 KECCAK256 SWAP1 PUSH1 0x8 MUL ADD PUSH1 0x4 ADD PUSH1 0x0 DUP3 DUP3 SLOAD ADD SWAP3 POP POP DUP2 SWAP1 SSTORE POP PUSH1 0x1 PUSH1 0x2 DUP6 DUP2 SLOAD DUP2 LT PUSH2 0xF3C JUMPI INVALID JUMPDEST SWAP1 PUSH1 0x0 MSTORE PUSH1 0x20 PUSH1 0x0 KECCAK256 SWAP1 PUSH1 0x5 MUL ADD PUSH1 0x2 ADD PUSH1 0x0 PUSH2 0x100 EXP DUP2 SLOAD DUP2 PUSH1 0xFF MUL NOT AND SWAP1 DUP4 PUSH1 0x2 DUP2 GT ISZERO PUSH2 0xF68 JUMPI INVALID JUMPDEST MUL OR SWAP1 SSTORE POP JUMPDEST POP POP POP JUMPDEST POP JUMP JUMPDEST PUSH1 0x0 DUP1 PUSH1 0x0 DUP1 PUSH1 0x0 DUP1 PUSH1 0x2 PUSH1 0x1 DUP10 DUP2 SLOAD DUP2 LT PUSH2 0xF8D JUMPI INVALID JUMPDEST SWAP1 PUSH1 0x0 MSTORE PUSH1 0x20 PUSH1 0x0 KECCAK256 SWAP1 PUSH1 0x8 MUL ADD PUSH1 0x7 ADD PUSH1 0x0 DUP10 DUP2 MSTORE PUSH1 0x20 ADD SWAP1 DUP2 MSTORE PUSH1 0x20 ADD PUSH1 0x0 KECCAK256 SLOAD DUP2 SLOAD DUP2 LT PUSH2 0xFBA JUMPI INVALID JUMPDEST SWAP1 PUSH1 0x0 MSTORE PUSH1 0x20 PUSH1 0x0 KECCAK256 SWAP1 PUSH1 0x5 MUL ADD SWAP1 POP DUP1 PUSH1 0x2 ADD PUSH1 0x0 SWAP1 SLOAD SWAP1 PUSH2 0x100 EXP SWAP1 DIV PUSH1 0xFF AND DUP2 PUSH1 0x3 ADD SLOAD DUP3 PUSH1 0x4 ADD SLOAD PUSH1 0x1 DUP12 DUP2 SLOAD DUP2 LT PUSH2 0xFF3 JUMPI INVALID JUMPDEST PUSH1 0x0 SWAP2 DUP3 MSTORE PUSH1 0x20 DUP1 DUP4 KECCAK256 SWAP13 DUP4 MSTORE PUSH1 0x8 SWAP2 SWAP1 SWAP2 MUL SWAP1 SWAP12 ADD PUSH1 0x7 ADD SWAP1 SWAP11 MSTORE PUSH1 0x40 SWAP1 SWAP10 KECCAK256 SLOAD SWAP3 SLOAD SWAP2 SWAP11 SWAP1 SWAP10 POP SWAP2 SWAP7 POP PUSH1 0x1 PUSH1 0x1 PUSH1 0xA0 SHL SUB AND SWAP5 POP SWAP3 POP POP POP JUMP JUMPDEST PUSH1 0x1 DUP2 DUP2 SLOAD DUP2 LT PUSH2 0x103D JUMPI INVALID JUMPDEST PUSH1 0x0 SWAP2 DUP3 MSTORE PUSH1 0x20 SWAP1 SWAP2 KECCAK256 PUSH1 0x8 SWAP1 SWAP2 MUL ADD DUP1 SLOAD PUSH1 0x1 DUP3 ADD SLOAD PUSH1 0x2 DUP4 ADD SLOAD PUSH1 0x3 DUP5 ADD SLOAD PUSH1 0x4 DUP6 ADD SLOAD PUSH1 0x5 DUP7 ADD SLOAD PUSH1 0x6 SWAP1 SWAP7 ADD SLOAD PUSH1 0x1 PUSH1 0x1 PUSH1 0xA0 SHL SUB DUP7 AND SWAP8 POP PUSH1 0x1 PUSH1 0xA0 SHL SWAP1 SWAP6 DIV PUSH1 0xFF AND SWAP6 SWAP4 SWAP5 SWAP3 SWAP4 SWAP2 SWAP3 SWAP1 SWAP2 SWAP1 DUP9 JUMP JUMPDEST PUSH1 0x1 PUSH1 0x1 PUSH1 0xA0 SHL SUB DUP2 AND PUSH1 0x0 SWAP1 DUP2 MSTORE PUSH1 0x3 PUSH1 0x20 MSTORE PUSH1 0x40 DUP2 KECCAK256 DUP1 SLOAD DUP3 SWAP2 DUP3 SWAP2 DUP3 SWAP2 DUP3 SWAP2 SWAP1 DUP3 SWAP1 PUSH1 0x1 SWAP1 PUSH1 0x0 NOT DUP5 ADD DUP5 DUP2 LT PUSH2 0x10C8 JUMPI INVALID JUMPDEST SWAP1 PUSH1 0x0 MSTORE PUSH1 0x20 PUSH1 0x0 KECCAK256 ADD SLOAD DUP2 SLOAD DUP2 LT PUSH2 0x10DD JUMPI INVALID JUMPDEST PUSH1 0x0 SWAP2 DUP3 MSTORE PUSH1 0x20 SWAP1 SWAP2 KECCAK256 PUSH1 0x8 SWAP1 SWAP2 MUL ADD DUP1 SLOAD PUSH1 0x1 DUP3 ADD SLOAD PUSH1 0x2 DUP4 ADD SLOAD PUSH1 0x3 DUP5 ADD SLOAD PUSH1 0x4 SWAP1 SWAP5 ADD SLOAD PUSH1 0x1 PUSH1 0xA0 SHL SWAP1 SWAP4 DIV PUSH1 0xFF AND SWAP13 SWAP2 SWAP12 POP SWAP10 POP SWAP2 SWAP8 POP SWAP6 POP SWAP4 POP POP POP POP JUMP JUMPDEST PUSH1 0x1 SLOAD SWAP1 JUMP JUMPDEST PUSH1 0x0 SLOAD PUSH1 0x1 PUSH1 0x1 PUSH1 0xA0 SHL SUB AND DUP2 JUMP JUMPDEST PUSH1 0x1 PUSH1 0x1 PUSH1 0xA0 SHL SUB DUP2 AND PUSH1 0x0 SWAP1 DUP2 MSTORE PUSH1 0x3 PUSH1 0x20 MSTORE PUSH1 0x40 DUP2 KECCAK256 SLOAD DUP1 PUSH2 0x1165 JUMPI PUSH8 0xFFFFFFFFFFFFFFFF SWAP2 POP POP PUSH2 0x9AD JUMP JUMPDEST PUSH1 0x1 PUSH1 0x1 PUSH1 0xA0 SHL SUB DUP4 AND PUSH1 0x0 SWAP1 DUP2 MSTORE PUSH1 0x3 PUSH1 0x20 MSTORE PUSH1 0x40 DUP2 KECCAK256 DUP1 SLOAD PUSH1 0x0 NOT DUP5 ADD SWAP1 DUP2 LT PUSH2 0x118D JUMPI INVALID JUMPDEST PUSH1 0x0 SWAP2 DUP3 MSTORE PUSH1 0x20 DUP3 KECCAK256 ADD SLOAD SWAP2 POP PUSH1 0x1 DUP3 DUP2 SLOAD DUP2 LT PUSH2 0x11A7 JUMPI INVALID JUMPDEST PUSH1 0x0 SWAP2 DUP3 MSTORE PUSH1 0x20 SWAP1 SWAP2 KECCAK256 PUSH1 0x8 SWAP1 SWAP2 MUL ADD SLOAD PUSH1 0x1 PUSH1 0xA0 SHL SWAP1 DIV PUSH1 0xFF AND PUSH1 0x3 DUP2 GT ISZERO PUSH2 0x11CD JUMPI INVALID JUMPDEST EQ PUSH2 0x11E4 JUMPI PUSH8 0xFFFFFFFFFFFFFFFF SWAP3 POP POP POP PUSH2 0x9AD JUMP JUMPDEST SWAP4 SWAP3 POP POP POP JUMP JUMPDEST CALLER PUSH1 0x0 SWAP1 DUP2 MSTORE PUSH1 0x4 PUSH1 0x20 MSTORE PUSH1 0x40 DUP2 KECCAK256 DUP1 SLOAD DUP4 SWAP1 DUP2 LT PUSH2 0x1206 JUMPI INVALID JUMPDEST PUSH1 0x0 SWAP2 DUP3 MSTORE PUSH1 0x20 DUP3 KECCAK256 ADD SLOAD SWAP2 POP PUSH1 0x2 DUP3 DUP2 SLOAD DUP2 LT PUSH2 0x1220 JUMPI INVALID JUMPDEST PUSH1 0x0 SWAP2 DUP3 MSTORE PUSH1 0x20 SWAP1 SWAP2 KECCAK256 PUSH1 0x2 PUSH1 0x5 SWAP1 SWAP3 MUL ADD DUP2 ADD SLOAD PUSH1 0xFF AND SWAP1 DUP2 GT ISZERO PUSH2 0x1242 JUMPI INVALID JUMPDEST EQ PUSH2 0x124D JUMPI POP PUSH2 0xF72 JUMP JUMPDEST PUSH1 0x0 PUSH1 0x2 DUP3 DUP2 SLOAD DUP2 LT PUSH2 0x125C JUMPI INVALID JUMPDEST PUSH1 0x0 SWAP2 DUP3 MSTORE PUSH1 0x20 DUP3 KECCAK256 PUSH1 0x1 PUSH1 0x5 SWAP1 SWAP3 MUL ADD ADD SLOAD SWAP2 POP PUSH1 0x1 DUP3 DUP2 SLOAD DUP2 LT PUSH2 0x127E JUMPI INVALID JUMPDEST PUSH1 0x0 SWAP2 DUP3 MSTORE PUSH1 0x20 SWAP1 SWAP2 KECCAK256 PUSH1 0x8 SWAP1 SWAP2 MUL ADD SLOAD PUSH1 0x1 PUSH1 0xA0 SHL SWAP1 DIV PUSH1 0xFF AND PUSH1 0x3 DUP2 GT ISZERO PUSH2 0x12A4 JUMPI INVALID JUMPDEST EQ ISZERO PUSH2 0x1346 JUMPI PUSH1 0x2 DUP1 DUP4 DUP2 SLOAD DUP2 LT PUSH2 0x12B8 JUMPI INVALID JUMPDEST SWAP1 PUSH1 0x0 MSTORE PUSH1 0x20 PUSH1 0x0 KECCAK256 SWAP1 PUSH1 0x5 MUL ADD PUSH1 0x2 ADD PUSH1 0x0 PUSH2 0x100 EXP DUP2 SLOAD DUP2 PUSH1 0xFF MUL NOT AND SWAP1 DUP4 PUSH1 0x2 DUP2 GT ISZERO PUSH2 0x12E4 JUMPI INVALID JUMPDEST MUL OR SWAP1 SSTORE POP CALLER PUSH1 0x1 PUSH1 0x1 PUSH1 0xA0 SHL SUB AND PUSH2 0x8FC PUSH1 0x2 DUP5 DUP2 SLOAD DUP2 LT PUSH2 0x1303 JUMPI INVALID JUMPDEST SWAP1 PUSH1 0x0 MSTORE PUSH1 0x20 PUSH1 0x0 KECCAK256 SWAP1 PUSH1 0x5 MUL ADD PUSH1 0x4 ADD SLOAD SWAP1 DUP2 ISZERO MUL SWAP1 PUSH1 0x40 MLOAD PUSH1 0x0 PUSH1 0x40 MLOAD DUP1 DUP4 SUB DUP2 DUP6 DUP9 DUP9 CALL SWAP4 POP POP POP POP ISZERO DUP1 ISZERO PUSH2 0x1340 JUMPI RETURNDATASIZE PUSH1 0x0 DUP1 RETURNDATACOPY RETURNDATASIZE PUSH1 0x0 REVERT JUMPDEST POP PUSH2 0x1481 JUMP JUMPDEST PUSH1 0x1 DUP1 DUP3 DUP2 SLOAD DUP2 LT PUSH2 0x1354 JUMPI INVALID JUMPDEST PUSH1 0x0 SWAP2 DUP3 MSTORE PUSH1 0x20 SWAP1 SWAP2 KECCAK256 PUSH1 0x8 SWAP1 SWAP2 MUL ADD SLOAD PUSH1 0x1 PUSH1 0xA0 SHL SWAP1 DIV PUSH1 0xFF AND PUSH1 0x3 DUP2 GT ISZERO PUSH2 0x137A JUMPI INVALID JUMPDEST EQ ISZERO PUSH2 0x1481 JUMPI TIMESTAMP PUSH1 0x1 DUP3 DUP2 SLOAD DUP2 LT PUSH2 0x138E JUMPI INVALID JUMPDEST SWAP1 PUSH1 0x0 MSTORE PUSH1 0x20 PUSH1 0x0 KECCAK256 SWAP1 PUSH1 0x8 MUL ADD PUSH1 0x1 ADD SLOAD LT ISZERO PUSH2 0x13AD JUMPI POP POP PUSH2 0xF72 JUMP JUMPDEST PUSH1 0x3 PUSH1 0x1 DUP3 DUP2 SLOAD DUP2 LT PUSH2 0x13BC JUMPI INVALID JUMPDEST PUSH1 0x0 SWAP2 DUP3 MSTORE PUSH1 0x20 SWAP1 SWAP2 KECCAK256 PUSH1 0x8 SWAP1 SWAP2 MUL ADD DUP1 SLOAD PUSH1 0xFF PUSH1 0xA0 SHL NOT AND PUSH1 0x1 PUSH1 0xA0 SHL DUP4 PUSH1 0x3 DUP2 GT ISZERO PUSH2 0x13E6 JUMPI INVALID JUMPDEST MUL OR SWAP1 SSTORE POP PUSH1 0x0 JUMPDEST PUSH1 0x1 DUP3 DUP2 SLOAD DUP2 LT PUSH2 0x13FB JUMPI INVALID JUMPDEST SWAP1 PUSH1 0x0 MSTORE PUSH1 0x20 PUSH1 0x0 KECCAK256 SWAP1 PUSH1 0x8 MUL ADD PUSH1 0x3 ADD SLOAD DUP2 LT ISZERO PUSH2 0xF6E JUMPI PUSH1 0x0 PUSH1 0x1 DUP4 DUP2 SLOAD DUP2 LT PUSH2 0x1423 JUMPI INVALID JUMPDEST PUSH1 0x0 SWAP2 DUP3 MSTORE PUSH1 0x20 DUP1 DUP4 KECCAK256 DUP6 DUP5 MSTORE PUSH1 0x7 PUSH1 0x8 SWAP1 SWAP4 MUL ADD SWAP2 SWAP1 SWAP2 ADD SWAP1 MSTORE PUSH1 0x40 SWAP1 KECCAK256 SLOAD SWAP1 POP PUSH1 0x1 PUSH1 0x2 DUP3 DUP2 SLOAD DUP2 LT PUSH2 0x1454 JUMPI INVALID JUMPDEST PUSH1 0x0 SWAP2 DUP3 MSTORE PUSH1 0x20 SWAP1 SWAP2 KECCAK256 PUSH1 0x2 PUSH1 0x5 SWAP1 SWAP3 MUL ADD DUP2 ADD SLOAD PUSH1 0xFF AND SWAP1 DUP2 GT ISZERO PUSH2 0x1476 JUMPI INVALID JUMPDEST POP POP POP PUSH1 0x1 ADD PUSH2 0x13EE JUMP JUMPDEST POP POP POP JUMP JUMPDEST PUSH1 0x0 PUSH1 0x1 DUP3 DUP2 SLOAD DUP2 LT PUSH2 0x1495 JUMPI INVALID JUMPDEST PUSH1 0x0 SWAP2 DUP3 MSTORE PUSH1 0x20 SWAP1 SWAP2 KECCAK256 PUSH1 0x8 SWAP1 SWAP2 MUL ADD SLOAD PUSH1 0x1 PUSH1 0xA0 SHL SWAP1 DIV PUSH1 0xFF AND PUSH1 0x3 DUP2 GT ISZERO PUSH2 0x14BB JUMPI INVALID JUMPDEST EQ ISZERO PUSH2 0x16B6 JUMPI PUSH1 0x1 DUP1 DUP3 DUP2 SLOAD DUP2 LT PUSH2 0x14CF JUMPI INVALID JUMPDEST PUSH1 0x0 SWAP2 DUP3 MSTORE PUSH1 0x20 SWAP1 SWAP2 KECCAK256 PUSH1 0x8 SWAP1 SWAP2 MUL ADD DUP1 SLOAD PUSH1 0xFF PUSH1 0xA0 SHL NOT AND PUSH1 0x1 PUSH1 0xA0 SHL DUP4 PUSH1 0x3 DUP2 GT ISZERO PUSH2 0x14F9 JUMPI INVALID JUMPDEST MUL OR SWAP1 SSTORE POP PUSH1 0x0 JUMPDEST PUSH1 0x1 DUP3 DUP2 SLOAD DUP2 LT PUSH2 0x150E JUMPI INVALID JUMPDEST SWAP1 PUSH1 0x0 MSTORE PUSH1 0x20 PUSH1 0x0 KECCAK256 SWAP1 PUSH1 0x8 MUL ADD PUSH1 0x3 ADD SLOAD DUP2 LT ISZERO PUSH2 0x16B0 JUMPI PUSH1 0x0 PUSH1 0x1 DUP4 DUP2 SLOAD DUP2 LT PUSH2 0x1536 JUMPI INVALID JUMPDEST PUSH1 0x0 SWAP2 DUP3 MSTORE PUSH1 0x20 DUP1 DUP4 KECCAK256 DUP6 DUP5 MSTORE PUSH1 0x7 PUSH1 0x8 SWAP1 SWAP4 MUL ADD SWAP2 SWAP1 SWAP2 ADD SWAP1 MSTORE PUSH1 0x40 SWAP1 KECCAK256 SLOAD SWAP1 POP PUSH1 0x1 PUSH1 0x2 DUP3 DUP2 SLOAD DUP2 LT PUSH2 0x1567 JUMPI INVALID JUMPDEST PUSH1 0x0 SWAP2 DUP3 MSTORE PUSH1 0x20 SWAP1 SWAP2 KECCAK256 PUSH1 0x2 PUSH1 0x5 SWAP1 SWAP3 MUL ADD DUP2 ADD SLOAD PUSH1 0xFF AND SWAP1 DUP2 GT ISZERO PUSH2 0x1589 JUMPI INVALID JUMPDEST EQ ISZERO PUSH2 0x15EC JUMPI CALLER PUSH1 0x1 PUSH1 0x1 PUSH1 0xA0 SHL SUB AND PUSH2 0x8FC PUSH1 0x2 DUP4 DUP2 SLOAD DUP2 LT PUSH2 0x15A9 JUMPI INVALID JUMPDEST SWAP1 PUSH1 0x0 MSTORE PUSH1 0x20 PUSH1 0x0 KECCAK256 SWAP1 PUSH1 0x5 MUL ADD PUSH1 0x4 ADD SLOAD SWAP1 DUP2 ISZERO MUL SWAP1 PUSH1 0x40 MLOAD PUSH1 0x0 PUSH1 0x40 MLOAD DUP1 DUP4 SUB DUP2 DUP6 DUP9 DUP9 CALL SWAP4 POP POP POP POP ISZERO DUP1 ISZERO PUSH2 0x15E6 JUMPI RETURNDATASIZE PUSH1 0x0 DUP1 RETURNDATACOPY RETURNDATASIZE PUSH1 0x0 REVERT JUMPDEST POP PUSH2 0x16A7 JUMP JUMPDEST PUSH1 0x2 DUP1 DUP3 DUP2 SLOAD DUP2 LT PUSH2 0x15FA JUMPI INVALID JUMPDEST SWAP1 PUSH1 0x0 MSTORE PUSH1 0x20 PUSH1 0x0 KECCAK256 SWAP1 PUSH1 0x5 MUL ADD PUSH1 0x2 ADD PUSH1 0x0 PUSH2 0x100 EXP DUP2 SLOAD DUP2 PUSH1 0xFF MUL NOT AND SWAP1 DUP4 PUSH1 0x2 DUP2 GT ISZERO PUSH2 0x1626 JUMPI INVALID JUMPDEST MUL OR SWAP1 SSTORE POP PUSH1 0x2 DUP2 DUP2 SLOAD DUP2 LT PUSH2 0x1638 JUMPI INVALID JUMPDEST PUSH1 0x0 SWAP2 DUP3 MSTORE PUSH1 0x20 SWAP1 SWAP2 KECCAK256 PUSH1 0x5 SWAP1 SWAP2 MUL ADD SLOAD PUSH1 0x2 DUP1 SLOAD PUSH1 0x1 PUSH1 0x1 PUSH1 0xA0 SHL SUB SWAP1 SWAP3 AND SWAP2 PUSH2 0x8FC SWAP2 SWAP1 DUP5 SWAP1 DUP2 LT PUSH2 0x1668 JUMPI INVALID JUMPDEST SWAP1 PUSH1 0x0 MSTORE PUSH1 0x20 PUSH1 0x0 KECCAK256 SWAP1 PUSH1 0x5 MUL ADD PUSH1 0x4 ADD SLOAD SWAP1 DUP2 ISZERO MUL SWAP1 PUSH1 0x40 MLOAD PUSH1 0x0 PUSH1 0x40 MLOAD DUP1 DUP4 SUB DUP2 DUP6 DUP9 DUP9 CALL SWAP4 POP POP POP POP ISZERO DUP1 ISZERO PUSH2 0x16A5 JUMPI RETURNDATASIZE PUSH1 0x0 DUP1 RETURNDATACOPY RETURNDATASIZE PUSH1 0x0 REVERT JUMPDEST POP JUMPDEST POP PUSH1 0x1 ADD PUSH2 0x1501 JUMP JUMPDEST POP PUSH2 0xF72 JUMP JUMPDEST PUSH2 0xF72 JUMP JUMPDEST TIMESTAMP PUSH1 0x0 PUSH2 0x16C7 DUP4 PUSH2 0x843 JUMP JUMPDEST SWAP1 POP PUSH1 0x0 PUSH1 0x1 DUP5 DUP2 SLOAD DUP2 LT PUSH2 0x16D8 JUMPI INVALID JUMPDEST SWAP1 PUSH1 0x0 MSTORE PUSH1 0x20 PUSH1 0x0 KECCAK256 SWAP1 PUSH1 0x8 MUL ADD PUSH1 0x5 ADD SLOAD SWAP1 POP PUSH1 0x0 CALLVALUE SWAP1 POP DUP3 DUP2 LT PUSH2 0x1908 JUMPI PUSH1 0x0 DUP4 DUP3 SUB SWAP1 POP PUSH1 0x2 PUSH1 0x1 DUP8 DUP2 SLOAD DUP2 LT PUSH2 0x170E JUMPI INVALID JUMPDEST PUSH1 0x0 SWAP2 DUP3 MSTORE PUSH1 0x20 SWAP1 SWAP2 KECCAK256 PUSH1 0x8 SWAP1 SWAP2 MUL ADD DUP1 SLOAD PUSH1 0xFF PUSH1 0xA0 SHL NOT AND PUSH1 0x1 PUSH1 0xA0 SHL DUP4 PUSH1 0x3 DUP2 GT ISZERO PUSH2 0x1738 JUMPI INVALID JUMPDEST MUL OR SWAP1 SSTORE POP PUSH1 0x0 JUMPDEST PUSH1 0x1 DUP8 DUP2 SLOAD DUP2 LT PUSH2 0x174D JUMPI INVALID JUMPDEST SWAP1 PUSH1 0x0 MSTORE PUSH1 0x20 PUSH1 0x0 KECCAK256 SWAP1 PUSH1 0x8 MUL ADD PUSH1 0x3 ADD SLOAD DUP2 LT ISZERO PUSH2 0x18D3 JUMPI PUSH1 0x0 PUSH1 0x1 DUP9 DUP2 SLOAD DUP2 LT PUSH2 0x1775 JUMPI INVALID JUMPDEST PUSH1 0x0 SWAP2 DUP3 MSTORE PUSH1 0x20 DUP1 DUP4 KECCAK256 DUP6 DUP5 MSTORE PUSH1 0x7 PUSH1 0x8 SWAP1 SWAP4 MUL ADD SWAP2 SWAP1 SWAP2 ADD SWAP1 MSTORE PUSH1 0x40 SWAP1 KECCAK256 SLOAD SWAP1 POP PUSH1 0x1 PUSH1 0x2 DUP3 DUP2 SLOAD DUP2 LT PUSH2 0x17A6 JUMPI INVALID JUMPDEST PUSH1 0x0 SWAP2 DUP3 MSTORE PUSH1 0x20 SWAP1 SWAP2 KECCAK256 PUSH1 0x2 PUSH1 0x5 SWAP1 SWAP3 MUL ADD DUP2 ADD SLOAD PUSH1 0xFF AND SWAP1 DUP2 GT ISZERO PUSH2 0x17C8 JUMPI INVALID JUMPDEST EQ ISZERO PUSH2 0x18CA JUMPI PUSH1 0x0 PUSH1 0x2 DUP3 DUP2 SLOAD DUP2 LT PUSH2 0x17DD JUMPI INVALID JUMPDEST SWAP1 PUSH1 0x0 MSTORE PUSH1 0x20 PUSH1 0x0 KECCAK256 SWAP1 PUSH1 0x5 MUL ADD PUSH1 0x4 ADD SLOAD SWAP1 POP PUSH1 0x0 PUSH1 0x2 DUP4 DUP2 SLOAD DUP2 LT PUSH2 0x1800 JUMPI INVALID JUMPDEST SWAP1 PUSH1 0x0 MSTORE PUSH1 0x20 PUSH1 0x0 KECCAK256 SWAP1 PUSH1 0x5 MUL ADD PUSH1 0x3 ADD SLOAD SWAP1 POP PUSH1 0x0 PUSH4 0xBBF81E00 DUP9 DUP12 SUB DUP4 DUP6 MUL MUL DUP2 PUSH2 0x1829 JUMPI INVALID JUMPDEST DIV SWAP1 POP PUSH1 0x0 DUP4 DUP3 ADD SWAP1 POP PUSH1 0x2 DUP6 DUP2 SLOAD DUP2 LT PUSH2 0x1840 JUMPI INVALID JUMPDEST PUSH1 0x0 SWAP2 DUP3 MSTORE PUSH1 0x20 DUP3 KECCAK256 PUSH1 0x5 SWAP1 SWAP2 MUL ADD SLOAD PUSH1 0x40 MLOAD PUSH1 0x1 PUSH1 0x1 PUSH1 0xA0 SHL SUB SWAP1 SWAP2 AND SWAP2 DUP4 ISZERO PUSH2 0x8FC MUL SWAP2 DUP5 SWAP2 DUP2 DUP2 DUP2 DUP6 DUP9 DUP9 CALL SWAP4 POP POP POP POP ISZERO DUP1 ISZERO PUSH2 0x1885 JUMPI RETURNDATASIZE PUSH1 0x0 DUP1 RETURNDATACOPY RETURNDATASIZE PUSH1 0x0 REVERT JUMPDEST POP PUSH1 0x2 DUP1 DUP7 DUP2 SLOAD DUP2 LT PUSH2 0x1894 JUMPI INVALID JUMPDEST SWAP1 PUSH1 0x0 MSTORE PUSH1 0x20 PUSH1 0x0 KECCAK256 SWAP1 PUSH1 0x5 MUL ADD PUSH1 0x2 ADD PUSH1 0x0 PUSH2 0x100 EXP DUP2 SLOAD DUP2 PUSH1 0xFF MUL NOT AND SWAP1 DUP4 PUSH1 0x2 DUP2 GT ISZERO PUSH2 0x18C0 JUMPI INVALID JUMPDEST MUL OR SWAP1 SSTORE POP POP POP POP POP JUMPDEST POP PUSH1 0x1 ADD PUSH2 0x1740 JUMP JUMPDEST POP PUSH1 0x40 MLOAD CALLER SWAP1 DUP3 ISZERO PUSH2 0x8FC MUL SWAP1 DUP4 SWAP1 PUSH1 0x0 DUP2 DUP2 DUP2 DUP6 DUP9 DUP9 CALL SWAP4 POP POP POP POP ISZERO DUP1 ISZERO PUSH2 0x1901 JUMPI RETURNDATASIZE PUSH1 0x0 DUP1 RETURNDATACOPY RETURNDATASIZE PUSH1 0x0 REVERT JUMPDEST POP POP PUSH2 0x1937 JUMP JUMPDEST PUSH1 0x40 MLOAD CALLER SWAP1 DUP3 ISZERO PUSH2 0x8FC MUL SWAP1 DUP4 SWAP1 PUSH1 0x0 DUP2 DUP2 DUP2 DUP6 DUP9 DUP9 CALL SWAP4 POP POP POP POP ISZERO DUP1 ISZERO PUSH2 0x1935 JUMPI RETURNDATASIZE PUSH1 0x0 DUP1 RETURNDATACOPY RETURNDATASIZE PUSH1 0x0 REVERT JUMPDEST POP JUMPDEST POP POP POP POP POP JUMP JUMPDEST PUSH1 0x1 PUSH1 0x1 PUSH1 0xA0 SHL SUB AND PUSH1 0x0 SWAP1 DUP2 MSTORE PUSH1 0x4 PUSH1 0x20 MSTORE PUSH1 0x40 SWAP1 KECCAK256 SLOAD SWAP1 JUMP JUMPDEST PUSH1 0x1 PUSH1 0x1 PUSH1 0xA0 SHL SUB DUP2 AND PUSH1 0x0 SWAP1 DUP2 MSTORE PUSH1 0x3 PUSH1 0x20 MSTORE PUSH1 0x40 DUP2 KECCAK256 SLOAD DUP1 PUSH2 0x1981 JUMPI PUSH1 0x2 SWAP2 POP POP PUSH2 0x9AD JUMP JUMPDEST PUSH1 0x1 PUSH1 0x1 PUSH1 0xA0 SHL SUB DUP4 AND PUSH1 0x0 SWAP1 DUP2 MSTORE PUSH1 0x3 PUSH1 0x20 MSTORE PUSH1 0x40 SWAP1 KECCAK256 DUP1 SLOAD PUSH1 0x1 SWAP2 SWAP1 PUSH1 0x0 NOT DUP5 ADD SWAP1 DUP2 LT PUSH2 0x19AD JUMPI INVALID JUMPDEST SWAP1 PUSH1 0x0 MSTORE PUSH1 0x20 PUSH1 0x0 KECCAK256 ADD SLOAD DUP2 SLOAD DUP2 LT PUSH2 0x19C2 JUMPI INVALID JUMPDEST PUSH1 0x0 SWAP2 DUP3 MSTORE PUSH1 0x20 SWAP1 SWAP2 KECCAK256 PUSH1 0x8 SWAP1 SWAP2 MUL ADD SLOAD PUSH1 0x1 PUSH1 0xA0 SHL SWAP1 DIV PUSH1 0xFF AND SWAP4 SWAP3 POP POP POP JUMP JUMPDEST PUSH1 0x2 DUP2 DUP2 SLOAD DUP2 LT PUSH2 0x19F1 JUMPI INVALID JUMPDEST PUSH1 0x0 SWAP2 DUP3 MSTORE PUSH1 0x20 SWAP1 SWAP2 KECCAK256 PUSH1 0x5 SWAP1 SWAP2 MUL ADD DUP1 SLOAD PUSH1 0x1 DUP3 ADD SLOAD PUSH1 0x2 DUP4 ADD SLOAD PUSH1 0x3 DUP5 ADD SLOAD PUSH1 0x4 SWAP1 SWAP5 ADD SLOAD PUSH1 0x1 PUSH1 0x1 PUSH1 0xA0 SHL SUB SWAP1 SWAP4 AND SWAP5 POP SWAP1 SWAP3 PUSH1 0xFF SWAP1 SWAP2 AND SWAP2 DUP6 JUMP JUMPDEST PUSH1 0x1 PUSH1 0x1 PUSH1 0xA0 SHL SUB AND PUSH1 0x0 SWAP1 DUP2 MSTORE PUSH1 0x3 PUSH1 0x20 MSTORE PUSH1 0x40 SWAP1 KECCAK256 SLOAD SWAP1 JUMP JUMPDEST PUSH1 0x4 PUSH1 0x20 MSTORE DUP2 PUSH1 0x0 MSTORE PUSH1 0x40 PUSH1 0x0 KECCAK256 DUP2 DUP2 SLOAD DUP2 LT PUSH2 0x9CB JUMPI INVALID JUMPDEST PUSH2 0x1A6D CALLER PUSH2 0xC17 JUMP JUMPDEST ISZERO PUSH2 0x1A77 JUMPI PUSH2 0x1481 JUMP JUMPDEST PUSH1 0x40 DUP1 MLOAD PUSH2 0x100 DUP2 ADD DUP3 MSTORE CALLER DUP2 MSTORE PUSH1 0x0 PUSH1 0x20 DUP3 ADD DUP2 DUP2 MSTORE SWAP3 DUP3 ADD DUP6 SWAP1 MSTORE PUSH1 0x60 DUP3 ADD DUP7 SWAP1 MSTORE PUSH1 0x80 DUP3 ADD DUP2 SWAP1 MSTORE PUSH1 0xA0 DUP3 ADD DUP2 SWAP1 MSTORE TIMESTAMP PUSH1 0xC0 DUP4 ADD DUP2 SWAP1 MSTORE PUSH1 0xE0 DUP4 ADD DUP6 SWAP1 MSTORE PUSH1 0x1 DUP1 SLOAD DUP1 DUP3 ADD DUP1 DUP4 SSTORE SWAP2 SWAP1 SWAP4 MSTORE DUP4 MLOAD PUSH1 0x8 SWAP1 SWAP4 MUL PUSH32 0xB10E2D527612073B26EECDFD717E6A320CF44B4AFAC2B0732D9FCBE2B7FA0CF6 ADD DUP1 SLOAD PUSH1 0x1 PUSH1 0x1 PUSH1 0xA0 SHL SUB SWAP1 SWAP5 AND PUSH1 0x1 PUSH1 0x1 PUSH1 0xA0 SHL SUB NOT SWAP1 SWAP5 AND SWAP4 SWAP1 SWAP4 OR DUP1 DUP5 SSTORE SWAP5 MLOAD SWAP2 SWAP5 SWAP1 SWAP4 SWAP3 SWAP2 SWAP1 DUP3 SWAP1 PUSH1 0xFF PUSH1 0xA0 SHL NOT AND PUSH1 0x1 PUSH1 0xA0 SHL DUP4 PUSH1 0x3 DUP2 GT ISZERO PUSH2 0x1B32 JUMPI INVALID JUMPDEST MUL OR SWAP1 SSTORE POP PUSH1 0x40 DUP3 DUP2 ADD MLOAD PUSH1 0x1 DUP1 DUP5 ADD SWAP2 SWAP1 SWAP2 SSTORE PUSH1 0x60 DUP5 ADD MLOAD PUSH1 0x2 DUP5 ADD SSTORE PUSH1 0x80 DUP5 ADD MLOAD PUSH1 0x3 DUP1 DUP6 ADD SWAP2 SWAP1 SWAP2 SSTORE PUSH1 0xA0 DUP6 ADD MLOAD PUSH1 0x4 DUP6 ADD SSTORE PUSH1 0xC0 DUP6 ADD MLOAD PUSH1 0x5 DUP6 ADD SSTORE PUSH1 0xE0 SWAP1 SWAP5 ADD MLOAD PUSH1 0x6 SWAP1 SWAP4 ADD SWAP3 SWAP1 SWAP3 SSTORE CALLER PUSH1 0x0 SWAP1 DUP2 MSTORE PUSH1 0x20 SWAP4 DUP5 MSTORE SWAP1 DUP2 KECCAK256 DUP3 SLOAD DUP2 SLOAD SWAP4 DUP5 ADD DUP3 SSTORE SWAP1 DUP3 MSTORE SWAP3 SWAP1 KECCAK256 PUSH1 0x0 NOT SWAP3 SWAP1 SWAP3 ADD SWAP2 ADD SSTORE POP POP POP POP POP JUMP INVALID LOG2 PUSH6 0x627A7A723158 KECCAK256 PUSH7 0xFEB74321B64CE8 0xF PUSH5 0x743D3BAD9 0xD1 0xE3 NUMBER DUP15 0xA6 LOG0 0xC7 ORIGIN CALLER 0xB8 0xC9 SWAP1 PUSH22 0x6E673F6064736F6C6343000511003200000000000000 "
				},
				"gasEstimates": {
					"creation": {
						"codeDepositCost": "1428000",
						"executionCost": "22328",
						"totalCost": "1450328"
					},
					"external": {
						"acceptProposal(uint256)": "55091",
						"getActiveLoanId(address)": "4794",
						"getLastLoanDetails(address)": "7308",
						"getLastLoanState(address)": "4765",
						"getLoanDetailsByAddressPosition(address,uint256)": "9128",
						"getProposalAtPosFor(address,uint256)": "14126",
						"getProposalDetailsByLoanIdPosition(uint256,uint256)": "8259",
						"getRepayValue(uint256)": "infinite",
						"hasActiveLoan(address)": "7557",
						"lendMap(address,uint256)": "2141",
						"loanList(uint256)": "7168",
						"loanMap(address,uint256)": "2099",
						"lockLoan(uint256)": "infinite",
						"newLoan(uint256,uint256,bytes32)": "201529",
						"newProposal(uint256,uint256)": "213652",
						"numTotalLoans()": "1131",
						"owner()": "1060",
						"proposalList(uint256)": "5453",
						"repayLoan(uint256)": "infinite",
						"revokeMyProposal(uint256)": "infinite",
						"totalLoansBy(address)": "1230",
						"totalProposalsBy(address)": "1164"
					}
				},
				"methodIdentifiers": {
					"acceptProposal(uint256)": "60c5cc3a",
					"getActiveLoanId(address)": "98325656",
					"getLastLoanDetails(address)": "8a190636",
					"getLastLoanState(address)": "bad9e65a",
					"getLoanDetailsByAddressPosition(address,uint256)": "052065df",
					"getProposalAtPosFor(address,uint256)": "277411d2",
					"getProposalDetailsByLoanIdPosition(uint256,uint256)": "63e84648",
					"getRepayValue(uint256)": "0b278f72",
					"hasActiveLoan(address)": "21d4f8db",
					"lendMap(address,uint256)": "faa72d63",
					"loanList(uint256)": "7621710c",
					"loanMap(address,uint256)": "1594a313",
					"lockLoan(uint256)": "a180f61b",
					"newLoan(uint256,uint256,bytes32)": "fccd238c",
					"newProposal(uint256,uint256)": "1801f00f",
					"numTotalLoans()": "8cad507d",
					"owner()": "8da5cb5b",
					"proposalList(uint256)": "c6311e3f",
					"repayLoan(uint256)": "ab7b1c89",
					"revokeMyProposal(uint256)": "9ce9cc56",
					"totalLoansBy(address)": "e24afbb6",
					"totalProposalsBy(address)": "ac51ba96"
				}
			},
			"storageLayout": {
				"storage": [
					{
						"astId": 3,
						"contract": "contracts/Prop.sol:CrowdBank",
						"label": "owner",
						"offset": 0,
						"slot": "0",
						"type": "t_address"
					},
					{
						"astId": 47,
						"contract": "contracts/Prop.sol:CrowdBank",
						"label": "loanList",
						"offset": 0,
						"slot": "1",
						"type": "t_array(t_struct(Loan)44_storage)dyn_storage"
					},
					{
						"astId": 50,
						"contract": "contracts/Prop.sol:CrowdBank",
						"label": "proposalList",
						"offset": 0,
						"slot": "2",
						"type": "t_array(t_struct(Proposal)18_storage)dyn_storage"
					},
					{
						"astId": 55,
						"contract": "contracts/Prop.sol:CrowdBank",
						"label": "loanMap",
						"offset": 0,
						"slot": "3",
						"type": "t_mapping(t_address,t_array(t_uint256)dyn_storage)"
					},
					{
						"astId": 60,
						"contract": "contracts/Prop.sol:CrowdBank",
						"label": "lendMap",
						"offset": 0,
						"slot": "4",
						"type": "t_mapping(t_address,t_array(t_uint256)dyn_storage)"
					}
				],
				"types": {
					"t_address": {
						"encoding": "inplace",
						"label": "address",
						"numberOfBytes": "20"
					},
					"t_address_payable": {
						"encoding": "inplace",
						"label": "address payable",
						"numberOfBytes": "20"
					},
					"t_array(t_struct(Loan)44_storage)dyn_storage": {
						"base": "t_struct(Loan)44_storage",
						"encoding": "dynamic_array",
						"label": "struct CrowdBank.Loan[]",
						"numberOfBytes": "32"
					},
					"t_array(t_struct(Proposal)18_storage)dyn_storage": {
						"base": "t_struct(Proposal)18_storage",
						"encoding": "dynamic_array",
						"label": "struct CrowdBank.Proposal[]",
						"numberOfBytes": "32"
					},
					"t_array(t_uint256)dyn_storage": {
						"base": "t_uint256",
						"encoding": "dynamic_array",
						"label": "uint256[]",
						"numberOfBytes": "32"
					},
					"t_bytes32": {
						"encoding": "inplace",
						"label": "bytes32",
						"numberOfBytes": "32"
					},
					"t_enum(LoanState)23": {
						"encoding": "inplace",
						"label": "enum CrowdBank.LoanState",
						"numberOfBytes": "1"
					},
					"t_enum(ProposalState)7": {
						"encoding": "inplace",
						"label": "enum CrowdBank.ProposalState",
						"numberOfBytes": "1"
					},
					"t_mapping(t_address,t_array(t_uint256)dyn_storage)": {
						"encoding": "mapping",
						"key": "t_address",
						"label": "mapping(address => uint256[])",
						"numberOfBytes": "32",
						"value": "t_array(t_uint256)dyn_storage"
					},
					"t_mapping(t_uint256,t_uint256)": {
						"encoding": "mapping",
						"key": "t_uint256",
						"label": "mapping(uint256 => uint256)",
						"numberOfBytes": "32",
						"value": "t_uint256"
					},
					"t_struct(Loan)44_storage": {
						"encoding": "inplace",
						"label": "struct CrowdBank.Loan",
						"members": [
							{
								"astId": 25,
								"contract": "contracts/Prop.sol:CrowdBank",
								"label": "borrower",
								"offset": 0,
								"slot": "0",
								"type": "t_address"
							},
							{
								"astId": 27,
								"contract": "contracts/Prop.sol:CrowdBank",
								"label": "state",
								"offset": 20,
								"slot": "0",
								"type": "t_enum(LoanState)23"
							},
							{
								"astId": 29,
								"contract": "contracts/Prop.sol:CrowdBank",
								"label": "dueDate",
								"offset": 0,
								"slot": "1",
								"type": "t_uint256"
							},
							{
								"astId": 31,
								"contract": "contracts/Prop.sol:CrowdBank",
								"label": "amount",
								"offset": 0,
								"slot": "2",
								"type": "t_uint256"
							},
							{
								"astId": 33,
								"contract": "contracts/Prop.sol:CrowdBank",
								"label": "proposalCount",
								"offset": 0,
								"slot": "3",
								"type": "t_uint256"
							},
							{
								"astId": 35,
								"contract": "contracts/Prop.sol:CrowdBank",
								"label": "collected",
								"offset": 0,
								"slot": "4",
								"type": "t_uint256"
							},
							{
								"astId": 37,
								"contract": "contracts/Prop.sol:CrowdBank",
								"label": "startDate",
								"offset": 0,
								"slot": "5",
								"type": "t_uint256"
							},
							{
								"astId": 39,
								"contract": "contracts/Prop.sol:CrowdBank",
								"label": "mortgage",
								"offset": 0,
								"slot": "6",
								"type": "t_bytes32"
							},
							{
								"astId": 43,
								"contract": "contracts/Prop.sol:CrowdBank",
								"label": "proposal",
								"offset": 0,
								"slot": "7",
								"type": "t_mapping(t_uint256,t_uint256)"
							}
						],
						"numberOfBytes": "256"
					},
					"t_struct(Proposal)18_storage": {
						"encoding": "inplace",
						"label": "struct CrowdBank.Proposal",
						"members": [
							{
								"astId": 9,
								"contract": "contracts/Prop.sol:CrowdBank",
								"label": "lender",
								"offset": 0,
								"slot": "0",
								"type": "t_address_payable"
							},
							{
								"astId": 11,
								"contract": "contracts/Prop.sol:CrowdBank",
								"label": "loanId",
								"offset": 0,
								"slot": "1",
								"type": "t_uint256"
							},
							{
								"astId": 13,
								"contract": "contracts/Prop.sol:CrowdBank",
								"label": "state",
								"offset": 0,
								"slot": "2",
								"type": "t_enum(ProposalState)7"
							},
							{
								"astId": 15,
								"contract": "contracts/Prop.sol:CrowdBank",
								"label": "rate",
								"offset": 0,
								"slot": "3",
								"type": "t_uint256"
							},
							{
								"astId": 17,
								"contract": "contracts/Prop.sol:CrowdBank",
								"label": "amount",
								"offset": 0,
								"slot": "4",
								"type": "t_uint256"
							}
						],
						"numberOfBytes": "160"
					},
					"t_uint256": {
						"encoding": "inplace",
						"label": "uint256",
						"numberOfBytes": "32"
					}
				}
			},
			"userdoc": {
				"methods": {}
			}
		}
	}
}