{
	"data": {
		"bytecode": {
			"linkReferences": {},
			"object": "608060405234801561001057600080fd5b50600080546001600160a01b03191633179055611be4806100326000396000f3fe6080604052600436106101355760003560e01c80638da5cb5b116100ab578063ac51ba961161006f578063ac51ba96146105c1578063bad9e65a146105f4578063c6311e3f1461064b578063e24afbb6146106c7578063faa72d63146106fa578063fccd238c1461073357610135565b80638da5cb5b146104ec578063983256561461051d5780639ce9cc5614610550578063a180f61b1461057a578063ab7b1c89146105a457610135565b8063277411d2116100fd578063277411d21461029957806360c5cc3a1461033957806363e84648146103635780637621710c146103dc5780638a190636146104645780638cad507d146104d757610135565b8063052065df1461013a5780630b278f72146101b85780631594a313146101f45780631801f00f1461022d57806321d4f8db14610252575b600080fd5b34801561014657600080fd5b506101736004803603604081101561015d57600080fd5b506001600160a01b038135169060200135610769565b6040518087600381111561018357fe5b60ff1681526020810196909652506040808601949094526060850192909252608084015260a0830152519081900360c0019150f35b3480156101c457600080fd5b506101e2600480360360208110156101db57600080fd5b5035610843565b60408051918252519081900360200190f35b34801561020057600080fd5b506101e26004803603604081101561021757600080fd5b506001600160a01b0381351690602001356109b2565b6102506004803603604081101561024357600080fd5b50803590602001356109e0565b005b34801561025e57600080fd5b506102856004803603602081101561027557600080fd5b50356001600160a01b0316610c17565b604080519115158252519081900360200190f35b3480156102a557600080fd5b506102d2600480360360408110156102bc57600080fd5b506001600160a01b038135169060200135610d28565b60405180896001600160a01b03166001600160a01b0316815260200188815260200187600281111561030057fe5b60ff1681526020018681526020018581526020018481526020018381526020018281526020019850505050505050505060405180910390f35b34801561034557600080fd5b506102506004803603602081101561035c57600080fd5b5035610e42565b34801561036f57600080fd5b506103936004803603604081101561038657600080fd5b5080359060200135610f75565b604051808660028111156103a357fe5b60ff16815260208101959095525060408085019390935260608401919091526001600160a01b03166080830152519081900360a0019150f35b3480156103e857600080fd5b50610406600480360360208110156103ff57600080fd5b5035611030565b6040516001600160a01b03891681526020810188600381111561042557fe5b60ff1681526020018781526020018681526020018581526020018481526020018381526020018281526020019850505050505050505060405180910390f35b34801561047057600080fd5b506104976004803603602081101561048757600080fd5b50356001600160a01b0316611092565b604051808660038111156104a757fe5b60ff1681526020018581526020018481526020018381526020018281526020019550505050505060405180910390f35b3480156104e357600080fd5b506101e2611121565b3480156104f857600080fd5b50610501611127565b604080516001600160a01b039092168252519081900360200190f35b34801561052957600080fd5b506101e26004803603602081101561054057600080fd5b50356001600160a01b0316611136565b34801561055c57600080fd5b506102506004803603602081101561057357600080fd5b50356111eb565b34801561058657600080fd5b506102506004803603602081101561059d57600080fd5b5035611486565b610250600480360360208110156105ba57600080fd5b50356116bb565b3480156105cd57600080fd5b506101e2600480360360208110156105e457600080fd5b50356001600160a01b031661193e565b34801561060057600080fd5b506106276004803603602081101561061757600080fd5b50356001600160a01b0316611959565b6040518082600381111561063757fe5b60ff16815260200191505060405180910390f35b34801561065757600080fd5b506106756004803603602081101561066e57600080fd5b50356119e4565b60405180866001600160a01b03166001600160a01b031681526020018581526020018460028111156106a357fe5b60ff1681526020018381526020018281526020019550505050505060405180910390f35b3480156106d357600080fd5b506101e2600480360360208110156106ea57600080fd5b50356001600160a01b0316611a30565b34801561070657600080fd5b506101e26004803603604081101561071d57600080fd5b506001600160a01b038135169060200135611a4b565b34801561073f57600080fd5b506102506004803603606081101561075657600080fd5b5080359060208101359060400135611a64565b60008060008060008060006001600360008b6001600160a01b03166001600160a01b0316815260200190815260200160002089815481106107a657fe5b9060005260206000200154815481106107bb57fe5b906000526020600020906008020190508060000160149054906101000a900460ff16816001015482600201548360040154600360008e6001600160a01b03166001600160a01b031681526020019081526020016000208c8154811061081c57fe5b90600052602060002001548560060154965096509650965096509650509295509295509295565b6000600180838154811061085357fe5b6000918252602090912060089091020154600160a01b900460ff16600381111561087957fe5b14156109a25760006001838154811061088e57fe5b600091825260208220600560089092020101549150805b600185815481106108b257fe5b906000526020600020906008020160030154811015610998576000600186815481106108da57fe5b6000918252602080832085845260076008909302019190910190526040902054905060016002828154811061090b57fe5b60009182526020909120600260059092020181015460ff169081111561092d57fe5b141561098f5760006002828154811061094257fe5b906000526020600020906005020160040154905060006002838154811061096557fe5b600091825260209091206003600590920201015463bbf81e00908302428890030204949094010192505b506001016108a5565b5091506109ad9050565b5067ffffffffffffffff5b919050565b600360205281600052604060002081815481106109cb57fe5b90600052602060002001600091509150505481565b60006001600160a01b0316600183815481106109f857fe5b60009182526020909120600890910201546001600160a01b03161480610a515750600060018381548110610a2857fe5b6000918252602090912060089091020154600160a01b900460ff166003811115610a4e57fe5b14155b15610a5b57610c13565b6040805160a081018252338152602081018481526000928201838152606083018590523460808401526002805460018082018084559683905285517f405787fa12a823e0f2b7631cc41b3ba8828b3321ca811111fa75cd3aa3bb5ace600590930292830180546001600160a01b0319166001600160a01b0390921691909117815594517f405787fa12a823e0f2b7631cc41b3ba8828b3321ca811111fa75cd3aa3bb5acf83015592517f405787fa12a823e0f2b7631cc41b3ba8828b3321ca811111fa75cd3aa3bb5ad090910180549193909260ff19909216918490811115610b4057fe5b02179055506060820151600382015560809091015160049182015533600090815260209182526040812060025481546001818101845592845293909220600019929092019190920155805490915083908110610b9857fe5b60009182526020909120600360089092020101805460019081019091556002548154600019909101919084908110610bcc57fe5b906000526020600020906008020160070160006001808681548110610bed57fe5b906000526020600020906008020160030154038152602001908152602001600020819055505b5050565b6001600160a01b03811660009081526003602052604081205480610c3f5760009150506109ad565b6001600160a01b03831660009081526003602052604081208054600191906000198501908110610c6b57fe5b906000526020600020015481548110610c8057fe5b6000918252602082206008909102019150600180840381548110610ca057fe5b6000918252602090912060089091020154600160a01b900460ff166003811115610cc657fe5b1415610cd7576001925050506109ad565b60018080840381548110610ce757fe5b6000918252602090912060089091020154600160a01b900460ff166003811115610d0d57fe5b1415610d1e576001925050506109ad565b5060009392505050565b60008060008060008060008060006002600460008d6001600160a01b03166001600160a01b031681526020019081526020016000208b81548110610d6857fe5b906000526020600020015481548110610d7d57fe5b60009182526020909120600590910201805460018083015460028401546003850154600486015484549697506001600160a01b0390951695929460ff90921693909285908110610dc957fe5b9060005260206000209060080201600201546001876001015481548110610dec57fe5b9060005260206000209060080201600101546001886001015481548110610e0f57fe5b90600052602060002090600802016006015487975098509850985098509850985098509850509295985092959890939650565b6000610e4d33611136565b90508067ffffffffffffffff1415610e655750610f72565b600060028381548110610e7457fe5b600091825260208220600590910201915060028083015460ff1690811115610e9857fe5b14610ea4575050610f72565b600060018381548110610eb357fe5b60009182526020822060089091020191508154600160a01b900460ff166003811115610edb57fe5b14610ee857505050610f72565b8060020154826004015482600401540111610f6e57816004015460018481548110610f0f57fe5b906000526020600020906008020160040160008282540192505081905550600160028581548110610f3c57fe5b906000526020600020906005020160020160006101000a81548160ff02191690836002811115610f6857fe5b02179055505b5050505b50565b600080600080600080600260018981548110610f8d57fe5b906000526020600020906008020160070160008981526020019081526020016000205481548110610fba57fe5b906000526020600020906005020190508060020160009054906101000a900460ff168160030154826004015460018b81548110610ff357fe5b600091825260208083209c8352600891909102909b01600701909a526040909920549254919a9099509196506001600160a01b0316945092505050565b6001818154811061103d57fe5b600091825260209091206008909102018054600182015460028301546003840154600485015460058601546006909601546001600160a01b0386169750600160a01b90950460ff169593949293919290919088565b6001600160a01b03811660009081526003602052604081208054829182918291829190829060019060001984018481106110c857fe5b9060005260206000200154815481106110dd57fe5b600091825260209091206008909102018054600182015460028301546003840154600490940154600160a01b90930460ff169c919b50995091975095509350505050565b60015490565b6000546001600160a01b031681565b6001600160a01b038116600090815260036020526040812054806111655767ffffffffffffffff9150506109ad565b6001600160a01b03831660009081526003602052604081208054600019840190811061118d57fe5b60009182526020822001549150600182815481106111a757fe5b6000918252602090912060089091020154600160a01b900460ff1660038111156111cd57fe5b146111e45767ffffffffffffffff925050506109ad565b9392505050565b33600090815260046020526040812080548390811061120657fe5b600091825260208220015491506002828154811061122057fe5b60009182526020909120600260059092020181015460ff169081111561124257fe5b1461124d5750610f72565b60006002828154811061125c57fe5b6000918252602082206001600590920201015491506001828154811061127e57fe5b6000918252602090912060089091020154600160a01b900460ff1660038111156112a457fe5b14156113465760028083815481106112b857fe5b906000526020600020906005020160020160006101000a81548160ff021916908360028111156112e457fe5b0217905550336001600160a01b03166108fc6002848154811061130357fe5b9060005260206000209060050201600401549081150290604051600060405180830381858888f19350505050158015611340573d6000803e3d6000fd5b50611481565b600180828154811061135457fe5b6000918252602090912060089091020154600160a01b900460ff16600381111561137a57fe5b141561148157426001828154811061138e57fe5b90600052602060002090600802016001015410156113ad575050610f72565b6003600182815481106113bc57fe5b60009182526020909120600890910201805460ff60a01b1916600160a01b8360038111156113e657fe5b021790555060005b600182815481106113fb57fe5b906000526020600020906008020160030154811015610f6e5760006001838154811061142357fe5b6000918252602080832085845260076008909302019190910190526040902054905060016002828154811061145457fe5b60009182526020909120600260059092020181015460ff169081111561147657fe5b5050506001016113ee565b505050565b60006001828154811061149557fe5b6000918252602090912060089091020154600160a01b900460ff1660038111156114bb57fe5b14156116b65760018082815481106114cf57fe5b60009182526020909120600890910201805460ff60a01b1916600160a01b8360038111156114f957fe5b021790555060005b6001828154811061150e57fe5b9060005260206000209060080201600301548110156116b05760006001838154811061153657fe5b6000918252602080832085845260076008909302019190910190526040902054905060016002828154811061156757fe5b60009182526020909120600260059092020181015460ff169081111561158957fe5b14156115ec57336001600160a01b03166108fc600283815481106115a957fe5b9060005260206000209060050201600401549081150290604051600060405180830381858888f193505050501580156115e6573d6000803e3d6000fd5b506116a7565b60028082815481106115fa57fe5b906000526020600020906005020160020160006101000a81548160ff0219169083600281111561162657fe5b02179055506002818154811061163857fe5b6000918252602090912060059091020154600280546001600160a01b03909216916108fc91908490811061166857fe5b9060005260206000209060050201600401549081150290604051600060405180830381858888f193505050501580156116a5573d6000803e3d6000fd5b505b50600101611501565b50610f72565b610f72565b4260006116c783610843565b90506000600184815481106116d857fe5b90600052602060002090600802016005015490506000349050828110611908576000838203905060026001878154811061170e57fe5b60009182526020909120600890910201805460ff60a01b1916600160a01b83600381111561173857fe5b021790555060005b6001878154811061174d57fe5b9060005260206000209060080201600301548110156118d35760006001888154811061177557fe5b600091825260208083208584526007600890930201919091019052604090205490506001600282815481106117a657fe5b60009182526020909120600260059092020181015460ff16908111156117c857fe5b14156118ca576000600282815481106117dd57fe5b906000526020600020906005020160040154905060006002838154811061180057fe5b9060005260206000209060050201600301549050600063bbf81e00888b03838502028161182957fe5b049050600083820190506002858154811061184057fe5b600091825260208220600590910201546040516001600160a01b039091169183156108fc02918491818181858888f19350505050158015611885573d6000803e3d6000fd5b50600280868154811061189457fe5b906000526020600020906005020160020160006101000a81548160ff021916908360028111156118c057fe5b0217905550505050505b50600101611740565b50604051339082156108fc029083906000818181858888f19350505050158015611901573d6000803e3d6000fd5b5050611937565b604051339082156108fc029083906000818181858888f19350505050158015611935573d6000803e3d6000fd5b505b5050505050565b6001600160a01b031660009081526004602052604090205490565b6001600160a01b038116600090815260036020526040812054806119815760029150506109ad565b6001600160a01b038316600090815260036020526040902080546001919060001984019081106119ad57fe5b9060005260206000200154815481106119c257fe5b6000918252602090912060089091020154600160a01b900460ff169392505050565b600281815481106119f157fe5b6000918252602090912060059091020180546001820154600283015460038401546004909401546001600160a01b039093169450909260ff9091169185565b6001600160a01b031660009081526003602052604090205490565b600460205281600052604060002081815481106109cb57fe5b611a6d33610c17565b15611a7757611481565b6040805161010081018252338152600060208201818152928201859052606082018690526080820181905260a082018190524260c0830181905260e083018590526001805480820180835591909352835160089093027fb10e2d527612073b26eecdfd717e6a320cf44b4afac2b0732d9fcbe2b7fa0cf60180546001600160a01b039094166001600160a01b031990941693909317808455945191949093929190829060ff60a01b1916600160a01b836003811115611b3257fe5b021790555060408281015160018084019190915560608401516002840155608084015160038085019190915560a0850151600485015560c0850151600585015560e090940151600690930192909255336000908152602093845290812082548154938401825590825292902060001992909201910155505050505056fea265627a7a7231582066feb74321b64ce80f640743d3bad9d1e3438ea6a0c73233b8c990756e673f6064736f6c63430005110032",
			"opcodes": "PUSH1 0x80 PUSH1 0x40 MSTORE CALLVALUE DUP1 ISZERO PUSH2 0x10 JUMPI PUSH1 0x0 DUP1 REVERT JUMPDEST POP PUSH1 0x0 DUP1 SLOAD PUSH1 0x1 PUSH1 0x1 PUSH1 0xA0 SHL SUB NOT AND CALLER OR SWAP1 SSTORE PUSH2 0x1BE4 DUP1 PUSH2 0x32 PUSH1 0x0 CODECOPY PUSH1 0x0 RETURN INVALID PUSH1 0x80 PUSH1 0x40 MSTORE PUSH1 0x4 CALLDATASIZE LT PUSH2 0x135 JUMPI PUSH1 0x0 CALLDATALOAD PUSH1 0xE0 SHR DUP1 PUSH4 0x8DA5CB5B GT PUSH2 0xAB JUMPI DUP1 PUSH4 0xAC51BA96 GT PUSH2 0x6F JUMPI DUP1 PUSH4 0xAC51BA96 EQ PUSH2 0x5C1 JUMPI DUP1 PUSH4 0xBAD9E65A EQ PUSH2 0x5F4 JUMPI DUP1 PUSH4 0xC6311E3F EQ PUSH2 0x64B JUMPI DUP1 PUSH4 0xE24AFBB6 EQ PUSH2 0x6C7 JUMPI DUP1 PUSH4 0xFAA72D63 EQ PUSH2 0x6FA JUMPI DUP1 PUSH4 0xFCCD238C EQ PUSH2 0x733 JUMPI PUSH2 0x135 JUMP JUMPDEST DUP1 PUSH4 0x8DA5CB5B EQ PUSH2 0x4EC JUMPI DUP1 PUSH4 0x98325656 EQ PUSH2 0x51D JUMPI DUP1 PUSH4 0x9CE9CC56 EQ PUSH2 0x550 JUMPI DUP1 PUSH4 0xA180F61B EQ PUSH2 0x57A JUMPI DUP1 PUSH4 0xAB7B1C89 EQ PUSH2 0x5A4 JUMPI PUSH2 0x135 JUMP JUMPDEST DUP1 PUSH4 0x277411D2 GT PUSH2 0xFD JUMPI DUP1 PUSH4 0x277411D2 EQ PUSH2 0x299 JUMPI DUP1 PUSH4 0x60C5CC3A EQ PUSH2 0x339 JUMPI DUP1 PUSH4 0x63E84648 EQ PUSH2 0x363 JUMPI DUP1 PUSH4 0x7621710C EQ PUSH2 0x3DC JUMPI DUP1 PUSH4 0x8A190636 EQ PUSH2 0x464 JUMPI DUP1 PUSH4 0x8CAD507D EQ PUSH2 0x4D7 JUMPI PUSH2 0x135 JUMP JUMPDEST DUP1 PUSH4 0x52065DF EQ PUSH2 0x13A JUMPI DUP1 PUSH4 0xB278F72 EQ PUSH2 0x1B8 JUMPI DUP1 PUSH4 0x1594A313 EQ PUSH2 0x1F4 JUMPI DUP1 PUSH4 0x1801F00F EQ PUSH2 0x22D JUMPI DUP1 PUSH4 0x21D4F8DB EQ PUSH2 0x252 JUMPI JUMPDEST PUSH1 0x0 DUP1 REVERT JUMPDEST CALLVALUE DUP1 ISZERO PUSH2 0x146 JUMPI PUSH1 0x0 DUP1 REVERT JUMPDEST POP PUSH2 0x173 PUSH1 0x4 DUP1 CALLDATASIZE SUB PUSH1 0x40 DUP2 LT ISZERO PUSH2 0x15D JUMPI PUSH1 0x0 DUP1 REVERT JUMPDEST POP PUSH1 0x1 PUSH1 0x1 PUSH1 0xA0 SHL SUB DUP2 CALLDATALOAD AND SWAP1 PUSH1 0x20 ADD CALLDATALOAD PUSH2 0x769 JUMP JUMPDEST PUSH1 0x40 MLOAD DUP1 DUP8 PUSH1 0x3 DUP2 GT ISZERO PUSH2 0x183 JUMPI INVALID JUMPDEST PUSH1 0xFF AND DUP2 MSTORE PUSH1 0x20 DUP2 ADD SWAP7 SWAP1 SWAP7 MSTORE POP PUSH1 0x40 DUP1 DUP7 ADD SWAP5 SWAP1 SWAP5 MSTORE PUSH1 0x60 DUP6 ADD SWAP3 SWAP1 SWAP3 MSTORE PUSH1 0x80 DUP5 ADD MSTORE PUSH1 0xA0 DUP4 ADD MSTORE MLOAD SWAP1 DUP2 SWAP1 SUB PUSH1 0xC0 ADD SWAP2 POP RETURN JUMPDEST CALLVALUE DUP1 ISZERO PUSH2 0x1C4 JUMPI PUSH1 0x0 DUP1 REVERT JUMPDEST POP PUSH2 0x1E2 PUSH1 0x4 DUP1 CALLDATASIZE SUB PUSH1 0x20 DUP2 LT ISZERO PUSH2 0x1DB JUMPI PUSH1 0x0 DUP1 REVERT JUMPDEST POP CALLDATALOAD PUSH2 0x843 JUMP JUMPDEST PUSH1 0x40 DUP1 MLOAD SWAP2 DUP3 MSTORE MLOAD SWAP1 DUP2 SWAP1 SUB PUSH1 0x20 ADD SWAP1 RETURN JUMPDEST CALLVALUE DUP1 ISZERO PUSH2 0x200 JUMPI PUSH1 0x0 DUP1 REVERT JUMPDEST POP PUSH2 0x1E2 PUSH1 0x4 DUP1 CALLDATASIZE SUB PUSH1 0x40 DUP2 LT ISZERO PUSH2 0x217 JUMPI PUSH1 0x0 DUP1 REVERT JUMPDEST POP PUSH1 0x1 PUSH1 0x1 PUSH1 0xA0 SHL SUB DUP2 CALLDATALOAD AND SWAP1 PUSH1 0x20 ADD CALLDATALOAD PUSH2 0x9B2 JUMP JUMPDEST PUSH2 0x250 PUSH1 0x4 DUP1 CALLDATASIZE SUB PUSH1 0x40 DUP2 LT ISZERO PUSH2 0x243 JUMPI PUSH1 0x0 DUP1 REVERT JUMPDEST POP DUP1 CALLDATALOAD SWAP1 PUSH1 0x20 ADD CALLDATALOAD PUSH2 0x9E0 JUMP JUMPDEST STOP JUMPDEST CALLVALUE DUP1 ISZERO PUSH2 0x25E JUMPI PUSH1 0x0 DUP1 REVERT JUMPDEST POP PUSH2 0x285 PUSH1 0x4 DUP1 CALLDATASIZE SUB PUSH1 0x20 DUP2 LT ISZERO PUSH2 0x275 JUMPI PUSH1 0x0 DUP1 REVERT JUMPDEST POP CALLDATALOAD PUSH1 0x1 PUSH1 0x1 PUSH1 0xA0 SHL SUB AND PUSH2 0xC17 JUMP JUMPDEST PUSH1 0x40 DUP1 MLOAD SWAP2 ISZERO ISZERO DUP3 MSTORE MLOAD SWAP1 DUP2 SWAP1 SUB PUSH1 0x20 ADD SWAP1 RETURN JUMPDEST CALLVALUE DUP1 ISZERO PUSH2 0x2A5 JUMPI PUSH1 0x0 DUP1 REVERT JUMPDEST POP PUSH2 0x2D2 PUSH1 0x4 DUP1 CALLDATASIZE SUB PUSH1 0x40 DUP2 LT ISZERO PUSH2 0x2BC JUMPI PUSH1 0x0 DUP1 REVERT JUMPDEST POP PUSH1 0x1 PUSH1 0x1 PUSH1 0xA0 SHL SUB DUP2 CALLDATALOAD AND SWAP1 PUSH1 0x20 ADD CALLDATALOAD PUSH2 0xD28 JUMP JUMPDEST PUSH1 0x40 MLOAD DUP1 DUP10 PUSH1 0x1 PUSH1 0x1 PUSH1 0xA0 SHL SUB AND PUSH1 0x1 PUSH1 0x1 PUSH1 0xA0 SHL SUB AND DUP2 MSTORE PUSH1 0x20 ADD DUP9 DUP2 MSTORE PUSH1 0x20 ADD DUP8 PUSH1 0x2 DUP2 GT ISZERO PUSH2 0x300 JUMPI INVALID JUMPDEST PUSH1 0xFF AND DUP2 MSTORE PUSH1 0x20 ADD DUP7 DUP2 MSTORE PUSH1 0x20 ADD DUP6 DUP2 MSTORE PUSH1 0x20 ADD DUP5 DUP2 MSTORE PUSH1 0x20 ADD DUP4 DUP2 MSTORE PUSH1 0x20 ADD DUP3 DUP2 MSTORE PUSH1 0x20 ADD SWAP9 POP POP POP POP POP POP POP POP POP PUSH1 0x40 MLOAD DUP1 SWAP2 SUB SWAP1 RETURN JUMPDEST CALLVALUE DUP1 ISZERO PUSH2 0x345 JUMPI PUSH1 0x0 DUP1 REVERT JUMPDEST POP PUSH2 0x250 PUSH1 0x4 DUP1 CALLDATASIZE SUB PUSH1 0x20 DUP2 LT ISZERO PUSH2 0x35C JUMPI PUSH1 0x0 DUP1 REVERT JUMPDEST POP CALLDATALOAD PUSH2 0xE42 JUMP JUMPDEST CALLVALUE DUP1 ISZERO PUSH2 0x36F JUMPI PUSH1 0x0 DUP1 REVERT JUMPDEST POP PUSH2 0x393 PUSH1 0x4 DUP1 CALLDATASIZE SUB PUSH1 0x40 DUP2 LT ISZERO PUSH2 0x386 JUMPI PUSH1 0x0 DUP1 REVERT JUMPDEST POP DUP1 CALLDATALOAD SWAP1 PUSH1 0x20 ADD CALLDATALOAD PUSH2 0xF75 JUMP JUMPDEST PUSH1 0x40 MLOAD DUP1 DUP7 PUSH1 0x2 DUP2 GT ISZERO PUSH2 0x3A3 JUMPI INVALID JUMPDEST PUSH1 0xFF AND DUP2 MSTORE PUSH1 0x20 DUP2 ADD SWAP6 SWAP1 SWAP6 MSTORE POP PUSH1 0x40 DUP1 DUP6 ADD SWAP4 SWAP1 SWAP4 MSTORE PUSH1 0x60 DUP5 ADD SWAP2 SWAP1 SWAP2 MSTORE PUSH1 0x1 PUSH1 0x1 PUSH1 0xA0 SHL SUB AND PUSH1 0x80 DUP4 ADD MSTORE MLOAD SWAP1 DUP2 SWAP1 SUB PUSH1 0xA0 ADD SWAP2 POP RETURN JUMPDEST CALLVALUE DUP1 ISZERO PUSH2 0x3E8 JUMPI PUSH1 0x0 DUP1 REVERT JUMPDEST POP PUSH2 0x406 PUSH1 0x4 DUP1 CALLDATASIZE SUB PUSH1 0x20 DUP2 LT ISZERO PUSH2 0x3FF JUMPI PUSH1 0x0 DUP1 REVERT JUMPDEST POP CALLDATALOAD PUSH2 0x1030 JUMP JUMPDEST PUSH1 0x40 MLOAD PUSH1 0x1 PUSH1 0x1 PUSH1 0xA0 SHL SUB DUP10 AND DUP2 MSTORE PUSH1 0x20 DUP2 ADD DUP9 PUSH1 0x3 DUP2 GT ISZERO PUSH2 0x425 JUMPI INVALID JUMPDEST PUSH1 0xFF AND DUP2 MSTORE PUSH1 0x20 ADD DUP8 DUP2 MSTORE PUSH1 0x20 ADD DUP7 DUP2 MSTORE PUSH1 0x20 ADD DUP6 DUP2 MSTORE PUSH1 0x20 ADD DUP5 DUP2 MSTORE PUSH1 0x20 ADD DUP4 DUP2 MSTORE PUSH1 0x20 ADD DUP3 DUP2 MSTORE PUSH1 0x20 ADD SWAP9 POP POP POP POP POP POP POP POP POP PUSH1 0x40 MLOAD DUP1 SWAP2 SUB SWAP1 RETURN JUMPDEST CALLVALUE DUP1 ISZERO PUSH2 0x470 JUMPI PUSH1 0x0 DUP1 REVERT JUMPDEST POP PUSH2 0x497 PUSH1 0x4 DUP1 CALLDATASIZE SUB PUSH1 0x20 DUP2 LT ISZERO PUSH2 0x487 JUMPI PUSH1 0x0 DUP1 REVERT JUMPDEST POP CALLDATALOAD PUSH1 0x1 PUSH1 0x1 PUSH1 0xA0 SHL SUB AND PUSH2 0x1092 JUMP JUMPDEST PUSH1 0x40 MLOAD DUP1 DUP7 PUSH1 0x3 DUP2 GT ISZERO PUSH2 0x4A7 JUMPI INVALID JUMPDEST PUSH1 0xFF AND DUP2 MSTORE PUSH1 0x20 ADD DUP6 DUP2 MSTORE PUSH1 0x20 ADD DUP5 DUP2 MSTORE PUSH1 0x20 ADD DUP4 DUP2 MSTORE PUSH1 0x20 ADD DUP3 DUP2 MSTORE PUSH1 0x20 ADD SWAP6 POP POP POP POP POP POP PUSH1 0x40 MLOAD DUP1 SWAP2 SUB SWAP1 RETURN JUMPDEST CALLVALUE DUP1 ISZERO PUSH2 0x4E3 JUMPI PUSH1 0x0 DUP1 REVERT JUMPDEST POP PUSH2 0x1E2 PUSH2 0x1121 JUMP JUMPDEST CALLVALUE DUP1 ISZERO PUSH2 0x4F8 JUMPI PUSH1 0x0 DUP1 REVERT JUMPDEST POP PUSH2 0x501 PUSH2 0x1127 JUMP JUMPDEST PUSH1 0x40 DUP1 MLOAD PUSH1 0x1 PUSH1 0x1 PUSH1 0xA0 SHL SUB SWAP1 SWAP3 AND DUP3 MSTORE MLOAD SWAP1 DUP2 SWAP1 SUB PUSH1 0x20 ADD SWAP1 RETURN JUMPDEST CALLVALUE DUP1 ISZERO PUSH2 0x529 JUMPI PUSH1 0x0 DUP1 REVERT JUMPDEST POP PUSH2 0x1E2 PUSH1 0x4 DUP1 CALLDATASIZE SUB PUSH1 0x20 DUP2 LT ISZERO PUSH2 0x540 JUMPI PUSH1 0x0 DUP1 REVERT JUMPDEST POP CALLDATALOAD PUSH1 0x1 PUSH1 0x1 PUSH1 0xA0 SHL SUB AND PUSH2 0x1136 JUMP JUMPDEST CALLVALUE DUP1 ISZERO PUSH2 0x55C JUMPI PUSH1 0x0 DUP1 REVERT JUMPDEST POP PUSH2 0x250 PUSH1 0x4 DUP1 CALLDATASIZE SUB PUSH1 0x20 DUP2 LT ISZERO PUSH2 0x573 JUMPI PUSH1 0x0 DUP1 REVERT JUMPDEST POP CALLDATALOAD PUSH2 0x11EB JUMP JUMPDEST CALLVALUE DUP1 ISZERO PUSH2 0x586 JUMPI PUSH1 0x0 DUP1 REVERT JUMPDEST POP PUSH2 0x250 PUSH1 0x4 DUP1 CALLDATASIZE SUB PUSH1 0x20 DUP2 LT ISZERO PUSH2 0x59D JUMPI PUSH1 0x0 DUP1 REVERT JUMPDEST POP CALLDATALOAD PUSH2 0x1486 JUMP JUMPDEST PUSH2 0x250 PUSH1 0x4 DUP1 CALLDATASIZE SUB PUSH1 0x20 DUP2 LT ISZERO PUSH2 0x5BA JUMPI PUSH1 0x0 DUP1 REVERT JUMPDEST POP CALLDATALOAD PUSH2 0x16BB JUMP JUMPDEST CALLVALUE DUP1 ISZERO PUSH2 0x5CD JUMPI PUSH1 0x0 DUP1 REVERT JUMPDEST POP PUSH2 0x1E2 PUSH1 0x4 DUP1 CALLDATASIZE SUB PUSH1 0x20 DUP2 LT ISZERO PUSH2 0x5E4 JUMPI PUSH1 0x0 DUP1 REVERT JUMPDEST POP CALLDATALOAD PUSH1 0x1 PUSH1 0x1 PUSH1 0xA0 SHL SUB AND PUSH2 0x193E JUMP JUMPDEST CALLVALUE DUP1 ISZERO PUSH2 0x600 JUMPI PUSH1 0x0 DUP1 REVERT JUMPDEST POP PUSH2 0x627 PUSH1 0x4 DUP1 CALLDATASIZE SUB PUSH1 0x20 DUP2 LT ISZERO PUSH2 0x617 JUMPI PUSH1 0x0 DUP1 REVERT JUMPDEST POP CALLDATALOAD PUSH1 0x1 PUSH1 0x1 PUSH1 0xA0 SHL SUB AND PUSH2 0x1959 JUMP JUMPDEST PUSH1 0x40 MLOAD DUP1 DUP3 PUSH1 0x3 DUP2 GT ISZERO PUSH2 0x637 JUMPI INVALID JUMPDEST PUSH1 0xFF AND DUP2 MSTORE PUSH1 0x20 ADD SWAP2 POP POP PUSH1 0x40 MLOAD DUP1 SWAP2 SUB SWAP1 RETURN JUMPDEST CALLVALUE DUP1 ISZERO PUSH2 0x657 JUMPI PUSH1 0x0 DUP1 REVERT JUMPDEST POP PUSH2 0x675 PUSH1 0x4 DUP1 CALLDATASIZE SUB PUSH1 0x20 DUP2 LT ISZERO PUSH2 0x66E JUMPI PUSH1 0x0 DUP1 REVERT JUMPDEST POP CALLDATALOAD PUSH2 0x19E4 JUMP JUMPDEST PUSH1 0x40 MLOAD DUP1 DUP7 PUSH1 0x1 PUSH1 0x1 PUSH1 0xA0 SHL SUB AND PUSH1 0x1 PUSH1 0x1 PUSH1 0xA0 SHL SUB AND DUP2 MSTORE PUSH1 0x20 ADD DUP6 DUP2 MSTORE PUSH1 0x20 ADD DUP5 PUSH1 0x2 DUP2 GT ISZERO PUSH2 0x6A3 JUMPI INVALID JUMPDEST PUSH1 0xFF AND DUP2 MSTORE PUSH1 0x20 ADD DUP4 DUP2 MSTORE PUSH1 0x20 ADD DUP3 DUP2 MSTORE PUSH1 0x20 ADD SWAP6 POP POP POP POP POP POP PUSH1 0x40 MLOAD DUP1 SWAP2 SUB SWAP1 RETURN JUMPDEST CALLVALUE DUP1 ISZERO PUSH2 0x6D3 JUMPI PUSH1 0x0 DUP1 REVERT JUMPDEST POP PUSH2 0x1E2 PUSH1 0x4 DUP1 CALLDATASIZE SUB PUSH1 0x20 DUP2 LT ISZERO PUSH2 0x6EA JUMPI PUSH1 0x0 DUP1 REVERT JUMPDEST POP CALLDATALOAD PUSH1 0x1 PUSH1 0x1 PUSH1 0xA0 SHL SUB AND PUSH2 0x1A30 JUMP JUMPDEST CALLVALUE DUP1 ISZERO PUSH2 0x706 JUMPI PUSH1 0x0 DUP1 REVERT JUMPDEST POP PUSH2 0x1E2 PUSH1 0x4 DUP1 CALLDATASIZE SUB PUSH1 0x40 DUP2 LT ISZERO PUSH2 0x71D JUMPI PUSH1 0x0 DUP1 REVERT JUMPDEST POP PUSH1 0x1 PUSH1 0x1 PUSH1 0xA0 SHL SUB DUP2 CALLDATALOAD AND SWAP1 PUSH1 0x20 ADD CALLDATALOAD PUSH2 0x1A4B JUMP JUMPDEST CALLVALUE DUP1 ISZERO PUSH2 0x73F JUMPI PUSH1 0x0 DUP1 REVERT JUMPDEST POP PUSH2 0x250 PUSH1 0x4 DUP1 CALLDATASIZE SUB PUSH1 0x60 DUP2 LT ISZERO PUSH2 0x756 JUMPI PUSH1 0x0 DUP1 REVERT JUMPDEST POP DUP1 CALLDATALOAD SWAP1 PUSH1 0x20 DUP2 ADD CALLDATALOAD SWAP1 PUSH1 0x40 ADD CALLDATALOAD PUSH2 0x1A64 JUMP JUMPDEST PUSH1 0x0 DUP1 PUSH1 0x0 DUP1 PUSH1 0x0 DUP1 PUSH1 0x0 PUSH1 0x1 PUSH1 0x3 PUSH1 0x0 DUP12 PUSH1 0x1 PUSH1 0x1 PUSH1 0xA0 SHL SUB AND PUSH1 0x1 PUSH1 0x1 PUSH1 0xA0 SHL SUB AND DUP2 MSTORE PUSH1 0x20 ADD SWAP1 DUP2 MSTORE PUSH1 0x20 ADD PUSH1 0x0 KECCAK256 DUP10 DUP2 SLOAD DUP2 LT PUSH2 0x7A6 JUMPI INVALID JUMPDEST SWAP1 PUSH1 0x0 MSTORE PUSH1 0x20 PUSH1 0x0 KECCAK256 ADD SLOAD DUP2 SLOAD DUP2 LT PUSH2 0x7BB JUMPI INVALID JUMPDEST SWAP1 PUSH1 0x0 MSTORE PUSH1 0x20 PUSH1 0x0 KECCAK256 SWAP1 PUSH1 0x8 MUL ADD SWAP1 POP DUP1 PUSH1 0x0 ADD PUSH1 0x14 SWAP1 SLOAD SWAP1 PUSH2 0x100 EXP SWAP1 DIV PUSH1 0xFF AND DUP2 PUSH1 0x1 ADD SLOAD DUP3 PUSH1 0x2 ADD SLOAD DUP4 PUSH1 0x4 ADD SLOAD PUSH1 0x3 PUSH1 0x0 DUP15 PUSH1 0x1 PUSH1 0x1 PUSH1 0xA0 SHL SUB AND PUSH1 0x1 PUSH1 0x1 PUSH1 0xA0 SHL SUB AND DUP2 MSTORE PUSH1 0x20 ADD SWAP1 DUP2 MSTORE PUSH1 0x20 ADD PUSH1 0x0 KECCAK256 DUP13 DUP2 SLOAD DUP2 LT PUSH2 0x81C JUMPI INVALID JUMPDEST SWAP1 PUSH1 0x0 MSTORE PUSH1 0x20 PUSH1 0x0 KECCAK256 ADD SLOAD DUP6 PUSH1 0x6 ADD SLOAD SWAP7 POP SWAP7 POP SWAP7 POP SWAP7 POP SWAP7 POP SWAP7 POP POP SWAP3 SWAP6 POP SWAP3 SWAP6 POP SWAP3 SWAP6 JUMP JUMPDEST PUSH1 0x0 PUSH1 0x1 DUP1 DUP4 DUP2 SLOAD DUP2 LT PUSH2 0x853 JUMPI INVALID JUMPDEST PUSH1 0x0 SWAP2 DUP3 MSTORE PUSH1 0x20 SWAP1 SWAP2 KECCAK256 PUSH1 0x8 SWAP1 SWAP2 MUL ADD SLOAD PUSH1 0x1 PUSH1 0xA0 SHL SWAP1 DIV PUSH1 0xFF AND PUSH1 0x3 DUP2 GT ISZERO PUSH2 0x879 JUMPI INVALID JUMPDEST EQ ISZERO PUSH2 0x9A2 JUMPI PUSH1 0x0 PUSH1 0x1 DUP4 DUP2 SLOAD DUP2 LT PUSH2 0x88E JUMPI INVALID JUMPDEST PUSH1 0x0 SWAP2 DUP3 MSTORE PUSH1 0x20 DUP3 KECCAK256 PUSH1 0x5 PUSH1 0x8 SWAP1 SWAP3 MUL ADD ADD SLOAD SWAP2 POP DUP1 JUMPDEST PUSH1 0x1 DUP6 DUP2 SLOAD DUP2 LT PUSH2 0x8B2 JUMPI INVALID JUMPDEST SWAP1 PUSH1 0x0 MSTORE PUSH1 0x20 PUSH1 0x0 KECCAK256 SWAP1 PUSH1 0x8 MUL ADD PUSH1 0x3 ADD SLOAD DUP2 LT ISZERO PUSH2 0x998 JUMPI PUSH1 0x0 PUSH1 0x1 DUP7 DUP2 SLOAD DUP2 LT PUSH2 0x8DA JUMPI INVALID JUMPDEST PUSH1 0x0 SWAP2 DUP3 MSTORE PUSH1 0x20 DUP1 DUP4 KECCAK256 DUP6 DUP5 MSTORE PUSH1 0x7 PUSH1 0x8 SWAP1 SWAP4 MUL ADD SWAP2 SWAP1 SWAP2 ADD SWAP1 MSTORE PUSH1 0x40 SWAP1 KECCAK256 SLOAD SWAP1 POP PUSH1 0x1 PUSH1 0x2 DUP3 DUP2 SLOAD DUP2 LT PUSH2 0x90B JUMPI INVALID JUMPDEST PUSH1 0x0 SWAP2 DUP3 MSTORE PUSH1 0x20 SWAP1 SWAP2 KECCAK256 PUSH1 0x2 PUSH1 0x5 SWAP1 SWAP3 MUL ADD DUP2 ADD SLOAD PUSH1 0xFF AND SWAP1 DUP2 GT ISZERO PUSH2 0x92D JUMPI INVALID JUMPDEST EQ ISZERO PUSH2 0x98F JUMPI PUSH1 0x0 PUSH1 0x2 DUP3 DUP2 SLOAD DUP2 LT PUSH2 0x942 JUMPI INVALID JUMPDEST SWAP1 PUSH1 0x0 MSTORE PUSH1 0x20 PUSH1 0x0 KECCAK256 SWAP1 PUSH1 0x5 MUL ADD PUSH1 0x4 ADD SLOAD SWAP1 POP PUSH1 0x0 PUSH1 0x2 DUP4 DUP2 SLOAD DUP2 LT PUSH2 0x965 JUMPI INVALID JUMPDEST PUSH1 0x0 SWAP2 DUP3 MSTORE PUSH1 0x20 SWAP1 SWAP2 KECCAK256 PUSH1 0x3 PUSH1 0x5 SWAP1 SWAP3 MUL ADD ADD SLOAD PUSH4 0xBBF81E00 SWAP1 DUP4 MUL TIMESTAMP DUP9 SWAP1 SUB MUL DIV SWAP5 SWAP1 SWAP5 ADD ADD SWAP3 POP JUMPDEST POP PUSH1 0x1 ADD PUSH2 0x8A5 JUMP JUMPDEST POP SWAP2 POP PUSH2 0x9AD SWAP1 POP JUMP JUMPDEST POP PUSH8 0xFFFFFFFFFFFFFFFF JUMPDEST SWAP2 SWAP1 POP JUMP JUMPDEST PUSH1 0x3 PUSH1 0x20 MSTORE DUP2 PUSH1 0x0 MSTORE PUSH1 0x40 PUSH1 0x0 KECCAK256 DUP2 DUP2 SLOAD DUP2 LT PUSH2 0x9CB JUMPI INVALID JUMPDEST SWAP1 PUSH1 0x0 MSTORE PUSH1 0x20 PUSH1 0x0 KECCAK256 ADD PUSH1 0x0 SWAP2 POP SWAP2 POP POP SLOAD DUP2 JUMP JUMPDEST PUSH1 0x0 PUSH1 0x1 PUSH1 0x1 PUSH1 0xA0 SHL SUB AND PUSH1 0x1 DUP4 DUP2 SLOAD DUP2 LT PUSH2 0x9F8 JUMPI INVALID JUMPDEST PUSH1 0x0 SWAP2 DUP3 MSTORE PUSH1 0x20 SWAP1 SWAP2 KECCAK256 PUSH1 0x8 SWAP1 SWAP2 MUL ADD SLOAD PUSH1 0x1 PUSH1 0x1 PUSH1 0xA0 SHL SUB AND EQ DUP1 PUSH2 0xA51 JUMPI POP PUSH1 0x0 PUSH1 0x1 DUP4 DUP2 SLOAD DUP2 LT PUSH2 0xA28 JUMPI INVALID JUMPDEST PUSH1 0x0 SWAP2 DUP3 MSTORE PUSH1 0x20 SWAP1 SWAP2 KECCAK256 PUSH1 0x8 SWAP1 SWAP2 MUL ADD SLOAD PUSH1 0x1 PUSH1 0xA0 SHL SWAP1 DIV PUSH1 0xFF AND PUSH1 0x3 DUP2 GT ISZERO PUSH2 0xA4E JUMPI INVALID JUMPDEST EQ ISZERO JUMPDEST ISZERO PUSH2 0xA5B JUMPI PUSH2 0xC13 JUMP JUMPDEST PUSH1 0x40 DUP1 MLOAD PUSH1 0xA0 DUP2 ADD DUP3 MSTORE CALLER DUP2 MSTORE PUSH1 0x20 DUP2 ADD DUP5 DUP2 MSTORE PUSH1 0x0 SWAP3 DUP3 ADD DUP4 DUP2 MSTORE PUSH1 0x60 DUP4 ADD DUP6 SWAP1 MSTORE CALLVALUE PUSH1 0x80 DUP5 ADD MSTORE PUSH1 0x2 DUP1 SLOAD PUSH1 0x1 DUP1 DUP3 ADD DUP1 DUP5 SSTORE SWAP7 DUP4 SWAP1 MSTORE DUP6 MLOAD PUSH32 0x405787FA12A823E0F2B7631CC41B3BA8828B3321CA811111FA75CD3AA3BB5ACE PUSH1 0x5 SWAP1 SWAP4 MUL SWAP3 DUP4 ADD DUP1 SLOAD PUSH1 0x1 PUSH1 0x1 PUSH1 0xA0 SHL SUB NOT AND PUSH1 0x1 PUSH1 0x1 PUSH1 0xA0 SHL SUB SWAP1 SWAP3 AND SWAP2 SWAP1 SWAP2 OR DUP2 SSTORE SWAP5 MLOAD PUSH32 0x405787FA12A823E0F2B7631CC41B3BA8828B3321CA811111FA75CD3AA3BB5ACF DUP4 ADD SSTORE SWAP3 MLOAD PUSH32 0x405787FA12A823E0F2B7631CC41B3BA8828B3321CA811111FA75CD3AA3BB5AD0 SWAP1 SWAP2 ADD DUP1 SLOAD SWAP2 SWAP4 SWAP1 SWAP3 PUSH1 0xFF NOT SWAP1 SWAP3 AND SWAP2 DUP5 SWAP1 DUP2 GT ISZERO PUSH2 0xB40 JUMPI INVALID JUMPDEST MUL OR SWAP1 SSTORE POP PUSH1 0x60 DUP3 ADD MLOAD PUSH1 0x3 DUP3 ADD SSTORE PUSH1 0x80 SWAP1 SWAP2 ADD MLOAD PUSH1 0x4 SWAP2 DUP3 ADD SSTORE CALLER PUSH1 0x0 SWAP1 DUP2 MSTORE PUSH1 0x20 SWAP2 DUP3 MSTORE PUSH1 0x40 DUP2 KECCAK256 PUSH1 0x2 SLOAD DUP2 SLOAD PUSH1 0x1 DUP2 DUP2 ADD DUP5 SSTORE SWAP3 DUP5 MSTORE SWAP4 SWAP1 SWAP3 KECCAK256 PUSH1 0x0 NOT SWAP3 SWAP1 SWAP3 ADD SWAP2 SWAP1 SWAP3 ADD SSTORE DUP1 SLOAD SWAP1 SWAP2 POP DUP4 SWAP1 DUP2 LT PUSH2 0xB98 JUMPI INVALID JUMPDEST PUSH1 0x0 SWAP2 DUP3 MSTORE PUSH1 0x20 SWAP1 SWAP2 KECCAK256 PUSH1 0x3 PUSH1 0x8 SWAP1 SWAP3 MUL ADD ADD DUP1 SLOAD PUSH1 0x1 SWAP1 DUP2 ADD SWAP1 SWAP2 SSTORE PUSH1 0x2 SLOAD DUP2 SLOAD PUSH1 0x0 NOT SWAP1 SWAP2 ADD SWAP2 SWAP1 DUP5 SWAP1 DUP2 LT PUSH2 0xBCC JUMPI INVALID JUMPDEST SWAP1 PUSH1 0x0 MSTORE PUSH1 0x20 PUSH1 0x0 KECCAK256 SWAP1 PUSH1 0x8 MUL ADD PUSH1 0x7 ADD PUSH1 0x0 PUSH1 0x1 DUP1 DUP7 DUP2 SLOAD DUP2 LT PUSH2 0xBED JUMPI INVALID JUMPDEST SWAP1 PUSH1 0x0 MSTORE PUSH1 0x20 PUSH1 0x0 KECCAK256 SWAP1 PUSH1 0x8 MUL ADD PUSH1 0x3 ADD SLOAD SUB DUP2 MSTORE PUSH1 0x20 ADD SWAP1 DUP2 MSTORE PUSH1 0x20 ADD PUSH1 0x0 KECCAK256 DUP2 SWAP1 SSTORE POP JUMPDEST POP POP JUMP JUMPDEST PUSH1 0x1 PUSH1 0x1 PUSH1 0xA0 SHL SUB DUP2 AND PUSH1 0x0 SWAP1 DUP2 MSTORE PUSH1 0x3 PUSH1 0x20 MSTORE PUSH1 0x40 DUP2 KECCAK256 SLOAD DUP1 PUSH2 0xC3F JUMPI PUSH1 0x0 SWAP2 POP POP PUSH2 0x9AD JUMP JUMPDEST PUSH1 0x1 PUSH1 0x1 PUSH1 0xA0 SHL SUB DUP4 AND PUSH1 0x0 SWAP1 DUP2 MSTORE PUSH1 0x3 PUSH1 0x20 MSTORE PUSH1 0x40 DUP2 KECCAK256 DUP1 SLOAD PUSH1 0x1 SWAP2 SWAP1 PUSH1 0x0 NOT DUP6 ADD SWAP1 DUP2 LT PUSH2 0xC6B JUMPI INVALID JUMPDEST SWAP1 PUSH1 0x0 MSTORE PUSH1 0x20 PUSH1 0x0 KECCAK256 ADD SLOAD DUP2 SLOAD DUP2 LT PUSH2 0xC80 JUMPI INVALID JUMPDEST PUSH1 0x0 SWAP2 DUP3 MSTORE PUSH1 0x20 DUP3 KECCAK256 PUSH1 0x8 SWAP1 SWAP2 MUL ADD SWAP2 POP PUSH1 0x1 DUP1 DUP5 SUB DUP2 SLOAD DUP2 LT PUSH2 0xCA0 JUMPI INVALID JUMPDEST PUSH1 0x0 SWAP2 DUP3 MSTORE PUSH1 0x20 SWAP1 SWAP2 KECCAK256 PUSH1 0x8 SWAP1 SWAP2 MUL ADD SLOAD PUSH1 0x1 PUSH1 0xA0 SHL SWAP1 DIV PUSH1 0xFF AND PUSH1 0x3 DUP2 GT ISZERO PUSH2 0xCC6 JUMPI INVALID JUMPDEST EQ ISZERO PUSH2 0xCD7 JUMPI PUSH1 0x1 SWAP3 POP POP POP PUSH2 0x9AD JUMP JUMPDEST PUSH1 0x1 DUP1 DUP1 DUP5 SUB DUP2 SLOAD DUP2 LT PUSH2 0xCE7 JUMPI INVALID JUMPDEST PUSH1 0x0 SWAP2 DUP3 MSTORE PUSH1 0x20 SWAP1 SWAP2 KECCAK256 PUSH1 0x8 SWAP1 SWAP2 MUL ADD SLOAD PUSH1 0x1 PUSH1 0xA0 SHL SWAP1 DIV PUSH1 0xFF AND PUSH1 0x3 DUP2 GT ISZERO PUSH2 0xD0D JUMPI INVALID JUMPDEST EQ ISZERO PUSH2 0xD1E JUMPI PUSH1 0x1 SWAP3 POP POP POP PUSH2 0x9AD JUMP JUMPDEST POP PUSH1 0x0 SWAP4 SWAP3 POP POP POP JUMP JUMPDEST PUSH1 0x0 DUP1 PUSH1 0x0 DUP1 PUSH1 0x0 DUP1 PUSH1 0x0 DUP1 PUSH1 0x0 PUSH1 0x2 PUSH1 0x4 PUSH1 0x0 DUP14 PUSH1 0x1 PUSH1 0x1 PUSH1 0xA0 SHL SUB AND PUSH1 0x1 PUSH1 0x1 PUSH1 0xA0 SHL SUB AND DUP2 MSTORE PUSH1 0x20 ADD SWAP1 DUP2 MSTORE PUSH1 0x20 ADD PUSH1 0x0 KECCAK256 DUP12 DUP2 SLOAD DUP2 LT PUSH2 0xD68 JUMPI INVALID JUMPDEST SWAP1 PUSH1 0x0 MSTORE PUSH1 0x20 PUSH1 0x0 KECCAK256 ADD SLOAD DUP2 SLOAD DUP2 LT PUSH2 0xD7D JUMPI INVALID JUMPDEST PUSH1 0x0 SWAP2 DUP3 MSTORE PUSH1 0x20 SWAP1 SWAP2 KECCAK256 PUSH1 0x5 SWAP1 SWAP2 MUL ADD DUP1 SLOAD PUSH1 0x1 DUP1 DUP4 ADD SLOAD PUSH1 0x2 DUP5 ADD SLOAD PUSH1 0x3 DUP6 ADD SLOAD PUSH1 0x4 DUP7 ADD SLOAD DUP5 SLOAD SWAP7 SWAP8 POP PUSH1 0x1 PUSH1 0x1 PUSH1 0xA0 SHL SUB SWAP1 SWAP6 AND SWAP6 SWAP3 SWAP5 PUSH1 0xFF SWAP1 SWAP3 AND SWAP4 SWAP1 SWAP3 DUP6 SWAP1 DUP2 LT PUSH2 0xDC9 JUMPI INVALID JUMPDEST SWAP1 PUSH1 0x0 MSTORE PUSH1 0x20 PUSH1 0x0 KECCAK256 SWAP1 PUSH1 0x8 MUL ADD PUSH1 0x2 ADD SLOAD PUSH1 0x1 DUP8 PUSH1 0x1 ADD SLOAD DUP2 SLOAD DUP2 LT PUSH2 0xDEC JUMPI INVALID JUMPDEST SWAP1 PUSH1 0x0 MSTORE PUSH1 0x20 PUSH1 0x0 KECCAK256 SWAP1 PUSH1 0x8 MUL ADD PUSH1 0x1 ADD SLOAD PUSH1 0x1 DUP9 PUSH1 0x1 ADD SLOAD DUP2 SLOAD DUP2 LT PUSH2 0xE0F JUMPI INVALID JUMPDEST SWAP1 PUSH1 0x0 MSTORE PUSH1 0x20 PUSH1 0x0 KECCAK256 SWAP1 PUSH1 0x8 MUL ADD PUSH1 0x6 ADD SLOAD DUP8 SWAP8 POP SWAP9 POP SWAP9 POP SWAP9 POP SWAP9 POP SWAP9 POP SWAP9 POP SWAP9 POP SWAP9 POP POP SWAP3 SWAP6 SWAP9 POP SWAP3 SWAP6 SWAP9 SWAP1 SWAP4 SWAP7 POP JUMP JUMPDEST PUSH1 0x0 PUSH2 0xE4D CALLER PUSH2 0x1136 JUMP JUMPDEST SWAP1 POP DUP1 PUSH8 0xFFFFFFFFFFFFFFFF EQ ISZERO PUSH2 0xE65 JUMPI POP PUSH2 0xF72 JUMP JUMPDEST PUSH1 0x0 PUSH1 0x2 DUP4 DUP2 SLOAD DUP2 LT PUSH2 0xE74 JUMPI INVALID JUMPDEST PUSH1 0x0 SWAP2 DUP3 MSTORE PUSH1 0x20 DUP3 KECCAK256 PUSH1 0x5 SWAP1 SWAP2 MUL ADD SWAP2 POP PUSH1 0x2 DUP1 DUP4 ADD SLOAD PUSH1 0xFF AND SWAP1 DUP2 GT ISZERO PUSH2 0xE98 JUMPI INVALID JUMPDEST EQ PUSH2 0xEA4 JUMPI POP POP PUSH2 0xF72 JUMP JUMPDEST PUSH1 0x0 PUSH1 0x1 DUP4 DUP2 SLOAD DUP2 LT PUSH2 0xEB3 JUMPI INVALID JUMPDEST PUSH1 0x0 SWAP2 DUP3 MSTORE PUSH1 0x20 DUP3 KECCAK256 PUSH1 0x8 SWAP1 SWAP2 MUL ADD SWAP2 POP DUP2 SLOAD PUSH1 0x1 PUSH1 0xA0 SHL SWAP1 DIV PUSH1 0xFF AND PUSH1 0x3 DUP2 GT ISZERO PUSH2 0xEDB JUMPI INVALID JUMPDEST EQ PUSH2 0xEE8 JUMPI POP POP POP PUSH2 0xF72 JUMP JUMPDEST DUP1 PUSH1 0x2 ADD SLOAD DUP3 PUSH1 0x4 ADD SLOAD DUP3 PUSH1 0x4 ADD SLOAD ADD GT PUSH2 0xF6E JUMPI DUP2 PUSH1 0x4 ADD SLOAD PUSH1 0x1 DUP5 DUP2 SLOAD DUP2 LT PUSH2 0xF0F JUMPI INVALID JUMPDEST SWAP1 PUSH1 0x0 MSTORE PUSH1 0x20 PUSH1 0x0 KECCAK256 SWAP1 PUSH1 0x8 MUL ADD PUSH1 0x4 ADD PUSH1 0x0 DUP3 DUP3 SLOAD ADD SWAP3 POP POP DUP2 SWAP1 SSTORE POP PUSH1 0x1 PUSH1 0x2 DUP6 DUP2 SLOAD DUP2 LT PUSH2 0xF3C JUMPI INVALID JUMPDEST SWAP1 PUSH1 0x0 MSTORE PUSH1 0x20 PUSH1 0x0 KECCAK256 SWAP1 PUSH1 0x5 MUL ADD PUSH1 0x2 ADD PUSH1 0x0 PUSH2 0x100 EXP DUP2 SLOAD DUP2 PUSH1 0xFF MUL NOT AND SWAP1 DUP4 PUSH1 0x2 DUP2 GT ISZERO PUSH2 0xF68 JUMPI INVALID JUMPDEST MUL OR SWAP1 SSTORE POP JUMPDEST POP POP POP JUMPDEST POP JUMP JUMPDEST PUSH1 0x0 DUP1 PUSH1 0x0 DUP1 PUSH1 0x0 DUP1 PUSH1 0x2 PUSH1 0x1 DUP10 DUP2 SLOAD DUP2 LT PUSH2 0xF8D JUMPI INVALID JUMPDEST SWAP1 PUSH1 0x0 MSTORE PUSH1 0x20 PUSH1 0x0 KECCAK256 SWAP1 PUSH1 0x8 MUL ADD PUSH1 0x7 ADD PUSH1 0x0 DUP10 DUP2 MSTORE PUSH1 0x20 ADD SWAP1 DUP2 MSTORE PUSH1 0x20 ADD PUSH1 0x0 KECCAK256 SLOAD DUP2 SLOAD DUP2 LT PUSH2 0xFBA JUMPI INVALID JUMPDEST SWAP1 PUSH1 0x0 MSTORE PUSH1 0x20 PUSH1 0x0 KECCAK256 SWAP1 PUSH1 0x5 MUL ADD SWAP1 POP DUP1 PUSH1 0x2 ADD PUSH1 0x0 SWAP1 SLOAD SWAP1 PUSH2 0x100 EXP SWAP1 DIV PUSH1 0xFF AND DUP2 PUSH1 0x3 ADD SLOAD DUP3 PUSH1 0x4 ADD SLOAD PUSH1 0x1 DUP12 DUP2 SLOAD DUP2 LT PUSH2 0xFF3 JUMPI INVALID JUMPDEST PUSH1 0x0 SWAP2 DUP3 MSTORE PUSH1 0x20 DUP1 DUP4 KECCAK256 SWAP13 DUP4 MSTORE PUSH1 0x8 SWAP2 SWAP1 SWAP2 MUL SWAP1 SWAP12 ADD PUSH1 0x7 ADD SWAP1 SWAP11 MSTORE PUSH1 0x40 SWAP1 SWAP10 KECCAK256 SLOAD SWAP3 SLOAD SWAP2 SWAP11 SWAP1 SWAP10 POP SWAP2 SWAP7 POP PUSH1 0x1 PUSH1 0x1 PUSH1 0xA0 SHL SUB AND SWAP5 POP SWAP3 POP POP POP JUMP JUMPDEST PUSH1 0x1 DUP2 DUP2 SLOAD DUP2 LT PUSH2 0x103D JUMPI INVALID JUMPDEST PUSH1 0x0 SWAP2 DUP3 MSTORE PUSH1 0x20 SWAP1 SWAP2 KECCAK256 PUSH1 0x8 SWAP1 SWAP2 MUL ADD DUP1 SLOAD PUSH1 0x1 DUP3 ADD SLOAD PUSH1 0x2 DUP4 ADD SLOAD PUSH1 0x3 DUP5 ADD SLOAD PUSH1 0x4 DUP6 ADD SLOAD PUSH1 0x5 DUP7 ADD SLOAD PUSH1 0x6 SWAP1 SWAP7 ADD SLOAD PUSH1 0x1 PUSH1 0x1 PUSH1 0xA0 SHL SUB DUP7 AND SWAP8 POP PUSH1 0x1 PUSH1 0xA0 SHL SWAP1 SWAP6 DIV PUSH1 0xFF AND SWAP6 SWAP4 SWAP5 SWAP3 SWAP4 SWAP2 SWAP3 SWAP1 SWAP2 SWAP1 DUP9 JUMP JUMPDEST PUSH1 0x1 PUSH1 0x1 PUSH1 0xA0 SHL SUB DUP2 AND PUSH1 0x0 SWAP1 DUP2 MSTORE PUSH1 0x3 PUSH1 0x20 MSTORE PUSH1 0x40 DUP2 KECCAK256 DUP1 SLOAD DUP3 SWAP2 DUP3 SWAP2 DUP3 SWAP2 DUP3 SWAP2 SWAP1 DUP3 SWAP1 PUSH1 0x1 SWAP1 PUSH1 0x0 NOT DUP5 ADD DUP5 DUP2 LT PUSH2 0x10C8 JUMPI INVALID JUMPDEST SWAP1 PUSH1 0x0 MSTORE PUSH1 0x20 PUSH1 0x0 KECCAK256 ADD SLOAD DUP2 SLOAD DUP2 LT PUSH2 0x10DD JUMPI INVALID JUMPDEST PUSH1 0x0 SWAP2 DUP3 MSTORE PUSH1 0x20 SWAP1 SWAP2 KECCAK256 PUSH1 0x8 SWAP1 SWAP2 MUL ADD DUP1 SLOAD PUSH1 0x1 DUP3 ADD SLOAD PUSH1 0x2 DUP4 ADD SLOAD PUSH1 0x3 DUP5 ADD SLOAD PUSH1 0x4 SWAP1 SWAP5 ADD SLOAD PUSH1 0x1 PUSH1 0xA0 SHL SWAP1 SWAP4 DIV PUSH1 0xFF AND SWAP13 SWAP2 SWAP12 POP SWAP10 POP SWAP2 SWAP8 POP SWAP6 POP SWAP4 POP POP POP POP JUMP JUMPDEST PUSH1 0x1 SLOAD SWAP1 JUMP JUMPDEST PUSH1 0x0 SLOAD PUSH1 0x1 PUSH1 0x1 PUSH1 0xA0 SHL SUB AND DUP2 JUMP JUMPDEST PUSH1 0x1 PUSH1 0x1 PUSH1 0xA0 SHL SUB DUP2 AND PUSH1 0x0 SWAP1 DUP2 MSTORE PUSH1 0x3 PUSH1 0x20 MSTORE PUSH1 0x40 DUP2 KECCAK256 SLOAD DUP1 PUSH2 0x1165 JUMPI PUSH8 0xFFFFFFFFFFFFFFFF SWAP2 POP POP PUSH2 0x9AD JUMP JUMPDEST PUSH1 0x1 PUSH1 0x1 PUSH1 0xA0 SHL SUB DUP4 AND PUSH1 0x0 SWAP1 DUP2 MSTORE PUSH1 0x3 PUSH1 0x20 MSTORE PUSH1 0x40 DUP2 KECCAK256 DUP1 SLOAD PUSH1 0x0 NOT DUP5 ADD SWAP1 DUP2 LT PUSH2 0x118D JUMPI INVALID JUMPDEST PUSH1 0x0 SWAP2 DUP3 MSTORE PUSH1 0x20 DUP3 KECCAK256 ADD SLOAD SWAP2 POP PUSH1 0x1 DUP3 DUP2 SLOAD DUP2 LT PUSH2 0x11A7 JUMPI INVALID JUMPDEST PUSH1 0x0 SWAP2 DUP3 MSTORE PUSH1 0x20 SWAP1 SWAP2 KECCAK256 PUSH1 0x8 SWAP1 SWAP2 MUL ADD SLOAD PUSH1 0x1 PUSH1 0xA0 SHL SWAP1 DIV PUSH1 0xFF AND PUSH1 0x3 DUP2 GT ISZERO PUSH2 0x11CD JUMPI INVALID JUMPDEST EQ PUSH2 0x11E4 JUMPI PUSH8 0xFFFFFFFFFFFFFFFF SWAP3 POP POP POP PUSH2 0x9AD JUMP JUMPDEST SWAP4 SWAP3 POP POP POP JUMP JUMPDEST CALLER PUSH1 0x0 SWAP1 DUP2 MSTORE PUSH1 0x4 PUSH1 0x20 MSTORE PUSH1 0x40 DUP2 KECCAK256 DUP1 SLOAD DUP4 SWAP1 DUP2 LT PUSH2 0x1206 JUMPI INVALID JUMPDEST PUSH1 0x0 SWAP2 DUP3 MSTORE PUSH1 0x20 DUP3 KECCAK256 ADD SLOAD SWAP2 POP PUSH1 0x2 DUP3 DUP2 SLOAD DUP2 LT PUSH2 0x1220 JUMPI INVALID JUMPDEST PUSH1 0x0 SWAP2 DUP3 MSTORE PUSH1 0x20 SWAP1 SWAP2 KECCAK256 PUSH1 0x2 PUSH1 0x5 SWAP1 SWAP3 MUL ADD DUP2 ADD SLOAD PUSH1 0xFF AND SWAP1 DUP2 GT ISZERO PUSH2 0x1242 JUMPI INVALID JUMPDEST EQ PUSH2 0x124D JUMPI POP PUSH2 0xF72 JUMP JUMPDEST PUSH1 0x0 PUSH1 0x2 DUP3 DUP2 SLOAD DUP2 LT PUSH2 0x125C JUMPI INVALID JUMPDEST PUSH1 0x0 SWAP2 DUP3 MSTORE PUSH1 0x20 DUP3 KECCAK256 PUSH1 0x1 PUSH1 0x5 SWAP1 SWAP3 MUL ADD ADD SLOAD SWAP2 POP PUSH1 0x1 DUP3 DUP2 SLOAD DUP2 LT PUSH2 0x127E JUMPI INVALID JUMPDEST PUSH1 0x0 SWAP2 DUP3 MSTORE PUSH1 0x20 SWAP1 SWAP2 KECCAK256 PUSH1 0x8 SWAP1 SWAP2 MUL ADD SLOAD PUSH1 0x1 PUSH1 0xA0 SHL SWAP1 DIV PUSH1 0xFF AND PUSH1 0x3 DUP2 GT ISZERO PUSH2 0x12A4 JUMPI INVALID JUMPDEST EQ ISZERO PUSH2 0x1346 JUMPI PUSH1 0x2 DUP1 DUP4 DUP2 SLOAD DUP2 LT PUSH2 0x12B8 JUMPI INVALID JUMPDEST SWAP1 PUSH1 0x0 MSTORE PUSH1 0x20 PUSH1 0x0 KECCAK256 SWAP1 PUSH1 0x5 MUL ADD PUSH1 0x2 ADD PUSH1 0x0 PUSH2 0x100 EXP DUP2 SLOAD DUP2 PUSH1 0xFF MUL NOT AND SWAP1 DUP4 PUSH1 0x2 DUP2 GT ISZERO PUSH2 0x12E4 JUMPI INVALID JUMPDEST MUL OR SWAP1 SSTORE POP CALLER PUSH1 0x1 PUSH1 0x1 PUSH1 0xA0 SHL SUB AND PUSH2 0x8FC PUSH1 0x2 DUP5 DUP2 SLOAD DUP2 LT PUSH2 0x1303 JUMPI INVALID JUMPDEST SWAP1 PUSH1 0x0 MSTORE PUSH1 0x20 PUSH1 0x0 KECCAK256 SWAP1 PUSH1 0x5 MUL ADD PUSH1 0x4 ADD SLOAD SWAP1 DUP2 ISZERO MUL SWAP1 PUSH1 0x40 MLOAD PUSH1 0x0 PUSH1 0x40 MLOAD DUP1 DUP4 SUB DUP2 DUP6 DUP9 DUP9 CALL SWAP4 POP POP POP POP ISZERO DUP1 ISZERO PUSH2 0x1340 JUMPI RETURNDATASIZE PUSH1 0x0 DUP1 RETURNDATACOPY RETURNDATASIZE PUSH1 0x0 REVERT JUMPDEST POP PUSH2 0x1481 JUMP JUMPDEST PUSH1 0x1 DUP1 DUP3 DUP2 SLOAD DUP2 LT PUSH2 0x1354 JUMPI INVALID JUMPDEST PUSH1 0x0 SWAP2 DUP3 MSTORE PUSH1 0x20 SWAP1 SWAP2 KECCAK256 PUSH1 0x8 SWAP1 SWAP2 MUL ADD SLOAD PUSH1 0x1 PUSH1 0xA0 SHL SWAP1 DIV PUSH1 0xFF AND PUSH1 0x3 DUP2 GT ISZERO PUSH2 0x137A JUMPI INVALID JUMPDEST EQ ISZERO PUSH2 0x1481 JUMPI TIMESTAMP PUSH1 0x1 DUP3 DUP2 SLOAD DUP2 LT PUSH2 0x138E JUMPI INVALID JUMPDEST SWAP1 PUSH1 0x0 MSTORE PUSH1 0x20 PUSH1 0x0 KECCAK256 SWAP1 PUSH1 0x8 MUL ADD PUSH1 0x1 ADD SLOAD LT ISZERO PUSH2 0x13AD JUMPI POP POP PUSH2 0xF72 JUMP JUMPDEST PUSH1 0x3 PUSH1 0x1 DUP3 DUP2 SLOAD DUP2 LT PUSH2 0x13BC JUMPI INVALID JUMPDEST PUSH1 0x0 SWAP2 DUP3 MSTORE PUSH1 0x20 SWAP1 SWAP2 KECCAK256 PUSH1 0x8 SWAP1 SWAP2 MUL ADD DUP1 SLOAD PUSH1 0xFF PUSH1 0xA0 SHL NOT AND PUSH1 0x1 PUSH1 0xA0 SHL DUP4 PUSH1 0x3 DUP2 GT ISZERO PUSH2 0x13E6 JUMPI INVALID JUMPDEST MUL OR SWAP1 SSTORE POP PUSH1 0x0 JUMPDEST PUSH1 0x1 DUP3 DUP2 SLOAD DUP2 LT PUSH2 0x13FB JUMPI INVALID JUMPDEST SWAP1 PUSH1 0x0 MSTORE PUSH1 0x20 PUSH1 0x0 KECCAK256 SWAP1 PUSH1 0x8 MUL ADD PUSH1 0x3 ADD SLOAD DUP2 LT ISZERO PUSH2 0xF6E JUMPI PUSH1 0x0 PUSH1 0x1 DUP4 DUP2 SLOAD DUP2 LT PUSH2 0x1423 JUMPI INVALID JUMPDEST PUSH1 0x0 SWAP2 DUP3 MSTORE PUSH1 0x20 DUP1 DUP4 KECCAK256 DUP6 DUP5 MSTORE PUSH1 0x7 PUSH1 0x8 SWAP1 SWAP4 MUL ADD SWAP2 SWAP1 SWAP2 ADD SWAP1 MSTORE PUSH1 0x40 SWAP1 KECCAK256 SLOAD SWAP1 POP PUSH1 0x1 PUSH1 0x2 DUP3 DUP2 SLOAD DUP2 LT PUSH2 0x1454 JUMPI INVALID JUMPDEST PUSH1 0x0 SWAP2 DUP3 MSTORE PUSH1 0x20 SWAP1 SWAP2 KECCAK256 PUSH1 0x2 PUSH1 0x5 SWAP1 SWAP3 MUL ADD DUP2 ADD SLOAD PUSH1 0xFF AND SWAP1 DUP2 GT ISZERO PUSH2 0x1476 JUMPI INVALID JUMPDEST POP POP POP PUSH1 0x1 ADD PUSH2 0x13EE JUMP JUMPDEST POP POP POP JUMP JUMPDEST PUSH1 0x0 PUSH1 0x1 DUP3 DUP2 SLOAD DUP2 LT PUSH2 0x1495 JUMPI INVALID JUMPDEST PUSH1 0x0 SWAP2 DUP3 MSTORE PUSH1 0x20 SWAP1 SWAP2 KECCAK256 PUSH1 0x8 SWAP1 SWAP2 MUL ADD SLOAD PUSH1 0x1 PUSH1 0xA0 SHL SWAP1 DIV PUSH1 0xFF AND PUSH1 0x3 DUP2 GT ISZERO PUSH2 0x14BB JUMPI INVALID JUMPDEST EQ ISZERO PUSH2 0x16B6 JUMPI PUSH1 0x1 DUP1 DUP3 DUP2 SLOAD DUP2 LT PUSH2 0x14CF JUMPI INVALID JUMPDEST PUSH1 0x0 SWAP2 DUP3 MSTORE PUSH1 0x20 SWAP1 SWAP2 KECCAK256 PUSH1 0x8 SWAP1 SWAP2 MUL ADD DUP1 SLOAD PUSH1 0xFF PUSH1 0xA0 SHL NOT AND PUSH1 0x1 PUSH1 0xA0 SHL DUP4 PUSH1 0x3 DUP2 GT ISZERO PUSH2 0x14F9 JUMPI INVALID JUMPDEST MUL OR SWAP1 SSTORE POP PUSH1 0x0 JUMPDEST PUSH1 0x1 DUP3 DUP2 SLOAD DUP2 LT PUSH2 0x150E JUMPI INVALID JUMPDEST SWAP1 PUSH1 0x0 MSTORE PUSH1 0x20 PUSH1 0x0 KECCAK256 SWAP1 PUSH1 0x8 MUL ADD PUSH1 0x3 ADD SLOAD DUP2 LT ISZERO PUSH2 0x16B0 JUMPI PUSH1 0x0 PUSH1 0x1 DUP4 DUP2 SLOAD DUP2 LT PUSH2 0x1536 JUMPI INVALID JUMPDEST PUSH1 0x0 SWAP2 DUP3 MSTORE PUSH1 0x20 DUP1 DUP4 KECCAK256 DUP6 DUP5 MSTORE PUSH1 0x7 PUSH1 0x8 SWAP1 SWAP4 MUL ADD SWAP2 SWAP1 SWAP2 ADD SWAP1 MSTORE PUSH1 0x40 SWAP1 KECCAK256 SLOAD SWAP1 POP PUSH1 0x1 PUSH1 0x2 DUP3 DUP2 SLOAD DUP2 LT PUSH2 0x1567 JUMPI INVALID JUMPDEST PUSH1 0x0 SWAP2 DUP3 MSTORE PUSH1 0x20 SWAP1 SWAP2 KECCAK256 PUSH1 0x2 PUSH1 0x5 SWAP1 SWAP3 MUL ADD DUP2 ADD SLOAD PUSH1 0xFF AND SWAP1 DUP2 GT ISZERO PUSH2 0x1589 JUMPI INVALID JUMPDEST EQ ISZERO PUSH2 0x15EC JUMPI CALLER PUSH1 0x1 PUSH1 0x1 PUSH1 0xA0 SHL SUB AND PUSH2 0x8FC PUSH1 0x2 DUP4 DUP2 SLOAD DUP2 LT PUSH2 0x15A9 JUMPI INVALID JUMPDEST SWAP1 PUSH1 0x0 MSTORE PUSH1 0x20 PUSH1 0x0 KECCAK256 SWAP1 PUSH1 0x5 MUL ADD PUSH1 0x4 ADD SLOAD SWAP1 DUP2 ISZERO MUL SWAP1 PUSH1 0x40 MLOAD PUSH1 0x0 PUSH1 0x40 MLOAD DUP1 DUP4 SUB DUP2 DUP6 DUP9 DUP9 CALL SWAP4 POP POP POP POP ISZERO DUP1 ISZERO PUSH2 0x15E6 JUMPI RETURNDATASIZE PUSH1 0x0 DUP1 RETURNDATACOPY RETURNDATASIZE PUSH1 0x0 REVERT JUMPDEST POP PUSH2 0x16A7 JUMP JUMPDEST PUSH1 0x2 DUP1 DUP3 DUP2 SLOAD DUP2 LT PUSH2 0x15FA JUMPI INVALID JUMPDEST SWAP1 PUSH1 0x0 MSTORE PUSH1 0x20 PUSH1 0x0 KECCAK256 SWAP1 PUSH1 0x5 MUL ADD PUSH1 0x2 ADD PUSH1 0x0 PUSH2 0x100 EXP DUP2 SLOAD DUP2 PUSH1 0xFF MUL NOT AND SWAP1 DUP4 PUSH1 0x2 DUP2 GT ISZERO PUSH2 0x1626 JUMPI INVALID JUMPDEST MUL OR SWAP1 SSTORE POP PUSH1 0x2 DUP2 DUP2 SLOAD DUP2 LT PUSH2 0x1638 JUMPI INVALID JUMPDEST PUSH1 0x0 SWAP2 DUP3 MSTORE PUSH1 0x20 SWAP1 SWAP2 KECCAK256 PUSH1 0x5 SWAP1 SWAP2 MUL ADD SLOAD PUSH1 0x2 DUP1 SLOAD PUSH1 0x1 PUSH1 0x1 PUSH1 0xA0 SHL SUB SWAP1 SWAP3 AND SWAP2 PUSH2 0x8FC SWAP2 SWAP1 DUP5 SWAP1 DUP2 LT PUSH2 0x1668 JUMPI INVALID JUMPDEST SWAP1 PUSH1 0x0 MSTORE PUSH1 0x20 PUSH1 0x0 KECCAK256 SWAP1 PUSH1 0x5 MUL ADD PUSH1 0x4 ADD SLOAD SWAP1 DUP2 ISZERO MUL SWAP1 PUSH1 0x40 MLOAD PUSH1 0x0 PUSH1 0x40 MLOAD DUP1 DUP4 SUB DUP2 DUP6 DUP9 DUP9 CALL SWAP4 POP POP POP POP ISZERO DUP1 ISZERO PUSH2 0x16A5 JUMPI RETURNDATASIZE PUSH1 0x0 DUP1 RETURNDATACOPY RETURNDATASIZE PUSH1 0x0 REVERT JUMPDEST POP JUMPDEST POP PUSH1 0x1 ADD PUSH2 0x1501 JUMP JUMPDEST POP PUSH2 0xF72 JUMP JUMPDEST PUSH2 0xF72 JUMP JUMPDEST TIMESTAMP PUSH1 0x0 PUSH2 0x16C7 DUP4 PUSH2 0x843 JUMP JUMPDEST SWAP1 POP PUSH1 0x0 PUSH1 0x1 DUP5 DUP2 SLOAD DUP2 LT PUSH2 0x16D8 JUMPI INVALID JUMPDEST SWAP1 PUSH1 0x0 MSTORE PUSH1 0x20 PUSH1 0x0 KECCAK256 SWAP1 PUSH1 0x8 MUL ADD PUSH1 0x5 ADD SLOAD SWAP1 POP PUSH1 0x0 CALLVALUE SWAP1 POP DUP3 DUP2 LT PUSH2 0x1908 JUMPI PUSH1 0x0 DUP4 DUP3 SUB SWAP1 POP PUSH1 0x2 PUSH1 0x1 DUP8 DUP2 SLOAD DUP2 LT PUSH2 0x170E JUMPI INVALID JUMPDEST PUSH1 0x0 SWAP2 DUP3 MSTORE PUSH1 0x20 SWAP1 SWAP2 KECCAK256 PUSH1 0x8 SWAP1 SWAP2 MUL ADD DUP1 SLOAD PUSH1 0xFF PUSH1 0xA0 SHL NOT AND PUSH1 0x1 PUSH1 0xA0 SHL DUP4 PUSH1 0x3 DUP2 GT ISZERO PUSH2 0x1738 JUMPI INVALID JUMPDEST MUL OR SWAP1 SSTORE POP PUSH1 0x0 JUMPDEST PUSH1 0x1 DUP8 DUP2 SLOAD DUP2 LT PUSH2 0x174D JUMPI INVALID JUMPDEST SWAP1 PUSH1 0x0 MSTORE PUSH1 0x20 PUSH1 0x0 KECCAK256 SWAP1 PUSH1 0x8 MUL ADD PUSH1 0x3 ADD SLOAD DUP2 LT ISZERO PUSH2 0x18D3 JUMPI PUSH1 0x0 PUSH1 0x1 DUP9 DUP2 SLOAD DUP2 LT PUSH2 0x1775 JUMPI INVALID JUMPDEST PUSH1 0x0 SWAP2 DUP3 MSTORE PUSH1 0x20 DUP1 DUP4 KECCAK256 DUP6 DUP5 MSTORE PUSH1 0x7 PUSH1 0x8 SWAP1 SWAP4 MUL ADD SWAP2 SWAP1 SWAP2 ADD SWAP1 MSTORE PUSH1 0x40 SWAP1 KECCAK256 SLOAD SWAP1 POP PUSH1 0x1 PUSH1 0x2 DUP3 DUP2 SLOAD DUP2 LT PUSH2 0x17A6 JUMPI INVALID JUMPDEST PUSH1 0x0 SWAP2 DUP3 MSTORE PUSH1 0x20 SWAP1 SWAP2 KECCAK256 PUSH1 0x2 PUSH1 0x5 SWAP1 SWAP3 MUL ADD DUP2 ADD SLOAD PUSH1 0xFF AND SWAP1 DUP2 GT ISZERO PUSH2 0x17C8 JUMPI INVALID JUMPDEST EQ ISZERO PUSH2 0x18CA JUMPI PUSH1 0x0 PUSH1 0x2 DUP3 DUP2 SLOAD DUP2 LT PUSH2 0x17DD JUMPI INVALID JUMPDEST SWAP1 PUSH1 0x0 MSTORE PUSH1 0x20 PUSH1 0x0 KECCAK256 SWAP1 PUSH1 0x5 MUL ADD PUSH1 0x4 ADD SLOAD SWAP1 POP PUSH1 0x0 PUSH1 0x2 DUP4 DUP2 SLOAD DUP2 LT PUSH2 0x1800 JUMPI INVALID JUMPDEST SWAP1 PUSH1 0x0 MSTORE PUSH1 0x20 PUSH1 0x0 KECCAK256 SWAP1 PUSH1 0x5 MUL ADD PUSH1 0x3 ADD SLOAD SWAP1 POP PUSH1 0x0 PUSH4 0xBBF81E00 DUP9 DUP12 SUB DUP4 DUP6 MUL MUL DUP2 PUSH2 0x1829 JUMPI INVALID JUMPDEST DIV SWAP1 POP PUSH1 0x0 DUP4 DUP3 ADD SWAP1 POP PUSH1 0x2 DUP6 DUP2 SLOAD DUP2 LT PUSH2 0x1840 JUMPI INVALID JUMPDEST PUSH1 0x0 SWAP2 DUP3 MSTORE PUSH1 0x20 DUP3 KECCAK256 PUSH1 0x5 SWAP1 SWAP2 MUL ADD SLOAD PUSH1 0x40 MLOAD PUSH1 0x1 PUSH1 0x1 PUSH1 0xA0 SHL SUB SWAP1 SWAP2 AND SWAP2 DUP4 ISZERO PUSH2 0x8FC MUL SWAP2 DUP5 SWAP2 DUP2 DUP2 DUP2 DUP6 DUP9 DUP9 CALL SWAP4 POP POP POP POP ISZERO DUP1 ISZERO PUSH2 0x1885 JUMPI RETURNDATASIZE PUSH1 0x0 DUP1 RETURNDATACOPY RETURNDATASIZE PUSH1 0x0 REVERT JUMPDEST POP PUSH1 0x2 DUP1 DUP7 DUP2 SLOAD DUP2 LT PUSH2 0x1894 JUMPI INVALID JUMPDEST SWAP1 PUSH1 0x0 MSTORE PUSH1 0x20 PUSH1 0x0 KECCAK256 SWAP1 PUSH1 0x5 MUL ADD PUSH1 0x2 ADD PUSH1 0x0 PUSH2 0x100 EXP DUP2 SLOAD DUP2 PUSH1 0xFF MUL NOT AND SWAP1 DUP4 PUSH1 0x2 DUP2 GT ISZERO PUSH2 0x18C0 JUMPI INVALID JUMPDEST MUL OR SWAP1 SSTORE POP POP POP POP POP JUMPDEST POP PUSH1 0x1 ADD PUSH2 0x1740 JUMP JUMPDEST POP PUSH1 0x40 MLOAD CALLER SWAP1 DUP3 ISZERO PUSH2 0x8FC MUL SWAP1 DUP4 SWAP1 PUSH1 0x0 DUP2 DUP2 DUP2 DUP6 DUP9 DUP9 CALL SWAP4 POP POP POP POP ISZERO DUP1 ISZERO PUSH2 0x1901 JUMPI RETURNDATASIZE PUSH1 0x0 DUP1 RETURNDATACOPY RETURNDATASIZE PUSH1 0x0 REVERT JUMPDEST POP POP PUSH2 0x1937 JUMP JUMPDEST PUSH1 0x40 MLOAD CALLER SWAP1 DUP3 ISZERO PUSH2 0x8FC MUL SWAP1 DUP4 SWAP1 PUSH1 0x0 DUP2 DUP2 DUP2 DUP6 DUP9 DUP9 CALL SWAP4 POP POP POP POP ISZERO DUP1 ISZERO PUSH2 0x1935 JUMPI RETURNDATASIZE PUSH1 0x0 DUP1 RETURNDATACOPY RETURNDATASIZE PUSH1 0x0 REVERT JUMPDEST POP JUMPDEST POP POP POP POP POP JUMP JUMPDEST PUSH1 0x1 PUSH1 0x1 PUSH1 0xA0 SHL SUB AND PUSH1 0x0 SWAP1 DUP2 MSTORE PUSH1 0x4 PUSH1 0x20 MSTORE PUSH1 0x40 SWAP1 KECCAK256 SLOAD SWAP1 JUMP JUMPDEST PUSH1 0x1 PUSH1 0x1 PUSH1 0xA0 SHL SUB DUP2 AND PUSH1 0x0 SWAP1 DUP2 MSTORE PUSH1 0x3 PUSH1 0x20 MSTORE PUSH1 0x40 DUP2 KECCAK256 SLOAD DUP1 PUSH2 0x1981 JUMPI PUSH1 0x2 SWAP2 POP POP PUSH2 0x9AD JUMP JUMPDEST PUSH1 0x1 PUSH1 0x1 PUSH1 0xA0 SHL SUB DUP4 AND PUSH1 0x0 SWAP1 DUP2 MSTORE PUSH1 0x3 PUSH1 0x20 MSTORE PUSH1 0x40 SWAP1 KECCAK256 DUP1 SLOAD PUSH1 0x1 SWAP2 SWAP1 PUSH1 0x0 NOT DUP5 ADD SWAP1 DUP2 LT PUSH2 0x19AD JUMPI INVALID JUMPDEST SWAP1 PUSH1 0x0 MSTORE PUSH1 0x20 PUSH1 0x0 KECCAK256 ADD SLOAD DUP2 SLOAD DUP2 LT PUSH2 0x19C2 JUMPI INVALID JUMPDEST PUSH1 0x0 SWAP2 DUP3 MSTORE PUSH1 0x20 SWAP1 SWAP2 KECCAK256 PUSH1 0x8 SWAP1 SWAP2 MUL ADD SLOAD PUSH1 0x1 PUSH1 0xA0 SHL SWAP1 DIV PUSH1 0xFF AND SWAP4 SWAP3 POP POP POP JUMP JUMPDEST PUSH1 0x2 DUP2 DUP2 SLOAD DUP2 LT PUSH2 0x19F1 JUMPI INVALID JUMPDEST PUSH1 0x0 SWAP2 DUP3 MSTORE PUSH1 0x20 SWAP1 SWAP2 KECCAK256 PUSH1 0x5 SWAP1 SWAP2 MUL ADD DUP1 SLOAD PUSH1 0x1 DUP3 ADD SLOAD PUSH1 0x2 DUP4 ADD SLOAD PUSH1 0x3 DUP5 ADD SLOAD PUSH1 0x4 SWAP1 SWAP5 ADD SLOAD PUSH1 0x1 PUSH1 0x1 PUSH1 0xA0 SHL SUB SWAP1 SWAP4 AND SWAP5 POP SWAP1 SWAP3 PUSH1 0xFF SWAP1 SWAP2 AND SWAP2 DUP6 JUMP JUMPDEST PUSH1 0x1 PUSH1 0x1 PUSH1 0xA0 SHL SUB AND PUSH1 0x0 SWAP1 DUP2 MSTORE PUSH1 0x3 PUSH1 0x20 MSTORE PUSH1 0x40 SWAP1 KECCAK256 SLOAD SWAP1 JUMP JUMPDEST PUSH1 0x4 PUSH1 0x20 MSTORE DUP2 PUSH1 0x0 MSTORE PUSH1 0x40 PUSH1 0x0 KECCAK256 DUP2 DUP2 SLOAD DUP2 LT PUSH2 0x9CB JUMPI INVALID JUMPDEST PUSH2 0x1A6D CALLER PUSH2 0xC17 JUMP JUMPDEST ISZERO PUSH2 0x1A77 JUMPI PUSH2 0x1481 JUMP JUMPDEST PUSH1 0x40 DUP1 MLOAD PUSH2 0x100 DUP2 ADD DUP3 MSTORE CALLER DUP2 MSTORE PUSH1 0x0 PUSH1 0x20 DUP3 ADD DUP2 DUP2 MSTORE SWAP3 DUP3 ADD DUP6 SWAP1 MSTORE PUSH1 0x60 DUP3 ADD DUP7 SWAP1 MSTORE PUSH1 0x80 DUP3 ADD DUP2 SWAP1 MSTORE PUSH1 0xA0 DUP3 ADD DUP2 SWAP1 MSTORE TIMESTAMP PUSH1 0xC0 DUP4 ADD DUP2 SWAP1 MSTORE PUSH1 0xE0 DUP4 ADD DUP6 SWAP1 MSTORE PUSH1 0x1 DUP1 SLOAD DUP1 DUP3 ADD DUP1 DUP4 SSTORE SWAP2 SWAP1 SWAP4 MSTORE DUP4 MLOAD PUSH1 0x8 SWAP1 SWAP4 MUL PUSH32 0xB10E2D527612073B26EECDFD717E6A320CF44B4AFAC2B0732D9FCBE2B7FA0CF6 ADD DUP1 SLOAD PUSH1 0x1 PUSH1 0x1 PUSH1 0xA0 SHL SUB SWAP1 SWAP5 AND PUSH1 0x1 PUSH1 0x1 PUSH1 0xA0 SHL SUB NOT SWAP1 SWAP5 AND SWAP4 SWAP1 SWAP4 OR DUP1 DUP5 SSTORE SWAP5 MLOAD SWAP2 SWAP5 SWAP1 SWAP4 SWAP3 SWAP2 SWAP1 DUP3 SWAP1 PUSH1 0xFF PUSH1 0xA0 SHL NOT AND PUSH1 0x1 PUSH1 0xA0 SHL DUP4 PUSH1 0x3 DUP2 GT ISZERO PUSH2 0x1B32 JUMPI INVALID JUMPDEST MUL OR SWAP1 SSTORE POP PUSH1 0x40 DUP3 DUP2 ADD MLOAD PUSH1 0x1 DUP1 DUP5 ADD SWAP2 SWAP1 SWAP2 SSTORE PUSH1 0x60 DUP5 ADD MLOAD PUSH1 0x2 DUP5 ADD SSTORE PUSH1 0x80 DUP5 ADD MLOAD PUSH1 0x3 DUP1 DUP6 ADD SWAP2 SWAP1 SWAP2 SSTORE PUSH1 0xA0 DUP6 ADD MLOAD PUSH1 0x4 DUP6 ADD SSTORE PUSH1 0xC0 DUP6 ADD MLOAD PUSH1 0x5 DUP6 ADD SSTORE PUSH1 0xE0 SWAP1 SWAP5 ADD MLOAD PUSH1 0x6 SWAP1 SWAP4 ADD SWAP3 SWAP1 SWAP3 SSTORE CALLER PUSH1 0x0 SWAP1 DUP2 MSTORE PUSH1 0x20 SWAP4 DUP5 MSTORE SWAP1 DUP2 KECCAK256 DUP3 SLOAD DUP2 SLOAD SWAP4 DUP5 ADD DUP3 SSTORE SWAP1 DUP3 MSTORE SWAP3 SWAP1 KECCAK256 PUSH1 0x0 NOT SWAP3 SWAP1 SWAP3 ADD SWAP2 ADD SSTORE POP POP POP POP POP JUMP INVALID LOG2 PUSH6 0x627A7A723158 KECCAK256 PUSH7 0xFEB74321B64CE8 0xF PUSH5 0x743D3BAD9 0xD1 0xE3 NUMBER DUP15 0xA6 LOG0 0xC7 ORIGIN CALLER 0xB8 0xC9 SWAP1 PUSH22 0x6E673F6064736F6C6343000511003200000000000000 "
		},
		"gasEstimates": {
			"creation": {
				"codeDepositCost": "1428000",
				"executionCost": "22328",
				"totalCost": "1450328"
			},
			"external": {
				"acceptProposal(uint256)": "55091",
				"getActiveLoanId(address)": "4794",
				"getLastLoanDetails(address)": "7308",
				"getLastLoanState(address)": "4765",
				"getLoanDetailsByAddressPosition(address,uint256)": "9128",
				"getProposalAtPosFor(address,uint256)": "14126",
				"getProposalDetailsByLoanIdPosition(uint256,uint256)": "8259",
				"getRepayValue(uint256)": "infinite",
				"hasActiveLoan(address)": "7557",
				"lendMap(address,uint256)": "2141",
				"loanList(uint256)": "7168",
				"loanMap(address,uint256)": "2099",
				"lockLoan(uint256)": "infinite",
				"newLoan(uint256,uint256,bytes32)": "201529",
				"newProposal(uint256,uint256)": "213652",
				"numTotalLoans()": "1131",
				"owner()": "1060",
				"proposalList(uint256)": "5453",
				"repayLoan(uint256)": "infinite",
				"revokeMyProposal(uint256)": "infinite",
				"totalLoansBy(address)": "1230",
				"totalProposalsBy(address)": "1164"
			}
		},
		"methodIdentifiers": {
			"acceptProposal(uint256)": "60c5cc3a",
			"getActiveLoanId(address)": "98325656",
			"getLastLoanDetails(address)": "8a190636",
			"getLastLoanState(address)": "bad9e65a",
			"getLoanDetailsByAddressPosition(address,uint256)": "052065df",
			"getProposalAtPosFor(address,uint256)": "277411d2",
			"getProposalDetailsByLoanIdPosition(uint256,uint256)": "63e84648",
			"getRepayValue(uint256)": "0b278f72",
			"hasActiveLoan(address)": "21d4f8db",
			"lendMap(address,uint256)": "faa72d63",
			"loanList(uint256)": "7621710c",
			"loanMap(address,uint256)": "1594a313",
			"lockLoan(uint256)": "a180f61b",
			"newLoan(uint256,uint256,bytes32)": "fccd238c",
			"newProposal(uint256,uint256)": "1801f00f",
			"numTotalLoans()": "8cad507d",
			"owner()": "8da5cb5b",
			"proposalList(uint256)": "c6311e3f",
			"repayLoan(uint256)": "ab7b1c89",
			"revokeMyProposal(uint256)": "9ce9cc56",
			"totalLoansBy(address)": "e24afbb6",
			"totalProposalsBy(address)": "ac51ba96"
		}
	},
	"abi": [
		{
			"inputs": [],
			"payable": false,
			"stateMutability": "nonpayable",
			"type": "constructor"
		},
		{
			"constant": false,
			"inputs": [
				{
					"internalType": "uint256",
					"name": "proposeId",
					"type": "uint256"
				}
			],
			"name": "acceptProposal",
			"outputs": [],
			"payable": false,
			"stateMutability": "nonpayable",
			"type": "function"
		},
		{
			"constant": true,
			"inputs": [
				{
					"internalType": "address",
					"name": "borrower",
					"type": "address"
				}
			],
			"name": "getActiveLoanId",
			"outputs": [
				{
					"internalType": "uint256",
					"name": "",
					"type": "uint256"
				}
			],
			"payable": false,
			"stateMutability": "view",
			"type": "function"
		},
		{
			"constant": true,
			"inputs": [
				{
					"internalType": "address",
					"name": "borrower",
					"type": "address"
				}
			],
			"name": "getLastLoanDetails",
			"outputs": [
				{
					"internalType": "enum CrowdBank.LoanState",
					"name": "",
					"type": "uint8"
				},
				{
					"internalType": "uint256",
					"name": "",
					"type": "uint256"
				},
				{
					"internalType": "uint256",
					"name": "",
					"type": "uint256"
				},
				{
					"internalType": "uint256",
					"name": "",
					"type": "uint256"
				},
				{
					"internalType": "uint256",
					"name": "",
					"type": "uint256"
				}
			],
			"payable": false,
			"stateMutability": "view",
			"type": "function"
		},
		{
			"constant": true,
			"inputs": [
				{
					"internalType": "address",
					"name": "borrower",
					"type": "address"
				}
			],
			"name": "getLastLoanState",
			"outputs": [
				{
					"internalType": "enum CrowdBank.LoanState",
					"name": "",
					"type": "uint8"
				}
			],
			"payable": false,
			"stateMutability": "view",
			"type": "function"
		},
		{
			"constant": true,
			"inputs": [
				{
					"internalType": "address",
					"name": "borrower",
					"type": "address"
				},
				{
					"internalType": "uint256",
					"name": "pos",
					"type": "uint256"
				}
			],
			"name": "getLoanDetailsByAddressPosition",
			"outputs": [
				{
					"internalType": "enum CrowdBank.LoanState",
					"name": "",
					"type": "uint8"
				},
				{
					"internalType": "uint256",
					"name": "",
					"type": "uint256"
				},
				{
					"internalType": "uint256",
					"name": "",
					"type": "uint256"
				},
				{
					"internalType": "uint256",
					"name": "",
					"type": "uint256"
				},
				{
					"internalType": "uint256",
					"name": "",
					"type": "uint256"
				},
				{
					"internalType": "bytes32",
					"name": "",
					"type": "bytes32"
				}
			],
			"payable": false,
			"stateMutability": "view",
			"type": "function"
		},
		{
			"constant": true,
			"inputs": [
				{
					"internalType": "address",
					"name": "lender",
					"type": "address"
				},
				{
					"internalType": "uint256",
					"name": "pos",
					"type": "uint256"
				}
			],
			"name": "getProposalAtPosFor",
			"outputs": [
				{
					"internalType": "address",
					"name": "",
					"type": "address"
				},
				{
					"internalType": "uint256",
					"name": "",
					"type": "uint256"
				},
				{
					"internalType": "enum CrowdBank.ProposalState",
					"name": "",
					"type": "uint8"
				},
				{
					"internalType": "uint256",
					"name": "",
					"type": "uint256"
				},
				{
					"internalType": "uint256",
					"name": "",
					"type": "uint256"
				},
				{
					"internalType": "uint256",
					"name": "",
					"type": "uint256"
				},
				{
					"internalType": "uint256",
					"name": "",
					"type": "uint256"
				},
				{
					"internalType": "bytes32",
					"name": "",
					"type": "bytes32"
				}
			],
			"payable": false,
			"stateMutability": "view",
			"type": "function"
		},
		{
			"constant": true,
			"inputs": [
				{
					"internalType": "uint256",
					"name": "loanId",
					"type": "uint256"
				},
				{
					"internalType": "uint256",
					"name": "numI",
					"type": "uint256"
				}
			],
			"name": "getProposalDetailsByLoanIdPosition",
			"outputs": [
				{
					"internalType": "enum CrowdBank.ProposalState",
					"name": "",
					"type": "uint8"
				},
				{
					"internalType": "uint256",
					"name": "",
					"type": "uint256"
				},
				{
					"internalType": "uint256",
					"name": "",
					"type": "uint256"
				},
				{
					"internalType": "uint256",
					"name": "",
					"type": "uint256"
				},
				{
					"internalType": "address",
					"name": "",
					"type": "address"
				}
			],
			"payable": false,
			"stateMutability": "view",
			"type": "function"
		},
		{
			"constant": true,
			"inputs": [
				{
					"internalType": "uint256",
					"name": "loanId",
					"type": "uint256"
				}
			],
			"name": "getRepayValue",
			"outputs": [
				{
					"internalType": "uint256",
					"name": "",
					"type": "uint256"
				}
			],
			"payable": false,
			"stateMutability": "view",
			"type": "function"
		},
		{
			"constant": true,
			"inputs": [
				{
					"internalType": "address",
					"name": "borrower",
					"type": "address"
				}
			],
			"name": "hasActiveLoan",
			"outputs": [
				{
					"internalType": "bool",
					"name": "",
					"type": "bool"
				}
			],
			"payable": false,
			"stateMutability": "view",
			"type": "function"
		},
		{
			"constant": true,
			"inputs": [
				{
					"internalType": "address",
					"name": "",
					"type": "address"
				},
				{
					"internalType": "uint256",
					"name": "",
					"type": "uint256"
				}
			],
			"name": "lendMap",
			"outputs": [
				{
					"internalType": "uint256",
					"name": "",
					"type": "uint256"
				}
			],
			"payable": false,
			"stateMutability": "view",
			"type": "function"
		},
		{
			"constant": true,
			"inputs": [
				{
					"internalType": "uint256",
					"name": "",
					"type": "uint256"
				}
			],
			"name": "loanList",
			"outputs": [
				{
					"internalType": "address",
					"name": "borrower",
					"type": "address"
				},
				{
					"internalType": "enum CrowdBank.LoanState",
					"name": "state",
					"type": "uint8"
				},
				{
					"internalType": "uint256",
					"name": "dueDate",
					"type": "uint256"
				},
				{
					"internalType": "uint256",
					"name": "amount",
					"type": "uint256"
				},
				{
					"internalType": "uint256",
					"name": "proposalCount",
					"type": "uint256"
				},
				{
					"internalType": "uint256",
					"name": "collected",
					"type": "uint256"
				},
				{
					"internalType": "uint256",
					"name": "startDate",
					"type": "uint256"
				},
				{
					"internalType": "bytes32",
					"name": "mortgage",
					"type": "bytes32"
				}
			],
			"payable": false,
			"stateMutability": "view",
			"type": "function"
		},
		{
			"constant": true,
			"inputs": [
				{
					"internalType": "address",
					"name": "",
					"type": "address"
				},
				{
					"internalType": "uint256",
					"name": "",
					"type": "uint256"
				}
			],
			"name": "loanMap",
			"outputs": [
				{
					"internalType": "uint256",
					"name": "",
					"type": "uint256"
				}
			],
			"payable": false,
			"stateMutability": "view",
			"type": "function"
		},
		{
			"constant": false,
			"inputs": [
				{
					"internalType": "uint256",
					"name": "loanId",
					"type": "uint256"
				}
			],
			"name": "lockLoan",
			"outputs": [],
			"payable": false,
			"stateMutability": "nonpayable",
			"type": "function"
		},
		{
			"constant": false,
			"inputs": [
				{
					"internalType": "uint256",
					"name": "amount",
					"type": "uint256"
				},
				{
					"internalType": "uint256",
					"name": "dueDate",
					"type": "uint256"
				},
				{
					"internalType": "bytes32",
					"name": "mortgage",
					"type": "bytes32"
				}
			],
			"name": "newLoan",
			"outputs": [],
			"payable": false,
			"stateMutability": "nonpayable",
			"type": "function"
		},
		{
			"constant": false,
			"inputs": [
				{
					"internalType": "uint256",
					"name": "loanId",
					"type": "uint256"
				},
				{
					"internalType": "uint256",
					"name": "rate",
					"type": "uint256"
				}
			],
			"name": "newProposal",
			"outputs": [],
			"payable": true,
			"stateMutability": "payable",
			"type": "function"
		},
		{
			"constant": true,
			"inputs": [],
			"name": "numTotalLoans",
			"outputs": [
				{
					"internalType": "uint256",
					"name": "",
					"type": "uint256"
				}
			],
			"payable": false,
			"stateMutability": "view",
			"type": "function"
		},
		{
			"constant": true,
			"inputs": [],
			"name": "owner",
			"outputs": [
				{
					"internalType": "address",
					"name": "",
					"type": "address"
				}
			],
			"payable": false,
			"stateMutability": "view",
			"type": "function"
		},
		{
			"constant": true,
			"inputs": [
				{
					"internalType": "uint256",
					"name": "",
					"type": "uint256"
				}
			],
			"name": "proposalList",
			"outputs": [
				{
					"internalType": "address payable",
					"name": "lender",
					"type": "address"
				},
				{
					"internalType": "uint256",
					"name": "loanId",
					"type": "uint256"
				},
				{
					"internalType": "enum CrowdBank.ProposalState",
					"name": "state",
					"type": "uint8"
				},
				{
					"internalType": "uint256",
					"name": "rate",
					"type": "uint256"
				},
				{
					"internalType": "uint256",
					"name": "amount",
					"type": "uint256"
				}
			],
			"payable": false,
			"stateMutability": "view",
			"type": "function"
		},
		{
			"constant": false,
			"inputs": [
				{
					"internalType": "uint256",
					"name": "loanId",
					"type": "uint256"
				}
			],
			"name": "repayLoan",
			"outputs": [],
			"payable": true,
			"stateMutability": "payable",
			"type": "function"
		},
		{
			"constant": false,
			"inputs": [
				{
					"internalType": "uint256",
					"name": "id",
					"type": "uint256"
				}
			],
			"name": "revokeMyProposal",
			"outputs": [],
			"payable": false,
			"stateMutability": "nonpayable",
			"type": "function"
		},
		{
			"constant": true,
			"inputs": [
				{
					"internalType": "address",
					"name": "borrower",
					"type": "address"
				}
			],
			"name": "totalLoansBy",
			"outputs": [
				{
					"internalType": "uint256",
					"name": "",
					"type": "uint256"
				}
			],
			"payable": false,
			"stateMutability": "view",
			"type": "function"
		},
		{
			"constant": true,
			"inputs": [
				{
					"internalType": "address",
					"name": "lender",
					"type": "address"
				}
			],
			"name": "totalProposalsBy",
			"outputs": [
				{
					"internalType": "uint256",
					"name": "",
					"type": "uint256"
				}
			],
			"payable": false,
			"stateMutability": "view",
			"type": "function"
		}
	]
}