{
	"data": {
		"bytecode": {
			"linkReferences": {},
			"object": "608060405234801561000f575f80fd5b5060405161853238038061853283398101604081905261002e91610778565b601480546001600160a01b0319163317905584516100539060109060208801906105a1565b50336001600160a01b038216146100b15760405162461bcd60e51b815260206004820152601660248201527f696e76616c696420726567756c61746f72204e6f64650000000000000000000060448201526064015b60405180910390fd5b6100fe604051806040016040528060098152602001682932b3bab630ba37b960b91b8152508360405180604001604052806002815260200161393960f01b815250846101ab60201b60201c565b60118490556015839055604080516060808252600990820152682937b632a6b0b5b2b960b91b6080820152336020820152428183015290517f0d08db30aefd7cadca681f2889e1e857cbaf9f35db4dff2c8ce6ae48311014b69181900360a00190a1336001600160a01b03167fcea1940e811568d8cf7cad51b479b91ce405019aae7b9925f658270bf0a0eb99836040516101999190610857565b60405180910390a25050505050610a9d565b335f9081526012602052604090205460ff161561020a5760405162461bcd60e51b815260206004820152601b60248201527f6f776e65722063616e6e6f742072657175657374206120726f6c65000000000060448201526064016100a8565b835160208501207f60098439c256bcef427a4680fedcb96a8a1b70ca9eca0d69db5352a893ea01551461027f5760405162461bcd60e51b815260206004820152601960248201527f496e76616c696420726f6c65207265717565737420747970650000000000000060448201526064016100a8565b5f8451116102cf5760405162461bcd60e51b815260206004820152601960248201527f526f6c6520747970652063616e6e6f7420626520656d7074790000000000000060448201526064016100a8565b5f6102d98361052b565b90506103246040518060c00160405280606081526020015f6001600160a01b03168152602001606081526020015f81526020015f6001600160a01b031681526020015f151581525090565b5f5b601054811015610522576040518060c0016040528087838151811061034d5761034d6108ef565b602002602001015181526020016010838154811061036d5761036d6108ef565b905f5260205f20015f9054906101000a90046001600160a01b03166001600160a01b03168152602001888152602001848152602001856001600160a01b03168152602001600115158152509150600160025f601084815481106103d2576103d26108ef565b5f918252602080832091909101546001600160a01b031683528201929092526040018120805460ff19169215159290921790915560108054600192601292909185908110610422576104226108ef565b5f9182526020808320909101546001600160a01b031683528201929092526040018120805492151560ff1990931692909217909155600d80546001810182559152825183916005027fd7b6990105719101dabeb77144f2a3385c8033acd3af97e9423a695e81ad1eb5019081906104999082610987565b5060208201516001820180546001600160a01b0319166001600160a01b03909216919091179055604082015160028201906104d49082610987565b506060820151600382015560808201516004909101805460a0909301511515600160a01b026001600160a81b03199093166001600160a01b0390921691909117919091179055600101610326565b50505050505050565b5f8181805b8251811015610599575f83828151811061054c5761054c6108ef565b016020015160f81c905060308110801590610568575060398111155b1561059057610578603082610a5a565b61058384600a610a73565b61058d9190610a8a565b92505b50600101610530565b509392505050565b828054828255905f5260205f209081019282156105f4579160200282015b828111156105f457825182546001600160a01b0319166001600160a01b039091161782556020909201916001909101906105bf565b50610600929150610604565b5090565b5b80821115610600575f8155600101610605565b634e487b7160e01b5f52604160045260245ffd5b604051601f8201601f191681016001600160401b038111828210171561065457610654610618565b604052919050565b5f6001600160401b0382111561067457610674610618565b5060051b60200190565b80516001600160a01b0381168114610694575f80fd5b919050565b5f601f83601f8401126106aa575f80fd5b825160206106bf6106ba8361065c565b61062c565b82815260059290921b850181019181810190878411156106dd575f80fd5b8287015b8481101561076c5780516001600160401b03808211156106ff575f80fd5b818a0191508a603f830112610712575f80fd5b8582015160408282111561072857610728610618565b610739828b01601f1916890161062c565b92508183528c8183860101111561074e575f80fd5b818185018985015e505f9082018701528452509183019183016106e1565b50979650505050505050565b5f805f805f60a0868803121561078c575f80fd5b85516001600160401b03808211156107a2575f80fd5b818801915088601f8301126107b5575f80fd5b815160206107c56106ba8361065c565b82815260059290921b8401810191818101908c8411156107e3575f80fd5b948201945b83861015610808576107f98661067e565b825294820194908201906107e8565b809a505050808a01519750505060408801519450606088015191508082111561082f575f80fd5b5061083c88828901610699565b92505061084b6080870161067e565b90509295509295909350565b5f604082016040835280845180835260608501915060608160051b860101925060208087015f5b838110156108c357878603605f190185528151805180885280858301868a015e5f888201860152601f01601f191690960183019550938201939082019060010161087e565b50508584039501949094525060098152682932b3bab630ba37b960b91b60208201526040019392505050565b634e487b7160e01b5f52603260045260245ffd5b600181811c9082168061091757607f821691505b60208210810361093557634e487b7160e01b5f52602260045260245ffd5b50919050565b601f82111561098257805f5260205f20601f840160051c810160208510156109605750805b601f840160051c820191505b8181101561097f575f815560010161096c565b50505b505050565b81516001600160401b038111156109a0576109a0610618565b6109b4816109ae8454610903565b8461093b565b602080601f8311600181146109e7575f84156109d05750858301515b5f19600386901b1c1916600185901b178555610a3e565b5f85815260208120601f198616915b82811015610a15578886015182559484019460019091019084016109f6565b5085821015610a3257878501515f19600388901b60f8161c191681555b505060018460011b0185555b505050505050565b634e487b7160e01b5f52601160045260245ffd5b81810381811115610a6d57610a6d610a46565b92915050565b8082028115828204841417610a6d57610a6d610a46565b80820180821115610a6d57610a6d610a46565b617a8880610aaa5f395ff3fe608060405234801561000f575f80fd5b506004361061024a575f3560e01c806388f70c3c11610140578063b7c6fb65116100bf578063e053f55311610084578063e053f55314610626578063e6ed511e1461064b578063e86e5ed21461066d578063ee687df514610697578063f2c2f187146106b6578063f76ebfb0146106c9575f80fd5b8063b7c6fb65146105a2578063c02ddbe1146105c2578063d3eb72b4146105d5578063dc050ec1146105e8578063df3403af146105fb575f80fd5b8063a7083c7111610105578063a7083c711461052b578063a97bc51b1461053e578063ab8fc4c214610551578063b31443021461057c578063b67ff9e51461058f575f80fd5b806388f70c3c146104c357806399c1aadc146104cc5780639d633433146104d5578063a02e5cc21461050f578063a55b1aa114610522575f80fd5b80633f9bbe55116101cc5780635eab07fd116101915780635eab07fd1461043b5780635ed304c01461045b5780636fb7c4fd1461046e5780637dfb86a01461048157806380ad24d1146104a3575f80fd5b80633f9bbe55146103ad5780633fafccfd146103c05780634137903c146103f257806345c829911461040857806353523c601461041b575f80fd5b806326929da81161021257806326929da81461032b578063347557231461033e57806338c05474146103515780633b8905f3146103645780633e7ca6d21461038d575f80fd5b80630597a2a81461024e5780631b62d1eb146102775780631c78ed6b146102d85780631c7d3ef91461030357806322584a4314610318575b5f80fd5b61026161025c3660046168d8565b6106dc565b60405161026e9190616911565b60405180910390f35b6102c061028536600461695d565b8251602081850181018051600a8252928201958201959095209190945283525f9182526040808320909352815220546001600160a01b031681565b6040516001600160a01b03909116815260200161026e565b6102eb6102e63660046169a6565b610867565b60405161026e9c9b9a99989796959493929190616a15565b6103166103113660046168d8565b610a8a565b005b610316610326366004616ac9565b611081565b6102c0610339366004616b4a565b6115c1565b61031661034c366004616b61565b6115e9565b61031661035f366004616c06565b611d82565b610377610372366004616cbb565b6132cd565b60405161026e9a99989796959493929190616cdb565b6103a061039b3660046169a6565b61343f565b60405161026e9190616d56565b6103166103bb366004616db8565b613536565b6103e26103ce366004616cbb565b60036020525f908152604090205460ff1681565b604051901515815260200161026e565b6103fa5f5481565b60405190815260200161026e565b6103fa6104163660046168d8565b6140cf565b61042e610429366004616b4a565b614123565b60405161026e9190616e11565b61044e61044936600461695d565b61435e565b60405161026e9190616eca565b610316610469366004616edc565b614427565b61031661047c3660046168d8565b614bd7565b6103e261048f366004616cbb565b60026020525f908152604090205460ff1681565b6104b66104b1366004616f75565b614d6d565b60405161026e9190616fd4565b6103fa60115481565b6103fa60155481565b6103fa6104e33660046169a6565b81516020818401810180516009825292820194820194909420919093529091525f908152604090205481565b6104b661051d3660046170c6565b615037565b6103fa600e5481565b61044e61053936600461695d565b6152ac565b6103e261054c366004617110565b6152dc565b6103fa61055f3660046168d8565b8051602081830181018051600c8252928201919093012091525481565b6103a061058a3660046169a6565b615316565b6104b661059d3660046169a6565b615400565b6105b56105b03660046170c6565b615481565b60405161026e9190617130565b6103166105d0366004617217565b615742565b6103e26105e33660046169a6565b615d4b565b6103e26105f63660046169a6565b615d84565b6103e2610609366004616cbb565b6001600160a01b03165f9081526003602052604090205460ff1690565b610639610634366004616b4a565b615d95565b60405161026e96959493929190617298565b6103e2610659366004616cbb565b60016020525f908152604090205460ff1681565b61068061067b3660046169a6565b615f06565b60405161026e9b9a999897969594939291906172ef565b6103fa6106a5366004616b4a565b600f6020525f908152604090205481565b6103776106c4366004616b4a565b6161a3565b6103166106d736600461738b565b6161c4565b335f9081526002602052604090205460609060ff168061070a5750335f9081526003602052604090205460ff165b6107725760405162461bcd60e51b815260206004820152602e60248201527f4f6e6c792062616e6b206f7220726567756c61746f722063616e20706572666f60448201526d3936903a3434b99030b1ba34b7b760911b60648201526084015b60405180910390fd5b5f61077c836166ff565b90505f610787616775565b604080516003808252608082019092529192505f9190602082016060803683370190505090505f5b825181101561085c5760135f8581526020019081526020015f205f8483815181106107dc576107dc6173f7565b6020908102919091018101516001600160a01b031682528101919091526040015f205460ff161561085457828181518110610819576108196173f7565b6020026020010151828281518110610833576108336173f7565b60200260200101906001600160a01b031690816001600160a01b0316815250505b6001016107af565b50925050505b919050565b81516020818401810180516006825292820194820194909420919093529091525f9081526040902080546001820180549192916108a39061740b565b80601f01602080910402602001604051908101604052809291908181526020018280546108cf9061740b565b801561091a5780601f106108f15761010080835404028352916020019161091a565b820191905f5260205f20905b8154815290600101906020018083116108fd57829003601f168201915b5050505060028301546003840154600485018054949592946001600160a01b039092169350906109499061740b565b80601f01602080910402602001604051908101604052809291908181526020018280546109759061740b565b80156109c05780601f10610997576101008083540402835291602001916109c0565b820191905f5260205f20905b8154815290600101906020018083116109a357829003601f168201915b5050505060058301546006840154600785015460088601546009870154600a88018054979860ff80881699610100909804811698509596949593949390921692610a099061740b565b80601f0160208091040260200160405190810160405280929190818152602001828054610a359061740b565b8015610a805780601f10610a5757610100808354040283529160200191610a80565b820191905f5260205f20905b815481529060010190602001808311610a6357829003601f168201915b505050505090508c565b335f9081526002602052604090205460ff16610ab85760405162461bcd60e51b815260040161076990617443565b335f9081526002602052604090205460ff161515600114610b1b5760405162461bcd60e51b815260206004820152601b60248201527f526567756c61746f7220416363657373204e6f7420476976656e2100000000006044820152606401610769565b5f610b25826166ff565b5f81815260046020818152604080842080548552600f835290842060019055848452919052549192509082900361101d575f828152600460208190526040909120015460ff1615610b885760405162461bcd60e51b815260040161076990617489565b5f8281526004602090815260408083205483526013825280832033845290915290205460ff1615610c075760405162461bcd60e51b815260206004820152602360248201527f416c726561647920617070726f76656420627920746869732062616e6b20616460448201526236b4b760e91b6064820152608401610769565b5f82815260046020818152604080842080548552601383528185203386528352908420805460ff19166001179055858452919052600501805491610c4a836174d4565b90915550505f828152600460209081526040808320600201546001600160a01b03168352600591829052822001805491610c83836174d4565b90915550505f828152600460205260408120600701805491610ca4836174d4565b90915550505f828152600460209081526040808320600201546001600160a01b0316835260059091528120600701805491610cde836174d4565b90915550505f8281526004602081815260408084208084018054600160ff19918216811783556002840180546001600160a01b039081168a526005808952878b208a018054861685179055855461ff0019908116909655825482168b52878b208a018054909616909555815481168a5260038852868a2080548516841790556008808701805486168517905591541689529286528488209092018054909116821790558786529390925251600692610d9792019061755b565b908152604080519182900360209081019092205f868152600480855283822080548352600f8652848320548352928552928120908790529190925260028201546003820180546001600160a01b0319166001600160a01b039092169190911790559150600180830191610e0b9101826175b1565b505f83815260046020818152604080842054600286018190558452600f8252928390205484558251808401909352600583526420b236b4b760d91b90830152820190610e579082617685565b506005808201805461ffff191660019081179091555f858152600460205260409020918201546006808501919091556007830154600885015560098401805460ff1916909217909155600a830191610eb09101826175b1565b5080600760045f8681526020019081526020015f20600101604051610ed5919061755b565b90815260408051602092819003830190205f87815260048452828120600201546001600160a01b031681529252902081548155600180820190610f1a908401826175b1565b506002828101549082015560038083015490820180546001600160a01b0319166001600160a01b03909216919091179055600480820190610f5d908401826175b1565b5060058281018054918301805460ff938416151560ff1980831682178455935461010090819004861615150261ff001990911661ffff199092169190911717905560068085015490840155600780850154908401556008808501549084015560098085015490840180549190931615159116179055600a80820190610fe4908401826175b1565b5050505f838152600460209081526040808320600201546001600160a01b03168352600191829052909120805460ff1916821790559150505b8061107c5760405162461bcd60e51b815260206004820152602960248201527f4e6f20726f6c65207265717565737420666f756e6420666f72207468652070726044820152681bdd9a59195908125160ba1b6064820152608401610769565b505050565b335f9081526001602052604090205460ff166110af5760405162461bcd60e51b815260040161076990617738565b335f908152601b60205260409081902090516110cc90879061777f565b90815260408051602092819003830190205f878152925290205460ff16156111325760405162461bcd60e51b81526020600482015260196024820152785265717565737420416c726561647920417070726f7665642160381b6044820152606401610769565b5f61113e600285617795565b90505f60015b600c88604051611154919061777f565b908152602001604051809103902054811161159a5786600b8960405161117a919061777f565b90815260200160405180910390205f8381526020019081526020015f20600201540361158857600b886040516111b0919061777f565b90815260408051602092819003830190205f848152925290206005015460ff16156111ed5760405162461bcd60e51b815260040161076990617489565b600b886040516111fd919061777f565b90815260408051602092819003830190205f8481529252902060050154610100900460ff161561126f5760405162461bcd60e51b815260206004820152601860248201527f5265717565737420616c72656164792072656a656374656400000000000000006044820152606401610769565b600b8860405161127f919061777f565b90815260408051602092819003830190205f848152925281206006018054916112a7836174d4565b9190505550600b886040516112bc919061777f565b90815260408051602092819003830190205f848152925281206008018054916112e4836174d4565b91905055506008886040516112f9919061777f565b90815260408051602092819003830190206001600160a01b0388165f9081529252812060060180549161132b836174d4565b9190505550600888604051611340919061777f565b90815260408051602092819003830190206001600160a01b0388165f90815292528120600601805491611372836174d4565b9091555061138390508360016177b4565b600b89604051611393919061777f565b90815260200160405180910390205f8381526020019081526020015f20600601541061153a576001600b896040516113cb919061777f565b90815260408051602092819003830181205f8681529352908220600501805460ff19169315159390931790925590600b90611407908b9061777f565b9081526040805191829003602090810183205f86815291522060050180549215156101000261ff00199093169290921790915560019060089061144b908b9061777f565b90815260408051602092819003830181206001600160a01b038a165f9081529352908220600501805460ff19169315159390931790925590600890611491908b9061777f565b9081526040805191829003602090810183206001600160a01b038a165f90815290825282812060050180549515156101000261ff001990961695909517909455338452601b90529091206001916114e9908b9061777f565b90815260408051602092819003830181205f8c81529352908220805460ff19169315159390931790925582917f88885b2f2823f4219c9ff8e3098695f6feda59a4be9eb4b5f5dbc104a8e9c2179190a25b6001915060198860405161154e919061777f565b90815260408051602092819003830190205f8481529083529081208054600181018255908252919020016115828582617685565b5061159a565b80611592816174d4565b915050611144565b50806115b85760405162461bcd60e51b8152600401610769906177c7565b50505050505050565b601081815481106115d0575f80fd5b5f918252602090912001546001600160a01b0316905081565b5f6115f3836166ff565b5f818152600f6020526040812080549293509061160f836174d4565b90915550600190505b5f828152600f6020526040902054811161171f57336001600160a01b0316600686604051611646919061777f565b90815260408051602092819003830190205f85815292529020600301546001600160a01b03161415806116b05750600685604051611684919061777f565b90815260408051602092819003830190205f8481529252902060050154600161010090910460ff161515145b61170d5760405162461bcd60e51b815260206004820152602860248201527f41646d696e205265717565737420416c72656164792053656e74206279205468604482015267697320557365722160c01b6064820152608401610769565b80611717816174d4565b915050611618565b50601454336001600160a01b039091160361177c5760405162461bcd60e51b815260206004820152601f60248201527f4f776e65722063616e206e6f742062652066726f6d207468652062616e6b21006044820152606401610769565b335f9081526017602052604090819020905161179990869061777f565b9081526040519081900360200190205460ff16156117f95760405162461bcd60e51b815260206004820152601f60248201527f557365722068617320616c7265616479206265656e20417070726f76656421006044820152606401610769565b335f9081526018602052604090819020905161181690869061777f565b9081526040519081900360200190205460ff16156118765760405162461bcd60e51b815260206004820152601f60248201527f557365722068617320616c7265616479206265656e2052656a656374656421006044820152606401610769565b335f9081526016602052604090819020905161189390869061777f565b9081526040519081900360200190205460ff16156118ea5760405162461bcd60e51b815260206004820152601460248201527314995c5d595cdd08105b1c9958591e4814d95b9d60621b6044820152606401610769565b335f9081526012602052604090205460ff16156119495760405162461bcd60e51b815260206004820152601f60248201527f526567756c61746f722063616e6e6f742072657175657374206120726f6c65006044820152606401610769565b335f9081526002602052604090205460ff16156119b75760405162461bcd60e51b815260206004820152602660248201527f526567756c61746f72732063616e6e6f74207265717565737420612061646d696044820152656e20726f6c6560d01b6064820152608401610769565b845160208601207fa729ef4e25027bc652fc8b5c4d1d902947361fa7c8e7b4905e877823f27331b314611a285760405162461bcd60e51b8152602060048201526019602482015278496e76616c696420726f6c652072657175657374207479706560381b6044820152606401610769565b5f855111611a745760405162461bcd60e51b8152602060048201526019602482015278526f6c6520747970652063616e6e6f7420626520656d70747960381b6044820152606401610769565b336001600160a01b0316600685604051611a8e919061777f565b90815260408051602092819003830190205f858152600f845282812054815292529020600301546001600160a01b0316141580611b1b57508480519060200120600685604051611ade919061777f565b9081526040805191829003602090810183205f868152600f8352838120548152915220611b109160049091019061755b565b604051809103902014155b611b375760405162461bcd60e51b815260040161076990617819565b5f600685604051611b48919061777f565b908152604080519182900360209081019092205f858152600f8452828120548152925290206003810180546001600160a01b03191633179055905060018101611b918682617685565b50600281018290555f828152600f6020526040902054815560048101611bb78782617685565b5060058101805461ffff191690555f6006820181905560078201819055600882015560098101805460ff19169055600a8101611bf38482617685565b5080600786604051611c05919061777f565b9081526040805160209281900383019020335f9081529252902081548155600180820190611c35908401826175b1565b506002828101549082015560038083015490820180546001600160a01b0319166001600160a01b03909216919091179055600480820190611c78908401826175b1565b5060058281018054918301805460ff938416151560ff1980831682178455935461010090819004861615150261ff001990911661ffff199092169190911717905560068085015490840155600780850154908401556008808501549084015560098085015490840180549190931615159116179055600a80820190611cff908401826175b1565b5050335f9081526016602052604090819020905160019250611d2290889061777f565b908152604051908190036020018120805492151560ff199093169290921790915533907fcc9b2ab11225eccecec343a75eded3b48b614117780629a2df57bcf6dd28206a90611d72908990616eca565b60405180910390a2505050505050565b335f9081526003602052604090205460ff16151560011480611db85750335f9081526001602081905260409091205460ff161515145b611dd45760405162461bcd60e51b81526004016107699061786e565b5f611dde866166ff565b90505f611dea856166ff565b90505f611df6856166ff565b905060175f600689604051611e0b919061777f565b90815260408051602092819003830190205f878152908352818120600301546001600160a01b031684529183019390935290820190209051611e4e90899061777f565b9081526040519081900360200190205460ff1615611eae5760405162461bcd60e51b815260206004820152601f60248201527f557365722068617320616c7265616479206265656e20417070726f76656421006044820152606401610769565b335f908152601c6020526040908190209051611ecb90899061777f565b90815260408051602092819003830190205f858152925290205460ff1615611f255760405162461bcd60e51b815260206004820152600d60248201526c105b1c9958591e48159bdd1959609a1b6044820152606401610769565b5f6001600160a01b0316600688604051611f3f919061777f565b90815260408051602092819003830190205f86815292529020600301546001600160a01b031614801590611f9b5750600687604051611f7e919061777f565b90815260408051602092819003830190205f858152925290205415155b611fe05760405162461bcd60e51b81526020600482015260166024820152755265717565737420446f65736e27742045786973742160501b6044820152606401610769565b600987604051611ff0919061777f565b90815260408051602092819003830190205f86815292528120805491612015836174d4565b909155505f9050612027600283617795565b9050600688604051612039919061777f565b90815260408051602092819003830190205f868152925290206005015460ff161580156120985750600688604051612071919061777f565b90815260408051602092819003830190205f8681529252902060050154610100900460ff16155b6120e45760405162461bcd60e51b815260206004820152601f60248201527f41646d696e205265717565737420416c726561647920417070726f76656421006044820152606401610769565b876040516020016120f5919061777f565b60408051601f1981840301815282825280516020918201205f8881526004835292909220919261212992600101910161755b565b604051602081830303815290604052805190602001201461217b5760405162461bcd60e51b815260206004820152600c60248201526b496e76616c69642042616e6b60a01b6044820152606401610769565b60068860405161218b919061777f565b90815260408051602092819003830190205f868152925290206005015460ff16156122045760405162461bcd60e51b8152602060048201526024808201527f42616e6b2041646d696e205265717565737420616c726561647920617070726f6044820152637665642160e01b6064820152608401610769565b336001600160a01b0316600a8960405161221e919061777f565b90815260408051602092819003830190205f8881529083528181208782529092529020546001600160a01b0316036122ab5760405162461bcd60e51b815260206004820152602a60248201527f5265717565737420697320416c726561647920417070726f76656420627920546044820152696869732041646d696e2160b01b6064820152608401610769565b6006886040516122bb919061777f565b90815260408051602092819003830190205f868152925281206006018054916122e3836174d4565b91905055506006886040516122f8919061777f565b90815260408051602092819003830190205f86815292528120600801805491612320836174d4565b9190505550600788604051612335919061777f565b90815260408051602092819003830190206001600160a01b0388165f90815292528120600601805491612367836174d4565b919050555060078860405161237c919061777f565b90815260408051602092819003830190206001600160a01b0388165f908152925281206008018054916123ae836174d4565b9091555050335f908152601c6020526040908190209051600191906123d4908b9061777f565b90815260408051602092819003830190205f87815292529020805460ff19169115159190911790556003821080156124395750600688604051612417919061777f565b90815260408051602092819003830190205f868152925290206005015460ff16155b15612754576001600689604051612450919061777f565b90815260408051602092819003830181205f8881529352908220600501805460ff1916931515939093179092559060069061248c908b9061777f565b9081526040805191829003602090810183205f88815291522060050180549215156101000261ff0019909316929092179091556001906006906124d0908b9061777f565b90815260408051602092819003830181205f88815293529120600901805460ff19169215159290921790915560019060079061250d908b9061777f565b90815260408051602092819003830181206001600160a01b038a165f9081529352908220600501805460ff19169315159390931790925590600790612553908b9061777f565b9081526040805191829003602090810183206001600160a01b038a165f90815291522060050180549215156101000261ff0019909316929092179091556001906007906125a1908b9061777f565b90815260408051602092819003830181206001600160a01b038a165f9081529352908220600901805460ff1916931515939093179092556001918291906006906125ec908d9061777f565b90815260408051602092819003830190205f898152908352818120600301546001600160a01b03168452918301939093529082019020805460ff191692151592909217909155513390600a90612643908b9061777f565b9081526040805191829003602090810183205f88815291529081209160099061266d908d9061777f565b90815260200160405180910390205f8781526020019081526020015f205481526020019081526020015f205f6101000a8154816001600160a01b0302191690836001600160a01b03160217905550600160175f60068b6040516126d0919061777f565b90815260408051602092819003830190205f898152908352818120600301546001600160a01b031684529183019390935290820190209051612713908b9061777f565b90815260405160209181900382018120805460ff1916931515939093179092558482525f80516020617a3383398151915291015b60405180910390a16132c2565b61275f8160016177b4565b60068960405161276f919061777f565b90815260200160405180910390205f8581526020019081526020015f2060060154101580156127cd5750816006896040516127aa919061777f565b90815260200160405180910390205f8581526020019081526020015f2060080154145b801561281357506127df8160016177b4565b6006896040516127ef919061777f565b90815260200160405180910390205f8581526020019081526020015f206006015410155b15612b2f57600160068960405161282a919061777f565b90815260408051602092819003830181205f8881529352908220600501805460ff19169315159390931790925590600690612866908b9061777f565b9081526040805191829003602090810183205f88815291522060050180549215156101000261ff0019909316929092179091556001906006906128aa908b9061777f565b90815260408051602092819003830181205f88815293529120600901805460ff1916921515929092179091556001906007906128e7908b9061777f565b90815260408051602092819003830181206001600160a01b038a165f9081529352908220600501805460ff1916931515939093179092559060079061292d908b9061777f565b9081526040805191829003602090810183206001600160a01b038a165f90815291522060050180549215156101000261ff00199093169290921790915560019060079061297b908b9061777f565b90815260408051602092819003830181206001600160a01b038a165f9081529352908220600901805460ff191693151593909317909255600191601791906006906129c7908d9061777f565b90815260408051602092819003830190205f898152908352818120600301546001600160a01b031684529183019390935290820190209051612a0a908b9061777f565b90815260200160405180910390205f6101000a81548160ff0219169083151502179055506001805f60068b604051612a42919061777f565b90815260408051602092819003830190205f898152908352818120600301546001600160a01b03168452918301939093529082019020805460ff191692151592909217909155513390600a90612a99908b9061777f565b9081526040805191829003602090810183205f888152915290812091600990612ac3908d9061777f565b90815260200160405180910390205f8781526020019081526020015f205481526020019081526020015f205f6101000a8154816001600160a01b0302191690836001600160a01b031602179055505f80516020617a338339815191528360405161274791815260200190565b81600689604051612b40919061777f565b90815260200160405180910390205f8581526020019081526020015f2060080154148015612ba85750612b748160016177b4565b600689604051612b84919061777f565b90815260200160405180910390205f8581526020019081526020015f206006015410155b15612eab576001600689604051612bbf919061777f565b90815260408051602092819003830181205f8881529352908220600501805460ff19169315159390931790925590600690612bfb908b9061777f565b9081526040805191829003602090810183205f88815291522060050180549215156101000261ff001990931692909217909155600190600690612c3f908b9061777f565b90815260408051602092819003830181205f88815293529120600901805460ff191692151592909217909155600190600790612c7c908b9061777f565b90815260408051602092819003830181206001600160a01b038a165f9081529352908220600501805460ff19169315159390931790925590600790612cc2908b9061777f565b9081526040805191829003602090810183206001600160a01b038a165f90815291522060050180549215156101000261ff001990931692909217909155600190600790612d10908b9061777f565b90815260408051602092819003830181206001600160a01b038a165f9081529352908220600901805460ff19169315159390931790925560019160179190600690612d5c908d9061777f565b90815260408051602092819003830190205f898152908352818120600301546001600160a01b031684529183019390935290820190209051612d9f908b9061777f565b90815260200160405180910390205f6101000a81548160ff0219169083151502179055506001805f60068b604051612dd7919061777f565b90815260408051602092819003830190205f898152908352818120600301546001600160a01b03168452918301939093529082019020805460ff191692151592909217909155513390600a90612e2e908b9061777f565b9081526040805191829003602090810183205f888152915290812091600990612e58908d9061777f565b90815260200160405180910390205f8781526020019081526020015f205481526020019081526020015f205f6101000a8154816001600160a01b0302191690836001600160a01b031602179055506132c2565b81600689604051612ebc919061777f565b90815260200160405180910390205f8581526020019081526020015f2060080154148015612f445750600688604051612ef5919061777f565b9081526040805191829003602090810183205f8781529152206007015490600690612f21908b9061777f565b90815260200160405180910390205f8581526020019081526020015f2060060154145b15612ff35760405162461bcd60e51b815260206004820152606d60248201527f457175616c20566f74696e67205363656e6172696f2041736b7320666f72204f60448201527f6e65206d6f72652041646d696e20566f74652c20506c6561736520566f74652060648201527f696e206661766f7572206f662052656a656374696f6e20746f2067657420466960848201526c6e616c204465636973696f6e2160981b60a482015260c401610769565b81600689604051613004919061777f565b90815260200160405180910390205f8581526020019081526020015f2060080154036131de57600160068960405161303c919061777f565b90815260408051602092819003830181205f8881529352908220600501805460ff19169315159390931790925590600690613078908b9061777f565b9081526040805191829003602090810183205f88815291522060050180549215156101000261ff0019909316929092179091556001906006906130bc908b9061777f565b90815260408051602092819003830181205f88815293529120600901805460ff1916921515929092179091556001906007906130f9908b9061777f565b90815260408051602092819003830181206001600160a01b038a165f9081529352908220600501805460ff1916931515939093179092559060079061313f908b9061777f565b9081526040805191829003602090810183206001600160a01b038a165f90815291522060050180549215156101000261ff00199093169290921790915560019060079061318d908b9061777f565b90815260408051602092819003830181206001600160a01b038a165f90815290845291909120600901805460ff1916931515939093179092558482525f80516020617a338339815191529101612747565b6001805f60068b6040516131f2919061777f565b90815260408051602092819003830190205f898152908352818120600301546001600160a01b03168452918301939093529082019020805460ff191692151592909217909155513390600a90613249908b9061777f565b9081526040805191829003602090810183205f888152915290812091600990613273908d9061777f565b90815260200160405180910390205f8781526020019081526020015f205481526020019081526020015f205f6101000a8154816001600160a01b0302191690836001600160a01b031602179055505b505050505050505050565b60056020525f9081526040902080546001820180549192916132ee9061740b565b80601f016020809104026020016040519081016040528092919081815260200182805461331a9061740b565b80156133655780601f1061333c57610100808354040283529160200191613365565b820191905f5260205f20905b81548152906001019060200180831161334857829003601f168201915b50505050600283015460038401546004850154600586015460068701805496976001600160a01b039095169693955060ff8084169561010090940416939192916133ae9061740b565b80601f01602080910402602001604051908101604052809291908181526020018280546133da9061740b565b80156134255780601f106133fc57610100808354040283529160200191613425565b820191905f5260205f20905b81548152906001019060200180831161340857829003601f168201915b50505050600783015460089093015491929160ff1690508a565b6060601a83604051613451919061777f565b9081526040805191829003602090810183205f868152908252828120805480840286018401909452838552929184015b82821015613529578382905f5260205f2001805461349e9061740b565b80601f01602080910402602001604051908101604052809291908181526020018280546134ca9061740b565b80156135155780601f106134ec57610100808354040283529160200191613515565b820191905f5260205f20905b8154815290600101906020018083116134f857829003601f168201915b505050505081526020019060010190613481565b5050505090505b92915050565b335f9081526003602052604090205460ff1615156001148061356c5750335f9081526001602081905260409091205460ff161515145b6135885760405162461bcd60e51b81526004016107699061786e565b60185f60068660405161359b919061777f565b90815260408051602092819003830190205f888152908352818120600301546001600160a01b0316845291830193909352908201902090516135de90869061777f565b9081526040519081900360200190205460ff161561363e5760405162461bcd60e51b815260206004820152601f60248201527f557365722068617320616c7265616479206265656e2052656a656374656421006044820152606401610769565b335f908152601c602052604090819020905161365b90869061777f565b90815260408051602092819003830190205f868152925290205460ff16156136b55760405162461bcd60e51b815260206004820152600d60248201526c105b1c9958591e48159bdd1959609a1b6044820152606401610769565b5f6136c1600284617795565b9050846040516020016136d4919061777f565b60408051601f1981840301815282825280516020918201205f8a81526004835292909220919261370892600101910161755b565b604051602081830303815290604052805190602001201461375a5760405162461bcd60e51b815260206004820152600c60248201526b496e76616c69642042616e6b60a01b6044820152606401610769565b60068560405161376a919061777f565b90815260408051602092819003830190205f878152925290206005015460ff16156137a75760405162461bcd60e51b815260040161076990617489565b6006856040516137b7919061777f565b90815260408051602092819003830190205f878152925281206007018054916137df836174d4565b91905055506006856040516137f4919061777f565b90815260408051602092819003830190205f8781529252812060080180549161381c836174d4565b9190505550600785604051613831919061777f565b90815260408051602092819003830190206001600160a01b0385165f90815292528120600701805491613863836174d4565b9190505550600785604051613878919061777f565b90815260408051602092819003830190206001600160a01b0385165f908152925281206008018054916138aa836174d4565b9091555050335f908152601c6020526040908190209051600191906138d090889061777f565b90815260408051602092819003830190205f88815292529020805460ff191691151591909117905560038310801561393a5750600685604051613913919061777f565b90815260408051602092819003830190205f8781529252902060050154610100900460ff16155b15613b72575f600686604051613950919061777f565b90815260408051602092819003830181205f89815293529120600501805460ff19169215159290921790915560019060069061398d90889061777f565b9081526040805191829003602090810183205f89815291522060050180549215156101000261ff0019909316929092179091556001906006906139d190889061777f565b90815260408051602092819003830181205f8981529352908220600901805460ff19169315159390931790925590600790613a0d90889061777f565b90815260408051602092819003830181206001600160a01b0387165f90815293529120600501805460ff191692151592909217909155600190600790613a5490889061777f565b9081526040805191829003602090810183206001600160a01b0387165f90815291522060050180549215156101000261ff001990931692909217909155600190600790613aa290889061777f565b90815260408051602092819003830181206001600160a01b0387165f9081529352908220600901805460ff19169315159390931790925560019160189190600690613aee908a9061777f565b90815260408051602092819003830190205f8a8152908352818120600301546001600160a01b031684529183019390935290820190209051613b3190889061777f565b90815260405160209181900382018120805460ff1916931515939093179092558582525f80516020617a3383398151915291015b60405180910390a16140c7565b613b7d8160016177b4565b600686604051613b8d919061777f565b90815260200160405180910390205f8681526020019081526020015f206007015410158015613beb575082600686604051613bc8919061777f565b90815260200160405180910390205f8681526020019081526020015f2060080154145b8015613c315750613bfd8160016177b4565b600686604051613c0d919061777f565b90815260200160405180910390205f8681526020019081526020015f206007015410155b15613c47575f600686604051613950919061777f565b82600686604051613c58919061777f565b90815260200160405180910390205f8681526020019081526020015f2060080154148015613cc05750613c8c8160016177b4565b600686604051613c9c919061777f565b90815260200160405180910390205f8681526020019081526020015f206007015410155b15613dda576001600686604051613cd7919061777f565b90815260408051602092819003830181205f8981529352908220600501805460ff19169315159390931790925590600690613d1390889061777f565b9081526040805191829003602090810183205f89815291522060050180549215156101000261ff001990931692909217909155600190600690613d5790889061777f565b90815260408051602092819003830181205f89815293529120600901805460ff191692151592909217909155600190600790613d9490889061777f565b90815260408051602092819003830181206001600160a01b0387165f9081529352908220600501805460ff19169315159390931790925590600790613a5490889061777f565b82600686604051613deb919061777f565b90815260200160405180910390205f8681526020019081526020015f206008015403613fc5576001600686604051613e23919061777f565b90815260408051602092819003830181205f8981529352908220600501805460ff19169315159390931790925590600690613e5f90889061777f565b9081526040805191829003602090810183205f89815291522060050180549215156101000261ff001990931692909217909155600190600690613ea390889061777f565b90815260408051602092819003830181205f89815293529120600901805460ff191692151592909217909155600190600790613ee090889061777f565b90815260408051602092819003830181206001600160a01b0387165f9081529352908220600501805460ff19169315159390931790925590600790613f2690889061777f565b9081526040805191829003602090810183206001600160a01b0387165f90815291522060050180549215156101000261ff001990931692909217909155600190600790613f7490889061777f565b90815260408051602092819003830181206001600160a01b0387165f90815290845291909120600901805460ff1916931515939093179092558582525f80516020617a338339815191529101613b65565b82600686604051613fd6919061777f565b90815260200160405180910390205f8681526020019081526020015f206008015414801561405e575060068560405161400f919061777f565b9081526040805191829003602090810183205f888152915220600701549060069061403b90889061777f565b90815260200160405180910390205f8681526020019081526020015f2060060154145b156140c75760405162461bcd60e51b815260206004820152603360248201527f457175616c20566f74696e67205363656e6172696f2041736b7320666f72204f6044820152726e65206d6f72652041646d696e20566f74652160681b6064820152608401610769565b505050505050565b335f9081526001602052604081205460ff166140fd5760405162461bcd60e51b815260040161076990617738565b600c8260405161410d919061777f565b9081526020016040518091039020549050919050565b6141806040518061014001604052805f8152602001606081526020015f6001600160a01b031681526020015f81526020015f151581526020015f151581526020015f8152602001606081526020015f81526020015f151581525090565b335f9081526002602052604090205460ff166141ae5760405162461bcd60e51b815260040161076990617443565b60045f8381526020019081526020015f20604051806101400160405290815f82015481526020016001820180546141e49061740b565b80601f01602080910402602001604051908101604052809291908181526020018280546142109061740b565b801561425b5780601f106142325761010080835404028352916020019161425b565b820191905f5260205f20905b81548152906001019060200180831161423e57829003601f168201915b505050918352505060028201546001600160a01b0316602082015260038201546040820152600482015460ff808216151560608401526101009091041615156080820152600582015460a082015260068201805460c0909201916142be9061740b565b80601f01602080910402602001604051908101604052809291908181526020018280546142ea9061740b565b80156143355780601f1061430c57610100808354040283529160200191614335565b820191905f5260205f20905b81548152906001019060200180831161431857829003601f168201915b50505091835250506007820154602082015260089091015460ff16151560409091015292915050565b8251602081850181018051601a825292820182870120929052525f8281526040902080548290811061438e575f80fd5b905f5260205f20015f92509250505080546143a89061740b565b80601f01602080910402602001604051908101604052809291908181526020018280546143d49061740b565b801561441f5780601f106143f65761010080835404028352916020019161441f565b820191905f5260205f20905b81548152906001019060200180831161440257829003601f168201915b505050505081565b335f9081526012602052604090205460ff16156144865760405162461bcd60e51b815260206004820152601b60248201527f6f776e65722063616e6e6f742072657175657374206120726f6c6500000000006044820152606401610769565b335f9081526002602052604090205460ff16156144b55760405162461bcd60e51b8152600401610769906178af565b335f9081526001602052604090205460ff16156144e45760405162461bcd60e51b8152600401610769906178f4565b835160208501207fcb61ad33d3763aed2bc16c0f57ff251ac638d3d03ab7550adfd3e166c2e7adb6146145555760405162461bcd60e51b8152602060048201526019602482015278496e76616c696420726f6c652072657175657374207479706560381b6044820152606401610769565b600c85604051614565919061777f565b9081526040519081900360200190208054905f614581836174d4565b91905055505f8451116145d25760405162461bcd60e51b8152602060048201526019602482015278526f6c6520747970652063616e6e6f7420626520656d70747960381b6044820152606401610769565b5f5b600c866040516145e4919061777f565b908152602001604051809103902054811015614983578280519060200120600b87604051614612919061777f565b9081526040805191829003602090810183205f86815291522061463a9160099091019061755b565b60405180910390200361468f5760405162461bcd60e51b815260206004820152601c60248201527f55736572205265717565737420416c72656164792050726573656e74000000006044820152606401610769565b8180519060200120600b876040516146a7919061777f565b9081526040805191829003602090810183205f8681529152206146cf9160019091019061755b565b60405180910390200361473a5760405162461bcd60e51b815260206004820152602d60248201527f55736572205265717565737420416c72656164792050726573656e742046726f60448201526c6d205468697320456d61696c2160981b6064820152608401610769565b336001600160a01b0316600b87604051614754919061777f565b90815260408051602092819003830190205f85815292529020600301546001600160a01b03161415806147cd57508480519060200120600b8760405161479a919061777f565b9081526040805191829003602090810183205f8681529152206147c29160049091019061755b565b604051809103902014155b806148485750600b866040516147e3919061777f565b908152604080519182900360209081019092205f848152925290206005015460ff16151560011480156148485750600b86604051614821919061777f565b90815260408051602092819003830190205f8481529252902060050154610100900460ff16155b806148c25750600b8660405161485e919061777f565b90815260408051602092819003830190205f848152925290206005015460ff161580156148c25750600b86604051614896919061777f565b90815260408051602092819003830190205f8481529252902060050154600161010090910460ff161515145b6148de5760405162461bcd60e51b815260040161076990617819565b600c866040516148ee919061777f565b908152602001604051809103902054600b8760405161490d919061777f565b90815260200160405180910390205f8381526020019081526020015f20600201540361497b5760405162461bcd60e51b815260206004820152601a60248201527f437573746f6d657220494420616c7265616479206578697374730000000000006044820152606401610769565b6001016145d4565b505f600b86604051614995919061777f565b90815260200160405180910390205f600c886040516149b4919061777f565b90815260200160405180910390205481526020019081526020015f20905083815f0190816149e29190617685565b50600181016149f18382617685565b50600c86604051614a02919061777f565b9081526040519081900360200190205460028201556003810180546001600160a01b0319163317905560048101614a398682617685565b5060058101805461ffff191690555f6006820181905560078201819055600882015560098101614a698482617685565b5080600887604051614a7b919061777f565b9081526040805160209281900383019020335f9081529252902080614aa083826175b1565b50600181810190614ab3908401826175b1565b506002828101549082015560038083015490820180546001600160a01b0319166001600160a01b03909216919091179055600480820190614af6908401826175b1565b5060058281018054918301805460ff938416151560ff19821681178355925461010090819004909416151590930261ff001990921661ffff1990931692909217179055600680830154908201556007808301549082015560088083015490820155600980820190614b69908401826175b1565b50505f8054915080614b7a836174d4565b9190505550336001600160a01b03167f76b3002a4169dcde68428fdb661c55064978ee5297d2bc75a1de47dc8e0160878686600c8a604051614bbc919061777f565b90815260405190819003602001812054611d72939291617939565b335f9081526002602052604090205460ff16614c055760405162461bcd60e51b815260040161076990617443565b5f614c0f826166ff565b5f81815260046020526040902054909150819003614d55575f818152600460208190526040909120015460ff1615614c595760405162461bcd60e51b815260040161076990617489565b5f818152600460205260408120600701805491614c75836174d4565b90915550505f818152600460208181526040808420808401805460ff1990811682556002830180546001600160a01b039081168952600587528589208801805484169055835461010061ff00199182168117909555825482168a52868a20890180549091169094179093556008808501805484166001908117909155825485168a52868a209091018054909316811790925596889052949093528054945491517fff018e14dbd52f4c8fac30e620cff44cacd6cf2dbaef2f7f7294e7d49c3dcb8194614d499493909316929091019061796e565b60405180910390a25050565b60405162461bcd60e51b8152600401610769906177c7565b614d756167d5565b335f9081526003602052604090205460ff16151560011480614dab5750335f9081526001602081905260409091205460ff161515145b614dc75760405162461bcd60e51b81526004016107699061786e565b5f614dd1836166ff565b9050600684604051614de3919061777f565b9081526040805191829003602090810183205f85815290825282902061018084019092528154835260018201805491840191614e1e9061740b565b80601f0160208091040260200160405190810160405280929190818152602001828054614e4a9061740b565b8015614e955780601f10614e6c57610100808354040283529160200191614e95565b820191905f5260205f20905b815481529060010190602001808311614e7857829003601f168201915b50505091835250506002820154602082015260038201546001600160a01b03166040820152600482018054606090920191614ecf9061740b565b80601f0160208091040260200160405190810160405280929190818152602001828054614efb9061740b565b8015614f465780601f10614f1d57610100808354040283529160200191614f46565b820191905f5260205f20905b815481529060010190602001808311614f2957829003601f168201915b5050509183525050600582015460ff808216151560208401526101009091048116151560408301526006830154606083015260078301546080830152600883015460a0830152600983015416151560c0820152600a8201805460e090920191614fae9061740b565b80601f0160208091040260200160405190810160405280929190818152602001828054614fda9061740b565b80156150255780601f10614ffc57610100808354040283529160200191615025565b820191905f5260205f20905b81548152906001019060200180831161500857829003601f168201915b50505050508152505091505092915050565b61503f6167d5565b60078360405161504f919061777f565b9081526040805191829003602090810183206001600160a01b0386165f908152908252829020610180840190925281548352600182018054918401916150949061740b565b80601f01602080910402602001604051908101604052809291908181526020018280546150c09061740b565b801561510b5780601f106150e25761010080835404028352916020019161510b565b820191905f5260205f20905b8154815290600101906020018083116150ee57829003601f168201915b50505091835250506002820154602082015260038201546001600160a01b031660408201526004820180546060909201916151459061740b565b80601f01602080910402602001604051908101604052809291908181526020018280546151719061740b565b80156151bc5780601f10615193576101008083540402835291602001916151bc565b820191905f5260205f20905b81548152906001019060200180831161519f57829003601f168201915b5050509183525050600582015460ff808216151560208401526101009091048116151560408301526006830154606083015260078301546080830152600883015460a0830152600983015416151560c0820152600a8201805460e0909201916152249061740b565b80601f01602080910402602001604051908101604052809291908181526020018280546152509061740b565b801561529b5780601f106152725761010080835404028352916020019161529b565b820191905f5260205f20905b81548152906001019060200180831161527e57829003601f168201915b505050505081525050905092915050565b82516020818501810180516019825292820182870120929052525f8281526040902080548290811061438e575f80fd5b335f9081526002602052604081205460ff1661530a5760405162461bcd60e51b815260040161076990617443565b50601555601155600190565b6060601983604051615328919061777f565b9081526040805191829003602090810183205f868152908252828120805480840286018401909452838552929184015b82821015613529578382905f5260205f200180546153759061740b565b80601f01602080910402602001604051908101604052809291908181526020018280546153a19061740b565b80156153ec5780601f106153c3576101008083540402835291602001916153ec565b820191905f5260205f20905b8154815290600101906020018083116153cf57829003601f168201915b505050505081526020019060010190615358565b6154086167d5565b335f9081526001602052604090205460ff166154365760405162461bcd60e51b815260040161076990617738565b600683604051615446919061777f565b9081526040805191829003602090810183205f868152908252829020610180840190925281548352600182018054918401916150949061740b565b6154e460405180610160016040528060608152602001606081526020015f81526020015f6001600160a01b03168152602001606081526020015f151581526020015f151581526020015f81526020015f81526020015f8152602001606081525090565b6008836040516154f4919061777f565b9081526040805191829003602090810183206001600160a01b0386165f908152915281902061016083019091528054829082906155309061740b565b80601f016020809104026020016040519081016040528092919081815260200182805461555c9061740b565b80156155a75780601f1061557e576101008083540402835291602001916155a7565b820191905f5260205f20905b81548152906001019060200180831161558a57829003601f168201915b505050505081526020016001820180546155c09061740b565b80601f01602080910402602001604051908101604052809291908181526020018280546155ec9061740b565b80156156375780601f1061560e57610100808354040283529160200191615637565b820191905f5260205f20905b81548152906001019060200180831161561a57829003601f168201915b50505091835250506002820154602082015260038201546001600160a01b031660408201526004820180546060909201916156719061740b565b80601f016020809104026020016040519081016040528092919081815260200182805461569d9061740b565b80156156e85780601f106156bf576101008083540402835291602001916156e8565b820191905f5260205f20905b8154815290600101906020018083116156cb57829003601f168201915b5050509183525050600582015460ff8082161515602084015261010090910416151560408201526006820154606082015260078201546080820152600882015460a082015260098201805460c0909201916152249061740b565b601454336001600160a01b03909116036157ac5760405162461bcd60e51b815260206004820152602560248201527f4b4959412063616e206e6f742062656c6f6e6720746f2074686520526567756c60448201526461746f722160d81b6064820152608401610769565b5f6157b6836166ff565b600e80549192505f6157c7836174d4565b90915550600190505b600e54811161591d57826040516020016157ea919061777f565b60408051601f1981840301815282825280516020918201205f8581526004835292909220919261581e92600601910161755b565b6040516020818303038152906040528051906020012014158061587a57505f818152600460208190526040909120015460ff610100909104161515600114801561587a57505f818152600460208190526040909120015460ff16155b61590b5760405162461bcd60e51b815260206004820152605660248201527f504153542052455155455354532050454e44494e47204f52204449464645524560448201527f4e542042414e4b204150504c49434154494f4e204f522042414e4b2048415320606482015275414c5245414459204245454e20415050524f5645442160501b608482015260a401610769565b80615915816174d4565b9150506157d0565b50335f9081526012602052604090205460ff161561598f5760405162461bcd60e51b815260206004820152602960248201527f526567756c61746f72205665726966696572732063616e6e6f742072657175656044820152687374206120726f6c6560b81b6064820152608401610769565b335f9081526002602052604090205460ff16156159be5760405162461bcd60e51b8152600401610769906178af565b335f9081526001602052604090205460ff16156159ed5760405162461bcd60e51b8152600401610769906178f4565b816040516020016159fe919061777f565b60408051601f198184030181528282528051602091820120600e545f90815260048352929092209192615a3592600601910161755b565b6040516020818303038152906040528051906020012003615a985760405162461bcd60e51b815260206004820181905260248201527f53616d652044657461696c732061726520616c72656164792070726573656e746044820152606401610769565b600e545f908152600460205260409020600201546001600160a01b031633141580615ae25750600e545f908152600460208190526040909120015460ff6101009091041615156001145b615afe5760405162461bcd60e51b815260040161076990617819565b600e545f8181526004602052604090205403615b555760405162461bcd60e51b815260206004820152601660248201527542616e6b20494420616c72656164792065786973747360501b6044820152606401610769565b6040805161014081018252600e5480825260208083018881523384860152606084018690525f6080850181905260a0850181905260c0850181905260e08501889052610100850181905261012085018190529283526004909152929020815181559151909182916001820190615bcb9082617685565b5060408201516002820180546001600160a01b039092166001600160a01b031990921691909117905560608201516003820155608082015160048201805460a085015115156101000261ff00199315159390931661ffff199091161791909117905560c0820151600582015560e08201516006820190615c4b9082617685565b506101008201516007820155610120909101516008909101805460ff1916911515919091179055335f90815260056020908152604090912082518155908201518291906001820190615c9d9082617685565b5060408201516002820180546001600160a01b039092166001600160a01b031990921691909117905560608201516003820155608082015160048201805460a085015115156101000261ff00199315159390931661ffff199091161791909117905560c0820151600582015560e08201516006820190615d1d9082617685565b506101008201516007820155610120909101516008909101805460ff19169115159190911790555050505050565b5f600683604051615d5c919061777f565b90815260408051602092819003830190205f9485529091529091206005015460ff1692915050565b5f600b83604051615d5c919061777f565b600d8181548110615da4575f80fd5b905f5260205f2090600502015f91509050805f018054615dc39061740b565b80601f0160208091040260200160405190810160405280929190818152602001828054615def9061740b565b8015615e3a5780601f10615e1157610100808354040283529160200191615e3a565b820191905f5260205f20905b815481529060010190602001808311615e1d57829003601f168201915b505050600184015460028501805494956001600160a01b03909216949193509150615e649061740b565b80601f0160208091040260200160405190810160405280929190818152602001828054615e909061740b565b8015615edb5780601f10615eb257610100808354040283529160200191615edb565b820191905f5260205f20905b815481529060010190602001808311615ebe57829003601f168201915b5050505060038301546004909301549192916001600160a01b0381169150600160a01b900460ff1686565b8151602081840181018051600b825292820194820194909420919093529091525f9081526040902080548190615f3b9061740b565b80601f0160208091040260200160405190810160405280929190818152602001828054615f679061740b565b8015615fb25780601f10615f8957610100808354040283529160200191615fb2565b820191905f5260205f20905b815481529060010190602001808311615f9557829003601f168201915b505050505090806001018054615fc79061740b565b80601f0160208091040260200160405190810160405280929190818152602001828054615ff39061740b565b801561603e5780601f106160155761010080835404028352916020019161603e565b820191905f5260205f20905b81548152906001019060200180831161602157829003601f168201915b5050505060028301546003840154600485018054949592946001600160a01b0390921693509061606d9061740b565b80601f01602080910402602001604051908101604052809291908181526020018280546160999061740b565b80156160e45780601f106160bb576101008083540402835291602001916160e4565b820191905f5260205f20905b8154815290600101906020018083116160c757829003601f168201915b505050506005830154600684015460078501546008860154600987018054969760ff808716986101009097041696509394929391926161229061740b565b80601f016020809104026020016040519081016040528092919081815260200182805461614e9061740b565b80156161995780601f1061617057610100808354040283529160200191616199565b820191905f5260205f20905b81548152906001019060200180831161617c57829003601f168201915b505050505090508b565b60046020525f9081526040902080546001820180549192916132ee9061740b565b335f9081526001602052604090205460ff166161f25760405162461bcd60e51b815260040161076990617738565b335f908152601b602052604090819020905161620f90879061777f565b90815260408051602092819003830190205f878152925290205460ff16156162755760405162461bcd60e51b81526020600482015260196024820152785265717565737420416c726561647920417070726f7665642160381b6044820152606401610769565b5f80616280856166ff565b90505f61628e600283617795565b905060015b600c896040516162a3919061777f565b90815260200160405180910390205481116166d75787600b8a6040516162c9919061777f565b90815260200160405180910390205f8381526020019081526020015f2060020154036166c557600b896040516162ff919061777f565b90815260408051602092819003830190205f848152925290206005015460ff161561633c5760405162461bcd60e51b815260040161076990617489565b600b8960405161634c919061777f565b90815260408051602092819003830190205f84815292528120600701805491616374836174d4565b9190505550600b89604051616389919061777f565b90815260408051602092819003830190205f848152925281206008018054916163b1836174d4565b91905055506008896040516163c6919061777f565b90815260408051602092819003830190206001600160a01b0389165f908152925281206007018054916163f8836174d4565b919050555060088960405161640d919061777f565b90815260408051602092819003830190206001600160a01b0389165f9081529252812060080180549161643f836174d4565b9091555061645090508260016177b4565b600b8a604051616460919061777f565b90815260200160405180910390205f8381526020019081526020015f2060070154106165df575f600b8a604051616497919061777f565b90815260408051602092819003830181205f86815293529120600501805460ff191692151592909217909155600190600b906164d4908c9061777f565b9081526040805191829003602090810183205f868152915290812060050180549315156101000261ff001990941693909317909255600890616517908c9061777f565b90815260408051602092819003830181206001600160a01b038b165f90815293529120600501805460ff19169215159290921790915560019060089061655e908c9061777f565b9081526040805191829003602090810183206001600160a01b038b165f90815290825282812060050180549515156101000261ff001990961695909517909455338452601b90529091206001916165b6908c9061777f565b90815260408051602092819003830190205f8c815292529020805460ff19169115159190911790555b807f661a15043248f2efccf5083be9e8d627257f76fbeb6a299ff83a1bfc34fcfce8600b8b604051616611919061777f565b9081526040805191829003602090810183205f878152915220600301546001600160a01b031690600b90616646908e9061777f565b9081526040805191829003602090810183205f88815291522061666f929160049091019061796e565b60405180910390a2601a89604051616687919061777f565b90815260408051602092819003830190205f8481529083529081208054600181018255908252919020016166bb8682617685565b50600193506166d7565b806166cf816174d4565b915050616293565b50826166f55760405162461bcd60e51b8152600401610769906177c7565b5050505050505050565b5f8181805b825181101561676d575f838281518110616720576167206173f7565b016020015160f81c90506030811080159061673c575060398111155b156167645761674c603082617a08565b61675784600a617a1b565b61676191906177b4565b92505b50600101616704565b509392505050565b606060108054806020026020016040519081016040528092919081815260200182805480156167cb57602002820191905f5260205f20905b81546001600160a01b031681526001909101906020018083116167ad575b5050505050905090565b6040518061018001604052805f8152602001606081526020015f81526020015f6001600160a01b03168152602001606081526020015f151581526020015f151581526020015f81526020015f81526020015f81526020015f15158152602001606081525090565b634e487b7160e01b5f52604160045260245ffd5b5f82601f83011261685f575f80fd5b81356001600160401b03808211156168795761687961683c565b604051601f8301601f19908116603f011681019082821181831017156168a1576168a161683c565b816040528381528660208588010111156168b9575f80fd5b836020870160208301375f602085830101528094505050505092915050565b5f602082840312156168e8575f80fd5b81356001600160401b038111156168fd575f80fd5b61690984828501616850565b949350505050565b602080825282518282018190525f9190848201906040850190845b818110156169515783516001600160a01b03168352928401929184019160010161692c565b50909695505050505050565b5f805f6060848603121561696f575f80fd5b83356001600160401b03811115616984575f80fd5b61699086828701616850565b9660208601359650604090950135949350505050565b5f80604083850312156169b7575f80fd5b82356001600160401b038111156169cc575f80fd5b6169d885828601616850565b95602094909401359450505050565b5f81518084528060208401602086015e5f602082860101526020601f19601f83011685010191505092915050565b5f6101808e8352806020840152616a2e8184018f6169e7565b604084018e90526001600160a01b038d16606085015283810360808501529050616a58818c6169e7565b905089151560a084015288151560c08401528760e08401528661010084015285610120840152616a8d61014084018615159052565b828103610160840152616aa081856169e7565b9f9e505050505050505050505050505050565b80356001600160a01b0381168114610862575f80fd5b5f805f805f60a08688031215616add575f80fd5b85356001600160401b0380821115616af3575f80fd5b616aff89838a01616850565b96506020880135955060408801359450616b1b60608901616ab3565b93506080880135915080821115616b30575f80fd5b50616b3d88828901616850565b9150509295509295909350565b5f60208284031215616b5a575f80fd5b5035919050565b5f805f8060808587031215616b74575f80fd5b84356001600160401b0380821115616b8a575f80fd5b616b9688838901616850565b95506020870135915080821115616bab575f80fd5b616bb788838901616850565b94506040870135915080821115616bcc575f80fd5b616bd888838901616850565b93506060870135915080821115616bed575f80fd5b50616bfa87828801616850565b91505092959194509250565b5f805f805f60a08688031215616c1a575f80fd5b85356001600160401b0380821115616c30575f80fd5b616c3c89838a01616850565b96506020880135915080821115616c51575f80fd5b616c5d89838a01616850565b95506040880135915080821115616c72575f80fd5b616c7e89838a01616850565b94506060880135915080821115616c93575f80fd5b50616ca088828901616850565b925050616caf60808701616ab3565b90509295509295909350565b5f60208284031215616ccb575f80fd5b616cd482616ab3565b9392505050565b5f6101408c8352806020840152616cf48184018d6169e7565b6001600160a01b038c166040850152606084018b9052891515608085015288151560a085015260c0840188905283810360e08501529050616d3581876169e7565b61010084019590955250509015156101209091015298975050505050505050565b5f60208083016020845280855180835260408601915060408160051b8701019250602087015f5b82811015616dab57603f19888603018452616d998583516169e7565b94509285019290850190600101616d7d565b5092979650505050505050565b5f805f805f60a08688031215616dcc575f80fd5b8535945060208601356001600160401b03811115616de8575f80fd5b616df488828901616850565b9450506040860135925060608601359150616caf60808701616ab3565b60208152815160208201525f6020830151610140806040850152616e396101608501836169e7565b91506040850151616e5560608601826001600160a01b03169052565b50606085015160808501526080850151616e7360a086018215159052565b5060a085015180151560c08601525060c085015160e085015260e0850151610100601f198685030181870152616ea984836169e7565b90870151610120878101919091529096015115159190940152509192915050565b602081525f616cd460208301846169e7565b5f805f805f60a08688031215616ef0575f80fd5b85356001600160401b0380821115616f06575f80fd5b616f1289838a01616850565b96506020880135915080821115616f27575f80fd5b616f3389838a01616850565b95506040880135915080821115616f48575f80fd5b616f5489838a01616850565b94506060880135915080821115616f69575f80fd5b616b1b89838a01616850565b5f8060408385031215616f86575f80fd5b82356001600160401b0380821115616f9c575f80fd5b616fa886838701616850565b93506020850135915080821115616fbd575f80fd5b50616fca85828601616850565b9150509250929050565b60208152815160208201525f6020830151610180806040850152616ffc6101a08501836169e7565b915060408501516060850152606085015161702260808601826001600160a01b03169052565b506080850151601f19808685030160a087015261703f84836169e7565b935060a0870151915061705660c087018315159052565b60c087015180151560e0880152915060e087015161010087810191909152870151610120808801919091528701516101408088019190915287015191506101606170a38188018415159052565b8701518685039091018387015290506170bc83826169e7565b9695505050505050565b5f80604083850312156170d7575f80fd5b82356001600160401b038111156170ec575f80fd5b6170f885828601616850565b92505061710760208401616ab3565b90509250929050565b5f8060408385031215617121575f80fd5b50508035926020909101359150565b602081525f825161016080602085015261714e6101808501836169e7565b91506020850151601f198086850301604087015261716c84836169e7565b9350604087015160608701526060870151915061719460808701836001600160a01b03169052565b60808701519150808685030160a08701526171af84836169e7565b935060a087015191506171c660c087018315159052565b60c087015180151560e0880152915060e08701516101008781019190915287015161012080880191909152870151610140808801919091528701518685039091018387015290506170bc83826169e7565b5f805f60608486031215617229575f80fd5b83356001600160401b038082111561723f575f80fd5b61724b87838801616850565b94506020860135915080821115617260575f80fd5b61726c87838801616850565b93506040860135915080821115617281575f80fd5b5061728e86828701616850565b9150509250925092565b60c081525f6172aa60c08301896169e7565b6001600160a01b03888116602085015283820360408501526172cc82896169e7565b60608501979097529490941660808301525090151560a090910152509392505050565b5f6101608083526173028184018f6169e7565b90508281036020840152617316818e6169e7565b604084018d90526001600160a01b038c16606085015283810360808501529050617340818b6169e7565b905088151560a084015287151560c08401528660e0840152856101008401528461012084015282810361014084015261737981856169e7565b9e9d5050505050505050505050505050565b5f805f805f60a0868803121561739f575f80fd5b85356001600160401b03808211156173b5575f80fd5b6173c189838a01616850565b96506020880135955060408801359150808211156173dd575f80fd5b6173e989838a01616850565b9450616b1b60608901616ab3565b634e487b7160e01b5f52603260045260245ffd5b600181811c9082168061741f57607f821691505b60208210810361743d57634e487b7160e01b5f52602260045260245ffd5b50919050565b60208082526026908201527f4f6e6c7920726567756c61746f722063616e20706572666f726d20746869732060408201526530b1ba34b7b760d11b606082015260800190565b60208082526018908201527f5265717565737420616c726561647920617070726f7665640000000000000000604082015260600190565b634e487b7160e01b5f52601160045260245ffd5b5f600182016174e5576174e56174c0565b5060010190565b5f81546174f88161740b565b60018281168015617510576001811461752557617551565b60ff1984168752821515830287019450617551565b855f526020805f205f5b858110156175485781548a82015290840190820161752f565b50505082870194505b5050505092915050565b5f616cd482846174ec565b601f82111561107c57805f5260205f20601f840160051c8101602085101561758b5750805b601f840160051c820191505b818110156175aa575f8155600101617597565b5050505050565b8181036175bc575050565b6175c6825461740b565b6001600160401b038111156175dd576175dd61683c565b6175f1816175eb845461740b565b84617566565b5f601f821160018114617622575f831561760b5750848201545b5f19600385901b1c1916600184901b1784556175aa565b5f8581526020808220868352908220601f198616925b838110156176585782860154825560019586019590910190602001617638565b508583101561767557818501545f19600388901b60f8161c191681555b5050505050600190811b01905550565b81516001600160401b0381111561769e5761769e61683c565b6176ac816175eb845461740b565b602080601f8311600181146176df575f84156176c85750858301515b5f19600386901b1c1916600185901b1785556140c7565b5f85815260208120601f198616915b8281101561770d578886015182559484019460019091019084016176ee565b50858210156176755793909601515f1960f8600387901b161c19169092555050600190811b01905550565b60208082526027908201527f4f6e6c792062616e6b2061646d696e2063616e20706572666f726d20746869736040820152661030b1ba34b7b760c91b606082015260800190565b5f82518060208501845e5f920191825250919050565b5f826177af57634e487b7160e01b5f52601260045260245ffd5b500490565b80820180821115613530576135306174c0565b60208082526032908201527f4e6f20726f6c65207265717565737420666f756e6420666f72207468652070726040820152711bdd9a5919590818dd5cdd1bdb595c88125160721b606082015260800190565b60208082526035908201527f5573657220616c72656164792068617320612070656e64696e67207265717565604082015274737420666f72207468697320726f6c65207479706560581b606082015260800190565b60208082526021908201527f4f6e6c792042616e6b2063616e20706572666f726d207468697320616374696f6040820152603760f91b606082015260800190565b60208082526025908201527f526567756c61746f72732063616e6e6f7420726571756573742061207573657260408201526420726f6c6560d81b606082015260800190565b60208082526025908201527f42616e6b61646d696e732063616e6e6f7420726571756573742061207573657260408201526420726f6c6560d81b606082015260800190565b606081525f61794b60608301866169e7565b828103602084015261795d81866169e7565b915050826040830152949350505050565b60018060a01b03831681525f6020604060208401525f845461798f8161740b565b806040870152606060018084165f81146179b057600181146179cc576179f9565b60ff19851660608a0152606084151560051b8a010195506179f9565b895f5260205f205f5b858110156179f05781548b82018601529083019088016179d5565b8a016060019650505b50939998505050505050505050565b81810381811115613530576135306174c0565b8082028115828204841417613530576135306174c056fe13aa00e7ceabe8d45eb1cf6a6b6743b49d370a0e6d80a7ae09eae9f31b5bfddea26469706673582212200a92fc324d2c01a1799b3afcae73a5d33d9b1e1a667e0f3912e426629559f9d564736f6c63430008190033",
			"opcodes": "PUSH1 0x80 PUSH1 0x40 MSTORE CALLVALUE DUP1 ISZERO PUSH2 0xF JUMPI PUSH0 DUP1 REVERT JUMPDEST POP PUSH1 0x40 MLOAD PUSH2 0x8532 CODESIZE SUB DUP1 PUSH2 0x8532 DUP4 CODECOPY DUP2 ADD PUSH1 0x40 DUP2 SWAP1 MSTORE PUSH2 0x2E SWAP2 PUSH2 0x778 JUMP JUMPDEST PUSH1 0x14 DUP1 SLOAD PUSH1 0x1 PUSH1 0x1 PUSH1 0xA0 SHL SUB NOT AND CALLER OR SWAP1 SSTORE DUP5 MLOAD PUSH2 0x53 SWAP1 PUSH1 0x10 SWAP1 PUSH1 0x20 DUP9 ADD SWAP1 PUSH2 0x5A1 JUMP JUMPDEST POP CALLER PUSH1 0x1 PUSH1 0x1 PUSH1 0xA0 SHL SUB DUP3 AND EQ PUSH2 0xB1 JUMPI PUSH1 0x40 MLOAD PUSH3 0x461BCD PUSH1 0xE5 SHL DUP2 MSTORE PUSH1 0x20 PUSH1 0x4 DUP3 ADD MSTORE PUSH1 0x16 PUSH1 0x24 DUP3 ADD MSTORE PUSH32 0x696E76616C696420726567756C61746F72204E6F646500000000000000000000 PUSH1 0x44 DUP3 ADD MSTORE PUSH1 0x64 ADD JUMPDEST PUSH1 0x40 MLOAD DUP1 SWAP2 SUB SWAP1 REVERT JUMPDEST PUSH2 0xFE PUSH1 0x40 MLOAD DUP1 PUSH1 0x40 ADD PUSH1 0x40 MSTORE DUP1 PUSH1 0x9 DUP2 MSTORE PUSH1 0x20 ADD PUSH9 0x2932B3BAB630BA37B9 PUSH1 0xB9 SHL DUP2 MSTORE POP DUP4 PUSH1 0x40 MLOAD DUP1 PUSH1 0x40 ADD PUSH1 0x40 MSTORE DUP1 PUSH1 0x2 DUP2 MSTORE PUSH1 0x20 ADD PUSH2 0x3939 PUSH1 0xF0 SHL DUP2 MSTORE POP DUP5 PUSH2 0x1AB PUSH1 0x20 SHL PUSH1 0x20 SHR JUMP JUMPDEST PUSH1 0x11 DUP5 SWAP1 SSTORE PUSH1 0x15 DUP4 SWAP1 SSTORE PUSH1 0x40 DUP1 MLOAD PUSH1 0x60 DUP1 DUP3 MSTORE PUSH1 0x9 SWAP1 DUP3 ADD MSTORE PUSH9 0x2937B632A6B0B5B2B9 PUSH1 0xB9 SHL PUSH1 0x80 DUP3 ADD MSTORE CALLER PUSH1 0x20 DUP3 ADD MSTORE TIMESTAMP DUP2 DUP4 ADD MSTORE SWAP1 MLOAD PUSH32 0xD08DB30AEFD7CADCA681F2889E1E857CBAF9F35DB4DFF2C8CE6AE48311014B6 SWAP2 DUP2 SWAP1 SUB PUSH1 0xA0 ADD SWAP1 LOG1 CALLER PUSH1 0x1 PUSH1 0x1 PUSH1 0xA0 SHL SUB AND PUSH32 0xCEA1940E811568D8CF7CAD51B479B91CE405019AAE7B9925F658270BF0A0EB99 DUP4 PUSH1 0x40 MLOAD PUSH2 0x199 SWAP2 SWAP1 PUSH2 0x857 JUMP JUMPDEST PUSH1 0x40 MLOAD DUP1 SWAP2 SUB SWAP1 LOG2 POP POP POP POP POP PUSH2 0xA9D JUMP JUMPDEST CALLER PUSH0 SWAP1 DUP2 MSTORE PUSH1 0x12 PUSH1 0x20 MSTORE PUSH1 0x40 SWAP1 KECCAK256 SLOAD PUSH1 0xFF AND ISZERO PUSH2 0x20A JUMPI PUSH1 0x40 MLOAD PUSH3 0x461BCD PUSH1 0xE5 SHL DUP2 MSTORE PUSH1 0x20 PUSH1 0x4 DUP3 ADD MSTORE PUSH1 0x1B PUSH1 0x24 DUP3 ADD MSTORE PUSH32 0x6F776E65722063616E6E6F742072657175657374206120726F6C650000000000 PUSH1 0x44 DUP3 ADD MSTORE PUSH1 0x64 ADD PUSH2 0xA8 JUMP JUMPDEST DUP4 MLOAD PUSH1 0x20 DUP6 ADD KECCAK256 PUSH32 0x60098439C256BCEF427A4680FEDCB96A8A1B70CA9ECA0D69DB5352A893EA0155 EQ PUSH2 0x27F JUMPI PUSH1 0x40 MLOAD PUSH3 0x461BCD PUSH1 0xE5 SHL DUP2 MSTORE PUSH1 0x20 PUSH1 0x4 DUP3 ADD MSTORE PUSH1 0x19 PUSH1 0x24 DUP3 ADD MSTORE PUSH32 0x496E76616C696420726F6C652072657175657374207479706500000000000000 PUSH1 0x44 DUP3 ADD MSTORE PUSH1 0x64 ADD PUSH2 0xA8 JUMP JUMPDEST PUSH0 DUP5 MLOAD GT PUSH2 0x2CF JUMPI PUSH1 0x40 MLOAD PUSH3 0x461BCD PUSH1 0xE5 SHL DUP2 MSTORE PUSH1 0x20 PUSH1 0x4 DUP3 ADD MSTORE PUSH1 0x19 PUSH1 0x24 DUP3 ADD MSTORE PUSH32 0x526F6C6520747970652063616E6E6F7420626520656D70747900000000000000 PUSH1 0x44 DUP3 ADD MSTORE PUSH1 0x64 ADD PUSH2 0xA8 JUMP JUMPDEST PUSH0 PUSH2 0x2D9 DUP4 PUSH2 0x52B JUMP JUMPDEST SWAP1 POP PUSH2 0x324 PUSH1 0x40 MLOAD DUP1 PUSH1 0xC0 ADD PUSH1 0x40 MSTORE DUP1 PUSH1 0x60 DUP2 MSTORE PUSH1 0x20 ADD PUSH0 PUSH1 0x1 PUSH1 0x1 PUSH1 0xA0 SHL SUB AND DUP2 MSTORE PUSH1 0x20 ADD PUSH1 0x60 DUP2 MSTORE PUSH1 0x20 ADD PUSH0 DUP2 MSTORE PUSH1 0x20 ADD PUSH0 PUSH1 0x1 PUSH1 0x1 PUSH1 0xA0 SHL SUB AND DUP2 MSTORE PUSH1 0x20 ADD PUSH0 ISZERO ISZERO DUP2 MSTORE POP SWAP1 JUMP JUMPDEST PUSH0 JUMPDEST PUSH1 0x10 SLOAD DUP2 LT ISZERO PUSH2 0x522 JUMPI PUSH1 0x40 MLOAD DUP1 PUSH1 0xC0 ADD PUSH1 0x40 MSTORE DUP1 DUP8 DUP4 DUP2 MLOAD DUP2 LT PUSH2 0x34D JUMPI PUSH2 0x34D PUSH2 0x8EF JUMP JUMPDEST PUSH1 0x20 MUL PUSH1 0x20 ADD ADD MLOAD DUP2 MSTORE PUSH1 0x20 ADD PUSH1 0x10 DUP4 DUP2 SLOAD DUP2 LT PUSH2 0x36D JUMPI PUSH2 0x36D PUSH2 0x8EF JUMP JUMPDEST SWAP1 PUSH0 MSTORE PUSH1 0x20 PUSH0 KECCAK256 ADD PUSH0 SWAP1 SLOAD SWAP1 PUSH2 0x100 EXP SWAP1 DIV PUSH1 0x1 PUSH1 0x1 PUSH1 0xA0 SHL SUB AND PUSH1 0x1 PUSH1 0x1 PUSH1 0xA0 SHL SUB AND DUP2 MSTORE PUSH1 0x20 ADD DUP9 DUP2 MSTORE PUSH1 0x20 ADD DUP5 DUP2 MSTORE PUSH1 0x20 ADD DUP6 PUSH1 0x1 PUSH1 0x1 PUSH1 0xA0 SHL SUB AND DUP2 MSTORE PUSH1 0x20 ADD PUSH1 0x1 ISZERO ISZERO DUP2 MSTORE POP SWAP2 POP PUSH1 0x1 PUSH1 0x2 PUSH0 PUSH1 0x10 DUP5 DUP2 SLOAD DUP2 LT PUSH2 0x3D2 JUMPI PUSH2 0x3D2 PUSH2 0x8EF JUMP JUMPDEST PUSH0 SWAP2 DUP3 MSTORE PUSH1 0x20 DUP1 DUP4 KECCAK256 SWAP2 SWAP1 SWAP2 ADD SLOAD PUSH1 0x1 PUSH1 0x1 PUSH1 0xA0 SHL SUB AND DUP4 MSTORE DUP3 ADD SWAP3 SWAP1 SWAP3 MSTORE PUSH1 0x40 ADD DUP2 KECCAK256 DUP1 SLOAD PUSH1 0xFF NOT AND SWAP3 ISZERO ISZERO SWAP3 SWAP1 SWAP3 OR SWAP1 SWAP2 SSTORE PUSH1 0x10 DUP1 SLOAD PUSH1 0x1 SWAP3 PUSH1 0x12 SWAP3 SWAP1 SWAP2 DUP6 SWAP1 DUP2 LT PUSH2 0x422 JUMPI PUSH2 0x422 PUSH2 0x8EF JUMP JUMPDEST PUSH0 SWAP2 DUP3 MSTORE PUSH1 0x20 DUP1 DUP4 KECCAK256 SWAP1 SWAP2 ADD SLOAD PUSH1 0x1 PUSH1 0x1 PUSH1 0xA0 SHL SUB AND DUP4 MSTORE DUP3 ADD SWAP3 SWAP1 SWAP3 MSTORE PUSH1 0x40 ADD DUP2 KECCAK256 DUP1 SLOAD SWAP3 ISZERO ISZERO PUSH1 0xFF NOT SWAP1 SWAP4 AND SWAP3 SWAP1 SWAP3 OR SWAP1 SWAP2 SSTORE PUSH1 0xD DUP1 SLOAD PUSH1 0x1 DUP2 ADD DUP3 SSTORE SWAP2 MSTORE DUP3 MLOAD DUP4 SWAP2 PUSH1 0x5 MUL PUSH32 0xD7B6990105719101DABEB77144F2A3385C8033ACD3AF97E9423A695E81AD1EB5 ADD SWAP1 DUP2 SWAP1 PUSH2 0x499 SWAP1 DUP3 PUSH2 0x987 JUMP JUMPDEST POP PUSH1 0x20 DUP3 ADD MLOAD PUSH1 0x1 DUP3 ADD DUP1 SLOAD PUSH1 0x1 PUSH1 0x1 PUSH1 0xA0 SHL SUB NOT AND PUSH1 0x1 PUSH1 0x1 PUSH1 0xA0 SHL SUB SWAP1 SWAP3 AND SWAP2 SWAP1 SWAP2 OR SWAP1 SSTORE PUSH1 0x40 DUP3 ADD MLOAD PUSH1 0x2 DUP3 ADD SWAP1 PUSH2 0x4D4 SWAP1 DUP3 PUSH2 0x987 JUMP JUMPDEST POP PUSH1 0x60 DUP3 ADD MLOAD PUSH1 0x3 DUP3 ADD SSTORE PUSH1 0x80 DUP3 ADD MLOAD PUSH1 0x4 SWAP1 SWAP2 ADD DUP1 SLOAD PUSH1 0xA0 SWAP1 SWAP4 ADD MLOAD ISZERO ISZERO PUSH1 0x1 PUSH1 0xA0 SHL MUL PUSH1 0x1 PUSH1 0x1 PUSH1 0xA8 SHL SUB NOT SWAP1 SWAP4 AND PUSH1 0x1 PUSH1 0x1 PUSH1 0xA0 SHL SUB SWAP1 SWAP3 AND SWAP2 SWAP1 SWAP2 OR SWAP2 SWAP1 SWAP2 OR SWAP1 SSTORE PUSH1 0x1 ADD PUSH2 0x326 JUMP JUMPDEST POP POP POP POP POP POP POP JUMP JUMPDEST PUSH0 DUP2 DUP2 DUP1 JUMPDEST DUP3 MLOAD DUP2 LT ISZERO PUSH2 0x599 JUMPI PUSH0 DUP4 DUP3 DUP2 MLOAD DUP2 LT PUSH2 0x54C JUMPI PUSH2 0x54C PUSH2 0x8EF JUMP JUMPDEST ADD PUSH1 0x20 ADD MLOAD PUSH1 0xF8 SHR SWAP1 POP PUSH1 0x30 DUP2 LT DUP1 ISZERO SWAP1 PUSH2 0x568 JUMPI POP PUSH1 0x39 DUP2 GT ISZERO JUMPDEST ISZERO PUSH2 0x590 JUMPI PUSH2 0x578 PUSH1 0x30 DUP3 PUSH2 0xA5A JUMP JUMPDEST PUSH2 0x583 DUP5 PUSH1 0xA PUSH2 0xA73 JUMP JUMPDEST PUSH2 0x58D SWAP2 SWAP1 PUSH2 0xA8A JUMP JUMPDEST SWAP3 POP JUMPDEST POP PUSH1 0x1 ADD PUSH2 0x530 JUMP JUMPDEST POP SWAP4 SWAP3 POP POP POP JUMP JUMPDEST DUP3 DUP1 SLOAD DUP3 DUP3 SSTORE SWAP1 PUSH0 MSTORE PUSH1 0x20 PUSH0 KECCAK256 SWAP1 DUP2 ADD SWAP3 DUP3 ISZERO PUSH2 0x5F4 JUMPI SWAP2 PUSH1 0x20 MUL DUP3 ADD JUMPDEST DUP3 DUP2 GT ISZERO PUSH2 0x5F4 JUMPI DUP3 MLOAD DUP3 SLOAD PUSH1 0x1 PUSH1 0x1 PUSH1 0xA0 SHL SUB NOT AND PUSH1 0x1 PUSH1 0x1 PUSH1 0xA0 SHL SUB SWAP1 SWAP2 AND OR DUP3 SSTORE PUSH1 0x20 SWAP1 SWAP3 ADD SWAP2 PUSH1 0x1 SWAP1 SWAP2 ADD SWAP1 PUSH2 0x5BF JUMP JUMPDEST POP PUSH2 0x600 SWAP3 SWAP2 POP PUSH2 0x604 JUMP JUMPDEST POP SWAP1 JUMP JUMPDEST JUMPDEST DUP1 DUP3 GT ISZERO PUSH2 0x600 JUMPI PUSH0 DUP2 SSTORE PUSH1 0x1 ADD PUSH2 0x605 JUMP JUMPDEST PUSH4 0x4E487B71 PUSH1 0xE0 SHL PUSH0 MSTORE PUSH1 0x41 PUSH1 0x4 MSTORE PUSH1 0x24 PUSH0 REVERT JUMPDEST PUSH1 0x40 MLOAD PUSH1 0x1F DUP3 ADD PUSH1 0x1F NOT AND DUP2 ADD PUSH1 0x1 PUSH1 0x1 PUSH1 0x40 SHL SUB DUP2 GT DUP3 DUP3 LT OR ISZERO PUSH2 0x654 JUMPI PUSH2 0x654 PUSH2 0x618 JUMP JUMPDEST PUSH1 0x40 MSTORE SWAP2 SWAP1 POP JUMP JUMPDEST PUSH0 PUSH1 0x1 PUSH1 0x1 PUSH1 0x40 SHL SUB DUP3 GT ISZERO PUSH2 0x674 JUMPI PUSH2 0x674 PUSH2 0x618 JUMP JUMPDEST POP PUSH1 0x5 SHL PUSH1 0x20 ADD SWAP1 JUMP JUMPDEST DUP1 MLOAD PUSH1 0x1 PUSH1 0x1 PUSH1 0xA0 SHL SUB DUP2 AND DUP2 EQ PUSH2 0x694 JUMPI PUSH0 DUP1 REVERT JUMPDEST SWAP2 SWAP1 POP JUMP JUMPDEST PUSH0 PUSH1 0x1F DUP4 PUSH1 0x1F DUP5 ADD SLT PUSH2 0x6AA JUMPI PUSH0 DUP1 REVERT JUMPDEST DUP3 MLOAD PUSH1 0x20 PUSH2 0x6BF PUSH2 0x6BA DUP4 PUSH2 0x65C JUMP JUMPDEST PUSH2 0x62C JUMP JUMPDEST DUP3 DUP2 MSTORE PUSH1 0x5 SWAP3 SWAP1 SWAP3 SHL DUP6 ADD DUP2 ADD SWAP2 DUP2 DUP2 ADD SWAP1 DUP8 DUP5 GT ISZERO PUSH2 0x6DD JUMPI PUSH0 DUP1 REVERT JUMPDEST DUP3 DUP8 ADD JUMPDEST DUP5 DUP2 LT ISZERO PUSH2 0x76C JUMPI DUP1 MLOAD PUSH1 0x1 PUSH1 0x1 PUSH1 0x40 SHL SUB DUP1 DUP3 GT ISZERO PUSH2 0x6FF JUMPI PUSH0 DUP1 REVERT JUMPDEST DUP2 DUP11 ADD SWAP2 POP DUP11 PUSH1 0x3F DUP4 ADD SLT PUSH2 0x712 JUMPI PUSH0 DUP1 REVERT JUMPDEST DUP6 DUP3 ADD MLOAD PUSH1 0x40 DUP3 DUP3 GT ISZERO PUSH2 0x728 JUMPI PUSH2 0x728 PUSH2 0x618 JUMP JUMPDEST PUSH2 0x739 DUP3 DUP12 ADD PUSH1 0x1F NOT AND DUP10 ADD PUSH2 0x62C JUMP JUMPDEST SWAP3 POP DUP2 DUP4 MSTORE DUP13 DUP2 DUP4 DUP7 ADD ADD GT ISZERO PUSH2 0x74E JUMPI PUSH0 DUP1 REVERT JUMPDEST DUP2 DUP2 DUP6 ADD DUP10 DUP6 ADD MCOPY POP PUSH0 SWAP1 DUP3 ADD DUP8 ADD MSTORE DUP5 MSTORE POP SWAP2 DUP4 ADD SWAP2 DUP4 ADD PUSH2 0x6E1 JUMP JUMPDEST POP SWAP8 SWAP7 POP POP POP POP POP POP POP JUMP JUMPDEST PUSH0 DUP1 PUSH0 DUP1 PUSH0 PUSH1 0xA0 DUP7 DUP9 SUB SLT ISZERO PUSH2 0x78C JUMPI PUSH0 DUP1 REVERT JUMPDEST DUP6 MLOAD PUSH1 0x1 PUSH1 0x1 PUSH1 0x40 SHL SUB DUP1 DUP3 GT ISZERO PUSH2 0x7A2 JUMPI PUSH0 DUP1 REVERT JUMPDEST DUP2 DUP9 ADD SWAP2 POP DUP9 PUSH1 0x1F DUP4 ADD SLT PUSH2 0x7B5 JUMPI PUSH0 DUP1 REVERT JUMPDEST DUP2 MLOAD PUSH1 0x20 PUSH2 0x7C5 PUSH2 0x6BA DUP4 PUSH2 0x65C JUMP JUMPDEST DUP3 DUP2 MSTORE PUSH1 0x5 SWAP3 SWAP1 SWAP3 SHL DUP5 ADD DUP2 ADD SWAP2 DUP2 DUP2 ADD SWAP1 DUP13 DUP5 GT ISZERO PUSH2 0x7E3 JUMPI PUSH0 DUP1 REVERT JUMPDEST SWAP5 DUP3 ADD SWAP5 JUMPDEST DUP4 DUP7 LT ISZERO PUSH2 0x808 JUMPI PUSH2 0x7F9 DUP7 PUSH2 0x67E JUMP JUMPDEST DUP3 MSTORE SWAP5 DUP3 ADD SWAP5 SWAP1 DUP3 ADD SWAP1 PUSH2 0x7E8 JUMP JUMPDEST DUP1 SWAP11 POP POP POP DUP1 DUP11 ADD MLOAD SWAP8 POP POP POP PUSH1 0x40 DUP9 ADD MLOAD SWAP5 POP PUSH1 0x60 DUP9 ADD MLOAD SWAP2 POP DUP1 DUP3 GT ISZERO PUSH2 0x82F JUMPI PUSH0 DUP1 REVERT JUMPDEST POP PUSH2 0x83C DUP9 DUP3 DUP10 ADD PUSH2 0x699 JUMP JUMPDEST SWAP3 POP POP PUSH2 0x84B PUSH1 0x80 DUP8 ADD PUSH2 0x67E JUMP JUMPDEST SWAP1 POP SWAP3 SWAP6 POP SWAP3 SWAP6 SWAP1 SWAP4 POP JUMP JUMPDEST PUSH0 PUSH1 0x40 DUP3 ADD PUSH1 0x40 DUP4 MSTORE DUP1 DUP5 MLOAD DUP1 DUP4 MSTORE PUSH1 0x60 DUP6 ADD SWAP2 POP PUSH1 0x60 DUP2 PUSH1 0x5 SHL DUP7 ADD ADD SWAP3 POP PUSH1 0x20 DUP1 DUP8 ADD PUSH0 JUMPDEST DUP4 DUP2 LT ISZERO PUSH2 0x8C3 JUMPI DUP8 DUP7 SUB PUSH1 0x5F NOT ADD DUP6 MSTORE DUP2 MLOAD DUP1 MLOAD DUP1 DUP9 MSTORE DUP1 DUP6 DUP4 ADD DUP7 DUP11 ADD MCOPY PUSH0 DUP9 DUP3 ADD DUP7 ADD MSTORE PUSH1 0x1F ADD PUSH1 0x1F NOT AND SWAP1 SWAP7 ADD DUP4 ADD SWAP6 POP SWAP4 DUP3 ADD SWAP4 SWAP1 DUP3 ADD SWAP1 PUSH1 0x1 ADD PUSH2 0x87E JUMP JUMPDEST POP POP DUP6 DUP5 SUB SWAP6 ADD SWAP5 SWAP1 SWAP5 MSTORE POP PUSH1 0x9 DUP2 MSTORE PUSH9 0x2932B3BAB630BA37B9 PUSH1 0xB9 SHL PUSH1 0x20 DUP3 ADD MSTORE PUSH1 0x40 ADD SWAP4 SWAP3 POP POP POP JUMP JUMPDEST PUSH4 0x4E487B71 PUSH1 0xE0 SHL PUSH0 MSTORE PUSH1 0x32 PUSH1 0x4 MSTORE PUSH1 0x24 PUSH0 REVERT JUMPDEST PUSH1 0x1 DUP2 DUP2 SHR SWAP1 DUP3 AND DUP1 PUSH2 0x917 JUMPI PUSH1 0x7F DUP3 AND SWAP2 POP JUMPDEST PUSH1 0x20 DUP3 LT DUP2 SUB PUSH2 0x935 JUMPI PUSH4 0x4E487B71 PUSH1 0xE0 SHL PUSH0 MSTORE PUSH1 0x22 PUSH1 0x4 MSTORE PUSH1 0x24 PUSH0 REVERT JUMPDEST POP SWAP2 SWAP1 POP JUMP JUMPDEST PUSH1 0x1F DUP3 GT ISZERO PUSH2 0x982 JUMPI DUP1 PUSH0 MSTORE PUSH1 0x20 PUSH0 KECCAK256 PUSH1 0x1F DUP5 ADD PUSH1 0x5 SHR DUP2 ADD PUSH1 0x20 DUP6 LT ISZERO PUSH2 0x960 JUMPI POP DUP1 JUMPDEST PUSH1 0x1F DUP5 ADD PUSH1 0x5 SHR DUP3 ADD SWAP2 POP JUMPDEST DUP2 DUP2 LT ISZERO PUSH2 0x97F JUMPI PUSH0 DUP2 SSTORE PUSH1 0x1 ADD PUSH2 0x96C JUMP JUMPDEST POP POP JUMPDEST POP POP POP JUMP JUMPDEST DUP2 MLOAD PUSH1 0x1 PUSH1 0x1 PUSH1 0x40 SHL SUB DUP2 GT ISZERO PUSH2 0x9A0 JUMPI PUSH2 0x9A0 PUSH2 0x618 JUMP JUMPDEST PUSH2 0x9B4 DUP2 PUSH2 0x9AE DUP5 SLOAD PUSH2 0x903 JUMP JUMPDEST DUP5 PUSH2 0x93B JUMP JUMPDEST PUSH1 0x20 DUP1 PUSH1 0x1F DUP4 GT PUSH1 0x1 DUP2 EQ PUSH2 0x9E7 JUMPI PUSH0 DUP5 ISZERO PUSH2 0x9D0 JUMPI POP DUP6 DUP4 ADD MLOAD JUMPDEST PUSH0 NOT PUSH1 0x3 DUP7 SWAP1 SHL SHR NOT AND PUSH1 0x1 DUP6 SWAP1 SHL OR DUP6 SSTORE PUSH2 0xA3E JUMP JUMPDEST PUSH0 DUP6 DUP2 MSTORE PUSH1 0x20 DUP2 KECCAK256 PUSH1 0x1F NOT DUP7 AND SWAP2 JUMPDEST DUP3 DUP2 LT ISZERO PUSH2 0xA15 JUMPI DUP9 DUP7 ADD MLOAD DUP3 SSTORE SWAP5 DUP5 ADD SWAP5 PUSH1 0x1 SWAP1 SWAP2 ADD SWAP1 DUP5 ADD PUSH2 0x9F6 JUMP JUMPDEST POP DUP6 DUP3 LT ISZERO PUSH2 0xA32 JUMPI DUP8 DUP6 ADD MLOAD PUSH0 NOT PUSH1 0x3 DUP9 SWAP1 SHL PUSH1 0xF8 AND SHR NOT AND DUP2 SSTORE JUMPDEST POP POP PUSH1 0x1 DUP5 PUSH1 0x1 SHL ADD DUP6 SSTORE JUMPDEST POP POP POP POP POP POP JUMP JUMPDEST PUSH4 0x4E487B71 PUSH1 0xE0 SHL PUSH0 MSTORE PUSH1 0x11 PUSH1 0x4 MSTORE PUSH1 0x24 PUSH0 REVERT JUMPDEST DUP2 DUP2 SUB DUP2 DUP2 GT ISZERO PUSH2 0xA6D JUMPI PUSH2 0xA6D PUSH2 0xA46 JUMP JUMPDEST SWAP3 SWAP2 POP POP JUMP JUMPDEST DUP1 DUP3 MUL DUP2 ISZERO DUP3 DUP3 DIV DUP5 EQ OR PUSH2 0xA6D JUMPI PUSH2 0xA6D PUSH2 0xA46 JUMP JUMPDEST DUP1 DUP3 ADD DUP1 DUP3 GT ISZERO PUSH2 0xA6D JUMPI PUSH2 0xA6D PUSH2 0xA46 JUMP JUMPDEST PUSH2 0x7A88 DUP1 PUSH2 0xAAA PUSH0 CODECOPY PUSH0 RETURN INVALID PUSH1 0x80 PUSH1 0x40 MSTORE CALLVALUE DUP1 ISZERO PUSH2 0xF JUMPI PUSH0 DUP1 REVERT JUMPDEST POP PUSH1 0x4 CALLDATASIZE LT PUSH2 0x24A JUMPI PUSH0 CALLDATALOAD PUSH1 0xE0 SHR DUP1 PUSH4 0x88F70C3C GT PUSH2 0x140 JUMPI DUP1 PUSH4 0xB7C6FB65 GT PUSH2 0xBF JUMPI DUP1 PUSH4 0xE053F553 GT PUSH2 0x84 JUMPI DUP1 PUSH4 0xE053F553 EQ PUSH2 0x626 JUMPI DUP1 PUSH4 0xE6ED511E EQ PUSH2 0x64B JUMPI DUP1 PUSH4 0xE86E5ED2 EQ PUSH2 0x66D JUMPI DUP1 PUSH4 0xEE687DF5 EQ PUSH2 0x697 JUMPI DUP1 PUSH4 0xF2C2F187 EQ PUSH2 0x6B6 JUMPI DUP1 PUSH4 0xF76EBFB0 EQ PUSH2 0x6C9 JUMPI PUSH0 DUP1 REVERT JUMPDEST DUP1 PUSH4 0xB7C6FB65 EQ PUSH2 0x5A2 JUMPI DUP1 PUSH4 0xC02DDBE1 EQ PUSH2 0x5C2 JUMPI DUP1 PUSH4 0xD3EB72B4 EQ PUSH2 0x5D5 JUMPI DUP1 PUSH4 0xDC050EC1 EQ PUSH2 0x5E8 JUMPI DUP1 PUSH4 0xDF3403AF EQ PUSH2 0x5FB JUMPI PUSH0 DUP1 REVERT JUMPDEST DUP1 PUSH4 0xA7083C71 GT PUSH2 0x105 JUMPI DUP1 PUSH4 0xA7083C71 EQ PUSH2 0x52B JUMPI DUP1 PUSH4 0xA97BC51B EQ PUSH2 0x53E JUMPI DUP1 PUSH4 0xAB8FC4C2 EQ PUSH2 0x551 JUMPI DUP1 PUSH4 0xB3144302 EQ PUSH2 0x57C JUMPI DUP1 PUSH4 0xB67FF9E5 EQ PUSH2 0x58F JUMPI PUSH0 DUP1 REVERT JUMPDEST DUP1 PUSH4 0x88F70C3C EQ PUSH2 0x4C3 JUMPI DUP1 PUSH4 0x99C1AADC EQ PUSH2 0x4CC JUMPI DUP1 PUSH4 0x9D633433 EQ PUSH2 0x4D5 JUMPI DUP1 PUSH4 0xA02E5CC2 EQ PUSH2 0x50F JUMPI DUP1 PUSH4 0xA55B1AA1 EQ PUSH2 0x522 JUMPI PUSH0 DUP1 REVERT JUMPDEST DUP1 PUSH4 0x3F9BBE55 GT PUSH2 0x1CC JUMPI DUP1 PUSH4 0x5EAB07FD GT PUSH2 0x191 JUMPI DUP1 PUSH4 0x5EAB07FD EQ PUSH2 0x43B JUMPI DUP1 PUSH4 0x5ED304C0 EQ PUSH2 0x45B JUMPI DUP1 PUSH4 0x6FB7C4FD EQ PUSH2 0x46E JUMPI DUP1 PUSH4 0x7DFB86A0 EQ PUSH2 0x481 JUMPI DUP1 PUSH4 0x80AD24D1 EQ PUSH2 0x4A3 JUMPI PUSH0 DUP1 REVERT JUMPDEST DUP1 PUSH4 0x3F9BBE55 EQ PUSH2 0x3AD JUMPI DUP1 PUSH4 0x3FAFCCFD EQ PUSH2 0x3C0 JUMPI DUP1 PUSH4 0x4137903C EQ PUSH2 0x3F2 JUMPI DUP1 PUSH4 0x45C82991 EQ PUSH2 0x408 JUMPI DUP1 PUSH4 0x53523C60 EQ PUSH2 0x41B JUMPI PUSH0 DUP1 REVERT JUMPDEST DUP1 PUSH4 0x26929DA8 GT PUSH2 0x212 JUMPI DUP1 PUSH4 0x26929DA8 EQ PUSH2 0x32B JUMPI DUP1 PUSH4 0x34755723 EQ PUSH2 0x33E JUMPI DUP1 PUSH4 0x38C05474 EQ PUSH2 0x351 JUMPI DUP1 PUSH4 0x3B8905F3 EQ PUSH2 0x364 JUMPI DUP1 PUSH4 0x3E7CA6D2 EQ PUSH2 0x38D JUMPI PUSH0 DUP1 REVERT JUMPDEST DUP1 PUSH4 0x597A2A8 EQ PUSH2 0x24E JUMPI DUP1 PUSH4 0x1B62D1EB EQ PUSH2 0x277 JUMPI DUP1 PUSH4 0x1C78ED6B EQ PUSH2 0x2D8 JUMPI DUP1 PUSH4 0x1C7D3EF9 EQ PUSH2 0x303 JUMPI DUP1 PUSH4 0x22584A43 EQ PUSH2 0x318 JUMPI JUMPDEST PUSH0 DUP1 REVERT JUMPDEST PUSH2 0x261 PUSH2 0x25C CALLDATASIZE PUSH1 0x4 PUSH2 0x68D8 JUMP JUMPDEST PUSH2 0x6DC JUMP JUMPDEST PUSH1 0x40 MLOAD PUSH2 0x26E SWAP2 SWAP1 PUSH2 0x6911 JUMP JUMPDEST PUSH1 0x40 MLOAD DUP1 SWAP2 SUB SWAP1 RETURN JUMPDEST PUSH2 0x2C0 PUSH2 0x285 CALLDATASIZE PUSH1 0x4 PUSH2 0x695D JUMP JUMPDEST DUP3 MLOAD PUSH1 0x20 DUP2 DUP6 ADD DUP2 ADD DUP1 MLOAD PUSH1 0xA DUP3 MSTORE SWAP3 DUP3 ADD SWAP6 DUP3 ADD SWAP6 SWAP1 SWAP6 KECCAK256 SWAP2 SWAP1 SWAP5 MSTORE DUP4 MSTORE PUSH0 SWAP2 DUP3 MSTORE PUSH1 0x40 DUP1 DUP4 KECCAK256 SWAP1 SWAP4 MSTORE DUP2 MSTORE KECCAK256 SLOAD PUSH1 0x1 PUSH1 0x1 PUSH1 0xA0 SHL SUB AND DUP2 JUMP JUMPDEST PUSH1 0x40 MLOAD PUSH1 0x1 PUSH1 0x1 PUSH1 0xA0 SHL SUB SWAP1 SWAP2 AND DUP2 MSTORE PUSH1 0x20 ADD PUSH2 0x26E JUMP JUMPDEST PUSH2 0x2EB PUSH2 0x2E6 CALLDATASIZE PUSH1 0x4 PUSH2 0x69A6 JUMP JUMPDEST PUSH2 0x867 JUMP JUMPDEST PUSH1 0x40 MLOAD PUSH2 0x26E SWAP13 SWAP12 SWAP11 SWAP10 SWAP9 SWAP8 SWAP7 SWAP6 SWAP5 SWAP4 SWAP3 SWAP2 SWAP1 PUSH2 0x6A15 JUMP JUMPDEST PUSH2 0x316 PUSH2 0x311 CALLDATASIZE PUSH1 0x4 PUSH2 0x68D8 JUMP JUMPDEST PUSH2 0xA8A JUMP JUMPDEST STOP JUMPDEST PUSH2 0x316 PUSH2 0x326 CALLDATASIZE PUSH1 0x4 PUSH2 0x6AC9 JUMP JUMPDEST PUSH2 0x1081 JUMP JUMPDEST PUSH2 0x2C0 PUSH2 0x339 CALLDATASIZE PUSH1 0x4 PUSH2 0x6B4A JUMP JUMPDEST PUSH2 0x15C1 JUMP JUMPDEST PUSH2 0x316 PUSH2 0x34C CALLDATASIZE PUSH1 0x4 PUSH2 0x6B61 JUMP JUMPDEST PUSH2 0x15E9 JUMP JUMPDEST PUSH2 0x316 PUSH2 0x35F CALLDATASIZE PUSH1 0x4 PUSH2 0x6C06 JUMP JUMPDEST PUSH2 0x1D82 JUMP JUMPDEST PUSH2 0x377 PUSH2 0x372 CALLDATASIZE PUSH1 0x4 PUSH2 0x6CBB JUMP JUMPDEST PUSH2 0x32CD JUMP JUMPDEST PUSH1 0x40 MLOAD PUSH2 0x26E SWAP11 SWAP10 SWAP9 SWAP8 SWAP7 SWAP6 SWAP5 SWAP4 SWAP3 SWAP2 SWAP1 PUSH2 0x6CDB JUMP JUMPDEST PUSH2 0x3A0 PUSH2 0x39B CALLDATASIZE PUSH1 0x4 PUSH2 0x69A6 JUMP JUMPDEST PUSH2 0x343F JUMP JUMPDEST PUSH1 0x40 MLOAD PUSH2 0x26E SWAP2 SWAP1 PUSH2 0x6D56 JUMP JUMPDEST PUSH2 0x316 PUSH2 0x3BB CALLDATASIZE PUSH1 0x4 PUSH2 0x6DB8 JUMP JUMPDEST PUSH2 0x3536 JUMP JUMPDEST PUSH2 0x3E2 PUSH2 0x3CE CALLDATASIZE PUSH1 0x4 PUSH2 0x6CBB JUMP JUMPDEST PUSH1 0x3 PUSH1 0x20 MSTORE PUSH0 SWAP1 DUP2 MSTORE PUSH1 0x40 SWAP1 KECCAK256 SLOAD PUSH1 0xFF AND DUP2 JUMP JUMPDEST PUSH1 0x40 MLOAD SWAP1 ISZERO ISZERO DUP2 MSTORE PUSH1 0x20 ADD PUSH2 0x26E JUMP JUMPDEST PUSH2 0x3FA PUSH0 SLOAD DUP2 JUMP JUMPDEST PUSH1 0x40 MLOAD SWAP1 DUP2 MSTORE PUSH1 0x20 ADD PUSH2 0x26E JUMP JUMPDEST PUSH2 0x3FA PUSH2 0x416 CALLDATASIZE PUSH1 0x4 PUSH2 0x68D8 JUMP JUMPDEST PUSH2 0x40CF JUMP JUMPDEST PUSH2 0x42E PUSH2 0x429 CALLDATASIZE PUSH1 0x4 PUSH2 0x6B4A JUMP JUMPDEST PUSH2 0x4123 JUMP JUMPDEST PUSH1 0x40 MLOAD PUSH2 0x26E SWAP2 SWAP1 PUSH2 0x6E11 JUMP JUMPDEST PUSH2 0x44E PUSH2 0x449 CALLDATASIZE PUSH1 0x4 PUSH2 0x695D JUMP JUMPDEST PUSH2 0x435E JUMP JUMPDEST PUSH1 0x40 MLOAD PUSH2 0x26E SWAP2 SWAP1 PUSH2 0x6ECA JUMP JUMPDEST PUSH2 0x316 PUSH2 0x469 CALLDATASIZE PUSH1 0x4 PUSH2 0x6EDC JUMP JUMPDEST PUSH2 0x4427 JUMP JUMPDEST PUSH2 0x316 PUSH2 0x47C CALLDATASIZE PUSH1 0x4 PUSH2 0x68D8 JUMP JUMPDEST PUSH2 0x4BD7 JUMP JUMPDEST PUSH2 0x3E2 PUSH2 0x48F CALLDATASIZE PUSH1 0x4 PUSH2 0x6CBB JUMP JUMPDEST PUSH1 0x2 PUSH1 0x20 MSTORE PUSH0 SWAP1 DUP2 MSTORE PUSH1 0x40 SWAP1 KECCAK256 SLOAD PUSH1 0xFF AND DUP2 JUMP JUMPDEST PUSH2 0x4B6 PUSH2 0x4B1 CALLDATASIZE PUSH1 0x4 PUSH2 0x6F75 JUMP JUMPDEST PUSH2 0x4D6D JUMP JUMPDEST PUSH1 0x40 MLOAD PUSH2 0x26E SWAP2 SWAP1 PUSH2 0x6FD4 JUMP JUMPDEST PUSH2 0x3FA PUSH1 0x11 SLOAD DUP2 JUMP JUMPDEST PUSH2 0x3FA PUSH1 0x15 SLOAD DUP2 JUMP JUMPDEST PUSH2 0x3FA PUSH2 0x4E3 CALLDATASIZE PUSH1 0x4 PUSH2 0x69A6 JUMP JUMPDEST DUP2 MLOAD PUSH1 0x20 DUP2 DUP5 ADD DUP2 ADD DUP1 MLOAD PUSH1 0x9 DUP3 MSTORE SWAP3 DUP3 ADD SWAP5 DUP3 ADD SWAP5 SWAP1 SWAP5 KECCAK256 SWAP2 SWAP1 SWAP4 MSTORE SWAP1 SWAP2 MSTORE PUSH0 SWAP1 DUP2 MSTORE PUSH1 0x40 SWAP1 KECCAK256 SLOAD DUP2 JUMP JUMPDEST PUSH2 0x4B6 PUSH2 0x51D CALLDATASIZE PUSH1 0x4 PUSH2 0x70C6 JUMP JUMPDEST PUSH2 0x5037 JUMP JUMPDEST PUSH2 0x3FA PUSH1 0xE SLOAD DUP2 JUMP JUMPDEST PUSH2 0x44E PUSH2 0x539 CALLDATASIZE PUSH1 0x4 PUSH2 0x695D JUMP JUMPDEST PUSH2 0x52AC JUMP JUMPDEST PUSH2 0x3E2 PUSH2 0x54C CALLDATASIZE PUSH1 0x4 PUSH2 0x7110 JUMP JUMPDEST PUSH2 0x52DC JUMP JUMPDEST PUSH2 0x3FA PUSH2 0x55F CALLDATASIZE PUSH1 0x4 PUSH2 0x68D8 JUMP JUMPDEST DUP1 MLOAD PUSH1 0x20 DUP2 DUP4 ADD DUP2 ADD DUP1 MLOAD PUSH1 0xC DUP3 MSTORE SWAP3 DUP3 ADD SWAP2 SWAP1 SWAP4 ADD KECCAK256 SWAP2 MSTORE SLOAD DUP2 JUMP JUMPDEST PUSH2 0x3A0 PUSH2 0x58A CALLDATASIZE PUSH1 0x4 PUSH2 0x69A6 JUMP JUMPDEST PUSH2 0x5316 JUMP JUMPDEST PUSH2 0x4B6 PUSH2 0x59D CALLDATASIZE PUSH1 0x4 PUSH2 0x69A6 JUMP JUMPDEST PUSH2 0x5400 JUMP JUMPDEST PUSH2 0x5B5 PUSH2 0x5B0 CALLDATASIZE PUSH1 0x4 PUSH2 0x70C6 JUMP JUMPDEST PUSH2 0x5481 JUMP JUMPDEST PUSH1 0x40 MLOAD PUSH2 0x26E SWAP2 SWAP1 PUSH2 0x7130 JUMP JUMPDEST PUSH2 0x316 PUSH2 0x5D0 CALLDATASIZE PUSH1 0x4 PUSH2 0x7217 JUMP JUMPDEST PUSH2 0x5742 JUMP JUMPDEST PUSH2 0x3E2 PUSH2 0x5E3 CALLDATASIZE PUSH1 0x4 PUSH2 0x69A6 JUMP JUMPDEST PUSH2 0x5D4B JUMP JUMPDEST PUSH2 0x3E2 PUSH2 0x5F6 CALLDATASIZE PUSH1 0x4 PUSH2 0x69A6 JUMP JUMPDEST PUSH2 0x5D84 JUMP JUMPDEST PUSH2 0x3E2 PUSH2 0x609 CALLDATASIZE PUSH1 0x4 PUSH2 0x6CBB JUMP JUMPDEST PUSH1 0x1 PUSH1 0x1 PUSH1 0xA0 SHL SUB AND PUSH0 SWAP1 DUP2 MSTORE PUSH1 0x3 PUSH1 0x20 MSTORE PUSH1 0x40 SWAP1 KECCAK256 SLOAD PUSH1 0xFF AND SWAP1 JUMP JUMPDEST PUSH2 0x639 PUSH2 0x634 CALLDATASIZE PUSH1 0x4 PUSH2 0x6B4A JUMP JUMPDEST PUSH2 0x5D95 JUMP JUMPDEST PUSH1 0x40 MLOAD PUSH2 0x26E SWAP7 SWAP6 SWAP5 SWAP4 SWAP3 SWAP2 SWAP1 PUSH2 0x7298 JUMP JUMPDEST PUSH2 0x3E2 PUSH2 0x659 CALLDATASIZE PUSH1 0x4 PUSH2 0x6CBB JUMP JUMPDEST PUSH1 0x1 PUSH1 0x20 MSTORE PUSH0 SWAP1 DUP2 MSTORE PUSH1 0x40 SWAP1 KECCAK256 SLOAD PUSH1 0xFF AND DUP2 JUMP JUMPDEST PUSH2 0x680 PUSH2 0x67B CALLDATASIZE PUSH1 0x4 PUSH2 0x69A6 JUMP JUMPDEST PUSH2 0x5F06 JUMP JUMPDEST PUSH1 0x40 MLOAD PUSH2 0x26E SWAP12 SWAP11 SWAP10 SWAP9 SWAP8 SWAP7 SWAP6 SWAP5 SWAP4 SWAP3 SWAP2 SWAP1 PUSH2 0x72EF JUMP JUMPDEST PUSH2 0x3FA PUSH2 0x6A5 CALLDATASIZE PUSH1 0x4 PUSH2 0x6B4A JUMP JUMPDEST PUSH1 0xF PUSH1 0x20 MSTORE PUSH0 SWAP1 DUP2 MSTORE PUSH1 0x40 SWAP1 KECCAK256 SLOAD DUP2 JUMP JUMPDEST PUSH2 0x377 PUSH2 0x6C4 CALLDATASIZE PUSH1 0x4 PUSH2 0x6B4A JUMP JUMPDEST PUSH2 0x61A3 JUMP JUMPDEST PUSH2 0x316 PUSH2 0x6D7 CALLDATASIZE PUSH1 0x4 PUSH2 0x738B JUMP JUMPDEST PUSH2 0x61C4 JUMP JUMPDEST CALLER PUSH0 SWAP1 DUP2 MSTORE PUSH1 0x2 PUSH1 0x20 MSTORE PUSH1 0x40 SWAP1 KECCAK256 SLOAD PUSH1 0x60 SWAP1 PUSH1 0xFF AND DUP1 PUSH2 0x70A JUMPI POP CALLER PUSH0 SWAP1 DUP2 MSTORE PUSH1 0x3 PUSH1 0x20 MSTORE PUSH1 0x40 SWAP1 KECCAK256 SLOAD PUSH1 0xFF AND JUMPDEST PUSH2 0x772 JUMPI PUSH1 0x40 MLOAD PUSH3 0x461BCD PUSH1 0xE5 SHL DUP2 MSTORE PUSH1 0x20 PUSH1 0x4 DUP3 ADD MSTORE PUSH1 0x2E PUSH1 0x24 DUP3 ADD MSTORE PUSH32 0x4F6E6C792062616E6B206F7220726567756C61746F722063616E20706572666F PUSH1 0x44 DUP3 ADD MSTORE PUSH14 0x3936903A3434B99030B1BA34B7B7 PUSH1 0x91 SHL PUSH1 0x64 DUP3 ADD MSTORE PUSH1 0x84 ADD JUMPDEST PUSH1 0x40 MLOAD DUP1 SWAP2 SUB SWAP1 REVERT JUMPDEST PUSH0 PUSH2 0x77C DUP4 PUSH2 0x66FF JUMP JUMPDEST SWAP1 POP PUSH0 PUSH2 0x787 PUSH2 0x6775 JUMP JUMPDEST PUSH1 0x40 DUP1 MLOAD PUSH1 0x3 DUP1 DUP3 MSTORE PUSH1 0x80 DUP3 ADD SWAP1 SWAP3 MSTORE SWAP2 SWAP3 POP PUSH0 SWAP2 SWAP1 PUSH1 0x20 DUP3 ADD PUSH1 0x60 DUP1 CALLDATASIZE DUP4 CALLDATACOPY ADD SWAP1 POP POP SWAP1 POP PUSH0 JUMPDEST DUP3 MLOAD DUP2 LT ISZERO PUSH2 0x85C JUMPI PUSH1 0x13 PUSH0 DUP6 DUP2 MSTORE PUSH1 0x20 ADD SWAP1 DUP2 MSTORE PUSH1 0x20 ADD PUSH0 KECCAK256 PUSH0 DUP5 DUP4 DUP2 MLOAD DUP2 LT PUSH2 0x7DC JUMPI PUSH2 0x7DC PUSH2 0x73F7 JUMP JUMPDEST PUSH1 0x20 SWAP1 DUP2 MUL SWAP2 SWAP1 SWAP2 ADD DUP2 ADD MLOAD PUSH1 0x1 PUSH1 0x1 PUSH1 0xA0 SHL SUB AND DUP3 MSTORE DUP2 ADD SWAP2 SWAP1 SWAP2 MSTORE PUSH1 0x40 ADD PUSH0 KECCAK256 SLOAD PUSH1 0xFF AND ISZERO PUSH2 0x854 JUMPI DUP3 DUP2 DUP2 MLOAD DUP2 LT PUSH2 0x819 JUMPI PUSH2 0x819 PUSH2 0x73F7 JUMP JUMPDEST PUSH1 0x20 MUL PUSH1 0x20 ADD ADD MLOAD DUP3 DUP3 DUP2 MLOAD DUP2 LT PUSH2 0x833 JUMPI PUSH2 0x833 PUSH2 0x73F7 JUMP JUMPDEST PUSH1 0x20 MUL PUSH1 0x20 ADD ADD SWAP1 PUSH1 0x1 PUSH1 0x1 PUSH1 0xA0 SHL SUB AND SWAP1 DUP2 PUSH1 0x1 PUSH1 0x1 PUSH1 0xA0 SHL SUB AND DUP2 MSTORE POP POP JUMPDEST PUSH1 0x1 ADD PUSH2 0x7AF JUMP JUMPDEST POP SWAP3 POP POP POP JUMPDEST SWAP2 SWAP1 POP JUMP JUMPDEST DUP2 MLOAD PUSH1 0x20 DUP2 DUP5 ADD DUP2 ADD DUP1 MLOAD PUSH1 0x6 DUP3 MSTORE SWAP3 DUP3 ADD SWAP5 DUP3 ADD SWAP5 SWAP1 SWAP5 KECCAK256 SWAP2 SWAP1 SWAP4 MSTORE SWAP1 SWAP2 MSTORE PUSH0 SWAP1 DUP2 MSTORE PUSH1 0x40 SWAP1 KECCAK256 DUP1 SLOAD PUSH1 0x1 DUP3 ADD DUP1 SLOAD SWAP2 SWAP3 SWAP2 PUSH2 0x8A3 SWAP1 PUSH2 0x740B JUMP JUMPDEST DUP1 PUSH1 0x1F ADD PUSH1 0x20 DUP1 SWAP2 DIV MUL PUSH1 0x20 ADD PUSH1 0x40 MLOAD SWAP1 DUP2 ADD PUSH1 0x40 MSTORE DUP1 SWAP3 SWAP2 SWAP1 DUP2 DUP2 MSTORE PUSH1 0x20 ADD DUP3 DUP1 SLOAD PUSH2 0x8CF SWAP1 PUSH2 0x740B JUMP JUMPDEST DUP1 ISZERO PUSH2 0x91A JUMPI DUP1 PUSH1 0x1F LT PUSH2 0x8F1 JUMPI PUSH2 0x100 DUP1 DUP4 SLOAD DIV MUL DUP4 MSTORE SWAP2 PUSH1 0x20 ADD SWAP2 PUSH2 0x91A JUMP JUMPDEST DUP3 ADD SWAP2 SWAP1 PUSH0 MSTORE PUSH1 0x20 PUSH0 KECCAK256 SWAP1 JUMPDEST DUP2 SLOAD DUP2 MSTORE SWAP1 PUSH1 0x1 ADD SWAP1 PUSH1 0x20 ADD DUP1 DUP4 GT PUSH2 0x8FD JUMPI DUP3 SWAP1 SUB PUSH1 0x1F AND DUP3 ADD SWAP2 JUMPDEST POP POP POP POP PUSH1 0x2 DUP4 ADD SLOAD PUSH1 0x3 DUP5 ADD SLOAD PUSH1 0x4 DUP6 ADD DUP1 SLOAD SWAP5 SWAP6 SWAP3 SWAP5 PUSH1 0x1 PUSH1 0x1 PUSH1 0xA0 SHL SUB SWAP1 SWAP3 AND SWAP4 POP SWAP1 PUSH2 0x949 SWAP1 PUSH2 0x740B JUMP JUMPDEST DUP1 PUSH1 0x1F ADD PUSH1 0x20 DUP1 SWAP2 DIV MUL PUSH1 0x20 ADD PUSH1 0x40 MLOAD SWAP1 DUP2 ADD PUSH1 0x40 MSTORE DUP1 SWAP3 SWAP2 SWAP1 DUP2 DUP2 MSTORE PUSH1 0x20 ADD DUP3 DUP1 SLOAD PUSH2 0x975 SWAP1 PUSH2 0x740B JUMP JUMPDEST DUP1 ISZERO PUSH2 0x9C0 JUMPI DUP1 PUSH1 0x1F LT PUSH2 0x997 JUMPI PUSH2 0x100 DUP1 DUP4 SLOAD DIV MUL DUP4 MSTORE SWAP2 PUSH1 0x20 ADD SWAP2 PUSH2 0x9C0 JUMP JUMPDEST DUP3 ADD SWAP2 SWAP1 PUSH0 MSTORE PUSH1 0x20 PUSH0 KECCAK256 SWAP1 JUMPDEST DUP2 SLOAD DUP2 MSTORE SWAP1 PUSH1 0x1 ADD SWAP1 PUSH1 0x20 ADD DUP1 DUP4 GT PUSH2 0x9A3 JUMPI DUP3 SWAP1 SUB PUSH1 0x1F AND DUP3 ADD SWAP2 JUMPDEST POP POP POP POP PUSH1 0x5 DUP4 ADD SLOAD PUSH1 0x6 DUP5 ADD SLOAD PUSH1 0x7 DUP6 ADD SLOAD PUSH1 0x8 DUP7 ADD SLOAD PUSH1 0x9 DUP8 ADD SLOAD PUSH1 0xA DUP9 ADD DUP1 SLOAD SWAP8 SWAP9 PUSH1 0xFF DUP1 DUP9 AND SWAP10 PUSH2 0x100 SWAP1 SWAP9 DIV DUP2 AND SWAP9 POP SWAP6 SWAP7 SWAP5 SWAP6 SWAP4 SWAP5 SWAP4 SWAP1 SWAP3 AND SWAP3 PUSH2 0xA09 SWAP1 PUSH2 0x740B JUMP JUMPDEST DUP1 PUSH1 0x1F ADD PUSH1 0x20 DUP1 SWAP2 DIV MUL PUSH1 0x20 ADD PUSH1 0x40 MLOAD SWAP1 DUP2 ADD PUSH1 0x40 MSTORE DUP1 SWAP3 SWAP2 SWAP1 DUP2 DUP2 MSTORE PUSH1 0x20 ADD DUP3 DUP1 SLOAD PUSH2 0xA35 SWAP1 PUSH2 0x740B JUMP JUMPDEST DUP1 ISZERO PUSH2 0xA80 JUMPI DUP1 PUSH1 0x1F LT PUSH2 0xA57 JUMPI PUSH2 0x100 DUP1 DUP4 SLOAD DIV MUL DUP4 MSTORE SWAP2 PUSH1 0x20 ADD SWAP2 PUSH2 0xA80 JUMP JUMPDEST DUP3 ADD SWAP2 SWAP1 PUSH0 MSTORE PUSH1 0x20 PUSH0 KECCAK256 SWAP1 JUMPDEST DUP2 SLOAD DUP2 MSTORE SWAP1 PUSH1 0x1 ADD SWAP1 PUSH1 0x20 ADD DUP1 DUP4 GT PUSH2 0xA63 JUMPI DUP3 SWAP1 SUB PUSH1 0x1F AND DUP3 ADD SWAP2 JUMPDEST POP POP POP POP POP SWAP1 POP DUP13 JUMP JUMPDEST CALLER PUSH0 SWAP1 DUP2 MSTORE PUSH1 0x2 PUSH1 0x20 MSTORE PUSH1 0x40 SWAP1 KECCAK256 SLOAD PUSH1 0xFF AND PUSH2 0xAB8 JUMPI PUSH1 0x40 MLOAD PUSH3 0x461BCD PUSH1 0xE5 SHL DUP2 MSTORE PUSH1 0x4 ADD PUSH2 0x769 SWAP1 PUSH2 0x7443 JUMP JUMPDEST CALLER PUSH0 SWAP1 DUP2 MSTORE PUSH1 0x2 PUSH1 0x20 MSTORE PUSH1 0x40 SWAP1 KECCAK256 SLOAD PUSH1 0xFF AND ISZERO ISZERO PUSH1 0x1 EQ PUSH2 0xB1B JUMPI PUSH1 0x40 MLOAD PUSH3 0x461BCD PUSH1 0xE5 SHL DUP2 MSTORE PUSH1 0x20 PUSH1 0x4 DUP3 ADD MSTORE PUSH1 0x1B PUSH1 0x24 DUP3 ADD MSTORE PUSH32 0x526567756C61746F7220416363657373204E6F7420476976656E210000000000 PUSH1 0x44 DUP3 ADD MSTORE PUSH1 0x64 ADD PUSH2 0x769 JUMP JUMPDEST PUSH0 PUSH2 0xB25 DUP3 PUSH2 0x66FF JUMP JUMPDEST PUSH0 DUP2 DUP2 MSTORE PUSH1 0x4 PUSH1 0x20 DUP2 DUP2 MSTORE PUSH1 0x40 DUP1 DUP5 KECCAK256 DUP1 SLOAD DUP6 MSTORE PUSH1 0xF DUP4 MSTORE SWAP1 DUP5 KECCAK256 PUSH1 0x1 SWAP1 SSTORE DUP5 DUP5 MSTORE SWAP2 SWAP1 MSTORE SLOAD SWAP2 SWAP3 POP SWAP1 DUP3 SWAP1 SUB PUSH2 0x101D JUMPI PUSH0 DUP3 DUP2 MSTORE PUSH1 0x4 PUSH1 0x20 DUP2 SWAP1 MSTORE PUSH1 0x40 SWAP1 SWAP2 KECCAK256 ADD SLOAD PUSH1 0xFF AND ISZERO PUSH2 0xB88 JUMPI PUSH1 0x40 MLOAD PUSH3 0x461BCD PUSH1 0xE5 SHL DUP2 MSTORE PUSH1 0x4 ADD PUSH2 0x769 SWAP1 PUSH2 0x7489 JUMP JUMPDEST PUSH0 DUP3 DUP2 MSTORE PUSH1 0x4 PUSH1 0x20 SWAP1 DUP2 MSTORE PUSH1 0x40 DUP1 DUP4 KECCAK256 SLOAD DUP4 MSTORE PUSH1 0x13 DUP3 MSTORE DUP1 DUP4 KECCAK256 CALLER DUP5 MSTORE SWAP1 SWAP2 MSTORE SWAP1 KECCAK256 SLOAD PUSH1 0xFF AND ISZERO PUSH2 0xC07 JUMPI PUSH1 0x40 MLOAD PUSH3 0x461BCD PUSH1 0xE5 SHL DUP2 MSTORE PUSH1 0x20 PUSH1 0x4 DUP3 ADD MSTORE PUSH1 0x23 PUSH1 0x24 DUP3 ADD MSTORE PUSH32 0x416C726561647920617070726F76656420627920746869732062616E6B206164 PUSH1 0x44 DUP3 ADD MSTORE PUSH3 0x36B4B7 PUSH1 0xE9 SHL PUSH1 0x64 DUP3 ADD MSTORE PUSH1 0x84 ADD PUSH2 0x769 JUMP JUMPDEST PUSH0 DUP3 DUP2 MSTORE PUSH1 0x4 PUSH1 0x20 DUP2 DUP2 MSTORE PUSH1 0x40 DUP1 DUP5 KECCAK256 DUP1 SLOAD DUP6 MSTORE PUSH1 0x13 DUP4 MSTORE DUP2 DUP6 KECCAK256 CALLER DUP7 MSTORE DUP4 MSTORE SWAP1 DUP5 KECCAK256 DUP1 SLOAD PUSH1 0xFF NOT AND PUSH1 0x1 OR SWAP1 SSTORE DUP6 DUP5 MSTORE SWAP2 SWAP1 MSTORE PUSH1 0x5 ADD DUP1 SLOAD SWAP2 PUSH2 0xC4A DUP4 PUSH2 0x74D4 JUMP JUMPDEST SWAP1 SWAP2 SSTORE POP POP PUSH0 DUP3 DUP2 MSTORE PUSH1 0x4 PUSH1 0x20 SWAP1 DUP2 MSTORE PUSH1 0x40 DUP1 DUP4 KECCAK256 PUSH1 0x2 ADD SLOAD PUSH1 0x1 PUSH1 0x1 PUSH1 0xA0 SHL SUB AND DUP4 MSTORE PUSH1 0x5 SWAP2 DUP3 SWAP1 MSTORE DUP3 KECCAK256 ADD DUP1 SLOAD SWAP2 PUSH2 0xC83 DUP4 PUSH2 0x74D4 JUMP JUMPDEST SWAP1 SWAP2 SSTORE POP POP PUSH0 DUP3 DUP2 MSTORE PUSH1 0x4 PUSH1 0x20 MSTORE PUSH1 0x40 DUP2 KECCAK256 PUSH1 0x7 ADD DUP1 SLOAD SWAP2 PUSH2 0xCA4 DUP4 PUSH2 0x74D4 JUMP JUMPDEST SWAP1 SWAP2 SSTORE POP POP PUSH0 DUP3 DUP2 MSTORE PUSH1 0x4 PUSH1 0x20 SWAP1 DUP2 MSTORE PUSH1 0x40 DUP1 DUP4 KECCAK256 PUSH1 0x2 ADD SLOAD PUSH1 0x1 PUSH1 0x1 PUSH1 0xA0 SHL SUB AND DUP4 MSTORE PUSH1 0x5 SWAP1 SWAP2 MSTORE DUP2 KECCAK256 PUSH1 0x7 ADD DUP1 SLOAD SWAP2 PUSH2 0xCDE DUP4 PUSH2 0x74D4 JUMP JUMPDEST SWAP1 SWAP2 SSTORE POP POP PUSH0 DUP3 DUP2 MSTORE PUSH1 0x4 PUSH1 0x20 DUP2 DUP2 MSTORE PUSH1 0x40 DUP1 DUP5 KECCAK256 DUP1 DUP5 ADD DUP1 SLOAD PUSH1 0x1 PUSH1 0xFF NOT SWAP2 DUP3 AND DUP2 OR DUP4 SSTORE PUSH1 0x2 DUP5 ADD DUP1 SLOAD PUSH1 0x1 PUSH1 0x1 PUSH1 0xA0 SHL SUB SWAP1 DUP2 AND DUP11 MSTORE PUSH1 0x5 DUP1 DUP10 MSTORE DUP8 DUP12 KECCAK256 DUP11 ADD DUP1 SLOAD DUP7 AND DUP6 OR SWAP1 SSTORE DUP6 SLOAD PUSH2 0xFF00 NOT SWAP1 DUP2 AND SWAP1 SWAP7 SSTORE DUP3 SLOAD DUP3 AND DUP12 MSTORE DUP8 DUP12 KECCAK256 DUP11 ADD DUP1 SLOAD SWAP1 SWAP7 AND SWAP1 SWAP6 SSTORE DUP2 SLOAD DUP2 AND DUP11 MSTORE PUSH1 0x3 DUP9 MSTORE DUP7 DUP11 KECCAK256 DUP1 SLOAD DUP6 AND DUP5 OR SWAP1 SSTORE PUSH1 0x8 DUP1 DUP8 ADD DUP1 SLOAD DUP7 AND DUP6 OR SWAP1 SSTORE SWAP2 SLOAD AND DUP10 MSTORE SWAP3 DUP7 MSTORE DUP5 DUP9 KECCAK256 SWAP1 SWAP3 ADD DUP1 SLOAD SWAP1 SWAP2 AND DUP3 OR SWAP1 SSTORE DUP8 DUP7 MSTORE SWAP4 SWAP1 SWAP3 MSTORE MLOAD PUSH1 0x6 SWAP3 PUSH2 0xD97 SWAP3 ADD SWAP1 PUSH2 0x755B JUMP JUMPDEST SWAP1 DUP2 MSTORE PUSH1 0x40 DUP1 MLOAD SWAP2 DUP3 SWAP1 SUB PUSH1 0x20 SWAP1 DUP2 ADD SWAP1 SWAP3 KECCAK256 PUSH0 DUP7 DUP2 MSTORE PUSH1 0x4 DUP1 DUP6 MSTORE DUP4 DUP3 KECCAK256 DUP1 SLOAD DUP4 MSTORE PUSH1 0xF DUP7 MSTORE DUP5 DUP4 KECCAK256 SLOAD DUP4 MSTORE SWAP3 DUP6 MSTORE SWAP3 DUP2 KECCAK256 SWAP1 DUP8 SWAP1 MSTORE SWAP2 SWAP1 SWAP3 MSTORE PUSH1 0x2 DUP3 ADD SLOAD PUSH1 0x3 DUP3 ADD DUP1 SLOAD PUSH1 0x1 PUSH1 0x1 PUSH1 0xA0 SHL SUB NOT AND PUSH1 0x1 PUSH1 0x1 PUSH1 0xA0 SHL SUB SWAP1 SWAP3 AND SWAP2 SWAP1 SWAP2 OR SWAP1 SSTORE SWAP2 POP PUSH1 0x1 DUP1 DUP4 ADD SWAP2 PUSH2 0xE0B SWAP2 ADD DUP3 PUSH2 0x75B1 JUMP JUMPDEST POP PUSH0 DUP4 DUP2 MSTORE PUSH1 0x4 PUSH1 0x20 DUP2 DUP2 MSTORE PUSH1 0x40 DUP1 DUP5 KECCAK256 SLOAD PUSH1 0x2 DUP7 ADD DUP2 SWAP1 SSTORE DUP5 MSTORE PUSH1 0xF DUP3 MSTORE SWAP3 DUP4 SWAP1 KECCAK256 SLOAD DUP5 SSTORE DUP3 MLOAD DUP1 DUP5 ADD SWAP1 SWAP4 MSTORE PUSH1 0x5 DUP4 MSTORE PUSH5 0x20B236B4B7 PUSH1 0xD9 SHL SWAP1 DUP4 ADD MSTORE DUP3 ADD SWAP1 PUSH2 0xE57 SWAP1 DUP3 PUSH2 0x7685 JUMP JUMPDEST POP PUSH1 0x5 DUP1 DUP3 ADD DUP1 SLOAD PUSH2 0xFFFF NOT AND PUSH1 0x1 SWAP1 DUP2 OR SWAP1 SWAP2 SSTORE PUSH0 DUP6 DUP2 MSTORE PUSH1 0x4 PUSH1 0x20 MSTORE PUSH1 0x40 SWAP1 KECCAK256 SWAP2 DUP3 ADD SLOAD PUSH1 0x6 DUP1 DUP6 ADD SWAP2 SWAP1 SWAP2 SSTORE PUSH1 0x7 DUP4 ADD SLOAD PUSH1 0x8 DUP6 ADD SSTORE PUSH1 0x9 DUP5 ADD DUP1 SLOAD PUSH1 0xFF NOT AND SWAP1 SWAP3 OR SWAP1 SWAP2 SSTORE PUSH1 0xA DUP4 ADD SWAP2 PUSH2 0xEB0 SWAP2 ADD DUP3 PUSH2 0x75B1 JUMP JUMPDEST POP DUP1 PUSH1 0x7 PUSH1 0x4 PUSH0 DUP7 DUP2 MSTORE PUSH1 0x20 ADD SWAP1 DUP2 MSTORE PUSH1 0x20 ADD PUSH0 KECCAK256 PUSH1 0x1 ADD PUSH1 0x40 MLOAD PUSH2 0xED5 SWAP2 SWAP1 PUSH2 0x755B JUMP JUMPDEST SWAP1 DUP2 MSTORE PUSH1 0x40 DUP1 MLOAD PUSH1 0x20 SWAP3 DUP2 SWAP1 SUB DUP4 ADD SWAP1 KECCAK256 PUSH0 DUP8 DUP2 MSTORE PUSH1 0x4 DUP5 MSTORE DUP3 DUP2 KECCAK256 PUSH1 0x2 ADD SLOAD PUSH1 0x1 PUSH1 0x1 PUSH1 0xA0 SHL SUB AND DUP2 MSTORE SWAP3 MSTORE SWAP1 KECCAK256 DUP2 SLOAD DUP2 SSTORE PUSH1 0x1 DUP1 DUP3 ADD SWAP1 PUSH2 0xF1A SWAP1 DUP5 ADD DUP3 PUSH2 0x75B1 JUMP JUMPDEST POP PUSH1 0x2 DUP3 DUP2 ADD SLOAD SWAP1 DUP3 ADD SSTORE PUSH1 0x3 DUP1 DUP4 ADD SLOAD SWAP1 DUP3 ADD DUP1 SLOAD PUSH1 0x1 PUSH1 0x1 PUSH1 0xA0 SHL SUB NOT AND PUSH1 0x1 PUSH1 0x1 PUSH1 0xA0 SHL SUB SWAP1 SWAP3 AND SWAP2 SWAP1 SWAP2 OR SWAP1 SSTORE PUSH1 0x4 DUP1 DUP3 ADD SWAP1 PUSH2 0xF5D SWAP1 DUP5 ADD DUP3 PUSH2 0x75B1 JUMP JUMPDEST POP PUSH1 0x5 DUP3 DUP2 ADD DUP1 SLOAD SWAP2 DUP4 ADD DUP1 SLOAD PUSH1 0xFF SWAP4 DUP5 AND ISZERO ISZERO PUSH1 0xFF NOT DUP1 DUP4 AND DUP3 OR DUP5 SSTORE SWAP4 SLOAD PUSH2 0x100 SWAP1 DUP2 SWAP1 DIV DUP7 AND ISZERO ISZERO MUL PUSH2 0xFF00 NOT SWAP1 SWAP2 AND PUSH2 0xFFFF NOT SWAP1 SWAP3 AND SWAP2 SWAP1 SWAP2 OR OR SWAP1 SSTORE PUSH1 0x6 DUP1 DUP6 ADD SLOAD SWAP1 DUP5 ADD SSTORE PUSH1 0x7 DUP1 DUP6 ADD SLOAD SWAP1 DUP5 ADD SSTORE PUSH1 0x8 DUP1 DUP6 ADD SLOAD SWAP1 DUP5 ADD SSTORE PUSH1 0x9 DUP1 DUP6 ADD SLOAD SWAP1 DUP5 ADD DUP1 SLOAD SWAP2 SWAP1 SWAP4 AND ISZERO ISZERO SWAP2 AND OR SWAP1 SSTORE PUSH1 0xA DUP1 DUP3 ADD SWAP1 PUSH2 0xFE4 SWAP1 DUP5 ADD DUP3 PUSH2 0x75B1 JUMP JUMPDEST POP POP POP PUSH0 DUP4 DUP2 MSTORE PUSH1 0x4 PUSH1 0x20 SWAP1 DUP2 MSTORE PUSH1 0x40 DUP1 DUP4 KECCAK256 PUSH1 0x2 ADD SLOAD PUSH1 0x1 PUSH1 0x1 PUSH1 0xA0 SHL SUB AND DUP4 MSTORE PUSH1 0x1 SWAP2 DUP3 SWAP1 MSTORE SWAP1 SWAP2 KECCAK256 DUP1 SLOAD PUSH1 0xFF NOT AND DUP3 OR SWAP1 SSTORE SWAP2 POP POP JUMPDEST DUP1 PUSH2 0x107C JUMPI PUSH1 0x40 MLOAD PUSH3 0x461BCD PUSH1 0xE5 SHL DUP2 MSTORE PUSH1 0x20 PUSH1 0x4 DUP3 ADD MSTORE PUSH1 0x29 PUSH1 0x24 DUP3 ADD MSTORE PUSH32 0x4E6F20726F6C65207265717565737420666F756E6420666F7220746865207072 PUSH1 0x44 DUP3 ADD MSTORE PUSH9 0x1BDD9A591959081251 PUSH1 0xBA SHL PUSH1 0x64 DUP3 ADD MSTORE PUSH1 0x84 ADD PUSH2 0x769 JUMP JUMPDEST POP POP POP JUMP JUMPDEST CALLER PUSH0 SWAP1 DUP2 MSTORE PUSH1 0x1 PUSH1 0x20 MSTORE PUSH1 0x40 SWAP1 KECCAK256 SLOAD PUSH1 0xFF AND PUSH2 0x10AF JUMPI PUSH1 0x40 MLOAD PUSH3 0x461BCD PUSH1 0xE5 SHL DUP2 MSTORE PUSH1 0x4 ADD PUSH2 0x769 SWAP1 PUSH2 0x7738 JUMP JUMPDEST CALLER PUSH0 SWAP1 DUP2 MSTORE PUSH1 0x1B PUSH1 0x20 MSTORE PUSH1 0x40 SWAP1 DUP2 SWAP1 KECCAK256 SWAP1 MLOAD PUSH2 0x10CC SWAP1 DUP8 SWAP1 PUSH2 0x777F JUMP JUMPDEST SWAP1 DUP2 MSTORE PUSH1 0x40 DUP1 MLOAD PUSH1 0x20 SWAP3 DUP2 SWAP1 SUB DUP4 ADD SWAP1 KECCAK256 PUSH0 DUP8 DUP2 MSTORE SWAP3 MSTORE SWAP1 KECCAK256 SLOAD PUSH1 0xFF AND ISZERO PUSH2 0x1132 JUMPI PUSH1 0x40 MLOAD PUSH3 0x461BCD PUSH1 0xE5 SHL DUP2 MSTORE PUSH1 0x20 PUSH1 0x4 DUP3 ADD MSTORE PUSH1 0x19 PUSH1 0x24 DUP3 ADD MSTORE PUSH25 0x5265717565737420416C726561647920417070726F76656421 PUSH1 0x38 SHL PUSH1 0x44 DUP3 ADD MSTORE PUSH1 0x64 ADD PUSH2 0x769 JUMP JUMPDEST PUSH0 PUSH2 0x113E PUSH1 0x2 DUP6 PUSH2 0x7795 JUMP JUMPDEST SWAP1 POP PUSH0 PUSH1 0x1 JUMPDEST PUSH1 0xC DUP9 PUSH1 0x40 MLOAD PUSH2 0x1154 SWAP2 SWAP1 PUSH2 0x777F JUMP JUMPDEST SWAP1 DUP2 MSTORE PUSH1 0x20 ADD PUSH1 0x40 MLOAD DUP1 SWAP2 SUB SWAP1 KECCAK256 SLOAD DUP2 GT PUSH2 0x159A JUMPI DUP7 PUSH1 0xB DUP10 PUSH1 0x40 MLOAD PUSH2 0x117A SWAP2 SWAP1 PUSH2 0x777F JUMP JUMPDEST SWAP1 DUP2 MSTORE PUSH1 0x20 ADD PUSH1 0x40 MLOAD DUP1 SWAP2 SUB SWAP1 KECCAK256 PUSH0 DUP4 DUP2 MSTORE PUSH1 0x20 ADD SWAP1 DUP2 MSTORE PUSH1 0x20 ADD PUSH0 KECCAK256 PUSH1 0x2 ADD SLOAD SUB PUSH2 0x1588 JUMPI PUSH1 0xB DUP9 PUSH1 0x40 MLOAD PUSH2 0x11B0 SWAP2 SWAP1 PUSH2 0x777F JUMP JUMPDEST SWAP1 DUP2 MSTORE PUSH1 0x40 DUP1 MLOAD PUSH1 0x20 SWAP3 DUP2 SWAP1 SUB DUP4 ADD SWAP1 KECCAK256 PUSH0 DUP5 DUP2 MSTORE SWAP3 MSTORE SWAP1 KECCAK256 PUSH1 0x5 ADD SLOAD PUSH1 0xFF AND ISZERO PUSH2 0x11ED JUMPI PUSH1 0x40 MLOAD PUSH3 0x461BCD PUSH1 0xE5 SHL DUP2 MSTORE PUSH1 0x4 ADD PUSH2 0x769 SWAP1 PUSH2 0x7489 JUMP JUMPDEST PUSH1 0xB DUP9 PUSH1 0x40 MLOAD PUSH2 0x11FD SWAP2 SWAP1 PUSH2 0x777F JUMP JUMPDEST SWAP1 DUP2 MSTORE PUSH1 0x40 DUP1 MLOAD PUSH1 0x20 SWAP3 DUP2 SWAP1 SUB DUP4 ADD SWAP1 KECCAK256 PUSH0 DUP5 DUP2 MSTORE SWAP3 MSTORE SWAP1 KECCAK256 PUSH1 0x5 ADD SLOAD PUSH2 0x100 SWAP1 DIV PUSH1 0xFF AND ISZERO PUSH2 0x126F JUMPI PUSH1 0x40 MLOAD PUSH3 0x461BCD PUSH1 0xE5 SHL DUP2 MSTORE PUSH1 0x20 PUSH1 0x4 DUP3 ADD MSTORE PUSH1 0x18 PUSH1 0x24 DUP3 ADD MSTORE PUSH32 0x5265717565737420616C72656164792072656A65637465640000000000000000 PUSH1 0x44 DUP3 ADD MSTORE PUSH1 0x64 ADD PUSH2 0x769 JUMP JUMPDEST PUSH1 0xB DUP9 PUSH1 0x40 MLOAD PUSH2 0x127F SWAP2 SWAP1 PUSH2 0x777F JUMP JUMPDEST SWAP1 DUP2 MSTORE PUSH1 0x40 DUP1 MLOAD PUSH1 0x20 SWAP3 DUP2 SWAP1 SUB DUP4 ADD SWAP1 KECCAK256 PUSH0 DUP5 DUP2 MSTORE SWAP3 MSTORE DUP2 KECCAK256 PUSH1 0x6 ADD DUP1 SLOAD SWAP2 PUSH2 0x12A7 DUP4 PUSH2 0x74D4 JUMP JUMPDEST SWAP2 SWAP1 POP SSTORE POP PUSH1 0xB DUP9 PUSH1 0x40 MLOAD PUSH2 0x12BC SWAP2 SWAP1 PUSH2 0x777F JUMP JUMPDEST SWAP1 DUP2 MSTORE PUSH1 0x40 DUP1 MLOAD PUSH1 0x20 SWAP3 DUP2 SWAP1 SUB DUP4 ADD SWAP1 KECCAK256 PUSH0 DUP5 DUP2 MSTORE SWAP3 MSTORE DUP2 KECCAK256 PUSH1 0x8 ADD DUP1 SLOAD SWAP2 PUSH2 0x12E4 DUP4 PUSH2 0x74D4 JUMP JUMPDEST SWAP2 SWAP1 POP SSTORE POP PUSH1 0x8 DUP9 PUSH1 0x40 MLOAD PUSH2 0x12F9 SWAP2 SWAP1 PUSH2 0x777F JUMP JUMPDEST SWAP1 DUP2 MSTORE PUSH1 0x40 DUP1 MLOAD PUSH1 0x20 SWAP3 DUP2 SWAP1 SUB DUP4 ADD SWAP1 KECCAK256 PUSH1 0x1 PUSH1 0x1 PUSH1 0xA0 SHL SUB DUP9 AND PUSH0 SWAP1 DUP2 MSTORE SWAP3 MSTORE DUP2 KECCAK256 PUSH1 0x6 ADD DUP1 SLOAD SWAP2 PUSH2 0x132B DUP4 PUSH2 0x74D4 JUMP JUMPDEST SWAP2 SWAP1 POP SSTORE POP PUSH1 0x8 DUP9 PUSH1 0x40 MLOAD PUSH2 0x1340 SWAP2 SWAP1 PUSH2 0x777F JUMP JUMPDEST SWAP1 DUP2 MSTORE PUSH1 0x40 DUP1 MLOAD PUSH1 0x20 SWAP3 DUP2 SWAP1 SUB DUP4 ADD SWAP1 KECCAK256 PUSH1 0x1 PUSH1 0x1 PUSH1 0xA0 SHL SUB DUP9 AND PUSH0 SWAP1 DUP2 MSTORE SWAP3 MSTORE DUP2 KECCAK256 PUSH1 0x6 ADD DUP1 SLOAD SWAP2 PUSH2 0x1372 DUP4 PUSH2 0x74D4 JUMP JUMPDEST SWAP1 SWAP2 SSTORE POP PUSH2 0x1383 SWAP1 POP DUP4 PUSH1 0x1 PUSH2 0x77B4 JUMP JUMPDEST PUSH1 0xB DUP10 PUSH1 0x40 MLOAD PUSH2 0x1393 SWAP2 SWAP1 PUSH2 0x777F JUMP JUMPDEST SWAP1 DUP2 MSTORE PUSH1 0x20 ADD PUSH1 0x40 MLOAD DUP1 SWAP2 SUB SWAP1 KECCAK256 PUSH0 DUP4 DUP2 MSTORE PUSH1 0x20 ADD SWAP1 DUP2 MSTORE PUSH1 0x20 ADD PUSH0 KECCAK256 PUSH1 0x6 ADD SLOAD LT PUSH2 0x153A JUMPI PUSH1 0x1 PUSH1 0xB DUP10 PUSH1 0x40 MLOAD PUSH2 0x13CB SWAP2 SWAP1 PUSH2 0x777F JUMP JUMPDEST SWAP1 DUP2 MSTORE PUSH1 0x40 DUP1 MLOAD PUSH1 0x20 SWAP3 DUP2 SWAP1 SUB DUP4 ADD DUP2 KECCAK256 PUSH0 DUP7 DUP2 MSTORE SWAP4 MSTORE SWAP1 DUP3 KECCAK256 PUSH1 0x5 ADD DUP1 SLOAD PUSH1 0xFF NOT AND SWAP4 ISZERO ISZERO SWAP4 SWAP1 SWAP4 OR SWAP1 SWAP3 SSTORE SWAP1 PUSH1 0xB SWAP1 PUSH2 0x1407 SWAP1 DUP12 SWAP1 PUSH2 0x777F JUMP JUMPDEST SWAP1 DUP2 MSTORE PUSH1 0x40 DUP1 MLOAD SWAP2 DUP3 SWAP1 SUB PUSH1 0x20 SWAP1 DUP2 ADD DUP4 KECCAK256 PUSH0 DUP7 DUP2 MSTORE SWAP2 MSTORE KECCAK256 PUSH1 0x5 ADD DUP1 SLOAD SWAP3 ISZERO ISZERO PUSH2 0x100 MUL PUSH2 0xFF00 NOT SWAP1 SWAP4 AND SWAP3 SWAP1 SWAP3 OR SWAP1 SWAP2 SSTORE PUSH1 0x1 SWAP1 PUSH1 0x8 SWAP1 PUSH2 0x144B SWAP1 DUP12 SWAP1 PUSH2 0x777F JUMP JUMPDEST SWAP1 DUP2 MSTORE PUSH1 0x40 DUP1 MLOAD PUSH1 0x20 SWAP3 DUP2 SWAP1 SUB DUP4 ADD DUP2 KECCAK256 PUSH1 0x1 PUSH1 0x1 PUSH1 0xA0 SHL SUB DUP11 AND PUSH0 SWAP1 DUP2 MSTORE SWAP4 MSTORE SWAP1 DUP3 KECCAK256 PUSH1 0x5 ADD DUP1 SLOAD PUSH1 0xFF NOT AND SWAP4 ISZERO ISZERO SWAP4 SWAP1 SWAP4 OR SWAP1 SWAP3 SSTORE SWAP1 PUSH1 0x8 SWAP1 PUSH2 0x1491 SWAP1 DUP12 SWAP1 PUSH2 0x777F JUMP JUMPDEST SWAP1 DUP2 MSTORE PUSH1 0x40 DUP1 MLOAD SWAP2 DUP3 SWAP1 SUB PUSH1 0x20 SWAP1 DUP2 ADD DUP4 KECCAK256 PUSH1 0x1 PUSH1 0x1 PUSH1 0xA0 SHL SUB DUP11 AND PUSH0 SWAP1 DUP2 MSTORE SWAP1 DUP3 MSTORE DUP3 DUP2 KECCAK256 PUSH1 0x5 ADD DUP1 SLOAD SWAP6 ISZERO ISZERO PUSH2 0x100 MUL PUSH2 0xFF00 NOT SWAP1 SWAP7 AND SWAP6 SWAP1 SWAP6 OR SWAP1 SWAP5 SSTORE CALLER DUP5 MSTORE PUSH1 0x1B SWAP1 MSTORE SWAP1 SWAP2 KECCAK256 PUSH1 0x1 SWAP2 PUSH2 0x14E9 SWAP1 DUP12 SWAP1 PUSH2 0x777F JUMP JUMPDEST SWAP1 DUP2 MSTORE PUSH1 0x40 DUP1 MLOAD PUSH1 0x20 SWAP3 DUP2 SWAP1 SUB DUP4 ADD DUP2 KECCAK256 PUSH0 DUP13 DUP2 MSTORE SWAP4 MSTORE SWAP1 DUP3 KECCAK256 DUP1 SLOAD PUSH1 0xFF NOT AND SWAP4 ISZERO ISZERO SWAP4 SWAP1 SWAP4 OR SWAP1 SWAP3 SSTORE DUP3 SWAP2 PUSH32 0x88885B2F2823F4219C9FF8E3098695F6FEDA59A4BE9EB4B5F5DBC104A8E9C217 SWAP2 SWAP1 LOG2 JUMPDEST PUSH1 0x1 SWAP2 POP PUSH1 0x19 DUP9 PUSH1 0x40 MLOAD PUSH2 0x154E SWAP2 SWAP1 PUSH2 0x777F JUMP JUMPDEST SWAP1 DUP2 MSTORE PUSH1 0x40 DUP1 MLOAD PUSH1 0x20 SWAP3 DUP2 SWAP1 SUB DUP4 ADD SWAP1 KECCAK256 PUSH0 DUP5 DUP2 MSTORE SWAP1 DUP4 MSTORE SWAP1 DUP2 KECCAK256 DUP1 SLOAD PUSH1 0x1 DUP2 ADD DUP3 SSTORE SWAP1 DUP3 MSTORE SWAP2 SWAP1 KECCAK256 ADD PUSH2 0x1582 DUP6 DUP3 PUSH2 0x7685 JUMP JUMPDEST POP PUSH2 0x159A JUMP JUMPDEST DUP1 PUSH2 0x1592 DUP2 PUSH2 0x74D4 JUMP JUMPDEST SWAP2 POP POP PUSH2 0x1144 JUMP JUMPDEST POP DUP1 PUSH2 0x15B8 JUMPI PUSH1 0x40 MLOAD PUSH3 0x461BCD PUSH1 0xE5 SHL DUP2 MSTORE PUSH1 0x4 ADD PUSH2 0x769 SWAP1 PUSH2 0x77C7 JUMP JUMPDEST POP POP POP POP POP POP POP JUMP JUMPDEST PUSH1 0x10 DUP2 DUP2 SLOAD DUP2 LT PUSH2 0x15D0 JUMPI PUSH0 DUP1 REVERT JUMPDEST PUSH0 SWAP2 DUP3 MSTORE PUSH1 0x20 SWAP1 SWAP2 KECCAK256 ADD SLOAD PUSH1 0x1 PUSH1 0x1 PUSH1 0xA0 SHL SUB AND SWAP1 POP DUP2 JUMP JUMPDEST PUSH0 PUSH2 0x15F3 DUP4 PUSH2 0x66FF JUMP JUMPDEST PUSH0 DUP2 DUP2 MSTORE PUSH1 0xF PUSH1 0x20 MSTORE PUSH1 0x40 DUP2 KECCAK256 DUP1 SLOAD SWAP3 SWAP4 POP SWAP1 PUSH2 0x160F DUP4 PUSH2 0x74D4 JUMP JUMPDEST SWAP1 SWAP2 SSTORE POP PUSH1 0x1 SWAP1 POP JUMPDEST PUSH0 DUP3 DUP2 MSTORE PUSH1 0xF PUSH1 0x20 MSTORE PUSH1 0x40 SWAP1 KECCAK256 SLOAD DUP2 GT PUSH2 0x171F JUMPI CALLER PUSH1 0x1 PUSH1 0x1 PUSH1 0xA0 SHL SUB AND PUSH1 0x6 DUP7 PUSH1 0x40 MLOAD PUSH2 0x1646 SWAP2 SWAP1 PUSH2 0x777F JUMP JUMPDEST SWAP1 DUP2 MSTORE PUSH1 0x40 DUP1 MLOAD PUSH1 0x20 SWAP3 DUP2 SWAP1 SUB DUP4 ADD SWAP1 KECCAK256 PUSH0 DUP6 DUP2 MSTORE SWAP3 MSTORE SWAP1 KECCAK256 PUSH1 0x3 ADD SLOAD PUSH1 0x1 PUSH1 0x1 PUSH1 0xA0 SHL SUB AND EQ ISZERO DUP1 PUSH2 0x16B0 JUMPI POP PUSH1 0x6 DUP6 PUSH1 0x40 MLOAD PUSH2 0x1684 SWAP2 SWAP1 PUSH2 0x777F JUMP JUMPDEST SWAP1 DUP2 MSTORE PUSH1 0x40 DUP1 MLOAD PUSH1 0x20 SWAP3 DUP2 SWAP1 SUB DUP4 ADD SWAP1 KECCAK256 PUSH0 DUP5 DUP2 MSTORE SWAP3 MSTORE SWAP1 KECCAK256 PUSH1 0x5 ADD SLOAD PUSH1 0x1 PUSH2 0x100 SWAP1 SWAP2 DIV PUSH1 0xFF AND ISZERO ISZERO EQ JUMPDEST PUSH2 0x170D JUMPI PUSH1 0x40 MLOAD PUSH3 0x461BCD PUSH1 0xE5 SHL DUP2 MSTORE PUSH1 0x20 PUSH1 0x4 DUP3 ADD MSTORE PUSH1 0x28 PUSH1 0x24 DUP3 ADD MSTORE PUSH32 0x41646D696E205265717565737420416C72656164792053656E74206279205468 PUSH1 0x44 DUP3 ADD MSTORE PUSH8 0x6973205573657221 PUSH1 0xC0 SHL PUSH1 0x64 DUP3 ADD MSTORE PUSH1 0x84 ADD PUSH2 0x769 JUMP JUMPDEST DUP1 PUSH2 0x1717 DUP2 PUSH2 0x74D4 JUMP JUMPDEST SWAP2 POP POP PUSH2 0x1618 JUMP JUMPDEST POP PUSH1 0x14 SLOAD CALLER PUSH1 0x1 PUSH1 0x1 PUSH1 0xA0 SHL SUB SWAP1 SWAP2 AND SUB PUSH2 0x177C JUMPI PUSH1 0x40 MLOAD PUSH3 0x461BCD PUSH1 0xE5 SHL DUP2 MSTORE PUSH1 0x20 PUSH1 0x4 DUP3 ADD MSTORE PUSH1 0x1F PUSH1 0x24 DUP3 ADD MSTORE PUSH32 0x4F776E65722063616E206E6F742062652066726F6D207468652062616E6B2100 PUSH1 0x44 DUP3 ADD MSTORE PUSH1 0x64 ADD PUSH2 0x769 JUMP JUMPDEST CALLER PUSH0 SWAP1 DUP2 MSTORE PUSH1 0x17 PUSH1 0x20 MSTORE PUSH1 0x40 SWAP1 DUP2 SWAP1 KECCAK256 SWAP1 MLOAD PUSH2 0x1799 SWAP1 DUP7 SWAP1 PUSH2 0x777F JUMP JUMPDEST SWAP1 DUP2 MSTORE PUSH1 0x40 MLOAD SWAP1 DUP2 SWAP1 SUB PUSH1 0x20 ADD SWAP1 KECCAK256 SLOAD PUSH1 0xFF AND ISZERO PUSH2 0x17F9 JUMPI PUSH1 0x40 MLOAD PUSH3 0x461BCD PUSH1 0xE5 SHL DUP2 MSTORE PUSH1 0x20 PUSH1 0x4 DUP3 ADD MSTORE PUSH1 0x1F PUSH1 0x24 DUP3 ADD MSTORE PUSH32 0x557365722068617320616C7265616479206265656E20417070726F7665642100 PUSH1 0x44 DUP3 ADD MSTORE PUSH1 0x64 ADD PUSH2 0x769 JUMP JUMPDEST CALLER PUSH0 SWAP1 DUP2 MSTORE PUSH1 0x18 PUSH1 0x20 MSTORE PUSH1 0x40 SWAP1 DUP2 SWAP1 KECCAK256 SWAP1 MLOAD PUSH2 0x1816 SWAP1 DUP7 SWAP1 PUSH2 0x777F JUMP JUMPDEST SWAP1 DUP2 MSTORE PUSH1 0x40 MLOAD SWAP1 DUP2 SWAP1 SUB PUSH1 0x20 ADD SWAP1 KECCAK256 SLOAD PUSH1 0xFF AND ISZERO PUSH2 0x1876 JUMPI PUSH1 0x40 MLOAD PUSH3 0x461BCD PUSH1 0xE5 SHL DUP2 MSTORE PUSH1 0x20 PUSH1 0x4 DUP3 ADD MSTORE PUSH1 0x1F PUSH1 0x24 DUP3 ADD MSTORE PUSH32 0x557365722068617320616C7265616479206265656E2052656A65637465642100 PUSH1 0x44 DUP3 ADD MSTORE PUSH1 0x64 ADD PUSH2 0x769 JUMP JUMPDEST CALLER PUSH0 SWAP1 DUP2 MSTORE PUSH1 0x16 PUSH1 0x20 MSTORE PUSH1 0x40 SWAP1 DUP2 SWAP1 KECCAK256 SWAP1 MLOAD PUSH2 0x1893 SWAP1 DUP7 SWAP1 PUSH2 0x777F JUMP JUMPDEST SWAP1 DUP2 MSTORE PUSH1 0x40 MLOAD SWAP1 DUP2 SWAP1 SUB PUSH1 0x20 ADD SWAP1 KECCAK256 SLOAD PUSH1 0xFF AND ISZERO PUSH2 0x18EA JUMPI PUSH1 0x40 MLOAD PUSH3 0x461BCD PUSH1 0xE5 SHL DUP2 MSTORE PUSH1 0x20 PUSH1 0x4 DUP3 ADD MSTORE PUSH1 0x14 PUSH1 0x24 DUP3 ADD MSTORE PUSH20 0x14995C5D595CDD08105B1C9958591E4814D95B9D PUSH1 0x62 SHL PUSH1 0x44 DUP3 ADD MSTORE PUSH1 0x64 ADD PUSH2 0x769 JUMP JUMPDEST CALLER PUSH0 SWAP1 DUP2 MSTORE PUSH1 0x12 PUSH1 0x20 MSTORE PUSH1 0x40 SWAP1 KECCAK256 SLOAD PUSH1 0xFF AND ISZERO PUSH2 0x1949 JUMPI PUSH1 0x40 MLOAD PUSH3 0x461BCD PUSH1 0xE5 SHL DUP2 MSTORE PUSH1 0x20 PUSH1 0x4 DUP3 ADD MSTORE PUSH1 0x1F PUSH1 0x24 DUP3 ADD MSTORE PUSH32 0x526567756C61746F722063616E6E6F742072657175657374206120726F6C6500 PUSH1 0x44 DUP3 ADD MSTORE PUSH1 0x64 ADD PUSH2 0x769 JUMP JUMPDEST CALLER PUSH0 SWAP1 DUP2 MSTORE PUSH1 0x2 PUSH1 0x20 MSTORE PUSH1 0x40 SWAP1 KECCAK256 SLOAD PUSH1 0xFF AND ISZERO PUSH2 0x19B7 JUMPI PUSH1 0x40 MLOAD PUSH3 0x461BCD PUSH1 0xE5 SHL DUP2 MSTORE PUSH1 0x20 PUSH1 0x4 DUP3 ADD MSTORE PUSH1 0x26 PUSH1 0x24 DUP3 ADD MSTORE PUSH32 0x526567756C61746F72732063616E6E6F74207265717565737420612061646D69 PUSH1 0x44 DUP3 ADD MSTORE PUSH6 0x6E20726F6C65 PUSH1 0xD0 SHL PUSH1 0x64 DUP3 ADD MSTORE PUSH1 0x84 ADD PUSH2 0x769 JUMP JUMPDEST DUP5 MLOAD PUSH1 0x20 DUP7 ADD KECCAK256 PUSH32 0xA729EF4E25027BC652FC8B5C4D1D902947361FA7C8E7B4905E877823F27331B3 EQ PUSH2 0x1A28 JUMPI PUSH1 0x40 MLOAD PUSH3 0x461BCD PUSH1 0xE5 SHL DUP2 MSTORE PUSH1 0x20 PUSH1 0x4 DUP3 ADD MSTORE PUSH1 0x19 PUSH1 0x24 DUP3 ADD MSTORE PUSH25 0x496E76616C696420726F6C6520726571756573742074797065 PUSH1 0x38 SHL PUSH1 0x44 DUP3 ADD MSTORE PUSH1 0x64 ADD PUSH2 0x769 JUMP JUMPDEST PUSH0 DUP6 MLOAD GT PUSH2 0x1A74 JUMPI PUSH1 0x40 MLOAD PUSH3 0x461BCD PUSH1 0xE5 SHL DUP2 MSTORE PUSH1 0x20 PUSH1 0x4 DUP3 ADD MSTORE PUSH1 0x19 PUSH1 0x24 DUP3 ADD MSTORE PUSH25 0x526F6C6520747970652063616E6E6F7420626520656D707479 PUSH1 0x38 SHL PUSH1 0x44 DUP3 ADD MSTORE PUSH1 0x64 ADD PUSH2 0x769 JUMP JUMPDEST CALLER PUSH1 0x1 PUSH1 0x1 PUSH1 0xA0 SHL SUB AND PUSH1 0x6 DUP6 PUSH1 0x40 MLOAD PUSH2 0x1A8E SWAP2 SWAP1 PUSH2 0x777F JUMP JUMPDEST SWAP1 DUP2 MSTORE PUSH1 0x40 DUP1 MLOAD PUSH1 0x20 SWAP3 DUP2 SWAP1 SUB DUP4 ADD SWAP1 KECCAK256 PUSH0 DUP6 DUP2 MSTORE PUSH1 0xF DUP5 MSTORE DUP3 DUP2 KECCAK256 SLOAD DUP2 MSTORE SWAP3 MSTORE SWAP1 KECCAK256 PUSH1 0x3 ADD SLOAD PUSH1 0x1 PUSH1 0x1 PUSH1 0xA0 SHL SUB AND EQ ISZERO DUP1 PUSH2 0x1B1B JUMPI POP DUP5 DUP1 MLOAD SWAP1 PUSH1 0x20 ADD KECCAK256 PUSH1 0x6 DUP6 PUSH1 0x40 MLOAD PUSH2 0x1ADE SWAP2 SWAP1 PUSH2 0x777F JUMP JUMPDEST SWAP1 DUP2 MSTORE PUSH1 0x40 DUP1 MLOAD SWAP2 DUP3 SWAP1 SUB PUSH1 0x20 SWAP1 DUP2 ADD DUP4 KECCAK256 PUSH0 DUP7 DUP2 MSTORE PUSH1 0xF DUP4 MSTORE DUP4 DUP2 KECCAK256 SLOAD DUP2 MSTORE SWAP2 MSTORE KECCAK256 PUSH2 0x1B10 SWAP2 PUSH1 0x4 SWAP1 SWAP2 ADD SWAP1 PUSH2 0x755B JUMP JUMPDEST PUSH1 0x40 MLOAD DUP1 SWAP2 SUB SWAP1 KECCAK256 EQ ISZERO JUMPDEST PUSH2 0x1B37 JUMPI PUSH1 0x40 MLOAD PUSH3 0x461BCD PUSH1 0xE5 SHL DUP2 MSTORE PUSH1 0x4 ADD PUSH2 0x769 SWAP1 PUSH2 0x7819 JUMP JUMPDEST PUSH0 PUSH1 0x6 DUP6 PUSH1 0x40 MLOAD PUSH2 0x1B48 SWAP2 SWAP1 PUSH2 0x777F JUMP JUMPDEST SWAP1 DUP2 MSTORE PUSH1 0x40 DUP1 MLOAD SWAP2 DUP3 SWAP1 SUB PUSH1 0x20 SWAP1 DUP2 ADD SWAP1 SWAP3 KECCAK256 PUSH0 DUP6 DUP2 MSTORE PUSH1 0xF DUP5 MSTORE DUP3 DUP2 KECCAK256 SLOAD DUP2 MSTORE SWAP3 MSTORE SWAP1 KECCAK256 PUSH1 0x3 DUP2 ADD DUP1 SLOAD PUSH1 0x1 PUSH1 0x1 PUSH1 0xA0 SHL SUB NOT AND CALLER OR SWAP1 SSTORE SWAP1 POP PUSH1 0x1 DUP2 ADD PUSH2 0x1B91 DUP7 DUP3 PUSH2 0x7685 JUMP JUMPDEST POP PUSH1 0x2 DUP2 ADD DUP3 SWAP1 SSTORE PUSH0 DUP3 DUP2 MSTORE PUSH1 0xF PUSH1 0x20 MSTORE PUSH1 0x40 SWAP1 KECCAK256 SLOAD DUP2 SSTORE PUSH1 0x4 DUP2 ADD PUSH2 0x1BB7 DUP8 DUP3 PUSH2 0x7685 JUMP JUMPDEST POP PUSH1 0x5 DUP2 ADD DUP1 SLOAD PUSH2 0xFFFF NOT AND SWAP1 SSTORE PUSH0 PUSH1 0x6 DUP3 ADD DUP2 SWAP1 SSTORE PUSH1 0x7 DUP3 ADD DUP2 SWAP1 SSTORE PUSH1 0x8 DUP3 ADD SSTORE PUSH1 0x9 DUP2 ADD DUP1 SLOAD PUSH1 0xFF NOT AND SWAP1 SSTORE PUSH1 0xA DUP2 ADD PUSH2 0x1BF3 DUP5 DUP3 PUSH2 0x7685 JUMP JUMPDEST POP DUP1 PUSH1 0x7 DUP7 PUSH1 0x40 MLOAD PUSH2 0x1C05 SWAP2 SWAP1 PUSH2 0x777F JUMP JUMPDEST SWAP1 DUP2 MSTORE PUSH1 0x40 DUP1 MLOAD PUSH1 0x20 SWAP3 DUP2 SWAP1 SUB DUP4 ADD SWAP1 KECCAK256 CALLER PUSH0 SWAP1 DUP2 MSTORE SWAP3 MSTORE SWAP1 KECCAK256 DUP2 SLOAD DUP2 SSTORE PUSH1 0x1 DUP1 DUP3 ADD SWAP1 PUSH2 0x1C35 SWAP1 DUP5 ADD DUP3 PUSH2 0x75B1 JUMP JUMPDEST POP PUSH1 0x2 DUP3 DUP2 ADD SLOAD SWAP1 DUP3 ADD SSTORE PUSH1 0x3 DUP1 DUP4 ADD SLOAD SWAP1 DUP3 ADD DUP1 SLOAD PUSH1 0x1 PUSH1 0x1 PUSH1 0xA0 SHL SUB NOT AND PUSH1 0x1 PUSH1 0x1 PUSH1 0xA0 SHL SUB SWAP1 SWAP3 AND SWAP2 SWAP1 SWAP2 OR SWAP1 SSTORE PUSH1 0x4 DUP1 DUP3 ADD SWAP1 PUSH2 0x1C78 SWAP1 DUP5 ADD DUP3 PUSH2 0x75B1 JUMP JUMPDEST POP PUSH1 0x5 DUP3 DUP2 ADD DUP1 SLOAD SWAP2 DUP4 ADD DUP1 SLOAD PUSH1 0xFF SWAP4 DUP5 AND ISZERO ISZERO PUSH1 0xFF NOT DUP1 DUP4 AND DUP3 OR DUP5 SSTORE SWAP4 SLOAD PUSH2 0x100 SWAP1 DUP2 SWAP1 DIV DUP7 AND ISZERO ISZERO MUL PUSH2 0xFF00 NOT SWAP1 SWAP2 AND PUSH2 0xFFFF NOT SWAP1 SWAP3 AND SWAP2 SWAP1 SWAP2 OR OR SWAP1 SSTORE PUSH1 0x6 DUP1 DUP6 ADD SLOAD SWAP1 DUP5 ADD SSTORE PUSH1 0x7 DUP1 DUP6 ADD SLOAD SWAP1 DUP5 ADD SSTORE PUSH1 0x8 DUP1 DUP6 ADD SLOAD SWAP1 DUP5 ADD SSTORE PUSH1 0x9 DUP1 DUP6 ADD SLOAD SWAP1 DUP5 ADD DUP1 SLOAD SWAP2 SWAP1 SWAP4 AND ISZERO ISZERO SWAP2 AND OR SWAP1 SSTORE PUSH1 0xA DUP1 DUP3 ADD SWAP1 PUSH2 0x1CFF SWAP1 DUP5 ADD DUP3 PUSH2 0x75B1 JUMP JUMPDEST POP POP CALLER PUSH0 SWAP1 DUP2 MSTORE PUSH1 0x16 PUSH1 0x20 MSTORE PUSH1 0x40 SWAP1 DUP2 SWAP1 KECCAK256 SWAP1 MLOAD PUSH1 0x1 SWAP3 POP PUSH2 0x1D22 SWAP1 DUP9 SWAP1 PUSH2 0x777F JUMP JUMPDEST SWAP1 DUP2 MSTORE PUSH1 0x40 MLOAD SWAP1 DUP2 SWAP1 SUB PUSH1 0x20 ADD DUP2 KECCAK256 DUP1 SLOAD SWAP3 ISZERO ISZERO PUSH1 0xFF NOT SWAP1 SWAP4 AND SWAP3 SWAP1 SWAP3 OR SWAP1 SWAP2 SSTORE CALLER SWAP1 PUSH32 0xCC9B2AB11225ECCECEC343A75EDED3B48B614117780629A2DF57BCF6DD28206A SWAP1 PUSH2 0x1D72 SWAP1 DUP10 SWAP1 PUSH2 0x6ECA JUMP JUMPDEST PUSH1 0x40 MLOAD DUP1 SWAP2 SUB SWAP1 LOG2 POP POP POP POP POP POP JUMP JUMPDEST CALLER PUSH0 SWAP1 DUP2 MSTORE PUSH1 0x3 PUSH1 0x20 MSTORE PUSH1 0x40 SWAP1 KECCAK256 SLOAD PUSH1 0xFF AND ISZERO ISZERO PUSH1 0x1 EQ DUP1 PUSH2 0x1DB8 JUMPI POP CALLER PUSH0 SWAP1 DUP2 MSTORE PUSH1 0x1 PUSH1 0x20 DUP2 SWAP1 MSTORE PUSH1 0x40 SWAP1 SWAP2 KECCAK256 SLOAD PUSH1 0xFF AND ISZERO ISZERO EQ JUMPDEST PUSH2 0x1DD4 JUMPI PUSH1 0x40 MLOAD PUSH3 0x461BCD PUSH1 0xE5 SHL DUP2 MSTORE PUSH1 0x4 ADD PUSH2 0x769 SWAP1 PUSH2 0x786E JUMP JUMPDEST PUSH0 PUSH2 0x1DDE DUP7 PUSH2 0x66FF JUMP JUMPDEST SWAP1 POP PUSH0 PUSH2 0x1DEA DUP6 PUSH2 0x66FF JUMP JUMPDEST SWAP1 POP PUSH0 PUSH2 0x1DF6 DUP6 PUSH2 0x66FF JUMP JUMPDEST SWAP1 POP PUSH1 0x17 PUSH0 PUSH1 0x6 DUP10 PUSH1 0x40 MLOAD PUSH2 0x1E0B SWAP2 SWAP1 PUSH2 0x777F JUMP JUMPDEST SWAP1 DUP2 MSTORE PUSH1 0x40 DUP1 MLOAD PUSH1 0x20 SWAP3 DUP2 SWAP1 SUB DUP4 ADD SWAP1 KECCAK256 PUSH0 DUP8 DUP2 MSTORE SWAP1 DUP4 MSTORE DUP2 DUP2 KECCAK256 PUSH1 0x3 ADD SLOAD PUSH1 0x1 PUSH1 0x1 PUSH1 0xA0 SHL SUB AND DUP5 MSTORE SWAP2 DUP4 ADD SWAP4 SWAP1 SWAP4 MSTORE SWAP1 DUP3 ADD SWAP1 KECCAK256 SWAP1 MLOAD PUSH2 0x1E4E SWAP1 DUP10 SWAP1 PUSH2 0x777F JUMP JUMPDEST SWAP1 DUP2 MSTORE PUSH1 0x40 MLOAD SWAP1 DUP2 SWAP1 SUB PUSH1 0x20 ADD SWAP1 KECCAK256 SLOAD PUSH1 0xFF AND ISZERO PUSH2 0x1EAE JUMPI PUSH1 0x40 MLOAD PUSH3 0x461BCD PUSH1 0xE5 SHL DUP2 MSTORE PUSH1 0x20 PUSH1 0x4 DUP3 ADD MSTORE PUSH1 0x1F PUSH1 0x24 DUP3 ADD MSTORE PUSH32 0x557365722068617320616C7265616479206265656E20417070726F7665642100 PUSH1 0x44 DUP3 ADD MSTORE PUSH1 0x64 ADD PUSH2 0x769 JUMP JUMPDEST CALLER PUSH0 SWAP1 DUP2 MSTORE PUSH1 0x1C PUSH1 0x20 MSTORE PUSH1 0x40 SWAP1 DUP2 SWAP1 KECCAK256 SWAP1 MLOAD PUSH2 0x1ECB SWAP1 DUP10 SWAP1 PUSH2 0x777F JUMP JUMPDEST SWAP1 DUP2 MSTORE PUSH1 0x40 DUP1 MLOAD PUSH1 0x20 SWAP3 DUP2 SWAP1 SUB DUP4 ADD SWAP1 KECCAK256 PUSH0 DUP6 DUP2 MSTORE SWAP3 MSTORE SWAP1 KECCAK256 SLOAD PUSH1 0xFF AND ISZERO PUSH2 0x1F25 JUMPI PUSH1 0x40 MLOAD PUSH3 0x461BCD PUSH1 0xE5 SHL DUP2 MSTORE PUSH1 0x20 PUSH1 0x4 DUP3 ADD MSTORE PUSH1 0xD PUSH1 0x24 DUP3 ADD MSTORE PUSH13 0x105B1C9958591E48159BDD1959 PUSH1 0x9A SHL PUSH1 0x44 DUP3 ADD MSTORE PUSH1 0x64 ADD PUSH2 0x769 JUMP JUMPDEST PUSH0 PUSH1 0x1 PUSH1 0x1 PUSH1 0xA0 SHL SUB AND PUSH1 0x6 DUP9 PUSH1 0x40 MLOAD PUSH2 0x1F3F SWAP2 SWAP1 PUSH2 0x777F JUMP JUMPDEST SWAP1 DUP2 MSTORE PUSH1 0x40 DUP1 MLOAD PUSH1 0x20 SWAP3 DUP2 SWAP1 SUB DUP4 ADD SWAP1 KECCAK256 PUSH0 DUP7 DUP2 MSTORE SWAP3 MSTORE SWAP1 KECCAK256 PUSH1 0x3 ADD SLOAD PUSH1 0x1 PUSH1 0x1 PUSH1 0xA0 SHL SUB AND EQ DUP1 ISZERO SWAP1 PUSH2 0x1F9B JUMPI POP PUSH1 0x6 DUP8 PUSH1 0x40 MLOAD PUSH2 0x1F7E SWAP2 SWAP1 PUSH2 0x777F JUMP JUMPDEST SWAP1 DUP2 MSTORE PUSH1 0x40 DUP1 MLOAD PUSH1 0x20 SWAP3 DUP2 SWAP1 SUB DUP4 ADD SWAP1 KECCAK256 PUSH0 DUP6 DUP2 MSTORE SWAP3 MSTORE SWAP1 KECCAK256 SLOAD ISZERO ISZERO JUMPDEST PUSH2 0x1FE0 JUMPI PUSH1 0x40 MLOAD PUSH3 0x461BCD PUSH1 0xE5 SHL DUP2 MSTORE PUSH1 0x20 PUSH1 0x4 DUP3 ADD MSTORE PUSH1 0x16 PUSH1 0x24 DUP3 ADD MSTORE PUSH22 0x5265717565737420446F65736E277420457869737421 PUSH1 0x50 SHL PUSH1 0x44 DUP3 ADD MSTORE PUSH1 0x64 ADD PUSH2 0x769 JUMP JUMPDEST PUSH1 0x9 DUP8 PUSH1 0x40 MLOAD PUSH2 0x1FF0 SWAP2 SWAP1 PUSH2 0x777F JUMP JUMPDEST SWAP1 DUP2 MSTORE PUSH1 0x40 DUP1 MLOAD PUSH1 0x20 SWAP3 DUP2 SWAP1 SUB DUP4 ADD SWAP1 KECCAK256 PUSH0 DUP7 DUP2 MSTORE SWAP3 MSTORE DUP2 KECCAK256 DUP1 SLOAD SWAP2 PUSH2 0x2015 DUP4 PUSH2 0x74D4 JUMP JUMPDEST SWAP1 SWAP2 SSTORE POP PUSH0 SWAP1 POP PUSH2 0x2027 PUSH1 0x2 DUP4 PUSH2 0x7795 JUMP JUMPDEST SWAP1 POP PUSH1 0x6 DUP9 PUSH1 0x40 MLOAD PUSH2 0x2039 SWAP2 SWAP1 PUSH2 0x777F JUMP JUMPDEST SWAP1 DUP2 MSTORE PUSH1 0x40 DUP1 MLOAD PUSH1 0x20 SWAP3 DUP2 SWAP1 SUB DUP4 ADD SWAP1 KECCAK256 PUSH0 DUP7 DUP2 MSTORE SWAP3 MSTORE SWAP1 KECCAK256 PUSH1 0x5 ADD SLOAD PUSH1 0xFF AND ISZERO DUP1 ISZERO PUSH2 0x2098 JUMPI POP PUSH1 0x6 DUP9 PUSH1 0x40 MLOAD PUSH2 0x2071 SWAP2 SWAP1 PUSH2 0x777F JUMP JUMPDEST SWAP1 DUP2 MSTORE PUSH1 0x40 DUP1 MLOAD PUSH1 0x20 SWAP3 DUP2 SWAP1 SUB DUP4 ADD SWAP1 KECCAK256 PUSH0 DUP7 DUP2 MSTORE SWAP3 MSTORE SWAP1 KECCAK256 PUSH1 0x5 ADD SLOAD PUSH2 0x100 SWAP1 DIV PUSH1 0xFF AND ISZERO JUMPDEST PUSH2 0x20E4 JUMPI PUSH1 0x40 MLOAD PUSH3 0x461BCD PUSH1 0xE5 SHL DUP2 MSTORE PUSH1 0x20 PUSH1 0x4 DUP3 ADD MSTORE PUSH1 0x1F PUSH1 0x24 DUP3 ADD MSTORE PUSH32 0x41646D696E205265717565737420416C726561647920417070726F7665642100 PUSH1 0x44 DUP3 ADD MSTORE PUSH1 0x64 ADD PUSH2 0x769 JUMP JUMPDEST DUP8 PUSH1 0x40 MLOAD PUSH1 0x20 ADD PUSH2 0x20F5 SWAP2 SWAP1 PUSH2 0x777F JUMP JUMPDEST PUSH1 0x40 DUP1 MLOAD PUSH1 0x1F NOT DUP2 DUP5 SUB ADD DUP2 MSTORE DUP3 DUP3 MSTORE DUP1 MLOAD PUSH1 0x20 SWAP2 DUP3 ADD KECCAK256 PUSH0 DUP9 DUP2 MSTORE PUSH1 0x4 DUP4 MSTORE SWAP3 SWAP1 SWAP3 KECCAK256 SWAP2 SWAP3 PUSH2 0x2129 SWAP3 PUSH1 0x1 ADD SWAP2 ADD PUSH2 0x755B JUMP JUMPDEST PUSH1 0x40 MLOAD PUSH1 0x20 DUP2 DUP4 SUB SUB DUP2 MSTORE SWAP1 PUSH1 0x40 MSTORE DUP1 MLOAD SWAP1 PUSH1 0x20 ADD KECCAK256 EQ PUSH2 0x217B JUMPI PUSH1 0x40 MLOAD PUSH3 0x461BCD PUSH1 0xE5 SHL DUP2 MSTORE PUSH1 0x20 PUSH1 0x4 DUP3 ADD MSTORE PUSH1 0xC PUSH1 0x24 DUP3 ADD MSTORE PUSH12 0x496E76616C69642042616E6B PUSH1 0xA0 SHL PUSH1 0x44 DUP3 ADD MSTORE PUSH1 0x64 ADD PUSH2 0x769 JUMP JUMPDEST PUSH1 0x6 DUP9 PUSH1 0x40 MLOAD PUSH2 0x218B SWAP2 SWAP1 PUSH2 0x777F JUMP JUMPDEST SWAP1 DUP2 MSTORE PUSH1 0x40 DUP1 MLOAD PUSH1 0x20 SWAP3 DUP2 SWAP1 SUB DUP4 ADD SWAP1 KECCAK256 PUSH0 DUP7 DUP2 MSTORE SWAP3 MSTORE SWAP1 KECCAK256 PUSH1 0x5 ADD SLOAD PUSH1 0xFF AND ISZERO PUSH2 0x2204 JUMPI PUSH1 0x40 MLOAD PUSH3 0x461BCD PUSH1 0xE5 SHL DUP2 MSTORE PUSH1 0x20 PUSH1 0x4 DUP3 ADD MSTORE PUSH1 0x24 DUP1 DUP3 ADD MSTORE PUSH32 0x42616E6B2041646D696E205265717565737420616C726561647920617070726F PUSH1 0x44 DUP3 ADD MSTORE PUSH4 0x76656421 PUSH1 0xE0 SHL PUSH1 0x64 DUP3 ADD MSTORE PUSH1 0x84 ADD PUSH2 0x769 JUMP JUMPDEST CALLER PUSH1 0x1 PUSH1 0x1 PUSH1 0xA0 SHL SUB AND PUSH1 0xA DUP10 PUSH1 0x40 MLOAD PUSH2 0x221E SWAP2 SWAP1 PUSH2 0x777F JUMP JUMPDEST SWAP1 DUP2 MSTORE PUSH1 0x40 DUP1 MLOAD PUSH1 0x20 SWAP3 DUP2 SWAP1 SUB DUP4 ADD SWAP1 KECCAK256 PUSH0 DUP9 DUP2 MSTORE SWAP1 DUP4 MSTORE DUP2 DUP2 KECCAK256 DUP8 DUP3 MSTORE SWAP1 SWAP3 MSTORE SWAP1 KECCAK256 SLOAD PUSH1 0x1 PUSH1 0x1 PUSH1 0xA0 SHL SUB AND SUB PUSH2 0x22AB JUMPI PUSH1 0x40 MLOAD PUSH3 0x461BCD PUSH1 0xE5 SHL DUP2 MSTORE PUSH1 0x20 PUSH1 0x4 DUP3 ADD MSTORE PUSH1 0x2A PUSH1 0x24 DUP3 ADD MSTORE PUSH32 0x5265717565737420697320416C726561647920417070726F7665642062792054 PUSH1 0x44 DUP3 ADD MSTORE PUSH10 0x6869732041646D696E21 PUSH1 0xB0 SHL PUSH1 0x64 DUP3 ADD MSTORE PUSH1 0x84 ADD PUSH2 0x769 JUMP JUMPDEST PUSH1 0x6 DUP9 PUSH1 0x40 MLOAD PUSH2 0x22BB SWAP2 SWAP1 PUSH2 0x777F JUMP JUMPDEST SWAP1 DUP2 MSTORE PUSH1 0x40 DUP1 MLOAD PUSH1 0x20 SWAP3 DUP2 SWAP1 SUB DUP4 ADD SWAP1 KECCAK256 PUSH0 DUP7 DUP2 MSTORE SWAP3 MSTORE DUP2 KECCAK256 PUSH1 0x6 ADD DUP1 SLOAD SWAP2 PUSH2 0x22E3 DUP4 PUSH2 0x74D4 JUMP JUMPDEST SWAP2 SWAP1 POP SSTORE POP PUSH1 0x6 DUP9 PUSH1 0x40 MLOAD PUSH2 0x22F8 SWAP2 SWAP1 PUSH2 0x777F JUMP JUMPDEST SWAP1 DUP2 MSTORE PUSH1 0x40 DUP1 MLOAD PUSH1 0x20 SWAP3 DUP2 SWAP1 SUB DUP4 ADD SWAP1 KECCAK256 PUSH0 DUP7 DUP2 MSTORE SWAP3 MSTORE DUP2 KECCAK256 PUSH1 0x8 ADD DUP1 SLOAD SWAP2 PUSH2 0x2320 DUP4 PUSH2 0x74D4 JUMP JUMPDEST SWAP2 SWAP1 POP SSTORE POP PUSH1 0x7 DUP9 PUSH1 0x40 MLOAD PUSH2 0x2335 SWAP2 SWAP1 PUSH2 0x777F JUMP JUMPDEST SWAP1 DUP2 MSTORE PUSH1 0x40 DUP1 MLOAD PUSH1 0x20 SWAP3 DUP2 SWAP1 SUB DUP4 ADD SWAP1 KECCAK256 PUSH1 0x1 PUSH1 0x1 PUSH1 0xA0 SHL SUB DUP9 AND PUSH0 SWAP1 DUP2 MSTORE SWAP3 MSTORE DUP2 KECCAK256 PUSH1 0x6 ADD DUP1 SLOAD SWAP2 PUSH2 0x2367 DUP4 PUSH2 0x74D4 JUMP JUMPDEST SWAP2 SWAP1 POP SSTORE POP PUSH1 0x7 DUP9 PUSH1 0x40 MLOAD PUSH2 0x237C SWAP2 SWAP1 PUSH2 0x777F JUMP JUMPDEST SWAP1 DUP2 MSTORE PUSH1 0x40 DUP1 MLOAD PUSH1 0x20 SWAP3 DUP2 SWAP1 SUB DUP4 ADD SWAP1 KECCAK256 PUSH1 0x1 PUSH1 0x1 PUSH1 0xA0 SHL SUB DUP9 AND PUSH0 SWAP1 DUP2 MSTORE SWAP3 MSTORE DUP2 KECCAK256 PUSH1 0x8 ADD DUP1 SLOAD SWAP2 PUSH2 0x23AE DUP4 PUSH2 0x74D4 JUMP JUMPDEST SWAP1 SWAP2 SSTORE POP POP CALLER PUSH0 SWAP1 DUP2 MSTORE PUSH1 0x1C PUSH1 0x20 MSTORE PUSH1 0x40 SWAP1 DUP2 SWAP1 KECCAK256 SWAP1 MLOAD PUSH1 0x1 SWAP2 SWAP1 PUSH2 0x23D4 SWAP1 DUP12 SWAP1 PUSH2 0x777F JUMP JUMPDEST SWAP1 DUP2 MSTORE PUSH1 0x40 DUP1 MLOAD PUSH1 0x20 SWAP3 DUP2 SWAP1 SUB DUP4 ADD SWAP1 KECCAK256 PUSH0 DUP8 DUP2 MSTORE SWAP3 MSTORE SWAP1 KECCAK256 DUP1 SLOAD PUSH1 0xFF NOT AND SWAP2 ISZERO ISZERO SWAP2 SWAP1 SWAP2 OR SWAP1 SSTORE PUSH1 0x3 DUP3 LT DUP1 ISZERO PUSH2 0x2439 JUMPI POP PUSH1 0x6 DUP9 PUSH1 0x40 MLOAD PUSH2 0x2417 SWAP2 SWAP1 PUSH2 0x777F JUMP JUMPDEST SWAP1 DUP2 MSTORE PUSH1 0x40 DUP1 MLOAD PUSH1 0x20 SWAP3 DUP2 SWAP1 SUB DUP4 ADD SWAP1 KECCAK256 PUSH0 DUP7 DUP2 MSTORE SWAP3 MSTORE SWAP1 KECCAK256 PUSH1 0x5 ADD SLOAD PUSH1 0xFF AND ISZERO JUMPDEST ISZERO PUSH2 0x2754 JUMPI PUSH1 0x1 PUSH1 0x6 DUP10 PUSH1 0x40 MLOAD PUSH2 0x2450 SWAP2 SWAP1 PUSH2 0x777F JUMP JUMPDEST SWAP1 DUP2 MSTORE PUSH1 0x40 DUP1 MLOAD PUSH1 0x20 SWAP3 DUP2 SWAP1 SUB DUP4 ADD DUP2 KECCAK256 PUSH0 DUP9 DUP2 MSTORE SWAP4 MSTORE SWAP1 DUP3 KECCAK256 PUSH1 0x5 ADD DUP1 SLOAD PUSH1 0xFF NOT AND SWAP4 ISZERO ISZERO SWAP4 SWAP1 SWAP4 OR SWAP1 SWAP3 SSTORE SWAP1 PUSH1 0x6 SWAP1 PUSH2 0x248C SWAP1 DUP12 SWAP1 PUSH2 0x777F JUMP JUMPDEST SWAP1 DUP2 MSTORE PUSH1 0x40 DUP1 MLOAD SWAP2 DUP3 SWAP1 SUB PUSH1 0x20 SWAP1 DUP2 ADD DUP4 KECCAK256 PUSH0 DUP9 DUP2 MSTORE SWAP2 MSTORE KECCAK256 PUSH1 0x5 ADD DUP1 SLOAD SWAP3 ISZERO ISZERO PUSH2 0x100 MUL PUSH2 0xFF00 NOT SWAP1 SWAP4 AND SWAP3 SWAP1 SWAP3 OR SWAP1 SWAP2 SSTORE PUSH1 0x1 SWAP1 PUSH1 0x6 SWAP1 PUSH2 0x24D0 SWAP1 DUP12 SWAP1 PUSH2 0x777F JUMP JUMPDEST SWAP1 DUP2 MSTORE PUSH1 0x40 DUP1 MLOAD PUSH1 0x20 SWAP3 DUP2 SWAP1 SUB DUP4 ADD DUP2 KECCAK256 PUSH0 DUP9 DUP2 MSTORE SWAP4 MSTORE SWAP2 KECCAK256 PUSH1 0x9 ADD DUP1 SLOAD PUSH1 0xFF NOT AND SWAP3 ISZERO ISZERO SWAP3 SWAP1 SWAP3 OR SWAP1 SWAP2 SSTORE PUSH1 0x1 SWAP1 PUSH1 0x7 SWAP1 PUSH2 0x250D SWAP1 DUP12 SWAP1 PUSH2 0x777F JUMP JUMPDEST SWAP1 DUP2 MSTORE PUSH1 0x40 DUP1 MLOAD PUSH1 0x20 SWAP3 DUP2 SWAP1 SUB DUP4 ADD DUP2 KECCAK256 PUSH1 0x1 PUSH1 0x1 PUSH1 0xA0 SHL SUB DUP11 AND PUSH0 SWAP1 DUP2 MSTORE SWAP4 MSTORE SWAP1 DUP3 KECCAK256 PUSH1 0x5 ADD DUP1 SLOAD PUSH1 0xFF NOT AND SWAP4 ISZERO ISZERO SWAP4 SWAP1 SWAP4 OR SWAP1 SWAP3 SSTORE SWAP1 PUSH1 0x7 SWAP1 PUSH2 0x2553 SWAP1 DUP12 SWAP1 PUSH2 0x777F JUMP JUMPDEST SWAP1 DUP2 MSTORE PUSH1 0x40 DUP1 MLOAD SWAP2 DUP3 SWAP1 SUB PUSH1 0x20 SWAP1 DUP2 ADD DUP4 KECCAK256 PUSH1 0x1 PUSH1 0x1 PUSH1 0xA0 SHL SUB DUP11 AND PUSH0 SWAP1 DUP2 MSTORE SWAP2 MSTORE KECCAK256 PUSH1 0x5 ADD DUP1 SLOAD SWAP3 ISZERO ISZERO PUSH2 0x100 MUL PUSH2 0xFF00 NOT SWAP1 SWAP4 AND SWAP3 SWAP1 SWAP3 OR SWAP1 SWAP2 SSTORE PUSH1 0x1 SWAP1 PUSH1 0x7 SWAP1 PUSH2 0x25A1 SWAP1 DUP12 SWAP1 PUSH2 0x777F JUMP JUMPDEST SWAP1 DUP2 MSTORE PUSH1 0x40 DUP1 MLOAD PUSH1 0x20 SWAP3 DUP2 SWAP1 SUB DUP4 ADD DUP2 KECCAK256 PUSH1 0x1 PUSH1 0x1 PUSH1 0xA0 SHL SUB DUP11 AND PUSH0 SWAP1 DUP2 MSTORE SWAP4 MSTORE SWAP1 DUP3 KECCAK256 PUSH1 0x9 ADD DUP1 SLOAD PUSH1 0xFF NOT AND SWAP4 ISZERO ISZERO SWAP4 SWAP1 SWAP4 OR SWAP1 SWAP3 SSTORE PUSH1 0x1 SWAP2 DUP3 SWAP2 SWAP1 PUSH1 0x6 SWAP1 PUSH2 0x25EC SWAP1 DUP14 SWAP1 PUSH2 0x777F JUMP JUMPDEST SWAP1 DUP2 MSTORE PUSH1 0x40 DUP1 MLOAD PUSH1 0x20 SWAP3 DUP2 SWAP1 SUB DUP4 ADD SWAP1 KECCAK256 PUSH0 DUP10 DUP2 MSTORE SWAP1 DUP4 MSTORE DUP2 DUP2 KECCAK256 PUSH1 0x3 ADD SLOAD PUSH1 0x1 PUSH1 0x1 PUSH1 0xA0 SHL SUB AND DUP5 MSTORE SWAP2 DUP4 ADD SWAP4 SWAP1 SWAP4 MSTORE SWAP1 DUP3 ADD SWAP1 KECCAK256 DUP1 SLOAD PUSH1 0xFF NOT AND SWAP3 ISZERO ISZERO SWAP3 SWAP1 SWAP3 OR SWAP1 SWAP2 SSTORE MLOAD CALLER SWAP1 PUSH1 0xA SWAP1 PUSH2 0x2643 SWAP1 DUP12 SWAP1 PUSH2 0x777F JUMP JUMPDEST SWAP1 DUP2 MSTORE PUSH1 0x40 DUP1 MLOAD SWAP2 DUP3 SWAP1 SUB PUSH1 0x20 SWAP1 DUP2 ADD DUP4 KECCAK256 PUSH0 DUP9 DUP2 MSTORE SWAP2 MSTORE SWAP1 DUP2 KECCAK256 SWAP2 PUSH1 0x9 SWAP1 PUSH2 0x266D SWAP1 DUP14 SWAP1 PUSH2 0x777F JUMP JUMPDEST SWAP1 DUP2 MSTORE PUSH1 0x20 ADD PUSH1 0x40 MLOAD DUP1 SWAP2 SUB SWAP1 KECCAK256 PUSH0 DUP8 DUP2 MSTORE PUSH1 0x20 ADD SWAP1 DUP2 MSTORE PUSH1 0x20 ADD PUSH0 KECCAK256 SLOAD DUP2 MSTORE PUSH1 0x20 ADD SWAP1 DUP2 MSTORE PUSH1 0x20 ADD PUSH0 KECCAK256 PUSH0 PUSH2 0x100 EXP DUP2 SLOAD DUP2 PUSH1 0x1 PUSH1 0x1 PUSH1 0xA0 SHL SUB MUL NOT AND SWAP1 DUP4 PUSH1 0x1 PUSH1 0x1 PUSH1 0xA0 SHL SUB AND MUL OR SWAP1 SSTORE POP PUSH1 0x1 PUSH1 0x17 PUSH0 PUSH1 0x6 DUP12 PUSH1 0x40 MLOAD PUSH2 0x26D0 SWAP2 SWAP1 PUSH2 0x777F JUMP JUMPDEST SWAP1 DUP2 MSTORE PUSH1 0x40 DUP1 MLOAD PUSH1 0x20 SWAP3 DUP2 SWAP1 SUB DUP4 ADD SWAP1 KECCAK256 PUSH0 DUP10 DUP2 MSTORE SWAP1 DUP4 MSTORE DUP2 DUP2 KECCAK256 PUSH1 0x3 ADD SLOAD PUSH1 0x1 PUSH1 0x1 PUSH1 0xA0 SHL SUB AND DUP5 MSTORE SWAP2 DUP4 ADD SWAP4 SWAP1 SWAP4 MSTORE SWAP1 DUP3 ADD SWAP1 KECCAK256 SWAP1 MLOAD PUSH2 0x2713 SWAP1 DUP12 SWAP1 PUSH2 0x777F JUMP JUMPDEST SWAP1 DUP2 MSTORE PUSH1 0x40 MLOAD PUSH1 0x20 SWAP2 DUP2 SWAP1 SUB DUP3 ADD DUP2 KECCAK256 DUP1 SLOAD PUSH1 0xFF NOT AND SWAP4 ISZERO ISZERO SWAP4 SWAP1 SWAP4 OR SWAP1 SWAP3 SSTORE DUP5 DUP3 MSTORE PUSH0 DUP1 MLOAD PUSH1 0x20 PUSH2 0x7A33 DUP4 CODECOPY DUP2 MLOAD SWAP2 MSTORE SWAP2 ADD JUMPDEST PUSH1 0x40 MLOAD DUP1 SWAP2 SUB SWAP1 LOG1 PUSH2 0x32C2 JUMP JUMPDEST PUSH2 0x275F DUP2 PUSH1 0x1 PUSH2 0x77B4 JUMP JUMPDEST PUSH1 0x6 DUP10 PUSH1 0x40 MLOAD PUSH2 0x276F SWAP2 SWAP1 PUSH2 0x777F JUMP JUMPDEST SWAP1 DUP2 MSTORE PUSH1 0x20 ADD PUSH1 0x40 MLOAD DUP1 SWAP2 SUB SWAP1 KECCAK256 PUSH0 DUP6 DUP2 MSTORE PUSH1 0x20 ADD SWAP1 DUP2 MSTORE PUSH1 0x20 ADD PUSH0 KECCAK256 PUSH1 0x6 ADD SLOAD LT ISZERO DUP1 ISZERO PUSH2 0x27CD JUMPI POP DUP2 PUSH1 0x6 DUP10 PUSH1 0x40 MLOAD PUSH2 0x27AA SWAP2 SWAP1 PUSH2 0x777F JUMP JUMPDEST SWAP1 DUP2 MSTORE PUSH1 0x20 ADD PUSH1 0x40 MLOAD DUP1 SWAP2 SUB SWAP1 KECCAK256 PUSH0 DUP6 DUP2 MSTORE PUSH1 0x20 ADD SWAP1 DUP2 MSTORE PUSH1 0x20 ADD PUSH0 KECCAK256 PUSH1 0x8 ADD SLOAD EQ JUMPDEST DUP1 ISZERO PUSH2 0x2813 JUMPI POP PUSH2 0x27DF DUP2 PUSH1 0x1 PUSH2 0x77B4 JUMP JUMPDEST PUSH1 0x6 DUP10 PUSH1 0x40 MLOAD PUSH2 0x27EF SWAP2 SWAP1 PUSH2 0x777F JUMP JUMPDEST SWAP1 DUP2 MSTORE PUSH1 0x20 ADD PUSH1 0x40 MLOAD DUP1 SWAP2 SUB SWAP1 KECCAK256 PUSH0 DUP6 DUP2 MSTORE PUSH1 0x20 ADD SWAP1 DUP2 MSTORE PUSH1 0x20 ADD PUSH0 KECCAK256 PUSH1 0x6 ADD SLOAD LT ISZERO JUMPDEST ISZERO PUSH2 0x2B2F JUMPI PUSH1 0x1 PUSH1 0x6 DUP10 PUSH1 0x40 MLOAD PUSH2 0x282A SWAP2 SWAP1 PUSH2 0x777F JUMP JUMPDEST SWAP1 DUP2 MSTORE PUSH1 0x40 DUP1 MLOAD PUSH1 0x20 SWAP3 DUP2 SWAP1 SUB DUP4 ADD DUP2 KECCAK256 PUSH0 DUP9 DUP2 MSTORE SWAP4 MSTORE SWAP1 DUP3 KECCAK256 PUSH1 0x5 ADD DUP1 SLOAD PUSH1 0xFF NOT AND SWAP4 ISZERO ISZERO SWAP4 SWAP1 SWAP4 OR SWAP1 SWAP3 SSTORE SWAP1 PUSH1 0x6 SWAP1 PUSH2 0x2866 SWAP1 DUP12 SWAP1 PUSH2 0x777F JUMP JUMPDEST SWAP1 DUP2 MSTORE PUSH1 0x40 DUP1 MLOAD SWAP2 DUP3 SWAP1 SUB PUSH1 0x20 SWAP1 DUP2 ADD DUP4 KECCAK256 PUSH0 DUP9 DUP2 MSTORE SWAP2 MSTORE KECCAK256 PUSH1 0x5 ADD DUP1 SLOAD SWAP3 ISZERO ISZERO PUSH2 0x100 MUL PUSH2 0xFF00 NOT SWAP1 SWAP4 AND SWAP3 SWAP1 SWAP3 OR SWAP1 SWAP2 SSTORE PUSH1 0x1 SWAP1 PUSH1 0x6 SWAP1 PUSH2 0x28AA SWAP1 DUP12 SWAP1 PUSH2 0x777F JUMP JUMPDEST SWAP1 DUP2 MSTORE PUSH1 0x40 DUP1 MLOAD PUSH1 0x20 SWAP3 DUP2 SWAP1 SUB DUP4 ADD DUP2 KECCAK256 PUSH0 DUP9 DUP2 MSTORE SWAP4 MSTORE SWAP2 KECCAK256 PUSH1 0x9 ADD DUP1 SLOAD PUSH1 0xFF NOT AND SWAP3 ISZERO ISZERO SWAP3 SWAP1 SWAP3 OR SWAP1 SWAP2 SSTORE PUSH1 0x1 SWAP1 PUSH1 0x7 SWAP1 PUSH2 0x28E7 SWAP1 DUP12 SWAP1 PUSH2 0x777F JUMP JUMPDEST SWAP1 DUP2 MSTORE PUSH1 0x40 DUP1 MLOAD PUSH1 0x20 SWAP3 DUP2 SWAP1 SUB DUP4 ADD DUP2 KECCAK256 PUSH1 0x1 PUSH1 0x1 PUSH1 0xA0 SHL SUB DUP11 AND PUSH0 SWAP1 DUP2 MSTORE SWAP4 MSTORE SWAP1 DUP3 KECCAK256 PUSH1 0x5 ADD DUP1 SLOAD PUSH1 0xFF NOT AND SWAP4 ISZERO ISZERO SWAP4 SWAP1 SWAP4 OR SWAP1 SWAP3 SSTORE SWAP1 PUSH1 0x7 SWAP1 PUSH2 0x292D SWAP1 DUP12 SWAP1 PUSH2 0x777F JUMP JUMPDEST SWAP1 DUP2 MSTORE PUSH1 0x40 DUP1 MLOAD SWAP2 DUP3 SWAP1 SUB PUSH1 0x20 SWAP1 DUP2 ADD DUP4 KECCAK256 PUSH1 0x1 PUSH1 0x1 PUSH1 0xA0 SHL SUB DUP11 AND PUSH0 SWAP1 DUP2 MSTORE SWAP2 MSTORE KECCAK256 PUSH1 0x5 ADD DUP1 SLOAD SWAP3 ISZERO ISZERO PUSH2 0x100 MUL PUSH2 0xFF00 NOT SWAP1 SWAP4 AND SWAP3 SWAP1 SWAP3 OR SWAP1 SWAP2 SSTORE PUSH1 0x1 SWAP1 PUSH1 0x7 SWAP1 PUSH2 0x297B SWAP1 DUP12 SWAP1 PUSH2 0x777F JUMP JUMPDEST SWAP1 DUP2 MSTORE PUSH1 0x40 DUP1 MLOAD PUSH1 0x20 SWAP3 DUP2 SWAP1 SUB DUP4 ADD DUP2 KECCAK256 PUSH1 0x1 PUSH1 0x1 PUSH1 0xA0 SHL SUB DUP11 AND PUSH0 SWAP1 DUP2 MSTORE SWAP4 MSTORE SWAP1 DUP3 KECCAK256 PUSH1 0x9 ADD DUP1 SLOAD PUSH1 0xFF NOT AND SWAP4 ISZERO ISZERO SWAP4 SWAP1 SWAP4 OR SWAP1 SWAP3 SSTORE PUSH1 0x1 SWAP2 PUSH1 0x17 SWAP2 SWAP1 PUSH1 0x6 SWAP1 PUSH2 0x29C7 SWAP1 DUP14 SWAP1 PUSH2 0x777F JUMP JUMPDEST SWAP1 DUP2 MSTORE PUSH1 0x40 DUP1 MLOAD PUSH1 0x20 SWAP3 DUP2 SWAP1 SUB DUP4 ADD SWAP1 KECCAK256 PUSH0 DUP10 DUP2 MSTORE SWAP1 DUP4 MSTORE DUP2 DUP2 KECCAK256 PUSH1 0x3 ADD SLOAD PUSH1 0x1 PUSH1 0x1 PUSH1 0xA0 SHL SUB AND DUP5 MSTORE SWAP2 DUP4 ADD SWAP4 SWAP1 SWAP4 MSTORE SWAP1 DUP3 ADD SWAP1 KECCAK256 SWAP1 MLOAD PUSH2 0x2A0A SWAP1 DUP12 SWAP1 PUSH2 0x777F JUMP JUMPDEST SWAP1 DUP2 MSTORE PUSH1 0x20 ADD PUSH1 0x40 MLOAD DUP1 SWAP2 SUB SWAP1 KECCAK256 PUSH0 PUSH2 0x100 EXP DUP2 SLOAD DUP2 PUSH1 0xFF MUL NOT AND SWAP1 DUP4 ISZERO ISZERO MUL OR SWAP1 SSTORE POP PUSH1 0x1 DUP1 PUSH0 PUSH1 0x6 DUP12 PUSH1 0x40 MLOAD PUSH2 0x2A42 SWAP2 SWAP1 PUSH2 0x777F JUMP JUMPDEST SWAP1 DUP2 MSTORE PUSH1 0x40 DUP1 MLOAD PUSH1 0x20 SWAP3 DUP2 SWAP1 SUB DUP4 ADD SWAP1 KECCAK256 PUSH0 DUP10 DUP2 MSTORE SWAP1 DUP4 MSTORE DUP2 DUP2 KECCAK256 PUSH1 0x3 ADD SLOAD PUSH1 0x1 PUSH1 0x1 PUSH1 0xA0 SHL SUB AND DUP5 MSTORE SWAP2 DUP4 ADD SWAP4 SWAP1 SWAP4 MSTORE SWAP1 DUP3 ADD SWAP1 KECCAK256 DUP1 SLOAD PUSH1 0xFF NOT AND SWAP3 ISZERO ISZERO SWAP3 SWAP1 SWAP3 OR SWAP1 SWAP2 SSTORE MLOAD CALLER SWAP1 PUSH1 0xA SWAP1 PUSH2 0x2A99 SWAP1 DUP12 SWAP1 PUSH2 0x777F JUMP JUMPDEST SWAP1 DUP2 MSTORE PUSH1 0x40 DUP1 MLOAD SWAP2 DUP3 SWAP1 SUB PUSH1 0x20 SWAP1 DUP2 ADD DUP4 KECCAK256 PUSH0 DUP9 DUP2 MSTORE SWAP2 MSTORE SWAP1 DUP2 KECCAK256 SWAP2 PUSH1 0x9 SWAP1 PUSH2 0x2AC3 SWAP1 DUP14 SWAP1 PUSH2 0x777F JUMP JUMPDEST SWAP1 DUP2 MSTORE PUSH1 0x20 ADD PUSH1 0x40 MLOAD DUP1 SWAP2 SUB SWAP1 KECCAK256 PUSH0 DUP8 DUP2 MSTORE PUSH1 0x20 ADD SWAP1 DUP2 MSTORE PUSH1 0x20 ADD PUSH0 KECCAK256 SLOAD DUP2 MSTORE PUSH1 0x20 ADD SWAP1 DUP2 MSTORE PUSH1 0x20 ADD PUSH0 KECCAK256 PUSH0 PUSH2 0x100 EXP DUP2 SLOAD DUP2 PUSH1 0x1 PUSH1 0x1 PUSH1 0xA0 SHL SUB MUL NOT AND SWAP1 DUP4 PUSH1 0x1 PUSH1 0x1 PUSH1 0xA0 SHL SUB AND MUL OR SWAP1 SSTORE POP PUSH0 DUP1 MLOAD PUSH1 0x20 PUSH2 0x7A33 DUP4 CODECOPY DUP2 MLOAD SWAP2 MSTORE DUP4 PUSH1 0x40 MLOAD PUSH2 0x2747 SWAP2 DUP2 MSTORE PUSH1 0x20 ADD SWAP1 JUMP JUMPDEST DUP2 PUSH1 0x6 DUP10 PUSH1 0x40 MLOAD PUSH2 0x2B40 SWAP2 SWAP1 PUSH2 0x777F JUMP JUMPDEST SWAP1 DUP2 MSTORE PUSH1 0x20 ADD PUSH1 0x40 MLOAD DUP1 SWAP2 SUB SWAP1 KECCAK256 PUSH0 DUP6 DUP2 MSTORE PUSH1 0x20 ADD SWAP1 DUP2 MSTORE PUSH1 0x20 ADD PUSH0 KECCAK256 PUSH1 0x8 ADD SLOAD EQ DUP1 ISZERO PUSH2 0x2BA8 JUMPI POP PUSH2 0x2B74 DUP2 PUSH1 0x1 PUSH2 0x77B4 JUMP JUMPDEST PUSH1 0x6 DUP10 PUSH1 0x40 MLOAD PUSH2 0x2B84 SWAP2 SWAP1 PUSH2 0x777F JUMP JUMPDEST SWAP1 DUP2 MSTORE PUSH1 0x20 ADD PUSH1 0x40 MLOAD DUP1 SWAP2 SUB SWAP1 KECCAK256 PUSH0 DUP6 DUP2 MSTORE PUSH1 0x20 ADD SWAP1 DUP2 MSTORE PUSH1 0x20 ADD PUSH0 KECCAK256 PUSH1 0x6 ADD SLOAD LT ISZERO JUMPDEST ISZERO PUSH2 0x2EAB JUMPI PUSH1 0x1 PUSH1 0x6 DUP10 PUSH1 0x40 MLOAD PUSH2 0x2BBF SWAP2 SWAP1 PUSH2 0x777F JUMP JUMPDEST SWAP1 DUP2 MSTORE PUSH1 0x40 DUP1 MLOAD PUSH1 0x20 SWAP3 DUP2 SWAP1 SUB DUP4 ADD DUP2 KECCAK256 PUSH0 DUP9 DUP2 MSTORE SWAP4 MSTORE SWAP1 DUP3 KECCAK256 PUSH1 0x5 ADD DUP1 SLOAD PUSH1 0xFF NOT AND SWAP4 ISZERO ISZERO SWAP4 SWAP1 SWAP4 OR SWAP1 SWAP3 SSTORE SWAP1 PUSH1 0x6 SWAP1 PUSH2 0x2BFB SWAP1 DUP12 SWAP1 PUSH2 0x777F JUMP JUMPDEST SWAP1 DUP2 MSTORE PUSH1 0x40 DUP1 MLOAD SWAP2 DUP3 SWAP1 SUB PUSH1 0x20 SWAP1 DUP2 ADD DUP4 KECCAK256 PUSH0 DUP9 DUP2 MSTORE SWAP2 MSTORE KECCAK256 PUSH1 0x5 ADD DUP1 SLOAD SWAP3 ISZERO ISZERO PUSH2 0x100 MUL PUSH2 0xFF00 NOT SWAP1 SWAP4 AND SWAP3 SWAP1 SWAP3 OR SWAP1 SWAP2 SSTORE PUSH1 0x1 SWAP1 PUSH1 0x6 SWAP1 PUSH2 0x2C3F SWAP1 DUP12 SWAP1 PUSH2 0x777F JUMP JUMPDEST SWAP1 DUP2 MSTORE PUSH1 0x40 DUP1 MLOAD PUSH1 0x20 SWAP3 DUP2 SWAP1 SUB DUP4 ADD DUP2 KECCAK256 PUSH0 DUP9 DUP2 MSTORE SWAP4 MSTORE SWAP2 KECCAK256 PUSH1 0x9 ADD DUP1 SLOAD PUSH1 0xFF NOT AND SWAP3 ISZERO ISZERO SWAP3 SWAP1 SWAP3 OR SWAP1 SWAP2 SSTORE PUSH1 0x1 SWAP1 PUSH1 0x7 SWAP1 PUSH2 0x2C7C SWAP1 DUP12 SWAP1 PUSH2 0x777F JUMP JUMPDEST SWAP1 DUP2 MSTORE PUSH1 0x40 DUP1 MLOAD PUSH1 0x20 SWAP3 DUP2 SWAP1 SUB DUP4 ADD DUP2 KECCAK256 PUSH1 0x1 PUSH1 0x1 PUSH1 0xA0 SHL SUB DUP11 AND PUSH0 SWAP1 DUP2 MSTORE SWAP4 MSTORE SWAP1 DUP3 KECCAK256 PUSH1 0x5 ADD DUP1 SLOAD PUSH1 0xFF NOT AND SWAP4 ISZERO ISZERO SWAP4 SWAP1 SWAP4 OR SWAP1 SWAP3 SSTORE SWAP1 PUSH1 0x7 SWAP1 PUSH2 0x2CC2 SWAP1 DUP12 SWAP1 PUSH2 0x777F JUMP JUMPDEST SWAP1 DUP2 MSTORE PUSH1 0x40 DUP1 MLOAD SWAP2 DUP3 SWAP1 SUB PUSH1 0x20 SWAP1 DUP2 ADD DUP4 KECCAK256 PUSH1 0x1 PUSH1 0x1 PUSH1 0xA0 SHL SUB DUP11 AND PUSH0 SWAP1 DUP2 MSTORE SWAP2 MSTORE KECCAK256 PUSH1 0x5 ADD DUP1 SLOAD SWAP3 ISZERO ISZERO PUSH2 0x100 MUL PUSH2 0xFF00 NOT SWAP1 SWAP4 AND SWAP3 SWAP1 SWAP3 OR SWAP1 SWAP2 SSTORE PUSH1 0x1 SWAP1 PUSH1 0x7 SWAP1 PUSH2 0x2D10 SWAP1 DUP12 SWAP1 PUSH2 0x777F JUMP JUMPDEST SWAP1 DUP2 MSTORE PUSH1 0x40 DUP1 MLOAD PUSH1 0x20 SWAP3 DUP2 SWAP1 SUB DUP4 ADD DUP2 KECCAK256 PUSH1 0x1 PUSH1 0x1 PUSH1 0xA0 SHL SUB DUP11 AND PUSH0 SWAP1 DUP2 MSTORE SWAP4 MSTORE SWAP1 DUP3 KECCAK256 PUSH1 0x9 ADD DUP1 SLOAD PUSH1 0xFF NOT AND SWAP4 ISZERO ISZERO SWAP4 SWAP1 SWAP4 OR SWAP1 SWAP3 SSTORE PUSH1 0x1 SWAP2 PUSH1 0x17 SWAP2 SWAP1 PUSH1 0x6 SWAP1 PUSH2 0x2D5C SWAP1 DUP14 SWAP1 PUSH2 0x777F JUMP JUMPDEST SWAP1 DUP2 MSTORE PUSH1 0x40 DUP1 MLOAD PUSH1 0x20 SWAP3 DUP2 SWAP1 SUB DUP4 ADD SWAP1 KECCAK256 PUSH0 DUP10 DUP2 MSTORE SWAP1 DUP4 MSTORE DUP2 DUP2 KECCAK256 PUSH1 0x3 ADD SLOAD PUSH1 0x1 PUSH1 0x1 PUSH1 0xA0 SHL SUB AND DUP5 MSTORE SWAP2 DUP4 ADD SWAP4 SWAP1 SWAP4 MSTORE SWAP1 DUP3 ADD SWAP1 KECCAK256 SWAP1 MLOAD PUSH2 0x2D9F SWAP1 DUP12 SWAP1 PUSH2 0x777F JUMP JUMPDEST SWAP1 DUP2 MSTORE PUSH1 0x20 ADD PUSH1 0x40 MLOAD DUP1 SWAP2 SUB SWAP1 KECCAK256 PUSH0 PUSH2 0x100 EXP DUP2 SLOAD DUP2 PUSH1 0xFF MUL NOT AND SWAP1 DUP4 ISZERO ISZERO MUL OR SWAP1 SSTORE POP PUSH1 0x1 DUP1 PUSH0 PUSH1 0x6 DUP12 PUSH1 0x40 MLOAD PUSH2 0x2DD7 SWAP2 SWAP1 PUSH2 0x777F JUMP JUMPDEST SWAP1 DUP2 MSTORE PUSH1 0x40 DUP1 MLOAD PUSH1 0x20 SWAP3 DUP2 SWAP1 SUB DUP4 ADD SWAP1 KECCAK256 PUSH0 DUP10 DUP2 MSTORE SWAP1 DUP4 MSTORE DUP2 DUP2 KECCAK256 PUSH1 0x3 ADD SLOAD PUSH1 0x1 PUSH1 0x1 PUSH1 0xA0 SHL SUB AND DUP5 MSTORE SWAP2 DUP4 ADD SWAP4 SWAP1 SWAP4 MSTORE SWAP1 DUP3 ADD SWAP1 KECCAK256 DUP1 SLOAD PUSH1 0xFF NOT AND SWAP3 ISZERO ISZERO SWAP3 SWAP1 SWAP3 OR SWAP1 SWAP2 SSTORE MLOAD CALLER SWAP1 PUSH1 0xA SWAP1 PUSH2 0x2E2E SWAP1 DUP12 SWAP1 PUSH2 0x777F JUMP JUMPDEST SWAP1 DUP2 MSTORE PUSH1 0x40 DUP1 MLOAD SWAP2 DUP3 SWAP1 SUB PUSH1 0x20 SWAP1 DUP2 ADD DUP4 KECCAK256 PUSH0 DUP9 DUP2 MSTORE SWAP2 MSTORE SWAP1 DUP2 KECCAK256 SWAP2 PUSH1 0x9 SWAP1 PUSH2 0x2E58 SWAP1 DUP14 SWAP1 PUSH2 0x777F JUMP JUMPDEST SWAP1 DUP2 MSTORE PUSH1 0x20 ADD PUSH1 0x40 MLOAD DUP1 SWAP2 SUB SWAP1 KECCAK256 PUSH0 DUP8 DUP2 MSTORE PUSH1 0x20 ADD SWAP1 DUP2 MSTORE PUSH1 0x20 ADD PUSH0 KECCAK256 SLOAD DUP2 MSTORE PUSH1 0x20 ADD SWAP1 DUP2 MSTORE PUSH1 0x20 ADD PUSH0 KECCAK256 PUSH0 PUSH2 0x100 EXP DUP2 SLOAD DUP2 PUSH1 0x1 PUSH1 0x1 PUSH1 0xA0 SHL SUB MUL NOT AND SWAP1 DUP4 PUSH1 0x1 PUSH1 0x1 PUSH1 0xA0 SHL SUB AND MUL OR SWAP1 SSTORE POP PUSH2 0x32C2 JUMP JUMPDEST DUP2 PUSH1 0x6 DUP10 PUSH1 0x40 MLOAD PUSH2 0x2EBC SWAP2 SWAP1 PUSH2 0x777F JUMP JUMPDEST SWAP1 DUP2 MSTORE PUSH1 0x20 ADD PUSH1 0x40 MLOAD DUP1 SWAP2 SUB SWAP1 KECCAK256 PUSH0 DUP6 DUP2 MSTORE PUSH1 0x20 ADD SWAP1 DUP2 MSTORE PUSH1 0x20 ADD PUSH0 KECCAK256 PUSH1 0x8 ADD SLOAD EQ DUP1 ISZERO PUSH2 0x2F44 JUMPI POP PUSH1 0x6 DUP9 PUSH1 0x40 MLOAD PUSH2 0x2EF5 SWAP2 SWAP1 PUSH2 0x777F JUMP JUMPDEST SWAP1 DUP2 MSTORE PUSH1 0x40 DUP1 MLOAD SWAP2 DUP3 SWAP1 SUB PUSH1 0x20 SWAP1 DUP2 ADD DUP4 KECCAK256 PUSH0 DUP8 DUP2 MSTORE SWAP2 MSTORE KECCAK256 PUSH1 0x7 ADD SLOAD SWAP1 PUSH1 0x6 SWAP1 PUSH2 0x2F21 SWAP1 DUP12 SWAP1 PUSH2 0x777F JUMP JUMPDEST SWAP1 DUP2 MSTORE PUSH1 0x20 ADD PUSH1 0x40 MLOAD DUP1 SWAP2 SUB SWAP1 KECCAK256 PUSH0 DUP6 DUP2 MSTORE PUSH1 0x20 ADD SWAP1 DUP2 MSTORE PUSH1 0x20 ADD PUSH0 KECCAK256 PUSH1 0x6 ADD SLOAD EQ JUMPDEST ISZERO PUSH2 0x2FF3 JUMPI PUSH1 0x40 MLOAD PUSH3 0x461BCD PUSH1 0xE5 SHL DUP2 MSTORE PUSH1 0x20 PUSH1 0x4 DUP3 ADD MSTORE PUSH1 0x6D PUSH1 0x24 DUP3 ADD MSTORE PUSH32 0x457175616C20566F74696E67205363656E6172696F2041736B7320666F72204F PUSH1 0x44 DUP3 ADD MSTORE PUSH32 0x6E65206D6F72652041646D696E20566F74652C20506C6561736520566F746520 PUSH1 0x64 DUP3 ADD MSTORE PUSH32 0x696E206661766F7572206F662052656A656374696F6E20746F20676574204669 PUSH1 0x84 DUP3 ADD MSTORE PUSH13 0x6E616C204465636973696F6E21 PUSH1 0x98 SHL PUSH1 0xA4 DUP3 ADD MSTORE PUSH1 0xC4 ADD PUSH2 0x769 JUMP JUMPDEST DUP2 PUSH1 0x6 DUP10 PUSH1 0x40 MLOAD PUSH2 0x3004 SWAP2 SWAP1 PUSH2 0x777F JUMP JUMPDEST SWAP1 DUP2 MSTORE PUSH1 0x20 ADD PUSH1 0x40 MLOAD DUP1 SWAP2 SUB SWAP1 KECCAK256 PUSH0 DUP6 DUP2 MSTORE PUSH1 0x20 ADD SWAP1 DUP2 MSTORE PUSH1 0x20 ADD PUSH0 KECCAK256 PUSH1 0x8 ADD SLOAD SUB PUSH2 0x31DE JUMPI PUSH1 0x1 PUSH1 0x6 DUP10 PUSH1 0x40 MLOAD PUSH2 0x303C SWAP2 SWAP1 PUSH2 0x777F JUMP JUMPDEST SWAP1 DUP2 MSTORE PUSH1 0x40 DUP1 MLOAD PUSH1 0x20 SWAP3 DUP2 SWAP1 SUB DUP4 ADD DUP2 KECCAK256 PUSH0 DUP9 DUP2 MSTORE SWAP4 MSTORE SWAP1 DUP3 KECCAK256 PUSH1 0x5 ADD DUP1 SLOAD PUSH1 0xFF NOT AND SWAP4 ISZERO ISZERO SWAP4 SWAP1 SWAP4 OR SWAP1 SWAP3 SSTORE SWAP1 PUSH1 0x6 SWAP1 PUSH2 0x3078 SWAP1 DUP12 SWAP1 PUSH2 0x777F JUMP JUMPDEST SWAP1 DUP2 MSTORE PUSH1 0x40 DUP1 MLOAD SWAP2 DUP3 SWAP1 SUB PUSH1 0x20 SWAP1 DUP2 ADD DUP4 KECCAK256 PUSH0 DUP9 DUP2 MSTORE SWAP2 MSTORE KECCAK256 PUSH1 0x5 ADD DUP1 SLOAD SWAP3 ISZERO ISZERO PUSH2 0x100 MUL PUSH2 0xFF00 NOT SWAP1 SWAP4 AND SWAP3 SWAP1 SWAP3 OR SWAP1 SWAP2 SSTORE PUSH1 0x1 SWAP1 PUSH1 0x6 SWAP1 PUSH2 0x30BC SWAP1 DUP12 SWAP1 PUSH2 0x777F JUMP JUMPDEST SWAP1 DUP2 MSTORE PUSH1 0x40 DUP1 MLOAD PUSH1 0x20 SWAP3 DUP2 SWAP1 SUB DUP4 ADD DUP2 KECCAK256 PUSH0 DUP9 DUP2 MSTORE SWAP4 MSTORE SWAP2 KECCAK256 PUSH1 0x9 ADD DUP1 SLOAD PUSH1 0xFF NOT AND SWAP3 ISZERO ISZERO SWAP3 SWAP1 SWAP3 OR SWAP1 SWAP2 SSTORE PUSH1 0x1 SWAP1 PUSH1 0x7 SWAP1 PUSH2 0x30F9 SWAP1 DUP12 SWAP1 PUSH2 0x777F JUMP JUMPDEST SWAP1 DUP2 MSTORE PUSH1 0x40 DUP1 MLOAD PUSH1 0x20 SWAP3 DUP2 SWAP1 SUB DUP4 ADD DUP2 KECCAK256 PUSH1 0x1 PUSH1 0x1 PUSH1 0xA0 SHL SUB DUP11 AND PUSH0 SWAP1 DUP2 MSTORE SWAP4 MSTORE SWAP1 DUP3 KECCAK256 PUSH1 0x5 ADD DUP1 SLOAD PUSH1 0xFF NOT AND SWAP4 ISZERO ISZERO SWAP4 SWAP1 SWAP4 OR SWAP1 SWAP3 SSTORE SWAP1 PUSH1 0x7 SWAP1 PUSH2 0x313F SWAP1 DUP12 SWAP1 PUSH2 0x777F JUMP JUMPDEST SWAP1 DUP2 MSTORE PUSH1 0x40 DUP1 MLOAD SWAP2 DUP3 SWAP1 SUB PUSH1 0x20 SWAP1 DUP2 ADD DUP4 KECCAK256 PUSH1 0x1 PUSH1 0x1 PUSH1 0xA0 SHL SUB DUP11 AND PUSH0 SWAP1 DUP2 MSTORE SWAP2 MSTORE KECCAK256 PUSH1 0x5 ADD DUP1 SLOAD SWAP3 ISZERO ISZERO PUSH2 0x100 MUL PUSH2 0xFF00 NOT SWAP1 SWAP4 AND SWAP3 SWAP1 SWAP3 OR SWAP1 SWAP2 SSTORE PUSH1 0x1 SWAP1 PUSH1 0x7 SWAP1 PUSH2 0x318D SWAP1 DUP12 SWAP1 PUSH2 0x777F JUMP JUMPDEST SWAP1 DUP2 MSTORE PUSH1 0x40 DUP1 MLOAD PUSH1 0x20 SWAP3 DUP2 SWAP1 SUB DUP4 ADD DUP2 KECCAK256 PUSH1 0x1 PUSH1 0x1 PUSH1 0xA0 SHL SUB DUP11 AND PUSH0 SWAP1 DUP2 MSTORE SWAP1 DUP5 MSTORE SWAP2 SWAP1 SWAP2 KECCAK256 PUSH1 0x9 ADD DUP1 SLOAD PUSH1 0xFF NOT AND SWAP4 ISZERO ISZERO SWAP4 SWAP1 SWAP4 OR SWAP1 SWAP3 SSTORE DUP5 DUP3 MSTORE PUSH0 DUP1 MLOAD PUSH1 0x20 PUSH2 0x7A33 DUP4 CODECOPY DUP2 MLOAD SWAP2 MSTORE SWAP2 ADD PUSH2 0x2747 JUMP JUMPDEST PUSH1 0x1 DUP1 PUSH0 PUSH1 0x6 DUP12 PUSH1 0x40 MLOAD PUSH2 0x31F2 SWAP2 SWAP1 PUSH2 0x777F JUMP JUMPDEST SWAP1 DUP2 MSTORE PUSH1 0x40 DUP1 MLOAD PUSH1 0x20 SWAP3 DUP2 SWAP1 SUB DUP4 ADD SWAP1 KECCAK256 PUSH0 DUP10 DUP2 MSTORE SWAP1 DUP4 MSTORE DUP2 DUP2 KECCAK256 PUSH1 0x3 ADD SLOAD PUSH1 0x1 PUSH1 0x1 PUSH1 0xA0 SHL SUB AND DUP5 MSTORE SWAP2 DUP4 ADD SWAP4 SWAP1 SWAP4 MSTORE SWAP1 DUP3 ADD SWAP1 KECCAK256 DUP1 SLOAD PUSH1 0xFF NOT AND SWAP3 ISZERO ISZERO SWAP3 SWAP1 SWAP3 OR SWAP1 SWAP2 SSTORE MLOAD CALLER SWAP1 PUSH1 0xA SWAP1 PUSH2 0x3249 SWAP1 DUP12 SWAP1 PUSH2 0x777F JUMP JUMPDEST SWAP1 DUP2 MSTORE PUSH1 0x40 DUP1 MLOAD SWAP2 DUP3 SWAP1 SUB PUSH1 0x20 SWAP1 DUP2 ADD DUP4 KECCAK256 PUSH0 DUP9 DUP2 MSTORE SWAP2 MSTORE SWAP1 DUP2 KECCAK256 SWAP2 PUSH1 0x9 SWAP1 PUSH2 0x3273 SWAP1 DUP14 SWAP1 PUSH2 0x777F JUMP JUMPDEST SWAP1 DUP2 MSTORE PUSH1 0x20 ADD PUSH1 0x40 MLOAD DUP1 SWAP2 SUB SWAP1 KECCAK256 PUSH0 DUP8 DUP2 MSTORE PUSH1 0x20 ADD SWAP1 DUP2 MSTORE PUSH1 0x20 ADD PUSH0 KECCAK256 SLOAD DUP2 MSTORE PUSH1 0x20 ADD SWAP1 DUP2 MSTORE PUSH1 0x20 ADD PUSH0 KECCAK256 PUSH0 PUSH2 0x100 EXP DUP2 SLOAD DUP2 PUSH1 0x1 PUSH1 0x1 PUSH1 0xA0 SHL SUB MUL NOT AND SWAP1 DUP4 PUSH1 0x1 PUSH1 0x1 PUSH1 0xA0 SHL SUB AND MUL OR SWAP1 SSTORE POP JUMPDEST POP POP POP POP POP POP POP POP POP JUMP JUMPDEST PUSH1 0x5 PUSH1 0x20 MSTORE PUSH0 SWAP1 DUP2 MSTORE PUSH1 0x40 SWAP1 KECCAK256 DUP1 SLOAD PUSH1 0x1 DUP3 ADD DUP1 SLOAD SWAP2 SWAP3 SWAP2 PUSH2 0x32EE SWAP1 PUSH2 0x740B JUMP JUMPDEST DUP1 PUSH1 0x1F ADD PUSH1 0x20 DUP1 SWAP2 DIV MUL PUSH1 0x20 ADD PUSH1 0x40 MLOAD SWAP1 DUP2 ADD PUSH1 0x40 MSTORE DUP1 SWAP3 SWAP2 SWAP1 DUP2 DUP2 MSTORE PUSH1 0x20 ADD DUP3 DUP1 SLOAD PUSH2 0x331A SWAP1 PUSH2 0x740B JUMP JUMPDEST DUP1 ISZERO PUSH2 0x3365 JUMPI DUP1 PUSH1 0x1F LT PUSH2 0x333C JUMPI PUSH2 0x100 DUP1 DUP4 SLOAD DIV MUL DUP4 MSTORE SWAP2 PUSH1 0x20 ADD SWAP2 PUSH2 0x3365 JUMP JUMPDEST DUP3 ADD SWAP2 SWAP1 PUSH0 MSTORE PUSH1 0x20 PUSH0 KECCAK256 SWAP1 JUMPDEST DUP2 SLOAD DUP2 MSTORE SWAP1 PUSH1 0x1 ADD SWAP1 PUSH1 0x20 ADD DUP1 DUP4 GT PUSH2 0x3348 JUMPI DUP3 SWAP1 SUB PUSH1 0x1F AND DUP3 ADD SWAP2 JUMPDEST POP POP POP POP PUSH1 0x2 DUP4 ADD SLOAD PUSH1 0x3 DUP5 ADD SLOAD PUSH1 0x4 DUP6 ADD SLOAD PUSH1 0x5 DUP7 ADD SLOAD PUSH1 0x6 DUP8 ADD DUP1 SLOAD SWAP7 SWAP8 PUSH1 0x1 PUSH1 0x1 PUSH1 0xA0 SHL SUB SWAP1 SWAP6 AND SWAP7 SWAP4 SWAP6 POP PUSH1 0xFF DUP1 DUP5 AND SWAP6 PUSH2 0x100 SWAP1 SWAP5 DIV AND SWAP4 SWAP2 SWAP3 SWAP2 PUSH2 0x33AE SWAP1 PUSH2 0x740B JUMP JUMPDEST DUP1 PUSH1 0x1F ADD PUSH1 0x20 DUP1 SWAP2 DIV MUL PUSH1 0x20 ADD PUSH1 0x40 MLOAD SWAP1 DUP2 ADD PUSH1 0x40 MSTORE DUP1 SWAP3 SWAP2 SWAP1 DUP2 DUP2 MSTORE PUSH1 0x20 ADD DUP3 DUP1 SLOAD PUSH2 0x33DA SWAP1 PUSH2 0x740B JUMP JUMPDEST DUP1 ISZERO PUSH2 0x3425 JUMPI DUP1 PUSH1 0x1F LT PUSH2 0x33FC JUMPI PUSH2 0x100 DUP1 DUP4 SLOAD DIV MUL DUP4 MSTORE SWAP2 PUSH1 0x20 ADD SWAP2 PUSH2 0x3425 JUMP JUMPDEST DUP3 ADD SWAP2 SWAP1 PUSH0 MSTORE PUSH1 0x20 PUSH0 KECCAK256 SWAP1 JUMPDEST DUP2 SLOAD DUP2 MSTORE SWAP1 PUSH1 0x1 ADD SWAP1 PUSH1 0x20 ADD DUP1 DUP4 GT PUSH2 0x3408 JUMPI DUP3 SWAP1 SUB PUSH1 0x1F AND DUP3 ADD SWAP2 JUMPDEST POP POP POP POP PUSH1 0x7 DUP4 ADD SLOAD PUSH1 0x8 SWAP1 SWAP4 ADD SLOAD SWAP2 SWAP3 SWAP2 PUSH1 0xFF AND SWAP1 POP DUP11 JUMP JUMPDEST PUSH1 0x60 PUSH1 0x1A DUP4 PUSH1 0x40 MLOAD PUSH2 0x3451 SWAP2 SWAP1 PUSH2 0x777F JUMP JUMPDEST SWAP1 DUP2 MSTORE PUSH1 0x40 DUP1 MLOAD SWAP2 DUP3 SWAP1 SUB PUSH1 0x20 SWAP1 DUP2 ADD DUP4 KECCAK256 PUSH0 DUP7 DUP2 MSTORE SWAP1 DUP3 MSTORE DUP3 DUP2 KECCAK256 DUP1 SLOAD DUP1 DUP5 MUL DUP7 ADD DUP5 ADD SWAP1 SWAP5 MSTORE DUP4 DUP6 MSTORE SWAP3 SWAP2 DUP5 ADD JUMPDEST DUP3 DUP3 LT ISZERO PUSH2 0x3529 JUMPI DUP4 DUP3 SWAP1 PUSH0 MSTORE PUSH1 0x20 PUSH0 KECCAK256 ADD DUP1 SLOAD PUSH2 0x349E SWAP1 PUSH2 0x740B JUMP JUMPDEST DUP1 PUSH1 0x1F ADD PUSH1 0x20 DUP1 SWAP2 DIV MUL PUSH1 0x20 ADD PUSH1 0x40 MLOAD SWAP1 DUP2 ADD PUSH1 0x40 MSTORE DUP1 SWAP3 SWAP2 SWAP1 DUP2 DUP2 MSTORE PUSH1 0x20 ADD DUP3 DUP1 SLOAD PUSH2 0x34CA SWAP1 PUSH2 0x740B JUMP JUMPDEST DUP1 ISZERO PUSH2 0x3515 JUMPI DUP1 PUSH1 0x1F LT PUSH2 0x34EC JUMPI PUSH2 0x100 DUP1 DUP4 SLOAD DIV MUL DUP4 MSTORE SWAP2 PUSH1 0x20 ADD SWAP2 PUSH2 0x3515 JUMP JUMPDEST DUP3 ADD SWAP2 SWAP1 PUSH0 MSTORE PUSH1 0x20 PUSH0 KECCAK256 SWAP1 JUMPDEST DUP2 SLOAD DUP2 MSTORE SWAP1 PUSH1 0x1 ADD SWAP1 PUSH1 0x20 ADD DUP1 DUP4 GT PUSH2 0x34F8 JUMPI DUP3 SWAP1 SUB PUSH1 0x1F AND DUP3 ADD SWAP2 JUMPDEST POP POP POP POP POP DUP2 MSTORE PUSH1 0x20 ADD SWAP1 PUSH1 0x1 ADD SWAP1 PUSH2 0x3481 JUMP JUMPDEST POP POP POP POP SWAP1 POP JUMPDEST SWAP3 SWAP2 POP POP JUMP JUMPDEST CALLER PUSH0 SWAP1 DUP2 MSTORE PUSH1 0x3 PUSH1 0x20 MSTORE PUSH1 0x40 SWAP1 KECCAK256 SLOAD PUSH1 0xFF AND ISZERO ISZERO PUSH1 0x1 EQ DUP1 PUSH2 0x356C JUMPI POP CALLER PUSH0 SWAP1 DUP2 MSTORE PUSH1 0x1 PUSH1 0x20 DUP2 SWAP1 MSTORE PUSH1 0x40 SWAP1 SWAP2 KECCAK256 SLOAD PUSH1 0xFF AND ISZERO ISZERO EQ JUMPDEST PUSH2 0x3588 JUMPI PUSH1 0x40 MLOAD PUSH3 0x461BCD PUSH1 0xE5 SHL DUP2 MSTORE PUSH1 0x4 ADD PUSH2 0x769 SWAP1 PUSH2 0x786E JUMP JUMPDEST PUSH1 0x18 PUSH0 PUSH1 0x6 DUP7 PUSH1 0x40 MLOAD PUSH2 0x359B SWAP2 SWAP1 PUSH2 0x777F JUMP JUMPDEST SWAP1 DUP2 MSTORE PUSH1 0x40 DUP1 MLOAD PUSH1 0x20 SWAP3 DUP2 SWAP1 SUB DUP4 ADD SWAP1 KECCAK256 PUSH0 DUP9 DUP2 MSTORE SWAP1 DUP4 MSTORE DUP2 DUP2 KECCAK256 PUSH1 0x3 ADD SLOAD PUSH1 0x1 PUSH1 0x1 PUSH1 0xA0 SHL SUB AND DUP5 MSTORE SWAP2 DUP4 ADD SWAP4 SWAP1 SWAP4 MSTORE SWAP1 DUP3 ADD SWAP1 KECCAK256 SWAP1 MLOAD PUSH2 0x35DE SWAP1 DUP7 SWAP1 PUSH2 0x777F JUMP JUMPDEST SWAP1 DUP2 MSTORE PUSH1 0x40 MLOAD SWAP1 DUP2 SWAP1 SUB PUSH1 0x20 ADD SWAP1 KECCAK256 SLOAD PUSH1 0xFF AND ISZERO PUSH2 0x363E JUMPI PUSH1 0x40 MLOAD PUSH3 0x461BCD PUSH1 0xE5 SHL DUP2 MSTORE PUSH1 0x20 PUSH1 0x4 DUP3 ADD MSTORE PUSH1 0x1F PUSH1 0x24 DUP3 ADD MSTORE PUSH32 0x557365722068617320616C7265616479206265656E2052656A65637465642100 PUSH1 0x44 DUP3 ADD MSTORE PUSH1 0x64 ADD PUSH2 0x769 JUMP JUMPDEST CALLER PUSH0 SWAP1 DUP2 MSTORE PUSH1 0x1C PUSH1 0x20 MSTORE PUSH1 0x40 SWAP1 DUP2 SWAP1 KECCAK256 SWAP1 MLOAD PUSH2 0x365B SWAP1 DUP7 SWAP1 PUSH2 0x777F JUMP JUMPDEST SWAP1 DUP2 MSTORE PUSH1 0x40 DUP1 MLOAD PUSH1 0x20 SWAP3 DUP2 SWAP1 SUB DUP4 ADD SWAP1 KECCAK256 PUSH0 DUP7 DUP2 MSTORE SWAP3 MSTORE SWAP1 KECCAK256 SLOAD PUSH1 0xFF AND ISZERO PUSH2 0x36B5 JUMPI PUSH1 0x40 MLOAD PUSH3 0x461BCD PUSH1 0xE5 SHL DUP2 MSTORE PUSH1 0x20 PUSH1 0x4 DUP3 ADD MSTORE PUSH1 0xD PUSH1 0x24 DUP3 ADD MSTORE PUSH13 0x105B1C9958591E48159BDD1959 PUSH1 0x9A SHL PUSH1 0x44 DUP3 ADD MSTORE PUSH1 0x64 ADD PUSH2 0x769 JUMP JUMPDEST PUSH0 PUSH2 0x36C1 PUSH1 0x2 DUP5 PUSH2 0x7795 JUMP JUMPDEST SWAP1 POP DUP5 PUSH1 0x40 MLOAD PUSH1 0x20 ADD PUSH2 0x36D4 SWAP2 SWAP1 PUSH2 0x777F JUMP JUMPDEST PUSH1 0x40 DUP1 MLOAD PUSH1 0x1F NOT DUP2 DUP5 SUB ADD DUP2 MSTORE DUP3 DUP3 MSTORE DUP1 MLOAD PUSH1 0x20 SWAP2 DUP3 ADD KECCAK256 PUSH0 DUP11 DUP2 MSTORE PUSH1 0x4 DUP4 MSTORE SWAP3 SWAP1 SWAP3 KECCAK256 SWAP2 SWAP3 PUSH2 0x3708 SWAP3 PUSH1 0x1 ADD SWAP2 ADD PUSH2 0x755B JUMP JUMPDEST PUSH1 0x40 MLOAD PUSH1 0x20 DUP2 DUP4 SUB SUB DUP2 MSTORE SWAP1 PUSH1 0x40 MSTORE DUP1 MLOAD SWAP1 PUSH1 0x20 ADD KECCAK256 EQ PUSH2 0x375A JUMPI PUSH1 0x40 MLOAD PUSH3 0x461BCD PUSH1 0xE5 SHL DUP2 MSTORE PUSH1 0x20 PUSH1 0x4 DUP3 ADD MSTORE PUSH1 0xC PUSH1 0x24 DUP3 ADD MSTORE PUSH12 0x496E76616C69642042616E6B PUSH1 0xA0 SHL PUSH1 0x44 DUP3 ADD MSTORE PUSH1 0x64 ADD PUSH2 0x769 JUMP JUMPDEST PUSH1 0x6 DUP6 PUSH1 0x40 MLOAD PUSH2 0x376A SWAP2 SWAP1 PUSH2 0x777F JUMP JUMPDEST SWAP1 DUP2 MSTORE PUSH1 0x40 DUP1 MLOAD PUSH1 0x20 SWAP3 DUP2 SWAP1 SUB DUP4 ADD SWAP1 KECCAK256 PUSH0 DUP8 DUP2 MSTORE SWAP3 MSTORE SWAP1 KECCAK256 PUSH1 0x5 ADD SLOAD PUSH1 0xFF AND ISZERO PUSH2 0x37A7 JUMPI PUSH1 0x40 MLOAD PUSH3 0x461BCD PUSH1 0xE5 SHL DUP2 MSTORE PUSH1 0x4 ADD PUSH2 0x769 SWAP1 PUSH2 0x7489 JUMP JUMPDEST PUSH1 0x6 DUP6 PUSH1 0x40 MLOAD PUSH2 0x37B7 SWAP2 SWAP1 PUSH2 0x777F JUMP JUMPDEST SWAP1 DUP2 MSTORE PUSH1 0x40 DUP1 MLOAD PUSH1 0x20 SWAP3 DUP2 SWAP1 SUB DUP4 ADD SWAP1 KECCAK256 PUSH0 DUP8 DUP2 MSTORE SWAP3 MSTORE DUP2 KECCAK256 PUSH1 0x7 ADD DUP1 SLOAD SWAP2 PUSH2 0x37DF DUP4 PUSH2 0x74D4 JUMP JUMPDEST SWAP2 SWAP1 POP SSTORE POP PUSH1 0x6 DUP6 PUSH1 0x40 MLOAD PUSH2 0x37F4 SWAP2 SWAP1 PUSH2 0x777F JUMP JUMPDEST SWAP1 DUP2 MSTORE PUSH1 0x40 DUP1 MLOAD PUSH1 0x20 SWAP3 DUP2 SWAP1 SUB DUP4 ADD SWAP1 KECCAK256 PUSH0 DUP8 DUP2 MSTORE SWAP3 MSTORE DUP2 KECCAK256 PUSH1 0x8 ADD DUP1 SLOAD SWAP2 PUSH2 0x381C DUP4 PUSH2 0x74D4 JUMP JUMPDEST SWAP2 SWAP1 POP SSTORE POP PUSH1 0x7 DUP6 PUSH1 0x40 MLOAD PUSH2 0x3831 SWAP2 SWAP1 PUSH2 0x777F JUMP JUMPDEST SWAP1 DUP2 MSTORE PUSH1 0x40 DUP1 MLOAD PUSH1 0x20 SWAP3 DUP2 SWAP1 SUB DUP4 ADD SWAP1 KECCAK256 PUSH1 0x1 PUSH1 0x1 PUSH1 0xA0 SHL SUB DUP6 AND PUSH0 SWAP1 DUP2 MSTORE SWAP3 MSTORE DUP2 KECCAK256 PUSH1 0x7 ADD DUP1 SLOAD SWAP2 PUSH2 0x3863 DUP4 PUSH2 0x74D4 JUMP JUMPDEST SWAP2 SWAP1 POP SSTORE POP PUSH1 0x7 DUP6 PUSH1 0x40 MLOAD PUSH2 0x3878 SWAP2 SWAP1 PUSH2 0x777F JUMP JUMPDEST SWAP1 DUP2 MSTORE PUSH1 0x40 DUP1 MLOAD PUSH1 0x20 SWAP3 DUP2 SWAP1 SUB DUP4 ADD SWAP1 KECCAK256 PUSH1 0x1 PUSH1 0x1 PUSH1 0xA0 SHL SUB DUP6 AND PUSH0 SWAP1 DUP2 MSTORE SWAP3 MSTORE DUP2 KECCAK256 PUSH1 0x8 ADD DUP1 SLOAD SWAP2 PUSH2 0x38AA DUP4 PUSH2 0x74D4 JUMP JUMPDEST SWAP1 SWAP2 SSTORE POP POP CALLER PUSH0 SWAP1 DUP2 MSTORE PUSH1 0x1C PUSH1 0x20 MSTORE PUSH1 0x40 SWAP1 DUP2 SWAP1 KECCAK256 SWAP1 MLOAD PUSH1 0x1 SWAP2 SWAP1 PUSH2 0x38D0 SWAP1 DUP9 SWAP1 PUSH2 0x777F JUMP JUMPDEST SWAP1 DUP2 MSTORE PUSH1 0x40 DUP1 MLOAD PUSH1 0x20 SWAP3 DUP2 SWAP1 SUB DUP4 ADD SWAP1 KECCAK256 PUSH0 DUP9 DUP2 MSTORE SWAP3 MSTORE SWAP1 KECCAK256 DUP1 SLOAD PUSH1 0xFF NOT AND SWAP2 ISZERO ISZERO SWAP2 SWAP1 SWAP2 OR SWAP1 SSTORE PUSH1 0x3 DUP4 LT DUP1 ISZERO PUSH2 0x393A JUMPI POP PUSH1 0x6 DUP6 PUSH1 0x40 MLOAD PUSH2 0x3913 SWAP2 SWAP1 PUSH2 0x777F JUMP JUMPDEST SWAP1 DUP2 MSTORE PUSH1 0x40 DUP1 MLOAD PUSH1 0x20 SWAP3 DUP2 SWAP1 SUB DUP4 ADD SWAP1 KECCAK256 PUSH0 DUP8 DUP2 MSTORE SWAP3 MSTORE SWAP1 KECCAK256 PUSH1 0x5 ADD SLOAD PUSH2 0x100 SWAP1 DIV PUSH1 0xFF AND ISZERO JUMPDEST ISZERO PUSH2 0x3B72 JUMPI PUSH0 PUSH1 0x6 DUP7 PUSH1 0x40 MLOAD PUSH2 0x3950 SWAP2 SWAP1 PUSH2 0x777F JUMP JUMPDEST SWAP1 DUP2 MSTORE PUSH1 0x40 DUP1 MLOAD PUSH1 0x20 SWAP3 DUP2 SWAP1 SUB DUP4 ADD DUP2 KECCAK256 PUSH0 DUP10 DUP2 MSTORE SWAP4 MSTORE SWAP2 KECCAK256 PUSH1 0x5 ADD DUP1 SLOAD PUSH1 0xFF NOT AND SWAP3 ISZERO ISZERO SWAP3 SWAP1 SWAP3 OR SWAP1 SWAP2 SSTORE PUSH1 0x1 SWAP1 PUSH1 0x6 SWAP1 PUSH2 0x398D SWAP1 DUP9 SWAP1 PUSH2 0x777F JUMP JUMPDEST SWAP1 DUP2 MSTORE PUSH1 0x40 DUP1 MLOAD SWAP2 DUP3 SWAP1 SUB PUSH1 0x20 SWAP1 DUP2 ADD DUP4 KECCAK256 PUSH0 DUP10 DUP2 MSTORE SWAP2 MSTORE KECCAK256 PUSH1 0x5 ADD DUP1 SLOAD SWAP3 ISZERO ISZERO PUSH2 0x100 MUL PUSH2 0xFF00 NOT SWAP1 SWAP4 AND SWAP3 SWAP1 SWAP3 OR SWAP1 SWAP2 SSTORE PUSH1 0x1 SWAP1 PUSH1 0x6 SWAP1 PUSH2 0x39D1 SWAP1 DUP9 SWAP1 PUSH2 0x777F JUMP JUMPDEST SWAP1 DUP2 MSTORE PUSH1 0x40 DUP1 MLOAD PUSH1 0x20 SWAP3 DUP2 SWAP1 SUB DUP4 ADD DUP2 KECCAK256 PUSH0 DUP10 DUP2 MSTORE SWAP4 MSTORE SWAP1 DUP3 KECCAK256 PUSH1 0x9 ADD DUP1 SLOAD PUSH1 0xFF NOT AND SWAP4 ISZERO ISZERO SWAP4 SWAP1 SWAP4 OR SWAP1 SWAP3 SSTORE SWAP1 PUSH1 0x7 SWAP1 PUSH2 0x3A0D SWAP1 DUP9 SWAP1 PUSH2 0x777F JUMP JUMPDEST SWAP1 DUP2 MSTORE PUSH1 0x40 DUP1 MLOAD PUSH1 0x20 SWAP3 DUP2 SWAP1 SUB DUP4 ADD DUP2 KECCAK256 PUSH1 0x1 PUSH1 0x1 PUSH1 0xA0 SHL SUB DUP8 AND PUSH0 SWAP1 DUP2 MSTORE SWAP4 MSTORE SWAP2 KECCAK256 PUSH1 0x5 ADD DUP1 SLOAD PUSH1 0xFF NOT AND SWAP3 ISZERO ISZERO SWAP3 SWAP1 SWAP3 OR SWAP1 SWAP2 SSTORE PUSH1 0x1 SWAP1 PUSH1 0x7 SWAP1 PUSH2 0x3A54 SWAP1 DUP9 SWAP1 PUSH2 0x777F JUMP JUMPDEST SWAP1 DUP2 MSTORE PUSH1 0x40 DUP1 MLOAD SWAP2 DUP3 SWAP1 SUB PUSH1 0x20 SWAP1 DUP2 ADD DUP4 KECCAK256 PUSH1 0x1 PUSH1 0x1 PUSH1 0xA0 SHL SUB DUP8 AND PUSH0 SWAP1 DUP2 MSTORE SWAP2 MSTORE KECCAK256 PUSH1 0x5 ADD DUP1 SLOAD SWAP3 ISZERO ISZERO PUSH2 0x100 MUL PUSH2 0xFF00 NOT SWAP1 SWAP4 AND SWAP3 SWAP1 SWAP3 OR SWAP1 SWAP2 SSTORE PUSH1 0x1 SWAP1 PUSH1 0x7 SWAP1 PUSH2 0x3AA2 SWAP1 DUP9 SWAP1 PUSH2 0x777F JUMP JUMPDEST SWAP1 DUP2 MSTORE PUSH1 0x40 DUP1 MLOAD PUSH1 0x20 SWAP3 DUP2 SWAP1 SUB DUP4 ADD DUP2 KECCAK256 PUSH1 0x1 PUSH1 0x1 PUSH1 0xA0 SHL SUB DUP8 AND PUSH0 SWAP1 DUP2 MSTORE SWAP4 MSTORE SWAP1 DUP3 KECCAK256 PUSH1 0x9 ADD DUP1 SLOAD PUSH1 0xFF NOT AND SWAP4 ISZERO ISZERO SWAP4 SWAP1 SWAP4 OR SWAP1 SWAP3 SSTORE PUSH1 0x1 SWAP2 PUSH1 0x18 SWAP2 SWAP1 PUSH1 0x6 SWAP1 PUSH2 0x3AEE SWAP1 DUP11 SWAP1 PUSH2 0x777F JUMP JUMPDEST SWAP1 DUP2 MSTORE PUSH1 0x40 DUP1 MLOAD PUSH1 0x20 SWAP3 DUP2 SWAP1 SUB DUP4 ADD SWAP1 KECCAK256 PUSH0 DUP11 DUP2 MSTORE SWAP1 DUP4 MSTORE DUP2 DUP2 KECCAK256 PUSH1 0x3 ADD SLOAD PUSH1 0x1 PUSH1 0x1 PUSH1 0xA0 SHL SUB AND DUP5 MSTORE SWAP2 DUP4 ADD SWAP4 SWAP1 SWAP4 MSTORE SWAP1 DUP3 ADD SWAP1 KECCAK256 SWAP1 MLOAD PUSH2 0x3B31 SWAP1 DUP9 SWAP1 PUSH2 0x777F JUMP JUMPDEST SWAP1 DUP2 MSTORE PUSH1 0x40 MLOAD PUSH1 0x20 SWAP2 DUP2 SWAP1 SUB DUP3 ADD DUP2 KECCAK256 DUP1 SLOAD PUSH1 0xFF NOT AND SWAP4 ISZERO ISZERO SWAP4 SWAP1 SWAP4 OR SWAP1 SWAP3 SSTORE DUP6 DUP3 MSTORE PUSH0 DUP1 MLOAD PUSH1 0x20 PUSH2 0x7A33 DUP4 CODECOPY DUP2 MLOAD SWAP2 MSTORE SWAP2 ADD JUMPDEST PUSH1 0x40 MLOAD DUP1 SWAP2 SUB SWAP1 LOG1 PUSH2 0x40C7 JUMP JUMPDEST PUSH2 0x3B7D DUP2 PUSH1 0x1 PUSH2 0x77B4 JUMP JUMPDEST PUSH1 0x6 DUP7 PUSH1 0x40 MLOAD PUSH2 0x3B8D SWAP2 SWAP1 PUSH2 0x777F JUMP JUMPDEST SWAP1 DUP2 MSTORE PUSH1 0x20 ADD PUSH1 0x40 MLOAD DUP1 SWAP2 SUB SWAP1 KECCAK256 PUSH0 DUP7 DUP2 MSTORE PUSH1 0x20 ADD SWAP1 DUP2 MSTORE PUSH1 0x20 ADD PUSH0 KECCAK256 PUSH1 0x7 ADD SLOAD LT ISZERO DUP1 ISZERO PUSH2 0x3BEB JUMPI POP DUP3 PUSH1 0x6 DUP7 PUSH1 0x40 MLOAD PUSH2 0x3BC8 SWAP2 SWAP1 PUSH2 0x777F JUMP JUMPDEST SWAP1 DUP2 MSTORE PUSH1 0x20 ADD PUSH1 0x40 MLOAD DUP1 SWAP2 SUB SWAP1 KECCAK256 PUSH0 DUP7 DUP2 MSTORE PUSH1 0x20 ADD SWAP1 DUP2 MSTORE PUSH1 0x20 ADD PUSH0 KECCAK256 PUSH1 0x8 ADD SLOAD EQ JUMPDEST DUP1 ISZERO PUSH2 0x3C31 JUMPI POP PUSH2 0x3BFD DUP2 PUSH1 0x1 PUSH2 0x77B4 JUMP JUMPDEST PUSH1 0x6 DUP7 PUSH1 0x40 MLOAD PUSH2 0x3C0D SWAP2 SWAP1 PUSH2 0x777F JUMP JUMPDEST SWAP1 DUP2 MSTORE PUSH1 0x20 ADD PUSH1 0x40 MLOAD DUP1 SWAP2 SUB SWAP1 KECCAK256 PUSH0 DUP7 DUP2 MSTORE PUSH1 0x20 ADD SWAP1 DUP2 MSTORE PUSH1 0x20 ADD PUSH0 KECCAK256 PUSH1 0x7 ADD SLOAD LT ISZERO JUMPDEST ISZERO PUSH2 0x3C47 JUMPI PUSH0 PUSH1 0x6 DUP7 PUSH1 0x40 MLOAD PUSH2 0x3950 SWAP2 SWAP1 PUSH2 0x777F JUMP JUMPDEST DUP3 PUSH1 0x6 DUP7 PUSH1 0x40 MLOAD PUSH2 0x3C58 SWAP2 SWAP1 PUSH2 0x777F JUMP JUMPDEST SWAP1 DUP2 MSTORE PUSH1 0x20 ADD PUSH1 0x40 MLOAD DUP1 SWAP2 SUB SWAP1 KECCAK256 PUSH0 DUP7 DUP2 MSTORE PUSH1 0x20 ADD SWAP1 DUP2 MSTORE PUSH1 0x20 ADD PUSH0 KECCAK256 PUSH1 0x8 ADD SLOAD EQ DUP1 ISZERO PUSH2 0x3CC0 JUMPI POP PUSH2 0x3C8C DUP2 PUSH1 0x1 PUSH2 0x77B4 JUMP JUMPDEST PUSH1 0x6 DUP7 PUSH1 0x40 MLOAD PUSH2 0x3C9C SWAP2 SWAP1 PUSH2 0x777F JUMP JUMPDEST SWAP1 DUP2 MSTORE PUSH1 0x20 ADD PUSH1 0x40 MLOAD DUP1 SWAP2 SUB SWAP1 KECCAK256 PUSH0 DUP7 DUP2 MSTORE PUSH1 0x20 ADD SWAP1 DUP2 MSTORE PUSH1 0x20 ADD PUSH0 KECCAK256 PUSH1 0x7 ADD SLOAD LT ISZERO JUMPDEST ISZERO PUSH2 0x3DDA JUMPI PUSH1 0x1 PUSH1 0x6 DUP7 PUSH1 0x40 MLOAD PUSH2 0x3CD7 SWAP2 SWAP1 PUSH2 0x777F JUMP JUMPDEST SWAP1 DUP2 MSTORE PUSH1 0x40 DUP1 MLOAD PUSH1 0x20 SWAP3 DUP2 SWAP1 SUB DUP4 ADD DUP2 KECCAK256 PUSH0 DUP10 DUP2 MSTORE SWAP4 MSTORE SWAP1 DUP3 KECCAK256 PUSH1 0x5 ADD DUP1 SLOAD PUSH1 0xFF NOT AND SWAP4 ISZERO ISZERO SWAP4 SWAP1 SWAP4 OR SWAP1 SWAP3 SSTORE SWAP1 PUSH1 0x6 SWAP1 PUSH2 0x3D13 SWAP1 DUP9 SWAP1 PUSH2 0x777F JUMP JUMPDEST SWAP1 DUP2 MSTORE PUSH1 0x40 DUP1 MLOAD SWAP2 DUP3 SWAP1 SUB PUSH1 0x20 SWAP1 DUP2 ADD DUP4 KECCAK256 PUSH0 DUP10 DUP2 MSTORE SWAP2 MSTORE KECCAK256 PUSH1 0x5 ADD DUP1 SLOAD SWAP3 ISZERO ISZERO PUSH2 0x100 MUL PUSH2 0xFF00 NOT SWAP1 SWAP4 AND SWAP3 SWAP1 SWAP3 OR SWAP1 SWAP2 SSTORE PUSH1 0x1 SWAP1 PUSH1 0x6 SWAP1 PUSH2 0x3D57 SWAP1 DUP9 SWAP1 PUSH2 0x777F JUMP JUMPDEST SWAP1 DUP2 MSTORE PUSH1 0x40 DUP1 MLOAD PUSH1 0x20 SWAP3 DUP2 SWAP1 SUB DUP4 ADD DUP2 KECCAK256 PUSH0 DUP10 DUP2 MSTORE SWAP4 MSTORE SWAP2 KECCAK256 PUSH1 0x9 ADD DUP1 SLOAD PUSH1 0xFF NOT AND SWAP3 ISZERO ISZERO SWAP3 SWAP1 SWAP3 OR SWAP1 SWAP2 SSTORE PUSH1 0x1 SWAP1 PUSH1 0x7 SWAP1 PUSH2 0x3D94 SWAP1 DUP9 SWAP1 PUSH2 0x777F JUMP JUMPDEST SWAP1 DUP2 MSTORE PUSH1 0x40 DUP1 MLOAD PUSH1 0x20 SWAP3 DUP2 SWAP1 SUB DUP4 ADD DUP2 KECCAK256 PUSH1 0x1 PUSH1 0x1 PUSH1 0xA0 SHL SUB DUP8 AND PUSH0 SWAP1 DUP2 MSTORE SWAP4 MSTORE SWAP1 DUP3 KECCAK256 PUSH1 0x5 ADD DUP1 SLOAD PUSH1 0xFF NOT AND SWAP4 ISZERO ISZERO SWAP4 SWAP1 SWAP4 OR SWAP1 SWAP3 SSTORE SWAP1 PUSH1 0x7 SWAP1 PUSH2 0x3A54 SWAP1 DUP9 SWAP1 PUSH2 0x777F JUMP JUMPDEST DUP3 PUSH1 0x6 DUP7 PUSH1 0x40 MLOAD PUSH2 0x3DEB SWAP2 SWAP1 PUSH2 0x777F JUMP JUMPDEST SWAP1 DUP2 MSTORE PUSH1 0x20 ADD PUSH1 0x40 MLOAD DUP1 SWAP2 SUB SWAP1 KECCAK256 PUSH0 DUP7 DUP2 MSTORE PUSH1 0x20 ADD SWAP1 DUP2 MSTORE PUSH1 0x20 ADD PUSH0 KECCAK256 PUSH1 0x8 ADD SLOAD SUB PUSH2 0x3FC5 JUMPI PUSH1 0x1 PUSH1 0x6 DUP7 PUSH1 0x40 MLOAD PUSH2 0x3E23 SWAP2 SWAP1 PUSH2 0x777F JUMP JUMPDEST SWAP1 DUP2 MSTORE PUSH1 0x40 DUP1 MLOAD PUSH1 0x20 SWAP3 DUP2 SWAP1 SUB DUP4 ADD DUP2 KECCAK256 PUSH0 DUP10 DUP2 MSTORE SWAP4 MSTORE SWAP1 DUP3 KECCAK256 PUSH1 0x5 ADD DUP1 SLOAD PUSH1 0xFF NOT AND SWAP4 ISZERO ISZERO SWAP4 SWAP1 SWAP4 OR SWAP1 SWAP3 SSTORE SWAP1 PUSH1 0x6 SWAP1 PUSH2 0x3E5F SWAP1 DUP9 SWAP1 PUSH2 0x777F JUMP JUMPDEST SWAP1 DUP2 MSTORE PUSH1 0x40 DUP1 MLOAD SWAP2 DUP3 SWAP1 SUB PUSH1 0x20 SWAP1 DUP2 ADD DUP4 KECCAK256 PUSH0 DUP10 DUP2 MSTORE SWAP2 MSTORE KECCAK256 PUSH1 0x5 ADD DUP1 SLOAD SWAP3 ISZERO ISZERO PUSH2 0x100 MUL PUSH2 0xFF00 NOT SWAP1 SWAP4 AND SWAP3 SWAP1 SWAP3 OR SWAP1 SWAP2 SSTORE PUSH1 0x1 SWAP1 PUSH1 0x6 SWAP1 PUSH2 0x3EA3 SWAP1 DUP9 SWAP1 PUSH2 0x777F JUMP JUMPDEST SWAP1 DUP2 MSTORE PUSH1 0x40 DUP1 MLOAD PUSH1 0x20 SWAP3 DUP2 SWAP1 SUB DUP4 ADD DUP2 KECCAK256 PUSH0 DUP10 DUP2 MSTORE SWAP4 MSTORE SWAP2 KECCAK256 PUSH1 0x9 ADD DUP1 SLOAD PUSH1 0xFF NOT AND SWAP3 ISZERO ISZERO SWAP3 SWAP1 SWAP3 OR SWAP1 SWAP2 SSTORE PUSH1 0x1 SWAP1 PUSH1 0x7 SWAP1 PUSH2 0x3EE0 SWAP1 DUP9 SWAP1 PUSH2 0x777F JUMP JUMPDEST SWAP1 DUP2 MSTORE PUSH1 0x40 DUP1 MLOAD PUSH1 0x20 SWAP3 DUP2 SWAP1 SUB DUP4 ADD DUP2 KECCAK256 PUSH1 0x1 PUSH1 0x1 PUSH1 0xA0 SHL SUB DUP8 AND PUSH0 SWAP1 DUP2 MSTORE SWAP4 MSTORE SWAP1 DUP3 KECCAK256 PUSH1 0x5 ADD DUP1 SLOAD PUSH1 0xFF NOT AND SWAP4 ISZERO ISZERO SWAP4 SWAP1 SWAP4 OR SWAP1 SWAP3 SSTORE SWAP1 PUSH1 0x7 SWAP1 PUSH2 0x3F26 SWAP1 DUP9 SWAP1 PUSH2 0x777F JUMP JUMPDEST SWAP1 DUP2 MSTORE PUSH1 0x40 DUP1 MLOAD SWAP2 DUP3 SWAP1 SUB PUSH1 0x20 SWAP1 DUP2 ADD DUP4 KECCAK256 PUSH1 0x1 PUSH1 0x1 PUSH1 0xA0 SHL SUB DUP8 AND PUSH0 SWAP1 DUP2 MSTORE SWAP2 MSTORE KECCAK256 PUSH1 0x5 ADD DUP1 SLOAD SWAP3 ISZERO ISZERO PUSH2 0x100 MUL PUSH2 0xFF00 NOT SWAP1 SWAP4 AND SWAP3 SWAP1 SWAP3 OR SWAP1 SWAP2 SSTORE PUSH1 0x1 SWAP1 PUSH1 0x7 SWAP1 PUSH2 0x3F74 SWAP1 DUP9 SWAP1 PUSH2 0x777F JUMP JUMPDEST SWAP1 DUP2 MSTORE PUSH1 0x40 DUP1 MLOAD PUSH1 0x20 SWAP3 DUP2 SWAP1 SUB DUP4 ADD DUP2 KECCAK256 PUSH1 0x1 PUSH1 0x1 PUSH1 0xA0 SHL SUB DUP8 AND PUSH0 SWAP1 DUP2 MSTORE SWAP1 DUP5 MSTORE SWAP2 SWAP1 SWAP2 KECCAK256 PUSH1 0x9 ADD DUP1 SLOAD PUSH1 0xFF NOT AND SWAP4 ISZERO ISZERO SWAP4 SWAP1 SWAP4 OR SWAP1 SWAP3 SSTORE DUP6 DUP3 MSTORE PUSH0 DUP1 MLOAD PUSH1 0x20 PUSH2 0x7A33 DUP4 CODECOPY DUP2 MLOAD SWAP2 MSTORE SWAP2 ADD PUSH2 0x3B65 JUMP JUMPDEST DUP3 PUSH1 0x6 DUP7 PUSH1 0x40 MLOAD PUSH2 0x3FD6 SWAP2 SWAP1 PUSH2 0x777F JUMP JUMPDEST SWAP1 DUP2 MSTORE PUSH1 0x20 ADD PUSH1 0x40 MLOAD DUP1 SWAP2 SUB SWAP1 KECCAK256 PUSH0 DUP7 DUP2 MSTORE PUSH1 0x20 ADD SWAP1 DUP2 MSTORE PUSH1 0x20 ADD PUSH0 KECCAK256 PUSH1 0x8 ADD SLOAD EQ DUP1 ISZERO PUSH2 0x405E JUMPI POP PUSH1 0x6 DUP6 PUSH1 0x40 MLOAD PUSH2 0x400F SWAP2 SWAP1 PUSH2 0x777F JUMP JUMPDEST SWAP1 DUP2 MSTORE PUSH1 0x40 DUP1 MLOAD SWAP2 DUP3 SWAP1 SUB PUSH1 0x20 SWAP1 DUP2 ADD DUP4 KECCAK256 PUSH0 DUP9 DUP2 MSTORE SWAP2 MSTORE KECCAK256 PUSH1 0x7 ADD SLOAD SWAP1 PUSH1 0x6 SWAP1 PUSH2 0x403B SWAP1 DUP9 SWAP1 PUSH2 0x777F JUMP JUMPDEST SWAP1 DUP2 MSTORE PUSH1 0x20 ADD PUSH1 0x40 MLOAD DUP1 SWAP2 SUB SWAP1 KECCAK256 PUSH0 DUP7 DUP2 MSTORE PUSH1 0x20 ADD SWAP1 DUP2 MSTORE PUSH1 0x20 ADD PUSH0 KECCAK256 PUSH1 0x6 ADD SLOAD EQ JUMPDEST ISZERO PUSH2 0x40C7 JUMPI PUSH1 0x40 MLOAD PUSH3 0x461BCD PUSH1 0xE5 SHL DUP2 MSTORE PUSH1 0x20 PUSH1 0x4 DUP3 ADD MSTORE PUSH1 0x33 PUSH1 0x24 DUP3 ADD MSTORE PUSH32 0x457175616C20566F74696E67205363656E6172696F2041736B7320666F72204F PUSH1 0x44 DUP3 ADD MSTORE PUSH19 0x6E65206D6F72652041646D696E20566F746521 PUSH1 0x68 SHL PUSH1 0x64 DUP3 ADD MSTORE PUSH1 0x84 ADD PUSH2 0x769 JUMP JUMPDEST POP POP POP POP POP POP JUMP JUMPDEST CALLER PUSH0 SWAP1 DUP2 MSTORE PUSH1 0x1 PUSH1 0x20 MSTORE PUSH1 0x40 DUP2 KECCAK256 SLOAD PUSH1 0xFF AND PUSH2 0x40FD JUMPI PUSH1 0x40 MLOAD PUSH3 0x461BCD PUSH1 0xE5 SHL DUP2 MSTORE PUSH1 0x4 ADD PUSH2 0x769 SWAP1 PUSH2 0x7738 JUMP JUMPDEST PUSH1 0xC DUP3 PUSH1 0x40 MLOAD PUSH2 0x410D SWAP2 SWAP1 PUSH2 0x777F JUMP JUMPDEST SWAP1 DUP2 MSTORE PUSH1 0x20 ADD PUSH1 0x40 MLOAD DUP1 SWAP2 SUB SWAP1 KECCAK256 SLOAD SWAP1 POP SWAP2 SWAP1 POP JUMP JUMPDEST PUSH2 0x4180 PUSH1 0x40 MLOAD DUP1 PUSH2 0x140 ADD PUSH1 0x40 MSTORE DUP1 PUSH0 DUP2 MSTORE PUSH1 0x20 ADD PUSH1 0x60 DUP2 MSTORE PUSH1 0x20 ADD PUSH0 PUSH1 0x1 PUSH1 0x1 PUSH1 0xA0 SHL SUB AND DUP2 MSTORE PUSH1 0x20 ADD PUSH0 DUP2 MSTORE PUSH1 0x20 ADD PUSH0 ISZERO ISZERO DUP2 MSTORE PUSH1 0x20 ADD PUSH0 ISZERO ISZERO DUP2 MSTORE PUSH1 0x20 ADD PUSH0 DUP2 MSTORE PUSH1 0x20 ADD PUSH1 0x60 DUP2 MSTORE PUSH1 0x20 ADD PUSH0 DUP2 MSTORE PUSH1 0x20 ADD PUSH0 ISZERO ISZERO DUP2 MSTORE POP SWAP1 JUMP JUMPDEST CALLER PUSH0 SWAP1 DUP2 MSTORE PUSH1 0x2 PUSH1 0x20 MSTORE PUSH1 0x40 SWAP1 KECCAK256 SLOAD PUSH1 0xFF AND PUSH2 0x41AE JUMPI PUSH1 0x40 MLOAD PUSH3 0x461BCD PUSH1 0xE5 SHL DUP2 MSTORE PUSH1 0x4 ADD PUSH2 0x769 SWAP1 PUSH2 0x7443 JUMP JUMPDEST PUSH1 0x4 PUSH0 DUP4 DUP2 MSTORE PUSH1 0x20 ADD SWAP1 DUP2 MSTORE PUSH1 0x20 ADD PUSH0 KECCAK256 PUSH1 0x40 MLOAD DUP1 PUSH2 0x140 ADD PUSH1 0x40 MSTORE SWAP1 DUP2 PUSH0 DUP3 ADD SLOAD DUP2 MSTORE PUSH1 0x20 ADD PUSH1 0x1 DUP3 ADD DUP1 SLOAD PUSH2 0x41E4 SWAP1 PUSH2 0x740B JUMP JUMPDEST DUP1 PUSH1 0x1F ADD PUSH1 0x20 DUP1 SWAP2 DIV MUL PUSH1 0x20 ADD PUSH1 0x40 MLOAD SWAP1 DUP2 ADD PUSH1 0x40 MSTORE DUP1 SWAP3 SWAP2 SWAP1 DUP2 DUP2 MSTORE PUSH1 0x20 ADD DUP3 DUP1 SLOAD PUSH2 0x4210 SWAP1 PUSH2 0x740B JUMP JUMPDEST DUP1 ISZERO PUSH2 0x425B JUMPI DUP1 PUSH1 0x1F LT PUSH2 0x4232 JUMPI PUSH2 0x100 DUP1 DUP4 SLOAD DIV MUL DUP4 MSTORE SWAP2 PUSH1 0x20 ADD SWAP2 PUSH2 0x425B JUMP JUMPDEST DUP3 ADD SWAP2 SWAP1 PUSH0 MSTORE PUSH1 0x20 PUSH0 KECCAK256 SWAP1 JUMPDEST DUP2 SLOAD DUP2 MSTORE SWAP1 PUSH1 0x1 ADD SWAP1 PUSH1 0x20 ADD DUP1 DUP4 GT PUSH2 0x423E JUMPI DUP3 SWAP1 SUB PUSH1 0x1F AND DUP3 ADD SWAP2 JUMPDEST POP POP POP SWAP2 DUP4 MSTORE POP POP PUSH1 0x2 DUP3 ADD SLOAD PUSH1 0x1 PUSH1 0x1 PUSH1 0xA0 SHL SUB AND PUSH1 0x20 DUP3 ADD MSTORE PUSH1 0x3 DUP3 ADD SLOAD PUSH1 0x40 DUP3 ADD MSTORE PUSH1 0x4 DUP3 ADD SLOAD PUSH1 0xFF DUP1 DUP3 AND ISZERO ISZERO PUSH1 0x60 DUP5 ADD MSTORE PUSH2 0x100 SWAP1 SWAP2 DIV AND ISZERO ISZERO PUSH1 0x80 DUP3 ADD MSTORE PUSH1 0x5 DUP3 ADD SLOAD PUSH1 0xA0 DUP3 ADD MSTORE PUSH1 0x6 DUP3 ADD DUP1 SLOAD PUSH1 0xC0 SWAP1 SWAP3 ADD SWAP2 PUSH2 0x42BE SWAP1 PUSH2 0x740B JUMP JUMPDEST DUP1 PUSH1 0x1F ADD PUSH1 0x20 DUP1 SWAP2 DIV MUL PUSH1 0x20 ADD PUSH1 0x40 MLOAD SWAP1 DUP2 ADD PUSH1 0x40 MSTORE DUP1 SWAP3 SWAP2 SWAP1 DUP2 DUP2 MSTORE PUSH1 0x20 ADD DUP3 DUP1 SLOAD PUSH2 0x42EA SWAP1 PUSH2 0x740B JUMP JUMPDEST DUP1 ISZERO PUSH2 0x4335 JUMPI DUP1 PUSH1 0x1F LT PUSH2 0x430C JUMPI PUSH2 0x100 DUP1 DUP4 SLOAD DIV MUL DUP4 MSTORE SWAP2 PUSH1 0x20 ADD SWAP2 PUSH2 0x4335 JUMP JUMPDEST DUP3 ADD SWAP2 SWAP1 PUSH0 MSTORE PUSH1 0x20 PUSH0 KECCAK256 SWAP1 JUMPDEST DUP2 SLOAD DUP2 MSTORE SWAP1 PUSH1 0x1 ADD SWAP1 PUSH1 0x20 ADD DUP1 DUP4 GT PUSH2 0x4318 JUMPI DUP3 SWAP1 SUB PUSH1 0x1F AND DUP3 ADD SWAP2 JUMPDEST POP POP POP SWAP2 DUP4 MSTORE POP POP PUSH1 0x7 DUP3 ADD SLOAD PUSH1 0x20 DUP3 ADD MSTORE PUSH1 0x8 SWAP1 SWAP2 ADD SLOAD PUSH1 0xFF AND ISZERO ISZERO PUSH1 0x40 SWAP1 SWAP2 ADD MSTORE SWAP3 SWAP2 POP POP JUMP JUMPDEST DUP3 MLOAD PUSH1 0x20 DUP2 DUP6 ADD DUP2 ADD DUP1 MLOAD PUSH1 0x1A DUP3 MSTORE SWAP3 DUP3 ADD DUP3 DUP8 ADD KECCAK256 SWAP3 SWAP1 MSTORE MSTORE PUSH0 DUP3 DUP2 MSTORE PUSH1 0x40 SWAP1 KECCAK256 DUP1 SLOAD DUP3 SWAP1 DUP2 LT PUSH2 0x438E JUMPI PUSH0 DUP1 REVERT JUMPDEST SWAP1 PUSH0 MSTORE PUSH1 0x20 PUSH0 KECCAK256 ADD PUSH0 SWAP3 POP SWAP3 POP POP POP DUP1 SLOAD PUSH2 0x43A8 SWAP1 PUSH2 0x740B JUMP JUMPDEST DUP1 PUSH1 0x1F ADD PUSH1 0x20 DUP1 SWAP2 DIV MUL PUSH1 0x20 ADD PUSH1 0x40 MLOAD SWAP1 DUP2 ADD PUSH1 0x40 MSTORE DUP1 SWAP3 SWAP2 SWAP1 DUP2 DUP2 MSTORE PUSH1 0x20 ADD DUP3 DUP1 SLOAD PUSH2 0x43D4 SWAP1 PUSH2 0x740B JUMP JUMPDEST DUP1 ISZERO PUSH2 0x441F JUMPI DUP1 PUSH1 0x1F LT PUSH2 0x43F6 JUMPI PUSH2 0x100 DUP1 DUP4 SLOAD DIV MUL DUP4 MSTORE SWAP2 PUSH1 0x20 ADD SWAP2 PUSH2 0x441F JUMP JUMPDEST DUP3 ADD SWAP2 SWAP1 PUSH0 MSTORE PUSH1 0x20 PUSH0 KECCAK256 SWAP1 JUMPDEST DUP2 SLOAD DUP2 MSTORE SWAP1 PUSH1 0x1 ADD SWAP1 PUSH1 0x20 ADD DUP1 DUP4 GT PUSH2 0x4402 JUMPI DUP3 SWAP1 SUB PUSH1 0x1F AND DUP3 ADD SWAP2 JUMPDEST POP POP POP POP POP DUP2 JUMP JUMPDEST CALLER PUSH0 SWAP1 DUP2 MSTORE PUSH1 0x12 PUSH1 0x20 MSTORE PUSH1 0x40 SWAP1 KECCAK256 SLOAD PUSH1 0xFF AND ISZERO PUSH2 0x4486 JUMPI PUSH1 0x40 MLOAD PUSH3 0x461BCD PUSH1 0xE5 SHL DUP2 MSTORE PUSH1 0x20 PUSH1 0x4 DUP3 ADD MSTORE PUSH1 0x1B PUSH1 0x24 DUP3 ADD MSTORE PUSH32 0x6F776E65722063616E6E6F742072657175657374206120726F6C650000000000 PUSH1 0x44 DUP3 ADD MSTORE PUSH1 0x64 ADD PUSH2 0x769 JUMP JUMPDEST CALLER PUSH0 SWAP1 DUP2 MSTORE PUSH1 0x2 PUSH1 0x20 MSTORE PUSH1 0x40 SWAP1 KECCAK256 SLOAD PUSH1 0xFF AND ISZERO PUSH2 0x44B5 JUMPI PUSH1 0x40 MLOAD PUSH3 0x461BCD PUSH1 0xE5 SHL DUP2 MSTORE PUSH1 0x4 ADD PUSH2 0x769 SWAP1 PUSH2 0x78AF JUMP JUMPDEST CALLER PUSH0 SWAP1 DUP2 MSTORE PUSH1 0x1 PUSH1 0x20 MSTORE PUSH1 0x40 SWAP1 KECCAK256 SLOAD PUSH1 0xFF AND ISZERO PUSH2 0x44E4 JUMPI PUSH1 0x40 MLOAD PUSH3 0x461BCD PUSH1 0xE5 SHL DUP2 MSTORE PUSH1 0x4 ADD PUSH2 0x769 SWAP1 PUSH2 0x78F4 JUMP JUMPDEST DUP4 MLOAD PUSH1 0x20 DUP6 ADD KECCAK256 PUSH32 0xCB61AD33D3763AED2BC16C0F57FF251AC638D3D03AB7550ADFD3E166C2E7ADB6 EQ PUSH2 0x4555 JUMPI PUSH1 0x40 MLOAD PUSH3 0x461BCD PUSH1 0xE5 SHL DUP2 MSTORE PUSH1 0x20 PUSH1 0x4 DUP3 ADD MSTORE PUSH1 0x19 PUSH1 0x24 DUP3 ADD MSTORE PUSH25 0x496E76616C696420726F6C6520726571756573742074797065 PUSH1 0x38 SHL PUSH1 0x44 DUP3 ADD MSTORE PUSH1 0x64 ADD PUSH2 0x769 JUMP JUMPDEST PUSH1 0xC DUP6 PUSH1 0x40 MLOAD PUSH2 0x4565 SWAP2 SWAP1 PUSH2 0x777F JUMP JUMPDEST SWAP1 DUP2 MSTORE PUSH1 0x40 MLOAD SWAP1 DUP2 SWAP1 SUB PUSH1 0x20 ADD SWAP1 KECCAK256 DUP1 SLOAD SWAP1 PUSH0 PUSH2 0x4581 DUP4 PUSH2 0x74D4 JUMP JUMPDEST SWAP2 SWAP1 POP SSTORE POP PUSH0 DUP5 MLOAD GT PUSH2 0x45D2 JUMPI PUSH1 0x40 MLOAD PUSH3 0x461BCD PUSH1 0xE5 SHL DUP2 MSTORE PUSH1 0x20 PUSH1 0x4 DUP3 ADD MSTORE PUSH1 0x19 PUSH1 0x24 DUP3 ADD MSTORE PUSH25 0x526F6C6520747970652063616E6E6F7420626520656D707479 PUSH1 0x38 SHL PUSH1 0x44 DUP3 ADD MSTORE PUSH1 0x64 ADD PUSH2 0x769 JUMP JUMPDEST PUSH0 JUMPDEST PUSH1 0xC DUP7 PUSH1 0x40 MLOAD PUSH2 0x45E4 SWAP2 SWAP1 PUSH2 0x777F JUMP JUMPDEST SWAP1 DUP2 MSTORE PUSH1 0x20 ADD PUSH1 0x40 MLOAD DUP1 SWAP2 SUB SWAP1 KECCAK256 SLOAD DUP2 LT ISZERO PUSH2 0x4983 JUMPI DUP3 DUP1 MLOAD SWAP1 PUSH1 0x20 ADD KECCAK256 PUSH1 0xB DUP8 PUSH1 0x40 MLOAD PUSH2 0x4612 SWAP2 SWAP1 PUSH2 0x777F JUMP JUMPDEST SWAP1 DUP2 MSTORE PUSH1 0x40 DUP1 MLOAD SWAP2 DUP3 SWAP1 SUB PUSH1 0x20 SWAP1 DUP2 ADD DUP4 KECCAK256 PUSH0 DUP7 DUP2 MSTORE SWAP2 MSTORE KECCAK256 PUSH2 0x463A SWAP2 PUSH1 0x9 SWAP1 SWAP2 ADD SWAP1 PUSH2 0x755B JUMP JUMPDEST PUSH1 0x40 MLOAD DUP1 SWAP2 SUB SWAP1 KECCAK256 SUB PUSH2 0x468F JUMPI PUSH1 0x40 MLOAD PUSH3 0x461BCD PUSH1 0xE5 SHL DUP2 MSTORE PUSH1 0x20 PUSH1 0x4 DUP3 ADD MSTORE PUSH1 0x1C PUSH1 0x24 DUP3 ADD MSTORE PUSH32 0x55736572205265717565737420416C72656164792050726573656E7400000000 PUSH1 0x44 DUP3 ADD MSTORE PUSH1 0x64 ADD PUSH2 0x769 JUMP JUMPDEST DUP2 DUP1 MLOAD SWAP1 PUSH1 0x20 ADD KECCAK256 PUSH1 0xB DUP8 PUSH1 0x40 MLOAD PUSH2 0x46A7 SWAP2 SWAP1 PUSH2 0x777F JUMP JUMPDEST SWAP1 DUP2 MSTORE PUSH1 0x40 DUP1 MLOAD SWAP2 DUP3 SWAP1 SUB PUSH1 0x20 SWAP1 DUP2 ADD DUP4 KECCAK256 PUSH0 DUP7 DUP2 MSTORE SWAP2 MSTORE KECCAK256 PUSH2 0x46CF SWAP2 PUSH1 0x1 SWAP1 SWAP2 ADD SWAP1 PUSH2 0x755B JUMP JUMPDEST PUSH1 0x40 MLOAD DUP1 SWAP2 SUB SWAP1 KECCAK256 SUB PUSH2 0x473A JUMPI PUSH1 0x40 MLOAD PUSH3 0x461BCD PUSH1 0xE5 SHL DUP2 MSTORE PUSH1 0x20 PUSH1 0x4 DUP3 ADD MSTORE PUSH1 0x2D PUSH1 0x24 DUP3 ADD MSTORE PUSH32 0x55736572205265717565737420416C72656164792050726573656E742046726F PUSH1 0x44 DUP3 ADD MSTORE PUSH13 0x6D205468697320456D61696C21 PUSH1 0x98 SHL PUSH1 0x64 DUP3 ADD MSTORE PUSH1 0x84 ADD PUSH2 0x769 JUMP JUMPDEST CALLER PUSH1 0x1 PUSH1 0x1 PUSH1 0xA0 SHL SUB AND PUSH1 0xB DUP8 PUSH1 0x40 MLOAD PUSH2 0x4754 SWAP2 SWAP1 PUSH2 0x777F JUMP JUMPDEST SWAP1 DUP2 MSTORE PUSH1 0x40 DUP1 MLOAD PUSH1 0x20 SWAP3 DUP2 SWAP1 SUB DUP4 ADD SWAP1 KECCAK256 PUSH0 DUP6 DUP2 MSTORE SWAP3 MSTORE SWAP1 KECCAK256 PUSH1 0x3 ADD SLOAD PUSH1 0x1 PUSH1 0x1 PUSH1 0xA0 SHL SUB AND EQ ISZERO DUP1 PUSH2 0x47CD JUMPI POP DUP5 DUP1 MLOAD SWAP1 PUSH1 0x20 ADD KECCAK256 PUSH1 0xB DUP8 PUSH1 0x40 MLOAD PUSH2 0x479A SWAP2 SWAP1 PUSH2 0x777F JUMP JUMPDEST SWAP1 DUP2 MSTORE PUSH1 0x40 DUP1 MLOAD SWAP2 DUP3 SWAP1 SUB PUSH1 0x20 SWAP1 DUP2 ADD DUP4 KECCAK256 PUSH0 DUP7 DUP2 MSTORE SWAP2 MSTORE KECCAK256 PUSH2 0x47C2 SWAP2 PUSH1 0x4 SWAP1 SWAP2 ADD SWAP1 PUSH2 0x755B JUMP JUMPDEST PUSH1 0x40 MLOAD DUP1 SWAP2 SUB SWAP1 KECCAK256 EQ ISZERO JUMPDEST DUP1 PUSH2 0x4848 JUMPI POP PUSH1 0xB DUP7 PUSH1 0x40 MLOAD PUSH2 0x47E3 SWAP2 SWAP1 PUSH2 0x777F JUMP JUMPDEST SWAP1 DUP2 MSTORE PUSH1 0x40 DUP1 MLOAD SWAP2 DUP3 SWAP1 SUB PUSH1 0x20 SWAP1 DUP2 ADD SWAP1 SWAP3 KECCAK256 PUSH0 DUP5 DUP2 MSTORE SWAP3 MSTORE SWAP1 KECCAK256 PUSH1 0x5 ADD SLOAD PUSH1 0xFF AND ISZERO ISZERO PUSH1 0x1 EQ DUP1 ISZERO PUSH2 0x4848 JUMPI POP PUSH1 0xB DUP7 PUSH1 0x40 MLOAD PUSH2 0x4821 SWAP2 SWAP1 PUSH2 0x777F JUMP JUMPDEST SWAP1 DUP2 MSTORE PUSH1 0x40 DUP1 MLOAD PUSH1 0x20 SWAP3 DUP2 SWAP1 SUB DUP4 ADD SWAP1 KECCAK256 PUSH0 DUP5 DUP2 MSTORE SWAP3 MSTORE SWAP1 KECCAK256 PUSH1 0x5 ADD SLOAD PUSH2 0x100 SWAP1 DIV PUSH1 0xFF AND ISZERO JUMPDEST DUP1 PUSH2 0x48C2 JUMPI POP PUSH1 0xB DUP7 PUSH1 0x40 MLOAD PUSH2 0x485E SWAP2 SWAP1 PUSH2 0x777F JUMP JUMPDEST SWAP1 DUP2 MSTORE PUSH1 0x40 DUP1 MLOAD PUSH1 0x20 SWAP3 DUP2 SWAP1 SUB DUP4 ADD SWAP1 KECCAK256 PUSH0 DUP5 DUP2 MSTORE SWAP3 MSTORE SWAP1 KECCAK256 PUSH1 0x5 ADD SLOAD PUSH1 0xFF AND ISZERO DUP1 ISZERO PUSH2 0x48C2 JUMPI POP PUSH1 0xB DUP7 PUSH1 0x40 MLOAD PUSH2 0x4896 SWAP2 SWAP1 PUSH2 0x777F JUMP JUMPDEST SWAP1 DUP2 MSTORE PUSH1 0x40 DUP1 MLOAD PUSH1 0x20 SWAP3 DUP2 SWAP1 SUB DUP4 ADD SWAP1 KECCAK256 PUSH0 DUP5 DUP2 MSTORE SWAP3 MSTORE SWAP1 KECCAK256 PUSH1 0x5 ADD SLOAD PUSH1 0x1 PUSH2 0x100 SWAP1 SWAP2 DIV PUSH1 0xFF AND ISZERO ISZERO EQ JUMPDEST PUSH2 0x48DE JUMPI PUSH1 0x40 MLOAD PUSH3 0x461BCD PUSH1 0xE5 SHL DUP2 MSTORE PUSH1 0x4 ADD PUSH2 0x769 SWAP1 PUSH2 0x7819 JUMP JUMPDEST PUSH1 0xC DUP7 PUSH1 0x40 MLOAD PUSH2 0x48EE SWAP2 SWAP1 PUSH2 0x777F JUMP JUMPDEST SWAP1 DUP2 MSTORE PUSH1 0x20 ADD PUSH1 0x40 MLOAD DUP1 SWAP2 SUB SWAP1 KECCAK256 SLOAD PUSH1 0xB DUP8 PUSH1 0x40 MLOAD PUSH2 0x490D SWAP2 SWAP1 PUSH2 0x777F JUMP JUMPDEST SWAP1 DUP2 MSTORE PUSH1 0x20 ADD PUSH1 0x40 MLOAD DUP1 SWAP2 SUB SWAP1 KECCAK256 PUSH0 DUP4 DUP2 MSTORE PUSH1 0x20 ADD SWAP1 DUP2 MSTORE PUSH1 0x20 ADD PUSH0 KECCAK256 PUSH1 0x2 ADD SLOAD SUB PUSH2 0x497B JUMPI PUSH1 0x40 MLOAD PUSH3 0x461BCD PUSH1 0xE5 SHL DUP2 MSTORE PUSH1 0x20 PUSH1 0x4 DUP3 ADD MSTORE PUSH1 0x1A PUSH1 0x24 DUP3 ADD MSTORE PUSH32 0x437573746F6D657220494420616C726561647920657869737473000000000000 PUSH1 0x44 DUP3 ADD MSTORE PUSH1 0x64 ADD PUSH2 0x769 JUMP JUMPDEST PUSH1 0x1 ADD PUSH2 0x45D4 JUMP JUMPDEST POP PUSH0 PUSH1 0xB DUP7 PUSH1 0x40 MLOAD PUSH2 0x4995 SWAP2 SWAP1 PUSH2 0x777F JUMP JUMPDEST SWAP1 DUP2 MSTORE PUSH1 0x20 ADD PUSH1 0x40 MLOAD DUP1 SWAP2 SUB SWAP1 KECCAK256 PUSH0 PUSH1 0xC DUP9 PUSH1 0x40 MLOAD PUSH2 0x49B4 SWAP2 SWAP1 PUSH2 0x777F JUMP JUMPDEST SWAP1 DUP2 MSTORE PUSH1 0x20 ADD PUSH1 0x40 MLOAD DUP1 SWAP2 SUB SWAP1 KECCAK256 SLOAD DUP2 MSTORE PUSH1 0x20 ADD SWAP1 DUP2 MSTORE PUSH1 0x20 ADD PUSH0 KECCAK256 SWAP1 POP DUP4 DUP2 PUSH0 ADD SWAP1 DUP2 PUSH2 0x49E2 SWAP2 SWAP1 PUSH2 0x7685 JUMP JUMPDEST POP PUSH1 0x1 DUP2 ADD PUSH2 0x49F1 DUP4 DUP3 PUSH2 0x7685 JUMP JUMPDEST POP PUSH1 0xC DUP7 PUSH1 0x40 MLOAD PUSH2 0x4A02 SWAP2 SWAP1 PUSH2 0x777F JUMP JUMPDEST SWAP1 DUP2 MSTORE PUSH1 0x40 MLOAD SWAP1 DUP2 SWAP1 SUB PUSH1 0x20 ADD SWAP1 KECCAK256 SLOAD PUSH1 0x2 DUP3 ADD SSTORE PUSH1 0x3 DUP2 ADD DUP1 SLOAD PUSH1 0x1 PUSH1 0x1 PUSH1 0xA0 SHL SUB NOT AND CALLER OR SWAP1 SSTORE PUSH1 0x4 DUP2 ADD PUSH2 0x4A39 DUP7 DUP3 PUSH2 0x7685 JUMP JUMPDEST POP PUSH1 0x5 DUP2 ADD DUP1 SLOAD PUSH2 0xFFFF NOT AND SWAP1 SSTORE PUSH0 PUSH1 0x6 DUP3 ADD DUP2 SWAP1 SSTORE PUSH1 0x7 DUP3 ADD DUP2 SWAP1 SSTORE PUSH1 0x8 DUP3 ADD SSTORE PUSH1 0x9 DUP2 ADD PUSH2 0x4A69 DUP5 DUP3 PUSH2 0x7685 JUMP JUMPDEST POP DUP1 PUSH1 0x8 DUP8 PUSH1 0x40 MLOAD PUSH2 0x4A7B SWAP2 SWAP1 PUSH2 0x777F JUMP JUMPDEST SWAP1 DUP2 MSTORE PUSH1 0x40 DUP1 MLOAD PUSH1 0x20 SWAP3 DUP2 SWAP1 SUB DUP4 ADD SWAP1 KECCAK256 CALLER PUSH0 SWAP1 DUP2 MSTORE SWAP3 MSTORE SWAP1 KECCAK256 DUP1 PUSH2 0x4AA0 DUP4 DUP3 PUSH2 0x75B1 JUMP JUMPDEST POP PUSH1 0x1 DUP2 DUP2 ADD SWAP1 PUSH2 0x4AB3 SWAP1 DUP5 ADD DUP3 PUSH2 0x75B1 JUMP JUMPDEST POP PUSH1 0x2 DUP3 DUP2 ADD SLOAD SWAP1 DUP3 ADD SSTORE PUSH1 0x3 DUP1 DUP4 ADD SLOAD SWAP1 DUP3 ADD DUP1 SLOAD PUSH1 0x1 PUSH1 0x1 PUSH1 0xA0 SHL SUB NOT AND PUSH1 0x1 PUSH1 0x1 PUSH1 0xA0 SHL SUB SWAP1 SWAP3 AND SWAP2 SWAP1 SWAP2 OR SWAP1 SSTORE PUSH1 0x4 DUP1 DUP3 ADD SWAP1 PUSH2 0x4AF6 SWAP1 DUP5 ADD DUP3 PUSH2 0x75B1 JUMP JUMPDEST POP PUSH1 0x5 DUP3 DUP2 ADD DUP1 SLOAD SWAP2 DUP4 ADD DUP1 SLOAD PUSH1 0xFF SWAP4 DUP5 AND ISZERO ISZERO PUSH1 0xFF NOT DUP3 AND DUP2 OR DUP4 SSTORE SWAP3 SLOAD PUSH2 0x100 SWAP1 DUP2 SWAP1 DIV SWAP1 SWAP5 AND ISZERO ISZERO SWAP1 SWAP4 MUL PUSH2 0xFF00 NOT SWAP1 SWAP3 AND PUSH2 0xFFFF NOT SWAP1 SWAP4 AND SWAP3 SWAP1 SWAP3 OR OR SWAP1 SSTORE PUSH1 0x6 DUP1 DUP4 ADD SLOAD SWAP1 DUP3 ADD SSTORE PUSH1 0x7 DUP1 DUP4 ADD SLOAD SWAP1 DUP3 ADD SSTORE PUSH1 0x8 DUP1 DUP4 ADD SLOAD SWAP1 DUP3 ADD SSTORE PUSH1 0x9 DUP1 DUP3 ADD SWAP1 PUSH2 0x4B69 SWAP1 DUP5 ADD DUP3 PUSH2 0x75B1 JUMP JUMPDEST POP POP PUSH0 DUP1 SLOAD SWAP2 POP DUP1 PUSH2 0x4B7A DUP4 PUSH2 0x74D4 JUMP JUMPDEST SWAP2 SWAP1 POP SSTORE POP CALLER PUSH1 0x1 PUSH1 0x1 PUSH1 0xA0 SHL SUB AND PUSH32 0x76B3002A4169DCDE68428FDB661C55064978EE5297D2BC75A1DE47DC8E016087 DUP7 DUP7 PUSH1 0xC DUP11 PUSH1 0x40 MLOAD PUSH2 0x4BBC SWAP2 SWAP1 PUSH2 0x777F JUMP JUMPDEST SWAP1 DUP2 MSTORE PUSH1 0x40 MLOAD SWAP1 DUP2 SWAP1 SUB PUSH1 0x20 ADD DUP2 KECCAK256 SLOAD PUSH2 0x1D72 SWAP4 SWAP3 SWAP2 PUSH2 0x7939 JUMP JUMPDEST CALLER PUSH0 SWAP1 DUP2 MSTORE PUSH1 0x2 PUSH1 0x20 MSTORE PUSH1 0x40 SWAP1 KECCAK256 SLOAD PUSH1 0xFF AND PUSH2 0x4C05 JUMPI PUSH1 0x40 MLOAD PUSH3 0x461BCD PUSH1 0xE5 SHL DUP2 MSTORE PUSH1 0x4 ADD PUSH2 0x769 SWAP1 PUSH2 0x7443 JUMP JUMPDEST PUSH0 PUSH2 0x4C0F DUP3 PUSH2 0x66FF JUMP JUMPDEST PUSH0 DUP2 DUP2 MSTORE PUSH1 0x4 PUSH1 0x20 MSTORE PUSH1 0x40 SWAP1 KECCAK256 SLOAD SWAP1 SWAP2 POP DUP2 SWAP1 SUB PUSH2 0x4D55 JUMPI PUSH0 DUP2 DUP2 MSTORE PUSH1 0x4 PUSH1 0x20 DUP2 SWAP1 MSTORE PUSH1 0x40 SWAP1 SWAP2 KECCAK256 ADD SLOAD PUSH1 0xFF AND ISZERO PUSH2 0x4C59 JUMPI PUSH1 0x40 MLOAD PUSH3 0x461BCD PUSH1 0xE5 SHL DUP2 MSTORE PUSH1 0x4 ADD PUSH2 0x769 SWAP1 PUSH2 0x7489 JUMP JUMPDEST PUSH0 DUP2 DUP2 MSTORE PUSH1 0x4 PUSH1 0x20 MSTORE PUSH1 0x40 DUP2 KECCAK256 PUSH1 0x7 ADD DUP1 SLOAD SWAP2 PUSH2 0x4C75 DUP4 PUSH2 0x74D4 JUMP JUMPDEST SWAP1 SWAP2 SSTORE POP POP PUSH0 DUP2 DUP2 MSTORE PUSH1 0x4 PUSH1 0x20 DUP2 DUP2 MSTORE PUSH1 0x40 DUP1 DUP5 KECCAK256 DUP1 DUP5 ADD DUP1 SLOAD PUSH1 0xFF NOT SWAP1 DUP2 AND DUP3 SSTORE PUSH1 0x2 DUP4 ADD DUP1 SLOAD PUSH1 0x1 PUSH1 0x1 PUSH1 0xA0 SHL SUB SWAP1 DUP2 AND DUP10 MSTORE PUSH1 0x5 DUP8 MSTORE DUP6 DUP10 KECCAK256 DUP9 ADD DUP1 SLOAD DUP5 AND SWAP1 SSTORE DUP4 SLOAD PUSH2 0x100 PUSH2 0xFF00 NOT SWAP2 DUP3 AND DUP2 OR SWAP1 SWAP6 SSTORE DUP3 SLOAD DUP3 AND DUP11 MSTORE DUP7 DUP11 KECCAK256 DUP10 ADD DUP1 SLOAD SWAP1 SWAP2 AND SWAP1 SWAP5 OR SWAP1 SWAP4 SSTORE PUSH1 0x8 DUP1 DUP6 ADD DUP1 SLOAD DUP5 AND PUSH1 0x1 SWAP1 DUP2 OR SWAP1 SWAP2 SSTORE DUP3 SLOAD DUP6 AND DUP11 MSTORE DUP7 DUP11 KECCAK256 SWAP1 SWAP2 ADD DUP1 SLOAD SWAP1 SWAP4 AND DUP2 OR SWAP1 SWAP3 SSTORE SWAP7 DUP9 SWAP1 MSTORE SWAP5 SWAP1 SWAP4 MSTORE DUP1 SLOAD SWAP5 SLOAD SWAP2 MLOAD PUSH32 0xFF018E14DBD52F4C8FAC30E620CFF44CACD6CF2DBAEF2F7F7294E7D49C3DCB81 SWAP5 PUSH2 0x4D49 SWAP5 SWAP4 SWAP1 SWAP4 AND SWAP3 SWAP1 SWAP2 ADD SWAP1 PUSH2 0x796E JUMP JUMPDEST PUSH1 0x40 MLOAD DUP1 SWAP2 SUB SWAP1 LOG2 POP POP JUMP JUMPDEST PUSH1 0x40 MLOAD PUSH3 0x461BCD PUSH1 0xE5 SHL DUP2 MSTORE PUSH1 0x4 ADD PUSH2 0x769 SWAP1 PUSH2 0x77C7 JUMP JUMPDEST PUSH2 0x4D75 PUSH2 0x67D5 JUMP JUMPDEST CALLER PUSH0 SWAP1 DUP2 MSTORE PUSH1 0x3 PUSH1 0x20 MSTORE PUSH1 0x40 SWAP1 KECCAK256 SLOAD PUSH1 0xFF AND ISZERO ISZERO PUSH1 0x1 EQ DUP1 PUSH2 0x4DAB JUMPI POP CALLER PUSH0 SWAP1 DUP2 MSTORE PUSH1 0x1 PUSH1 0x20 DUP2 SWAP1 MSTORE PUSH1 0x40 SWAP1 SWAP2 KECCAK256 SLOAD PUSH1 0xFF AND ISZERO ISZERO EQ JUMPDEST PUSH2 0x4DC7 JUMPI PUSH1 0x40 MLOAD PUSH3 0x461BCD PUSH1 0xE5 SHL DUP2 MSTORE PUSH1 0x4 ADD PUSH2 0x769 SWAP1 PUSH2 0x786E JUMP JUMPDEST PUSH0 PUSH2 0x4DD1 DUP4 PUSH2 0x66FF JUMP JUMPDEST SWAP1 POP PUSH1 0x6 DUP5 PUSH1 0x40 MLOAD PUSH2 0x4DE3 SWAP2 SWAP1 PUSH2 0x777F JUMP JUMPDEST SWAP1 DUP2 MSTORE PUSH1 0x40 DUP1 MLOAD SWAP2 DUP3 SWAP1 SUB PUSH1 0x20 SWAP1 DUP2 ADD DUP4 KECCAK256 PUSH0 DUP6 DUP2 MSTORE SWAP1 DUP3 MSTORE DUP3 SWAP1 KECCAK256 PUSH2 0x180 DUP5 ADD SWAP1 SWAP3 MSTORE DUP2 SLOAD DUP4 MSTORE PUSH1 0x1 DUP3 ADD DUP1 SLOAD SWAP2 DUP5 ADD SWAP2 PUSH2 0x4E1E SWAP1 PUSH2 0x740B JUMP JUMPDEST DUP1 PUSH1 0x1F ADD PUSH1 0x20 DUP1 SWAP2 DIV MUL PUSH1 0x20 ADD PUSH1 0x40 MLOAD SWAP1 DUP2 ADD PUSH1 0x40 MSTORE DUP1 SWAP3 SWAP2 SWAP1 DUP2 DUP2 MSTORE PUSH1 0x20 ADD DUP3 DUP1 SLOAD PUSH2 0x4E4A SWAP1 PUSH2 0x740B JUMP JUMPDEST DUP1 ISZERO PUSH2 0x4E95 JUMPI DUP1 PUSH1 0x1F LT PUSH2 0x4E6C JUMPI PUSH2 0x100 DUP1 DUP4 SLOAD DIV MUL DUP4 MSTORE SWAP2 PUSH1 0x20 ADD SWAP2 PUSH2 0x4E95 JUMP JUMPDEST DUP3 ADD SWAP2 SWAP1 PUSH0 MSTORE PUSH1 0x20 PUSH0 KECCAK256 SWAP1 JUMPDEST DUP2 SLOAD DUP2 MSTORE SWAP1 PUSH1 0x1 ADD SWAP1 PUSH1 0x20 ADD DUP1 DUP4 GT PUSH2 0x4E78 JUMPI DUP3 SWAP1 SUB PUSH1 0x1F AND DUP3 ADD SWAP2 JUMPDEST POP POP POP SWAP2 DUP4 MSTORE POP POP PUSH1 0x2 DUP3 ADD SLOAD PUSH1 0x20 DUP3 ADD MSTORE PUSH1 0x3 DUP3 ADD SLOAD PUSH1 0x1 PUSH1 0x1 PUSH1 0xA0 SHL SUB AND PUSH1 0x40 DUP3 ADD MSTORE PUSH1 0x4 DUP3 ADD DUP1 SLOAD PUSH1 0x60 SWAP1 SWAP3 ADD SWAP2 PUSH2 0x4ECF SWAP1 PUSH2 0x740B JUMP JUMPDEST DUP1 PUSH1 0x1F ADD PUSH1 0x20 DUP1 SWAP2 DIV MUL PUSH1 0x20 ADD PUSH1 0x40 MLOAD SWAP1 DUP2 ADD PUSH1 0x40 MSTORE DUP1 SWAP3 SWAP2 SWAP1 DUP2 DUP2 MSTORE PUSH1 0x20 ADD DUP3 DUP1 SLOAD PUSH2 0x4EFB SWAP1 PUSH2 0x740B JUMP JUMPDEST DUP1 ISZERO PUSH2 0x4F46 JUMPI DUP1 PUSH1 0x1F LT PUSH2 0x4F1D JUMPI PUSH2 0x100 DUP1 DUP4 SLOAD DIV MUL DUP4 MSTORE SWAP2 PUSH1 0x20 ADD SWAP2 PUSH2 0x4F46 JUMP JUMPDEST DUP3 ADD SWAP2 SWAP1 PUSH0 MSTORE PUSH1 0x20 PUSH0 KECCAK256 SWAP1 JUMPDEST DUP2 SLOAD DUP2 MSTORE SWAP1 PUSH1 0x1 ADD SWAP1 PUSH1 0x20 ADD DUP1 DUP4 GT PUSH2 0x4F29 JUMPI DUP3 SWAP1 SUB PUSH1 0x1F AND DUP3 ADD SWAP2 JUMPDEST POP POP POP SWAP2 DUP4 MSTORE POP POP PUSH1 0x5 DUP3 ADD SLOAD PUSH1 0xFF DUP1 DUP3 AND ISZERO ISZERO PUSH1 0x20 DUP5 ADD MSTORE PUSH2 0x100 SWAP1 SWAP2 DIV DUP2 AND ISZERO ISZERO PUSH1 0x40 DUP4 ADD MSTORE PUSH1 0x6 DUP4 ADD SLOAD PUSH1 0x60 DUP4 ADD MSTORE PUSH1 0x7 DUP4 ADD SLOAD PUSH1 0x80 DUP4 ADD MSTORE PUSH1 0x8 DUP4 ADD SLOAD PUSH1 0xA0 DUP4 ADD MSTORE PUSH1 0x9 DUP4 ADD SLOAD AND ISZERO ISZERO PUSH1 0xC0 DUP3 ADD MSTORE PUSH1 0xA DUP3 ADD DUP1 SLOAD PUSH1 0xE0 SWAP1 SWAP3 ADD SWAP2 PUSH2 0x4FAE SWAP1 PUSH2 0x740B JUMP JUMPDEST DUP1 PUSH1 0x1F ADD PUSH1 0x20 DUP1 SWAP2 DIV MUL PUSH1 0x20 ADD PUSH1 0x40 MLOAD SWAP1 DUP2 ADD PUSH1 0x40 MSTORE DUP1 SWAP3 SWAP2 SWAP1 DUP2 DUP2 MSTORE PUSH1 0x20 ADD DUP3 DUP1 SLOAD PUSH2 0x4FDA SWAP1 PUSH2 0x740B JUMP JUMPDEST DUP1 ISZERO PUSH2 0x5025 JUMPI DUP1 PUSH1 0x1F LT PUSH2 0x4FFC JUMPI PUSH2 0x100 DUP1 DUP4 SLOAD DIV MUL DUP4 MSTORE SWAP2 PUSH1 0x20 ADD SWAP2 PUSH2 0x5025 JUMP JUMPDEST DUP3 ADD SWAP2 SWAP1 PUSH0 MSTORE PUSH1 0x20 PUSH0 KECCAK256 SWAP1 JUMPDEST DUP2 SLOAD DUP2 MSTORE SWAP1 PUSH1 0x1 ADD SWAP1 PUSH1 0x20 ADD DUP1 DUP4 GT PUSH2 0x5008 JUMPI DUP3 SWAP1 SUB PUSH1 0x1F AND DUP3 ADD SWAP2 JUMPDEST POP POP POP POP POP DUP2 MSTORE POP POP SWAP2 POP POP SWAP3 SWAP2 POP POP JUMP JUMPDEST PUSH2 0x503F PUSH2 0x67D5 JUMP JUMPDEST PUSH1 0x7 DUP4 PUSH1 0x40 MLOAD PUSH2 0x504F SWAP2 SWAP1 PUSH2 0x777F JUMP JUMPDEST SWAP1 DUP2 MSTORE PUSH1 0x40 DUP1 MLOAD SWAP2 DUP3 SWAP1 SUB PUSH1 0x20 SWAP1 DUP2 ADD DUP4 KECCAK256 PUSH1 0x1 PUSH1 0x1 PUSH1 0xA0 SHL SUB DUP7 AND PUSH0 SWAP1 DUP2 MSTORE SWAP1 DUP3 MSTORE DUP3 SWAP1 KECCAK256 PUSH2 0x180 DUP5 ADD SWAP1 SWAP3 MSTORE DUP2 SLOAD DUP4 MSTORE PUSH1 0x1 DUP3 ADD DUP1 SLOAD SWAP2 DUP5 ADD SWAP2 PUSH2 0x5094 SWAP1 PUSH2 0x740B JUMP JUMPDEST DUP1 PUSH1 0x1F ADD PUSH1 0x20 DUP1 SWAP2 DIV MUL PUSH1 0x20 ADD PUSH1 0x40 MLOAD SWAP1 DUP2 ADD PUSH1 0x40 MSTORE DUP1 SWAP3 SWAP2 SWAP1 DUP2 DUP2 MSTORE PUSH1 0x20 ADD DUP3 DUP1 SLOAD PUSH2 0x50C0 SWAP1 PUSH2 0x740B JUMP JUMPDEST DUP1 ISZERO PUSH2 0x510B JUMPI DUP1 PUSH1 0x1F LT PUSH2 0x50E2 JUMPI PUSH2 0x100 DUP1 DUP4 SLOAD DIV MUL DUP4 MSTORE SWAP2 PUSH1 0x20 ADD SWAP2 PUSH2 0x510B JUMP JUMPDEST DUP3 ADD SWAP2 SWAP1 PUSH0 MSTORE PUSH1 0x20 PUSH0 KECCAK256 SWAP1 JUMPDEST DUP2 SLOAD DUP2 MSTORE SWAP1 PUSH1 0x1 ADD SWAP1 PUSH1 0x20 ADD DUP1 DUP4 GT PUSH2 0x50EE JUMPI DUP3 SWAP1 SUB PUSH1 0x1F AND DUP3 ADD SWAP2 JUMPDEST POP POP POP SWAP2 DUP4 MSTORE POP POP PUSH1 0x2 DUP3 ADD SLOAD PUSH1 0x20 DUP3 ADD MSTORE PUSH1 0x3 DUP3 ADD SLOAD PUSH1 0x1 PUSH1 0x1 PUSH1 0xA0 SHL SUB AND PUSH1 0x40 DUP3 ADD MSTORE PUSH1 0x4 DUP3 ADD DUP1 SLOAD PUSH1 0x60 SWAP1 SWAP3 ADD SWAP2 PUSH2 0x5145 SWAP1 PUSH2 0x740B JUMP JUMPDEST DUP1 PUSH1 0x1F ADD PUSH1 0x20 DUP1 SWAP2 DIV MUL PUSH1 0x20 ADD PUSH1 0x40 MLOAD SWAP1 DUP2 ADD PUSH1 0x40 MSTORE DUP1 SWAP3 SWAP2 SWAP1 DUP2 DUP2 MSTORE PUSH1 0x20 ADD DUP3 DUP1 SLOAD PUSH2 0x5171 SWAP1 PUSH2 0x740B JUMP JUMPDEST DUP1 ISZERO PUSH2 0x51BC JUMPI DUP1 PUSH1 0x1F LT PUSH2 0x5193 JUMPI PUSH2 0x100 DUP1 DUP4 SLOAD DIV MUL DUP4 MSTORE SWAP2 PUSH1 0x20 ADD SWAP2 PUSH2 0x51BC JUMP JUMPDEST DUP3 ADD SWAP2 SWAP1 PUSH0 MSTORE PUSH1 0x20 PUSH0 KECCAK256 SWAP1 JUMPDEST DUP2 SLOAD DUP2 MSTORE SWAP1 PUSH1 0x1 ADD SWAP1 PUSH1 0x20 ADD DUP1 DUP4 GT PUSH2 0x519F JUMPI DUP3 SWAP1 SUB PUSH1 0x1F AND DUP3 ADD SWAP2 JUMPDEST POP POP POP SWAP2 DUP4 MSTORE POP POP PUSH1 0x5 DUP3 ADD SLOAD PUSH1 0xFF DUP1 DUP3 AND ISZERO ISZERO PUSH1 0x20 DUP5 ADD MSTORE PUSH2 0x100 SWAP1 SWAP2 DIV DUP2 AND ISZERO ISZERO PUSH1 0x40 DUP4 ADD MSTORE PUSH1 0x6 DUP4 ADD SLOAD PUSH1 0x60 DUP4 ADD MSTORE PUSH1 0x7 DUP4 ADD SLOAD PUSH1 0x80 DUP4 ADD MSTORE PUSH1 0x8 DUP4 ADD SLOAD PUSH1 0xA0 DUP4 ADD MSTORE PUSH1 0x9 DUP4 ADD SLOAD AND ISZERO ISZERO PUSH1 0xC0 DUP3 ADD MSTORE PUSH1 0xA DUP3 ADD DUP1 SLOAD PUSH1 0xE0 SWAP1 SWAP3 ADD SWAP2 PUSH2 0x5224 SWAP1 PUSH2 0x740B JUMP JUMPDEST DUP1 PUSH1 0x1F ADD PUSH1 0x20 DUP1 SWAP2 DIV MUL PUSH1 0x20 ADD PUSH1 0x40 MLOAD SWAP1 DUP2 ADD PUSH1 0x40 MSTORE DUP1 SWAP3 SWAP2 SWAP1 DUP2 DUP2 MSTORE PUSH1 0x20 ADD DUP3 DUP1 SLOAD PUSH2 0x5250 SWAP1 PUSH2 0x740B JUMP JUMPDEST DUP1 ISZERO PUSH2 0x529B JUMPI DUP1 PUSH1 0x1F LT PUSH2 0x5272 JUMPI PUSH2 0x100 DUP1 DUP4 SLOAD DIV MUL DUP4 MSTORE SWAP2 PUSH1 0x20 ADD SWAP2 PUSH2 0x529B JUMP JUMPDEST DUP3 ADD SWAP2 SWAP1 PUSH0 MSTORE PUSH1 0x20 PUSH0 KECCAK256 SWAP1 JUMPDEST DUP2 SLOAD DUP2 MSTORE SWAP1 PUSH1 0x1 ADD SWAP1 PUSH1 0x20 ADD DUP1 DUP4 GT PUSH2 0x527E JUMPI DUP3 SWAP1 SUB PUSH1 0x1F AND DUP3 ADD SWAP2 JUMPDEST POP POP POP POP POP DUP2 MSTORE POP POP SWAP1 POP SWAP3 SWAP2 POP POP JUMP JUMPDEST DUP3 MLOAD PUSH1 0x20 DUP2 DUP6 ADD DUP2 ADD DUP1 MLOAD PUSH1 0x19 DUP3 MSTORE SWAP3 DUP3 ADD DUP3 DUP8 ADD KECCAK256 SWAP3 SWAP1 MSTORE MSTORE PUSH0 DUP3 DUP2 MSTORE PUSH1 0x40 SWAP1 KECCAK256 DUP1 SLOAD DUP3 SWAP1 DUP2 LT PUSH2 0x438E JUMPI PUSH0 DUP1 REVERT JUMPDEST CALLER PUSH0 SWAP1 DUP2 MSTORE PUSH1 0x2 PUSH1 0x20 MSTORE PUSH1 0x40 DUP2 KECCAK256 SLOAD PUSH1 0xFF AND PUSH2 0x530A JUMPI PUSH1 0x40 MLOAD PUSH3 0x461BCD PUSH1 0xE5 SHL DUP2 MSTORE PUSH1 0x4 ADD PUSH2 0x769 SWAP1 PUSH2 0x7443 JUMP JUMPDEST POP PUSH1 0x15 SSTORE PUSH1 0x11 SSTORE PUSH1 0x1 SWAP1 JUMP JUMPDEST PUSH1 0x60 PUSH1 0x19 DUP4 PUSH1 0x40 MLOAD PUSH2 0x5328 SWAP2 SWAP1 PUSH2 0x777F JUMP JUMPDEST SWAP1 DUP2 MSTORE PUSH1 0x40 DUP1 MLOAD SWAP2 DUP3 SWAP1 SUB PUSH1 0x20 SWAP1 DUP2 ADD DUP4 KECCAK256 PUSH0 DUP7 DUP2 MSTORE SWAP1 DUP3 MSTORE DUP3 DUP2 KECCAK256 DUP1 SLOAD DUP1 DUP5 MUL DUP7 ADD DUP5 ADD SWAP1 SWAP5 MSTORE DUP4 DUP6 MSTORE SWAP3 SWAP2 DUP5 ADD JUMPDEST DUP3 DUP3 LT ISZERO PUSH2 0x3529 JUMPI DUP4 DUP3 SWAP1 PUSH0 MSTORE PUSH1 0x20 PUSH0 KECCAK256 ADD DUP1 SLOAD PUSH2 0x5375 SWAP1 PUSH2 0x740B JUMP JUMPDEST DUP1 PUSH1 0x1F ADD PUSH1 0x20 DUP1 SWAP2 DIV MUL PUSH1 0x20 ADD PUSH1 0x40 MLOAD SWAP1 DUP2 ADD PUSH1 0x40 MSTORE DUP1 SWAP3 SWAP2 SWAP1 DUP2 DUP2 MSTORE PUSH1 0x20 ADD DUP3 DUP1 SLOAD PUSH2 0x53A1 SWAP1 PUSH2 0x740B JUMP JUMPDEST DUP1 ISZERO PUSH2 0x53EC JUMPI DUP1 PUSH1 0x1F LT PUSH2 0x53C3 JUMPI PUSH2 0x100 DUP1 DUP4 SLOAD DIV MUL DUP4 MSTORE SWAP2 PUSH1 0x20 ADD SWAP2 PUSH2 0x53EC JUMP JUMPDEST DUP3 ADD SWAP2 SWAP1 PUSH0 MSTORE PUSH1 0x20 PUSH0 KECCAK256 SWAP1 JUMPDEST DUP2 SLOAD DUP2 MSTORE SWAP1 PUSH1 0x1 ADD SWAP1 PUSH1 0x20 ADD DUP1 DUP4 GT PUSH2 0x53CF JUMPI DUP3 SWAP1 SUB PUSH1 0x1F AND DUP3 ADD SWAP2 JUMPDEST POP POP POP POP POP DUP2 MSTORE PUSH1 0x20 ADD SWAP1 PUSH1 0x1 ADD SWAP1 PUSH2 0x5358 JUMP JUMPDEST PUSH2 0x5408 PUSH2 0x67D5 JUMP JUMPDEST CALLER PUSH0 SWAP1 DUP2 MSTORE PUSH1 0x1 PUSH1 0x20 MSTORE PUSH1 0x40 SWAP1 KECCAK256 SLOAD PUSH1 0xFF AND PUSH2 0x5436 JUMPI PUSH1 0x40 MLOAD PUSH3 0x461BCD PUSH1 0xE5 SHL DUP2 MSTORE PUSH1 0x4 ADD PUSH2 0x769 SWAP1 PUSH2 0x7738 JUMP JUMPDEST PUSH1 0x6 DUP4 PUSH1 0x40 MLOAD PUSH2 0x5446 SWAP2 SWAP1 PUSH2 0x777F JUMP JUMPDEST SWAP1 DUP2 MSTORE PUSH1 0x40 DUP1 MLOAD SWAP2 DUP3 SWAP1 SUB PUSH1 0x20 SWAP1 DUP2 ADD DUP4 KECCAK256 PUSH0 DUP7 DUP2 MSTORE SWAP1 DUP3 MSTORE DUP3 SWAP1 KECCAK256 PUSH2 0x180 DUP5 ADD SWAP1 SWAP3 MSTORE DUP2 SLOAD DUP4 MSTORE PUSH1 0x1 DUP3 ADD DUP1 SLOAD SWAP2 DUP5 ADD SWAP2 PUSH2 0x5094 SWAP1 PUSH2 0x740B JUMP JUMPDEST PUSH2 0x54E4 PUSH1 0x40 MLOAD DUP1 PUSH2 0x160 ADD PUSH1 0x40 MSTORE DUP1 PUSH1 0x60 DUP2 MSTORE PUSH1 0x20 ADD PUSH1 0x60 DUP2 MSTORE PUSH1 0x20 ADD PUSH0 DUP2 MSTORE PUSH1 0x20 ADD PUSH0 PUSH1 0x1 PUSH1 0x1 PUSH1 0xA0 SHL SUB AND DUP2 MSTORE PUSH1 0x20 ADD PUSH1 0x60 DUP2 MSTORE PUSH1 0x20 ADD PUSH0 ISZERO ISZERO DUP2 MSTORE PUSH1 0x20 ADD PUSH0 ISZERO ISZERO DUP2 MSTORE PUSH1 0x20 ADD PUSH0 DUP2 MSTORE PUSH1 0x20 ADD PUSH0 DUP2 MSTORE PUSH1 0x20 ADD PUSH0 DUP2 MSTORE PUSH1 0x20 ADD PUSH1 0x60 DUP2 MSTORE POP SWAP1 JUMP JUMPDEST PUSH1 0x8 DUP4 PUSH1 0x40 MLOAD PUSH2 0x54F4 SWAP2 SWAP1 PUSH2 0x777F JUMP JUMPDEST SWAP1 DUP2 MSTORE PUSH1 0x40 DUP1 MLOAD SWAP2 DUP3 SWAP1 SUB PUSH1 0x20 SWAP1 DUP2 ADD DUP4 KECCAK256 PUSH1 0x1 PUSH1 0x1 PUSH1 0xA0 SHL SUB DUP7 AND PUSH0 SWAP1 DUP2 MSTORE SWAP2 MSTORE DUP2 SWAP1 KECCAK256 PUSH2 0x160 DUP4 ADD SWAP1 SWAP2 MSTORE DUP1 SLOAD DUP3 SWAP1 DUP3 SWAP1 PUSH2 0x5530 SWAP1 PUSH2 0x740B JUMP JUMPDEST DUP1 PUSH1 0x1F ADD PUSH1 0x20 DUP1 SWAP2 DIV MUL PUSH1 0x20 ADD PUSH1 0x40 MLOAD SWAP1 DUP2 ADD PUSH1 0x40 MSTORE DUP1 SWAP3 SWAP2 SWAP1 DUP2 DUP2 MSTORE PUSH1 0x20 ADD DUP3 DUP1 SLOAD PUSH2 0x555C SWAP1 PUSH2 0x740B JUMP JUMPDEST DUP1 ISZERO PUSH2 0x55A7 JUMPI DUP1 PUSH1 0x1F LT PUSH2 0x557E JUMPI PUSH2 0x100 DUP1 DUP4 SLOAD DIV MUL DUP4 MSTORE SWAP2 PUSH1 0x20 ADD SWAP2 PUSH2 0x55A7 JUMP JUMPDEST DUP3 ADD SWAP2 SWAP1 PUSH0 MSTORE PUSH1 0x20 PUSH0 KECCAK256 SWAP1 JUMPDEST DUP2 SLOAD DUP2 MSTORE SWAP1 PUSH1 0x1 ADD SWAP1 PUSH1 0x20 ADD DUP1 DUP4 GT PUSH2 0x558A JUMPI DUP3 SWAP1 SUB PUSH1 0x1F AND DUP3 ADD SWAP2 JUMPDEST POP POP POP POP POP DUP2 MSTORE PUSH1 0x20 ADD PUSH1 0x1 DUP3 ADD DUP1 SLOAD PUSH2 0x55C0 SWAP1 PUSH2 0x740B JUMP JUMPDEST DUP1 PUSH1 0x1F ADD PUSH1 0x20 DUP1 SWAP2 DIV MUL PUSH1 0x20 ADD PUSH1 0x40 MLOAD SWAP1 DUP2 ADD PUSH1 0x40 MSTORE DUP1 SWAP3 SWAP2 SWAP1 DUP2 DUP2 MSTORE PUSH1 0x20 ADD DUP3 DUP1 SLOAD PUSH2 0x55EC SWAP1 PUSH2 0x740B JUMP JUMPDEST DUP1 ISZERO PUSH2 0x5637 JUMPI DUP1 PUSH1 0x1F LT PUSH2 0x560E JUMPI PUSH2 0x100 DUP1 DUP4 SLOAD DIV MUL DUP4 MSTORE SWAP2 PUSH1 0x20 ADD SWAP2 PUSH2 0x5637 JUMP JUMPDEST DUP3 ADD SWAP2 SWAP1 PUSH0 MSTORE PUSH1 0x20 PUSH0 KECCAK256 SWAP1 JUMPDEST DUP2 SLOAD DUP2 MSTORE SWAP1 PUSH1 0x1 ADD SWAP1 PUSH1 0x20 ADD DUP1 DUP4 GT PUSH2 0x561A JUMPI DUP3 SWAP1 SUB PUSH1 0x1F AND DUP3 ADD SWAP2 JUMPDEST POP POP POP SWAP2 DUP4 MSTORE POP POP PUSH1 0x2 DUP3 ADD SLOAD PUSH1 0x20 DUP3 ADD MSTORE PUSH1 0x3 DUP3 ADD SLOAD PUSH1 0x1 PUSH1 0x1 PUSH1 0xA0 SHL SUB AND PUSH1 0x40 DUP3 ADD MSTORE PUSH1 0x4 DUP3 ADD DUP1 SLOAD PUSH1 0x60 SWAP1 SWAP3 ADD SWAP2 PUSH2 0x5671 SWAP1 PUSH2 0x740B JUMP JUMPDEST DUP1 PUSH1 0x1F ADD PUSH1 0x20 DUP1 SWAP2 DIV MUL PUSH1 0x20 ADD PUSH1 0x40 MLOAD SWAP1 DUP2 ADD PUSH1 0x40 MSTORE DUP1 SWAP3 SWAP2 SWAP1 DUP2 DUP2 MSTORE PUSH1 0x20 ADD DUP3 DUP1 SLOAD PUSH2 0x569D SWAP1 PUSH2 0x740B JUMP JUMPDEST DUP1 ISZERO PUSH2 0x56E8 JUMPI DUP1 PUSH1 0x1F LT PUSH2 0x56BF JUMPI PUSH2 0x100 DUP1 DUP4 SLOAD DIV MUL DUP4 MSTORE SWAP2 PUSH1 0x20 ADD SWAP2 PUSH2 0x56E8 JUMP JUMPDEST DUP3 ADD SWAP2 SWAP1 PUSH0 MSTORE PUSH1 0x20 PUSH0 KECCAK256 SWAP1 JUMPDEST DUP2 SLOAD DUP2 MSTORE SWAP1 PUSH1 0x1 ADD SWAP1 PUSH1 0x20 ADD DUP1 DUP4 GT PUSH2 0x56CB JUMPI DUP3 SWAP1 SUB PUSH1 0x1F AND DUP3 ADD SWAP2 JUMPDEST POP POP POP SWAP2 DUP4 MSTORE POP POP PUSH1 0x5 DUP3 ADD SLOAD PUSH1 0xFF DUP1 DUP3 AND ISZERO ISZERO PUSH1 0x20 DUP5 ADD MSTORE PUSH2 0x100 SWAP1 SWAP2 DIV AND ISZERO ISZERO PUSH1 0x40 DUP3 ADD MSTORE PUSH1 0x6 DUP3 ADD SLOAD PUSH1 0x60 DUP3 ADD MSTORE PUSH1 0x7 DUP3 ADD SLOAD PUSH1 0x80 DUP3 ADD MSTORE PUSH1 0x8 DUP3 ADD SLOAD PUSH1 0xA0 DUP3 ADD MSTORE PUSH1 0x9 DUP3 ADD DUP1 SLOAD PUSH1 0xC0 SWAP1 SWAP3 ADD SWAP2 PUSH2 0x5224 SWAP1 PUSH2 0x740B JUMP JUMPDEST PUSH1 0x14 SLOAD CALLER PUSH1 0x1 PUSH1 0x1 PUSH1 0xA0 SHL SUB SWAP1 SWAP2 AND SUB PUSH2 0x57AC JUMPI PUSH1 0x40 MLOAD PUSH3 0x461BCD PUSH1 0xE5 SHL DUP2 MSTORE PUSH1 0x20 PUSH1 0x4 DUP3 ADD MSTORE PUSH1 0x25 PUSH1 0x24 DUP3 ADD MSTORE PUSH32 0x4B4959412063616E206E6F742062656C6F6E6720746F2074686520526567756C PUSH1 0x44 DUP3 ADD MSTORE PUSH5 0x61746F7221 PUSH1 0xD8 SHL PUSH1 0x64 DUP3 ADD MSTORE PUSH1 0x84 ADD PUSH2 0x769 JUMP JUMPDEST PUSH0 PUSH2 0x57B6 DUP4 PUSH2 0x66FF JUMP JUMPDEST PUSH1 0xE DUP1 SLOAD SWAP2 SWAP3 POP PUSH0 PUSH2 0x57C7 DUP4 PUSH2 0x74D4 JUMP JUMPDEST SWAP1 SWAP2 SSTORE POP PUSH1 0x1 SWAP1 POP JUMPDEST PUSH1 0xE SLOAD DUP2 GT PUSH2 0x591D JUMPI DUP3 PUSH1 0x40 MLOAD PUSH1 0x20 ADD PUSH2 0x57EA SWAP2 SWAP1 PUSH2 0x777F JUMP JUMPDEST PUSH1 0x40 DUP1 MLOAD PUSH1 0x1F NOT DUP2 DUP5 SUB ADD DUP2 MSTORE DUP3 DUP3 MSTORE DUP1 MLOAD PUSH1 0x20 SWAP2 DUP3 ADD KECCAK256 PUSH0 DUP6 DUP2 MSTORE PUSH1 0x4 DUP4 MSTORE SWAP3 SWAP1 SWAP3 KECCAK256 SWAP2 SWAP3 PUSH2 0x581E SWAP3 PUSH1 0x6 ADD SWAP2 ADD PUSH2 0x755B JUMP JUMPDEST PUSH1 0x40 MLOAD PUSH1 0x20 DUP2 DUP4 SUB SUB DUP2 MSTORE SWAP1 PUSH1 0x40 MSTORE DUP1 MLOAD SWAP1 PUSH1 0x20 ADD KECCAK256 EQ ISZERO DUP1 PUSH2 0x587A JUMPI POP PUSH0 DUP2 DUP2 MSTORE PUSH1 0x4 PUSH1 0x20 DUP2 SWAP1 MSTORE PUSH1 0x40 SWAP1 SWAP2 KECCAK256 ADD SLOAD PUSH1 0xFF PUSH2 0x100 SWAP1 SWAP2 DIV AND ISZERO ISZERO PUSH1 0x1 EQ DUP1 ISZERO PUSH2 0x587A JUMPI POP PUSH0 DUP2 DUP2 MSTORE PUSH1 0x4 PUSH1 0x20 DUP2 SWAP1 MSTORE PUSH1 0x40 SWAP1 SWAP2 KECCAK256 ADD SLOAD PUSH1 0xFF AND ISZERO JUMPDEST PUSH2 0x590B JUMPI PUSH1 0x40 MLOAD PUSH3 0x461BCD PUSH1 0xE5 SHL DUP2 MSTORE PUSH1 0x20 PUSH1 0x4 DUP3 ADD MSTORE PUSH1 0x56 PUSH1 0x24 DUP3 ADD MSTORE PUSH32 0x504153542052455155455354532050454E44494E47204F522044494646455245 PUSH1 0x44 DUP3 ADD MSTORE PUSH32 0x4E542042414E4B204150504C49434154494F4E204F522042414E4B2048415320 PUSH1 0x64 DUP3 ADD MSTORE PUSH22 0x414C5245414459204245454E20415050524F56454421 PUSH1 0x50 SHL PUSH1 0x84 DUP3 ADD MSTORE PUSH1 0xA4 ADD PUSH2 0x769 JUMP JUMPDEST DUP1 PUSH2 0x5915 DUP2 PUSH2 0x74D4 JUMP JUMPDEST SWAP2 POP POP PUSH2 0x57D0 JUMP JUMPDEST POP CALLER PUSH0 SWAP1 DUP2 MSTORE PUSH1 0x12 PUSH1 0x20 MSTORE PUSH1 0x40 SWAP1 KECCAK256 SLOAD PUSH1 0xFF AND ISZERO PUSH2 0x598F JUMPI PUSH1 0x40 MLOAD PUSH3 0x461BCD PUSH1 0xE5 SHL DUP2 MSTORE PUSH1 0x20 PUSH1 0x4 DUP3 ADD MSTORE PUSH1 0x29 PUSH1 0x24 DUP3 ADD MSTORE PUSH32 0x526567756C61746F72205665726966696572732063616E6E6F74207265717565 PUSH1 0x44 DUP3 ADD MSTORE PUSH9 0x7374206120726F6C65 PUSH1 0xB8 SHL PUSH1 0x64 DUP3 ADD MSTORE PUSH1 0x84 ADD PUSH2 0x769 JUMP JUMPDEST CALLER PUSH0 SWAP1 DUP2 MSTORE PUSH1 0x2 PUSH1 0x20 MSTORE PUSH1 0x40 SWAP1 KECCAK256 SLOAD PUSH1 0xFF AND ISZERO PUSH2 0x59BE JUMPI PUSH1 0x40 MLOAD PUSH3 0x461BCD PUSH1 0xE5 SHL DUP2 MSTORE PUSH1 0x4 ADD PUSH2 0x769 SWAP1 PUSH2 0x78AF JUMP JUMPDEST CALLER PUSH0 SWAP1 DUP2 MSTORE PUSH1 0x1 PUSH1 0x20 MSTORE PUSH1 0x40 SWAP1 KECCAK256 SLOAD PUSH1 0xFF AND ISZERO PUSH2 0x59ED JUMPI PUSH1 0x40 MLOAD PUSH3 0x461BCD PUSH1 0xE5 SHL DUP2 MSTORE PUSH1 0x4 ADD PUSH2 0x769 SWAP1 PUSH2 0x78F4 JUMP JUMPDEST DUP2 PUSH1 0x40 MLOAD PUSH1 0x20 ADD PUSH2 0x59FE SWAP2 SWAP1 PUSH2 0x777F JUMP JUMPDEST PUSH1 0x40 DUP1 MLOAD PUSH1 0x1F NOT DUP2 DUP5 SUB ADD DUP2 MSTORE DUP3 DUP3 MSTORE DUP1 MLOAD PUSH1 0x20 SWAP2 DUP3 ADD KECCAK256 PUSH1 0xE SLOAD PUSH0 SWAP1 DUP2 MSTORE PUSH1 0x4 DUP4 MSTORE SWAP3 SWAP1 SWAP3 KECCAK256 SWAP2 SWAP3 PUSH2 0x5A35 SWAP3 PUSH1 0x6 ADD SWAP2 ADD PUSH2 0x755B JUMP JUMPDEST PUSH1 0x40 MLOAD PUSH1 0x20 DUP2 DUP4 SUB SUB DUP2 MSTORE SWAP1 PUSH1 0x40 MSTORE DUP1 MLOAD SWAP1 PUSH1 0x20 ADD KECCAK256 SUB PUSH2 0x5A98 JUMPI PUSH1 0x40 MLOAD PUSH3 0x461BCD PUSH1 0xE5 SHL DUP2 MSTORE PUSH1 0x20 PUSH1 0x4 DUP3 ADD DUP2 SWAP1 MSTORE PUSH1 0x24 DUP3 ADD MSTORE PUSH32 0x53616D652044657461696C732061726520616C72656164792070726573656E74 PUSH1 0x44 DUP3 ADD MSTORE PUSH1 0x64 ADD PUSH2 0x769 JUMP JUMPDEST PUSH1 0xE SLOAD PUSH0 SWAP1 DUP2 MSTORE PUSH1 0x4 PUSH1 0x20 MSTORE PUSH1 0x40 SWAP1 KECCAK256 PUSH1 0x2 ADD SLOAD PUSH1 0x1 PUSH1 0x1 PUSH1 0xA0 SHL SUB AND CALLER EQ ISZERO DUP1 PUSH2 0x5AE2 JUMPI POP PUSH1 0xE SLOAD PUSH0 SWAP1 DUP2 MSTORE PUSH1 0x4 PUSH1 0x20 DUP2 SWAP1 MSTORE PUSH1 0x40 SWAP1 SWAP2 KECCAK256 ADD SLOAD PUSH1 0xFF PUSH2 0x100 SWAP1 SWAP2 DIV AND ISZERO ISZERO PUSH1 0x1 EQ JUMPDEST PUSH2 0x5AFE JUMPI PUSH1 0x40 MLOAD PUSH3 0x461BCD PUSH1 0xE5 SHL DUP2 MSTORE PUSH1 0x4 ADD PUSH2 0x769 SWAP1 PUSH2 0x7819 JUMP JUMPDEST PUSH1 0xE SLOAD PUSH0 DUP2 DUP2 MSTORE PUSH1 0x4 PUSH1 0x20 MSTORE PUSH1 0x40 SWAP1 KECCAK256 SLOAD SUB PUSH2 0x5B55 JUMPI PUSH1 0x40 MLOAD PUSH3 0x461BCD PUSH1 0xE5 SHL DUP2 MSTORE PUSH1 0x20 PUSH1 0x4 DUP3 ADD MSTORE PUSH1 0x16 PUSH1 0x24 DUP3 ADD MSTORE PUSH22 0x42616E6B20494420616C726561647920657869737473 PUSH1 0x50 SHL PUSH1 0x44 DUP3 ADD MSTORE PUSH1 0x64 ADD PUSH2 0x769 JUMP JUMPDEST PUSH1 0x40 DUP1 MLOAD PUSH2 0x140 DUP2 ADD DUP3 MSTORE PUSH1 0xE SLOAD DUP1 DUP3 MSTORE PUSH1 0x20 DUP1 DUP4 ADD DUP9 DUP2 MSTORE CALLER DUP5 DUP7 ADD MSTORE PUSH1 0x60 DUP5 ADD DUP7 SWAP1 MSTORE PUSH0 PUSH1 0x80 DUP6 ADD DUP2 SWAP1 MSTORE PUSH1 0xA0 DUP6 ADD DUP2 SWAP1 MSTORE PUSH1 0xC0 DUP6 ADD DUP2 SWAP1 MSTORE PUSH1 0xE0 DUP6 ADD DUP9 SWAP1 MSTORE PUSH2 0x100 DUP6 ADD DUP2 SWAP1 MSTORE PUSH2 0x120 DUP6 ADD DUP2 SWAP1 MSTORE SWAP3 DUP4 MSTORE PUSH1 0x4 SWAP1 SWAP2 MSTORE SWAP3 SWAP1 KECCAK256 DUP2 MLOAD DUP2 SSTORE SWAP2 MLOAD SWAP1 SWAP2 DUP3 SWAP2 PUSH1 0x1 DUP3 ADD SWAP1 PUSH2 0x5BCB SWAP1 DUP3 PUSH2 0x7685 JUMP JUMPDEST POP PUSH1 0x40 DUP3 ADD MLOAD PUSH1 0x2 DUP3 ADD DUP1 SLOAD PUSH1 0x1 PUSH1 0x1 PUSH1 0xA0 SHL SUB SWAP1 SWAP3 AND PUSH1 0x1 PUSH1 0x1 PUSH1 0xA0 SHL SUB NOT SWAP1 SWAP3 AND SWAP2 SWAP1 SWAP2 OR SWAP1 SSTORE PUSH1 0x60 DUP3 ADD MLOAD PUSH1 0x3 DUP3 ADD SSTORE PUSH1 0x80 DUP3 ADD MLOAD PUSH1 0x4 DUP3 ADD DUP1 SLOAD PUSH1 0xA0 DUP6 ADD MLOAD ISZERO ISZERO PUSH2 0x100 MUL PUSH2 0xFF00 NOT SWAP4 ISZERO ISZERO SWAP4 SWAP1 SWAP4 AND PUSH2 0xFFFF NOT SWAP1 SWAP2 AND OR SWAP2 SWAP1 SWAP2 OR SWAP1 SSTORE PUSH1 0xC0 DUP3 ADD MLOAD PUSH1 0x5 DUP3 ADD SSTORE PUSH1 0xE0 DUP3 ADD MLOAD PUSH1 0x6 DUP3 ADD SWAP1 PUSH2 0x5C4B SWAP1 DUP3 PUSH2 0x7685 JUMP JUMPDEST POP PUSH2 0x100 DUP3 ADD MLOAD PUSH1 0x7 DUP3 ADD SSTORE PUSH2 0x120 SWAP1 SWAP2 ADD MLOAD PUSH1 0x8 SWAP1 SWAP2 ADD DUP1 SLOAD PUSH1 0xFF NOT AND SWAP2 ISZERO ISZERO SWAP2 SWAP1 SWAP2 OR SWAP1 SSTORE CALLER PUSH0 SWAP1 DUP2 MSTORE PUSH1 0x5 PUSH1 0x20 SWAP1 DUP2 MSTORE PUSH1 0x40 SWAP1 SWAP2 KECCAK256 DUP3 MLOAD DUP2 SSTORE SWAP1 DUP3 ADD MLOAD DUP3 SWAP2 SWAP1 PUSH1 0x1 DUP3 ADD SWAP1 PUSH2 0x5C9D SWAP1 DUP3 PUSH2 0x7685 JUMP JUMPDEST POP PUSH1 0x40 DUP3 ADD MLOAD PUSH1 0x2 DUP3 ADD DUP1 SLOAD PUSH1 0x1 PUSH1 0x1 PUSH1 0xA0 SHL SUB SWAP1 SWAP3 AND PUSH1 0x1 PUSH1 0x1 PUSH1 0xA0 SHL SUB NOT SWAP1 SWAP3 AND SWAP2 SWAP1 SWAP2 OR SWAP1 SSTORE PUSH1 0x60 DUP3 ADD MLOAD PUSH1 0x3 DUP3 ADD SSTORE PUSH1 0x80 DUP3 ADD MLOAD PUSH1 0x4 DUP3 ADD DUP1 SLOAD PUSH1 0xA0 DUP6 ADD MLOAD ISZERO ISZERO PUSH2 0x100 MUL PUSH2 0xFF00 NOT SWAP4 ISZERO ISZERO SWAP4 SWAP1 SWAP4 AND PUSH2 0xFFFF NOT SWAP1 SWAP2 AND OR SWAP2 SWAP1 SWAP2 OR SWAP1 SSTORE PUSH1 0xC0 DUP3 ADD MLOAD PUSH1 0x5 DUP3 ADD SSTORE PUSH1 0xE0 DUP3 ADD MLOAD PUSH1 0x6 DUP3 ADD SWAP1 PUSH2 0x5D1D SWAP1 DUP3 PUSH2 0x7685 JUMP JUMPDEST POP PUSH2 0x100 DUP3 ADD MLOAD PUSH1 0x7 DUP3 ADD SSTORE PUSH2 0x120 SWAP1 SWAP2 ADD MLOAD PUSH1 0x8 SWAP1 SWAP2 ADD DUP1 SLOAD PUSH1 0xFF NOT AND SWAP2 ISZERO ISZERO SWAP2 SWAP1 SWAP2 OR SWAP1 SSTORE POP POP POP POP POP JUMP JUMPDEST PUSH0 PUSH1 0x6 DUP4 PUSH1 0x40 MLOAD PUSH2 0x5D5C SWAP2 SWAP1 PUSH2 0x777F JUMP JUMPDEST SWAP1 DUP2 MSTORE PUSH1 0x40 DUP1 MLOAD PUSH1 0x20 SWAP3 DUP2 SWAP1 SUB DUP4 ADD SWAP1 KECCAK256 PUSH0 SWAP5 DUP6 MSTORE SWAP1 SWAP2 MSTORE SWAP1 SWAP2 KECCAK256 PUSH1 0x5 ADD SLOAD PUSH1 0xFF AND SWAP3 SWAP2 POP POP JUMP JUMPDEST PUSH0 PUSH1 0xB DUP4 PUSH1 0x40 MLOAD PUSH2 0x5D5C SWAP2 SWAP1 PUSH2 0x777F JUMP JUMPDEST PUSH1 0xD DUP2 DUP2 SLOAD DUP2 LT PUSH2 0x5DA4 JUMPI PUSH0 DUP1 REVERT JUMPDEST SWAP1 PUSH0 MSTORE PUSH1 0x20 PUSH0 KECCAK256 SWAP1 PUSH1 0x5 MUL ADD PUSH0 SWAP2 POP SWAP1 POP DUP1 PUSH0 ADD DUP1 SLOAD PUSH2 0x5DC3 SWAP1 PUSH2 0x740B JUMP JUMPDEST DUP1 PUSH1 0x1F ADD PUSH1 0x20 DUP1 SWAP2 DIV MUL PUSH1 0x20 ADD PUSH1 0x40 MLOAD SWAP1 DUP2 ADD PUSH1 0x40 MSTORE DUP1 SWAP3 SWAP2 SWAP1 DUP2 DUP2 MSTORE PUSH1 0x20 ADD DUP3 DUP1 SLOAD PUSH2 0x5DEF SWAP1 PUSH2 0x740B JUMP JUMPDEST DUP1 ISZERO PUSH2 0x5E3A JUMPI DUP1 PUSH1 0x1F LT PUSH2 0x5E11 JUMPI PUSH2 0x100 DUP1 DUP4 SLOAD DIV MUL DUP4 MSTORE SWAP2 PUSH1 0x20 ADD SWAP2 PUSH2 0x5E3A JUMP JUMPDEST DUP3 ADD SWAP2 SWAP1 PUSH0 MSTORE PUSH1 0x20 PUSH0 KECCAK256 SWAP1 JUMPDEST DUP2 SLOAD DUP2 MSTORE SWAP1 PUSH1 0x1 ADD SWAP1 PUSH1 0x20 ADD DUP1 DUP4 GT PUSH2 0x5E1D JUMPI DUP3 SWAP1 SUB PUSH1 0x1F AND DUP3 ADD SWAP2 JUMPDEST POP POP POP PUSH1 0x1 DUP5 ADD SLOAD PUSH1 0x2 DUP6 ADD DUP1 SLOAD SWAP5 SWAP6 PUSH1 0x1 PUSH1 0x1 PUSH1 0xA0 SHL SUB SWAP1 SWAP3 AND SWAP5 SWAP2 SWAP4 POP SWAP2 POP PUSH2 0x5E64 SWAP1 PUSH2 0x740B JUMP JUMPDEST DUP1 PUSH1 0x1F ADD PUSH1 0x20 DUP1 SWAP2 DIV MUL PUSH1 0x20 ADD PUSH1 0x40 MLOAD SWAP1 DUP2 ADD PUSH1 0x40 MSTORE DUP1 SWAP3 SWAP2 SWAP1 DUP2 DUP2 MSTORE PUSH1 0x20 ADD DUP3 DUP1 SLOAD PUSH2 0x5E90 SWAP1 PUSH2 0x740B JUMP JUMPDEST DUP1 ISZERO PUSH2 0x5EDB JUMPI DUP1 PUSH1 0x1F LT PUSH2 0x5EB2 JUMPI PUSH2 0x100 DUP1 DUP4 SLOAD DIV MUL DUP4 MSTORE SWAP2 PUSH1 0x20 ADD SWAP2 PUSH2 0x5EDB JUMP JUMPDEST DUP3 ADD SWAP2 SWAP1 PUSH0 MSTORE PUSH1 0x20 PUSH0 KECCAK256 SWAP1 JUMPDEST DUP2 SLOAD DUP2 MSTORE SWAP1 PUSH1 0x1 ADD SWAP1 PUSH1 0x20 ADD DUP1 DUP4 GT PUSH2 0x5EBE JUMPI DUP3 SWAP1 SUB PUSH1 0x1F AND DUP3 ADD SWAP2 JUMPDEST POP POP POP POP PUSH1 0x3 DUP4 ADD SLOAD PUSH1 0x4 SWAP1 SWAP4 ADD SLOAD SWAP2 SWAP3 SWAP2 PUSH1 0x1 PUSH1 0x1 PUSH1 0xA0 SHL SUB DUP2 AND SWAP2 POP PUSH1 0x1 PUSH1 0xA0 SHL SWAP1 DIV PUSH1 0xFF AND DUP7 JUMP JUMPDEST DUP2 MLOAD PUSH1 0x20 DUP2 DUP5 ADD DUP2 ADD DUP1 MLOAD PUSH1 0xB DUP3 MSTORE SWAP3 DUP3 ADD SWAP5 DUP3 ADD SWAP5 SWAP1 SWAP5 KECCAK256 SWAP2 SWAP1 SWAP4 MSTORE SWAP1 SWAP2 MSTORE PUSH0 SWAP1 DUP2 MSTORE PUSH1 0x40 SWAP1 KECCAK256 DUP1 SLOAD DUP2 SWAP1 PUSH2 0x5F3B SWAP1 PUSH2 0x740B JUMP JUMPDEST DUP1 PUSH1 0x1F ADD PUSH1 0x20 DUP1 SWAP2 DIV MUL PUSH1 0x20 ADD PUSH1 0x40 MLOAD SWAP1 DUP2 ADD PUSH1 0x40 MSTORE DUP1 SWAP3 SWAP2 SWAP1 DUP2 DUP2 MSTORE PUSH1 0x20 ADD DUP3 DUP1 SLOAD PUSH2 0x5F67 SWAP1 PUSH2 0x740B JUMP JUMPDEST DUP1 ISZERO PUSH2 0x5FB2 JUMPI DUP1 PUSH1 0x1F LT PUSH2 0x5F89 JUMPI PUSH2 0x100 DUP1 DUP4 SLOAD DIV MUL DUP4 MSTORE SWAP2 PUSH1 0x20 ADD SWAP2 PUSH2 0x5FB2 JUMP JUMPDEST DUP3 ADD SWAP2 SWAP1 PUSH0 MSTORE PUSH1 0x20 PUSH0 KECCAK256 SWAP1 JUMPDEST DUP2 SLOAD DUP2 MSTORE SWAP1 PUSH1 0x1 ADD SWAP1 PUSH1 0x20 ADD DUP1 DUP4 GT PUSH2 0x5F95 JUMPI DUP3 SWAP1 SUB PUSH1 0x1F AND DUP3 ADD SWAP2 JUMPDEST POP POP POP POP POP SWAP1 DUP1 PUSH1 0x1 ADD DUP1 SLOAD PUSH2 0x5FC7 SWAP1 PUSH2 0x740B JUMP JUMPDEST DUP1 PUSH1 0x1F ADD PUSH1 0x20 DUP1 SWAP2 DIV MUL PUSH1 0x20 ADD PUSH1 0x40 MLOAD SWAP1 DUP2 ADD PUSH1 0x40 MSTORE DUP1 SWAP3 SWAP2 SWAP1 DUP2 DUP2 MSTORE PUSH1 0x20 ADD DUP3 DUP1 SLOAD PUSH2 0x5FF3 SWAP1 PUSH2 0x740B JUMP JUMPDEST DUP1 ISZERO PUSH2 0x603E JUMPI DUP1 PUSH1 0x1F LT PUSH2 0x6015 JUMPI PUSH2 0x100 DUP1 DUP4 SLOAD DIV MUL DUP4 MSTORE SWAP2 PUSH1 0x20 ADD SWAP2 PUSH2 0x603E JUMP JUMPDEST DUP3 ADD SWAP2 SWAP1 PUSH0 MSTORE PUSH1 0x20 PUSH0 KECCAK256 SWAP1 JUMPDEST DUP2 SLOAD DUP2 MSTORE SWAP1 PUSH1 0x1 ADD SWAP1 PUSH1 0x20 ADD DUP1 DUP4 GT PUSH2 0x6021 JUMPI DUP3 SWAP1 SUB PUSH1 0x1F AND DUP3 ADD SWAP2 JUMPDEST POP POP POP POP PUSH1 0x2 DUP4 ADD SLOAD PUSH1 0x3 DUP5 ADD SLOAD PUSH1 0x4 DUP6 ADD DUP1 SLOAD SWAP5 SWAP6 SWAP3 SWAP5 PUSH1 0x1 PUSH1 0x1 PUSH1 0xA0 SHL SUB SWAP1 SWAP3 AND SWAP4 POP SWAP1 PUSH2 0x606D SWAP1 PUSH2 0x740B JUMP JUMPDEST DUP1 PUSH1 0x1F ADD PUSH1 0x20 DUP1 SWAP2 DIV MUL PUSH1 0x20 ADD PUSH1 0x40 MLOAD SWAP1 DUP2 ADD PUSH1 0x40 MSTORE DUP1 SWAP3 SWAP2 SWAP1 DUP2 DUP2 MSTORE PUSH1 0x20 ADD DUP3 DUP1 SLOAD PUSH2 0x6099 SWAP1 PUSH2 0x740B JUMP JUMPDEST DUP1 ISZERO PUSH2 0x60E4 JUMPI DUP1 PUSH1 0x1F LT PUSH2 0x60BB JUMPI PUSH2 0x100 DUP1 DUP4 SLOAD DIV MUL DUP4 MSTORE SWAP2 PUSH1 0x20 ADD SWAP2 PUSH2 0x60E4 JUMP JUMPDEST DUP3 ADD SWAP2 SWAP1 PUSH0 MSTORE PUSH1 0x20 PUSH0 KECCAK256 SWAP1 JUMPDEST DUP2 SLOAD DUP2 MSTORE SWAP1 PUSH1 0x1 ADD SWAP1 PUSH1 0x20 ADD DUP1 DUP4 GT PUSH2 0x60C7 JUMPI DUP3 SWAP1 SUB PUSH1 0x1F AND DUP3 ADD SWAP2 JUMPDEST POP POP POP POP PUSH1 0x5 DUP4 ADD SLOAD PUSH1 0x6 DUP5 ADD SLOAD PUSH1 0x7 DUP6 ADD SLOAD PUSH1 0x8 DUP7 ADD SLOAD PUSH1 0x9 DUP8 ADD DUP1 SLOAD SWAP7 SWAP8 PUSH1 0xFF DUP1 DUP8 AND SWAP9 PUSH2 0x100 SWAP1 SWAP8 DIV AND SWAP7 POP SWAP4 SWAP5 SWAP3 SWAP4 SWAP2 SWAP3 PUSH2 0x6122 SWAP1 PUSH2 0x740B JUMP JUMPDEST DUP1 PUSH1 0x1F ADD PUSH1 0x20 DUP1 SWAP2 DIV MUL PUSH1 0x20 ADD PUSH1 0x40 MLOAD SWAP1 DUP2 ADD PUSH1 0x40 MSTORE DUP1 SWAP3 SWAP2 SWAP1 DUP2 DUP2 MSTORE PUSH1 0x20 ADD DUP3 DUP1 SLOAD PUSH2 0x614E SWAP1 PUSH2 0x740B JUMP JUMPDEST DUP1 ISZERO PUSH2 0x6199 JUMPI DUP1 PUSH1 0x1F LT PUSH2 0x6170 JUMPI PUSH2 0x100 DUP1 DUP4 SLOAD DIV MUL DUP4 MSTORE SWAP2 PUSH1 0x20 ADD SWAP2 PUSH2 0x6199 JUMP JUMPDEST DUP3 ADD SWAP2 SWAP1 PUSH0 MSTORE PUSH1 0x20 PUSH0 KECCAK256 SWAP1 JUMPDEST DUP2 SLOAD DUP2 MSTORE SWAP1 PUSH1 0x1 ADD SWAP1 PUSH1 0x20 ADD DUP1 DUP4 GT PUSH2 0x617C JUMPI DUP3 SWAP1 SUB PUSH1 0x1F AND DUP3 ADD SWAP2 JUMPDEST POP POP POP POP POP SWAP1 POP DUP12 JUMP JUMPDEST PUSH1 0x4 PUSH1 0x20 MSTORE PUSH0 SWAP1 DUP2 MSTORE PUSH1 0x40 SWAP1 KECCAK256 DUP1 SLOAD PUSH1 0x1 DUP3 ADD DUP1 SLOAD SWAP2 SWAP3 SWAP2 PUSH2 0x32EE SWAP1 PUSH2 0x740B JUMP JUMPDEST CALLER PUSH0 SWAP1 DUP2 MSTORE PUSH1 0x1 PUSH1 0x20 MSTORE PUSH1 0x40 SWAP1 KECCAK256 SLOAD PUSH1 0xFF AND PUSH2 0x61F2 JUMPI PUSH1 0x40 MLOAD PUSH3 0x461BCD PUSH1 0xE5 SHL DUP2 MSTORE PUSH1 0x4 ADD PUSH2 0x769 SWAP1 PUSH2 0x7738 JUMP JUMPDEST CALLER PUSH0 SWAP1 DUP2 MSTORE PUSH1 0x1B PUSH1 0x20 MSTORE PUSH1 0x40 SWAP1 DUP2 SWAP1 KECCAK256 SWAP1 MLOAD PUSH2 0x620F SWAP1 DUP8 SWAP1 PUSH2 0x777F JUMP JUMPDEST SWAP1 DUP2 MSTORE PUSH1 0x40 DUP1 MLOAD PUSH1 0x20 SWAP3 DUP2 SWAP1 SUB DUP4 ADD SWAP1 KECCAK256 PUSH0 DUP8 DUP2 MSTORE SWAP3 MSTORE SWAP1 KECCAK256 SLOAD PUSH1 0xFF AND ISZERO PUSH2 0x6275 JUMPI PUSH1 0x40 MLOAD PUSH3 0x461BCD PUSH1 0xE5 SHL DUP2 MSTORE PUSH1 0x20 PUSH1 0x4 DUP3 ADD MSTORE PUSH1 0x19 PUSH1 0x24 DUP3 ADD MSTORE PUSH25 0x5265717565737420416C726561647920417070726F76656421 PUSH1 0x38 SHL PUSH1 0x44 DUP3 ADD MSTORE PUSH1 0x64 ADD PUSH2 0x769 JUMP JUMPDEST PUSH0 DUP1 PUSH2 0x6280 DUP6 PUSH2 0x66FF JUMP JUMPDEST SWAP1 POP PUSH0 PUSH2 0x628E PUSH1 0x2 DUP4 PUSH2 0x7795 JUMP JUMPDEST SWAP1 POP PUSH1 0x1 JUMPDEST PUSH1 0xC DUP10 PUSH1 0x40 MLOAD PUSH2 0x62A3 SWAP2 SWAP1 PUSH2 0x777F JUMP JUMPDEST SWAP1 DUP2 MSTORE PUSH1 0x20 ADD PUSH1 0x40 MLOAD DUP1 SWAP2 SUB SWAP1 KECCAK256 SLOAD DUP2 GT PUSH2 0x66D7 JUMPI DUP8 PUSH1 0xB DUP11 PUSH1 0x40 MLOAD PUSH2 0x62C9 SWAP2 SWAP1 PUSH2 0x777F JUMP JUMPDEST SWAP1 DUP2 MSTORE PUSH1 0x20 ADD PUSH1 0x40 MLOAD DUP1 SWAP2 SUB SWAP1 KECCAK256 PUSH0 DUP4 DUP2 MSTORE PUSH1 0x20 ADD SWAP1 DUP2 MSTORE PUSH1 0x20 ADD PUSH0 KECCAK256 PUSH1 0x2 ADD SLOAD SUB PUSH2 0x66C5 JUMPI PUSH1 0xB DUP10 PUSH1 0x40 MLOAD PUSH2 0x62FF SWAP2 SWAP1 PUSH2 0x777F JUMP JUMPDEST SWAP1 DUP2 MSTORE PUSH1 0x40 DUP1 MLOAD PUSH1 0x20 SWAP3 DUP2 SWAP1 SUB DUP4 ADD SWAP1 KECCAK256 PUSH0 DUP5 DUP2 MSTORE SWAP3 MSTORE SWAP1 KECCAK256 PUSH1 0x5 ADD SLOAD PUSH1 0xFF AND ISZERO PUSH2 0x633C JUMPI PUSH1 0x40 MLOAD PUSH3 0x461BCD PUSH1 0xE5 SHL DUP2 MSTORE PUSH1 0x4 ADD PUSH2 0x769 SWAP1 PUSH2 0x7489 JUMP JUMPDEST PUSH1 0xB DUP10 PUSH1 0x40 MLOAD PUSH2 0x634C SWAP2 SWAP1 PUSH2 0x777F JUMP JUMPDEST SWAP1 DUP2 MSTORE PUSH1 0x40 DUP1 MLOAD PUSH1 0x20 SWAP3 DUP2 SWAP1 SUB DUP4 ADD SWAP1 KECCAK256 PUSH0 DUP5 DUP2 MSTORE SWAP3 MSTORE DUP2 KECCAK256 PUSH1 0x7 ADD DUP1 SLOAD SWAP2 PUSH2 0x6374 DUP4 PUSH2 0x74D4 JUMP JUMPDEST SWAP2 SWAP1 POP SSTORE POP PUSH1 0xB DUP10 PUSH1 0x40 MLOAD PUSH2 0x6389 SWAP2 SWAP1 PUSH2 0x777F JUMP JUMPDEST SWAP1 DUP2 MSTORE PUSH1 0x40 DUP1 MLOAD PUSH1 0x20 SWAP3 DUP2 SWAP1 SUB DUP4 ADD SWAP1 KECCAK256 PUSH0 DUP5 DUP2 MSTORE SWAP3 MSTORE DUP2 KECCAK256 PUSH1 0x8 ADD DUP1 SLOAD SWAP2 PUSH2 0x63B1 DUP4 PUSH2 0x74D4 JUMP JUMPDEST SWAP2 SWAP1 POP SSTORE POP PUSH1 0x8 DUP10 PUSH1 0x40 MLOAD PUSH2 0x63C6 SWAP2 SWAP1 PUSH2 0x777F JUMP JUMPDEST SWAP1 DUP2 MSTORE PUSH1 0x40 DUP1 MLOAD PUSH1 0x20 SWAP3 DUP2 SWAP1 SUB DUP4 ADD SWAP1 KECCAK256 PUSH1 0x1 PUSH1 0x1 PUSH1 0xA0 SHL SUB DUP10 AND PUSH0 SWAP1 DUP2 MSTORE SWAP3 MSTORE DUP2 KECCAK256 PUSH1 0x7 ADD DUP1 SLOAD SWAP2 PUSH2 0x63F8 DUP4 PUSH2 0x74D4 JUMP JUMPDEST SWAP2 SWAP1 POP SSTORE POP PUSH1 0x8 DUP10 PUSH1 0x40 MLOAD PUSH2 0x640D SWAP2 SWAP1 PUSH2 0x777F JUMP JUMPDEST SWAP1 DUP2 MSTORE PUSH1 0x40 DUP1 MLOAD PUSH1 0x20 SWAP3 DUP2 SWAP1 SUB DUP4 ADD SWAP1 KECCAK256 PUSH1 0x1 PUSH1 0x1 PUSH1 0xA0 SHL SUB DUP10 AND PUSH0 SWAP1 DUP2 MSTORE SWAP3 MSTORE DUP2 KECCAK256 PUSH1 0x8 ADD DUP1 SLOAD SWAP2 PUSH2 0x643F DUP4 PUSH2 0x74D4 JUMP JUMPDEST SWAP1 SWAP2 SSTORE POP PUSH2 0x6450 SWAP1 POP DUP3 PUSH1 0x1 PUSH2 0x77B4 JUMP JUMPDEST PUSH1 0xB DUP11 PUSH1 0x40 MLOAD PUSH2 0x6460 SWAP2 SWAP1 PUSH2 0x777F JUMP JUMPDEST SWAP1 DUP2 MSTORE PUSH1 0x20 ADD PUSH1 0x40 MLOAD DUP1 SWAP2 SUB SWAP1 KECCAK256 PUSH0 DUP4 DUP2 MSTORE PUSH1 0x20 ADD SWAP1 DUP2 MSTORE PUSH1 0x20 ADD PUSH0 KECCAK256 PUSH1 0x7 ADD SLOAD LT PUSH2 0x65DF JUMPI PUSH0 PUSH1 0xB DUP11 PUSH1 0x40 MLOAD PUSH2 0x6497 SWAP2 SWAP1 PUSH2 0x777F JUMP JUMPDEST SWAP1 DUP2 MSTORE PUSH1 0x40 DUP1 MLOAD PUSH1 0x20 SWAP3 DUP2 SWAP1 SUB DUP4 ADD DUP2 KECCAK256 PUSH0 DUP7 DUP2 MSTORE SWAP4 MSTORE SWAP2 KECCAK256 PUSH1 0x5 ADD DUP1 SLOAD PUSH1 0xFF NOT AND SWAP3 ISZERO ISZERO SWAP3 SWAP1 SWAP3 OR SWAP1 SWAP2 SSTORE PUSH1 0x1 SWAP1 PUSH1 0xB SWAP1 PUSH2 0x64D4 SWAP1 DUP13 SWAP1 PUSH2 0x777F JUMP JUMPDEST SWAP1 DUP2 MSTORE PUSH1 0x40 DUP1 MLOAD SWAP2 DUP3 SWAP1 SUB PUSH1 0x20 SWAP1 DUP2 ADD DUP4 KECCAK256 PUSH0 DUP7 DUP2 MSTORE SWAP2 MSTORE SWAP1 DUP2 KECCAK256 PUSH1 0x5 ADD DUP1 SLOAD SWAP4 ISZERO ISZERO PUSH2 0x100 MUL PUSH2 0xFF00 NOT SWAP1 SWAP5 AND SWAP4 SWAP1 SWAP4 OR SWAP1 SWAP3 SSTORE PUSH1 0x8 SWAP1 PUSH2 0x6517 SWAP1 DUP13 SWAP1 PUSH2 0x777F JUMP JUMPDEST SWAP1 DUP2 MSTORE PUSH1 0x40 DUP1 MLOAD PUSH1 0x20 SWAP3 DUP2 SWAP1 SUB DUP4 ADD DUP2 KECCAK256 PUSH1 0x1 PUSH1 0x1 PUSH1 0xA0 SHL SUB DUP12 AND PUSH0 SWAP1 DUP2 MSTORE SWAP4 MSTORE SWAP2 KECCAK256 PUSH1 0x5 ADD DUP1 SLOAD PUSH1 0xFF NOT AND SWAP3 ISZERO ISZERO SWAP3 SWAP1 SWAP3 OR SWAP1 SWAP2 SSTORE PUSH1 0x1 SWAP1 PUSH1 0x8 SWAP1 PUSH2 0x655E SWAP1 DUP13 SWAP1 PUSH2 0x777F JUMP JUMPDEST SWAP1 DUP2 MSTORE PUSH1 0x40 DUP1 MLOAD SWAP2 DUP3 SWAP1 SUB PUSH1 0x20 SWAP1 DUP2 ADD DUP4 KECCAK256 PUSH1 0x1 PUSH1 0x1 PUSH1 0xA0 SHL SUB DUP12 AND PUSH0 SWAP1 DUP2 MSTORE SWAP1 DUP3 MSTORE DUP3 DUP2 KECCAK256 PUSH1 0x5 ADD DUP1 SLOAD SWAP6 ISZERO ISZERO PUSH2 0x100 MUL PUSH2 0xFF00 NOT SWAP1 SWAP7 AND SWAP6 SWAP1 SWAP6 OR SWAP1 SWAP5 SSTORE CALLER DUP5 MSTORE PUSH1 0x1B SWAP1 MSTORE SWAP1 SWAP2 KECCAK256 PUSH1 0x1 SWAP2 PUSH2 0x65B6 SWAP1 DUP13 SWAP1 PUSH2 0x777F JUMP JUMPDEST SWAP1 DUP2 MSTORE PUSH1 0x40 DUP1 MLOAD PUSH1 0x20 SWAP3 DUP2 SWAP1 SUB DUP4 ADD SWAP1 KECCAK256 PUSH0 DUP13 DUP2 MSTORE SWAP3 MSTORE SWAP1 KECCAK256 DUP1 SLOAD PUSH1 0xFF NOT AND SWAP2 ISZERO ISZERO SWAP2 SWAP1 SWAP2 OR SWAP1 SSTORE JUMPDEST DUP1 PUSH32 0x661A15043248F2EFCCF5083BE9E8D627257F76FBEB6A299FF83A1BFC34FCFCE8 PUSH1 0xB DUP12 PUSH1 0x40 MLOAD PUSH2 0x6611 SWAP2 SWAP1 PUSH2 0x777F JUMP JUMPDEST SWAP1 DUP2 MSTORE PUSH1 0x40 DUP1 MLOAD SWAP2 DUP3 SWAP1 SUB PUSH1 0x20 SWAP1 DUP2 ADD DUP4 KECCAK256 PUSH0 DUP8 DUP2 MSTORE SWAP2 MSTORE KECCAK256 PUSH1 0x3 ADD SLOAD PUSH1 0x1 PUSH1 0x1 PUSH1 0xA0 SHL SUB AND SWAP1 PUSH1 0xB SWAP1 PUSH2 0x6646 SWAP1 DUP15 SWAP1 PUSH2 0x777F JUMP JUMPDEST SWAP1 DUP2 MSTORE PUSH1 0x40 DUP1 MLOAD SWAP2 DUP3 SWAP1 SUB PUSH1 0x20 SWAP1 DUP2 ADD DUP4 KECCAK256 PUSH0 DUP9 DUP2 MSTORE SWAP2 MSTORE KECCAK256 PUSH2 0x666F SWAP3 SWAP2 PUSH1 0x4 SWAP1 SWAP2 ADD SWAP1 PUSH2 0x796E JUMP JUMPDEST PUSH1 0x40 MLOAD DUP1 SWAP2 SUB SWAP1 LOG2 PUSH1 0x1A DUP10 PUSH1 0x40 MLOAD PUSH2 0x6687 SWAP2 SWAP1 PUSH2 0x777F JUMP JUMPDEST SWAP1 DUP2 MSTORE PUSH1 0x40 DUP1 MLOAD PUSH1 0x20 SWAP3 DUP2 SWAP1 SUB DUP4 ADD SWAP1 KECCAK256 PUSH0 DUP5 DUP2 MSTORE SWAP1 DUP4 MSTORE SWAP1 DUP2 KECCAK256 DUP1 SLOAD PUSH1 0x1 DUP2 ADD DUP3 SSTORE SWAP1 DUP3 MSTORE SWAP2 SWAP1 KECCAK256 ADD PUSH2 0x66BB DUP7 DUP3 PUSH2 0x7685 JUMP JUMPDEST POP PUSH1 0x1 SWAP4 POP PUSH2 0x66D7 JUMP JUMPDEST DUP1 PUSH2 0x66CF DUP2 PUSH2 0x74D4 JUMP JUMPDEST SWAP2 POP POP PUSH2 0x6293 JUMP JUMPDEST POP DUP3 PUSH2 0x66F5 JUMPI PUSH1 0x40 MLOAD PUSH3 0x461BCD PUSH1 0xE5 SHL DUP2 MSTORE PUSH1 0x4 ADD PUSH2 0x769 SWAP1 PUSH2 0x77C7 JUMP JUMPDEST POP POP POP POP POP POP POP POP JUMP JUMPDEST PUSH0 DUP2 DUP2 DUP1 JUMPDEST DUP3 MLOAD DUP2 LT ISZERO PUSH2 0x676D JUMPI PUSH0 DUP4 DUP3 DUP2 MLOAD DUP2 LT PUSH2 0x6720 JUMPI PUSH2 0x6720 PUSH2 0x73F7 JUMP JUMPDEST ADD PUSH1 0x20 ADD MLOAD PUSH1 0xF8 SHR SWAP1 POP PUSH1 0x30 DUP2 LT DUP1 ISZERO SWAP1 PUSH2 0x673C JUMPI POP PUSH1 0x39 DUP2 GT ISZERO JUMPDEST ISZERO PUSH2 0x6764 JUMPI PUSH2 0x674C PUSH1 0x30 DUP3 PUSH2 0x7A08 JUMP JUMPDEST PUSH2 0x6757 DUP5 PUSH1 0xA PUSH2 0x7A1B JUMP JUMPDEST PUSH2 0x6761 SWAP2 SWAP1 PUSH2 0x77B4 JUMP JUMPDEST SWAP3 POP JUMPDEST POP PUSH1 0x1 ADD PUSH2 0x6704 JUMP JUMPDEST POP SWAP4 SWAP3 POP POP POP JUMP JUMPDEST PUSH1 0x60 PUSH1 0x10 DUP1 SLOAD DUP1 PUSH1 0x20 MUL PUSH1 0x20 ADD PUSH1 0x40 MLOAD SWAP1 DUP2 ADD PUSH1 0x40 MSTORE DUP1 SWAP3 SWAP2 SWAP1 DUP2 DUP2 MSTORE PUSH1 0x20 ADD DUP3 DUP1 SLOAD DUP1 ISZERO PUSH2 0x67CB JUMPI PUSH1 0x20 MUL DUP3 ADD SWAP2 SWAP1 PUSH0 MSTORE PUSH1 0x20 PUSH0 KECCAK256 SWAP1 JUMPDEST DUP2 SLOAD PUSH1 0x1 PUSH1 0x1 PUSH1 0xA0 SHL SUB AND DUP2 MSTORE PUSH1 0x1 SWAP1 SWAP2 ADD SWAP1 PUSH1 0x20 ADD DUP1 DUP4 GT PUSH2 0x67AD JUMPI JUMPDEST POP POP POP POP POP SWAP1 POP SWAP1 JUMP JUMPDEST PUSH1 0x40 MLOAD DUP1 PUSH2 0x180 ADD PUSH1 0x40 MSTORE DUP1 PUSH0 DUP2 MSTORE PUSH1 0x20 ADD PUSH1 0x60 DUP2 MSTORE PUSH1 0x20 ADD PUSH0 DUP2 MSTORE PUSH1 0x20 ADD PUSH0 PUSH1 0x1 PUSH1 0x1 PUSH1 0xA0 SHL SUB AND DUP2 MSTORE PUSH1 0x20 ADD PUSH1 0x60 DUP2 MSTORE PUSH1 0x20 ADD PUSH0 ISZERO ISZERO DUP2 MSTORE PUSH1 0x20 ADD PUSH0 ISZERO ISZERO DUP2 MSTORE PUSH1 0x20 ADD PUSH0 DUP2 MSTORE PUSH1 0x20 ADD PUSH0 DUP2 MSTORE PUSH1 0x20 ADD PUSH0 DUP2 MSTORE PUSH1 0x20 ADD PUSH0 ISZERO ISZERO DUP2 MSTORE PUSH1 0x20 ADD PUSH1 0x60 DUP2 MSTORE POP SWAP1 JUMP JUMPDEST PUSH4 0x4E487B71 PUSH1 0xE0 SHL PUSH0 MSTORE PUSH1 0x41 PUSH1 0x4 MSTORE PUSH1 0x24 PUSH0 REVERT JUMPDEST PUSH0 DUP3 PUSH1 0x1F DUP4 ADD SLT PUSH2 0x685F JUMPI PUSH0 DUP1 REVERT JUMPDEST DUP2 CALLDATALOAD PUSH1 0x1 PUSH1 0x1 PUSH1 0x40 SHL SUB DUP1 DUP3 GT ISZERO PUSH2 0x6879 JUMPI PUSH2 0x6879 PUSH2 0x683C JUMP JUMPDEST PUSH1 0x40 MLOAD PUSH1 0x1F DUP4 ADD PUSH1 0x1F NOT SWAP1 DUP2 AND PUSH1 0x3F ADD AND DUP2 ADD SWAP1 DUP3 DUP3 GT DUP2 DUP4 LT OR ISZERO PUSH2 0x68A1 JUMPI PUSH2 0x68A1 PUSH2 0x683C JUMP JUMPDEST DUP2 PUSH1 0x40 MSTORE DUP4 DUP2 MSTORE DUP7 PUSH1 0x20 DUP6 DUP9 ADD ADD GT ISZERO PUSH2 0x68B9 JUMPI PUSH0 DUP1 REVERT JUMPDEST DUP4 PUSH1 0x20 DUP8 ADD PUSH1 0x20 DUP4 ADD CALLDATACOPY PUSH0 PUSH1 0x20 DUP6 DUP4 ADD ADD MSTORE DUP1 SWAP5 POP POP POP POP POP SWAP3 SWAP2 POP POP JUMP JUMPDEST PUSH0 PUSH1 0x20 DUP3 DUP5 SUB SLT ISZERO PUSH2 0x68E8 JUMPI PUSH0 DUP1 REVERT JUMPDEST DUP2 CALLDATALOAD PUSH1 0x1 PUSH1 0x1 PUSH1 0x40 SHL SUB DUP2 GT ISZERO PUSH2 0x68FD JUMPI PUSH0 DUP1 REVERT JUMPDEST PUSH2 0x6909 DUP5 DUP3 DUP6 ADD PUSH2 0x6850 JUMP JUMPDEST SWAP5 SWAP4 POP POP POP POP JUMP JUMPDEST PUSH1 0x20 DUP1 DUP3 MSTORE DUP3 MLOAD DUP3 DUP3 ADD DUP2 SWAP1 MSTORE PUSH0 SWAP2 SWAP1 DUP5 DUP3 ADD SWAP1 PUSH1 0x40 DUP6 ADD SWAP1 DUP5 JUMPDEST DUP2 DUP2 LT ISZERO PUSH2 0x6951 JUMPI DUP4 MLOAD PUSH1 0x1 PUSH1 0x1 PUSH1 0xA0 SHL SUB AND DUP4 MSTORE SWAP3 DUP5 ADD SWAP3 SWAP2 DUP5 ADD SWAP2 PUSH1 0x1 ADD PUSH2 0x692C JUMP JUMPDEST POP SWAP1 SWAP7 SWAP6 POP POP POP POP POP POP JUMP JUMPDEST PUSH0 DUP1 PUSH0 PUSH1 0x60 DUP5 DUP7 SUB SLT ISZERO PUSH2 0x696F JUMPI PUSH0 DUP1 REVERT JUMPDEST DUP4 CALLDATALOAD PUSH1 0x1 PUSH1 0x1 PUSH1 0x40 SHL SUB DUP2 GT ISZERO PUSH2 0x6984 JUMPI PUSH0 DUP1 REVERT JUMPDEST PUSH2 0x6990 DUP7 DUP3 DUP8 ADD PUSH2 0x6850 JUMP JUMPDEST SWAP7 PUSH1 0x20 DUP7 ADD CALLDATALOAD SWAP7 POP PUSH1 0x40 SWAP1 SWAP6 ADD CALLDATALOAD SWAP5 SWAP4 POP POP POP POP JUMP JUMPDEST PUSH0 DUP1 PUSH1 0x40 DUP4 DUP6 SUB SLT ISZERO PUSH2 0x69B7 JUMPI PUSH0 DUP1 REVERT JUMPDEST DUP3 CALLDATALOAD PUSH1 0x1 PUSH1 0x1 PUSH1 0x40 SHL SUB DUP2 GT ISZERO PUSH2 0x69CC JUMPI PUSH0 DUP1 REVERT JUMPDEST PUSH2 0x69D8 DUP6 DUP3 DUP7 ADD PUSH2 0x6850 JUMP JUMPDEST SWAP6 PUSH1 0x20 SWAP5 SWAP1 SWAP5 ADD CALLDATALOAD SWAP5 POP POP POP POP JUMP JUMPDEST PUSH0 DUP2 MLOAD DUP1 DUP5 MSTORE DUP1 PUSH1 0x20 DUP5 ADD PUSH1 0x20 DUP7 ADD MCOPY PUSH0 PUSH1 0x20 DUP3 DUP7 ADD ADD MSTORE PUSH1 0x20 PUSH1 0x1F NOT PUSH1 0x1F DUP4 ADD AND DUP6 ADD ADD SWAP2 POP POP SWAP3 SWAP2 POP POP JUMP JUMPDEST PUSH0 PUSH2 0x180 DUP15 DUP4 MSTORE DUP1 PUSH1 0x20 DUP5 ADD MSTORE PUSH2 0x6A2E DUP2 DUP5 ADD DUP16 PUSH2 0x69E7 JUMP JUMPDEST PUSH1 0x40 DUP5 ADD DUP15 SWAP1 MSTORE PUSH1 0x1 PUSH1 0x1 PUSH1 0xA0 SHL SUB DUP14 AND PUSH1 0x60 DUP6 ADD MSTORE DUP4 DUP2 SUB PUSH1 0x80 DUP6 ADD MSTORE SWAP1 POP PUSH2 0x6A58 DUP2 DUP13 PUSH2 0x69E7 JUMP JUMPDEST SWAP1 POP DUP10 ISZERO ISZERO PUSH1 0xA0 DUP5 ADD MSTORE DUP9 ISZERO ISZERO PUSH1 0xC0 DUP5 ADD MSTORE DUP8 PUSH1 0xE0 DUP5 ADD MSTORE DUP7 PUSH2 0x100 DUP5 ADD MSTORE DUP6 PUSH2 0x120 DUP5 ADD MSTORE PUSH2 0x6A8D PUSH2 0x140 DUP5 ADD DUP7 ISZERO ISZERO SWAP1 MSTORE JUMP JUMPDEST DUP3 DUP2 SUB PUSH2 0x160 DUP5 ADD MSTORE PUSH2 0x6AA0 DUP2 DUP6 PUSH2 0x69E7 JUMP JUMPDEST SWAP16 SWAP15 POP POP POP POP POP POP POP POP POP POP POP POP POP POP POP JUMP JUMPDEST DUP1 CALLDATALOAD PUSH1 0x1 PUSH1 0x1 PUSH1 0xA0 SHL SUB DUP2 AND DUP2 EQ PUSH2 0x862 JUMPI PUSH0 DUP1 REVERT JUMPDEST PUSH0 DUP1 PUSH0 DUP1 PUSH0 PUSH1 0xA0 DUP7 DUP9 SUB SLT ISZERO PUSH2 0x6ADD JUMPI PUSH0 DUP1 REVERT JUMPDEST DUP6 CALLDATALOAD PUSH1 0x1 PUSH1 0x1 PUSH1 0x40 SHL SUB DUP1 DUP3 GT ISZERO PUSH2 0x6AF3 JUMPI PUSH0 DUP1 REVERT JUMPDEST PUSH2 0x6AFF DUP10 DUP4 DUP11 ADD PUSH2 0x6850 JUMP JUMPDEST SWAP7 POP PUSH1 0x20 DUP9 ADD CALLDATALOAD SWAP6 POP PUSH1 0x40 DUP9 ADD CALLDATALOAD SWAP5 POP PUSH2 0x6B1B PUSH1 0x60 DUP10 ADD PUSH2 0x6AB3 JUMP JUMPDEST SWAP4 POP PUSH1 0x80 DUP9 ADD CALLDATALOAD SWAP2 POP DUP1 DUP3 GT ISZERO PUSH2 0x6B30 JUMPI PUSH0 DUP1 REVERT JUMPDEST POP PUSH2 0x6B3D DUP9 DUP3 DUP10 ADD PUSH2 0x6850 JUMP JUMPDEST SWAP2 POP POP SWAP3 SWAP6 POP SWAP3 SWAP6 SWAP1 SWAP4 POP JUMP JUMPDEST PUSH0 PUSH1 0x20 DUP3 DUP5 SUB SLT ISZERO PUSH2 0x6B5A JUMPI PUSH0 DUP1 REVERT JUMPDEST POP CALLDATALOAD SWAP2 SWAP1 POP JUMP JUMPDEST PUSH0 DUP1 PUSH0 DUP1 PUSH1 0x80 DUP6 DUP8 SUB SLT ISZERO PUSH2 0x6B74 JUMPI PUSH0 DUP1 REVERT JUMPDEST DUP5 CALLDATALOAD PUSH1 0x1 PUSH1 0x1 PUSH1 0x40 SHL SUB DUP1 DUP3 GT ISZERO PUSH2 0x6B8A JUMPI PUSH0 DUP1 REVERT JUMPDEST PUSH2 0x6B96 DUP9 DUP4 DUP10 ADD PUSH2 0x6850 JUMP JUMPDEST SWAP6 POP PUSH1 0x20 DUP8 ADD CALLDATALOAD SWAP2 POP DUP1 DUP3 GT ISZERO PUSH2 0x6BAB JUMPI PUSH0 DUP1 REVERT JUMPDEST PUSH2 0x6BB7 DUP9 DUP4 DUP10 ADD PUSH2 0x6850 JUMP JUMPDEST SWAP5 POP PUSH1 0x40 DUP8 ADD CALLDATALOAD SWAP2 POP DUP1 DUP3 GT ISZERO PUSH2 0x6BCC JUMPI PUSH0 DUP1 REVERT JUMPDEST PUSH2 0x6BD8 DUP9 DUP4 DUP10 ADD PUSH2 0x6850 JUMP JUMPDEST SWAP4 POP PUSH1 0x60 DUP8 ADD CALLDATALOAD SWAP2 POP DUP1 DUP3 GT ISZERO PUSH2 0x6BED JUMPI PUSH0 DUP1 REVERT JUMPDEST POP PUSH2 0x6BFA DUP8 DUP3 DUP9 ADD PUSH2 0x6850 JUMP JUMPDEST SWAP2 POP POP SWAP3 SWAP6 SWAP2 SWAP5 POP SWAP3 POP JUMP JUMPDEST PUSH0 DUP1 PUSH0 DUP1 PUSH0 PUSH1 0xA0 DUP7 DUP9 SUB SLT ISZERO PUSH2 0x6C1A JUMPI PUSH0 DUP1 REVERT JUMPDEST DUP6 CALLDATALOAD PUSH1 0x1 PUSH1 0x1 PUSH1 0x40 SHL SUB DUP1 DUP3 GT ISZERO PUSH2 0x6C30 JUMPI PUSH0 DUP1 REVERT JUMPDEST PUSH2 0x6C3C DUP10 DUP4 DUP11 ADD PUSH2 0x6850 JUMP JUMPDEST SWAP7 POP PUSH1 0x20 DUP9 ADD CALLDATALOAD SWAP2 POP DUP1 DUP3 GT ISZERO PUSH2 0x6C51 JUMPI PUSH0 DUP1 REVERT JUMPDEST PUSH2 0x6C5D DUP10 DUP4 DUP11 ADD PUSH2 0x6850 JUMP JUMPDEST SWAP6 POP PUSH1 0x40 DUP9 ADD CALLDATALOAD SWAP2 POP DUP1 DUP3 GT ISZERO PUSH2 0x6C72 JUMPI PUSH0 DUP1 REVERT JUMPDEST PUSH2 0x6C7E DUP10 DUP4 DUP11 ADD PUSH2 0x6850 JUMP JUMPDEST SWAP5 POP PUSH1 0x60 DUP9 ADD CALLDATALOAD SWAP2 POP DUP1 DUP3 GT ISZERO PUSH2 0x6C93 JUMPI PUSH0 DUP1 REVERT JUMPDEST POP PUSH2 0x6CA0 DUP9 DUP3 DUP10 ADD PUSH2 0x6850 JUMP JUMPDEST SWAP3 POP POP PUSH2 0x6CAF PUSH1 0x80 DUP8 ADD PUSH2 0x6AB3 JUMP JUMPDEST SWAP1 POP SWAP3 SWAP6 POP SWAP3 SWAP6 SWAP1 SWAP4 POP JUMP JUMPDEST PUSH0 PUSH1 0x20 DUP3 DUP5 SUB SLT ISZERO PUSH2 0x6CCB JUMPI PUSH0 DUP1 REVERT JUMPDEST PUSH2 0x6CD4 DUP3 PUSH2 0x6AB3 JUMP JUMPDEST SWAP4 SWAP3 POP POP POP JUMP JUMPDEST PUSH0 PUSH2 0x140 DUP13 DUP4 MSTORE DUP1 PUSH1 0x20 DUP5 ADD MSTORE PUSH2 0x6CF4 DUP2 DUP5 ADD DUP14 PUSH2 0x69E7 JUMP JUMPDEST PUSH1 0x1 PUSH1 0x1 PUSH1 0xA0 SHL SUB DUP13 AND PUSH1 0x40 DUP6 ADD MSTORE PUSH1 0x60 DUP5 ADD DUP12 SWAP1 MSTORE DUP10 ISZERO ISZERO PUSH1 0x80 DUP6 ADD MSTORE DUP9 ISZERO ISZERO PUSH1 0xA0 DUP6 ADD MSTORE PUSH1 0xC0 DUP5 ADD DUP9 SWAP1 MSTORE DUP4 DUP2 SUB PUSH1 0xE0 DUP6 ADD MSTORE SWAP1 POP PUSH2 0x6D35 DUP2 DUP8 PUSH2 0x69E7 JUMP JUMPDEST PUSH2 0x100 DUP5 ADD SWAP6 SWAP1 SWAP6 MSTORE POP POP SWAP1 ISZERO ISZERO PUSH2 0x120 SWAP1 SWAP2 ADD MSTORE SWAP9 SWAP8 POP POP POP POP POP POP POP POP JUMP JUMPDEST PUSH0 PUSH1 0x20 DUP1 DUP4 ADD PUSH1 0x20 DUP5 MSTORE DUP1 DUP6 MLOAD DUP1 DUP4 MSTORE PUSH1 0x40 DUP7 ADD SWAP2 POP PUSH1 0x40 DUP2 PUSH1 0x5 SHL DUP8 ADD ADD SWAP3 POP PUSH1 0x20 DUP8 ADD PUSH0 JUMPDEST DUP3 DUP2 LT ISZERO PUSH2 0x6DAB JUMPI PUSH1 0x3F NOT DUP9 DUP7 SUB ADD DUP5 MSTORE PUSH2 0x6D99 DUP6 DUP4 MLOAD PUSH2 0x69E7 JUMP JUMPDEST SWAP5 POP SWAP3 DUP6 ADD SWAP3 SWAP1 DUP6 ADD SWAP1 PUSH1 0x1 ADD PUSH2 0x6D7D JUMP JUMPDEST POP SWAP3 SWAP8 SWAP7 POP POP POP POP POP POP POP JUMP JUMPDEST PUSH0 DUP1 PUSH0 DUP1 PUSH0 PUSH1 0xA0 DUP7 DUP9 SUB SLT ISZERO PUSH2 0x6DCC JUMPI PUSH0 DUP1 REVERT JUMPDEST DUP6 CALLDATALOAD SWAP5 POP PUSH1 0x20 DUP7 ADD CALLDATALOAD PUSH1 0x1 PUSH1 0x1 PUSH1 0x40 SHL SUB DUP2 GT ISZERO PUSH2 0x6DE8 JUMPI PUSH0 DUP1 REVERT JUMPDEST PUSH2 0x6DF4 DUP9 DUP3 DUP10 ADD PUSH2 0x6850 JUMP JUMPDEST SWAP5 POP POP PUSH1 0x40 DUP7 ADD CALLDATALOAD SWAP3 POP PUSH1 0x60 DUP7 ADD CALLDATALOAD SWAP2 POP PUSH2 0x6CAF PUSH1 0x80 DUP8 ADD PUSH2 0x6AB3 JUMP JUMPDEST PUSH1 0x20 DUP2 MSTORE DUP2 MLOAD PUSH1 0x20 DUP3 ADD MSTORE PUSH0 PUSH1 0x20 DUP4 ADD MLOAD PUSH2 0x140 DUP1 PUSH1 0x40 DUP6 ADD MSTORE PUSH2 0x6E39 PUSH2 0x160 DUP6 ADD DUP4 PUSH2 0x69E7 JUMP JUMPDEST SWAP2 POP PUSH1 0x40 DUP6 ADD MLOAD PUSH2 0x6E55 PUSH1 0x60 DUP7 ADD DUP3 PUSH1 0x1 PUSH1 0x1 PUSH1 0xA0 SHL SUB AND SWAP1 MSTORE JUMP JUMPDEST POP PUSH1 0x60 DUP6 ADD MLOAD PUSH1 0x80 DUP6 ADD MSTORE PUSH1 0x80 DUP6 ADD MLOAD PUSH2 0x6E73 PUSH1 0xA0 DUP7 ADD DUP3 ISZERO ISZERO SWAP1 MSTORE JUMP JUMPDEST POP PUSH1 0xA0 DUP6 ADD MLOAD DUP1 ISZERO ISZERO PUSH1 0xC0 DUP7 ADD MSTORE POP PUSH1 0xC0 DUP6 ADD MLOAD PUSH1 0xE0 DUP6 ADD MSTORE PUSH1 0xE0 DUP6 ADD MLOAD PUSH2 0x100 PUSH1 0x1F NOT DUP7 DUP6 SUB ADD DUP2 DUP8 ADD MSTORE PUSH2 0x6EA9 DUP5 DUP4 PUSH2 0x69E7 JUMP JUMPDEST SWAP1 DUP8 ADD MLOAD PUSH2 0x120 DUP8 DUP2 ADD SWAP2 SWAP1 SWAP2 MSTORE SWAP1 SWAP7 ADD MLOAD ISZERO ISZERO SWAP2 SWAP1 SWAP5 ADD MSTORE POP SWAP2 SWAP3 SWAP2 POP POP JUMP JUMPDEST PUSH1 0x20 DUP2 MSTORE PUSH0 PUSH2 0x6CD4 PUSH1 0x20 DUP4 ADD DUP5 PUSH2 0x69E7 JUMP JUMPDEST PUSH0 DUP1 PUSH0 DUP1 PUSH0 PUSH1 0xA0 DUP7 DUP9 SUB SLT ISZERO PUSH2 0x6EF0 JUMPI PUSH0 DUP1 REVERT JUMPDEST DUP6 CALLDATALOAD PUSH1 0x1 PUSH1 0x1 PUSH1 0x40 SHL SUB DUP1 DUP3 GT ISZERO PUSH2 0x6F06 JUMPI PUSH0 DUP1 REVERT JUMPDEST PUSH2 0x6F12 DUP10 DUP4 DUP11 ADD PUSH2 0x6850 JUMP JUMPDEST SWAP7 POP PUSH1 0x20 DUP9 ADD CALLDATALOAD SWAP2 POP DUP1 DUP3 GT ISZERO PUSH2 0x6F27 JUMPI PUSH0 DUP1 REVERT JUMPDEST PUSH2 0x6F33 DUP10 DUP4 DUP11 ADD PUSH2 0x6850 JUMP JUMPDEST SWAP6 POP PUSH1 0x40 DUP9 ADD CALLDATALOAD SWAP2 POP DUP1 DUP3 GT ISZERO PUSH2 0x6F48 JUMPI PUSH0 DUP1 REVERT JUMPDEST PUSH2 0x6F54 DUP10 DUP4 DUP11 ADD PUSH2 0x6850 JUMP JUMPDEST SWAP5 POP PUSH1 0x60 DUP9 ADD CALLDATALOAD SWAP2 POP DUP1 DUP3 GT ISZERO PUSH2 0x6F69 JUMPI PUSH0 DUP1 REVERT JUMPDEST PUSH2 0x6B1B DUP10 DUP4 DUP11 ADD PUSH2 0x6850 JUMP JUMPDEST PUSH0 DUP1 PUSH1 0x40 DUP4 DUP6 SUB SLT ISZERO PUSH2 0x6F86 JUMPI PUSH0 DUP1 REVERT JUMPDEST DUP3 CALLDATALOAD PUSH1 0x1 PUSH1 0x1 PUSH1 0x40 SHL SUB DUP1 DUP3 GT ISZERO PUSH2 0x6F9C JUMPI PUSH0 DUP1 REVERT JUMPDEST PUSH2 0x6FA8 DUP7 DUP4 DUP8 ADD PUSH2 0x6850 JUMP JUMPDEST SWAP4 POP PUSH1 0x20 DUP6 ADD CALLDATALOAD SWAP2 POP DUP1 DUP3 GT ISZERO PUSH2 0x6FBD JUMPI PUSH0 DUP1 REVERT JUMPDEST POP PUSH2 0x6FCA DUP6 DUP3 DUP7 ADD PUSH2 0x6850 JUMP JUMPDEST SWAP2 POP POP SWAP3 POP SWAP3 SWAP1 POP JUMP JUMPDEST PUSH1 0x20 DUP2 MSTORE DUP2 MLOAD PUSH1 0x20 DUP3 ADD MSTORE PUSH0 PUSH1 0x20 DUP4 ADD MLOAD PUSH2 0x180 DUP1 PUSH1 0x40 DUP6 ADD MSTORE PUSH2 0x6FFC PUSH2 0x1A0 DUP6 ADD DUP4 PUSH2 0x69E7 JUMP JUMPDEST SWAP2 POP PUSH1 0x40 DUP6 ADD MLOAD PUSH1 0x60 DUP6 ADD MSTORE PUSH1 0x60 DUP6 ADD MLOAD PUSH2 0x7022 PUSH1 0x80 DUP7 ADD DUP3 PUSH1 0x1 PUSH1 0x1 PUSH1 0xA0 SHL SUB AND SWAP1 MSTORE JUMP JUMPDEST POP PUSH1 0x80 DUP6 ADD MLOAD PUSH1 0x1F NOT DUP1 DUP7 DUP6 SUB ADD PUSH1 0xA0 DUP8 ADD MSTORE PUSH2 0x703F DUP5 DUP4 PUSH2 0x69E7 JUMP JUMPDEST SWAP4 POP PUSH1 0xA0 DUP8 ADD MLOAD SWAP2 POP PUSH2 0x7056 PUSH1 0xC0 DUP8 ADD DUP4 ISZERO ISZERO SWAP1 MSTORE JUMP JUMPDEST PUSH1 0xC0 DUP8 ADD MLOAD DUP1 ISZERO ISZERO PUSH1 0xE0 DUP9 ADD MSTORE SWAP2 POP PUSH1 0xE0 DUP8 ADD MLOAD PUSH2 0x100 DUP8 DUP2 ADD SWAP2 SWAP1 SWAP2 MSTORE DUP8 ADD MLOAD PUSH2 0x120 DUP1 DUP9 ADD SWAP2 SWAP1 SWAP2 MSTORE DUP8 ADD MLOAD PUSH2 0x140 DUP1 DUP9 ADD SWAP2 SWAP1 SWAP2 MSTORE DUP8 ADD MLOAD SWAP2 POP PUSH2 0x160 PUSH2 0x70A3 DUP2 DUP9 ADD DUP5 ISZERO ISZERO SWAP1 MSTORE JUMP JUMPDEST DUP8 ADD MLOAD DUP7 DUP6 SUB SWAP1 SWAP2 ADD DUP4 DUP8 ADD MSTORE SWAP1 POP PUSH2 0x70BC DUP4 DUP3 PUSH2 0x69E7 JUMP JUMPDEST SWAP7 SWAP6 POP POP POP POP POP POP JUMP JUMPDEST PUSH0 DUP1 PUSH1 0x40 DUP4 DUP6 SUB SLT ISZERO PUSH2 0x70D7 JUMPI PUSH0 DUP1 REVERT JUMPDEST DUP3 CALLDATALOAD PUSH1 0x1 PUSH1 0x1 PUSH1 0x40 SHL SUB DUP2 GT ISZERO PUSH2 0x70EC JUMPI PUSH0 DUP1 REVERT JUMPDEST PUSH2 0x70F8 DUP6 DUP3 DUP7 ADD PUSH2 0x6850 JUMP JUMPDEST SWAP3 POP POP PUSH2 0x7107 PUSH1 0x20 DUP5 ADD PUSH2 0x6AB3 JUMP JUMPDEST SWAP1 POP SWAP3 POP SWAP3 SWAP1 POP JUMP JUMPDEST PUSH0 DUP1 PUSH1 0x40 DUP4 DUP6 SUB SLT ISZERO PUSH2 0x7121 JUMPI PUSH0 DUP1 REVERT JUMPDEST POP POP DUP1 CALLDATALOAD SWAP3 PUSH1 0x20 SWAP1 SWAP2 ADD CALLDATALOAD SWAP2 POP JUMP JUMPDEST PUSH1 0x20 DUP2 MSTORE PUSH0 DUP3 MLOAD PUSH2 0x160 DUP1 PUSH1 0x20 DUP6 ADD MSTORE PUSH2 0x714E PUSH2 0x180 DUP6 ADD DUP4 PUSH2 0x69E7 JUMP JUMPDEST SWAP2 POP PUSH1 0x20 DUP6 ADD MLOAD PUSH1 0x1F NOT DUP1 DUP7 DUP6 SUB ADD PUSH1 0x40 DUP8 ADD MSTORE PUSH2 0x716C DUP5 DUP4 PUSH2 0x69E7 JUMP JUMPDEST SWAP4 POP PUSH1 0x40 DUP8 ADD MLOAD PUSH1 0x60 DUP8 ADD MSTORE PUSH1 0x60 DUP8 ADD MLOAD SWAP2 POP PUSH2 0x7194 PUSH1 0x80 DUP8 ADD DUP4 PUSH1 0x1 PUSH1 0x1 PUSH1 0xA0 SHL SUB AND SWAP1 MSTORE JUMP JUMPDEST PUSH1 0x80 DUP8 ADD MLOAD SWAP2 POP DUP1 DUP7 DUP6 SUB ADD PUSH1 0xA0 DUP8 ADD MSTORE PUSH2 0x71AF DUP5 DUP4 PUSH2 0x69E7 JUMP JUMPDEST SWAP4 POP PUSH1 0xA0 DUP8 ADD MLOAD SWAP2 POP PUSH2 0x71C6 PUSH1 0xC0 DUP8 ADD DUP4 ISZERO ISZERO SWAP1 MSTORE JUMP JUMPDEST PUSH1 0xC0 DUP8 ADD MLOAD DUP1 ISZERO ISZERO PUSH1 0xE0 DUP9 ADD MSTORE SWAP2 POP PUSH1 0xE0 DUP8 ADD MLOAD PUSH2 0x100 DUP8 DUP2 ADD SWAP2 SWAP1 SWAP2 MSTORE DUP8 ADD MLOAD PUSH2 0x120 DUP1 DUP9 ADD SWAP2 SWAP1 SWAP2 MSTORE DUP8 ADD MLOAD PUSH2 0x140 DUP1 DUP9 ADD SWAP2 SWAP1 SWAP2 MSTORE DUP8 ADD MLOAD DUP7 DUP6 SUB SWAP1 SWAP2 ADD DUP4 DUP8 ADD MSTORE SWAP1 POP PUSH2 0x70BC DUP4 DUP3 PUSH2 0x69E7 JUMP JUMPDEST PUSH0 DUP1 PUSH0 PUSH1 0x60 DUP5 DUP7 SUB SLT ISZERO PUSH2 0x7229 JUMPI PUSH0 DUP1 REVERT JUMPDEST DUP4 CALLDATALOAD PUSH1 0x1 PUSH1 0x1 PUSH1 0x40 SHL SUB DUP1 DUP3 GT ISZERO PUSH2 0x723F JUMPI PUSH0 DUP1 REVERT JUMPDEST PUSH2 0x724B DUP8 DUP4 DUP9 ADD PUSH2 0x6850 JUMP JUMPDEST SWAP5 POP PUSH1 0x20 DUP7 ADD CALLDATALOAD SWAP2 POP DUP1 DUP3 GT ISZERO PUSH2 0x7260 JUMPI PUSH0 DUP1 REVERT JUMPDEST PUSH2 0x726C DUP8 DUP4 DUP9 ADD PUSH2 0x6850 JUMP JUMPDEST SWAP4 POP PUSH1 0x40 DUP7 ADD CALLDATALOAD SWAP2 POP DUP1 DUP3 GT ISZERO PUSH2 0x7281 JUMPI PUSH0 DUP1 REVERT JUMPDEST POP PUSH2 0x728E DUP7 DUP3 DUP8 ADD PUSH2 0x6850 JUMP JUMPDEST SWAP2 POP POP SWAP3 POP SWAP3 POP SWAP3 JUMP JUMPDEST PUSH1 0xC0 DUP2 MSTORE PUSH0 PUSH2 0x72AA PUSH1 0xC0 DUP4 ADD DUP10 PUSH2 0x69E7 JUMP JUMPDEST PUSH1 0x1 PUSH1 0x1 PUSH1 0xA0 SHL SUB DUP9 DUP2 AND PUSH1 0x20 DUP6 ADD MSTORE DUP4 DUP3 SUB PUSH1 0x40 DUP6 ADD MSTORE PUSH2 0x72CC DUP3 DUP10 PUSH2 0x69E7 JUMP JUMPDEST PUSH1 0x60 DUP6 ADD SWAP8 SWAP1 SWAP8 MSTORE SWAP5 SWAP1 SWAP5 AND PUSH1 0x80 DUP4 ADD MSTORE POP SWAP1 ISZERO ISZERO PUSH1 0xA0 SWAP1 SWAP2 ADD MSTORE POP SWAP4 SWAP3 POP POP POP JUMP JUMPDEST PUSH0 PUSH2 0x160 DUP1 DUP4 MSTORE PUSH2 0x7302 DUP2 DUP5 ADD DUP16 PUSH2 0x69E7 JUMP JUMPDEST SWAP1 POP DUP3 DUP2 SUB PUSH1 0x20 DUP5 ADD MSTORE PUSH2 0x7316 DUP2 DUP15 PUSH2 0x69E7 JUMP JUMPDEST PUSH1 0x40 DUP5 ADD DUP14 SWAP1 MSTORE PUSH1 0x1 PUSH1 0x1 PUSH1 0xA0 SHL SUB DUP13 AND PUSH1 0x60 DUP6 ADD MSTORE DUP4 DUP2 SUB PUSH1 0x80 DUP6 ADD MSTORE SWAP1 POP PUSH2 0x7340 DUP2 DUP12 PUSH2 0x69E7 JUMP JUMPDEST SWAP1 POP DUP9 ISZERO ISZERO PUSH1 0xA0 DUP5 ADD MSTORE DUP8 ISZERO ISZERO PUSH1 0xC0 DUP5 ADD MSTORE DUP7 PUSH1 0xE0 DUP5 ADD MSTORE DUP6 PUSH2 0x100 DUP5 ADD MSTORE DUP5 PUSH2 0x120 DUP5 ADD MSTORE DUP3 DUP2 SUB PUSH2 0x140 DUP5 ADD MSTORE PUSH2 0x7379 DUP2 DUP6 PUSH2 0x69E7 JUMP JUMPDEST SWAP15 SWAP14 POP POP POP POP POP POP POP POP POP POP POP POP POP POP JUMP JUMPDEST PUSH0 DUP1 PUSH0 DUP1 PUSH0 PUSH1 0xA0 DUP7 DUP9 SUB SLT ISZERO PUSH2 0x739F JUMPI PUSH0 DUP1 REVERT JUMPDEST DUP6 CALLDATALOAD PUSH1 0x1 PUSH1 0x1 PUSH1 0x40 SHL SUB DUP1 DUP3 GT ISZERO PUSH2 0x73B5 JUMPI PUSH0 DUP1 REVERT JUMPDEST PUSH2 0x73C1 DUP10 DUP4 DUP11 ADD PUSH2 0x6850 JUMP JUMPDEST SWAP7 POP PUSH1 0x20 DUP9 ADD CALLDATALOAD SWAP6 POP PUSH1 0x40 DUP9 ADD CALLDATALOAD SWAP2 POP DUP1 DUP3 GT ISZERO PUSH2 0x73DD JUMPI PUSH0 DUP1 REVERT JUMPDEST PUSH2 0x73E9 DUP10 DUP4 DUP11 ADD PUSH2 0x6850 JUMP JUMPDEST SWAP5 POP PUSH2 0x6B1B PUSH1 0x60 DUP10 ADD PUSH2 0x6AB3 JUMP JUMPDEST PUSH4 0x4E487B71 PUSH1 0xE0 SHL PUSH0 MSTORE PUSH1 0x32 PUSH1 0x4 MSTORE PUSH1 0x24 PUSH0 REVERT JUMPDEST PUSH1 0x1 DUP2 DUP2 SHR SWAP1 DUP3 AND DUP1 PUSH2 0x741F JUMPI PUSH1 0x7F DUP3 AND SWAP2 POP JUMPDEST PUSH1 0x20 DUP3 LT DUP2 SUB PUSH2 0x743D JUMPI PUSH4 0x4E487B71 PUSH1 0xE0 SHL PUSH0 MSTORE PUSH1 0x22 PUSH1 0x4 MSTORE PUSH1 0x24 PUSH0 REVERT JUMPDEST POP SWAP2 SWAP1 POP JUMP JUMPDEST PUSH1 0x20 DUP1 DUP3 MSTORE PUSH1 0x26 SWAP1 DUP3 ADD MSTORE PUSH32 0x4F6E6C7920726567756C61746F722063616E20706572666F726D207468697320 PUSH1 0x40 DUP3 ADD MSTORE PUSH6 0x30B1BA34B7B7 PUSH1 0xD1 SHL PUSH1 0x60 DUP3 ADD MSTORE PUSH1 0x80 ADD SWAP1 JUMP JUMPDEST PUSH1 0x20 DUP1 DUP3 MSTORE PUSH1 0x18 SWAP1 DUP3 ADD MSTORE PUSH32 0x5265717565737420616C726561647920617070726F7665640000000000000000 PUSH1 0x40 DUP3 ADD MSTORE PUSH1 0x60 ADD SWAP1 JUMP JUMPDEST PUSH4 0x4E487B71 PUSH1 0xE0 SHL PUSH0 MSTORE PUSH1 0x11 PUSH1 0x4 MSTORE PUSH1 0x24 PUSH0 REVERT JUMPDEST PUSH0 PUSH1 0x1 DUP3 ADD PUSH2 0x74E5 JUMPI PUSH2 0x74E5 PUSH2 0x74C0 JUMP JUMPDEST POP PUSH1 0x1 ADD SWAP1 JUMP JUMPDEST PUSH0 DUP2 SLOAD PUSH2 0x74F8 DUP2 PUSH2 0x740B JUMP JUMPDEST PUSH1 0x1 DUP3 DUP2 AND DUP1 ISZERO PUSH2 0x7510 JUMPI PUSH1 0x1 DUP2 EQ PUSH2 0x7525 JUMPI PUSH2 0x7551 JUMP JUMPDEST PUSH1 0xFF NOT DUP5 AND DUP8 MSTORE DUP3 ISZERO ISZERO DUP4 MUL DUP8 ADD SWAP5 POP PUSH2 0x7551 JUMP JUMPDEST DUP6 PUSH0 MSTORE PUSH1 0x20 DUP1 PUSH0 KECCAK256 PUSH0 JUMPDEST DUP6 DUP2 LT ISZERO PUSH2 0x7548 JUMPI DUP2 SLOAD DUP11 DUP3 ADD MSTORE SWAP1 DUP5 ADD SWAP1 DUP3 ADD PUSH2 0x752F JUMP JUMPDEST POP POP POP DUP3 DUP8 ADD SWAP5 POP JUMPDEST POP POP POP POP SWAP3 SWAP2 POP POP JUMP JUMPDEST PUSH0 PUSH2 0x6CD4 DUP3 DUP5 PUSH2 0x74EC JUMP JUMPDEST PUSH1 0x1F DUP3 GT ISZERO PUSH2 0x107C JUMPI DUP1 PUSH0 MSTORE PUSH1 0x20 PUSH0 KECCAK256 PUSH1 0x1F DUP5 ADD PUSH1 0x5 SHR DUP2 ADD PUSH1 0x20 DUP6 LT ISZERO PUSH2 0x758B JUMPI POP DUP1 JUMPDEST PUSH1 0x1F DUP5 ADD PUSH1 0x5 SHR DUP3 ADD SWAP2 POP JUMPDEST DUP2 DUP2 LT ISZERO PUSH2 0x75AA JUMPI PUSH0 DUP2 SSTORE PUSH1 0x1 ADD PUSH2 0x7597 JUMP JUMPDEST POP POP POP POP POP JUMP JUMPDEST DUP2 DUP2 SUB PUSH2 0x75BC JUMPI POP POP JUMP JUMPDEST PUSH2 0x75C6 DUP3 SLOAD PUSH2 0x740B JUMP JUMPDEST PUSH1 0x1 PUSH1 0x1 PUSH1 0x40 SHL SUB DUP2 GT ISZERO PUSH2 0x75DD JUMPI PUSH2 0x75DD PUSH2 0x683C JUMP JUMPDEST PUSH2 0x75F1 DUP2 PUSH2 0x75EB DUP5 SLOAD PUSH2 0x740B JUMP JUMPDEST DUP5 PUSH2 0x7566 JUMP JUMPDEST PUSH0 PUSH1 0x1F DUP3 GT PUSH1 0x1 DUP2 EQ PUSH2 0x7622 JUMPI PUSH0 DUP4 ISZERO PUSH2 0x760B JUMPI POP DUP5 DUP3 ADD SLOAD JUMPDEST PUSH0 NOT PUSH1 0x3 DUP6 SWAP1 SHL SHR NOT AND PUSH1 0x1 DUP5 SWAP1 SHL OR DUP5 SSTORE PUSH2 0x75AA JUMP JUMPDEST PUSH0 DUP6 DUP2 MSTORE PUSH1 0x20 DUP1 DUP3 KECCAK256 DUP7 DUP4 MSTORE SWAP1 DUP3 KECCAK256 PUSH1 0x1F NOT DUP7 AND SWAP3 JUMPDEST DUP4 DUP2 LT ISZERO PUSH2 0x7658 JUMPI DUP3 DUP7 ADD SLOAD DUP3 SSTORE PUSH1 0x1 SWAP6 DUP7 ADD SWAP6 SWAP1 SWAP2 ADD SWAP1 PUSH1 0x20 ADD PUSH2 0x7638 JUMP JUMPDEST POP DUP6 DUP4 LT ISZERO PUSH2 0x7675 JUMPI DUP2 DUP6 ADD SLOAD PUSH0 NOT PUSH1 0x3 DUP9 SWAP1 SHL PUSH1 0xF8 AND SHR NOT AND DUP2 SSTORE JUMPDEST POP POP POP POP POP PUSH1 0x1 SWAP1 DUP2 SHL ADD SWAP1 SSTORE POP JUMP JUMPDEST DUP2 MLOAD PUSH1 0x1 PUSH1 0x1 PUSH1 0x40 SHL SUB DUP2 GT ISZERO PUSH2 0x769E JUMPI PUSH2 0x769E PUSH2 0x683C JUMP JUMPDEST PUSH2 0x76AC DUP2 PUSH2 0x75EB DUP5 SLOAD PUSH2 0x740B JUMP JUMPDEST PUSH1 0x20 DUP1 PUSH1 0x1F DUP4 GT PUSH1 0x1 DUP2 EQ PUSH2 0x76DF JUMPI PUSH0 DUP5 ISZERO PUSH2 0x76C8 JUMPI POP DUP6 DUP4 ADD MLOAD JUMPDEST PUSH0 NOT PUSH1 0x3 DUP7 SWAP1 SHL SHR NOT AND PUSH1 0x1 DUP6 SWAP1 SHL OR DUP6 SSTORE PUSH2 0x40C7 JUMP JUMPDEST PUSH0 DUP6 DUP2 MSTORE PUSH1 0x20 DUP2 KECCAK256 PUSH1 0x1F NOT DUP7 AND SWAP2 JUMPDEST DUP3 DUP2 LT ISZERO PUSH2 0x770D JUMPI DUP9 DUP7 ADD MLOAD DUP3 SSTORE SWAP5 DUP5 ADD SWAP5 PUSH1 0x1 SWAP1 SWAP2 ADD SWAP1 DUP5 ADD PUSH2 0x76EE JUMP JUMPDEST POP DUP6 DUP3 LT ISZERO PUSH2 0x7675 JUMPI SWAP4 SWAP1 SWAP7 ADD MLOAD PUSH0 NOT PUSH1 0xF8 PUSH1 0x3 DUP8 SWAP1 SHL AND SHR NOT AND SWAP1 SWAP3 SSTORE POP POP PUSH1 0x1 SWAP1 DUP2 SHL ADD SWAP1 SSTORE POP JUMP JUMPDEST PUSH1 0x20 DUP1 DUP3 MSTORE PUSH1 0x27 SWAP1 DUP3 ADD MSTORE PUSH32 0x4F6E6C792062616E6B2061646D696E2063616E20706572666F726D2074686973 PUSH1 0x40 DUP3 ADD MSTORE PUSH7 0x1030B1BA34B7B7 PUSH1 0xC9 SHL PUSH1 0x60 DUP3 ADD MSTORE PUSH1 0x80 ADD SWAP1 JUMP JUMPDEST PUSH0 DUP3 MLOAD DUP1 PUSH1 0x20 DUP6 ADD DUP5 MCOPY PUSH0 SWAP3 ADD SWAP2 DUP3 MSTORE POP SWAP2 SWAP1 POP JUMP JUMPDEST PUSH0 DUP3 PUSH2 0x77AF JUMPI PUSH4 0x4E487B71 PUSH1 0xE0 SHL PUSH0 MSTORE PUSH1 0x12 PUSH1 0x4 MSTORE PUSH1 0x24 PUSH0 REVERT JUMPDEST POP DIV SWAP1 JUMP JUMPDEST DUP1 DUP3 ADD DUP1 DUP3 GT ISZERO PUSH2 0x3530 JUMPI PUSH2 0x3530 PUSH2 0x74C0 JUMP JUMPDEST PUSH1 0x20 DUP1 DUP3 MSTORE PUSH1 0x32 SWAP1 DUP3 ADD MSTORE PUSH32 0x4E6F20726F6C65207265717565737420666F756E6420666F7220746865207072 PUSH1 0x40 DUP3 ADD MSTORE PUSH18 0x1BDD9A5919590818DD5CDD1BDB595C881251 PUSH1 0x72 SHL PUSH1 0x60 DUP3 ADD MSTORE PUSH1 0x80 ADD SWAP1 JUMP JUMPDEST PUSH1 0x20 DUP1 DUP3 MSTORE PUSH1 0x35 SWAP1 DUP3 ADD MSTORE PUSH32 0x5573657220616C72656164792068617320612070656E64696E67207265717565 PUSH1 0x40 DUP3 ADD MSTORE PUSH21 0x737420666F72207468697320726F6C652074797065 PUSH1 0x58 SHL PUSH1 0x60 DUP3 ADD MSTORE PUSH1 0x80 ADD SWAP1 JUMP JUMPDEST PUSH1 0x20 DUP1 DUP3 MSTORE PUSH1 0x21 SWAP1 DUP3 ADD MSTORE PUSH32 0x4F6E6C792042616E6B2063616E20706572666F726D207468697320616374696F PUSH1 0x40 DUP3 ADD MSTORE PUSH1 0x37 PUSH1 0xF9 SHL PUSH1 0x60 DUP3 ADD MSTORE PUSH1 0x80 ADD SWAP1 JUMP JUMPDEST PUSH1 0x20 DUP1 DUP3 MSTORE PUSH1 0x25 SWAP1 DUP3 ADD MSTORE PUSH32 0x526567756C61746F72732063616E6E6F74207265717565737420612075736572 PUSH1 0x40 DUP3 ADD MSTORE PUSH5 0x20726F6C65 PUSH1 0xD8 SHL PUSH1 0x60 DUP3 ADD MSTORE PUSH1 0x80 ADD SWAP1 JUMP JUMPDEST PUSH1 0x20 DUP1 DUP3 MSTORE PUSH1 0x25 SWAP1 DUP3 ADD MSTORE PUSH32 0x42616E6B61646D696E732063616E6E6F74207265717565737420612075736572 PUSH1 0x40 DUP3 ADD MSTORE PUSH5 0x20726F6C65 PUSH1 0xD8 SHL PUSH1 0x60 DUP3 ADD MSTORE PUSH1 0x80 ADD SWAP1 JUMP JUMPDEST PUSH1 0x60 DUP2 MSTORE PUSH0 PUSH2 0x794B PUSH1 0x60 DUP4 ADD DUP7 PUSH2 0x69E7 JUMP JUMPDEST DUP3 DUP2 SUB PUSH1 0x20 DUP5 ADD MSTORE PUSH2 0x795D DUP2 DUP7 PUSH2 0x69E7 JUMP JUMPDEST SWAP2 POP POP DUP3 PUSH1 0x40 DUP4 ADD MSTORE SWAP5 SWAP4 POP POP POP POP JUMP JUMPDEST PUSH1 0x1 DUP1 PUSH1 0xA0 SHL SUB DUP4 AND DUP2 MSTORE PUSH0 PUSH1 0x20 PUSH1 0x40 PUSH1 0x20 DUP5 ADD MSTORE PUSH0 DUP5 SLOAD PUSH2 0x798F DUP2 PUSH2 0x740B JUMP JUMPDEST DUP1 PUSH1 0x40 DUP8 ADD MSTORE PUSH1 0x60 PUSH1 0x1 DUP1 DUP5 AND PUSH0 DUP2 EQ PUSH2 0x79B0 JUMPI PUSH1 0x1 DUP2 EQ PUSH2 0x79CC JUMPI PUSH2 0x79F9 JUMP JUMPDEST PUSH1 0xFF NOT DUP6 AND PUSH1 0x60 DUP11 ADD MSTORE PUSH1 0x60 DUP5 ISZERO ISZERO PUSH1 0x5 SHL DUP11 ADD ADD SWAP6 POP PUSH2 0x79F9 JUMP JUMPDEST DUP10 PUSH0 MSTORE PUSH1 0x20 PUSH0 KECCAK256 PUSH0 JUMPDEST DUP6 DUP2 LT ISZERO PUSH2 0x79F0 JUMPI DUP2 SLOAD DUP12 DUP3 ADD DUP7 ADD MSTORE SWAP1 DUP4 ADD SWAP1 DUP9 ADD PUSH2 0x79D5 JUMP JUMPDEST DUP11 ADD PUSH1 0x60 ADD SWAP7 POP POP JUMPDEST POP SWAP4 SWAP10 SWAP9 POP POP POP POP POP POP POP POP POP JUMP JUMPDEST DUP2 DUP2 SUB DUP2 DUP2 GT ISZERO PUSH2 0x3530 JUMPI PUSH2 0x3530 PUSH2 0x74C0 JUMP JUMPDEST DUP1 DUP3 MUL DUP2 ISZERO DUP3 DUP3 DIV DUP5 EQ OR PUSH2 0x3530 JUMPI PUSH2 0x3530 PUSH2 0x74C0 JUMP INVALID SGT 0xAA STOP 0xE7 0xCE 0xAB 0xE8 0xD4 MCOPY 0xB1 0xCF PUSH11 0x6B6743B49D370A0E6D80A7 0xAE MULMOD 0xEA 0xE9 RETURN SHL JUMPDEST REVERT 0xDE LOG2 PUSH5 0x6970667358 0x22 SLT KECCAK256 EXP SWAP3 0xFC ORIGIN 0x4D 0x2C ADD LOG1 PUSH26 0x9B3AFCAE73A5D33D9B1E1A667E0F3912E426629559F9D564736F PUSH13 0x63430008190033000000000000 "
		},
		"gasEstimates": {
			"creation": {
				"codeDepositCost": "6273600",
				"executionCost": "infinite",
				"totalCost": "infinite"
			},
			"external": {
				"BankDetails(uint256)": "infinite",
				"BankDetailsByOwner(address)": "infinite",
				"RequestCounter()": "2383",
				"adminRequests(string,uint256)": "infinite",
				"appBankAdm(string,string,string,string,address)": "infinite",
				"apprBankReq(string)": "infinite",
				"approveUserRoleRequest(string,uint256,uint256,address,string)": "infinite",
				"approvedBanks(address)": "2596",
				"bAdminApprs(string,uint256,uint256)": "infinite",
				"bankAdmReqs(string,string)": "infinite",
				"bankAdmins(address)": "2594",
				"bnkAdmReqs(uint256)": "2545",
				"bnkReqs()": "2428",
				"changeVoteParams(uint256,uint256)": "46776",
				"getAdmReqs(string,uint256)": "infinite",
				"getAdmin(string,address)": "infinite",
				"getBankApprovalStatus(address)": "2679",
				"getBankApps(string)": "infinite",
				"getBankReqs(uint256)": "infinite",
				"getUser(string,address)": "infinite",
				"getUserRequests(string)": "infinite",
				"getUserRoleRequestApprovers(string,uint256)": "infinite",
				"getUserRoleRequestRejectors(string,uint256)": "infinite",
				"isAdminApproved(string,uint256)": "infinite",
				"isUserApproved(string,uint256)": "infinite",
				"regRequests(uint256)": "infinite",
				"regVerifiers(uint256)": "4657",
				"regulators(address)": "2639",
				"rejectBankAdm(uint256,string,uint256,uint256,address)": "infinite",
				"rejectBankReq(string)": "infinite",
				"rejectUserRoleRequest(string,uint256,string,address,string)": "infinite",
				"reqBankAdmin(string,string,string,string)": "infinite",
				"reqBankRole(string,string,string)": "infinite",
				"requestUserRole(string,string,string,string,string)": "infinite",
				"requiredApprovals()": "2362",
				"requiredVoteCount()": "2340",
				"tBankAdmReqs(string,uint256)": "infinite",
				"totalUserRoleRequests(string)": "infinite",
				"userRequestApprovers(string,uint256,uint256)": "infinite",
				"userRequestRejectors(string,uint256,uint256)": "infinite",
				"userRoleRequests(string,uint256)": "infinite"
			},
			"internal": {
				"getRegDetails()": "infinite",
				"reqRegulator(string memory,string memory[] memory,string memory,address)": "infinite",
				"stringToUint256(string memory)": "infinite"
			}
		},
		"methodIdentifiers": {
			"BankDetails(uint256)": "f2c2f187",
			"BankDetailsByOwner(address)": "3b8905f3",
			"RequestCounter()": "4137903c",
			"adminRequests(string,uint256)": "1c78ed6b",
			"appBankAdm(string,string,string,string,address)": "38c05474",
			"apprBankReq(string)": "1c7d3ef9",
			"approveUserRoleRequest(string,uint256,uint256,address,string)": "22584a43",
			"approvedBanks(address)": "3fafccfd",
			"bAdminApprs(string,uint256,uint256)": "1b62d1eb",
			"bankAdmReqs(string,string)": "80ad24d1",
			"bankAdmins(address)": "e6ed511e",
			"bnkAdmReqs(uint256)": "ee687df5",
			"bnkReqs()": "a55b1aa1",
			"changeVoteParams(uint256,uint256)": "a97bc51b",
			"getAdmReqs(string,uint256)": "b67ff9e5",
			"getAdmin(string,address)": "a02e5cc2",
			"getBankApprovalStatus(address)": "df3403af",
			"getBankApps(string)": "0597a2a8",
			"getBankReqs(uint256)": "53523c60",
			"getUser(string,address)": "b7c6fb65",
			"getUserRequests(string)": "45c82991",
			"getUserRoleRequestApprovers(string,uint256)": "b3144302",
			"getUserRoleRequestRejectors(string,uint256)": "3e7ca6d2",
			"isAdminApproved(string,uint256)": "d3eb72b4",
			"isUserApproved(string,uint256)": "dc050ec1",
			"regRequests(uint256)": "e053f553",
			"regVerifiers(uint256)": "26929da8",
			"regulators(address)": "7dfb86a0",
			"rejectBankAdm(uint256,string,uint256,uint256,address)": "3f9bbe55",
			"rejectBankReq(string)": "6fb7c4fd",
			"rejectUserRoleRequest(string,uint256,string,address,string)": "f76ebfb0",
			"reqBankAdmin(string,string,string,string)": "34755723",
			"reqBankRole(string,string,string)": "c02ddbe1",
			"requestUserRole(string,string,string,string,string)": "5ed304c0",
			"requiredApprovals()": "99c1aadc",
			"requiredVoteCount()": "88f70c3c",
			"tBankAdmReqs(string,uint256)": "9d633433",
			"totalUserRoleRequests(string)": "ab8fc4c2",
			"userRequestApprovers(string,uint256,uint256)": "a7083c71",
			"userRequestRejectors(string,uint256,uint256)": "5eab07fd",
			"userRoleRequests(string,uint256)": "e86e5ed2"
		}
	},
	"abi": [
		{
			"inputs": [
				{
					"internalType": "address[]",
					"name": "_regulatorVerifiers",
					"type": "address[]"
				},
				{
					"internalType": "uint256",
					"name": "_requiredVoteCount",
					"type": "uint256"
				},
				{
					"internalType": "uint256",
					"name": "_requiredApprovals",
					"type": "uint256"
				},
				{
					"internalType": "string[]",
					"name": "_regIDs",
					"type": "string[]"
				},
				{
					"internalType": "address",
					"name": "nodeAddress",
					"type": "address"
				}
			],
			"stateMutability": "nonpayable",
			"type": "constructor"
		},
		{
			"anonymous": false,
			"inputs": [
				{
					"indexed": false,
					"internalType": "uint256",
					"name": "id",
					"type": "uint256"
				}
			],
			"name": "AdminApproved",
			"type": "event"
		},
		{
			"anonymous": false,
			"inputs": [
				{
					"indexed": true,
					"internalType": "address",
					"name": "requester",
					"type": "address"
				},
				{
					"indexed": false,
					"internalType": "string",
					"name": "roleType",
					"type": "string"
				}
			],
			"name": "AdminRequested",
			"type": "event"
		},
		{
			"anonymous": false,
			"inputs": [
				{
					"indexed": true,
					"internalType": "uint256",
					"name": "id",
					"type": "uint256"
				},
				{
					"indexed": false,
					"internalType": "address",
					"name": "requester",
					"type": "address"
				},
				{
					"indexed": false,
					"internalType": "string",
					"name": "roleType",
					"type": "string"
				}
			],
			"name": "BankAdminRequestRejected",
			"type": "event"
		},
		{
			"anonymous": false,
			"inputs": [
				{
					"indexed": true,
					"internalType": "uint256",
					"name": "ID",
					"type": "uint256"
				},
				{
					"indexed": false,
					"internalType": "address",
					"name": "requester",
					"type": "address"
				},
				{
					"indexed": false,
					"internalType": "string",
					"name": "BankName",
					"type": "string"
				}
			],
			"name": "BankRequestRejected",
			"type": "event"
		},
		{
			"anonymous": false,
			"inputs": [
				{
					"indexed": true,
					"internalType": "address",
					"name": "requester",
					"type": "address"
				},
				{
					"indexed": false,
					"internalType": "string[]",
					"name": "ID",
					"type": "string[]"
				},
				{
					"indexed": false,
					"internalType": "string",
					"name": "roleType",
					"type": "string"
				}
			],
			"name": "RegulatorRequested",
			"type": "event"
		},
		{
			"anonymous": false,
			"inputs": [
				{
					"indexed": true,
					"internalType": "uint256",
					"name": "id",
					"type": "uint256"
				}
			],
			"name": "RoleApproved",
			"type": "event"
		},
		{
			"anonymous": false,
			"inputs": [
				{
					"indexed": false,
					"internalType": "string",
					"name": "contractName",
					"type": "string"
				},
				{
					"indexed": false,
					"internalType": "address",
					"name": "owner",
					"type": "address"
				},
				{
					"indexed": false,
					"internalType": "uint256",
					"name": "deploymentTime",
					"type": "uint256"
				}
			],
			"name": "RoleMakerDeployment",
			"type": "event"
		},
		{
			"anonymous": false,
			"inputs": [
				{
					"indexed": true,
					"internalType": "uint256",
					"name": "id",
					"type": "uint256"
				},
				{
					"indexed": false,
					"internalType": "address",
					"name": "requester",
					"type": "address"
				},
				{
					"indexed": false,
					"internalType": "string",
					"name": "roleType",
					"type": "string"
				}
			],
			"name": "RoleRequestRejected",
			"type": "event"
		},
		{
			"anonymous": false,
			"inputs": [
				{
					"indexed": true,
					"internalType": "address",
					"name": "requester",
					"type": "address"
				},
				{
					"indexed": false,
					"internalType": "string",
					"name": "roleType",
					"type": "string"
				},
				{
					"indexed": false,
					"internalType": "string",
					"name": "name",
					"type": "string"
				},
				{
					"indexed": false,
					"internalType": "uint256",
					"name": "userId",
					"type": "uint256"
				}
			],
			"name": "RoleRequested",
			"type": "event"
		},
		{
			"inputs": [
				{
					"internalType": "uint256",
					"name": "",
					"type": "uint256"
				}
			],
			"name": "BankDetails",
			"outputs": [
				{
					"internalType": "uint256",
					"name": "ID",
					"type": "uint256"
				},
				{
					"internalType": "string",
					"name": "losBankID",
					"type": "string"
				},
				{
					"internalType": "address",
					"name": "requester",
					"type": "address"
				},
				{
					"internalType": "uint256",
					"name": "NetworkId",
					"type": "uint256"
				},
				{
					"internalType": "bool",
					"name": "isApproved",
					"type": "bool"
				},
				{
					"internalType": "bool",
					"name": "isRejected",
					"type": "bool"
				},
				{
					"internalType": "uint256",
					"name": "approvalCount",
					"type": "uint256"
				},
				{
					"internalType": "string",
					"name": "bankDetails",
					"type": "string"
				},
				{
					"internalType": "uint256",
					"name": "voteCount",
					"type": "uint256"
				},
				{
					"internalType": "bool",
					"name": "allVoted",
					"type": "bool"
				}
			],
			"stateMutability": "view",
			"type": "function"
		},
		{
			"inputs": [
				{
					"internalType": "address",
					"name": "",
					"type": "address"
				}
			],
			"name": "BankDetailsByOwner",
			"outputs": [
				{
					"internalType": "uint256",
					"name": "ID",
					"type": "uint256"
				},
				{
					"internalType": "string",
					"name": "losBankID",
					"type": "string"
				},
				{
					"internalType": "address",
					"name": "requester",
					"type": "address"
				},
				{
					"internalType": "uint256",
					"name": "NetworkId",
					"type": "uint256"
				},
				{
					"internalType": "bool",
					"name": "isApproved",
					"type": "bool"
				},
				{
					"internalType": "bool",
					"name": "isRejected",
					"type": "bool"
				},
				{
					"internalType": "uint256",
					"name": "approvalCount",
					"type": "uint256"
				},
				{
					"internalType": "string",
					"name": "bankDetails",
					"type": "string"
				},
				{
					"internalType": "uint256",
					"name": "voteCount",
					"type": "uint256"
				},
				{
					"internalType": "bool",
					"name": "allVoted",
					"type": "bool"
				}
			],
			"stateMutability": "view",
			"type": "function"
		},
		{
			"inputs": [],
			"name": "RequestCounter",
			"outputs": [
				{
					"internalType": "uint256",
					"name": "",
					"type": "uint256"
				}
			],
			"stateMutability": "view",
			"type": "function"
		},
		{
			"inputs": [
				{
					"internalType": "string",
					"name": "",
					"type": "string"
				},
				{
					"internalType": "uint256",
					"name": "",
					"type": "uint256"
				}
			],
			"name": "adminRequests",
			"outputs": [
				{
					"internalType": "uint256",
					"name": "requestID",
					"type": "uint256"
				},
				{
					"internalType": "string",
					"name": "losBankID",
					"type": "string"
				},
				{
					"internalType": "uint256",
					"name": "bankID",
					"type": "uint256"
				},
				{
					"internalType": "address",
					"name": "requester",
					"type": "address"
				},
				{
					"internalType": "string",
					"name": "roleType",
					"type": "string"
				},
				{
					"internalType": "bool",
					"name": "approved",
					"type": "bool"
				},
				{
					"internalType": "bool",
					"name": "rejected",
					"type": "bool"
				},
				{
					"internalType": "uint256",
					"name": "approvalCount",
					"type": "uint256"
				},
				{
					"internalType": "uint256",
					"name": "rejectionCount",
					"type": "uint256"
				},
				{
					"internalType": "uint256",
					"name": "voteCount",
					"type": "uint256"
				},
				{
					"internalType": "bool",
					"name": "allVoted",
					"type": "bool"
				},
				{
					"internalType": "string",
					"name": "adminDetails",
					"type": "string"
				}
			],
			"stateMutability": "view",
			"type": "function"
		},
		{
			"inputs": [
				{
					"internalType": "string",
					"name": "bankID",
					"type": "string"
				},
				{
					"internalType": "string",
					"name": "_losBankID",
					"type": "string"
				},
				{
					"internalType": "string",
					"name": "_id",
					"type": "string"
				},
				{
					"internalType": "string",
					"name": "_totalApprovedAdmins",
					"type": "string"
				},
				{
					"internalType": "address",
					"name": "requester",
					"type": "address"
				}
			],
			"name": "appBankAdm",
			"outputs": [],
			"stateMutability": "nonpayable",
			"type": "function"
		},
		{
			"inputs": [
				{
					"internalType": "string",
					"name": "bankID",
					"type": "string"
				}
			],
			"name": "apprBankReq",
			"outputs": [],
			"stateMutability": "nonpayable",
			"type": "function"
		},
		{
			"inputs": [
				{
					"internalType": "string",
					"name": "_losBankID",
					"type": "string"
				},
				{
					"internalType": "uint256",
					"name": "_userId",
					"type": "uint256"
				},
				{
					"internalType": "uint256",
					"name": "totalApprovedAdmins",
					"type": "uint256"
				},
				{
					"internalType": "address",
					"name": "requester",
					"type": "address"
				},
				{
					"internalType": "string",
					"name": "adminEmail",
					"type": "string"
				}
			],
			"name": "approveUserRoleRequest",
			"outputs": [],
			"stateMutability": "nonpayable",
			"type": "function"
		},
		{
			"inputs": [
				{
					"internalType": "address",
					"name": "",
					"type": "address"
				}
			],
			"name": "approvedBanks",
			"outputs": [
				{
					"internalType": "bool",
					"name": "",
					"type": "bool"
				}
			],
			"stateMutability": "view",
			"type": "function"
		},
		{
			"inputs": [
				{
					"internalType": "string",
					"name": "",
					"type": "string"
				},
				{
					"internalType": "uint256",
					"name": "",
					"type": "uint256"
				},
				{
					"internalType": "uint256",
					"name": "",
					"type": "uint256"
				}
			],
			"name": "bAdminApprs",
			"outputs": [
				{
					"internalType": "address",
					"name": "",
					"type": "address"
				}
			],
			"stateMutability": "view",
			"type": "function"
		},
		{
			"inputs": [
				{
					"internalType": "string",
					"name": "_losBankID",
					"type": "string"
				},
				{
					"internalType": "string",
					"name": "_admID",
					"type": "string"
				}
			],
			"name": "bankAdmReqs",
			"outputs": [
				{
					"components": [
						{
							"internalType": "uint256",
							"name": "requestID",
							"type": "uint256"
						},
						{
							"internalType": "string",
							"name": "losBankID",
							"type": "string"
						},
						{
							"internalType": "uint256",
							"name": "bankID",
							"type": "uint256"
						},
						{
							"internalType": "address",
							"name": "requester",
							"type": "address"
						},
						{
							"internalType": "string",
							"name": "roleType",
							"type": "string"
						},
						{
							"internalType": "bool",
							"name": "approved",
							"type": "bool"
						},
						{
							"internalType": "bool",
							"name": "rejected",
							"type": "bool"
						},
						{
							"internalType": "uint256",
							"name": "approvalCount",
							"type": "uint256"
						},
						{
							"internalType": "uint256",
							"name": "rejectionCount",
							"type": "uint256"
						},
						{
							"internalType": "uint256",
							"name": "voteCount",
							"type": "uint256"
						},
						{
							"internalType": "bool",
							"name": "allVoted",
							"type": "bool"
						},
						{
							"internalType": "string",
							"name": "adminDetails",
							"type": "string"
						}
					],
					"internalType": "struct ITokenizationRoleManager.AdminRequest",
					"name": "",
					"type": "tuple"
				}
			],
			"stateMutability": "view",
			"type": "function"
		},
		{
			"inputs": [
				{
					"internalType": "address",
					"name": "",
					"type": "address"
				}
			],
			"name": "bankAdmins",
			"outputs": [
				{
					"internalType": "bool",
					"name": "",
					"type": "bool"
				}
			],
			"stateMutability": "view",
			"type": "function"
		},
		{
			"inputs": [
				{
					"internalType": "uint256",
					"name": "",
					"type": "uint256"
				}
			],
			"name": "bnkAdmReqs",
			"outputs": [
				{
					"internalType": "uint256",
					"name": "",
					"type": "uint256"
				}
			],
			"stateMutability": "view",
			"type": "function"
		},
		{
			"inputs": [],
			"name": "bnkReqs",
			"outputs": [
				{
					"internalType": "uint256",
					"name": "",
					"type": "uint256"
				}
			],
			"stateMutability": "view",
			"type": "function"
		},
		{
			"inputs": [
				{
					"internalType": "uint256",
					"name": "_requiredVoteCount",
					"type": "uint256"
				},
				{
					"internalType": "uint256",
					"name": "_requiredApprovals",
					"type": "uint256"
				}
			],
			"name": "changeVoteParams",
			"outputs": [
				{
					"internalType": "bool",
					"name": "changed",
					"type": "bool"
				}
			],
			"stateMutability": "nonpayable",
			"type": "function"
		},
		{
			"inputs": [
				{
					"internalType": "string",
					"name": "_losBankId",
					"type": "string"
				},
				{
					"internalType": "uint256",
					"name": "bankID",
					"type": "uint256"
				}
			],
			"name": "getAdmReqs",
			"outputs": [
				{
					"components": [
						{
							"internalType": "uint256",
							"name": "requestID",
							"type": "uint256"
						},
						{
							"internalType": "string",
							"name": "losBankID",
							"type": "string"
						},
						{
							"internalType": "uint256",
							"name": "bankID",
							"type": "uint256"
						},
						{
							"internalType": "address",
							"name": "requester",
							"type": "address"
						},
						{
							"internalType": "string",
							"name": "roleType",
							"type": "string"
						},
						{
							"internalType": "bool",
							"name": "approved",
							"type": "bool"
						},
						{
							"internalType": "bool",
							"name": "rejected",
							"type": "bool"
						},
						{
							"internalType": "uint256",
							"name": "approvalCount",
							"type": "uint256"
						},
						{
							"internalType": "uint256",
							"name": "rejectionCount",
							"type": "uint256"
						},
						{
							"internalType": "uint256",
							"name": "voteCount",
							"type": "uint256"
						},
						{
							"internalType": "bool",
							"name": "allVoted",
							"type": "bool"
						},
						{
							"internalType": "string",
							"name": "adminDetails",
							"type": "string"
						}
					],
					"internalType": "struct ITokenizationRoleManager.AdminRequest",
					"name": "",
					"type": "tuple"
				}
			],
			"stateMutability": "view",
			"type": "function"
		},
		{
			"inputs": [
				{
					"internalType": "string",
					"name": "_losBankID",
					"type": "string"
				},
				{
					"internalType": "address",
					"name": "_walletAddress",
					"type": "address"
				}
			],
			"name": "getAdmin",
			"outputs": [
				{
					"components": [
						{
							"internalType": "uint256",
							"name": "requestID",
							"type": "uint256"
						},
						{
							"internalType": "string",
							"name": "losBankID",
							"type": "string"
						},
						{
							"internalType": "uint256",
							"name": "bankID",
							"type": "uint256"
						},
						{
							"internalType": "address",
							"name": "requester",
							"type": "address"
						},
						{
							"internalType": "string",
							"name": "roleType",
							"type": "string"
						},
						{
							"internalType": "bool",
							"name": "approved",
							"type": "bool"
						},
						{
							"internalType": "bool",
							"name": "rejected",
							"type": "bool"
						},
						{
							"internalType": "uint256",
							"name": "approvalCount",
							"type": "uint256"
						},
						{
							"internalType": "uint256",
							"name": "rejectionCount",
							"type": "uint256"
						},
						{
							"internalType": "uint256",
							"name": "voteCount",
							"type": "uint256"
						},
						{
							"internalType": "bool",
							"name": "allVoted",
							"type": "bool"
						},
						{
							"internalType": "string",
							"name": "adminDetails",
							"type": "string"
						}
					],
					"internalType": "struct ITokenizationRoleManager.AdminRequest",
					"name": "",
					"type": "tuple"
				}
			],
			"stateMutability": "view",
			"type": "function"
		},
		{
			"inputs": [
				{
					"internalType": "address",
					"name": "_bankWalletAddress",
					"type": "address"
				}
			],
			"name": "getBankApprovalStatus",
			"outputs": [
				{
					"internalType": "bool",
					"name": "",
					"type": "bool"
				}
			],
			"stateMutability": "view",
			"type": "function"
		},
		{
			"inputs": [
				{
					"internalType": "string",
					"name": "id",
					"type": "string"
				}
			],
			"name": "getBankApps",
			"outputs": [
				{
					"internalType": "address[]",
					"name": "",
					"type": "address[]"
				}
			],
			"stateMutability": "view",
			"type": "function"
		},
		{
			"inputs": [
				{
					"internalType": "uint256",
					"name": "bankID",
					"type": "uint256"
				}
			],
			"name": "getBankReqs",
			"outputs": [
				{
					"components": [
						{
							"internalType": "uint256",
							"name": "ID",
							"type": "uint256"
						},
						{
							"internalType": "string",
							"name": "losBankID",
							"type": "string"
						},
						{
							"internalType": "address",
							"name": "requester",
							"type": "address"
						},
						{
							"internalType": "uint256",
							"name": "NetworkId",
							"type": "uint256"
						},
						{
							"internalType": "bool",
							"name": "isApproved",
							"type": "bool"
						},
						{
							"internalType": "bool",
							"name": "isRejected",
							"type": "bool"
						},
						{
							"internalType": "uint256",
							"name": "approvalCount",
							"type": "uint256"
						},
						{
							"internalType": "string",
							"name": "bankDetails",
							"type": "string"
						},
						{
							"internalType": "uint256",
							"name": "voteCount",
							"type": "uint256"
						},
						{
							"internalType": "bool",
							"name": "allVoted",
							"type": "bool"
						}
					],
					"internalType": "struct ITokenizationRoleManager.Banks",
					"name": "",
					"type": "tuple"
				}
			],
			"stateMutability": "view",
			"type": "function"
		},
		{
			"inputs": [
				{
					"internalType": "string",
					"name": "_losBankID",
					"type": "string"
				},
				{
					"internalType": "address",
					"name": "_walletAddress",
					"type": "address"
				}
			],
			"name": "getUser",
			"outputs": [
				{
					"components": [
						{
							"internalType": "string",
							"name": "name",
							"type": "string"
						},
						{
							"internalType": "string",
							"name": "email",
							"type": "string"
						},
						{
							"internalType": "uint256",
							"name": "userId",
							"type": "uint256"
						},
						{
							"internalType": "address",
							"name": "requester",
							"type": "address"
						},
						{
							"internalType": "string",
							"name": "roleType",
							"type": "string"
						},
						{
							"internalType": "bool",
							"name": "approved",
							"type": "bool"
						},
						{
							"internalType": "bool",
							"name": "rejected",
							"type": "bool"
						},
						{
							"internalType": "uint256",
							"name": "approvalCount",
							"type": "uint256"
						},
						{
							"internalType": "uint256",
							"name": "rejectionCount",
							"type": "uint256"
						},
						{
							"internalType": "uint256",
							"name": "voteCount",
							"type": "uint256"
						},
						{
							"internalType": "string",
							"name": "userDetails",
							"type": "string"
						}
					],
					"internalType": "struct ITokenizationRoleManager.RoleRequest",
					"name": "",
					"type": "tuple"
				}
			],
			"stateMutability": "view",
			"type": "function"
		},
		{
			"inputs": [
				{
					"internalType": "string",
					"name": "_losBankID",
					"type": "string"
				}
			],
			"name": "getUserRequests",
			"outputs": [
				{
					"internalType": "uint256",
					"name": "",
					"type": "uint256"
				}
			],
			"stateMutability": "view",
			"type": "function"
		},
		{
			"inputs": [
				{
					"internalType": "string",
					"name": "_losBankID",
					"type": "string"
				},
				{
					"internalType": "uint256",
					"name": "_userRequestID",
					"type": "uint256"
				}
			],
			"name": "getUserRoleRequestApprovers",
			"outputs": [
				{
					"internalType": "string[]",
					"name": "",
					"type": "string[]"
				}
			],
			"stateMutability": "view",
			"type": "function"
		},
		{
			"inputs": [
				{
					"internalType": "string",
					"name": "_losBankID",
					"type": "string"
				},
				{
					"internalType": "uint256",
					"name": "_userRequestID",
					"type": "uint256"
				}
			],
			"name": "getUserRoleRequestRejectors",
			"outputs": [
				{
					"internalType": "string[]",
					"name": "",
					"type": "string[]"
				}
			],
			"stateMutability": "view",
			"type": "function"
		},
		{
			"inputs": [
				{
					"internalType": "string",
					"name": "_losBankID",
					"type": "string"
				},
				{
					"internalType": "uint256",
					"name": "_userID",
					"type": "uint256"
				}
			],
			"name": "isAdminApproved",
			"outputs": [
				{
					"internalType": "bool",
					"name": "",
					"type": "bool"
				}
			],
			"stateMutability": "view",
			"type": "function"
		},
		{
			"inputs": [
				{
					"internalType": "string",
					"name": "_losBankID",
					"type": "string"
				},
				{
					"internalType": "uint256",
					"name": "_userID",
					"type": "uint256"
				}
			],
			"name": "isUserApproved",
			"outputs": [
				{
					"internalType": "bool",
					"name": "",
					"type": "bool"
				}
			],
			"stateMutability": "view",
			"type": "function"
		},
		{
			"inputs": [
				{
					"internalType": "uint256",
					"name": "",
					"type": "uint256"
				}
			],
			"name": "regRequests",
			"outputs": [
				{
					"internalType": "string",
					"name": "ID",
					"type": "string"
				},
				{
					"internalType": "address",
					"name": "requester",
					"type": "address"
				},
				{
					"internalType": "string",
					"name": "roleType",
					"type": "string"
				},
				{
					"internalType": "uint256",
					"name": "NetworkId",
					"type": "uint256"
				},
				{
					"internalType": "address",
					"name": "nodeAddress",
					"type": "address"
				},
				{
					"internalType": "bool",
					"name": "approved",
					"type": "bool"
				}
			],
			"stateMutability": "view",
			"type": "function"
		},
		{
			"inputs": [
				{
					"internalType": "uint256",
					"name": "",
					"type": "uint256"
				}
			],
			"name": "regVerifiers",
			"outputs": [
				{
					"internalType": "address",
					"name": "",
					"type": "address"
				}
			],
			"stateMutability": "view",
			"type": "function"
		},
		{
			"inputs": [
				{
					"internalType": "address",
					"name": "",
					"type": "address"
				}
			],
			"name": "regulators",
			"outputs": [
				{
					"internalType": "bool",
					"name": "",
					"type": "bool"
				}
			],
			"stateMutability": "view",
			"type": "function"
		},
		{
			"inputs": [
				{
					"internalType": "uint256",
					"name": "bankID",
					"type": "uint256"
				},
				{
					"internalType": "string",
					"name": "_losBankID",
					"type": "string"
				},
				{
					"internalType": "uint256",
					"name": "id",
					"type": "uint256"
				},
				{
					"internalType": "uint256",
					"name": "totalApprovedAdmins",
					"type": "uint256"
				},
				{
					"internalType": "address",
					"name": "requester",
					"type": "address"
				}
			],
			"name": "rejectBankAdm",
			"outputs": [],
			"stateMutability": "nonpayable",
			"type": "function"
		},
		{
			"inputs": [
				{
					"internalType": "string",
					"name": "Id",
					"type": "string"
				}
			],
			"name": "rejectBankReq",
			"outputs": [],
			"stateMutability": "nonpayable",
			"type": "function"
		},
		{
			"inputs": [
				{
					"internalType": "string",
					"name": "_losBankID",
					"type": "string"
				},
				{
					"internalType": "uint256",
					"name": "_userId",
					"type": "uint256"
				},
				{
					"internalType": "string",
					"name": "_totalApprovedAdmins",
					"type": "string"
				},
				{
					"internalType": "address",
					"name": "requester",
					"type": "address"
				},
				{
					"internalType": "string",
					"name": "adminEmail",
					"type": "string"
				}
			],
			"name": "rejectUserRoleRequest",
			"outputs": [],
			"stateMutability": "nonpayable",
			"type": "function"
		},
		{
			"inputs": [
				{
					"internalType": "string",
					"name": "roleType",
					"type": "string"
				},
				{
					"internalType": "string",
					"name": "_losBankID",
					"type": "string"
				},
				{
					"internalType": "string",
					"name": "bankID",
					"type": "string"
				},
				{
					"internalType": "string",
					"name": "adminDetails",
					"type": "string"
				}
			],
			"name": "reqBankAdmin",
			"outputs": [],
			"stateMutability": "nonpayable",
			"type": "function"
		},
		{
			"inputs": [
				{
					"internalType": "string",
					"name": "losBankID",
					"type": "string"
				},
				{
					"internalType": "string",
					"name": "NetworkId",
					"type": "string"
				},
				{
					"internalType": "string",
					"name": "bankDetails",
					"type": "string"
				}
			],
			"name": "reqBankRole",
			"outputs": [],
			"stateMutability": "nonpayable",
			"type": "function"
		},
		{
			"inputs": [
				{
					"internalType": "string",
					"name": "_losBankID",
					"type": "string"
				},
				{
					"internalType": "string",
					"name": "roleType",
					"type": "string"
				},
				{
					"internalType": "string",
					"name": "_name",
					"type": "string"
				},
				{
					"internalType": "string",
					"name": "userDetails",
					"type": "string"
				},
				{
					"internalType": "string",
					"name": "email",
					"type": "string"
				}
			],
			"name": "requestUserRole",
			"outputs": [],
			"stateMutability": "nonpayable",
			"type": "function"
		},
		{
			"inputs": [],
			"name": "requiredApprovals",
			"outputs": [
				{
					"internalType": "uint256",
					"name": "",
					"type": "uint256"
				}
			],
			"stateMutability": "view",
			"type": "function"
		},
		{
			"inputs": [],
			"name": "requiredVoteCount",
			"outputs": [
				{
					"internalType": "uint256",
					"name": "",
					"type": "uint256"
				}
			],
			"stateMutability": "view",
			"type": "function"
		},
		{
			"inputs": [
				{
					"internalType": "string",
					"name": "",
					"type": "string"
				},
				{
					"internalType": "uint256",
					"name": "",
					"type": "uint256"
				}
			],
			"name": "tBankAdmReqs",
			"outputs": [
				{
					"internalType": "uint256",
					"name": "",
					"type": "uint256"
				}
			],
			"stateMutability": "view",
			"type": "function"
		},
		{
			"inputs": [
				{
					"internalType": "string",
					"name": "",
					"type": "string"
				}
			],
			"name": "totalUserRoleRequests",
			"outputs": [
				{
					"internalType": "uint256",
					"name": "",
					"type": "uint256"
				}
			],
			"stateMutability": "view",
			"type": "function"
		},
		{
			"inputs": [
				{
					"internalType": "string",
					"name": "",
					"type": "string"
				},
				{
					"internalType": "uint256",
					"name": "",
					"type": "uint256"
				},
				{
					"internalType": "uint256",
					"name": "",
					"type": "uint256"
				}
			],
			"name": "userRequestApprovers",
			"outputs": [
				{
					"internalType": "string",
					"name": "",
					"type": "string"
				}
			],
			"stateMutability": "view",
			"type": "function"
		},
		{
			"inputs": [
				{
					"internalType": "string",
					"name": "",
					"type": "string"
				},
				{
					"internalType": "uint256",
					"name": "",
					"type": "uint256"
				},
				{
					"internalType": "uint256",
					"name": "",
					"type": "uint256"
				}
			],
			"name": "userRequestRejectors",
			"outputs": [
				{
					"internalType": "string",
					"name": "",
					"type": "string"
				}
			],
			"stateMutability": "view",
			"type": "function"
		},
		{
			"inputs": [
				{
					"internalType": "string",
					"name": "",
					"type": "string"
				},
				{
					"internalType": "uint256",
					"name": "",
					"type": "uint256"
				}
			],
			"name": "userRoleRequests",
			"outputs": [
				{
					"internalType": "string",
					"name": "name",
					"type": "string"
				},
				{
					"internalType": "string",
					"name": "email",
					"type": "string"
				},
				{
					"internalType": "uint256",
					"name": "userId",
					"type": "uint256"
				},
				{
					"internalType": "address",
					"name": "requester",
					"type": "address"
				},
				{
					"internalType": "string",
					"name": "roleType",
					"type": "string"
				},
				{
					"internalType": "bool",
					"name": "approved",
					"type": "bool"
				},
				{
					"internalType": "bool",
					"name": "rejected",
					"type": "bool"
				},
				{
					"internalType": "uint256",
					"name": "approvalCount",
					"type": "uint256"
				},
				{
					"internalType": "uint256",
					"name": "rejectionCount",
					"type": "uint256"
				},
				{
					"internalType": "uint256",
					"name": "voteCount",
					"type": "uint256"
				},
				{
					"internalType": "string",
					"name": "userDetails",
					"type": "string"
				}
			],
			"stateMutability": "view",
			"type": "function"
		}
	]
}