{
	"contracts/AUG-8/Contracts-AUG-8-2024/contracts/MultiSigWallet.sol": {
		"MultiSigWallet": {
			"abi": [
				{
					"inputs": [
						{
							"internalType": "uint256",
							"name": "_chainId",
							"type": "uint256"
						},
						{
							"internalType": "address[]",
							"name": "_owners",
							"type": "address[]"
						},
						{
							"internalType": "uint256",
							"name": "_signaturesRequired",
							"type": "uint256"
						},
						{
							"internalType": "address",
							"name": "_factory",
							"type": "address"
						}
					],
					"stateMutability": "payable",
					"type": "constructor"
				},
				{
					"inputs": [],
					"name": "ECDSAInvalidSignature",
					"type": "error"
				},
				{
					"inputs": [
						{
							"internalType": "uint256",
							"name": "length",
							"type": "uint256"
						}
					],
					"name": "ECDSAInvalidSignatureLength",
					"type": "error"
				},
				{
					"inputs": [
						{
							"internalType": "bytes32",
							"name": "s",
							"type": "bytes32"
						}
					],
					"name": "ECDSAInvalidSignatureS",
					"type": "error"
				},
				{
					"anonymous": false,
					"inputs": [
						{
							"indexed": true,
							"internalType": "address",
							"name": "sender",
							"type": "address"
						},
						{
							"indexed": false,
							"internalType": "uint256",
							"name": "amount",
							"type": "uint256"
						},
						{
							"indexed": false,
							"internalType": "uint256",
							"name": "balance",
							"type": "uint256"
						}
					],
					"name": "Deposit",
					"type": "event"
				},
				{
					"anonymous": false,
					"inputs": [
						{
							"indexed": true,
							"internalType": "address",
							"name": "owner",
							"type": "address"
						},
						{
							"indexed": false,
							"internalType": "address payable",
							"name": "to",
							"type": "address"
						},
						{
							"indexed": false,
							"internalType": "uint256",
							"name": "value",
							"type": "uint256"
						},
						{
							"indexed": false,
							"internalType": "uint256",
							"name": "nonce",
							"type": "uint256"
						},
						{
							"indexed": false,
							"internalType": "bytes32",
							"name": "hash",
							"type": "bytes32"
						}
					],
					"name": "ExecuteTransaction",
					"type": "event"
				},
				{
					"anonymous": false,
					"inputs": [
						{
							"indexed": true,
							"internalType": "address",
							"name": "owner",
							"type": "address"
						},
						{
							"indexed": false,
							"internalType": "bool",
							"name": "added",
							"type": "bool"
						}
					],
					"name": "Owner",
					"type": "event"
				},
				{
					"inputs": [
						{
							"internalType": "address",
							"name": "owner",
							"type": "address"
						},
						{
							"internalType": "address",
							"name": "newSigner",
							"type": "address"
						},
						{
							"internalType": "uint256",
							"name": "newSignaturesRequired",
							"type": "uint256"
						}
					],
					"name": "addSigner",
					"outputs": [],
					"stateMutability": "nonpayable",
					"type": "function"
				},
				{
					"inputs": [],
					"name": "chainId",
					"outputs": [
						{
							"internalType": "uint256",
							"name": "",
							"type": "uint256"
						}
					],
					"stateMutability": "view",
					"type": "function"
				},
				{
					"inputs": [
						{
							"internalType": "address payable",
							"name": "to",
							"type": "address"
						},
						{
							"internalType": "uint256",
							"name": "value",
							"type": "uint256"
						},
						{
							"internalType": "bytes",
							"name": "signature",
							"type": "bytes"
						},
						{
							"internalType": "string",
							"name": "passkey",
							"type": "string"
						},
						{
							"internalType": "string",
							"name": "transactionStamp",
							"type": "string"
						},
						{
							"internalType": "uint256",
							"name": "trxNo",
							"type": "uint256"
						}
					],
					"name": "executeApproval",
					"outputs": [
						{
							"internalType": "bool",
							"name": "",
							"type": "bool"
						}
					],
					"stateMutability": "nonpayable",
					"type": "function"
				},
				{
					"inputs": [
						{
							"internalType": "string",
							"name": "functionSignature",
							"type": "string"
						},
						{
							"internalType": "address",
							"name": "owner",
							"type": "address"
						},
						{
							"internalType": "address",
							"name": "newSigner",
							"type": "address"
						},
						{
							"internalType": "uint256",
							"name": "newSignaturesRequired",
							"type": "uint256"
						}
					],
					"name": "getFunctionData",
					"outputs": [
						{
							"internalType": "bytes",
							"name": "",
							"type": "bytes"
						}
					],
					"stateMutability": "pure",
					"type": "function"
				},
				{
					"inputs": [
						{
							"internalType": "uint256",
							"name": "_nonce",
							"type": "uint256"
						},
						{
							"internalType": "address",
							"name": "to",
							"type": "address"
						},
						{
							"internalType": "uint256",
							"name": "value",
							"type": "uint256"
						}
					],
					"name": "getTransactionHash",
					"outputs": [
						{
							"internalType": "bytes32",
							"name": "",
							"type": "bytes32"
						}
					],
					"stateMutability": "view",
					"type": "function"
				},
				{
					"inputs": [],
					"name": "incrementNonce",
					"outputs": [
						{
							"internalType": "uint256",
							"name": "",
							"type": "uint256"
						}
					],
					"stateMutability": "nonpayable",
					"type": "function"
				},
				{
					"inputs": [
						{
							"internalType": "address",
							"name": "",
							"type": "address"
						}
					],
					"name": "isOwner",
					"outputs": [
						{
							"internalType": "bool",
							"name": "",
							"type": "bool"
						}
					],
					"stateMutability": "view",
					"type": "function"
				},
				{
					"inputs": [],
					"name": "nonce",
					"outputs": [
						{
							"internalType": "uint256",
							"name": "",
							"type": "uint256"
						}
					],
					"stateMutability": "view",
					"type": "function"
				},
				{
					"inputs": [
						{
							"internalType": "uint256",
							"name": "",
							"type": "uint256"
						}
					],
					"name": "owners",
					"outputs": [
						{
							"internalType": "address",
							"name": "",
							"type": "address"
						}
					],
					"stateMutability": "view",
					"type": "function"
				},
				{
					"inputs": [
						{
							"internalType": "bytes32",
							"name": "_hash",
							"type": "bytes32"
						},
						{
							"internalType": "bytes",
							"name": "_signature",
							"type": "bytes"
						}
					],
					"name": "recover",
					"outputs": [
						{
							"internalType": "address",
							"name": "",
							"type": "address"
						}
					],
					"stateMutability": "pure",
					"type": "function"
				},
				{
					"inputs": [
						{
							"internalType": "address",
							"name": "owner",
							"type": "address"
						},
						{
							"internalType": "address",
							"name": "oldSigner",
							"type": "address"
						},
						{
							"internalType": "uint256",
							"name": "newSignaturesRequired",
							"type": "uint256"
						}
					],
					"name": "removeSigner",
					"outputs": [],
					"stateMutability": "nonpayable",
					"type": "function"
				},
				{
					"inputs": [],
					"name": "signaturesRequired",
					"outputs": [
						{
							"internalType": "uint256",
							"name": "",
							"type": "uint256"
						}
					],
					"stateMutability": "view",
					"type": "function"
				},
				{
					"inputs": [
						{
							"internalType": "uint256",
							"name": "trxNo",
							"type": "uint256"
						}
					],
					"name": "totalTransactionValidations",
					"outputs": [
						{
							"internalType": "uint256",
							"name": "",
							"type": "uint256"
						}
					],
					"stateMutability": "view",
					"type": "function"
				},
				{
					"inputs": [
						{
							"internalType": "uint256",
							"name": "",
							"type": "uint256"
						}
					],
					"name": "transactionNo",
					"outputs": [
						{
							"internalType": "string",
							"name": "",
							"type": "string"
						}
					],
					"stateMutability": "view",
					"type": "function"
				},
				{
					"inputs": [
						{
							"internalType": "string",
							"name": "",
							"type": "string"
						}
					],
					"name": "transactionValidations",
					"outputs": [
						{
							"internalType": "uint256",
							"name": "",
							"type": "uint256"
						}
					],
					"stateMutability": "view",
					"type": "function"
				},
				{
					"inputs": [
						{
							"internalType": "string",
							"name": "",
							"type": "string"
						}
					],
					"name": "validSignatures",
					"outputs": [
						{
							"internalType": "uint256",
							"name": "",
							"type": "uint256"
						}
					],
					"stateMutability": "view",
					"type": "function"
				},
				{
					"inputs": [
						{
							"internalType": "string",
							"name": "_passkey",
							"type": "string"
						},
						{
							"internalType": "bytes",
							"name": "signature",
							"type": "bytes"
						}
					],
					"name": "verifyUserSign",
					"outputs": [
						{
							"internalType": "address",
							"name": "userWalletAddress",
							"type": "address"
						}
					],
					"stateMutability": "pure",
					"type": "function"
				},
				{
					"stateMutability": "payable",
					"type": "receive"
				}
			],
			"devdoc": {
				"errors": {
					"ECDSAInvalidSignature()": [
						{
							"details": "The signature derives the `address(0)`."
						}
					],
					"ECDSAInvalidSignatureLength(uint256)": [
						{
							"details": "The signature has an invalid length."
						}
					],
					"ECDSAInvalidSignatureS(bytes32)": [
						{
							"details": "The signature has an S value that is in the upper half order."
						}
					]
				},
				"kind": "dev",
				"methods": {},
				"version": 1
			},
			"evm": {
				"assembly": "    /* \"contracts/AUG-8/Contracts-AUG-8-2024/contracts/MultiSigWallet.sol\":355:9151  contract MultiSigWallet is IMultiSigWallet{... */\n  mstore(0x40, 0x80)\n    /* \"contracts/AUG-8/Contracts-AUG-8-2024/contracts/MultiSigWallet.sol\":1519:2214  constructor(... */\n  mload(0x40)\n  sub(codesize, bytecodeSize)\n  dup1\n  bytecodeSize\n  dup4\n  codecopy\n  dup2\n  add\n  0x40\n  dup2\n  swap1\n  mstore\n  tag_1\n  swap2\n  tag_2\n  jump\t// in\ntag_1:\n    /* \"contracts/AUG-8/Contracts-AUG-8-2024/contracts/MultiSigWallet.sol\":1693:1712  _signaturesRequired */\n  dup2\n    /* \"contracts/AUG-8/Contracts-AUG-8-2024/contracts/MultiSigWallet.sol\":1459:1460  0 */\n  0x00\n    /* \"contracts/AUG-8/Contracts-AUG-8-2024/contracts/MultiSigWallet.sol\":1437:1456  _signaturesRequired */\n  dup2\n    /* \"contracts/AUG-8/Contracts-AUG-8-2024/contracts/MultiSigWallet.sol\":1437:1460  _signaturesRequired > 0 */\n  gt\n    /* \"contracts/AUG-8/Contracts-AUG-8-2024/contracts/MultiSigWallet.sol\":1429:1495  require(_signaturesRequired > 0, \"Must be non-zero sigs required\") */\n  tag_5\n  jumpi\n  mload(0x40)\n  shl(0xe5, 0x461bcd)\n  dup2\n  mstore\n    /* \"#utility.yul\":1976:1978   */\n  0x20\n    /* \"contracts/AUG-8/Contracts-AUG-8-2024/contracts/MultiSigWallet.sol\":1429:1495  require(_signaturesRequired > 0, \"Must be non-zero sigs required\") */\n  0x04\n  dup3\n  add\n    /* \"#utility.yul\":1958:1979   */\n  mstore\n    /* \"#utility.yul\":2015:2017   */\n  0x1e\n    /* \"#utility.yul\":1995:2013   */\n  0x24\n  dup3\n  add\n    /* \"#utility.yul\":1988:2018   */\n  mstore\n    /* \"#utility.yul\":2054:2086   */\n  0x4d757374206265206e6f6e2d7a65726f20736967732072657175697265640000\n    /* \"#utility.yul\":2034:2052   */\n  0x44\n  dup3\n  add\n    /* \"#utility.yul\":2027:2087   */\n  mstore\n    /* \"#utility.yul\":2104:2122   */\n  0x64\n  add\n    /* \"contracts/AUG-8/Contracts-AUG-8-2024/contracts/MultiSigWallet.sol\":1429:1495  require(_signaturesRequired > 0, \"Must be non-zero sigs required\") */\ntag_6:\n  mload(0x40)\n  dup1\n  swap2\n  sub\n  swap1\n  revert\ntag_5:\n    /* \"contracts/AUG-8/Contracts-AUG-8-2024/contracts/MultiSigWallet.sol\":1724:1739  multiSigFactory */\n  0x00\n    /* \"contracts/AUG-8/Contracts-AUG-8-2024/contracts/MultiSigWallet.sol\":1724:1767  multiSigFactory = MultiSigFactory(_factory) */\n  dup1\n  sload\n  not(sub(shl(0xa0, 0x01), 0x01))\n  and\n  sub(shl(0xa0, 0x01), 0x01)\n  dup5\n  and\n  or\n  dup2\n  sstore\n    /* \"contracts/AUG-8/Contracts-AUG-8-2024/contracts/MultiSigWallet.sol\":1777:1795  signaturesRequired */\n  0x06\n    /* \"contracts/AUG-8/Contracts-AUG-8-2024/contracts/MultiSigWallet.sol\":1777:1817  signaturesRequired = _signaturesRequired */\n  dup5\n  swap1\n  sstore\n    /* \"contracts/AUG-8/Contracts-AUG-8-2024/contracts/MultiSigWallet.sol\":1827:2179  for (uint256 i = 0; i < _owners.length; i++) {... */\ntag_9:\n    /* \"contracts/AUG-8/Contracts-AUG-8-2024/contracts/MultiSigWallet.sol\":1851:1858  _owners */\n  dup5\n    /* \"contracts/AUG-8/Contracts-AUG-8-2024/contracts/MultiSigWallet.sol\":1851:1865  _owners.length */\n  mload\n    /* \"contracts/AUG-8/Contracts-AUG-8-2024/contracts/MultiSigWallet.sol\":1847:1848  i */\n  dup2\n    /* \"contracts/AUG-8/Contracts-AUG-8-2024/contracts/MultiSigWallet.sol\":1847:1865  i < _owners.length */\n  lt\n    /* \"contracts/AUG-8/Contracts-AUG-8-2024/contracts/MultiSigWallet.sol\":1827:2179  for (uint256 i = 0; i < _owners.length; i++) {... */\n  iszero\n  tag_10\n  jumpi\n    /* \"contracts/AUG-8/Contracts-AUG-8-2024/contracts/MultiSigWallet.sol\":1886:1899  address owner */\n  0x00\n    /* \"contracts/AUG-8/Contracts-AUG-8-2024/contracts/MultiSigWallet.sol\":1902:1909  _owners */\n  dup6\n    /* \"contracts/AUG-8/Contracts-AUG-8-2024/contracts/MultiSigWallet.sol\":1910:1911  i */\n  dup3\n    /* \"contracts/AUG-8/Contracts-AUG-8-2024/contracts/MultiSigWallet.sol\":1902:1912  _owners[i] */\n  dup2\n  mload\n  dup2\n  lt\n  tag_13\n  jumpi\n  tag_13\n  tag_14\n  jump\t// in\ntag_13:\n  0x20\n  mul\n  0x20\n  add\n  add\n  mload\n    /* \"contracts/AUG-8/Contracts-AUG-8-2024/contracts/MultiSigWallet.sol\":1886:1912  address owner = _owners[i] */\n  swap1\n  pop\n    /* \"contracts/AUG-8/Contracts-AUG-8-2024/contracts/MultiSigWallet.sol\":1951:1952  0 */\n  0x00\n  sub(shl(0xa0, 0x01), 0x01)\n    /* \"contracts/AUG-8/Contracts-AUG-8-2024/contracts/MultiSigWallet.sol\":1934:1953  owner != address(0) */\n  and\n    /* \"contracts/AUG-8/Contracts-AUG-8-2024/contracts/MultiSigWallet.sol\":1934:1939  owner */\n  dup2\n  sub(shl(0xa0, 0x01), 0x01)\n    /* \"contracts/AUG-8/Contracts-AUG-8-2024/contracts/MultiSigWallet.sol\":1934:1953  owner != address(0) */\n  and\n  sub\n    /* \"contracts/AUG-8/Contracts-AUG-8-2024/contracts/MultiSigWallet.sol\":1926:1983  require(owner != address(0), \"constructor: zero address\") */\n  tag_15\n  jumpi\n  mload(0x40)\n  shl(0xe5, 0x461bcd)\n  dup2\n  mstore\n    /* \"#utility.yul\":2467:2469   */\n  0x20\n    /* \"contracts/AUG-8/Contracts-AUG-8-2024/contracts/MultiSigWallet.sol\":1926:1983  require(owner != address(0), \"constructor: zero address\") */\n  0x04\n  dup3\n  add\n    /* \"#utility.yul\":2449:2470   */\n  mstore\n    /* \"#utility.yul\":2506:2508   */\n  0x19\n    /* \"#utility.yul\":2486:2504   */\n  0x24\n  dup3\n  add\n    /* \"#utility.yul\":2479:2509   */\n  mstore\n    /* \"#utility.yul\":2545:2572   */\n  0x636f6e7374727563746f723a207a65726f206164647265737300000000000000\n    /* \"#utility.yul\":2525:2543   */\n  0x44\n  dup3\n  add\n    /* \"#utility.yul\":2518:2573   */\n  mstore\n    /* \"#utility.yul\":2590:2608   */\n  0x64\n  add\n    /* \"contracts/AUG-8/Contracts-AUG-8-2024/contracts/MultiSigWallet.sol\":1926:1983  require(owner != address(0), \"constructor: zero address\") */\n  tag_6\n    /* \"#utility.yul\":2265:2614   */\n  jump\n    /* \"contracts/AUG-8/Contracts-AUG-8-2024/contracts/MultiSigWallet.sol\":1926:1983  require(owner != address(0), \"constructor: zero address\") */\ntag_15:\n  sub(shl(0xa0, 0x01), 0x01)\n    /* \"contracts/AUG-8/Contracts-AUG-8-2024/contracts/MultiSigWallet.sol\":2006:2020  isOwner[owner] */\n  dup2\n  and\n  0x00\n  swap1\n  dup2\n  mstore\n    /* \"contracts/AUG-8/Contracts-AUG-8-2024/contracts/MultiSigWallet.sol\":2006:2013  isOwner */\n  0x01\n    /* \"contracts/AUG-8/Contracts-AUG-8-2024/contracts/MultiSigWallet.sol\":2006:2020  isOwner[owner] */\n  0x20\n  mstore\n  0x40\n  swap1\n  keccak256\n  sload\n  0xff\n  and\n    /* \"contracts/AUG-8/Contracts-AUG-8-2024/contracts/MultiSigWallet.sol\":2005:2020  !isOwner[owner] */\n  iszero\n    /* \"contracts/AUG-8/Contracts-AUG-8-2024/contracts/MultiSigWallet.sol\":1997:2054  require(!isOwner[owner], \"constructor: owner not unique\") */\n  tag_18\n  jumpi\n  mload(0x40)\n  shl(0xe5, 0x461bcd)\n  dup2\n  mstore\n    /* \"#utility.yul\":2821:2823   */\n  0x20\n    /* \"contracts/AUG-8/Contracts-AUG-8-2024/contracts/MultiSigWallet.sol\":1997:2054  require(!isOwner[owner], \"constructor: owner not unique\") */\n  0x04\n  dup3\n  add\n    /* \"#utility.yul\":2803:2824   */\n  mstore\n    /* \"#utility.yul\":2860:2862   */\n  0x1d\n    /* \"#utility.yul\":2840:2858   */\n  0x24\n  dup3\n  add\n    /* \"#utility.yul\":2833:2863   */\n  mstore\n    /* \"#utility.yul\":2899:2930   */\n  0x636f6e7374727563746f723a206f776e6572206e6f7420756e69717565000000\n    /* \"#utility.yul\":2879:2897   */\n  0x44\n  dup3\n  add\n    /* \"#utility.yul\":2872:2931   */\n  mstore\n    /* \"#utility.yul\":2948:2966   */\n  0x64\n  add\n    /* \"contracts/AUG-8/Contracts-AUG-8-2024/contracts/MultiSigWallet.sol\":1997:2054  require(!isOwner[owner], \"constructor: owner not unique\") */\n  tag_6\n    /* \"#utility.yul\":2619:2972   */\n  jump\n    /* \"contracts/AUG-8/Contracts-AUG-8-2024/contracts/MultiSigWallet.sol\":1997:2054  require(!isOwner[owner], \"constructor: owner not unique\") */\ntag_18:\n  sub(shl(0xa0, 0x01), 0x01)\n    /* \"contracts/AUG-8/Contracts-AUG-8-2024/contracts/MultiSigWallet.sol\":2068:2082  isOwner[owner] */\n  dup2\n  and\n  0x00\n  dup2\n  dup2\n  mstore\n    /* \"contracts/AUG-8/Contracts-AUG-8-2024/contracts/MultiSigWallet.sol\":2085:2089  true */\n  0x01\n    /* \"contracts/AUG-8/Contracts-AUG-8-2024/contracts/MultiSigWallet.sol\":2068:2082  isOwner[owner] */\n  0x20\n  dup2\n  dup2\n  mstore\n  0x40\n  swap3\n  dup4\n  swap1\n  keccak256\n    /* \"contracts/AUG-8/Contracts-AUG-8-2024/contracts/MultiSigWallet.sol\":2068:2089  isOwner[owner] = true */\n  dup1\n  sload\n  not(0xff)\n  and\n  dup4\n  or\n  dup2\n  sstore\n    /* \"contracts/AUG-8/Contracts-AUG-8-2024/contracts/MultiSigWallet.sol\":2103:2109  owners */\n  0x05\n    /* \"contracts/AUG-8/Contracts-AUG-8-2024/contracts/MultiSigWallet.sol\":2103:2121  owners.push(owner) */\n  dup1\n  sload\n  swap4\n  dup5\n  add\n  swap1\n  sstore\n  0x036b6384b5eca791c62761152d0c79bb0604c104a5fb6f4eb0703f3154bb3db0\n  swap1\n  swap3\n  add\n  dup1\n  sload\n  not(sub(shl(0xa0, 0x01), 0x01))\n  and\n  dup6\n  or\n  swap1\n  sstore\n    /* \"contracts/AUG-8/Contracts-AUG-8-2024/contracts/MultiSigWallet.sol\":2153:2167  isOwner[owner] */\n  swap1\n  sload\n    /* \"contracts/AUG-8/Contracts-AUG-8-2024/contracts/MultiSigWallet.sol\":2140:2168  Owner(owner, isOwner[owner]) */\n  swap2\n  mload\n    /* \"contracts/AUG-8/Contracts-AUG-8-2024/contracts/MultiSigWallet.sol\":2068:2089  isOwner[owner] = true */\n  0xff\n    /* \"contracts/AUG-8/Contracts-AUG-8-2024/contracts/MultiSigWallet.sol\":2153:2167  isOwner[owner] */\n  swap1\n  swap3\n  and\n    /* \"#utility.yul\":3142:3156   */\n  iszero\n    /* \"#utility.yul\":3135:3157   */\n  iszero\n    /* \"#utility.yul\":3117:3158   */\n  dup3\n  mstore\n    /* \"contracts/AUG-8/Contracts-AUG-8-2024/contracts/MultiSigWallet.sol\":2140:2168  Owner(owner, isOwner[owner]) */\n  0xfe545f48304051c4029eb2da9927daa59da0414b4b084fdceaf2955b609b899e\n  swap2\n    /* \"#utility.yul\":3090:3108   */\n  add\n    /* \"contracts/AUG-8/Contracts-AUG-8-2024/contracts/MultiSigWallet.sol\":2140:2168  Owner(owner, isOwner[owner]) */\n  mload(0x40)\n  dup1\n  swap2\n  sub\n  swap1\n  log2\n  pop\n    /* \"contracts/AUG-8/Contracts-AUG-8-2024/contracts/MultiSigWallet.sol\":1867:1870  i++ */\n  0x01\n  add\n    /* \"contracts/AUG-8/Contracts-AUG-8-2024/contracts/MultiSigWallet.sol\":1827:2179  for (uint256 i = 0; i < _owners.length; i++) {... */\n  jump(tag_9)\ntag_10:\n  pop\n  pop\n  pop\n    /* \"contracts/AUG-8/Contracts-AUG-8-2024/contracts/MultiSigWallet.sol\":2189:2196  chainId */\n  0x08\n    /* \"contracts/AUG-8/Contracts-AUG-8-2024/contracts/MultiSigWallet.sol\":2189:2207  chainId = _chainId */\n  swap3\n  swap1\n  swap3\n  sstore\n  pop\n    /* \"contracts/AUG-8/Contracts-AUG-8-2024/contracts/MultiSigWallet.sol\":355:9151  contract MultiSigWallet is IMultiSigWallet{... */\n  tag_27\n  swap1\n  pop\n  jump\n    /* \"#utility.yul\":14:141   */\ntag_25:\n    /* \"#utility.yul\":75:85   */\n  0x4e487b71\n    /* \"#utility.yul\":70:73   */\n  0xe0\n    /* \"#utility.yul\":66:86   */\n  shl\n    /* \"#utility.yul\":63:64   */\n  0x00\n    /* \"#utility.yul\":56:87   */\n  mstore\n    /* \"#utility.yul\":106:110   */\n  0x41\n    /* \"#utility.yul\":103:104   */\n  0x04\n    /* \"#utility.yul\":96:111   */\n  mstore\n    /* \"#utility.yul\":130:134   */\n  0x24\n    /* \"#utility.yul\":127:128   */\n  0x00\n    /* \"#utility.yul\":120:135   */\n  revert\n    /* \"#utility.yul\":146:323   */\ntag_26:\n    /* \"#utility.yul\":225:238   */\n  dup1\n  mload\n  sub(shl(0xa0, 0x01), 0x01)\n    /* \"#utility.yul\":267:298   */\n  dup2\n  and\n    /* \"#utility.yul\":257:299   */\n  dup2\n  eq\n    /* \"#utility.yul\":247:317   */\n  tag_30\n  jumpi\n    /* \"#utility.yul\":313:314   */\n  0x00\n    /* \"#utility.yul\":310:311   */\n  dup1\n    /* \"#utility.yul\":303:315   */\n  revert\n    /* \"#utility.yul\":247:317   */\ntag_30:\n    /* \"#utility.yul\":146:323   */\n  swap2\n  swap1\n  pop\n  jump\t// out\n    /* \"#utility.yul\":328:1769   */\ntag_2:\n    /* \"#utility.yul\":450:456   */\n  0x00\n    /* \"#utility.yul\":458:464   */\n  dup1\n    /* \"#utility.yul\":466:472   */\n  0x00\n    /* \"#utility.yul\":474:480   */\n  dup1\n    /* \"#utility.yul\":527:530   */\n  0x80\n    /* \"#utility.yul\":515:524   */\n  dup6\n    /* \"#utility.yul\":506:513   */\n  dup8\n    /* \"#utility.yul\":502:525   */\n  sub\n    /* \"#utility.yul\":498:531   */\n  slt\n    /* \"#utility.yul\":495:548   */\n  iszero\n  tag_32\n  jumpi\n    /* \"#utility.yul\":544:545   */\n  0x00\n    /* \"#utility.yul\":541:542   */\n  dup1\n    /* \"#utility.yul\":534:546   */\n  revert\n    /* \"#utility.yul\":495:548   */\ntag_32:\n    /* \"#utility.yul\":589:605   */\n  dup5\n  mload\n    /* \"#utility.yul\":673:675   */\n  0x20\n    /* \"#utility.yul\":658:676   */\n  dup7\n  add\n    /* \"#utility.yul\":652:677   */\n  mload\n    /* \"#utility.yul\":589:605   */\n  swap1\n  swap5\n  pop\n  sub(shl(0x40, 0x01), 0x01)\n    /* \"#utility.yul\":689:719   */\n  dup2\n  gt\n    /* \"#utility.yul\":686:736   */\n  iszero\n  tag_33\n  jumpi\n    /* \"#utility.yul\":732:733   */\n  0x00\n    /* \"#utility.yul\":729:730   */\n  dup1\n    /* \"#utility.yul\":722:734   */\n  revert\n    /* \"#utility.yul\":686:736   */\ntag_33:\n    /* \"#utility.yul\":755:777   */\n  dup6\n  add\n    /* \"#utility.yul\":808:812   */\n  0x1f\n    /* \"#utility.yul\":800:813   */\n  dup2\n  add\n    /* \"#utility.yul\":796:823   */\n  dup8\n  sgt\n    /* \"#utility.yul\":786:841   */\n  tag_34\n  jumpi\n    /* \"#utility.yul\":837:838   */\n  0x00\n    /* \"#utility.yul\":834:835   */\n  dup1\n    /* \"#utility.yul\":827:839   */\n  revert\n    /* \"#utility.yul\":786:841   */\ntag_34:\n    /* \"#utility.yul\":864:873   */\n  dup1\n  mload\n  sub(shl(0x40, 0x01), 0x01)\n    /* \"#utility.yul\":885:915   */\n  dup2\n  gt\n    /* \"#utility.yul\":882:938   */\n  iszero\n  tag_36\n  jumpi\n    /* \"#utility.yul\":918:936   */\n  tag_36\n  tag_25\n  jump\t// in\ntag_36:\n    /* \"#utility.yul\":1000:1002   */\n  0x40\n    /* \"#utility.yul\":994:1003   */\n  mload\n    /* \"#utility.yul\":961:962   */\n  0x05\n    /* \"#utility.yul\":957:971   */\n  dup3\n  swap1\n  shl\n  swap1\n    /* \"#utility.yul\":1054:1056   */\n  0x3f\n    /* \"#utility.yul\":1046:1057   */\n  dup3\n  add\n  not(0x1f)\n    /* \"#utility.yul\":1042:1067   */\n  and\n    /* \"#utility.yul\":1030:1068   */\n  dup2\n  add\n  sub(shl(0x40, 0x01), 0x01)\n    /* \"#utility.yul\":1083:1117   */\n  dup2\n  gt\n    /* \"#utility.yul\":1119:1141   */\n  dup3\n  dup3\n  lt\n    /* \"#utility.yul\":1080:1142   */\n  or\n    /* \"#utility.yul\":1077:1165   */\n  iszero\n  tag_38\n  jumpi\n    /* \"#utility.yul\":1145:1163   */\n  tag_38\n  tag_25\n  jump\t// in\ntag_38:\n    /* \"#utility.yul\":1181:1183   */\n  0x40\n    /* \"#utility.yul\":1174:1196   */\n  mstore\n    /* \"#utility.yul\":1231:1253   */\n  swap2\n  dup3\n  mstore\n    /* \"#utility.yul\":1281:1283   */\n  0x20\n    /* \"#utility.yul\":1311:1322   */\n  dup2\n  dup5\n  add\n    /* \"#utility.yul\":1307:1327   */\n  dup2\n  add\n  swap3\n    /* \"#utility.yul\":1231:1253   */\n  swap1\n    /* \"#utility.yul\":1269:1284   */\n  dup2\n  add\n    /* \"#utility.yul\":1339:1358   */\n  dup11\n  dup5\n  gt\n    /* \"#utility.yul\":1336:1375   */\n  iszero\n  tag_39\n  jumpi\n    /* \"#utility.yul\":1371:1372   */\n  0x00\n    /* \"#utility.yul\":1368:1369   */\n  dup1\n    /* \"#utility.yul\":1361:1373   */\n  revert\n    /* \"#utility.yul\":1336:1375   */\ntag_39:\n    /* \"#utility.yul\":1403:1405   */\n  0x20\n    /* \"#utility.yul\":1399:1401   */\n  dup6\n    /* \"#utility.yul\":1395:1406   */\n  add\n    /* \"#utility.yul\":1384:1406   */\n  swap5\n  pop\n    /* \"#utility.yul\":1415:1574   */\ntag_40:\n    /* \"#utility.yul\":1431:1437   */\n  dup4\n    /* \"#utility.yul\":1426:1429   */\n  dup6\n    /* \"#utility.yul\":1423:1438   */\n  lt\n    /* \"#utility.yul\":1415:1574   */\n  iszero\n  tag_42\n  jumpi\n    /* \"#utility.yul\":1497:1531   */\n  tag_43\n    /* \"#utility.yul\":1527:1530   */\n  dup6\n    /* \"#utility.yul\":1497:1531   */\n  tag_26\n  jump\t// in\ntag_43:\n    /* \"#utility.yul\":1485:1532   */\n  dup2\n  mstore\n    /* \"#utility.yul\":1561:1563   */\n  0x20\n    /* \"#utility.yul\":1448:1460   */\n  swap5\n  dup6\n  add\n  swap5\n    /* \"#utility.yul\":1552:1564   */\n  add\n    /* \"#utility.yul\":1415:1574   */\n  jump(tag_40)\ntag_42:\n  pop\n    /* \"#utility.yul\":1665:1667   */\n  0x40\n    /* \"#utility.yul\":1650:1668   */\n  dup10\n  add\n    /* \"#utility.yul\":1644:1669   */\n  mload\n    /* \"#utility.yul\":1593:1599   */\n  swap1\n  swap7\n  pop\n    /* \"#utility.yul\":1644:1669   */\n  swap5\n  pop\n    /* \"#utility.yul\":1714:1763   */\n  tag_44\n  swap3\n  pop\n  pop\n    /* \"#utility.yul\":1759:1761   */\n  0x60\n    /* \"#utility.yul\":1744:1762   */\n  dup8\n  add\n  swap1\n  pop\n    /* \"#utility.yul\":1714:1763   */\n  tag_26\n  jump\t// in\ntag_44:\n    /* \"#utility.yul\":1704:1763   */\n  swap1\n  pop\n    /* \"#utility.yul\":328:1769   */\n  swap3\n  swap6\n  swap2\n  swap5\n  pop\n  swap3\n  pop\n  jump\t// out\n    /* \"#utility.yul\":2133:2260   */\ntag_14:\n    /* \"#utility.yul\":2194:2204   */\n  0x4e487b71\n    /* \"#utility.yul\":2189:2192   */\n  0xe0\n    /* \"#utility.yul\":2185:2205   */\n  shl\n    /* \"#utility.yul\":2182:2183   */\n  0x00\n    /* \"#utility.yul\":2175:2206   */\n  mstore\n    /* \"#utility.yul\":2225:2229   */\n  0x32\n    /* \"#utility.yul\":2222:2223   */\n  0x04\n    /* \"#utility.yul\":2215:2230   */\n  mstore\n    /* \"#utility.yul\":2249:2253   */\n  0x24\n    /* \"#utility.yul\":2246:2247   */\n  0x00\n    /* \"#utility.yul\":2239:2254   */\n  revert\n    /* \"#utility.yul\":2977:3164   */\ntag_27:\n    /* \"contracts/AUG-8/Contracts-AUG-8-2024/contracts/MultiSigWallet.sol\":355:9151  contract MultiSigWallet is IMultiSigWallet{... */\n  dataSize(sub_0)\n  dup1\n  dataOffset(sub_0)\n  0x00\n  codecopy\n  0x00\n  return\nstop\n\nsub_0: assembly {\n        /* \"contracts/AUG-8/Contracts-AUG-8-2024/contracts/MultiSigWallet.sol\":355:9151  contract MultiSigWallet is IMultiSigWallet{... */\n      mstore(0x40, 0x80)\n      jumpi(tag_1, lt(calldatasize, 0x04))\n      shr(0xe0, calldataload(0x00))\n      dup1\n      0x7708072c\n      gt\n      tag_20\n      jumpi\n      dup1\n      0xa157b0ae\n      gt\n      tag_21\n      jumpi\n      dup1\n      0xa157b0ae\n      eq\n      tag_15\n      jumpi\n      dup1\n      0xaffed0e0\n      eq\n      tag_16\n      jumpi\n      dup1\n      0xce757d29\n      eq\n      tag_17\n      jumpi\n      dup1\n      0xd17eced3\n      eq\n      tag_18\n      jumpi\n      dup1\n      0xf2b0bb6b\n      eq\n      tag_19\n      jumpi\n      0x00\n      dup1\n      revert\n    tag_21:\n      dup1\n      0x7708072c\n      eq\n      tag_11\n      jumpi\n      dup1\n      0x7c72596e\n      eq\n      tag_12\n      jumpi\n      dup1\n      0x95a3ac74\n      eq\n      tag_13\n      jumpi\n      dup1\n      0x9a8a0592\n      eq\n      tag_14\n      jumpi\n      0x00\n      dup1\n      revert\n    tag_20:\n      dup1\n      0x1f919f77\n      gt\n      tag_22\n      jumpi\n      dup1\n      0x1f919f77\n      eq\n      tag_7\n      jumpi\n      dup1\n      0x2f54bf6e\n      eq\n      tag_8\n      jumpi\n      dup1\n      0x3aaa4771\n      eq\n      tag_9\n      jumpi\n      dup1\n      0x627cdcb9\n      eq\n      tag_10\n      jumpi\n      0x00\n      dup1\n      revert\n    tag_22:\n      dup1\n      0x019010f6\n      eq\n      tag_3\n      jumpi\n      dup1\n      0x025e7c27\n      eq\n      tag_4\n      jumpi\n      dup1\n      0x06a23e5f\n      eq\n      tag_5\n      jumpi\n      dup1\n      0x19045a25\n      eq\n      tag_6\n      jumpi\n      0x00\n      dup1\n      revert\n    tag_1:\n      jumpi(tag_2, calldatasize)\n        /* \"contracts/AUG-8/Contracts-AUG-8-2024/contracts/MultiSigWallet.sol\":6925:6978  Deposit(msg.sender, msg.value, address(this).balance) */\n      0x40\n      dup1\n      mload\n        /* \"contracts/AUG-8/Contracts-AUG-8-2024/contracts/MultiSigWallet.sol\":6945:6954  msg.value */\n      callvalue\n        /* \"#utility.yul\":188:213   */\n      dup2\n      mstore\n        /* \"contracts/AUG-8/Contracts-AUG-8-2024/contracts/MultiSigWallet.sol\":6956:6977  address(this).balance */\n      selfbalance\n        /* \"#utility.yul\":244:246   */\n      0x20\n        /* \"#utility.yul\":229:247   */\n      dup3\n      add\n        /* \"#utility.yul\":222:256   */\n      mstore\n        /* \"contracts/AUG-8/Contracts-AUG-8-2024/contracts/MultiSigWallet.sol\":6933:6943  msg.sender */\n      caller\n      swap2\n        /* \"contracts/AUG-8/Contracts-AUG-8-2024/contracts/MultiSigWallet.sol\":6925:6978  Deposit(msg.sender, msg.value, address(this).balance) */\n      0x90890809c654f11d6e72a28fa60149770a0d11ec6c92319d6ceb2bb0a4ea1a15\n      swap2\n        /* \"#utility.yul\":161:179   */\n      add\n        /* \"contracts/AUG-8/Contracts-AUG-8-2024/contracts/MultiSigWallet.sol\":6925:6978  Deposit(msg.sender, msg.value, address(this).balance) */\n      mload(0x40)\n      dup1\n      swap2\n      sub\n      swap1\n      log2\n        /* \"contracts/AUG-8/Contracts-AUG-8-2024/contracts/MultiSigWallet.sol\":355:9151  contract MultiSigWallet is IMultiSigWallet{... */\n      stop\n    tag_2:\n      0x00\n      dup1\n      revert\n        /* \"contracts/AUG-8/Contracts-AUG-8-2024/contracts/MultiSigWallet.sol\":6101:6249  function totalTransactionValidations(uint256 trxNo) public view returns(uint256){... */\n    tag_3:\n      callvalue\n      dup1\n      iszero\n      tag_27\n      jumpi\n      0x00\n      dup1\n      revert\n    tag_27:\n      pop\n      tag_28\n      tag_29\n      calldatasize\n      0x04\n      tag_30\n      jump\t// in\n    tag_29:\n      tag_31\n      jump\t// in\n    tag_28:\n      mload(0x40)\n        /* \"#utility.yul\":644:669   */\n      swap1\n      dup2\n      mstore\n        /* \"#utility.yul\":632:634   */\n      0x20\n        /* \"#utility.yul\":617:635   */\n      add\n        /* \"contracts/AUG-8/Contracts-AUG-8-2024/contracts/MultiSigWallet.sol\":6101:6249  function totalTransactionValidations(uint256 trxNo) public view returns(uint256){... */\n    tag_32:\n      mload(0x40)\n      dup1\n      swap2\n      sub\n      swap1\n      return\n        /* \"contracts/AUG-8/Contracts-AUG-8-2024/contracts/MultiSigWallet.sol\":1030:1053  address[] public owners */\n    tag_4:\n      callvalue\n      dup1\n      iszero\n      tag_34\n      jumpi\n      0x00\n      dup1\n      revert\n    tag_34:\n      pop\n      tag_35\n      tag_36\n      calldatasize\n      0x04\n      tag_30\n      jump\t// in\n    tag_36:\n      tag_37\n      jump\t// in\n    tag_35:\n      mload(0x40)\n      sub(shl(0xa0, 0x01), 0x01)\n        /* \"#utility.yul\":844:876   */\n      swap1\n      swap2\n      and\n        /* \"#utility.yul\":826:877   */\n      dup2\n      mstore\n        /* \"#utility.yul\":814:816   */\n      0x20\n        /* \"#utility.yul\":799:817   */\n      add\n        /* \"contracts/AUG-8/Contracts-AUG-8-2024/contracts/MultiSigWallet.sol\":1030:1053  address[] public owners */\n      tag_32\n        /* \"#utility.yul\":680:883   */\n      jump\n        /* \"contracts/AUG-8/Contracts-AUG-8-2024/contracts/MultiSigWallet.sol\":975:1024  mapping(string => uint256) public validSignatures */\n    tag_5:\n      callvalue\n      dup1\n      iszero\n      tag_40\n      jumpi\n      0x00\n      dup1\n      revert\n    tag_40:\n      pop\n      tag_28\n      tag_42\n      calldatasize\n      0x04\n      tag_43\n      jump\t// in\n    tag_42:\n      dup1\n      mload\n      0x20\n      dup2\n      dup4\n      add\n      dup2\n      add\n      dup1\n      mload\n      0x04\n      dup3\n      mstore\n      swap3\n      dup3\n      add\n      swap2\n      swap1\n      swap4\n      add\n      keccak256\n      swap2\n      mstore\n      sload\n      dup2\n      jump\n        /* \"contracts/AUG-8/Contracts-AUG-8-2024/contracts/MultiSigWallet.sol\":6713:6877  function recover(bytes32 _hash, bytes memory _signature)... */\n    tag_6:\n      callvalue\n      dup1\n      iszero\n      tag_46\n      jumpi\n      0x00\n      dup1\n      revert\n    tag_46:\n      pop\n      tag_35\n      tag_48\n      calldatasize\n      0x04\n      tag_49\n      jump\t// in\n    tag_48:\n      tag_50\n      jump\t// in\n        /* \"contracts/AUG-8/Contracts-AUG-8-2024/contracts/MultiSigWallet.sol\":2965:3552  function removeSigner(... */\n    tag_7:\n      callvalue\n      dup1\n      iszero\n      tag_52\n      jumpi\n      0x00\n      dup1\n      revert\n    tag_52:\n      pop\n      tag_53\n      tag_54\n      calldatasize\n      0x04\n      tag_55\n      jump\t// in\n    tag_54:\n      tag_56\n      jump\t// in\n    tag_53:\n      stop\n        /* \"contracts/AUG-8/Contracts-AUG-8-2024/contracts/MultiSigWallet.sol\":815:854  mapping(address => bool) public isOwner */\n    tag_8:\n      callvalue\n      dup1\n      iszero\n      tag_57\n      jumpi\n      0x00\n      dup1\n      revert\n    tag_57:\n      pop\n      tag_58\n      tag_59\n      calldatasize\n      0x04\n      tag_60\n      jump\t// in\n    tag_59:\n      mstore(0x20, 0x01)\n      0x00\n      swap1\n      dup2\n      mstore\n      0x40\n      swap1\n      keccak256\n      sload\n      0xff\n      and\n      dup2\n      jump\n    tag_58:\n      mload(0x40)\n        /* \"#utility.yul\":3701:3715   */\n      swap1\n      iszero\n        /* \"#utility.yul\":3694:3716   */\n      iszero\n        /* \"#utility.yul\":3676:3717   */\n      dup2\n      mstore\n        /* \"#utility.yul\":3664:3666   */\n      0x20\n        /* \"#utility.yul\":3649:3667   */\n      add\n        /* \"contracts/AUG-8/Contracts-AUG-8-2024/contracts/MultiSigWallet.sol\":815:854  mapping(address => bool) public isOwner */\n      tag_32\n        /* \"#utility.yul\":3536:3723   */\n      jump\n        /* \"contracts/AUG-8/Contracts-AUG-8-2024/contracts/MultiSigWallet.sol\":6360:6677  function getTransactionHash(... */\n    tag_9:\n      callvalue\n      dup1\n      iszero\n      tag_64\n      jumpi\n      0x00\n      dup1\n      revert\n    tag_64:\n      pop\n      tag_28\n      tag_66\n      calldatasize\n      0x04\n      tag_67\n      jump\t// in\n    tag_66:\n        /* \"contracts/AUG-8/Contracts-AUG-8-2024/contracts/MultiSigWallet.sol\":6629:6636  chainId */\n      sload(0x08)\n        /* \"contracts/AUG-8/Contracts-AUG-8-2024/contracts/MultiSigWallet.sol\":6597:6656  abi.encodePacked(address(this), chainId, _nonce, to, value) */\n      mload(0x40)\n      not(0xffffffffffffffffffffffff)\n        /* \"contracts/AUG-8/Contracts-AUG-8-2024/contracts/MultiSigWallet.sol\":6622:6626  this */\n      address\n        /* \"#utility.yul\":11009:11011   */\n      0x60\n        /* \"#utility.yul\":11005:11020   */\n      swap1\n      dup2\n      shl\n        /* \"#utility.yul\":11001:11054   */\n      dup3\n      and\n        /* \"contracts/AUG-8/Contracts-AUG-8-2024/contracts/MultiSigWallet.sol\":6597:6656  abi.encodePacked(address(this), chainId, _nonce, to, value) */\n      0x20\n      dup5\n      add\n        /* \"#utility.yul\":10989:11055   */\n      mstore\n        /* \"#utility.yul\":11071:11083   */\n      0x34\n      dup4\n      add\n        /* \"#utility.yul\":11064:11092   */\n      swap4\n      swap1\n      swap4\n      mstore\n        /* \"#utility.yul\":11108:11120   */\n      0x54\n      dup3\n      add\n        /* \"#utility.yul\":11101:11129   */\n      dup7\n      swap1\n      mstore\n        /* \"#utility.yul\":11163:11178   */\n      swap2\n      dup5\n      swap1\n      shl\n        /* \"#utility.yul\":11159:11212   */\n      swap1\n      swap2\n      and\n        /* \"#utility.yul\":11145:11157   */\n      0x74\n      dup3\n      add\n        /* \"#utility.yul\":11138:11213   */\n      mstore\n        /* \"#utility.yul\":11229:11242   */\n      0x88\n      dup2\n      add\n        /* \"#utility.yul\":11222:11251   */\n      dup3\n      swap1\n      mstore\n        /* \"contracts/AUG-8/Contracts-AUG-8-2024/contracts/MultiSigWallet.sol\":6519:6526  bytes32 */\n      0x00\n      swap1\n        /* \"#utility.yul\":11267:11280   */\n      0xa8\n      add\n        /* \"contracts/AUG-8/Contracts-AUG-8-2024/contracts/MultiSigWallet.sol\":6597:6656  abi.encodePacked(address(this), chainId, _nonce, to, value) */\n      mload(0x40)\n      0x20\n      dup2\n      dup4\n      sub\n      sub\n      dup2\n      mstore\n      swap1\n      0x40\n      mstore\n        /* \"contracts/AUG-8/Contracts-AUG-8-2024/contracts/MultiSigWallet.sol\":6570:6670  keccak256(... */\n      dup1\n      mload\n      swap1\n      0x20\n      add\n      keccak256\n        /* \"contracts/AUG-8/Contracts-AUG-8-2024/contracts/MultiSigWallet.sol\":6551:6670  return... */\n      swap1\n      pop\n        /* \"contracts/AUG-8/Contracts-AUG-8-2024/contracts/MultiSigWallet.sol\":6360:6677  function getTransactionHash(... */\n      swap4\n      swap3\n      pop\n      pop\n      pop\n      jump\n        /* \"contracts/AUG-8/Contracts-AUG-8-2024/contracts/MultiSigWallet.sol\":6259:6354  function incrementNonce() public returns(uint256){... */\n    tag_10:\n      callvalue\n      dup1\n      iszero\n      tag_71\n      jumpi\n      0x00\n      dup1\n      revert\n    tag_71:\n      pop\n      tag_28\n      tag_73\n      jump\t// in\n        /* \"contracts/AUG-8/Contracts-AUG-8-2024/contracts/MultiSigWallet.sol\":922:969  mapping(uint256 => string) public transactionNo */\n    tag_11:\n      callvalue\n      dup1\n      iszero\n      tag_75\n      jumpi\n      0x00\n      dup1\n      revert\n    tag_75:\n      pop\n      tag_76\n      tag_77\n      calldatasize\n      0x04\n      tag_30\n      jump\t// in\n    tag_77:\n      tag_78\n      jump\t// in\n    tag_76:\n      mload(0x40)\n      tag_32\n      swap2\n      swap1\n      tag_80\n      jump\t// in\n        /* \"contracts/AUG-8/Contracts-AUG-8-2024/contracts/MultiSigWallet.sol\":860:916  mapping(string => uint256) public transactionValidations */\n    tag_12:\n      callvalue\n      dup1\n      iszero\n      tag_81\n      jumpi\n      0x00\n      dup1\n      revert\n    tag_81:\n      pop\n      tag_28\n      tag_83\n      calldatasize\n      0x04\n      tag_43\n      jump\t// in\n    tag_83:\n      dup1\n      mload\n      0x20\n      dup2\n      dup4\n      add\n      dup2\n      add\n      dup1\n      mload\n      0x02\n      dup3\n      mstore\n      swap3\n      dup3\n      add\n      swap2\n      swap1\n      swap4\n      add\n      keccak256\n      swap2\n      mstore\n      sload\n      dup2\n      jump\n        /* \"contracts/AUG-8/Contracts-AUG-8-2024/contracts/MultiSigWallet.sol\":2220:2959  function addSigner(... */\n    tag_13:\n      callvalue\n      dup1\n      iszero\n      tag_86\n      jumpi\n      0x00\n      dup1\n      revert\n    tag_86:\n      pop\n      tag_53\n      tag_88\n      calldatasize\n      0x04\n      tag_55\n      jump\t// in\n    tag_88:\n      tag_89\n      jump\t// in\n        /* \"contracts/AUG-8/Contracts-AUG-8-2024/contracts/MultiSigWallet.sol\":1124:1146  uint256 public chainId */\n    tag_14:\n      callvalue\n      dup1\n      iszero\n      tag_90\n      jumpi\n      0x00\n      dup1\n      revert\n    tag_90:\n      pop\n      tag_28\n      sload(0x08)\n      dup2\n      jump\n        /* \"contracts/AUG-8/Contracts-AUG-8-2024/contracts/MultiSigWallet.sol\":4422:4815  function getFunctionData(... */\n    tag_15:\n      callvalue\n      dup1\n      iszero\n      tag_94\n      jumpi\n      0x00\n      dup1\n      revert\n    tag_94:\n      pop\n      tag_76\n      tag_96\n      calldatasize\n      0x04\n      tag_97\n      jump\t// in\n    tag_96:\n      tag_98\n      jump\t// in\n        /* \"contracts/AUG-8/Contracts-AUG-8-2024/contracts/MultiSigWallet.sol\":1098:1118  uint256 public nonce */\n    tag_16:\n      callvalue\n      dup1\n      iszero\n      tag_101\n      jumpi\n      0x00\n      dup1\n      revert\n    tag_101:\n      pop\n      tag_28\n      sload(0x07)\n      dup2\n      jump\n        /* \"contracts/AUG-8/Contracts-AUG-8-2024/contracts/MultiSigWallet.sol\":1059:1092  uint256 public signaturesRequired */\n    tag_17:\n      callvalue\n      dup1\n      iszero\n      tag_105\n      jumpi\n      0x00\n      dup1\n      revert\n    tag_105:\n      pop\n      tag_28\n      sload(0x06)\n      dup2\n      jump\n        /* \"contracts/AUG-8/Contracts-AUG-8-2024/contracts/MultiSigWallet.sol\":4821:6095  function executeApproval(... */\n    tag_18:\n      callvalue\n      dup1\n      iszero\n      tag_109\n      jumpi\n      0x00\n      dup1\n      revert\n    tag_109:\n      pop\n      tag_58\n      tag_111\n      calldatasize\n      0x04\n      tag_112\n      jump\t// in\n    tag_111:\n      tag_113\n      jump\t// in\n        /* \"contracts/AUG-8/Contracts-AUG-8-2024/contracts/MultiSigWallet.sol\":7652:8005  function verifyUserSign(string memory _passkey, bytes memory signature)... */\n    tag_19:\n      callvalue\n      dup1\n      iszero\n      tag_115\n      jumpi\n      0x00\n      dup1\n      revert\n    tag_115:\n      pop\n      tag_35\n      tag_117\n      calldatasize\n      0x04\n      tag_118\n      jump\t// in\n    tag_117:\n      tag_119\n      jump\t// in\n        /* \"contracts/AUG-8/Contracts-AUG-8-2024/contracts/MultiSigWallet.sol\":6101:6249  function totalTransactionValidations(uint256 trxNo) public view returns(uint256){... */\n    tag_31:\n        /* \"contracts/AUG-8/Contracts-AUG-8-2024/contracts/MultiSigWallet.sol\":6235:6240  nonce */\n      sload(0x07)\n        /* \"contracts/AUG-8/Contracts-AUG-8-2024/contracts/MultiSigWallet.sol\":6173:6180  uint256 */\n      0x00\n        /* \"contracts/AUG-8/Contracts-AUG-8-2024/contracts/MultiSigWallet.sol\":6221:6241  transactionNo[nonce] */\n      swap1\n      dup2\n      mstore\n        /* \"contracts/AUG-8/Contracts-AUG-8-2024/contracts/MultiSigWallet.sol\":6221:6234  transactionNo */\n      0x03\n        /* \"contracts/AUG-8/Contracts-AUG-8-2024/contracts/MultiSigWallet.sol\":6221:6241  transactionNo[nonce] */\n      0x20\n      mstore\n      0x40\n      dup1\n      dup3\n      keccak256\n        /* \"contracts/AUG-8/Contracts-AUG-8-2024/contracts/MultiSigWallet.sol\":6198:6242  transactionValidations[transactionNo[nonce]] */\n      swap1\n      mload\n        /* \"contracts/AUG-8/Contracts-AUG-8-2024/contracts/MultiSigWallet.sol\":6198:6220  transactionValidations */\n      0x02\n      swap2\n        /* \"contracts/AUG-8/Contracts-AUG-8-2024/contracts/MultiSigWallet.sol\":6198:6242  transactionValidations[transactionNo[nonce]] */\n      tag_122\n      swap2\n      tag_123\n      jump\t// in\n    tag_122:\n      swap1\n      dup2\n      mstore\n      0x20\n      add\n      mload(0x40)\n      dup1\n      swap2\n      sub\n      swap1\n      keccak256\n      sload\n        /* \"contracts/AUG-8/Contracts-AUG-8-2024/contracts/MultiSigWallet.sol\":6191:6242  return transactionValidations[transactionNo[nonce]] */\n      swap1\n      pop\n        /* \"contracts/AUG-8/Contracts-AUG-8-2024/contracts/MultiSigWallet.sol\":6101:6249  function totalTransactionValidations(uint256 trxNo) public view returns(uint256){... */\n      swap2\n      swap1\n      pop\n      jump\t// out\n        /* \"contracts/AUG-8/Contracts-AUG-8-2024/contracts/MultiSigWallet.sol\":1030:1053  address[] public owners */\n    tag_37:\n      0x05\n      dup2\n      dup2\n      sload\n      dup2\n      lt\n      tag_124\n      jumpi\n      0x00\n      dup1\n      revert\n    tag_124:\n      0x00\n      swap2\n      dup3\n      mstore\n      0x20\n      swap1\n      swap2\n      keccak256\n      add\n      sload\n      sub(shl(0xa0, 0x01), 0x01)\n      and\n      swap1\n      pop\n      dup2\n      jump\t// out\n        /* \"contracts/AUG-8/Contracts-AUG-8-2024/contracts/MultiSigWallet.sol\":6713:6877  function recover(bytes32 _hash, bytes memory _signature)... */\n    tag_50:\n        /* \"contracts/AUG-8/Contracts-AUG-8-2024/contracts/MultiSigWallet.sol\":6815:6822  address */\n      0x00\n        /* \"contracts/AUG-8/Contracts-AUG-8-2024/contracts/MultiSigWallet.sol\":6845:6870  _hash.recover(_signature) */\n      tag_127\n        /* \"contracts/AUG-8/Contracts-AUG-8-2024/contracts/MultiSigWallet.sol\":6845:6850  _hash */\n      dup4\n        /* \"contracts/AUG-8/Contracts-AUG-8-2024/contracts/MultiSigWallet.sol\":6859:6869  _signature */\n      dup4\n        /* \"contracts/AUG-8/Contracts-AUG-8-2024/contracts/MultiSigWallet.sol\":6845:6858  _hash.recover */\n      tag_128\n        /* \"contracts/AUG-8/Contracts-AUG-8-2024/contracts/MultiSigWallet.sol\":6845:6870  _hash.recover(_signature) */\n      jump\t// in\n    tag_127:\n        /* \"contracts/AUG-8/Contracts-AUG-8-2024/contracts/MultiSigWallet.sol\":6838:6870  return _hash.recover(_signature) */\n      swap1\n      pop\n        /* \"contracts/AUG-8/Contracts-AUG-8-2024/contracts/MultiSigWallet.sol\":6713:6877  function recover(bytes32 _hash, bytes memory _signature)... */\n    tag_126:\n      swap3\n      swap2\n      pop\n      pop\n      jump\t// out\n        /* \"contracts/AUG-8/Contracts-AUG-8-2024/contracts/MultiSigWallet.sol\":2965:3552  function removeSigner(... */\n    tag_56:\n        /* \"contracts/AUG-8/Contracts-AUG-8-2024/contracts/MultiSigWallet.sol\":3098:3103  owner */\n      dup3\n        /* \"contracts/AUG-8/Contracts-AUG-8-2024/contracts/MultiSigWallet.sol\":1300:1310  msg.sender */\n      caller\n      sub(shl(0xa0, 0x01), 0x01)\n        /* \"contracts/AUG-8/Contracts-AUG-8-2024/contracts/MultiSigWallet.sol\":1300:1319  msg.sender == owner */\n      dup3\n      and\n      eq\n        /* \"contracts/AUG-8/Contracts-AUG-8-2024/contracts/MultiSigWallet.sol\":1292:1332  require(msg.sender == owner, \"Not Self\") */\n      tag_130\n      jumpi\n      mload(0x40)\n      shl(0xe5, 0x461bcd)\n      dup2\n      mstore\n      0x04\n      add\n      tag_131\n      swap1\n      tag_132\n      jump\t// in\n    tag_131:\n      mload(0x40)\n      dup1\n      swap2\n      sub\n      swap1\n      revert\n    tag_130:\n        /* \"contracts/AUG-8/Contracts-AUG-8-2024/contracts/MultiSigWallet.sol\":3130:3151  newSignaturesRequired */\n      dup2\n        /* \"contracts/AUG-8/Contracts-AUG-8-2024/contracts/MultiSigWallet.sol\":1459:1460  0 */\n      0x00\n        /* \"contracts/AUG-8/Contracts-AUG-8-2024/contracts/MultiSigWallet.sol\":1437:1456  _signaturesRequired */\n      dup2\n        /* \"contracts/AUG-8/Contracts-AUG-8-2024/contracts/MultiSigWallet.sol\":1437:1460  _signaturesRequired > 0 */\n      gt\n        /* \"contracts/AUG-8/Contracts-AUG-8-2024/contracts/MultiSigWallet.sol\":1429:1495  require(_signaturesRequired > 0, \"Must be non-zero sigs required\") */\n      tag_134\n      jumpi\n      mload(0x40)\n      shl(0xe5, 0x461bcd)\n      dup2\n      mstore\n      0x04\n      add\n      tag_131\n      swap1\n      tag_136\n      jump\t// in\n    tag_134:\n      sub(shl(0xa0, 0x01), 0x01)\n        /* \"contracts/AUG-8/Contracts-AUG-8-2024/contracts/MultiSigWallet.sol\":3171:3189  isOwner[oldSigner] */\n      dup5\n      and\n      0x00\n      swap1\n      dup2\n      mstore\n        /* \"contracts/AUG-8/Contracts-AUG-8-2024/contracts/MultiSigWallet.sol\":3171:3178  isOwner */\n      0x01\n        /* \"contracts/AUG-8/Contracts-AUG-8-2024/contracts/MultiSigWallet.sol\":3171:3189  isOwner[oldSigner] */\n      0x20\n      mstore\n      0x40\n      swap1\n      keccak256\n      sload\n      0xff\n      and\n        /* \"contracts/AUG-8/Contracts-AUG-8-2024/contracts/MultiSigWallet.sol\":3163:3217  require(isOwner[oldSigner], \"removeSigner: not owner\") */\n      tag_138\n      jumpi\n      mload(0x40)\n      shl(0xe5, 0x461bcd)\n      dup2\n      mstore\n        /* \"#utility.yul\":9764:9766   */\n      0x20\n        /* \"contracts/AUG-8/Contracts-AUG-8-2024/contracts/MultiSigWallet.sol\":3163:3217  require(isOwner[oldSigner], \"removeSigner: not owner\") */\n      0x04\n      dup3\n      add\n        /* \"#utility.yul\":9746:9767   */\n      mstore\n        /* \"#utility.yul\":9803:9805   */\n      0x17\n        /* \"#utility.yul\":9783:9801   */\n      0x24\n      dup3\n      add\n        /* \"#utility.yul\":9776:9806   */\n      mstore\n        /* \"#utility.yul\":9842:9867   */\n      0x72656d6f76655369676e65723a206e6f74206f776e6572000000000000000000\n        /* \"#utility.yul\":9822:9840   */\n      0x44\n      dup3\n      add\n        /* \"#utility.yul\":9815:9868   */\n      mstore\n        /* \"#utility.yul\":9885:9903   */\n      0x64\n      add\n        /* \"contracts/AUG-8/Contracts-AUG-8-2024/contracts/MultiSigWallet.sol\":3163:3217  require(isOwner[oldSigner], \"removeSigner: not owner\") */\n      tag_131\n        /* \"#utility.yul\":9562:9909   */\n      jump\n        /* \"contracts/AUG-8/Contracts-AUG-8-2024/contracts/MultiSigWallet.sol\":3163:3217  require(isOwner[oldSigner], \"removeSigner: not owner\") */\n    tag_138:\n        /* \"contracts/AUG-8/Contracts-AUG-8-2024/contracts/MultiSigWallet.sol\":3227:3250  _removeOwner(oldSigner) */\n      tag_141\n        /* \"contracts/AUG-8/Contracts-AUG-8-2024/contracts/MultiSigWallet.sol\":3240:3249  oldSigner */\n      dup5\n        /* \"contracts/AUG-8/Contracts-AUG-8-2024/contracts/MultiSigWallet.sol\":3227:3239  _removeOwner */\n      tag_142\n        /* \"contracts/AUG-8/Contracts-AUG-8-2024/contracts/MultiSigWallet.sol\":3227:3250  _removeOwner(oldSigner) */\n      jump\t// in\n    tag_141:\n        /* \"contracts/AUG-8/Contracts-AUG-8-2024/contracts/MultiSigWallet.sol\":3260:3278  signaturesRequired */\n      0x06\n        /* \"contracts/AUG-8/Contracts-AUG-8-2024/contracts/MultiSigWallet.sol\":3260:3302  signaturesRequired = newSignaturesRequired */\n      dup4\n      swap1\n      sstore\n        /* \"contracts/AUG-8/Contracts-AUG-8-2024/contracts/MultiSigWallet.sol\":3312:3366  updateSignaturesRequired(owner, newSignaturesRequired) */\n      tag_143\n        /* \"contracts/AUG-8/Contracts-AUG-8-2024/contracts/MultiSigWallet.sol\":3337:3342  owner */\n      dup6\n        /* \"contracts/AUG-8/Contracts-AUG-8-2024/contracts/MultiSigWallet.sol\":3281:3302  newSignaturesRequired */\n      dup5\n        /* \"contracts/AUG-8/Contracts-AUG-8-2024/contracts/MultiSigWallet.sol\":3312:3336  updateSignaturesRequired */\n      tag_144\n        /* \"contracts/AUG-8/Contracts-AUG-8-2024/contracts/MultiSigWallet.sol\":3312:3366  updateSignaturesRequired(owner, newSignaturesRequired) */\n      jump\t// in\n    tag_143:\n      sub(shl(0xa0, 0x01), 0x01)\n        /* \"contracts/AUG-8/Contracts-AUG-8-2024/contracts/MultiSigWallet.sol\":3381:3417  Owner(oldSigner, isOwner[oldSigner]) */\n      dup5\n      and\n        /* \"contracts/AUG-8/Contracts-AUG-8-2024/contracts/MultiSigWallet.sol\":3398:3416  isOwner[oldSigner] */\n      0x00\n      dup2\n      dup2\n      mstore\n        /* \"contracts/AUG-8/Contracts-AUG-8-2024/contracts/MultiSigWallet.sol\":3398:3405  isOwner */\n      0x01\n        /* \"contracts/AUG-8/Contracts-AUG-8-2024/contracts/MultiSigWallet.sol\":3398:3416  isOwner[oldSigner] */\n      0x20\n      swap1\n      dup2\n      mstore\n      0x40\n      swap2\n      dup3\n      swap1\n      keccak256\n      sload\n        /* \"contracts/AUG-8/Contracts-AUG-8-2024/contracts/MultiSigWallet.sol\":3381:3417  Owner(oldSigner, isOwner[oldSigner]) */\n      swap2\n      mload\n        /* \"contracts/AUG-8/Contracts-AUG-8-2024/contracts/MultiSigWallet.sol\":3398:3416  isOwner[oldSigner] */\n      0xff\n      swap1\n      swap3\n      and\n        /* \"#utility.yul\":3701:3715   */\n      iszero\n        /* \"#utility.yul\":3694:3716   */\n      iszero\n        /* \"#utility.yul\":3676:3717   */\n      dup3\n      mstore\n        /* \"contracts/AUG-8/Contracts-AUG-8-2024/contracts/MultiSigWallet.sol\":3381:3417  Owner(oldSigner, isOwner[oldSigner]) */\n      0xfe545f48304051c4029eb2da9927daa59da0414b4b084fdceaf2955b609b899e\n      swap2\n        /* \"#utility.yul\":3649:3667   */\n      add\n        /* \"contracts/AUG-8/Contracts-AUG-8-2024/contracts/MultiSigWallet.sol\":3381:3417  Owner(oldSigner, isOwner[oldSigner]) */\n      mload(0x40)\n      dup1\n      swap2\n      sub\n      swap1\n      log2\n        /* \"contracts/AUG-8/Contracts-AUG-8-2024/contracts/MultiSigWallet.sol\":3427:3442  multiSigFactory */\n      sload(0x00)\n        /* \"contracts/AUG-8/Contracts-AUG-8-2024/contracts/MultiSigWallet.sol\":3427:3545  multiSigFactory.emitOwners(... */\n      mload(0x40)\n      shl(0xe2, 0x2fb7d0a5)\n      dup2\n      mstore\n      sub(shl(0xa0, 0x01), 0x01)\n        /* \"contracts/AUG-8/Contracts-AUG-8-2024/contracts/MultiSigWallet.sol\":3427:3442  multiSigFactory */\n      swap1\n      swap2\n      and\n      swap1\n        /* \"contracts/AUG-8/Contracts-AUG-8-2024/contracts/MultiSigWallet.sol\":3427:3453  multiSigFactory.emitOwners */\n      0xbedf4294\n      swap1\n        /* \"contracts/AUG-8/Contracts-AUG-8-2024/contracts/MultiSigWallet.sol\":3427:3545  multiSigFactory.emitOwners(... */\n      tag_146\n      swap1\n        /* \"contracts/AUG-8/Contracts-AUG-8-2024/contracts/MultiSigWallet.sol\":3475:3479  this */\n      address\n      swap1\n        /* \"contracts/AUG-8/Contracts-AUG-8-2024/contracts/MultiSigWallet.sol\":3494:3500  owners */\n      0x05\n      swap1\n        /* \"contracts/AUG-8/Contracts-AUG-8-2024/contracts/MultiSigWallet.sol\":3514:3535  newSignaturesRequired */\n      dup9\n      swap1\n        /* \"contracts/AUG-8/Contracts-AUG-8-2024/contracts/MultiSigWallet.sol\":3427:3545  multiSigFactory.emitOwners(... */\n      0x04\n      add\n      tag_147\n      jump\t// in\n    tag_146:\n      0x00\n      mload(0x40)\n      dup1\n      dup4\n      sub\n      dup2\n      0x00\n      dup8\n      dup1\n      extcodesize\n      iszero\n      dup1\n      iszero\n      tag_148\n      jumpi\n      0x00\n      dup1\n      revert\n    tag_148:\n      pop\n      gas\n      call\n      iszero\n      dup1\n      iszero\n      tag_150\n      jumpi\n      returndatasize\n      0x00\n      dup1\n      returndatacopy\n      revert(0x00, returndatasize)\n    tag_150:\n      pop\n      pop\n      pop\n      pop\n        /* \"contracts/AUG-8/Contracts-AUG-8-2024/contracts/MultiSigWallet.sol\":1342:1343  _ */\n      pop\n        /* \"contracts/AUG-8/Contracts-AUG-8-2024/contracts/MultiSigWallet.sol\":2965:3552  function removeSigner(... */\n      pop\n      pop\n      pop\n      pop\n      jump\t// out\n        /* \"contracts/AUG-8/Contracts-AUG-8-2024/contracts/MultiSigWallet.sol\":6259:6354  function incrementNonce() public returns(uint256){... */\n    tag_73:\n        /* \"contracts/AUG-8/Contracts-AUG-8-2024/contracts/MultiSigWallet.sol\":6318:6323  nonce */\n      0x07\n        /* \"contracts/AUG-8/Contracts-AUG-8-2024/contracts/MultiSigWallet.sol\":6318:6325  nonce++ */\n      dup1\n      sload\n        /* \"contracts/AUG-8/Contracts-AUG-8-2024/contracts/MultiSigWallet.sol\":6300:6307  uint256 */\n      0x00\n      swap2\n      dup3\n        /* \"contracts/AUG-8/Contracts-AUG-8-2024/contracts/MultiSigWallet.sol\":6318:6325  nonce++ */\n      tag_155\n      dup4\n      tag_156\n      jump\t// in\n    tag_155:\n      swap2\n      swap1\n      pop\n      sstore\n      pop\n        /* \"contracts/AUG-8/Contracts-AUG-8-2024/contracts/MultiSigWallet.sol\":6342:6347  nonce */\n      sload(0x07)\n        /* \"contracts/AUG-8/Contracts-AUG-8-2024/contracts/MultiSigWallet.sol\":6335:6347  return nonce */\n      swap1\n      pop\n        /* \"contracts/AUG-8/Contracts-AUG-8-2024/contracts/MultiSigWallet.sol\":6259:6354  function incrementNonce() public returns(uint256){... */\n      swap1\n      jump\t// out\n        /* \"contracts/AUG-8/Contracts-AUG-8-2024/contracts/MultiSigWallet.sol\":922:969  mapping(uint256 => string) public transactionNo */\n    tag_78:\n      mstore(0x20, 0x03)\n      0x00\n      swap1\n      dup2\n      mstore\n      0x40\n      swap1\n      keccak256\n      dup1\n      sload\n      tag_157\n      swap1\n      tag_158\n      jump\t// in\n    tag_157:\n      dup1\n      0x1f\n      add\n      0x20\n      dup1\n      swap2\n      div\n      mul\n      0x20\n      add\n      mload(0x40)\n      swap1\n      dup2\n      add\n      0x40\n      mstore\n      dup1\n      swap3\n      swap2\n      swap1\n      dup2\n      dup2\n      mstore\n      0x20\n      add\n      dup3\n      dup1\n      sload\n      tag_159\n      swap1\n      tag_158\n      jump\t// in\n    tag_159:\n      dup1\n      iszero\n      tag_160\n      jumpi\n      dup1\n      0x1f\n      lt\n      tag_161\n      jumpi\n      0x0100\n      dup1\n      dup4\n      sload\n      div\n      mul\n      dup4\n      mstore\n      swap2\n      0x20\n      add\n      swap2\n      jump(tag_160)\n    tag_161:\n      dup3\n      add\n      swap2\n      swap1\n      0x00\n      mstore\n      keccak256(0x00, 0x20)\n      swap1\n    tag_162:\n      dup2\n      sload\n      dup2\n      mstore\n      swap1\n      0x01\n      add\n      swap1\n      0x20\n      add\n      dup1\n      dup4\n      gt\n      tag_162\n      jumpi\n      dup3\n      swap1\n      sub\n      0x1f\n      and\n      dup3\n      add\n      swap2\n    tag_160:\n      pop\n      pop\n      pop\n      pop\n      pop\n      dup2\n      jump\t// out\n        /* \"contracts/AUG-8/Contracts-AUG-8-2024/contracts/MultiSigWallet.sol\":2220:2959  function addSigner(... */\n    tag_89:\n        /* \"contracts/AUG-8/Contracts-AUG-8-2024/contracts/MultiSigWallet.sol\":2366:2371  owner */\n      dup3\n        /* \"contracts/AUG-8/Contracts-AUG-8-2024/contracts/MultiSigWallet.sol\":1300:1310  msg.sender */\n      caller\n      sub(shl(0xa0, 0x01), 0x01)\n        /* \"contracts/AUG-8/Contracts-AUG-8-2024/contracts/MultiSigWallet.sol\":1300:1319  msg.sender == owner */\n      dup3\n      and\n      eq\n        /* \"contracts/AUG-8/Contracts-AUG-8-2024/contracts/MultiSigWallet.sol\":1292:1332  require(msg.sender == owner, \"Not Self\") */\n      tag_164\n      jumpi\n      mload(0x40)\n      shl(0xe5, 0x461bcd)\n      dup2\n      mstore\n      0x04\n      add\n      tag_131\n      swap1\n      tag_132\n      jump\t// in\n    tag_164:\n        /* \"contracts/AUG-8/Contracts-AUG-8-2024/contracts/MultiSigWallet.sol\":1200:1210  msg.sender */\n      caller\n        /* \"contracts/AUG-8/Contracts-AUG-8-2024/contracts/MultiSigWallet.sol\":1192:1211  isOwner[msg.sender] */\n      0x00\n      swap1\n      dup2\n      mstore\n        /* \"contracts/AUG-8/Contracts-AUG-8-2024/contracts/MultiSigWallet.sol\":1192:1199  isOwner */\n      0x01\n        /* \"contracts/AUG-8/Contracts-AUG-8-2024/contracts/MultiSigWallet.sol\":1192:1211  isOwner[msg.sender] */\n      0x20\n      mstore\n      0x40\n      swap1\n      keccak256\n      sload\n      0xff\n      and\n        /* \"contracts/AUG-8/Contracts-AUG-8-2024/contracts/MultiSigWallet.sol\":1184:1225  require(isOwner[msg.sender], \"Not owner\") */\n      tag_167\n      jumpi\n      mload(0x40)\n      shl(0xe5, 0x461bcd)\n      dup2\n      mstore\n        /* \"#utility.yul\":11765:11767   */\n      0x20\n        /* \"contracts/AUG-8/Contracts-AUG-8-2024/contracts/MultiSigWallet.sol\":1184:1225  require(isOwner[msg.sender], \"Not owner\") */\n      0x04\n      dup3\n      add\n        /* \"#utility.yul\":11747:11768   */\n      mstore\n        /* \"#utility.yul\":11804:11805   */\n      0x09\n        /* \"#utility.yul\":11784:11802   */\n      0x24\n      dup3\n      add\n        /* \"#utility.yul\":11777:11806   */\n      mstore\n      shl(0xb9, 0x2737ba1037bbb732b9)\n        /* \"#utility.yul\":11822:11840   */\n      0x44\n      dup3\n      add\n        /* \"#utility.yul\":11815:11854   */\n      mstore\n        /* \"#utility.yul\":11871:11889   */\n      0x64\n      add\n        /* \"contracts/AUG-8/Contracts-AUG-8-2024/contracts/MultiSigWallet.sol\":1184:1225  require(isOwner[msg.sender], \"Not owner\") */\n      tag_131\n        /* \"#utility.yul\":11563:11895   */\n      jump\n        /* \"contracts/AUG-8/Contracts-AUG-8-2024/contracts/MultiSigWallet.sol\":1184:1225  require(isOwner[msg.sender], \"Not owner\") */\n    tag_167:\n        /* \"contracts/AUG-8/Contracts-AUG-8-2024/contracts/MultiSigWallet.sol\":2424:2445  newSignaturesRequired */\n      dup2\n        /* \"contracts/AUG-8/Contracts-AUG-8-2024/contracts/MultiSigWallet.sol\":1459:1460  0 */\n      0x00\n        /* \"contracts/AUG-8/Contracts-AUG-8-2024/contracts/MultiSigWallet.sol\":1437:1456  _signaturesRequired */\n      dup2\n        /* \"contracts/AUG-8/Contracts-AUG-8-2024/contracts/MultiSigWallet.sol\":1437:1460  _signaturesRequired > 0 */\n      gt\n        /* \"contracts/AUG-8/Contracts-AUG-8-2024/contracts/MultiSigWallet.sol\":1429:1495  require(_signaturesRequired > 0, \"Must be non-zero sigs required\") */\n      tag_171\n      jumpi\n      mload(0x40)\n      shl(0xe5, 0x461bcd)\n      dup2\n      mstore\n      0x04\n      add\n      tag_131\n      swap1\n      tag_136\n      jump\t// in\n    tag_171:\n      sub(shl(0xa0, 0x01), 0x01)\n        /* \"contracts/AUG-8/Contracts-AUG-8-2024/contracts/MultiSigWallet.sol\":2469:2492  newSigner != address(0) */\n      dup5\n      and\n        /* \"contracts/AUG-8/Contracts-AUG-8-2024/contracts/MultiSigWallet.sol\":2461:2520  require(newSigner != address(0), \"addSigner: zero address\") */\n      tag_174\n      jumpi\n      mload(0x40)\n      shl(0xe5, 0x461bcd)\n      dup2\n      mstore\n        /* \"#utility.yul\":12102:12104   */\n      0x20\n        /* \"contracts/AUG-8/Contracts-AUG-8-2024/contracts/MultiSigWallet.sol\":2461:2520  require(newSigner != address(0), \"addSigner: zero address\") */\n      0x04\n      dup3\n      add\n        /* \"#utility.yul\":12084:12105   */\n      mstore\n        /* \"#utility.yul\":12141:12143   */\n      0x17\n        /* \"#utility.yul\":12121:12139   */\n      0x24\n      dup3\n      add\n        /* \"#utility.yul\":12114:12144   */\n      mstore\n        /* \"#utility.yul\":12180:12205   */\n      0x6164645369676e65723a207a65726f2061646472657373000000000000000000\n        /* \"#utility.yul\":12160:12178   */\n      0x44\n      dup3\n      add\n        /* \"#utility.yul\":12153:12206   */\n      mstore\n        /* \"#utility.yul\":12223:12241   */\n      0x64\n      add\n        /* \"contracts/AUG-8/Contracts-AUG-8-2024/contracts/MultiSigWallet.sol\":2461:2520  require(newSigner != address(0), \"addSigner: zero address\") */\n      tag_131\n        /* \"#utility.yul\":11900:12247   */\n      jump\n        /* \"contracts/AUG-8/Contracts-AUG-8-2024/contracts/MultiSigWallet.sol\":2461:2520  require(newSigner != address(0), \"addSigner: zero address\") */\n    tag_174:\n      sub(shl(0xa0, 0x01), 0x01)\n        /* \"contracts/AUG-8/Contracts-AUG-8-2024/contracts/MultiSigWallet.sol\":2539:2557  isOwner[newSigner] */\n      dup5\n      and\n      0x00\n      swap1\n      dup2\n      mstore\n        /* \"contracts/AUG-8/Contracts-AUG-8-2024/contracts/MultiSigWallet.sol\":2539:2546  isOwner */\n      0x01\n        /* \"contracts/AUG-8/Contracts-AUG-8-2024/contracts/MultiSigWallet.sol\":2539:2557  isOwner[newSigner] */\n      0x20\n      mstore\n      0x40\n      swap1\n      keccak256\n      sload\n      0xff\n      and\n        /* \"contracts/AUG-8/Contracts-AUG-8-2024/contracts/MultiSigWallet.sol\":2538:2557  !isOwner[newSigner] */\n      iszero\n        /* \"contracts/AUG-8/Contracts-AUG-8-2024/contracts/MultiSigWallet.sol\":2530:2589  require(!isOwner[newSigner], \"addSigner: owner not unique\") */\n      tag_177\n      jumpi\n      mload(0x40)\n      shl(0xe5, 0x461bcd)\n      dup2\n      mstore\n        /* \"#utility.yul\":12454:12456   */\n      0x20\n        /* \"contracts/AUG-8/Contracts-AUG-8-2024/contracts/MultiSigWallet.sol\":2530:2589  require(!isOwner[newSigner], \"addSigner: owner not unique\") */\n      0x04\n      dup3\n      add\n        /* \"#utility.yul\":12436:12457   */\n      mstore\n        /* \"#utility.yul\":12493:12495   */\n      0x1b\n        /* \"#utility.yul\":12473:12491   */\n      0x24\n      dup3\n      add\n        /* \"#utility.yul\":12466:12496   */\n      mstore\n        /* \"#utility.yul\":12532:12561   */\n      0x6164645369676e65723a206f776e6572206e6f7420756e697175650000000000\n        /* \"#utility.yul\":12512:12530   */\n      0x44\n      dup3\n      add\n        /* \"#utility.yul\":12505:12562   */\n      mstore\n        /* \"#utility.yul\":12579:12597   */\n      0x64\n      add\n        /* \"contracts/AUG-8/Contracts-AUG-8-2024/contracts/MultiSigWallet.sol\":2530:2589  require(!isOwner[newSigner], \"addSigner: owner not unique\") */\n      tag_131\n        /* \"#utility.yul\":12252:12603   */\n      jump\n        /* \"contracts/AUG-8/Contracts-AUG-8-2024/contracts/MultiSigWallet.sol\":2530:2589  require(!isOwner[newSigner], \"addSigner: owner not unique\") */\n    tag_177:\n      sub(shl(0xa0, 0x01), 0x01)\n        /* \"contracts/AUG-8/Contracts-AUG-8-2024/contracts/MultiSigWallet.sol\":2600:2618  isOwner[newSigner] */\n      dup5\n      and\n      0x00\n      dup2\n      dup2\n      mstore\n        /* \"contracts/AUG-8/Contracts-AUG-8-2024/contracts/MultiSigWallet.sol\":2621:2625  true */\n      0x01\n        /* \"contracts/AUG-8/Contracts-AUG-8-2024/contracts/MultiSigWallet.sol\":2600:2618  isOwner[newSigner] */\n      0x20\n      dup2\n      swap1\n      mstore\n      0x40\n      dup3\n      keccak256\n        /* \"contracts/AUG-8/Contracts-AUG-8-2024/contracts/MultiSigWallet.sol\":2600:2625  isOwner[newSigner] = true */\n      dup1\n      sload\n      not(0xff)\n      and\n      dup3\n      or\n      swap1\n      sstore\n        /* \"contracts/AUG-8/Contracts-AUG-8-2024/contracts/MultiSigWallet.sol\":2635:2641  owners */\n      0x05\n        /* \"contracts/AUG-8/Contracts-AUG-8-2024/contracts/MultiSigWallet.sol\":2635:2657  owners.push(newSigner) */\n      dup1\n      sload\n      swap2\n      dup3\n      add\n      dup2\n      sstore\n      swap1\n      swap2\n      mstore\n      0x036b6384b5eca791c62761152d0c79bb0604c104a5fb6f4eb0703f3154bb3db0\n      add\n      dup1\n      sload\n      not(sub(shl(0xa0, 0x01), 0x01))\n      and\n      swap1\n      swap2\n      or\n      swap1\n      sstore\n        /* \"contracts/AUG-8/Contracts-AUG-8-2024/contracts/MultiSigWallet.sol\":2667:2685  signaturesRequired */\n      0x06\n        /* \"contracts/AUG-8/Contracts-AUG-8-2024/contracts/MultiSigWallet.sol\":2667:2709  signaturesRequired = newSignaturesRequired */\n      dup4\n      swap1\n      sstore\n        /* \"contracts/AUG-8/Contracts-AUG-8-2024/contracts/MultiSigWallet.sol\":2719:2773  updateSignaturesRequired(owner, newSignaturesRequired) */\n      tag_143\n        /* \"contracts/AUG-8/Contracts-AUG-8-2024/contracts/MultiSigWallet.sol\":2744:2749  owner */\n      dup6\n        /* \"contracts/AUG-8/Contracts-AUG-8-2024/contracts/MultiSigWallet.sol\":2688:2709  newSignaturesRequired */\n      dup5\n        /* \"contracts/AUG-8/Contracts-AUG-8-2024/contracts/MultiSigWallet.sol\":2719:2743  updateSignaturesRequired */\n      tag_144\n        /* \"contracts/AUG-8/Contracts-AUG-8-2024/contracts/MultiSigWallet.sol\":2719:2773  updateSignaturesRequired(owner, newSignaturesRequired) */\n      jump\t// in\n        /* \"contracts/AUG-8/Contracts-AUG-8-2024/contracts/MultiSigWallet.sol\":4422:4815  function getFunctionData(... */\n    tag_98:\n        /* \"contracts/AUG-8/Contracts-AUG-8-2024/contracts/MultiSigWallet.sol\":4647:4808  abi.encodeWithSignature(... */\n      mload(0x40)\n      sub(shl(0xa0, 0x01), 0x01)\n        /* \"#utility.yul\":12828:12860   */\n      dup1\n      dup6\n      and\n        /* \"contracts/AUG-8/Contracts-AUG-8-2024/contracts/MultiSigWallet.sol\":4647:4808  abi.encodeWithSignature(... */\n      0x24\n      dup4\n      add\n        /* \"#utility.yul\":12810:12861   */\n      mstore\n        /* \"#utility.yul\":12897:12929   */\n      dup4\n      and\n        /* \"#utility.yul\":12877:12895   */\n      0x44\n      dup3\n      add\n        /* \"#utility.yul\":12870:12930   */\n      mstore\n        /* \"#utility.yul\":12946:12964   */\n      0x64\n      dup2\n      add\n        /* \"#utility.yul\":12939:12973   */\n      dup3\n      swap1\n      mstore\n        /* \"contracts/AUG-8/Contracts-AUG-8-2024/contracts/MultiSigWallet.sol\":4604:4616  bytes memory */\n      0x60\n      swap1\n        /* \"contracts/AUG-8/Contracts-AUG-8-2024/contracts/MultiSigWallet.sol\":4688:4705  functionSignature */\n      dup6\n      swap1\n        /* \"#utility.yul\":12783:12801   */\n      0x84\n      add\n        /* \"contracts/AUG-8/Contracts-AUG-8-2024/contracts/MultiSigWallet.sol\":4647:4808  abi.encodeWithSignature(... */\n      0x40\n      dup1\n      mload\n      not(0x1f)\n      dup2\n      dup5\n      sub\n      add\n      dup2\n      mstore\n      swap1\n      dup3\n      swap1\n      mstore\n      swap2\n      tag_190\n      swap2\n      tag_191\n      jump\t// in\n    tag_190:\n      mload(0x40)\n      swap1\n      dup2\n      swap1\n      sub\n      swap1\n      keccak256\n      0x20\n      dup3\n      add\n      dup1\n      mload\n      sub(shl(0xe0, 0x01), 0x01)\n      and\n      not(sub(shl(0xe0, 0x01), 0x01))\n      swap1\n      swap3\n      and\n      swap2\n      swap1\n      swap2\n      or\n      swap1\n      mstore\n      swap1\n      pop\n        /* \"contracts/AUG-8/Contracts-AUG-8-2024/contracts/MultiSigWallet.sol\":4422:4815  function getFunctionData(... */\n      swap5\n      swap4\n      pop\n      pop\n      pop\n      pop\n      jump\t// out\n        /* \"contracts/AUG-8/Contracts-AUG-8-2024/contracts/MultiSigWallet.sol\":4821:6095  function executeApproval(... */\n    tag_113:\n        /* \"contracts/AUG-8/Contracts-AUG-8-2024/contracts/MultiSigWallet.sol\":1200:1210  msg.sender */\n      caller\n        /* \"contracts/AUG-8/Contracts-AUG-8-2024/contracts/MultiSigWallet.sol\":5085:5089  bool */\n      0x00\n        /* \"contracts/AUG-8/Contracts-AUG-8-2024/contracts/MultiSigWallet.sol\":1192:1211  isOwner[msg.sender] */\n      swap1\n      dup2\n      mstore\n        /* \"contracts/AUG-8/Contracts-AUG-8-2024/contracts/MultiSigWallet.sol\":1192:1199  isOwner */\n      0x01\n        /* \"contracts/AUG-8/Contracts-AUG-8-2024/contracts/MultiSigWallet.sol\":1192:1211  isOwner[msg.sender] */\n      0x20\n      mstore\n      0x40\n      dup2\n      keccak256\n      sload\n      0xff\n      and\n        /* \"contracts/AUG-8/Contracts-AUG-8-2024/contracts/MultiSigWallet.sol\":1184:1225  require(isOwner[msg.sender], \"Not owner\") */\n      tag_193\n      jumpi\n      mload(0x40)\n      shl(0xe5, 0x461bcd)\n      dup2\n      mstore\n        /* \"#utility.yul\":11765:11767   */\n      0x20\n        /* \"contracts/AUG-8/Contracts-AUG-8-2024/contracts/MultiSigWallet.sol\":1184:1225  require(isOwner[msg.sender], \"Not owner\") */\n      0x04\n      dup3\n      add\n        /* \"#utility.yul\":11747:11768   */\n      mstore\n        /* \"#utility.yul\":11804:11805   */\n      0x09\n        /* \"#utility.yul\":11784:11802   */\n      0x24\n      dup3\n      add\n        /* \"#utility.yul\":11777:11806   */\n      mstore\n      shl(0xb9, 0x2737ba1037bbb732b9)\n        /* \"#utility.yul\":11822:11840   */\n      0x44\n      dup3\n      add\n        /* \"#utility.yul\":11815:11854   */\n      mstore\n        /* \"#utility.yul\":11871:11889   */\n      0x64\n      add\n        /* \"contracts/AUG-8/Contracts-AUG-8-2024/contracts/MultiSigWallet.sol\":1184:1225  require(isOwner[msg.sender], \"Not owner\") */\n      tag_131\n        /* \"#utility.yul\":11563:11895   */\n      jump\n        /* \"contracts/AUG-8/Contracts-AUG-8-2024/contracts/MultiSigWallet.sol\":1184:1225  require(isOwner[msg.sender], \"Not owner\") */\n    tag_193:\n        /* \"contracts/AUG-8/Contracts-AUG-8-2024/contracts/MultiSigWallet.sol\":5101:5114  bytes32 _hash */\n      0x00\n        /* \"contracts/AUG-8/Contracts-AUG-8-2024/contracts/MultiSigWallet.sol\":5117:5140  getMessageHash(passkey) */\n      tag_196\n        /* \"contracts/AUG-8/Contracts-AUG-8-2024/contracts/MultiSigWallet.sol\":5132:5139  passkey */\n      dup6\n        /* \"contracts/AUG-8/Contracts-AUG-8-2024/contracts/MultiSigWallet.sol\":5117:5131  getMessageHash */\n      tag_197\n        /* \"contracts/AUG-8/Contracts-AUG-8-2024/contracts/MultiSigWallet.sol\":5117:5140  getMessageHash(passkey) */\n      jump\t// in\n    tag_196:\n        /* \"contracts/AUG-8/Contracts-AUG-8-2024/contracts/MultiSigWallet.sol\":5101:5140  bytes32 _hash = getMessageHash(passkey) */\n      swap1\n      pop\n        /* \"contracts/AUG-8/Contracts-AUG-8-2024/contracts/MultiSigWallet.sol\":5150:5172  address duplicateGuard */\n      0x00\n        /* \"contracts/AUG-8/Contracts-AUG-8-2024/contracts/MultiSigWallet.sol\":5182:5199  address recovered */\n      dup1\n        /* \"contracts/AUG-8/Contracts-AUG-8-2024/contracts/MultiSigWallet.sol\":5202:5236  verifyUserSign(passkey, signature) */\n      tag_198\n        /* \"contracts/AUG-8/Contracts-AUG-8-2024/contracts/MultiSigWallet.sol\":5217:5224  passkey */\n      dup8\n        /* \"contracts/AUG-8/Contracts-AUG-8-2024/contracts/MultiSigWallet.sol\":5226:5235  signature */\n      dup10\n        /* \"contracts/AUG-8/Contracts-AUG-8-2024/contracts/MultiSigWallet.sol\":5202:5216  verifyUserSign */\n      tag_119\n        /* \"contracts/AUG-8/Contracts-AUG-8-2024/contracts/MultiSigWallet.sol\":5202:5236  verifyUserSign(passkey, signature) */\n      jump\t// in\n    tag_198:\n        /* \"contracts/AUG-8/Contracts-AUG-8-2024/contracts/MultiSigWallet.sol\":5182:5236  address recovered = verifyUserSign(passkey, signature) */\n      swap1\n      pop\n        /* \"contracts/AUG-8/Contracts-AUG-8-2024/contracts/MultiSigWallet.sol\":5279:5293  duplicateGuard */\n      dup2\n      sub(shl(0xa0, 0x01), 0x01)\n        /* \"contracts/AUG-8/Contracts-AUG-8-2024/contracts/MultiSigWallet.sol\":5267:5293  recovered > duplicateGuard */\n      and\n        /* \"contracts/AUG-8/Contracts-AUG-8-2024/contracts/MultiSigWallet.sol\":5267:5276  recovered */\n      dup2\n      sub(shl(0xa0, 0x01), 0x01)\n        /* \"contracts/AUG-8/Contracts-AUG-8-2024/contracts/MultiSigWallet.sol\":5267:5293  recovered > duplicateGuard */\n      and\n      gt\n        /* \"contracts/AUG-8/Contracts-AUG-8-2024/contracts/MultiSigWallet.sol\":5246:5372  require(... */\n      tag_199\n      jumpi\n      mload(0x40)\n      shl(0xe5, 0x461bcd)\n      dup2\n      mstore\n        /* \"#utility.yul\":13494:13496   */\n      0x20\n        /* \"contracts/AUG-8/Contracts-AUG-8-2024/contracts/MultiSigWallet.sol\":5246:5372  require(... */\n      0x04\n      dup3\n      add\n        /* \"#utility.yul\":13476:13497   */\n      mstore\n        /* \"#utility.yul\":13533:13535   */\n      0x35\n        /* \"#utility.yul\":13513:13531   */\n      0x24\n      dup3\n      add\n        /* \"#utility.yul\":13506:13536   */\n      mstore\n        /* \"#utility.yul\":13572:13606   */\n      0x657865637574655472616e73616374696f6e3a206475706c6963617465206f72\n        /* \"#utility.yul\":13552:13570   */\n      0x44\n      dup3\n      add\n        /* \"#utility.yul\":13545:13607   */\n      mstore\n      shl(0x58, 0x20756e6f726465726564207369676e617475726573)\n        /* \"#utility.yul\":13623:13641   */\n      0x64\n      dup3\n      add\n        /* \"#utility.yul\":13616:13667   */\n      mstore\n        /* \"#utility.yul\":13684:13703   */\n      0x84\n      add\n        /* \"contracts/AUG-8/Contracts-AUG-8-2024/contracts/MultiSigWallet.sol\":5246:5372  require(... */\n      tag_131\n        /* \"#utility.yul\":13292:13709   */\n      jump\n        /* \"contracts/AUG-8/Contracts-AUG-8-2024/contracts/MultiSigWallet.sol\":5246:5372  require(... */\n    tag_199:\n      sub(shl(0xa0, 0x01), 0x01)\n        /* \"contracts/AUG-8/Contracts-AUG-8-2024/contracts/MultiSigWallet.sol\":5444:5462  isOwner[recovered] */\n      dup2\n      and\n        /* \"contracts/AUG-8/Contracts-AUG-8-2024/contracts/MultiSigWallet.sol\":5418:5430  bool success */\n      0x00\n        /* \"contracts/AUG-8/Contracts-AUG-8-2024/contracts/MultiSigWallet.sol\":5444:5462  isOwner[recovered] */\n      swap1\n      dup2\n      mstore\n        /* \"contracts/AUG-8/Contracts-AUG-8-2024/contracts/MultiSigWallet.sol\":5444:5451  isOwner */\n      0x01\n        /* \"contracts/AUG-8/Contracts-AUG-8-2024/contracts/MultiSigWallet.sol\":5444:5462  isOwner[recovered] */\n      0x20\n      mstore\n      0x40\n      dup2\n      keccak256\n      sload\n        /* \"contracts/AUG-8/Contracts-AUG-8-2024/contracts/MultiSigWallet.sol\":5399:5408  recovered */\n      swap2\n      swap3\n      pop\n      dup3\n      swap2\n        /* \"contracts/AUG-8/Contracts-AUG-8-2024/contracts/MultiSigWallet.sol\":5444:5462  isOwner[recovered] */\n      0xff\n      and\n        /* \"contracts/AUG-8/Contracts-AUG-8-2024/contracts/MultiSigWallet.sol\":5440:5695  if (isOwner[recovered]) {... */\n      iszero\n      tag_202\n      jumpi\n        /* \"contracts/AUG-8/Contracts-AUG-8-2024/contracts/MultiSigWallet.sol\":5478:5493  validSignatures */\n      0x04\n        /* \"contracts/AUG-8/Contracts-AUG-8-2024/contracts/MultiSigWallet.sol\":5494:5510  transactionStamp */\n      dup8\n        /* \"contracts/AUG-8/Contracts-AUG-8-2024/contracts/MultiSigWallet.sol\":5478:5511  validSignatures[transactionStamp] */\n      mload(0x40)\n      tag_203\n      swap2\n      swap1\n      tag_191\n      jump\t// in\n    tag_203:\n      swap1\n      dup2\n      mstore\n      mload(0x40)\n      swap1\n      dup2\n      swap1\n      sub\n      0x20\n      add\n      swap1\n      keccak256\n        /* \"contracts/AUG-8/Contracts-AUG-8-2024/contracts/MultiSigWallet.sol\":5478:5513  validSignatures[transactionStamp]++ */\n      dup1\n      sload\n      swap1\n        /* \"contracts/AUG-8/Contracts-AUG-8-2024/contracts/MultiSigWallet.sol\":5478:5511  validSignatures[transactionStamp] */\n      0x00\n        /* \"contracts/AUG-8/Contracts-AUG-8-2024/contracts/MultiSigWallet.sol\":5478:5513  validSignatures[transactionStamp]++ */\n      tag_204\n      dup4\n      tag_156\n      jump\t// in\n    tag_204:\n      swap2\n      swap1\n      pop\n      sstore\n      pop\n        /* \"contracts/AUG-8/Contracts-AUG-8-2024/contracts/MultiSigWallet.sol\":5570:5585  validSignatures */\n      0x04\n        /* \"contracts/AUG-8/Contracts-AUG-8-2024/contracts/MultiSigWallet.sol\":5586:5602  transactionStamp */\n      dup8\n        /* \"contracts/AUG-8/Contracts-AUG-8-2024/contracts/MultiSigWallet.sol\":5570:5603  validSignatures[transactionStamp] */\n      mload(0x40)\n      tag_205\n      swap2\n      swap1\n      tag_191\n      jump\t// in\n    tag_205:\n      swap1\n      dup2\n      mstore\n      0x20\n      add\n      mload(0x40)\n      dup1\n      swap2\n      sub\n      swap1\n      keccak256\n      sload\n        /* \"contracts/AUG-8/Contracts-AUG-8-2024/contracts/MultiSigWallet.sol\":5527:5549  transactionValidations */\n      0x02\n        /* \"contracts/AUG-8/Contracts-AUG-8-2024/contracts/MultiSigWallet.sol\":5550:5566  transactionStamp */\n      dup9\n        /* \"contracts/AUG-8/Contracts-AUG-8-2024/contracts/MultiSigWallet.sol\":5527:5567  transactionValidations[transactionStamp] */\n      mload(0x40)\n      tag_206\n      swap2\n      swap1\n      tag_191\n      jump\t// in\n    tag_206:\n      swap1\n      dup2\n      mstore\n      0x40\n      dup1\n      mload\n      0x20\n      swap3\n      dup2\n      swap1\n      sub\n      dup4\n      add\n      swap1\n      keccak256\n        /* \"contracts/AUG-8/Contracts-AUG-8-2024/contracts/MultiSigWallet.sol\":5527:5603  transactionValidations[transactionStamp] = validSignatures[transactionStamp] */\n      swap3\n      swap1\n      swap3\n      sstore\n        /* \"contracts/AUG-8/Contracts-AUG-8-2024/contracts/MultiSigWallet.sol\":5617:5637  transactionNo[trxNo] */\n      0x00\n      dup9\n      dup2\n      mstore\n        /* \"contracts/AUG-8/Contracts-AUG-8-2024/contracts/MultiSigWallet.sol\":5617:5630  transactionNo */\n      0x03\n        /* \"contracts/AUG-8/Contracts-AUG-8-2024/contracts/MultiSigWallet.sol\":5617:5637  transactionNo[trxNo] */\n      swap1\n      swap2\n      mstore\n      keccak256\n        /* \"contracts/AUG-8/Contracts-AUG-8-2024/contracts/MultiSigWallet.sol\":5617:5656  transactionNo[trxNo] = transactionStamp */\n      tag_207\n        /* \"contracts/AUG-8/Contracts-AUG-8-2024/contracts/MultiSigWallet.sol\":5640:5656  transactionStamp */\n      dup9\n        /* \"contracts/AUG-8/Contracts-AUG-8-2024/contracts/MultiSigWallet.sol\":5617:5637  transactionNo[trxNo] */\n      dup3\n        /* \"contracts/AUG-8/Contracts-AUG-8-2024/contracts/MultiSigWallet.sol\":5617:5656  transactionNo[trxNo] = transactionStamp */\n      tag_208\n      jump\t// in\n    tag_207:\n      pop\n        /* \"contracts/AUG-8/Contracts-AUG-8-2024/contracts/MultiSigWallet.sol\":5680:5684  true */\n      0x01\n        /* \"contracts/AUG-8/Contracts-AUG-8-2024/contracts/MultiSigWallet.sol\":5670:5684  success = true */\n      swap1\n      pop\n        /* \"contracts/AUG-8/Contracts-AUG-8-2024/contracts/MultiSigWallet.sol\":5440:5695  if (isOwner[recovered]) {... */\n    tag_202:\n        /* \"contracts/AUG-8/Contracts-AUG-8-2024/contracts/MultiSigWallet.sol\":5762:5780  signaturesRequired */\n      sload(0x06)\n        /* \"contracts/AUG-8/Contracts-AUG-8-2024/contracts/MultiSigWallet.sol\":5725:5740  validSignatures */\n      0x04\n        /* \"contracts/AUG-8/Contracts-AUG-8-2024/contracts/MultiSigWallet.sol\":5741:5757  transactionStamp */\n      dup9\n        /* \"contracts/AUG-8/Contracts-AUG-8-2024/contracts/MultiSigWallet.sol\":5725:5758  validSignatures[transactionStamp] */\n      mload(0x40)\n      tag_209\n      swap2\n      swap1\n      tag_191\n      jump\t// in\n    tag_209:\n      swap1\n      dup2\n      mstore\n      0x20\n      add\n      mload(0x40)\n      dup1\n      swap2\n      sub\n      swap1\n      keccak256\n      sload\n        /* \"contracts/AUG-8/Contracts-AUG-8-2024/contracts/MultiSigWallet.sol\":5725:5780  validSignatures[transactionStamp] >= signaturesRequired */\n      lt\n      iszero\n        /* \"contracts/AUG-8/Contracts-AUG-8-2024/contracts/MultiSigWallet.sol\":5704:5853  require(... */\n      tag_210\n      jumpi\n      mload(0x40)\n      shl(0xe5, 0x461bcd)\n      dup2\n      mstore\n        /* \"#utility.yul\":15914:15916   */\n      0x20\n        /* \"contracts/AUG-8/Contracts-AUG-8-2024/contracts/MultiSigWallet.sol\":5704:5853  require(... */\n      0x04\n      dup3\n      add\n        /* \"#utility.yul\":15896:15917   */\n      mstore\n        /* \"#utility.yul\":15953:15955   */\n      0x2f\n        /* \"#utility.yul\":15933:15951   */\n      0x24\n      dup3\n      add\n        /* \"#utility.yul\":15926:15956   */\n      mstore\n        /* \"#utility.yul\":15992:16026   */\n      0x657865637574655472616e73616374696f6e3a206e6f7420656e6f7567682076\n        /* \"#utility.yul\":15972:15990   */\n      0x44\n      dup3\n      add\n        /* \"#utility.yul\":15965:16027   */\n      mstore\n      shl(0x88, 0x616c6964207369676e617475726573)\n        /* \"#utility.yul\":16043:16061   */\n      0x64\n      dup3\n      add\n        /* \"#utility.yul\":16036:16081   */\n      mstore\n        /* \"#utility.yul\":16098:16117   */\n      0x84\n      add\n        /* \"contracts/AUG-8/Contracts-AUG-8-2024/contracts/MultiSigWallet.sol\":5704:5853  require(... */\n      tag_131\n        /* \"#utility.yul\":15712:16123   */\n      jump\n        /* \"contracts/AUG-8/Contracts-AUG-8-2024/contracts/MultiSigWallet.sol\":5704:5853  require(... */\n    tag_210:\n        /* \"contracts/AUG-8/Contracts-AUG-8-2024/contracts/MultiSigWallet.sol\":5951:5958  success */\n      dup1\n        /* \"contracts/AUG-8/Contracts-AUG-8-2024/contracts/MultiSigWallet.sol\":5943:5992  require(success, \"executeTransaction: tx failed\") */\n      tag_213\n      jumpi\n      mload(0x40)\n      shl(0xe5, 0x461bcd)\n      dup2\n      mstore\n        /* \"#utility.yul\":16330:16332   */\n      0x20\n        /* \"contracts/AUG-8/Contracts-AUG-8-2024/contracts/MultiSigWallet.sol\":5943:5992  require(success, \"executeTransaction: tx failed\") */\n      0x04\n      dup3\n      add\n        /* \"#utility.yul\":16312:16333   */\n      mstore\n        /* \"#utility.yul\":16369:16371   */\n      0x1d\n        /* \"#utility.yul\":16349:16367   */\n      0x24\n      dup3\n      add\n        /* \"#utility.yul\":16342:16372   */\n      mstore\n        /* \"#utility.yul\":16408:16439   */\n      0x657865637574655472616e73616374696f6e3a207478206661696c6564000000\n        /* \"#utility.yul\":16388:16406   */\n      0x44\n      dup3\n      add\n        /* \"#utility.yul\":16381:16440   */\n      mstore\n        /* \"#utility.yul\":16457:16475   */\n      0x64\n      add\n        /* \"contracts/AUG-8/Contracts-AUG-8-2024/contracts/MultiSigWallet.sol\":5943:5992  require(success, \"executeTransaction: tx failed\") */\n      tag_131\n        /* \"#utility.yul\":16128:16481   */\n      jump\n        /* \"contracts/AUG-8/Contracts-AUG-8-2024/contracts/MultiSigWallet.sol\":5943:5992  require(success, \"executeTransaction: tx failed\") */\n    tag_213:\n        /* \"contracts/AUG-8/Contracts-AUG-8-2024/contracts/MultiSigWallet.sol\":6027:6037  msg.sender */\n      caller\n        /* \"contracts/AUG-8/Contracts-AUG-8-2024/contracts/MultiSigWallet.sol\":6008:6067  ExecuteTransaction(msg.sender, to, value, trxNo - 1, _hash) */\n      0x01981a0759c7f7295b44ccbd200535e8a29744b41f8da48b42a35b8b4b8b04b6\n        /* \"contracts/AUG-8/Contracts-AUG-8-2024/contracts/MultiSigWallet.sol\":6039:6041  to */\n      dup13\n        /* \"contracts/AUG-8/Contracts-AUG-8-2024/contracts/MultiSigWallet.sol\":6043:6048  value */\n      dup13\n        /* \"contracts/AUG-8/Contracts-AUG-8-2024/contracts/MultiSigWallet.sol\":6050:6059  trxNo - 1 */\n      tag_216\n        /* \"contracts/AUG-8/Contracts-AUG-8-2024/contracts/MultiSigWallet.sol\":6058:6059  1 */\n      0x01\n        /* \"contracts/AUG-8/Contracts-AUG-8-2024/contracts/MultiSigWallet.sol\":6050:6055  trxNo */\n      dup12\n        /* \"contracts/AUG-8/Contracts-AUG-8-2024/contracts/MultiSigWallet.sol\":6050:6059  trxNo - 1 */\n      tag_217\n      jump\t// in\n    tag_216:\n        /* \"contracts/AUG-8/Contracts-AUG-8-2024/contracts/MultiSigWallet.sol\":6008:6067  ExecuteTransaction(msg.sender, to, value, trxNo - 1, _hash) */\n      0x40\n      dup1\n      mload\n      sub(shl(0xa0, 0x01), 0x01)\n        /* \"#utility.yul\":16884:16916   */\n      swap1\n      swap5\n      and\n        /* \"#utility.yul\":16866:16917   */\n      dup5\n      mstore\n        /* \"#utility.yul\":16948:16950   */\n      0x20\n        /* \"#utility.yul\":16933:16951   */\n      dup5\n      add\n        /* \"#utility.yul\":16926:16960   */\n      swap3\n      swap1\n      swap3\n      mstore\n        /* \"#utility.yul\":16976:16994   */\n      swap1\n      dup3\n      add\n        /* \"#utility.yul\":16969:17003   */\n      mstore\n        /* \"#utility.yul\":17034:17036   */\n      0x60\n        /* \"#utility.yul\":17019:17037   */\n      dup2\n      add\n        /* \"#utility.yul\":17012:17046   */\n      dup8\n      swap1\n      mstore\n        /* \"#utility.yul\":16853:16856   */\n      0x80\n        /* \"#utility.yul\":16838:16857   */\n      add\n        /* \"contracts/AUG-8/Contracts-AUG-8-2024/contracts/MultiSigWallet.sol\":6008:6067  ExecuteTransaction(msg.sender, to, value, trxNo - 1, _hash) */\n      mload(0x40)\n      dup1\n      swap2\n      sub\n      swap1\n      log2\n      pop\n        /* \"contracts/AUG-8/Contracts-AUG-8-2024/contracts/MultiSigWallet.sol\":6084:6088  true */\n      0x01\n      swap11\n        /* \"contracts/AUG-8/Contracts-AUG-8-2024/contracts/MultiSigWallet.sol\":4821:6095  function executeApproval(... */\n      swap10\n      pop\n      pop\n      pop\n      pop\n      pop\n      pop\n      pop\n      pop\n      pop\n      pop\n      jump\t// out\n        /* \"contracts/AUG-8/Contracts-AUG-8-2024/contracts/MultiSigWallet.sol\":7652:8005  function verifyUserSign(string memory _passkey, bytes memory signature)... */\n    tag_119:\n        /* \"contracts/AUG-8/Contracts-AUG-8-2024/contracts/MultiSigWallet.sol\":7769:7794  address userWalletAddress */\n      0x00\n        /* \"contracts/AUG-8/Contracts-AUG-8-2024/contracts/MultiSigWallet.sol\":7810:7829  bytes32 messageHash */\n      dup1\n        /* \"contracts/AUG-8/Contracts-AUG-8-2024/contracts/MultiSigWallet.sol\":7832:7856  getMessageHash(_passkey) */\n      tag_221\n        /* \"contracts/AUG-8/Contracts-AUG-8-2024/contracts/MultiSigWallet.sol\":7847:7855  _passkey */\n      dup5\n        /* \"contracts/AUG-8/Contracts-AUG-8-2024/contracts/MultiSigWallet.sol\":7832:7846  getMessageHash */\n      tag_197\n        /* \"contracts/AUG-8/Contracts-AUG-8-2024/contracts/MultiSigWallet.sol\":7832:7856  getMessageHash(_passkey) */\n      jump\t// in\n    tag_221:\n        /* \"contracts/AUG-8/Contracts-AUG-8-2024/contracts/MultiSigWallet.sol\":7810:7856  bytes32 messageHash = getMessageHash(_passkey) */\n      swap1\n      pop\n        /* \"contracts/AUG-8/Contracts-AUG-8-2024/contracts/MultiSigWallet.sol\":7866:7894  bytes32 ethSignedMessageHash */\n      0x00\n        /* \"contracts/AUG-8/Contracts-AUG-8-2024/contracts/MultiSigWallet.sol\":7897:7933  getEthSignedMessageHash(messageHash) */\n      tag_222\n        /* \"contracts/AUG-8/Contracts-AUG-8-2024/contracts/MultiSigWallet.sol\":7921:7932  messageHash */\n      dup3\n        /* \"contracts/AUG-8/Contracts-AUG-8-2024/contracts/MultiSigWallet.sol\":7897:7920  getEthSignedMessageHash */\n      tag_223\n        /* \"contracts/AUG-8/Contracts-AUG-8-2024/contracts/MultiSigWallet.sol\":7897:7933  getEthSignedMessageHash(messageHash) */\n      jump\t// in\n    tag_222:\n        /* \"contracts/AUG-8/Contracts-AUG-8-2024/contracts/MultiSigWallet.sol\":7866:7933  bytes32 ethSignedMessageHash = getEthSignedMessageHash(messageHash) */\n      swap1\n      pop\n        /* \"contracts/AUG-8/Contracts-AUG-8-2024/contracts/MultiSigWallet.sol\":7951:7997  recoverSigner(ethSignedMessageHash, signature) */\n      tag_224\n        /* \"contracts/AUG-8/Contracts-AUG-8-2024/contracts/MultiSigWallet.sol\":7965:7985  ethSignedMessageHash */\n      dup2\n        /* \"contracts/AUG-8/Contracts-AUG-8-2024/contracts/MultiSigWallet.sol\":7987:7996  signature */\n      dup6\n        /* \"contracts/AUG-8/Contracts-AUG-8-2024/contracts/MultiSigWallet.sol\":7951:7964  recoverSigner */\n      tag_225\n        /* \"contracts/AUG-8/Contracts-AUG-8-2024/contracts/MultiSigWallet.sol\":7951:7997  recoverSigner(ethSignedMessageHash, signature) */\n      jump\t// in\n    tag_224:\n        /* \"contracts/AUG-8/Contracts-AUG-8-2024/contracts/MultiSigWallet.sol\":7943:7998  return (recoverSigner(ethSignedMessageHash, signature)) */\n      swap6\n        /* \"contracts/AUG-8/Contracts-AUG-8-2024/contracts/MultiSigWallet.sol\":7652:8005  function verifyUserSign(string memory _passkey, bytes memory signature)... */\n      swap5\n      pop\n      pop\n      pop\n      pop\n      pop\n      jump\t// out\n        /* \"contracts/AUG-8/Contracts-AUG-8-2024/contracts/ECDSA.sol\":3702:3957  function recover(bytes32 hash, bytes memory signature) internal pure returns (address) {... */\n    tag_128:\n        /* \"contracts/AUG-8/Contracts-AUG-8-2024/contracts/ECDSA.sol\":3780:3787  address */\n      0x00\n        /* \"contracts/AUG-8/Contracts-AUG-8-2024/contracts/ECDSA.sol\":3800:3817  address recovered */\n      dup1\n        /* \"contracts/AUG-8/Contracts-AUG-8-2024/contracts/ECDSA.sol\":3819:3837  RecoverError error */\n      0x00\n        /* \"contracts/AUG-8/Contracts-AUG-8-2024/contracts/ECDSA.sol\":3839:3855  bytes32 errorArg */\n      dup1\n        /* \"contracts/AUG-8/Contracts-AUG-8-2024/contracts/ECDSA.sol\":3859:3886  tryRecover(hash, signature) */\n      tag_227\n        /* \"contracts/AUG-8/Contracts-AUG-8-2024/contracts/ECDSA.sol\":3870:3874  hash */\n      dup7\n        /* \"contracts/AUG-8/Contracts-AUG-8-2024/contracts/ECDSA.sol\":3876:3885  signature */\n      dup7\n        /* \"contracts/AUG-8/Contracts-AUG-8-2024/contracts/ECDSA.sol\":3859:3869  tryRecover */\n      tag_228\n        /* \"contracts/AUG-8/Contracts-AUG-8-2024/contracts/ECDSA.sol\":3859:3886  tryRecover(hash, signature) */\n      jump\t// in\n    tag_227:\n        /* \"contracts/AUG-8/Contracts-AUG-8-2024/contracts/ECDSA.sol\":3799:3886  (address recovered, RecoverError error, bytes32 errorArg) = tryRecover(hash, signature) */\n      swap3\n      pop\n      swap3\n      pop\n      swap3\n      pop\n        /* \"contracts/AUG-8/Contracts-AUG-8-2024/contracts/ECDSA.sol\":3896:3924  _throwError(error, errorArg) */\n      tag_229\n        /* \"contracts/AUG-8/Contracts-AUG-8-2024/contracts/ECDSA.sol\":3908:3913  error */\n      dup3\n        /* \"contracts/AUG-8/Contracts-AUG-8-2024/contracts/ECDSA.sol\":3915:3923  errorArg */\n      dup3\n        /* \"contracts/AUG-8/Contracts-AUG-8-2024/contracts/ECDSA.sol\":3896:3907  _throwError */\n      tag_230\n        /* \"contracts/AUG-8/Contracts-AUG-8-2024/contracts/ECDSA.sol\":3896:3924  _throwError(error, errorArg) */\n      jump\t// in\n    tag_229:\n      pop\n        /* \"contracts/AUG-8/Contracts-AUG-8-2024/contracts/ECDSA.sol\":3941:3950  recovered */\n      swap1\n      swap5\n        /* \"contracts/AUG-8/Contracts-AUG-8-2024/contracts/ECDSA.sol\":3702:3957  function recover(bytes32 hash, bytes memory signature) internal pure returns (address) {... */\n      swap4\n      pop\n      pop\n      pop\n      pop\n      jump\t// out\n        /* \"contracts/AUG-8/Contracts-AUG-8-2024/contracts/MultiSigWallet.sol\":3558:4176  function _removeOwner(address _oldSigner) private {... */\n    tag_142:\n      sub(shl(0xa0, 0x01), 0x01)\n        /* \"contracts/AUG-8/Contracts-AUG-8-2024/contracts/MultiSigWallet.sol\":3618:3637  isOwner[_oldSigner] */\n      dup2\n      and\n        /* \"contracts/AUG-8/Contracts-AUG-8-2024/contracts/MultiSigWallet.sol\":3640:3645  false */\n      0x00\n        /* \"contracts/AUG-8/Contracts-AUG-8-2024/contracts/MultiSigWallet.sol\":3618:3637  isOwner[_oldSigner] */\n      swap1\n      dup2\n      mstore\n        /* \"contracts/AUG-8/Contracts-AUG-8-2024/contracts/MultiSigWallet.sol\":3618:3625  isOwner */\n      0x01\n        /* \"contracts/AUG-8/Contracts-AUG-8-2024/contracts/MultiSigWallet.sol\":3618:3637  isOwner[_oldSigner] */\n      0x20\n      mstore\n      0x40\n      dup2\n      keccak256\n        /* \"contracts/AUG-8/Contracts-AUG-8-2024/contracts/MultiSigWallet.sol\":3618:3645  isOwner[_oldSigner] = false */\n      dup1\n      sload\n      not(0xff)\n      and\n      swap1\n      sstore\n        /* \"contracts/AUG-8/Contracts-AUG-8-2024/contracts/MultiSigWallet.sol\":3678:3684  owners */\n      0x05\n        /* \"contracts/AUG-8/Contracts-AUG-8-2024/contracts/MultiSigWallet.sol\":3678:3691  owners.length */\n      sload\n      swap1\n      dup2\n        /* \"contracts/AUG-8/Contracts-AUG-8-2024/contracts/MultiSigWallet.sol\":3733:3761  new address[](owners.length) */\n      0xffffffffffffffff\n      dup2\n      gt\n      iszero\n      tag_233\n      jumpi\n      tag_233\n      tag_234\n      jump\t// in\n    tag_233:\n      mload(0x40)\n      swap1\n      dup1\n      dup3\n      mstore\n      dup1\n      0x20\n      mul\n      0x20\n      add\n      dup3\n      add\n      0x40\n      mstore\n      dup1\n      iszero\n      tag_235\n      jumpi\n      dup2\n      0x20\n      add\n      0x20\n      dup3\n      mul\n      dup1\n      calldatasize\n      dup4\n      calldatacopy\n      add\n      swap1\n      pop\n    tag_235:\n      pop\n        /* \"contracts/AUG-8/Contracts-AUG-8-2024/contracts/MultiSigWallet.sol\":3701:3761  address[] memory poppedOwners = new address[](owners.length) */\n      swap1\n      pop\n        /* \"contracts/AUG-8/Contracts-AUG-8-2024/contracts/MultiSigWallet.sol\":3776:3785  uint256 i */\n      0x00\n        /* \"contracts/AUG-8/Contracts-AUG-8-2024/contracts/MultiSigWallet.sol\":3788:3804  ownersLength - 1 */\n      tag_239\n        /* \"contracts/AUG-8/Contracts-AUG-8-2024/contracts/MultiSigWallet.sol\":3803:3804  1 */\n      0x01\n        /* \"contracts/AUG-8/Contracts-AUG-8-2024/contracts/MultiSigWallet.sol\":3788:3800  ownersLength */\n      dup5\n        /* \"contracts/AUG-8/Contracts-AUG-8-2024/contracts/MultiSigWallet.sol\":3788:3804  ownersLength - 1 */\n      tag_217\n      jump\t// in\n    tag_239:\n        /* \"contracts/AUG-8/Contracts-AUG-8-2024/contracts/MultiSigWallet.sol\":3776:3804  uint256 i = ownersLength - 1 */\n      swap1\n      pop\n        /* \"contracts/AUG-8/Contracts-AUG-8-2024/contracts/MultiSigWallet.sol\":3771:4170  for (uint256 i = ownersLength - 1; i >= 0; i--) {... */\n    tag_236:\n        /* \"contracts/AUG-8/Contracts-AUG-8-2024/contracts/MultiSigWallet.sol\":3850:3860  _oldSigner */\n      dup4\n      sub(shl(0xa0, 0x01), 0x01)\n        /* \"contracts/AUG-8/Contracts-AUG-8-2024/contracts/MultiSigWallet.sol\":3837:3860  owners[i] != _oldSigner */\n      and\n        /* \"contracts/AUG-8/Contracts-AUG-8-2024/contracts/MultiSigWallet.sol\":3837:3843  owners */\n      0x05\n        /* \"contracts/AUG-8/Contracts-AUG-8-2024/contracts/MultiSigWallet.sol\":3844:3845  i */\n      dup3\n        /* \"contracts/AUG-8/Contracts-AUG-8-2024/contracts/MultiSigWallet.sol\":3837:3846  owners[i] */\n      dup2\n      sload\n      dup2\n      lt\n      tag_241\n      jumpi\n      tag_241\n      tag_242\n      jump\t// in\n    tag_241:\n      0x00\n      swap2\n      dup3\n      mstore\n      0x20\n      swap1\n      swap2\n      keccak256\n      add\n      sload\n      sub(shl(0xa0, 0x01), 0x01)\n      and\n        /* \"contracts/AUG-8/Contracts-AUG-8-2024/contracts/MultiSigWallet.sol\":3837:3860  owners[i] != _oldSigner */\n      eq\n        /* \"contracts/AUG-8/Contracts-AUG-8-2024/contracts/MultiSigWallet.sol\":3833:4160  if (owners[i] != _oldSigner) {... */\n      tag_244\n      jumpi\n        /* \"contracts/AUG-8/Contracts-AUG-8-2024/contracts/MultiSigWallet.sol\":3898:3904  owners */\n      0x05\n        /* \"contracts/AUG-8/Contracts-AUG-8-2024/contracts/MultiSigWallet.sol\":3905:3906  i */\n      dup2\n        /* \"contracts/AUG-8/Contracts-AUG-8-2024/contracts/MultiSigWallet.sol\":3898:3907  owners[i] */\n      dup2\n      sload\n      dup2\n      lt\n      tag_246\n      jumpi\n      tag_246\n      tag_242\n      jump\t// in\n    tag_246:\n      swap1\n      0x00\n      mstore\n      keccak256(0x00, 0x20)\n      add\n      0x00\n      swap1\n      sload\n      swap1\n      0x0100\n      exp\n      swap1\n      div\n      sub(shl(0xa0, 0x01), 0x01)\n      and\n        /* \"contracts/AUG-8/Contracts-AUG-8-2024/contracts/MultiSigWallet.sol\":3880:3892  poppedOwners */\n      dup3\n        /* \"contracts/AUG-8/Contracts-AUG-8-2024/contracts/MultiSigWallet.sol\":3893:3894  i */\n      dup3\n        /* \"contracts/AUG-8/Contracts-AUG-8-2024/contracts/MultiSigWallet.sol\":3880:3895  poppedOwners[i] */\n      dup2\n      mload\n      dup2\n      lt\n      tag_249\n      jumpi\n      tag_249\n      tag_242\n      jump\t// in\n    tag_249:\n      0x20\n      mul\n      0x20\n      add\n      add\n        /* \"contracts/AUG-8/Contracts-AUG-8-2024/contracts/MultiSigWallet.sol\":3880:3907  poppedOwners[i] = owners[i] */\n      swap1\n      sub(shl(0xa0, 0x01), 0x01)\n      and\n      swap1\n      dup2\n      sub(shl(0xa0, 0x01), 0x01)\n      and\n      dup2\n      mstore\n      pop\n      pop\n        /* \"contracts/AUG-8/Contracts-AUG-8-2024/contracts/MultiSigWallet.sol\":3925:3931  owners */\n      0x05\n        /* \"contracts/AUG-8/Contracts-AUG-8-2024/contracts/MultiSigWallet.sol\":3925:3937  owners.pop() */\n      dup1\n      sload\n      dup1\n      tag_251\n      jumpi\n      tag_251\n      tag_252\n      jump\t// in\n    tag_251:\n      0x00\n      dup3\n      dup2\n      mstore\n      0x20\n      swap1\n      keccak256\n      dup2\n      add\n      not(0x00)\n      swap1\n      dup2\n      add\n      dup1\n      sload\n      not(sub(shl(0xa0, 0x01), 0x01))\n      and\n      swap1\n      sstore\n      add\n      swap1\n      sstore\n        /* \"contracts/AUG-8/Contracts-AUG-8-2024/contracts/MultiSigWallet.sol\":3833:4160  if (owners[i] != _oldSigner) {... */\n      jump(tag_254)\n    tag_244:\n        /* \"contracts/AUG-8/Contracts-AUG-8-2024/contracts/MultiSigWallet.sol\":3976:3982  owners */\n      0x05\n        /* \"contracts/AUG-8/Contracts-AUG-8-2024/contracts/MultiSigWallet.sol\":3976:3988  owners.pop() */\n      dup1\n      sload\n      dup1\n      tag_256\n      jumpi\n      tag_256\n      tag_252\n      jump\t// in\n    tag_256:\n      0x00\n      dup3\n      dup2\n      mstore\n      0x20\n      swap1\n      keccak256\n      dup2\n      add\n      not(0x00)\n      swap1\n      dup2\n      add\n      dup1\n      sload\n      not(sub(shl(0xa0, 0x01), 0x01))\n      and\n      swap1\n      sstore\n      add\n      swap1\n      sstore\n        /* \"contracts/AUG-8/Contracts-AUG-8-2024/contracts/MultiSigWallet.sol\":4023:4024  i */\n      dup1\n        /* \"contracts/AUG-8/Contracts-AUG-8-2024/contracts/MultiSigWallet.sol\":4006:4122  for (uint256 j = i; j < ownersLength - 1; j++) {... */\n    tag_258:\n        /* \"contracts/AUG-8/Contracts-AUG-8-2024/contracts/MultiSigWallet.sol\":4030:4046  ownersLength - 1 */\n      tag_261\n        /* \"contracts/AUG-8/Contracts-AUG-8-2024/contracts/MultiSigWallet.sol\":4045:4046  1 */\n      0x01\n        /* \"contracts/AUG-8/Contracts-AUG-8-2024/contracts/MultiSigWallet.sol\":4030:4042  ownersLength */\n      dup6\n        /* \"contracts/AUG-8/Contracts-AUG-8-2024/contracts/MultiSigWallet.sol\":4030:4046  ownersLength - 1 */\n      tag_217\n      jump\t// in\n    tag_261:\n        /* \"contracts/AUG-8/Contracts-AUG-8-2024/contracts/MultiSigWallet.sol\":4026:4027  j */\n      dup2\n        /* \"contracts/AUG-8/Contracts-AUG-8-2024/contracts/MultiSigWallet.sol\":4026:4046  j < ownersLength - 1 */\n      lt\n        /* \"contracts/AUG-8/Contracts-AUG-8-2024/contracts/MultiSigWallet.sol\":4006:4122  for (uint256 j = i; j < ownersLength - 1; j++) {... */\n      iszero\n      tag_259\n      jumpi\n        /* \"contracts/AUG-8/Contracts-AUG-8-2024/contracts/MultiSigWallet.sol\":4075:4081  owners */\n      0x05\n        /* \"contracts/AUG-8/Contracts-AUG-8-2024/contracts/MultiSigWallet.sol\":4087:4099  poppedOwners */\n      dup4\n        /* \"contracts/AUG-8/Contracts-AUG-8-2024/contracts/MultiSigWallet.sol\":4100:4101  j */\n      dup3\n        /* \"contracts/AUG-8/Contracts-AUG-8-2024/contracts/MultiSigWallet.sol\":4087:4102  poppedOwners[j] */\n      dup2\n      mload\n      dup2\n      lt\n      tag_263\n      jumpi\n      tag_263\n      tag_242\n      jump\t// in\n    tag_263:\n      0x20\n      swap1\n      dup2\n      mul\n      swap2\n      swap1\n      swap2\n      add\n      dup2\n      add\n      mload\n        /* \"contracts/AUG-8/Contracts-AUG-8-2024/contracts/MultiSigWallet.sol\":4075:4103  owners.push(poppedOwners[j]) */\n      dup3\n      sload\n      0x01\n      dup1\n      dup3\n      add\n      dup6\n      sstore\n      0x00\n      swap5\n      dup6\n      mstore\n      swap3\n      swap1\n      swap4\n      keccak256\n      swap1\n      swap3\n      add\n      dup1\n      sload\n      not(sub(shl(0xa0, 0x01), 0x01))\n      and\n      sub(shl(0xa0, 0x01), 0x01)\n      swap1\n      swap4\n      and\n      swap3\n      swap1\n      swap3\n      or\n      swap1\n      swap2\n      sstore\n        /* \"contracts/AUG-8/Contracts-AUG-8-2024/contracts/MultiSigWallet.sol\":4048:4051  j++ */\n      add\n        /* \"contracts/AUG-8/Contracts-AUG-8-2024/contracts/MultiSigWallet.sol\":4006:4122  for (uint256 j = i; j < ownersLength - 1; j++) {... */\n      jump(tag_258)\n    tag_259:\n      pop\n        /* \"contracts/AUG-8/Contracts-AUG-8-2024/contracts/MultiSigWallet.sol\":4139:4146  return; */\n      pop\n      pop\n      pop\n        /* \"contracts/AUG-8/Contracts-AUG-8-2024/contracts/MultiSigWallet.sol\":3558:4176  function _removeOwner(address _oldSigner) private {... */\n      pop\n      jump\t// out\n        /* \"contracts/AUG-8/Contracts-AUG-8-2024/contracts/MultiSigWallet.sol\":3833:4160  if (owners[i] != _oldSigner) {... */\n    tag_254:\n        /* \"contracts/AUG-8/Contracts-AUG-8-2024/contracts/MultiSigWallet.sol\":3814:3817  i-- */\n      dup1\n      tag_265\n      dup2\n      tag_266\n      jump\t// in\n    tag_265:\n      swap2\n      pop\n      pop\n        /* \"contracts/AUG-8/Contracts-AUG-8-2024/contracts/MultiSigWallet.sol\":3771:4170  for (uint256 i = ownersLength - 1; i >= 0; i--) {... */\n      jump(tag_236)\n        /* \"contracts/AUG-8/Contracts-AUG-8-2024/contracts/MultiSigWallet.sol\":4182:4416  function updateSignaturesRequired(... */\n    tag_144:\n        /* \"contracts/AUG-8/Contracts-AUG-8-2024/contracts/MultiSigWallet.sol\":4302:4307  owner */\n      dup2\n        /* \"contracts/AUG-8/Contracts-AUG-8-2024/contracts/MultiSigWallet.sol\":1300:1310  msg.sender */\n      caller\n      sub(shl(0xa0, 0x01), 0x01)\n        /* \"contracts/AUG-8/Contracts-AUG-8-2024/contracts/MultiSigWallet.sol\":1300:1319  msg.sender == owner */\n      dup3\n      and\n      eq\n        /* \"contracts/AUG-8/Contracts-AUG-8-2024/contracts/MultiSigWallet.sol\":1292:1332  require(msg.sender == owner, \"Not Self\") */\n      tag_268\n      jumpi\n      mload(0x40)\n      shl(0xe5, 0x461bcd)\n      dup2\n      mstore\n      0x04\n      add\n      tag_131\n      swap1\n      tag_132\n      jump\t// in\n    tag_268:\n        /* \"contracts/AUG-8/Contracts-AUG-8-2024/contracts/MultiSigWallet.sol\":4334:4355  newSignaturesRequired */\n      dup2\n        /* \"contracts/AUG-8/Contracts-AUG-8-2024/contracts/MultiSigWallet.sol\":1459:1460  0 */\n      0x00\n        /* \"contracts/AUG-8/Contracts-AUG-8-2024/contracts/MultiSigWallet.sol\":1437:1456  _signaturesRequired */\n      dup2\n        /* \"contracts/AUG-8/Contracts-AUG-8-2024/contracts/MultiSigWallet.sol\":1437:1460  _signaturesRequired > 0 */\n      gt\n        /* \"contracts/AUG-8/Contracts-AUG-8-2024/contracts/MultiSigWallet.sol\":1429:1495  require(_signaturesRequired > 0, \"Must be non-zero sigs required\") */\n      tag_271\n      jumpi\n      mload(0x40)\n      shl(0xe5, 0x461bcd)\n      dup2\n      mstore\n      0x04\n      add\n      tag_131\n      swap1\n      tag_136\n      jump\t// in\n    tag_271:\n      pop\n      pop\n        /* \"contracts/AUG-8/Contracts-AUG-8-2024/contracts/MultiSigWallet.sol\":4367:4385  signaturesRequired */\n      0x06\n        /* \"contracts/AUG-8/Contracts-AUG-8-2024/contracts/MultiSigWallet.sol\":4367:4409  signaturesRequired = newSignaturesRequired */\n      sstore\n      pop\n        /* \"contracts/AUG-8/Contracts-AUG-8-2024/contracts/MultiSigWallet.sol\":4182:4416  function updateSignaturesRequired(... */\n      jump\t// out\n        /* \"contracts/AUG-8/Contracts-AUG-8-2024/contracts/MultiSigWallet.sol\":6991:7160  function getMessageHash(string memory _passkey)... */\n    tag_197:\n        /* \"contracts/AUG-8/Contracts-AUG-8-2024/contracts/MultiSigWallet.sol\":7086:7093  bytes32 */\n      0x00\n        /* \"contracts/AUG-8/Contracts-AUG-8-2024/contracts/MultiSigWallet.sol\":7143:7151  _passkey */\n      dup2\n        /* \"contracts/AUG-8/Contracts-AUG-8-2024/contracts/MultiSigWallet.sol\":7126:7152  abi.encodePacked(_passkey) */\n      add(0x20, mload(0x40))\n      tag_275\n      swap2\n      swap1\n      tag_191\n      jump\t// in\n    tag_275:\n      mload(0x40)\n      0x20\n      dup2\n      dup4\n      sub\n      sub\n      dup2\n      mstore\n      swap1\n      0x40\n      mstore\n        /* \"contracts/AUG-8/Contracts-AUG-8-2024/contracts/MultiSigWallet.sol\":7116:7153  keccak256(abi.encodePacked(_passkey)) */\n      dup1\n      mload\n      swap1\n      0x20\n      add\n      keccak256\n        /* \"contracts/AUG-8/Contracts-AUG-8-2024/contracts/MultiSigWallet.sol\":7109:7153  return keccak256(abi.encodePacked(_passkey)) */\n      swap1\n      pop\n        /* \"contracts/AUG-8/Contracts-AUG-8-2024/contracts/MultiSigWallet.sol\":6991:7160  function getMessageHash(string memory _passkey)... */\n      swap2\n      swap1\n      pop\n      jump\t// out\n        /* \"contracts/AUG-8/Contracts-AUG-8-2024/contracts/MultiSigWallet.sol\":7166:7646  function getEthSignedMessageHash(bytes32 _messageHash)... */\n    tag_223:\n        /* \"contracts/AUG-8/Contracts-AUG-8-2024/contracts/MultiSigWallet.sol\":7501:7625  abi.encodePacked(... */\n      mload(0x40)\n        /* \"#utility.yul\":17704:17770   */\n      0x19457468657265756d205369676e6564204d6573736167653a0a333200000000\n        /* \"contracts/AUG-8/Contracts-AUG-8-2024/contracts/MultiSigWallet.sol\":7501:7625  abi.encodePacked(... */\n      0x20\n      dup3\n      add\n        /* \"#utility.yul\":17692:17771   */\n      mstore\n        /* \"#utility.yul\":17787:17799   */\n      0x3c\n      dup2\n      add\n        /* \"#utility.yul\":17780:17808   */\n      dup3\n      swap1\n      mstore\n        /* \"contracts/AUG-8/Contracts-AUG-8-2024/contracts/MultiSigWallet.sol\":7268:7275  bytes32 */\n      0x00\n      swap1\n        /* \"#utility.yul\":17824:17836   */\n      0x5c\n      add\n        /* \"contracts/AUG-8/Contracts-AUG-8-2024/contracts/MultiSigWallet.sol\":7501:7625  abi.encodePacked(... */\n      tag_275\n        /* \"#utility.yul\":17462:17842   */\n      jump\n        /* \"contracts/AUG-8/Contracts-AUG-8-2024/contracts/MultiSigWallet.sol\":8011:8280  function recoverSigner(... */\n    tag_225:\n        /* \"contracts/AUG-8/Contracts-AUG-8-2024/contracts/MultiSigWallet.sol\":8135:8142  address */\n      0x00\n        /* \"contracts/AUG-8/Contracts-AUG-8-2024/contracts/MultiSigWallet.sol\":8155:8164  bytes32 r */\n      dup1\n        /* \"contracts/AUG-8/Contracts-AUG-8-2024/contracts/MultiSigWallet.sol\":8166:8175  bytes32 s */\n      0x00\n        /* \"contracts/AUG-8/Contracts-AUG-8-2024/contracts/MultiSigWallet.sol\":8177:8184  uint8 v */\n      dup1\n        /* \"contracts/AUG-8/Contracts-AUG-8-2024/contracts/MultiSigWallet.sol\":8188:8214  splitSignature(_signature) */\n      tag_280\n        /* \"contracts/AUG-8/Contracts-AUG-8-2024/contracts/MultiSigWallet.sol\":8203:8213  _signature */\n      dup6\n        /* \"contracts/AUG-8/Contracts-AUG-8-2024/contracts/MultiSigWallet.sol\":8188:8202  splitSignature */\n      tag_281\n        /* \"contracts/AUG-8/Contracts-AUG-8-2024/contracts/MultiSigWallet.sol\":8188:8214  splitSignature(_signature) */\n      jump\t// in\n    tag_280:\n        /* \"contracts/AUG-8/Contracts-AUG-8-2024/contracts/MultiSigWallet.sol\":8232:8273  ecrecover(_ethSignedMessageHash, v, r, s) */\n      0x40\n      dup1\n      mload\n      0x00\n      dup2\n      mstore\n      0x20\n      dup2\n      add\n      dup1\n      dup4\n      mstore\n        /* \"#utility.yul\":18074:18099   */\n      dup12\n      swap1\n      mstore\n        /* \"#utility.yul\":18147:18151   */\n      0xff\n        /* \"#utility.yul\":18135:18152   */\n      dup4\n      and\n        /* \"#utility.yul\":18115:18133   */\n      swap2\n      dup2\n      add\n        /* \"#utility.yul\":18108:18153   */\n      swap2\n      swap1\n      swap2\n      mstore\n        /* \"#utility.yul\":18169:18187   */\n      0x60\n      dup2\n      add\n        /* \"#utility.yul\":18162:18196   */\n      dup5\n      swap1\n      mstore\n        /* \"#utility.yul\":18212:18230   */\n      0x80\n      dup2\n      add\n        /* \"#utility.yul\":18205:18239   */\n      dup4\n      swap1\n      mstore\n        /* \"contracts/AUG-8/Contracts-AUG-8-2024/contracts/MultiSigWallet.sol\":8154:8214  (bytes32 r, bytes32 s, uint8 v) = splitSignature(_signature) */\n      swap3\n      swap6\n      pop\n      swap1\n      swap4\n      pop\n      swap2\n      pop\n        /* \"contracts/AUG-8/Contracts-AUG-8-2024/contracts/MultiSigWallet.sol\":8232:8273  ecrecover(_ethSignedMessageHash, v, r, s) */\n      0x01\n      swap1\n        /* \"#utility.yul\":18046:18065   */\n      0xa0\n      add\n        /* \"contracts/AUG-8/Contracts-AUG-8-2024/contracts/MultiSigWallet.sol\":8232:8273  ecrecover(_ethSignedMessageHash, v, r, s) */\n      0x20\n      mload(0x40)\n      0x20\n      dup2\n      sub\n      swap1\n      dup1\n      dup5\n      sub\n      swap1\n      dup6\n      gas\n      staticcall\n      iszero\n      dup1\n      iszero\n      tag_285\n      jumpi\n      returndatasize\n      0x00\n      dup1\n      returndatacopy\n      revert(0x00, returndatasize)\n    tag_285:\n      pop\n      pop\n      mload(add(not(0x1f), mload(0x40)))\n      swap8\n        /* \"contracts/AUG-8/Contracts-AUG-8-2024/contracts/MultiSigWallet.sol\":8011:8280  function recoverSigner(... */\n      swap7\n      pop\n      pop\n      pop\n      pop\n      pop\n      pop\n      pop\n      jump\t// out\n        /* \"contracts/AUG-8/Contracts-AUG-8-2024/contracts/ECDSA.sol\":2129:2895  function tryRecover(bytes32 hash, bytes memory signature) internal pure returns (address, RecoverError, bytes32) {... */\n    tag_228:\n        /* \"contracts/AUG-8/Contracts-AUG-8-2024/contracts/ECDSA.sol\":2210:2217  address */\n      0x00\n        /* \"contracts/AUG-8/Contracts-AUG-8-2024/contracts/ECDSA.sol\":2219:2231  RecoverError */\n      dup1\n        /* \"contracts/AUG-8/Contracts-AUG-8-2024/contracts/ECDSA.sol\":2233:2240  bytes32 */\n      0x00\n        /* \"contracts/AUG-8/Contracts-AUG-8-2024/contracts/ECDSA.sol\":2256:2265  signature */\n      dup4\n        /* \"contracts/AUG-8/Contracts-AUG-8-2024/contracts/ECDSA.sol\":2256:2272  signature.length */\n      mload\n        /* \"contracts/AUG-8/Contracts-AUG-8-2024/contracts/ECDSA.sol\":2276:2278  65 */\n      0x41\n        /* \"contracts/AUG-8/Contracts-AUG-8-2024/contracts/ECDSA.sol\":2256:2278  signature.length == 65 */\n      sub\n        /* \"contracts/AUG-8/Contracts-AUG-8-2024/contracts/ECDSA.sol\":2252:2889  if (signature.length == 65) {... */\n      tag_287\n      jumpi\n        /* \"contracts/AUG-8/Contracts-AUG-8-2024/contracts/ECDSA.sol\":2592:2596  0x20 */\n      0x20\n        /* \"contracts/AUG-8/Contracts-AUG-8-2024/contracts/ECDSA.sol\":2577:2597  add(signature, 0x20) */\n      dup5\n      add\n        /* \"contracts/AUG-8/Contracts-AUG-8-2024/contracts/ECDSA.sol\":2571:2598  mload(add(signature, 0x20)) */\n      mload\n        /* \"contracts/AUG-8/Contracts-AUG-8-2024/contracts/ECDSA.sol\":2641:2645  0x40 */\n      0x40\n        /* \"contracts/AUG-8/Contracts-AUG-8-2024/contracts/ECDSA.sol\":2626:2646  add(signature, 0x40) */\n      dup6\n      add\n        /* \"contracts/AUG-8/Contracts-AUG-8-2024/contracts/ECDSA.sol\":2620:2647  mload(add(signature, 0x40)) */\n      mload\n        /* \"contracts/AUG-8/Contracts-AUG-8-2024/contracts/ECDSA.sol\":2698:2702  0x60 */\n      0x60\n        /* \"contracts/AUG-8/Contracts-AUG-8-2024/contracts/ECDSA.sol\":2683:2703  add(signature, 0x60) */\n      dup7\n      add\n        /* \"contracts/AUG-8/Contracts-AUG-8-2024/contracts/ECDSA.sol\":2677:2704  mload(add(signature, 0x60)) */\n      mload\n        /* \"contracts/AUG-8/Contracts-AUG-8-2024/contracts/ECDSA.sol\":2294:2303  bytes32 r */\n      0x00\n        /* \"contracts/AUG-8/Contracts-AUG-8-2024/contracts/ECDSA.sol\":2669:2705  byte(0, mload(add(signature, 0x60))) */\n      byte\n        /* \"contracts/AUG-8/Contracts-AUG-8-2024/contracts/ECDSA.sol\":2739:2764  tryRecover(hash, v, r, s) */\n      tag_288\n        /* \"contracts/AUG-8/Contracts-AUG-8-2024/contracts/ECDSA.sol\":2750:2754  hash */\n      dup9\n        /* \"contracts/AUG-8/Contracts-AUG-8-2024/contracts/ECDSA.sol\":2669:2705  byte(0, mload(add(signature, 0x60))) */\n      dup3\n        /* \"contracts/AUG-8/Contracts-AUG-8-2024/contracts/ECDSA.sol\":2571:2598  mload(add(signature, 0x20)) */\n      dup6\n        /* \"contracts/AUG-8/Contracts-AUG-8-2024/contracts/ECDSA.sol\":2620:2647  mload(add(signature, 0x40)) */\n      dup6\n        /* \"contracts/AUG-8/Contracts-AUG-8-2024/contracts/ECDSA.sol\":2739:2749  tryRecover */\n      tag_289\n        /* \"contracts/AUG-8/Contracts-AUG-8-2024/contracts/ECDSA.sol\":2739:2764  tryRecover(hash, v, r, s) */\n      jump\t// in\n    tag_288:\n        /* \"contracts/AUG-8/Contracts-AUG-8-2024/contracts/ECDSA.sol\":2732:2764  return tryRecover(hash, v, r, s) */\n      swap6\n      pop\n      swap6\n      pop\n      swap6\n      pop\n      pop\n      pop\n      pop\n      jump(tag_290)\n        /* \"contracts/AUG-8/Contracts-AUG-8-2024/contracts/ECDSA.sol\":2252:2889  if (signature.length == 65) {... */\n    tag_287:\n      pop\n      pop\n        /* \"contracts/AUG-8/Contracts-AUG-8-2024/contracts/ECDSA.sol\":2860:2876  signature.length */\n      dup2\n      mload\n        /* \"contracts/AUG-8/Contracts-AUG-8-2024/contracts/ECDSA.sol\":2811:2812  0 */\n      0x00\n      swap2\n      pop\n        /* \"contracts/AUG-8/Contracts-AUG-8-2024/contracts/ECDSA.sol\":2815:2850  RecoverError.InvalidSignatureLength */\n      0x02\n      swap1\n        /* \"contracts/AUG-8/Contracts-AUG-8-2024/contracts/ECDSA.sol\":2252:2889  if (signature.length == 65) {... */\n    tag_290:\n        /* \"contracts/AUG-8/Contracts-AUG-8-2024/contracts/ECDSA.sol\":2129:2895  function tryRecover(bytes32 hash, bytes memory signature) internal pure returns (address, RecoverError, bytes32) {... */\n      swap3\n      pop\n      swap3\n      pop\n      swap3\n      jump\t// out\n        /* \"contracts/AUG-8/Contracts-AUG-8-2024/contracts/ECDSA.sol\":7196:7728  function _throwError(RecoverError error, bytes32 errorArg) private pure {... */\n    tag_230:\n        /* \"contracts/AUG-8/Contracts-AUG-8-2024/contracts/ECDSA.sol\":7291:7311  RecoverError.NoError */\n      0x00\n        /* \"contracts/AUG-8/Contracts-AUG-8-2024/contracts/ECDSA.sol\":7282:7287  error */\n      dup3\n        /* \"contracts/AUG-8/Contracts-AUG-8-2024/contracts/ECDSA.sol\":7282:7311  error == RecoverError.NoError */\n      0x03\n      dup2\n      gt\n      iszero\n      tag_296\n      jumpi\n      tag_296\n      tag_294\n      jump\t// in\n    tag_296:\n      sub\n        /* \"contracts/AUG-8/Contracts-AUG-8-2024/contracts/ECDSA.sol\":7278:7722  if (error == RecoverError.NoError) {... */\n      tag_297\n      jumpi\n        /* \"contracts/AUG-8/Contracts-AUG-8-2024/contracts/ECDSA.sol\":7196:7728  function _throwError(RecoverError error, bytes32 errorArg) private pure {... */\n      pop\n      pop\n      jump\t// out\n        /* \"contracts/AUG-8/Contracts-AUG-8-2024/contracts/ECDSA.sol\":7278:7722  if (error == RecoverError.NoError) {... */\n    tag_297:\n        /* \"contracts/AUG-8/Contracts-AUG-8-2024/contracts/ECDSA.sol\":7387:7416  RecoverError.InvalidSignature */\n      0x01\n        /* \"contracts/AUG-8/Contracts-AUG-8-2024/contracts/ECDSA.sol\":7378:7383  error */\n      dup3\n        /* \"contracts/AUG-8/Contracts-AUG-8-2024/contracts/ECDSA.sol\":7378:7416  error == RecoverError.InvalidSignature */\n      0x03\n      dup2\n      gt\n      iszero\n      tag_302\n      jumpi\n      tag_302\n      tag_294\n      jump\t// in\n    tag_302:\n      sub\n        /* \"contracts/AUG-8/Contracts-AUG-8-2024/contracts/ECDSA.sol\":7374:7722  if (error == RecoverError.InvalidSignature) {... */\n      tag_303\n      jumpi\n        /* \"contracts/AUG-8/Contracts-AUG-8-2024/contracts/ECDSA.sol\":7439:7462  ECDSAInvalidSignature() */\n      mload(0x40)\n      shl(0xe0, 0xf645eedf)\n      dup2\n      mstore\n      0x04\n      add\n      mload(0x40)\n      dup1\n      swap2\n      sub\n      swap1\n      revert\n        /* \"contracts/AUG-8/Contracts-AUG-8-2024/contracts/ECDSA.sol\":7374:7722  if (error == RecoverError.InvalidSignature) {... */\n    tag_303:\n        /* \"contracts/AUG-8/Contracts-AUG-8-2024/contracts/ECDSA.sol\":7492:7527  RecoverError.InvalidSignatureLength */\n      0x02\n        /* \"contracts/AUG-8/Contracts-AUG-8-2024/contracts/ECDSA.sol\":7483:7488  error */\n      dup3\n        /* \"contracts/AUG-8/Contracts-AUG-8-2024/contracts/ECDSA.sol\":7483:7527  error == RecoverError.InvalidSignatureLength */\n      0x03\n      dup2\n      gt\n      iszero\n      tag_308\n      jumpi\n      tag_308\n      tag_294\n      jump\t// in\n    tag_308:\n      sub\n        /* \"contracts/AUG-8/Contracts-AUG-8-2024/contracts/ECDSA.sol\":7479:7722  if (error == RecoverError.InvalidSignatureLength) {... */\n      tag_309\n      jumpi\n        /* \"contracts/AUG-8/Contracts-AUG-8-2024/contracts/ECDSA.sol\":7550:7596  ECDSAInvalidSignatureLength(uint256(errorArg)) */\n      mload(0x40)\n      shl(0xe0, 0xfce698f7)\n      dup2\n      mstore\n      0x04\n      dup2\n      add\n        /* \"#utility.yul\":644:669   */\n      dup3\n      swap1\n      mstore\n        /* \"#utility.yul\":617:635   */\n      0x24\n      add\n        /* \"contracts/AUG-8/Contracts-AUG-8-2024/contracts/ECDSA.sol\":7550:7596  ECDSAInvalidSignatureLength(uint256(errorArg)) */\n      tag_131\n        /* \"#utility.yul\":498:675   */\n      jump\n        /* \"contracts/AUG-8/Contracts-AUG-8-2024/contracts/ECDSA.sol\":7479:7722  if (error == RecoverError.InvalidSignatureLength) {... */\n    tag_309:\n        /* \"contracts/AUG-8/Contracts-AUG-8-2024/contracts/ECDSA.sol\":7626:7656  RecoverError.InvalidSignatureS */\n      0x03\n        /* \"contracts/AUG-8/Contracts-AUG-8-2024/contracts/ECDSA.sol\":7617:7622  error */\n      dup3\n        /* \"contracts/AUG-8/Contracts-AUG-8-2024/contracts/ECDSA.sol\":7617:7656  error == RecoverError.InvalidSignatureS */\n      0x03\n      dup2\n      gt\n      iszero\n      tag_315\n      jumpi\n      tag_315\n      tag_294\n      jump\t// in\n    tag_315:\n      sub\n        /* \"contracts/AUG-8/Contracts-AUG-8-2024/contracts/ECDSA.sol\":7613:7722  if (error == RecoverError.InvalidSignatureS) {... */\n      tag_316\n      jumpi\n        /* \"contracts/AUG-8/Contracts-AUG-8-2024/contracts/ECDSA.sol\":7679:7711  ECDSAInvalidSignatureS(errorArg) */\n      mload(0x40)\n      shl(0xe2, 0x35e2f383)\n      dup2\n      mstore\n      0x04\n      dup2\n      add\n        /* \"#utility.yul\":644:669   */\n      dup3\n      swap1\n      mstore\n        /* \"#utility.yul\":617:635   */\n      0x24\n      add\n        /* \"contracts/AUG-8/Contracts-AUG-8-2024/contracts/ECDSA.sol\":7679:7711  ECDSAInvalidSignatureS(errorArg) */\n      tag_131\n        /* \"#utility.yul\":498:675   */\n      jump\n        /* \"contracts/AUG-8/Contracts-AUG-8-2024/contracts/ECDSA.sol\":7613:7722  if (error == RecoverError.InvalidSignatureS) {... */\n    tag_316:\n        /* \"contracts/AUG-8/Contracts-AUG-8-2024/contracts/ECDSA.sol\":7196:7728  function _throwError(RecoverError error, bytes32 errorArg) private pure {... */\n      pop\n      pop\n      jump\t// out\n        /* \"contracts/AUG-8/Contracts-AUG-8-2024/contracts/MultiSigWallet.sol\":8286:9149  function splitSignature(bytes memory sig)... */\n    tag_281:\n        /* \"contracts/AUG-8/Contracts-AUG-8-2024/contracts/MultiSigWallet.sol\":8388:8397  bytes32 r */\n      0x00\n        /* \"contracts/AUG-8/Contracts-AUG-8-2024/contracts/MultiSigWallet.sol\":8411:8420  bytes32 s */\n      dup1\n        /* \"contracts/AUG-8/Contracts-AUG-8-2024/contracts/MultiSigWallet.sol\":8434:8441  uint8 v */\n      0x00\n        /* \"contracts/AUG-8/Contracts-AUG-8-2024/contracts/MultiSigWallet.sol\":8474:8477  sig */\n      dup4\n        /* \"contracts/AUG-8/Contracts-AUG-8-2024/contracts/MultiSigWallet.sol\":8474:8484  sig.length */\n      mload\n        /* \"contracts/AUG-8/Contracts-AUG-8-2024/contracts/MultiSigWallet.sol\":8488:8490  65 */\n      0x41\n        /* \"contracts/AUG-8/Contracts-AUG-8-2024/contracts/MultiSigWallet.sol\":8474:8490  sig.length == 65 */\n      eq\n        /* \"contracts/AUG-8/Contracts-AUG-8-2024/contracts/MultiSigWallet.sol\":8466:8519  require(sig.length == 65, \"invalid signature length\") */\n      tag_319\n      jumpi\n      mload(0x40)\n      shl(0xe5, 0x461bcd)\n      dup2\n      mstore\n        /* \"#utility.yul\":18584:18586   */\n      0x20\n        /* \"contracts/AUG-8/Contracts-AUG-8-2024/contracts/MultiSigWallet.sol\":8466:8519  require(sig.length == 65, \"invalid signature length\") */\n      0x04\n      dup3\n      add\n        /* \"#utility.yul\":18566:18587   */\n      mstore\n        /* \"#utility.yul\":18623:18625   */\n      0x18\n        /* \"#utility.yul\":18603:18621   */\n      0x24\n      dup3\n      add\n        /* \"#utility.yul\":18596:18626   */\n      mstore\n        /* \"#utility.yul\":18662:18688   */\n      0x696e76616c6964207369676e6174757265206c656e6774680000000000000000\n        /* \"#utility.yul\":18642:18660   */\n      0x44\n      dup3\n      add\n        /* \"#utility.yul\":18635:18689   */\n      mstore\n        /* \"#utility.yul\":18706:18724   */\n      0x64\n      add\n        /* \"contracts/AUG-8/Contracts-AUG-8-2024/contracts/MultiSigWallet.sol\":8466:8519  require(sig.length == 65, \"invalid signature length\") */\n      tag_131\n        /* \"#utility.yul\":18382:18730   */\n      jump\n        /* \"contracts/AUG-8/Contracts-AUG-8-2024/contracts/MultiSigWallet.sol\":8466:8519  require(sig.length == 65, \"invalid signature length\") */\n    tag_319:\n      pop\n      pop\n      pop\n        /* \"contracts/AUG-8/Contracts-AUG-8-2024/contracts/MultiSigWallet.sol\":8915:8917  32 */\n      0x20\n        /* \"contracts/AUG-8/Contracts-AUG-8-2024/contracts/MultiSigWallet.sol\":8906:8918  add(sig, 32) */\n      dup2\n      add\n        /* \"contracts/AUG-8/Contracts-AUG-8-2024/contracts/MultiSigWallet.sol\":8900:8919  mload(add(sig, 32)) */\n      mload\n        /* \"contracts/AUG-8/Contracts-AUG-8-2024/contracts/MultiSigWallet.sol\":8983:8985  64 */\n      0x40\n        /* \"contracts/AUG-8/Contracts-AUG-8-2024/contracts/MultiSigWallet.sol\":8974:8986  add(sig, 64) */\n      dup3\n      add\n        /* \"contracts/AUG-8/Contracts-AUG-8-2024/contracts/MultiSigWallet.sol\":8968:8987  mload(add(sig, 64)) */\n      mload\n        /* \"contracts/AUG-8/Contracts-AUG-8-2024/contracts/MultiSigWallet.sol\":9088:9090  96 */\n      0x60\n        /* \"contracts/AUG-8/Contracts-AUG-8-2024/contracts/MultiSigWallet.sol\":9079:9091  add(sig, 96) */\n      swap1\n      swap3\n      add\n        /* \"contracts/AUG-8/Contracts-AUG-8-2024/contracts/MultiSigWallet.sol\":9073:9092  mload(add(sig, 96)) */\n      mload\n        /* \"contracts/AUG-8/Contracts-AUG-8-2024/contracts/MultiSigWallet.sol\":8900:8919  mload(add(sig, 32)) */\n      swap1\n      swap3\n        /* \"contracts/AUG-8/Contracts-AUG-8-2024/contracts/MultiSigWallet.sol\":9070:9071  0 */\n      0x00\n        /* \"contracts/AUG-8/Contracts-AUG-8-2024/contracts/MultiSigWallet.sol\":9065:9093  byte(0, mload(add(sig, 96))) */\n      swap2\n      swap1\n      swap2\n      byte\n      swap1\n        /* \"contracts/AUG-8/Contracts-AUG-8-2024/contracts/MultiSigWallet.sol\":8286:9149  function splitSignature(bytes memory sig)... */\n      jump\t// out\n        /* \"contracts/AUG-8/Contracts-AUG-8-2024/contracts/ECDSA.sol\":5140:6670  function tryRecover(... */\n    tag_289:\n        /* \"contracts/AUG-8/Contracts-AUG-8-2024/contracts/ECDSA.sol\":5266:5273  address */\n      0x00\n      dup1\n      dup1\n        /* \"contracts/AUG-8/Contracts-AUG-8-2024/contracts/ECDSA.sol\":6199:6265  0x7FFFFFFFFFFFFFFFFFFFFFFFFFFFFFFF5D576E7357A4501DDFE92F46681B20A0 */\n      0x7fffffffffffffffffffffffffffffff5d576e7357a4501ddfe92f46681b20a0\n        /* \"contracts/AUG-8/Contracts-AUG-8-2024/contracts/ECDSA.sol\":6186:6265  uint256(s) > 0x7FFFFFFFFFFFFFFFFFFFFFFFFFFFFFFF5D576E7357A4501DDFE92F46681B20A0 */\n      dup5\n      gt\n        /* \"contracts/AUG-8/Contracts-AUG-8-2024/contracts/ECDSA.sol\":6182:6346  if (uint256(s) > 0x7FFFFFFFFFFFFFFFFFFFFFFFFFFFFFFF5D576E7357A4501DDFE92F46681B20A0) {... */\n      iszero\n      tag_323\n      jumpi\n      pop\n        /* \"contracts/AUG-8/Contracts-AUG-8-2024/contracts/ECDSA.sol\":6297:6298  0 */\n      0x00\n      swap2\n      pop\n        /* \"contracts/AUG-8/Contracts-AUG-8-2024/contracts/ECDSA.sol\":6301:6331  RecoverError.InvalidSignatureS */\n      0x03\n      swap1\n      pop\n        /* \"contracts/AUG-8/Contracts-AUG-8-2024/contracts/ECDSA.sol\":6333:6334  s */\n      dup3\n        /* \"contracts/AUG-8/Contracts-AUG-8-2024/contracts/ECDSA.sol\":6281:6335  return (address(0), RecoverError.InvalidSignatureS, s) */\n      jump(tag_322)\n        /* \"contracts/AUG-8/Contracts-AUG-8-2024/contracts/ECDSA.sol\":6182:6346  if (uint256(s) > 0x7FFFFFFFFFFFFFFFFFFFFFFFFFFFFFFF5D576E7357A4501DDFE92F46681B20A0) {... */\n    tag_323:\n        /* \"contracts/AUG-8/Contracts-AUG-8-2024/contracts/ECDSA.sol\":6457:6481  ecrecover(hash, v, r, s) */\n      0x40\n      dup1\n      mload\n        /* \"contracts/AUG-8/Contracts-AUG-8-2024/contracts/ECDSA.sol\":6440:6454  address signer */\n      0x00\n        /* \"contracts/AUG-8/Contracts-AUG-8-2024/contracts/ECDSA.sol\":6457:6481  ecrecover(hash, v, r, s) */\n      dup1\n      dup3\n      mstore\n      0x20\n      dup3\n      add\n      dup1\n      dup5\n      mstore\n        /* \"#utility.yul\":18074:18099   */\n      dup11\n      swap1\n      mstore\n        /* \"#utility.yul\":18147:18151   */\n      0xff\n        /* \"#utility.yul\":18135:18152   */\n      dup10\n      and\n        /* \"#utility.yul\":18115:18133   */\n      swap3\n      dup3\n      add\n        /* \"#utility.yul\":18108:18153   */\n      swap3\n      swap1\n      swap3\n      mstore\n        /* \"#utility.yul\":18169:18187   */\n      0x60\n      dup2\n      add\n        /* \"#utility.yul\":18162:18196   */\n      dup8\n      swap1\n      mstore\n        /* \"#utility.yul\":18212:18230   */\n      0x80\n      dup2\n      add\n        /* \"#utility.yul\":18205:18239   */\n      dup7\n      swap1\n      mstore\n        /* \"contracts/AUG-8/Contracts-AUG-8-2024/contracts/ECDSA.sol\":6457:6481  ecrecover(hash, v, r, s) */\n      0x01\n      swap1\n        /* \"#utility.yul\":18046:18065   */\n      0xa0\n      add\n        /* \"contracts/AUG-8/Contracts-AUG-8-2024/contracts/ECDSA.sol\":6457:6481  ecrecover(hash, v, r, s) */\n      0x20\n      mload(0x40)\n      0x20\n      dup2\n      sub\n      swap1\n      dup1\n      dup5\n      sub\n      swap1\n      dup6\n      gas\n      staticcall\n      iszero\n      dup1\n      iszero\n      tag_326\n      jumpi\n      returndatasize\n      0x00\n      dup1\n      returndatacopy\n      revert(0x00, returndatasize)\n    tag_326:\n      pop\n      pop\n      mload(add(not(0x1f), mload(0x40)))\n      swap2\n      pop\n      pop\n      sub(shl(0xa0, 0x01), 0x01)\n        /* \"contracts/AUG-8/Contracts-AUG-8-2024/contracts/ECDSA.sol\":6495:6515  signer == address(0) */\n      dup2\n      and\n        /* \"contracts/AUG-8/Contracts-AUG-8-2024/contracts/ECDSA.sol\":6491:6604  if (signer == address(0)) {... */\n      tag_327\n      jumpi\n      pop\n        /* \"contracts/AUG-8/Contracts-AUG-8-2024/contracts/ECDSA.sol\":6547:6548  0 */\n      0x00\n      swap3\n      pop\n        /* \"contracts/AUG-8/Contracts-AUG-8-2024/contracts/ECDSA.sol\":6551:6580  RecoverError.InvalidSignature */\n      0x01\n      swap2\n      pop\n        /* \"contracts/AUG-8/Contracts-AUG-8-2024/contracts/ECDSA.sol\":6547:6548  0 */\n      dup3\n      swap1\n      pop\n        /* \"contracts/AUG-8/Contracts-AUG-8-2024/contracts/ECDSA.sol\":6531:6593  return (address(0), RecoverError.InvalidSignature, bytes32(0)) */\n      jump(tag_322)\n        /* \"contracts/AUG-8/Contracts-AUG-8-2024/contracts/ECDSA.sol\":6491:6604  if (signer == address(0)) {... */\n    tag_327:\n        /* \"contracts/AUG-8/Contracts-AUG-8-2024/contracts/ECDSA.sol\":6622:6628  signer */\n      swap3\n      pop\n        /* \"contracts/AUG-8/Contracts-AUG-8-2024/contracts/ECDSA.sol\":6630:6650  RecoverError.NoError */\n      0x00\n      swap2\n      pop\n      dup2\n      swap1\n      pop\n        /* \"contracts/AUG-8/Contracts-AUG-8-2024/contracts/ECDSA.sol\":5140:6670  function tryRecover(... */\n    tag_322:\n      swap5\n      pop\n      swap5\n      pop\n      swap5\n      swap2\n      pop\n      pop\n      jump\t// out\n        /* \"#utility.yul\":267:493   */\n    tag_30:\n        /* \"#utility.yul\":326:332   */\n      0x00\n        /* \"#utility.yul\":379:381   */\n      0x20\n        /* \"#utility.yul\":367:376   */\n      dup3\n        /* \"#utility.yul\":358:365   */\n      dup5\n        /* \"#utility.yul\":354:377   */\n      sub\n        /* \"#utility.yul\":350:382   */\n      slt\n        /* \"#utility.yul\":347:399   */\n      iszero\n      tag_338\n      jumpi\n        /* \"#utility.yul\":395:396   */\n      0x00\n        /* \"#utility.yul\":392:393   */\n      dup1\n        /* \"#utility.yul\":385:397   */\n      revert\n        /* \"#utility.yul\":347:399   */\n    tag_338:\n      pop\n        /* \"#utility.yul\":440:463   */\n      calldataload\n      swap2\n        /* \"#utility.yul\":267:493   */\n      swap1\n      pop\n      jump\t// out\n        /* \"#utility.yul\":888:1015   */\n    tag_234:\n        /* \"#utility.yul\":949:959   */\n      0x4e487b71\n        /* \"#utility.yul\":944:947   */\n      0xe0\n        /* \"#utility.yul\":940:960   */\n      shl\n        /* \"#utility.yul\":937:938   */\n      0x00\n        /* \"#utility.yul\":930:961   */\n      mstore\n        /* \"#utility.yul\":980:984   */\n      0x41\n        /* \"#utility.yul\":977:978   */\n      0x04\n        /* \"#utility.yul\":970:985   */\n      mstore\n        /* \"#utility.yul\":1004:1008   */\n      0x24\n        /* \"#utility.yul\":1001:1002   */\n      0x00\n        /* \"#utility.yul\":994:1009   */\n      revert\n        /* \"#utility.yul\":1020:1909   */\n    tag_328:\n        /* \"#utility.yul\":1063:1068   */\n      0x00\n        /* \"#utility.yul\":1116:1119   */\n      dup3\n        /* \"#utility.yul\":1109:1113   */\n      0x1f\n        /* \"#utility.yul\":1101:1107   */\n      dup4\n        /* \"#utility.yul\":1097:1114   */\n      add\n        /* \"#utility.yul\":1093:1120   */\n      slt\n        /* \"#utility.yul\":1083:1138   */\n      tag_343\n      jumpi\n        /* \"#utility.yul\":1134:1135   */\n      0x00\n        /* \"#utility.yul\":1131:1132   */\n      dup1\n        /* \"#utility.yul\":1124:1136   */\n      revert\n        /* \"#utility.yul\":1083:1138   */\n    tag_343:\n        /* \"#utility.yul\":1174:1180   */\n      dup2\n        /* \"#utility.yul\":1161:1181   */\n      calldataload\n        /* \"#utility.yul\":1213:1217   */\n      0x20\n        /* \"#utility.yul\":1205:1211   */\n      dup4\n        /* \"#utility.yul\":1201:1218   */\n      add\n        /* \"#utility.yul\":1242:1243   */\n      0x00\n        /* \"#utility.yul\":1264:1265   */\n      dup1\n        /* \"#utility.yul\":1288:1306   */\n      0xffffffffffffffff\n        /* \"#utility.yul\":1280:1286   */\n      dup5\n        /* \"#utility.yul\":1277:1307   */\n      gt\n        /* \"#utility.yul\":1274:1330   */\n      iszero\n      tag_345\n      jumpi\n        /* \"#utility.yul\":1310:1328   */\n      tag_345\n      tag_234\n      jump\t// in\n    tag_345:\n      pop\n        /* \"#utility.yul\":1465:1467   */\n      0x40\n        /* \"#utility.yul\":1459:1468   */\n      mload\n      not(0x1f)\n        /* \"#utility.yul\":1378:1380   */\n      0x1f\n        /* \"#utility.yul\":1357:1372   */\n      dup6\n      add\n        /* \"#utility.yul\":1353:1382   */\n      dup2\n      and\n        /* \"#utility.yul\":1523:1525   */\n      0x3f\n        /* \"#utility.yul\":1511:1526   */\n      add\n        /* \"#utility.yul\":1507:1536   */\n      and\n        /* \"#utility.yul\":1495:1537   */\n      dup2\n      add\n        /* \"#utility.yul\":1588:1610   */\n      dup2\n      dup2\n      lt\n        /* \"#utility.yul\":1567:1585   */\n      0xffffffffffffffff\n        /* \"#utility.yul\":1552:1586   */\n      dup3\n      gt\n        /* \"#utility.yul\":1549:1611   */\n      or\n        /* \"#utility.yul\":1546:1634   */\n      iszero\n      tag_347\n      jumpi\n        /* \"#utility.yul\":1614:1632   */\n      tag_347\n      tag_234\n      jump\t// in\n    tag_347:\n        /* \"#utility.yul\":1650:1652   */\n      0x40\n        /* \"#utility.yul\":1643:1665   */\n      mstore\n        /* \"#utility.yul\":1700:1722   */\n      dup4\n      dup2\n      mstore\n        /* \"#utility.yul\":1685:1691   */\n      swap1\n      pop\n      dup1\n        /* \"#utility.yul\":1737:1753   */\n      dup3\n      dup5\n      add\n        /* \"#utility.yul\":1734:1759   */\n      dup8\n      lt\n        /* \"#utility.yul\":1731:1776   */\n      iszero\n      tag_348\n      jumpi\n        /* \"#utility.yul\":1772:1773   */\n      0x00\n        /* \"#utility.yul\":1769:1770   */\n      dup1\n        /* \"#utility.yul\":1762:1774   */\n      revert\n        /* \"#utility.yul\":1731:1776   */\n    tag_348:\n        /* \"#utility.yul\":1822:1828   */\n      dup4\n        /* \"#utility.yul\":1817:1820   */\n      dup4\n        /* \"#utility.yul\":1810:1814   */\n      0x20\n        /* \"#utility.yul\":1802:1808   */\n      dup4\n        /* \"#utility.yul\":1798:1815   */\n      add\n        /* \"#utility.yul\":1785:1829   */\n      calldatacopy\n        /* \"#utility.yul\":1877:1878   */\n      0x00\n        /* \"#utility.yul\":1870:1874   */\n      0x20\n        /* \"#utility.yul\":1861:1867   */\n      dup6\n        /* \"#utility.yul\":1853:1859   */\n      dup4\n        /* \"#utility.yul\":1849:1868   */\n      add\n        /* \"#utility.yul\":1845:1875   */\n      add\n        /* \"#utility.yul\":1838:1879   */\n      mstore\n        /* \"#utility.yul\":1897:1903   */\n      dup1\n        /* \"#utility.yul\":1888:1903   */\n      swap5\n      pop\n      pop\n      pop\n      pop\n      pop\n        /* \"#utility.yul\":1020:1909   */\n      swap3\n      swap2\n      pop\n      pop\n      jump\t// out\n        /* \"#utility.yul\":1914:2236   */\n    tag_43:\n        /* \"#utility.yul\":1983:1989   */\n      0x00\n        /* \"#utility.yul\":2036:2038   */\n      0x20\n        /* \"#utility.yul\":2024:2033   */\n      dup3\n        /* \"#utility.yul\":2015:2022   */\n      dup5\n        /* \"#utility.yul\":2011:2034   */\n      sub\n        /* \"#utility.yul\":2007:2039   */\n      slt\n        /* \"#utility.yul\":2004:2056   */\n      iszero\n      tag_350\n      jumpi\n        /* \"#utility.yul\":2052:2053   */\n      0x00\n        /* \"#utility.yul\":2049:2050   */\n      dup1\n        /* \"#utility.yul\":2042:2054   */\n      revert\n        /* \"#utility.yul\":2004:2056   */\n    tag_350:\n        /* \"#utility.yul\":2092:2101   */\n      dup2\n        /* \"#utility.yul\":2079:2102   */\n      calldataload\n        /* \"#utility.yul\":2125:2143   */\n      0xffffffffffffffff\n        /* \"#utility.yul\":2117:2123   */\n      dup2\n        /* \"#utility.yul\":2114:2144   */\n      gt\n        /* \"#utility.yul\":2111:2161   */\n      iszero\n      tag_351\n      jumpi\n        /* \"#utility.yul\":2157:2158   */\n      0x00\n        /* \"#utility.yul\":2154:2155   */\n      dup1\n        /* \"#utility.yul\":2147:2159   */\n      revert\n        /* \"#utility.yul\":2111:2161   */\n    tag_351:\n        /* \"#utility.yul\":2180:2230   */\n      tag_352\n        /* \"#utility.yul\":2222:2229   */\n      dup5\n        /* \"#utility.yul\":2213:2219   */\n      dup3\n        /* \"#utility.yul\":2202:2211   */\n      dup6\n        /* \"#utility.yul\":2198:2220   */\n      add\n        /* \"#utility.yul\":2180:2230   */\n      tag_328\n      jump\t// in\n    tag_352:\n        /* \"#utility.yul\":2170:2230   */\n      swap5\n        /* \"#utility.yul\":1914:2236   */\n      swap4\n      pop\n      pop\n      pop\n      pop\n      jump\t// out\n        /* \"#utility.yul\":2241:2630   */\n    tag_49:\n        /* \"#utility.yul\":2318:2324   */\n      0x00\n        /* \"#utility.yul\":2326:2332   */\n      dup1\n        /* \"#utility.yul\":2379:2381   */\n      0x40\n        /* \"#utility.yul\":2367:2376   */\n      dup4\n        /* \"#utility.yul\":2358:2365   */\n      dup6\n        /* \"#utility.yul\":2354:2377   */\n      sub\n        /* \"#utility.yul\":2350:2382   */\n      slt\n        /* \"#utility.yul\":2347:2399   */\n      iszero\n      tag_354\n      jumpi\n        /* \"#utility.yul\":2395:2396   */\n      0x00\n        /* \"#utility.yul\":2392:2393   */\n      dup1\n        /* \"#utility.yul\":2385:2397   */\n      revert\n        /* \"#utility.yul\":2347:2399   */\n    tag_354:\n        /* \"#utility.yul\":2431:2440   */\n      dup3\n        /* \"#utility.yul\":2418:2441   */\n      calldataload\n        /* \"#utility.yul\":2408:2441   */\n      swap2\n      pop\n        /* \"#utility.yul\":2492:2494   */\n      0x20\n        /* \"#utility.yul\":2481:2490   */\n      dup4\n        /* \"#utility.yul\":2477:2495   */\n      add\n        /* \"#utility.yul\":2464:2496   */\n      calldataload\n        /* \"#utility.yul\":2519:2537   */\n      0xffffffffffffffff\n        /* \"#utility.yul\":2511:2517   */\n      dup2\n        /* \"#utility.yul\":2508:2538   */\n      gt\n        /* \"#utility.yul\":2505:2555   */\n      iszero\n      tag_355\n      jumpi\n        /* \"#utility.yul\":2551:2552   */\n      0x00\n        /* \"#utility.yul\":2548:2549   */\n      dup1\n        /* \"#utility.yul\":2541:2553   */\n      revert\n        /* \"#utility.yul\":2505:2555   */\n    tag_355:\n        /* \"#utility.yul\":2574:2624   */\n      tag_356\n        /* \"#utility.yul\":2616:2623   */\n      dup6\n        /* \"#utility.yul\":2607:2613   */\n      dup3\n        /* \"#utility.yul\":2596:2605   */\n      dup7\n        /* \"#utility.yul\":2592:2614   */\n      add\n        /* \"#utility.yul\":2574:2624   */\n      tag_328\n      jump\t// in\n    tag_356:\n        /* \"#utility.yul\":2564:2624   */\n      swap2\n      pop\n      pop\n        /* \"#utility.yul\":2241:2630   */\n      swap3\n      pop\n      swap3\n      swap1\n      pop\n      jump\t// out\n        /* \"#utility.yul\":2635:2766   */\n    tag_329:\n      sub(shl(0xa0, 0x01), 0x01)\n        /* \"#utility.yul\":2710:2741   */\n      dup2\n      and\n        /* \"#utility.yul\":2700:2742   */\n      dup2\n      eq\n        /* \"#utility.yul\":2690:2760   */\n      tag_358\n      jumpi\n        /* \"#utility.yul\":2756:2757   */\n      0x00\n        /* \"#utility.yul\":2753:2754   */\n      dup1\n        /* \"#utility.yul\":2746:2758   */\n      revert\n        /* \"#utility.yul\":2690:2760   */\n    tag_358:\n        /* \"#utility.yul\":2635:2766   */\n      pop\n      jump\t// out\n        /* \"#utility.yul\":2771:3279   */\n    tag_55:\n        /* \"#utility.yul\":2848:2854   */\n      0x00\n        /* \"#utility.yul\":2856:2862   */\n      dup1\n        /* \"#utility.yul\":2864:2870   */\n      0x00\n        /* \"#utility.yul\":2917:2919   */\n      0x60\n        /* \"#utility.yul\":2905:2914   */\n      dup5\n        /* \"#utility.yul\":2896:2903   */\n      dup7\n        /* \"#utility.yul\":2892:2915   */\n      sub\n        /* \"#utility.yul\":2888:2920   */\n      slt\n        /* \"#utility.yul\":2885:2937   */\n      iszero\n      tag_360\n      jumpi\n        /* \"#utility.yul\":2933:2934   */\n      0x00\n        /* \"#utility.yul\":2930:2931   */\n      dup1\n        /* \"#utility.yul\":2923:2935   */\n      revert\n        /* \"#utility.yul\":2885:2937   */\n    tag_360:\n        /* \"#utility.yul\":2972:2981   */\n      dup4\n        /* \"#utility.yul\":2959:2982   */\n      calldataload\n        /* \"#utility.yul\":2991:3022   */\n      tag_361\n        /* \"#utility.yul\":3016:3021   */\n      dup2\n        /* \"#utility.yul\":2991:3022   */\n      tag_329\n      jump\t// in\n    tag_361:\n        /* \"#utility.yul\":3041:3046   */\n      swap3\n      pop\n        /* \"#utility.yul\":3098:3100   */\n      0x20\n        /* \"#utility.yul\":3083:3101   */\n      dup5\n      add\n        /* \"#utility.yul\":3070:3102   */\n      calldataload\n        /* \"#utility.yul\":3111:3144   */\n      tag_362\n        /* \"#utility.yul\":3070:3102   */\n      dup2\n        /* \"#utility.yul\":3111:3144   */\n      tag_329\n      jump\t// in\n    tag_362:\n        /* \"#utility.yul\":2771:3279   */\n      swap3\n      swap6\n        /* \"#utility.yul\":3163:3170   */\n      swap3\n      swap5\n      pop\n      pop\n      pop\n        /* \"#utility.yul\":3243:3245   */\n      0x40\n        /* \"#utility.yul\":3228:3246   */\n      swap2\n      swap1\n      swap2\n      add\n        /* \"#utility.yul\":3215:3247   */\n      calldataload\n      swap1\n        /* \"#utility.yul\":2771:3279   */\n      jump\t// out\n        /* \"#utility.yul\":3284:3531   */\n    tag_60:\n        /* \"#utility.yul\":3343:3349   */\n      0x00\n        /* \"#utility.yul\":3396:3398   */\n      0x20\n        /* \"#utility.yul\":3384:3393   */\n      dup3\n        /* \"#utility.yul\":3375:3382   */\n      dup5\n        /* \"#utility.yul\":3371:3394   */\n      sub\n        /* \"#utility.yul\":3367:3399   */\n      slt\n        /* \"#utility.yul\":3364:3416   */\n      iszero\n      tag_364\n      jumpi\n        /* \"#utility.yul\":3412:3413   */\n      0x00\n        /* \"#utility.yul\":3409:3410   */\n      dup1\n        /* \"#utility.yul\":3402:3414   */\n      revert\n        /* \"#utility.yul\":3364:3416   */\n    tag_364:\n        /* \"#utility.yul\":3451:3460   */\n      dup2\n        /* \"#utility.yul\":3438:3461   */\n      calldataload\n        /* \"#utility.yul\":3470:3501   */\n      tag_365\n        /* \"#utility.yul\":3495:3500   */\n      dup2\n        /* \"#utility.yul\":3470:3501   */\n      tag_329\n      jump\t// in\n    tag_365:\n        /* \"#utility.yul\":3520:3525   */\n      swap4\n        /* \"#utility.yul\":3284:3531   */\n      swap3\n      pop\n      pop\n      pop\n      jump\t// out\n        /* \"#utility.yul\":3728:4215   */\n    tag_67:\n        /* \"#utility.yul\":3805:3811   */\n      0x00\n        /* \"#utility.yul\":3813:3819   */\n      dup1\n        /* \"#utility.yul\":3821:3827   */\n      0x00\n        /* \"#utility.yul\":3874:3876   */\n      0x60\n        /* \"#utility.yul\":3862:3871   */\n      dup5\n        /* \"#utility.yul\":3853:3860   */\n      dup7\n        /* \"#utility.yul\":3849:3872   */\n      sub\n        /* \"#utility.yul\":3845:3877   */\n      slt\n        /* \"#utility.yul\":3842:3894   */\n      iszero\n      tag_368\n      jumpi\n        /* \"#utility.yul\":3890:3891   */\n      0x00\n        /* \"#utility.yul\":3887:3888   */\n      dup1\n        /* \"#utility.yul\":3880:3892   */\n      revert\n        /* \"#utility.yul\":3842:3894   */\n    tag_368:\n        /* \"#utility.yul\":3935:3958   */\n      dup4\n      calldataload\n      swap3\n      pop\n        /* \"#utility.yul\":4034:4036   */\n      0x20\n        /* \"#utility.yul\":4019:4037   */\n      dup5\n      add\n        /* \"#utility.yul\":4006:4038   */\n      calldataload\n        /* \"#utility.yul\":4047:4080   */\n      tag_362\n        /* \"#utility.yul\":4006:4038   */\n      dup2\n        /* \"#utility.yul\":4047:4080   */\n      tag_329\n      jump\t// in\n        /* \"#utility.yul\":4402:4691   */\n    tag_330:\n        /* \"#utility.yul\":4444:4447   */\n      0x00\n        /* \"#utility.yul\":4482:4487   */\n      dup2\n        /* \"#utility.yul\":4476:4488   */\n      mload\n        /* \"#utility.yul\":4509:4515   */\n      dup1\n        /* \"#utility.yul\":4504:4507   */\n      dup5\n        /* \"#utility.yul\":4497:4516   */\n      mstore\n        /* \"#utility.yul\":4565:4571   */\n      dup1\n        /* \"#utility.yul\":4558:4562   */\n      0x20\n        /* \"#utility.yul\":4551:4556   */\n      dup5\n        /* \"#utility.yul\":4547:4563   */\n      add\n        /* \"#utility.yul\":4540:4544   */\n      0x20\n        /* \"#utility.yul\":4535:4538   */\n      dup7\n        /* \"#utility.yul\":4531:4545   */\n      add\n        /* \"#utility.yul\":4525:4572   */\n      mcopy\n        /* \"#utility.yul\":4617:4618   */\n      0x00\n        /* \"#utility.yul\":4610:4614   */\n      0x20\n        /* \"#utility.yul\":4601:4607   */\n      dup3\n        /* \"#utility.yul\":4596:4599   */\n      dup7\n        /* \"#utility.yul\":4592:4608   */\n      add\n        /* \"#utility.yul\":4588:4615   */\n      add\n        /* \"#utility.yul\":4581:4619   */\n      mstore\n        /* \"#utility.yul\":4680:4684   */\n      0x20\n        /* \"#utility.yul\":4673:4675   */\n      0x1f\n        /* \"#utility.yul\":4669:4676   */\n      not\n        /* \"#utility.yul\":4664:4666   */\n      0x1f\n        /* \"#utility.yul\":4656:4662   */\n      dup4\n        /* \"#utility.yul\":4652:4667   */\n      add\n        /* \"#utility.yul\":4648:4677   */\n      and\n        /* \"#utility.yul\":4643:4646   */\n      dup6\n        /* \"#utility.yul\":4639:4678   */\n      add\n        /* \"#utility.yul\":4635:4685   */\n      add\n        /* \"#utility.yul\":4628:4685   */\n      swap2\n      pop\n      pop\n        /* \"#utility.yul\":4402:4691   */\n      swap3\n      swap2\n      pop\n      pop\n      jump\t// out\n        /* \"#utility.yul\":4696:4916   */\n    tag_80:\n        /* \"#utility.yul\":4845:4847   */\n      0x20\n        /* \"#utility.yul\":4834:4843   */\n      dup2\n        /* \"#utility.yul\":4827:4848   */\n      mstore\n        /* \"#utility.yul\":4808:4812   */\n      0x00\n        /* \"#utility.yul\":4865:4910   */\n      tag_127\n        /* \"#utility.yul\":4906:4908   */\n      0x20\n        /* \"#utility.yul\":4895:4904   */\n      dup4\n        /* \"#utility.yul\":4891:4909   */\n      add\n        /* \"#utility.yul\":4883:4889   */\n      dup5\n        /* \"#utility.yul\":4865:4910   */\n      tag_330\n      jump\t// in\n        /* \"#utility.yul\":4921:5640   */\n    tag_97:\n        /* \"#utility.yul\":5017:5023   */\n      0x00\n        /* \"#utility.yul\":5025:5031   */\n      dup1\n        /* \"#utility.yul\":5033:5039   */\n      0x00\n        /* \"#utility.yul\":5041:5047   */\n      dup1\n        /* \"#utility.yul\":5094:5097   */\n      0x80\n        /* \"#utility.yul\":5082:5091   */\n      dup6\n        /* \"#utility.yul\":5073:5080   */\n      dup8\n        /* \"#utility.yul\":5069:5092   */\n      sub\n        /* \"#utility.yul\":5065:5098   */\n      slt\n        /* \"#utility.yul\":5062:5115   */\n      iszero\n      tag_375\n      jumpi\n        /* \"#utility.yul\":5111:5112   */\n      0x00\n        /* \"#utility.yul\":5108:5109   */\n      dup1\n        /* \"#utility.yul\":5101:5113   */\n      revert\n        /* \"#utility.yul\":5062:5115   */\n    tag_375:\n        /* \"#utility.yul\":5151:5160   */\n      dup5\n        /* \"#utility.yul\":5138:5161   */\n      calldataload\n        /* \"#utility.yul\":5184:5202   */\n      0xffffffffffffffff\n        /* \"#utility.yul\":5176:5182   */\n      dup2\n        /* \"#utility.yul\":5173:5203   */\n      gt\n        /* \"#utility.yul\":5170:5220   */\n      iszero\n      tag_376\n      jumpi\n        /* \"#utility.yul\":5216:5217   */\n      0x00\n        /* \"#utility.yul\":5213:5214   */\n      dup1\n        /* \"#utility.yul\":5206:5218   */\n      revert\n        /* \"#utility.yul\":5170:5220   */\n    tag_376:\n        /* \"#utility.yul\":5239:5289   */\n      tag_377\n        /* \"#utility.yul\":5281:5288   */\n      dup8\n        /* \"#utility.yul\":5272:5278   */\n      dup3\n        /* \"#utility.yul\":5261:5270   */\n      dup9\n        /* \"#utility.yul\":5257:5279   */\n      add\n        /* \"#utility.yul\":5239:5289   */\n      tag_328\n      jump\t// in\n    tag_377:\n        /* \"#utility.yul\":5229:5289   */\n      swap5\n      pop\n      pop\n        /* \"#utility.yul\":5339:5341   */\n      0x20\n        /* \"#utility.yul\":5328:5337   */\n      dup6\n        /* \"#utility.yul\":5324:5342   */\n      add\n        /* \"#utility.yul\":5311:5343   */\n      calldataload\n        /* \"#utility.yul\":5352:5383   */\n      tag_378\n        /* \"#utility.yul\":5377:5382   */\n      dup2\n        /* \"#utility.yul\":5352:5383   */\n      tag_329\n      jump\t// in\n    tag_378:\n        /* \"#utility.yul\":5402:5407   */\n      swap3\n      pop\n        /* \"#utility.yul\":5459:5461   */\n      0x40\n        /* \"#utility.yul\":5444:5462   */\n      dup6\n      add\n        /* \"#utility.yul\":5431:5463   */\n      calldataload\n        /* \"#utility.yul\":5472:5505   */\n      tag_379\n        /* \"#utility.yul\":5431:5463   */\n      dup2\n        /* \"#utility.yul\":5472:5505   */\n      tag_329\n      jump\t// in\n    tag_379:\n        /* \"#utility.yul\":4921:5640   */\n      swap4\n      swap7\n      swap3\n      swap6\n      pop\n        /* \"#utility.yul\":5524:5531   */\n      swap3\n      swap4\n        /* \"#utility.yul\":5604:5606   */\n      0x60\n        /* \"#utility.yul\":5589:5607   */\n      add\n        /* \"#utility.yul\":5576:5608   */\n      calldataload\n      swap3\n      pop\n      pop\n        /* \"#utility.yul\":4921:5640   */\n      jump\t// out\n        /* \"#utility.yul\":5868:7007   */\n    tag_112:\n        /* \"#utility.yul\":6009:6015   */\n      0x00\n        /* \"#utility.yul\":6017:6023   */\n      dup1\n        /* \"#utility.yul\":6025:6031   */\n      0x00\n        /* \"#utility.yul\":6033:6039   */\n      dup1\n        /* \"#utility.yul\":6041:6047   */\n      0x00\n        /* \"#utility.yul\":6049:6055   */\n      dup1\n        /* \"#utility.yul\":6102:6105   */\n      0xc0\n        /* \"#utility.yul\":6090:6099   */\n      dup8\n        /* \"#utility.yul\":6081:6088   */\n      dup10\n        /* \"#utility.yul\":6077:6100   */\n      sub\n        /* \"#utility.yul\":6073:6106   */\n      slt\n        /* \"#utility.yul\":6070:6123   */\n      iszero\n      tag_383\n      jumpi\n        /* \"#utility.yul\":6119:6120   */\n      0x00\n        /* \"#utility.yul\":6116:6117   */\n      dup1\n        /* \"#utility.yul\":6109:6121   */\n      revert\n        /* \"#utility.yul\":6070:6123   */\n    tag_383:\n        /* \"#utility.yul\":6158:6167   */\n      dup7\n        /* \"#utility.yul\":6145:6168   */\n      calldataload\n        /* \"#utility.yul\":6177:6208   */\n      tag_384\n        /* \"#utility.yul\":6202:6207   */\n      dup2\n        /* \"#utility.yul\":6177:6208   */\n      tag_329\n      jump\t// in\n    tag_384:\n        /* \"#utility.yul\":6227:6232   */\n      swap6\n      pop\n        /* \"#utility.yul\":6305:6307   */\n      0x20\n        /* \"#utility.yul\":6290:6308   */\n      dup8\n      add\n        /* \"#utility.yul\":6277:6309   */\n      calldataload\n      swap5\n      pop\n        /* \"#utility.yul\":6386:6388   */\n      0x40\n        /* \"#utility.yul\":6371:6389   */\n      dup8\n      add\n        /* \"#utility.yul\":6358:6390   */\n      calldataload\n        /* \"#utility.yul\":6413:6431   */\n      0xffffffffffffffff\n        /* \"#utility.yul\":6402:6432   */\n      dup2\n      gt\n        /* \"#utility.yul\":6399:6449   */\n      iszero\n      tag_385\n      jumpi\n        /* \"#utility.yul\":6445:6446   */\n      0x00\n        /* \"#utility.yul\":6442:6443   */\n      dup1\n        /* \"#utility.yul\":6435:6447   */\n      revert\n        /* \"#utility.yul\":6399:6449   */\n    tag_385:\n        /* \"#utility.yul\":6468:6518   */\n      tag_386\n        /* \"#utility.yul\":6510:6517   */\n      dup10\n        /* \"#utility.yul\":6501:6507   */\n      dup3\n        /* \"#utility.yul\":6490:6499   */\n      dup11\n        /* \"#utility.yul\":6486:6508   */\n      add\n        /* \"#utility.yul\":6468:6518   */\n      tag_328\n      jump\t// in\n    tag_386:\n        /* \"#utility.yul\":6458:6518   */\n      swap5\n      pop\n      pop\n        /* \"#utility.yul\":6571:6573   */\n      0x60\n        /* \"#utility.yul\":6560:6569   */\n      dup8\n        /* \"#utility.yul\":6556:6574   */\n      add\n        /* \"#utility.yul\":6543:6575   */\n      calldataload\n        /* \"#utility.yul\":6600:6618   */\n      0xffffffffffffffff\n        /* \"#utility.yul\":6590:6598   */\n      dup2\n        /* \"#utility.yul\":6587:6619   */\n      gt\n        /* \"#utility.yul\":6584:6636   */\n      iszero\n      tag_387\n      jumpi\n        /* \"#utility.yul\":6632:6633   */\n      0x00\n        /* \"#utility.yul\":6629:6630   */\n      dup1\n        /* \"#utility.yul\":6622:6634   */\n      revert\n        /* \"#utility.yul\":6584:6636   */\n    tag_387:\n        /* \"#utility.yul\":6655:6707   */\n      tag_388\n        /* \"#utility.yul\":6699:6706   */\n      dup10\n        /* \"#utility.yul\":6688:6696   */\n      dup3\n        /* \"#utility.yul\":6677:6686   */\n      dup11\n        /* \"#utility.yul\":6673:6697   */\n      add\n        /* \"#utility.yul\":6655:6707   */\n      tag_328\n      jump\t// in\n    tag_388:\n        /* \"#utility.yul\":6645:6707   */\n      swap4\n      pop\n      pop\n        /* \"#utility.yul\":6760:6763   */\n      0x80\n        /* \"#utility.yul\":6749:6758   */\n      dup8\n        /* \"#utility.yul\":6745:6764   */\n      add\n        /* \"#utility.yul\":6732:6765   */\n      calldataload\n        /* \"#utility.yul\":6790:6808   */\n      0xffffffffffffffff\n        /* \"#utility.yul\":6780:6788   */\n      dup2\n        /* \"#utility.yul\":6777:6809   */\n      gt\n        /* \"#utility.yul\":6774:6826   */\n      iszero\n      tag_389\n      jumpi\n        /* \"#utility.yul\":6822:6823   */\n      0x00\n        /* \"#utility.yul\":6819:6820   */\n      dup1\n        /* \"#utility.yul\":6812:6824   */\n      revert\n        /* \"#utility.yul\":6774:6826   */\n    tag_389:\n        /* \"#utility.yul\":6845:6897   */\n      tag_390\n        /* \"#utility.yul\":6889:6896   */\n      dup10\n        /* \"#utility.yul\":6878:6886   */\n      dup3\n        /* \"#utility.yul\":6867:6876   */\n      dup11\n        /* \"#utility.yul\":6863:6887   */\n      add\n        /* \"#utility.yul\":6845:6897   */\n      tag_328\n      jump\t// in\n    tag_390:\n        /* \"#utility.yul\":5868:7007   */\n      swap7\n      swap10\n      swap6\n      swap9\n      pop\n      swap4\n      swap7\n      swap3\n      swap6\n      swap5\n        /* \"#utility.yul\":6970:6973   */\n      0xa0\n        /* \"#utility.yul\":6955:6974   */\n      swap1\n      swap4\n      add\n        /* \"#utility.yul\":6942:6975   */\n      calldataload\n      swap4\n      pop\n      pop\n      pop\n        /* \"#utility.yul\":5868:7007   */\n      jump\t// out\n        /* \"#utility.yul\":7012:7549   */\n    tag_118:\n        /* \"#utility.yul\":7099:7105   */\n      0x00\n        /* \"#utility.yul\":7107:7113   */\n      dup1\n        /* \"#utility.yul\":7160:7162   */\n      0x40\n        /* \"#utility.yul\":7148:7157   */\n      dup4\n        /* \"#utility.yul\":7139:7146   */\n      dup6\n        /* \"#utility.yul\":7135:7158   */\n      sub\n        /* \"#utility.yul\":7131:7163   */\n      slt\n        /* \"#utility.yul\":7128:7180   */\n      iszero\n      tag_392\n      jumpi\n        /* \"#utility.yul\":7176:7177   */\n      0x00\n        /* \"#utility.yul\":7173:7174   */\n      dup1\n        /* \"#utility.yul\":7166:7178   */\n      revert\n        /* \"#utility.yul\":7128:7180   */\n    tag_392:\n        /* \"#utility.yul\":7216:7225   */\n      dup3\n        /* \"#utility.yul\":7203:7226   */\n      calldataload\n        /* \"#utility.yul\":7249:7267   */\n      0xffffffffffffffff\n        /* \"#utility.yul\":7241:7247   */\n      dup2\n        /* \"#utility.yul\":7238:7268   */\n      gt\n        /* \"#utility.yul\":7235:7285   */\n      iszero\n      tag_393\n      jumpi\n        /* \"#utility.yul\":7281:7282   */\n      0x00\n        /* \"#utility.yul\":7278:7279   */\n      dup1\n        /* \"#utility.yul\":7271:7283   */\n      revert\n        /* \"#utility.yul\":7235:7285   */\n    tag_393:\n        /* \"#utility.yul\":7304:7354   */\n      tag_394\n        /* \"#utility.yul\":7346:7353   */\n      dup6\n        /* \"#utility.yul\":7337:7343   */\n      dup3\n        /* \"#utility.yul\":7326:7335   */\n      dup7\n        /* \"#utility.yul\":7322:7344   */\n      add\n        /* \"#utility.yul\":7304:7354   */\n      tag_328\n      jump\t// in\n    tag_394:\n        /* \"#utility.yul\":7294:7354   */\n      swap3\n      pop\n      pop\n        /* \"#utility.yul\":7407:7409   */\n      0x20\n        /* \"#utility.yul\":7396:7405   */\n      dup4\n        /* \"#utility.yul\":7392:7410   */\n      add\n        /* \"#utility.yul\":7379:7411   */\n      calldataload\n        /* \"#utility.yul\":7436:7454   */\n      0xffffffffffffffff\n        /* \"#utility.yul\":7426:7434   */\n      dup2\n        /* \"#utility.yul\":7423:7455   */\n      gt\n        /* \"#utility.yul\":7420:7472   */\n      iszero\n      tag_355\n      jumpi\n        /* \"#utility.yul\":7468:7469   */\n      0x00\n        /* \"#utility.yul\":7465:7466   */\n      dup1\n        /* \"#utility.yul\":7458:7470   */\n      revert\n        /* \"#utility.yul\":7554:7934   */\n    tag_158:\n        /* \"#utility.yul\":7633:7634   */\n      0x01\n        /* \"#utility.yul\":7629:7641   */\n      dup2\n      dup2\n      shr\n      swap1\n        /* \"#utility.yul\":7676:7688   */\n      dup3\n      and\n      dup1\n        /* \"#utility.yul\":7697:7758   */\n      tag_398\n      jumpi\n        /* \"#utility.yul\":7751:7755   */\n      0x7f\n        /* \"#utility.yul\":7743:7749   */\n      dup3\n        /* \"#utility.yul\":7739:7756   */\n      and\n        /* \"#utility.yul\":7729:7756   */\n      swap2\n      pop\n        /* \"#utility.yul\":7697:7758   */\n    tag_398:\n        /* \"#utility.yul\":7804:7806   */\n      0x20\n        /* \"#utility.yul\":7796:7802   */\n      dup3\n        /* \"#utility.yul\":7793:7807   */\n      lt\n        /* \"#utility.yul\":7773:7791   */\n      dup2\n        /* \"#utility.yul\":7770:7808   */\n      sub\n        /* \"#utility.yul\":7767:7928   */\n      tag_399\n      jumpi\n        /* \"#utility.yul\":7850:7860   */\n      0x4e487b71\n        /* \"#utility.yul\":7845:7848   */\n      0xe0\n        /* \"#utility.yul\":7841:7861   */\n      shl\n        /* \"#utility.yul\":7838:7839   */\n      0x00\n        /* \"#utility.yul\":7831:7862   */\n      mstore\n        /* \"#utility.yul\":7885:7889   */\n      0x22\n        /* \"#utility.yul\":7882:7883   */\n      0x04\n        /* \"#utility.yul\":7875:7890   */\n      mstore\n        /* \"#utility.yul\":7913:7917   */\n      0x24\n        /* \"#utility.yul\":7910:7911   */\n      0x00\n        /* \"#utility.yul\":7903:7918   */\n      revert\n        /* \"#utility.yul\":7767:7928   */\n    tag_399:\n      pop\n        /* \"#utility.yul\":7554:7934   */\n      swap2\n      swap1\n      pop\n      jump\t// out\n        /* \"#utility.yul\":8065:8862   */\n    tag_123:\n        /* \"#utility.yul\":8193:8196   */\n      0x00\n        /* \"#utility.yul\":8222:8223   */\n      dup1\n        /* \"#utility.yul\":8255:8261   */\n      dup4\n        /* \"#utility.yul\":8249:8262   */\n      sload\n        /* \"#utility.yul\":8285:8321   */\n      tag_402\n        /* \"#utility.yul\":8311:8320   */\n      dup2\n        /* \"#utility.yul\":8285:8321   */\n      tag_158\n      jump\t// in\n    tag_402:\n        /* \"#utility.yul\":8352:8353   */\n      0x01\n        /* \"#utility.yul\":8337:8354   */\n      dup3\n      and\n        /* \"#utility.yul\":8363:8496   */\n      dup1\n      iszero\n      tag_404\n      jumpi\n        /* \"#utility.yul\":8510:8511   */\n      0x01\n        /* \"#utility.yul\":8505:8837   */\n      dup2\n      eq\n      tag_405\n      jumpi\n        /* \"#utility.yul\":8330:8837   */\n      jump(tag_403)\n        /* \"#utility.yul\":8363:8496   */\n    tag_404:\n      not(0xff)\n        /* \"#utility.yul\":8396:8420   */\n      dup4\n      and\n        /* \"#utility.yul\":8384:8421   */\n      dup7\n      mstore\n        /* \"#utility.yul\":8469:8483   */\n      dup2\n      iszero\n        /* \"#utility.yul\":8462:8484   */\n      iszero\n        /* \"#utility.yul\":8450:8485   */\n      dup3\n      mul\n        /* \"#utility.yul\":8441:8486   */\n      dup7\n      add\n      swap4\n      pop\n        /* \"#utility.yul\":8363:8496   */\n      jump(tag_403)\n        /* \"#utility.yul\":8505:8837   */\n    tag_405:\n        /* \"#utility.yul\":8536:8542   */\n      dup7\n        /* \"#utility.yul\":8533:8534   */\n      0x00\n        /* \"#utility.yul\":8526:8543   */\n      mstore\n        /* \"#utility.yul\":8584:8588   */\n      0x20\n        /* \"#utility.yul\":8581:8582   */\n      0x00\n        /* \"#utility.yul\":8571:8589   */\n      keccak256\n        /* \"#utility.yul\":8611:8612   */\n      0x00\n        /* \"#utility.yul\":8625:8791   */\n    tag_406:\n        /* \"#utility.yul\":8639:8645   */\n      dup4\n        /* \"#utility.yul\":8636:8637   */\n      dup2\n        /* \"#utility.yul\":8633:8646   */\n      lt\n        /* \"#utility.yul\":8625:8791   */\n      iszero\n      tag_408\n      jumpi\n        /* \"#utility.yul\":8719:8733   */\n      dup2\n      sload\n        /* \"#utility.yul\":8706:8717   */\n      dup9\n      dup3\n      add\n        /* \"#utility.yul\":8699:8734   */\n      mstore\n        /* \"#utility.yul\":8775:8776   */\n      0x01\n        /* \"#utility.yul\":8762:8777   */\n      swap1\n      swap2\n      add\n      swap1\n        /* \"#utility.yul\":8661:8665   */\n      0x20\n        /* \"#utility.yul\":8654:8666   */\n      add\n        /* \"#utility.yul\":8625:8791   */\n      jump(tag_406)\n    tag_408:\n        /* \"#utility.yul\":8629:8632   */\n      pop\n      pop\n        /* \"#utility.yul\":8820:8826   */\n      dup2\n        /* \"#utility.yul\":8815:8818   */\n      dup7\n        /* \"#utility.yul\":8811:8827   */\n      add\n        /* \"#utility.yul\":8804:8827   */\n      swap4\n      pop\n        /* \"#utility.yul\":8330:8837   */\n    tag_403:\n      pop\n        /* \"#utility.yul\":8853:8856   */\n      swap2\n      swap6\n        /* \"#utility.yul\":8065:8862   */\n      swap5\n      pop\n      pop\n      pop\n      pop\n      pop\n      jump\t// out\n        /* \"#utility.yul\":8867:9198   */\n    tag_132:\n        /* \"#utility.yul\":9069:9071   */\n      0x20\n        /* \"#utility.yul\":9051:9072   */\n      dup1\n      dup3\n      mstore\n        /* \"#utility.yul\":9108:9109   */\n      0x08\n        /* \"#utility.yul\":9088:9106   */\n      swap1\n      dup3\n      add\n        /* \"#utility.yul\":9081:9110   */\n      mstore\n      shl(0xc1, 0x2737ba1029b2b633)\n        /* \"#utility.yul\":9141:9143   */\n      0x40\n        /* \"#utility.yul\":9126:9144   */\n      dup3\n      add\n        /* \"#utility.yul\":9119:9157   */\n      mstore\n        /* \"#utility.yul\":9189:9191   */\n      0x60\n        /* \"#utility.yul\":9174:9192   */\n      add\n      swap1\n        /* \"#utility.yul\":8867:9198   */\n      jump\t// out\n        /* \"#utility.yul\":9203:9557   */\n    tag_136:\n        /* \"#utility.yul\":9405:9407   */\n      0x20\n        /* \"#utility.yul\":9387:9408   */\n      dup1\n      dup3\n      mstore\n        /* \"#utility.yul\":9444:9446   */\n      0x1e\n        /* \"#utility.yul\":9424:9442   */\n      swap1\n      dup3\n      add\n        /* \"#utility.yul\":9417:9447   */\n      mstore\n        /* \"#utility.yul\":9483:9515   */\n      0x4d757374206265206e6f6e2d7a65726f20736967732072657175697265640000\n        /* \"#utility.yul\":9478:9480   */\n      0x40\n        /* \"#utility.yul\":9463:9481   */\n      dup3\n      add\n        /* \"#utility.yul\":9456:9516   */\n      mstore\n        /* \"#utility.yul\":9548:9550   */\n      0x60\n        /* \"#utility.yul\":9533:9551   */\n      add\n      swap1\n        /* \"#utility.yul\":9203:9557   */\n      jump\t// out\n        /* \"#utility.yul\":9914:10743   */\n    tag_147:\n      sub(shl(0xa0, 0x01), 0x01)\n        /* \"#utility.yul\":10187:10219   */\n      dup5\n      and\n        /* \"#utility.yul\":10169:10220   */\n      dup2\n      mstore\n        /* \"#utility.yul\":10157:10159   */\n      0x60\n        /* \"#utility.yul\":10251:10253   */\n      0x20\n        /* \"#utility.yul\":10236:10254   */\n      dup1\n      dup4\n      add\n        /* \"#utility.yul\":10229:10259   */\n      dup3\n      swap1\n      mstore\n        /* \"#utility.yul\":10308:10321   */\n      dup5\n      sload\n        /* \"#utility.yul\":10142:10160   */\n      swap2\n      dup4\n      add\n        /* \"#utility.yul\":10330:10352   */\n      dup3\n      swap1\n      mstore\n        /* \"#utility.yul\":10109:10113   */\n      0x00\n        /* \"#utility.yul\":10396:10413   */\n      dup6\n      dup2\n      mstore\n        /* \"#utility.yul\":10436:10452   */\n      swap1\n      dup2\n      keccak256\n        /* \"#utility.yul\":10109:10113   */\n      swap1\n      swap2\n        /* \"#utility.yul\":10383:10386   */\n      0x80\n        /* \"#utility.yul\":10368:10387   */\n      dup5\n      add\n      swap1\n        /* \"#utility.yul\":10109:10113   */\n      dup4\n        /* \"#utility.yul\":10480:10674   */\n    tag_413:\n        /* \"#utility.yul\":10494:10500   */\n      dup2\n        /* \"#utility.yul\":10491:10492   */\n      dup2\n        /* \"#utility.yul\":10488:10501   */\n      lt\n        /* \"#utility.yul\":10480:10674   */\n      iszero\n      tag_415\n      jumpi\n        /* \"#utility.yul\":10559:10572   */\n      dup4\n      sload\n      sub(shl(0xa0, 0x01), 0x01)\n        /* \"#utility.yul\":10555:10594   */\n      and\n        /* \"#utility.yul\":10543:10595   */\n      dup4\n      mstore\n        /* \"#utility.yul\":10591:10592   */\n      0x01\n        /* \"#utility.yul\":10650:10664   */\n      swap4\n      dup5\n      add\n      swap4\n        /* \"#utility.yul\":10624:10626   */\n      0x20\n        /* \"#utility.yul\":10615:10627   */\n      swap1\n      swap4\n      add\n      swap3\n        /* \"#utility.yul\":10509:10518   */\n      add\n        /* \"#utility.yul\":10480:10674   */\n      jump(tag_413)\n    tag_415:\n      pop\n      pop\n        /* \"#utility.yul\":10725:10727   */\n      0x40\n        /* \"#utility.yul\":10710:10728   */\n      swap4\n      swap1\n      swap4\n      add\n        /* \"#utility.yul\":10703:10737   */\n      swap4\n      swap1\n      swap4\n      mstore\n      pop\n        /* \"#utility.yul\":10691:10694   */\n      swap4\n        /* \"#utility.yul\":9914:10743   */\n      swap3\n      pop\n      pop\n      pop\n      jump\t// out\n        /* \"#utility.yul\":11291:11418   */\n    tag_332:\n        /* \"#utility.yul\":11352:11362   */\n      0x4e487b71\n        /* \"#utility.yul\":11347:11350   */\n      0xe0\n        /* \"#utility.yul\":11343:11363   */\n      shl\n        /* \"#utility.yul\":11340:11341   */\n      0x00\n        /* \"#utility.yul\":11333:11364   */\n      mstore\n        /* \"#utility.yul\":11383:11387   */\n      0x11\n        /* \"#utility.yul\":11380:11381   */\n      0x04\n        /* \"#utility.yul\":11373:11388   */\n      mstore\n        /* \"#utility.yul\":11407:11411   */\n      0x24\n        /* \"#utility.yul\":11404:11405   */\n      0x00\n        /* \"#utility.yul\":11397:11412   */\n      revert\n        /* \"#utility.yul\":11423:11558   */\n    tag_156:\n        /* \"#utility.yul\":11462:11465   */\n      0x00\n        /* \"#utility.yul\":11483:11500   */\n      0x01\n      dup3\n      add\n        /* \"#utility.yul\":11480:11523   */\n      tag_420\n      jumpi\n        /* \"#utility.yul\":11503:11521   */\n      tag_420\n      tag_332\n      jump\t// in\n    tag_420:\n      pop\n        /* \"#utility.yul\":11550:11551   */\n      0x01\n        /* \"#utility.yul\":11539:11552   */\n      add\n      swap1\n        /* \"#utility.yul\":11423:11558   */\n      jump\t// out\n        /* \"#utility.yul\":12984:13287   */\n    tag_191:\n        /* \"#utility.yul\":13115:13118   */\n      0x00\n        /* \"#utility.yul\":13153:13159   */\n      dup3\n        /* \"#utility.yul\":13147:13160   */\n      mload\n        /* \"#utility.yul\":13199:13205   */\n      dup1\n        /* \"#utility.yul\":13192:13196   */\n      0x20\n        /* \"#utility.yul\":13184:13190   */\n      dup6\n        /* \"#utility.yul\":13180:13197   */\n      add\n        /* \"#utility.yul\":13175:13178   */\n      dup5\n        /* \"#utility.yul\":13169:13206   */\n      mcopy\n        /* \"#utility.yul\":13261:13262   */\n      0x00\n        /* \"#utility.yul\":13225:13241   */\n      swap3\n      add\n        /* \"#utility.yul\":13250:13263   */\n      swap2\n      dup3\n      mstore\n      pop\n        /* \"#utility.yul\":13225:13241   */\n      swap2\n        /* \"#utility.yul\":12984:13287   */\n      swap1\n      pop\n      jump\t// out\n        /* \"#utility.yul\":13714:14232   */\n    tag_333:\n        /* \"#utility.yul\":13816:13818   */\n      0x1f\n        /* \"#utility.yul\":13811:13814   */\n      dup3\n        /* \"#utility.yul\":13808:13819   */\n      gt\n        /* \"#utility.yul\":13805:14226   */\n      iszero\n      tag_428\n      jumpi\n        /* \"#utility.yul\":13852:13857   */\n      dup1\n        /* \"#utility.yul\":13849:13850   */\n      0x00\n        /* \"#utility.yul\":13842:13858   */\n      mstore\n        /* \"#utility.yul\":13896:13900   */\n      0x20\n        /* \"#utility.yul\":13893:13894   */\n      0x00\n        /* \"#utility.yul\":13883:13901   */\n      keccak256\n        /* \"#utility.yul\":13966:13968   */\n      0x1f\n        /* \"#utility.yul\":13954:13964   */\n      dup5\n        /* \"#utility.yul\":13950:13969   */\n      add\n        /* \"#utility.yul\":13947:13948   */\n      0x05\n        /* \"#utility.yul\":13943:13970   */\n      shr\n        /* \"#utility.yul\":13937:13941   */\n      dup2\n        /* \"#utility.yul\":13933:13971   */\n      add\n        /* \"#utility.yul\":14002:14006   */\n      0x20\n        /* \"#utility.yul\":13990:14000   */\n      dup6\n        /* \"#utility.yul\":13987:14007   */\n      lt\n        /* \"#utility.yul\":13984:14031   */\n      iszero\n      tag_429\n      jumpi\n      pop\n        /* \"#utility.yul\":14025:14029   */\n      dup1\n        /* \"#utility.yul\":13984:14031   */\n    tag_429:\n        /* \"#utility.yul\":14080:14082   */\n      0x1f\n        /* \"#utility.yul\":14075:14078   */\n      dup5\n        /* \"#utility.yul\":14071:14083   */\n      add\n        /* \"#utility.yul\":14068:14069   */\n      0x05\n        /* \"#utility.yul\":14064:14084   */\n      shr\n        /* \"#utility.yul\":14058:14062   */\n      dup3\n        /* \"#utility.yul\":14054:14085   */\n      add\n        /* \"#utility.yul\":14044:14085   */\n      swap2\n      pop\n        /* \"#utility.yul\":14135:14216   */\n    tag_430:\n        /* \"#utility.yul\":14153:14155   */\n      dup2\n        /* \"#utility.yul\":14146:14151   */\n      dup2\n        /* \"#utility.yul\":14143:14156   */\n      lt\n        /* \"#utility.yul\":14135:14216   */\n      iszero\n      tag_259\n      jumpi\n        /* \"#utility.yul\":14212:14213   */\n      0x00\n        /* \"#utility.yul\":14198:14214   */\n      dup2\n      sstore\n        /* \"#utility.yul\":14179:14180   */\n      0x01\n        /* \"#utility.yul\":14168:14181   */\n      add\n        /* \"#utility.yul\":14135:14216   */\n      jump(tag_430)\n        /* \"#utility.yul\":13805:14226   */\n    tag_428:\n        /* \"#utility.yul\":13714:14232   */\n      pop\n      pop\n      pop\n      jump\t// out\n        /* \"#utility.yul\":14408:15707   */\n    tag_208:\n        /* \"#utility.yul\":14534:14537   */\n      dup2\n        /* \"#utility.yul\":14528:14538   */\n      mload\n        /* \"#utility.yul\":14561:14579   */\n      0xffffffffffffffff\n        /* \"#utility.yul\":14553:14559   */\n      dup2\n        /* \"#utility.yul\":14550:14580   */\n      gt\n        /* \"#utility.yul\":14547:14603   */\n      iszero\n      tag_436\n      jumpi\n        /* \"#utility.yul\":14583:14601   */\n      tag_436\n      tag_234\n      jump\t// in\n    tag_436:\n        /* \"#utility.yul\":14612:14709   */\n      tag_437\n        /* \"#utility.yul\":14702:14708   */\n      dup2\n        /* \"#utility.yul\":14662:14700   */\n      tag_438\n        /* \"#utility.yul\":14694:14698   */\n      dup5\n        /* \"#utility.yul\":14688:14699   */\n      sload\n        /* \"#utility.yul\":14662:14700   */\n      tag_158\n      jump\t// in\n    tag_438:\n        /* \"#utility.yul\":14656:14660   */\n      dup5\n        /* \"#utility.yul\":14612:14709   */\n      tag_333\n      jump\t// in\n    tag_437:\n        /* \"#utility.yul\":14758:14762   */\n      0x20\n        /* \"#utility.yul\":14789:14791   */\n      0x1f\n        /* \"#utility.yul\":14778:14792   */\n      dup3\n      gt\n        /* \"#utility.yul\":14806:14807   */\n      0x01\n        /* \"#utility.yul\":14801:15450   */\n      dup2\n      eq\n      tag_440\n      jumpi\n        /* \"#utility.yul\":15494:15495   */\n      0x00\n        /* \"#utility.yul\":15511:15517   */\n      dup4\n        /* \"#utility.yul\":15508:15597   */\n      iszero\n      tag_441\n      jumpi\n      pop\n        /* \"#utility.yul\":15563:15582   */\n      dup5\n      dup3\n      add\n        /* \"#utility.yul\":15557:15583   */\n      mload\n        /* \"#utility.yul\":15508:15597   */\n    tag_441:\n      not(0x00)\n        /* \"#utility.yul\":14365:14366   */\n      0x03\n        /* \"#utility.yul\":14361:14372   */\n      dup6\n      swap1\n      shl\n        /* \"#utility.yul\":14357:14381   */\n      shr\n        /* \"#utility.yul\":14353:14382   */\n      not\n        /* \"#utility.yul\":14343:14383   */\n      and\n        /* \"#utility.yul\":14389:14390   */\n      0x01\n        /* \"#utility.yul\":14385:14396   */\n      dup5\n      swap1\n      shl\n        /* \"#utility.yul\":14340:14397   */\n      or\n        /* \"#utility.yul\":15610:15691   */\n      dup5\n      sstore\n        /* \"#utility.yul\":14771:15701   */\n      jump(tag_259)\n        /* \"#utility.yul\":14801:15450   */\n    tag_440:\n        /* \"#utility.yul\":8012:8013   */\n      0x00\n        /* \"#utility.yul\":8005:8019   */\n      dup5\n      dup2\n      mstore\n        /* \"#utility.yul\":8049:8053   */\n      0x20\n        /* \"#utility.yul\":8036:8054   */\n      dup2\n      keccak256\n      not(0x1f)\n        /* \"#utility.yul\":14837:14857   */\n      dup6\n      and\n      swap2\n        /* \"#utility.yul\":14955:15177   */\n    tag_444:\n        /* \"#utility.yul\":14969:14976   */\n      dup3\n        /* \"#utility.yul\":14966:14967   */\n      dup2\n        /* \"#utility.yul\":14963:14977   */\n      lt\n        /* \"#utility.yul\":14955:15177   */\n      iszero\n      tag_446\n      jumpi\n        /* \"#utility.yul\":15051:15070   */\n      dup8\n      dup6\n      add\n        /* \"#utility.yul\":15045:15071   */\n      mload\n        /* \"#utility.yul\":15030:15072   */\n      dup3\n      sstore\n        /* \"#utility.yul\":15158:15162   */\n      0x20\n        /* \"#utility.yul\":15143:15163   */\n      swap5\n      dup6\n      add\n      swap5\n        /* \"#utility.yul\":15111:15112   */\n      0x01\n        /* \"#utility.yul\":15099:15113   */\n      swap1\n      swap3\n      add\n      swap2\n        /* \"#utility.yul\":14985:14997   */\n      add\n        /* \"#utility.yul\":14955:15177   */\n      jump(tag_444)\n    tag_446:\n        /* \"#utility.yul\":14959:14962   */\n      pop\n        /* \"#utility.yul\":15205:15211   */\n      dup5\n        /* \"#utility.yul\":15196:15203   */\n      dup3\n        /* \"#utility.yul\":15193:15212   */\n      lt\n        /* \"#utility.yul\":15190:15391   */\n      iszero\n      tag_447\n      jumpi\n        /* \"#utility.yul\":15266:15285   */\n      dup7\n      dup5\n      add\n        /* \"#utility.yul\":15260:15286   */\n      mload\n      not(0x00)\n        /* \"#utility.yul\":15349:15350   */\n      0x03\n        /* \"#utility.yul\":15345:15359   */\n      dup8\n      swap1\n      shl\n        /* \"#utility.yul\":15361:15364   */\n      0xf8\n        /* \"#utility.yul\":15341:15365   */\n      and\n        /* \"#utility.yul\":15337:15374   */\n      shr\n        /* \"#utility.yul\":15333:15375   */\n      not\n        /* \"#utility.yul\":15318:15376   */\n      and\n        /* \"#utility.yul\":15303:15377   */\n      dup2\n      sstore\n        /* \"#utility.yul\":15190:15391   */\n    tag_447:\n      pop\n      pop\n      pop\n      pop\n        /* \"#utility.yul\":15437:15438   */\n      0x01\n        /* \"#utility.yul\":15421:15435   */\n      swap1\n      dup2\n      shl\n        /* \"#utility.yul\":15417:15439   */\n      add\n        /* \"#utility.yul\":15404:15440   */\n      swap1\n      sstore\n      pop\n        /* \"#utility.yul\":14408:15707   */\n      jump\t// out\n        /* \"#utility.yul\":16486:16614   */\n    tag_217:\n        /* \"#utility.yul\":16553:16562   */\n      dup2\n      dup2\n      sub\n        /* \"#utility.yul\":16574:16585   */\n      dup2\n      dup2\n      gt\n        /* \"#utility.yul\":16571:16608   */\n      iszero\n      tag_126\n      jumpi\n        /* \"#utility.yul\":16588:16606   */\n      tag_126\n      tag_332\n      jump\t// in\n        /* \"#utility.yul\":17057:17184   */\n    tag_242:\n        /* \"#utility.yul\":17118:17128   */\n      0x4e487b71\n        /* \"#utility.yul\":17113:17116   */\n      0xe0\n        /* \"#utility.yul\":17109:17129   */\n      shl\n        /* \"#utility.yul\":17106:17107   */\n      0x00\n        /* \"#utility.yul\":17099:17130   */\n      mstore\n        /* \"#utility.yul\":17149:17153   */\n      0x32\n        /* \"#utility.yul\":17146:17147   */\n      0x04\n        /* \"#utility.yul\":17139:17154   */\n      mstore\n        /* \"#utility.yul\":17173:17177   */\n      0x24\n        /* \"#utility.yul\":17170:17171   */\n      0x00\n        /* \"#utility.yul\":17163:17178   */\n      revert\n        /* \"#utility.yul\":17189:17316   */\n    tag_252:\n        /* \"#utility.yul\":17250:17260   */\n      0x4e487b71\n        /* \"#utility.yul\":17245:17248   */\n      0xe0\n        /* \"#utility.yul\":17241:17261   */\n      shl\n        /* \"#utility.yul\":17238:17239   */\n      0x00\n        /* \"#utility.yul\":17231:17262   */\n      mstore\n        /* \"#utility.yul\":17281:17285   */\n      0x31\n        /* \"#utility.yul\":17278:17279   */\n      0x04\n        /* \"#utility.yul\":17271:17286   */\n      mstore\n        /* \"#utility.yul\":17305:17309   */\n      0x24\n        /* \"#utility.yul\":17302:17303   */\n      0x00\n        /* \"#utility.yul\":17295:17310   */\n      revert\n        /* \"#utility.yul\":17321:17457   */\n    tag_266:\n        /* \"#utility.yul\":17360:17363   */\n      0x00\n        /* \"#utility.yul\":17388:17393   */\n      dup2\n        /* \"#utility.yul\":17378:17417   */\n      tag_458\n      jumpi\n        /* \"#utility.yul\":17397:17415   */\n      tag_458\n      tag_332\n      jump\t// in\n    tag_458:\n      pop\n      not(0x00)\n        /* \"#utility.yul\":17433:17451   */\n      add\n      swap1\n        /* \"#utility.yul\":17321:17457   */\n      jump\t// out\n        /* \"#utility.yul\":18250:18377   */\n    tag_294:\n        /* \"#utility.yul\":18311:18321   */\n      0x4e487b71\n        /* \"#utility.yul\":18306:18309   */\n      0xe0\n        /* \"#utility.yul\":18302:18322   */\n      shl\n        /* \"#utility.yul\":18299:18300   */\n      0x00\n        /* \"#utility.yul\":18292:18323   */\n      mstore\n        /* \"#utility.yul\":18342:18346   */\n      0x21\n        /* \"#utility.yul\":18339:18340   */\n      0x04\n        /* \"#utility.yul\":18332:18347   */\n      mstore\n        /* \"#utility.yul\":18366:18370   */\n      0x24\n        /* \"#utility.yul\":18363:18364   */\n      0x00\n        /* \"#utility.yul\":18356:18371   */\n      revert\n\n    auxdata: 0xa26469706673582212209498833c4bf14f74e0f639318bc630a2ea0425eab249c792508c1185a240ecc064736f6c634300081a0033\n}\n",
				"bytecode": {
					"linkReferences": {},
					"object": "6080604052604051611bdb380380611bdb83398101604081905261002291610269565b815f81116100775760405162461bcd60e51b815260206004820152601e60248201527f4d757374206265206e6f6e2d7a65726f2073696773207265717569726564000060448201526064015b60405180910390fd5b5f80546001600160a01b0319166001600160a01b03841617815560068490555b8451811015610229575f8582815181106100b3576100b361035a565b602002602001015190505f6001600160a01b0316816001600160a01b03160361011e5760405162461bcd60e51b815260206004820152601960248201527f636f6e7374727563746f723a207a65726f206164647265737300000000000000604482015260640161006e565b6001600160a01b0381165f9081526001602052604090205460ff16156101865760405162461bcd60e51b815260206004820152601d60248201527f636f6e7374727563746f723a206f776e6572206e6f7420756e69717565000000604482015260640161006e565b6001600160a01b0381165f81815260016020818152604092839020805460ff1916831781556005805493840190557f036b6384b5eca791c62761152d0c79bb0604c104a5fb6f4eb0703f3154bb3db090920180546001600160a01b031916851790559054915160ff909216151582527ffe545f48304051c4029eb2da9927daa59da0414b4b084fdceaf2955b609b899e910160405180910390a250600101610097565b5050506008929092555061036e9050565b634e487b7160e01b5f52604160045260245ffd5b80516001600160a01b0381168114610264575f80fd5b919050565b5f805f806080858703121561027c575f80fd5b845160208601519094506001600160401b03811115610299575f80fd5b8501601f810187136102a9575f80fd5b80516001600160401b038111156102c2576102c261023a565b604051600582901b90603f8201601f191681016001600160401b03811182821017156102f0576102f061023a565b60405291825260208184018101929081018a84111561030d575f80fd5b6020850194505b83851015610333576103258561024e565b815260209485019401610314565b506040890151909650945061034f92505060608701905061024e565b905092959194509250565b634e487b7160e01b5f52603260045260245ffd5b6118608061037b5f395ff3fe6080604052600436106100fd575f3560e01c80637708072c11610092578063a157b0ae11610062578063a157b0ae1461038c578063affed0e0146103ab578063ce757d29146103c0578063d17eced3146103d5578063f2b0bb6b146103f4575f80fd5b80637708072c146102f55780637c72596e1461032157806395a3ac74146103585780639a8a059214610377575f80fd5b80631f919f77116100cd5780631f919f77146102015780632f54bf6e146102225780633aaa477114610260578063627cdcb9146102e1575f80fd5b8063019010f614610142578063025e7c271461017457806306a23e5f146101ab57806319045a25146101e2575f80fd5b3661013e576040805134815247602082015233917f90890809c654f11d6e72a28fa60149770a0d11ec6c92319d6ceb2bb0a4ea1a15910160405180910390a2005b5f80fd5b34801561014d575f80fd5b5061016161015c366004611197565b610413565b6040519081526020015b60405180910390f35b34801561017f575f80fd5b5061019361018e366004611197565b610448565b6040516001600160a01b03909116815260200161016b565b3480156101b6575f80fd5b506101616101c5366004611253565b805160208183018101805160048252928201919093012091525481565b3480156101ed575f80fd5b506101936101fc36600461128d565b610470565b34801561020c575f80fd5b5061022061021b3660046112e8565b610484565b005b34801561022d575f80fd5b5061025061023c366004611326565b60016020525f908152604090205460ff1681565b604051901515815260200161016b565b34801561026b575f80fd5b5061016161027a366004611348565b6008546040516bffffffffffffffffffffffff1930606090811b821660208401526034830193909352605482018690529184901b9091166074820152608881018290525f9060a8016040516020818303038152906040528051906020012090509392505050565b3480156102ec575f80fd5b5061016161060f565b348015610300575f80fd5b5061031461030f366004611197565b61062c565b60405161016b919061139a565b34801561032c575f80fd5b5061016161033b366004611253565b805160208183018101805160028252928201919093012091525481565b348015610363575f80fd5b506102206103723660046112e8565b6106c3565b348015610382575f80fd5b5061016160085481565b348015610397575f80fd5b506103146103a63660046113ac565b610885565b3480156103b6575f80fd5b5061016160075481565b3480156103cb575f80fd5b5061016160065481565b3480156103e0575f80fd5b506102506103ef366004611412565b6108fd565b3480156103ff575f80fd5b5061019361040e3660046114c6565b610bd8565b6007545f9081526003602052604080822090516002916104329161154d565b9081526020016040518091039020549050919050565b60058181548110610457575f80fd5b5f918252602090912001546001600160a01b0316905081565b5f61047b8383610c04565b90505b92915050565b82336001600160a01b038216146104b65760405162461bcd60e51b81526004016104ad906115be565b60405180910390fd5b815f81116104d65760405162461bcd60e51b81526004016104ad906115e0565b6001600160a01b0384165f9081526001602052604090205460ff1661053d5760405162461bcd60e51b815260206004820152601760248201527f72656d6f76655369676e65723a206e6f74206f776e657200000000000000000060448201526064016104ad565b61054684610c2c565b60068390556105558584610e25565b6001600160a01b0384165f8181526001602090815260409182902054915160ff909216151582527ffe545f48304051c4029eb2da9927daa59da0414b4b084fdceaf2955b609b899e910160405180910390a25f54604051632fb7d0a560e21b81526001600160a01b039091169063bedf4294906105db9030906005908890600401611617565b5f604051808303815f87803b1580156105f2575f80fd5b505af1158015610604573d5f803e3d5ffd5b505050505050505050565b600780545f918261061f83611694565b9190505550600754905090565b60036020525f90815260409020805461064490611515565b80601f016020809104026020016040519081016040528092919081815260200182805461067090611515565b80156106bb5780601f10610692576101008083540402835291602001916106bb565b820191905f5260205f20905b81548152906001019060200180831161069e57829003601f168201915b505050505081565b82336001600160a01b038216146106ec5760405162461bcd60e51b81526004016104ad906115be565b335f9081526001602052604090205460ff166107365760405162461bcd60e51b81526020600482015260096024820152682737ba1037bbb732b960b91b60448201526064016104ad565b815f81116107565760405162461bcd60e51b81526004016104ad906115e0565b6001600160a01b0384166107ac5760405162461bcd60e51b815260206004820152601760248201527f6164645369676e65723a207a65726f206164647265737300000000000000000060448201526064016104ad565b6001600160a01b0384165f9081526001602052604090205460ff16156108145760405162461bcd60e51b815260206004820152601b60248201527f6164645369676e65723a206f776e6572206e6f7420756e69717565000000000060448201526064016104ad565b6001600160a01b0384165f8181526001602081905260408220805460ff1916821790556005805491820181559091527f036b6384b5eca791c62761152d0c79bb0604c104a5fb6f4eb0703f3154bb3db00180546001600160a01b031916909117905560068390556105558584610e25565b6040516001600160a01b0380851660248301528316604482015260648101829052606090859060840160408051601f1981840301815290829052916108c9916116ac565b6040519081900390206020820180516001600160e01b03166001600160e01b03199092169190911790529050949350505050565b335f9081526001602052604081205460ff166109475760405162461bcd60e51b81526020600482015260096024820152682737ba1037bbb732b960b91b60448201526064016104ad565b5f61095185610e76565b90505f8061095f8789610bd8565b9050816001600160a01b0316816001600160a01b0316116109e05760405162461bcd60e51b815260206004820152603560248201527f657865637574655472616e73616374696f6e3a206475706c6963617465206f7260448201527420756e6f726465726564207369676e61747572657360581b60648201526084016104ad565b6001600160a01b0381165f90815260016020526040812054919250829160ff1615610a9457600487604051610a1591906116ac565b9081526040519081900360200190208054905f610a3183611694565b9190505550600487604051610a4691906116ac565b908152602001604051809103902054600288604051610a6591906116ac565b9081526040805160209281900383019020929092555f888152600390915220610a8e888261170b565b50600190505b600654600488604051610aa791906116ac565b9081526020016040518091039020541015610b1c5760405162461bcd60e51b815260206004820152602f60248201527f657865637574655472616e73616374696f6e3a206e6f7420656e6f756768207660448201526e616c6964207369676e61747572657360881b60648201526084016104ad565b80610b695760405162461bcd60e51b815260206004820152601d60248201527f657865637574655472616e73616374696f6e3a207478206661696c656400000060448201526064016104ad565b337f01981a0759c7f7295b44ccbd200535e8a29744b41f8da48b42a35b8b4b8b04b68c8c610b9860018b6117c6565b604080516001600160a01b0390941684526020840192909252908201526060810187905260800160405180910390a25060019a9950505050505050505050565b5f80610be384610e76565b90505f610bef82610ea5565b9050610bfb8185610edf565b95945050505050565b5f805f80610c128686610f59565b925092509250610c228282610fa2565b5090949350505050565b6001600160a01b0381165f908152600160205260408120805460ff19169055600554908167ffffffffffffffff811115610c6857610c686111ae565b604051908082528060200260200182016040528015610c91578160200160208202803683370190505b5090505f610ca06001846117c6565b90505b836001600160a01b031660058281548110610cc057610cc06117d9565b5f918252602090912001546001600160a01b031614610d6f5760058181548110610cec57610cec6117d9565b905f5260205f20015f9054906101000a90046001600160a01b0316828281518110610d1957610d196117d9565b60200260200101906001600160a01b031690816001600160a01b0316815250506005805480610d4a57610d4a6117ed565b5f8281526020902081015f1990810180546001600160a01b0319169055019055610e13565b6005805480610d8057610d806117ed565b5f8281526020902081015f1990810180546001600160a01b0319169055019055805b610dad6001856117c6565b811015610e0c576005838281518110610dc857610dc86117d9565b6020908102919091018101518254600180820185555f9485529290932090920180546001600160a01b0319166001600160a01b039093169290921790915501610da2565b5050505050565b80610e1d81611801565b915050610ca3565b81336001600160a01b03821614610e4e5760405162461bcd60e51b81526004016104ad906115be565b815f8111610e6e5760405162461bcd60e51b81526004016104ad906115e0565b505060065550565b5f81604051602001610e8891906116ac565b604051602081830303815290604052805190602001209050919050565b6040517f19457468657265756d205369676e6564204d6573736167653a0a3332000000006020820152603c81018290525f90605c01610e88565b5f805f80610eec8561105e565b604080515f8152602081018083528b905260ff8316918101919091526060810184905260808101839052929550909350915060019060a0016020604051602081039080840390855afa158015610f44573d5f803e3d5ffd5b5050604051601f190151979650505050505050565b5f805f8351604103610f90576020840151604085015160608601515f1a610f82888285856110cf565b955095509550505050610f9b565b505081515f91506002905b9250925092565b5f826003811115610fb557610fb5611816565b03610fbe575050565b6001826003811115610fd257610fd2611816565b03610ff05760405163f645eedf60e01b815260040160405180910390fd5b600282600381111561100457611004611816565b036110255760405163fce698f760e01b8152600481018290526024016104ad565b600382600381111561103957611039611816565b0361105a576040516335e2f38360e21b8152600481018290526024016104ad565b5050565b5f805f83516041146110b25760405162461bcd60e51b815260206004820152601860248201527f696e76616c6964207369676e6174757265206c656e677468000000000000000060448201526064016104ad565b5050506020810151604082015160609092015190925f9190911a90565b5f80807f7fffffffffffffffffffffffffffffff5d576e7357a4501ddfe92f46681b20a084111561110857505f9150600390508261118d565b604080515f808252602082018084528a905260ff891692820192909252606081018790526080810186905260019060a0016020604051602081039080840390855afa158015611159573d5f803e3d5ffd5b5050604051601f1901519150506001600160a01b03811661118457505f92506001915082905061118d565b92505f91508190505b9450945094915050565b5f602082840312156111a7575f80fd5b5035919050565b634e487b7160e01b5f52604160045260245ffd5b5f82601f8301126111d1575f80fd5b8135602083015f8067ffffffffffffffff8411156111f1576111f16111ae565b50604051601f19601f85018116603f0116810181811067ffffffffffffffff82111715611220576112206111ae565b604052838152905080828401871015611237575f80fd5b838360208301375f602085830101528094505050505092915050565b5f60208284031215611263575f80fd5b813567ffffffffffffffff811115611279575f80fd5b611285848285016111c2565b949350505050565b5f806040838503121561129e575f80fd5b82359150602083013567ffffffffffffffff8111156112bb575f80fd5b6112c7858286016111c2565b9150509250929050565b6001600160a01b03811681146112e5575f80fd5b50565b5f805f606084860312156112fa575f80fd5b8335611305816112d1565b92506020840135611315816112d1565b929592945050506040919091013590565b5f60208284031215611336575f80fd5b8135611341816112d1565b9392505050565b5f805f6060848603121561135a575f80fd5b833592506020840135611315816112d1565b5f81518084528060208401602086015e5f602082860101526020601f19601f83011685010191505092915050565b602081525f61047b602083018461136c565b5f805f80608085870312156113bf575f80fd5b843567ffffffffffffffff8111156113d5575f80fd5b6113e1878288016111c2565b94505060208501356113f2816112d1565b92506040850135611402816112d1565b9396929550929360600135925050565b5f805f805f8060c08789031215611427575f80fd5b8635611432816112d1565b955060208701359450604087013567ffffffffffffffff811115611454575f80fd5b61146089828a016111c2565b945050606087013567ffffffffffffffff81111561147c575f80fd5b61148889828a016111c2565b935050608087013567ffffffffffffffff8111156114a4575f80fd5b6114b089828a016111c2565b9699959850939692959460a09093013593505050565b5f80604083850312156114d7575f80fd5b823567ffffffffffffffff8111156114ed575f80fd5b6114f9858286016111c2565b925050602083013567ffffffffffffffff8111156112bb575f80fd5b600181811c9082168061152957607f821691505b60208210810361154757634e487b7160e01b5f52602260045260245ffd5b50919050565b5f80835461155a81611515565b6001821680156115715760018114611586576115b3565b60ff19831686528115158202860193506115b3565b865f5260205f205f5b838110156115ab5781548882015260019091019060200161158f565b505081860193505b509195945050505050565b6020808252600890820152672737ba1029b2b63360c11b604082015260600190565b6020808252601e908201527f4d757374206265206e6f6e2d7a65726f20736967732072657175697265640000604082015260600190565b6001600160a01b03841681526060602080830182905284549183018290525f85815290812090916080840190835b8181101561166c5783546001600160a01b0316835260019384019360209093019201611645565b505060409390930193909352509392505050565b634e487b7160e01b5f52601160045260245ffd5b5f600182016116a5576116a5611680565b5060010190565b5f82518060208501845e5f920191825250919050565b601f82111561170657805f5260205f20601f840160051c810160208510156116e75750805b601f840160051c820191505b81811015610e0c575f81556001016116f3565b505050565b815167ffffffffffffffff811115611725576117256111ae565b611739816117338454611515565b846116c2565b6020601f82116001811461176b575f83156117545750848201515b5f19600385901b1c1916600184901b178455610e0c565b5f84815260208120601f198516915b8281101561179a578785015182556020948501946001909201910161177a565b50848210156117b757868401515f19600387901b60f8161c191681555b50505050600190811b01905550565b8181038181111561047e5761047e611680565b634e487b7160e01b5f52603260045260245ffd5b634e487b7160e01b5f52603160045260245ffd5b5f8161180f5761180f611680565b505f190190565b634e487b7160e01b5f52602160045260245ffdfea26469706673582212209498833c4bf14f74e0f639318bc630a2ea0425eab249c792508c1185a240ecc064736f6c634300081a0033",
					"opcodes": "PUSH1 0x80 PUSH1 0x40 MSTORE PUSH1 0x40 MLOAD PUSH2 0x1BDB CODESIZE SUB DUP1 PUSH2 0x1BDB DUP4 CODECOPY DUP2 ADD PUSH1 0x40 DUP2 SWAP1 MSTORE PUSH2 0x22 SWAP2 PUSH2 0x269 JUMP JUMPDEST DUP2 PUSH0 DUP2 GT PUSH2 0x77 JUMPI PUSH1 0x40 MLOAD PUSH3 0x461BCD PUSH1 0xE5 SHL DUP2 MSTORE PUSH1 0x20 PUSH1 0x4 DUP3 ADD MSTORE PUSH1 0x1E PUSH1 0x24 DUP3 ADD MSTORE PUSH32 0x4D757374206265206E6F6E2D7A65726F20736967732072657175697265640000 PUSH1 0x44 DUP3 ADD MSTORE PUSH1 0x64 ADD JUMPDEST PUSH1 0x40 MLOAD DUP1 SWAP2 SUB SWAP1 REVERT JUMPDEST PUSH0 DUP1 SLOAD PUSH1 0x1 PUSH1 0x1 PUSH1 0xA0 SHL SUB NOT AND PUSH1 0x1 PUSH1 0x1 PUSH1 0xA0 SHL SUB DUP5 AND OR DUP2 SSTORE PUSH1 0x6 DUP5 SWAP1 SSTORE JUMPDEST DUP5 MLOAD DUP2 LT ISZERO PUSH2 0x229 JUMPI PUSH0 DUP6 DUP3 DUP2 MLOAD DUP2 LT PUSH2 0xB3 JUMPI PUSH2 0xB3 PUSH2 0x35A JUMP JUMPDEST PUSH1 0x20 MUL PUSH1 0x20 ADD ADD MLOAD SWAP1 POP PUSH0 PUSH1 0x1 PUSH1 0x1 PUSH1 0xA0 SHL SUB AND DUP2 PUSH1 0x1 PUSH1 0x1 PUSH1 0xA0 SHL SUB AND SUB PUSH2 0x11E JUMPI PUSH1 0x40 MLOAD PUSH3 0x461BCD PUSH1 0xE5 SHL DUP2 MSTORE PUSH1 0x20 PUSH1 0x4 DUP3 ADD MSTORE PUSH1 0x19 PUSH1 0x24 DUP3 ADD MSTORE PUSH32 0x636F6E7374727563746F723A207A65726F206164647265737300000000000000 PUSH1 0x44 DUP3 ADD MSTORE PUSH1 0x64 ADD PUSH2 0x6E JUMP JUMPDEST PUSH1 0x1 PUSH1 0x1 PUSH1 0xA0 SHL SUB DUP2 AND PUSH0 SWAP1 DUP2 MSTORE PUSH1 0x1 PUSH1 0x20 MSTORE PUSH1 0x40 SWAP1 KECCAK256 SLOAD PUSH1 0xFF AND ISZERO PUSH2 0x186 JUMPI PUSH1 0x40 MLOAD PUSH3 0x461BCD PUSH1 0xE5 SHL DUP2 MSTORE PUSH1 0x20 PUSH1 0x4 DUP3 ADD MSTORE PUSH1 0x1D PUSH1 0x24 DUP3 ADD MSTORE PUSH32 0x636F6E7374727563746F723A206F776E6572206E6F7420756E69717565000000 PUSH1 0x44 DUP3 ADD MSTORE PUSH1 0x64 ADD PUSH2 0x6E JUMP JUMPDEST PUSH1 0x1 PUSH1 0x1 PUSH1 0xA0 SHL SUB DUP2 AND PUSH0 DUP2 DUP2 MSTORE PUSH1 0x1 PUSH1 0x20 DUP2 DUP2 MSTORE PUSH1 0x40 SWAP3 DUP4 SWAP1 KECCAK256 DUP1 SLOAD PUSH1 0xFF NOT AND DUP4 OR DUP2 SSTORE PUSH1 0x5 DUP1 SLOAD SWAP4 DUP5 ADD SWAP1 SSTORE PUSH32 0x36B6384B5ECA791C62761152D0C79BB0604C104A5FB6F4EB0703F3154BB3DB0 SWAP1 SWAP3 ADD DUP1 SLOAD PUSH1 0x1 PUSH1 0x1 PUSH1 0xA0 SHL SUB NOT AND DUP6 OR SWAP1 SSTORE SWAP1 SLOAD SWAP2 MLOAD PUSH1 0xFF SWAP1 SWAP3 AND ISZERO ISZERO DUP3 MSTORE PUSH32 0xFE545F48304051C4029EB2DA9927DAA59DA0414B4B084FDCEAF2955B609B899E SWAP2 ADD PUSH1 0x40 MLOAD DUP1 SWAP2 SUB SWAP1 LOG2 POP PUSH1 0x1 ADD PUSH2 0x97 JUMP JUMPDEST POP POP POP PUSH1 0x8 SWAP3 SWAP1 SWAP3 SSTORE POP PUSH2 0x36E SWAP1 POP JUMP JUMPDEST PUSH4 0x4E487B71 PUSH1 0xE0 SHL PUSH0 MSTORE PUSH1 0x41 PUSH1 0x4 MSTORE PUSH1 0x24 PUSH0 REVERT JUMPDEST DUP1 MLOAD PUSH1 0x1 PUSH1 0x1 PUSH1 0xA0 SHL SUB DUP2 AND DUP2 EQ PUSH2 0x264 JUMPI PUSH0 DUP1 REVERT JUMPDEST SWAP2 SWAP1 POP JUMP JUMPDEST PUSH0 DUP1 PUSH0 DUP1 PUSH1 0x80 DUP6 DUP8 SUB SLT ISZERO PUSH2 0x27C JUMPI PUSH0 DUP1 REVERT JUMPDEST DUP5 MLOAD PUSH1 0x20 DUP7 ADD MLOAD SWAP1 SWAP5 POP PUSH1 0x1 PUSH1 0x1 PUSH1 0x40 SHL SUB DUP2 GT ISZERO PUSH2 0x299 JUMPI PUSH0 DUP1 REVERT JUMPDEST DUP6 ADD PUSH1 0x1F DUP2 ADD DUP8 SGT PUSH2 0x2A9 JUMPI PUSH0 DUP1 REVERT JUMPDEST DUP1 MLOAD PUSH1 0x1 PUSH1 0x1 PUSH1 0x40 SHL SUB DUP2 GT ISZERO PUSH2 0x2C2 JUMPI PUSH2 0x2C2 PUSH2 0x23A JUMP JUMPDEST PUSH1 0x40 MLOAD PUSH1 0x5 DUP3 SWAP1 SHL SWAP1 PUSH1 0x3F DUP3 ADD PUSH1 0x1F NOT AND DUP2 ADD PUSH1 0x1 PUSH1 0x1 PUSH1 0x40 SHL SUB DUP2 GT DUP3 DUP3 LT OR ISZERO PUSH2 0x2F0 JUMPI PUSH2 0x2F0 PUSH2 0x23A JUMP JUMPDEST PUSH1 0x40 MSTORE SWAP2 DUP3 MSTORE PUSH1 0x20 DUP2 DUP5 ADD DUP2 ADD SWAP3 SWAP1 DUP2 ADD DUP11 DUP5 GT ISZERO PUSH2 0x30D JUMPI PUSH0 DUP1 REVERT JUMPDEST PUSH1 0x20 DUP6 ADD SWAP5 POP JUMPDEST DUP4 DUP6 LT ISZERO PUSH2 0x333 JUMPI PUSH2 0x325 DUP6 PUSH2 0x24E JUMP JUMPDEST DUP2 MSTORE PUSH1 0x20 SWAP5 DUP6 ADD SWAP5 ADD PUSH2 0x314 JUMP JUMPDEST POP PUSH1 0x40 DUP10 ADD MLOAD SWAP1 SWAP7 POP SWAP5 POP PUSH2 0x34F SWAP3 POP POP PUSH1 0x60 DUP8 ADD SWAP1 POP PUSH2 0x24E JUMP JUMPDEST SWAP1 POP SWAP3 SWAP6 SWAP2 SWAP5 POP SWAP3 POP JUMP JUMPDEST PUSH4 0x4E487B71 PUSH1 0xE0 SHL PUSH0 MSTORE PUSH1 0x32 PUSH1 0x4 MSTORE PUSH1 0x24 PUSH0 REVERT JUMPDEST PUSH2 0x1860 DUP1 PUSH2 0x37B PUSH0 CODECOPY PUSH0 RETURN INVALID PUSH1 0x80 PUSH1 0x40 MSTORE PUSH1 0x4 CALLDATASIZE LT PUSH2 0xFD JUMPI PUSH0 CALLDATALOAD PUSH1 0xE0 SHR DUP1 PUSH4 0x7708072C GT PUSH2 0x92 JUMPI DUP1 PUSH4 0xA157B0AE GT PUSH2 0x62 JUMPI DUP1 PUSH4 0xA157B0AE EQ PUSH2 0x38C JUMPI DUP1 PUSH4 0xAFFED0E0 EQ PUSH2 0x3AB JUMPI DUP1 PUSH4 0xCE757D29 EQ PUSH2 0x3C0 JUMPI DUP1 PUSH4 0xD17ECED3 EQ PUSH2 0x3D5 JUMPI DUP1 PUSH4 0xF2B0BB6B EQ PUSH2 0x3F4 JUMPI PUSH0 DUP1 REVERT JUMPDEST DUP1 PUSH4 0x7708072C EQ PUSH2 0x2F5 JUMPI DUP1 PUSH4 0x7C72596E EQ PUSH2 0x321 JUMPI DUP1 PUSH4 0x95A3AC74 EQ PUSH2 0x358 JUMPI DUP1 PUSH4 0x9A8A0592 EQ PUSH2 0x377 JUMPI PUSH0 DUP1 REVERT JUMPDEST DUP1 PUSH4 0x1F919F77 GT PUSH2 0xCD JUMPI DUP1 PUSH4 0x1F919F77 EQ PUSH2 0x201 JUMPI DUP1 PUSH4 0x2F54BF6E EQ PUSH2 0x222 JUMPI DUP1 PUSH4 0x3AAA4771 EQ PUSH2 0x260 JUMPI DUP1 PUSH4 0x627CDCB9 EQ PUSH2 0x2E1 JUMPI PUSH0 DUP1 REVERT JUMPDEST DUP1 PUSH4 0x19010F6 EQ PUSH2 0x142 JUMPI DUP1 PUSH4 0x25E7C27 EQ PUSH2 0x174 JUMPI DUP1 PUSH4 0x6A23E5F EQ PUSH2 0x1AB JUMPI DUP1 PUSH4 0x19045A25 EQ PUSH2 0x1E2 JUMPI PUSH0 DUP1 REVERT JUMPDEST CALLDATASIZE PUSH2 0x13E JUMPI PUSH1 0x40 DUP1 MLOAD CALLVALUE DUP2 MSTORE SELFBALANCE PUSH1 0x20 DUP3 ADD MSTORE CALLER SWAP2 PUSH32 0x90890809C654F11D6E72A28FA60149770A0D11EC6C92319D6CEB2BB0A4EA1A15 SWAP2 ADD PUSH1 0x40 MLOAD DUP1 SWAP2 SUB SWAP1 LOG2 STOP JUMPDEST PUSH0 DUP1 REVERT JUMPDEST CALLVALUE DUP1 ISZERO PUSH2 0x14D JUMPI PUSH0 DUP1 REVERT JUMPDEST POP PUSH2 0x161 PUSH2 0x15C CALLDATASIZE PUSH1 0x4 PUSH2 0x1197 JUMP JUMPDEST PUSH2 0x413 JUMP JUMPDEST PUSH1 0x40 MLOAD SWAP1 DUP2 MSTORE PUSH1 0x20 ADD JUMPDEST PUSH1 0x40 MLOAD DUP1 SWAP2 SUB SWAP1 RETURN JUMPDEST CALLVALUE DUP1 ISZERO PUSH2 0x17F JUMPI PUSH0 DUP1 REVERT JUMPDEST POP PUSH2 0x193 PUSH2 0x18E CALLDATASIZE PUSH1 0x4 PUSH2 0x1197 JUMP JUMPDEST PUSH2 0x448 JUMP JUMPDEST PUSH1 0x40 MLOAD PUSH1 0x1 PUSH1 0x1 PUSH1 0xA0 SHL SUB SWAP1 SWAP2 AND DUP2 MSTORE PUSH1 0x20 ADD PUSH2 0x16B JUMP JUMPDEST CALLVALUE DUP1 ISZERO PUSH2 0x1B6 JUMPI PUSH0 DUP1 REVERT JUMPDEST POP PUSH2 0x161 PUSH2 0x1C5 CALLDATASIZE PUSH1 0x4 PUSH2 0x1253 JUMP JUMPDEST DUP1 MLOAD PUSH1 0x20 DUP2 DUP4 ADD DUP2 ADD DUP1 MLOAD PUSH1 0x4 DUP3 MSTORE SWAP3 DUP3 ADD SWAP2 SWAP1 SWAP4 ADD KECCAK256 SWAP2 MSTORE SLOAD DUP2 JUMP JUMPDEST CALLVALUE DUP1 ISZERO PUSH2 0x1ED JUMPI PUSH0 DUP1 REVERT JUMPDEST POP PUSH2 0x193 PUSH2 0x1FC CALLDATASIZE PUSH1 0x4 PUSH2 0x128D JUMP JUMPDEST PUSH2 0x470 JUMP JUMPDEST CALLVALUE DUP1 ISZERO PUSH2 0x20C JUMPI PUSH0 DUP1 REVERT JUMPDEST POP PUSH2 0x220 PUSH2 0x21B CALLDATASIZE PUSH1 0x4 PUSH2 0x12E8 JUMP JUMPDEST PUSH2 0x484 JUMP JUMPDEST STOP JUMPDEST CALLVALUE DUP1 ISZERO PUSH2 0x22D JUMPI PUSH0 DUP1 REVERT JUMPDEST POP PUSH2 0x250 PUSH2 0x23C CALLDATASIZE PUSH1 0x4 PUSH2 0x1326 JUMP JUMPDEST PUSH1 0x1 PUSH1 0x20 MSTORE PUSH0 SWAP1 DUP2 MSTORE PUSH1 0x40 SWAP1 KECCAK256 SLOAD PUSH1 0xFF AND DUP2 JUMP JUMPDEST PUSH1 0x40 MLOAD SWAP1 ISZERO ISZERO DUP2 MSTORE PUSH1 0x20 ADD PUSH2 0x16B JUMP JUMPDEST CALLVALUE DUP1 ISZERO PUSH2 0x26B JUMPI PUSH0 DUP1 REVERT JUMPDEST POP PUSH2 0x161 PUSH2 0x27A CALLDATASIZE PUSH1 0x4 PUSH2 0x1348 JUMP JUMPDEST PUSH1 0x8 SLOAD PUSH1 0x40 MLOAD PUSH12 0xFFFFFFFFFFFFFFFFFFFFFFFF NOT ADDRESS PUSH1 0x60 SWAP1 DUP2 SHL DUP3 AND PUSH1 0x20 DUP5 ADD MSTORE PUSH1 0x34 DUP4 ADD SWAP4 SWAP1 SWAP4 MSTORE PUSH1 0x54 DUP3 ADD DUP7 SWAP1 MSTORE SWAP2 DUP5 SWAP1 SHL SWAP1 SWAP2 AND PUSH1 0x74 DUP3 ADD MSTORE PUSH1 0x88 DUP2 ADD DUP3 SWAP1 MSTORE PUSH0 SWAP1 PUSH1 0xA8 ADD PUSH1 0x40 MLOAD PUSH1 0x20 DUP2 DUP4 SUB SUB DUP2 MSTORE SWAP1 PUSH1 0x40 MSTORE DUP1 MLOAD SWAP1 PUSH1 0x20 ADD KECCAK256 SWAP1 POP SWAP4 SWAP3 POP POP POP JUMP JUMPDEST CALLVALUE DUP1 ISZERO PUSH2 0x2EC JUMPI PUSH0 DUP1 REVERT JUMPDEST POP PUSH2 0x161 PUSH2 0x60F JUMP JUMPDEST CALLVALUE DUP1 ISZERO PUSH2 0x300 JUMPI PUSH0 DUP1 REVERT JUMPDEST POP PUSH2 0x314 PUSH2 0x30F CALLDATASIZE PUSH1 0x4 PUSH2 0x1197 JUMP JUMPDEST PUSH2 0x62C JUMP JUMPDEST PUSH1 0x40 MLOAD PUSH2 0x16B SWAP2 SWAP1 PUSH2 0x139A JUMP JUMPDEST CALLVALUE DUP1 ISZERO PUSH2 0x32C JUMPI PUSH0 DUP1 REVERT JUMPDEST POP PUSH2 0x161 PUSH2 0x33B CALLDATASIZE PUSH1 0x4 PUSH2 0x1253 JUMP JUMPDEST DUP1 MLOAD PUSH1 0x20 DUP2 DUP4 ADD DUP2 ADD DUP1 MLOAD PUSH1 0x2 DUP3 MSTORE SWAP3 DUP3 ADD SWAP2 SWAP1 SWAP4 ADD KECCAK256 SWAP2 MSTORE SLOAD DUP2 JUMP JUMPDEST CALLVALUE DUP1 ISZERO PUSH2 0x363 JUMPI PUSH0 DUP1 REVERT JUMPDEST POP PUSH2 0x220 PUSH2 0x372 CALLDATASIZE PUSH1 0x4 PUSH2 0x12E8 JUMP JUMPDEST PUSH2 0x6C3 JUMP JUMPDEST CALLVALUE DUP1 ISZERO PUSH2 0x382 JUMPI PUSH0 DUP1 REVERT JUMPDEST POP PUSH2 0x161 PUSH1 0x8 SLOAD DUP2 JUMP JUMPDEST CALLVALUE DUP1 ISZERO PUSH2 0x397 JUMPI PUSH0 DUP1 REVERT JUMPDEST POP PUSH2 0x314 PUSH2 0x3A6 CALLDATASIZE PUSH1 0x4 PUSH2 0x13AC JUMP JUMPDEST PUSH2 0x885 JUMP JUMPDEST CALLVALUE DUP1 ISZERO PUSH2 0x3B6 JUMPI PUSH0 DUP1 REVERT JUMPDEST POP PUSH2 0x161 PUSH1 0x7 SLOAD DUP2 JUMP JUMPDEST CALLVALUE DUP1 ISZERO PUSH2 0x3CB JUMPI PUSH0 DUP1 REVERT JUMPDEST POP PUSH2 0x161 PUSH1 0x6 SLOAD DUP2 JUMP JUMPDEST CALLVALUE DUP1 ISZERO PUSH2 0x3E0 JUMPI PUSH0 DUP1 REVERT JUMPDEST POP PUSH2 0x250 PUSH2 0x3EF CALLDATASIZE PUSH1 0x4 PUSH2 0x1412 JUMP JUMPDEST PUSH2 0x8FD JUMP JUMPDEST CALLVALUE DUP1 ISZERO PUSH2 0x3FF JUMPI PUSH0 DUP1 REVERT JUMPDEST POP PUSH2 0x193 PUSH2 0x40E CALLDATASIZE PUSH1 0x4 PUSH2 0x14C6 JUMP JUMPDEST PUSH2 0xBD8 JUMP JUMPDEST PUSH1 0x7 SLOAD PUSH0 SWAP1 DUP2 MSTORE PUSH1 0x3 PUSH1 0x20 MSTORE PUSH1 0x40 DUP1 DUP3 KECCAK256 SWAP1 MLOAD PUSH1 0x2 SWAP2 PUSH2 0x432 SWAP2 PUSH2 0x154D JUMP JUMPDEST SWAP1 DUP2 MSTORE PUSH1 0x20 ADD PUSH1 0x40 MLOAD DUP1 SWAP2 SUB SWAP1 KECCAK256 SLOAD SWAP1 POP SWAP2 SWAP1 POP JUMP JUMPDEST PUSH1 0x5 DUP2 DUP2 SLOAD DUP2 LT PUSH2 0x457 JUMPI PUSH0 DUP1 REVERT JUMPDEST PUSH0 SWAP2 DUP3 MSTORE PUSH1 0x20 SWAP1 SWAP2 KECCAK256 ADD SLOAD PUSH1 0x1 PUSH1 0x1 PUSH1 0xA0 SHL SUB AND SWAP1 POP DUP2 JUMP JUMPDEST PUSH0 PUSH2 0x47B DUP4 DUP4 PUSH2 0xC04 JUMP JUMPDEST SWAP1 POP JUMPDEST SWAP3 SWAP2 POP POP JUMP JUMPDEST DUP3 CALLER PUSH1 0x1 PUSH1 0x1 PUSH1 0xA0 SHL SUB DUP3 AND EQ PUSH2 0x4B6 JUMPI PUSH1 0x40 MLOAD PUSH3 0x461BCD PUSH1 0xE5 SHL DUP2 MSTORE PUSH1 0x4 ADD PUSH2 0x4AD SWAP1 PUSH2 0x15BE JUMP JUMPDEST PUSH1 0x40 MLOAD DUP1 SWAP2 SUB SWAP1 REVERT JUMPDEST DUP2 PUSH0 DUP2 GT PUSH2 0x4D6 JUMPI PUSH1 0x40 MLOAD PUSH3 0x461BCD PUSH1 0xE5 SHL DUP2 MSTORE PUSH1 0x4 ADD PUSH2 0x4AD SWAP1 PUSH2 0x15E0 JUMP JUMPDEST PUSH1 0x1 PUSH1 0x1 PUSH1 0xA0 SHL SUB DUP5 AND PUSH0 SWAP1 DUP2 MSTORE PUSH1 0x1 PUSH1 0x20 MSTORE PUSH1 0x40 SWAP1 KECCAK256 SLOAD PUSH1 0xFF AND PUSH2 0x53D JUMPI PUSH1 0x40 MLOAD PUSH3 0x461BCD PUSH1 0xE5 SHL DUP2 MSTORE PUSH1 0x20 PUSH1 0x4 DUP3 ADD MSTORE PUSH1 0x17 PUSH1 0x24 DUP3 ADD MSTORE PUSH32 0x72656D6F76655369676E65723A206E6F74206F776E6572000000000000000000 PUSH1 0x44 DUP3 ADD MSTORE PUSH1 0x64 ADD PUSH2 0x4AD JUMP JUMPDEST PUSH2 0x546 DUP5 PUSH2 0xC2C JUMP JUMPDEST PUSH1 0x6 DUP4 SWAP1 SSTORE PUSH2 0x555 DUP6 DUP5 PUSH2 0xE25 JUMP JUMPDEST PUSH1 0x1 PUSH1 0x1 PUSH1 0xA0 SHL SUB DUP5 AND PUSH0 DUP2 DUP2 MSTORE PUSH1 0x1 PUSH1 0x20 SWAP1 DUP2 MSTORE PUSH1 0x40 SWAP2 DUP3 SWAP1 KECCAK256 SLOAD SWAP2 MLOAD PUSH1 0xFF SWAP1 SWAP3 AND ISZERO ISZERO DUP3 MSTORE PUSH32 0xFE545F48304051C4029EB2DA9927DAA59DA0414B4B084FDCEAF2955B609B899E SWAP2 ADD PUSH1 0x40 MLOAD DUP1 SWAP2 SUB SWAP1 LOG2 PUSH0 SLOAD PUSH1 0x40 MLOAD PUSH4 0x2FB7D0A5 PUSH1 0xE2 SHL DUP2 MSTORE PUSH1 0x1 PUSH1 0x1 PUSH1 0xA0 SHL SUB SWAP1 SWAP2 AND SWAP1 PUSH4 0xBEDF4294 SWAP1 PUSH2 0x5DB SWAP1 ADDRESS SWAP1 PUSH1 0x5 SWAP1 DUP9 SWAP1 PUSH1 0x4 ADD PUSH2 0x1617 JUMP JUMPDEST PUSH0 PUSH1 0x40 MLOAD DUP1 DUP4 SUB DUP2 PUSH0 DUP8 DUP1 EXTCODESIZE ISZERO DUP1 ISZERO PUSH2 0x5F2 JUMPI PUSH0 DUP1 REVERT JUMPDEST POP GAS CALL ISZERO DUP1 ISZERO PUSH2 0x604 JUMPI RETURNDATASIZE PUSH0 DUP1 RETURNDATACOPY RETURNDATASIZE PUSH0 REVERT JUMPDEST POP POP POP POP POP POP POP POP POP JUMP JUMPDEST PUSH1 0x7 DUP1 SLOAD PUSH0 SWAP2 DUP3 PUSH2 0x61F DUP4 PUSH2 0x1694 JUMP JUMPDEST SWAP2 SWAP1 POP SSTORE POP PUSH1 0x7 SLOAD SWAP1 POP SWAP1 JUMP JUMPDEST PUSH1 0x3 PUSH1 0x20 MSTORE PUSH0 SWAP1 DUP2 MSTORE PUSH1 0x40 SWAP1 KECCAK256 DUP1 SLOAD PUSH2 0x644 SWAP1 PUSH2 0x1515 JUMP JUMPDEST DUP1 PUSH1 0x1F ADD PUSH1 0x20 DUP1 SWAP2 DIV MUL PUSH1 0x20 ADD PUSH1 0x40 MLOAD SWAP1 DUP2 ADD PUSH1 0x40 MSTORE DUP1 SWAP3 SWAP2 SWAP1 DUP2 DUP2 MSTORE PUSH1 0x20 ADD DUP3 DUP1 SLOAD PUSH2 0x670 SWAP1 PUSH2 0x1515 JUMP JUMPDEST DUP1 ISZERO PUSH2 0x6BB JUMPI DUP1 PUSH1 0x1F LT PUSH2 0x692 JUMPI PUSH2 0x100 DUP1 DUP4 SLOAD DIV MUL DUP4 MSTORE SWAP2 PUSH1 0x20 ADD SWAP2 PUSH2 0x6BB JUMP JUMPDEST DUP3 ADD SWAP2 SWAP1 PUSH0 MSTORE PUSH1 0x20 PUSH0 KECCAK256 SWAP1 JUMPDEST DUP2 SLOAD DUP2 MSTORE SWAP1 PUSH1 0x1 ADD SWAP1 PUSH1 0x20 ADD DUP1 DUP4 GT PUSH2 0x69E JUMPI DUP3 SWAP1 SUB PUSH1 0x1F AND DUP3 ADD SWAP2 JUMPDEST POP POP POP POP POP DUP2 JUMP JUMPDEST DUP3 CALLER PUSH1 0x1 PUSH1 0x1 PUSH1 0xA0 SHL SUB DUP3 AND EQ PUSH2 0x6EC JUMPI PUSH1 0x40 MLOAD PUSH3 0x461BCD PUSH1 0xE5 SHL DUP2 MSTORE PUSH1 0x4 ADD PUSH2 0x4AD SWAP1 PUSH2 0x15BE JUMP JUMPDEST CALLER PUSH0 SWAP1 DUP2 MSTORE PUSH1 0x1 PUSH1 0x20 MSTORE PUSH1 0x40 SWAP1 KECCAK256 SLOAD PUSH1 0xFF AND PUSH2 0x736 JUMPI PUSH1 0x40 MLOAD PUSH3 0x461BCD PUSH1 0xE5 SHL DUP2 MSTORE PUSH1 0x20 PUSH1 0x4 DUP3 ADD MSTORE PUSH1 0x9 PUSH1 0x24 DUP3 ADD MSTORE PUSH9 0x2737BA1037BBB732B9 PUSH1 0xB9 SHL PUSH1 0x44 DUP3 ADD MSTORE PUSH1 0x64 ADD PUSH2 0x4AD JUMP JUMPDEST DUP2 PUSH0 DUP2 GT PUSH2 0x756 JUMPI PUSH1 0x40 MLOAD PUSH3 0x461BCD PUSH1 0xE5 SHL DUP2 MSTORE PUSH1 0x4 ADD PUSH2 0x4AD SWAP1 PUSH2 0x15E0 JUMP JUMPDEST PUSH1 0x1 PUSH1 0x1 PUSH1 0xA0 SHL SUB DUP5 AND PUSH2 0x7AC JUMPI PUSH1 0x40 MLOAD PUSH3 0x461BCD PUSH1 0xE5 SHL DUP2 MSTORE PUSH1 0x20 PUSH1 0x4 DUP3 ADD MSTORE PUSH1 0x17 PUSH1 0x24 DUP3 ADD MSTORE PUSH32 0x6164645369676E65723A207A65726F2061646472657373000000000000000000 PUSH1 0x44 DUP3 ADD MSTORE PUSH1 0x64 ADD PUSH2 0x4AD JUMP JUMPDEST PUSH1 0x1 PUSH1 0x1 PUSH1 0xA0 SHL SUB DUP5 AND PUSH0 SWAP1 DUP2 MSTORE PUSH1 0x1 PUSH1 0x20 MSTORE PUSH1 0x40 SWAP1 KECCAK256 SLOAD PUSH1 0xFF AND ISZERO PUSH2 0x814 JUMPI PUSH1 0x40 MLOAD PUSH3 0x461BCD PUSH1 0xE5 SHL DUP2 MSTORE PUSH1 0x20 PUSH1 0x4 DUP3 ADD MSTORE PUSH1 0x1B PUSH1 0x24 DUP3 ADD MSTORE PUSH32 0x6164645369676E65723A206F776E6572206E6F7420756E697175650000000000 PUSH1 0x44 DUP3 ADD MSTORE PUSH1 0x64 ADD PUSH2 0x4AD JUMP JUMPDEST PUSH1 0x1 PUSH1 0x1 PUSH1 0xA0 SHL SUB DUP5 AND PUSH0 DUP2 DUP2 MSTORE PUSH1 0x1 PUSH1 0x20 DUP2 SWAP1 MSTORE PUSH1 0x40 DUP3 KECCAK256 DUP1 SLOAD PUSH1 0xFF NOT AND DUP3 OR SWAP1 SSTORE PUSH1 0x5 DUP1 SLOAD SWAP2 DUP3 ADD DUP2 SSTORE SWAP1 SWAP2 MSTORE PUSH32 0x36B6384B5ECA791C62761152D0C79BB0604C104A5FB6F4EB0703F3154BB3DB0 ADD DUP1 SLOAD PUSH1 0x1 PUSH1 0x1 PUSH1 0xA0 SHL SUB NOT AND SWAP1 SWAP2 OR SWAP1 SSTORE PUSH1 0x6 DUP4 SWAP1 SSTORE PUSH2 0x555 DUP6 DUP5 PUSH2 0xE25 JUMP JUMPDEST PUSH1 0x40 MLOAD PUSH1 0x1 PUSH1 0x1 PUSH1 0xA0 SHL SUB DUP1 DUP6 AND PUSH1 0x24 DUP4 ADD MSTORE DUP4 AND PUSH1 0x44 DUP3 ADD MSTORE PUSH1 0x64 DUP2 ADD DUP3 SWAP1 MSTORE PUSH1 0x60 SWAP1 DUP6 SWAP1 PUSH1 0x84 ADD PUSH1 0x40 DUP1 MLOAD PUSH1 0x1F NOT DUP2 DUP5 SUB ADD DUP2 MSTORE SWAP1 DUP3 SWAP1 MSTORE SWAP2 PUSH2 0x8C9 SWAP2 PUSH2 0x16AC JUMP JUMPDEST PUSH1 0x40 MLOAD SWAP1 DUP2 SWAP1 SUB SWAP1 KECCAK256 PUSH1 0x20 DUP3 ADD DUP1 MLOAD PUSH1 0x1 PUSH1 0x1 PUSH1 0xE0 SHL SUB AND PUSH1 0x1 PUSH1 0x1 PUSH1 0xE0 SHL SUB NOT SWAP1 SWAP3 AND SWAP2 SWAP1 SWAP2 OR SWAP1 MSTORE SWAP1 POP SWAP5 SWAP4 POP POP POP POP JUMP JUMPDEST CALLER PUSH0 SWAP1 DUP2 MSTORE PUSH1 0x1 PUSH1 0x20 MSTORE PUSH1 0x40 DUP2 KECCAK256 SLOAD PUSH1 0xFF AND PUSH2 0x947 JUMPI PUSH1 0x40 MLOAD PUSH3 0x461BCD PUSH1 0xE5 SHL DUP2 MSTORE PUSH1 0x20 PUSH1 0x4 DUP3 ADD MSTORE PUSH1 0x9 PUSH1 0x24 DUP3 ADD MSTORE PUSH9 0x2737BA1037BBB732B9 PUSH1 0xB9 SHL PUSH1 0x44 DUP3 ADD MSTORE PUSH1 0x64 ADD PUSH2 0x4AD JUMP JUMPDEST PUSH0 PUSH2 0x951 DUP6 PUSH2 0xE76 JUMP JUMPDEST SWAP1 POP PUSH0 DUP1 PUSH2 0x95F DUP8 DUP10 PUSH2 0xBD8 JUMP JUMPDEST SWAP1 POP DUP2 PUSH1 0x1 PUSH1 0x1 PUSH1 0xA0 SHL SUB AND DUP2 PUSH1 0x1 PUSH1 0x1 PUSH1 0xA0 SHL SUB AND GT PUSH2 0x9E0 JUMPI PUSH1 0x40 MLOAD PUSH3 0x461BCD PUSH1 0xE5 SHL DUP2 MSTORE PUSH1 0x20 PUSH1 0x4 DUP3 ADD MSTORE PUSH1 0x35 PUSH1 0x24 DUP3 ADD MSTORE PUSH32 0x657865637574655472616E73616374696F6E3A206475706C6963617465206F72 PUSH1 0x44 DUP3 ADD MSTORE PUSH21 0x20756E6F726465726564207369676E617475726573 PUSH1 0x58 SHL PUSH1 0x64 DUP3 ADD MSTORE PUSH1 0x84 ADD PUSH2 0x4AD JUMP JUMPDEST PUSH1 0x1 PUSH1 0x1 PUSH1 0xA0 SHL SUB DUP2 AND PUSH0 SWAP1 DUP2 MSTORE PUSH1 0x1 PUSH1 0x20 MSTORE PUSH1 0x40 DUP2 KECCAK256 SLOAD SWAP2 SWAP3 POP DUP3 SWAP2 PUSH1 0xFF AND ISZERO PUSH2 0xA94 JUMPI PUSH1 0x4 DUP8 PUSH1 0x40 MLOAD PUSH2 0xA15 SWAP2 SWAP1 PUSH2 0x16AC JUMP JUMPDEST SWAP1 DUP2 MSTORE PUSH1 0x40 MLOAD SWAP1 DUP2 SWAP1 SUB PUSH1 0x20 ADD SWAP1 KECCAK256 DUP1 SLOAD SWAP1 PUSH0 PUSH2 0xA31 DUP4 PUSH2 0x1694 JUMP JUMPDEST SWAP2 SWAP1 POP SSTORE POP PUSH1 0x4 DUP8 PUSH1 0x40 MLOAD PUSH2 0xA46 SWAP2 SWAP1 PUSH2 0x16AC JUMP JUMPDEST SWAP1 DUP2 MSTORE PUSH1 0x20 ADD PUSH1 0x40 MLOAD DUP1 SWAP2 SUB SWAP1 KECCAK256 SLOAD PUSH1 0x2 DUP9 PUSH1 0x40 MLOAD PUSH2 0xA65 SWAP2 SWAP1 PUSH2 0x16AC JUMP JUMPDEST SWAP1 DUP2 MSTORE PUSH1 0x40 DUP1 MLOAD PUSH1 0x20 SWAP3 DUP2 SWAP1 SUB DUP4 ADD SWAP1 KECCAK256 SWAP3 SWAP1 SWAP3 SSTORE PUSH0 DUP9 DUP2 MSTORE PUSH1 0x3 SWAP1 SWAP2 MSTORE KECCAK256 PUSH2 0xA8E DUP9 DUP3 PUSH2 0x170B JUMP JUMPDEST POP PUSH1 0x1 SWAP1 POP JUMPDEST PUSH1 0x6 SLOAD PUSH1 0x4 DUP9 PUSH1 0x40 MLOAD PUSH2 0xAA7 SWAP2 SWAP1 PUSH2 0x16AC JUMP JUMPDEST SWAP1 DUP2 MSTORE PUSH1 0x20 ADD PUSH1 0x40 MLOAD DUP1 SWAP2 SUB SWAP1 KECCAK256 SLOAD LT ISZERO PUSH2 0xB1C JUMPI PUSH1 0x40 MLOAD PUSH3 0x461BCD PUSH1 0xE5 SHL DUP2 MSTORE PUSH1 0x20 PUSH1 0x4 DUP3 ADD MSTORE PUSH1 0x2F PUSH1 0x24 DUP3 ADD MSTORE PUSH32 0x657865637574655472616E73616374696F6E3A206E6F7420656E6F7567682076 PUSH1 0x44 DUP3 ADD MSTORE PUSH15 0x616C6964207369676E617475726573 PUSH1 0x88 SHL PUSH1 0x64 DUP3 ADD MSTORE PUSH1 0x84 ADD PUSH2 0x4AD JUMP JUMPDEST DUP1 PUSH2 0xB69 JUMPI PUSH1 0x40 MLOAD PUSH3 0x461BCD PUSH1 0xE5 SHL DUP2 MSTORE PUSH1 0x20 PUSH1 0x4 DUP3 ADD MSTORE PUSH1 0x1D PUSH1 0x24 DUP3 ADD MSTORE PUSH32 0x657865637574655472616E73616374696F6E3A207478206661696C6564000000 PUSH1 0x44 DUP3 ADD MSTORE PUSH1 0x64 ADD PUSH2 0x4AD JUMP JUMPDEST CALLER PUSH32 0x1981A0759C7F7295B44CCBD200535E8A29744B41F8DA48B42A35B8B4B8B04B6 DUP13 DUP13 PUSH2 0xB98 PUSH1 0x1 DUP12 PUSH2 0x17C6 JUMP JUMPDEST PUSH1 0x40 DUP1 MLOAD PUSH1 0x1 PUSH1 0x1 PUSH1 0xA0 SHL SUB SWAP1 SWAP5 AND DUP5 MSTORE PUSH1 0x20 DUP5 ADD SWAP3 SWAP1 SWAP3 MSTORE SWAP1 DUP3 ADD MSTORE PUSH1 0x60 DUP2 ADD DUP8 SWAP1 MSTORE PUSH1 0x80 ADD PUSH1 0x40 MLOAD DUP1 SWAP2 SUB SWAP1 LOG2 POP PUSH1 0x1 SWAP11 SWAP10 POP POP POP POP POP POP POP POP POP POP JUMP JUMPDEST PUSH0 DUP1 PUSH2 0xBE3 DUP5 PUSH2 0xE76 JUMP JUMPDEST SWAP1 POP PUSH0 PUSH2 0xBEF DUP3 PUSH2 0xEA5 JUMP JUMPDEST SWAP1 POP PUSH2 0xBFB DUP2 DUP6 PUSH2 0xEDF JUMP JUMPDEST SWAP6 SWAP5 POP POP POP POP POP JUMP JUMPDEST PUSH0 DUP1 PUSH0 DUP1 PUSH2 0xC12 DUP7 DUP7 PUSH2 0xF59 JUMP JUMPDEST SWAP3 POP SWAP3 POP SWAP3 POP PUSH2 0xC22 DUP3 DUP3 PUSH2 0xFA2 JUMP JUMPDEST POP SWAP1 SWAP5 SWAP4 POP POP POP POP JUMP JUMPDEST PUSH1 0x1 PUSH1 0x1 PUSH1 0xA0 SHL SUB DUP2 AND PUSH0 SWAP1 DUP2 MSTORE PUSH1 0x1 PUSH1 0x20 MSTORE PUSH1 0x40 DUP2 KECCAK256 DUP1 SLOAD PUSH1 0xFF NOT AND SWAP1 SSTORE PUSH1 0x5 SLOAD SWAP1 DUP2 PUSH8 0xFFFFFFFFFFFFFFFF DUP2 GT ISZERO PUSH2 0xC68 JUMPI PUSH2 0xC68 PUSH2 0x11AE JUMP JUMPDEST PUSH1 0x40 MLOAD SWAP1 DUP1 DUP3 MSTORE DUP1 PUSH1 0x20 MUL PUSH1 0x20 ADD DUP3 ADD PUSH1 0x40 MSTORE DUP1 ISZERO PUSH2 0xC91 JUMPI DUP2 PUSH1 0x20 ADD PUSH1 0x20 DUP3 MUL DUP1 CALLDATASIZE DUP4 CALLDATACOPY ADD SWAP1 POP JUMPDEST POP SWAP1 POP PUSH0 PUSH2 0xCA0 PUSH1 0x1 DUP5 PUSH2 0x17C6 JUMP JUMPDEST SWAP1 POP JUMPDEST DUP4 PUSH1 0x1 PUSH1 0x1 PUSH1 0xA0 SHL SUB AND PUSH1 0x5 DUP3 DUP2 SLOAD DUP2 LT PUSH2 0xCC0 JUMPI PUSH2 0xCC0 PUSH2 0x17D9 JUMP JUMPDEST PUSH0 SWAP2 DUP3 MSTORE PUSH1 0x20 SWAP1 SWAP2 KECCAK256 ADD SLOAD PUSH1 0x1 PUSH1 0x1 PUSH1 0xA0 SHL SUB AND EQ PUSH2 0xD6F JUMPI PUSH1 0x5 DUP2 DUP2 SLOAD DUP2 LT PUSH2 0xCEC JUMPI PUSH2 0xCEC PUSH2 0x17D9 JUMP JUMPDEST SWAP1 PUSH0 MSTORE PUSH1 0x20 PUSH0 KECCAK256 ADD PUSH0 SWAP1 SLOAD SWAP1 PUSH2 0x100 EXP SWAP1 DIV PUSH1 0x1 PUSH1 0x1 PUSH1 0xA0 SHL SUB AND DUP3 DUP3 DUP2 MLOAD DUP2 LT PUSH2 0xD19 JUMPI PUSH2 0xD19 PUSH2 0x17D9 JUMP JUMPDEST PUSH1 0x20 MUL PUSH1 0x20 ADD ADD SWAP1 PUSH1 0x1 PUSH1 0x1 PUSH1 0xA0 SHL SUB AND SWAP1 DUP2 PUSH1 0x1 PUSH1 0x1 PUSH1 0xA0 SHL SUB AND DUP2 MSTORE POP POP PUSH1 0x5 DUP1 SLOAD DUP1 PUSH2 0xD4A JUMPI PUSH2 0xD4A PUSH2 0x17ED JUMP JUMPDEST PUSH0 DUP3 DUP2 MSTORE PUSH1 0x20 SWAP1 KECCAK256 DUP2 ADD PUSH0 NOT SWAP1 DUP2 ADD DUP1 SLOAD PUSH1 0x1 PUSH1 0x1 PUSH1 0xA0 SHL SUB NOT AND SWAP1 SSTORE ADD SWAP1 SSTORE PUSH2 0xE13 JUMP JUMPDEST PUSH1 0x5 DUP1 SLOAD DUP1 PUSH2 0xD80 JUMPI PUSH2 0xD80 PUSH2 0x17ED JUMP JUMPDEST PUSH0 DUP3 DUP2 MSTORE PUSH1 0x20 SWAP1 KECCAK256 DUP2 ADD PUSH0 NOT SWAP1 DUP2 ADD DUP1 SLOAD PUSH1 0x1 PUSH1 0x1 PUSH1 0xA0 SHL SUB NOT AND SWAP1 SSTORE ADD SWAP1 SSTORE DUP1 JUMPDEST PUSH2 0xDAD PUSH1 0x1 DUP6 PUSH2 0x17C6 JUMP JUMPDEST DUP2 LT ISZERO PUSH2 0xE0C JUMPI PUSH1 0x5 DUP4 DUP3 DUP2 MLOAD DUP2 LT PUSH2 0xDC8 JUMPI PUSH2 0xDC8 PUSH2 0x17D9 JUMP JUMPDEST PUSH1 0x20 SWAP1 DUP2 MUL SWAP2 SWAP1 SWAP2 ADD DUP2 ADD MLOAD DUP3 SLOAD PUSH1 0x1 DUP1 DUP3 ADD DUP6 SSTORE PUSH0 SWAP5 DUP6 MSTORE SWAP3 SWAP1 SWAP4 KECCAK256 SWAP1 SWAP3 ADD DUP1 SLOAD PUSH1 0x1 PUSH1 0x1 PUSH1 0xA0 SHL SUB NOT AND PUSH1 0x1 PUSH1 0x1 PUSH1 0xA0 SHL SUB SWAP1 SWAP4 AND SWAP3 SWAP1 SWAP3 OR SWAP1 SWAP2 SSTORE ADD PUSH2 0xDA2 JUMP JUMPDEST POP POP POP POP POP JUMP JUMPDEST DUP1 PUSH2 0xE1D DUP2 PUSH2 0x1801 JUMP JUMPDEST SWAP2 POP POP PUSH2 0xCA3 JUMP JUMPDEST DUP2 CALLER PUSH1 0x1 PUSH1 0x1 PUSH1 0xA0 SHL SUB DUP3 AND EQ PUSH2 0xE4E JUMPI PUSH1 0x40 MLOAD PUSH3 0x461BCD PUSH1 0xE5 SHL DUP2 MSTORE PUSH1 0x4 ADD PUSH2 0x4AD SWAP1 PUSH2 0x15BE JUMP JUMPDEST DUP2 PUSH0 DUP2 GT PUSH2 0xE6E JUMPI PUSH1 0x40 MLOAD PUSH3 0x461BCD PUSH1 0xE5 SHL DUP2 MSTORE PUSH1 0x4 ADD PUSH2 0x4AD SWAP1 PUSH2 0x15E0 JUMP JUMPDEST POP POP PUSH1 0x6 SSTORE POP JUMP JUMPDEST PUSH0 DUP2 PUSH1 0x40 MLOAD PUSH1 0x20 ADD PUSH2 0xE88 SWAP2 SWAP1 PUSH2 0x16AC JUMP JUMPDEST PUSH1 0x40 MLOAD PUSH1 0x20 DUP2 DUP4 SUB SUB DUP2 MSTORE SWAP1 PUSH1 0x40 MSTORE DUP1 MLOAD SWAP1 PUSH1 0x20 ADD KECCAK256 SWAP1 POP SWAP2 SWAP1 POP JUMP JUMPDEST PUSH1 0x40 MLOAD PUSH32 0x19457468657265756D205369676E6564204D6573736167653A0A333200000000 PUSH1 0x20 DUP3 ADD MSTORE PUSH1 0x3C DUP2 ADD DUP3 SWAP1 MSTORE PUSH0 SWAP1 PUSH1 0x5C ADD PUSH2 0xE88 JUMP JUMPDEST PUSH0 DUP1 PUSH0 DUP1 PUSH2 0xEEC DUP6 PUSH2 0x105E JUMP JUMPDEST PUSH1 0x40 DUP1 MLOAD PUSH0 DUP2 MSTORE PUSH1 0x20 DUP2 ADD DUP1 DUP4 MSTORE DUP12 SWAP1 MSTORE PUSH1 0xFF DUP4 AND SWAP2 DUP2 ADD SWAP2 SWAP1 SWAP2 MSTORE PUSH1 0x60 DUP2 ADD DUP5 SWAP1 MSTORE PUSH1 0x80 DUP2 ADD DUP4 SWAP1 MSTORE SWAP3 SWAP6 POP SWAP1 SWAP4 POP SWAP2 POP PUSH1 0x1 SWAP1 PUSH1 0xA0 ADD PUSH1 0x20 PUSH1 0x40 MLOAD PUSH1 0x20 DUP2 SUB SWAP1 DUP1 DUP5 SUB SWAP1 DUP6 GAS STATICCALL ISZERO DUP1 ISZERO PUSH2 0xF44 JUMPI RETURNDATASIZE PUSH0 DUP1 RETURNDATACOPY RETURNDATASIZE PUSH0 REVERT JUMPDEST POP POP PUSH1 0x40 MLOAD PUSH1 0x1F NOT ADD MLOAD SWAP8 SWAP7 POP POP POP POP POP POP POP JUMP JUMPDEST PUSH0 DUP1 PUSH0 DUP4 MLOAD PUSH1 0x41 SUB PUSH2 0xF90 JUMPI PUSH1 0x20 DUP5 ADD MLOAD PUSH1 0x40 DUP6 ADD MLOAD PUSH1 0x60 DUP7 ADD MLOAD PUSH0 BYTE PUSH2 0xF82 DUP9 DUP3 DUP6 DUP6 PUSH2 0x10CF JUMP JUMPDEST SWAP6 POP SWAP6 POP SWAP6 POP POP POP POP PUSH2 0xF9B JUMP JUMPDEST POP POP DUP2 MLOAD PUSH0 SWAP2 POP PUSH1 0x2 SWAP1 JUMPDEST SWAP3 POP SWAP3 POP SWAP3 JUMP JUMPDEST PUSH0 DUP3 PUSH1 0x3 DUP2 GT ISZERO PUSH2 0xFB5 JUMPI PUSH2 0xFB5 PUSH2 0x1816 JUMP JUMPDEST SUB PUSH2 0xFBE JUMPI POP POP JUMP JUMPDEST PUSH1 0x1 DUP3 PUSH1 0x3 DUP2 GT ISZERO PUSH2 0xFD2 JUMPI PUSH2 0xFD2 PUSH2 0x1816 JUMP JUMPDEST SUB PUSH2 0xFF0 JUMPI PUSH1 0x40 MLOAD PUSH4 0xF645EEDF PUSH1 0xE0 SHL DUP2 MSTORE PUSH1 0x4 ADD PUSH1 0x40 MLOAD DUP1 SWAP2 SUB SWAP1 REVERT JUMPDEST PUSH1 0x2 DUP3 PUSH1 0x3 DUP2 GT ISZERO PUSH2 0x1004 JUMPI PUSH2 0x1004 PUSH2 0x1816 JUMP JUMPDEST SUB PUSH2 0x1025 JUMPI PUSH1 0x40 MLOAD PUSH4 0xFCE698F7 PUSH1 0xE0 SHL DUP2 MSTORE PUSH1 0x4 DUP2 ADD DUP3 SWAP1 MSTORE PUSH1 0x24 ADD PUSH2 0x4AD JUMP JUMPDEST PUSH1 0x3 DUP3 PUSH1 0x3 DUP2 GT ISZERO PUSH2 0x1039 JUMPI PUSH2 0x1039 PUSH2 0x1816 JUMP JUMPDEST SUB PUSH2 0x105A JUMPI PUSH1 0x40 MLOAD PUSH4 0x35E2F383 PUSH1 0xE2 SHL DUP2 MSTORE PUSH1 0x4 DUP2 ADD DUP3 SWAP1 MSTORE PUSH1 0x24 ADD PUSH2 0x4AD JUMP JUMPDEST POP POP JUMP JUMPDEST PUSH0 DUP1 PUSH0 DUP4 MLOAD PUSH1 0x41 EQ PUSH2 0x10B2 JUMPI PUSH1 0x40 MLOAD PUSH3 0x461BCD PUSH1 0xE5 SHL DUP2 MSTORE PUSH1 0x20 PUSH1 0x4 DUP3 ADD MSTORE PUSH1 0x18 PUSH1 0x24 DUP3 ADD MSTORE PUSH32 0x696E76616C6964207369676E6174757265206C656E6774680000000000000000 PUSH1 0x44 DUP3 ADD MSTORE PUSH1 0x64 ADD PUSH2 0x4AD JUMP JUMPDEST POP POP POP PUSH1 0x20 DUP2 ADD MLOAD PUSH1 0x40 DUP3 ADD MLOAD PUSH1 0x60 SWAP1 SWAP3 ADD MLOAD SWAP1 SWAP3 PUSH0 SWAP2 SWAP1 SWAP2 BYTE SWAP1 JUMP JUMPDEST PUSH0 DUP1 DUP1 PUSH32 0x7FFFFFFFFFFFFFFFFFFFFFFFFFFFFFFF5D576E7357A4501DDFE92F46681B20A0 DUP5 GT ISZERO PUSH2 0x1108 JUMPI POP PUSH0 SWAP2 POP PUSH1 0x3 SWAP1 POP DUP3 PUSH2 0x118D JUMP JUMPDEST PUSH1 0x40 DUP1 MLOAD PUSH0 DUP1 DUP3 MSTORE PUSH1 0x20 DUP3 ADD DUP1 DUP5 MSTORE DUP11 SWAP1 MSTORE PUSH1 0xFF DUP10 AND SWAP3 DUP3 ADD SWAP3 SWAP1 SWAP3 MSTORE PUSH1 0x60 DUP2 ADD DUP8 SWAP1 MSTORE PUSH1 0x80 DUP2 ADD DUP7 SWAP1 MSTORE PUSH1 0x1 SWAP1 PUSH1 0xA0 ADD PUSH1 0x20 PUSH1 0x40 MLOAD PUSH1 0x20 DUP2 SUB SWAP1 DUP1 DUP5 SUB SWAP1 DUP6 GAS STATICCALL ISZERO DUP1 ISZERO PUSH2 0x1159 JUMPI RETURNDATASIZE PUSH0 DUP1 RETURNDATACOPY RETURNDATASIZE PUSH0 REVERT JUMPDEST POP POP PUSH1 0x40 MLOAD PUSH1 0x1F NOT ADD MLOAD SWAP2 POP POP PUSH1 0x1 PUSH1 0x1 PUSH1 0xA0 SHL SUB DUP2 AND PUSH2 0x1184 JUMPI POP PUSH0 SWAP3 POP PUSH1 0x1 SWAP2 POP DUP3 SWAP1 POP PUSH2 0x118D JUMP JUMPDEST SWAP3 POP PUSH0 SWAP2 POP DUP2 SWAP1 POP JUMPDEST SWAP5 POP SWAP5 POP SWAP5 SWAP2 POP POP JUMP JUMPDEST PUSH0 PUSH1 0x20 DUP3 DUP5 SUB SLT ISZERO PUSH2 0x11A7 JUMPI PUSH0 DUP1 REVERT JUMPDEST POP CALLDATALOAD SWAP2 SWAP1 POP JUMP JUMPDEST PUSH4 0x4E487B71 PUSH1 0xE0 SHL PUSH0 MSTORE PUSH1 0x41 PUSH1 0x4 MSTORE PUSH1 0x24 PUSH0 REVERT JUMPDEST PUSH0 DUP3 PUSH1 0x1F DUP4 ADD SLT PUSH2 0x11D1 JUMPI PUSH0 DUP1 REVERT JUMPDEST DUP2 CALLDATALOAD PUSH1 0x20 DUP4 ADD PUSH0 DUP1 PUSH8 0xFFFFFFFFFFFFFFFF DUP5 GT ISZERO PUSH2 0x11F1 JUMPI PUSH2 0x11F1 PUSH2 0x11AE JUMP JUMPDEST POP PUSH1 0x40 MLOAD PUSH1 0x1F NOT PUSH1 0x1F DUP6 ADD DUP2 AND PUSH1 0x3F ADD AND DUP2 ADD DUP2 DUP2 LT PUSH8 0xFFFFFFFFFFFFFFFF DUP3 GT OR ISZERO PUSH2 0x1220 JUMPI PUSH2 0x1220 PUSH2 0x11AE JUMP JUMPDEST PUSH1 0x40 MSTORE DUP4 DUP2 MSTORE SWAP1 POP DUP1 DUP3 DUP5 ADD DUP8 LT ISZERO PUSH2 0x1237 JUMPI PUSH0 DUP1 REVERT JUMPDEST DUP4 DUP4 PUSH1 0x20 DUP4 ADD CALLDATACOPY PUSH0 PUSH1 0x20 DUP6 DUP4 ADD ADD MSTORE DUP1 SWAP5 POP POP POP POP POP SWAP3 SWAP2 POP POP JUMP JUMPDEST PUSH0 PUSH1 0x20 DUP3 DUP5 SUB SLT ISZERO PUSH2 0x1263 JUMPI PUSH0 DUP1 REVERT JUMPDEST DUP2 CALLDATALOAD PUSH8 0xFFFFFFFFFFFFFFFF DUP2 GT ISZERO PUSH2 0x1279 JUMPI PUSH0 DUP1 REVERT JUMPDEST PUSH2 0x1285 DUP5 DUP3 DUP6 ADD PUSH2 0x11C2 JUMP JUMPDEST SWAP5 SWAP4 POP POP POP POP JUMP JUMPDEST PUSH0 DUP1 PUSH1 0x40 DUP4 DUP6 SUB SLT ISZERO PUSH2 0x129E JUMPI PUSH0 DUP1 REVERT JUMPDEST DUP3 CALLDATALOAD SWAP2 POP PUSH1 0x20 DUP4 ADD CALLDATALOAD PUSH8 0xFFFFFFFFFFFFFFFF DUP2 GT ISZERO PUSH2 0x12BB JUMPI PUSH0 DUP1 REVERT JUMPDEST PUSH2 0x12C7 DUP6 DUP3 DUP7 ADD PUSH2 0x11C2 JUMP JUMPDEST SWAP2 POP POP SWAP3 POP SWAP3 SWAP1 POP JUMP JUMPDEST PUSH1 0x1 PUSH1 0x1 PUSH1 0xA0 SHL SUB DUP2 AND DUP2 EQ PUSH2 0x12E5 JUMPI PUSH0 DUP1 REVERT JUMPDEST POP JUMP JUMPDEST PUSH0 DUP1 PUSH0 PUSH1 0x60 DUP5 DUP7 SUB SLT ISZERO PUSH2 0x12FA JUMPI PUSH0 DUP1 REVERT JUMPDEST DUP4 CALLDATALOAD PUSH2 0x1305 DUP2 PUSH2 0x12D1 JUMP JUMPDEST SWAP3 POP PUSH1 0x20 DUP5 ADD CALLDATALOAD PUSH2 0x1315 DUP2 PUSH2 0x12D1 JUMP JUMPDEST SWAP3 SWAP6 SWAP3 SWAP5 POP POP POP PUSH1 0x40 SWAP2 SWAP1 SWAP2 ADD CALLDATALOAD SWAP1 JUMP JUMPDEST PUSH0 PUSH1 0x20 DUP3 DUP5 SUB SLT ISZERO PUSH2 0x1336 JUMPI PUSH0 DUP1 REVERT JUMPDEST DUP2 CALLDATALOAD PUSH2 0x1341 DUP2 PUSH2 0x12D1 JUMP JUMPDEST SWAP4 SWAP3 POP POP POP JUMP JUMPDEST PUSH0 DUP1 PUSH0 PUSH1 0x60 DUP5 DUP7 SUB SLT ISZERO PUSH2 0x135A JUMPI PUSH0 DUP1 REVERT JUMPDEST DUP4 CALLDATALOAD SWAP3 POP PUSH1 0x20 DUP5 ADD CALLDATALOAD PUSH2 0x1315 DUP2 PUSH2 0x12D1 JUMP JUMPDEST PUSH0 DUP2 MLOAD DUP1 DUP5 MSTORE DUP1 PUSH1 0x20 DUP5 ADD PUSH1 0x20 DUP7 ADD MCOPY PUSH0 PUSH1 0x20 DUP3 DUP7 ADD ADD MSTORE PUSH1 0x20 PUSH1 0x1F NOT PUSH1 0x1F DUP4 ADD AND DUP6 ADD ADD SWAP2 POP POP SWAP3 SWAP2 POP POP JUMP JUMPDEST PUSH1 0x20 DUP2 MSTORE PUSH0 PUSH2 0x47B PUSH1 0x20 DUP4 ADD DUP5 PUSH2 0x136C JUMP JUMPDEST PUSH0 DUP1 PUSH0 DUP1 PUSH1 0x80 DUP6 DUP8 SUB SLT ISZERO PUSH2 0x13BF JUMPI PUSH0 DUP1 REVERT JUMPDEST DUP5 CALLDATALOAD PUSH8 0xFFFFFFFFFFFFFFFF DUP2 GT ISZERO PUSH2 0x13D5 JUMPI PUSH0 DUP1 REVERT JUMPDEST PUSH2 0x13E1 DUP8 DUP3 DUP9 ADD PUSH2 0x11C2 JUMP JUMPDEST SWAP5 POP POP PUSH1 0x20 DUP6 ADD CALLDATALOAD PUSH2 0x13F2 DUP2 PUSH2 0x12D1 JUMP JUMPDEST SWAP3 POP PUSH1 0x40 DUP6 ADD CALLDATALOAD PUSH2 0x1402 DUP2 PUSH2 0x12D1 JUMP JUMPDEST SWAP4 SWAP7 SWAP3 SWAP6 POP SWAP3 SWAP4 PUSH1 0x60 ADD CALLDATALOAD SWAP3 POP POP JUMP JUMPDEST PUSH0 DUP1 PUSH0 DUP1 PUSH0 DUP1 PUSH1 0xC0 DUP8 DUP10 SUB SLT ISZERO PUSH2 0x1427 JUMPI PUSH0 DUP1 REVERT JUMPDEST DUP7 CALLDATALOAD PUSH2 0x1432 DUP2 PUSH2 0x12D1 JUMP JUMPDEST SWAP6 POP PUSH1 0x20 DUP8 ADD CALLDATALOAD SWAP5 POP PUSH1 0x40 DUP8 ADD CALLDATALOAD PUSH8 0xFFFFFFFFFFFFFFFF DUP2 GT ISZERO PUSH2 0x1454 JUMPI PUSH0 DUP1 REVERT JUMPDEST PUSH2 0x1460 DUP10 DUP3 DUP11 ADD PUSH2 0x11C2 JUMP JUMPDEST SWAP5 POP POP PUSH1 0x60 DUP8 ADD CALLDATALOAD PUSH8 0xFFFFFFFFFFFFFFFF DUP2 GT ISZERO PUSH2 0x147C JUMPI PUSH0 DUP1 REVERT JUMPDEST PUSH2 0x1488 DUP10 DUP3 DUP11 ADD PUSH2 0x11C2 JUMP JUMPDEST SWAP4 POP POP PUSH1 0x80 DUP8 ADD CALLDATALOAD PUSH8 0xFFFFFFFFFFFFFFFF DUP2 GT ISZERO PUSH2 0x14A4 JUMPI PUSH0 DUP1 REVERT JUMPDEST PUSH2 0x14B0 DUP10 DUP3 DUP11 ADD PUSH2 0x11C2 JUMP JUMPDEST SWAP7 SWAP10 SWAP6 SWAP9 POP SWAP4 SWAP7 SWAP3 SWAP6 SWAP5 PUSH1 0xA0 SWAP1 SWAP4 ADD CALLDATALOAD SWAP4 POP POP POP JUMP JUMPDEST PUSH0 DUP1 PUSH1 0x40 DUP4 DUP6 SUB SLT ISZERO PUSH2 0x14D7 JUMPI PUSH0 DUP1 REVERT JUMPDEST DUP3 CALLDATALOAD PUSH8 0xFFFFFFFFFFFFFFFF DUP2 GT ISZERO PUSH2 0x14ED JUMPI PUSH0 DUP1 REVERT JUMPDEST PUSH2 0x14F9 DUP6 DUP3 DUP7 ADD PUSH2 0x11C2 JUMP JUMPDEST SWAP3 POP POP PUSH1 0x20 DUP4 ADD CALLDATALOAD PUSH8 0xFFFFFFFFFFFFFFFF DUP2 GT ISZERO PUSH2 0x12BB JUMPI PUSH0 DUP1 REVERT JUMPDEST PUSH1 0x1 DUP2 DUP2 SHR SWAP1 DUP3 AND DUP1 PUSH2 0x1529 JUMPI PUSH1 0x7F DUP3 AND SWAP2 POP JUMPDEST PUSH1 0x20 DUP3 LT DUP2 SUB PUSH2 0x1547 JUMPI PUSH4 0x4E487B71 PUSH1 0xE0 SHL PUSH0 MSTORE PUSH1 0x22 PUSH1 0x4 MSTORE PUSH1 0x24 PUSH0 REVERT JUMPDEST POP SWAP2 SWAP1 POP JUMP JUMPDEST PUSH0 DUP1 DUP4 SLOAD PUSH2 0x155A DUP2 PUSH2 0x1515 JUMP JUMPDEST PUSH1 0x1 DUP3 AND DUP1 ISZERO PUSH2 0x1571 JUMPI PUSH1 0x1 DUP2 EQ PUSH2 0x1586 JUMPI PUSH2 0x15B3 JUMP JUMPDEST PUSH1 0xFF NOT DUP4 AND DUP7 MSTORE DUP2 ISZERO ISZERO DUP3 MUL DUP7 ADD SWAP4 POP PUSH2 0x15B3 JUMP JUMPDEST DUP7 PUSH0 MSTORE PUSH1 0x20 PUSH0 KECCAK256 PUSH0 JUMPDEST DUP4 DUP2 LT ISZERO PUSH2 0x15AB JUMPI DUP2 SLOAD DUP9 DUP3 ADD MSTORE PUSH1 0x1 SWAP1 SWAP2 ADD SWAP1 PUSH1 0x20 ADD PUSH2 0x158F JUMP JUMPDEST POP POP DUP2 DUP7 ADD SWAP4 POP JUMPDEST POP SWAP2 SWAP6 SWAP5 POP POP POP POP POP JUMP JUMPDEST PUSH1 0x20 DUP1 DUP3 MSTORE PUSH1 0x8 SWAP1 DUP3 ADD MSTORE PUSH8 0x2737BA1029B2B633 PUSH1 0xC1 SHL PUSH1 0x40 DUP3 ADD MSTORE PUSH1 0x60 ADD SWAP1 JUMP JUMPDEST PUSH1 0x20 DUP1 DUP3 MSTORE PUSH1 0x1E SWAP1 DUP3 ADD MSTORE PUSH32 0x4D757374206265206E6F6E2D7A65726F20736967732072657175697265640000 PUSH1 0x40 DUP3 ADD MSTORE PUSH1 0x60 ADD SWAP1 JUMP JUMPDEST PUSH1 0x1 PUSH1 0x1 PUSH1 0xA0 SHL SUB DUP5 AND DUP2 MSTORE PUSH1 0x60 PUSH1 0x20 DUP1 DUP4 ADD DUP3 SWAP1 MSTORE DUP5 SLOAD SWAP2 DUP4 ADD DUP3 SWAP1 MSTORE PUSH0 DUP6 DUP2 MSTORE SWAP1 DUP2 KECCAK256 SWAP1 SWAP2 PUSH1 0x80 DUP5 ADD SWAP1 DUP4 JUMPDEST DUP2 DUP2 LT ISZERO PUSH2 0x166C JUMPI DUP4 SLOAD PUSH1 0x1 PUSH1 0x1 PUSH1 0xA0 SHL SUB AND DUP4 MSTORE PUSH1 0x1 SWAP4 DUP5 ADD SWAP4 PUSH1 0x20 SWAP1 SWAP4 ADD SWAP3 ADD PUSH2 0x1645 JUMP JUMPDEST POP POP PUSH1 0x40 SWAP4 SWAP1 SWAP4 ADD SWAP4 SWAP1 SWAP4 MSTORE POP SWAP4 SWAP3 POP POP POP JUMP JUMPDEST PUSH4 0x4E487B71 PUSH1 0xE0 SHL PUSH0 MSTORE PUSH1 0x11 PUSH1 0x4 MSTORE PUSH1 0x24 PUSH0 REVERT JUMPDEST PUSH0 PUSH1 0x1 DUP3 ADD PUSH2 0x16A5 JUMPI PUSH2 0x16A5 PUSH2 0x1680 JUMP JUMPDEST POP PUSH1 0x1 ADD SWAP1 JUMP JUMPDEST PUSH0 DUP3 MLOAD DUP1 PUSH1 0x20 DUP6 ADD DUP5 MCOPY PUSH0 SWAP3 ADD SWAP2 DUP3 MSTORE POP SWAP2 SWAP1 POP JUMP JUMPDEST PUSH1 0x1F DUP3 GT ISZERO PUSH2 0x1706 JUMPI DUP1 PUSH0 MSTORE PUSH1 0x20 PUSH0 KECCAK256 PUSH1 0x1F DUP5 ADD PUSH1 0x5 SHR DUP2 ADD PUSH1 0x20 DUP6 LT ISZERO PUSH2 0x16E7 JUMPI POP DUP1 JUMPDEST PUSH1 0x1F DUP5 ADD PUSH1 0x5 SHR DUP3 ADD SWAP2 POP JUMPDEST DUP2 DUP2 LT ISZERO PUSH2 0xE0C JUMPI PUSH0 DUP2 SSTORE PUSH1 0x1 ADD PUSH2 0x16F3 JUMP JUMPDEST POP POP POP JUMP JUMPDEST DUP2 MLOAD PUSH8 0xFFFFFFFFFFFFFFFF DUP2 GT ISZERO PUSH2 0x1725 JUMPI PUSH2 0x1725 PUSH2 0x11AE JUMP JUMPDEST PUSH2 0x1739 DUP2 PUSH2 0x1733 DUP5 SLOAD PUSH2 0x1515 JUMP JUMPDEST DUP5 PUSH2 0x16C2 JUMP JUMPDEST PUSH1 0x20 PUSH1 0x1F DUP3 GT PUSH1 0x1 DUP2 EQ PUSH2 0x176B JUMPI PUSH0 DUP4 ISZERO PUSH2 0x1754 JUMPI POP DUP5 DUP3 ADD MLOAD JUMPDEST PUSH0 NOT PUSH1 0x3 DUP6 SWAP1 SHL SHR NOT AND PUSH1 0x1 DUP5 SWAP1 SHL OR DUP5 SSTORE PUSH2 0xE0C JUMP JUMPDEST PUSH0 DUP5 DUP2 MSTORE PUSH1 0x20 DUP2 KECCAK256 PUSH1 0x1F NOT DUP6 AND SWAP2 JUMPDEST DUP3 DUP2 LT ISZERO PUSH2 0x179A JUMPI DUP8 DUP6 ADD MLOAD DUP3 SSTORE PUSH1 0x20 SWAP5 DUP6 ADD SWAP5 PUSH1 0x1 SWAP1 SWAP3 ADD SWAP2 ADD PUSH2 0x177A JUMP JUMPDEST POP DUP5 DUP3 LT ISZERO PUSH2 0x17B7 JUMPI DUP7 DUP5 ADD MLOAD PUSH0 NOT PUSH1 0x3 DUP8 SWAP1 SHL PUSH1 0xF8 AND SHR NOT AND DUP2 SSTORE JUMPDEST POP POP POP POP PUSH1 0x1 SWAP1 DUP2 SHL ADD SWAP1 SSTORE POP JUMP JUMPDEST DUP2 DUP2 SUB DUP2 DUP2 GT ISZERO PUSH2 0x47E JUMPI PUSH2 0x47E PUSH2 0x1680 JUMP JUMPDEST PUSH4 0x4E487B71 PUSH1 0xE0 SHL PUSH0 MSTORE PUSH1 0x32 PUSH1 0x4 MSTORE PUSH1 0x24 PUSH0 REVERT JUMPDEST PUSH4 0x4E487B71 PUSH1 0xE0 SHL PUSH0 MSTORE PUSH1 0x31 PUSH1 0x4 MSTORE PUSH1 0x24 PUSH0 REVERT JUMPDEST PUSH0 DUP2 PUSH2 0x180F JUMPI PUSH2 0x180F PUSH2 0x1680 JUMP JUMPDEST POP PUSH0 NOT ADD SWAP1 JUMP JUMPDEST PUSH4 0x4E487B71 PUSH1 0xE0 SHL PUSH0 MSTORE PUSH1 0x21 PUSH1 0x4 MSTORE PUSH1 0x24 PUSH0 REVERT INVALID LOG2 PUSH5 0x6970667358 0x22 SLT KECCAK256 SWAP5 SWAP9 DUP4 EXTCODECOPY 0x4B CALL 0x4F PUSH21 0xE0F639318BC630A2EA0425EAB249C792508C1185A2 BLOCKHASH 0xEC 0xC0 PUSH5 0x736F6C6343 STOP ADDMOD BYTE STOP CALLER "
				},
				"gasEstimates": {
					"creation": {
						"codeDepositCost": "1248000",
						"executionCost": "infinite",
						"totalCost": "infinite"
					},
					"external": {
						"addSigner(address,address,uint256)": "infinite",
						"chainId()": "2372",
						"executeApproval(address,uint256,bytes,string,string,uint256)": "infinite",
						"getFunctionData(string,address,address,uint256)": "infinite",
						"getTransactionHash(uint256,address,uint256)": "2838",
						"incrementNonce()": "26676",
						"isOwner(address)": "2567",
						"nonce()": "2327",
						"owners(uint256)": "4657",
						"recover(bytes32,bytes)": "infinite",
						"removeSigner(address,address,uint256)": "infinite",
						"signaturesRequired()": "2349",
						"totalTransactionValidations(uint256)": "infinite",
						"transactionNo(uint256)": "infinite",
						"transactionValidations(string)": "infinite",
						"validSignatures(string)": "infinite",
						"verifyUserSign(string,bytes)": "infinite"
					},
					"internal": {
						"_removeOwner(address)": "infinite",
						"getEthSignedMessageHash(bytes32)": "infinite",
						"getMessageHash(string memory)": "infinite",
						"recoverSigner(bytes32,bytes memory)": "infinite",
						"splitSignature(bytes memory)": "infinite",
						"updateSignaturesRequired(address,uint256)": "infinite"
					}
				},
				"methodIdentifiers": {
					"addSigner(address,address,uint256)": "95a3ac74",
					"chainId()": "9a8a0592",
					"executeApproval(address,uint256,bytes,string,string,uint256)": "d17eced3",
					"getFunctionData(string,address,address,uint256)": "a157b0ae",
					"getTransactionHash(uint256,address,uint256)": "3aaa4771",
					"incrementNonce()": "627cdcb9",
					"isOwner(address)": "2f54bf6e",
					"nonce()": "affed0e0",
					"owners(uint256)": "025e7c27",
					"recover(bytes32,bytes)": "19045a25",
					"removeSigner(address,address,uint256)": "1f919f77",
					"signaturesRequired()": "ce757d29",
					"totalTransactionValidations(uint256)": "019010f6",
					"transactionNo(uint256)": "7708072c",
					"transactionValidations(string)": "7c72596e",
					"validSignatures(string)": "06a23e5f",
					"verifyUserSign(string,bytes)": "f2b0bb6b"
				}
			},
			"storageLayout": {
				"storage": [
					{
						"astId": 668,
						"contract": "contracts/AUG-8/Contracts-AUG-8-2024/contracts/MultiSigWallet.sol:MultiSigWallet",
						"label": "multiSigFactory",
						"offset": 0,
						"slot": "0",
						"type": "t_contract(MultiSigFactory)654"
					},
					{
						"astId": 698,
						"contract": "contracts/AUG-8/Contracts-AUG-8-2024/contracts/MultiSigWallet.sol:MultiSigWallet",
						"label": "isOwner",
						"offset": 0,
						"slot": "1",
						"type": "t_mapping(t_address,t_bool)"
					},
					{
						"astId": 702,
						"contract": "contracts/AUG-8/Contracts-AUG-8-2024/contracts/MultiSigWallet.sol:MultiSigWallet",
						"label": "transactionValidations",
						"offset": 0,
						"slot": "2",
						"type": "t_mapping(t_string_memory_ptr,t_uint256)"
					},
					{
						"astId": 706,
						"contract": "contracts/AUG-8/Contracts-AUG-8-2024/contracts/MultiSigWallet.sol:MultiSigWallet",
						"label": "transactionNo",
						"offset": 0,
						"slot": "3",
						"type": "t_mapping(t_uint256,t_string_storage)"
					},
					{
						"astId": 710,
						"contract": "contracts/AUG-8/Contracts-AUG-8-2024/contracts/MultiSigWallet.sol:MultiSigWallet",
						"label": "validSignatures",
						"offset": 0,
						"slot": "4",
						"type": "t_mapping(t_string_memory_ptr,t_uint256)"
					},
					{
						"astId": 713,
						"contract": "contracts/AUG-8/Contracts-AUG-8-2024/contracts/MultiSigWallet.sol:MultiSigWallet",
						"label": "owners",
						"offset": 0,
						"slot": "5",
						"type": "t_array(t_address)dyn_storage"
					},
					{
						"astId": 715,
						"contract": "contracts/AUG-8/Contracts-AUG-8-2024/contracts/MultiSigWallet.sol:MultiSigWallet",
						"label": "signaturesRequired",
						"offset": 0,
						"slot": "6",
						"type": "t_uint256"
					},
					{
						"astId": 717,
						"contract": "contracts/AUG-8/Contracts-AUG-8-2024/contracts/MultiSigWallet.sol:MultiSigWallet",
						"label": "nonce",
						"offset": 0,
						"slot": "7",
						"type": "t_uint256"
					},
					{
						"astId": 719,
						"contract": "contracts/AUG-8/Contracts-AUG-8-2024/contracts/MultiSigWallet.sol:MultiSigWallet",
						"label": "chainId",
						"offset": 0,
						"slot": "8",
						"type": "t_uint256"
					}
				],
				"types": {
					"t_address": {
						"encoding": "inplace",
						"label": "address",
						"numberOfBytes": "20"
					},
					"t_array(t_address)dyn_storage": {
						"base": "t_address",
						"encoding": "dynamic_array",
						"label": "address[]",
						"numberOfBytes": "32"
					},
					"t_bool": {
						"encoding": "inplace",
						"label": "bool",
						"numberOfBytes": "1"
					},
					"t_contract(MultiSigFactory)654": {
						"encoding": "inplace",
						"label": "contract MultiSigFactory",
						"numberOfBytes": "20"
					},
					"t_mapping(t_address,t_bool)": {
						"encoding": "mapping",
						"key": "t_address",
						"label": "mapping(address => bool)",
						"numberOfBytes": "32",
						"value": "t_bool"
					},
					"t_mapping(t_string_memory_ptr,t_uint256)": {
						"encoding": "mapping",
						"key": "t_string_memory_ptr",
						"label": "mapping(string => uint256)",
						"numberOfBytes": "32",
						"value": "t_uint256"
					},
					"t_mapping(t_uint256,t_string_storage)": {
						"encoding": "mapping",
						"key": "t_uint256",
						"label": "mapping(uint256 => string)",
						"numberOfBytes": "32",
						"value": "t_string_storage"
					},
					"t_string_memory_ptr": {
						"encoding": "bytes",
						"label": "string",
						"numberOfBytes": "32"
					},
					"t_string_storage": {
						"encoding": "bytes",
						"label": "string",
						"numberOfBytes": "32"
					},
					"t_uint256": {
						"encoding": "inplace",
						"label": "uint256",
						"numberOfBytes": "32"
					}
				}
			},
			"userdoc": {
				"kind": "user",
				"methods": {},
				"version": 1
			}
		}
	}
}