{
	"data": {
		"bytecode": {
			"linkReferences": {},
			"object": "6080604052604051611bdb380380611bdb83398101604081905261002291610269565b815f81116100775760405162461bcd60e51b815260206004820152601e60248201527f4d757374206265206e6f6e2d7a65726f2073696773207265717569726564000060448201526064015b60405180910390fd5b5f80546001600160a01b0319166001600160a01b03841617815560068490555b8451811015610229575f8582815181106100b3576100b361035a565b602002602001015190505f6001600160a01b0316816001600160a01b03160361011e5760405162461bcd60e51b815260206004820152601960248201527f636f6e7374727563746f723a207a65726f206164647265737300000000000000604482015260640161006e565b6001600160a01b0381165f9081526001602052604090205460ff16156101865760405162461bcd60e51b815260206004820152601d60248201527f636f6e7374727563746f723a206f776e6572206e6f7420756e69717565000000604482015260640161006e565b6001600160a01b0381165f81815260016020818152604092839020805460ff1916831781556005805493840190557f036b6384b5eca791c62761152d0c79bb0604c104a5fb6f4eb0703f3154bb3db090920180546001600160a01b031916851790559054915160ff909216151582527ffe545f48304051c4029eb2da9927daa59da0414b4b084fdceaf2955b609b899e910160405180910390a250600101610097565b5050506008929092555061036e9050565b634e487b7160e01b5f52604160045260245ffd5b80516001600160a01b0381168114610264575f80fd5b919050565b5f805f806080858703121561027c575f80fd5b845160208601519094506001600160401b03811115610299575f80fd5b8501601f810187136102a9575f80fd5b80516001600160401b038111156102c2576102c261023a565b604051600582901b90603f8201601f191681016001600160401b03811182821017156102f0576102f061023a565b60405291825260208184018101929081018a84111561030d575f80fd5b6020850194505b83851015610333576103258561024e565b815260209485019401610314565b506040890151909650945061034f92505060608701905061024e565b905092959194509250565b634e487b7160e01b5f52603260045260245ffd5b6118608061037b5f395ff3fe6080604052600436106100fd575f3560e01c80637708072c11610092578063a157b0ae11610062578063a157b0ae1461038c578063affed0e0146103ab578063ce757d29146103c0578063d17eced3146103d5578063f2b0bb6b146103f4575f80fd5b80637708072c146102f55780637c72596e1461032157806395a3ac74146103585780639a8a059214610377575f80fd5b80631f919f77116100cd5780631f919f77146102015780632f54bf6e146102225780633aaa477114610260578063627cdcb9146102e1575f80fd5b8063019010f614610142578063025e7c271461017457806306a23e5f146101ab57806319045a25146101e2575f80fd5b3661013e576040805134815247602082015233917f90890809c654f11d6e72a28fa60149770a0d11ec6c92319d6ceb2bb0a4ea1a15910160405180910390a2005b5f80fd5b34801561014d575f80fd5b5061016161015c366004611197565b610413565b6040519081526020015b60405180910390f35b34801561017f575f80fd5b5061019361018e366004611197565b610448565b6040516001600160a01b03909116815260200161016b565b3480156101b6575f80fd5b506101616101c5366004611253565b805160208183018101805160048252928201919093012091525481565b3480156101ed575f80fd5b506101936101fc36600461128d565b610470565b34801561020c575f80fd5b5061022061021b3660046112e8565b610484565b005b34801561022d575f80fd5b5061025061023c366004611326565b60016020525f908152604090205460ff1681565b604051901515815260200161016b565b34801561026b575f80fd5b5061016161027a366004611348565b6008546040516bffffffffffffffffffffffff1930606090811b821660208401526034830193909352605482018690529184901b9091166074820152608881018290525f9060a8016040516020818303038152906040528051906020012090509392505050565b3480156102ec575f80fd5b5061016161060f565b348015610300575f80fd5b5061031461030f366004611197565b61062c565b60405161016b919061139a565b34801561032c575f80fd5b5061016161033b366004611253565b805160208183018101805160028252928201919093012091525481565b348015610363575f80fd5b506102206103723660046112e8565b6106c3565b348015610382575f80fd5b5061016160085481565b348015610397575f80fd5b506103146103a63660046113ac565b610885565b3480156103b6575f80fd5b5061016160075481565b3480156103cb575f80fd5b5061016160065481565b3480156103e0575f80fd5b506102506103ef366004611412565b6108fd565b3480156103ff575f80fd5b5061019361040e3660046114c6565b610bd8565b6007545f9081526003602052604080822090516002916104329161154d565b9081526020016040518091039020549050919050565b60058181548110610457575f80fd5b5f918252602090912001546001600160a01b0316905081565b5f61047b8383610c04565b90505b92915050565b82336001600160a01b038216146104b65760405162461bcd60e51b81526004016104ad906115be565b60405180910390fd5b815f81116104d65760405162461bcd60e51b81526004016104ad906115e0565b6001600160a01b0384165f9081526001602052604090205460ff1661053d5760405162461bcd60e51b815260206004820152601760248201527f72656d6f76655369676e65723a206e6f74206f776e657200000000000000000060448201526064016104ad565b61054684610c2c565b60068390556105558584610e25565b6001600160a01b0384165f8181526001602090815260409182902054915160ff909216151582527ffe545f48304051c4029eb2da9927daa59da0414b4b084fdceaf2955b609b899e910160405180910390a25f54604051632fb7d0a560e21b81526001600160a01b039091169063bedf4294906105db9030906005908890600401611617565b5f604051808303815f87803b1580156105f2575f80fd5b505af1158015610604573d5f803e3d5ffd5b505050505050505050565b600780545f918261061f83611694565b9190505550600754905090565b60036020525f90815260409020805461064490611515565b80601f016020809104026020016040519081016040528092919081815260200182805461067090611515565b80156106bb5780601f10610692576101008083540402835291602001916106bb565b820191905f5260205f20905b81548152906001019060200180831161069e57829003601f168201915b505050505081565b82336001600160a01b038216146106ec5760405162461bcd60e51b81526004016104ad906115be565b335f9081526001602052604090205460ff166107365760405162461bcd60e51b81526020600482015260096024820152682737ba1037bbb732b960b91b60448201526064016104ad565b815f81116107565760405162461bcd60e51b81526004016104ad906115e0565b6001600160a01b0384166107ac5760405162461bcd60e51b815260206004820152601760248201527f6164645369676e65723a207a65726f206164647265737300000000000000000060448201526064016104ad565b6001600160a01b0384165f9081526001602052604090205460ff16156108145760405162461bcd60e51b815260206004820152601b60248201527f6164645369676e65723a206f776e6572206e6f7420756e69717565000000000060448201526064016104ad565b6001600160a01b0384165f8181526001602081905260408220805460ff1916821790556005805491820181559091527f036b6384b5eca791c62761152d0c79bb0604c104a5fb6f4eb0703f3154bb3db00180546001600160a01b031916909117905560068390556105558584610e25565b6040516001600160a01b0380851660248301528316604482015260648101829052606090859060840160408051601f1981840301815290829052916108c9916116ac565b6040519081900390206020820180516001600160e01b03166001600160e01b03199092169190911790529050949350505050565b335f9081526001602052604081205460ff166109475760405162461bcd60e51b81526020600482015260096024820152682737ba1037bbb732b960b91b60448201526064016104ad565b5f61095185610e76565b90505f8061095f8789610bd8565b9050816001600160a01b0316816001600160a01b0316116109e05760405162461bcd60e51b815260206004820152603560248201527f657865637574655472616e73616374696f6e3a206475706c6963617465206f7260448201527420756e6f726465726564207369676e61747572657360581b60648201526084016104ad565b6001600160a01b0381165f90815260016020526040812054919250829160ff1615610a9457600487604051610a1591906116ac565b9081526040519081900360200190208054905f610a3183611694565b9190505550600487604051610a4691906116ac565b908152602001604051809103902054600288604051610a6591906116ac565b9081526040805160209281900383019020929092555f888152600390915220610a8e888261170b565b50600190505b600654600488604051610aa791906116ac565b9081526020016040518091039020541015610b1c5760405162461bcd60e51b815260206004820152602f60248201527f657865637574655472616e73616374696f6e3a206e6f7420656e6f756768207660448201526e616c6964207369676e61747572657360881b60648201526084016104ad565b80610b695760405162461bcd60e51b815260206004820152601d60248201527f657865637574655472616e73616374696f6e3a207478206661696c656400000060448201526064016104ad565b337f01981a0759c7f7295b44ccbd200535e8a29744b41f8da48b42a35b8b4b8b04b68c8c610b9860018b6117c6565b604080516001600160a01b0390941684526020840192909252908201526060810187905260800160405180910390a25060019a9950505050505050505050565b5f80610be384610e76565b90505f610bef82610ea5565b9050610bfb8185610edf565b95945050505050565b5f805f80610c128686610f59565b925092509250610c228282610fa2565b5090949350505050565b6001600160a01b0381165f908152600160205260408120805460ff19169055600554908167ffffffffffffffff811115610c6857610c686111ae565b604051908082528060200260200182016040528015610c91578160200160208202803683370190505b5090505f610ca06001846117c6565b90505b836001600160a01b031660058281548110610cc057610cc06117d9565b5f918252602090912001546001600160a01b031614610d6f5760058181548110610cec57610cec6117d9565b905f5260205f20015f9054906101000a90046001600160a01b0316828281518110610d1957610d196117d9565b60200260200101906001600160a01b031690816001600160a01b0316815250506005805480610d4a57610d4a6117ed565b5f8281526020902081015f1990810180546001600160a01b0319169055019055610e13565b6005805480610d8057610d806117ed565b5f8281526020902081015f1990810180546001600160a01b0319169055019055805b610dad6001856117c6565b811015610e0c576005838281518110610dc857610dc86117d9565b6020908102919091018101518254600180820185555f9485529290932090920180546001600160a01b0319166001600160a01b039093169290921790915501610da2565b5050505050565b80610e1d81611801565b915050610ca3565b81336001600160a01b03821614610e4e5760405162461bcd60e51b81526004016104ad906115be565b815f8111610e6e5760405162461bcd60e51b81526004016104ad906115e0565b505060065550565b5f81604051602001610e8891906116ac565b604051602081830303815290604052805190602001209050919050565b6040517f19457468657265756d205369676e6564204d6573736167653a0a3332000000006020820152603c81018290525f90605c01610e88565b5f805f80610eec8561105e565b604080515f8152602081018083528b905260ff8316918101919091526060810184905260808101839052929550909350915060019060a0016020604051602081039080840390855afa158015610f44573d5f803e3d5ffd5b5050604051601f190151979650505050505050565b5f805f8351604103610f90576020840151604085015160608601515f1a610f82888285856110cf565b955095509550505050610f9b565b505081515f91506002905b9250925092565b5f826003811115610fb557610fb5611816565b03610fbe575050565b6001826003811115610fd257610fd2611816565b03610ff05760405163f645eedf60e01b815260040160405180910390fd5b600282600381111561100457611004611816565b036110255760405163fce698f760e01b8152600481018290526024016104ad565b600382600381111561103957611039611816565b0361105a576040516335e2f38360e21b8152600481018290526024016104ad565b5050565b5f805f83516041146110b25760405162461bcd60e51b815260206004820152601860248201527f696e76616c6964207369676e6174757265206c656e677468000000000000000060448201526064016104ad565b5050506020810151604082015160609092015190925f9190911a90565b5f80807f7fffffffffffffffffffffffffffffff5d576e7357a4501ddfe92f46681b20a084111561110857505f9150600390508261118d565b604080515f808252602082018084528a905260ff891692820192909252606081018790526080810186905260019060a0016020604051602081039080840390855afa158015611159573d5f803e3d5ffd5b5050604051601f1901519150506001600160a01b03811661118457505f92506001915082905061118d565b92505f91508190505b9450945094915050565b5f602082840312156111a7575f80fd5b5035919050565b634e487b7160e01b5f52604160045260245ffd5b5f82601f8301126111d1575f80fd5b8135602083015f8067ffffffffffffffff8411156111f1576111f16111ae565b50604051601f19601f85018116603f0116810181811067ffffffffffffffff82111715611220576112206111ae565b604052838152905080828401871015611237575f80fd5b838360208301375f602085830101528094505050505092915050565b5f60208284031215611263575f80fd5b813567ffffffffffffffff811115611279575f80fd5b611285848285016111c2565b949350505050565b5f806040838503121561129e575f80fd5b82359150602083013567ffffffffffffffff8111156112bb575f80fd5b6112c7858286016111c2565b9150509250929050565b6001600160a01b03811681146112e5575f80fd5b50565b5f805f606084860312156112fa575f80fd5b8335611305816112d1565b92506020840135611315816112d1565b929592945050506040919091013590565b5f60208284031215611336575f80fd5b8135611341816112d1565b9392505050565b5f805f6060848603121561135a575f80fd5b833592506020840135611315816112d1565b5f81518084528060208401602086015e5f602082860101526020601f19601f83011685010191505092915050565b602081525f61047b602083018461136c565b5f805f80608085870312156113bf575f80fd5b843567ffffffffffffffff8111156113d5575f80fd5b6113e1878288016111c2565b94505060208501356113f2816112d1565b92506040850135611402816112d1565b9396929550929360600135925050565b5f805f805f8060c08789031215611427575f80fd5b8635611432816112d1565b955060208701359450604087013567ffffffffffffffff811115611454575f80fd5b61146089828a016111c2565b945050606087013567ffffffffffffffff81111561147c575f80fd5b61148889828a016111c2565b935050608087013567ffffffffffffffff8111156114a4575f80fd5b6114b089828a016111c2565b9699959850939692959460a09093013593505050565b5f80604083850312156114d7575f80fd5b823567ffffffffffffffff8111156114ed575f80fd5b6114f9858286016111c2565b925050602083013567ffffffffffffffff8111156112bb575f80fd5b600181811c9082168061152957607f821691505b60208210810361154757634e487b7160e01b5f52602260045260245ffd5b50919050565b5f80835461155a81611515565b6001821680156115715760018114611586576115b3565b60ff19831686528115158202860193506115b3565b865f5260205f205f5b838110156115ab5781548882015260019091019060200161158f565b505081860193505b509195945050505050565b6020808252600890820152672737ba1029b2b63360c11b604082015260600190565b6020808252601e908201527f4d757374206265206e6f6e2d7a65726f20736967732072657175697265640000604082015260600190565b6001600160a01b03841681526060602080830182905284549183018290525f85815290812090916080840190835b8181101561166c5783546001600160a01b0316835260019384019360209093019201611645565b505060409390930193909352509392505050565b634e487b7160e01b5f52601160045260245ffd5b5f600182016116a5576116a5611680565b5060010190565b5f82518060208501845e5f920191825250919050565b601f82111561170657805f5260205f20601f840160051c810160208510156116e75750805b601f840160051c820191505b81811015610e0c575f81556001016116f3565b505050565b815167ffffffffffffffff811115611725576117256111ae565b611739816117338454611515565b846116c2565b6020601f82116001811461176b575f83156117545750848201515b5f19600385901b1c1916600184901b178455610e0c565b5f84815260208120601f198516915b8281101561179a578785015182556020948501946001909201910161177a565b50848210156117b757868401515f19600387901b60f8161c191681555b50505050600190811b01905550565b8181038181111561047e5761047e611680565b634e487b7160e01b5f52603260045260245ffd5b634e487b7160e01b5f52603160045260245ffd5b5f8161180f5761180f611680565b505f190190565b634e487b7160e01b5f52602160045260245ffdfea26469706673582212209498833c4bf14f74e0f639318bc630a2ea0425eab249c792508c1185a240ecc064736f6c634300081a0033",
			"opcodes": "PUSH1 0x80 PUSH1 0x40 MSTORE PUSH1 0x40 MLOAD PUSH2 0x1BDB CODESIZE SUB DUP1 PUSH2 0x1BDB DUP4 CODECOPY DUP2 ADD PUSH1 0x40 DUP2 SWAP1 MSTORE PUSH2 0x22 SWAP2 PUSH2 0x269 JUMP JUMPDEST DUP2 PUSH0 DUP2 GT PUSH2 0x77 JUMPI PUSH1 0x40 MLOAD PUSH3 0x461BCD PUSH1 0xE5 SHL DUP2 MSTORE PUSH1 0x20 PUSH1 0x4 DUP3 ADD MSTORE PUSH1 0x1E PUSH1 0x24 DUP3 ADD MSTORE PUSH32 0x4D757374206265206E6F6E2D7A65726F20736967732072657175697265640000 PUSH1 0x44 DUP3 ADD MSTORE PUSH1 0x64 ADD JUMPDEST PUSH1 0x40 MLOAD DUP1 SWAP2 SUB SWAP1 REVERT JUMPDEST PUSH0 DUP1 SLOAD PUSH1 0x1 PUSH1 0x1 PUSH1 0xA0 SHL SUB NOT AND PUSH1 0x1 PUSH1 0x1 PUSH1 0xA0 SHL SUB DUP5 AND OR DUP2 SSTORE PUSH1 0x6 DUP5 SWAP1 SSTORE JUMPDEST DUP5 MLOAD DUP2 LT ISZERO PUSH2 0x229 JUMPI PUSH0 DUP6 DUP3 DUP2 MLOAD DUP2 LT PUSH2 0xB3 JUMPI PUSH2 0xB3 PUSH2 0x35A JUMP JUMPDEST PUSH1 0x20 MUL PUSH1 0x20 ADD ADD MLOAD SWAP1 POP PUSH0 PUSH1 0x1 PUSH1 0x1 PUSH1 0xA0 SHL SUB AND DUP2 PUSH1 0x1 PUSH1 0x1 PUSH1 0xA0 SHL SUB AND SUB PUSH2 0x11E JUMPI PUSH1 0x40 MLOAD PUSH3 0x461BCD PUSH1 0xE5 SHL DUP2 MSTORE PUSH1 0x20 PUSH1 0x4 DUP3 ADD MSTORE PUSH1 0x19 PUSH1 0x24 DUP3 ADD MSTORE PUSH32 0x636F6E7374727563746F723A207A65726F206164647265737300000000000000 PUSH1 0x44 DUP3 ADD MSTORE PUSH1 0x64 ADD PUSH2 0x6E JUMP JUMPDEST PUSH1 0x1 PUSH1 0x1 PUSH1 0xA0 SHL SUB DUP2 AND PUSH0 SWAP1 DUP2 MSTORE PUSH1 0x1 PUSH1 0x20 MSTORE PUSH1 0x40 SWAP1 KECCAK256 SLOAD PUSH1 0xFF AND ISZERO PUSH2 0x186 JUMPI PUSH1 0x40 MLOAD PUSH3 0x461BCD PUSH1 0xE5 SHL DUP2 MSTORE PUSH1 0x20 PUSH1 0x4 DUP3 ADD MSTORE PUSH1 0x1D PUSH1 0x24 DUP3 ADD MSTORE PUSH32 0x636F6E7374727563746F723A206F776E6572206E6F7420756E69717565000000 PUSH1 0x44 DUP3 ADD MSTORE PUSH1 0x64 ADD PUSH2 0x6E JUMP JUMPDEST PUSH1 0x1 PUSH1 0x1 PUSH1 0xA0 SHL SUB DUP2 AND PUSH0 DUP2 DUP2 MSTORE PUSH1 0x1 PUSH1 0x20 DUP2 DUP2 MSTORE PUSH1 0x40 SWAP3 DUP4 SWAP1 KECCAK256 DUP1 SLOAD PUSH1 0xFF NOT AND DUP4 OR DUP2 SSTORE PUSH1 0x5 DUP1 SLOAD SWAP4 DUP5 ADD SWAP1 SSTORE PUSH32 0x36B6384B5ECA791C62761152D0C79BB0604C104A5FB6F4EB0703F3154BB3DB0 SWAP1 SWAP3 ADD DUP1 SLOAD PUSH1 0x1 PUSH1 0x1 PUSH1 0xA0 SHL SUB NOT AND DUP6 OR SWAP1 SSTORE SWAP1 SLOAD SWAP2 MLOAD PUSH1 0xFF SWAP1 SWAP3 AND ISZERO ISZERO DUP3 MSTORE PUSH32 0xFE545F48304051C4029EB2DA9927DAA59DA0414B4B084FDCEAF2955B609B899E SWAP2 ADD PUSH1 0x40 MLOAD DUP1 SWAP2 SUB SWAP1 LOG2 POP PUSH1 0x1 ADD PUSH2 0x97 JUMP JUMPDEST POP POP POP PUSH1 0x8 SWAP3 SWAP1 SWAP3 SSTORE POP PUSH2 0x36E SWAP1 POP JUMP JUMPDEST PUSH4 0x4E487B71 PUSH1 0xE0 SHL PUSH0 MSTORE PUSH1 0x41 PUSH1 0x4 MSTORE PUSH1 0x24 PUSH0 REVERT JUMPDEST DUP1 MLOAD PUSH1 0x1 PUSH1 0x1 PUSH1 0xA0 SHL SUB DUP2 AND DUP2 EQ PUSH2 0x264 JUMPI PUSH0 DUP1 REVERT JUMPDEST SWAP2 SWAP1 POP JUMP JUMPDEST PUSH0 DUP1 PUSH0 DUP1 PUSH1 0x80 DUP6 DUP8 SUB SLT ISZERO PUSH2 0x27C JUMPI PUSH0 DUP1 REVERT JUMPDEST DUP5 MLOAD PUSH1 0x20 DUP7 ADD MLOAD SWAP1 SWAP5 POP PUSH1 0x1 PUSH1 0x1 PUSH1 0x40 SHL SUB DUP2 GT ISZERO PUSH2 0x299 JUMPI PUSH0 DUP1 REVERT JUMPDEST DUP6 ADD PUSH1 0x1F DUP2 ADD DUP8 SGT PUSH2 0x2A9 JUMPI PUSH0 DUP1 REVERT JUMPDEST DUP1 MLOAD PUSH1 0x1 PUSH1 0x1 PUSH1 0x40 SHL SUB DUP2 GT ISZERO PUSH2 0x2C2 JUMPI PUSH2 0x2C2 PUSH2 0x23A JUMP JUMPDEST PUSH1 0x40 MLOAD PUSH1 0x5 DUP3 SWAP1 SHL SWAP1 PUSH1 0x3F DUP3 ADD PUSH1 0x1F NOT AND DUP2 ADD PUSH1 0x1 PUSH1 0x1 PUSH1 0x40 SHL SUB DUP2 GT DUP3 DUP3 LT OR ISZERO PUSH2 0x2F0 JUMPI PUSH2 0x2F0 PUSH2 0x23A JUMP JUMPDEST PUSH1 0x40 MSTORE SWAP2 DUP3 MSTORE PUSH1 0x20 DUP2 DUP5 ADD DUP2 ADD SWAP3 SWAP1 DUP2 ADD DUP11 DUP5 GT ISZERO PUSH2 0x30D JUMPI PUSH0 DUP1 REVERT JUMPDEST PUSH1 0x20 DUP6 ADD SWAP5 POP JUMPDEST DUP4 DUP6 LT ISZERO PUSH2 0x333 JUMPI PUSH2 0x325 DUP6 PUSH2 0x24E JUMP JUMPDEST DUP2 MSTORE PUSH1 0x20 SWAP5 DUP6 ADD SWAP5 ADD PUSH2 0x314 JUMP JUMPDEST POP PUSH1 0x40 DUP10 ADD MLOAD SWAP1 SWAP7 POP SWAP5 POP PUSH2 0x34F SWAP3 POP POP PUSH1 0x60 DUP8 ADD SWAP1 POP PUSH2 0x24E JUMP JUMPDEST SWAP1 POP SWAP3 SWAP6 SWAP2 SWAP5 POP SWAP3 POP JUMP JUMPDEST PUSH4 0x4E487B71 PUSH1 0xE0 SHL PUSH0 MSTORE PUSH1 0x32 PUSH1 0x4 MSTORE PUSH1 0x24 PUSH0 REVERT JUMPDEST PUSH2 0x1860 DUP1 PUSH2 0x37B PUSH0 CODECOPY PUSH0 RETURN INVALID PUSH1 0x80 PUSH1 0x40 MSTORE PUSH1 0x4 CALLDATASIZE LT PUSH2 0xFD JUMPI PUSH0 CALLDATALOAD PUSH1 0xE0 SHR DUP1 PUSH4 0x7708072C GT PUSH2 0x92 JUMPI DUP1 PUSH4 0xA157B0AE GT PUSH2 0x62 JUMPI DUP1 PUSH4 0xA157B0AE EQ PUSH2 0x38C JUMPI DUP1 PUSH4 0xAFFED0E0 EQ PUSH2 0x3AB JUMPI DUP1 PUSH4 0xCE757D29 EQ PUSH2 0x3C0 JUMPI DUP1 PUSH4 0xD17ECED3 EQ PUSH2 0x3D5 JUMPI DUP1 PUSH4 0xF2B0BB6B EQ PUSH2 0x3F4 JUMPI PUSH0 DUP1 REVERT JUMPDEST DUP1 PUSH4 0x7708072C EQ PUSH2 0x2F5 JUMPI DUP1 PUSH4 0x7C72596E EQ PUSH2 0x321 JUMPI DUP1 PUSH4 0x95A3AC74 EQ PUSH2 0x358 JUMPI DUP1 PUSH4 0x9A8A0592 EQ PUSH2 0x377 JUMPI PUSH0 DUP1 REVERT JUMPDEST DUP1 PUSH4 0x1F919F77 GT PUSH2 0xCD JUMPI DUP1 PUSH4 0x1F919F77 EQ PUSH2 0x201 JUMPI DUP1 PUSH4 0x2F54BF6E EQ PUSH2 0x222 JUMPI DUP1 PUSH4 0x3AAA4771 EQ PUSH2 0x260 JUMPI DUP1 PUSH4 0x627CDCB9 EQ PUSH2 0x2E1 JUMPI PUSH0 DUP1 REVERT JUMPDEST DUP1 PUSH4 0x19010F6 EQ PUSH2 0x142 JUMPI DUP1 PUSH4 0x25E7C27 EQ PUSH2 0x174 JUMPI DUP1 PUSH4 0x6A23E5F EQ PUSH2 0x1AB JUMPI DUP1 PUSH4 0x19045A25 EQ PUSH2 0x1E2 JUMPI PUSH0 DUP1 REVERT JUMPDEST CALLDATASIZE PUSH2 0x13E JUMPI PUSH1 0x40 DUP1 MLOAD CALLVALUE DUP2 MSTORE SELFBALANCE PUSH1 0x20 DUP3 ADD MSTORE CALLER SWAP2 PUSH32 0x90890809C654F11D6E72A28FA60149770A0D11EC6C92319D6CEB2BB0A4EA1A15 SWAP2 ADD PUSH1 0x40 MLOAD DUP1 SWAP2 SUB SWAP1 LOG2 STOP JUMPDEST PUSH0 DUP1 REVERT JUMPDEST CALLVALUE DUP1 ISZERO PUSH2 0x14D JUMPI PUSH0 DUP1 REVERT JUMPDEST POP PUSH2 0x161 PUSH2 0x15C CALLDATASIZE PUSH1 0x4 PUSH2 0x1197 JUMP JUMPDEST PUSH2 0x413 JUMP JUMPDEST PUSH1 0x40 MLOAD SWAP1 DUP2 MSTORE PUSH1 0x20 ADD JUMPDEST PUSH1 0x40 MLOAD DUP1 SWAP2 SUB SWAP1 RETURN JUMPDEST CALLVALUE DUP1 ISZERO PUSH2 0x17F JUMPI PUSH0 DUP1 REVERT JUMPDEST POP PUSH2 0x193 PUSH2 0x18E CALLDATASIZE PUSH1 0x4 PUSH2 0x1197 JUMP JUMPDEST PUSH2 0x448 JUMP JUMPDEST PUSH1 0x40 MLOAD PUSH1 0x1 PUSH1 0x1 PUSH1 0xA0 SHL SUB SWAP1 SWAP2 AND DUP2 MSTORE PUSH1 0x20 ADD PUSH2 0x16B JUMP JUMPDEST CALLVALUE DUP1 ISZERO PUSH2 0x1B6 JUMPI PUSH0 DUP1 REVERT JUMPDEST POP PUSH2 0x161 PUSH2 0x1C5 CALLDATASIZE PUSH1 0x4 PUSH2 0x1253 JUMP JUMPDEST DUP1 MLOAD PUSH1 0x20 DUP2 DUP4 ADD DUP2 ADD DUP1 MLOAD PUSH1 0x4 DUP3 MSTORE SWAP3 DUP3 ADD SWAP2 SWAP1 SWAP4 ADD KECCAK256 SWAP2 MSTORE SLOAD DUP2 JUMP JUMPDEST CALLVALUE DUP1 ISZERO PUSH2 0x1ED JUMPI PUSH0 DUP1 REVERT JUMPDEST POP PUSH2 0x193 PUSH2 0x1FC CALLDATASIZE PUSH1 0x4 PUSH2 0x128D JUMP JUMPDEST PUSH2 0x470 JUMP JUMPDEST CALLVALUE DUP1 ISZERO PUSH2 0x20C JUMPI PUSH0 DUP1 REVERT JUMPDEST POP PUSH2 0x220 PUSH2 0x21B CALLDATASIZE PUSH1 0x4 PUSH2 0x12E8 JUMP JUMPDEST PUSH2 0x484 JUMP JUMPDEST STOP JUMPDEST CALLVALUE DUP1 ISZERO PUSH2 0x22D JUMPI PUSH0 DUP1 REVERT JUMPDEST POP PUSH2 0x250 PUSH2 0x23C CALLDATASIZE PUSH1 0x4 PUSH2 0x1326 JUMP JUMPDEST PUSH1 0x1 PUSH1 0x20 MSTORE PUSH0 SWAP1 DUP2 MSTORE PUSH1 0x40 SWAP1 KECCAK256 SLOAD PUSH1 0xFF AND DUP2 JUMP JUMPDEST PUSH1 0x40 MLOAD SWAP1 ISZERO ISZERO DUP2 MSTORE PUSH1 0x20 ADD PUSH2 0x16B JUMP JUMPDEST CALLVALUE DUP1 ISZERO PUSH2 0x26B JUMPI PUSH0 DUP1 REVERT JUMPDEST POP PUSH2 0x161 PUSH2 0x27A CALLDATASIZE PUSH1 0x4 PUSH2 0x1348 JUMP JUMPDEST PUSH1 0x8 SLOAD PUSH1 0x40 MLOAD PUSH12 0xFFFFFFFFFFFFFFFFFFFFFFFF NOT ADDRESS PUSH1 0x60 SWAP1 DUP2 SHL DUP3 AND PUSH1 0x20 DUP5 ADD MSTORE PUSH1 0x34 DUP4 ADD SWAP4 SWAP1 SWAP4 MSTORE PUSH1 0x54 DUP3 ADD DUP7 SWAP1 MSTORE SWAP2 DUP5 SWAP1 SHL SWAP1 SWAP2 AND PUSH1 0x74 DUP3 ADD MSTORE PUSH1 0x88 DUP2 ADD DUP3 SWAP1 MSTORE PUSH0 SWAP1 PUSH1 0xA8 ADD PUSH1 0x40 MLOAD PUSH1 0x20 DUP2 DUP4 SUB SUB DUP2 MSTORE SWAP1 PUSH1 0x40 MSTORE DUP1 MLOAD SWAP1 PUSH1 0x20 ADD KECCAK256 SWAP1 POP SWAP4 SWAP3 POP POP POP JUMP JUMPDEST CALLVALUE DUP1 ISZERO PUSH2 0x2EC JUMPI PUSH0 DUP1 REVERT JUMPDEST POP PUSH2 0x161 PUSH2 0x60F JUMP JUMPDEST CALLVALUE DUP1 ISZERO PUSH2 0x300 JUMPI PUSH0 DUP1 REVERT JUMPDEST POP PUSH2 0x314 PUSH2 0x30F CALLDATASIZE PUSH1 0x4 PUSH2 0x1197 JUMP JUMPDEST PUSH2 0x62C JUMP JUMPDEST PUSH1 0x40 MLOAD PUSH2 0x16B SWAP2 SWAP1 PUSH2 0x139A JUMP JUMPDEST CALLVALUE DUP1 ISZERO PUSH2 0x32C JUMPI PUSH0 DUP1 REVERT JUMPDEST POP PUSH2 0x161 PUSH2 0x33B CALLDATASIZE PUSH1 0x4 PUSH2 0x1253 JUMP JUMPDEST DUP1 MLOAD PUSH1 0x20 DUP2 DUP4 ADD DUP2 ADD DUP1 MLOAD PUSH1 0x2 DUP3 MSTORE SWAP3 DUP3 ADD SWAP2 SWAP1 SWAP4 ADD KECCAK256 SWAP2 MSTORE SLOAD DUP2 JUMP JUMPDEST CALLVALUE DUP1 ISZERO PUSH2 0x363 JUMPI PUSH0 DUP1 REVERT JUMPDEST POP PUSH2 0x220 PUSH2 0x372 CALLDATASIZE PUSH1 0x4 PUSH2 0x12E8 JUMP JUMPDEST PUSH2 0x6C3 JUMP JUMPDEST CALLVALUE DUP1 ISZERO PUSH2 0x382 JUMPI PUSH0 DUP1 REVERT JUMPDEST POP PUSH2 0x161 PUSH1 0x8 SLOAD DUP2 JUMP JUMPDEST CALLVALUE DUP1 ISZERO PUSH2 0x397 JUMPI PUSH0 DUP1 REVERT JUMPDEST POP PUSH2 0x314 PUSH2 0x3A6 CALLDATASIZE PUSH1 0x4 PUSH2 0x13AC JUMP JUMPDEST PUSH2 0x885 JUMP JUMPDEST CALLVALUE DUP1 ISZERO PUSH2 0x3B6 JUMPI PUSH0 DUP1 REVERT JUMPDEST POP PUSH2 0x161 PUSH1 0x7 SLOAD DUP2 JUMP JUMPDEST CALLVALUE DUP1 ISZERO PUSH2 0x3CB JUMPI PUSH0 DUP1 REVERT JUMPDEST POP PUSH2 0x161 PUSH1 0x6 SLOAD DUP2 JUMP JUMPDEST CALLVALUE DUP1 ISZERO PUSH2 0x3E0 JUMPI PUSH0 DUP1 REVERT JUMPDEST POP PUSH2 0x250 PUSH2 0x3EF CALLDATASIZE PUSH1 0x4 PUSH2 0x1412 JUMP JUMPDEST PUSH2 0x8FD JUMP JUMPDEST CALLVALUE DUP1 ISZERO PUSH2 0x3FF JUMPI PUSH0 DUP1 REVERT JUMPDEST POP PUSH2 0x193 PUSH2 0x40E CALLDATASIZE PUSH1 0x4 PUSH2 0x14C6 JUMP JUMPDEST PUSH2 0xBD8 JUMP JUMPDEST PUSH1 0x7 SLOAD PUSH0 SWAP1 DUP2 MSTORE PUSH1 0x3 PUSH1 0x20 MSTORE PUSH1 0x40 DUP1 DUP3 KECCAK256 SWAP1 MLOAD PUSH1 0x2 SWAP2 PUSH2 0x432 SWAP2 PUSH2 0x154D JUMP JUMPDEST SWAP1 DUP2 MSTORE PUSH1 0x20 ADD PUSH1 0x40 MLOAD DUP1 SWAP2 SUB SWAP1 KECCAK256 SLOAD SWAP1 POP SWAP2 SWAP1 POP JUMP JUMPDEST PUSH1 0x5 DUP2 DUP2 SLOAD DUP2 LT PUSH2 0x457 JUMPI PUSH0 DUP1 REVERT JUMPDEST PUSH0 SWAP2 DUP3 MSTORE PUSH1 0x20 SWAP1 SWAP2 KECCAK256 ADD SLOAD PUSH1 0x1 PUSH1 0x1 PUSH1 0xA0 SHL SUB AND SWAP1 POP DUP2 JUMP JUMPDEST PUSH0 PUSH2 0x47B DUP4 DUP4 PUSH2 0xC04 JUMP JUMPDEST SWAP1 POP JUMPDEST SWAP3 SWAP2 POP POP JUMP JUMPDEST DUP3 CALLER PUSH1 0x1 PUSH1 0x1 PUSH1 0xA0 SHL SUB DUP3 AND EQ PUSH2 0x4B6 JUMPI PUSH1 0x40 MLOAD PUSH3 0x461BCD PUSH1 0xE5 SHL DUP2 MSTORE PUSH1 0x4 ADD PUSH2 0x4AD SWAP1 PUSH2 0x15BE JUMP JUMPDEST PUSH1 0x40 MLOAD DUP1 SWAP2 SUB SWAP1 REVERT JUMPDEST DUP2 PUSH0 DUP2 GT PUSH2 0x4D6 JUMPI PUSH1 0x40 MLOAD PUSH3 0x461BCD PUSH1 0xE5 SHL DUP2 MSTORE PUSH1 0x4 ADD PUSH2 0x4AD SWAP1 PUSH2 0x15E0 JUMP JUMPDEST PUSH1 0x1 PUSH1 0x1 PUSH1 0xA0 SHL SUB DUP5 AND PUSH0 SWAP1 DUP2 MSTORE PUSH1 0x1 PUSH1 0x20 MSTORE PUSH1 0x40 SWAP1 KECCAK256 SLOAD PUSH1 0xFF AND PUSH2 0x53D JUMPI PUSH1 0x40 MLOAD PUSH3 0x461BCD PUSH1 0xE5 SHL DUP2 MSTORE PUSH1 0x20 PUSH1 0x4 DUP3 ADD MSTORE PUSH1 0x17 PUSH1 0x24 DUP3 ADD MSTORE PUSH32 0x72656D6F76655369676E65723A206E6F74206F776E6572000000000000000000 PUSH1 0x44 DUP3 ADD MSTORE PUSH1 0x64 ADD PUSH2 0x4AD JUMP JUMPDEST PUSH2 0x546 DUP5 PUSH2 0xC2C JUMP JUMPDEST PUSH1 0x6 DUP4 SWAP1 SSTORE PUSH2 0x555 DUP6 DUP5 PUSH2 0xE25 JUMP JUMPDEST PUSH1 0x1 PUSH1 0x1 PUSH1 0xA0 SHL SUB DUP5 AND PUSH0 DUP2 DUP2 MSTORE PUSH1 0x1 PUSH1 0x20 SWAP1 DUP2 MSTORE PUSH1 0x40 SWAP2 DUP3 SWAP1 KECCAK256 SLOAD SWAP2 MLOAD PUSH1 0xFF SWAP1 SWAP3 AND ISZERO ISZERO DUP3 MSTORE PUSH32 0xFE545F48304051C4029EB2DA9927DAA59DA0414B4B084FDCEAF2955B609B899E SWAP2 ADD PUSH1 0x40 MLOAD DUP1 SWAP2 SUB SWAP1 LOG2 PUSH0 SLOAD PUSH1 0x40 MLOAD PUSH4 0x2FB7D0A5 PUSH1 0xE2 SHL DUP2 MSTORE PUSH1 0x1 PUSH1 0x1 PUSH1 0xA0 SHL SUB SWAP1 SWAP2 AND SWAP1 PUSH4 0xBEDF4294 SWAP1 PUSH2 0x5DB SWAP1 ADDRESS SWAP1 PUSH1 0x5 SWAP1 DUP9 SWAP1 PUSH1 0x4 ADD PUSH2 0x1617 JUMP JUMPDEST PUSH0 PUSH1 0x40 MLOAD DUP1 DUP4 SUB DUP2 PUSH0 DUP8 DUP1 EXTCODESIZE ISZERO DUP1 ISZERO PUSH2 0x5F2 JUMPI PUSH0 DUP1 REVERT JUMPDEST POP GAS CALL ISZERO DUP1 ISZERO PUSH2 0x604 JUMPI RETURNDATASIZE PUSH0 DUP1 RETURNDATACOPY RETURNDATASIZE PUSH0 REVERT JUMPDEST POP POP POP POP POP POP POP POP POP JUMP JUMPDEST PUSH1 0x7 DUP1 SLOAD PUSH0 SWAP2 DUP3 PUSH2 0x61F DUP4 PUSH2 0x1694 JUMP JUMPDEST SWAP2 SWAP1 POP SSTORE POP PUSH1 0x7 SLOAD SWAP1 POP SWAP1 JUMP JUMPDEST PUSH1 0x3 PUSH1 0x20 MSTORE PUSH0 SWAP1 DUP2 MSTORE PUSH1 0x40 SWAP1 KECCAK256 DUP1 SLOAD PUSH2 0x644 SWAP1 PUSH2 0x1515 JUMP JUMPDEST DUP1 PUSH1 0x1F ADD PUSH1 0x20 DUP1 SWAP2 DIV MUL PUSH1 0x20 ADD PUSH1 0x40 MLOAD SWAP1 DUP2 ADD PUSH1 0x40 MSTORE DUP1 SWAP3 SWAP2 SWAP1 DUP2 DUP2 MSTORE PUSH1 0x20 ADD DUP3 DUP1 SLOAD PUSH2 0x670 SWAP1 PUSH2 0x1515 JUMP JUMPDEST DUP1 ISZERO PUSH2 0x6BB JUMPI DUP1 PUSH1 0x1F LT PUSH2 0x692 JUMPI PUSH2 0x100 DUP1 DUP4 SLOAD DIV MUL DUP4 MSTORE SWAP2 PUSH1 0x20 ADD SWAP2 PUSH2 0x6BB JUMP JUMPDEST DUP3 ADD SWAP2 SWAP1 PUSH0 MSTORE PUSH1 0x20 PUSH0 KECCAK256 SWAP1 JUMPDEST DUP2 SLOAD DUP2 MSTORE SWAP1 PUSH1 0x1 ADD SWAP1 PUSH1 0x20 ADD DUP1 DUP4 GT PUSH2 0x69E JUMPI DUP3 SWAP1 SUB PUSH1 0x1F AND DUP3 ADD SWAP2 JUMPDEST POP POP POP POP POP DUP2 JUMP JUMPDEST DUP3 CALLER PUSH1 0x1 PUSH1 0x1 PUSH1 0xA0 SHL SUB DUP3 AND EQ PUSH2 0x6EC JUMPI PUSH1 0x40 MLOAD PUSH3 0x461BCD PUSH1 0xE5 SHL DUP2 MSTORE PUSH1 0x4 ADD PUSH2 0x4AD SWAP1 PUSH2 0x15BE JUMP JUMPDEST CALLER PUSH0 SWAP1 DUP2 MSTORE PUSH1 0x1 PUSH1 0x20 MSTORE PUSH1 0x40 SWAP1 KECCAK256 SLOAD PUSH1 0xFF AND PUSH2 0x736 JUMPI PUSH1 0x40 MLOAD PUSH3 0x461BCD PUSH1 0xE5 SHL DUP2 MSTORE PUSH1 0x20 PUSH1 0x4 DUP3 ADD MSTORE PUSH1 0x9 PUSH1 0x24 DUP3 ADD MSTORE PUSH9 0x2737BA1037BBB732B9 PUSH1 0xB9 SHL PUSH1 0x44 DUP3 ADD MSTORE PUSH1 0x64 ADD PUSH2 0x4AD JUMP JUMPDEST DUP2 PUSH0 DUP2 GT PUSH2 0x756 JUMPI PUSH1 0x40 MLOAD PUSH3 0x461BCD PUSH1 0xE5 SHL DUP2 MSTORE PUSH1 0x4 ADD PUSH2 0x4AD SWAP1 PUSH2 0x15E0 JUMP JUMPDEST PUSH1 0x1 PUSH1 0x1 PUSH1 0xA0 SHL SUB DUP5 AND PUSH2 0x7AC JUMPI PUSH1 0x40 MLOAD PUSH3 0x461BCD PUSH1 0xE5 SHL DUP2 MSTORE PUSH1 0x20 PUSH1 0x4 DUP3 ADD MSTORE PUSH1 0x17 PUSH1 0x24 DUP3 ADD MSTORE PUSH32 0x6164645369676E65723A207A65726F2061646472657373000000000000000000 PUSH1 0x44 DUP3 ADD MSTORE PUSH1 0x64 ADD PUSH2 0x4AD JUMP JUMPDEST PUSH1 0x1 PUSH1 0x1 PUSH1 0xA0 SHL SUB DUP5 AND PUSH0 SWAP1 DUP2 MSTORE PUSH1 0x1 PUSH1 0x20 MSTORE PUSH1 0x40 SWAP1 KECCAK256 SLOAD PUSH1 0xFF AND ISZERO PUSH2 0x814 JUMPI PUSH1 0x40 MLOAD PUSH3 0x461BCD PUSH1 0xE5 SHL DUP2 MSTORE PUSH1 0x20 PUSH1 0x4 DUP3 ADD MSTORE PUSH1 0x1B PUSH1 0x24 DUP3 ADD MSTORE PUSH32 0x6164645369676E65723A206F776E6572206E6F7420756E697175650000000000 PUSH1 0x44 DUP3 ADD MSTORE PUSH1 0x64 ADD PUSH2 0x4AD JUMP JUMPDEST PUSH1 0x1 PUSH1 0x1 PUSH1 0xA0 SHL SUB DUP5 AND PUSH0 DUP2 DUP2 MSTORE PUSH1 0x1 PUSH1 0x20 DUP2 SWAP1 MSTORE PUSH1 0x40 DUP3 KECCAK256 DUP1 SLOAD PUSH1 0xFF NOT AND DUP3 OR SWAP1 SSTORE PUSH1 0x5 DUP1 SLOAD SWAP2 DUP3 ADD DUP2 SSTORE SWAP1 SWAP2 MSTORE PUSH32 0x36B6384B5ECA791C62761152D0C79BB0604C104A5FB6F4EB0703F3154BB3DB0 ADD DUP1 SLOAD PUSH1 0x1 PUSH1 0x1 PUSH1 0xA0 SHL SUB NOT AND SWAP1 SWAP2 OR SWAP1 SSTORE PUSH1 0x6 DUP4 SWAP1 SSTORE PUSH2 0x555 DUP6 DUP5 PUSH2 0xE25 JUMP JUMPDEST PUSH1 0x40 MLOAD PUSH1 0x1 PUSH1 0x1 PUSH1 0xA0 SHL SUB DUP1 DUP6 AND PUSH1 0x24 DUP4 ADD MSTORE DUP4 AND PUSH1 0x44 DUP3 ADD MSTORE PUSH1 0x64 DUP2 ADD DUP3 SWAP1 MSTORE PUSH1 0x60 SWAP1 DUP6 SWAP1 PUSH1 0x84 ADD PUSH1 0x40 DUP1 MLOAD PUSH1 0x1F NOT DUP2 DUP5 SUB ADD DUP2 MSTORE SWAP1 DUP3 SWAP1 MSTORE SWAP2 PUSH2 0x8C9 SWAP2 PUSH2 0x16AC JUMP JUMPDEST PUSH1 0x40 MLOAD SWAP1 DUP2 SWAP1 SUB SWAP1 KECCAK256 PUSH1 0x20 DUP3 ADD DUP1 MLOAD PUSH1 0x1 PUSH1 0x1 PUSH1 0xE0 SHL SUB AND PUSH1 0x1 PUSH1 0x1 PUSH1 0xE0 SHL SUB NOT SWAP1 SWAP3 AND SWAP2 SWAP1 SWAP2 OR SWAP1 MSTORE SWAP1 POP SWAP5 SWAP4 POP POP POP POP JUMP JUMPDEST CALLER PUSH0 SWAP1 DUP2 MSTORE PUSH1 0x1 PUSH1 0x20 MSTORE PUSH1 0x40 DUP2 KECCAK256 SLOAD PUSH1 0xFF AND PUSH2 0x947 JUMPI PUSH1 0x40 MLOAD PUSH3 0x461BCD PUSH1 0xE5 SHL DUP2 MSTORE PUSH1 0x20 PUSH1 0x4 DUP3 ADD MSTORE PUSH1 0x9 PUSH1 0x24 DUP3 ADD MSTORE PUSH9 0x2737BA1037BBB732B9 PUSH1 0xB9 SHL PUSH1 0x44 DUP3 ADD MSTORE PUSH1 0x64 ADD PUSH2 0x4AD JUMP JUMPDEST PUSH0 PUSH2 0x951 DUP6 PUSH2 0xE76 JUMP JUMPDEST SWAP1 POP PUSH0 DUP1 PUSH2 0x95F DUP8 DUP10 PUSH2 0xBD8 JUMP JUMPDEST SWAP1 POP DUP2 PUSH1 0x1 PUSH1 0x1 PUSH1 0xA0 SHL SUB AND DUP2 PUSH1 0x1 PUSH1 0x1 PUSH1 0xA0 SHL SUB AND GT PUSH2 0x9E0 JUMPI PUSH1 0x40 MLOAD PUSH3 0x461BCD PUSH1 0xE5 SHL DUP2 MSTORE PUSH1 0x20 PUSH1 0x4 DUP3 ADD MSTORE PUSH1 0x35 PUSH1 0x24 DUP3 ADD MSTORE PUSH32 0x657865637574655472616E73616374696F6E3A206475706C6963617465206F72 PUSH1 0x44 DUP3 ADD MSTORE PUSH21 0x20756E6F726465726564207369676E617475726573 PUSH1 0x58 SHL PUSH1 0x64 DUP3 ADD MSTORE PUSH1 0x84 ADD PUSH2 0x4AD JUMP JUMPDEST PUSH1 0x1 PUSH1 0x1 PUSH1 0xA0 SHL SUB DUP2 AND PUSH0 SWAP1 DUP2 MSTORE PUSH1 0x1 PUSH1 0x20 MSTORE PUSH1 0x40 DUP2 KECCAK256 SLOAD SWAP2 SWAP3 POP DUP3 SWAP2 PUSH1 0xFF AND ISZERO PUSH2 0xA94 JUMPI PUSH1 0x4 DUP8 PUSH1 0x40 MLOAD PUSH2 0xA15 SWAP2 SWAP1 PUSH2 0x16AC JUMP JUMPDEST SWAP1 DUP2 MSTORE PUSH1 0x40 MLOAD SWAP1 DUP2 SWAP1 SUB PUSH1 0x20 ADD SWAP1 KECCAK256 DUP1 SLOAD SWAP1 PUSH0 PUSH2 0xA31 DUP4 PUSH2 0x1694 JUMP JUMPDEST SWAP2 SWAP1 POP SSTORE POP PUSH1 0x4 DUP8 PUSH1 0x40 MLOAD PUSH2 0xA46 SWAP2 SWAP1 PUSH2 0x16AC JUMP JUMPDEST SWAP1 DUP2 MSTORE PUSH1 0x20 ADD PUSH1 0x40 MLOAD DUP1 SWAP2 SUB SWAP1 KECCAK256 SLOAD PUSH1 0x2 DUP9 PUSH1 0x40 MLOAD PUSH2 0xA65 SWAP2 SWAP1 PUSH2 0x16AC JUMP JUMPDEST SWAP1 DUP2 MSTORE PUSH1 0x40 DUP1 MLOAD PUSH1 0x20 SWAP3 DUP2 SWAP1 SUB DUP4 ADD SWAP1 KECCAK256 SWAP3 SWAP1 SWAP3 SSTORE PUSH0 DUP9 DUP2 MSTORE PUSH1 0x3 SWAP1 SWAP2 MSTORE KECCAK256 PUSH2 0xA8E DUP9 DUP3 PUSH2 0x170B JUMP JUMPDEST POP PUSH1 0x1 SWAP1 POP JUMPDEST PUSH1 0x6 SLOAD PUSH1 0x4 DUP9 PUSH1 0x40 MLOAD PUSH2 0xAA7 SWAP2 SWAP1 PUSH2 0x16AC JUMP JUMPDEST SWAP1 DUP2 MSTORE PUSH1 0x20 ADD PUSH1 0x40 MLOAD DUP1 SWAP2 SUB SWAP1 KECCAK256 SLOAD LT ISZERO PUSH2 0xB1C JUMPI PUSH1 0x40 MLOAD PUSH3 0x461BCD PUSH1 0xE5 SHL DUP2 MSTORE PUSH1 0x20 PUSH1 0x4 DUP3 ADD MSTORE PUSH1 0x2F PUSH1 0x24 DUP3 ADD MSTORE PUSH32 0x657865637574655472616E73616374696F6E3A206E6F7420656E6F7567682076 PUSH1 0x44 DUP3 ADD MSTORE PUSH15 0x616C6964207369676E617475726573 PUSH1 0x88 SHL PUSH1 0x64 DUP3 ADD MSTORE PUSH1 0x84 ADD PUSH2 0x4AD JUMP JUMPDEST DUP1 PUSH2 0xB69 JUMPI PUSH1 0x40 MLOAD PUSH3 0x461BCD PUSH1 0xE5 SHL DUP2 MSTORE PUSH1 0x20 PUSH1 0x4 DUP3 ADD MSTORE PUSH1 0x1D PUSH1 0x24 DUP3 ADD MSTORE PUSH32 0x657865637574655472616E73616374696F6E3A207478206661696C6564000000 PUSH1 0x44 DUP3 ADD MSTORE PUSH1 0x64 ADD PUSH2 0x4AD JUMP JUMPDEST CALLER PUSH32 0x1981A0759C7F7295B44CCBD200535E8A29744B41F8DA48B42A35B8B4B8B04B6 DUP13 DUP13 PUSH2 0xB98 PUSH1 0x1 DUP12 PUSH2 0x17C6 JUMP JUMPDEST PUSH1 0x40 DUP1 MLOAD PUSH1 0x1 PUSH1 0x1 PUSH1 0xA0 SHL SUB SWAP1 SWAP5 AND DUP5 MSTORE PUSH1 0x20 DUP5 ADD SWAP3 SWAP1 SWAP3 MSTORE SWAP1 DUP3 ADD MSTORE PUSH1 0x60 DUP2 ADD DUP8 SWAP1 MSTORE PUSH1 0x80 ADD PUSH1 0x40 MLOAD DUP1 SWAP2 SUB SWAP1 LOG2 POP PUSH1 0x1 SWAP11 SWAP10 POP POP POP POP POP POP POP POP POP POP JUMP JUMPDEST PUSH0 DUP1 PUSH2 0xBE3 DUP5 PUSH2 0xE76 JUMP JUMPDEST SWAP1 POP PUSH0 PUSH2 0xBEF DUP3 PUSH2 0xEA5 JUMP JUMPDEST SWAP1 POP PUSH2 0xBFB DUP2 DUP6 PUSH2 0xEDF JUMP JUMPDEST SWAP6 SWAP5 POP POP POP POP POP JUMP JUMPDEST PUSH0 DUP1 PUSH0 DUP1 PUSH2 0xC12 DUP7 DUP7 PUSH2 0xF59 JUMP JUMPDEST SWAP3 POP SWAP3 POP SWAP3 POP PUSH2 0xC22 DUP3 DUP3 PUSH2 0xFA2 JUMP JUMPDEST POP SWAP1 SWAP5 SWAP4 POP POP POP POP JUMP JUMPDEST PUSH1 0x1 PUSH1 0x1 PUSH1 0xA0 SHL SUB DUP2 AND PUSH0 SWAP1 DUP2 MSTORE PUSH1 0x1 PUSH1 0x20 MSTORE PUSH1 0x40 DUP2 KECCAK256 DUP1 SLOAD PUSH1 0xFF NOT AND SWAP1 SSTORE PUSH1 0x5 SLOAD SWAP1 DUP2 PUSH8 0xFFFFFFFFFFFFFFFF DUP2 GT ISZERO PUSH2 0xC68 JUMPI PUSH2 0xC68 PUSH2 0x11AE JUMP JUMPDEST PUSH1 0x40 MLOAD SWAP1 DUP1 DUP3 MSTORE DUP1 PUSH1 0x20 MUL PUSH1 0x20 ADD DUP3 ADD PUSH1 0x40 MSTORE DUP1 ISZERO PUSH2 0xC91 JUMPI DUP2 PUSH1 0x20 ADD PUSH1 0x20 DUP3 MUL DUP1 CALLDATASIZE DUP4 CALLDATACOPY ADD SWAP1 POP JUMPDEST POP SWAP1 POP PUSH0 PUSH2 0xCA0 PUSH1 0x1 DUP5 PUSH2 0x17C6 JUMP JUMPDEST SWAP1 POP JUMPDEST DUP4 PUSH1 0x1 PUSH1 0x1 PUSH1 0xA0 SHL SUB AND PUSH1 0x5 DUP3 DUP2 SLOAD DUP2 LT PUSH2 0xCC0 JUMPI PUSH2 0xCC0 PUSH2 0x17D9 JUMP JUMPDEST PUSH0 SWAP2 DUP3 MSTORE PUSH1 0x20 SWAP1 SWAP2 KECCAK256 ADD SLOAD PUSH1 0x1 PUSH1 0x1 PUSH1 0xA0 SHL SUB AND EQ PUSH2 0xD6F JUMPI PUSH1 0x5 DUP2 DUP2 SLOAD DUP2 LT PUSH2 0xCEC JUMPI PUSH2 0xCEC PUSH2 0x17D9 JUMP JUMPDEST SWAP1 PUSH0 MSTORE PUSH1 0x20 PUSH0 KECCAK256 ADD PUSH0 SWAP1 SLOAD SWAP1 PUSH2 0x100 EXP SWAP1 DIV PUSH1 0x1 PUSH1 0x1 PUSH1 0xA0 SHL SUB AND DUP3 DUP3 DUP2 MLOAD DUP2 LT PUSH2 0xD19 JUMPI PUSH2 0xD19 PUSH2 0x17D9 JUMP JUMPDEST PUSH1 0x20 MUL PUSH1 0x20 ADD ADD SWAP1 PUSH1 0x1 PUSH1 0x1 PUSH1 0xA0 SHL SUB AND SWAP1 DUP2 PUSH1 0x1 PUSH1 0x1 PUSH1 0xA0 SHL SUB AND DUP2 MSTORE POP POP PUSH1 0x5 DUP1 SLOAD DUP1 PUSH2 0xD4A JUMPI PUSH2 0xD4A PUSH2 0x17ED JUMP JUMPDEST PUSH0 DUP3 DUP2 MSTORE PUSH1 0x20 SWAP1 KECCAK256 DUP2 ADD PUSH0 NOT SWAP1 DUP2 ADD DUP1 SLOAD PUSH1 0x1 PUSH1 0x1 PUSH1 0xA0 SHL SUB NOT AND SWAP1 SSTORE ADD SWAP1 SSTORE PUSH2 0xE13 JUMP JUMPDEST PUSH1 0x5 DUP1 SLOAD DUP1 PUSH2 0xD80 JUMPI PUSH2 0xD80 PUSH2 0x17ED JUMP JUMPDEST PUSH0 DUP3 DUP2 MSTORE PUSH1 0x20 SWAP1 KECCAK256 DUP2 ADD PUSH0 NOT SWAP1 DUP2 ADD DUP1 SLOAD PUSH1 0x1 PUSH1 0x1 PUSH1 0xA0 SHL SUB NOT AND SWAP1 SSTORE ADD SWAP1 SSTORE DUP1 JUMPDEST PUSH2 0xDAD PUSH1 0x1 DUP6 PUSH2 0x17C6 JUMP JUMPDEST DUP2 LT ISZERO PUSH2 0xE0C JUMPI PUSH1 0x5 DUP4 DUP3 DUP2 MLOAD DUP2 LT PUSH2 0xDC8 JUMPI PUSH2 0xDC8 PUSH2 0x17D9 JUMP JUMPDEST PUSH1 0x20 SWAP1 DUP2 MUL SWAP2 SWAP1 SWAP2 ADD DUP2 ADD MLOAD DUP3 SLOAD PUSH1 0x1 DUP1 DUP3 ADD DUP6 SSTORE PUSH0 SWAP5 DUP6 MSTORE SWAP3 SWAP1 SWAP4 KECCAK256 SWAP1 SWAP3 ADD DUP1 SLOAD PUSH1 0x1 PUSH1 0x1 PUSH1 0xA0 SHL SUB NOT AND PUSH1 0x1 PUSH1 0x1 PUSH1 0xA0 SHL SUB SWAP1 SWAP4 AND SWAP3 SWAP1 SWAP3 OR SWAP1 SWAP2 SSTORE ADD PUSH2 0xDA2 JUMP JUMPDEST POP POP POP POP POP JUMP JUMPDEST DUP1 PUSH2 0xE1D DUP2 PUSH2 0x1801 JUMP JUMPDEST SWAP2 POP POP PUSH2 0xCA3 JUMP JUMPDEST DUP2 CALLER PUSH1 0x1 PUSH1 0x1 PUSH1 0xA0 SHL SUB DUP3 AND EQ PUSH2 0xE4E JUMPI PUSH1 0x40 MLOAD PUSH3 0x461BCD PUSH1 0xE5 SHL DUP2 MSTORE PUSH1 0x4 ADD PUSH2 0x4AD SWAP1 PUSH2 0x15BE JUMP JUMPDEST DUP2 PUSH0 DUP2 GT PUSH2 0xE6E JUMPI PUSH1 0x40 MLOAD PUSH3 0x461BCD PUSH1 0xE5 SHL DUP2 MSTORE PUSH1 0x4 ADD PUSH2 0x4AD SWAP1 PUSH2 0x15E0 JUMP JUMPDEST POP POP PUSH1 0x6 SSTORE POP JUMP JUMPDEST PUSH0 DUP2 PUSH1 0x40 MLOAD PUSH1 0x20 ADD PUSH2 0xE88 SWAP2 SWAP1 PUSH2 0x16AC JUMP JUMPDEST PUSH1 0x40 MLOAD PUSH1 0x20 DUP2 DUP4 SUB SUB DUP2 MSTORE SWAP1 PUSH1 0x40 MSTORE DUP1 MLOAD SWAP1 PUSH1 0x20 ADD KECCAK256 SWAP1 POP SWAP2 SWAP1 POP JUMP JUMPDEST PUSH1 0x40 MLOAD PUSH32 0x19457468657265756D205369676E6564204D6573736167653A0A333200000000 PUSH1 0x20 DUP3 ADD MSTORE PUSH1 0x3C DUP2 ADD DUP3 SWAP1 MSTORE PUSH0 SWAP1 PUSH1 0x5C ADD PUSH2 0xE88 JUMP JUMPDEST PUSH0 DUP1 PUSH0 DUP1 PUSH2 0xEEC DUP6 PUSH2 0x105E JUMP JUMPDEST PUSH1 0x40 DUP1 MLOAD PUSH0 DUP2 MSTORE PUSH1 0x20 DUP2 ADD DUP1 DUP4 MSTORE DUP12 SWAP1 MSTORE PUSH1 0xFF DUP4 AND SWAP2 DUP2 ADD SWAP2 SWAP1 SWAP2 MSTORE PUSH1 0x60 DUP2 ADD DUP5 SWAP1 MSTORE PUSH1 0x80 DUP2 ADD DUP4 SWAP1 MSTORE SWAP3 SWAP6 POP SWAP1 SWAP4 POP SWAP2 POP PUSH1 0x1 SWAP1 PUSH1 0xA0 ADD PUSH1 0x20 PUSH1 0x40 MLOAD PUSH1 0x20 DUP2 SUB SWAP1 DUP1 DUP5 SUB SWAP1 DUP6 GAS STATICCALL ISZERO DUP1 ISZERO PUSH2 0xF44 JUMPI RETURNDATASIZE PUSH0 DUP1 RETURNDATACOPY RETURNDATASIZE PUSH0 REVERT JUMPDEST POP POP PUSH1 0x40 MLOAD PUSH1 0x1F NOT ADD MLOAD SWAP8 SWAP7 POP POP POP POP POP POP POP JUMP JUMPDEST PUSH0 DUP1 PUSH0 DUP4 MLOAD PUSH1 0x41 SUB PUSH2 0xF90 JUMPI PUSH1 0x20 DUP5 ADD MLOAD PUSH1 0x40 DUP6 ADD MLOAD PUSH1 0x60 DUP7 ADD MLOAD PUSH0 BYTE PUSH2 0xF82 DUP9 DUP3 DUP6 DUP6 PUSH2 0x10CF JUMP JUMPDEST SWAP6 POP SWAP6 POP SWAP6 POP POP POP POP PUSH2 0xF9B JUMP JUMPDEST POP POP DUP2 MLOAD PUSH0 SWAP2 POP PUSH1 0x2 SWAP1 JUMPDEST SWAP3 POP SWAP3 POP SWAP3 JUMP JUMPDEST PUSH0 DUP3 PUSH1 0x3 DUP2 GT ISZERO PUSH2 0xFB5 JUMPI PUSH2 0xFB5 PUSH2 0x1816 JUMP JUMPDEST SUB PUSH2 0xFBE JUMPI POP POP JUMP JUMPDEST PUSH1 0x1 DUP3 PUSH1 0x3 DUP2 GT ISZERO PUSH2 0xFD2 JUMPI PUSH2 0xFD2 PUSH2 0x1816 JUMP JUMPDEST SUB PUSH2 0xFF0 JUMPI PUSH1 0x40 MLOAD PUSH4 0xF645EEDF PUSH1 0xE0 SHL DUP2 MSTORE PUSH1 0x4 ADD PUSH1 0x40 MLOAD DUP1 SWAP2 SUB SWAP1 REVERT JUMPDEST PUSH1 0x2 DUP3 PUSH1 0x3 DUP2 GT ISZERO PUSH2 0x1004 JUMPI PUSH2 0x1004 PUSH2 0x1816 JUMP JUMPDEST SUB PUSH2 0x1025 JUMPI PUSH1 0x40 MLOAD PUSH4 0xFCE698F7 PUSH1 0xE0 SHL DUP2 MSTORE PUSH1 0x4 DUP2 ADD DUP3 SWAP1 MSTORE PUSH1 0x24 ADD PUSH2 0x4AD JUMP JUMPDEST PUSH1 0x3 DUP3 PUSH1 0x3 DUP2 GT ISZERO PUSH2 0x1039 JUMPI PUSH2 0x1039 PUSH2 0x1816 JUMP JUMPDEST SUB PUSH2 0x105A JUMPI PUSH1 0x40 MLOAD PUSH4 0x35E2F383 PUSH1 0xE2 SHL DUP2 MSTORE PUSH1 0x4 DUP2 ADD DUP3 SWAP1 MSTORE PUSH1 0x24 ADD PUSH2 0x4AD JUMP JUMPDEST POP POP JUMP JUMPDEST PUSH0 DUP1 PUSH0 DUP4 MLOAD PUSH1 0x41 EQ PUSH2 0x10B2 JUMPI PUSH1 0x40 MLOAD PUSH3 0x461BCD PUSH1 0xE5 SHL DUP2 MSTORE PUSH1 0x20 PUSH1 0x4 DUP3 ADD MSTORE PUSH1 0x18 PUSH1 0x24 DUP3 ADD MSTORE PUSH32 0x696E76616C6964207369676E6174757265206C656E6774680000000000000000 PUSH1 0x44 DUP3 ADD MSTORE PUSH1 0x64 ADD PUSH2 0x4AD JUMP JUMPDEST POP POP POP PUSH1 0x20 DUP2 ADD MLOAD PUSH1 0x40 DUP3 ADD MLOAD PUSH1 0x60 SWAP1 SWAP3 ADD MLOAD SWAP1 SWAP3 PUSH0 SWAP2 SWAP1 SWAP2 BYTE SWAP1 JUMP JUMPDEST PUSH0 DUP1 DUP1 PUSH32 0x7FFFFFFFFFFFFFFFFFFFFFFFFFFFFFFF5D576E7357A4501DDFE92F46681B20A0 DUP5 GT ISZERO PUSH2 0x1108 JUMPI POP PUSH0 SWAP2 POP PUSH1 0x3 SWAP1 POP DUP3 PUSH2 0x118D JUMP JUMPDEST PUSH1 0x40 DUP1 MLOAD PUSH0 DUP1 DUP3 MSTORE PUSH1 0x20 DUP3 ADD DUP1 DUP5 MSTORE DUP11 SWAP1 MSTORE PUSH1 0xFF DUP10 AND SWAP3 DUP3 ADD SWAP3 SWAP1 SWAP3 MSTORE PUSH1 0x60 DUP2 ADD DUP8 SWAP1 MSTORE PUSH1 0x80 DUP2 ADD DUP7 SWAP1 MSTORE PUSH1 0x1 SWAP1 PUSH1 0xA0 ADD PUSH1 0x20 PUSH1 0x40 MLOAD PUSH1 0x20 DUP2 SUB SWAP1 DUP1 DUP5 SUB SWAP1 DUP6 GAS STATICCALL ISZERO DUP1 ISZERO PUSH2 0x1159 JUMPI RETURNDATASIZE PUSH0 DUP1 RETURNDATACOPY RETURNDATASIZE PUSH0 REVERT JUMPDEST POP POP PUSH1 0x40 MLOAD PUSH1 0x1F NOT ADD MLOAD SWAP2 POP POP PUSH1 0x1 PUSH1 0x1 PUSH1 0xA0 SHL SUB DUP2 AND PUSH2 0x1184 JUMPI POP PUSH0 SWAP3 POP PUSH1 0x1 SWAP2 POP DUP3 SWAP1 POP PUSH2 0x118D JUMP JUMPDEST SWAP3 POP PUSH0 SWAP2 POP DUP2 SWAP1 POP JUMPDEST SWAP5 POP SWAP5 POP SWAP5 SWAP2 POP POP JUMP JUMPDEST PUSH0 PUSH1 0x20 DUP3 DUP5 SUB SLT ISZERO PUSH2 0x11A7 JUMPI PUSH0 DUP1 REVERT JUMPDEST POP CALLDATALOAD SWAP2 SWAP1 POP JUMP JUMPDEST PUSH4 0x4E487B71 PUSH1 0xE0 SHL PUSH0 MSTORE PUSH1 0x41 PUSH1 0x4 MSTORE PUSH1 0x24 PUSH0 REVERT JUMPDEST PUSH0 DUP3 PUSH1 0x1F DUP4 ADD SLT PUSH2 0x11D1 JUMPI PUSH0 DUP1 REVERT JUMPDEST DUP2 CALLDATALOAD PUSH1 0x20 DUP4 ADD PUSH0 DUP1 PUSH8 0xFFFFFFFFFFFFFFFF DUP5 GT ISZERO PUSH2 0x11F1 JUMPI PUSH2 0x11F1 PUSH2 0x11AE JUMP JUMPDEST POP PUSH1 0x40 MLOAD PUSH1 0x1F NOT PUSH1 0x1F DUP6 ADD DUP2 AND PUSH1 0x3F ADD AND DUP2 ADD DUP2 DUP2 LT PUSH8 0xFFFFFFFFFFFFFFFF DUP3 GT OR ISZERO PUSH2 0x1220 JUMPI PUSH2 0x1220 PUSH2 0x11AE JUMP JUMPDEST PUSH1 0x40 MSTORE DUP4 DUP2 MSTORE SWAP1 POP DUP1 DUP3 DUP5 ADD DUP8 LT ISZERO PUSH2 0x1237 JUMPI PUSH0 DUP1 REVERT JUMPDEST DUP4 DUP4 PUSH1 0x20 DUP4 ADD CALLDATACOPY PUSH0 PUSH1 0x20 DUP6 DUP4 ADD ADD MSTORE DUP1 SWAP5 POP POP POP POP POP SWAP3 SWAP2 POP POP JUMP JUMPDEST PUSH0 PUSH1 0x20 DUP3 DUP5 SUB SLT ISZERO PUSH2 0x1263 JUMPI PUSH0 DUP1 REVERT JUMPDEST DUP2 CALLDATALOAD PUSH8 0xFFFFFFFFFFFFFFFF DUP2 GT ISZERO PUSH2 0x1279 JUMPI PUSH0 DUP1 REVERT JUMPDEST PUSH2 0x1285 DUP5 DUP3 DUP6 ADD PUSH2 0x11C2 JUMP JUMPDEST SWAP5 SWAP4 POP POP POP POP JUMP JUMPDEST PUSH0 DUP1 PUSH1 0x40 DUP4 DUP6 SUB SLT ISZERO PUSH2 0x129E JUMPI PUSH0 DUP1 REVERT JUMPDEST DUP3 CALLDATALOAD SWAP2 POP PUSH1 0x20 DUP4 ADD CALLDATALOAD PUSH8 0xFFFFFFFFFFFFFFFF DUP2 GT ISZERO PUSH2 0x12BB JUMPI PUSH0 DUP1 REVERT JUMPDEST PUSH2 0x12C7 DUP6 DUP3 DUP7 ADD PUSH2 0x11C2 JUMP JUMPDEST SWAP2 POP POP SWAP3 POP SWAP3 SWAP1 POP JUMP JUMPDEST PUSH1 0x1 PUSH1 0x1 PUSH1 0xA0 SHL SUB DUP2 AND DUP2 EQ PUSH2 0x12E5 JUMPI PUSH0 DUP1 REVERT JUMPDEST POP JUMP JUMPDEST PUSH0 DUP1 PUSH0 PUSH1 0x60 DUP5 DUP7 SUB SLT ISZERO PUSH2 0x12FA JUMPI PUSH0 DUP1 REVERT JUMPDEST DUP4 CALLDATALOAD PUSH2 0x1305 DUP2 PUSH2 0x12D1 JUMP JUMPDEST SWAP3 POP PUSH1 0x20 DUP5 ADD CALLDATALOAD PUSH2 0x1315 DUP2 PUSH2 0x12D1 JUMP JUMPDEST SWAP3 SWAP6 SWAP3 SWAP5 POP POP POP PUSH1 0x40 SWAP2 SWAP1 SWAP2 ADD CALLDATALOAD SWAP1 JUMP JUMPDEST PUSH0 PUSH1 0x20 DUP3 DUP5 SUB SLT ISZERO PUSH2 0x1336 JUMPI PUSH0 DUP1 REVERT JUMPDEST DUP2 CALLDATALOAD PUSH2 0x1341 DUP2 PUSH2 0x12D1 JUMP JUMPDEST SWAP4 SWAP3 POP POP POP JUMP JUMPDEST PUSH0 DUP1 PUSH0 PUSH1 0x60 DUP5 DUP7 SUB SLT ISZERO PUSH2 0x135A JUMPI PUSH0 DUP1 REVERT JUMPDEST DUP4 CALLDATALOAD SWAP3 POP PUSH1 0x20 DUP5 ADD CALLDATALOAD PUSH2 0x1315 DUP2 PUSH2 0x12D1 JUMP JUMPDEST PUSH0 DUP2 MLOAD DUP1 DUP5 MSTORE DUP1 PUSH1 0x20 DUP5 ADD PUSH1 0x20 DUP7 ADD MCOPY PUSH0 PUSH1 0x20 DUP3 DUP7 ADD ADD MSTORE PUSH1 0x20 PUSH1 0x1F NOT PUSH1 0x1F DUP4 ADD AND DUP6 ADD ADD SWAP2 POP POP SWAP3 SWAP2 POP POP JUMP JUMPDEST PUSH1 0x20 DUP2 MSTORE PUSH0 PUSH2 0x47B PUSH1 0x20 DUP4 ADD DUP5 PUSH2 0x136C JUMP JUMPDEST PUSH0 DUP1 PUSH0 DUP1 PUSH1 0x80 DUP6 DUP8 SUB SLT ISZERO PUSH2 0x13BF JUMPI PUSH0 DUP1 REVERT JUMPDEST DUP5 CALLDATALOAD PUSH8 0xFFFFFFFFFFFFFFFF DUP2 GT ISZERO PUSH2 0x13D5 JUMPI PUSH0 DUP1 REVERT JUMPDEST PUSH2 0x13E1 DUP8 DUP3 DUP9 ADD PUSH2 0x11C2 JUMP JUMPDEST SWAP5 POP POP PUSH1 0x20 DUP6 ADD CALLDATALOAD PUSH2 0x13F2 DUP2 PUSH2 0x12D1 JUMP JUMPDEST SWAP3 POP PUSH1 0x40 DUP6 ADD CALLDATALOAD PUSH2 0x1402 DUP2 PUSH2 0x12D1 JUMP JUMPDEST SWAP4 SWAP7 SWAP3 SWAP6 POP SWAP3 SWAP4 PUSH1 0x60 ADD CALLDATALOAD SWAP3 POP POP JUMP JUMPDEST PUSH0 DUP1 PUSH0 DUP1 PUSH0 DUP1 PUSH1 0xC0 DUP8 DUP10 SUB SLT ISZERO PUSH2 0x1427 JUMPI PUSH0 DUP1 REVERT JUMPDEST DUP7 CALLDATALOAD PUSH2 0x1432 DUP2 PUSH2 0x12D1 JUMP JUMPDEST SWAP6 POP PUSH1 0x20 DUP8 ADD CALLDATALOAD SWAP5 POP PUSH1 0x40 DUP8 ADD CALLDATALOAD PUSH8 0xFFFFFFFFFFFFFFFF DUP2 GT ISZERO PUSH2 0x1454 JUMPI PUSH0 DUP1 REVERT JUMPDEST PUSH2 0x1460 DUP10 DUP3 DUP11 ADD PUSH2 0x11C2 JUMP JUMPDEST SWAP5 POP POP PUSH1 0x60 DUP8 ADD CALLDATALOAD PUSH8 0xFFFFFFFFFFFFFFFF DUP2 GT ISZERO PUSH2 0x147C JUMPI PUSH0 DUP1 REVERT JUMPDEST PUSH2 0x1488 DUP10 DUP3 DUP11 ADD PUSH2 0x11C2 JUMP JUMPDEST SWAP4 POP POP PUSH1 0x80 DUP8 ADD CALLDATALOAD PUSH8 0xFFFFFFFFFFFFFFFF DUP2 GT ISZERO PUSH2 0x14A4 JUMPI PUSH0 DUP1 REVERT JUMPDEST PUSH2 0x14B0 DUP10 DUP3 DUP11 ADD PUSH2 0x11C2 JUMP JUMPDEST SWAP7 SWAP10 SWAP6 SWAP9 POP SWAP4 SWAP7 SWAP3 SWAP6 SWAP5 PUSH1 0xA0 SWAP1 SWAP4 ADD CALLDATALOAD SWAP4 POP POP POP JUMP JUMPDEST PUSH0 DUP1 PUSH1 0x40 DUP4 DUP6 SUB SLT ISZERO PUSH2 0x14D7 JUMPI PUSH0 DUP1 REVERT JUMPDEST DUP3 CALLDATALOAD PUSH8 0xFFFFFFFFFFFFFFFF DUP2 GT ISZERO PUSH2 0x14ED JUMPI PUSH0 DUP1 REVERT JUMPDEST PUSH2 0x14F9 DUP6 DUP3 DUP7 ADD PUSH2 0x11C2 JUMP JUMPDEST SWAP3 POP POP PUSH1 0x20 DUP4 ADD CALLDATALOAD PUSH8 0xFFFFFFFFFFFFFFFF DUP2 GT ISZERO PUSH2 0x12BB JUMPI PUSH0 DUP1 REVERT JUMPDEST PUSH1 0x1 DUP2 DUP2 SHR SWAP1 DUP3 AND DUP1 PUSH2 0x1529 JUMPI PUSH1 0x7F DUP3 AND SWAP2 POP JUMPDEST PUSH1 0x20 DUP3 LT DUP2 SUB PUSH2 0x1547 JUMPI PUSH4 0x4E487B71 PUSH1 0xE0 SHL PUSH0 MSTORE PUSH1 0x22 PUSH1 0x4 MSTORE PUSH1 0x24 PUSH0 REVERT JUMPDEST POP SWAP2 SWAP1 POP JUMP JUMPDEST PUSH0 DUP1 DUP4 SLOAD PUSH2 0x155A DUP2 PUSH2 0x1515 JUMP JUMPDEST PUSH1 0x1 DUP3 AND DUP1 ISZERO PUSH2 0x1571 JUMPI PUSH1 0x1 DUP2 EQ PUSH2 0x1586 JUMPI PUSH2 0x15B3 JUMP JUMPDEST PUSH1 0xFF NOT DUP4 AND DUP7 MSTORE DUP2 ISZERO ISZERO DUP3 MUL DUP7 ADD SWAP4 POP PUSH2 0x15B3 JUMP JUMPDEST DUP7 PUSH0 MSTORE PUSH1 0x20 PUSH0 KECCAK256 PUSH0 JUMPDEST DUP4 DUP2 LT ISZERO PUSH2 0x15AB JUMPI DUP2 SLOAD DUP9 DUP3 ADD MSTORE PUSH1 0x1 SWAP1 SWAP2 ADD SWAP1 PUSH1 0x20 ADD PUSH2 0x158F JUMP JUMPDEST POP POP DUP2 DUP7 ADD SWAP4 POP JUMPDEST POP SWAP2 SWAP6 SWAP5 POP POP POP POP POP JUMP JUMPDEST PUSH1 0x20 DUP1 DUP3 MSTORE PUSH1 0x8 SWAP1 DUP3 ADD MSTORE PUSH8 0x2737BA1029B2B633 PUSH1 0xC1 SHL PUSH1 0x40 DUP3 ADD MSTORE PUSH1 0x60 ADD SWAP1 JUMP JUMPDEST PUSH1 0x20 DUP1 DUP3 MSTORE PUSH1 0x1E SWAP1 DUP3 ADD MSTORE PUSH32 0x4D757374206265206E6F6E2D7A65726F20736967732072657175697265640000 PUSH1 0x40 DUP3 ADD MSTORE PUSH1 0x60 ADD SWAP1 JUMP JUMPDEST PUSH1 0x1 PUSH1 0x1 PUSH1 0xA0 SHL SUB DUP5 AND DUP2 MSTORE PUSH1 0x60 PUSH1 0x20 DUP1 DUP4 ADD DUP3 SWAP1 MSTORE DUP5 SLOAD SWAP2 DUP4 ADD DUP3 SWAP1 MSTORE PUSH0 DUP6 DUP2 MSTORE SWAP1 DUP2 KECCAK256 SWAP1 SWAP2 PUSH1 0x80 DUP5 ADD SWAP1 DUP4 JUMPDEST DUP2 DUP2 LT ISZERO PUSH2 0x166C JUMPI DUP4 SLOAD PUSH1 0x1 PUSH1 0x1 PUSH1 0xA0 SHL SUB AND DUP4 MSTORE PUSH1 0x1 SWAP4 DUP5 ADD SWAP4 PUSH1 0x20 SWAP1 SWAP4 ADD SWAP3 ADD PUSH2 0x1645 JUMP JUMPDEST POP POP PUSH1 0x40 SWAP4 SWAP1 SWAP4 ADD SWAP4 SWAP1 SWAP4 MSTORE POP SWAP4 SWAP3 POP POP POP JUMP JUMPDEST PUSH4 0x4E487B71 PUSH1 0xE0 SHL PUSH0 MSTORE PUSH1 0x11 PUSH1 0x4 MSTORE PUSH1 0x24 PUSH0 REVERT JUMPDEST PUSH0 PUSH1 0x1 DUP3 ADD PUSH2 0x16A5 JUMPI PUSH2 0x16A5 PUSH2 0x1680 JUMP JUMPDEST POP PUSH1 0x1 ADD SWAP1 JUMP JUMPDEST PUSH0 DUP3 MLOAD DUP1 PUSH1 0x20 DUP6 ADD DUP5 MCOPY PUSH0 SWAP3 ADD SWAP2 DUP3 MSTORE POP SWAP2 SWAP1 POP JUMP JUMPDEST PUSH1 0x1F DUP3 GT ISZERO PUSH2 0x1706 JUMPI DUP1 PUSH0 MSTORE PUSH1 0x20 PUSH0 KECCAK256 PUSH1 0x1F DUP5 ADD PUSH1 0x5 SHR DUP2 ADD PUSH1 0x20 DUP6 LT ISZERO PUSH2 0x16E7 JUMPI POP DUP1 JUMPDEST PUSH1 0x1F DUP5 ADD PUSH1 0x5 SHR DUP3 ADD SWAP2 POP JUMPDEST DUP2 DUP2 LT ISZERO PUSH2 0xE0C JUMPI PUSH0 DUP2 SSTORE PUSH1 0x1 ADD PUSH2 0x16F3 JUMP JUMPDEST POP POP POP JUMP JUMPDEST DUP2 MLOAD PUSH8 0xFFFFFFFFFFFFFFFF DUP2 GT ISZERO PUSH2 0x1725 JUMPI PUSH2 0x1725 PUSH2 0x11AE JUMP JUMPDEST PUSH2 0x1739 DUP2 PUSH2 0x1733 DUP5 SLOAD PUSH2 0x1515 JUMP JUMPDEST DUP5 PUSH2 0x16C2 JUMP JUMPDEST PUSH1 0x20 PUSH1 0x1F DUP3 GT PUSH1 0x1 DUP2 EQ PUSH2 0x176B JUMPI PUSH0 DUP4 ISZERO PUSH2 0x1754 JUMPI POP DUP5 DUP3 ADD MLOAD JUMPDEST PUSH0 NOT PUSH1 0x3 DUP6 SWAP1 SHL SHR NOT AND PUSH1 0x1 DUP5 SWAP1 SHL OR DUP5 SSTORE PUSH2 0xE0C JUMP JUMPDEST PUSH0 DUP5 DUP2 MSTORE PUSH1 0x20 DUP2 KECCAK256 PUSH1 0x1F NOT DUP6 AND SWAP2 JUMPDEST DUP3 DUP2 LT ISZERO PUSH2 0x179A JUMPI DUP8 DUP6 ADD MLOAD DUP3 SSTORE PUSH1 0x20 SWAP5 DUP6 ADD SWAP5 PUSH1 0x1 SWAP1 SWAP3 ADD SWAP2 ADD PUSH2 0x177A JUMP JUMPDEST POP DUP5 DUP3 LT ISZERO PUSH2 0x17B7 JUMPI DUP7 DUP5 ADD MLOAD PUSH0 NOT PUSH1 0x3 DUP8 SWAP1 SHL PUSH1 0xF8 AND SHR NOT AND DUP2 SSTORE JUMPDEST POP POP POP POP PUSH1 0x1 SWAP1 DUP2 SHL ADD SWAP1 SSTORE POP JUMP JUMPDEST DUP2 DUP2 SUB DUP2 DUP2 GT ISZERO PUSH2 0x47E JUMPI PUSH2 0x47E PUSH2 0x1680 JUMP JUMPDEST PUSH4 0x4E487B71 PUSH1 0xE0 SHL PUSH0 MSTORE PUSH1 0x32 PUSH1 0x4 MSTORE PUSH1 0x24 PUSH0 REVERT JUMPDEST PUSH4 0x4E487B71 PUSH1 0xE0 SHL PUSH0 MSTORE PUSH1 0x31 PUSH1 0x4 MSTORE PUSH1 0x24 PUSH0 REVERT JUMPDEST PUSH0 DUP2 PUSH2 0x180F JUMPI PUSH2 0x180F PUSH2 0x1680 JUMP JUMPDEST POP PUSH0 NOT ADD SWAP1 JUMP JUMPDEST PUSH4 0x4E487B71 PUSH1 0xE0 SHL PUSH0 MSTORE PUSH1 0x21 PUSH1 0x4 MSTORE PUSH1 0x24 PUSH0 REVERT INVALID LOG2 PUSH5 0x6970667358 0x22 SLT KECCAK256 SWAP5 SWAP9 DUP4 EXTCODECOPY 0x4B CALL 0x4F PUSH21 0xE0F639318BC630A2EA0425EAB249C792508C1185A2 BLOCKHASH 0xEC 0xC0 PUSH5 0x736F6C6343 STOP ADDMOD BYTE STOP CALLER "
		},
		"gasEstimates": {
			"creation": {
				"codeDepositCost": "1248000",
				"executionCost": "infinite",
				"totalCost": "infinite"
			},
			"external": {
				"addSigner(address,address,uint256)": "infinite",
				"chainId()": "2372",
				"executeApproval(address,uint256,bytes,string,string,uint256)": "infinite",
				"getFunctionData(string,address,address,uint256)": "infinite",
				"getTransactionHash(uint256,address,uint256)": "2838",
				"incrementNonce()": "26676",
				"isOwner(address)": "2567",
				"nonce()": "2327",
				"owners(uint256)": "4657",
				"recover(bytes32,bytes)": "infinite",
				"removeSigner(address,address,uint256)": "infinite",
				"signaturesRequired()": "2349",
				"totalTransactionValidations(uint256)": "infinite",
				"transactionNo(uint256)": "infinite",
				"transactionValidations(string)": "infinite",
				"validSignatures(string)": "infinite",
				"verifyUserSign(string,bytes)": "infinite"
			},
			"internal": {
				"_removeOwner(address)": "infinite",
				"getEthSignedMessageHash(bytes32)": "infinite",
				"getMessageHash(string memory)": "infinite",
				"recoverSigner(bytes32,bytes memory)": "infinite",
				"splitSignature(bytes memory)": "infinite",
				"updateSignaturesRequired(address,uint256)": "infinite"
			}
		},
		"methodIdentifiers": {
			"addSigner(address,address,uint256)": "95a3ac74",
			"chainId()": "9a8a0592",
			"executeApproval(address,uint256,bytes,string,string,uint256)": "d17eced3",
			"getFunctionData(string,address,address,uint256)": "a157b0ae",
			"getTransactionHash(uint256,address,uint256)": "3aaa4771",
			"incrementNonce()": "627cdcb9",
			"isOwner(address)": "2f54bf6e",
			"nonce()": "affed0e0",
			"owners(uint256)": "025e7c27",
			"recover(bytes32,bytes)": "19045a25",
			"removeSigner(address,address,uint256)": "1f919f77",
			"signaturesRequired()": "ce757d29",
			"totalTransactionValidations(uint256)": "019010f6",
			"transactionNo(uint256)": "7708072c",
			"transactionValidations(string)": "7c72596e",
			"validSignatures(string)": "06a23e5f",
			"verifyUserSign(string,bytes)": "f2b0bb6b"
		}
	},
	"abi": [
		{
			"inputs": [
				{
					"internalType": "uint256",
					"name": "_chainId",
					"type": "uint256"
				},
				{
					"internalType": "address[]",
					"name": "_owners",
					"type": "address[]"
				},
				{
					"internalType": "uint256",
					"name": "_signaturesRequired",
					"type": "uint256"
				},
				{
					"internalType": "address",
					"name": "_factory",
					"type": "address"
				}
			],
			"stateMutability": "payable",
			"type": "constructor"
		},
		{
			"inputs": [],
			"name": "ECDSAInvalidSignature",
			"type": "error"
		},
		{
			"inputs": [
				{
					"internalType": "uint256",
					"name": "length",
					"type": "uint256"
				}
			],
			"name": "ECDSAInvalidSignatureLength",
			"type": "error"
		},
		{
			"inputs": [
				{
					"internalType": "bytes32",
					"name": "s",
					"type": "bytes32"
				}
			],
			"name": "ECDSAInvalidSignatureS",
			"type": "error"
		},
		{
			"anonymous": false,
			"inputs": [
				{
					"indexed": true,
					"internalType": "address",
					"name": "sender",
					"type": "address"
				},
				{
					"indexed": false,
					"internalType": "uint256",
					"name": "amount",
					"type": "uint256"
				},
				{
					"indexed": false,
					"internalType": "uint256",
					"name": "balance",
					"type": "uint256"
				}
			],
			"name": "Deposit",
			"type": "event"
		},
		{
			"anonymous": false,
			"inputs": [
				{
					"indexed": true,
					"internalType": "address",
					"name": "owner",
					"type": "address"
				},
				{
					"indexed": false,
					"internalType": "address payable",
					"name": "to",
					"type": "address"
				},
				{
					"indexed": false,
					"internalType": "uint256",
					"name": "value",
					"type": "uint256"
				},
				{
					"indexed": false,
					"internalType": "uint256",
					"name": "nonce",
					"type": "uint256"
				},
				{
					"indexed": false,
					"internalType": "bytes32",
					"name": "hash",
					"type": "bytes32"
				}
			],
			"name": "ExecuteTransaction",
			"type": "event"
		},
		{
			"anonymous": false,
			"inputs": [
				{
					"indexed": true,
					"internalType": "address",
					"name": "owner",
					"type": "address"
				},
				{
					"indexed": false,
					"internalType": "bool",
					"name": "added",
					"type": "bool"
				}
			],
			"name": "Owner",
			"type": "event"
		},
		{
			"inputs": [
				{
					"internalType": "address",
					"name": "owner",
					"type": "address"
				},
				{
					"internalType": "address",
					"name": "newSigner",
					"type": "address"
				},
				{
					"internalType": "uint256",
					"name": "newSignaturesRequired",
					"type": "uint256"
				}
			],
			"name": "addSigner",
			"outputs": [],
			"stateMutability": "nonpayable",
			"type": "function"
		},
		{
			"inputs": [],
			"name": "chainId",
			"outputs": [
				{
					"internalType": "uint256",
					"name": "",
					"type": "uint256"
				}
			],
			"stateMutability": "view",
			"type": "function"
		},
		{
			"inputs": [
				{
					"internalType": "address payable",
					"name": "to",
					"type": "address"
				},
				{
					"internalType": "uint256",
					"name": "value",
					"type": "uint256"
				},
				{
					"internalType": "bytes",
					"name": "signature",
					"type": "bytes"
				},
				{
					"internalType": "string",
					"name": "passkey",
					"type": "string"
				},
				{
					"internalType": "string",
					"name": "transactionStamp",
					"type": "string"
				},
				{
					"internalType": "uint256",
					"name": "trxNo",
					"type": "uint256"
				}
			],
			"name": "executeApproval",
			"outputs": [
				{
					"internalType": "bool",
					"name": "",
					"type": "bool"
				}
			],
			"stateMutability": "nonpayable",
			"type": "function"
		},
		{
			"inputs": [
				{
					"internalType": "string",
					"name": "functionSignature",
					"type": "string"
				},
				{
					"internalType": "address",
					"name": "owner",
					"type": "address"
				},
				{
					"internalType": "address",
					"name": "newSigner",
					"type": "address"
				},
				{
					"internalType": "uint256",
					"name": "newSignaturesRequired",
					"type": "uint256"
				}
			],
			"name": "getFunctionData",
			"outputs": [
				{
					"internalType": "bytes",
					"name": "",
					"type": "bytes"
				}
			],
			"stateMutability": "pure",
			"type": "function"
		},
		{
			"inputs": [
				{
					"internalType": "uint256",
					"name": "_nonce",
					"type": "uint256"
				},
				{
					"internalType": "address",
					"name": "to",
					"type": "address"
				},
				{
					"internalType": "uint256",
					"name": "value",
					"type": "uint256"
				}
			],
			"name": "getTransactionHash",
			"outputs": [
				{
					"internalType": "bytes32",
					"name": "",
					"type": "bytes32"
				}
			],
			"stateMutability": "view",
			"type": "function"
		},
		{
			"inputs": [],
			"name": "incrementNonce",
			"outputs": [
				{
					"internalType": "uint256",
					"name": "",
					"type": "uint256"
				}
			],
			"stateMutability": "nonpayable",
			"type": "function"
		},
		{
			"inputs": [
				{
					"internalType": "address",
					"name": "",
					"type": "address"
				}
			],
			"name": "isOwner",
			"outputs": [
				{
					"internalType": "bool",
					"name": "",
					"type": "bool"
				}
			],
			"stateMutability": "view",
			"type": "function"
		},
		{
			"inputs": [],
			"name": "nonce",
			"outputs": [
				{
					"internalType": "uint256",
					"name": "",
					"type": "uint256"
				}
			],
			"stateMutability": "view",
			"type": "function"
		},
		{
			"inputs": [
				{
					"internalType": "uint256",
					"name": "",
					"type": "uint256"
				}
			],
			"name": "owners",
			"outputs": [
				{
					"internalType": "address",
					"name": "",
					"type": "address"
				}
			],
			"stateMutability": "view",
			"type": "function"
		},
		{
			"inputs": [
				{
					"internalType": "bytes32",
					"name": "_hash",
					"type": "bytes32"
				},
				{
					"internalType": "bytes",
					"name": "_signature",
					"type": "bytes"
				}
			],
			"name": "recover",
			"outputs": [
				{
					"internalType": "address",
					"name": "",
					"type": "address"
				}
			],
			"stateMutability": "pure",
			"type": "function"
		},
		{
			"inputs": [
				{
					"internalType": "address",
					"name": "owner",
					"type": "address"
				},
				{
					"internalType": "address",
					"name": "oldSigner",
					"type": "address"
				},
				{
					"internalType": "uint256",
					"name": "newSignaturesRequired",
					"type": "uint256"
				}
			],
			"name": "removeSigner",
			"outputs": [],
			"stateMutability": "nonpayable",
			"type": "function"
		},
		{
			"inputs": [],
			"name": "signaturesRequired",
			"outputs": [
				{
					"internalType": "uint256",
					"name": "",
					"type": "uint256"
				}
			],
			"stateMutability": "view",
			"type": "function"
		},
		{
			"inputs": [
				{
					"internalType": "uint256",
					"name": "trxNo",
					"type": "uint256"
				}
			],
			"name": "totalTransactionValidations",
			"outputs": [
				{
					"internalType": "uint256",
					"name": "",
					"type": "uint256"
				}
			],
			"stateMutability": "view",
			"type": "function"
		},
		{
			"inputs": [
				{
					"internalType": "uint256",
					"name": "",
					"type": "uint256"
				}
			],
			"name": "transactionNo",
			"outputs": [
				{
					"internalType": "string",
					"name": "",
					"type": "string"
				}
			],
			"stateMutability": "view",
			"type": "function"
		},
		{
			"inputs": [
				{
					"internalType": "string",
					"name": "",
					"type": "string"
				}
			],
			"name": "transactionValidations",
			"outputs": [
				{
					"internalType": "uint256",
					"name": "",
					"type": "uint256"
				}
			],
			"stateMutability": "view",
			"type": "function"
		},
		{
			"inputs": [
				{
					"internalType": "string",
					"name": "",
					"type": "string"
				}
			],
			"name": "validSignatures",
			"outputs": [
				{
					"internalType": "uint256",
					"name": "",
					"type": "uint256"
				}
			],
			"stateMutability": "view",
			"type": "function"
		},
		{
			"inputs": [
				{
					"internalType": "string",
					"name": "_passkey",
					"type": "string"
				},
				{
					"internalType": "bytes",
					"name": "signature",
					"type": "bytes"
				}
			],
			"name": "verifyUserSign",
			"outputs": [
				{
					"internalType": "address",
					"name": "userWalletAddress",
					"type": "address"
				}
			],
			"stateMutability": "pure",
			"type": "function"
		},
		{
			"stateMutability": "payable",
			"type": "receive"
		}
	]
}